S0160000486153616D706C65476174657761792E73333701
S31508002000F82600201DAA01088DA9010891A9010832
S31508002010A70A080100210008040303AC505456041B
S3150800202000000000000000000000000000000000A2
S315080020300000000000000000000000000000000092
S315080020400000000000000000FFFFFFFFFFFFFFFF8A
S31508002050FFFFFFFF007002080000000000000000FC
S31508002060FFFFFFFFFFFFFFFFFFFFFFFFFFFFFFFF72
S31508002070FFFFFFFFFFFFFFFFFFFFFFFFFFFFFFFF62
S315080020800000000000000000EA2F0020EA2F0020D0
S31508002090F8260020D8B6010878AC0108981D00205B
S311080020A0380D00200000030800000000B6
S31508002100F82600201DAA01088DA9010891A9010831
S3150800211099A9010895A901089DA9010818AA010805
S3150800212018AA010818AA010818AA010818AA010875
S31508002130A1A9010818AA010818AA0108C13C0008A3
S31508002140B796010818AA01084B75000818AA0108CD
S315080021504979000818AA010818AA010818AA010846
S3150800216093670008D53200085B2D00089121000806
S3150800217018AA0108DF73000827740008034100083D
S3150800218018AA010818AA010818AA010819AA010814
S3150800219070B52C482C4942780B685B0725D5032A6D
S315080021A023DA838800EB4204A3810123847803FAA7
S315080021B002F222438270254C0278002A12D00025AA
S315080021C022FA05F6F60708D5AB4045705A40027064
S315080021D010EB4500808A206007E06D1CEDB2032DE8
S315080021E0EEDB02E02260032242704FF6FF700860C1
S315080021F0BFF35F8F70BD13480021017000220321D1
S3150800220041700021C1700521018100218170001DE6
S315080022100E490A604A604FF400428A601022CA607A
S315080022204861012088610320C860042106480164CA
S315080022304FF6FF7101604FF400600549086000F031
S3150800224045B80000C828002010A8004004D0004067
S3150800225000E100E0DFF8E03433F810001040C84031
S31508002260704730B50FF29054DFF8D03434F8104088
S315080022709C601140DFF8C04434F810509543294358
S31508002280D96002221A6000221A6024F810105868D1
S315080022900028FCD130BDDFF8A824DFF8A80412789E
S315080022A0DFF8A4140AB149780EE0895611F1090F2E
S315080022B0B8BF302108DBC16D39B1C26D40F24A3171
S315080022C0B1FBF2F189B2C91E01607047E0B5DFF8CB
S315080022D07C0401880A2300F064F8BDF806104FF65E
S315080022E0FF720D20FFF7BDFF07BDF8B50546B5F52A
S315080022F0004FDFF8544419D1DFF85404018802234B
S3150800230000F04FF8BDF80000000AFF2814BF0028A7
S3150800231018206070BDF800000006C00E10281CBF0B
S31508002320001D00F098F9BDF80000C543DFF81064F9
S31508002330707808B1002005E0A089ADB26840C007F2
S3150800234001D501207070DFF80C04A58105F00104A1
S31508002350016841F400410160C5F340070FF2BC4033
S3150800236000EB44004FF440524078010389B2022042
S31508002370FFF777FF204600F053FA4022B90100F034
S3150800238005FA2D06A80E00F0010038433070FFF755
S3150800239082FF707818B1FFF799FF0020707000204F
S315080023A0F2BD7F2200A800F0B1BA2DE9F04FDFF8A0
S315080023B0AC43207887B0042304900B210B38C0B2B5
S315080023C0039000A8039A00F019FB9DF800008DF809
S315080023D00A009DF801008DF809009DF802008DF8A5
S315080023E008009DF803008DF80500DFF874030078EF
S315080023F0012804D16078451EAD41ED0F00E00125A6
S3150800240000F083FD83469DF902000399D24F0BF134
S315080024100A0AABF10A065045B6BF86424FF00108D4
S315080024204FF0000801208840ADF806009DF801002D
S31508002430000604D47888BDF80610084201D04FF08B
S31508002440010800F0EBFD9DF8030000060AD4B888E1
S31508002450BDF80610084205D19DF900005045B8BFE1
S31508002460864202DB4FF0010901E04FF0000948EA15
S31508002470050059EA000000F09E80DFF8E8A2BA4994
S31508002480DAF8000000F002008DF80400B74800688A
S3150800249000F4E06005904FF4E0600860002001F069
S315080024A0B3F901F025FCB24EADB1607858B1DAF84F
S315080024B00000AB4940084000CAF800000120087037
S315080024C001F0F6FC07E0306840F4005030603068F0
S315080024D020F480503060A248007801280DD101F020
S315080024E0CFFDDAF800009E4940F00100CAF8000066
S315080024F000200870642001F0DBFC2DB1607818B963
S315080025000498C0B201F041FE607838B1306820F412
S3150800251080503060306840F400503060BDF80600E6
S31508002520C543B8F1000F08D001F01AFF8DF8010075
S315080025308DF802B0788828407880B9F1000F08D065
S3150800254001F0BFFF8DF803008DF800B0B888284069
S31508002550B8809DF900009DF90A10884202BF9DF8CF
S3150800256001009DF8091088420BD19DF902009DF9DA
S315080025700810884202BF9DF803009DF8051088429E
S3150800258006D00399042300AAC9B20B2000F047FA23
S3150800259005987649086000F077FA9DF8040001F07E
S315080025A033F902F0AEF8607828B148F2607030600E
S315080025B0642001F07DFC9DF8010001F03DFE9DF8C8
S315080025C0030001F079FF07B0BDE8F08F80B500F091
S315080025D08FFCBDE80140E8E600F08ABC70B5064607
S315080025E0A6F10B0401F077F80546A6F10B001028B2
S315080025F001D38A2070BD5F488168090702D4006844
S31508002600C00701D58C2070BD544806705A48016829
S315080026100C290FD00FF27811584A92F90020A4B26B
S3150800262031F824105118C161FFF7BFFE012D08BF0C
S3150800263000F0E2FF002070BD10B5044600F058FC1B
S315080026402046BDE81040C9E74448007870473E4830
S3150800265090F9000070472DE9F041044614F12B0F5C
S3150800266086B045DB464801881423FFF79AFEBDF875
S3150800267010004FF6FF71884203D0400448BF012678
S3150800268006D43F2200211020FFF7E4FD0546002668
S3150800269004F12B022F2A2C483A491AD213220FF298
S315080026A0301300E0521ED2B213F91270BC42F9DBA5
S315080026B003EB4204032764780C60002413F8121015
S315080026C0017000208046AEB1BDF810104FF6BF72FB
S315080026D029E0092C0CDA225C0A60047014232A48C3
S315080026E00188FFF75EFE01240320A0462827EAE7B3
S315080026F08B201DE0C1024FF4605200F047F84FF4FA
S31508002700E062210200F042F880224FEAC81100F088
S315080027103DF885F020003D18ADB2402DA8BF3F25F5
S315080027203F2285F0200100F031F8FFF7B4FD0020C4
S3150800273006B0BDE8F0810000A02B0020E81000409C
S31508002740BF2F0020641000400C280020FCB40108AC
S3150800275006B501081C1000401E2900200728002085
S315080027608C2800208020004080E100E000E100E0A5
S31508002770D010004060200040AC100040BE2F002062
S31508002780F8B40108C0100040FAB401080B2068E547
S31508002790AA2129005523290000252800AA26270052
S315080027A055282700002A2600AA2B2600552D250085
S315080027B0002F2400AA3024005532230000342200BA
S315080027C0AA3522005537210000392000AA3A2000F0
S315080027D0D500E601EC02EF03F204F405F506F70767
S315080027E0F808F909FA0AFB0BFC0DFD0FFE11FF1399
S315080027F000160119021C031F1000110020003000EA
S315080028004000410050006000700080009000A00069
S31508002810B000C000D000E000F00000000000010396
S31508002820F0B5044689B0002001F0DAFA2648018896
S315080028300A237F2200A800F069F8BDF802004FF6C7
S31508002840FF75A84204D1DC210FF2940001F092FF33
S315080028500FF2A407002601E02A4616B94FF47C4277
S3150800286003E0022E08BF4EF23F0200A800F032F83D
S31508002870761C052EF0D3012C03D114237F2213488E
S3150800288002E014237F221248018803A800F03EF8CC
S3150800289000260FF26C072A4608E02A46012E08BFD2
S315080028A04FF6C07202D0082E08BF002203A800F017
S315080028B011F8761C0A2EF0D3012C04BF012001F072
S315080028C08FFA09B0F0BD0000FCB40108FAB401089B
S315080028D0F8B4010830F81610F05DFFF7C2BC000026
S315080028E0616E616C6F6775652D63656C6C2D6269C9
S315080028F061732E630000000000100C0D0E0000002E
S31508002900010203040708090A0B0F000030B5044644
S3150800291010467F2808BF0020B1F5004F83B01AD1B2
S3150800292008237F2240F6120100A8FFF7EFFF0822CE
S315080029300FF2380100A802F065F830B908237F22A3
S3150800294040F2A27100A8FFF7E1FF082200A920467D
S3150800295002F00EF837BD044D294300FB03111A4651
S31508002960204602F005F837BD00000408FFFFFFFF08
S31508002970FFFFFFFF30B50FF20C11DFF8F8500A68B9
S3150800298083B001A80024026001202870002002F00C
S3150800299059F830B1002002F055F810B12C704920D2
S315080029A03EBDDFF8D400018802237F220DF1020024
S315080029B000F024F802237F22002100A800F01EF868
S315080029C0204601A9BDF8022031F81010914208BF2F
S315080029D00124401C0228F4D3BDF8000024B1B0F548
S315080029E07F7F07D100203EBDB0F57F7F0CBF062054
S315080029F0042000E00720002129703EBD10B5FF29FC
S31508002A0008DCDFF87040247844B1BDE81040C9B24C
S31508002A1002F0D9BCBDE81040FFF778BF10BD2DE91C
S31508002A20F0410546FF2D0E46174698460FF24C0014
S31508002A3012DC104C2178A1B1617811B1C22101F0E4
S31508002A4099FE01206070434632463946E8B202F0E4
S31508002A50E1FF0020607004E0BDE8F041CD2101F0FF
S31508002A6089BEBDE8F08103490978002918BF03F03B
S31508002A700BB97047BA2F002004B50108746F6B654F
S31508002A806E2E6300FE01FD0210B5DFF838451020F2
S31508002A90206303F0C3F9DFF830150A6842F0010233
S31508002AA00A6003F0C1F9DFF8240500F10801616046
S31508002AB02160923061688931616001212163E0609B
S31508002AC0A060DFF80C15E0688930E060022020631A
S31508002AD04FF6FF70086010BDDFF8F80445F2640190
S31508002AE0C1601E21416250210162C821C161816510
S31508002AF0F021C16545F69001416688218166062167
S31508002B00C16644F2066101604FF6FF714160DFF865
S31508002B10C804007838B1DFF8C40448F2607101606F
S31508002B204FF4C1514160DFF8B804016841F004016F
S31508002B3001600020DFF8AC14487070472DE9F04FAB
S31508002B40DFF888148A2283B002FB0012083200924A
S31508002B500427521C04465378127802EB0325ADB2BB
S31508002B6005F44063B3F5006F05F440424FF00009E1
S31508002B704FF0010A08BF082703D0B3F5406F08BF16
S31508002B800E271AB16B065CBFBB1CDFB2DFF85834E0
S31508002B901B784B7040180190A806019981F802909D
S31508002BA064D5DFF84864706E00065FD5009838185B
S31508002BB0B2F5404F4FF4806B4FF4006807D103F02D
S31508002BC084F95FEA000947D007F1080019E0B2F571
S31508002BD0004F41D100994078795C01EB002080B222
S31508002BE003F0F0FBFF2808BFCA4609D0DFF8001437
S31508002BF0096831F810004FF4FE6108422CD0D1461E
S31508002C00B81CC0B2410805F00702032A24D1002CDB
S31508002C1014BF726832688A421ED3002C14BF7268C9
S31508002C2032684B1C9A42F8D30099405C042813D1A9
S31508002C30BAF1000F02D0B9F1000F0DD0F06DC00641
S31508002C4006D400F015F803D0706C40F001007064EB
S31508002C5001200199887009E0F06DC00606D500F0DC
S31508002C6007F803D0706C400840007064BDE8F78F21
S31508002C70B06C04B1C34610EA0B0F70472DE9F04E4D
S31508002C800446DFF84863DFF864538A2000FB0460D3
S31508002C9000F1080B002C0CBF28686868C1B205292A
S31508002CA003DA7068401C706055E040005FFA80F9EE
S31508002CB009EB0B00A0F108073878797801EB0020BA
S31508002CC01FFA80FA7078387003F04BFC7870C94F99
S31508002CD0F86B20F48050F863686E14B938684005BC
S31508002CE004D4012C1FD1386800051CD5C2480178C8
S31508002CF089B1002101701AF4E45FC048016802D066
S31508002D000022402005E09BF80100000900F00102BE
S31508002D108F2003F0A4FC002C0CBF4FF480604FF406
S31508002D200060386012E01AF4E45F0FD100F069FD24
S31508002D3010B15FEA4A4009D59BF80000802805DAF9
S31508002D40A01949468278584603F04EFD002C0CBF60
S31508002D50012002202861BDE8F08E2DE9F84F9C4C31
S31508002D60A24E2068216CDFF898A2DFF88C82DFF883
S31508002D705C92A44F01EA00051AE040B14878C00603
S31508002D8005D49E48016800228F2003F068FC2806B7
S31508002D9005D503F0BDFC802025F080052060E805F8
S31508002DA006D503F0B5FC4FF4807025F480752060D5
S31508002DB0002D68D0280706D50020FFF7BFFE08209B
S31508002DC025F008052060E80606D50120FFF7B6FEBF
S31508002DD0102025F01005206005F06000602803D15A
S31508002DE0B06CC0050AD401E0A80605D520202060ED
S31508002DF025F02005002006E0680606D5402020605C
S31508002E0025F040050120FFF739FFE80410D54FF4F7
S31508002E108050206025F48055D7F800B00820386027
S31508002E207868000548BF00F031F91FFA8BF0386062
S31508002E30E807ACD5012020606D0899F800006D0000
S31508002E400028A4D000F05CFC0128A0D198F8000066
S31508002E5000289CD09AF80000042898D1F068400809
S31508002E6000F001008A2101FB00910831002814BFF7
S31508002E707268326812B92268D204F7D5002814BFDE
S31508002E807068306879E700202060BDE8F18F5E48F9
S31508002E9000687047F0B504460D4689B00021032046
S31508002EA001F0D8FB04AE1BE0002701F0EEFB26F884
S31508002EB0170001F0EAFB00A921F817007F1C082F6C
S31508002EC0F3DB04A803F02AFE00202080218836F8C8
S31508002ED010205140401C08282180F7DB6D1EA41CD9
S31508002EE0EDB2002DE0D101F00CFC012009B0F0BDD7
S31508002EF00321022001F0AEBB4FF6FF71081A292103
S31508002F0090FBF1F03A3040B2704738B501F0BDFB9E
S31508002F10FFF7F2FF3D4D04462878B0B90321032098
S31508002F2001F098FB3A48018802237F2200A8FFF7A0
S31508002F30EDFC01F0AAFBBDF80010401880B2FFF7BF
S31508002F40DBFF153868700120287001F0DAFB687815
S31508002F50201A40B232BD80B50321022001F07AFB67
S31508002F60BDE80140D1E770B52A480078002490B939
S31508002F70FFF7F1FF1B4E0546707848B13078401BC5
S31508002F8040B203F0DCFD0B2805DB3570012402E0B6
S31508002F90012035707070204670BD80B540B11E495D
S31508002FA0002008600848016821F08001016001BD21
S31508002FB000F05EFC00F034FC00F0ECFBBDE80240DB
S31508002FC000F0D0BB00200040842000404C2C00209C
S31508002FD000A000404C10004008280020D0100040F7
S31508002FE080200040D72F00200728002020200040FE
S31508002FF02C27002004A00040902D0020982D0020AA
S315080030008B280020B820004038200040D52F00200B
S3150800301002B501088C2800205410004010B50D4850
S31508003020018884B00A237F2200A8FFF76FFCBDF849
S3150800303000004FF6FF74A04204D14E210FF218008B
S3150800304001F098FBBDF8001022460020FFF709F9A9
S315080030501FBD0000FCB40108616E616C6F67756581
S315080030602D66696C7465722E63000000DFF8080827
S31508003070007848B1DFF804080179012904BF4079CE
S31508003080042801D10120704700207047DFF8F007B7
S31508003090016821F480510160DFF8E807017881B101
S315080030A000210170DFF8E0170A68520852000A602A
S315080030B00A6842F001020A6000228168402003F093
S315080030C0CEBA70470FF65801405C7047010603D523
S315080030D04FF67F710840C00070478001B0FBF1F0E1
S315080030E080B2FF288CBF0020C0F1FF00C0B2704735
S315080030F038B5DFF89007C178012901D1002032BD23
S31508003100DFF88C47617871B1E17840794518207904
S31508003110ADB2854228BF054603F02AFD0121A94024
S31508003120491E084000E0002061790818C0B232BD87
S315080031302DE9F0470446C00705D54FF4B8710FF2DC
S31508003140D07001F017FBDFF84C57286DC00748BF51
S315080031508C2000F19480DFF82C07DFF83477002103
S31508003160017101704178B1B93978A1B12178122974
S3150800317018BF0C290BD1627802F00702032A02BF96
S31508003180091911F8021C042904BF01210171A96F4C
S3150800319041F0010102E0A96F49084900A967DFF873
S315080031A0DC867A7898F80610DFF8EC96DFF8EC6695
S315080031B092B1002242710129286D40F00400286569
S315080031C006D14FF6FF7030604FF40070C9F8000062
S315080031D0FFF78EFF82460CE0286D20F004000129D7
S315080031E028654FF0000A04D100F043FA642000F085
S315080031F05FFEA86F20F00800A8671420E864C5F8E9
S3150800320048A0787838B198F80600002801BFA86C5D
S3150800321000280120A864B8790028286D14BF40F05A
S31508003220080020F008002865FFF720FF18B1306C69
S3150800323040F008003064202028626C602C604FF44F
S31508003240E06468687F30686004202862DFF850060A
S31508003250046006E003F09CFC18B103F0A1FC02F040
S31508003260DDFDDFF84006006800F003000328F1D012
S31508003270C9F80040286D40F0010028650020BDE827
S31508003280F087DFF82406002141608160016821F09B
S31508003290020101604FF00070DFF810160860012087
S315080032A0DFF80C1608707047A0F13301DFF8042622
S315080032B0914200D3704710B5DFF8F445002121701C
S315080032C000F07DFB02E0012003F06EFC2078002868
S315080032D0F9D010BD2DE9F84FDFF8DC65DFF8A45505
S315080032E07068716CDFF8AC7508401FFA80F8C6F88C
S315080032F004806878002840F0DD805FEAC870DFF84F
S31508003300BC45DFF88C9553D5D7F800A0386C796C96
S3150800331041EA004199F80000A960002844D09AF8CB
S315080033200100800640D5012028704FF48050306097
S31508003330306C40F480503064FFF798FEC0B3192013
S3150800334000F0B6FD4FF44040DFF874B5CBF828001E
S31508003350DBF800000090E06E40F40050E066E06E96
S3150800336040F48050E0669AF80010A8684901B83120
S3150800337001EB000AFFF78BFDAAEB00000003000B28
S31508003380FFF792FFE06E80098001E06600A9E06E13
S3150800339009880843E0660020CBF8280048F26070E8
S315080033A0E066E888206003E00022002003F057F971
S315080033B05FEA08600CD5287830B100202870002212
S315080033C0A968402003F04BF9306C20F48050306433
S315080033D05FEA486008D5687830B9FFF758FD0146B6
S315080033E00022892003F03BF95FEAC86054D5DFF86C
S315080033F08CA4DFF8A4B49AF80400012804BF9AF84C
S31508003400061001291FD100F03BFE386F40F001007D
S31508003410386700208AF80600FFF736FB0A2000F016
S3150800342047FD4FF6FF7070604FF000084FF4E060FC
S31508003430CBF800000920B8660120B864B86F40F0E0
S315080034400800B86718E0697999F80220491C69717B
S31508003450C9B2914215D2012808BF00F0CDF8B86F5D
S3150800346020F00800B8671420B866FFF741FEB86474
S315080034704FF40070CBF80000386D40F00100386555
S315080034800AE0012808BF00F0B7F8FFF700FD01467B
S3150800349000228D2003F0E3F85FEA08700AD5FFF7EB
S315080034A0E5FD38B12068E88001202060706C20F0C6
S315080034B0080070645FEA88600AD520203862687858
S315080034C030B9FFF7E4FC01460022882003F0C7F86C
S315080034D0687820B118F4407F04BF0120A870BDE8C1
S315080034E0F18F70B582B00446FFF776F8DFF8DC0393
S315080034F0DFF89453002101601521E960092101656F
S315080035001F21416001210166DFF8BC030088FEF730
S31508003510ECFEFFF7E1FA03F079FE00F03EF9DFF87A
S315080035205C63308900F063F9708900F065F902F090
S3150800353075FC696841F04001696002F075FC7078B5
S3150800354000F000F9B07800F00DF9DFF88403007890
S3150800355000F03AF9DFF87C0390F90000FFF77BF8F2
S31508003560307800F051F996F9030000F059F9DFF8C0
S31508003570680300F077F9BDF80000DFF86013C005AE
S315080035804CBF0020BDF800000870DFF8540300782F
S31508003590FFF724F828B10FF2783040F2B63101F07F
S315080035A0E9F8012C05D12868C00711D500F024F8E0
S315080035B00EE06CB92868C0070AD400F061FD2868D7
S315080035C040F001002860C82000F072FC0020B071AD
S315080035D0F120DFF8C842206440F2F910E063FFF7F3
S315080035E053FA2868C00704D54FF6FF70206000F02C
S315080035F06DF800F07DFB73BD70B5DFF8E852DFF8B3
S315080036007C422E68A079012832D002F007FC48F2E5
S31508003610D00129606A68520509D548F222022A6053
S315080036206A68D205F5D529606A685207F1D4B6B238
S31508003630DFF86C222E604FF4E0611160DFF8841227
S315080036400A6A520852000A620A68520852000A6058
S315080036500A6842F002020A604A6A42F001024A62B5
S315080036600121A17102F0E0FBBDE8704000F0D9BC71
S3150800367070BD70B5814CA07938B300F001FD02F039
S31508003680CDFB0546DFF86012804E01200860306DDC
S3150800369040F0010030650020A071FFF7F5F9202001
S315080036A03060306B40F002003063F06D40F0080087
S315080036B0F065284602F0B8FB0A2000F0F9FB7749C6
S315080036C04FF6FF70086000F001F870BD4FF4E06037
S315080036D071490860704769488079704710B5674C2A
S315080036E0A07928B140F2A7410FF2242001F042F850
S315080036F02079012804BFBDE81040FFF77DBF10BD43
S315080037005E480079704780B5022801DB012002BDBA
S315080037105A4908718979884205D010B9FFF7A9FF77
S3150800372001E0FFF769FF002002BD704800688002CB
S3150800373000149A3801B211F1800FB8BF6FF07F00FC
S3150800374040B2704710B5044602F068FB68490A683B
S31508003750002C14BF42F0120222F012020A604749F6
S315080037604C7040E038B5044602F058FB054600F0B8
S31508003770C2FC40B95E480168002C14BF41F08001C4
S3150800378021F0800101603D4884702846BDE832403A
S3150800379002F04ABB39488078704756494A780B7810
S315080037A0554803EB022202608B78CA7803EB0222A3
S315080037B042600B794A7903EB02228260CA798979D9
S315080037C001EB0221C160704710B5044602F026FBE2
S315080037D047490A68002C14BF42F0200222F0200252
S315080037E00A603B490C70BDE8104002F01DBB234936
S315080037F00881424908607047204948814049086065
S3150800380070474048007870471F490A68002814BF67
S3150800381042F0020222F002020A6018490870704754
S3150800382038B504467F2C0AD1374800F01BF8BDF896
S315080038300000C00554BFBDF800406FF04A0402F00E
S31508003840EDFA054600F057FC30B964B204F19A0067
S3150800385080052E49000C08600848C470284602F006
S31508003860E3FA31BD018802237F2200A8FFF74EB88C
S31508003870024890F903007047DD2F002086280020B3
S3150800388040A00040902D00208020004030200040BD
S31508003890442800201020004000E100E004A0004079
S315080038A080E100E0A820004010E000E004ED00E020
S315080038B0DE2F0020CDFF070000A000406410004066
S315080038C0E410004060200040182800205C100040EA
S315080038D0DC2F00200C2800200AB50108BE2F002086
S315080038E0072800201C100040281000400C1000403B
S315080038F084200040082C0020982000409420004096
S3150800390090200040842800200CB50108541000407F
S315080039107068792D636F6D6D6F6E2E630000000001
S31508003920FEFEF7F7C8C80100DFF834145120086016
S3150800393070472DE9F041054603F07CFCDFF82414B6
S31508003940B0FBF1F64FF4F070B0FBF6F71E2D3FB260
S3150800395001DBE81B04D5A8B2BDE8F04100F0A8BA1F
S3150800396002F05CFA804603F0D1FCDFF8FC13DFF8BE
S31508003970FC23012048700721DFF8F40300F041F822
S31508003980E91B09B27143C91C8908491EDFF8E453CB
S31508003990416000F0BDF8DFF8C8733C68386820F06D
S315080039A04000386003F0B4FC3C602E6003F0B4FCC1
S315080039B003F0BAFC4046BDE8F04102F035BA38B526
S315080039C0054603F037FCDFF89C13B0FBF1F44FF41F
S315080039D0F070B0FBF4F02D1A1E2D04DA95210FF2C3
S315080039E0D43000F0C7FEDFF88803DFF8802307210C
S315080039F000F007F805FB04F1C91C8908491E416057
S31508003A0031BD01600021416081604FF00071116095
S31508003A107047DFF8542301215170D0E7DFF85803C7
S31508003A20006800B970472DE9F041DFF85053DFF818
S31508003A30506300242C6034604FF4A040706041F25B
S31508003A409A084046FFF775FF6F6803F0FBFB000115
S31508003A5042F21071B0FBF1F000F5C870C01B00B25D
S31508003A604FF4487190FBF1F000B20828A8BF072070
S31508003A7004DA10F1080FB8BF6FF00700306040464F
S31508003A80FFF757FF08274046FFF753FF68680419F2
S31508003A907F1EF8D103F0D6FB211D4001C908B0FBF3
S31508003AA0F1F080B27060BDE8F081DFF8CC02006802
S31508003AB000B9704738B5DFF8CC5201206FF00F0413
S31508003AC0A8602C608020FFF734FFE868FF2802D83A
S31508003AD0641C102CF5DB31BD70B5DFF8AC0201684B
S31508003AE041F0010101600121416002F097F90446A5
S31508003AF0DFF8805200F00CF85120DFF864120860F5
S31508003B002E6003F009FC2046BDE8704002F08CB92F
S31508003B102E68286840084000286003F0FDBB002096
S31508003B2070472DE9F041944A8F4D146840F2DC51F4
S31508003B30012C8846954E964F15DA0221B9803160D8
S31508003B40B16901F00301032959D0002C03D5B169E5
S31508003B5041F00201B161FFF7E2FF5FEA00081AD1FE
S31508003B60002C4CD549E0B8884FF6FF74A0421DD109
S31508003B708848018802237F22381DFEF7C7FEB888C9
S31508003B80A04204BF0220B880B069800703D4B06998
S31508003B9040F00200B0610120A870B88830600FFAC2
S31508003BA088F0FFF736FF4046BDE8F081B3699B070A
S31508003BB0EDD5AB780BB10846F6E7B168B36811F0F6
S31508003BC0010103D10F2809D2401C06E09B0705D541
S31508003BD03B781BB1032801DB2018B880B8883970F8
S31508003BE00228BCBF0220B8803068B9888842D2D182
S31508003BF0B06900F00300032801D0FFF76DFF00202D
S31508003C00D2E72DE9F04780460024554D594E02F07B
S31508003C1005F9814603F07AFB4046FFF782FF08B9AB
S31508003C2001240AE000F05DF8D5F800A000F0BCF821
S31508003C30C5F800A0376003F06FFB03F075FB484634
S31508003C4002F0F2F8002CE2D0BDE8F0870220D8E7AF
S31508003C5010B54748444C002141608160016821F055
S31508003C6002010160002060704FF000703F49086053
S31508003C70A07838B10020A0700620FFF750FF00F0AA
S31508003C802BF81CDBE078012814D143480121016098
S31508003C9042490968C90748BF03200FD40221E170C9
S31508003CA0016C41F00101016404203D4908603D4969
S31508003CB0086010BDE078042801D10520E07010BD29
S31508003CC080B52948407800281CBFBDE80140FFF7A9
S31508003CD0BFBFFFF7D6FA01BD27480068012870471D
S31508003CE0244E3768306840084000306003F014BB43
S31508003CF02DE9F8431C4C207800282DD0207900287F
S31508003D002AD1FFF7E9FF1FDA40F2EF310FF2A400DC
S31508003D1000F030FD18E002F081F8804603F0F6FA6C
S31508003D20E07805280BD0FFF7DBFF0D4DD5F800909E
S31508003D3000F03AF8C5F80090376003F0EDFA03F0A2
S31508003D40F3FA404602F070F8E0780528E3D100203F
S31508003D50A0700520FFF755FF00202070BDE8F1830D
S31508003D600080004090D00300D02F002004ED00E032
S31508003D7010E000E094ED00E09CB10108104000401E
S31508003D800C000040084000401C4000400440004031
S31508003D907628002008B5010818A000400C4000400D
S31508003DA080E200E000E100E0286820F0400028609A
S31508003DB003F0AEBA636C6F636B732E63000000008A
S31508003DC010B5504C002000F0A2FC40F68C21884229
S31508003DD02068B4BF40F0080020F00800206010BD3D
S31508003DE010B504464848018882B000F05CF89DF892
S31508003DF000109DF80100FF2902BFFF2804200021BA
S31508003E0004B1801C414A1368C0B20828A8BF07201D
S31508003E1023F4607343EAC010106008291068A8BF2D
S31508003E200721C00841EAC00010603948047013BD74
S31508003E3000B53848018883B000F035F8BDF80000B1
S31508003E404FF6FF7188420EBF4FF4E1600A2190FBDE
S31508003E50F1F0ADF800002E48007808B32A4801882A
S31508003E6002237F2201A8FEF751FD9DF80500BDF843
S31508003E700030FF2808BF0420811CC9B20829A8BF42
S31508003E800721C1F12F0202EBD272C0F12F005210A6
S31508003E9000FB0320C1F12F01B0FBF1F0ADF80000E3
S31508003EA0BDF800000EBD02237F2200A8FEF72EBD36
S31508003EB070B5194C2568064603F0C4F91749B0FBD6
S31508003EC0F1F070432F303021B0FBF1F0032809D30D
S31508003ED0616D41F0010161652168491B0903090B00
S31508003EE08142F9D370BD10B5040004D110BD4FF45A
S31508003EF07A70FFF7DDFF2046441E80B20028F6D10F
S31508003F0010BD704700BC0040FEB401081800004010
S31508003F10C12F002000B501083820004090D00300CA
S31508003F2038B50120FFF7FDFD0020FFF759FFDFF840
S31508003F30FC41206840F00800206003F08AF9FFF78A
S31508003F403FFF00F01CF88D78DFF8E431DD600D895D
S31508003F5005604D89456000F01AF8206820F01000C9
S31508003F602060FEF748F903F0E7F903F0E7F9FFF7F1
S31508003F706DFE03F06CF9BDE8314003F088B96D4970
S31508003F806D480A78C2604B786C4AD3607047888956
S31508003F901060C8895060088A1860488A586040E0EE
S31508003FA0F0B50B68664C0F252468960005FA06F6E8
S31508003FB0344215D0002606EB820724FA07F7FF07D6
S31508003FC00BD5B70005FA07FC23EA0C0330F812C034
S31508003FD005FA07F707EA0C073B43761C042EEADBCB
S31508003FE00B60F0BDF0B50B68554CFF252468D6006C
S31508003FF0B5402C4213D00025012605EBC20724FA4A
S3150800400007F7FF0708D506FA05F7BB43175C06FA54
S3150800401005FC0CEA07073B436D1C082DEDDB0B601E
S31508004020F0BD10B546480068002825D000F054F8C1
S31508004030201DFFF7D7FF01224249201DFFF7D2FFB7
S3150800404002224149201DFFF7CDFF00223A4900F020
S3150800405014F801223D4900F010F80222374900F011
S315080040600CF803223A4900F008F80422304900F017
S3150800407004F804F1140036E010BD04F114008FE7CB
S3150800408010B52F480068002825D000F025F82046EE
S31508004090FFF7A8FF01222B492046FFF7A3FF0222BC
S315080040A029492046FFF79EFF0022234900F018F809
S315080040B00122264900F014F80222204900F010F8DF
S315080040C00322234900F00CF80422194900F008F8E5
S315080040D004F1080007E010BD164C1E49002270477F
S315080040E004F108005CE7BDE8104005221A4957E7C5
S315080040F00320FEF7B8BC194800787047174880783F
S31508004100704718484FF40041C160082101601349FF
S31508004110887850B1124800680B78800900F00100D1
S3150800412083421CBF0870FEF738BF704700BC0040CA
S3150800413000B800409827002000B0004000B40040B6
S31508004140302A00200CB400400CB8004004B00040EF
S3150800415004B400400CB0004004B80040B22F002060
S3150800416008B0004014A800402A490A68920992013A
S315080041700A600A68104308604FF400412648016047
S31508004180002101606420FFF793BE2DE9F047234D17
S31508004190204FD5F80090224C8046286840F400400D
S315080041A02860386820F480503860207868B16278D2
S315080041B01C48A17800EB820200EB880012F82A2C32
S315080041C010F82A0C891A461802E0012020262070C9
S315080041D0B0B2FFF7C9FF0FF2500A02E0B0B2FFF71C
S315080041E0C3FF386B042805D0386B400754BF761ECA
S315080041F0761CF3E7F86A38B184F80180A6701FFACE
S3150800420089F02860BDE8F08740F22111504600F099
S31508004210B1FAE6E7D0100040181000401C10004024
S31508004220D92F002090270008616E616C6F6775654D
S315080042302D76636F2E63000081014FF4FE5289B21A
S315080042400C20FEF70EB82DE9F84F8F4CA5682068AC
S315080042500127ADB200264FF00A08B9461FFA80FAC0
S3150800426000F04FFAB0202063DFF820B208E016F11C
S31508004270190FB8BF4FF00A08464436B27019A06045
S31508004280DBF80000000702D559EA070028D001200C
S31508004290FFF70EFEB9F1000F11D0AAF1030087420D
S315080042A002DAF81C87B213E00AF500402060574688
S315080042B00621092000F0CEF94FF000090BE0DBF8E3
S315080042C00000000707D5042FA6BFF81E87B20027EF
S315080042D007F5004020601A2EC9DB6FF00908CBE706
S315080042E0A560C4F800A00820CBF80000684800685C
S315080042F080B2BDE8F28F80B5624B66491B784FF0F5
S31508004300FF326BB1002819BF4A606348486041F222
S3150800431011100860614841880088BDE8044092E7AA
S31508004320002819BF4A600A604860086000F0E9F989
S31508004330BDE804400621092000F0DDB938B50120A2
S31508004340FFF7D9FF04460020FFF7D5FF05460120F1
S31508004350FFF7D1FF4042001B00EB450000B232BD1B
S315080043602DE9FE4F4E4CDFF83C81A06A454EADF86C
S3150800437002002568D8F800B0307860B14FF6FF72B1
S3150800438000210820FDF766FFADF80000C022C02115
S315080043900820FDF766FF4448DFF81091007818B149
S315080043A048F26070C9F80000708840F4404040F058
S315080043B04C00C9F83C000220A0620120206040F2AF
S315080043C04C40FFF775FD0120C8F80C00C8F800003E
S315080043D00020324F388040207880307800B1202085
S315080043E0FFF72AFFFFF7AAFF8246402038807F2082
S315080043F07880FFF721FFFFF7A1FF0290504602F0F1
S315080044009EFBFE2101FB00F70298AAEB0000019033
S31508004410307860B1029802F092FB8246019802F069
S315080044208EFB80B207EB8A11B1FBF0F005E001982C
S3150800443002F085FB80B2B7FBF0F080B2401CC703E0
S315080044401FFA8BF0C8F80000ADB20020C8F80C00BF
S31508004450022020602560BDF80200A0620020C9F88D
S315080044603C00307830B1BDF800104FF6FF720820D6
S31508004470FDF7F7FE40F24C40FFF71AFD380CBDE891
S31508004480FE8F000080280020C010004018A00040C1
S315080044900070004038100040EEEEFFFF9C2F002011
S315080044A0602000402810004008280020D010004056
S315080044B041003F2289B201E001463F220220FDF772
S315080044C0D0BE2DE9F04F564C564D95B0E06CADF880
S315080044D010004FF6FF782068ADF80E004246E86AED
S315080044E0ADF80C0000210120FDF7B4FEADF80A0076
S315080044F0424600210B20FDF7ADFEADF808004FF44B
S315080045000040206000202861686148F2020000F03F
S315080045108BF84CF68C30E0644FF4805248F2F00089
S31508004520E86211460120FDF79CFE424600210B2059
S31508004530FDF797FE0621062000F0DDF8019000F051
S3150800454085F800904CF69C30E0640020FFF7B0FF39
S315080045500621084600F07EF800260DF1140BB0B2CD
S31508004560FFF7A6FF0621062000F074F800F08DF884
S315080045702BF81600761C202EF1DB00F086F81020AA
S31508004580FFF796FF00F062F80099019A401ABBF807
S315080045902010891A404301FB01094FF0100A112720
S315080045A000F04EF800F052F800F043F806DB8146BA
S315080045B01FFA87FA781C07B2202FF1DBBAF1100F21
S315080045C00ED10F2700F03CF800F040F800F031F863
S315080045D006DB81461FFA87FA781E07B2002FF1D547
S315080045E0BDF81000E0644246BDF80E002060BDF834
S315080045F00C00E8620120BDF80A10FDF732FEBDF88E
S31508004600081042460B20FDF72CFE012028610020E9
S3150800461000F00AF84FEA4A00C0B215B0BDE8F08FBC
S31508004620C010004018100040286040F24C40FFF7C8
S315080046303FBC0099401A404306FB060048457047B0
S315080046403BF817000199461AB8B231E70621072048
S3150800465000F051B870B505460E4602F057FE3D4CBF
S31508004660206C20F00800206402F05EFE01F0D6FB04
S31508004670310341EAC511384A41F0010111600821A8
S315080046802160BDE8704001F0CFBB2DE9F041334C05
S31508004690334D304E25E002F039FE324904200860D9
S315080046A0306C40F0080030642F68286840084000E5
S315080046B0286002F031FED4F80080206820F040001F
S315080046C0206002F025FEC4F800802F6002F024FE68
S315080046D0306C254920F0080030640420086002F098
S315080046E023FE30680007D6D5082030601F480068CA
S315080046F080B2BDE8F08180B5FFF7ACFFBDE80140A8
S31508004700C3E7154801684908490001607047F8B5CC
S315080047100746FFF78DFB044639460320FFF7EBFFF4
S31508004720054639460120FFF7E6FF064639460020CA
S31508004730FFF7E1FF08490A68520852000A60401B61
S315080047400004711BB0FBF1F060434000000CF2BDA1
S315080047500000000018A000400470004000800040DF
S3150800476094ED00E000E100E080E200E00070004027
S3150800477042DE704738B504460D4602F073FD01F077
S315080047804DFB2946204602F082FE2B4622460FF2B2
S31508004790CC11012002F096FE29462046BDE8344099
S315080047A0E6E72DE9F84F6548654D01682E1D4FF47B
S315080047B0206A7165016AB16562490968F165416AED
S315080047C03166816A7166C16AB166016BF166806B92
S315080047D0306796F8340040074CBFF76BB76BBB469B
S315080047E002F031FF0022584CDFF86081DFF8609153
S315080047F0F2648742014624BFA4F12003BB42316517
S315080048001DD357F8180F306457F8040F7064706D8D
S31508004810C005C00D062815D1306C484512D3404551
S3150800482010D200884DF6426290420BD105F18C00F9
S315080048306A68426040F2017A7268826002E0326415
S31508004840726483464348814202D2014600E0091D4C
S31508004850A14203D20B68B3F1CD3FF8D0601AB06419
S31508004860182105F1780002F019FF002003E0C0B214
S3150800487005EB80029167A34523D254F8041D4945E8
S31508004880F9D34145F7D2CA07F5D5002205EB8203CD
S315080048909B6F8B4203D0521CD2B2062AF6DB062A3D
S315080048A0E9D1002814BF401E0520E0E7716F0022F9
S315080048B005EB8203521CDF6F9F67052AF8DBC5F8F4
S315080048C08C100146481EC9B20029EFD1706DC0058B
S315080048D0C00D02280AD0032815D0042816D00528AA
S315080048E017D0062818D00C281CD01EE01A480168D4
S315080048F0890748BF40F6021A1CD40068C00719D5B4
S3150800490040F2025A16E040F6012A13E040F6022A5F
S3150800491010E040F6032A0DE0BAF5206F0AD140F6FA
S31508004920042A07E040F6052A04E018B1242838BF0F
S3150800493040F6072A5046BDE8F28F000004ED00E075
S315080049400000002000E300E0F826002078AC01080B
S3150800495090210008980000201CA000400D0A5B4129
S3150800496053534552543A25703A25645D0D0A0000A2
S31508004970814233D210185118401E491E10E011F812
S31508004980013900F80139121F11F8013900F8013907
S3150800499011F8013900F8013911F8013900F801391F
S315080049A092B2042AEBDA92B2002A1EBF11F8013934
S315080049B000F80139521EF6D1704711F8013B00F88C
S315080049C0013B121F11F8013B00F8013B11F8013BAE
S315080049D000F8013B11F8013B00F8013B92B2042AAA
S315080049E0EBDA92B2002A1EBF11F8013B00F8013B30
S315080049F0521EF6D17047130003D00A46194602F034
S31508004A0051BE704710B500E0521E92B222B100F0B6
S31508004A1012F8F9D0181B10BD002010BD10B500E023
S31508004A20521E92B22AB100F006F8F9D0181B40B20D
S31508004A3010BD002010BD10F8013B11F8014BA34230
S31508004A40704700002DE9F94D3C4C82B01C22FF212D
S31508004A5004F17800FFF7CFFF7222FF212046FFF707
S31508004A60CAFF382060674FF01C0838210FF2F8009B
S31508004A7002F04BFE0FF2E00A00263148355C681C4E
S31508004A8000EBD07047102F4816F800B0FF2D02D162
S31508004A909F2100F05DF8BBF17F0F02DBA02100F03B
S31508004AA057F82948305C28B1042D02D0A22100F01D
S31508004AB04FF81937F81C00FB0BF5244830F8161088
S31508004AC00FF2C0005B462A4602F01FFE606F2918E7
S31508004AD06167BBF1010F1CBF24F81680D844761C09
S31508004AE01C2ECADBB1F5805F34BF13A30FF2F403A3
S31508004AF01C2000904FF480520FF2B00002F005FE21
S31508004B00606FB0F5805F0ED902F0ACFB01F086F954
S31508004B10626F0FF2DC014FF48053012002F0D2FCE1
S31508004B20C72100F015F89DF8080004F1780104B0D3
S31508004B30BDE8F04D00F095BB6F6B0000C42A00205D
S31508004B4030B201084CB2010814B20108DCB1010800
S31508004B505046FFF70FBE000073696D2D65657072CC
S31508004B606F6D322E63000000546F6B656E206F7692
S31508004B706572686561643A20256420776F7264738C
S31508004B800A00000043726561746F723A2030782516
S31508004B9032582C20576F7264733A2025642C2043B0
S31508004BA06F756E743A2025640A00000053696D45D6
S31508004BB04520646174613A20256420776F726473B6
S31508004BC0206F66202564206D617820282570292CA1
S31508004BD020746F6B656E436F756E743A2025640A90
S31508004BE000000000544F4F204C415247450000003A
S31508004BF00D0A4552524F523A2053696D4545206475
S31508004C0061746120746F6F206C617267652E202055
S31508004C10436F6D70696C696E6720776974682025C3
S31508004C206420776F72647320636F6E73756D656445
S31508004C302E20204D617820616C6C6F776564206941
S31508004C40732025642E0D0A0010B5DFF8B84BDFF87F
S31508004C50B83B2488001B03EB4000002304E030F82F
S31508004C60134021F813405B1C9342F8DB002010BD6B
S31508004C70DFF8902BDFF8901B1288801A01EB4001B1
S31508004C80022002F05ABDF8B504460F461546DFF86D
S31508004C90786BEDB205B34FF6FF70ADF8000000AAC9
S31508004CA0002017F8011B8154401C6D1EC0B2022853
S31508004CB002DAEDB2002DF4D1DFF8480B0088A4B271
S31508004CC0201A012200A906EB400002F06FFD641CC1
S31508004CD00028DED000F0E3BB0120F2BD70B582B03B
S31508004CE004460D461646F6B27EB100F0A9FF641CCE
S31508004CF0002000A9761E415C05F8011B401CC0B2C5
S31508004D000228F0DAF6B2002EF3D173BDDFF8FC1AEA
S31508004D10DFF8FC2A415C825CDFF8E43CC05C10B139
S31508004D2002F5997292B241EAC21080B2704710B584
S31508004D30DFF81C3CDFF8D44A03EB4002005D01288B
S31508004D4001D1104610BD1088081803EB400010BDAD
S31508004D5030B591B004460D4604E0401C80B22028C8
S31508004D600BDB2034A4B2A54211D3202200A9204689
S31508004D70FFF76AFF00204FF6FF7200A931F81010FE
S31508004D809142EAD02046FFF773FF203CE9E711B0CD
S31508004D9030BD10B5044661882088FFF7D9FFDFF8D3
S31508004DA0B41B0120A071097820880818DFF8541C64
S31508004DB0098800EB4100801DA08010BD10B5DFF802
S31508004DC0484C00F08AF800F050F900F04BF9DFF88B
S31508004DD03C0C446004F10801816004F11001C160D3
S31508004DE010BD2DE9F0460446DFF8680B05782E4617
S31508004DF0072E85B003DB40F2CD2100F017FB00201B
S31508004E00A0716A1C208892B201A9FFF71DFFBDF8A0
S31508004E1004004FF6FF7A504518BF002858D00DF108
S31508004E200409AAEB000039F81610814250D101276F
S31508004E3005E0BDF8041088424AD1781CC7B2B742CB
S31508004E4014DA39F817000028F3D1DFF8C41B2088D4
S31508004E500A8807FB02214118514407FB020089B260
S31508004E6080B2FFF775FF0220A071E6E7A079022855
S31508004E7030D020882818C01C00F0BCFEBDF8000001
S31508004E80000BA84224D120882818401D00F0B2FE45
S31508004E90BDF80010BDF80000C1F1FF01000AC9B253
S31508004EA0884215D10320A071012220882818401CA9
S31508004EB00DF1020180B2FFF7C7FEBDF80200FF2818
S31508004EC002D10420A07105E0504518BF002801D082
S31508004ED000F003F805B0BDE8F086204659E770B53E
S31508004EE0DFF8244BDFF8245B0020A071A073A075BF
S31508004EF082B004F10800A8606C6004F11000E86054
S31508004F002046FFF76EFF04F10800FFF76AFF04F179
S31508004F101000FFF766FFA179A07BDFF8EC6804298B
S31508004F2008D100210428ADF800102CD1FFF746FF60
S31508004F30012076BDA17D042812D100200429ADF8F0
S31508004F400000F3D0FFF7C9FF00F08CF8DFF8043A49
S31508004F50208900F08DF8060026D10320A07334E0DE
S31508004F60042929D10020ADF80000FFF7B6FF00F0AC
S31508004F707CF8DFF8E039208A00F07AF8060013D1C9
S31508004F800320A07518E0A07D0428CFD000F06DF8A6
S31508004F9000F068F8DFF8BC39208800F069F80600E8
S31508004FA002D10320A0710AE0304602F058FC1EB177
S31508004FB040F2C13100F03AFAA079032805D1A07B66
S31508004FC0012804BFA07D012843D0A079032801BF8A
S31508004FD0A17B0329A17D01293BD0022801BFA17B22
S31508004FE00329A17D01290DD0012801BFA17B032931
S31508004FF0A17D012906D0012801BFA17B0329A17D36
S31508005000032904D104F1080004F1100125E0012860
S3150800501001BFA17B0229A17D03290DD0012801BF6B
S31508005020A17B0129A17D032906D0032801BFA17B05
S315080050300129A17D032904D104F110002146083471
S315080050400BE0032801BFA07B0128A07D02287FF47E
S315080050506DAF204604F1080110346860EC60A96061
S31508005060002076BD04F1100093E604F1080090E6EE
S315080050701B781818DFF88C371B88401CC01A0122C9
S3150800508000A906EB400002F091BB2DE9F04F04465B
S31508005090DFF8C008007885B00D46ADF80C0001228F
S315080050A02088BDF80C100818461D0DF10201B0B293
S315080050B0FFF7CAFDBDF80200DFF8C48BDFF84CAC79
S315080050C0000AADF80200761CDFF838090788BDF833
S315080050D00200B8421CBF012028704FF000091DE0ED
S315080050E0401CC1B2B94215D2C0B283463AF81B1069
S315080050F0BDF80A209142F3D1FFF708FE4FF68071FA
S315080051000840BDF808104FF680721140884208BF63
S315080051100BF8089009F101001FFA80F9BDF80200A2
S31508005120814507DA022202A9B0B2FFF78DFDB61C47
S315080051300020D6E70021B94601E0491C89B2494555
S3150800514009DA11F808008842F7D00120287002E031
S3150800515022F8176006466088C01EB6B2B0424FF6FF
S31508005160FF7A69DBFF2700F078F8BDF800005045A4
S3150800517062D0701C01220DF1060180B2FFF764FDB2
S31508005180BDF80010BDF80600AAEB010188425FD100
S31508005190BDF80010BDF8000001F07F0ABDF8021046
S315080051A0F61C000A884253DA002101E0491C89B23C
S315080051B0494504DA11F808208242F7D1CFB223888C
S315080051C0BDF80CC0634403EB4000801D00F00DFDE4
S315080051D0BDF804006188C0F3C710401C00EBD0700E
S315080051E006EB600080B2814232D3FF2FB2D0DFF8DF
S315080051F0C01B795CBAF17F0F0CBF002252468A4267
S3150800520008DADFF8FC37BDF80020FB5CC2F3C012F1
S315080052109A4202D0012129709CE70129DFF830273C
S3150800522096D0BAF17F0F32F8171008BF4FF0000A70
S31508005230514422F811608DE7A6806088B6B2B04264
S3150800524008D300F00AF8BDF80000761C5045F4D0E3
S315080052500120287005B0BDE8F08F012200A930466C
S31508005260F2E4F8B58DF80000DFF8481BDFF894057E
S315080052700288DFF894070988DFF8D8361D78DFF842
S31508005280383B1B8841800280AA18DFF878170C88FB
S31508005290438102EB4402921D828000228271DFF86C
S315080052A01C3BDFF81C2B12881B8802814382AA1834
S315080052B002EB4402921D828100228273DFF8042BDE
S315080052C012880282AA1802EB4401891D81820021F4
S315080052D08175FFF704FE01229DF80010DFF82C67A0
S315080052E008438DF80000B11C706800882818801CD7
S315080052F080B2FFF7A9FC9DF8000000283ED170682F
S3150800530000A9FFF7C2FEDFF8C00ADFF84476058871
S31508005310B0688179032922D100A9FFF7B6FE716822
S31508005320DFF88C2A002010E0A04202DA835C012B09
S3150800533009D137F81030B1F800C0634524BFB1F879
S3150800534002C09C450BD2401C80B2A842ECDB02206E
S315080053508871B16870687160F168B160F0600020AA
S315080053604FF6FF7201E0401C80B2A84206DA37F811
S3150800537010109142F7D101208DF80000307828B13D
S3150800538001208DF800000020307002E09DF8000032
S31508005390B8B14D2002F063FA7088401C7080F0683E
S315080053A0FFF7F7FC9DF8000000F044F838B100F06C
S315080053B07AF820B19DF8000000F032FA08B9012009
S315080053C0F2BD0020F2BD2DE9F04104460D46164611
S315080053D0984631462846FFF7AAFCDFF828160788BC
S315080053E009887F2E08BF00268D423EBFDFF81C04C1
S315080053F0285C864204D2DFF81804285C804503D06E
S3150800540040F2A67100F012F8DFF8C009285C28B14E
S315080054103946284600F019FC206005E04246214638
S315080054203846BDE8F04159E4BDE8F0810FF6D410DE
S31508005430FFF7A0B9F8B5DFF8D415DFF8CC43DFF8E5
S31508005440CC58002814BFC8688868DFF80815008893
S3150800545009780818861DB6B2002703E0B61C7F1C1B
S31508005460B6B2BFB2DFF89C050088874215DAF8B2F3
S31508005470FFF74CFCADF80000022235F81700DFF8FC
S3150800548054391B88ADF8020000A9F01A04EB400055
S3150800549002F08CF90028E1D001E00120F2BD02F00B
S315080054A0DEF90020F2BD2DE9F04FDFF85805DFF8E8
S315080054B0A41400880978DFF850A385B00025ADF854
S315080054C00600DFF84805C06800880818BDF8061009
S315080054D000EB4100801D86B201E06D1CADB2BDF83F
S315080054E00600854280F298804FF0000B1DE00122ED
S315080054F001A91FFA88F0FFF7A7FBB819001B08F1E6
S315080055000108012201A90AEB400002F04FF9002820
S315080055107CD17F1C0398FFB28742E8DBDFF8B80826
S31508005520285C801986B20BF1010BB8482C5C5FFA2F
S315080055308BFBA345D1D25946E8B2FFF7F8FB0746DD
S31508005540DFF8BC04B7F8008015F800904FEAC910D8
S3150800555040EA0520ADF80000012CBDF800000CBF9C
S3150800556040F07F004BEA0000ADF800004FF6FF70F0
S31508005570BDF80010401AADF80200711CA148048855
S31508005580301B8EB24FF6FF7188450AEB400018D1E2
S31508005590012200A902F00AF9002837D100F042F8E2
S315080055A0002833D1B01C86B299483E802A5CDFF8C1
S315080055B02C0850F825103046FFF765FB0028ADD1BA
S315080055C027E09349695C491C01EBD171C905090EAD
S315080055D00391012200A902F0E9F8B8B900F022F80F
S315080055E0A0B9B11C8EB2B9F1000F3E8012D002905C
S315080055F04146E8B200F029FB029002A9039A301B43
S315080056000AEB400002F0D2F8002887D002F027F90A
S3150800561000201FE600277DE7DFF8F003C0688680D4
S315080056200120F6E7301B01220DF102010AEB4000CA
S3150800563002F0BCB82DE9F64F8046DFF89C07DFF884
S31508005640A0371B6885B0085CDFF8981709880190B1
S315080056500C264A0891FBF6F6B618B3424FF0000935
S3150800566028BF001808D2182691FBF6F1511A8B426A
S3150800567003D300EB500080B201900026DFF88C734C
S3150800568001E0761CB6B2DF480088864280F2AB801D
S31508005690002441E001220DF102011FFA8BF0FFF709
S315080056A0D3FABB68DFF85CC19B88BCF800C05648D3
S315080056B0EB18A3EB0C030BF1010B4A4600F0AAF812
S315080056C0002816D16D1C0498EDB28542E2DBBDF8C0
S315080056D00010BB684FF6FF70401AADF802000122B1
S315080056E048489B88058848489B1E5B1B00F092F833
S315080056F0002872D1BB6844489B88DB1E5B1B0122CD
S3150800570000F040FB002868D1B868039A81881180A8
S31508005710818851448180641CE4B23C48355CAC42C3
S31508005720AFD22146F0B2FFF702FB0390B0F800B003
S315080057303748305C401C00EBD070C005000E049062
S31508005740BDF81400864204BF9DF818008442E2D0D2
S31508005750786801888B4524BF40885845DBD3019873
S315080057601FFA88F880B2804549D2DFF86C0616F829
S3150800577000A0B868828841885244D21C914203DA54
S3150800578001203870452028E09D49715CCA0142EA2B
S315080057900622ADF80020012DBDF800200CBF42F00E
S315080057A07F022243ADF80020D0448288D21C4FF0F5
S315080057B001098280A9B15946F0B200F046FABB68E1
S315080057C0104D049A02909B882D880F485B1B02A9EE
S315080057D000F022F800283FF47AAF02F040F80020E3
S315080057E0F9E100256FE7B9F1000F08D179680220C1
S315080057F08871B96878687960F968B960F8600120D5
S31508005800EEE70000AEB10108007002084CB20108CC
S3150800581030B201080DF1020100EB430001F0C6BFEA
S315080058202DE9F04F83B05FEA0008784DDFF8A095C0
S3150800583014BFE868A8680122B0F800B0714800886B
S31508005840C0F1FF01C9B241EA0020ADF8000000A985
S3150800585040480678DFF87C05048806EB0B07781DB8
S31508005860001B00F079F800284CD140F6127040EA87
S315080058700630ADF800000122F81C001B00A900F054
S315080058806BF800283ED1B81C001B0122A91C09EBA5
S31508005890400001F08BFF002834D1781C001BB8F1BA
S315080058A0000F09EB400A03D0FF2000F059F848BB67
S315080058B06868008801220DF10201FFF7C5F9BDF8F5
S315080058C0020001280CBF4FF6FE70401EADF802001C
S315080058D04FF6FF70BDF80210401AADF80400012219
S315080058E0381B01A900F038F860B9731E7EB19EB264
S315080058F006EB0B00001B01220DF1020100F02CF84B
S315080059000028F2D001F0ABFF0020BDE8FE8FB8F109
S31508005910000F17D0E968032088716868FFF739FA1D
S31508005920A868FFF736FAA968EA686868AA60E860AE
S31508005930A860696000206A60E96000F011F8002834
S31508005940E0D102E0A968032088710120DDE70000A4
S31508005950C42A0020ACB1010809EB400001F026BFBB
S31508005960ADF80000012200A9504601F01FBFF8B5A6
S315080059700446DFF8640482B00D5CA088134662888A
S315080059802E18F61CB24204DA204901200870452078
S3150800599031E0C01CDFF85024A08080B28A5C19462A
S315080059A0FFF771F950B3DFF82C04DFF82474068882
S315080059B0A088C01E801B012202A907EB400001F047
S315080059C0F5FEC0B9BDF808104FF6FF70401AADF8DD
S315080059D000000122A088801E801B00A907EB40005A
S315080059E001F0E4FE38B90899A0880880A08828182C
S315080059F0A0800120FEBD01F032FF0020FEBD0000A0
S31508005A0014B20108BAB101085C280020182C00203D
S31508005A10AAB101082DE9F94F85B0884691460126B5
S31508005A2001F020FCB9F17F0F08BF4FF000099DF87F
S31508005A30140001274946FFF77AF904469DF8140031
S31508005A40258802908F48B0F800A09DF814005045AC
S31508005A503FBFDFF85C030299085C814507D2029ACA
S31508005A60DFF884139DF81800515C884203D040F68D
S31508005A701B21FFF7DBFCDFF87403817902291FBFBE
S31508005A80817B0229807D022802D1432001F0E7FEAE
S31508005A900299CE48085C80B39DF81400294600F0A8
S31508005AA0D4F8D8F80010814253D0E81E00F09DF8CB
S31508005AB0CF4F7868DDF808C0C74B42881CF803301A
S31508005AC08188D21ED21A8A4207DB31B1B9680A88A0
S31508005AD09542A4BF4988A94272DBF868BD688079F7
S31508005AE0022837D1442001F0BAFEF86880790128E7
S31508005AF030D0452001F0B3FE53E09DF8180003901E
S31508005B004FF0000B20E00BEBDB7005EB600000F0BC
S31508005B1071F80BEB08001BF80810407801EB002021
S31508005B200399491E8B4580B205D1BDF80010C9B24C
S31508005B30C0B2ADF80010BDF8001088420BF10200A3
S31508005B4018BF00275FFA80FB03988345DBDB002F2D
S31508005B50ABD040E0B8688179012913D10020FFF75E
S31508005B6069FC002837D00020FFF75AFE002832D0FB
S31508005B70A0489DF81410007800EB4A00C01D4A465C
S31508005B8080B205E0032912D19DF814104A46002078
S31508005B90FFF750FD28B100F021F82846FFF7E7FE89
S31508005BA0C8B93046461EC0B2002812D113E00229F1
S31508005BB00CBF40F6013140F60431FFF737FC0AE026
S31508005BC000F00CF8FFF7D3FE28B93046461EC0B2DF
S31508005BD000287FF42CAF07B0BDE8F08F0094BDF81D
S31508005BE004309DF8141042467047012201A980B27C
S31508005BF0FFF72AB8012200A980B2FFF725B870B5C9
S31508005C0082B004460025192600F01AF8BDF80000EF
S31508005C10641C48B14FF47F41401A02D0FF3806D0C1
S31508005C2007E0681C40B276BDAD1C761EECD168B2A2
S31508005C3076BDBDF80000C0B200B96D1CE843F1E7B7
S31508005C40012200A9A0B2FEF7FFBF38B50C46002115
S31508005C5000916549455C2A4600A92046FFF73EF8AB
S31508005C60681C00EBD07004EB600080B2FFF7C7FF3A
S31508005C70002848BFC043009940B2401832BD000012
S31508005C803C2B0020BAB10108F0B55B4909880446E7
S31508005C905A4883B0254630F815608C4202D24B48E4
S31508005CA0285C18B940F66331FFF7C0FB4E482D5CF7
S31508005CB0681C00EBD07006EB6007B8B2FFF79FFFD1
S31508005CC0322814D2C107BFB207EB6000414F404BE0
S31508005CD03F884CBF00214FF47F41ADF80410C01B2C
S31508005CE0012201A903EB400001F060FD60B13146D5
S31508005CF02046FFF7AAFF00902B46401C00907F2203
S31508005D0000A92046FFF786FEF7BD0000DCB10108B2
S31508005D1070B504463748067882B0354629464D1E82
S31508005D202088022920DBEDB22818FFF763FFBDF8AB
S31508005D3000000028F2D032492088098805FB0100B6
S31508005D4080B2FEF795FF0020ADF8000001222388F7
S31508005D50204C1F482488EB181B1B00F013F808B1C9
S31508005D6001F07DFD284676BDFEF782FF0120A07171
S31508005D70214920880988301800EB4100801DA08041
S31508005D80E8B276BD00A900EB430001F00FBD174845
S31508005D908179022908D0817B022908BF083003D0FF
S31508005DA0817D022901D11030B2E70020704700003A
S31508005DB04CB20108B0B10108B4B10108B8B1010884
S31508005DC0B2B10108B6B10108BCB1010814B20108A4
S31508005DD000700208AEB10108C0B1010874B4010828
S31508005DE0382B0020A8B1010830B201085C28002031
S31508005DF0182C0020ACB10108BAB10108C42A002049
S31508005E00AAB1010873696D2D656570726F6D322DC3
S31508005E10696E7465726E616C2E630000EFF3118013
S31508005E20602181F31188704780F31188704700005C
S31508005E30DFF86C1500200870FF21DFF8680501708F
S31508005E4001717047F8B5044601F05AFD0546DFF8BA
S31508005E505805DFF850750688204601F062FEB0F551
S31508005E60006F16D1204601F080FE00F0ABFAFF283D
S31508005E700DD000F01EFA2146381D02F0E4F9DFF8CD
S31508005E802005017881B10089A9190E1A10E093201E
S31508005E90F2BDFF21384602F001FA052802DA21464A
S31508005EA03846EAE73920F2BD0581314602F057FA4D
S31508005EB0B2B20321204601F0B2FD032200F070F8C9
S31508005EC0204601F02BFF0020F2BDF8B50446DFF8A6
S31508005ED0D4040078FF2813D0DFF8D0542968465C2C
S31508005EE03746384601F032FE014608222046FEF7BC
S31508005EF089FD08B90120F2BD28683F5CB742F0D198
S31508005F000020F2BDF8B5044601F0B5FD000B00F01F
S31508005F100105204601F03EFE0646204601F029FE10
S31508005F20B0F5404F11D1002D36D03146002000F093
S31508005F307BF90446FF2C2FD0002102F00BFB58B347
S31508005F4000F098F900F02AF826E0304602F00EFD37
S31508005F5000F038FA0446FF2C01D10020F2BD0120DA
S31508005F600021224602F030FDDFF84424D2E900671A
S31508005F7006430F43C2E9006775B1DFF838341B687A
S31508005F8033F814304FF4FE64234205D0D2E90245B3
S31508005F9020432943C2E902010120F2BD40F08002F4
S31508005FA00521204601F046BD38B5044601F0B9FD85
S31508005FB0B0F5006F0CBF01250025204601F0C6FD8F
S31508005FC004462146284600F02FF9FF2810D18DB146
S31508005FD0204602F0CBFC00F0F5F9FF280AD0DFF8DE
S31508005FE0D413096831F810004FF4FA61084201D059
S31508005FF0012032BD002032BD2DE9F04107460C468E
S31508006000DFF8A05301F08DFDB0F5006F0CBF281D19
S3150800601028460078FF2846D0DFF890130968405CC8
S315080060200646B7423CD1FFF7F9FE804605213046C1
S3150800603001F007FD00F07F00471EFAB20521304641
S3150800604001F0F8FC002C18BF312C01D0F8B200BBC7
S31508006050FFF7E4FE0746F0B201F063FDB0F5006F06
S31508006060F1B205D1281D02F019F900F007F902E08E
S31508006070284602F013F93846FFF7D6FE4046FFF7E2
S31508006080D3FE2146304603F089FB304601F054FE24
S3150800609004E000F0F3F84046FFF7C6FE012003E0EF
S315080060A0765C8642BDD10020BDE8F08138B501F0A6
S315080060B027FCBB4C21892081421A4FF6FF75ADF8A3
S315080060C0005000A990B200F0FDF8BDF80000A84203
S315080060D002D10020207031BD0146204602F03FF96A
S315080060E031BD00214FF6FF70ECE02DE9F84FDFF8DF
S315080060F0C092D9E90001002908BF002800F08D8068
S3150800610000264FF00108B24600270024FFF786FE56
S31508006110D9E90023844608EA02001AEA030108BFFF
S31508006120002817D06FEA08006FEA0A0102400B4000
S31508006130C9E90023D9E9025B012708EA05021AEA38
S315080061400B0308BF002A05D028400BEA0101C9E95C
S31508006150020101246046FFF767FE002F4CD09548E0
S31508006160006830F81600810746D59349096831F862
S3150800617016702CB100F49871102908BF012500D0BB
S3150800618000258E4A12680021B154F4B180061CD548
S31508006190380A8DF801008DF8007000A9012000F07A
S315080061A043F80446FF2C07D100F039F84FF6DF72A2
S315080061B0114020F8161014E0002102F0CBF980B146
S315080061C000F058F8FFF7EAFE0BE085F001000442FC
S315080061D007D000F024F841F4006120F8161003F007
S315080061E081FE00953B461A226CA1032001F091FA24
S315080061F02946384601F029FB761CF6B24FEA4A00D2
S3150800620040EAD87A402E4FEA480806DAD9E900016A
S31508006210002908BF00287FF477AFBDE8F18F6548ED
S31508006220006830F8161070472DE9F04188465D4938
S3150800623000281ABF091D022508250878FF2816D048
S315080062405A4E3168475C3C4600F014F800060AD4FA
S31508006250204601F07BFC01462A464046FEF7D2FB63
S3150800626008B9204604E03068245CBC42ECD1FF2023
S31508006270BDE8F0810521204601F0E3BB70B5002199
S31508006280202004F0B2F847480079FF2810D0474C80
S315080062902168455C2E46304601F067FC00F092F80E
S315080062A0FF2801D000F005F82068365CAE42F2D12E
S315080062B070BD4049096831F8102042F0200221F8E3
S315080062C0102070472DE9F84F80460FF2F400354E3E
S315080062D00068364F00908A46344600E0341DFFF7C2
S315080062E09DFD814606E0204601F0C2FF294600A82A
S315080062F001F0A9FF204602F005F840B93868217870
S315080063000D5C0321284601F081FB8045EBD2301D48
S31508006310844208BFFFF7B2FF4846FFF785FD20789D
S31508006320FF281CD0396810F801904D4603212846ED
S3150800633001F06CFBA0EB080B1FFA8BF20321284631
S3150800634001F06DFBBAF800001FFA8BFB834588BF86
S315080063508346AAF800B038682D5C4D45E6D1301D55
S315080063608442BBD100A801F0CDFFA8B900A801F06E
S315080063707FFF044601F089FB00F0F5F8FFF77AFF86
S31508006380000603D44221204603F008FA204601F00D
S31508006390D3FC00F0E9F8E5E7BDE8F18F4257420083
S315080063A0BC2E00209C2800208E2700201C270020B9
S315080063B0B82800202C27002024270020302700207A
S315080063C0FF000000F8B50D4C2768060014D0FFF74B
S315080063D025FD0B4D21682A7821F8126037F8021B33
S315080063E0B142FBD1FFF720FDB81E2168401AC0054F
S315080063F02978000E884200D1FF20F2BD242700200C
S315080064002827002010B57348734C00682060606028
S3150800641048220021FEF7EFFA7048216800780870D4
S31508006420002021680873216848730B202168887347
S3150800643003202168C8734FF6FE71206801824FF663
S31508006440FF71418200F094FB2168087600F090FB0A
S315080064502168487600F08CFB2168887660482168B8
S315080064600078C8765F492068096881625E490978BC
S3150800647080F82C105D4821680068086310BD10B5C7
S31508006480FCF7E2F8544C6168897B884203D00846D9
S31508006490FCF7D2F850B9FCF7DAF80146606890F9CB
S315080064A00F00814204D0FCF7D6F808B1012010BDD0
S315080064B06068008AFDF79BF96068408AFDF79CF9D9
S315080064C06068007B012818BF0020FDF77DF90020D1
S315080064D010BD10B5464C0020207003F00EFF20B901
S315080064E02046BDE8104001F02FBF04F061FB08B15B
S315080064F004F08DFB63E080B5002000F015F828B1A4
S31508006500002000F005F808B1002002BDFF2002BDFA
S3150800651031480068407B02281CBF1128432801D156
S3150800652001207047002070472B480068007B01282F
S3150800653018BF022804D003281CBF0628072801D143
S3150800654001207047002070470020704700207047E0
S315080065507047704700207047012070477047002039
S31508006560704700207047704770470020704780B515
S315080065700020FFF7CDFF20B10020FFF7D5FF00B1BF
S31508006580012002BD80B50020FFF7C2FF30B11248D6
S315080065900068007B032801DA002002BDFF2002BD47
S315080065A010B5040004D0E5210FF26800FEF7E2F802
S315080065B008480068482101FB040007494860BDE80F
S315080065C010405CE704484068008A70470248406803
S315080065D0408A704750270020F42B00208927002086
S315080065E08A270020582700205C27002060270020E3
S315080065F0E42B00207047002070470020704701F008
S31508006600DEBF7047704701F019B904F041BC01F0CC
S315080066101FB90000656D6265722D6D756C74692D04
S315080066206E6574776F726B2D737475622E630000D6
S3150800663038B504460D46012004F044FD5D48002D9A
S3150800664012BF00210178491C01705B4844705B4801
S31508006650FCF76EFDBDE83240002004F033BD10B5EE
S31508006660002814463FD0402823D0882818BF8928F8
S3150800667040D08D282FD08F2846D15148007804283D
S315080066800DD144B14F490220087040F60620BDE8F6
S31508006690104004F01FBDFDF721F8312030E001203D
S315080066A001F036F8FDF71AF8002C0CBF312000204F
S315080066B026E04048444900780978884204D2BDE873
S315080066C0104000210120B3E7002001F021F8FDF772
S315080066D005F8402014E0002001F01AF800212020D7
S315080066E0FFF795FF0BE0012001F012F8FCF7F6FF23
S315080066F0002005E0002001F00BF8FCF7EFFF8D20E5
S31508006700BDE8104002F00AB8BDE81040C9213CE0D7
S315080067102C480078022800D0704780B52B480078AE
S31508006720042807D00C280ED129480078022818BF5B
S315080067307C2808D104F0E9FCFCF7D0FFBDE802404C
S31508006740002001F0EBBF01BD38B50024FFF766FB5A
S3150800675005461C48007810B9FCF705FC044628468F
S31508006760FFF762FB002C1CBFBDE8314001F075B88D
S3150800677031BD80B5FFF7E8FFBDE804404FF4A051EE
S31508006780144801F0ECBD40F205110FF25000FDF778
S31508006790F1BF38B5104C2068216C01EA0005ADB28E
S315080067A0680705D5206C20F00400206403F082FCFD
S315080067B0256031BDE82F0020442800202C2E00201B
S315080067C08B280020202E0020B0280020E52F00204E
S315080067D0E62F0020682F002008A000406D61632D79
S315080067E0656D3235302E630070B504460D46164683
S315080067F0FCF7D0FF38B16078002E14BF40F02000B7
S3150800680000F0DF0060702946204601F018FBFF28DB
S3150800681021D0934C0146201D01F015FD914D288885
S315080068202188401C288080B281420AD26888401C90
S315080068306880201D01F01CFD01F07EFA2888401EA4
S315080068402880208829888842F3D3BDE87040864886
S31508006850007801F067BE70BD2DE9F04FA5B08246FD
S315080068600027FFF7DBFA7F4C2188491E2180FFF7B6
S31508006870DBFA504601F0ECF9082390F800804078DE
S31508006880DFF8E891029000975146D9F800001AF807
S315080068900000A0F10802D2B203A801F0ECFA03AE98
S315080068A07078FFF760FE7248007808B360680028C1
S315080068B01DD0F078FCF70AFC4146FCF70EFC0746AB
S315080068C096F9020000F166060020009008F101031F
S315080068D0DBB20022514605A801F0CDFAFFF73EFECD
S315080068E0636872B2394605A89847FFF73DFE95E0FA
S315080068F0029800F00700022827D0FF208DF8040030
S31508006900504601F0A5F900F1010B584601F0EEF8E2
S315080069100446A8EB0400801E45B2002D15D401A933
S31508006920584604F0E7FC002879D1029800F00700E1
S3150800693001280BD19DF8040004EB0B0103F051FA72
S3150800694020B99DF8040001F0F7F968E09DF8040005
S31508006950D9F80010475C4749096800F801A0D9F83A
S3150800696000001AF8000000F120019DF80400C9B2E1
S3150800697001F074F99DF8040001F082F800F00C00AB
S3150800698004281CBF6519002468B280B20090631CF5
S315080069909DF804009BB25246394601F023FCE919DA
S315080069A09DF80400C9B201F008FB334970780978EC
S315080069B0884204D3BD210FF2C800FDF7DBFE9DF81F
S315080069C0040001F058F871788004800C40EA81319F
S315080069D09DF8040089B201F050F8F078FCF776FBD0
S315080069E04146FCF77AFB02469DF80400032101F0B4
S315080069F021F8B07800F166029DF80400D2B20421AD
S31508006A0001F018F89DF80C209DF80400052101F006
S31508006A1011F89DF804A0504601F0DCFE0127504607
S31508006A2001F08AF9FFF7A0FD384625B0BDE8F08FDA
S31508006A3010B50C4C618829B1C9B21D20FFF7E7FDD6
S31508006A40002060800D4801F013FCFF2803D0FFF7F3
S31508006A5003FF0028F6D010BD084801F053BC00001B
S31508006A60A8280020EC2E0020CA2F0020102700207E
S31508006A70912D00201827002054270020AC2800203C
S31508006A806D61632D726563656976652E6300000026
S31508006A9038B504461B4D214600F03DF8E860211D37
S31508006AA000F039F8A86004F1080100F034F86860CD
S31508006AB004F10C0100F02FF8286031BD7047F8B5D5
S31508006AC00446114D114E80202860062030600720AC
S31508006AD0286030688007FCD5002704EB870100F0A2
S31508006AE01AF87F1C042FA862F7D330684007FCD534
S31508006AF000262A6B04EB860100F00AF8761C042EA1
S31508006B00F7D3F1BD383000400030004010A00040F7
S31508006B10002001F036BF002001F041BF70B50446E1
S31508006B200D46FFF77BF906462846FFF7B1FF2046D4
S31508006B30FFF7C5FF3046BDE87040FFF775B9002876
S31508006B4048BF40427047000081B209B94BF6EF6171
S31508006B500E4A1180000C08BF4FF6CE2050807047B1
S31508006B600288130448BF4A40510001801046704706
S31508006B7038B5064C62212046FFF7F2FF054641F27A
S31508006B800B01A01CFFF7ECFF684032BDF827002078
S31508006B90EFF3118060288041C043C00F70470000A2
S31508006BA0002181F3118870472DE9F04FDFF8004680
S31508006BB099B0804660681890B8F1070F08BF4FF083
S31508006BC0030804D0B8F1080F08BF4FF00208DFF831
S31508006BD0E4552868696840EA0120A96840EA014046
S31508006BE000906868400703D5E06940F00200E0615C
S31508006BF02868400703D5E06940F00400E061009882
S31508006C002969C840C00703D5E06940F00800E0617B
S31508006C100020DFF89865DFF8A0953060B8F1010F1D
S31508006C2000F06982C0F08F82B8F1030F1ED005D339
S31508006C30B8F1040F40F08782606017E0D9F8400089
S31508006C40C00703D5E06940F04000E061D9F840008C
S31508006C50400703D5E06940F02000E061D9F840001C
S31508006C60800703D5E06940F01000E061FFF7D6F829
S31508006C7000F005FB8DF85C004FF0000BD9F84000DA
S31508006C80DFF838A5DFF83875DFF838151690D9F823
S31508006C9044001590DFF83005C06C1490DFF828051D
S31508006CA0006D1390DFF82005406D1290DFF8180587
S31508006CB0806D1190DAF800001090DAF804000F9051
S31508006CC0DAF814000E90DAF824000D9038680C9063
S31508006CD078680B90B8680A90F8680990386908903F
S31508006CE078690790B8690690F8690590B86B0490BA
S31508006CF0DFF8D80400680968039102212160DFF8EB
S31508006D00D01409688DF80410DFF8C81409688DF8DE
S31508006D100510DFF8C41409688DF806104FF0FF3126
S31508006D206162DFF8B8140968C9040BD56968C90730
S31508006D3008D5E169C90705D5316841F480714FF076
S31508006D40010B3160DFF89414096889040BD569686A
S31508006D50490608D5E169C90705D5316841F4804176
S31508006D604FF0010B31600121DFF8702412685204DC
S31508006D700ED5009AEB68DA40D20709D5E269D20740
S31508006D8006D53268EB6801FA03F31A438B4632607C
S31508006D90DFF848241268120410D5009A2B69DA40E5
S31508006DA0D2070BD5E269D20702D4E269120705D5E4
S31508006DB032682B698B46994011433160DFF81C1401
S31508006DC00968C90308D5E169090605D5F17841F0CE
S31508006DD008014FF0010BF17000216A68D2076A6852
S31508006DE048BF4FF480515206009AEB6848BF41F4F9
S31508006DF00051DA40D207009A2B6948BF41F4804116
S31508006E00DA40D207E26948BF41F40041D20605D408
S31508006E10E269920602D4E269520601D541F01001F0
S31508006E20E269120648BF41F4803108400290A52065
S31508006E3000F01CFA0120E063E069A16B11B1616AF8
S31508006E400142FAD0616A014200F0F2800020E06354
S31508006E504FF0010BF07840F04000F07000F056FA61
S31508006E600720C9F800000F20DFF85C13086004F05B
S31508006E70FFFA1898D44960601698C9F84000159822
S31508006E80C9F844001498C8641398086512984865A8
S31508006E9011988865CD491098CAF800000F98CAF865
S31508006EA004000E98CAF814000D98CAF824000C9825
S31508006EB038600B9878600A98B8600998F86008985E
S31508006EC03861079878610698B8610598F86104985A
S31508006ED0B86302980860BB49039808604FF0FF3012
S31508006EE0BF490860BA4800683070BA4800687070D0
S31508006EF0B9480068B070626AE06910402A69336868
S31508006F0001994B4000990B400106490E01F0010119
S31508006F1043EA81230106890E01F0010143EA810350
S31508006F200106C90E01F0010101FA02F21A4300F442
S31508006F307C7042EA00503060FEF770FF00F0F4F90A
S31508006F40002020609DF85C0008B100F082F9F07816
S31508006F509E490968C90304D5C0F3C00109B12021B7
S31508006F602162D9F84010890704D5C10744BF022118
S31508006F70C9F80C10D9F84010490705D5C0F34001E7
S31508006F8011B10421C9F80C10D9F84010C90705D564
S31508006F90C0F3800010B10120C9F80C0030688A4996
S31508006FA0C96C11F0E00F05D0C10503D58B4A4FF423
S31508006FB0805111608449096D11F0E00F05D0410434
S31508006FC003D5864A4FF4005111607F49496D11F087
S31508006FD0E00F08D0E96820FA01F1C90703D57F4A0E
S31508006FE04FF4804111607849896D11F0E00F07D0A0
S31508006FF02969C840C00703D578494FF4004008609E
S31508007000BBF1000F6ED17748006800056AD5606845
S31508007010800767D5B8F1040F64D06C480068C006CD
S315080070203DD56E480068C00639D50120307159E053
S31508007030BBF1000F7FF40EAFDAF81800614940087B
S315080070404000CAF818005F48806840F0040088606D
S3150800705040F2072164480088884201BF6248408898
S315080070604FF20F01884205D15F494CF23C30488007
S315080070704FF0010B012004F035FABBF1000F05D0E3
S3150800708059494FF20F0048804FF0000B55485549B3
S3150800709040680004B06089680843B060E0E600F024
S315080070A0D1F85249B0FBF1F04FF47A7148432F30CA
S315080070B03021B0FBF1F0002131714D494A6D42F0A3
S315080070C001024A650A68474B464C5B68A46844EA6D
S315080070D00343B468A34205D10B689B1A1B031B0B19
S315080070E08342F0D3F07840F08000F07019B0BDE824
S315080070F0F04FFFF755BD00F0C2F80446A52000F092
S31508007100B5F800F003F9FFF74BFD3A4D2E682868ED
S3150800711040084000286000F0FFF8374FD7F8008095
S31508007120386820F04000386000F0F2F8C7F80080B0
S315080071302E6000F0F1F80CB100F08BF819B0BDE83C
S31508007140F04F00F0F1B819B0BDE8F04F40F23C41FD
S315080071500FF2B000FDF70EBB164ACBB21360C1F3AF
S3150800716007235360C1F307419160002323490B604D
S315080071701368002B04BF5368002B01D192681AB11B
S315080071800A6842F001020A600A6842F400720A605C
S315080071900A6842F080020A6006E5194909788901F9
S315080071A041F4800141F48041D6E70000582B0020C5
S315080071B00400004008BC004014A000400440004001
S315080071C00050004008ED00E014A8004000E100E08F
S315080071D008B0004008B4004008B8004000E200E0EB
S315080071E080E200E00C6000400000002090D0030020
S315080071F03820004094ED00E0008000402000004068
S31508007200B32F0020736C6565702E630003480188F0
S31508007210034808237F22FBF779BB00BF0EB5010898
S31508007220082C00202D480068C00701D42C48704758
S315080072302C48704780B5FFF7F5FF2B49096801B957
S31508007240400802BD80B5FFF7EDFF400802BDFCF718
S315080072502CBC2648012181604EF6BE2141600121E1
S31508007260016070472249012008607047A52805D1AA
S315080072701E484DF6AD6141600221016070471B480A
S315080072800068C00701D5012070470020704780B507
S315080072901849194A1020086018491948007858B141
S315080072A003280CBF00200120106040F6510008603A
S315080072B00020FCF718FE06E0022010604FF400607C
S315080072C00860FCF7ABFB07210E480160002101644A
S315080072D010200D490860002002BD00001C40004037
S315080072E0001BB70000366E012040004000600040D9
S315080072F00860004080E100E0080000400C600040A3
S31508007300B12F002014A0004000E100E072B67047DB
S3150800731000BF30BF00BF7047BFF35F8FBFF34F8F0B
S31508007320BFF36F8F7047000062B670477047212021
S315080073307047FFF797BF7047704700002DE9F04187
S315080073404B4C4C4EDFF83081002020654FF4005539
S31508007350356002202060E56000202065206D40F041
S31508007360600020650E2000F029F888F800004FF428
S31508007370804700206065376004202060E76016209B
S315080073803E49086000206065606D40F060006065F9
S31508007390162000F013F888F80100394805600760E0
S315080073A0BDE8F0810E28344902D0162802D003E041
S315080073B00878704748787047002070470E2802D032
S315080073C0162802D009E02F4800E02F4800688009F7
S315080073D000F0010080F0010070470020704710B5EA
S315080073E023484FF40051C160022101600E20FFF7C7
S315080073F0E5FF214C227801468A4218BF21700DD13B
S31508007400501E8041C00F20700E20217804F042FBE8
S315080074102178481E8041C00F20702178BDE81040B1
S315080074200E2004F037BB10B511484FF48041C160F7
S31508007430042101601620FFF7C1FF0F4C6278014650
S315080074408A4218BF61700DD1501E8041C00F60700E
S315080074501620617804F01EFB6178481E8041C00F33
S3150800746060706178BDE81040162004F013BB000078
S3150800747014A8004080E100E0B22D002014BC0040B2
S3150800748000E100E008B4004008B8004070477047C3
S31508007490704701207047000080B500F028F82120C9
S315080074A002BD10B50446FFF746FF0E4800EB840000
S315080074B0C068808810BD0020704780B5FFF739FF87
S315080074C0002002BD0CB438B504460D46FFF72EFF62
S315080074D004AB2A462146044804F0F5FA32BC0020DB
S315080074E05DF80CFB942A00202F73000870470428C7
S315080074F006DA0FF21001415C481E8041C00F704742
S31508007500012070470000000010B50446FEF786FC0F
S315080075104E49302008604E4908604E4908601020E0
S315080075204D4908604FF20F01200A00284B4808BF52
S31508007530240204804180BFF35F8F4948002101601F
S31508007540416048484849086010BD10B5474C206856
S31508007550C0060BD5464941480A68C0F894204968D0
S31508007560C0F8901040F60620FFF7CEFF2068C00747
S3150800757008D5404903200870206C40084000206464
S31508007580012020602068000703D5206C20F0080041
S31508007590206410BD80B5002000F009F830B9BDE8B8
S315080075A00440FC210FF2E000FDF7E4B801BD2DE927
S315080075B0F044314C21680D1A15F01F0105D000283A
S315080075C052BF6D1A681A00F120052C48A5F120064D
S315080075D0A84224BF2A48864203D3EFF3088085428F
S315080075E001D300202DE0FEF719FC824625480068E5
S315080075F010F0010718BF03F053FF206801468D42BB
S3150800760006D2A84224BFCD2100F80119F9D206E016
S315080076102038002201E000F8012B8842FBD32560C0
S31508007620304603F042FFE22001E006F8010BAE42C5
S31508007630FBD30FB103F01CFF5046FEF7F5FB20689D
S315080076402038BDE8F0840C480068704730200040B8
S3150800765030C8004030C0004010D000400000002074
S315080076601C4000400400FA050CED00E018A000409C
S3150800767030500040D32F002050280020981D0020AD
S31508007680380D002094ED00E06D6963726F2D696E08
S315080076907465726E616C2E6300000000002204F0AF
S315080076A007BB000062F30F2262F31F42401810F076
S315080076B0030308D0C91A1FD3DB0748BF00F8012DFA
S315080076C028BF20F8022D130030B414461546103989
S315080076D028BF20E93C00FAD8490728BF20E90C0052
S315080076E048BF40F8042D890028BF20F8022D48BF5E
S315080076F000F8012D30BC7047C91818BF00F8012DD5
S31508007700CB0728BF00F8012D70470EB403B07047A9
S3150800771070470CB402B070474148018A40F6A77218
S31508007720914202BF408A4FF47F41084203D10228A2
S3150800773001DB01207047002070472DE9F84F82468B
S315080077408846FEF76BFB374D2F68044628684008C5
S3150800775040002860FFF7E0FD0120DFF8C0B08BF895
S315080077600000FFF7D9FF20B9FF210FF2BC00FDF793
S3150800777001F82B48D0F8289041464AF48070C8474B
S3150800778006462F60FFF7C8FD2046FEF74DFB002092
S315080077908BF800000FF298040EB1305D04E0414604
S315080077A04AF40070C847005DBDE8F28F2DE9F84F2E
S315080077B0804689464FEA420AFEF730FB194E37687B
S315080077C005463068400840003060FFF7A5FDFFF722
S315080077D0A3FF28B94FF4A1710FF24C00FCF7CAFFBA
S315080077E00F48D0F824B00023524649464046D847A9
S315080077F004463760FFF790FD2846FEF715FB0FF2A3
S3150800780030050CB1605D05E0534600224946404606
S31508007810D847405DBDE8F28F00000000CF2F00205A
S315080078200000040894ED00E0666C6173682E63003E
S31508007830000202024B4B4647704770477047704735
S315080078407047704770477047704770477047704772
S3150800785070477047704700207047FAF7B7BE70B593
S31508007860044643380FF2800508D0401E012809D97E
S31508007870801E01280ED9C01F32D02AE0BDE870400C
S31508007880FEF785BA002600E00126FEF780FA0028F2
S31508007890FAD12EBB134E307810BB01203070002071
S315080078A0FDF7D0F8452C11D00BD3472C01D003D3C4
S315080078B007E040F6010001E040F60200FFF724FE6B
S315080078C004E040F216312846FCF754FF00203070D9
S315080078D070BD2846BDE870404FF44A71FCF74ABFB0
S315080078E070BD0000AD2F0020656D6265722D636F57
S315080078F06E66696775726174696F6E2E6300000043
S3150800790080B500F008F880B202BD80B500F003F833
S315080079100002000C02BD10B5FEF780FA33490A686A
S31508007920496841EA0244FEF77FFA3148017831B1E5
S31508007930304909688C4202D12F48406810BD0021A1
S315080079400170204610BD704780B5FFF7FCFF2B4934
S315080079500720086001202849087001BD2DE9F84371
S3150800796004460025206810B9FFF71AF92AE0FEF741
S3150800797055FA00F02FF8206810F1010F1CBF401CC3
S315080079802060FFF7C8FF21681B4E1C4F814600F098
S315080079901CF821684944090C0160357002203860DA
S315080079A0386400F01CF80120FFF7F7FB3D643078D7
S315080079B038B98525FFF7AFFF2168081A48442060C3
S315080079C000E025602846BDE8F2830E48494489B29E
S315080079D04160704780460A491020086070471020A9
S315080079E0094908604046FEF71FBA000010600040CB
S315080079F05C2B0020602B0020102C002014A00040D7
S31508007A0080E100E01860004000E100E010B50C4697
S31508007A1000F01EF92018BDE8104000F0A7BF38B5E1
S31508007A200C46154600F014F929462018BDE83440DE
S31508007A3000F0A3BF38B50C46154600F009F92554E1
S31508007A4031BD10B50C4600F003F9205C10BD80B5B9
S31508007A5000F016F800F076F801D1082002BD0620DD
S31508007A6002BD38B5044600F0F3F805462046FFF790
S31508007A70EEFF401932BD0121C8E70A460121CEE7CB
S31508007A8080B500F0E5F8407802BD80B5FFF7F3FF52
S31508007A90800B02BD80B500F0DBF8417841F010019B
S31508007AA0417001BD10B50446FFF7EAFF00F04AF839
S31508007AB004D05E210FF27810FCF75CFE2046BDE884
S31508007AC010400621A2E738B504460D46FFF7D8FF51
S31508007AD000F038F804D064210FF25410FCF74AFE7F
S31508007AE02A462046BDE83840062198E780B500F0CA
S31508007AF03DFF01468A0A42EAA2030FF2441003F048
S31508007B000F03185C4B0700D408B9FF2002BD4906CD
S31508007B1005D412F003011CBF12F03001801CC0B25C
S31508007B2002BD10B50446FFF7ABFF00F00BF802D113
S31508007B304FF4006010BD06212046FFF767FF00F4EA
S31508007B40406010BD00F00C000428704738B50446A4
S31508007B5000F07EF805462046FFF792FFFFF7F2FF92
S31508007B600CBF06200B20401932BD80B5FFF7EEFF8B
S31508007B7030E010B50446FFF783FFFFF7E3FF02D1B5
S31508007B804FF4004010BD06212046FFF73FFF00F4E2
S31508007B90404010BD70B5044600F05AF80546204628
S31508007BA0FFF76EFFFFF7CEFF01D1A81D70BDA81D18
S31508007BB0FFF79CFF06462046FFF7DBFFB0F5004FB0
S31508007BC00CBF022008207119081A801D70BD80B5E7
S31508007BD0FFF7E0FFBDE8024000F0C8BEF8B504466E
S31508007BE00D461646012000F03EF80746FF2F1ED028
S31508007BF0FEF7B5FCA104890C41EA803189B2384602
S31508007C00FFF73BFF3846FFF722FF0146384600F0EC
S31508007C1025F83146384600F0D2F842F20C002040EA
S31508007C20042803D129463846FFF74DFF3846F2BDEA
S31508007C307061636B65742D6865616465722E630097
S31508007C400300070D000000000700090F0D000F15BF
S31508007C50DFF89016096801EB40107047DFF88826B0
S31508007C601268815470472DE9F041040035D0FEF7BB
S31508007C70D5F8DFF87816DFF878360E78FF228046D2
S31508007C80FE2EDFF870061BD100260E70DFF868C6D8
S31508007C90DFF8686637781F70002708E007F1010EDD
S31508007CA007F805E0DCF800507A555FFA8EF796F883
S31508007CB000E005687745F1DB0EEB050606F8012CB2
S31508007CC01E78A6420BD24046FEF7AEF80520FFF70F
S31508007CD01FFD00211B20FEF79AFCFF201CE0361B27
S31508007CE01E70DFF81C360E780F78D3F800E00125F1
S31508007CF007F80E50641E056817F805E081F800E0DD
S31508007D00E4B2002CF0D17A5500213046FFF7A6FFE1
S31508007D104046FEF789F83046BDE8F08110B50446BE
S31508007D20FEF77CF8DFF8D8150968625C521C6254C5
S31508007D30BDE81040FEF778B82DE9F041054600F099
S31508007D4031F80446FEF76AF8DFF8A025DFF8A03513
S31508007D50DFF8A065DFF8A885FF2D1FD0D8F800103A
S31508007D606F5C7F1E6F547F27D8F800E015F80E1059
S31508007D70394213D13168695C002705F80E701F78FF
S31508007D807F1C1F70FF29376892F800E005F807E0A6
S31508007D90157006BF2546FF240D46DDE7BDE8F04110
S31508007DA0FEF742B880B5DFF858150968415C090640
S31508007DB003D5FFF74DFF007802BDFF2002BDB0B521
S31508007DC004460D46FFF7EEFFFF2818BFFFF7B4FF7E
S31508007DD0FF2DDFF82C7504D13868215C01F07F018E
S31508007DE006E02846FFF79AFF3868215C41F08001D3
S31508007DF021542046FFF72CFF0570B0BD0EB478B5A8
S31508007E0004460120FFF72FFF0546FFF721FF064628
S31508007E10FF2D08BFFF200FD0E1B22846FFF71EFF4F
S31508007E2005A8002104E050F8042B06F8012B491C8C
S31508007E30C9B2A142F7D3284672BC5DF810FB70B5EB
S31508007E4004460D4605F11F000004400D82B0C0B27D
S31508007E50FFF709FF0646FF2E0CD02946FFF7FEFE60
S31508007E603CB1012000902B4600223146204600F006
S31508007E7002F8304676BD73B500F0B1F8085C1546D1
S31508007E801E467119884203DA4FF4B07100F0D0F833
S31508007E9066B1294601A800F0CFF8024606989DF873
S31508007EA0041000903346204600F001F873BD2DE912
S31508007EB0F843089CDFF83C840546894616461F4663
S31508007EC00BE04A5D0A54491CB142FADBD8F80000B7
S31508007ED0BF1B751919F800900026FFB2BFB14846B6
S31508007EE0FFF7B6FE3018F1192029B2BF3E46C6F193
S31508007EF02006F6B2324624B901462846FCF738FD74
S31508007F00E4E7012C08BF2946F8D00021DCE7BDE8E4
S31508007F10F1832DE9F04100F062F882B01600255C85
S31508007F2088461F460ED07119C9B2204600F045F89A
S31508007F3008B1182007E0009733462A4621464046EE
S31508007F40FFF799FF0020BDE8F6810123E1E7F8B5C0
S31508007F50044601F11F00C50402F11F00C0042D0EDE
S31508007F60000E05B9012500B90120854223D08542B6
S31508007F70DFF8806310DA401BC0B2FFF774FE0746CD
S31508007F80FF2F01D10020F2BD691EC9B2204600F0BC
S31508007F902BF8316847540EE08A420CD2411EC9B20A
S31508007FA0204600F021F804463068205CFFF7C4FE3E
S31508007FB03168FF2060540120F2BD38B500F00FF893
S31508007FC00D46215C2A462046FFF7C1FF28B12946FF
S31508007FD02046FFF743FE002032BD182032BD044676
S31508007FE0DFF804030068704704E0DFF80823126826
S31508007FF0805C491EC9B20029F7D1704711B581B016
S31508008000DFF8E40200680C469DF80410085C844218
S3150800801003D34FF4F47100F00BF8214601A800F0E1
S315080080200BF804469DF80400FFF712FE201816BD4B
S315080080300FF2E020FCF79EBB38B504460D46E9046E
S315080080402078090EFFF7D0FF207005F01F0032BD1B
S3150800805080B5FFF7D3FF007802BD10B51446FFF7C9
S31508008060CDFF047010BDB0B5FFF7B9FF82B0255C2F
S31508008070FF2C03D14FF40271FFF7DAFF05F11F0059
S315080080800004400DC0B2FFF7EEFD0746FF2F0AD0E9
S315080080902946FFF7E3FD00950023224600213846CE
S315080080A000F0A0F83846B6BDF8B504460D461646A3
S315080080B00120FFF7D8FD0746FFF7CAFDFF2F01D1BC
S315080080C0FF20F2BD33462A462021201800F00FF87B
S315080080D02118C9B23846FFF7C1FD3846F2BD0CB4BF
S315080080E080B502AAFFF7E0FF02BC5DF80CFB2DE99C
S315080080F0F047804616469946C24600250C460AE0D1
S315080081003A465046FCF734FC7819BA44401EC5B2C4
S31508008110681CC5B2761CA5423CDA3078002839D0EE
S31508008120312818BF32280ED159F8041B0AF8011B4A
S315080081303228EDD1681CC5B2AC42A4BF08120AF8B1
S31508008140010BE5DA26E0342811D1291D59F8040B6C
S315080081508C421FDB0AF8010B010A0AF8011B010C05
S315080081600AF8011B000E0AF8010BE81CCFE7A0F17C
S31508008170330259F8041B072A38BF303806D3A0F152
S315080081804102072A34BF373859F8040BC7B27819A1
S31508008190A042B5DBAAEB0800C0B2BDE8F08770B50F
S315080081A000F015F800F004F800EB062080B270BD68
S315080081B00646294620464BE700B583B002238DF8CC
S315080081C00420120A8DF805200122009204E00D46CB
S315080081D0691C0446C9B23BE70A46014601A8FFF7EF
S315080081E04AFE07BD2DE9F541089C1F464CB32546B6
S315080081F089B200A8FFF720FF0646B9B201A8FFF723
S315080082001BFF07463046B84238BF3846C0F1200043
S31508008210C0B2A842B8BF05469DF80400FFF718FD8E
S3150800822080469DF80000FFF713FDAAB207EB080188
S315080082303018FCF79DFB641BA919EF19A4B2002C92
S31508008240D5D1BDE8F38170B504460D46FDF7E6FDC8
S31508008250294B21781B68FF2908BFED5403D0C9189C
S315080082600E78EE540D702570BDE87040FDF7DCBD44
S3150800827038B50446FDF7D2FD2178FF22FF2908BF4D
S31508008280FF2507D01C4B1B68CD5C8D420EBF2270A4
S31508008290EA5CCA54FDF7C8FD284632BDF8B504465F
S315080082A00D460026FDF7BAFD2178FF2915D0124B99
S315080082B01B680A46012602E0761C3A46F6B2D75CE7
S315080082C0AF4208D1FF5CD754A94206D18A4208BFFB
S315080082D0FF22227001E08F42EED1FDF7A5FD304660
S315080082E0F2BD00000C27002010270020402800209F
S315080082F00B270020182700201C2700200A2700200B
S31508008300142700200078FF2801D10120704700209B
S31508008310704700007061636B65742D6275666665EB
S31508008320722E630038B544784568FDF777FD824AB2
S315080083300C2161438B585B1BB3F1004F98BF8D50DE
S31508008340BDE83240FDF770BD10B50446FFF7E3FA05
S315080083506060042020702046BDE81040E2E738B58A
S3150800836004460D46FFF7D7FA2818606001202070EA
S315080083702046BDE83240D5E710B50446207860B1FE
S31508008380042806D0FFF7C7FA6168421AB2F1004F0F
S3150800839001D8002010BD081A10BD4FF0FF3010BDDF
S315080083A070B50446FFF7B7FA0546FDF737FD0646EA
S315080083B060686FF0004100F02CF8401920603046E4
S315080083C0BDE87040FDF730BD70B504460D4616464B
S315080083D0FFF7A1FA002156B1FF22327007E0121A00
S315080083E0AA4202D2154606B13170491C08342268E1
S315080083F00AB9284670BD1378002BF6D0042B04D092
S315080084005268831AB3F1004FE9D806B131700020DB
S3150800841070BD0022D8E738B50446FFF77CFA054652
S315080084200DE0017851B1042904D04168691AB1F107
S31508008430004F03D804210170616888470834206812
S315080084400028EED131BD10B53B490C2202FB0014C1
S31508008450FFF761FA2168401AB0F1004F06D8606844
S31508008460FFF7D9FF2046BDE8104099E710BD70B563
S31508008470324D3349097804466878884204D3E521A1
S315080084800FF2C000FCF776F96E78701C68700C2144
S31508008490294801FB060001214460017200E04E7084
S315080084A054F8081B0029FAD1FFF77AFF304670BD49
S315080084B0F8B505464FF0FF300090204C207840B3C1
S315080084C0FEF766FB28B940F219110FF27800FCF79F
S315080084D051F9FFF720FA184A0C2101FB052300255C
S315080084E01D72002305E0009EB54288BF35460095FB
S315080084F05B1C6578DBB2AB420FD201FB03263568FD
S31508008500471BB7F1004F04D9367A2D1A0EB9002D3C
S31508008510E9D1FEF745FB0020F2BD00A8FFF71EFAD9
S315080085200120F2BD044A0C2303FB0020012101723D
S31508008530704702490870704750290020C22F002052
S3150800854098B101086576656E742D636F6E74726FE7
S315080085506C2E6300F8B50446DFF8D00300780028CF
S3150800856002BFDFF8CC63F06800280D4625D1DFF896
S31508008570C40300780A2818BF022D1ED1FDF74EFC49
S31508008580B278082A074616DA012D02D19019047125
S3150800859004E0311D701DFCF7EBF93471B078401C0E
S315080085A0B0703846FDF740FC2046FFF7B7FB01F0F0
S315080085B099FC0120F2BDFDF737FC0020F2BD80B51D
S315080085C0FEF718F8DFF86803C17829B90121C170E8
S315080085D0BDE8014001F086BC01BDDFF85413002058
S315080085E0C870704770B5DFF844030078002839D1A1
S315080085F0FDF714FCDFF83843DFF83C530646A0784D
S3150800860060B121792970421EA270611DD2B2201D67
S31508008610FCF7AEF93046FDF707FC21E03046FDF7DA
S3150800862003FCE068F0B9E078022802D003F09EFB6C
S3150800863028702878FF2810D1E07870B1FDF7DBFFA5
S31508008640FDF791FF03F071FDFF28287003D0FDF7B1
S31508008650D4FF00B9E070FDF787FF2878FF2801D01E
S31508008660012070BD002070BD2DE9F04104460D467D
S31508008670FDF737FDAE4E0020F070FDF7CFFB8046C4
S31508008680F06820B14046FDF7CFFB002013E0AB4869
S315080086900078052808BF01F030FD00F00EF8070045
S315080086A008BFF4604046FDF7BFFB1FB105B1A04700
S315080086B0012000E00220BDE8F08110B5FDF7AEFB11
S315080086C09B499E4B8A781B78C9781A43114305D172
S315080086D09B4909784C1EA441E40F00E00024FDF7ED
S315080086E0A3FB204610BD10B59449914C0020087094
S315080086F0FF20914908700020E060FEF739FA2070E3
S3150800870000208F4908708F4908704FF4A0518E4891
S31508008710FFF725FEBDE81040FDF78ABB2DE9F843B3
S31508008720854E8A4D81463078FF2808D12878FE285C
S3150800873005D04FF4B3710FF22420FCF71BF8287804
S315080087407B4FDFF8FC817D4C811F01290DD805215F
S315080087502170494603F094FF08B900F014F8307800
S31508008760FFF7EAFAFF20307003E087F8019000F07F
S315080087700AF82878042804D0F878012804BF0220CB
S31508008780F870BDE8F183032020704046FFF7DCBD92
S3150800879010B5694C217881420DD10846FFF7CCFA0D
S315080087A0FDF73CFBFF212170FE21684A1170BDE8E8
S315080087B01040FDF739BB10BD38B55D4D69780446E4
S315080087C0FDF71AFC28B969782046BDE8344000F060
S315080087D0E5BF31BD2DE9F8430446FF2C05D140F22B
S315080087E0B7110FF27810FBF7C5FF0320FEF790FFCD
S315080087F0574D2046FFF744F900F00C002870FF207B
S3150800880068702046FFF73CF900F00C0008285CD099
S3150800881028780C2859D12046FFF723F9074600F097
S31508008820A5F8064606F44C483846FFF75FF9C05DDA
S3150800883068704FF6FF794FF44060064206D0F81C80
S3150800884000F094F8484508BF48F0400806F4406030
S31508008850B0F5006F06D1781D00F088F8484508BFC6
S3150800886048F01008697801294CF6500017D00229FB
S3150800887018D0042908D0062925D0072925D0082983
S3150800888018D07C2911D04FE0B8F5484F18BFB8F575
S31508008890084F49D12046FDF735FB002811E0B8F509
S315080088A0484F0EE0B8F54C4F0BE0B8F54C4F0CD0DE
S315080088B0804506E04CF64040804535D11D48007895
S315080088C0052802D030E080452ED12046FFF7D3F8A0
S315080088D005462046FFF7D4F800F00C00082816D005
S315080088E0A80614D54FF6DF7000EA05012046FFF703
S315080088F0C4F82046FFF7ABF805462046FFF7B1F85F
S31508008900FFF7F4F84119C9B22046FFF756FB21468E
S315080089101048FFF798FC2046FFF700FA0E48007843
S31508008920BDE8F243FFF7FEBDBDE8F183912D0020B7
S31508008930AC2E00207428002097280020202E002026
S31508008940242E0020302C0020682F00208B280020A1
S31508008950E52F002098280020CA2F00206D61632D7E
S31508008960617262697465722E63000000417800784E
S31508008970FFE700EB012080B270470170090A4170D9
S31508008980704710B50023002814BF1C46C3F1030422
S31508008990E4B25B1C6254120A042BF4DB10BD30B53A
S315080089A04A788B78CC78097818B120461D460C464B
S315080089B002E0154608461A4645EA002044EA02211E
S315080089C041EA004030BD0000D2B2203A22BF00FA88
S315080089D002F1002070475242D041D2F12002914064
S315080089E04140D040904041407047000038B5DFF81C
S315080089F0BC1C0020087003F0B0FE04F085F904F0F2
S31508008A0060FA01F09BFC04F0FDFA02F0F3F800248A
S31508008A10DFF89C5C09E02046FDF7A5FD04F014FB91
S31508008A2004F016FEFDF7A0FD641C2878E4B2844223
S31508008A30F1D320E038B5FDF75EFD04460025FF2C8E
S31508008A4008D0FDF790FD02F0B3F800B90125FDF74F
S31508008A508BFD4DB903F081FE04F056F901F06EFC6A
S31508008A6004F0D0FAFF2C00D00DB102F0C3F804F0E0
S31508008A70EBFA04F0EDFDBDE8314005F09FB8DFF8EC
S31508008A80340C0068407B11281CBF4328412801D1BB
S31508008A90012070470020704710B50446FEF7E1FF35
S31508008AA0801CFFF763FF4FF6F87188422046A4BF83
S31508008AB0BDE8104000F005B800F05CF800F075F964
S31508008AC010BD2DE9F041044604F0EAF8002837D134
S31508008AD000F046F94FF6FF7505D24188A9422FD016
S31508008AE02046FEF7F0FF002300220221204604F06C
S31508008AF07FF928B32046FEF7B4FF0646F77905F056
S31508008B00D5FB804605F0D2FB4246394604F0D6F836
S31508008B1020B9BE210FF23C20FBF72CFEB01CFFF754
S31508008B2025FFA84204BF204603F0DCF8307803216D
S31508008B30084203D10121204601F098F9012000E0FE
S31508008B400020BDE8F08138B50446DFF84C0C006813
S31508008B50205C851AEDB2681A80B2009053189BB251
S31508008B6022462046FFF73EFB29462046BDE834400C
S31508008B70FFF723BA2DE9FE4F002582460195FEF739
S31508008B8070FF0646301DFFF7F1FE0746B01CFFF7DB
S31508008B90EDFE8046307800F0C00002903846FDF7BA
S31508008BA011FC8DF80200FF2814BF4FF00109A946F1
S31508008BB030780321084208D105F078FB874202D0B5
S31508008BC05FEA090402D0012400E00024B0790028F5
S31508008BD073D005F06BFB80450BD105F067FB834628
S31508008BE000225946504600F0E5F8002865D00020D6
S31508008BF0AEE000F0B5F838BFB0F802B0F0D34046A2
S31508008C0001F07AFD20B95046FEF735FF400514D528
S31508008C1070784007C346E3D5504605F044FC00F09B
S31508008C20B1FC401C4200D2B229465046FFF78BFFE2
S31508008C30707800F0FB007070D2E7707840071CD59A
S31508008C40504605F030FC00F09DFC06466F1CF9B254
S31508008C5000F09AFC002E18BFFF2806D10022F9B2B0
S31508008C605046FFF7FAF9C346BAE705EB4000811C00
S31508008C70C9B25046FFF793FAB1E701AA00A94046E0
S31508008C8003F01CFF8346DCB10298802804D04028F4
S31508008C9016D19DF8000098B1307800F03F0030708A
S31508008CA0384601F029FD10B905F000FB07463A469B
S31508008CB00021404605F05CFE002848D0012047E028
S31508008CC00198B8B303F051FE8DF8010001980079B8
S31508008CD000F0300002909DF80100FF2805D140F20F
S31508008CE023110FF27000FBF745FD1CB302981028FC
S31508008CF011D020281ED1B9F1000F07D09DF8021017
S31508008D009DF8010003F042FFA0B904E0019800793C
S31508008D100C2108420ED0F3795A464146384606F0E9
S31508008D207FF901980079019900F0F30040F00400FA
S31508008D30087101259DF8000028B10121404604F07C
S31508008D40ACFB20B1C346002D8ED0302249E7022065
S31508008D50BDE8FE8F6E6574776F726B2E6300000038
S31508008D60DFF850090068017BC91E0329704738B52A
S31508008D7004460D4601F025FF00F091FC01D20120C2
S31508008D8032BD4FF6F9718C421CBF4FF6F8718C4212
S31508008D9001D0702032BD05F089FA024629462046E0
S31508008DA005F0E6FD00F001F832BD401E8041C00F17
S31508008DB070470022F8B504460D461646FEF751FEE2
S31508008DC0007800F0DBFB0CBF012700272946204668
S31508008DD0FEF779FE05F06AFA854217D0284601F0B3
S31508008DE080FC50B9DFF8680A01783246204601B09F
S31508008DF0BDE8F040002303F0FBBF6FB905F056FA53
S31508008E0000232246294606F040FD28B101212046C6
S31508008E1001F02CF80120F2BD2046FEF72CFE400595
S31508008E2005D52046BDE8F4400021FFF793BB204650
S31508008E30FDF708F8FFF7B9FFF2BD2DE9F041044642
S31508008E4016468846304605F0FBFB07463046FEF7D1
S31508008E50FEFD3E1AF6B23719A8EB060292B239465B
S31508008E6007F10E00FBF784FD28203870DFF8445818
S31508008E70286890F82000787304F0F8FB0246791CFD
S31508008E800120FFF77EFD0822DFF8141C781DFBF78A
S31508008E906FFD286890F8200007F044FB08F10E01E2
S31508008EA033460022C9B2204604F0FCFD1220BDE874
S31508008EB0F0812DE9F04F85B080460D4605F0C0FBE0
S31508008EC082464046FEF7EEFD81464046FEF7BFFD68
S31508008ED007460AF10E0189B2404605F0FCFA002859
S31508008EE052D0002000900E235246414601A8FEF7B4
S31508008EF0C2FF0DF105010120FFF751FD83469DF8DC
S31508008F0004009DF8114028283ED10822DFF8901B5E
S31508008F100DF10900FBF776FDB0B3DFF8886B204644
S31508008F2007F000FB58B9306890F82000201AC0B244
S31508008F3080280DDA0021002007F072FE08E00120E3
S31508008F400090002352463946404604F0E0FDD8B169
S31508008F50404605F08CFA49460DF1090008F029FF4C
S31508008F60FE28824610D0FF283CD1484604F0C3F8B4
S31508008F708246BAF1FF0FDFF8307B0BD00DF10901FD
S31508008F8004F0AFFA387868B300211920FDF73FFBE3
S31508008F900020F0E200F0FBFA0AD1404605F050FB4B
S31508008FA001464046FFF754F8082801D10120F0E7AA
S31508008FB038780028E8D1306890F82D1090F82C0001
S31508008FC0814206D3A81CFFF7D1FC4FF6F8718842F8
S31508008FD0DADA0DF10901484604F0DFF9484604F0EB
S31508008FE08AF88246306890F82000844205D02146E7
S31508008FF0012007F0BAF80028C6D0306890F820009B
S31508009000844203D1504608F042FF28B959465046D3
S3150800901008F0B8FE0028BCD05946504608F0C2FEF3
S31508009020C4E738B5DFF8880AFFF722F90446FF2CAB
S315080090301DD0DFF8805A0321FEF703FD28700421AE
S315080090402046FEF7FEFC687005212046FEF7F9FC6F
S31508009050A870012002F036F8204600F009F82046EC
S31508009060FEF76AFEBDE83240002002F02BB831BD9B
S3150800907038B50446FEF704FD00F00C052046FEF759
S3150800908004FDFDF770FA2046FEF7FAFC00F014FD21
S3150800909032D101F08DFD18B1204601F0B1FD75E021
S315080090A0062200212046FFF74EFD2046FEF7D0FD9A
S315080090B002F061F88DF801008DF802409DF8010074
S315080090C048B92046FEF7C4FD01460DF1010002F03D
S315080090D086F88DF800009DF80100802804D100A8C4
S315080090E008F00BFF002851D1FDF738FA00A8FEF763
S315080090F0AAFBFDF739FA49E0042D204617D1FEF7F9
S31508009100BAFC00051ED402200021FDF780FA01F002
S315080091104FFD08B1042D39D00C2D15D1214601205B
S3150800912009F05DF890B3204607F0FAFF2EE0FEF747
S31508009130F8FCB0F5006FE6D12046FEF716FD00F004
S3150800914089FBE0D10020DFE71DB9204608F0A0F929
S315080091501CE0042D1AD1DFF84C090568687B022843
S315080091600CD0FFF78CFC48B9687B332818BF312828
S3150800917004D0012804BF287B052807D121460220F0
S3150800918009F02DF810B1204600F004F8FDF7ECF9C7
S3150800919031BD00002DE9F04F85B08246FEF761FC2F
S315080091A005465046FEF77EFCADF80600281DFFF77B
S315080091B0DDFB8346A81CFFF7D9FBADF8040028465B
S315080091C005F05DFA03904FF6F87200F0E0F968785A
S315080091D000F00201029100F00100BDF804100490AD
S315080091E00CBF012700279142ACBF4FF001084FF092
S315080091F00008504605F024FA8146287800F03C011C
S31508009200082943D1DFF8901509681AF8011089452D
S315080092103CD217B90321084238D10298DFF88448AE
S3150800922048B12068C07E002830D029465046FFF74E
S3150800923040FE00282AD02FB15146032008F0CFFF60
S31508009240002823D0494600F09FF90646029878B9C7
S315080092502068C07E60B1BDF80400009005F026F8CD
S315080092600099814212D197B1062E18BF072E0DD14B
S315080092702068417B022956D1029911B9C07E00287F
S3150800928051D1BDF8060009F04EF960B173E106F058
S3150800929003000128ECD04A462946504600F07AFDDC
S315080092A00028E5D167E1BDF80600009004F0FEFF4E
S315080092B00099814211D12068007BC01E032808D27C
S315080092C004F0F4FF0146206840880D2209F068F989
S315080092D051E1012009F03CF84DE1BDF8060001F026
S315080092E00BFA70B904F0EAFF4FF6FF71884208D00E
S315080092F0DFF8AC0B00780A2804BFBDF8060003F0B7
S315080093008DFE03990122584609F04BF80028E3D14F
S31508009310284605F0A7F90146BDF80400002209F021
S3150800932040F80028D8D1BDF804004FF6FC718842F1
S3150800933066D12068007BC01E0328CDD3A87908B162
S31508009340401EA871687840072AD50020029002AA14
S3150800935000A9584603F0B2FB029808B303F005FBD0
S315080093600446BDF80400FDF72DF80299097901F0C5
S315080093703003102B1CBF01F00C02082A03D0029AF6
S3150800938001F0F30111710299097901F033012029DD
S3150800939006D1FF2804D001460122204603F0DFFB50
S315080093A0BDF80600FDF70EF8FF2804D0DFF8F42A0A
S315080093B012680021815409F10104049840EA080062
S315080093C0C0B2002874D1E979584603F007FE08F0C0
S315080093D09BFD08B1039820B1BDF80610584600F069
S315080093E0CAF904F063FFBDF80410884260D0084645
S315080093F001F082F970B177B1012E1BD1002267E026
S315080094004FF6FD71884299D12068007B001F02281B
S3150800941094D2B0E077B9BDF8040001F062F948B11A
S31508009420BDF8041000235246584606F02EFA0028C6
S3150800943040F09D80DFF8700A007848B9584601F078
S315080094405BF928B9BDF8040001F056F90028E0D008
S31508009450C7B1052E16D104F029FF8DF8000004F0D7
S3150800946025FF000A8DF80100022200A95046FEF7E2
S315080094706CFD00281BD1E1B25046FEF7BFFD01780E
S31508009480491C0170687840070AD5504605F00BF864
S31508009490411CC9B25046FEF7B1FD0178491E01705C
S315080094A05046FFF767FB00211C20FDF7B0F862E085
S315080094B0002F4ED0701E09285DD8DFE800F005059C
S315080094C00E131930393F4343022E0CBF01220022E6
S315080094D04946504605F02CFC4DE04946504609F0F1
S315080094E093F848E04A465146584609F0B8F942E02A
S315080094F0E1B200F049F80546DFF8B079039838601C
S31508009500FDF72CF809F10200C0B2009053463968FD
S315080095102A46584609F0AEFAFDF726F82BE0CDF8AC
S3150800952000902B4652460021012007F082FC22E0DB
S315080095304A465146012007F04CFD1CE0504609F00A
S315080095409EFB18E0504609F0F8FCB8F1000F12D05F
S3150800955009E0049820B1287A00F010F80BD102E04F
S31508009560B8F1000F03D0504600F016F803E00021CA
S31508009570504600F07BFC05B0BDE8F08F00F0030014
S3150800958001287047054629465046FEF761BD2878EA
S3150800959000F00300012870472DE9F84F8046FEF7D2
S315080095A060FA05464046FEF77DFA0446281DFFF791
S315080095B0DDF98146A81CFFF7D9F9834695F807A077
S315080095C0204601F099F807462946404600F074F807
S315080095D00646022E61D022465146484603F02BFB2A
S315080095E000285AD104F062FE814556D0DFF8C0083B
S315080095F0007860B9012E06D008F086FC18B1284616
S3150800960005F03DF818B12146484600F0B4F8224660
S315080096105146484603F052FB00283ED028780321DD
S31508009620084203D10021404600F020FCA879A0B3E7
S3150800963000F035F831D36878C00715D52C7A584626
S3150800964009F0ABFF40B1E10804F0E00001F01C01AD
S31508009650084340F0010006E004F01C001C2803D073
S3150800966005281ADB201F28724FF6FF752946404643
S31508009670FEF729FA0FB1002203E0FDF779FA00F0A8
S315080096803F0200230221404603F0B2FBAB4504D15A
S315080096904046BDE8F24F02F025BBBDE8F18FDFF882
S315080096A004040068007BC01E03287047D02B0020E6
S315080096B054270020F42B0020F0B587B0044608781C
S315080096C00321084254D12146042008F088FD0028C9
S315080096D04FD0204604F0B4FF014600F058FB0321A2
S315080096E0084245D1204604F0ABFF0546294600F05E
S315080096F04EFB0FF2E07248CA05A948C10321084289
S3150800970036D1002000906A1C0523D2B2214603A850
S31508009710FEF7B1FB052203A905A8FBF77FF938BBBD
S31508009720204605F010F80546A91C00F02FFB064652
S31508009730691C00F02BFB00EB062605F10B0100F077
S3150800974025FB074600200090EA1C0823D2B22146D2
S3150800975001A8FEF790FB2046FEF7A4F93A46B1B2F7
S3150800976008F0CFFB012201A9B0B208F01AFE00E00A
S31508009770002007B0F0BD38B504460D4600F0BCFF22
S31508009780002818BFAC4206D02046FCF71BFEBDE8F1
S31508009790324001F043B831BD102700202DE9F041D1
S315080097A080460D4600260DB9012602E0312D08BF78
S315080097B00025FEF765F900F07FF913D101F0F8F9F5
S315080097C080B9DFF8F06686F80080FCF7C7FE4046E9
S315080097D0FEF7E8FA2946FEF737F8FCF7C5FEFF203C
S315080097E0307032E0DFF8D0764046FEF749F90C21B2
S315080097F0084205D13978BDE8F0410120FCF707BFDA
S3150800980003244046FEF78DF9B0F5006F07D14046B0
S31508009810FEF7ABF900F01EF808BF012401D005B128
S31508009820052439782046FCF7F2FE2946404602F020
S31508009830CBFA50B92946404603F05AFB28B93246B6
S3150800984029464046BDE8F04108E0BDE8F081000041
S31508009850582800204FF6FF71884270472DE9F04FCF
S3150800986083B007460E461446FEF70AF900F024F9B7
S3150800987008D101F09DF928B122463146384601F053
S31508009880C0F907E1DFF81C823846FEF7F9F800F060
S315080098900C000C2838465AD1FEF7E3F88246FEF744
S315080098A025F950444FF0FF090178DFF808560129D9
S315080098B006D0022912D0042924D07C2939D0E9E01F
S315080098C04EB99AF804009AF8031001EB002080B20A
S315080098D004F0F8FCDEE007F0A4FDDBE0002E04BF90
S315080098E0C178002908D18278407800EB02203946F1
S315080098F080B206F026FB92E00AF10501002000F08E
S31508009900D4FD92E0D8F80000407B0228E5D11EB9C4
S3150800991009F018FF04B931263346222263A1032031
S31508009920FDF7F7FE2F70FCF719FE3046FDF788FFA6
S3150800993008E02F70FCF712FE3846FEF733FA314678
S31508009940FDF780FFFCF710FE85F80090A2E0FEF711
S3150800995088F80446201DFFF709F88146A01CFFF782
S3150800996005F805464FF6F87B5D450BDAD8F8000092
S31508009970B0F84410491CA0F844101EB14430418880
S31508009980491C4180207800F00301012950D138464E
S3150800999004F056FE01463846FEF75AFB042802D064
S315080099A0072804D076E0384609F042F872E02046E7
S315080099B004F058FE00286DD00146002000F075FD21
S315080099C00446384604F03CFE00210091421C03235D
S315080099D0D2B2394601A8FEF74EFA002E02BFD8F8D1
S315080099E00000407B02281FD101A88178E1B94078A0
S315080099F09DF8041001EB00252046FF280CD0DFF85F
S31508009A00BC14096831F810204FF6FF331A4021F8C4
S31508009A101020A9B200F0C9FEA8B202F0BEFF0021CC
S31508009A201020FCF7F4FD35E0204600F0F7FE31E0A3
S31508009A30032108422ED104F039FC814504D038466A
S31508009A40FEF719F8C00606D5002E0CBF00216621C0
S31508009A5038460AF03BF9EEB15D451BDA607810F03E
S31508009A60040606D1284603F04FF8070002D001275E
S31508009A7000E00027284600F034FE10B1062267B938
S31508009A8004E00EB10B22FAE737B902222946484606
S31508009A9008F086FDBDE8F78F0C2249462846F7E709
S31508009AA0082C0020F42B0020E02F00204242000062
S31508009AB098280020CC2F002000F00C0008287047BA
S31508009AC02DE9F04F044685B094F800A05046FDF7FE
S31508009AD0DCFFFCF748FD01F06BF8B0B1A07901286E
S31508009AE005D1DFF8DC03017841F001010170207827
S31508009AF001F088F8002840F0D080607800F0F00087
S31508009B006070FCF731FD002035E55046FDF7A9FFEA
S31508009B100646301DFEF72AFFADF80000B01CFEF71A
S31508009B2025FF8146504604F08BFD83465946FFF7CC
S31508009B302BFD8DF802003078FFF720FD0CBF9DF84D
S31508009B400250FF25FDF7DCFEA188401A1FFA80F8AF
S31508009B5004F0ACFBBDF8001088420CBF01270027B3
S31508009B60084608F0E0FC0028C7D1484608F0DBFCA8
S31508009B7020B1484600F0C0FD0028BED0FFF78FFD93
S31508009B8021D2062D18BF042D62D05A4631465046BA
S31508009B9000F000F9B8B9FEF772FF20B19DF802008F
S31508009BA0FFF7ECFC0FD000F0BEFF00284DD004F004
S31508009BB07DFB0146301DFEF7E0FEC248006841887D
S31508009BC05046FDF780FF012D42D15046FDF76AFF4A
S31508009BD0FFF740FE3CD1002300F0B3F805008CD017
S31508009BE06A799DF80D00824207D20BF10501C9B2C8
S31508009BF05046FEF732FA00F09EF8FCF7B9FF7E21D0
S31508009C0090FBF1F17E2202FB110000F58070608066
S31508009C1018219DF80E00084212D060780F210842DC
S31508009C2008BF002F0CD1FCF799FC304604F027FD3D
S31508009C3001466A79BDF80000FDF708FEFCF794FCBA
S31508009C40FCF792FC9DF80F005EE72820608058E735
S31508009C504FF6F870814502DA7078C00721D5FFF70C
S31508009C601EFD1ED340F6B93080455CDAFCF780FF4E
S31508009C7000F03F00C0F5FA706080607800090CD0EB
S31508009C805FB9F179BDF8000002F0CBFF00281EBFCE
S31508009C9080884FF6FF718842A1D0FCF765FC012049
S31508009CA032E7022D26D1012300F04BF8054604F0D1
S31508009CB0FDFA0146BDF80A00814202D000F01CFDFB
S31508009CC058B3002D8BD06B8801225946504604F0B4
S31508009CD0DAFF7C480068417E491C4176F171BDF87F
S31508009CE006006988884201D000F025F84FF4C8704C
S31508009CF06080D2E7032D10D17FB10BF10101C9B203
S31508009D00FFF742FC0C2808D103F05BFCFFF7A2FD25
S31508009D1003D001465046FDF7D6FE607800097FF469
S31508009D20ECAEB8F1FB0FBFF6E8AEFCF721FF00F08A
S31508009D301F001030DCE7607800F0F000801C6070CF
S31508009D40704701AA5946504604F0CFBE70B504467E
S31508009D5000F02EFFC0B92046FDF783FE05462046D3
S31508009D6004F06EFC014600F012F806462046FDF7A0
S31508009D7099FE4FF6F871884204DAFFF708FC08BF27
S31508009D80022E01D1012070BD002070BDC9B2204647
S31508009D90FEF75EB9F8B5044615460846FEF7E6FD31
S31508009DA020F4007041F20801884218D1464800683C
S31508009DB0205C401B072812DB00260FF220177119BA
S31508009DC0FFF7E4FFF15D814203D0022E08BF0028A9
S31508009DD005D1761CF6B2072EF1D30120F2BD00207C
S31508009DE0F2BD2DE9F04180460C46FDF749FEFFF726
S31508009DF063FE31D0201DFEF7B9FD0546E6794046DB
S31508009E00FDF750FE07464046FDF735FE00060FD51E
S31508009E102C480068017B091F022909D2417B0229C7
S31508009E2006D140884FF6FF71884218BFFCF7E7FB5A
S31508009E30A01CFEF79BFD4FF6F871884202DA60789F
S31508009E40C0070BD520780321084205D13A4631468A
S31508009E50284602F0F0FE05E0012005E031462846D6
S31508009E6003F0A8F8FEF7A1FFBDE8F08110B5044697
S31508009E7041B1FF220321FDF7DDFD00220421204622
S31508009E80FDF7D8FD21461148FEF7DDF92046FDF716
S31508009E9045FF0F480078BDE81040FEF743BB0000B9
S31508009EA0742800203027002020270020042C0020BA
S31508009EB0FE2E00204C280020E82F00202C2700200A
S31508009EC0212E0020F42B00201027002054280020E3
S31508009ED0CA2F0020001300000000000000FF014008
S31508009EE00EC0FF0010B5DFF82004006898B9FBF72C
S31508009EF095FF0446DFF814040178002918BF0529E0
S31508009F0004D1032100F8041BFEF71EFA2046BDE81B
S31508009F101040FBF789BF10BD2DE9F047DFF8F04385
S31508009F20DFF8E85327782978DFF8DC8300202871E2
S31508009F300FF2004051B9D8F8004014B99D21FAF73C
S31508009F4019FC0020C8F80000A047B1E003291CBF8F
S31508009F50A321FAF70FFCFF26FF2F26700CD03846F0
S31508009F60FDF793FDFCF7FFFA3846FEF725FC384661
S31508009F70FDF7E2FEFCF7F8FA00206870FEF732FB00
S31508009F80002800F0838020780127FDF77EFD8046B3
S31508009F90FCF7E9FA2078DFF87C93FDF771FD00F00D
S31508009FA00C000C2816D12078FDF75BFD8246FDF7DC
S31508009FB09DFD99F8001010F80A00052902D1062817
S31508009FC008D106E001291CBF0329082902D1072860
S31508009FD000D100272078FDF753FD00F00C00082873
S31508009FE004BF99F80000082834D09FB300F0E0FDBC
S31508009FF088B12078FDF744FD00F00C0008280AD146
S3150800A000207800F00EFEC44F39688873207800F077
S3150800A01010FE3968C8734046FCF7C2FAD0B1412130
S3150800A0202078FBF7E9FF18B920784121FFF7B6FB3E
S3150800A0302078FDF781FE2670FBF7F0FE0646032022
S3150800A0402870281DFEF780F93046FBF7EDFEFCF771
S3150800A05040FA17E0207800F08AF804466878AF4995
S3150800A060C0074EBF0020AE4800780870FBF7D6FE42
S3150800A07006460120287001212046FCF7D9FA304609
S3150800A080FBF7D2FEBDE8F047FCF76EBAFBF7C6FE53
S3150800A090064600202870D8F8000010B1281DFEF7E3
S3150800A0A053F93046FBF7C0FEBDE8F047FCF711BA96
S3150800A0B0BDE8F08780B595480178012904D00229C2
S3150800A0C006D004290BD010E0BDE80140FCF75BBBC5
S3150800A0D0F9F704FBBDE802403120FEF71FBB052156
S3150800A0E00170BDE8014002F060BABDE804404FF4D3
S3150800A0F0B4710FF24020FAF73DBB38B5FBF78EFE78
S3150800A100824D04462878052803D040F2771100F0DE
S3150800A1102AF8002028707C48006810B1281DFEF730
S3150800A12013F92046BDE83240FBF77EBE70B50446FB
S3150800A130FBF774FE754E05463078002818BF0528CB
S3150800A14003D04FF4C27100F00EF8042030704FF6B9
S3150800A150FF7084421CBF204600F0BCFF2846BDE8BD
S3150800A1607040FBF761BE0FF2CC10FAF703BB2DE97E
S3150800A170FE4F8046FDF76BFC8DF80500694F386881
S3150800A1809DF8051018F80000401A8DF8040040469E
S3150800A190FDF776FC00F00C0004280CBF012500250D
S3150800A1A04046FDF7FFFDFF2883460EBF00273968A6
S3150800A1B0475CDFF874915D4CFF20661C89F8000047
S3150800A1C000F0F6FC58B14046FDF75AFC00F00C00CA
S3150800A1D0082804D1404600F017FD01208BE00DB396
S3150800A1E04046FDF75FFC06464FF6FF7048F6410A03
S3150800A1F0864218BF48F6610AFCF7E8F90146201DB1
S3150800A200FEF7BBFB3146A01DFEF7B7FBFCF7DAF9F4
S3150800A210014604F10800FEF7B0FB04F10A0004F158
S3150800A2200A060290002000909DF804309DF805204B
S3150800A23041463046FDF71FFE9DF80400861947B1D2
S3150800A240002000903B46002259463046FDF713FE93
S3150800A250BE196DB14046FDF704FC4078800726D547
S3150800A2600298311A4246C9B2FEF7E7FD86191EE082
S3150800A270A078617801EB002080B2410B01F0010162
S3150800A28081F001054DF6FF7101EA000A0AF00700A0
S3150800A290032805D1601CFDF729FC0019407804E065
S3150800A2A01C480078082802D1072089F80000404693
S3150800A2B0FBF77AFE08B14AF0100A1FFA8AF1601C09
S3150800A2C0FEF75BFB1AF0070F04D119480178491C01
S3150800A2D0017004E010480068017E491C0176301BB5
S3150800A2E0E170401C2070301B7F2803DB4FF4F671A9
S3150800A2F0FFF739FF2846BDE8FE8F04480178481E57
S3150800A3008041C00F70470000B82E0020202E002084
S3150800A3109728002074280020F42B0020B02800205D
S3150800A320B1280020102700208B2800202C2E002082
S3150800A330AC2E00206D61632E63000000FEB5DFF8C9
S3150800A3401817DFF81857FF2008700021DFF81007E4
S3150800A35041804170002407E02046FCF704F909F023
S3150800A360F1F9FCF701F9641C2878E4B28442F3D3C6
S3150800A370DFF8F0462078420000F014FA0021FAF7D8
S3150800A3803AFB0025DFF8E06600AF18E00B232A4603
S3150800A390142100A8F8F732FB787A397A01EB002005
S3150800A3A0316821F8150080B200281CBF4FF6FF71EE
S3150800A3B0884203D0B97A284600F006F86D1C207842
S3150800A3C0EDB28542E2D3F7BDDFF8A0261268090789
S3150800A3D04CBF41F2020141F2060122F81010002199
S3150800A3E0DFF88C2612688154704770B5DFF87C4612
S3150800A3F024680022002302E024F813505B1CDFF8CF
S3150800A40064562D78AB4209DA34F813506E07F5D541
S3150800A4100122002914BF05438543EDE7104670BDA8
S3150800A420002100E0491CDFF83C261278C9B29142A7
S3150800A43009D2DFF83826126832F811200240824223
S3150800A440F0D101207047002070472DE9FE430646EB
S3150800A4500C461546DFF81086DFF8089601E0E7B1E6
S3150800A460761C99F80000F6B286421BD2D8F800008E
S3150800A47030F8167000A9304600F076FA002CEED0B7
S3150800A480002F1CBF4FF6FF708742E9D0082200A9AB
S3150800A4902046FAF7B7FA0028E2D19DF80A00287094
S3150800A4A0304600E0FF20BDE8FE8380B500AAFFF72E
S3150800A4B0CCFF02BDFEB50D46044611461E460822CF
S3150800A4C000A8FAF755FA280A8DF809008DF80850F9
S3150800A4D08DF80A6031462046FFF776FF204609F0D8
S3150800A4E0F7FD00F05FF9274630F81710320641F4F9
S3150800A4F0804104D441F0080120F8171006E020F83E
S3150800A5001710DFF870050078FE2805DB00A920463D
S3150800A51000F0DBF930B9FEBD0B2300AA2146142052
S3150800A520F8F77DFADFF84005006820F81750002292
S3150800A530DFF844050068016B90F82C00381841F8DC
S3150800A54020200120FEBD2DE9F04784B082468846CA
S3150800A55016461D4600AA51460020FFF776FFFF283B
S3150800A5600746DFF804450CD09DF80010B14202BF3B
S3150800A570216831F81000804503D0384600F04EF9BE
S3150800A580FF274FF6FF79C84513D095B901A940466C
S3150800A59003F05BFE98B90022082101A800F0CEFA64
S3150800A5A068B9082201A95046FAF72CFA38B1C84604
S3150800A5B005E0FF2F03D0384600F030F9FF27B10732
S3150800A5C0404604D548452CD107F09AFE29E0FF2FCE
S3150800A5D020D1DFF88C54DFF8A4142A780978914240
S3150800A5E011D0484502D107F08BFE80460021002095
S3150800A5F0FFF75BFF0746FF2F05D033465246414615
S3150800A600FFF758FF08B948460BE02878401C287021
S3150800A61006F028FF38460C9900F09CF8206830F8B8
S3150800A620170004B0BDE8F087DFF840140968002079
S3150800A6304EF6FF7305E031F810201A4021F8102075
S3150800A640401CDFF8202412789042F4DB704780B56E
S3150800A65001460020FFF729FFFF281CBFBDE802407E
S3150800A66000F003B84FF6FF7002BDDFF80014096862
S3150800A67011F81010890705D5DFF8EC13096831F8C9
S3150800A680100070474FF6FF70704770B50D46DFF83B
S3150800A690EC130978884284B0144606D2DFF8CC1346
S3150800A6A0096811F81010890701D4932017E000A94A
S3150800A6B000F05AF99DF80A60082200A92846FAF718
S3150800A6C057F9B00748BF022007D4300748BF032010
S3150800A6D003D430064CBF042005202070002004B0A7
S3150800A6E070BD80B5FBF76EFEFF2803D000F00DF8AD
S3150800A6F0800E11E0002002BD80B5FBF763FEFF283F
S3150800A70001D0012002BD002002BDDFF860130968F0
S3150800A71031F810000006704700F0010002BDE0B5F0
S3150800A72000A900F021F99DF80A000EBD10B584B005
S3150800A7300C46FBF747FEFF2809D000A900F014F9DC
S3150800A740082200A92046FAF713F9012000E00020A4
S3150800A75004B010BD70B5044611F0010584B0264654
S3150800A7600DD000AA01A9FFF790FF40B900F01AF82A
S3150800A77010F8160000F0040101A808F0FBFE2046B8
S3150800A78002F0D5F900953346232289A10320FCF768
S3150800A790C0FFFBF7E3FE29462046FDF750F8FBF716
S3150800A7A0E3FE7FBDB14800687047FEB5AE4E04466D
S3150800A7B03068254630F815000F46B8420FD000A974
S3150800A7C0204600F0D1F8380A8DF809008DF808708F
S3150800A7D000A9204600F0EEF8306820F81570F7BD9D
S3150800A7E038B50546A04800682C4630F81400A0B1D4
S3150800A7F09B480178491E017006F034FE0021284660
S3150800A800FFF7D3FF99490968002021F814000021B1
S3150800A810BDE834401120FBF7FABE31BD10B5044639
S3150800A8209648007884420CD28F48006830F81400A5
S3150800A83038B100212046FFF78DFF2046BDE81040BD
S3150800A840CEE710BD70B50024864D04E000212046F1
S3150800A850FFF7ABFF641C2878E4B28442F6D37E4C3B
S3150800A8607F4E2078FF2805D0FDF766FAFF20207076
S3150800A8700020708000203070002128784200BDE852
S3150800A88070407A480068FAF7B6B830B5774B794A17
S3150800A8901B68127833F810400021FE2AACBF02224A
S3150800A8A00822E4B214420DD0002407E033F814500D
S3150800A8B0EDB215421CBF0B3189B2641C8442F5DB2C
S3150800A8C0084630BD4FF6FF7030BD2DE9F04383B022
S3150800A8D081460C46FFF7D9FF5F4E644F604D8046B0
S3150800A8E03078FF2808D10B210020FDF7A8FA307030
S3150800A8F000216980FF2806E0698801F10B0292B2FF
S3150800A900FDF725FB002809D1386830F819104FF6ED
S3150800A910F772114020F81910002023E0698808E032
S3150800A9200B220092A1F10B07BBB20246FDF75AFCB7
S3150800A930B9B230788845F3DB8DF80400414601A8A2
S3150800A940FDF77AFB0246012000900B239DF80410C0
S3150800A9502046FDF7ACFA68880B3068806878401C9A
S3150800A96068700120BDE8FE8330B583B004460D4605
S3150800A970FFF78BFF4FF6FF71884206D10B2322465D
S3150800A98014212846F8F73AF837BD334909788DF87F
S3150800A9900410014601A8FDF74FFB0246002000906F
S3150800A9A00B239DF804102846FDF781FA37BD0000F1
S3150800A9B0424242007CB505460E46FFF766FF014651
S3150800A9C04FF6FF70814206D10B23324629461420E2
S3150800A9D0F8F725F873BD204C707A337A227813EB92
S3150800A9E000202AD1FFF7DEFE30F815304FF6F7764D
S3150800A9F0334020F815301A4D6878012806D11046DC
S3150800AA00FDF79AF9FF202070002611E06888A0F16A
S3150800AA100B06701A80B230B1009001F10B039BB29D
S3150800AA201046FDF7DFFB69882078B2B2FDF78FFA8A
S3150800AA3068786E80401E687073BD8DF8042001A882
S3150800AA40FDF7FAFA0121009102469DF804100B233E
S3150800AA503046FDF72CFA73BD412800205427002004
S3150800AA60982F002028270020242700202C270020A4
S3150800AA7030270020AA2F0020F42B00208B27002047
S3150800AA80008F8E8C8000000046480068408870471A
S3150800AA9044480068001D704742480068C07E7047F9
S3150800AAA070B5404C404D2168404E4873022819D174
S3150800AAB000F07EF878B92068007B001F022824BFC2
S3150800AAC03046FDF741FC2068007BC01E032824BFE2
S3150800AAD02846FDF739FC20684069C00054BF902419
S3150800AAE0BC240AE000F064F810B100F091F803E025
S3150800AAF030702870FDF771FD9124204607F0FFF9A4
S3150800AB0050B92346132226A10320FCF702FE20464D
S3150800AB10BDE87040FBF779BD70BD22480068407BF0
S3150800AB2000F00F0070471F480068407B00F00F00D8
S3150800AB30022801D1012070470020704710B5002374
S3150800AB4000E05B1CDBB28B4205D210F8014B944245
S3150800AB50F7D0002010BD012010BD80B50821F8F7F8
S3150800AB6099F908B1002002BDA52002BD0D4800686C
S3150800AB70407B01281CBF3128332801D101207047AA
S3150800AB800020704710B50446F7F765FD10B905496A
S3150800AB900968CC7310BD03480068807B70470000C5
S3150800ABA042420000F42B0020F42E00209C2D0020A9
S3150800ABB080B503F08BFB032801D1012002BD0020DC
S3150800ABC002BD80B5FFF7F4FF38B1BDE804404FF485
S3150800ABD090710FF20800F9F7CDBD01BD656D62658C
S3150800ABE0722D737461636B2D636F6D6D6F6E2E635B
S3150800ABF0000000000020704700207047B52070470D
S3150800AC007047704700207047704770477047704715
S3150800AC1070470020704700207047012070470020C9
S3150800AC20704780B56C210FF22000F9F7A3FDFF20CD
S3150800AC3002BD80B572210FF21000F9F79BFD0020C6
S3150800AC4002BD00207047000072663463652D737478
S3150800AC5061636B2D73747562732E630038B5FBF7E9
S3150800AC609FFF0022002100A809F059FA08B10098B0
S3150800AC7032BD03F027F90446012300220F210120E3
S3150800AC80FCF70AFC40F2A17509F0B5FA25FA00F0BE
S3150800AC90C0070AD5DFF82053287809F0C3FA2878C0
S3150800ACA009F04AFB287809F04AFC24B10FF27830FB
S3150800ACB09821F9F75FFD09F04BFF00F039FC09F020
S3150800ACC071FF09F02BFA0AF036FC022102200AF07D
S3150800ACD0F7FE00F084FEDFF8E41241F20200088075
S3150800ACE05220DFF8DC120880DFF8D81208804FF40B
S3150800ACF00040F7F7FAFAFCF7B5FA03F0DAF90AF0C2
S3150800AD0040FCFCF7F3FB0AF048FF09F038FFF2E7CE
S3150800AD1003F0CCBAFFF701BF04F09FBD38B50BF0BE
S3150800AD203AF804460025284608F0FBFAA04201D165
S3150800AD30284632BD6D1CEDB2022DF4DBFF2032BD74
S3150800AD4030B585B000F0AEF803F0B0FA38B16088D7
S3150800AD50B0F5006F03D1601D09F0E6F913E020464F
S3150800AD6009F0FCF9050015D1002500A928460BF0C5
S3150800AD7000F9002804BF9DF80000002805D12146E7
S3150800AD8028460BF001F9054604E06D1CEDB2022DCC
S3150800AD90EBDBB42509F0F1FE284605B030BD38B521
S3150800ADA000F080F8204609F0D7F9050003D12046BF
S3150800ADB00BF036F9054609F0E0FE284632BD38B5EF
S3150800ADC0FF2504468DF8005000A909F09FF910B137
S3150800ADD09DF8000032BDFBF7B9FB7B4901EB041176
S3150800ADE0097B814207D1204609F013FF18B1204696
S3150800ADF00AF0A5F90546284632BD70B504460D4643
S3150800AE0009F086F9F8B920460AF097F90646FF2EA2
S3150800AE1007D0FBF79BFB6C4901EB06110A7B8242C4
S3150800AE2001D0002070BD4888288088886880887985
S3150800AE302871012120460AF086F96871002120460A
S3150800AE400AF081F9A871012070BD2DE9F041054687
S3150800AE500E4690460AF071F90746FF2F4FF6FF7423
S3150800AE6013D0FBF773FB584901EB0711097B8142A5
S3150800AE700BD10EB9012202E0012E06D1002241466D
S3150800AE8028460AF084F900B104882046BDE8F08116
S3150800AE9010B500F007F8204600F050FDBDE8104058
S3150800AEA009F06BBE044609F05DBE38B50C46474945
S3150800AEB00968455CAA4201D2002032BD00210091F2
S3150800AEC02B46014600222046FCF7D5FF284632BD10
S3150800AED070B598B004460D46164609F043FE522250
S3150800AEE003A93046FFF7E1FF060011D00DF109006E
S3150800AEF00AF04AFF02A80AF049FF03A801909DF943
S3150800AF0008309DF8092000962946204600F07BFC6B
S3150800AF1009F033FE18B070BDF0B599B004460D4679
S3150800AF2016461F4609F01EFE522203A93846FFF7A9
S3150800AF30BCFF48B103A901910090029732461E9BB7
S3150800AF402946204600F0A0FC09F017FE19B0F0BD0E
S3150800AF50F8B504460D46069816461946FCF76FFFDF
S3150800AF600746FF2F01D11820F2BD07980770204623
S3150800AF70022804D9C01E08D0401E0DD014E03B4656
S3150800AF803246294604F0F2F90CE03B460C220C2125
S3150800AF90304604F06FFA05E03B460C223146284657
S3150800AFA004F043FA044600E002243846FCF7C4FEDF
S3150800AFB02046F2BD06F0D1BD08270020382800201B
S3150800AFC03C2800203E2800200829002010270020C1
S3150800AFD010B582B0FFF766FF0DF101000AF0D4FE46
S3150800AFE000A80AF0D3FE9DF900209DF8011020461E
S3150800AFF00BF01BFA09F0C1FD13BD38B504460D4622
S3150800B00009F0B0FD294620460BF0D9F908E038B515
S3150800B01004460D4609F0A6FD294620460BF058FAC7
S3150800B020BDE8314009F0A9BD61662D6D61696E2DD7
S3150800B030736F632E6300000010B50446062C02D118
S3150800B040F9F75CF830B9E008032803DA00F012F8DB
S3150800B050194A505010BD10B50446062C02D1F9F70E
S3150800B0604DF830B9E008032803DA00F003F8134A6C
S3150800B070505010BD012004F007018840E1088902FC
S3150800B080704710B50446062C02D1F9F737F890B97F
S3150800B090FAF7C4FEE108032909DA094A02EB812115
S3150800B0A001230A6804F00704A3405A400A60BDE871
S3150800B0B01040FAF7B9BE10BD14B0004010B00040F9
S3150800B0C00CB0004000281CBF0620FFF7B5BF0620BD
S3150800B0D0C1E7000038B5002814BF04011024FAF7A8
S3150800B0E09DFE0546F7F7D3FE20180F490F4C82B28E
S3150800B0F04A60000C0860042020602846FAF794FE8F
S3150800B100206C40F00400206431BD80B5FAF786FE55
S3150800B11006490A6C22F004020A6404220A60BDE8A1
S3150800B1200240FAF781BE00004820004008A000400F
S3150800B130F8B504460025E01CFDF718FC0646601D18
S3150800B140FDF714FC4FF6FF77BE42044608BF0125FB
S3150800B15004D003F0B3F8864208BF0225BC4208BFF4
S3150800B16045F0040505D003F0A1F8844208BF45F070
S3150800B17008052846F2BDF8B50546FDF7F7FB06466D
S3150800B1804FF6CF7000EA06072846FFF7D1FF0024DE
S3150800B19048F641018E4208BF052809D1E81DFDF78A
S3150800B1A0E5FBAC490988884214BF0224062412E04C
S3150800B1B04CF6010087421ABF4CF60140874201242B
S3150800B1C009D0FBF7CBF92846FCF745FB0546FBF704
S3150800B1D0CBF905B10824A04800782040F2BD2DE936
S3150800B1E0F04F8346884683B0002500264046FDF783
S3150800B1F0BDFB9A4C82462068002804BF6068002878
S3150800B2002F464FF003095CD04FF440611AEA010F4C
S3150800B2100BD008F10300FDF7A9FB4FF6FF71884232
S3150800B2200CBF022701274FF0050947F008000190D7
S3150800B2305FEA4A6017D44FF440411AEA010F16D064
S3150800B2400AF44060B0F5406F0CBF0820022048445D
S3150800B250C0B24044FDF78AFB009003F02FF800992E
S3150800B26089B2814201D1019F01E047F004070AF43F
S3150800B2704040B0F5004F04BF47F0800087B20AF49B
S3150800B2804060B0F5006F0BD109EB0800FDF76EFBC7
S3150800B290804603F00BF880450AD147F0100707E00F
S3150800B2A0B0F5406F04D147F0200701E0002615B934
S3150800B2B06068014600E0216839B96D1CEDB2022DBF
S3150800B2C0F4DBFF20BDE8FE8F761CF6B231F81620B7
S3150800B2D01304F2D4BBB29342F6D1BBF1000F05D0EA
S3150800B2E081420CBF802010208BF800003046E9E729
S3150800B2F0000000002DE9F04781468846FDF736FB39
S3150800B300054605F0070605F4406A2F464846FFF746
S3150800B3100FFF04464FF6F770054051480078082895
S3150800B3200DD8DFE800F087058705050A0C0C07002D
S3150800B330002E00E0012E7DD101E0032E7AD13907D7
S3150800B34021D5002E76D10A2801D1A00772D5B5F5E8
S3150800B350004F18BFB5F5404F6CD10026E80648BF28
S3150800B36046F08006A80648BF46F4805606F00C004C
S3150800B370042861D109F10700FDF7F8FA0146FF2212
S3150800B38046F004005BE0002E364FDCD0022E03D0D8
S3150800B39004D3032E2FD04DE03B2058E04FF6CF7054
S3150800B3A000EA05064846FFF7E6FE38B94946FFF7BC
S3150800B3B016FFFF2802D1FFF7FBFB08B10826CDE7E9
S3150800B3C048F64100864235D10A2C18BF062C31D1E1
S3150800B3D060070ED5FFF7A7FB20B13868007B001F72
S3150800B3E0022827D320480078022823D040F60406EE
S3150800B3F0B4E70426B2E714F0030005D102F05EFFB5
S3150800B4004FF6FF71884215D10C26BAF1000F0DD000
S3150800B410BAF5006FA2D0BAF5406F0BD108221349CE
S3150800B42009F10500F9F7EEFA20B997E73868007BC5
S3150800B430012893D03A200AE0FF2200213046FCF783
S3150800B440CDFBFF280EBF182088F800000020BDE8B5
S3150800B450F0870000B4280020E92F0020902F002054
S3150800B46074280020F42B0020202E0020082C002011
S3150800B470174838B50446FAF7D1FC054615480021A1
S3150800B4800160082154F8042B8260491E54F8042BE5
S3150800B490C260F7D101210160FBF73EFF284613E0A1
S3150800B4A00C4900200860FBF737BF38B545096D0120
S3150800B4B009480A4C854238BF094CFAF7AFFC0449DB
S3150800B4C045F014024C620A62BDE83240FAF7ACBC99
S3150800B4D0B827002094ED00E09800002009000B1022
S3150800B4E008000B1070B12DE9F05FEFF308800D49E5
S3150800B4F00860EFF309800C490860EFF314800B49E4
S3150800B500086030BF0748006880F308880648006866
S3150800B51080F309880548006880F31488BDE8F05F61
S3150800B52070470000842D0020882D00208C2D0020D7
S3150800B5300020DFF8541501EBC003FF221A71002220
S3150800B54041F83020401C0328F5DB70472DE9F04F01
S3150800B55081468FB01C46FF20032C8B4617468DF874
S3150800B560090005DB189D2A78520707D5052C03DA4A
S3150800B57001200FB0BDE8F08F297900E0A9788DF891
S3150800B5800B100021DFF800A50AEBC1021279FF2A89
S3150800B5900BD0491CC9B20329F6DB03901A9E36B1B3
S3150800B5A00398FF2803D1B420E3E70391F6E70020C8
S3150800B5B08DF80A0009AA38790DF10A0108F0AAFDE2
S3150800B5C058B1BDF8300038809DF80A0009F0C7FA6E
S3150800B5D08DF8080000283CD114E0387909F0ADFD53
S3150800B5E08046B8F1FF0F08BFA320C2D0387909F00A
S3150800B5F0BBFA8DF8080060BBDFF8900400EB081072
S3150800B60040883880B9F1000F0CBF58464FF6FF70D6
S3150800B610019000217888DDF86480009042463B88D6
S3150800B6209DF80B000AF054F918B1F88840F020008C
S3150800B630F880049605970695ADF81CB0ADF81E403F
S3150800B6408DF820908DF8218002A904A808F079FDCC
S3150800B65010B19DF808008CE73A46594648460AF064
S3150800B66042F9A04219D30DF1090001900095E3B201
S3150800B6703A4659464846FFF76BFC8DF8080086B1EE
S3150800B68078B99DF80900FF2819D003990AEBC1017A
S3150800B690087103984AF8306011E074208DF80800A4
S3150800B6A010E0BA2808D1B879C0060BD500208DF865
S3150800B6B0080001200AF05DFF9DF8080010B9112066
S3150800B6C008F00CFD09F059FAC3E710B584B0069CDA
S3150800B6D00093029413460A46012401460194042065
S3150800B6E0FFF734FF04B010BDF0B50446022C85B050
S3150800B6F00D4616461F460AD100A9E8B20AF039FCDB
S3150800B70088B99DF8010030719DF8040070713B46B8
S3150800B7100B98029032460020019029460A9800901C
S3150800B7202046FFF713FF05B0F0BD1CB500240194B1
S3150800B730049C0094FFF7D8FF16BD2DE9F04188B0A8
S3150800B7400446884616461F46002503A928460AF0D9
S3150800B75010FCF8B99DF80C10012902BF9DF80D10D0
S3150800B7602279914202BFBDF80E10628891420DD12E
S3150800B7709DF81000607102970020019000964346DC
S3150800B780224629460220FFF7E1FE18B9691CCDB208
S3150800B790022DDADB08B0BDE8F08130B583B0044687
S3150800B7A00D4605F0CBF870B96DB101A8002101600E
S3150800B7B0032000908DF8054001AB002236214FF694
S3150800B7C0FC700AF0DBFE3EBD70B50D4604462888BF
S3150800B7D0164608B1002070BD204608F0B4FC0028C3
S3150800B7E002BF688848F22101884203D17178204651
S3150800B7F008F09CFC6888B0F5004FC4BF082008F024
S3150800B800AFFC012070BD2DE9F04788B081460E4691
S3150800B810924698460AF0BFFA8DF8089003960546B0
S3150800B820119F0497ADF816508DF818A08DF8198059
S3150800B830109CADF81440FFF76FFA8DF81A00FFF761
S3150800B8406DFA8DF81B00FAF77FFE8DF81C0002A82A
S3150800B85008F075FCA8B923463A46314628460AF048
S3150800B860D0FF70B923463A4631462846FFF7ACFF63
S3150800B87038B90190009523463A464946304609F0BC
S3150800B88015FF08B0BDE8F0872DE9FC4780468A46D3
S3150800B89017460C987C491D46002201EBC2031B790A
S3150800B8A0834210D0521CD2B2032AF6DB4FF00009AD
S3150800B8B0002201EBC2031C79844207D0521CD2B283
S3150800B8C0032AF6DB07E051F83290F1E7FF201871FA
S3150800B8D0002041F83200002D04BF3888002806D120
S3150800B8E07888B0F5004FBCBF082008F0F7FB0120A8
S3150800B8F008F036FC0A9C0B9E36B13078C00703D593
S3150800B90000F015F809F0BFF9B9F1000F02D000F000
S3150800B9100EF8C847019600942B4600F00BF80BF07A
S3150800B92034F800F004F808F0FDFBBDE8F38701954C
S3150800B930009623463A4651464046704770B5044637
S3150800B940903882B00CD0401E3DD0C01E3BD0801E21
S3150800B95039D0801E37D01338042834D9113834D159
S3150800B9600020ADF800000BF04EF80646FFF7D0F9B8
S3150800B970451EAD41ED0F2EB1002D14BFB08830899C
S3150800B980ADF800000DF1020004F0C8F8BDF8020099
S3150800B990800605D5BDF8000040F02000ADF800008F
S3150800B9A02A4600A9002008F0DFFBBDF8000004F0D5
S3150800B9B09CF8BC2C02D108F0CCFB01E00BF0CCF8CB
S3150800B9C008F0C8FB01E009F0F1FD20460BF00DF880
S3150800B9D020460BF063F920460BF0C5F973BD1CB57C
S3150800B9E02B4C002009F0BBF8206890B1007801289C
S3150800B9F008BF0BF0E7F900A8FFF7DCFA80B9206862
S3150800BA009DF800100078814203D0012808BF02295A
S3150800BA1006D10FF284000068019001A805F0A4F889
S3150800BA2009F0ABF813BD10B5044609F09BF820469B
S3150800BA300BF021F9BDE8104009F09FB810B500F0E9
S3150800BA401DF849B10978012906D10BF0CFF920462E
S3150800BA50BDE8104004F019BF10BD38B500F00EF867
S3150800BA6059B10D78012D08BF02250BF015FA2146AC
S3150800BA702846BDE8344004F084BF32BD044909684D
S3150800BA800446702070470000F0280020082900208E
S3150800BA90382A00200BF076B90000000070B513466E
S3150800BAA0101802E0A4192C705B1EDBB24BB101F032
S3150800BAB00F060909451E0A2E2846B4BF3024372426
S3150800BAC0F0E7101870BD2DE9F24F88B0804601A83E
S3150800BAD01446994601AD4FF0000B00278DF800007B
S3150800BAE010E00127641E05A885420AD39DF80000C8
S3150800BAF02E1A00F0B4F8002839D1B3445FFA8BFB4C
S3150800BB0001AD641C9DF800002E1A207800280BD081
S3150800BB10252803D017B905F8010BE4E7002F14BF51
S3150800BB200027641C2078010000F08E80B0F1250102
S3150800BB3013D00B39092967D928395CD00B390ED0AF
S3150800BB40491E2CD008392AD0091F0BD0C91E09D086
S3150800BB50891E24D0C91E4ED0C5E72520DBE759F833
S3150800BB60040BD8E759F804AB00F079F8002872D12D
S3150800BB70B3445FFA8BFB01AD002600E0761CF6B2F3
S3150800BB8016F80A000028F9D19DF8200032465146D9
S3150800BB90C04700285FD1B3445FFA8BFBA3E759F887
S3150800BBA0040B0021002803D52D21297040420121CC
S3150800BBB0002300224FF0000C02E0801B0CF1010C60
S3150800BBC00FF2C80656F82260B042F6D243EA0C06CF
S3150800BBD0F6B2002E05D0C9B20CF130034B55491CFC
S3150800BBE00123521C092AE5DBC9B230304855481CE6
S3150800BBF0C0B2451977E759F8041B0222C9B228468C
S3150800BC00FFF74CFF05466EE760780127782818BFCE
S3150800BC105828F8D1641C002714F8010C322804D1DE
S3150800BC2059F8041B042289B2E9E734287FF459AF8E
S3150800BC3059F804AB04224FEA1A412846FFF72EFFAB
S3150800BC4004221FFA8AF1DBE700F009F818B906EBB7
S3150800BC500B00C0B200E0002009B0BDE8F08F9DF8E7
S3150800BC602000F2B201A9404701A103E0000000004C
S3150800BC700D0A00000CB4002002B070470CB480B561
S3150800BC80FFF7F2FF02BC00205DF80CFB00CA9A3BE6
S3150800BC9000E1F5058096980040420F00A086010055
S3150800BCA010270000E8030000640000000A000000F6
S3150800BCB000B500BF130096469446103928BFA0E881
S3150800BCC00C50FAD85FEA417C28BF0CC048BF40F840
S3150800BCD0042BC90728BF20F8022B48BF00F8012B00
S3150800BCE000BD000070B5044601214FF48070FEF7D0
S3150800BCF07CFBC8B1984E994D3078FF2807D0287834
S3150800BD00C00748BF00F003F93078FCF715F834701F
S3150800BD10002028702046FCF701F891480188281D64
S3150800BD20BDE87040FCF71BBB70BD8C490A7842F031
S3150800BD30010208B142F002020A70704738B5864D12
S3150800BD40864C2878FF280ED000214FF48070FEF725
S3150800BD504CFB2078C00748BF00F0D9F82878FBF7D5
S3150800BD60EBFFFF2028700020207131BDF8B50025B3
S3150800BD70784E7C4F00E06D1C3878EDB2854217D2BC
S3150800BD8030682C4630F814100805F4D5284600F01B
S3150800BD9058F8FF28EFD0316831F814204FF2FF73B6
S3150800BDA01A4021F8142000216F4A1268A154F2BDE6
S3150800BDB06E490020088001F08AF80446FF2C18BF57
S3150800BDC0FBF7ACFF2046F2BDF8B50446674806887F
S3150800BDD00D460021018096B32046FBF7A2FEB0F57A
S3150800BDE0006F2CD12046FBF7C0FE0746FAF7EAFAA1
S3150800BDF0FF2824D035B15749096831F81020324355
S3150800BE0021F81020402E14D0B6F5807F17D152485D
S3150800BE100078844211D14FF6FF718F420DD0FBF79F
S3150800BE2052FE4FF48270FEF7FBFA30B9FFF786FF31
S3150800BE3003E015B9214608F04DF90120F2BD0020AE
S3150800BE40F2BD2DE9F04381464948006883B04C4667
S3150800BE5030F814800F46FF25FAF74DFB4549097857
S3150800BE60884251D2FAF77FFBB8050FD478051CD55E
S3150800BE7006F046FA0246002001900090012341464A
S3150800BE8004F094FF05464FF480602FE04FF6FF72EA
S3150800BE9041460E2006F0A2FB0546FF2D32D041464C
S3150800BEA0FBF711FE4FF4007020E02B4E3078FF2888
S3150800BEB00BD0F90509D54146FBF705FE3078FBF7A7
S3150800BEC02DFF35784FF4807010E0780606D50021EE
S3150800BED0484608F001F90546402007E0380611D51E
S3150800BEE00121484608F0F8F805468020FF2D09D0BC
S3150800BEF01E4908801749096831F8142022EA00000B
S3150800BF0021F81400FAF730FB2846BDE8FE837FB512
S3150800BF10114C2078FBF746FF05462078FBF7A1FD74
S3150800BF20801CFCF723FD0646207801A902F017FCC1
S3150800BF30FAF714FB0948007880074CBF00206620F2
S3150800BF4000902B4601AA31460420FEF7E5FFFAF7D2
S3150800BF500BFB7FBD2C270020B2280020702F002065
S3150800BF608E27002028270020302700204E29002071
S3150800BF70242700205427002000B587B041F400612B
S3150800BF808DF81420120A8DF815200C9A04920B9A33
S3150800BF9003920A9A0292099A0192089A009205AAAD
S3150800BFA000F002F807B000BD2DE9F14F82B00C464B
S3150800BFB004F44040009015469DF808000F9AFF28A3
S3150800BFC007BF0126082000260C20984604F4406A7C
S3150800BFD00021FBF703FEBAF5006F81460CBF022766
S3150800BFE00827B9F1FF0F59D0FBF732FE83464846BA
S3150800BFF0FBF737FD0EB944F0030400F8014B210A9C
S3150800C00000F8011B461CBAF1000F05D006F8018B93
S3150800C0104FEA182006F8010B3A4629463046F8F743
S3150800C020A7FC0098BD19F8B1600605D40C9805F868
S3150800C030010B000A05F8010B0098B0F5004F03D074
S3150800C040B0F5404F0AD00FE002F030F905F8010BC1
S3150800C05002F02CF9000A05F8010B05E00822A049B0
S3150800C0602846F8F785FC0835A5EB0B01C9B2484602
S3150800C070FBF7F4FD9DF80800FF2825D0012202A948
S3150800C0804846FBF762FF30B90D9971B10E9A4846DA
S3150800C090FBF75BFF48B14846FBF74EFE9DF80800E4
S3150800C0A004280CBFFF2018201AE09DF80800042871
S3150800C0B008BF484614D0022806D14846F9F7C2FEFA
S3150800C0C0441EA441E40F04E010994846FCF742FADE
S3150800C0D004464846FBF730FE002C0CBF39200020EA
S3150800C0E0BDE8FE8F00B585B000F018F80093002073
S3150800C0F0029001901A464FF4404106200AE000B526
S3150800C10085B000F00BF81A460020029001900090C6
S3150800C11000210720FFF730FF05B000BD022004907C
S3150800C1204FF6FF73FF200390704710B586B002F0F4
S3150800C130C5F8044602F0BAF84FF6FE718842B4BF55
S3150800C14048F260014CF26001012004902346FF206A
S3150800C150039000200290019000906248006842888F
S3150800C1600420FFF709FF06B010BD30B587B00446B6
S3150800C1700D4602F0A3F88DF8140002F09FF8000AA5
S3150800C1808DF8150002F092F88DF8160002F08EF878
S3150800C190000A8DF81700FEF7FEFC8DF818008DF8DA
S3150800C1A01950280A8DF81A0002F088F8012104911E
S3150800C1B00090FF2103914FF6FF7307210291224653
S3150800C1C005A9019108204FF44C41FFF7EDFE07B091
S3150800C1D030BD34B50D4686B00446002105F0F1FCA5
S3150800C1E0012004902B46FF2003902246012002904E
S3150800C1F04CF6200106A801904FF6FF70009001202A
S3150800C200FFF7BAFE07B030BD10B586B00446080A77
S3150800C2108DF814108DF815008DF8162002F04EF8DA
S3150800C220002104910346FF2103912246032102912E
S3150800C230022005A90191002100914CF66041FFF703
S3150800C240B3FE06B010BD70B584B0FF2200210020F1
S3150800C250FBF7C4FC0446FF2C40F6FF753DD0214889
S3150800C2600068007B01282048007808BF44F6FF755F
S3150800C27008B145F4004500208DF8000000AE802086
S3150800C280707002F01BF88DF8030002F017F8000A28
S3150800C2908DF8040002F00AF88DF8050002F006F899
S3150800C2A0000A8DF806000B22FF208DF8070000A96A
S3150800C2B0280A307200208DF809008DF80A002046F9
S3150800C2C0FBF743FE204605F0D2FA18B101212046B5
S3150800C2D0FCF740F92046FBF72FFD7FBD0000000064
S3150800C2E0082C0020F42B0020E42F00202DE9FC4226
S3150800C2F004460D469146CDF804900095234624221F
S3150800C3000FF2F0310320FBF704FADFF8D873387818
S3150800C3100A2818BF3D203DD1B9F10F0FA8BF332019
S3150800C32038DA092CA8BF342034DADFF8BC032840F1
S3150800C330A84218BF35202DD135B9DFF8B0130968E2
S3150800C340897B012000FA01F5002C18BF022CDFF8C2
S3150800C350A0630CD120210020FBF771FD7870FF281F
S3150800C36008BF182016D0FBF773FCF06130623C70EA
S3150800C37086F80190B561002030700A20FAF7E9F8CE
S3150800C38001210FF21500FCF76FF938780A280CBF5F
S3150800C39001200020BDE8F68238B50A20FAF7DAF857
S3150800C3A00446FAF7E0F82046FAF7FAF80020FAF712
S3150800C3B0CFF8CF4CFEF7EFFBE07001F07FFF20824D
S3150800C3C0F7F79EF920714FF6FF75C64C20780628B8
S3150800C3D008D10120F7F797F9072020702846FDF7BE
S3150800C3E0A5FE0CE0082805D0284601F06BFF284674
S3150800C3F0F7F702FA0020F7F786F900F059F8BDE8D2
S3150800C4003140FAF7B1B838B5F9F708FDB54D044625
S3150800C41028780A2818BF092804D12046BDE83240E2
S3150800C420F9F702BD072808BFFDF744FE2878B0498A
S3150800C4300870092028702046F9F7F6FCBDE8344054
S3150800C44001210FF20900FCF70FB9000070B5A54CE1
S3150800C4502078092802D0E82100F0A3F80A20FAF784
S3150800C46079F8FAF780F8A24D288A01F02BFF9F4940
S3150800C470E878096888732879F7F745F90120FAF703
S3150800C48067F8FAF726F866780020287200220A204C
S3150800C49020703146FF206070287805F015F9FF2EC8
S3150800C4A01CBF3046FBF748FCBDE87040FAF75CB89D
S3150800C4B0F8B58F4C002020720A20FAF74BF8FAF7E5
S3150800C4C052F8884D28780A2803D14FF48A7100F06B
S3150800C4D068F82878E0B917E0401CE061282210F9CE
S3150800C4E0016DE069401CE0617DA110F8017D0096B0
S3150800C4F03B460320FBF70DF9FAF730F83146384684
S3150800C500FEF785FDFAF730F8E069216A8842E3D339
S3150800C51020781B281FDA05F0EBFC50B12078A169BA
S3150800C520C140C90705D4401C2070C0B21B28F5DBE2
S3150800C53011E0F6F789F801462078884202D0F6F726
S3150800C5407BF840B9207805F0D0FC20700020A07058
S3150800C55000F064F808B32878052818BF012803D026
S3150800C560032818BF08280DD10B26A069F040C0077C
S3150800C57004D528783622314605F0A6F8761C1B2EF7
S3150800C580F3DB08E0022806D1206AE169411A6878D7
S3150800C590C9B2FBF712FDFFF736FFBDE8F140F9F720
S3150800C5A0E3BF0FF25810F8F7E5B838B54D480178EB
S3150800C5B0092904BFBDE83140FDF79FBD4C4C6369AE
S3150800C5C0002918BF02291ED19BB9226A6179521C1B
S3150800C5D0226202F8011D007828B9256A681C2062C3
S3150800C5E0F6F732F8287004F10800BDE83240FBF788
S3150800C5F0ABBE0825F7F799F894F905108142B8BF3C
S3150800C6000146617103E0002BEDD04FF470752846A2
S3150800C610FDF78CFD6069401E606131BD80B5344808
S3150800C6204278012191402F4A1278491C092A416112
S3150800C63020D8DFE802F01109110917051F1F0D1C84
S3150800C640BDE80140FFF74EBDBDE80140FFF757BD05
S3150800C650BDE8014005F047BC6FF07F0242717822C1
S3150800C660514341610020FDF761FD002002BDFDF741
S3150800C67044FD03E040F2A311FFF793FF012002BD3A
S3150800C68010B5184A1A4C1278052A11D1062816D15F
S3150800C69020206061A9B9F5F7D7FF0122A16902FA3E
S3150800C6A000F021EA0000A0610020FDF73FFD15E03B
S3150800C6B0012A14BF032A0728ECD0082AEAD000204A
S3150800C6C010BDA078401CA070C0B2032802DAFFF79C
S3150800C6D0A5FF18B104F10800FBF736FE012010BDCE
S3150800C6E0424242007428002000F8FF07F42B00207D
S3150800C6F0282C002042424442000000007363616E09
S3150800C7002E630000027902F0FC02114301F03F019A
S3150800C7100171704738B5054600F027F90446FF2C25
S3150800C72002D1342100F075F84FF6FF7028800321F6
S3150800C7302846FFF7E7FFDFF87804DFF87834007853
S3150800C7401B68C11DC01DC01000FB0430BDE8384081
S3150800C7500904CA0C0021F8F74EB970B5DFF8580479
S3150800C760DFF858640468002504E02046FFF7D2FF86
S3150800C770A41D6D1C3078EDB28542F6D3DFF840046F
S3150800C7800068002104E04FF6FF7220F8082B491CC8
S3150800C790DFF830241278C9B29142F4D3DFF82814AE
S3150800C7A01420487070BDF8B50446FF2C30D0DFF869
S3150800C7B00C040078844202D36A2100F02AF8DFF8D4
S3150800C7C0F8030068062101FB04004FF6FF72018892
S3150800C7D091421DD0037903F00303012B18D1DFF82A
S3150800C7E0E0331B68002501E008336D1CDFF8D463CD
S3150800C7F03678EDB2B54208D21E889642F4D0DF7973
S3150800C800A74205D08E42EFD1F1BDBDE8F24081E7DF
S3150800C810F1BD0FF2B830F7F7ADBF10B5DFF89823C2
S3150800C82012680021032401E0491C921DDFF88C33AD
S3150800C8301B78C9B2994207D25388834204BF137939
S3150800C8402342F1D1012010BD002010BD2DE9F84387
S3150800C850FBF75BF8DFF8705306466888341AA4B20B
S3150800C860F9F790FEFF2818BF002C68D0F9F77BFE71
S3150800C8702878DFF848236E80201880B2C10900F0B6
S3150800C8807F0028700027DFF8300303684FF6FF762D
S3150800C89006E00CF03F0C4CEA801018719B1D7F1CBB
S3150800C8A01078FFB287420FD21888B042F6D093F8B4
S3150800C8B004C003201CEA000FF0D101EB9C1080B2E3
S3150800C8C00328E6DB0220E4E768788442B4BF001B4D
S3150800C8D0002068704FF00008B948BA4D076814E0A0
S3150800C8E0B9F1000F3E8009D100A9104600F029F8D9
S3150800C8F020B19DF800000021FFF755FFF879494659
S3150800C900FFF751FF083708F1010828785FFA88F819
S3150800C910804512D23888B042F4D0B879844202DA17
S3150800C920001BB871EEE701F0C1FC3A8882420CBFE1
S3150800C9304FF001094FF00009D2E7F9F715FEBDE8F7
S3150800C940F18310B59C4A1268002301E0921D5B1C16
S3150800C9509A4C2478DBB2A34205D214888442F5D1D6
S3150800C9600B70104610BD002010BD0021062300E004
S3150800C970491C924A1278C9B2914207D28E4A126865
S3150800C98003FB01229042F3D108467047FF20704707
S3150800C99080B500A9FFF7D5FF02BD80B5FFF7F8FF00
S3150800C9A000281CBFBDE80240FFF7B4BE01BDF0B5C4
S3150800C9B0834B1B680024062701E00833641C814D5D
S3150800C9C02D78E4B2AC4217D21D888542F5D15AB10A
S3150800C9D0012A08BF1D7905D0774DDE792D6807FB3A
S3150800C9E006552D88A942E8D14FF6FF71884204BF43
S3150800C9F0142098711846F0BD0020F0BD00220021D1
S3150800CA004FF6FF70D3E7F8B50D461446074621469C
S3150800CA10FFF797FF060022D100204FF6FF736649FD
S3150800CA200E68002105E088B932889A4212D0B61DF0
S3150800CA30491C624A1278C9B29142F4D3401CC0B26A
S3150800CA400228ECDB00263EB90020F2BD32799209B5
S3150800CA50022AECD12170F6E73780012007E0307909
S3150800CA600321084204D000F0FC0040F001003071B8
S3150800CA708DB145F0080030714E4B4D4800781B6863
S3150800CA802478C11D0904C01DCA0CC010002100FB72
S3150800CA900430F7F7B0FF307900F03F0030713046C8
S3150800CAA0F2BD10B50446FFF773FF28B9002200212E
S3150800CAB02046FFF77CFF00B1012010BD70B5044683
S3150800CAC00D461646FFF764FF306060B1007910F036
S3150800CAD00300287004D13068017901F03F01017123
S3150800CAE03068408870BD0021204600F0D6FC012839
S3150800CAF018BF022803D100202870204670BD0320E5
S3150800CB0028704FF6FF7070BD00B583B000AA01A962
S3150800CB10FFF7D4FF9DF8040038B9009828B10079CA
S3150800CB2010F0300002D001200EBD00200EBD70B5F9
S3150800CB3004461F480078844203D34FF4F571FFF783
S3150800CB4068FE1E4E002505E000222146284600F014
S3150800CB5006F86D1C3078EDB28542F5D370BD30B558
S3150800CB60134C144B24781B68E41DE41004FB0030B6
S3150800CB70CB0801F007011C5C012505FA01F1002A22
S3150800CB8014BF214324EA0101195430BD084B094A50
S3150800CB901B781268DB1DDB1003FB0020CA0801F0B6
S3150800CBA00701105CC84000F0010070470000000053
S3150800CBB0282700203C27002034270020382700207B
S3150800CBC04027002044270020A02F0020726F75748C
S3150800CBD0652D7461626C652E63000000F0B5524CD9
S3150800CBE0237903F00F05002600E0761CF6B2AE4264
S3150800CBF015D223789B1B0F330F2793FBF7F7C7EB49
S3150800CC000717DB1B062707FB034333F8087F874212
S3150800CC10EBD112B99F788F42E7D11846F0BD0020B4
S3150800CC20F0BD0022DAE780B501220021FFF7D6FF22
S3150800CC3000B1012002BD38B51446FFF7F2FF0546DC
S3150800CC40204600F058FA0DB9002032BDFF2805D05D
S3150800CC50A988012202FA00F00843A880012032BD03
S3150800CC6010B5FAF752FE30494A78CB88C880821840
S3150800CC70D21A92B2142392FBF3F3142000FB13206A
S3150800CC804870DCB288788442B4BF001B00208870E4
S3150800CC90042CBDBF8888A200D0400020888010BD23
S3150800CCA02148808800F00F010F2903D0C0F3031034
S3150800CCB0092801DB0120704700207047F8B50446B3
S3150800CCC00D461646FFF7ECFF08B10020F2BD1648E0
S3150800CCD00178491C0F2291FBF2F2C2EB0212891A63
S3150800CCE001700622017802FB010101F1080781881B
S3150800CCF001F58851113181803C80BD70304600F0C5
S3150800CD00A3FBB8800120F2BD10B5074CFAF7FDFD6C
S3150800CD10E0805A220020A080FF2104F10800F7F7DE
S3150800CD206AFE0420A07010BDFC2E00202DE9F84FE5
S3150800CD309C4D95F8009004468846FAF7ECFD834624
S3150800CD40287918B1E9680BEB0400441A6878DFF80B
S3150800CD5058A200260AEBC00703E0001B7880761C61
S3150800CD600837F6B24E4520DA7888B8F1000FA4B233
S3150800CD700BD08442F3D22878801BC20092B239467F
S3150800CD8007F10800F7F7F4FD12E08442E5D3002026
S3150800CD9078807878401E78706878401C68702878A3
S3150800CDA0401E2870FDF79EF8D9E7B8F1000F04D0A9
S3150800CDB02878401C28707C8001E00020287128789B
S3150800CDC008B9287111E0287908B9C5F80CB069784E
S3150800CDD0E8680AEBC101ABEB00004988091AB1F112
S3150800CDE0004F9CBF281DFBF7BAFA3846BDE8F28FFC
S3150800CDF0F8B50E4604466B4910464A7809788918EC
S3150800CE0008291D4604D11F20F9F701FC0020F2BDB0
S3150800CE100121FFF78BFF0746701C3C707870FAF704
S3150800CE206FFDB880BD712046FAF778FF0120F2BD84
S3150800CE3070B55C4C61782278064600255A4801E0B0
S3150800CE406D1CEDB28B189D421ADA10F83530B342D4
S3150800CE50F6D15118491B491E00EBC500CA0092B20B
S3150800CE6000F10801F7F784FD3046FAF765FF6078A8
S3150800CE70854202DA401E607070BD2078401E207020
S3150800CE8070BD4848417800784018401E8041C00F60
S3150800CE9070474448407800B10120704770B50024B7
S3150800CEA0414D404E04E015F83000FAF745FF641C82
S3150800CEB031787278E4B2204651188842F3DBBDE82F
S3150800CEC0704038480021017041700171704710B5F3
S3150800CED0354C01E000F026F83248407830B120465B
S3150800CEE0FCF7EEFD0028F5D0207810BDFF2010BD18
S3150800CEF010B52C4A52789AB12B4C227882420FD11F
S3150800CF0051B96078103060701046FCF71FFF18B9E9
S3150800CF10607800F0F000607000F004F8012010BDA1
S3150800CF20002010BD30B51F4C1F4D6078401E607044
S3150800CF3083B00822294600A8F7F71AFD60782178F9
S3150800CF400818C20092B205F108012846F7F710FD45
S3150800CF509DF801000F21084217D19DF80000FAF745
S3150800CF6094FDF9F700FB9DF801000009411E89416F
S3150800CF709DF80000C90F0022FCF770FC9DF8000020
S3150800CF80FAF7DAFEF9F7F0FA37BDBDF80200012123
S3150800CF90FFF7CCFE4188ADF80210082200A9F7F782
S3150800CFA0E7FC37BDC82D0020D82D00200021002021
S3150800CFB0BCE6000010B50022154B03EB820333F8DC
S3150800CFC0044F844204BF9B788B4201D1012010BDD7
S3150800CFD0521CD2B2042AEFDB002010BD0D4A12689B
S3150800CFE0127B121F022A00D2704710B5084A13781E
S3150800CFF002EB830424F8040FA170581C00F0030008
S3150800D000107010BD1022FF210348F7F7F4BC00008A
S3150800D0107C2F0020F42B0020802F00204FF6FF7174
S3150800D020884200D1704780B500F05DF9FF280AD024
S3150800D03000F040F8DFF8F82541881278A1EB1111C5
S3150800D04001EB0211418001BD80B5DFF8E8150968DA
S3150800D050002081F82D00F9F795FAFF2803D1DFF8AB
S3150800D060D8150320087001BD30B5DFF8C8351B6830
S3150800D0709C6A283300225B7901E0521C0E34D2B236
S3150800D0809A4208D225888542F7D30A7021888842B1
S3150800D09002D1012030BD0B70002030BD80B500F0F4
S3150800D0A011F8FF2802D14FF6FF7002BD00F002F812
S3150800D0B0008802BDDFF87C150968896A0E2202FB22
S3150800D0C000107047F8B500F064F9876A002501E09A
S3150800D0D06D1C0E37306890F82D00EDB2854208D2E7
S3150800D0E00822B91D2046F7F78DFC0028F0D12846FE
S3150800D0F0F2BDFF20F2BD80B500A9FFF7B5FF10B15C
S3150800D1009DF8000002BDFF2002BD80B500A9FFF70B
S3150800D110ABFF40B1DFF81C0500689DF80010806A77
S3150800D1200E2202FB010002BD2DE9F047DFF8045587
S3150800D1300FF210560446286882B090F82D1090F821
S3150800D1402C00814203D3AC213046F7F713FB00A924
S3150800D1502046FFF789FF18B1AF213046F7F70AFBDB
S3150800D16028689DF8002090F82D108E1AF6B20E2722
S3150800D170BEB39DF90020DFF8C4C40121914089B2ED
S3150800D1804FF6FF7253189BB24FF00F0EBCF8008093
S3150800D19090450CD0BCF8048003EA08096FEA030A34
S3150800D1A089440AEA080809EB4808ACF80480BEF185
S3150800D1B0010E0CF1060CE9D1806A9DF8001007FBF8
S3150800D1C0010107FB06F201F10E00F7F7D1FB28680B
S3150800D1D09DF80010006B00EB8101B200081DF7F7FF
S3150800D1E0C7FB28689DF80060806ADFF8441407FBCF
S3150800D1F0060008220480097809024180002101718D
S3150800D20010214171801D0021F7F7F5FB2868026B94
S3150800D210002142F8261090F82D10491C80F82D1090
S3150800D2200D200021F9F7F3F90CB903F0D2F99DF8AE
S3150800D2300000BDE8F687F8B5DFF8F843064620682B
S3150800D24090F82D00811B4D1E8642EDB204D3D221E3
S3150800D2500FF2F030F7F78EFA8DB3DFF8E0330120DE
S3150800D260B04080B24FF6FF710A1892B20F278018A5
S3150800D270B3F800C08C450BD0B3F804C002EA0C0E14
S3150800D2802CEA000C0EEB5C0CACF5004CA3F804C0C1
S3150800D2909B1D7F1EECD12068806A0E2101FB0600CB
S3150800D2A001FB05F200F10E01F7F762FB2068006B3F
S3150800D2B000EB8600AA00D2B2011DF7F759FB2068D9
S3150800D2C090F82D10491E80F82D100021BDE8F44075
S3150800D2D00E20F9F79CB910B50C46FFF7ACFF2046AF
S3150800D2E0BDE8104020E7F8B50446FFF704FFFF281D
S3150800D2F02FD1DFF84053286800F128014A790979C7
S3150800D3008A4222D3876A002601E0761C0E372868EF
S3150800D31090F82D00F6B2864210D23879C0F3021181
S3150800D320072904DA07221042EFD10329EDDB3888F2
S3150800D330FFF773FA0028E8D1FF2E01D1FF20F2BDCE
S3150800D34021463046BDE8F440C5E72046BDE8F24030
S3150800D350EAE6F2BD2DE9F04100F01BF8856A884639
S3150800D36000270EE00822A91D2046F7F74BFB30B927
S3150800D3702888404503D03846FFF75DFF7F1E7F1C8F
S3150800D3800E35306890F82D00FFB28742EAD3BDE823
S3150800D390F081A84E044630687047F8B507460C4633
S3150800D3A039462046FFF7D6FF3846FFF79CFF064664
S3150800D3B0FF2EA04D11D105F03CFCFF2808D1F9F746
S3150800D3C0D7FB296891F82C1090FBF1F201FB1200AB
S3150800D3D03946C0B2FFF77FFF06460E2000FB06F768
S3150800D3E02868806A381808222146801DF7F7C0FA8F
S3150800D3F02868806A0021381800F0C9F83046F2BD5E
S3150800D40010B58C490968896A0E2202FB00140721A7
S3150800D4102079084207D1204600F060F801462046E8
S3150800D420BDE8104077E010BD38B504460D462846DD
S3150800D430FFF761FEFF281CBF214600F052F8294677
S3150800D4402046BDE8344085E72DE9F843DFF8E48156
S3150800D4508146D8F80000846A002500260127D8F8F6
S3150800D460000090F82D0086420CD22088484509D045
S3150800D470204600F033F80428BEBF2079C0F3021016
S3150800D480072801DB3D43ADB2761C7F000E34F6B2A9
S3150800D490102EE4DB2846BDE8F28338B50C46FFF7C4
S3150800D4A034FE050001D1002032BD00F017F8014610
S3150800D4B034B9287910F0070002D0884238BF0846E8
S3150800D4C032BD38B504460020451CF5F7FBFD8442FD
S3150800D4D0E8B202D20628F7DB072032BD4088000AE8
S3150800D4E0EFE770B5FFF755FF90F82C0084420D461C
S3150800D4F005D340F295110FF24C10F7F73BF9306857
S3150800D500806A0E23294603FB0400BDE87040082202
S3150800D510801DF7F72DBA027902F0F802114301715E
S3150800D5207047F8B5F9F72EF8FF2823D0414D28683B
S3150800D530866A002418E03079C0F30217072F11DA3B
S3150800D5407F1CF9B2304600F022F8FFB2072F01DA45
S3150800D550032F07D100213046FFF7DDFF00210F20FA
S3150800D560F9F755F8641C0E36286890F82D00E4B2D1
S3150800D5708442E0D3FFF746FD04F0F1FF05F067FDAE
S3150800D580BDE8F4404FF47A512D48FAF7E8BE02791F
S3150800D59002F08F0242EA011101717047002009E08A
S3150800D5A0896A0E2202FB0011401C4A7902F0EF023A
S3150800D5B04A71C0B21F49096891F82D209042EFDBE5
S3150800D5C070472DE9F8431B4C206890F82D6002251A
S3150800D5D02068D0F82880002704E0761EF6B27F1C63
S3150800D5E008F10E08206890F82D00FFB287420BD28A
S3150800D5F0B8F8009000214846FFF74FFF0028EED004
S3150800D600002EEAD1484610E086420CD0F9F7B0FA67
S3150800D610216891F82D10891B90FBF1F201FB120687
S3150800D6206D1EF6B2D4D14FF6FF70BDE8F283000046
S3150800D630CC2F0020F42B0020DF2F0020042F002001
S3150800D6409C2D00206E65696768626F722E63000004
S3150800D65080B50423042200A9012009F002FADFF8A4
S3150800D6604C15009809680003C86101BD10B5DFF8BC
S3150800D6703C452068C069000507D1F8F770FF002807
S3150800D6800CBF04201220F5F7EEF92168C869421C80
S3150800D690CA6110BD80B5DFF814150968002000902E
S3150800D6A0C8610423042200A909F0DBF901BD00B50D
S3150800D6B085B01123062200A9012009F0D2F9DFF866
S3150800D6C0EC049DF81010026882F820100068C07EED
S3150800D6D000281CBF0528002002D1F9F7EFF9012020
S3150800D6E005B000BD70B50C4615461E46014610220B
S3150800D6F03046F7F73DF93470280AB073F5733046AB
S3150800D700BDE87040F9F7DBB92DE9FB4F8CB09046C0
S3150800D7109DF86400189D00289DF830008DF80400D7
S3150800D72014BF012702279DF83800841A9DF8300097
S3150800D730029026460D9850B900F0A3F8DFF8701449
S3150800D740029A0968555CFF281CBF405C45199DF87C
S3150800D750640000289DF8380014BF09214921EDB25C
S3150800D7602A1A1A9803AB92B2FFF7BCFF0DF10C0AFE
S3150800D7709AF8010060408AF801009DF8640030B10B
S3150800D7801022002103A8F7F736F98DF80C4000247B
S3150800D7904FF0000915E017F80A3011F8010B43405D
S3150800D7A007F80A30521C7F1CD2B25A45FFB2F2DB88
S3150800D7B0D944102F5FFA89F903D103A8F9F77FF93D
S3150800D7C00027F6B2B1451EDAC7F1100BA6EB090021
S3150800D7D0C0B25FFA8BFB584538BF83460D9858B9D7
S3150800D7E0009009EB08029DF804105B46D2B207A820
S3150800D7F0FAF741FB07A904E05FFA88F8404409EB09
S3150800D80000010022D0E7012C18BF002FB04403D036
S3150800D81003A8F9F754F900270D9808BB00F031F86A
S3150800D82084B9E349029A0968515C9DF838208E1A32
S3150800D830FF289DF8640008BF0124B0B1F6B2A6B966
S3150800D840022412E0012C10D100F01BF88DF8040018
S3150800D8504FF00008D6489DF8041000680E5C04E0F6
S3150800D8601CB99DF8380001242E1A601CC4B2032C7A
S3150800D8708EDB1B98042203A9F7F77AF80FB0BDE8E8
S3150800D880F08F9DF83000FAF78DBA2DE9F04F85B084
S3150800D89004460F4690460025FAF784FA8246012286
S3150800D8A04FF0010901AB114600F078F88DF80040F9
S3150800D8B0DFF800B3BE489DF8001000680E5C3946D4
S3150800D8C000A8FAF7B9FBF71B0446FFB223E0037872
S3150800D8D015F80C205A4000F8012B491C6D1CC9B2DA
S3150800D8E0B142EDB2F3DB3419BF1BE4B2202CFFB210
S3150800D8F007D1DBF800009DF80010085C8DF80000E1
S3150800D9000024102D07D109F1010901AB1FFA89F28C
S3150800D91000F043F80025A7B1C4F12006F6B2C5F118
S3150800D9201000BE42A8BF3E46C0B2864228BF064681
S3150800D9309DF80000FAF78CF9201800210DF1040C67
S3150800D940CDE78DF800A04FF0FF0A9DF80000FF28EC
S3150800D950B0D105B0BDE8F08F2DE9FF4104460D466C
S3150800D9601646984609E02278C85C504004F8010B30
S3150800D970491CC9B2B942F6DBED1BEDB25DB1102DFB
S3150800D980B4BF2F46102700ABB2B200F006F8761CDB
S3150800D990002100ABEDE7BDE8FF8101214046A1E685
S3150800D9A070B50D461146814A1268D27E044628781B
S3150800D9B000F020061043287006B1691D0822601C75
S3150800D9C0F6F7D6FF0422691C04F10900F6F7D0FF22
S3150800D9D028786073002E297814BF0D20052001F0E1
S3150800D9E01801082908BF401CC0B270BDF0B506462C
S3150800D9F06F4800680C4685B0205C15461F46431BD9
S3150800DA00DBB20E2BA8BF0D230020009001A8FAF761
S3150800DA1032FA3A4601A93046FFF7C2FF06469DF894
S3150800DA20042029462046FAF718FB304605B0F0BD13
S3150800DA302DE9F0418CB0044688461546FAF7B2F946
S3150800DA4006465D4B2A46214608A8FFF7CFFF471929
S3150800DA5004A80390FBB208A8029042460020019051
S3150800DA60009000212046FFF74FFE00F04BF808AA69
S3150800DA70F9B22046FFF709FF29462046FAF7E8FAE1
S3150800DA8000F0F80229462046FAF7E7FAFF2E18BFF3
S3150800DA903446042204A92046FAF757FA401E804164
S3150800DAA0C00F2CE02DE9F0418CB004460D46904697
S3150800DAB01F46414A391908A8FFF772FFC61904A874
S3150800DAC00390009508A80290F3B200200190424600
S3150800DAD02146FF20FFF718FE00F014F8042204A9D7
S3150800DAE02819F6F745FF385D00F0F8003855A91BE8
S3150800DAF0F6B208AB0122C9B23019FFF72DFF0CB0F8
S3150800DB00BDE8F08108AB0022042104A824E72DE92A
S3150800DB10F04391B08046894615461C46FAF742F905
S3150800DB20074623462A46414608A8FFF75FFF4419D9
S3150800DB301F480068FF2F08BF47460423385C061FA6
S3150800DB4000200090F2B2394604A8FAF794F9F1B227
S3150800DB503846FAF732FAFFF7D5FF08AAE1B2404687
S3150800DB60FFF793FE0CA80390E3B208A802904A4672
S3150800DB7000200190009000214046FFF7C5FD294688
S3150800DB804046FAF765FA00F0F80229464046FAF7E1
S3150800DB9064FA04220CA904A8F6F734FF401E804153
S3150800DBA0C00F11B0BDE8F08300000000F42B002080
S3150800DBB01027002018270020082C002080B50423F1
S3150800DBC0012200A9012008F04CFF0098DFF8E412B2
S3150800DBD00003086001BD10B5DFF8D84220680005CB
S3150800DBE004BF0120F4F73FFF2068411C216010BDE7
S3150800DBF080B5DFF8C012002000900860042300AA50
S3150800DC007F210120F4F70BFF01BD2DE9F84F94B0F1
S3150800DC100E461F9C002703210C428046924603AD00
S3150800DC204FF0A60B04D08DF80C300DF10D0513E05E
S3150800DC30711D89B2504600F04EFC002845D0009769
S3150800DC4005233246514603A8FAF715F99DF80C0044
S3150800DC5000F018008DF85000DDF87890B9F1000F43
S3150800DC6058D15046F9F7FDFE21074CBF001D801C10
S3150800DC70FAF77CFE01900DF11C099DF80C00800650
S3150800DC800FD506F10D0189B2504600F024FCC8B143
S3150800DC90721D00970823D2B2514607A8FAF7EBF887
S3150800DCA005E0019807A980B200F0CFFA50B982487A
S3150800DCB0006804F0180118290FD1019969B1408844
S3150800DCC0814227D00320044203D100211A20F8F705
S3150800DCD09EFC584615B0BDE8F08F417B432904BF2A
S3150800DCE00199002916D1007D400613D509A809F027
S3150800DCF075F99DF80C00800648BF07A904D46E483C
S3150800DD000068011D00F10409082209A8F6F77AFE41
S3150800DD1000B1012741465046FAF79AF900F0030088
S3150800DD20431E9B41DB0F002F14BF09A8484602AAD1
S3150800DD300BA909F0A7F95FEA000BC3D15FB10FAAD7
S3150800DD400BA9102009F0CCFA0028BBD110220FA984
S3150800DD500BA8F6F70DFE9DF8500008B90BA80BE0C6
S3150800DD60102845D100208DF800000FAB012200A92C
S3150800DD700BA809F05BFB0FA8F8F78AFE03210C42F3
S3150800DD80DFF838B13CD0FFF726FF024629460120C6
S3150800DD90FAF7F7FD2D1DA00718D54146504600F0A5
S3150800DDA0B2FC093080449DF80C0040F020008DF844
S3150800DDB00C00082259462846F6F7DAFD08355FFAB8
S3150800DDC088F1504600F087FC00EB08060120009019
S3150800DDD0F2B203A82B1ADBB25146FAF74CF8F2B2A4
S3150800DDE05FFA88F15046FFF723FE38B1002071E745
S3150800DDF0182808BF0220B6D0A6206BE7182069E7C6
S3150800DE000DF10D010120FAF7CAFD054660071AD47F
S3150800DE10029860B900244B460020009032464146DD
S3150800DE205046FFF774FE88B94FF0A60B4DE797F0FA
S3150800DE300104F0D000688542EDD200211620F8F7DB
S3150800DE40E6FB012046E700245B46E5E714B10299A4
S3150800DE50681C0860002FC9D04FF08051002009F0D7
S3150800DE608AF8C3E72DE9FC410446884616461F464C
S3150800DE7000F0E6FB05462946204600F02CFC411931
S3150800DE800197009643462246C9B22846FFF7BDFECB
S3150800DE90BDE8F68180B5F9F785FFFF2808D0084A5E
S3150800DEA01268815CBDE80440091FC9B2FAF785B853
S3150800DEB001BD0000E02E0020F42B0020082C0020D5
S3150800DEC01027002038B5F9F7B7FCF9F7E2FADFF8BA
S3150800DED008442078002840F0A780122009F0D8FAD4
S3150800DEE000060BD500F0DFF8000607D500F0DEF8CF
S3150800DEF0000603D500F0D4F8000610D4122009F065
S3150800DF00C7FA000614D500F0CEF8000610D400F0C3
S3150800DF10CDF800060CD500F0C3F8000608D5E07861
S3150800DF200E2861D1F4F726FD002800F07F8032BD67
S3150800DF3000F0B9F800060FD400F0B8F800060BD5C3
S3150800DF4000F0B4F8C00707D400F0AAF8000603D416
S3150800DF50E0780C2845D1E5E700F0A5F8000609D5D4
S3150800DF6000F0A4F800F08100812803D100F098F8A9
S3150800DF7000060DD500F097F800060ED400F096F8C6
S3150800DF8000F08100812808D100F08AF8000604D440
S3150800DF90E0780D28C6D00E28DCE700F084F80006E5
S3150800DFA010D500F083F800060CD400F079F80006C6
S3150800DFB008D5E07816281CBF01281A28B2D00F28E1
S3150800DFC015D1AFE700F06FF80006ABD400F06EF895
S3150800DFD00006A7D400F064F80006A3D5E078162852
S3150800DFE0A0D0E07801289DD0E0781A289AD0E07869
S3150800DFF0022818BF1B2895D0062818BF072891D0D5
S3150800E000082818BF09288DD00A2818BF032889D0E0
S3150800E010102818BF112885D0122818BF1328FAD03F
S3150800E020142818BF1528F6D0B02032BDF6F760F8C8
S3150800E03009F072FADFF8A402007808B108F0EEF8E1
S3150800E04005F0E8F8F9F724FADFF894420FF2C82049
S3150800E050FAF70DFA2070DFF88C02FAF708FA607002
S3150800E060F7F7DCFE05466078FAF722FA2846F7F74E
S3150800E070DBFEF8F7C7F9FAF736FBFAF7B7FC09F04B
S3150800E08056FA09F057FA03F041FF0120F5F729FA85
S3150800E090DFF854024FF47041FAF761F9002032BDF7
S3150800E0A0002009F0F5B9102009F0F2B9112009F09D
S3150800E0B0EFB92DE9F047FEF7D3FDFEF7C7FBF8F7F2
S3150800E0C0CBFC08B9F8F7B4FCDFF820824046FAF72B
S3150800E0D019F908B9FAF7A5FFDFF814924846FAF7CE
S3150800E0E011F908B901F0F1F905F01BFBF7F7FDFF87
S3150800E0F0DFF8EC613078FAF7A6F97078FAF7A3F941
S3150800E10009F01AFADFF8EC51DFF8ECA10027002431
S3150800E1100BE02046F8F727FA2868007B001F02283C
S3150800E12038BF0127F8F720FA641C9AF80000E4B211
S3150800E1308442EED3002F1EBF70480078002805D011
S3150800E14000F02AF8102808BF05F018FCF9F79EF920
S3150800E15009F0B8FBF7F762FE0746F8F77DFC68B1E9
S3150800E1604046FAF7CFF848B14846FAF7CBF828B14F
S3150800E17009F0A6FB10B13078FAF79AF93846F7F79E
S3150800E18053FEF8F7E9F918B94FF4B47100F03FF8FF
S3150800E190F5F7B7FEBDE8F08710B5FAF78EFA40B185
S3150800E1A0FEF76FFE28B1FCF738FD441EA441E40FC4
S3150800E1B000E00124F5F78FFA08B944F00404F8F7EB
S3150800E1C04BFC38B14948FAF79DF818B14848FAF7B0
S3150800E1D099F808B944F002044948007808B144F0AF
S3150800E1E020044648007808B144F0100445480078F1
S3150800E1F008B144F04004FCF70CFD08B144F0800473
S3150800E200FCF709FD08B144F48074204610BD0FF2EE
S3150800E210F800F6F7AFBA38B5044636480068007B0A
S3150800E220C01E03280BD32046FCF711FA4FF6FF75DC
S3150800E230A84204BF2046FEF731FFA84204D1204673
S3150800E240BDE8324005F0CEB832BD70B504464FF68B
S3150800E250F87084420D4627DA264E3CB93068007DB0
S3150800E260800703D4284608F0B9FED8B93068418833
S3150800E2708C4205D1011D08222846F6F779FB11E0E4
S3150800E280007BC01E032808D3204603F031FDFF2873
S3150800E29003D0294603F050FD20B92946204605F04B
S3150800E2A0E8F808B1002070BD012070BD114800686B
S3150800E2B0008A70470F490968088270470D48006848
S3150800E2C0408A70470B4909684882704709480068C0
S3150800E2D00078704700000000960704087C28002094
S3150800E2E0CA2F0020F0B40108602F002098280020CB
S3150800E2F054280020F42B002054270020A82D0020A5
S3150800E300D02B0020D82E00207A69676265652D73A8
S3150800E3107461636B2E630000BC2E0020AD6000089C
S3150800E320242E0020199F0008302C0020B1C40008B4
S3150800E330CC2D0020ADCF0008742F00203DBD00086D
S3150800E340D02B002073130108DC2B002031140108A0
S3150800E350A82D002079390108C82B00207909010861
S3150800E360742D0020E9260108C02D00205B30010825
S3150800E370E42E0020F5A101089C2D002023D50008D5
S3150800E380F42E0020692E0108182E0020937E01081D
S3150800E390B42D00205B8301087C2D0020B57201088E
S3150800E3A0D02E002051780108D82E0020E51E01083D
S3150800E3B0E42B0020D3640008682F00207367000848
S3150800E3C0602F002061AC0108EC2B002003660008D2
S3150800E3D000000000000000002DE9F8438046894649
S3150800E3E017461C46F9F7DEFC0546FF2DDFF858658B
S3150800E3F009D0AFB9F9F737FEFF2820702BD130685E
S3150800E400285C90BB27E0306818F80000A0EB0900EC
S3150800E410B9F1FF0F08BF01201ED0C6B216B9FF20FA
S3150800E420207018E0D7B145462846F9F777FC0096DC
S3150800E4304B46424600212846F9F7D4FE57B13146E5
S3150800E4402846F9F7BAFDDFF804050068295C01F0EB
S3150800E4507F01295425700020BDE8F283314600204B
S3150800E460F9F7EDFC0546FF2DE1D11820F4E738B59C
S3150800E4700446DFF8D4040068255C204600F0E0F87E
S3150800E48000F10E03DBB2E91A89B200912246014671
S3150800E4902046F9F7A7FEA5F10E012046BDE834404F
S3150800E4A0C9B2F9F78ABD38B50446F9F7DAFA054666
S3150800E4B02046F9F7CCFA6A780821D30748BF09211C
S3150800E4C0130744BF0831C9B2D20644BF0831C9B2DE
S3150800E4D00818C0B232BDDFF870241268825C8A421E
S3150800E4E08041C043C00F704700F8011B090A00F8B5
S3150800E4F0011B704710B504460822F6F739FA04F1ED
S3150800E500080010BD2DE9F04E92460C46024684B02E
S3150800E51099464FF6FF710420F9F760FB0546FF2D73
S3150800E5206CD0F9F79EFADFF8286407463068C07E93
S3150800E53010B94FF6FF50044020050DD5B9F1000F6C
S3150800E5400AD100A95046FFF780FE00280EBF0DF13C
S3150800E55000094FF2FF70044021463846FFF7C4FF12
S3150800E5605146FFF7C1FF8346FFF7A0FE014658460E
S3150800E570FFF7BAFFDFF8DC2313780C9A0146481C2C
S3150800E5800AB1934200D21A460A703168DFF8B863B6
S3150800E5904A7E521C4A7600F8012BE10548BF401C0A
S3150800E5A0210544BF4946FFF7A5FFE10444BFDFF84C
S3150800E5B0A813FFF79FFF31686A5C8018C01B685470
S3150800E5C040F20110044218D14FF6F870824514DA69
S3150800E5D030682F5CF7F7C2FF2946504604F06EFAFA
S3150800E5E0F7F7C2FF3068285CB84206D02846F9F724
S3150800E5F038FA417841F004014170284604B0BDE874
S3150800E600F08E70B582B01546069A1E4641F2092468
S3150800E6100AB141F6092400910246079B2146FF20CC
S3150800E620FFF770FF0446FF2C09D032462946F9F752
S3150800E6308CFC0028204602D0F9F77EFBFF2076BD29
S3150800E64038B50446FFF72FFF05462046F9F709FABD
S3150800E6504078400704D500F072F8401C05EB4005E9
S3150800E660E8B232BD00F108014078020701D4002063
S3150800E6707047C00701D5481C70470846704700F127
S3150800E68008014078C20601D400207047C20748BF77
S3150800E690491C000702D501F1080070470846704773
S3150800E6A000F00301012901D10220704700F00C0097
S3150800E6B00C2801D10920704708207047032211420F
S3150800E6C007D000F00300022801D10320704702207A
S3150800E6D0704700207047F8B504460D46F9F7B8FCB0
S3150800E6E00646FFF7DDFF0746300601D43846F2BD79
S3150800E6F07919C9B200F024F801463046FFF7DEFF63
S3150800E700C019C0B2F2BD70B504460D46FFF7E3FF67
S3150800E710064600F014F880060FD57119C9B200F044
S3150800E7200FF8761D00F01801F6B2082904BF761C0A
S3150800E730F6B2800644BF0836F6B2304670BD2946A2
S3150800E7402046F9F785BC38B50446FFF779FF054634
S3150800E75029462046FFF7D7FF4019C0B232BD2DE93A
S3150800E760FF4780460C46F9F77CF90646FAF7FEF8A5
S3150800E77005464046FFF764FF074639464046FFF719
S3150800E780AAFF0021009103463A46414601A8F9F737
S3150800E79072FB9DF8048008F00C000DF1050A4FF095
S3150800E7A0FF090C281ABF9DF805000DF1060A484610
S3150800E7B008F00C07607106D15046FAF7D7F82081A1
S3150800E7C00AF1020A01E0002020817078C00704D50A
S3150800E7D00C27B01CFAF7CAF820815046FAF7C6F893
S3150800E7E060800AF102063046FAF7C0F8208008F081
S3150800E7F00301B01C012918BF10F8019B84F8049086
S3150800E80010F8011BA17208F0600139432A0648BFB7
S3150800E81041F4007103D46A0648BF41F48071EA04E2
S3150800E82048BF41F480612A0548BF41F40061E18090
S3150800E8305FEA086117D510F8011B11F0030112D021
S3150800E840E38810F8012B43F40043E38008F0030340
S3150800E850022B04D1007842EA0020208103E0012936
S3150800E86008BF12022281BDE8FF872DE9F04115464F
S3150800E87086B080460C46E888082C18BF0C2C06463D
S3150800E88004D080045CBF06F040000143304F38686E
S3150800E890C07E10B106F020000143300448BF41F0A5
S3150800E8A080010C2C8DF8001005D129890DF1010085
S3150800E8B0FFF71AFE04E068798DF801000DF10200F1
S3150800E8C06988FFF711FE2988FFF70EFE297900F8F7
S3150800E8D0011B022C09D0310402D52989C9B221B9F4
S3150800E8E039688A7E531C8B76AA72A97A00F8011BAE
S3150800E8F0310415D529890A0A022C01D0CBB23BB1BD
S3150800E900022300F8013B022C00F8011B08D105E0A0
S3150800E91010F8011CA972012100F8011B00F8012B4F
S3150800E9203968C97E19B1A979890648BF401D00A969
S3150800E930421AD2B24046F9F708FB401E8041C00F82
S3150800E94006B0BDE8F081000010270020142700203B
S3150800E950F42B00208C270020082C002010B5044634
S3150800E960FFF7A4FC02462046BDE810400021FFE759
S3150800E9702DE9F24F0746DFF89406006886B0407B1B
S3150800E9800025022892464FF0060913D13846FBF7B0
S3150800E990B3FE00280ED14FF6F9718F4202AE1AD196
S3150800E9A04FF02008082400F02AFBC0F09C80FFF7EF
S3150800E9B07DFC824540F09780FFF778FC0746FC20EF
S3150800E9C0F070FF203071022239465046FDF7EFFFFE
S3150800E9D0C8B1012088E04FF6F8718F4203D14FF095
S3150800E9E010081024DFE7380A3071A846F7700DF1D1
S3150800E9F00E013846FFF729FC002812BF0024202400
S3150800EA004FF00E09DFE7DFF808B69BF80000401C58
S3150800EA1001218BF800008DF808107470B0707571BC
S3150800EA20019500954B469DF8181002AA4FF6FC7002
S3150800EA30FFF7E7FD0646FF2E55D0FFF737FC824560
S3150800EA4010D03046F9F70DF804465146201DF9F75F
S3150800EA5094FF2046FFF713FE01465046FBF766FE75
S3150800EA6000283DD000F0CBFA4FF6FF7905D249468B
S3150800EA703046FAF79EF9054632E0FDF7BFFF040077
S3150800EA802ED0E21D41463846FDF7BDFF070027D0C8
S3150800EA9000231A4603213046FEF7AAF9050015D0C9
S3150800EAA0A4F800A09BF80000207100206071FFF711
S3150800EAB0FDFB824505D1387900F0FC0040F00100E5
S3150800EAC0387100210C20F7F7A2FD09E0387900F02B
S3150800EAD00301012904D140F003003871A7F800901A
S3150800EAE03046F9F729F9284686E22DE9F0418046AD
S3150800EAF015461E464F1CF8F7B4FF0446201DF9F7C5
S3150800EB0035FF28804046F8F7CDFF6880F9B2A0792E
S3150800EB10E8724046F9F79CFAA8727F1CF9B240469B
S3150800EB20F9F796FA28727F1C2EB1F9B24046F9F722
S3150800EB3036FBBF1C00E02888A880F9B24046F9F7E2
S3150800EB402EFBE880B91CC9B24046F9F781FA68720B
S3150800EB500122297AA888BDE8F041FDF728BF3EB50D
S3150800EB600C46002100911D460146082301A8F9F725
S3150800EB7082F92A4601A9204603F013FC3EBD10B5CA
S3150800EB800C46DFF88814096882B0097BC91E032978
S3150800EB9008D300AA1021FDF736FF18B144800021DA
S3150800EBA0FDF7B0FD13BD2DE9F04704468AB0A07AFB
S3150800EBB08946154600F040080826FFF777FBE288E5
S3150800EBC0824206D0012702A91046FBF7AFFD08B915
S3150800EBD043E0002760880021FEF75FFCB9F1000FCB
S3150800EBE0824607D00822494606A8F5F7C1FE48F02E
S3150800EBF010081026002F14BF02A9DFF8181404A85D
S3150800EC0008223018F5F7B4FEBAF1000F25D0022015
S3150800EC108DF8100048F0200104A806F10803417099
S3150800EC20DBB2217A817004AAA1888DF81310A18815
S3150800EC30090A0171E1888DF81510E1888DF817A089
S3150800EC40090A817100200190002101200090608846
S3150800EC50FFF7D7FC0646FF2E01D1002010E0618899
S3150800EC60F8F731FF002D14BF0221002100230022EE
S3150800EC703046FEF7BDF804463046F9F75DF82046FB
S3150800EC800AB0BDE8F0872DE9F04383B080460F4609
S3150800EC9015469946F8F7E5FE044600214846FEF76C
S3150800ECA0FCFB0646F91DC9B24046F9F7A7F98EB12D
S3150800ECB00DB90178761806706078000713D500A993
S3150800ECC04846FFF7C2FA28B90022082100A8FBF730
S3150800ECD035FF08B1002029E02046FFF7C3FC0822CB
S3150800ECE000A9F5F745FEFFF7E1FA0146201DF9F7F9
S3150800ECF044FE6078C00606D52046FFF7C0FC082209
S3150800ED00C449F5F735FE4946A01CF9F736FE4946CB
S3150800ED104046F8F7D8FEBD480068417E491C417652
S3150800ED20E171A07908B90120A0710120BDE8FE8330
S3150800ED302DE9F04F87B08046FF20154600278DF84D
S3150800ED4001004FF0000B002D89468DF800B014BF66
S3150800ED50082406242B4601AA4046FFF7C6FE0646A7
S3150800ED608DB19DF80E00C0060DD504F10800C4B299
S3150800ED7009F10802BDF808100023D2B24046FFF791
S3150800ED80EEFE002837D19DF80E0080060CD56B1EC6
S3150800ED909B4104EB0902BDF80A10DB0FD2B24046CC
S3150800EDA0FFF7DDFE002826D1002D14BFBDF808A008
S3150800EDB0BDF80AA0FFF77AFA824504D05046FBF759
S3150800EDC09BFC040000D00124002D3FD016B94FF655
S3150800EDD0FF7A26E09048F1790068B6F802A0062284
S3150800EDE002FB010BBDF80A10BBF80000884203D0ED
S3150800EDF04FF6FF703080FFE024B9BDF80800FDF734
S3150800EE00C7FD074600215846FDF77CFCBDF80600FD
S3150800EE10ABF802002FB100213846FDF773FC708865
S3150800EE20788004F0F3FC7D48007800280DD0002C8B
S3150800EE300BD15346002249464046FFF724FF0028D7
S3150800EE4003D051464046F9F7B4FFD5E0BDF80600B1
S3150800EE500021FEF722FB0590BDF80400FBF74CFCE9
S3150800EE600546FFF723FABDF804108142EDD000F0FD
S3150800EE70C6F8EAD39DF80E004106E6D4059929435B
S3150800EE80E3D000F01801082908BF4FF0200A06D081
S3150800EE9000F0180010280CBF4FF0100ADA469DF84B
S3150800EEA00D00059908188DF80D0014B95FEA0A00D7
S3150800EEB000D0012004903EB9FDF7A0FD06460120CA
S3150800EEC0002E8DF80000C0D0049848B9BDF80A0095
S3150800EED00DF101020021FDF796FD5FEA000B45D012
S3150800EEE045B9BDF808000DF102025146FDF78BFD44
S3150800EEF007003BD04948007828431EBF9DF800000C
S3150800EF0084F00101084227D0F7F732FE7E2190FBF4
S3150800EF10F1F17E2202FB1100801CC5B29DF80D207E
S3150800EF2009F10501C9B24046F9F797F84FF6FF719E
S3150800EF304046F8F7C8FD05980428A8BFA5F1800043
S3150800EF4003DA022802DB05F14000C5B200232A468F
S3150800EF5002214046FDF74CFF9DF8000070B9707914
S3150800EF609DF80D10814209D3BAF1000F44D08142B1
S3150800EF7042D1F7F7FDFD032108423DD1BDF8060051
S3150800EF8070809DF80D0070719DF8000070B1BDF895
S3150800EF90040030809DF80C003071049810B1FF20F1
S3150800EFA0F07111E09DF80100F07119E0BBF1000F56
S3150800EFB01EBFF0799DF80110884205D040F26721FE
S3150800EFC00FF2E800F5F7D6FB002F1CBF04980028BF
S3150800EFD006D0BDF806007880387900F0FC00387154
S3150800EFE054B14046F8F73DFDFFF749FB01469DF849
S3150800EFF0002001A8FFF7D7FD07B0BDE8F08F03484A
S3150800F0000068007BC01E032870470000F42B002010
S3150800F010E72F0020082C0020342700202027002076
S3150800F0202DE9FE4304460D4690469946FFF73EF9FC
S3150800F030844214BF0126002605218DF808100027F2
S3150800F04002A93EB188700122000A4A708DF80B00A9
S3150800F050042301E04F70022301970120009002AAC1
S3150800F06000212846FFF7CDFA0546FF2D1AD08EB1A6
S3150800F070F8F7F7FC06462146301DF9F77EFCA9F19C
S3150800F0808000F0713046FFF7FAFA01462046FBF792
S3150800F0904DFB20B141462846F9F78BFE0746284620
S3150800F0A0F8F74AFE3846BDE8FE830000726F7574AD
S3150800F0B0652D646973636F766572792E6300000047
S3150800F0C02DE9F84F8AB00D461646ADF804504FF0B4
S3150800F0D00008F7880446C246C146FBF772FD159834
S3150800F0E060B9F8060AD59DF850009DF828300090BA
S3150800F0F032462946204608F0EAFB04E1780548BF6F
S3150800F1004FF4805A380548BF4AF4006AB80548BF24
S3150800F1104AF0800A03D4F80548BF4AF0400A9DF829
S3150800F12050000290072CAB4665D8DFE804F0062CA1
S3150800F130183A3A04063A4FF002099DF82800BDF835
S3150800F1400420009043469DF850004AF40271FFF7E8
S3150800F150D9F98246BAF1FF0F4FD11820D3E005A995
S3150800F160E8B206F006FF08220DF1190103A8F5F723
S3150800F170FFFBDFF81808006830F81B000DF10C08D3
S3150800F180ADF80400D9E703A9E8B204F0BCF8DFF843
S3150800F190000800680C2101FB0B000DF10C08008823
S3150800F1A0EEE74FF6F870834525DBF0884FF40261E9
S3150800F1B0084220D100F033F918BF91201CD10298DB
S3150800F1C0FF280FD000F01DFB032C0CBF01210021E6
S3150800F1D0401ADFF8C017029A0968515C8842B8BF1E
S3150800F1E0742009DB032C0CBF4FF00C094FF00809FB
S3150800F1F02AF4C07AA1E7012085E0DFF89C07008899
S3150800F2004FF6FF71884214D05046F8F72AFC834619
S3150800F210DFF8840701880BF10400F9F7AEFBDFF885
S3150800F2207C07DFF8741700788BF807004FF6FF7035
S3150800F2300880324649465046FFF717FB08B9182694
S3150800F2405DE0DFF85C070068C07E48B1B80607D500
S3150800F2500123424600215046FEF704FE06004ED121
S3150800F2600298FF2816D05046F8F7F1FBDFF830175A
S3150800F2700968C97E01B11221DFF81827029B1268B6
S3150800F2809B5C1AF80220D218743089188842B8BFD5
S3150800F290742634DBB80407D55046F8F7ECFB40F47F
S3150800F2A080615046F8F7E9FB062C12BF072C50463A
S3150800F2B0F8F7F0FB159848B1BDF804105046F8F772
S3150800F2C002FC159880F800A000201CE0E01E022829
S3150800F2D001D9001F07D15046F9F7DEFB00280CBFFD
S3150800F2E0A12600260BE0B80444BF4FF6BF700740BE
S3150800F2F03B46EAB22146504604F099FA064650467D
S3150800F300F8F71AFD30460BB0BDE8F08FF0B587B0B8
S3150800F3100E4604460C9917461846F8F790FD05461A
S3150800F320FF2D21D0FF208DF810008DF81100ADF8C3
S3150800F3300E704CF20E00ADF80C00ADF8126000200D
S3150800F340ADF81400009502A80190FF2303AA2146F0
S3150800F3500020FFF7B5FE04462846F8F7EDFC002C1A
S3150800F3600CBF9DF80800FF2007B0F0BD2DE9F0435B
S3150800F370164685B00446F08804900D4670790FF25B
S3150800F380586103901F4630790290A846708801900C
S3150800F390434630880090082200F069F800F03FF8EC
S3150800F3A018BF912019D1FF2F09D000F02AFADFF8EB
S3150800F3B0E4150968795C884238BF74200DD37CB996
S3150800F3C04FF6F870804528DA002001900097FF2351
S3150800F3D0324629462046FFF773FE05B0BDE8F0839E
S3150800F3E0022C4FF6FE790CD1DFF8B8050078854275
S3150800F3F013D2DFF89805006830F818004845E3DBB3
S3150800F4000BE0012C09D1DFF8A0050078854204D26B
S3150800F410E8B203F086FF4845D6DB0120DDE7DFF8D2
S3150800F42080050068407B02287047F0B587B00D4616
S3150800F4301646044605961F46E8880FF2A45104901E
S3150800F44023466879039009222879029068880190F2
S3150800F4502888009000F00BF80020019000973346AA
S3150800F4602A4621460420FFF72BFE07B0F0BD0320ED
S3150800F470F8F74FB970B588B004460D46069205955B
S3150800F4801E46E0880FF264510490062260790390C4
S3150800F49020790290608801902088009003202389B3
S3150800F4A0F8F737F9DFF8040500780096002814BF46
S3150800F4B04FF6FF714FF6FD71002001902B4622464C
S3150800F4C00320FFF7FDFD08B070BD10B5DFF8E004B6
S3150800F4D0F8F7CEFE0446FF2C0DD02146042002F094
S3150800F4E07EFE18B10121204600F006F82046BDE848
S3150800F4F01040F8F721BC10BD2DE9FE4F82460D4697
S3150800F500F8F7AFFA0646B01CF9F730FA83465046C4
S3150800F510FFF796F801465046F8F79AFD804608F038
S3150800F52003095046F8F7B1FAF7F71DF8DFF88444EF
S3150800F530301DF9F71BFA2080DFF87C74FEF7B6FE5B
S3150800F540834512D04FF6F87083450EDA7078C007F7
S3150800F5500BD45846FBF7C5F8002869D02088012344
S3150800F5605246594600F091F962E000A95046FFF765
S3150800F570F6F800A838603046FFF781F8DFF83C1443
S3150800F580086003215046F8F75CFADFF8341408706F
S3150800F59004215046F8F755FADFF8281408704DB3D9
S3150800F5A09DF80600800625D5DFF8F453FEF77EFEA3
S3150800F5B040B12868007D800704D4B9F1010F08BF5F
S3150800F5C0102000D0002040F00803002200215046F9
S3150800F5D0FEF748FC70B108F00300012802BF28684E
S3150800F5E0407B112839D107F0D7FDB0BBAF2001F019
S3150800F5F046F832E018F0030003D0022805D009D3F4
S3150800F60016E0504600F02DF812E05146404604F048
S3150800F6103CF90DE0FEF74AFE2188814208D05146A2
S3150800F620052002F0DCFD18B12188504600F0BFFA2B
S3150800F630FEF73CFE218881420DD15046FFF700F8BF
S3150800F64001465046F8F704FD0C21084203D1002173
S3150800F650504604F03BFB00203860F6F785FFBDE80E
S3150800F660F78F2DE9F04F83B08046F8F7FAF905468B
S3150800F670A81C95F801B0F9F779F94FF6F8718842A0
S3150800F680ACBF01260026FEF711FEDFF82893DFF847
S3150800F6902873B9F8001081423868B0F802A00CBF88
S3150800F6A0012400240BF0010030438DF804009DF876
S3150800F6B00400002814BF062008200021F6F7A7FF3B
S3150800F6C038680188002904BF4079002808D1B9F8AC
S3150800F6D00000BAF5004F19DB5246414608F087FA92
S3150800F6E0386800884CF20E01884241D144F201067E
S3150800F6F0B24518BFBAF5804F37D14046FFF723F811
S3150800F7000146B2450CBF0120002025E0DFF8B8B25B
S3150800F71002218BF8001033460022414608F0DAF839
S3150800F72038688079400603D5FF21504600F070F806
S3150800F730BAF1130FD4D03868C0884004D0D4A3498E
S3150800F7409BF800000978CA0701D50228C8D089079E
S3150800F75049D50128C4D046E0491EC9B200912B46B6
S3150800F7604246012101F065FB3DE0404604F0B1FC4C
S3150800F7703868817901F00C010C290DD1008903F054
S3150800F7800CFF80B338680189002C14BF03250225B5
S3150800F790002006F072FC14E00179009100224379FA
S3150800F7A0B9F80000002106F097FC3968897901F05C
S3150800F7B00C01082904D1002C0CBF0425052500E0FE
S3150800F7C00025834908709DF8040010B9BAF1380F6E
S3150800F7D001D1012200E000222946404603B0BDE8D7
S3150800F7E0F04F06F079BABDE8F78F10B5044600F079
S3150800F7F008F8610548BF0838210548BF0838C0B26F
S3150800F80010BD67490968C97E642001B15220704756
S3150800F81070B5694E0C4686B0054631680C2202A8BA
S3150800F820F5F7A6F8306801798DF80D10FF234179B0
S3150800F8308DF80C10ADF80A504FF6BF71C0880094C9
S3150800F8400840ADF80E0002AA002001905948018828
S3150800F8500520FFF735FC06B070BD5E48007808B98C
S3150800F860FF2070475A48007870470A4680B50C2131
S3150800F870084208D19079400605D55088FF21FFF740
S3150800F880C7FF012002BD002002BD2DE9F34F9046B7
S3150800F89083B01D464046FEF7D3FE01464046F8F7BC
S3150800F8A0D7FB824603201AEA000F69D14248066848
S3150800F8B04048B0F800B0002400A94046FEF74FFFC4
S3150800F8C03D4900A808603B49BDF80C0008809DF832
S3150800F8D00500002804BFBDF80000002834D14046C2
S3150800F8E0F8F7BFF8801CF9F741F84FF6F871884227
S3150800F8F0ACBF4FF00109A146002D14BF0225012512
S3150800F9000127FFB2BD4234D3BDF80C004B463A4638
S3150800F910414607F0DFFF0446012C04BF022D012FE4
S3150800F92010D1BDF810001C4908801D480068417EAA
S3150800F930491C4176A1F180001849087000A9504673
S3150800F940FFF793FF7F1CDCE7BDF800004CF20E01C1
S3150800F950884204BFBDF8020001280AD145B1BDF8A6
S3150800F9601000414604F0B7FB00A95046FFF77DFF9B
S3150800F9700124114806600F48A0F800B0204600E0B0
S3150800F980002005B0BDE8F08F0000000064270020C5
S3150800F990742700201027002042280020C92F0020A5
S3150800F9A0F42B00206827002070270020AC2F0020A9
S3150800F9B054280020FE2B0020002C0020042C0020B8
S3150800F9C0CC2F0020CD2F0020C82F0020A92F0020E3
S3150800F9D0C52F0020FC2B002042575757424257009C
S3150800F9E04257575742425742000000004257574273
S3150800F9F0424257424200000070B5DFF81C5C0446DC
S3150800FA00286882B02688407B08B1702076BDB0058C
S3150800FA1004D504F1120000F0B9FDF0B906F086002D
S3150800FA20862801D1B72076BD00F0A3FD2868466177
S3150800FA3016F4045F20D0B0040BD5A01C08F026FAF3
S3150800FA40002851D12868416921F4005141F4807198
S3150800FA504161A01C00F09AFD08B1B22076BD07F0FE
S3150800FA6032FF20B92868416941F48031416128682C
S3150800FA70416941F0200141612868416941F400412A
S3150800FA80416148064CBF04F123020022A31C47F239
S3150800FA90FF1007F03BFA00A800F040F82868406914
S3150800FAA0C004BDF8000004D540F02000ADF8000001
S3150800FAB008E04FF6DF710840ADF80000FDF7EAFDF3
S3150800FAC0FEF796F8BDF8000000F00FF828684069C0
S3150800FAD0800506D594F82210012204F1120000F0E0
S3150800FAE07CFB29680020486276BD10B5044604F4FC
S3150800FAF04C700104002300224FF07F6007F006FADD
S3150800FB0023462F22C2A10320F7F703FEE00703D5F9
S3150800FB100021302007F02FFA002010BDDFF8F81A70
S3150800FB2009684969090C01F44C7101800020704785
S3150800FB3038B5DFF8E45A04462868407B022801D025
S3150800FB40932032BD0A2200212046F4F754FF286884
S3150800FB50406900F0FF01820648BF41F0100121808C
S3150800FB6080075CBFA01C07F039FA002032BD38B503
S3150800FB7004460D46FDF79BFD08B9952032BD00F0F9
S3150800FB805FFAC17E89B14069010401D4A82032BD5B
S3150800FB905DB110F0420F08BF002C04D000F440708D
S3150800FBA0B0F5407F01D0B72032BD002032BD2DE927
S3150800FBB0F04F8BB081468B46FEF742FD014648461C
S3150800FBC0F8F746FA044600254846F7F74AFF8046FE
S3150800FBD098F80100800748BF0125A00648BF45F0F0
S3150800FBE002054846FEF7AFFD8DF80400DFF82C0A3B
S3150800FBF000689DF8041019F800009DF80420431ABF
S3150800FC00DBB2242BA8BF232300200090494602A874
S3150800FC10F8F731F99DF80840012000FA04FA00F0D7
S3150800FC208BF902AE777878B100F004FD002814BF8E
S3150800FC30A0204FF4F070E040C00705D5A80703D40C
S3150800FC40082C0CD1042F09D1F8F719FF50B1052C4F
S3150800FC5001D1022F06D11AF01E0003D182E0052C2D
S3150800FC60F2D07FE043F61E411AEA010F05D05A4644
S3150800FC704946204608F00CF974E0052C4FF6FF7A41
S3150800FC800AD0062C18D0072C37D0082C4CD0092CB3
S3150800FC9050D00E2C53D065E0062F63DA08F1020027
S3150800FCA0F8F764FE04464846F7F7FCFE2B4602AA18
S3150800FCB0214600F0EDFA55E0FEF7F8FA002851D192
S3150800FCC000F0BEF9C17E00294CD0A90702D44069CC
S3150800FCD0800147D40DF11100F8F748FE0246DFF817
S3150800FCE040599DF8130085F800900DF1090359460F
S3150800FCF008F0D0F8FF20287034E00822DFF824192D
S3150800FD000DF10900F4F77EFE20B90222594602F0E9
S3150800FD1002FD27E00DF10900FAF799FC504521D0BC
S3150800FD20002102F021FE1DE02A4602A9584608F0E5
S3150800FD3075F917E07178012000F017FA12E0E80764
S3150800FD4010D50DF10900FAF782FC504504BF0DF1F4
S3150800FD500900FDF7A3F9504504D09DF8042049464B
S3150800FD6000F003F80BB0BDE8F08F2DE9F0478046A8
S3150800FD70DFF8A80800680D4688B0285C02F1090675
S3150800FD80871BF9B20020F8F75AF80446FF2C3CD036
S3150800FD90012000900023424608212046FEF7B2FBC8
S3150800FDA08146B9F1FF0F2DD0F1B22846FEF7ABFC1C
S3150800FDB08246002000905346F2B2294601A8F8F779
S3150800FDC05AF8524601A94846F8F7BFF8B8B9A7EB5A
S3150800FDD00A075644F9B22046F7F740FF4046F6F7B9
S3150800FDE0F1FA00F0B5F9FFB20097F3B22A460021FE
S3150800FDF02046F8F7F7F941464846F8F7DAFF484645
S3150800FE00F7F79AFF2046F7F797FF08B0BDE8F0879F
S3150800FE10425700002DE9F24F8046934686B01D46AC
S3150800FE2000215846F8F714F904460227082C1CBF87
S3150800FE30052C062C05F008064FF000094FF0080AB5
S3150800FE4001D168080AE000F077F848B100F0F2FB43
S3150800FE50002814BFA0204FF4F070E04000F0010025
S3150800FE600190FAF7AEFEBBF1FF0F63D0E80748BF73
S3150800FE704FF4027AC820009000234246514658465D
S3150800FE80FEF740FB8346BBF1FF0F53D026B1069918
S3150800FE9008F02BFA00284AD04FF6F8708045ACBF18
S3150800FEA00820002040F001008DF8080000F0C8F88E
S3150800FEB0817E4A1C82768DF80910019848B19DF812
S3150800FEC0080040F02000002E8DF8080014BF0F2708
S3150800FED007273A4602A95846F8F737F838BB019873
S3150800FEE0D0B10021052C0DD15846F7F75BFF012448
S3150800FEF00121F8F7ADF804FA00F010F0620014BF1B
S3150800FF0010211821002E19BF0223069A0123002268
S3150800FF105846FDF7A7FF50B9680704D54146584625
S3150800FF20F8F747FF02E05846F8F7B6FD8146584607
S3150800FF30F7F702FF4846F2E2DFF8DC060068C07E03
S3150800FF4070472DE9F04104460E463046F7F7FEFDA8
S3150800FF5080462046F6F736FAFF2804D0FAF7DFFB84
S3150800FF6000F040070DE02046FDF7C5F8FF2818D039
S3150800FF70DFF8A4160968896A0E2202FB0010407988
S3150800FF80C709DFF89C562E70FEF790F90146002F38
S3150800FF9014BF052001204346224607F07BFFFF20B9
S3150800FFA02870BDE8F0817CB51C46DFF86C361B6806
S3150800FFB01B7D00259B0701D5002076BD0192009088
S3150800FFC00B4606220FF288610020F8F788F80646E5
S3150800FFD0FF2E0CD0002C14BF032301230021324628
S3150800FFE00846FFF717FF05463046F7F7A5FE2846E9
S3150800FFF076BD2DE9F041002704460D461646B8465B
S3150801000007F0CAF818B1012300F016F8074607F0F9
S31508010010C3F838B100F00EFB40B100F011F84069A1
S31508010020800103D4002300F007F8804658EA070048
S3150801003018BF0120BDE8F081324629462046B2E7BD
S31508010040DFF8D405006870472DE9F34F1D46022DE8
S31508010050924616BF032D01270027BAF1000F8DB06E
S3150801006018BFD04605D101A806F0B8FF48B10DF171
S31508010070040823210020F7F7E2FE8146B9F1FF0FB4
S3150801008001D1002061E0F7F7E3FD83465E460520CE
S3150801009006F8010B06F8015B199CE00606D5112244
S315080100A000213046F4F7A7FC113617E018991022FB
S315080100B03046F4F75DFC01201036A84010F06200C6
S315080100C00CD003A908A800F044FA3046461CA1063C
S315080100D04CBF9DF81C109DF830100170002F14BFFD
S315080100E051460E9908223046F4F742FC06F1080AF1
S315080100F02FB1A00900F001000AF8010B0BE001205D
S315080101000090AAEB0B020823D2B249464046F7F7FC
S31508010110B2FE0AF1080AAAEB0B01C9B24846F7F77B
S315080101209DFD600705D5BDF83400F6F74BF900F0DB
S315080101300FF80E99BDF8340023464A46FFF76AFEC2
S3150801014004464846F7F7F8FD20460FB0BDE8F08F9C
S31508010150FF2809D0DFF8D014096831F810204BF6CA
S31508010160FF731A4021F81020704730B58BB004464A
S315080101700D4600F089F800A800F008FA60B99DF864
S3150801018010009DF824100A1AD2B2812A04DB2CB178
S31508010190A94201D0A84201D000201CE01123022265
S315080101A005A900F06EF89DF81010012200A800F0CC
S315080101B014F801F05EFE01214FF40070FAF715F903
S315080101C0F6F7CCF9FFF73CFF90F82000F7F735FB77
S315080101D0F6F7CAF901200BB030BDF0B591B0054666
S315080101E00C46164601271122002101A8F4F703FC43
S315080101F08DF814402DB91022002101A8F4F7FBFB54
S3150801020004E01022294601A8F4F7B2FB11220021C5
S315080102100BA8F4F7F0FB1122002106A8F4F7EBFB73
S3150801022006A90BA800F095F9002E14BF0BA806A87D
S31508010230112201A9F4F7E6FB00B90027CEB1DFF8D0
S31508010240D85397B11123062200F01AF82868407B83
S31508010250432808BF01F05EFD00A8FFF75FFCBDF863
S315080102600000800658BFFDF715FA286880F8204077
S3150801027004E01FB11123022200F002F811B0F0BD0B
S3150801028001A9002006F0EDBB00A905A861E100005F
S315080102902DE9FF4F541C83B014F8015B4FF0000B96
S315080102A0DA46022D16BF032D01270027D046FDF792
S315080102B0FDFF00284BD0F8F7E2FB9DF8181008431C
S315080102C045D002941034029800F060F9DFF84863CB
S315080102D081460120A8408DF8000062219DF80000A2
S315080102E0084218BF14F801BB9FB9084204F1080A6D
S315080102F02ED03068007D80072AD5FF220821504676
S31508010300FAF71CFC20BB002352461946022006F0C8
S31508010310FDFDFDF7CBFFBDF81010884206D13FB9A8
S315080103200822C0492046F4F76DFB002840F0CB802F
S315080103309DF81840052D0AD8DFE805F0034D3E3E25
S31508010340034D06F029FF002818BF032C10D0E6E05C
S31508010350504606F076FE0028DBD13068407B4328FC
S31508010360F5D1012D18BF052DF1D14FF00108D0E7C0
S31508010370B9F1000FEBD1042D029BAC480CBF20212B
S315080103803021524606F0C2FD002DE0D0306800212A
S315080103904162417B022909D103215046F6F733F917
S315080103A007B0BDE8F04F002006F06ABF4129CED15B
S315080103B040694005CBD581E0032CC8D10598029B3D
S315080103C0827E032D07B0BDE8F04F0CBF0121002145
S315080103D0123007F0BFBF3068407B022804F00204E0
S315080103E004D106F0D9FE08B1002C1BD03068407B39
S315080103F0412817D0B9F1000F06D1F8F740FB02469C
S3150801040002985946FFF7E9FE8948007838B1012D67
S3150801041007BF002101200121002006F0ACFDF8F7F5
S315080104202EFB00287BD006F0B7FE68B1306841691B
S31508010430090502D4407B432806D12CB907B0BDE88B
S31508010440F04FAC2000F01BB93068007D800704D45A
S31508010450BDF80C100020FEF792FB3068417B11298C
S3150801046014D14069400511D5002006F0A1FE0028E7
S3150801047055D100F021F9AE2000F001F9002006F06F
S31508010480FFFE07B0BDE8F04F00F0FDB80CB100F073
S315080104908FF8B8F1000F11D04FF08051002006F007
S315080104A06AFD07F010FA18B94FF4803106F063FDBA
S315080104B0316800204862504606F0C1FD07B0BDE824
S315080104C0F04F00F04EB99DF800006221084212D0A3
S315080104D0BDF810004FF6F87188420CDB002208219E
S315080104E02046FAF72BFB30B10298594607B0BDE80A
S315080104F0F04F002271E62046FDF78DFE4FF6FF719B
S3150801050088420CD0B9F1000F14BF152104210191BD
S315080105102B460299009152462146FFF795FD07B0F1
S31508010520BDE8F08F10B58AB00446FFF7ADFE9DF819
S315080105302400844205D105A8F6F7AAFA01200AB0D3
S3150801054010BD9DF81000844208BF00A8F4D0002011
S31508010550F5E710B50C46014611230622012006F0DF
S3150801056080FA2146BDE8104011230222012006F037
S3150801057078BA80B5002100220846FFF72EFEBDE8AD
S31508010580044000214FF6FF7006F0F5BC0022102149
S31508010590FAF7D4BA80B5FFF7CFFC40B100F008F8F6
S315080105A0204806F04AFDBDE8014007F0D7BE01BD67
S315080105B019480068406910F0300F09D01C4A1278B2
S315080105C030210AB1C00700D42021302006F0D3BC5F
S315080105D0704711480068C17E01B9704780B5007B34
S315080105E0C01E032816D30020FCF7D2F948B10179B9
S315080105F0302211420ED101F0CF0141F010010171F3
S3150801060001BDFCF782FD28B1BDE8044000210020A8
S31508010610FEF7B5BA01BD0000F42B00201027002013
S315080106204C280020082C00202C270020300001002F
S31508010630E7B4010880B5FDF739FE0028FFF700FD8C
S3150801064040690CBF8008000D00F0010002BD0000E2
S315080106503138323100000000DFF8F02C12681278C8
S3150801066082420AD019B1012A03D1022805D00020F5
S315080106707047022A08BF0128F9D101207047DFF81F
S31508010680D01C0875704710B5DFF8C04C2068407B50
S31508010690112804D0B6210FF21000F4F76BF821687F
S315080106A04120487310BD00006173736F63696174FB
S315080106B0696F6E2E6300000080B50220F5F74AFFC8
S315080106C0F5F751FF00F080FC001F022805D2DFF87C
S315080106D0800CC17C491DC17405E04FF47A71DFF8BD
S315080106E0740CF7F73CFE00F0B9BE10B5DFF8604CA4
S315080106F0002060742078FF2803D0F7F71DFBFF2040
S31508010700207010BD38B504460D46F7F7A1FA007CEE
S3150801071000F00701400800F0380000EB410000F145
S315080107201102DFF8080D0068205CD2B282420ADAAB
S31508010730831ADBB20F2BA8BF0F2300200090214696
S315080107402846F7F798FB31BDDFF8000C0068407BB7
S3150801075033281CBF4328532801D1012070470020A4
S3150801076070471FB5F8F78BF908B3DFF8E44B207823
S3150801077000A9FFF7C7FFDFF8DC1B002008700DF1A1
S315080107800300617901F024F9FFF7AFFF00F010F8D3
S3150801079000F08BFA007DC00702D507F0E0FD08B925
S315080107A007F097FA07F0DAFD012001F03FFA1FBDBD
S315080107B010B500F07AFA017BC91E032906D24088D2
S315080107C04FF6FF71884208BF032008D0FAF75CF993
S315080107D00446FAF75DF9214605F03FFB0220FAF7D0
S315080107E05FF902F069FBBDE8104000F03BBE38B581
S315080107F0DFF85C4B2075FFF778FF00214FF6FF7095
S3150801080001F0DFF9DFF8445B2868417B032918BF4B
S3150801081000291DD0332918BF432913D100F019F82F
S315080108202868017BC91E032906D203214173207D4D
S31508010830BDE83240F5F7E9BE207DF5F7E6FEBDE8ED
S315080108403140B5E721214173BDE8314001F0ADBF23
S3150801085031BD237D1322C3A10320F6F75ABF10B574
S3150801086000F0AEFB002048734FF6FE70FDF722FD3F
S315080108704FF6FF70FDF726FDDFF8D44AFFF7E9FFCB
S31508010880207DBDE81040F5F7C0BE3EB504462346B7
S31508010890E07A0FF2A0010290152294F90A0001905C
S315080108A02089009000F0FEF900F0FFF9407B78B945
S315080108B020894FF6FF7188420AD0DFF8C80B007805
S315080108C00A2805D1F5F751FE10B9F5F750FE08B11A
S315080108D070203EBD214601F037F8050008D10120F8
S315080108E001F015F800210120FFF741F9050001D0B3
S315080108F028463EBDDFF8580A007E08B1F9F7A2FF7F
S31508010900002208212046FAF719F930B104212046B8
S31508010910F2F7C0FA08B9A5203EBD00202074E0818F
S31508010920DFF8640B6061204600F0F6F80546F5F736
S31508010930D0FDDDE7423870574242000010B5044643
S315080109402346182287A10320F6F7E3FEDFF83C0BBE
S315080109500021017114B1FF2C02D10121017007E0B8
S31508010960012100F8041BA100491C0902F7F7F7FC4D
S3150801097000F078FD002010BDDFF8101B002008717B
S31508010980DCE730B50D4689B0044668690FF27C117B
S3150801099007902346287C06901622E8890590287B2D
S315080109A00490E87A039095F90A0002902889019043
S315080109B0009500F077F9287B00280CBF4FF6FE70EA
S315080109C0FDF774FC2B46224609B0BDE830400146C6
S315080109D001202DE9F041DFF8746980463068407BD3
S315080109E000280F4614461D464BD1002C49D0062C2B
S315080109F047DADFF8900A00780A2842D1F5F7B5FDFB
S31508010A0000283ED1F5F7B3FD08B1042C39DB287B64
S31508010A10032816D14FF6FE70874214D1012C08BF60
S31508010A20002710D0022C2CD1FDF740FC4FF6FC71A3
S31508010A30884202DAFDF73AFC01E001F061FC07465B
S31508010A4001E0012C1DD0B8F1000F0CD0287B03283A
S31508010A500CBF01210021012C0CBF01200020FFF74A
S31508010A6086F800284ED12946384600F06DFF002841
S31508010A7048D1F5F774FDF5F757FD20B1F5F777FD80
S31508010A8008B170203EE03068DFF8C478407B33282F
S31508010A901EBF532800207875204600F038FF387E9F
S31508010AA020B1F5F764FD08B9F9F7CCFE287B0328D0
S31508010AB003D12846BDE8F0412EE00822294607F170
S31508010AC00800F3F755FF287B0328A8BF00203874D0
S31508010AD0FFF70BFE94203875387C316800280CBF67
S31508010AE0012031204873002031687A7EB8740120CC
S31508010AF0897B00FA01F10320FBF7F8FB10B1326894
S31508010B0000215173BDE8F0810000000042423870AF
S31508010B10574242425742440010B504460022082172
S31508010B20FAF70CF808B1012010BDFDF7BFFB00224A
S31508010B304FF6FF7100F030FF217C204600F048FF98
S31508010B406269E189207C02F0EAF9DFF800080068A9
S31508010B50007B012808BFFFF71DFDFFF729FE0020CE
S31508010B6010BD00004242000038B5DFF8E0470546EF
S31508010B702068407B002802BFDFF8080900780A28A8
S31508010B8001D0702032BDFAF75CF8002843D12DB1A7
S31508010B9002222946DFF82C0BF3F7EAFE00A800F03B
S31508010BA0DCFF08B1932032BD9DF8003014221BA149
S31508010BB00320F6F7AEFD00F053FF68BB9DF8000071
S31508010BC000F0A5FE2068007B012818BF022806D080
S31508010BD0C01E03280FD2002000F0FFFF58B100F015
S31508010BE056FF2068007BC01E032838BF02F0AAFD05
S31508010BF0FFF7DEFD0FE02168132048730020DFF8B8
S31508010C005017887405222168897B012000FA01F1B1
S31508010C100520FBF76BFB002032BD000042420000B5
S31508010C20FF222DE9FC41044600F03FF80D46017B01
S31508010C300129904625D0407B022818BF032820D1D8
S31508010C40F9F7BFFFDFF808777A7E29460320FBF715
S31508010C504DFB060016D13320F9F722FFFFF745FDB4
S31508010C60FDF72CFBF880002C14BF022001203874F4
S31508010C7007F1080000F08FFF0020B87487F8158087
S31508010C8000E070260196009523462C220FF20C01EE
S31508010C9000F008F83046BDE8F681000042424442B9
S31508010CA0000000000320F6F734BDDFF8A00600684F
S31508010CB0704738B50446F6F7CBFF05462046F6F7E2
S31508010CC0C6FE44192046F7F751FE4FF6FF5101407B
S31508010CD02046BDE83440F7F750BE70B584B0FDF73D
S31508010CE0E5FADFF86C46064620780B21F6F78EFE04
S31508010CF0002100F066FFDFF85456F9F737FF58B1BF
S31508010D001EB14FF6F870864206DB01F0F9FA06467F
S31508010D10286840888642F8D03046FDF7CBFA207815
S31508010D200921F6F773FEFDF7CDFA2E68307B052803
S31508010D3013D100F03BFF8DF8080002AB207C002898
S31508010D400CBF4FF4804244F20102012000904FF497
S31508010D5080617088FEF7DAFA0FE006208DF8080040
S31508010D6000F024FF8DF8090002230020019000906D
S31508010D7002AA70880121FDF744FC0646FF2E08BF2A
S31508010D80002011D0286841883046F6F79CFE207C61
S31508010D9002281CBF3046FFF78CFF00F044F80446D2
S31508010DA03046F6F7C9FF204604B070BD70B586B067
S31508010DB00C4616461D4638B92046F5F703FB02AA26
S31508010DC003A9F9F762FC03A807218DF80810019019
S31508010DD0310A8DF80A1001200A998DF80B10009036
S31508010DE08DF80960042300F0BBFA0646FF2E18D0D9
S31508010DF02146F6F768FE15B93046FFF75AFF0B98F4
S31508010E0008B930460DE02046F9F76BFC18B13046B3
S31508010E10F5F718F801E000F006F83046F6F78CFF0A
S31508010E20FF2006B070BD0022002311463046FBF7AD
S31508010E30DFBF2DE9F64F83B004461E4600274FF65D
S31508010E40FF7556B14FF0010B3046FDF718FC814688
S31508010E507078400800F0010A05E0BB461046F6F72F
S31508010E6099FE8146BA4600F0AFF8C01E0328C0F0C5
S31508010E70A2800E98411C9DF81000C9B2F7F7E8F850
S31508010E80804608F0020002909DF80C0020B95FEA3E
S31508010E90086058BF48F08008FFF707FF407B022823
S31508010EA004D1DFF8E8050078204301D102271EE0C6
S31508010EB04846FDF7B0F99DF80C1019B1651EAD410C
S31508010EC0ED0F00E00025BBF1000F1CBF301DF7F741
S31508010ED04DFD012100912B46014642464846F9F748
S31508010EE032FB05464FF6FF70854208BF0127D6B18A
S31508010EF01CB94FF6FF70854204D1301DF7F736FD50
S31508010F00014600E0294601200190009753462A46EA
S31508010F104846FFF74BFF029850B94FF6FF7148460E
S31508010F20FCF718FA04E03A4629464846FBF76CF9F5
S31508010F30002F40D10298E8B149462846FCF72DFA18
S31508010F400E2101FB00F700F03BF8896A79184A7906
S31508010F5042F040024A71FCF753FAFFF7A6FE806A8F
S31508010F6038185FEA486241794CBF41F0800101F0C7
S31508010F707F014171FEB1DFF8AC6C9DF8100030704D
S31508010F80FDF794F95FEA48610FF22C0C48BF0CF1A2
S31508010F90010CBAF1000F18BF0CF1020C02D10CB901
S31508010FA00CF1040C01469CF800004B462A4606F053
S31508010FB071FFFF203070B0E003070004010500004F
S31508010FC0DFF8881309687047DFF880030068007B3B
S31508010FD070472DE9F04F0446884685B0914640464C
S31508010FE0F6F73FFDDA4D297C824601B10121D74E3C
S31508010FF08DF804103068007B05280CBF01270027EF
S315080110003CB15046FDF73BFB83465046FDF72AFBAC
S3150801101005E04046F6F7BEFD8346DFF80C0C039063
S315080110200423002000904A46414602A8F6F723FF0A
S315080110300DF10900F7F79AFC9DF80B908046CCB1A3
S315080110400398DFF8E41B0822F3F7DCFC002862D1D9
S3150801105000F08BF908BFB9F1000F0BD14046FDF737
S3150801106029F906F036FE9923FFF7F4FB9920F5F7DF
S31508011070CCFA50E0F9F77AFD00284CD09DF8040027
S31508011080384301D014B946E0002C44D1B9F1000F18
S3150801109003D09420FFF7ABFB3DE030684088594602
S315080110A0FCF77BF9FCF7ACF9306841885A464046AB
S315080110B000F072FC3068417B012916BF31291121E4
S315080110C0432141730220F5F744FAA24F40F6B8319D
S315080110D03846F7F744F902F035FB0020E874306822
S315080110E0C17E19B93846F7F72FF911E034B19AF8E4
S315080110F00110890702D5FFF734FB09E0007B001FC1
S31508011100022805D205213846F7F729F90620E87499
S31508011110AD20FFF7B4FAF5F7DCF905B0BDE8F08FB5
S315080111202DE9FE4F8046F6F79CFC0446F6F7DEFCF1
S3150801113005462F194046F6F78AFC2844C5B24046AB
S31508011140F6F728FD834638780090F9F731FD00282F
S315080111501CBF0098072816D10098DFF8F4A17B4E2A
S31508011160EC1C01284FF6FF790ED0022814D004286A
S3150801117000F0BE80062815D0072863D0082821D09C
S315080111807C2800F07F80DEE000210095002342469E
S315080111900846FFF74EFED6E02A4641460020FFF7ED
S315080111A018FFD0E05846F9F752FA484503D00146E8
S315080111B05846FAF7DAFF00F0D8F802D15846F6F79A
S315080111C046FBC0E0691C00F0C7F80746E1B200F02B
S315080111D0C4F80446A91D00F0BFF805464D45F0D0F0
S315080111E002F0B0FA3068407B132808D100F04FFCB2
S315080111F04046F6F7CFFC01462046FCF7CEF800F04C
S31508011200B4F818BF13281CD12846FDF753F83846F9
S31508011210FDF758F80021002000F0DAFB5946204670
S3150801122000F0CFFC9AF80300DFF8601A087000F0A6
S3150801123019F93068417B132903D123214173FBF73F
S31508011240E2F880E000F091F802BFDFF8444A20781E
S31508011250002878D1F5F78CFC05469AF91910012072
S315080112608840C0EB001B1FFA8BF60020F5F771F9D1
S3150801127095FBF6F006FB1050411C89B22046F7F79C
S315080112806EF860E07878652804BFB8786D285AD179
S315080112906648006818F80000E4B2844253D208226E
S315080112A0594601A8F3F764FB00AB002221464046E4
S315080112B0FDF792F8002846D19DF80000FF2842D094
S315080112C0DFF8D049DFF85C590120207085F80080E5
S315080112D0F5F744F901A89DF80010F6F7B2FAF5F703
S315080112E043F9FF202870002020709DF8000028E0AF
S315080112F04046F6F76CFC0446DFF89C090078FE28A0
S3150801130009DB4046F6F7B7FB000B00F00101204662
S31508011310F6F79BFA17E00FF6D4100088ADF8080027
S31508011320022300200190009000F01AF80546FF2DCF
S3150801133009D02146F6F7C7FB00212846F7F70AF92F
S315080113402846F6F7F9FCBDE8F78F0000F42B0020D4
S315080113501C280020D02B0020C9B24046F6F71FBF33
S3150801136002AA01212046FDF74CB93068407B0228C4
S31508011370704770B50220F5F7EDF8F5F7F4F8DFF8E0
S315080113801C59DFF81C6900202870F7F778FB28B18B
S315080113903068C07E10B9FFF7E4F93EE0DFF804498A
S315080113A0F7F76DFB10B9F9F7E1FB58B1E07C48B1E5
S315080113B0C8212846F6F7D3FFE07C401EE074F7F70C
S315080113C0FEF82AE03068407B132809D0F9F7CEFBEE
S315080113D030B93068407B11281CBF4328412803D106
S315080113E0207DFFF704FA18E0022818BF032803D066
S315080113F0002818BF212810D10024DFF8AC5808E0CE
S315080114002046F5F7B0F8002000F010FCF5F7ACF827
S31508011410641C2878E4B28442F2D3BDE87040F5F73B
S31508011420A3B8DFF880180020C87470471027002079
S3150801143080B50020F5F78EF8F5F795F8DFF850181E
S3150801144000200870DFF858080068417B022905D199
S31508011450007BC01E032828BFFAF7F5FEBDE8014048
S31508011460F5F782B880B5F5F78DF8FF2804D0074857
S31508011470007810B1012000E00020DFF8301808706C
S3150801148001BD00007428002000F8FF07C42B0020C6
S315080114902DE9F04F0446DFF8180800688DB0205C86
S315080114A000902046F6F7D4FB0646B01DF7F75EFA1C
S315080114B0074606F10900F7F759FA814606F10B00C6
S315080114C0F7F754FAADF80A0006F10D00F7F74EFAE8
S315080114D08346C00B8DF80800F9F76AFB18B1204658
S315080114E0F9F794FBEAE008A92046FFF70BF908AEDD
S315080114F0DFF8AC57B078C0F3C3000390707800F0FA
S315080115000F0A009820282868407BACBF9DF82E80DA
S315080115104FF00008022812D1FCF7D0FE81450ED102
S3150801152004A800F038FB00981C2806DB08220DF1F8
S31508011530230104A8F3F766FA08B101F024FEB7F50A
S31508011540004F02BF2BF4404040F6FF718842C9D1D3
S3150801155000981C28C6DB002208210DF12300F9F7A3
S31508011560EDFA002839D1DFF84C070078012830D187
S315080115709DF808000FF26C710090CDF804A04B4657
S315080115802722FFF78FFBDFF8300700788DF8120066
S31508011590ADF810908DF81CA08DF81D8008229DF8D5
S315080115A008008DF813000DF1230105A8F3F7E0F9FA
S315080115B02868DFF87076407B01281CBF33283C7009
S315080115C0F4F7CCFF04A8F9F703FDFF203870F4F708
S315080115D0CBFFDFF8D076B87C00286FD1F9F7C6FAC9
S315080115E000286BD0012078740022082107F1080031
S315080115F0F9F7A4FA10B1F888814508D008220DF147
S31508011600230107F10800F3F7FDF9002856D19DF8E3
S31508011610080028B92868407B312818BF33284DD1DE
S3150801162001215046FFF718F8002847D09DF82000F9
S31508011630002802BF7078000902283FD12868017B7B
S31508011640B278022902D1500709D437E0120606D426
S3150801165005291EBF4088BDF80A1088422ED1387860
S31508011660DFF85856DFF85866FF2813D07879804591
S315080116700BD197F9020096F9001088420ADB1DD1B1
S3150801168078782978884205D318E0A8EB0000C0B21B
S31508011690812813DAFFF729F83C702046F6F73EFB56
S315080116A0287878703078B87003980F28B4BF401C32
S315080116B00F20F87087F804A087F805800DB0BDE8FB
S315080116C0F08F0000D82B00202DE9FF410546DFF8F1
S315080116D0D44501200E461746A07400F00BFC0028DD
S315080116E013D1A846B8F1010F18BF002D0ED10097E6
S315080116F033462622B5A1FFF7D5FAF4F72FFF394667
S315080117003046F9F77AFCF4F72FFFA4E0F9F750FA17
S3150801171028B13A4631462846F9F777FA9BE0DFF8C9
S3150801172080552868407B23280BD1F9F7ADF9044683
S31508011730F9F7AEF9214604F090FB0220F9F7B0F962
S3150801174089E0002FFCD121281CBF0428532802D187
S3150801175001F02BF87FE0F9F709FA00285BD0267823
S31508011760FF2E05D1607C00280CBFAB20942066E0D3
S315080117702868007BC01E032889412079C90FFEF716
S315080117806BFF08B998205AE0F1F773FF0521304637
S31508011790F6F757F929688873F4F79BFE207C68BB2E
S315080117A02868007B052829D000F000FA0746092198
S315080117B03046F6F72BF980460B213046F6F726F91F
S315080117C03A464146FAF705FDE0B99420FEF757FF78
S315080117D00220F4F7BEFE2968DFF8C0044A7B012A15
S315080117E007D0312A18BF332A0ED1097B091F0229CE
S315080117F00AD2C821F6F7B3FD03200AE0FFF76DFA0E
S315080118000028E2D194201AE04FF41671F6F7A7FDE5
S315080118100020E0741FE02868407B132815D100F0EA
S3150801182017F9BDF80000FCF74DFD00F030F92868FE
S31508011830017BC91E032905D2332141739620FEF780
S31508011840D6FF08E0FEF7B4FF05E0B8F1020F04BFC2
S31508011850304605F064FF4FF40060F8F7E1FD10B972
S31508011860FBF717FB08B1F8F73DFBBDE8FF811FB58C
S31508011870044600208DF80000FFF717FA007840F0BB
S3150801188020008DF80100F9F793F918B12046F9F708
S31508011890C6F93AE00DF1030000F07DF90322FF21B4
S315080118A00DF10B00F3F7A7F801F023FB8DF80E00F5
S315080118B0DFF81014DFF8E003DFF80C240078DFF80E
S315080118C00C34097812781B78FE28A8BF0020091A5B
S315080118D09B1A9042B4BF101A0020DFF8B023127881
S315080118E0DBB2C0B2D200C018C9B242F004028842C3
S315080118F0B8BF42F080028DF8022000A90F222046C7
S31508011900F6F723FB401E8041C00F04B010BD38B561
S31508011910DFF88C5304462868017BA14203D004737F
S315080119202046F4F76FFE24B12868007B001F0228C1
S3150801193005D2F4F7E0FDFF2808BF012000D00020FA
S31508011940BDE83240F1F7DFBE38B50D460446E87A00
S315080119500B38102801D38A2032BD95F90A00F9F708
S3150801196011F908B18B2032BDCD48E97A0268917325
S315080119700068A97AC1732046FCF79CFC4FF6FE70F5
S3150801198084420CBF4FF6FF702889FCF79BFC288917
S31508011990C449C880002032BD38B50C461546FCF747
S315080119A089FC00F081FC2946204600F00AF9BD4869
S315080119B00178FF2918BFC07805D1FFF705FB012873
S315080119C00CBF00200120B149087031BD42424200D6
S315080119D07FB504460D4600F03BF8B14E94B1BC4ABA
S315080119E00021284601F09BFA306801788DF8041029
S315080119F00822007B8DF80500214602A8F2F7B8FFF8
S31508011A0005F0BCFA3068817B8DF80310C07B8DF830
S31508011A100200FCF753FCADF80000FCF747FCADF8F3
S31508011A20060000F017F87FBD1FB5044600F010F850
S31508011A301CB100208DF8050007E0FCF737FCADF86E
S31508011A400600FCF73BFCADF8000000F003F81FBDEB
S31508011A5000A833E01023072200A9002005F001B8E9
S31508011A6000B58BB0FFF7F4FFBDF80000ADF818001C
S31508011A7004A99DF803008DF81B009DF802008DF856
S31508011A801A00BDF80600FFF75FFF0BB000BD1FB5D2
S31508011A90012000F0A2F8044605F07BFAFFF7D8FF0B
S31508011AA01CB900224FF6FF7103E0FFF7FEF84188E3
S31508011AB0021DBDF80600FFF76FFF1FBD0146102383
S31508011AC00722012004F0CDBF38B50820F4F742FDFE
S31508011AD00446F4F748FD724D7E48296800788873F4
S31508011AE0F4F73FFDA04208BFF4F7C9FC0021002026
S31508011AF0FFF76EFF9B23FEF7ADFE9B20F4F785FDEE
S31508011B0028680021A0F84410A0F84610BDE8314025
S31508011B10F4F72ABD80B5A0F10B01102901D38A205B
S31508011B2002BDFFF74DFA497B022918BF032901D0E7
S31508011B30702002BD674908700820F4F70AFD0021E4
S31508011B406548F6F791FD20B1012808BFFFF7BCFFEC
S31508011B5001E0A12002BD002002BD1FB50446F9F728
S31508011B6027F818B12046F9F749F812E000A8FFF757
S31508011B70A5FF9DF8050040B1062806DAFFF720FA09
S31508011B809DF804200978914201D0932001E0207044
S31508011B90002004B010BD1FB5044600A8FFF78EFF4C
S31508011BA0082202A92046F2F7E3FE1FBD4B4800783A
S31508011BB000B140203A4A4A491268127B515C0843EF
S31508011BC07047374A1368588019B90822181DF2F761
S31508011BD012BF0822181DF2F7CBBE10B504462F48CE
S31508011BE0007AC00784B011D50A230A2200A9012068
S31508011BF004F037FFBDF808004FF6FF71884205D09B
S31508011C000822FF2100A8F8F799FF08B1002006E08D
S31508011C1024B1BDF8080000A9FFF7D3FF012004B0DD
S31508011C2010BD00004C280020082C002070B51B4D63
S31508011C300446287AC00784B00CD5194E3068418805
S31508011C404FF6FF72914207D100220821001DF8F7CD
S31508011C5075FF08B1002017E044B10220F4F779FCBA
S31508011C604FF4F0412846F6F77AFB0CE030684188D4
S31508011C70ADF808100822011D00A8F2F779FE0A231B
S31508011C800A22FFF7E9FE012004B070BDE22F002009
S31508011C90DC2B0020FC2B0020AA2F0020D02B0020B3
S31508011CA0F42B00201C28002054270020E42F0020B4
S31508011CB01027002074280020CE2F0020CC2F0020CA
S31508011CC0CD2F00208B270020992F0020982F002048
S31508011CD000F8FF07C42F0020C91A0108E7B4010854
S31508011CE080AA000842574242000000000460000032
S31508011CF010B50446FBF7FFF9FF280AD12046F4F789
S31508011D0061FBFF2805D07349096891F82C10401822
S31508011D10C0B210BD6F480068017B90F82C20006B9B
S31508011D20C91E032932BF00216B49097889188A001F
S31508011D3092B20021F2F75FBE10B50C4665490968F3
S31508011D4001F1280282B01379984211D2896A0E23C9
S31508011D5003FB0010811D08222046F2F709FE002226
S31508011D6008212046F8F7EAFE401E8041C00F16BD3D
S31508011D70C01A00AA2146C0B2F8F787FC0028EED09F
S31508011D80002016BD80B5534A1268126B52F82020FE
S31508011D90914201D3012002BD01461520F4F737FC13
S31508011DA0002002BD4B4A1268126B491C42F82010EA
S31508011DB070472DE9F041474D06462868876A8846E7
S31508011DC0002401E0641C0E37286890F82D00E4B25F
S31508011DD0844232D20822B91D3046F2F713FED0B931
S31508011DE04FF6FF7080451CBF3888804509D03146BB
S31508011DF04046FBF7D2FA04462868806A0E2101FBA1
S31508011E0004073648007820B17879800658BFFF2044
S31508011E102DD520462BE038888045D3D100220821CC
S31508011E20B81DF8F78BFE0028CCD12046FBF703FA3C
S31508011E30404600F008FBFE2019E031460020F8F77D
S31508011E4034FBFF2804460CD0244A2968127852B17B
S31508011E500A7DD20707D5224A126832F81000800493
S31508011E6001D4FF2002E091F82C002018C0B2BDE889
S31508011E70F08180B5FBF792FB16480068007B0128C4
S31508011E8012BF0228BDE80140F8F7CEBB01BD1149D2
S31508011E90096801F12802127990420CD310490968A0
S31508011EA0801AC0B231F81020D30410D442F48052FB
S31508011EB021F8102009E0896A0E2202FB00104179F7
S31508011EC0CA0604D441F0100141710120704700206F
S31508011ED070470000F42B002028270020E02F00205F
S31508011EE02C2700207047B5207047401CC0B27047A8
S31508011EF00120704700207047704700207047002076
S31508011F0070477047012070470120704770470000ED
S31508011F10C348007800B101207047F8B50546F5F7C2
S31508011F20A0FD0646F5F7E2FD845D2846F5F78FFD27
S31508011F3007463046F5F7DAFDBA490968695CC91BEF
S31508011F40091AFF227C2C08BF032204D0092C3CBFA6
S31508011F500FF2D420225CC9B291428041C043C00F1E
S31508011F60F2BD70B50446FCF79EFA05462046F5F71C
S31508011F7078FD4078400713D5A91C00F0D3F848B17D
S31508011F80294600F0C9F800F0C4F82EB1B04203DBC7
S31508011F90FF2801D0002070BD05EB4600851CADB2B7
S31508011FA029462046BDE87040FCF795BAF8B50446BF
S31508011FB0FCF746FB05462046F5F753FD0746A91CDF
S31508011FC000F0B0F800283DD0294600F0A5F800F049
S31508011FD0A0F80B2E36D20FF25C21715C4D19ADB209
S31508011FE005F10801012E89B20AD0022E0CD0052E60
S31508011FF011D0082E15D0092E18BF0A2E16D020E0AA
S3150801200080061ED50D461CE0C20648BF0D46800651
S3150801201017D5083514E07978C90613D505EB4005B7
S315080120200EE000F01F0000EB400008E010F0E001B0
S3150801203008D1092E06BF00F01F00400002204519ED
S31508012040ADB236E00020F2BDF8B50446FCF7F8FA61
S315080120500546691C00F066F848B3294600F05CF8A5
S31508012060064606F0030706F00C00032F18BF0428DE
S315080120701DD0022F00D1D0B93046FCF711FB451906
S315080120803006ADB212D5691C00F04CF880B1E9B240
S3150801209000F042F80146012F1CBF01F00300032896
S315080120A005D03046FCF70AFB4519ADB201E0002020
S315080120B0F2BD29462046BDE8F440FCF70CBAF8B54E
S315080120C00446FCF740FB0546A91C00F02BF8F0B1C5
S315080120D0294600F021F806460F2E18D20FF2601095
S315080120E0305C4719691CFFB200F015F8052E06D1B8
S315080120F006280CD20FF25811405CC71904E0082EC5
S3150801210008BF022801D10837FFB23946D2E70020B5
S31508012110F2BD0646691CC9B22046F5F799BF9DF876
S315080121200000291889B22046FCF7D5B910B582B046
S31508012130044600AA0621F8F75FFD9DF80000411C38
S31508012140FFF7F0FFD0B19DF80010FFF7E5FF9DF806
S315080121500010491DC9B24A1C00F00303012BD2B273
S3150801216008D0032B02D1C91CC9B204E000F0030050
S31508012170022800D111462046FCF7ADF916BD70B507
S3150801218082B0044600AA0A21F8F736FDC6B20A2E1D
S3150801219023D20FF2C400355CFFF7C1FFE8B1052E63
S315080121A019DA0FF2C0019DF80000711811F8011C27
S315080121B00918FFF7B0FF0646FFF7B1FF0021F2073E
S315080121C048BF0F21C6F341025118C6F3021251182E
S315080121D0C9B2081801D0012076BD002076BD38B5F0
S315080121E00F4A0FF28403127804460020002A02D10E
S315080121F0012032BD401CC0B2024613F8325045B127
S31508012200AC42F7D1084603EBC2014968884708B1D1
S3150801221032BD002421461E20F4F7F9F9002032BD0B
S31508012220A628002010270020FF0204FF0101010152
S3150801223008000000FF06080402020204020A0B0055
S31508012240FF21212121000C090202232316161C0055
S3150801225022231B1B22230000FF0D0E0F110152061C
S31508012260060000000B0C0D10010000001B1F0108E1
S3150801227002000000631F010803000000AD1F0108EA
S31508012280040000004920010805000000BF200108DC
S31508012290060000002D210108070000007F21010822
S315080122A0000000000000000010B5B64800210170CA
S315080122B009E0B54A126812F81120920702D5027888
S315080122C0521C0270491CC9B2B04A12789142F0D325
S315080122D000F0B5F8012818BF022804D100214FF6ED
S315080122E0FF70FFF76EFCAA49AA4C002008702078F7
S315080122F0FF2803D0F5F720FDFF202070012010BD2F
S315080123001CB5F4F735FC0400FBD04FF6F770844290
S31508012310F7DAFBF7CBFF8442F3D02046FAF7F5FE4E
S315080123200028EED100A9204601F0A3F80028E8D13B
S315080123302046FAF7B6FB0028E3D12046FAF773FCE4
S315080123400028DED100F079F80028DAD1204616BD3A
S3150801235038B5044600F073F8022821D1FBF7A6FF29
S315080123600546FBF7A3FF00F09EF8FFF7C9FFFBF749
S31508012370A1FF0020FFF758FB9923132280A1032010
S31508012380F5F7C7F99920F4F740F92CB10D2229463A
S315080123904FF6FD7000F004F9BDE8314005F099BC2F
S315080123A031BDF0B583B004460D461646FBF77EFFF0
S315080123B084420CBF01270027002D3CD04FF6FC7044
S315080123C0844238DA00F039F8002818BF002F04D003
S315080123D000F035F8C01E03282DD300F02EF8F8B901
S315080123E04FB108226C492846F2F70CFBD0B10120FF
S315080123F0FFF7AEFF14E0ACB100A92046FBF725FFB5
S3150801240080B90022082100A8F8F798FB50B90822DC
S3150801241000A92846F2F7F6FA20B1204600F013F88B
S315080124200120FEBD3EB121462846FAF7FDFF2146A9
S31508012430284600F0BFFF0020FEBD204673E057483E
S315080124400068007B704710B5044600F06CF860B967
S31508012450204600F028F80D2221464FF6FD7000F0BF
S315080124609FF82046BDE8104000E010BD1CB50446A3
S31508012470F3F7A8FFFF2815D04349096831F810205A
S31508012480530704D542F4806221F8102013BDFFF7E3
S3150801249037FF0246012001900123002000902146C2
S315080124A0FEF784FC13BD70B504464FF6FC708442F2
S315080124B038DA002C36D0FFF7C0FF98BBFFF7BFFF0D
S315080124C0001F02282ED32046FAF715FEFF2818BF4B
S315080124D0FAF7B1FE2046FAF75BFA08B1FAF71AF9E4
S315080124E0204600F04AFFF4F739F82046F5F7B2F925
S315080124F0F4F73AF8264E274D307820B9F5F77EFCE1
S31508012500FF2828700ED02878F5F7A2FB05461E226B
S315080125102946A81CF2F72CFA2C8030781F28BCBF54
S31508012520801C307070BD70B5044619480078A0B19A
S31508012530401C0004460C174800780025F6B2F5F74A
S3150801254087FB00E06D1CEDB22946B14205DA30F889
S315080125501110A142F6D1012070BD002070BD0C48B2
S31508012560017801B9704710B5491E0170C9B229B978
S31508012570084C2078F5F7E0FBFF20207010BD00001D
S3150801258042420000982F00202C2700208B2700208C
S31508012590E32F002096280020082C0020F42B002089
S315080125A070B504460D461646FBF780FE844205D1F2
S315080125B031462846BDE87040FF226AE02A46214690
S315080125C0304600F00BF80446FF2C06D0F6F764FAFD
S315080125D02046BDE87040F5F7AFBB70BDE0B50346D0
S315080125E0084603218DF808108DF80A2002A9120A57
S315080125F04B70CA700021019104230121009102AA9E
S315080126000021FBF7FEFF0EBDF8B504460D46F5F7AA
S3150801261028FA0646691CC9B22046F5F719FD074688
S31508012620A91CC9B22046F5F7BAFD0D2F05462CD1CE
S31508012630FFF779FF70B1301DF6F798F90546F67977
S315080126402046F5F72FFA024631462846BDE8F840F6
S31508012650FAF7F1BAB01CF6F789F94FF6F87188421C
S31508012660A4BF2046F6F798FF2846FFF71CFFFBF79D
S315080126701DFE854204D1BDE8F2400020FFF768BE81
S315080126802846BDE8F240FFF7F1BE22463946BDE8C5
S31508012690F840F0B504460D46A81F83B0164603D088
S315080126A0401F012809D9F7BD00A92046FBF7CDFD32
S315080126B018B9012100A800F05DFF0A4F3E70F3F733
S315080126C04DFF0B2D08BFA92003D00C2D0CBFAA2046
S315080126D04220214604F088F9F3F746FFFF203870B7
S315080126E0F7BD00004C28002080B5DFF82C13002028
S315080126F008710620F3F72EFFF3F735FFDFF81C0301
S315080127000068407B042814BF532800F04EF8BDE842
S315080127100140F3F729BFF8B5C04C23685D7B002D4E
S3150801272018BF212D05F00F0607D01D7B012D01D1FC
S31508012730850602D4B84D2F790FB17020F2BD2A70E3
S31508012740012EB74A118004D12120587300F02DF8C3
S3150801275029E081064CBF53210421597321680A7B5C
S31508012760D21E032A39BF4A8800F020004FF6FD72AF
S3150801277000F0A0000146104600F015F92068407BDC
S31508012780042804BF0120FFF74FF90620F3F7E1FEFD
S315080127902068007BC01E032834BF022008200102DE
S315080127A0281DF5F7DCFD0020F2BD80B501F017F80C
S315080127B0FAF774FBF3F795FC9A4800780A281CBFC8
S315080127C0BDE80140F9F71FBE0620F3F7C2FEBDE8D2
S315080127D0044001210FF20900F5F746BF0000000089
S315080127E010B50620F3F7B6FEF3F7BDFE8B4C20684D
S315080127F0417B532906D10321417301200021FEF7AC
S315080128000FFA26E0042918BF212922D10120FFF752
S315080128100BF94FF6FE70FBF74DFD4FF6FF70FBF710
S3150801282051FD0020FFF773F8FEF71CFEF6F702F9D3
S31508012830FFF762FB2068407B212802D1FEF70FF8DB
S3150801284007E00020F8F72CF900214FF4004004F0C6
S3150801285092FBF3F789FEBDE81040F3F73ABE2DE97E
S31508012860F8430E468046511CC9B23046F5F7F0FBCF
S3150801287005463046F5F7F5F80646B01CF6F776F83C
S31508012880664F81463868017B032905F0400403DB5E
S315080128904088804503D022E04069C0011FD484B135
S315080128A07078000708D53046FBF7DCFE08225E493A
S315080128B0F2F7A8F8002802E0FBF7F8FC81453DD1BC
S315080128C007E00329A4BF4FF6F870814508DBE8093C
S315080128D006D00122414605F0A000FFF71CFF6CBB9C
S315080128E03868007B032829DA7078C00626D5304671
S315080128F0FBF7C5FE054629460020F7F7D6FD06462D
S31508012900FF2E04D000F01CF83046F7F787FF404643
S31508012910FAF7F1FBFF2818BFFAF78DFCFBF7C6FC9F
S3150801292060B9F3F71BFE4FF6FF73022229464046AC
S3150801293004F090FABDE8F143F3F716BEBDE8F1835A
S315080129401CB5F7F792FE044600A9F7F7EFFE50B15A
S31508012950FBF7ACFC38B1F8F79FF820B1022200A9C1
S315080129602046FDF746FB13BD38B504460D46F3F779
S3150801297029FD0146FF2901D1012032BD274A1268E6
S31508012980D27E4AB1294A126832F81110490403D590
S31508012990F7F744FF002032BDFFF7D2FF45F04001AB
S315080129A02046BDE8344030B585B00446042001F020
S315080129B040058DF808008DF8091045B103A9204690
S315080129C0F7F7B4FE08B9012024E003A800E00020C7
S315080129D001900095022302AA01212046FBF711FE68
S315080129E00546FF2D08BF182014D04FF6F87084420B
S315080129F006DB0023002202212846FAF7F9F903E04B
S31508012A0021462846F6F7D5F9441EA4412846F5F786
S31508012A1093F9E00F05B030BD702D0020F42B00208E
S31508012A207E28002074280020082C00202C2700204E
