S017000052663463655A726332305461726765742E73333731
S3150800400098BC002061BD0208018E0208058E0208D0
S31508004010A70A080100410008040803AC50545604D6
S315080040200000000000000000000000000000000082
S315080040300000000000000000000000000000000072
S315080040400000000000000000FFFFFFFFFFFFFFFF6A
S31508004050FFFFFFFF00E00708000000000000000067
S31508004060FFFFFFFFFFFFFFFFFFFFFFFFFFFFFFFF52
S31508004070FFFFFFFFFFFFFFFFFFFFFFFFFFFFFFFF42
S31508004080F0FF002000000000E9FF0020E9FF002003
S3150800409098BC00207839030850C0020838B30020BD
S311080040A0000F00200000080800000120A6
S3150800410098BC002061BD0208018E0208058E0208CF
S315080041100D8E0208098E0208118E0208808F020889
S31508004120808F0208808F0208808F0208808F02081D
S31508004130158E0208808F0208808F0208E95C000845
S31508004140031A0208808F02080B930008808F020862
S31508004150F3DB00088D900008808F0208808F020824
S3150800416073820008DD520008E54D000891410008F9
S31508004170808F02081B920008639200085F89020874
S3150800418099E70008808F0208808F0208D187020805
S3150800419070B52C482C4942780B685B0725D5032A4D
S315080041A023DA838800EB4204A3810123847803FA87
S315080041B002F222438270254C0278002A12D000258A
S315080041C022FA05F6F60708D5AB4045705A40027044
S315080041D010EB4500808A206007E06D1CEDB2032DC8
S315080041E0EEDB02E02260032242704FF6FF700860A1
S315080041F0BFF35F8F70BD13480021017000220321B1
S3150800420041700021C1700521018100218170001DC6
S315080042100E490A604A604FF400428A601022CA605A
S315080042204861012088610320C860042106480164AA
S315080042304FF6FF7101604FF400600549086000F011
S3150800424045B8000068C6002010A8004004E00040F9
S3150800425000E100E0DFF8E03433F810001040C84011
S31508004260704730B50FF29054DFF8D03434F8104068
S315080042709C601140DFF8C04434F810509543294338
S31508004280D96002221A6000221A6024F810105868B1
S315080042900028FCD130BDDFF8A824DFF8A80412787E
S315080042A0DFF8A4140AB149780EE0895611F1090F0E
S315080042B0B8BF302108DBC16D39B1C26D40F24A3151
S315080042C0B1FBF2F189B2C91E01607047E0B5DFF8AB
S315080042D07C0401880A2300F064F8BDF806104FF63E
S315080042E0FF720D20FFF7BDFF07BDF8B50546B5F50A
S315080042F0004FDFF8544419D1DFF85404018802232B
S3150800430000F04FF8BDF80000000AFF2814BF002887
S3150800431018206070BDF800000006C00E10281CBFEB
S31508004320001D00F098F9BDF80000C543DFF81064D9
S31508004330707808B1002005E0A089ADB26840C007D2
S3150800434001D501207070DFF80C04A58105F0010481
S31508004350016841F400410160C5F340070FF2BC4013
S3150800436000EB44004FF440524078010389B2022022
S31508004370FFF777FF204600F053FA4022B90100F014
S3150800438005FA2D06A80E00F0010038433070FFF735
S3150800439082FF707818B1FFF799FF0020707000202F
S315080043A0F2BD7F2200A800F0B1BA2DE9F04FDFF880
S315080043B0AC43207887B0042304900B210B38C0B295
S315080043C0039000A8039A00F05FFB9DF800008DF8A3
S315080043D00A009DF801008DF809009DF802008DF885
S315080043E008009DF803008DF80500DFF874030078CF
S315080043F0012804D16078451EAD41ED0F00E0012586
S3150800440000F0BBFD83469DF902000399D24F0BF1DC
S315080044100A0AABF10A065045B6BF86424FF00108B4
S315080044204FF0000801208840ADF806009DF801000D
S31508004430000604D47888BDF80610084201D04FF06B
S31508004440010800F00BFE9DF8030000060AD4B888A0
S31508004450BDF80610084205D19DF900005045B8BFC1
S31508004460864202DB4FF0010901E04FF0000948EAF5
S31508004470050059EA000000F09E80DFF8E8A2BA4974
S31508004480DAF8000000F002008DF80400B74800686A
S3150800449000F4E06005904FF4E0600860002001F049
S315080044A0A6F901F0A6FCB24EADB1607858B1DAF8BB
S315080044B00000AB4940084000CAF800000120087017
S315080044C001F07CFD07E0306840F400503060306849
S315080044D020F480503060A248007801280DD101F000
S315080044E0BBFEDAF800009E4940F00100CAF8000059
S315080044F000200870642001F061FD2DB1607818B9BC
S315080045000498C0B201F06BFF607838B1306820F4C7
S3150800451080503060306840F400503060BDF80600C6
S31508004520C543B8F1000F08D002F044F88DF8010031
S315080045308DF802B0788828407880B9F1000F08D045
S3150800454002F0E9F88DF803008DF800B0B888284025
S31508004550B8809DF900009DF90A10884202BF9DF8AF
S3150800456001009DF8091088420BD19DF902009DF9BA
S315080045700810884202BF9DF803009DF8051088427E
S3150800458006D00399042300AAC9B20B2000F08DFABD
S3150800459005987649086000F0BDFA9DF8040001F018
S315080045A026F902F0D8F9607828B148F260703060D0
S315080045B0642001F003FD9DF8010001F067FF9DF8F6
S315080045C0030002F0A3F807B0BDE8F08F80B500F04D
S315080045D0C7FCBDE80140E8E600F0C2BC70B5064677
S315080045E0A6F10B0401F064F80546A6F10B001028A5
S315080045F001D38A2070BD5F488168090702D4006824
S31508004600C00701D58C2070BD544806705A48016809
S315080046100C290FD00FF27811584A92F90020A4B24B
S3150800462031F824105118C161FFF7BFFE012D08BFEC
S3150800463000F0DFFF002070BD10B5044600F090FCC6
S315080046402046BDE81040C9E74448007870473E4810
S3150800465090F9000070472DE9F041044614F12B0F3C
S3150800466086B045DB464801881423FFF79AFEBDF855
S3150800467010004FF6FF71884203D0400448BF012658
S3150800468006D43F2200211020FFF7E4FD0546002648
S3150800469004F12B022F2A2C483A491AD213220FF278
S315080046A0301300E0521ED2B213F91270BC42F9DB85
S315080046B003EB4204032764780C60002413F81210F5
S315080046C0017000208046AEB1BDF810104FF6BF72DB
S315080046D029E0092C0CDA225C0A60047014232A48A3
S315080046E00188FFF75EFE01240320A0462827EAE793
S315080046F08B201DE0C1024FF4605200F047F84FF4DA
S31508004700E062210200F042F880224FEAC81100F068
S315080047103DF885F020003D18ADB2402DA8BF3F25D5
S315080047203F2285F0200100F031F8FFF7B4FD0020A4
S3150800473006B0BDE8F0810000ECFA0020E810004061
S31508004740B9FF00206410004060C00020DA34030876
S31508004750E63403081C100040FAF500205BC0002070
S31508004760D4C000208020004080E100E000E100E0A5
S31508004770D010004060200040AC100040B8FF002078
S31508004780D6340308C0100040D83403080B2068E567
S31508004790AA2129005523290000252800AA26270032
S315080047A055282700002A2600AA2B2600552D250065
S315080047B0002F2400AA30240055322300003422009A
S315080047C0AA3522005537210000392000AA3A2000D0
S315080047D0D500E601EC02EF03F204F405F506F70747
S315080047E0F808F909FA0AFB0BFC0DFD0FFE11FF1379
S315080047F000160119021C031F1000110020003000CA
S315080048004000410050006000700080009000A00049
S31508004810B000C000D000E000F00000000000010376
S31508004820F0B5044689B0002001F060FB26480188EF
S315080048300A237F2200A800F069F8BDF802004FF6A7
S31508004840FF75A84204D1DC210FF2940002F0BCF8EF
S315080048500FF2A407002601E02A4616B94FF47C4257
S3150800486003E0022E08BF4EF23F0200A800F032F81D
S31508004870761C052EF0D3012C03D114237F2213486E
S3150800488002E014237F221248018803A800F03EF8AC
S3150800489000260FF26C072A4608E02A46012E08BFB2
S315080048A04FF6C07202D0082E08BF002203A800F0F7
S315080048B011F8761C0A2EF0D3012C04BF012001F052
S315080048C015FB09B0F0BD0000DA340308D834030834
S315080048D0D634030830F81610F05DFFF7C2BC0000A6
S315080048E0616E616C6F6775652D63656C6C2D6269A9
S315080048F061732E630000000000100C0D0E0000000E
S31508004900010203040708090A0B0F000030B5044624
S3150800491010467F2808BF0020B1F5004F83B01AD192
S3150800492008237F2240F6120100A8FFF7EFFF0822AE
S315080049300FF2C40100A802F08FF930B908237F22CC
S3150800494040F2A27100A8FFF7E1FF082200A920465D
S3150800495002F038F937BD204D294300FB03111A46EA
S31508004960204602F02FF937BD2DE9F0440C461A49C6
S315080049700FF2780A41EA0006C007154602D56221F9
S3150800498000F030F8E80702D5632100F02BF8134849
S31508004990864204D3A819401E1149884202D36421CD
S315080049A000F020F8002706E0B85DFF2802D06B214A
S315080049B000F018F87F1CAF42F6D36A082146304645
S315080049C002F0B4F928B15046BDE8F044712101F06F
S315080049D0FBBFBDE8F08400000000080800080808CE
S315080049E000100808504601F0EFBF00006D66672DFD
S315080049F0746F6B656E2E6300FFFFFFFFFFFFFFFFFF
S31508004A0030B50FF20C11DFF8F8500A6883B001A828
S31508004A100024026001202870002002F0CBF930B192
S31508004A20002002F0C7F910B12C7049203EBDDFF80E
S31508004A30D400018802237F220DF1020000F024F839
S31508004A4002237F22002100A800F01EF8204601A9B3
S31508004A50BDF8022031F81010914208BF0124401C0D
S31508004A600228F4D3BDF8000024B1B0F57F7F07D142
S31508004A7000203EBDB0F57F7F0CBF0620042000E075
S31508004A800720002129703EBD10B5FF2908DCDFF894
S31508004A907040247844B1BDE81040C9B202F0BDBCEC
S31508004AA0BDE81040FFF732BF10BD2DE9F0410546BD
S31508004AB0FF2D0E46174698460FF24C0012DC104C96
S31508004AC02178A1B1617811B1C22101F07DFF0120E1
S31508004AD06070434632463946E8B202F008FE0020C6
S31508004AE0607004E0BDE8F041CD2101F06DBFBDE87E
S31508004AF0F08103490978002918BF02F0FBBE704708
S31508004B00B3FF0020E2340308746F6B656E2E6300F2
S31508004B10FE01FD0210B5DFF8F4441020206302F010
S31508004B209BFFDFF8EC140A6842F001020A6002F003
S31508004B3099FFDFF8E00400F1080161602160923016
S31508004B4061688931616001212163E060A060DFF856
S31508004B50C814E0688930E060022020634FF6FF70D1
S31508004B60086010BDDFF8B40445F26401C1601E2177
S31508004B70416250210162C821C1618165F021C16588
S31508004B8045F690014166882181660621C16644F290
S31508004B90066101604FF6FF714160DFF88404007812
S31508004BA038B1DFF8800448F2607101604FF4C151F2
S31508004BB04160DFF87404016841F0040101600020D7
S31508004BC0DFF86814487070472DE9F04FDFF8441491
S31508004BD08A2283B002FB0012083200920427521C74
S31508004BE004465378127802EB0325ADB205F4406308
S31508004BF0B3F5006F05F440424FF000094FF0010A83
S31508004C0008BF082703D0B3F5406F08BF0E271AB1AF
S31508004C106B065CBFBB1CDFB2DFF814341B784B7025
S31508004C2040180190A806019981F8029064D5DFF82A
S31508004C300464706E00065FD500983818B2F5404FC8
S31508004C404FF4806B4FF4006807D102F011FF5FEA5A
S31508004C50000947D007F1080019E0B2F5004F41D125
S31508004C6000994078795C01EB002080B202F00CFFD5
S31508004C70FF2808BFCA4609D0DFF8BC13096831F80F
S31508004C8010004FF4FE6108422CD0D146B81CC0B2C1
S31508004C90410805F00702032A24D1002C14BF7268C4
S31508004CA032688A421ED3002C14BF726832684B1CC5
S31508004CB09A42F8D30099405C042813D1BAF1000F40
S31508004CC002D0B9F1000F0DD0F06DC00606D400F081
S31508004CD015F803D0706C40F001007064012001994A
S31508004CE0887009E0F06DC00606D500F007F803D015
S31508004CF0706C400840007064BDE8F78FB06C04B172
S31508004D00C34610EA0B0F70472DE9F04E0446C14E14
S31508004D10DFF820538A2000FB046000F1080B002C02
S31508004D200CBF28686868C1B2052903DA7068401C98
S31508004D30706055E040005FFA80F909EB0B00A0F1BE
S31508004D4008073878797801EB00201FFA80FA70781E
S31508004D50387002F0BBFF7870B84FF86B20F48050BB
S31508004D60F863686E14B93868400504D4012C1FD15D
S31508004D70386800051CD5B248017889B10021017050
S31508004D801AF4E45FAF48016802D00022402005E02B
S31508004D909BF80100000900F001028F2003F0CFF90B
S31508004DA0002C0CBF4FF480604FF40060386012E0AE
S31508004DB01AF4E45F0FD100F017FD10B15FEA4A401C
S31508004DC009D59BF80000802805DAA019494682789B
S31508004DD0584603F079FA002C0CBF012002202861FE
S31508004DE0BDE8F08E2DE9F0478B4C964E2068216C75
S31508004DF0904FDFF85482DFF84892DFF818A201EAEC
S31508004E00000519E038B14878C00604D43168002294
S31508004E108F2003F094F9280605D503F0E9F98020D8
S31508004E2025F080052060E80506D503F0E1F94FF482
S31508004E30807025F480752060002D5CD0280706D583
S31508004E400020FFF7C1FE082025F008052060E806C7
S31508004E5006D50120FFF7B8FE102025F010052060C2
S31508004E6005F06000602803D1B86CC0050AD401E0DB
S31508004E70A80605D52020206025F02005002006E09C
S31508004E80680606D54020206025F040050120FFF77A
S31508004E903BFFE80404D54FF4805025F48055206084
S31508004EA0E807B8D5012020606D089AF800006D0063
S31508004EB00028B0D000F011FC0128ACD199F8000008
S31508004EC00028A8D098F800000428A4D1F86840085B
S31508004ED000F001008A2101FB00A10831002814BF57
S31508004EE07A683A6812B92268D204F7D5002814BF3E
S31508004EF07868386886E700202060BDE8F087534860
S31508004F0000687047F0B504460D4689B000210320B5
S31508004F1001F0CAFC04AE1BE0002701F0E0FC26F80D
S31508004F20170001F0DCFC00A921F817007F1C082FE8
S31508004F30F3DB04A803F062FB00202080218836F802
S31508004F4010205140401C08282180F7DB6D1EA41C48
S31508004F50EDB2002DE0D101F0FEFC012009B0F0BD54
S31508004F600321022001F0A0BC4FF6FF71081A29217F
S31508004F7090FBF1F03A3040B2704738B501F0AFFC1B
S31508004F80FFF7F2FF324D04462878B0B90321032013
S31508004F9001F08AFC2F48018802237F2200A8FFF728
S31508004FA0B5FC01F09CFCBDF80010401880B2FFF774
S31508004FB0DBFF153868700120287001F0CCFC687892
S31508004FC0201A40B232BD80B50321022001F06CFCE4
S31508004FD0BDE80140D1E770B51F480078002490B9B4
S31508004FE0FFF7F1FF114E0546707848B13078401B3F
S31508004FF040B203F014FB0B2805DB3570012402E0F0
S31508005000012035707070204670BD000000200040F9
S3150800501084200040BCFB002000A000404C1000404B
S315080050205CC00020D010004080200040D4FF002043
S315080050305BC0002020200040E4BD002004A0004002
S315080050408CFD002094FD0020D3C0002038200040AD
S31508005050D2FF0020E0340308D4C0002010B50D4864
S31508005060018884B00A237F2200A8FFF74FFCBDF809
S3150800507000004FF6FF74A04204D14E210FF218002B
S3150800508001F0A2FCBDF8001022460020FFF7E9F85F
S315080050901FBD0000DA340308616E616C6F677565C1
S315080050A02D66696C7465722E63000000DFF8A80728
S315080050B0007848B1DFF8A4070179012904BF4079CF
S315080050C0042801D101207047002070470FF62801F7
S315080050D0405C7047010603D54FF67F710840C00053
S315080050E070478001B0FBF1F080B2FF288CBF00202A
S315080050F0C0F1FF00C0B2704738B5DFF86407C17861
S31508005100012901D1002032BDDFF86047617871B10D
S31508005110E178407945182079ADB2854228BF054621
S3150800512003F096FA0121A940491E084000E0002034
S3150800513061790818C0B232BD2DE9F0470446C007A8
S3150800514005D54FF4B8710FF2A07001F03DFCDFF8F9
S315080051502057286DC00748BF8C2000F19480DFF8DF
S315080051600007DFF808770021017101704178B1B9AD
S315080051703978A1B12178122918BF0C290BD1627888
S3150800518002F00702032A02BF091911F8021C0429B2
S3150800519004BF01210171A96F41F0010102E0A96F65
S315080051A049084900A967DFF8B4867A7898F806109E
S315080051B0DFF8C096DFF8C06692B100224271012975
S315080051C0286D40F00400286506D14FF6FF70306060
S315080051D04FF40070C9F80000FFF78EFF82460CE016
S315080051E0286D20F00400012928654FF0000A04D133
S315080051F000F02CFA642000F0E1FEA86F20F0080009
S31508005200A8671420E864C5F848A0787838B198F8F3
S315080052100600002801BFA86C00280120A864B879F8
S315080052200028286D14BF40F0080020F00800286503
S31508005230FFF73CFF18B1306C40F0080030642020BE
S3150800524028626C602C604FF4E06468687F306860A0
S3150800525004202862DFF82406046006E003F008FA52
S3150800526018B103F00DFA02F0F7FBDFF81406006830
S3150800527000F003000328F1D0C9F80040286D40F07B
S31508005280010028650020BDE8F087DFF8F805002151
S3150800529041608160016821F0020101604FF00070F1
S315080052A0DFF8E41508600120DFF8E015087070479C
S315080052B0A0F13301DFF8D825914200D3704710B525
S315080052C0DFF8C8450021217000F065FB02E00120E7
S315080052D003F0DAF920780028F9D010BD2DE9F84F47
S315080052E0DFF89485DFF87855D8F80000D8F840102C
S315080052F0DFF87C7501EA0004A4B2C8F800406878B3
S31508005300002840F0D580E007DFF88865DFF85C956F
S315080053104CD5D7F800A0386C796C41EA004199F869
S315080053200000A96000283DD09AF80100800639D50A
S3150800533001202870FFF7BAFEC0B3192000F03EFE20
S315080053404FF44040DFF850B5CBF82800DBF80000F2
S315080053500090F06E40F40050F066F06E40F4805015
S31508005360F0669AF80010A8684901B83101EB000AFE
S31508005370FFF7C5FDAAEB00000003000BFFF798FF37
S31508005380F06E80098001F06600A9F06E098808436E
S31508005390F0660020CBF8280048F26070F066E888CE
S315080053A0306003E00022002002F0C9FE20060ED578
S315080053B0287830B1002028700022A968402002F021
S315080053C0BEFED8F83C0020F48050C8F83C006006C1
S315080053D008D5687830B9FFF792FD01460022892082
S315080053E002F0ADFEE00654D5DFF870A4DFF884B409
S315080053F09AF80400012804BF9AF8061001291FD15B
S3150800540000F02AFF386F40F00100386700208AF85C
S315080054100600FFF77FFB0A2000F0D0FD4FF6FF706D
S31508005420C8F8000000244FF4E060CBF8000009201B
S31508005430B8660120B864B86F40F00800B86718E08D
S31508005440697999F80220491C6971C9B2914215D245
S31508005450012808BF00F0CDF8B86F20F00800B8673B
S315080054601420B866FFF748FEB8644FF40070CBF80E
S315080054700000386D40F0010038650AE0012808BFD1
S3150800548000F0B7F8FFF73BFD014600228D2002F039
S3150800549056FE20070CD5FFF709FE48B13068E880AC
S315080054A001203060D8F8400020F00800C8F8400015
S315080054B0A0060AD520203862687830B9FFF71FFDA4
S315080054C001460022882002F03AFE687820B114F4DA
S315080054D0407F04BF0120A870BDE8F18F70B582B087
S315080054E00446FFF779F8DFF8BC03DFF878530021A4
S315080054F001601521E960092101651F21416001212B
S315080055000166DFF89C030088FEF7EFFEFFF72AFB2B
S3150800551003F070FB00F02EF9DFF84063308900F0E5
S3150800552056F9708900F05BF902F096FA696841F05D
S315080055304001696002F096FA707800F0F0F8B078E9
S3150800554000F0FDF8DFF86003007800F02AF9DFF8CC
S315080055505C0390F90000FFF77EF8307800F047F911
S3150800556096F9030000F04FF9DFF8440300F06DF9EF
S31508005570BDF80000DFF83C13C0054CBF0020BDF89D
S3150800558000000870DFF830030078FFF727F828B125
S315080055900FF2543040F2B63101F016FA012C05D15B
S315080055A02868C00711D500F024F80EE06CB9286801
S315080055B0C0070AD400F050FE286840F001002860B1
S315080055C0C82000F0FBFC0020B071F120DFF8A842EB
S315080055D0206440F2F910E063FFF79CFA2868C007D8
S315080055E004D54FF6FF70206000F05DF800F001FC6E
S315080055F073BD70B5DFF8C452DFF860422E68A07933
S31508005600012822D002F028FAB6B2DFF870222E60FE
S315080056104FF4E0611160DFF884120A6A52085200FA
S315080056200A620A68520852000A600A6842F00202D0
S315080056300A604A6A42F001024A620121A17102F037
S3150800564011FABDE8704000F000BE70BD70B5834C1D
S31508005650A07938B300F000FE02F0FEF90546DFF83F
S315080056606012814E01200860306D40F001003065FF
S315080056700020A071FFF74EFA20203060306B40F012
S3150800568002003063F06D40F00800F065284602F02D
S31508005690E9F90A2000F092FC77494FF6FF70086096
S315080056A000F001F870BD4FF4E06072490860704779
S315080056B06A488079704710B5684CA07928B140F2DD
S315080056C0A7410FF2242001F07FF92079012804BFB1
S315080056D0BDE81040FFF78DBF10BD604800797047E0
S315080056E080B5022801DB012002BD5C490871897971
S315080056F0884205D010B9FFF7A9FF01E0FFF779FF47
S31508005700002002BD6F480068800200149A3801B272
S3150800571011F1800FB8BF6FF07F0040B2704710B527
S31508005720044602F099F968490A68002C14BF42F049
S31508005730120222F012020A6048494C7040E038B55D
S31508005740044602F089F9054600F009FE40B95E48AC
S315080057500168002C14BF41F0800121F0800101602E
S315080057603E4884702846BDE8324002F07BB93B4883
S315080057708078704755494A780B78554803EB0222DA
S3150800578002608B78CA7803EB022242600B794A7969
S3150800579003EB02228260CA79897901EB0221C16092
S315080057A0704710B5044602F057F947490A68002CB5
S315080057B014BF42F0200222F020020A603A490C7017
S315080057C0BDE8104002F04EB92448008970472349C5
S315080057D008814049086070472048408970471F493A
S315080057E048813D49086070473C48007870471D4924
S315080057F00A68002814BF42F0020222F002020A6078
S3150800580016490870704738B504467F2C0AD13448C3
S3150800581000F01BF8BDF80000C00554BFBDF80040F5
S315080058206FF04A0402F018F9054600F098FD30B901
S3150800583064B204F19A0080052A49000C08600748FA
S31508005840C470284602F00EF931BD018802237F2272
S3150800585000A8FFF75BB80000DBFF0020CEC00020E1
S315080058608CFD0020802000403020004098C0002099
S315080058701020004000E100E004A0004080E100E0C4
S31508005880A820004010E000E004ED00E0DCFF002066
S31508005890CDFF070064100040E4100040602000407F
S315080058A06CC000205C100040DAFF002060C00020B9
S315080058B0EA340308B8FF00205BC000201C10004033
S315080058C0281000400C100040842000406CFB00208B
S315080058D0982000409420004090200040CCC0002032
S315080058E0F0340308541000407068792D636F6D6DAD
S315080058F06F6E2E6300000000FEFEF7F7C8C80100B1
S31508005900DFF860155120086070472DE9F04105461B
S3150800591003F084F9DFF85015B0FBF1F64FF4F07098
S31508005920B0FBF6F71E2D3FB201DBE81B04D5A8B283
S31508005930BDE8F04100F042BB02F08EF8804603F065
S31508005940D9F9DFF82815DFF828250120487007213E
S31508005950DFF8200500F041F8E91B09B27143C91CBC
S315080059608908491EDFF81055416000F0BDF8DFF8D8
S31508005970F4743C68386820F04000386003F0BCF9DD
S315080059803C602E6003F0BCF903F0C2F94046BDE85E
S31508005990F04102F067B838B5054603F03FF9DFF87D
S315080059A0C814B0FBF1F44FF4F070B0FBF4F02D1A04
S315080059B01E2D04DA95210FF2085001F005F8DFF8DC
S315080059C0B404DFF8AC24072100F007F805FB04F15E
S315080059D0C91C8908491E416031BD0160002141602A
S315080059E081604FF0007111607047DFF88024012153
S315080059F05170D0E7DFF88404006800B970472DE9D4
S31508005A00F041DFF87C54DFF87C6400242C603460B5
S31508005A104FF4A040706041F29A084046FFF775FFC0
S31508005A206F6803F003F9000142F21071B0FBF1F060
S31508005A3000F5C870C01B00B24FF4487190FBF1F036
S31508005A4000B20828A8BF072004DA10F1080FB8BF6B
S31508005A506FF0070030604046FFF757FF08274046BB
S31508005A60FFF753FF686804197F1EF8D103F0DEF8C4
S31508005A70211D4001C908B0FBF1F080B27060BDE895
S31508005A80F081DFF8F803006800B9704738B5DFF829
S31508005A90F85301206FF00F04A8602C608020FFF7F0
S31508005AA034FFE868FF2802D8641C102CF5DB31BDEA
S31508005AB070B5DFF8D803016841F0010101600121E2
S31508005AC0416001F0C9FF0446DFF8AC5300F00CF85A
S31508005AD05120DFF8901308602E6003F011F9204674
S31508005AE0BDE8704001F0BEBF2E6828684008400037
S31508005AF0286003F005B90020704710B5DFF87C036D
S31508005B00DFF8684300680128BCBF032000F01DF8D1
S31508005B100120207000202071DFF87403816901F0EC
S31508005B200301032907D10020A070042000F07DF8A6
S31508005B300120207110BD0F21016002218161012021
S31508005B40E0706420BDE810404FE72DE9F041CB4AEC
S31508005B50C64D146840F2DC51012C8846CC4ECD4F18
S31508005B6015DA0221B9803160B16901F00301032910
S31508005B7059D0002C03D5B16941F00201B161FFF794
S31508005B80BAFF5FEA00081AD1002C4CD549E0B8885C
S31508005B904FF6FF74A0421DD1BF48018802237F2219
S31508005BA0381DFEF7B3FEB888A04204BF0220B880AD
S31508005BB0B069800703D4B06940F00200B0610120E3
S31508005BC0A870B88830600FFA88F0FFF70EFF4046D5
S31508005BD0BDE8F081B3699B07EDD5AB780BB10846F4
S31508005BE0F6E7B168B36811F0010103D10F2809D2AD
S31508005BF0401C06E09B0705D53B781BB1032801DB53
S31508005C002018B880B88839700228BCBF0220B8802E
S31508005C103068B9888842D2D1B06900F003000328F9
S31508005C2001D0FFF745FF0020D2E72DE9F04780466F
S31508005C3000248C4D904E01F00FFF814603F05AF870
S31508005C404046FFF782FF08B901240AE000F0CAF8C7
S31508005C50D5F800A000F02EF9C5F800A0376003F0CB
S31508005C604FF803F055F8484601F0FCFE002CE2D048
S31508005C70BDE8F0870220D8E710B57E487B4C0021A6
S31508005C8041608160016821F00201016000206070B6
S31508005C904FF0007076490860A07838B10020A070EF
S31508005CA00620FFF728FF00F098F81CDBE0780128AB
S31508005CB014D17A480121016079490968C90748BFA2
S31508005CC003200FD40221E170016C41F00101016447
S31508005CD00420744908607449086010BDE0780428F7
S31508005CE001D10520E07010BD80B5604840780028D5
S31508005CF01CBFBDE80140FFF7BFBFFFF7C6FA01BDED
S31508005D002DE9F84300F069F803DABDE8F243042008
S31508005D108BE7564C207900B35DE001F09DFE054601
S31508005D2002F0E8FFE078032812D000F05AF8DFF80E
S31508005D303481D8F80090D8F8000020F04000C8F860
S31508005D40000002F0D9FFC8F80090376002F0D8FFCB
S31508005D5002F0DEFF284601F085FEE0780328DCD154
S31508005D604C4E4B4DB08828604FF6FF777088B84286
S31508005D700CD14E48018802237F22B01CFEF7C6FDCF
S31508005D807088B84202D16420708001E07088C8B17A
S31508005D9002F04CFF7188344AB0FBF2F048432F30CA
S31508005DA03021B0FBF1F042494A6D42F001024A65E2
S31508005DB00A68AB68DB07FBD50B689B1A1B031B0B32
S31508005DC08342F6D3FFF774FE0420E0704FF4C870E0
S31508005DD0BDE8F24309E6BDE8F183284800680128D2
S31508005DE07047254E3768306840084000306002F03A
S31508005DF087BF2DE9F8431D4C207800282DD020793F
S31508005E0000282AD1FFF7E9FF1FDA40F2EF310FF237
S31508005E10B00000F0D9FD18E001F01EFE804602F041
S31508005E2069FFE07805280BD0FFF7DBFF0D4DD5F8A5
S31508005E30009000F03FF8C5F80090376002F060FF68
S31508005E4002F066FF404601F00DFEE0780528E3D132
S31508005E500020A0700520FFF7E8FE00202070BDE8AE
S31508005E60F18300000080004090D00300CAFF0020A4
S31508005E7004ED00E010E000E094ED00E0982B030844
S31508005E80104000400C000040084000401C40004004
S31508005E9004400040B0C00020E834030818A00040C1
S31508005EA00C40004080E200E000E100E0EC3403082A
S31508005EB038200040286820F04000286002F01CBF07
S31508005EC0636C6F636B732E630000000010B5754C2E
S31508005ED0002000F046FD40F68C2188422068B4BFB9
S31508005EE040F0080020F00800206010BD10B50446F8
S31508005EF06D48018882B000F05CF89DF800109DF8A6
S31508005F000100FF2902BFFF280420002104B1801CDC
S31508005F10664A1368C0B20828A8BF072023F460732E
S31508005F2043EAC010106008291068A8BF0721C008F6
S31508005F3041EAC00010605E48047013BD00B55D48B4
S31508005F40018883B000F035F8BDF800004FF6FF7100
S31508005F5088420EBF4FF4E1600A2190FBF1F0ADF8DC
S31508005F6000005348007808B34F48018802237F226F
S31508005F7001A8FEF7CBFC9DF80500BDF80030FF2808
S31508005F8008BF0420811CC9B20829A8BF0721C1F18E
S31508005F902F0202EBD272C0F12F00521000FB032031
S31508005FA0C1F12F01B0FBF1F0ADF80000BDF800001B
S31508005FB00EBD02237F2200A8FEF7A8BC70B53E4C92
S31508005FC02568064602F032FE3C49B0FBF1F0704304
S31508005FD02F303021B0FBF1F0032809D3616D41F071
S31508005FE0010161652168491B0903090B8142F9D33F
S31508005FF070BD10B5040004D110BD4FF47A70FFF7D8
S31508006000DDFF2046441E80B20028F6D110BD2C487C
S31508006010017869B9C078072818BF092814D0032859
S3150800602018BF112810D013281CBF15280B280BD011
S315080060302448016841F480720260C80504D43821F6
S315080060400FF2900000F0C0BC704738B50C4620B17E
S3150800605001280FD0032820D021E01B4D44B102F0BF
S31508006060E5FD1A49B0FBF1F0401EB0F5005F0CD211
S31508006070286012E04CB102F0D9FD610801EB40003E
S31508006080B0FBF4F0B0F5003F01D3202032BD104933
S3150800609000F001024A6040080860002032BD212055
S315080060A032BD000000BC0040DC3403081800004084
S315080060B0BBFF0020DE3403083820004090D00300E0
S315080060C09607080838400040100004E020A10700A1
S315080060D068C800407573625F6572726F722E6300DE
S315080060E038B50120FFF731FD0020FFF7FFFE724C9F
S315080060F0206840F00800206002F09FFDFFF7E6FEEA
S315080061006E496F480A78C2604B786E4AD3608D78BC
S315080061106D4BDD608D880560CD8845600889106007
S315080061204889506088891860C889586000F08DF8D9
S31508006130206820F010002060FEF75DF802F0A5FF49
S3150800614003F01AF8FFF796FD02F075FDBDE8314039
S3150800615002F091BD40F2016003F0B6B810B502F046
S3150800616077FF5A4900F001F810BD55480A78C26011
S315080061704B78544AD3608C78534BDC608C88046027
S31508006180CC884460088910604889506088891860FE
S31508006190C8895860704710B500E010B5FFF7ADFC28
S315080061A0FFF794FE4549FFF7E0FF00F04EF8424836
S315080061B0016821F010010160FEF71DF8FFF7A0FD48
S315080061C0BDE8104002F04DBFF0B50B68414C0F25F5
S315080061D02468960005FA06F6344215D0002606EB22
S315080061E0820724FA07F7FF070BD5B70005FA07FC5D
S315080061F023EA0C0330F812C005FA07F707EA0C077A
S315080062003B43761C042EEADB0B60F0BDF0B50B6849
S31508006210304CFF252468D600B5402C4213D0002503
S31508006220012605EBC20724FA07F7FF0708D506FA81
S3150800623005F7BB43175C06FA05FC0CEA07073B4360
S315080062406D1C082DEDDB0B60F0BD10B5214800680C
S3150800625008B11E4C07E010BD10B51E48006808B10D
S31508006260164C00E010BD1C4900222046FFF7CEFF61
S3150800627001221A492046FFF7C9FF0222184920467B
S31508006280FFF7C4FF00220E4900F030F8012210493A
S3150800629000F02CF802220B4900F028F803221149D5
S315080062A000F024F80422084900F020F8201DBDE873
S315080062B0104005220C4987E700BC0040A8BE002014
S315080062C000B0004000B2004000B40040B8BE002054
S315080062D004B0004098C900200CB000400CB2004041
S315080062E00CB4004004B2004004B40040201D6BE723
S315080062F00320FEF7FEBB80B503F0DDF80FF264015C
S3150800630009E080B503F0DBF80FF284010204120EEF
S3150800631051F82210C0B201EB800002BD10B503F09F
S31508006320CAF8044603F0CBF8C0B208B9012C07D165
S31508006330072C11D8DFE804F004100608080A0C0E2A
S31508006340002010BD092010BD022010BD032010BD7D
S315080063500B2010BD062010BD44F0800010BD0020A3
S3150800636070470000554E4B004649420042544C00C7
S315080063704558540050575200574447002053570079
S31508006380435253004653480042414400464C540089
S315080063909C2B0308A02B0308F82B0308182C0308CA
S315080063A0202C03082C2C0308382C0308442C03083B
S315080063B04C2C0308582C0308682C03082A490A6839
S315080063C0920992010A600A68104308604FF4004176
S315080063D026480160002101606420FFF7EFBD2DE922
S315080063E0F047234D204FD5F80090224C8046286868
S315080063F040F400402860386820F4805038602078DF
S3150800640068B162781C48A17800EB820200EB88002C
S3150800641012F82A2C10F82A0C891A461802E00120CC
S3150800642020262070B0B2FFF7C9FF0FF2500A02E02B
S31508006430B0B2FFF7C3FF386B042805D0386B4007A6
S3150800644054BF761E761CF3E7F86A38B184F80180E3
S31508006450A6701FFA89F02860BDE8F08740F221117E
S31508006460504600F0B1FAE6E7D01000401810004098
S315080064701C100040D7FF002090470008616E616C31
S315080064806F6775652D76636F2E63000081014FF483
S31508006490FE5289B20C20FDF7E4BE2DE9F84F8F4C69
S315080064A0A56820680127ADB200264FF00A08B9464C
S315080064B01FFA80FA00F04FFAB0202063DFF820B206
S315080064C008E016F1190FB8BF4FF00A08464436B26D
S315080064D07019A060DBF80000000702D559EA07002A
S315080064E028D00120FFF76AFDB9F1000F11D0AAF1F3
S315080064F00300874202DAF81C87B213E00AF5004067
S31508006500206057460621092000F0CEF94FF0000911
S315080065100BE0DBF80000000707D5042FA6BFF81E1E
S3150800652087B2002707F5004020601A2EC9DB6FF0F6
S315080065300908CBE7A560C4F800A00820CBF800003E
S315080065406848006880B2BDE8F28F80B5624B66493C
S315080065501B784FF0FF326BB1002819BF4A606348B9
S31508006560486041F211100860614841880088BDE81A
S31508006570044092E7002819BF4A600A60486008602C
S3150800658000F0E9F9BDE804400621092000F0DDB96C
S3150800659038B50120FFF7D9FF04460020FFF7D5FFDD
S315080065A005460120FFF7D1FF4042001B00EB4500DE
S315080065B000B232BD2DE9FE4F4E4CDFF83C81A06A91
S315080065C0454EADF802002568D8F800B0307860B1BD
S315080065D04FF6FF7200210820FDF73CFEADF80000DB
S315080065E0C022C0210820FDF73CFE4448DFF8109180
S315080065F0007818B148F26070C9F80000708840F455
S31508006600404040F04C00C9F83C000220A06201203E
S31508006610206040F24C40FFF7D1FC0120C8F80C007E
S31508006620C8F800000020324F388040207880307843
S3150800663000B12020FFF72AFFFFF7AAFF8246402075
S3150800664038807F207880FFF721FFFFF7A1FF0290AF
S31508006650504601F0E4FFFE2101FB00F70298AAEB81
S3150800666000000190307860B1029801F0D8FF8246A8
S31508006670019801F0D4FF80B207EB8A11B1FBF0F064
S3150800668005E0019801F0CBFF80B2B7FBF0F080B2CD
S31508006690401CC7031FFA8BF0C8F80000ADB20020F3
S315080066A0C8F80C00022020602560BDF80200A06230
S315080066B00020C9F83C00307830B1BDF800104FF61C
S315080066C0FF720820FDF7CDFD40F24C40FFF776FC3F
S315080066D0380CBDE8FE8F0000C8C00020C01000407E
S315080066E018A000400070004038100040EEEEFFFF92
S315080066F094FF002060200040281000405CC0002065
S31508006700D010004041003F2289B201E001463F22F5
S315080067100220FDF7A6BD2DE9F04F564C564D95B013
S31508006720E06CADF810004FF6FF782068ADF80E0063
S315080067304246E86AADF80C0000210120FDF78AFD03
S31508006740ADF80A00424600210B20FDF783FDADF89F
S3150800675008004FF40040206000202861686148F274
S31508006760020000F08BF84CF68C30E0644FF480524F
S3150800677048F2F000E86211460120FDF772FD424634
S3150800678000210B20FDF76DFD0621062000F0DDF83F
S31508006790019000F085F800904CF69C30E0640020EB
S315080067A0FFF7B0FF0621084600F07EF800260DF137
S315080067B0140BB0B2FFF7A6FF0621062000F074F806
S315080067C000F08DF82BF81600761C202EF1DB00F071
S315080067D086F81020FFF796FF00F062F80099019AF4
S315080067E0401ABBF82010891A404301FB01094FF0F3
S315080067F0100A112700F04EF800F052F800F043F89E
S3150800680006DB81461FFA87FA781C07B2202FF1DBD0
S31508006810BAF1100F0ED10F2700F03CF800F040F83F
S3150800682000F031F806DB81461FFA87FA781E07B2B0
S31508006830002FF1D5BDF81000E0644246BDF80E0001
S315080068402060BDF80C00E8620120BDF80A10FDF7CB
S3150800685008FDBDF8081042460B20FDF702FD012091
S315080068602861002000F00AF84FEA4A00C0B215B0C5
S31508006870BDE8F08FC010004018100040286040F2B4
S315080068804C40FFF79BBB0099401A404306FB0600A5
S31508006890484570473BF817000199461AB8B231E7E0
S315080068A00621072000F051B870B505460E4602F0DD
S315080068B021FA3D4C206C20F00800206402F028FAEA
S315080068C001F0CAF8310341EAC511384A41F001011D
S315080068D0116008212160BDE8704001F0C3B82DE9B8
S315080068E0F041334C334D304E25E002F003FA32497D
S315080068F004200860306C40F0080030642F6828686F
S3150800690040084000286002F0FBF9D4F800802068AF
S3150800691020F04000206002F0EFF9C4F800802F60F4
S3150800692002F0EEF9306C254920F0080030640420A6
S31508006930086002F0EDF930680007D6D50820306007
S315080069401F48006880B2BDE8F08180B5FFF7ACFF4C
S31508006950BDE80140C3E715480168490849000160D8
S315080069607047F8B50746FFF7E9FA044639460320A3
S31508006970FFF7EBFF054639460120FFF7E6FF064617
S3150800698039460020FFF7E1FF08490A685208520015
S315080069900A60401B0004711BB0FBF1F06043400025
S315080069A0000CF2BD0000000018A000400470004072
S315080069B00080004094ED00E000E100E080E200E0A5
S315080069C00070004042DE704738B504460D4602F0B6
S315080069D03DF901F041F82946204602F0A6FD2B466E
S315080069E022460FF2CC11012003F008F8294620466A
S315080069F0BDE83440E6E72DE9F84F6548654D01687E
S31508006A002E1D4FF4206A7165016AB16562490968ED
S31508006A10F165416A3166816A7166C16AB166016B60
S31508006A20F166806B306796F8340040074CBFF76B09
S31508006A30B76BBB4602F0D7FC0022584CDFF86081E2
S31508006A40DFF86091F2648742014624BFA4F120036F
S31508006A50BB4231651DD357F8180F306457F8040F39
S31508006A607064706DC005C00D062815D1306C484598
S31508006A7012D3404510D200884DF6426290420BD19F
S31508006A8005F18C006A68426040F2017A7268826099
S31508006A9002E03264726483464348814202D2014668
S31508006AA000E0091DA14203D20B68B3F1CD3FF8D02F
S31508006AB0601AB064182105F1780002F0DFFF0020A3
S31508006AC003E0C0B205EB80029167A34523D254F8D0
S31508006AD0041D4945F9D34145F7D2CA07F5D5002221
S31508006AE005EB82039B6F8B4203D0521CD2B2062A57
S31508006AF0F6DB062AE9D1002814BF401E0520E0E788
S31508006B00716F002205EB8203521CDF6F9F67052A0F
S31508006B10F8DBC5F88C100146481EC9B20029EFD12A
S31508006B20706DC005C00D02280AD0032815D00428A8
S31508006B3016D0052817D0062818D00C281CD01EE019
S31508006B401A480168890748BF40F6021A1CD400682B
S31508006B50C00719D540F2025A16E040F6012A13E09A
S31508006B6040F6022A10E040F6032A0DE0BAF5206F37
S31508006B700AD140F6042A07E040F6052A04E018B1CF
S31508006B80242838BF40F6072A5046BDE8F28F000091
S31508006B9004ED00E00000002000E300E098BC0020BF
S31508006BA050C0020890410008980000201CA0004030
S31508006BB00D0A5B4153534552543A25703A25645D94
S31508006BC00D0A0000814233D210185118401E491E82
S31508006BD010E011F8013900F80139121F11F80139CE
S31508006BE000F8013911F8013900F8013911F80139AD
S31508006BF000F8013992B2042AEBDA92B2002A1EBFD3
S31508006C0011F8013900F80139521EF6D1704711F80A
S31508006C10013B00F8013B121F11F8013B00F8013B4C
S31508006C2011F8013B00F8013B11F8013B00F8013B64
S31508006C3092B2042AEBDA92B2002A1EBF11F8013B7F
S31508006C4000F8013B521EF6D17047130003D00A46DE
S31508006C50194602F017BF704710B500E0521E92B2EF
S31508006C6022B100F012F8F9D0181B10BD002010BD93
S31508006C7010B500E0521E92B22AB100F006F8F9D01B
S31508006C80181B40B210BD002010BD10F8013B11F8CA
S31508006C90014BA342704770474048018A40F6A772E5
S31508006CA0914202BF408A4FF47F41084203D102282D
S31508006CB001DB01207047002070472DE9F84F824616
S31508006CC0884600F0C9FE364D2F68044628684008F5
S31508006CD04000286002F014F80120DFF8BCB08BF8F9
S31508006CE00000FFF7D9FF20B9FF210FF2B800FFF720
S31508006CF06BFE2A48D0F8289041464AF48070C84767
S31508006D0006462F6001F0FCFF204600F0ABFE00208F
S31508006D108BF800000FF294040EB1305D04E0414692
S31508006D204AF40070C847005DBDE8F28F2DE9F84FB8
S31508006D30804689464FEA420A00F08EFE184E3768AA
S31508006D400546306840084000306001F0D9FFFFF77B
S31508006D50A3FF28B94FF4A1710FF24800FFF734FEDC
S31508006D600E48D0F824B00023524649464046D84734
S31508006D700446376001F0C4FF284600F073FE0FF2A0
S31508006D802C050CB1605D05E0534600224946404695
S31508006D90D847405DBDE8F28FC9FF0020000008080B
S31508006DA094ED00E0666C6173682E630000020202CF
S31508006DB04B4B46472DE9F9478AB02122FF2101A806
S31508006DC0FFF743FFDFF8D490B022FF214846FFF7CC
S31508006DD03CFF42254FF0210A42210FF2E40002F05F
S31508006DE085FE0FF2CC0800272D48385C411C01EBC4
S31508006DF0D1714C102B497E5CFF2803D17021404687
S31508006E00FFF7E2FD7F2E03DB71214046FFF7DCFD2D
S31508006E102548385C00B11934601C00FB06F4234889
S31508006E2030F817100FF2B4003346A2B202F05EFE35
S31508006E306519012E1CBF29F817A0B2447F1C212F03
S31508006E40D2DB40F21C44A54234BF13A30FF2EC0375
S31508006E50212000902246A9B20FF2A80002F046FEB1
S31508006E6040F21D4085420ED301F0F0FE00F0F4FD1D
S31508006E7023462A460FF2D001012002F0BFFD9D21CC
S31508006E804046FFF7A1FD9DF8280001A900F036F954
S31508006E900CB0BDE8F08700006F6B000088F9002091
S31508006EA0AC300308D03003088830030844300308A0
S31508006EB073696D2D656570726F6D2E630000000035
S31508006EC0546F6B656E206F766572686561643A20EB
S31508006ED0256420776F7264730A0000004372656147
S31508006EE0746F723A2030782532582C20576F7264A6
S31508006EF0733A2025642C20436F756E743A202564F6
S31508006F000A00000053696D454520646174613A20A2
S31508006F10256420776F726473206F66202564206D60
S31508006F20617820282570292C20746F6B656E436F55
S31508006F30756E743A2025640A00000000544F4F20ED
S31508006F404C415247450000000D0A4552524F523AED
S31508006F502053696D4545206461746120746F6F2004
S31508006F606C617267652E2020436F6D70696C696E5F
S31508006F7067207769746820256420776F72647320A8
S31508006F80636F6E73756D65642E20204D6178206180
S31508006F906C6C6F7765642069732025642E0D0A0072
S31508006FA010B5DFF8444ADFF8443A2488001B03EB9F
S31508006FB04000002304E030F8134021F813405B1C1E
S31508006FC09342F8DB002010BD2DE9F04182B004465B
S31508006FD00D4616460027DFF8148A01E0B81CC7B22A
S31508006FE0B74217DA7819795D4078DFF8FC391B88DB
S31508006FF001EB0020ADF80000012207EBD77004EB87
S315080070006000C01A00F06EFB0028E7D002F090FD81
S31508007010002000E00120BDE8F681F8B504460E46DA
S31508007020154600270DE000F019F8BDF8000004EB3E
S315080070304701000A4870761CBDF8000004F81700DE
S315080070407F1CB7EB550FEEDBE80706D500F006F810
S31508007050BDF80000291901F8010CF1BD012200A9AB
S31508007060B0B29DE7DFF88029DFF880191288801A08
S3150800707001EB40010220FFF720BEDFF87419DFF8A4
S315080070807429415C825CDFF87039C05C10B102F586
S31508007090997292B241EAC21080B2704710B5DFF811
S315080070A05C39DFF84C4903EB4002005D012801D149
S315080070B0104610BD1088081803EB400010BD38B5FF
S315080070C00C46DFF83C190D782A462146FFF768FF7B
S315080070D0208800281CBF4FF6FF7188420AD001207D
S315080070E000E0401CC0B2A84206D234F8101022882C
S315080070F09142F6D0002032BD012032BD2DE9F24F73
S315080071000446DFF800690020307070809CB0DFF814
S31508007110F8080088ADF8020007A9FFF7D0FF8346F4
S315080071200120707009A9DFF8E4080588DFF8E0088F
S31508007130B0F80080DFF8B008BDF802A00788384626
S31508007140FFF7BDFFB8B1BBF1000F3CD0BDF81C106E
S31508007150BDF824004FF6FE72914202D1012804D1EF
S315080071600CE0012908BF90422DD00846BDF824102E
S31508007170884228D202E0BBF1000F23D000207070AD
S31508007180029750460695CDF810800122DFF8701850
S3150800719091F800804044ADF8060000A9BDF8060045
S315080071A0FFF7FEFEDFF86C08008805904FF6FF79BA
S315080071B0BDF80000000B404518BF0F2800D10CB3DE
S315080071C0002516E0012470780128D9D13846CDF873
S315080071D008A0CDF818800495D7E7059805FB00F4B4
S315080071E0E01900F025FCBDF80200201800F020FC8C
S315080071F06D1C4545F1DB012030704D2002F098FCEE
S315080072000025FCE0BDF80650012201A92846FFF733
S31508007210C7FEBDF80400C043C0B2ADF804006F1C39
S31508007220DFF8F4070588BDF80400A84218BF012452
S315080072304FF0000A20E0401CC1B2A94218D2C0B2E1
S31508007240DFF8D817BDF80E20834631F81B10914297
S31508007250F1D1FFF712FF4FF680710840BDF80C1008
S315080072604FF680721140884204BF1C980BF800A0A4
S315080072700AF101001FFA80FABDF80400824507DA10
S31508007280022203A9B8B2FFF78BFEBF1C0020D3E782
S31508007290002001E0401C80B2A84217DA1C99415C24
S315080072A08142F7D0012411E02AF81070BDF80600D3
S315080072B000EB4300401C00F0D2FABDF80200C0F310
S315080072C0C710401C00EBD07007EB60070498DFF886
S315080072D02CA7BFB2874211DA012200A93846FFF768
S315080072E05FFEBDF80000484508D0030A00F07F019C
S315080072F0BDF804007F1C834202DB012400252DE033
S31508007300002001E0401C80B2A842CFDA1C9A825CB9
S315080073109A42F7D1C0B2FF28C8D0DFF8D426825CDB
S315080073207F290CBF4FF0000C8C46944509DADFF82C
S31508007330C8E6BDF800C010F80EE0CCF3C01CF44552
S3150800734001D00124B2E7012AAED07F293AF810000D
S3150800735008BF00210818A7E76D1CADB2DFF8C00604
S315080073600088854204DA3AF815004845F4D1012424
S3150800737077800498BDB285420ADA012200A9284618
S31508007380FFF70EFEBDF800006F1C4845F1D034E744
S31508007390002CFCD1029801220BA980B2FFF700FE4F
S315080073A0BDF82C0048450DD105E0401C80B22028C8
S315080073B013DB2034A4B20699029A891A8C4205DB9B
S315080073C00120307000201DB0BDE8F08FA5182022DE
S315080073D00BA9A8B2FFF7E4FD00200BA931F810109D
S315080073E04945E2D0A8B2FFF73DFE203CA4B2E0E74B
S315080073F00298059905FB010000F01AFB6D1C45452E
S31508007400F6DB01203070494600F043F818B100F069
S315080074102DF90028D6D10120D5E72DE9F8450446EF
S315080074200F461646984631463846FFF737FEDFF8C8
S31508007430E815B0F800A00988DFF8B8558F420AD2D7
S31508007440DFF8AC05385C7F2E08BF0026864202DAD4
S31508007450785D804503D040F2864100F0FCF9DFF8FC
S315080074609805385C68B15146384600F029FA795DC6
S31508007470012908BF20700AD0022914BF2060208085
S3150800748005E0424651462046BDE8F845C5E5BDE853
S31508007490F1852DE9F34FDFF85005DFF86415048808
S315080074A0DFF860050978407883B000281ABFDFF84E
S315080074B05805008820460D18DFF85C050088ADF8E9
S315080074C00800ADB2C043C0B200EB013000F5506011
S315080074D0ADF802002B1BDFF8140500F0C6F96E1C88
S315080074E00028B6B238D10025DFF8307514E0E8B2C6
S315080074F0FFF7C3FDADF80400331B37F81500ADF8E8
S3150800750006000222DFF8E40400F0ABF8002823D1D5
S31508007510B61C6D1CB6B2ADB2BDF808008542E6DBF6
S31508007520002501E06D1CADB2BDF80800854280F269
S3150800753093804FF0000A1CE001220DF102011FFAA8
S3150800754089F0FFF72DFDBB19DFF8A0041B1B09F115
S31508007550010900F08AF9002878D17F1CFFB2B7EB41
S315080075601B6FE9DBDFF8BC04285C8619B6B20AF1A2
S31508007570010ADFF87C0415F800B05FFA8AFADA45E2
S31508007580D0D25146E8B2FFF789FD8046DFF8680495
S31508007590B8F800902F5CF80140EA0520ADF8000025
S315080075A0BBF1010FBDF800000CBF40F07F004AEAAE
S315080075B00000ADF80000311BDFF8300400EB410095
S315080075C0711C89B201914FF6FF7189451EBFBDF83E
S315080075D00010BDF81020914218D19DF80C10002912
S315080075E0C5D0012200A9FFF7A1FB019E70BBDFF8F9
S315080075F00404A8F800602A5CDFF82C0450F825106B
S31508007600B0B2FFF7E1FC0028ACD122E0DFF8E413C2
S31508007610695C491C01EBD1714FEAC15B012200A9E3
S31508007620FFF784FB019E88B9002FA8F8006095D063
S315080076304946E8B200F044F90190331BDFF8AC0381
S315080076404FEA1B6200F00DF800288BD002F070FAA2
S31508007650002005B0BDE8F08FDFF8A80346800120BA
S31508007660F7E701A900EB4300FFF760BB2DE9F041FE
S31508007670DFF89403DFF88C530688DFF86C03048878
S315080076806878002882B012BF204630462646012276
S3150800769000A9FFF785FCBDF80000DFF85083012834
S315080076A00CBF4FF6FE70401EADF80000DFF8500321
S315080076B007783846471E58B1BFB2B819001B0122D1
S315080076C000F010F80028F4D002F032FA002007E0A3
S315080076D06978481E8041C00F687000202870012014
S315080076E0BDE8F68100A908EB4000FFF71FBB2DE9AE
S315080076F0FE4F0D46174604461E464FF000094FF04A
S3150800770001083946FFF7CAFCC349098801908C422B
S315080077100AD2B748205C7F2F08BF0027874203DAC2
S31508007720B448205C864203D040F2A95100F093F891
S31508007730B44F787820B1B548B0F800A0AA4803E05D
S31508007740B348B0F800A0B0483978008849B97988B4
S31508007750081AB64909888842B4BF4320442002F073
S31508007760E7F901980188A448205CF8B1204600F0A2
S31508007770A7F8012E08BF297803D0022E0CBF298846
S315080077802968814265D001980088401E00F067F894
S31508007790A448265C7888AAF10101891B814201DB8D
S315080077A0002835D1387858BB452044E00291CB46AD
S315080077B020E002980BEBDB7300EB630000F03BF96B
S315080077C00BEB05001BF80510407801EB0020711E35
S315080077D08B4580B205D1BDF80010C9B2C0B2ADF86C
S315080077E00010BDF8001088420BF1020018BFC84609
S315080077F05FFA80FBB345DCDBB8F1000FC3D028E0A5
S31508007800BDF802100020FFF744FE10B34FF001093F
S3150800781078887849401C788080B2625C2946FFF7F0
S31508007820D3FBB0B1704C7B88248870485B1E1B1B49
S3150800783000F01BF810B102F07BF90AE0B9F1000F6D
S3150800784002D0FFF713FF20B1019978880880301815
S315080078507880BDE8F78F0FF2E810FFF7B5B8012278
S315080078600DF1020180B2FFF79BBB01220DF1020167
S3150800787000EB4300FFF75ABA70B582B004460025FC
S315080078801926012200A9A0B2FFF78AFBBDF800005D
S31508007890641C48B14FF47F41401A02D0FF3806D025
S315080078A007E0681C40B276BDAD1C761EE9D168B209
S315080078B076BDBDF80000C0B200B96D1CE843F1E71B
S315080078C038B50C46002100914A49455C2A462146AE
S315080078D000A8FFF7A2FB681C00EBD07004EB600061
S315080078E080B2FFF7C9FF002848BFC043009940B2DD
S315080078F0401832BDF0B54849098804463F4883B068
S31508007900254630F815608C4202D23B48285C18B9E7
S3150800791040F2A961FFF79FFF36482D5C681C00EB13
S31508007920D07006EB6007B8B2FFF7A6FF322814D26C
S31508007930C107BFB207EB60002B4F2C4B3F884CBFEB
S3150800794000214FF47F41ADF80410C01B012201A9A4
S3150800795003EB4000FFF7EAF960B131462046FFF72E
S31508007960AFFF00902B46401C00907F2200A92046BE
S31508007970FFF7BDFEF7BDF8B5224C20780027002892
S3150800798030D119480588607800281ABF1E4806882D
S315080079902E461B4807783846471E02281BDBFFB2CF
S315080079A0B81900F048F8BDF800000028F3D01948C7
S315080079B0008807FB006000F03BF80020ADF80000E7
S315080079C0BB190A485B1B012200A9FFF74BFE48B109
S315080079D002F0AEF806E03046FFF744FBFFB20FB9F7
S315080079E0012020703846F2BD1030030800E0070871
S315080079F0D0300308AC3003088830030888F9002023
S31508007A000C30030890FF00201430030812300308D6
S31508007A10163003080E3003081A30030844300308EA
S31508007A201C300308203003083833030818300308CD
S31508007A3080B2FFF717BB012200A980B2FFF7B0BAE0
S31508007A4073696D2D656570726F6D2D696E746572DB
S31508007A506E616C2E63000000EFF31180602181F3E4
S31508007A601188704780F31188704770470120704766
S31508007A70002070470020704700207047002070479C
S31508007A807047704770470000F8B50D4C2768060028
S31508007A9014D0FFF7E1FF0B4D21682A7821F8126010
S31508007AA037F8021BB142FBD1FFF7DCFFB81E21688D
S31508007AB0401AC0052978000E884200D1FF20F2BD81
S31508007AC0DCBD0020E0BD00202DE9F047DFF8F445D5
S31508007AD0DFF8F4552068DFF8F4A5DFF8F485DFF859
S31508007AE0F495E8612862002625E02068482101FB14
S31508007AF00607482200213846FFF7A7F898F800003D
S31508007B0038700020387378730B20B8730320F87325
S31508007B104FF6FE7038824FF6FF70788200F098FDB7
S31508007B20387600F095FD787600F092FDB876761CEA
S31508007B309AF80000F876F6B299F800008642D4D38F
S31508007B40281DBDE8F0470222FF21FFF77EB82DE980
S31508007B50F041DFF884550FF2A058044695F9000065
S31508007B6010F1010F03DA52214046FEF72DFFDFF828
S31508007B70647538788442264605D3FE2E03D05421F0
S31508007B804046FEF721FF2878DFF83C15401C287090
S31508007B9040B2401804743878844200F073F828BF5D
S31508007BA00E78482202FB0600C861BDE8F08110B5D0
S31508007BB0DFF8244594F90000002802D5652100F075
S31508007BC0A3F82078DFF80015DFF808350A781B785F
S31508007BD0401E207040B200284EBF10464018007C58
S31508007BE0984238BF024600F04DF8482303FB0200CE
S31508007BF0C86110BD10B50020DFF8CC14482400E099
S31508007C00401C00F07BF808D2DFF8B834CA691B6854
S31508007C1004FB00339A42F3D110BD7E216AE0DFF8F7
S31508007C20B80490F9000010F1010F01D10120704746
S31508007C3000207047FE208AE7DFF88C04007870473A
S31508007C4038B50446DFF88054FFF7E9FF50B9DFF886
S31508007C50880490F900004019007CFE2802D09A2179
S31508007C6000F052F8DFF86C040078844201D3B120A2
S31508007C7032BD00F007F82C70482101FB0400E861CA
S31508007C80002032BDDFF83C040068704738B5DFF8DD
S31508007C904804DFF8345490F900406019007CFE2847
S31508007CA007D0FFF7BCFF20B9B62100F02DF8FF205A
S31508007CB032BD611E00E0491E49B2080004D44819C5
S31508007CC0007CFE28F7D032BD287832BD10B50020DA
S31508007CD0DFF8F413482400E0401C00F00FF808D23F
S31508007CE0DFF8E0330A6A1B6804FB00339A42F3D1D3
S31508007CF010BDD52100F008F8FF2010BDDFF8D42309
S31508007D001278C0B2904270470FF2EC30FEF75CBEB4
S31508007D1010B5FCF799FCDFF8B043216A897B8842E5
S31508007D2003D00846FCF788FC50B9FCF790FC0146DE
S31508007D30206A90F90F00814204D0FCF78CFC08B148
S31508007D40012010BD206A008AFDF741FD206A408A9D
S31508007D50FDF745FD206A007B012818BF0020FDF7C6
S31508007D6020FD002010BD10B500F041F802D3F72120
S31508007D70FFF7CAFFDFF86403007808B9702010BD62
S31508007D80FFF780FF482101FB0400DFF83C13086277
S31508007D90BDE81040BCE7DFF844130870704710B51B
S31508007DA0DFF83C430020207002F01DF920B9204678
S31508007DB0BDE8104002F04AB900F065F800F017F87F
S31508007DC00AD22046FFF7C3FE02F030FB08B102F0E4
S31508007DD0BAFBFFF7ECFE05E0FFF70CFF044600F0E0
S31508007DE014F818B12046BDE81040BCE710BD04469B
S31508007DF0DFF8E002007884427047B348006A008AD8
S31508007E007047B148006A408A7047AE4909684822F7
S31508007E1002FB0010407B02281CBF1128432801D111
S31508007E200120704700207047A6490968482202FBCE
S31508007E300010007B012818BF022804D003281CBFA5
S31508007E400628072801D10120704700207047F8B599
S31508007E5000249C4D9F4E00E0641C3078E4B28442B6
S31508007E600FD22868482101FB04072046FFF7CDFFFB
S31508007E700028F1D0387B012818BF0228ECD120460B
S31508007E80F2BDFF20F2BD38B50024924D00E0641C17
S31508007E902878E4B284420BD22046FFF7C5FF0028B3
S31508007EA0F5D02046FFF7B1FF0028F0D0204632BDB6
S31508007EB0FF2032BD70B500240025864E09E028460D
S31508007EC0FFF745FE02F088FA00B10124FFF76FFEBE
S31508007ED06D1C3078EDB28542F1D3204670BD80B571
S31508007EE0FFF7D1FFFF2801D0012002BD002002BD07
S31508007EF038B57C4C054620680321A9408843206094
S31508007F00FFF778FEA84021680843206031BD75490F
S31508007F10096821FA00F000F00300704738B500F050
S31508007F201AF82946204601F0EFFD11E010B504467F
S31508007F30FE20FFF70CFE204602F078FEBDE8104052
S31508007F4035E638B500F007F82946204601F0E9FD80
S31508007F50BDE831402BE604460D46FE20F7E538B568
S31508007F60FFF748FE5B4A584B1278002100E0491C8F
S31508007F70C9B291420DD29C780C1994FBF2F502FB1A
S31508007F801544E4B2E4182579854202D0FF2DEED1D6
S31508007F90207131BD70B54C4C4E4EA078001905794C
S31508007FA03078854203D34FF4F571FFF7ADFEA0781C
S31508007FB00219FF211171401C317890FBF1F201FB87
S31508007FC01200A070284670BD3F48817808180079CD
S31508007FD0FF2801D0012070470020704710B5FFF731
S31508007FE07EFF78B1384CE069007B001F022809D271
S31508007FF01420FFF77DFF04F10800BDE81040642156
S3150800800002F02FB8BDE8104002F097BF80B52E49A0
S31508008010002008721420FFF77AFFFFF798FD02F098
S315080080208CFFBDE80140C2E5000000002DE9F843D9
S315080080308146FFF7DFFDB9F1070F0FF2BC082A4C9E
S31508008040214F2A4D2A4E33D8DFE809F0040A0A1BC5
S315080080501B1B3939F96900208862283188602EE0AF
S31508008060FFF73DFF20B140F221214046FEF7ACFC68
S31508008070F869316881622830216881602978017140
S315080080801DE02A783568F9690E2303FB025503FBC0
S3150800809000538B622831236803EB8202154B1B7849
S315080080A002EB830202EB800088600120087106E07B
S315080080B04046BDE8F44340F23721FEF785BCBDE8EB
S315080080C0F1830000FCBD002010FB002046BE002006
S315080080D045BE002000BE00206FC000206EC00020F4
S315080080E034FB00203CFB00200CBE002008BE00200C
S315080080F004BE0020E0BD0020656D6265722D6D75B9
S315080081006C74692D6E6574776F726B2E6300000050
S3150800811038B504460D46012003F01AF95D48002DCE
S3150800812012BF00210178491C01705B4844705B4806
S31508008130FDF702F8BDE83240002003F009B910B592
S31508008140002814463FD0402823D0882818BF8928FD
S3150800815040D08D282FD08F2846D151480078042842
S315080081600DD144B14F490220087040F60620BDE8FB
S31508008170104003F0F5B8FDF79EFA312030E00120F3
S3150800818001F0B8FCFDF797FA002C0CBF312000204F
S3150800819026E04048444900780978884204D2BDE878
S315080081A0104000210120B3E7002001F0A3FCFDF7F1
S315080081B082FA402014E0002001F09CFC00212020D7
S315080081C0FFF7BFFE0BE0012001F094FCFDF773FA00
S315080081D0002005E0002001F08DFCFDF76CFA8D20EB
S315080081E0BDE8104002F058BFBDE81040C9213CE088
S315080081F02C480078022800D0704780B52B480078B4
S31508008200042807D00C280ED129480078022818BF60
S315080082107C2808D103F0BFF8FDF74DFABDE8024007
S31508008220002002F039BF01BD38B50024FFF714FC61
S3150800823005461C48007810B9FCF7CDFE04462846CA
S31508008240FFF710FC002C1CBFBDE8314001F06EBCE6
S3150800825031BD80B5FFF7E8FFBDE804404FF4A051F3
S31508008260144801F0FEBE40F205110FF25000FEF769
S31508008270ABBB38B5104C2068216C01EA0005ADB2DD
S31508008280680705D5206C20F00400206401F088FDFD
S31508008290256031BDE6FF002098C00020A4FD00201F
S315080082A0D3C0002098FD0020F0C00020DDFF00208C
S315080082B0DEFF002050FF002008A000406D61632DFE
S315080082C0656D3235302E630070B504460D46164688
S315080082D0FDF74DFA38B16078002E14BF40F0200043
S315080082E000F0DF0060702946204603F05EF9FF289B
S315080082F021D0934C0146201D03F07AFB914D288826
S315080083002188401C288080B281420AD26888401C95
S315080083106880201D03F081FB03F0C4F82888401EFE
S315080083202880208829888842F3D3BDE8704086488B
S31508008330007801F079BF70BD2DE9F04FA5B08246EF
S315080083400027FFF789FB7F4C2188491E2180FFF70C
S3150800835089FB504603F032F8082390F800804078ED
S31508008360DFF8E891029000975146D9F800001AF80C
S315080083700000A0F10802D2B203A803F032F903AE56
S315080083807078FFF7E4FB7248007808B36068002845
S315080083901DD0F078FCF79EFE4146FCF7A2FE074684
S315080083A096F9020000F166060020009008F1010324
S315080083B0DBB20022514605A803F013F9FFF73AFC91
S315080083C0636872B2394605A89847FFF7F0FB95E04F
S315080083D0029800F00700022827D0FF208DF8040035
S315080083E0504602F0EBFF00F1010B584603F0C6FBBE
S315080083F00446A8EB0400801E45B2002D15D401A939
S31508008400584603F04FFD002879D1029800F007007E
S3150800841001280BD19DF8040004EB0B0105F009F8BF
S3150800842020B99DF8040003F03DF868E09DF80400C3
S31508008430D9F80010475C4749096800F801A0D9F83F
S3150800844000001AF8000000F120019DF80400C9B2E6
S3150800845002F0BAFF9DF8040003F05AFB00F00C0086
S3150800846004281CBF6519002468B280B20090631CFA
S315080084709DF804009BB25246394603F088FAE9197A
S315080084809DF80400C9B203F058F9334970780978A1
S31508008490884204D3BD210FF2C800FEF795FA9DF86D
S315080084A0040003F030FB71788004800C40EA8131C7
S315080084B09DF8040089B203F028FBF078FCF70AFE61
S315080084C04146FCF70EFE02469DF80400032103F020
S315080084D0F9FAB07800F166029DF80400D2B20421D8
S315080084E003F0F0FA9DF80C209DF80400052103F02E
S315080084F0E9FA9DF804A0504602F02AFE01275046E4
S3150800850002F0D0FFFFF753FB384625B0BDE8F08FE1
S3150800851010B50C4C618829B1C9B21D20FFF711FDB1
S31508008520002060800D4803F078FAFF2803D0FFF793
S3150800853003FF0028F6D010BD084803F095BA0000DE
S31508008540E8C00020DCFE0020C6FF0020C8BD0020D1
S315080085508DFD0020D0BD002000BE0020ECC000200C
S315080085606D61632D726563656976652E630000002B
S3150800857038B504461B4D214600F03DF8E860211D3C
S3150800858000F039F8A86004F1080100F034F86860D2
S3150800859004F10C0100F02FF8286031BD7047F8B5DA
S315080085A00446114D114E80202860062030600720B1
S315080085B0286030688007FCD5002704EB870100F0A7
S315080085C01AF87F1C042FA862F7D330684007FCD539
S315080085D000262A6B04EB860100F00AF8761C042EA6
S315080085E0F7D3F1BD383000400030004010A00040FD
S315080085F0002004F0AABF002004F0B5BF70B50446F9
S315080086000D46FFF729FA06462846FFF7B1FF20462A
S31508008610FFF7C5FF3046BDE87040FFF723BA0028CC
S3150800862048BF40427047000081B209B94BF6EF6176
S315080086300E4A1180000C08BF4FF6CE2050807047B6
S315080086400288130448BF4A4051000180104670470B
S3150800865038B5064C62212046FFF7F2FF054641F27F
S315080086600B01A01CFFF7ECFF684032BD1EBF0020BF
S31508008670EFF3118060288041C043C00F70470000A7
S31508008680002181F3118870472DE9F04FDFF8104576
S3150800869091B061680F91072808BF032002D0082807
S315080086A008BF0220DFF8FC5429686A6841EA0221FB
S315080086B0AA6841EA024100916968490703D5E16958
S315080086C041F00201E1612968490703D5E16941F0F2
S315080086D00401E1610099EA69D140C90703D5E16956
S315080086E041F00801E1610021DFF8B064DFF8B874F1
S315080086F03160012800F0FA81C0F0208203281AD0E0
S3150800870004D3042840F01A82616014E0386CC0076C
S3150800871003D5E06940F04000E061386C400703D5B6
S31508008720E06940F02000E061386C800703D5E06915
S3150800873040F01000E061FFF78FF900F094FA8DF829
S3150800874038004FF00009DFF86414DFF864A4C1F5B7
S3150800875080310120090B00FA01F1491ECAF83810C8
S31508008760090A07D1DFF84C14097819B1616C41F090
S3150800877020016164396CDFF84084DFF840240D91EC
S31508008780796C0C91D8F84C100B91D8F850100A91C6
S31508008790D8F854100991D8F858100891DAF800104A
S315080087A00791DAF804100691DAF814100591DAF848
S315080087B024100491DFF8081409681268039202224B
S315080087C02260DFF8002412688DF80420DFF8F82309
S315080087D012688DF80520DFF8F42312688DF8062054
S315080087E04FF0FF32626200F0B2F9D2040AD56A6825
S315080087F0D20707D5E269D20704D5326842F48072F7
S315080088008146326000F0A3F992040AD56A685206D6
S3150800881007D5E269D20704D5326842F48042814618
S31508008820326000F094F952040ED5009AAB69DA402A
S31508008830D20709D5E269D20706D53268AB6900FACC
S3150800884003F31A438146326000F081F9120410D509
S31508008850009AEB69DA40D2070BD5E269D20702D44F
S31508008860E269120705D53268EB69814698401043DC
S315080088703060D7480068C00308D5E069000605D50A
S31508008880F07840F008004FF00109F07000206A689F
S31508008890D2076A6848BF4FF480505206009AAB69FF
S315080088A048BF40F40050DA40D207009AEB6948BF47
S315080088B040F48040DA40D207E26948BF40F40040FD
S315080088C0D20605D4E269920602D4E269520601D5B7
S315080088D040F01000E269120648BF40F480300840B4
S315080088E00290A52000F0B6F90120E063E069A16BCB
S315080088F011B1616A0142FAD0616A014200F0C7808B
S315080089000020E063F07840F04000F07000F0F2F9E3
S31508008910072038600F20C8F8000004F039FE0F98C9
S31508008920A74960600D9838640C9878640B98C8F865
S315080089304C000A98C8F850000998C8F854000898D6
S31508008940C8F858000798CAF800000698CAF804003C
S315080089500598CAF814000498CAF824000298086012
S315080089609649039808604FF0FF309A490860954881
S315080089700068307094480068707094480068B07059
S31508008980626AE0691040EA69336801994B400099C8
S315080089900B400106490E01F0010143EA8123010655
S315080089A0890E01F0010143EA81030106C90E01F0AF
S315080089B0010101FA02F21A4300F47C7042EA0050FF
S315080089C03060FFF749F800F0A3F9002020609DF811
S315080089D0380008B100F031F9F07879490968C90317
S315080089E004D5C0F3C00109B120212162396C890779
S315080089F003D5C10744BF0221F960396C490704D57C
S31508008A00C0F3400109B10421F960396CC90704D5DE
S31508008A10C0F3800109B10121F9603168D8F84C200A
S31508008A2012F0E00F05D0CA0503D5694B4FF4805202
S31508008A301A60D8F8502012F0E00F05D04A0403D582
S31508008A40634B4FF400521A60D8F8542012F0E00F26
S31508008A5008D0AA6921FA02F2D20703D55C4B4FF473
S31508008A6080421A60D8F8582012F0E00F07D0EA6959
S31508008A70D140C90703D5564A4FF40041116040F06A
S31508008A808000F07011B0BDE8F04FFFF7F9BDB9F1FD
S31508008A90000F7FF437AFDAF818004849DFF838B125
S31508008AA040084000CAF818004448806840F00400AE
S31508008AB0886040F20721BBF80000884202BFBBF875
S31508008AC002004FF20F01884205D14CF23C30ABF858
S31508008AD002004FF00109012004F094FDB9F1000FDE
S31508008AE003D04FF20F00ABF8020011E700F0BBF815
S31508008AF00446A52000F0AEF800F0FCF8FFF7C0FD2C
S31508008B00364D2E68286840084000286000F0F8F8BE
S31508008B10334FD7F80080386820F04000386000F0FE
S31508008B20EBF8C7F800802E6000F0EAF80CB100F008
S31508008B3084F811B0BDE8F04F00F0EAB811B0BDE80E
S31508008B40F04F40F23C410FF2A400FDF73DBF204A2A
S31508008B5012687047134ACBB21360C1F307235360F8
S31508008B60C1F30741916000231E490B601368002B6F
S31508008B7004BF5368002B01D192681AB10A6842F003
S31508008B8001020A600A6842F400720A600A6842F042
S31508008B9080020A6078E51449DCE7000038FA00200C
S31508008BA00400004008BC004014A00040000000007B
S31508008BB0044000409807080814A8004008ED00E0A3
S31508008BC000E100E008B0004008B2004008B40040E8
S31508008BD000E200E080E200E00000002094ED00E002
S31508008BE0008000402000004000404000736C65652E
S31508008BF0702E630003480188034808237F22FBF789
S31508008C0085BE00BFF23403086CFB00202D480068BF
S31508008C10C00701D42C4870472C48704780B5FFF729
S31508008C20F5FF2B49096801B9400802BD80B5FFF771
S31508008C30EDFF400802BDFCF724BF264801218160EC
S31508008C404EF6BE214160012101607047224901208C
S31508008C5008607047A52805D11E484DF6AD614160EC
S31508008C600221016070471B480068C00701D5012032
S31508008C7070470020704780B51849194A10200860C7
S31508008C8018491948007858B103280CBF002001205C
S31508008C90106040F6510008600020FDF7AAF906E0CA
S31508008CA0022010604FF400600860FCF7A3FE07215D
S31508008CB00E4801600021016410200D49086000205B
S31508008CC002BD00001C400040001BB70000366E01C4
S31508008CD020400040006000400860004080E100E05D
S31508008CE0080000400C600040ABFF002014A00040C4
S31508008CF000E100E072B6704700BF30BF00BF7047A2
S31508008D00BFF35F8FBFF34F8FBFF36F8F70470000BE
S31508008D1062B67047DFF8E403016C41F4C04141F0E4
S31508008D20090101644FF6FF7101602020DFF8D013B6
S31508008D30086070477CB5002815461E467CD0012879
S31508008D4036D113293CBF0FF21C40095C080964227E
S31508008D50504301F00F010B2903DA884006E00A2286
S31508008D6050430A46511ED2B20B2AF8DA01460120B0
S31508008D70FDF76BF900285FD1300907280CBF0020E2
S31508008D800220012D08BF40F0180003D0022D08BFAD
S31508008D9040F0080006F00F010229DFF86813A8BFA3
S31508008DA040F00400886001200860FFF7B3FF40E048
S31508008DB0032840D1FFF74AFFDFF84C030188082350
S31508008DC07F2200A8FBF7A2FD00220020DFF83C1353
S31508008DD000AC531C045D25090A2DD2B2B4BF302657
S31508008DE0372601EB4202751955805A1C04F00F0507
S31508008DF00A2DB4BF3025372504F00F04DBB22C1931
S31508008E0001EB4303401C08285C80E1DB0FF2383095
S31508008E1004F0BFFC04F0D6FE044604F09FFC0428C8
S31508008E2007D004F0CFFE001B80B2B0F57A7FF4DDE0
S31508008E3001E0002076BD212076BD38B5040013D1A7
S31508008E40DFF8CC020468608828B140F2AB210FF243
S31508008E50F020FDF7B9FDA188C9B2A01D00F072FB8C
S31508008E600020A080208031BD012813D1A5480068C4
S31508008E70012815D1FEF7F0FD0546A648016841F020
S31508008E8006010160012000F0C6F82846BDE8324018
S31508008E90FEF7E8BD032804BFBDE8314004F066BE0E
S31508008EA031BD012804D19B48016821F00601016003
S31508008EB0704780B50B46114620B9184600F042FBAC
S31508008EC0002002BD012814D193488269012A07D0DF
S31508008ED0212002BDC2685207FCD513F8012B026097
S31508008EE00A46511ED2B2002AF4D1C1684906FCD5F9
S31508008EF0E6E70328ECD1184604F04AFEE0E710B589
S31508008F000446FFF7A3FE012C03D1864800684006F5
S31508008F10FBD510BD70B5814A814B126804E000F09C
S31508008F2068F81D8800F06CF80C46611EE4B254B16E
S31508008F3094887D4D2D886D1EAC42F0DBBDE87040EF
S31508008F4023210020BBE070BD2DE9F8430446734891
S31508008F50DFF8CC91DFF8D0816F4F254650F82560B1
S31508008F6014E0B18838F81520521E91421CDA31886F
S31508008F7089198871308839F81510401C90FBF1F270
S31508008F8001FB12003080B088401CB080F86880076A
S31508008F9016D5F86810F038013868E2D0080705D405
S31508008FA0C80605D5242107E0232105E0272103E08B
S31508008FB088064CBF25210121204600F080F8E5E708
S31508008FC0BDE8F18370B5554A554BD26804E000F008
S31508008FD010F8DD8800F014F80C46611EE4B23CB1C6
S31508008FE094887F2CF3DBBDE870402321032066E0DC
S31508008FF070BD158810F8014BAD18AC711488704710
S31508009000641C94FBF5F605FB164414809488641CCE
S3150800901094807047704770B53D49444A51F820100E
S315080090203D4B0FE04C886418A4791C604C8832F8D4
S315080090301050641C94FBF5F605FB16444C808C888E
S31508009040641E8C808C8814B1DC686407EAD470BD11
S3150800905037483849C2680A6002694A600068886009
S31508009060704780B5334927480A6842614A68826171
S3150800907089688160012101600120FFF74BFEBDE888
S3150800908002400FF2C40004F084BB704738B51B4C8D
S315080090900FE046F229700542256003D0A9B20120E7
S315080090A0FFF752FF41F6D60005421CBF0120FFF725
S315080090B0B2FF2068216C11EA0005EAD131BD30B54E
S315080090C0164A1D4C52F82020055D1C4B25B91288FE
S315080090D023F81020015530BD33F8103013800155A0
S315080090E0138851888B4205D20F4C34F81000401A69
S315080090F0181800E0581A908030BD000008A80040F3
S3150800910000E100E054C80040F234030834C00020EF
S3150800911014C0002048A800403CC8004024C00020D5
S31508009120709A000848C8004004300308689A000886
S315080091305CC800403CFA002054F9002058F9002089
S31508009140756172742E630000BC330308D0330308BC
S315080091509034030804000000A0340308A43403086C
S3150800916000000000306090C0C1C2C394C495C55CBD
S3150800917096C6AC9798990D002DE9F0414B4C4C4E8C
S31508009180DFF83081002020654FF400553560022055
S315080091902060E56000202065206D40F060002065B5
S315080091A00E2000F029F888F800004FF480470020C8
S315080091B06065376004202060E76016203E49086035
S315080091C000206065606D40F060006065162000F064
S315080091D013F888F80100394805600760BDE8F08192
S315080091E00E28344902D0162802D003E008787047C2
S315080091F048787047002070470E2802D0162802D0FB
S3150800920009E02F4800E02F480068800900F00100B7
S3150800921080F0010070470020704710B523484FF4CE
S315080092200051C160022101600E20FFF7E5FF214CC5
S31508009230227801468A4218BF21700DD1501E8041FE
S31508009240C00F20700E20217805F0E2F82178481E1C
S315080092508041C00F20702178BDE810400E2005F02F
S31508009260D7B810B511484FF48041C1600421016098
S315080092701620FFF7C1FF0F4C627801468A4218BFD5
S3150800928061700DD1501E8041C00F60701620617844
S3150800929005F0BEF86178481E8041C00F607061789D
S315080092A0BDE81040162005F0B3B8000014A8004029
S315080092B080E100E09AFF002020BC004000E100E0C9
S315080092C008B2004008B4004010B50446FEF7C4FBD7
S315080092D0464930200860464908604649086010201B
S315080092E0454908604FF20F01200A0028434808BF85
S315080092F0240204804180BFF35F8F4148002101604A
S31508009300416040484049086010BD40480168C907A7
S3150800931008D53F4A03211170016C490849000164C8
S31508009320012101600168090703D5016C21F00801D4
S315080093300164704780B5002000F009F830B9BDE82F
S315080093400440FC210FF2DC00FDF73EBB01BD2DE910
S31508009350F044304C21680D1A15F01F0105D000287D
S3150800936052BF6D1A681A00F120052B48A5F1200690
S31508009370A84224BF2948864203D3EFF308808542D2
S3150800938001D300202DE0FEF767FB824624480068DB
S3150800939010F0010718BF04F013F9206801468D4242
S315080093A006D2A84224BFCD2100F80119F9D206E059
S315080093B02038002201E000F8012B8842FBD3256003
S315080093C0304604F002F9E22001E006F8010BAE424D
S315080093D0FBD30FB104F0DCF85046FEF743FB2068D8
S315080093E02038BDE8F0840B480068704730200040FC
S315080093F030C8004030C0004010E0004000000020A7
S315080094001C4000400400FA050CED00E018A00040DE
S31508009410CDFF0020A8C0002038B30020000F002090
S3150800942094ED00E06D6963726F2D696E7465726EF6
S31508009430616C2E630000000030B5224801680020E8
S31508009440002201249440CBB2234213D00FF28400A9
S315080094501D4C30F8120006284CF23C324FF20F032E
S315080094601DD16088984216D12188080A0B2812DA7D
S31508009470084612E0521C92B2082AE2D31349088120
S3150800948040F201720889904204D11148D0E90023BC
S31508009490C1E9002330BD4FF4C0606280EEE740F2B8
S315080094A00725A84201BF618899422188A942E5D1CA
S315080094B062800846E2E705480089000A70470348C3
S315080094C0008970472C0000400000002078C7002063
S315080094D090000020010402040103010506000702AA
S315080094E00309010970B5B34C204602F0BDFAD8B994
S315080094F0204602F092FAFF28044615D0AE490968BC
S31508009500405C851EE9B2204602F009FA0646E9B231
S31508009510204602F012F92146304600F0F8F82046B7
S31508009520BDE8704001F0BEBF70BD03460A469FA164
S315080095300420FFE70CB480B502AA00F03DF801BC90
S315080095405DF80CFB21B103460A4699A11120F1E703
S31508009550704700B587B0FCF7E1FE00210591024689
S3150800956050210491002354210391012000210291E6
S315080095700191924900910FF25421FFF7DBFF9048C1
S315080095808179C378827803910188029141790191A2
S315080095900179009142200FF24021FFF7CBFF07B077
S315080095A000BD10B504462146824802F021FA20463D
S315080095B0BDE8104001F068BF2DE9F04F85B00546BB
S315080095C00C469046002600F099FAF8B905F05DF8C1
S315080095D0E0B1012001F0FDFE8246BAF1FF0F15D079
S315080095E0002101F0F1FE294601A805F054F80546C8
S315080095F09CB900F087F830B9504605F0C4F810B1A8
S31508009600042000F077FA504601F04CFF05B0BDE89B
S31508009610F08F8DF804200125641C20780028E8D0F6
S31508009620A0F130010A2905D20A2101FB0600A0F1A2
S315080096303006F1E700F066F80028E4D12278002524
S31508009640422A01A80ED0442A1AD0462A25D0572ADB
S315080096500DD0622A3AD0662A2AD06C2A25D0702ADA
S3150800966026D0D6E758F8040B8DF80400D3E758F847
S31508009670041B8DF8041002250904090E4170CBE776
S3150800968058F8041B8DF804100A0A427004250A0CBF
S315080096908270080E8DF80700BEE758F8041B50467E
S315080096A002F00BF80028B7D0ADE758F8046BB3E71B
S315080096B0012358F8041B662A08BF0223F2B2504653
S315080096C001F0DDFF002808BF0026ECE73A4858F805
S315080096D0041B00681AF80090CFB2FF2F9CD017F829
S315080096E000B00BEB0901C9B2504602F026F8002873
S315080096F089D1CDF800B000233A464946504602F0D3
S3150800970046F989E72A4601A9504601F0D4BF2DE952
S31508009710F043122885B080460D4609D03A281DD058
S315080097204FF6FE71884204BF284600F0F2F934E08D
S315080097302148244F00682E5C08E0284601F03EFECA
S315080097402146FFF7E7FB38682D5C203EFF2D24D025
S31508009750F6B2212EACBF20243446EEE700F0C5FD54
S315080097608146FCF739F80646FAF771FF0746FAF715
S315080097706BFF0446FCF728F8024610480FF2600112
S315080097800390CDF8109023460F4800684088029051
S31508009790019600973B20FFF7CDFE2946404605B0C7
S315080097A0BDE8F04300F0ACB90000000057460000E1
S315080097B06C700000A4C00020C8BD00206CFB00200F
S315080097C0F4340308D0BD00202CFB00204242387038
S315080097D042424242574242004242424257420000F7
S315080097E05742425757387042000000002DE9F047AB
S315080097F00446884691469A4600F025F9002801BF96
S3150800980025460FF26020285C012823D1DFF828625C
S3150800981056F82570FEF720F90021B980398079803D
S31508009820FEF720F906EB85000669FEF715F9DFF85D
S315080098300C220021B18031807180A954FEF712F9FB
S31508009840FFF723FC53464A4641462046BDE8F04703
S31508009850FFF770BA2120BDE8F08710B50446FFF778
S31508009860D9FBDFF8D40100EB84000069808810BDBD
S315080098702DE9F84381464C46DFF8BC0100EB84002D
S3150800988088460669484600F0DEF808B1012037E048
S31508009890DFF8A851605D05EB440760B1B8887188A8
S315080098A0884208D1FEF7D8F8665D00216155FEF7B3
S315080098B0D9F8304624E04846FFF7ACFBB088F0B14B
S315080098C0FEF7CAF871880FF2A8128919897988F8FB
S315080098D000104FF6FF78718832F8142000F030F83F
S315080098E07180B1884144B180FEF7BCF8605D20B153
S315080098F0B888404504BF3088B880002000E026209C
S31508009900BDE8F2830FF25C11415C01290AD10FF21E
S315080099104C11494A31F8101052F820008088081A6C
S3150800992080B270470020704780880FF2301333F8F2
S315080099301110891A884201DA012070470020704701
S31508009940491C91FBF2F302FB131170472DE9F84FFE
S31508009950804647460FF20C10385C01288B4616469F
S3150800996038D135480FF2101950F827400FF2F80A87
S31508009970002514E0FEF770F8A18801B901252288B0
S315080099801BF8011B1219917121883AF81720FFF765
S31508009990D7FF2180A188491CA180FEF763F83046CD
S315080099A0461EC0B288B1002241462046FFF7BCFFDA
S315080099B00028DFD11DB14046FFF73FFA002517F80A
S315080099C009000028EFD1222005E04046FFF735FAC6
S315080099D0002000E00120BDE8F28F80B501460FF2B5
S315080099E084028A5C012A05D1134A52F821108A8812
S315080099F0002AFCD1FFF783FA002002BD0CB438B563
S31508009A0004460D46FFF74DFA04AB2A4621460C4894
S31508009A1004F063FF0FF24C012046415C012907D18F
S31508009A20054951F82000808810B12046FFF705FA4D
S31508009A3032BC00205DF80CFB14C0002054F900204D
S31508009A40B38E00087047042806DA0FF21801415C45
S31508009A50481E8041C00F7047012070478000800073
S31508009A6000008000010100018000800000008000E5
S31508009A70800080000000800001010001002205F03E
S31508009A803FB8000062F30F2262F31F42401810F03D
S31508009A90030308D0C91A1FD3DB0748BF00F8012DF6
S31508009AA028BF20F8022D130030B414461546103985
S31508009AB028BF20E93C00FAD8490728BF20E90C004E
S31508009AC048BF40F8042D890028BF20F8022D48BF5A
S31508009AD000F8012D30BC7047C91818BF00F8012DD1
S31508009AE0CB0728BF00F8012D704770470EB403B0A6
S31508009AF07047704770470CB402B070470020704733
S31508009B000020704770477047704770477047704726
S31508009B107047704770477047002070477047704716
S31508009B20704770477047704700207047FAF74EBD78
S31508009B3070B5044643380FF2800508D0401E012848
S31508009B4009D9801E01280ED9C01F32D02AE0BDE8E7
S31508009B507040FDF710BF002600E00126FDF70BFF59
S31508009B600028FAD12EBB134E307810BB0120307076
S31508009B700020FDF71FF9452C11D00BD3472C01D037
S31508009B8003D307E040F6010001E040F60200FFF7C4
S31508009B909BFB04E040F216312846FCF715FF00202F
S31508009BA0307070BD2846BDE870404FF44A71FCF726
S31508009BB00BBF70BDA6FF0020656D6265722D636FD1
S31508009BC06E66696775726174696F6E2E6300000050
S31508009BD010B5DFF82004006898B9FDF73DFF044684
S31508009BE0DFF814040178002918BF052904D10321D8
S31508009BF000F8041B00F02AFA2046BDE81040FDF7DD
S31508009C0031BF10BD2DE9F047DFF8F043DFF8E85320
S31508009C1027782978DFF8DC83002028710FF20040C6
S31508009C2051B9D8F8004014B99D21FCF7CDFE0020A3
S31508009C30C8F80000A047B1E003291CBFA321FCF720
S31508009C40C3FEFF26FF2F26700CD0384601F065FFAD
S31508009C50FDF77DFF384601F06DFA384601F022FC23
S31508009C60FDF7A5FF0020687001F07AF9002800F0DA
S31508009C7083802078012701F050FF8046FDF767FFB3
S31508009C802078DFF87C9301F043FF00F00C000C28E5
S31508009C9016D1207801F02DFF824601F06FFF99F862
S31508009CA0001010F80A00052902D1062808D106E096
S31508009CB001291CBF0329082902D1072800D100273A
S31508009CC0207801F025FF00F00C00082804BF99F859
S31508009CD00000082834D09FB300F0A8FB88B120788C
S31508009CE001F016FF00F00C0008280AD1207805F0CC
S31508009CF011F9C44F39688873207805F024F9396852
S31508009D00C8734046FEF72FF8D0B141212078FDF7F9
S31508009D10B5FE18B92078412103F066F8207801F0DD
S31508009D20C1FB2670FDF798FE064603202870281DFD
S31508009D3000F08CF93046FDF795FEFEF730F817E08F
S31508009D40207800F08AF804466878AF49C0074EBF05
S31508009D500020AE4800780870FDF77EFE0646012012
S31508009D60287001212046FEF7D3F93046FDF77AFE22
S31508009D70BDE8F047FDF71BBFFDF76EFE064600205F
S31508009D802870D8F8000010B1281D00F05FF9304699
S31508009D90FDF768FEBDE8F047FEF701B8BDE8F087B5
S31508009DA080B595480178012904D0022906D00429EE
S31508009DB00BD010E0BDE80140FEF755BAFBF77BFC77
S31508009DC0BDE80240312001F067B905210170BDE800
S31508009DD0014005F0D6BABDE804404FF4B4710FF25D
S31508009DE04020FCF7F1BD38B5FDF736FE824D044636
S31508009DF02878052803D040F2771100F02AF80020C9
S31508009E0028707C48006810B1281D00F01FF920460C
S31508009E10BDE83240FDF726BE70B50446FDF71CFEC8
S31508009E20754E05463078002818BF052803D04FF42C
S31508009E30C27100F00EF8042030704FF6FF708442AD
S31508009E401CBF204601F08CFA2846BDE87040FDF795
S31508009E5009BE0FF2CC10FCF7B7BD2DE9FE4F8046C0
S31508009E6001F03DFE8DF80500694F38689DF805102C
S31508009E7018F80000401A8DF80400404601F048FE24
S31508009E8000F00C0004280CBF01250025404601F00F
S31508009E903FFBFF2883460EBF00273968475CDFF87B
S31508009EA074915D4CFF20661C89F8000000F0BEFA2C
S31508009EB058B1404601F02CFE00F00C00082804D1E9
S31508009EC0404600F02DFC01208BE00DB3404601F022
S31508009ED031FE06464FF6FF7048F6410A864218BF1D
S31508009EE048F6610AFDF78DFF0146201D03F029FBA0
S31508009EF03146A01D03F025FBFDF77FFF014604F15F
S31508009F00080003F01EFB04F10A0004F10A06029099
S31508009F10002000909DF804309DF805204146304603
S31508009F2001F05FFB9DF80400861947B100200090F8
S31508009F303B4600225946304601F053FBBE196DB127
S31508009F40404601F0D6FD4078800726D50298311A9A
S31508009F504246C9B202F06DFA86191EE0A078617809
S31508009F6001EB002080B2410B01F0010181F00105EF
S31508009F704DF6FF7101EA000A0AF00700032805D129
S31508009F80601C01F0FBFD0019407804E01C480078CD
S31508009F90082802D1072089F800004046FDF76CFD25
S31508009FA008B14AF0100A1FFA8AF1601C03F0C9FAD0
S31508009FB01AF0070F04D119480178491C017004E00A
S31508009FC010480068017E491C0176301BE170401C70
S31508009FD02070301B7F2803DB4FF4F671FFF739FF3B
S31508009FE02846BDE8FE8F04480178481E8041C00F08
S31508009FF07047000030FE002098FD0020DAC00020DF
S3150800A000ADC000202CFB0020F0C00020F1C00020CD
S3150800A010C8BD0020D3C00020A4FD002024FE0020D7
S3150800A0206D61632E6300000038B544784568FDF716
S3150800A03013FD824A0C2161438B585B1BB3F1004F19
S3150800A04098BF8D50BDE83240FDF70CBD10B50446EB
S3150800A05003F0C3FD6060042020702046BDE8104070
S3150800A060E2E738B504460D4603F0B7FD28186060E8
S3150800A070012020702046BDE83240D5E710B50446D9
S3150800A080207860B1042806D003F0A7FD6168421A5B
S3150800A090B2F1004F01D8002010BD081A10BD4FF0CC
S3150800A0A0FF3010BD70B5044603F097FD0546FDF771
S3150800A0B0D3FC064660686FF0004100F02CF84019A2
S3150800A0C020603046BDE87040FDF7CCBC70B504464C
S3150800A0D00D46164603F081FD002156B1FF22327067
S3150800A0E007E0121AAA4202D2154606B13170491C77
S3150800A0F0083422680AB9284670BD1378002BF6D0B2
S3150800A100042B04D05268831AB3F1004FE9D806B17C
S3150800A1103170002070BD0022D8E738B5044603F038
S3150800A1205CFD05460DE0017851B1042904D041686B
S3150800A130691AB1F1004F03D8042101706168884794
S3150800A140083420680028EED131BD10B53B490C22F1
S3150800A15002FB001403F041FD2168401AB0F1004FDC
S3150800A16006D86068FFF7D9FF2046BDE8104099E792
S3150800A17010BD70B5324D334909780446687888426F
S3150800A18004D3E5210FF2C000FCF71EFC6E78701CA4
S3150800A19068700C21294801FB060001214460017200
S3150800A1A000E04E7054F8081B0029FAD1FFF77AFF31
S3150800A1B0304670BDF8B505464FF0FF300090204C8C
S3150800A1C0207840B3FEF754FA28B940F219110FF275
S3150800A1D07800FCF7F9FB03F000FD184A0C2101FB97
S3150800A1E0052300251D72002305E0009EB54288BFA1
S3150800A1F0354600955B1C6578DBB2AB420FD201FB96
S3150800A20003263568471BB7F1004F04D9367A2D1A4D
S3150800A2100EB9002DE9D1FEF733FA0020F2BD00A8E9
S3150800A22003F0F1FC0120F2BD044A0C2303FB0020D5
S3150800A23001210172704702490870704788C80020DA
S3150800A240BCFF0020642A03086576656E742D636F6B
S3150800A2506E74726F6C2E63006D4800684088704794
S3150800A2606B480068001D704769480068C07E7047E3
S3150800A27070B5674C674D2168674E4873022819D137
S3150800A28000F0D4F878B92068007B001F022824BFA4
S3150800A2903046FFF7DBFE2068007BC01E032824BF7C
S3150800A2A02846FFF7D3FE20684069C00054BF9024B3
S3150800A2B0BC240AE000F0BAF810B100F0E1FA03E0B5
S3150800A2C03070287000F047FE9124204605F015F9F5
S3150800A2D050B9234613224DA10320FFF70CFC204654
S3150800A2E0BDE87040FDF722BE70BD49480068407B56
S3150800A2F000F00F00704746480068407B00F00F00EA
S3150800A300022801D1012070470020704710B5FEF7DA
S3150800A31013F9E0B1414801F0A7FBC0B1404801F08C
S3150800A320A3FBA0B105F0F3F888B105F0E8F870B919
S3150800A3304FF0FF313B48FFF7EEFE04464FF0FF3182
S3150800A3403948FFF7E8FE844202D2204610BD0020B5
S3150800A35010BD38B5044600F069F820B12046BDE8BE
S3150800A360324000F027B92A4DFFF7C5FF28B92868FB
S3150800A370407B032801D0932032BD05F000FB2081E5
S3150800A3802868C07BA0722868807BE072204606F0A9
S3150800A390D0FD0020207304F1140104F1100006F02A
S3150800A3A07EFEE081002032BD10B5002300E05B1C74
S3150800A3B0DBB28B4205D210F8014B9442F7D000204D
S3150800A3C010BD012010BD80B50821FAF79BFD08B124
S3150800A3D0002002BDA52002BD0D480068407B01286B
S3150800A3E01CBF3128332801D101207047002070474F
S3150800A3F010B50446FAF72FF910B905490968CC7360
S3150800A40010BD03480068807B704700004242000088
S3150800A4102CFB002034FE002040FE0020DCC000207B
S3150800A420BCC00020ECF9000840A9000880B505F07A
S3150800A430AEFA032801D1012002BD002002BD80B575
S3150800A440FFF7F4FF38B1BDE804404FF490710FF2FE
S3150800A4500800FCF7B9BA01BD656D6265722D7374A3
S3150800A46061636B2D636F6D6D6F6E2E630000000068
S3150800A47038B504460D46009523464722A6A1032073
S3150800A480FFF739FBFFF737FF68B1FFF7CFFF50B18A
S3150800A490002C18BF002D08D0B4F57A7F03D8112DEB
S3150800A4A001D3A54201D3702032BDDFF850040481E0
S3150800A4B0458100F017F8002032BD10B50446332256
S3150800A4C0237896A10320FFF716FB1A222146DFF808
S3150800A4D03004FFE7FCF776FB002010BDDFF8240404
S3150800A4E04078704710B5DFF814440020207000F05B
S3150800A4F0A2FD20B92046BDE81040FFF7A7BD208978
S3150800A50020B1DFF804040078032801DB002002E00C
S3150800A510608920B90120BDE81040FBF7E1B8FBF7D8
S3150800A520DCF830B90120FBF7DBF820896189411A8C
S3150800A53003E00020FBF7D4F861892046BDE8104007
S3150800A540FFF78FBDCEE738B5DFF8C043DFF8C003A5
S3150800A55021680078C873DFF8B0030078C11E0329A4
S3150800A5601BD31AD0DFF89C532978C90701D40928C8
S3150800A57013D0688805F0FFF9A88805F004FA297849
S3150800A580206801F00101012905DA817B0F291CBF2A
S3150800A5901429192901D06978817331BD80B500F075
S3150800A5A06FF906F0B7FF002007F067FABDE801402B
S3150800A5B007F022BF10B50446FFF79DFE08B99320A1
S3150800A5C010BDD04881882181D0490968C97BA1720C
S3150800A5D04178E1724088E081002010BD10B586B050
S3150800A5E00446FFF723FF28B940F225110FF2403041
S3150800A5F0FCF7EAF91223192200A9012009F0A7F8A5
S3150800A6009DF80000FF2808BF932007D09DF8010099
S3150800A610C0074CBF062007202070002006B010BDDA
S3150800A620F8B504460D4616460FF2043701F070FADF
S3150800A63000F00C00082804D040F239113846FCF71F
S3150800A640C3F900F04AF810F0030F04D14FF49D71D6
S3150800A6503846FCF7B9F9FFF74EFEC8B100F03DF8E9
S3150800A66000F00300012805D000F037F800F00300D9
S3150800A670032806D1324629462046BDE8F84007F0A9
S3150800A6800CBB324629462046BDE8F84009F0DABA3E
S3150800A690F1BD10B504462146062009F0B6FCD8B12E
S3150800A6A000F01BF800F00300022804D12046BDE89C
S3150800A6B0104009F063BA00F010F800F00300012812
S3150800A6C005D000F00AF800F00300032804D120465C
S3150800A6D0BDE8104007F0FFB910BD0022062120464C
S3150800A6E004F0DDBA10B500F0A1F8400711D52046F0
S3150800A6F009F0B4FEFF280AD086490968302202FB11
S3150800A700001090F82C0000F00400012801DA00205F
S3150800A71010BD012010BD0000424444004242000022
S3150800A7202DE9F04383B000F081F8800800F00109B4
S3150800A73079480FF2FC180068205C000604D44FF430
S3150800A740BE714046FCF740F9204600F0E1FE074698
S3150800A75001AA0121204604F0A2FA6C480068017E8D
S3150800A7604A1C0276D2B29DF8041000F05CF801AAE1
S3150800A7700721204604F093FAFFF7AFFF00F0030025
S3150800A780022802D10AF09CF904E0204607F055FB9E
S3150800A79007F090F99DF804100546481C8DF804004A
S3150800A7A0EAB200F040F800F037F82A0400F03AF868
S3150800A7B000F032F82A0200F035F800F02DF82A0EDB
S3150800A7C000F031F80020554E554D009000223068B3
S3150800A7D03B5C3946681C00F004FF3068385C401959
S3150800A7E0471CB9F1000F08D0204609F037FE01468C
S3150800A7F0204609F0E2FC042000E00020791B4018FE
S3150800A800401C2870781B7F2804DB40F2AB114046B9
S3150800A810FCF7DAF8BDE8F7839DF80410481C8DF8B4
S3150800A82004007047120E384600F0D7BF04460022CF
S3150800A830062104F034BA80B50F2804D0142804D0B1
S3150800A840192804D005E0142002BD192002BD0F20E6
S3150800A85002BD40F2C1110FF2D800FCF7B5F8FF208F
S3150800A86002BD80B5FFF747FD40B1FFF7DFFD28B110
S3150800A87025480178481E8041C00F02BD002002BD50
S3150800A8800FF2BC00002200E00A7050F8081B0029ED
S3150800A890FAD17047234890F9000000284CBF4000C1
S3150800A8A0FF20C0B270471848007800B101207047F1
S3150800A8B01248008928B114480078032801DA0120D3
S3150800A8C07047002070470D48018919B1408910B1B9
S3150800A8D0012000E00020C0B2704780B5FFF702FEF5
S3150800A8E01148007808B106F08EFE10480078002856
S3150800A8F01CBFBDE8014007F0C7BE01BD3CFD0020F6
S3150800A90054FD0020C2C00020E4FC00202CFB0020DF
S3150800A910D6FF002010BE0020CCBD0020C8BD0020F8
S3150800A920A4FD0020D0FF002070FD0020E8FC0020D8
S3150800A93072663463652D737461636B2E6300000061
S3150800A9403CFD0020E5A40008F0FC0020A125010834
S3150800A95084FF0020C944010870FD0020071601087D
S3150800A960E8FC00208926010800000000000000001D
S3150800A97038B5FDF785FE0022002100A80AF077FB0E
S3150800A98008B1009832BD04F0C9FD0446012300222F
S3150800A9900F210120FEF72AFFFBF7ADFC0546FEF75F
S3150800A9A08AFD02462B460FF2984101200AF0ECFB7D
S3150800A9B0FBF7A7FC0546FEF782FD02462B460FF27B
S3150800A9C0984101200AF0E0FB40F2A175FEF773FDFD
S3150800A9D025FA00F0C0070AD5DFF8E05328780AF010
S3150800A9E031FC28780AF0B8FC28780AF0B8FD64B17A
S3150800A9F00FF298420FF28041234601200AF0C4FB69
S3150800AA0098210FF29040FBF7DFFF0BF0D4F803F024
S3150800AA1097F90BF05FF90BF0CFFF0DF072F90221F1
S3150800AA2002200DF051FD03F046FC0DF055FDDFF850
S3150800AA30901341F2020008805220DFF8881308803C
S3150800AA40DFF8841308804FF40040F9F74EFCC7A4DA
S3150800AA500FF2504501E00BF0E3F8FEF7F7F804F0C3
S3150800AA6054FE0DF082F9FEF7EDFF0EF053F90121C1
S3150800AA7000200DF064FD0028EDD02A4621464FF649
S3150800AA80FF700AF087FBE6E7D049098810237F2282
S3150800AA90F9F73CBF04F06BBF04F071BFFFF725BCA4
S3150800AAA00EF00DBE38B50EF038FF044600252846D0
S3150800AAB00EF0CDFFA04201D1284632BD6D1CEDB285
S3150800AAC0022DF4DBFF2032BD38B504460BF092F8B0
S3150800AAD0050008D14FF4A85120460FF0BAF90546EB
S3150800AAE00BF093F8284632BD30B585B000F0A8F8CB
S3150800AAF004F03DFF38B16088B0F5006F03D1601DE2
S3150800AB000AF0BAFA11E020460AF0EFFA05000FD16A
S3150800AB1000A900200FF039FB002804BF9DF80000AB
S3150800AB20002804D121460FF03BFB054600E0B4257A
S3150800AB300BF06BF8284605B030BD38B500F080F844
S3150800AB4020460AF0D0FA050003D120460FF074FB20
S3150800AB5005460BF05AF8284632BD38B5FF25044697
S3150800AB608DF8005000A90AF078FA10B19DF8000097
S3150800AB7032BDFDF78BF8964901EB0411097B81423A
S3150800AB8007D120460BF0DAF818B120460BF083FB04
S3150800AB900546284632BD70B504460D460AF05FFAEA
S3150800ABA0F8B920460BF075FB0646FF2E07D0FDF7D1
S3150800ABB06DF8874901EB06110A7B824201D0002015
S3150800ABC070BD48882880888868808879287101211E
S3150800ABD020460BF064FB6871002120460BF05FFBF2
S3150800ABE0A871012070BD2DE9F04105460E46904634
S3150800ABF00BF04FFB0746FF2F4FF6FF7413D0FDF7F8
S3150800AC0045F8734901EB0711097B81420BD10EB94F
S3150800AC10012202E0012E06D10022414628460BF009
S3150800AC2062FB00B104882046BDE8F08110B500F04B
S3150800AC3007F8204603F0C4FABDE810400AF0E5BF5D
S3150800AC4004460AF0D1BF38B50C4662490968455C26
S3150800AC50AA420AD200922B460FF230220FF258214E
S3150800AC6002200AF091FA002032BD002100912B46FD
S3150800AC7001460022204600F0B4FC284632BD70B5D5
S3150800AC8098B004460D4616460AF0AEFF522203A9AE
S3150800AC903046FFF7D8FF060011D00DF109000EF077
S3150800ACA035FE02A80EF034FE03A801909DF908307F
S3150800ACB09DF8092000962946204603F0B6F90AF0C1
S3150800ACC0A4FF18B070BDF0B599B004460D461646F7
S3150800ACD01F460AF089FF522203A93846FFF7B3FF39
S3150800ACE048B103A901910090029732461E9B294656
S3150800ACF0204603F0DBF90AF088FF19B0F0BDF8B575
S3150800AD0004460D4606981646194600F04EFC0746B8
S3150800AD10FF2F01D11820F2BD079807702046022898
S3150800AD2004D9C01E08D0401E0DD014E03B4632465A
S3150800AD3029460EF04DFA0CE03B460C220C21304613
S3150800AD400EF0CAFA05E03B460C22314628460EF0BC
S3150800AD509EFA044600E00224384600F0A3FB20468B
S3150800AD60F2BD08221C49FBF72DBF000025703E00E6
S3150800AD7010B504460846FFF7ECFA2046BDE8104031
S3150800AD8006F0B9B806F0B7B8052070470020704736
S3150800AD9001207047042070471048007870474B2000
S3150800ADA0704700B583B000A80D4908220FF08EFB46
S3150800ADB0DDE9000103F0E1FA07BD000029BD002026
S3150800ADC08CC0002090C0002092C00020E434030804
S3150800ADD0C8C60020C8BD00206CFB0020C1BD0020ED
S3150800ADE0F434030810B582B0FFF72AFF0DF101000D
S3150800ADF00EF08CFD00A80EF08BFD9DF900209DF845
S3150800AE00011020460FF083FC0AF0FFFE13BD38B58B
S3150800AE1004460D460AF0E8FE294620460FF041FC96
S3150800AE2008E038B504460D460AF0DEFE29462046F7
S3150800AE300FF0C0FCBDE831400AF0E7BE70470000DD
S3150800AE40526573657420696E666F3A203078257886
S3150800AE502028257029000000457874656E646564AD
S3150800AE6020526573657420696E666F3A20307825BE
S3150800AE7032582028257029002570656D626572494B
S3150800AE806E69742030782578000000004552524FCC
S3150800AE90523A200061662D6D61696E2D736F632EBF
S3150800AEA06300000052663463655A72633230546137
S3150800AEB0726765740000000025706D736720746FF3
S3150800AEC06F2062696720282564203E2025642900B2
S3150800AED0F8B50446DFF8D0030078002802BFDFF88B
S3150800AEE0CC63F06800280D4625D1DFF8C403007846
S3150800AEF00A2818BF022D1ED1FCF7AEFDB278082A23
S3150800AF00074616DA012D02D19019047104E0311DA5
S3150800AF10701DFBF757FE3471B078401CB070384688
S3150800AF20FCF7A0FD204600F0AFFAFEF751FE01201F
S3150800AF30F2BDFCF797FD0020F2BD80B5FDF70FF8CE
S3150800AF40DFF86803C17829B90121C170BDE801405D
S3150800AF50FEF73EBE01BDDFF854130020C8707047E7
S3150800AF6070B5DFF844030078002839D1FCF774FD82
S3150800AF70DFF83843DFF83C530646A07860B12179FC
S3150800AF802970421EA270611DD2B2201DFBF71AFE5F
S3150800AF903046FCF767FD21E03046FCF763FDE068C4
S3150800AFA0F0B9E078022802D00FF096FC28702878CD
S3150800AFB0FF2810D1E07870B1FCF7ECFFFCF7C7FD6D
S3150800AFC00FF069FEFF28287003D0FCF7FDFF00B9D3
S3150800AFD0E070FCF7ECFD2878FF2801D0012070BD51
S3150800AFE0002070BD2DE9F04104460D46FCF749FDE9
S3150800AFF0AE4E0020F070FCF72FFD8046F06820B1B9
S3150800B0004046FCF72FFD002013E0AB4800780528E2
S3150800B01008BFFEF7E8FE00F00EF8070008BFF46068
S3150800B0204046FCF71FFD1FB105B1A047012000E00F
S3150800B0300220BDE8F08110B5FCF70EFD9B499E4B3A
S3150800B0408A781B78C9781A43114305D19B49097830
S3150800B0504C1EA441E40F00E00024FCF703FD204643
S3150800B06010BD10B59449914C00200870FF209149F5
S3150800B07008700020E060FDF7EBFA207000208F4989
S3150800B08008708F4908704FF4A0518E48FEF7E9FF03
S3150800B090BDE81040FCF7E9BC2DE9F843854E8A4D1A
S3150800B0A081463078FF2808D12878FE2805D04FF445
S3150800B0B0B3710FF22420FBF787FC28787B4FDFF863
S3150800B0C0FC817D4C811F01290DD805212170494637
S3150800B0D004F0C2F908B900F014F8307800F0E2F983
S3150800B0E0FF20307003E087F8019000F00AF828780E
S3150800B0F0042804D0F878012804BF0220F870BDE8B7
S3150800B100F183032020704046FEF7A0BF10B5694CB6
S3150800B110217881420DD1084600F0C4F9FCF79CFC61
S3150800B120FF212170FE21684A1170BDE81040FCF726
S3150800B13099BC10BD38B55D4D69780446FCF79EFC90
S3150800B14028B969782046BDE8344001F04DBE31BDC6
S3150800B1502DE9F8430446FF2C05D140F2B7110FF24A
S3150800B1607810FBF731FC0320FEF7C4FC574D204648
S3150800B17000F0CEFC00F00C002870FF206870204616
S3150800B18000F0C6FC00F00C0008285CD028780C28D3
S3150800B19059D1204600F0ADFC074602F0CBF9064629
S3150800B1A006F44C48384600F0E9FCC05D68704FF676
S3150800B1B0FF794FF44060064206D0F81C02F0BAF94F
S3150800B1C0484508BF48F0400806F44060B0F5006FEF
S3150800B1D006D1781D02F0AEF9484508BF48F01008B8
S3150800B1E0697801294CF6500017D0022918D004298D
S3150800B1F008D0062925D0072925D0082918D07C2962
S3150800B20011D04FE0B8F5484F18BFB8F5084F49D1E7
S3150800B2102046FCF72FFC002811E0B8F5484F0EE051
S3150800B220B8F54C4F0BE0B8F54C4F0CD0804506E00E
S3150800B2304CF64040804535D11D480078052802D097
S3150800B24030E080452ED1204600F05DFC05462046BC
S3150800B25000F05EFC00F00C00082816D0A80614D5ED
S3150800B2604FF6DF7000EA0501204600F04EFC204646
S3150800B27000F035FC0546204600F03BFC00F07EFC5D
S3150800B2804119C9B2204600F058FA2146104800F084
S3150800B290AFFB204600F0F8F80E480078BDE8F24308
S3150800B2A0FEF7C2BFBDE8F1838DFD002024FE002015
S3150800B2B0ADC00020DAC0002098FD00209CFD0020CB
S3150800B2C08CFB002050FF0020D3C00020DDFF0020AB
S3150800B2D0DCC00020C6FF00206D61632D61726269C3
S3150800B2E07465722E63000000C108032907DA01217C
S3150800B2F000F007029140C0084002124A11507047F8
S3150800B300C108032907DA012100F007029140C008A5
S3150800B31040020D4A1150704710B50446FCF79CFBD5
S3150800B320E108032909DA094A02EB412101230A68DF
S3150800B33004F00704A3405A400A60BDE81040FCF731
S3150800B34091BB000014B0004010B000400CB00040A3
S3150800B35000281CBF0620FFF7C7BF0620D0E700005D
S3150800B36038B5002814BF04011024FCF775FB054600
S3150800B370F9F7C5FD20180F490F4C82B24A60000C38
S3150800B3800860042020602846FCF76CFB206C40F01F
S3150800B3900400206431BD80B5FCF75EFB06490A6CE3
S3150800B3A022F004020A6404220A60BDE80240FCF79F
S3150800B3B059BB00004820004008A00040DFF8881666
S3150800B3C0096801EB40107047DFF88026126881543F
S3150800B3D070472DE9F041040035D0FCF73DFBDFF856
S3150800B3E07016DFF870360E78FF228046FE2EDFF8DC
S3150800B3F068061BD100260E70DFF860C6DFF86066A7
S3150800B40037781F70002708E007F1010E07F805E0F6
S3150800B410DCF800507A555FFA8EF796F800E0056872
S3150800B4207745F1DB0EEB050606F8012C1E78A642D9
S3150800B4300BD24046FCF716FB0520FEF75BFB002106
S3150800B4401B20FCF77EFDFF201CE0361B1E70DFF874
S3150800B45014360E780F78D3F800E0012507F80E5059
S3150800B460641E056817F805E081F800E0E4B2002CD0
S3150800B470F0D17A5500213046FFF7A6FF4046FCF783
S3150800B480F1FA3046BDE8F08110B50446FCF7E4FA57
S3150800B490DFF8D0150968625C521C6254BDE810409A
S3150800B4A0FCF7E0BA2DE9F041054600F031F804460C
S3150800B4B0FCF7D2FADFF89825DFF89835DFF89865B3
S3150800B4C0DFF8A085FF2D1FD0D8F800106F5C7F1E0F
S3150800B4D06F547F27D8F800E015F80E10394213D1BB
S3150800B4E03168695C002705F80E701F787F1C1F708D
S3150800B4F0FF29376892F800E005F807E0157006BFDF
S3150800B5002546FF240D46DDE7BDE8F041FCF7AABA5B
S3150800B51080B5DFF850150968415C090603D5FFF7C1
S3150800B5204DFF007802BDFF2002BDB0B504460D46AA
S3150800B530FFF7EEFFFF2818BFFFF7B4FFFF2DDFF870
S3150800B540247504D13868215C01F07F0106E028469D
S3150800B550FFF79AFF3868215C41F0800121542046A4
S3150800B560FFF72CFF0570B0BD0EB478B50446012070
S3150800B570FFF72FFF0546FFF721FF0646FF2D08BFF9
S3150800B580FF200FD0E1B22846FFF71EFF05A80021CD
S3150800B59004E050F8042B06F8012B491CC9B2A14255
S3150800B5A0F7D3284672BC5DF810FB70B504460D4605
S3150800B5B005F11F000004400D82B0C0B2FFF709FF75
S3150800B5C00646FF2E0CD02946FFF7FEFE3CB10120A9
S3150800B5D000902B4600223146204600F002F83046FD
S3150800B5E076BD73B500F0BBF8085C15461E467119A2
S3150800B5F0884203DA4FF4B07100F0DAF866B12946EA
S3150800B60001A800F0D9F8024606989DF804100090A3
S3150800B6103346204600F001F873BD2DE9F843089C2F
S3150800B620DFF834840546894616461F460BE04A5D10
S3150800B6300A54491CB142FADBD8F80000BF1B751939
S3150800B64019F800900026FFB2BFB14846FFF7B6FECC
S3150800B6503018F1192029B2BF3E46C6F12006F6B2C7
S3150800B660324624B901462846FBF7ACFAE4E7012C32
S3150800B67008BF2946F8D00021DCE7BDE8F1832DE9AB
S3150800B680F04100F06CF882B01600255C88461F462B
S3150800B6900ED07119C9B2204600F04FF808B118202B
S3150800B6A007E0009733462A4621464046FFF799FFAA
S3150800B6B00020BDE8F6810123E1E70A4600E0521CB6
S3150800B6C01378002BFBD1521A0223D2B2D7E7F8B56A
S3150800B6D0044601F11F00C50402F11F00C0042D0E27
S3150800B6E0000E05B9012500B90120854223D08542FF
S3150800B6F0DFF8646310DA401BC0B2FFF76AFE07463C
S3150800B700FF2F01D10020F2BD691EC9B2204600F004
S3150800B7102BF8316847540EE08A420CD2411EC9B252
S3150800B720204600F021F804463068205CFFF7BAFE90
S3150800B7303168FF2060540120F2BD38B500F00FF8DB
S3150800B7400D46215C2A462046FFF7C1FF28B1294647
S3150800B7502046FFF739FE002032BD182032BD0446C8
S3150800B760DFF8E8020068704704E0DFF8EC221268A8
S3150800B770805C491EC9B20029F7D1704711B581B05E
S3150800B780DFF8C80200680C469DF80410085C84427D
S3150800B79003D34FF4F47100F00BF8214601A800F02A
S3150800B7A00BF804469DF80400FFF708FE201816BD9E
S3150800B7B00FF2D820FBF708B938B504460D46E90458
S3150800B7C02078090EFFF7D0FF207005F01F0032BD64
S3150800B7D080B5FFF7D3FF007802BD10B51446FFF712
S3150800B7E0CDFF047010BDB0B5FFF7B9FF82B0255C78
S3150800B7F0FF2C03D14FF40271FFF7DAFF05F11F00A2
S3150800B8000004400DC0B2FFF7E4FD0746FF2F0AD03B
S3150800B8102946FFF7D9FD0095002322460021384620
S3150800B82000F0B5F83846B6BDF8B504460D461646D6
S3150800B8300120FFF7CEFD0746FFF7C0FDFF2F01D118
S3150800B840FF20F2BD33462A462021201800F00FF8C3
S3150800B8502118C9B23846FFF7B7FD3846F2BD0CB411
S3150800B86080B502AAFFF7E0FF02BC5DF80CFB2DE9E4
S3150800B870F047804616469946C24600250C460AE019
S3150800B8803A465046FBF79EF97819BA44401EC5B2A7
S3150800B890681CC5B2761CA5423CDA3078002839D037
S3150800B8A0312818BF32280ED159F8041B0AF8011B93
S3150800B8B03228EDD1681CC5B2AC42A4BF08120AF8FA
S3150800B8C0010BE5DA26E0342811D1291D59F8040BB5
S3150800B8D08C421FDB0AF8010B010A0AF8011B010C4E
S3150800B8E00AF8011B000E0AF8010BE81CCFE7A0F1C5
S3150800B8F0330259F8041B072A38BF303806D3A0F19B
S3150800B9004102072A34BF373859F8040BC7B27819E9
S3150800B910A042B5DBAAEB0800C0B2BDE8F08770B557
S3150800B92000F02AF800F004F800EB062080B270BD9B
S3150800B9300646294620464BE700B583B002238DF814
S3150800B9400420120A8DF805200122009219E0F8B5A4
S3150800B95000F012F8FFF7ECFF0746E91CC9B2FFF73B
S3150800B960E9FF07EB06260702A91CC9B2FFF7E2FFA3
S3150800B970C01906EB0040F2BD0D46691C0446C9B263
S3150800B98026E70A46014601A8FFF72BFE07BD2DE963
S3150800B990F541089C1F464CB3254689B200A8FFF717
S3150800B9A00BFF0646B9B201A8FFF706FF0746304661
S3150800B9B0B84238BF3846C0F12000C0B2A842B8BF66
S3150800B9C005469DF80400FFF7F9FC80469DF800003F
S3150800B9D0FFF7F4FCAAB207EB08013018FBF7F2F8F8
S3150800B9E0641BA919EF19A4B2002CD5D1BDE8F381BF
S3150800B9F070B504460D46FCF72FF8184B21781B68DE
S3150800BA00FF2908BFED5403D0C9180E78EE540D70FF
S3150800BA102570BDE87040FCF725B838B50446FCF734
S3150800BA201BF82178FF22FF2908BFFF2507D00B4BFB
S3150800BA301B68CD5C8D420EBF2270EA5CCA54FCF7C7
S3150800BA4011F8284632BD0000C4BD0020C8BD00203C
S3150800BA5094C00020C1BD0020D0BD0020D4BD002068
S3150800BA60C0BD0020CCBD00200078FF2801D10120F0
S3150800BA7070470020704710B5044602E0FFF712FD34
S3150800BA802046FFF7CAFFFF28F8D110BD7061636B27
S3150800BA9065742D6275666665722E630010B50C4670
S3150800BAA0FFF78CFC2018BDE8104001F043BD38B5FF
S3150800BAB00C461546FFF782FC29462018BDE8344097
S3150800BAC001F03FBD38B50C461546FFF777FC2554FF
S3150800BAD031BD10B50C46FFF771FC205C10BD80B572
S3150800BAE000F016F800F076F801D1082002BD06200D
S3150800BAF002BD38B50446FFF761FC05462046FFF748
S3150800BB00EEFF401932BD0121C8E70A460121CEE7FA
S3150800BB1080B5FFF753FC407802BD80B5FFF7F3FF09
S3150800BB20800B02BD80B5FFF749FC417841F0100152
S3150800BB30417001BD10B50446FFF7EAFF00F04AF868
S3150800BB4004D05E210FF27810FAF73EFF2046BDE8D2
S3150800BB5010400621A2E738B504460D46FFF7D8FF80
S3150800BB6000F038F804D064210FF25410FAF72CFFCD
S3150800BB702A462046BDE83840062198E780B501F0F8
S3150800BB80D9FC01468A0A42EAA2030FF2441003F0DE
S3150800BB900F03185C4B0700D408B9FF2002BD4906FD
S3150800BBA005D412F003011CBF12F03001801CC0B28C
S3150800BBB002BD10B50446FFF7ABFF00F00BF802D143
S3150800BBC04FF4006010BD06212046FFF767FF00F41A
S3150800BBD0406010BD00F00C000428704738B50446D4
S3150800BBE0FFF7ECFB05462046FFF792FFFFF7F2FF4B
S3150800BBF00CBF06200B20401932BD80B5FFF7EEFFBB
S3150800BC0030E010B50446FFF783FFFFF7E3FF02D1E4
S3150800BC104FF4004010BD06212046FFF73FFF00F411
S3150800BC20404010BD70B50446FFF7C8FB05462046E0
S3150800BC30FFF76EFFFFF7CEFF01D1A81D70BDA81D47
S3150800BC40FFF79CFF06462046FFF7DBFFB0F5004FDF
S3150800BC500CBF022008207119081A801D70BD80B516
S3150800BC60FFF7E0FFBDE8024001F064BCF8B5044602
S3150800BC700D4616460120FFF7ACFB0746FF2F1ED0E0
S3150800BC80FBF7B8FFA104890C41EA803189B238462E
S3150800BC90FFF73BFF3846FFF722FF01463846FFF716
S3150800BCA093FB31463846FFF740FC42F20C00204031
S3150800BCB0042803D129463846FFF74DFF3846F2BD1A
S3150800BCC07061636B65742D6865616465722E6300C7
S3150800BCD00300070D000000000700090F0D000F15EF
S3150800BCE0F8B504460025E01C01F024FC0646601D54
S3150800BCF001F020FC4FF6FF77BE42044608BF012537
S3150800BD0004D003F03CFE864208BF0225BC4208BFA9
S3150800BD1045F0040505D003F02AFE844208BF45F025
S3150800BD2008052846F2BDF8B5054601F003FC0646A7
S3150800BD304FF6CF7000EA06072846FFF7D1FF002422
S3150800BD4048F641018E4208BF052809D1E81D01F0D1
S3150800BD50F1FBAC490988884214BF0224062412E084
S3150800BD604CF6010087421ABF4CF60140874201246F
S3150800BD7009D0FBF75FFF2846FDF7D6FE0546FBF719
S3150800BD8016FF05B10824A04800782040F2BD2DE929
S3150800BD90F04F8346884683B000250026404601F0CA
S3150800BDA0C9FB9A4C82462068002804BF60680028B0
S3150800BDB02F464FF003095CD04FF440611AEA010F91
S3150800BDC00BD008F1030001F0B5FB4FF6FF7188426E
S3150800BDD00CBF022701274FF0050947F0080001901C
S3150800BDE05FEA4A6017D44FF440411AEA010F16D0A9
S3150800BDF00AF44060B0F5406F0CBF082002204844A2
S3150800BE00C0B2404401F096FB009003F0B8FD0099DB
S3150800BE1089B2814201D1019F01E047F004070AF483
S3150800BE204040B0F5004F04BF47F0800087B20AF4DF
S3150800BE304060B0F5006F0BD109EB080001F07AFB02
S3150800BE40804603F094FD80450AD147F0100707E0C5
S3150800BE50B0F5406F04D147F0200701E0002615B978
S3150800BE606068014600E0216839B96D1CEDB2022D03
S3150800BE70F4DBFF20BDE8FE8F761CF6B231F81620FB
S3150800BE801304F2D4BBB29342F6D1BBF1000F05D02E
S3150800BE9081420CBF802010208BF800003046E9E76D
S3150800BEA0000000002DE9F0478146884601F042FB74
S3150800BEB0054605F0070605F4406A2F464846FFF78B
S3150800BEC00FFF04464FF6F7700540514800780828DA
S3150800BED00DD8DFE800F087058705050A0C0C070072
S3150800BEE0002E00E0012E7DD101E0032E7AD139071C
S3150800BEF021D5002E76D10A2801D1A00772D5B5F52D
S3150800BF00004F18BFB5F5404F6CD10026E80648BF6C
S3150800BF1046F08006A80648BF46F4805606F00C0090
S3150800BF20042861D109F1070001F004FB0146FF224C
S3150800BF3046F004005BE0002E364FDCD0022E03D01C
S3150800BF4004D3032E2FD04DE03B2058E04FF6CF7098
S3150800BF5000EA05064846FFF7E6FE38B94946FFF700
S3150800BF6016FFFF2802D1FEF761FA08B10826CDE7C9
S3150800BF7048F64100864235D10A2C18BF062C31D125
S3150800BF8060070ED5FEF7B7F920B13868007B001FA9
S3150800BF90022827D320480078022823D040F6040632
S3150800BFA0B4E70426B2E714F0030005D103F0E7FC72
S3150800BFB04FF6FF71884215D10C26BAF1000F0DD045
S3150800BFC0BAF5006FA2D0BAF5406F0BD10822134913
S3150800BFD009F10500FAF740FE20B997E73868007BB3
S3150800BFE0012893D03A200AE0FF2200213046FFF7C5
S3150800BFF03DFEFF280EBF182088F800000020BDE887
S3150800C000F0870000F4C00020E8FF002078FF002039
S3150800C010ADC000202CFB002098FD00206CFB002002
S3150800C02038B5DFF8801C002008700EF016FF0FF0F8
S3150800C03013F80FF0EEF80FF064F90FF0A5F9FEF714
S3150800C040ADFA0024DFF8605C09E02046FBF77FFDC7
S3150800C0500FF0BCF908F026FDFBF7A9FD641C28784B
S3150800C060E4B28442F1D320E038B5FBF70CFF04466E
S3150800C0700025FF2C08D0FBF76AFDFEF7D7F900B9B3
S3150800C0800125FBF794FD4DB90EF0E7FE0EF0E4FF2F
S3150800C0900FF037F90FF078F9FF2C00D00DB1FEF745
S3150800C0A07DFA0FF093F908F0FDFCBDE831400FF07A
S3150800C0B091BCDFF8F80B0068407B11281CBF4328A9
S3150800C0C0412801D1012070470020704710B5044669
S3150800C0D0FFF70FFD801C01F02DFA4FF6F871884224
S3150800C0E02046A4BFBDE8104000F005B800F05CF893
S3150800C0F000F057F910BD2DE9F04104460EF078FF1F
S3150800C100002837D100F046F94FF6FF7505D2418869
S3150800C110A9422FD02046FFF71EFD00230022022148
S3150800C12020460FF00DF828B32046FFF7E2FC064636
S3150800C130F77903F01CFC804603F019FC42463946A1
S3150800C1400EF064FF20B9BE210FF23C20FAF73CFC42
S3150800C150B01C01F0EFF9A84204BF20460EF078FBA8
S3150800C16030780321084203D10121204601F0A6F9BF
S3150800C170012000E00020BDE8F08138B50446DFF86C
S3150800C180640C0068205C851AEDB2681A80B20090CB
S3150800C19053189BB222462046FFF7F9FB294620464C
S3150800C1A0BDE83440FFF7C9BA2DE9FE4F002582469F
S3150800C1B00195FFF79EFC0646301D01F0BBF90746C0
S3150800C1C0B01C01F0B7F98046307800F0C000029044
S3150800C1D03846FBF759FC8DF80200FF2814BF4FF0CC
S3150800C1E00109A94630780321084208D103F0BFFBAC
S3150800C1F0874202D05FEA090402D0012400E0002445
S3150800C200B079002873D003F0B2FB80450BD103F058
S3150800C210AEFB834600225946504600F0C7F8002870
S3150800C22065D00020AEE000F0B5F838BFB0F802B02F
S3150800C230F0D340460FF077F820B95046FFF763FC75
S3150800C240400514D570784007C346E3D550460FF02D
S3150800C250B0FD00F093FC401C4200D2B2294650467D
S3150800C260FFF78BFF707800F0FB007070D2E77078EC
S3150800C27040071CD550460FF09CFD00F07FFC064693
S3150800C2806F1CF9B200F07CFC002E18BFFF2806D1FF
S3150800C2900022F9B25046FFF7A0FAC346BAE705EB03
S3150800C2A04000811CC9B25046FFF739FBB1E701AA25
S3150800C2B000A940460EF0DBFD8346DCB102988028D3
S3150800C2C004D0402816D19DF8000098B1307800F0C7
S3150800C2D03F00307038460FF026F810B903F047FBD8
S3150800C2E007463A46002140460EF018FE002848D078
S3150800C2F0012047E00198B8B30EF0B2FD8DF80100B1
S3150800C3000198007900F0300002909DF80100FF289E
S3150800C31005D140F223110FF27000FAF755FB1CB352
S3150800C3200298102811D020281ED1B9F1000F07D085
S3150800C3309DF802109DF801000EF0A0FDA0B904E0DA
S3150800C340019800790C2108420ED0F3795A464146E5
S3150800C35038460EF0E5FD01980079019900F0F300E2
S3150800C36040F00400087101259DF8000028B101215C
S3150800C37040460FF054FA20B1C346002D8ED0302225
S3150800C38049E70220BDE8FE8F6E6574776F726B2EE3
S3150800C39063000000DFF814090068017BC91E032941
S3150800C3A07047401E8041C00F70470022F8B504460A
S3150800C3B00D461646FFF79DFB007800F0DBFB0CBF29
S3150800C3C00127002729462046FFF7C5FB03F0CFFAC9
S3150800C3D0854217D028460EF0A4FF50B9DFF8C00AE8
S3150800C3E001783246204601B0BDE8F04000230EF041
S3150800C3F0A7BE6FB903F0BBFA0023224629460DF003
S3150800C40076F928B10121204601F058F80120F2BD3D
S3150800C4102046FFF778FB400505D52046BDE8F440E1
S3150800C4200021FEF755BD2046FBF720FBFFF7B9FFB5
S3150800C430F2BD2DE9F04104461646884630460FF00F
S3150800C44085FD07463046FFF74AFB3E1AF6B237190E
S3150800C450A8EB060292B2394607F10E00FAF7B2FBCC
S3150800C46028203870DFF84458286890F82000787338
S3150800C47008F026FB0246791C012001F066F808221E
S3150800C480DFF86C1C781DFAF79DFB286890F82000E9
S3150800C49010F094FC08F10E0133460022C9B220467A
S3150800C4A008F02FFD1220BDE8F0812DE9F04F85B088
S3150800C4B080460D460FF04AFD82464046FFF73AFB96
S3150800C4C081464046FFF70BFB07460AF10E0189B283
S3150800C4D040460FF086FC002852D0002000900E231C
S3150800C4E05246414601A8FFF77CF80DF105010120E7
S3150800C4F001F039F883469DF804009DF81140282874
S3150800C5003ED10822DFF8E81B0DF10900FAF7A4FB73
S3150800C510B0B3DFF8E06B204610F050FC58B930682D
S3150800C52090F82000201AC0B280280DDA00210020D9
S3150800C53003F046FD08E001200090002352463946E4
S3150800C540404608F013FDD8B140460FF016FC4946A0
S3150800C5500DF1090010F02DFDFE28824610D0FF28A7
S3150800C5603CD148460EF089FF8246BAF1FF0FDFF844
S3150800C570887B0BD00DF109010FF075F9387868B38F
S3150800C58000211920FBF7DDFC0020F0E200F0FBFAA1
S3150800C5900AD140460FF0DAFC01464046FFF718F983
S3150800C5A0082801D10120F0E738780028E8D130685A
S3150800C5B090F82D1090F82C00814206D3A81C00F0A4
S3150800C5C0B9FF4FF6F8718842DADA0DF109014846E3
S3150800C5D00FF0A5F848460EF050FF8246306890F8EE
S3150800C5E02000844205D02146012010F0F6F90028E3
S3150800C5F0C6D0306890F82000844203D1504610F027
S3150800C60046FD28B95946504610F0BCFC0028BCD057
S3150800C6105946504610F0C6FCC4E738B5DFF8E00ABC
S3150800C620FFF7FBF90446FF2C1DD0DFF8D85A032183
S3150800C630FFF74FFA287004212046FFF74AFA687078
S3150800C64005212046FFF745FAA8700120FEF780FE6F
S3150800C650204600F009F82046FEF724FFBDE83240E0
S3150800C6600020FEF775BE31BD38B50446FFF750FA0F
S3150800C67000F00C052046FFF750FAFBF768FA20464B
S3150800C680FFF746FA00F040FD32D1FDF7CFFE18B1AC
S3150800C6902046FDF7FEFF75E0062200212046FFF73B
S3150800C6A06CFD2046FEF78AFEFFF73DFB8DF801007C
S3150800C6B08DF802409DF8010048B92046FEF77EFE37
S3150800C6C001460DF10100FFF762FB8DF800009DF8A9
S3150800C6D00100802804D100A802F00BFF002851D1E0
S3150800C6E0FBF7A8FA00A8FDF712FAFBF760FA49E08B
S3150800C6F0042D204617D1FFF706FA00051ED402209E
S3150800C7000021FBF71EFCFDF791FE08B1042D39D078
S3150800C7100C2D15D12146012007F077FC90B3204651
S3150800C72003F0CEFE2EE0FFF744FAB0F5006FE6D12F
S3150800C7302046FFF762FA00F0B5FBE0D10020DFE7FC
S3150800C7401DB9204604F072F81CE0042D1AD1DFF852
S3150800C750A4090568687B02280CD0FFF7AAFC48B92B
S3150800C760687B332818BF312804D0012804BF287BEA
S3150800C770052807D12146022007F047FC10B12046BC
S3150800C78000F004F8FBF713FA31BD00002DE9F04F6D
S3150800C79085B08246FFF7ADF905465046FFF7CAF958
S3150800C7A0ADF80600281D00F0C5FE8346A81C00F05B
S3150800C7B0C1FEADF8040028460FF0E7FB03904FF6DC
S3150800C7C0F87200F0E0F9687800F00201029100F0D2
S3150800C7D00100BDF8041004900CBF01270027914200
S3150800C7E0ACBF4FF001084FF0000850460FF0AEFB03
S3150800C7F08146287800F03C01082943D1DFF8E41582
S3150800C80009681AF8011089453CD217B9032108426C
S3150800C81038D10298DFF8DC4848B12068C07E002885
S3150800C82030D029465046FFF740FE00282AD02FB1BF
S3150800C8305146032007F0E9FB002823D0494600F0BB
S3150800C8409FF90646029878B92068C07E60B1BDF89F
S3150800C8500400009003F08BF80099814212D197B139
S3150800C860062E18BF072E0DD12068417B022956D106
S3150800C870029911B9C07E002851D1BDF8060010F002
S3150800C88070FD60B173E106F003000128ECD04A465A
S3150800C8902946504600F0A6FD0028E5D167E1BDF817
S3150800C8A00600009003F063F80099814211D12068D0
S3150800C8B0007BC01E032808D203F059F801462068F9
S3150800C8C040880D2210F08AFD51E1012010F05EFC2F
S3150800C8D04DE1BDF806000EF026FD70B903F04FF8DD
S3150800C8E04FF6FF71884208D0DFF8040C00780A2852
S3150800C8F004BFBDF806000EF053FD03990122584601
S3150800C90010F06DFC0028E3D128460FF031FB0146F4
S3150800C910BDF80400002210F062FC0028D8D1BDF84A
S3150800C92004004FF6FC71884266D12068007BC01E61
S3150800C9300328CDD3A87908B1401EA87168784007A6
S3150800C9402AD50020029002AA00A958460EF08FFAAE
S3150800C950029808B30EF084FA0446BDF80400FBF703
S3150800C96093F80299097901F03003102B1CBF01F0E6
S3150800C9700C02082A03D0029A01F0F30111710299F8
S3150800C980097901F03301202906D1FF2804D0014690
S3150800C990012220460EF071FABDF80600FBF774F87E
S3150800C9A0FF2804D0DFF84C2B12680021815409F1C6
S3150800C9B00104049840EA0800C0B2002874D1E97955
S3150800C9C058460EF0CDFC02F09FFD08B1039820B141
S3150800C9D0BDF80610584600F0CAF902F0C8FFBDF8BF
S3150800C9E00410884260D008460EF09DFC70B177B1FD
S3150800C9F0012E1BD1002267E04FF6FD71884299D1BE
S3150800CA002068007B001F022894D2B0E077B9BDF8F1
S3150800CA1004000EF086FC48B1BDF804100023524607
S3150800CA2058460CF064FE002840F09D80DFF8C80ADE
S3150800CA30007848B958460EF076FC28B9BDF80400C7
S3150800CA400EF071FC0028E0D0C7B1052E16D102F011
S3150800CA508EFF8DF8000002F08AFF000A8DF80100AB
S3150800CA60022200A95046FEF726FE00281BD1E1B295
S3150800CA705046FEF783FE0178491C01706878400726
S3150800CA800AD550460FF095F9411CC9B25046FEF733
S3150800CA9075FE0178491E01705046FFF785FB002197
S3150800CAA01C20FBF74EFA62E0002F4ED0701E0928B4
S3150800CAB05DD8DFE800F005050E131930393F43430A
S3150800CAC0022E0CBF01220022494650460EF020FADB
S3150800CAD04DE04946504610F0B5FC48E04A465146F6
S3150800CAE0584610F0EAFD42E0E1B200F049F8054682
S3150800CAF0DFF8087A03983860FBF79CF809F102001A
S3150800CB00C0B20090534639682A465846FDF703F8DE
S3150800CB10FBF74DF82BE0CDF800902B465246002146
S3150800CB20012003F056FB22E04A465146012003F055
S3150800CB3020FC1CE050460EF0F5F918E0504604F0CB
S3150800CB40E6FAB8F1000F12D009E0049820B1287A65
S3150800CB5000F010F80BD102E0B8F1000F03D05046F0
S3150800CB6000F016F803E00021504600F0A7FC05B0D7
S3150800CB70BDE8F08F00F003000128704705462946F6
S3150800CB805046FEF725BE287800F0030001287047B6
S3150800CB902DE9F84F8046FEF7ACFF05464046FEF7FE
S3150800CBA0C9FF0446281D00F0C5FC8146A81C00F0F4
S3150800CBB0C1FC834695F807A020460EF0B4FB07464D
S3150800CBC02946404600F074F80646022E61D02246F1
S3150800CBD0514648460EF0D7F900285AD102F0C7FE4A
S3150800CBE0814556D0DFF81809007860B9012E06D0BD
S3150800CBF002F08AFC18B128460FF0C7F918B1214689
S3150800CC00484600F0B4F82246514648460EF0FEF96A
S3150800CC1000283ED028780321084203D10021404647
S3150800CC2000F04CFCA879A0B300F035F831D3687849
S3150800CC30C00715D52C7A58460DF045F840B1E108DD
S3150800CC4004F0E00001F01C01084340F0010006E092
S3150800CC5004F01C001C2803D005281ADB201F2872A4
S3150800CC604FF6FF7529464046FEF775FF0FB10022BD
S3150800CC7003E0FBF7EDFC00F03F02002302214046EB
S3150800CC800EF05EFAAB4504D14046BDE8F24F0DF012
S3150800CC90DFBDBDE8F18FDFF85C040068007BC01ECD
S3150800CCA00328704758FB002000BE00202CFB0020FC
S3150800CCB0F0B587B0044608780321084254D12146C6
S3150800CCC0042007F0A2F900284FD020460FF03EF9BD
S3150800CCD0014600F084FB0321084245D120460FF0A7
S3150800CCE035F90546294600F07AFB0FF6380248CA98
S3150800CCF005A948C10321084236D1002000906A1CC4
S3150800CD000523D2B2214603A8FEF76BFC052203A928
S3150800CD1005A8F9F7ADFF38BB20460FF09AF9054686
S3150800CD20A91C00F05BFB0646691C00F057FB00EBEC
S3150800CD30062605F10B0100F051FB0746002000907E
S3150800CD40EA1C0823D2B2214601A8FEF74AFC20466F
S3150800CD50FEF7F0FE3A46B1B202F0D3FB012201A972
S3150800CD60B0B210F03CFA00E0002007B0F0BD38B5CC
S3150800CD7004460D460EF0D7FA002818BFAC4206D076
S3150800CD802046FAF781FEBDE832400EF0D3BA31BD2F
S3150800CD9010B5192241A10320FCF7ADFEDFF8544374
S3150800CDA02068417B022918BF032901D0932010BDB2
S3150800CDB0007BC01E032802D202F09DFB08B170203A
S3150800CDC010BD10F087FD2068407B032805D100219F
S3150800CDD0012003F0F5F8012010BDFEF7AEF800209B
S3150800CDE010BD0000C8BD00202DE9F04180460D4663
S3150800CDF000260DB9012602E0312D08BF0025FEF7F1
S3150800CE0087FE00F081F913D1FDF710FB80B9DFF832
S3150800CE10F46686F80080FAF70DFF4046FEF778FBC1
S3150800CE202946FCF775FEFAF7C2FEFF20307032E09D
S3150800CE30DFF8D4764046FEF76BFE0C21084205D192
S3150800CE403978BDE8F0410120FBF77BB8032440465A
S3150800CE50FEF7AFFEB0F5006F07D14046FEF7CDFEF0
S3150800CE6000F020F808BF012401D005B1052439785F
S3150800CE702046FBF766F8294640460DF05BFD50B99B
S3150800CE80294640460EF0DCF928B93246294640467E
S3150800CE90BDE8F0410AE0BDE8F0810000420000006C
S3150800CEA0C0C000204FF6FF71884270472DE9F04F49
S3150800CEB083B007460E461446FEF72AFE00F024F90C
S3150800CEC008D1FDF7B3FA28B1224631463846FDF7B0
S3150800CED0A7FB07E1DFF81C823846FEF719FE00F0CB
S3150800CEE00C000C2838465AD1FEF703FE8246FEF798
S3150800CEF045FE50444FF0FF090178DFF8085601292E
S3150800CF0006D0022912D0042924D07C2939D0E9E098
S3150800CF104EB99AF804009AF8031001EB002080B283
S3150800CF2002F031FDDEE003F04CFCDBE0002E04BF2E
S3150800CF30C178002908D18278407800EB022039466A
S3150800CF4080B20FF036FC92E00AF1050100200EF0DF
S3150800CF50DDF992E0D8F80000407B0228E5D11EB939
S3150800CF6010F04EFD04B931263346222263A1032070
S3150800CF70FCF7C1FD2F70FAF75DFE304610F0B3FDE1
S3150800CF8008E02F70FAF756FE3846FEF7C1FA314622
S3150800CF90FCF7BCFDFAF70BFE85F80090A2E0FEF759
S3150800CFA0A8FD0446201D00F0C5FA8146A01C00F025
S3150800CFB0C1FA05464FF6F87B5D450BDAD8F800004E
S3150800CFC0B0F84410491CA0F844101EB144304188FA
S3150800CFD0491C4180207800F00301012950D13846C8
S3150800CFE00EF0B4FF01463846FEF7F2FB042802D0DD
S3150800CFF0072804D076E0384610F04AFC72E020464E
S3150800D0000EF0B6FF00286DD0014600200EF07EF91E
S3150800D010044638460EF09AFF00210091421C03236D
S3150800D020D2B2394601A8FEF7DCFA002E02BFD8F8BC
S3150800D0300000407B02281FD101A88178E1B9407819
S3150800D0409DF8041001EB00252046FF280CD0DFF8D8
S3150800D050BC14096831F810204FF6FF331A4021F83E
S3150800D0601020A9B20EF065F9A8B20DF0FDFE002158
S3150800D0701020FAF766FF35E020460EF05BF931E03E
S3150800D080032108422ED102F072FC814504D03846AD
S3150800D090FEF739FDC00606D5002E0CBF0021662115
S3150800D0A0384610F0C7FFEEB15D451BDA607810F020
S3150800D0B0040606D128460DF0DDFE070002D001273A
S3150800D0C000E0002728460EF02CF910B1062267B9B1
S3150800D0D004E00EB10B22FAE737B902222946484680
S3150800D0E010F07CF9BDE8F78F0C2249462846F7E789
S3150800D0F06CFB00202CFB0020E2FF002042420000CF
S3150800D100DCC00020CFFF002000F00C000828704784
S3150800D1102DE9F04F044685B094F800A05046FEF776
S3150800D120FCFCFAF714FDFDF781F9B0B1A0790128E6
S3150800D13005D1DFF8DC03017841F0010101702078A0
S3150800D140FDF7D0FA002840F0D080607800F0F000B3
S3150800D1506070FAF72CFD002009E55046FEF7C9FC79
S3150800D1600646301D00F0E6F9ADF80000B01C00F0E8
S3150800D170E1F9814650460EF0E9FE83465946FFF727
S3150800D180FFFC8DF802003078FFF7F4FC0CBF9DF821
S3150800D1900250FF2500F016FDA188401A1FFA80F8F4
S3150800D1A002F0E5FBBDF8001088420CBF01270027F6
S3150800D1B0084610F0D6F80028C7D1484610F0D1F82E
S3150800D1C020B148460EF0AFF80028BED0FFF763FD41
S3150800D1D021D2062D18BF042D62D05A463146504634
S3150800D1E000F000F9B8B9FEF764FF20B19DF8020017
S3150800D1F0FFF7C0FC0FD0FDF77EF800284DD002F0EF
S3150800D200B6FB0146301D00F09CF9C248006841880B
S3150800D2105046FEF7A0FC012D42D15046FEF78AFC87
S3150800D220FFF740FE3CD1002300F0B3F805008CD090
S3150800D2306A799DF80D00824207D20BF10501C9B241
S3150800D2405046FEF7CAFA00F09EF8FBF701FA7E216F
S3150800D25090FBF1F17E2202FB110000F580706080E0
S3150800D26018219DF80E00084212D060780F21084256
S3150800D27008BF002F0CD1FAF7DDFC30460EF085FE0C
S3150800D28001466A79BDF80000FCF748FCFAF78FFCFE
S3150800D290FAF78DFC9DF80F005EE72820608058E7B6
S3150800D2A04FF6F870814502DA7078C00721D5FFF786
S3150800D2B0F2FC1ED340F6B93080455CDAFBF7C8F9B4
S3150800D2C000F03F00C0F5FA706080607800090CD065
S3150800D2D05FB9F179BDF800000DF04BFE00281EBFBE
S3150800D2E080884FF6FF718842A1D0FAF760FC0120CA
S3150800D2F032E7022D26D1012300F04BF8054602F04D
S3150800D30036FB0146BDF80A00814202D00EF00BF842
S3150800D31058B3002D8BD06B880122594650460DF024
S3150800D320F8FD7C480068417E491C4176F171BDF8DC
S3150800D33006006988884201D000F025F84FF4C870C5
S3150800D3406080D2E7032D10D17FB10BF10101C9B27C
S3150800D350FFF716FC0C2808D10EF0F5FAFFF7A2FD28
S3150800D36003D001465046FEF7F6FB607800097FF4C5
S3150800D370ECAEB8F1FB0FBFF6E8AEFBF769F900F0C3
S3150800D3801F001030DCE7607800F0F000801C607049
S3150800D390704701AA594650460DF0BDBD70B5044602
S3150800D3A0FDF744F8C0B92046FEF7A3FB054620461C
S3150800D3B00EF0CCFD014600F012F806462046FEF7B0
S3150800D3C0B9FB4FF6F871884204DAFFF7DCFB08BFB1
S3150800D3D0022E01D1012070BD002070BDC9B22046C1
S3150800D3E0FEF7F6B9F8B504461546084600F0A2F861
S3150800D3F020F4007041F20801884218D146480068B6
S3150800D400205C401B072812DB00260FF22017711933
S3150800D410FFF7E4FFF15D814203D0022E08BF002822
S3150800D42005D1761CF6B2072EF1D30120F2BD0020F5
S3150800D430F2BD2DE9F04180460C46FEF769FBFFF781
S3150800D44063FE31D0201D00F075F80546E6794046A2
S3150800D450FEF770FB07464046FEF755FB00060FD55C
S3150800D4602C480068017B091F022909D2417B022941
S3150800D47006D140884FF6FF71884218BFFAF7AEFD0D
S3150800D480A01C00F057F84FF6F871884202DA607867
S3150800D490C0070BD520780321084205D13A46314604
S3150800D4A028460DF070FD05E0012005E031462846C6
S3150800D4B00DF042FFFEF775FFBDE8F08110B5044692
S3150800D4C041B1FF220321FEF7FDFA0022042120467E
S3150800D4D0FEF7F8FA21461148FEF78AFA2046FDF7C4
S3150800D4E0D3FF0F480078BDE81040FCF79DBE00004A
S3150800D4F0ADC00020E8BD0020D8BD002048FB0020B4
S3150800D500E6FE0020A0C00020E6FF0020E4BD0020C3
S3150800D51099FD00202CFB0020C8BD0020BCC00020BF
S3150800D520C6FF0020001300000000000000FF0140B5
S3150800D5300EC0FF0041780078FFE700EB012080B2BB
S3150800D54070470170090A4170704710B5002300281A
S3150800D55014BF1C46C3F10304E4B25B1C6254120AEE
S3150800D560042BF4DB10BD30B54A788B78CC78097873
S3150800D57018B120461D460C4602E0154608461A46CE
S3150800D58045EA002044EA022141EA004030BD000095
S3150800D590174838B50446FAF75FFA054615480021D4
S3150800D5A00160082154F8042B8260491E54F8042BA4
S3150800D5B0C260F7D101210160FBF7A2FB284613E000
S3150800D5C00C4900200860FBF79BBB38B545096D017F
S3150800D5D009480A4C854238BF094CFAF73DFA04490E
S3150800D5E045F014024C620A62BDE83240FAF73ABACC
S3150800D5F0C8BE002094ED00E09800002009000B103A
S3150800D60008000B1070B12DE9F05FEFF308800D49A3
S3150800D6100860EFF309800C490860EFF314800B49A2
S3150800D620086030BF0748006880F308880648006825
S3150800D63080F309880548006880F31488BDE8F05F20
S3150800D6407047000080FD002084FD002088FD002032
S3150800D650DFF8E8144FF4002008600021DFF8E00442
S3150800D66041604FF0FF31016070478178DFF8D424BC
S3150800D6701068C84000F00100704770B50446A078ED
S3150800D6802178DFF8C454DFF8C43498B9A1B3216906
S3150800D690A6898E4288BF0E46881B206126B1A168DE
S3150800D6A01868F2B2F9F78EFAA0683018A060AE6072
S3150800D6B0012020E001B32169A6898E4288BF0E4663
S3150800D6C0891B2161616971186161002E1CBFA168FF
S3150800D6D0002904D053F82000F2B2F9F773FAA068CB
S3150800D6E03018A060A178DFF8680450F821000660B9
S3150800D6F00120A1788840286070BD10B5DFF8542451
S3150800D700126800F00F0300219B1804064CBF93F81B
S3150800D710D43093F8E1302BB1282000FB032000F128
S3150800D720340104E00F23184208BF02F13401084609
S3150800D73010BDDFF820140968CA7F01F11F03062807
S3150800D74008BF5A709A70C877096B4B68190018BFDA
S3150800D750824202D00146104618477047DFF8F403A4
S3150800D7600068C07F704710B500F011F8040002D1B8
S3150800D770D42100F005F894F8200000B1012010BD6E
S3150800D7800FF23440F9F720B90C4615461E46C0B2CA
S3150800D790B3E72DE9F14FDFF8BC53286882B0F022D1
S3150800D7A00021F9F752FA28680FF20C4A011D0160A8
S3150800D7B007220299096841624FF0010902994968EE
S3150800D7C08162002602998968C162CB460299097B63
S3150800D7D08177286800F11D018A700022CA700A71D3
S3150800D7E0174602994969016342770121286800F8BA
S3150800D7F0342F82608270C181C27002714271082121
S3150800D80081810261426180F8202042620221C16161
S3150800D81090462868846A60880019009015E09A087E
S3150800D820029B1B69F35C521C5A43C26108F101084A
S3150800D8302A68891881F8E1608078062803DB40F2B7
S3150800D840BD1100F0AFF8207804190098844242D23E
S3150800D850207818B940F2931100F0A4F860780528EA
S3150800D860F1D12868761C282101FB0600A178CA098F
S3150800D87000F8342F002181604FF0000CA178C170A8
S3150800D880002A01F00F0181700BFA01F3C381E378D6
S3150800D89003F003030371A3888381C0F810C0C0F89E
S3150800D8A014C080F820C0C0F824C0B8D080F805900D
S3150800D8B09A08029B1B69F35C5A43C2617F1C2A685B
S3150800D8C0891809F1010981F8D46080780628BADB3D
S3150800D8D04FF4D971B5E7032E03D040F2CB1100F00F
S3150800D8E061F8062F03D34FF4E77100F05BF8B8F13F
S3150800D8F0060F03D340F2D11100F054F8FAF7ACF84A
S3150800D9000446FFF7A5FE0121084610F0BDFD68B9DB
S3150800D9108B49924A904B48604FF0FF300860904818
S3150800D92048604FF400201060012216E02046FAF7FE
S3150800D93099F840F2E51100F035F86FF0030028E099
S3150800D9405F6800F028F85F604FF0800C4F688078B9
S3150800D9500CFA00F038434860521CD2B21046864290
S3150800D96011DB2F684FF0280C0CFB007010F8347F81
S3150800D970002FE5D01F6800F00EF81F604F6880780A
S3150800D9800BFA00F0E6E710F06FFD2046FAF76AF8A2
S3150800D9900020BDE8FE8F90F802C00BFA0CFC4CEA9A
S3150800D9A0070770475046F9F70FB82DE9F843FFF710
S3150800D9B0EBFE07000FF2002806D14FF40A7100F0BB
S3150800D9C097F86FF003003CE0002C18BF14F0030032
S3150800D9D003D040F2312100F08BF8FAF73DF8814682
S3150800D9E03846FFF742FE20B100F085F86FF00400D4
S3150800D9F027E097F8200020B100F07DF86FF00100CD
S3150800DA001FE0B87800281FBF52480068C07F042866
S3150800DA1004D000F070F86FF0080012E000F05DF82E
S3150800DA2010B90120387006E03878012803D040F292
S3150800DA30692100F05DF8012000F055F800F05BF868
S3150800DA400020BDE8F2832DE9F843FFF79DFE0700A5
S3150800DA500FF2641803D140F29A2100F049F8002C1D
S3150800DA6018BF14F0030003D040F2A12100F040F8DB
S3150800DA70F9F7F2FF81463846FFF7F7FD20B100F0C7
S3150800DA803AF86FF0040026E097F82000012804D140
S3150800DA9000F031F86FF001001DE0B87800281FBFCC
S3150800DAA02C480068C07F042804D000F024F86FF0E2
S3150800DAB0080010E000F011F808B9387005E0387869
S3150800DAC018B140F2CD2100F013F8022000F00BF84F
S3150800DAD000F011F80020BDE8F283BC603D6100202B
S3150800DAE07861B878704787F820007E623846C4E5C2
S3150800DAF04046F8F769BF4846F9F7B4BF70B5194903
S3150800DB00194BCA68002110E05488A418491CA47946
S3150800DB1000F8014B5488DD88641C94FBF5F605FB78
S3150800DB20164454809488641E9480948814B1C9B2AB
S3150800DB304029E9DBC8B270BD0000000080E100E0C2
S3150800DB4088A8004054100140081001406CBD002010
S3150800DB50A4BD00204CBD00204C10014000E100E0AF
S3150800DB608100F00014C00020689A000800B591B042
S3150800DB708520FFF7F8FD48B900A8FFF7BFFF28B1D1
S3150800DB800246002300A98520FFF70FFF11B000BD4C
S3150800DB9038B504460D468520FFF7E5FD0028FAD17D
S3150800DBA000232A4621468520FFF7FFFE8520FFF73A
S3150800DBB0DAFD0028FAD131BD656D5F757362642E92
S3150800DBC06300000080B500F008F880B202BD80B599
S3150800DBD000F003F80002000C02BD38B5F9F73CFF67
S3150800DBE04F490C684D68F9F73DFF45EA044032BDD8
S3150800DBF0704780B5FFF7FCFF4A49072008600120F7
S3150800DC004949087001BD2DE9F843044600252068F6
S3150800DC1010B9FAF735FD2AE0F9F71EFF00F074F897
S3150800DC20206810F1010F1CBF401C2060FFF7D5FFCC
S3150800DC3021683D4E3B4F814600F061F82168494412
S3150800DC40090C0160357002203860386400F061F80C
S3150800DC500120FAF7A0FF3D64307838B98525FFF72B
S3150800DC60BCFF2168081A4844206000E02560284661
S3150800DC70BDE8F2832DE9F84F0D468246286893469B
S3150800DC80002710B9FAF7FCFC36E0F9F7E5FE00F0D4
S3150800DC903BF8286810F1010F1CBF401C2860FFF7ED
S3150800DCA09CFF214C1F4E27708146296800F027F8F3
S3150800DCB029684944090C016002203060306400F08C
S3150800DCC028F801E02F6027702868A8B1BAF1000F7C
S3150800DCD003D10220FAF75FFF03E059460220FAF75C
S3150800DCE039FF376420780028ECD18527FFF775FFC0
S3150800DCF02968081A484428603846BDE8F28F0C4857
S3150800DD00494489B241607047804608491020086036
S3150800DD1070471020074908604046F9F7A3BE00007F
S3150800DD201060004014A00040C8FF002080E100E019
S3150800DD301860004000E100E001460022002099E753
S3150800DD400020DFF8BC1601EBC003FF221A7100227F
S3150800DD5041F83020401C0328F5DB70472DE9F04FC9
S3150800DD6081468FB01C46FF20032C8B4617468DF83C
S3150800DD70090005DB189D2A78520707D5052C03DA12
S3150800DD8001200FB0BDE8F08F297900E0A9788DF859
S3150800DD900B100021DFF868A60AEBC1021279FF2AE8
S3150800DDA00BD0491CC9B20329F6DB03901A9E36B17B
S3150800DDB00398FF2803D1B420E3E70391F6E7002090
S3150800DDC08DF80A0009AA38790DF10A0107F049F910
S3150800DDD058B1BDF8300038809DF80A0007F0F3FE08
S3150800DDE08DF8080000283CD114E0387908F051FA7B
S3150800DDF08046B8F1FF0F08BFA320C2D0387907F0D4
S3150800DE00F9FE8DF8080060BBDFF8F80500EB08108E
S3150800DE1040883880B9F1000F0CBF58464FF6FF709E
S3150800DE20019000217888DDF86480009042463B889E
S3150800DE309DF80B000AF0D2F918B1F88840F02000D6
S3150800DE40F880049605970695ADF81CB0ADF81E4007
S3150800DE508DF820908DF8218002A904A807F036F9DC
S3150800DE6010B19DF808008CE73A46594648460AF02C
S3150800DE70C0F9A04219D30DF1090001900095E3B24B
S3150800DE803A4659464846FCF73AFF8DF8080086B1E7
S3150800DE9078B99DF80900FF2819D003990AEBC10142
S3150800DEA0087103984AF8306011E074208DF808006C
S3150800DEB010E0BA2808D1B879C0060BD500208DF82D
S3150800DEC00800012010F039FB9DF8080010B9112050
S3150800DED010F051FB07F099FEC3E710B584B008812E
S3150800DEE000931346069C02940A46012401460194AF
S3150800DEF0032011E010B582B000240094FFF7EDFF6F
S3150800DF0016BD10B584B0069C0093029413460A46C3
S3150800DF100124014601940420FFF720FF04B010BD38
S3150800DF2010B582B000240094FFF7EBFF16BDF0B5DC
S3150800DF300446022C85B00D4616461F460AD100A98E
S3150800DF40E8B20CF022F988B99DF8010030719DF805
S3150800DF50040070713B460B980290324600200190EF
S3150800DF6029460A9800902046FFF7F8FE05B0F0BD4E
S3150800DF701CB500240194049C0094FFF7D8FF16BD35
S3150800DF8080B50346DFF88004008839B9BDE800503B
S3150800DF900FF288420FF27C4107F0FCB800910FF2AD
S3150800DFA094420FF2804107F0F5F801BD7CB50446AE
S3150800DFB00D4601F094FE0646334622460FF27C4192
S3150800DFC0022007F0E1F87EB975B101A800210160C9
S3150800DFD0032000908DF8054001AB002236214FF64C
S3150800DFE0FC700BF0B0FF0646304676BD70B50D46A0
S3150800DFF004462888164608B1002070BD204607F05A
S3150800E00067F8002802BF688848F22101884203D1D0
S3150800E0107178204607F032F86888B0F5004FC4BF1B
S3150800E020082010F0C0FA012070BD2DE9F04788B02D
S3150800E03081460E46924698460BF06FFC8DF808907E
S3150800E04003960546119F0497ADF816508DF818A04B
S3150800E0508DF81980109CADF81440FCF721FD8DF859
S3150800E0601A00FCF71FFD8DF81B00F9F7E5FD8DF882
S3150800E0701C0002A807F028F8A8B923463A463146F4
S3150800E080284610F089FC70B923463A463146284698
S3150800E090FFF7ACFF38B90190009523463A46494642
S3150800E0A0304609F078FF08B0BDE8F0872DE9FC474F
S3150800E0B01D000A9C0B9E80468946174631D00FF2F2
S3150800E0C0F4320FF2E431022007F064F83B880BB90A
S3150800E0D0C4A20AE040F209118B4208BFC2A204D0CA
S3150800E0E0B3F5827F0CBFC1A2C1A2019478880FF252
S3150800E0F064310090022007F04DF8388870B1032C7F
S3150800E1000CDB3078B3780FF27C31C0074CBF0FF2C6
S3150800E11088320FF28C32022007F03CF8B5A100F0E5
S3150800E12045F80C98B649002201EBC2031B798342D5
S3150800E13011D0521CD2B2032AF6DB4FF0000A002295
S3150800E14001EBC20393F804C0844507D0521CD2B22F
S3150800E150032AF5DB07E051F832A0F0E7FF20187133
S3150800E160002041F83200002D04BF3888002806D167
S3150800E1707888B0F5004FBCBF082010F0FCF90120E4
S3150800E18010F011FA36B13078C00703D500F011F84F
S3150800E19007F00EFEBAF1000F02D000F00AF8D047D9
S3150800E1A000F007F806F066FFBDE8F387022006F0E0
S3150800E1B0EBBF0195009623463A46494640467047C6
S3150800E1C02DE9FC41044690380FF200360FF2043868
S3150800E1D00CD0401E4BD0C01E49D0801E47D0801E92
S3150800E1E045D01338042842D9113851D10020ADF84A
S3150800E1F0040010F083FC0546FCF74CFC471EBF41A3
S3150800E200FF0F2DB1002F14BFA8882889ADF8040088
S3150800E2100DF106000EF0BAF8BDF80600800605D521
S3150800E220BDF8040040F02000ADF804003A4601A904
S3150800E230002006F060FFBDF804000EF08EF8FCF72B
S3150800E24029FC0090434632460FF27021022006F060
S3150800E2509BFFBC2C06D10FF28821FFF7A7FF06F01B
S3150800E2603FFF01E005F0EEFA06F03BFF10E0912CC7
S3150800E27004D1434632460FF2882104E00FF2982370
S3150800E2800FF288213246022006F07EFF09F084FD4F
S3150800E290204610F0B7FC204610F0D0FD204610F0BE
S3150800E2A00AFF204608F027FB18B10FF27421FFF782
S3150800E2B07DFFBDE8F3817CB500240FF2E025534EBF
S3150800E2C0204607F080FC306890B10078012808BF26
S3150800E2D011F066F800A8FCF755FD70B930689DF88E
S3150800E2E000100078814203D0012808BF022904D112
S3150800E2F02868019001A801F007FE07F086FC641C57
S3150800E300022CDDDB73BD10B5044607F06DFC204614
S3150800E31010F043FDBDE8104007F077BC7020704749
S3150800E32038B53A49096804467020A9B10D78012D17
S3150800E33008BF022511F060F820890FF230220FF28B
S3150800E340102100900120E37A06F01EFF2146284698
S3150800E350BDE8344001F0E6BC32BD10B50446FCF712
S3150800E36093FB0020015DFF2904BF00210155401CD5
S3150800E3701028F7DB0020207410BD33B581B00020CB
S3150800E38000240FF21C2108E011F830309DF80A50DD
S3150800E390AB4208BF5468401CC0B201EBC0025368C8
S3150800E3A0002BF1D19DF808009DF807309DF806204E
S3150800E3B00FF2C0110090022006F0ECFE9DF809202D
S3150800E3C01AB10DA1022006F0E5FE04B90BA4BDF8AA
S3150800E3D00430224603B0BDE830400FF2B0110220E7
S3150800E3E006F0D2BE5A444F0053450000484100008B
S3150800E3F03F3F0000000000002E2564003F3F3F001D
S3150800E400B0C60020C8C6002086C60020A4C90020C1
S3150800E41008F0D6BA25703A20257000005375636354
S3150800E4206573730025703A2025703A203078257870
S3150800E430000000004572726F72000000704A6F6932
S3150800E4406E20666F72202564207365633A203078E3
S3150800E4502578000050726F66696C653A2025702031
S3150800E460283078253258292C20436C7573746572C8
S3150800E4703A2030782532582C202564206279746534
S3150800E480732C0000205A434C20257020436D6420CD
S3150800E49049443A2025640000436C7573746572001C
S3150800E4A0476C6F62616C0000257074782025782CA3
S3150800E4B0200000004552524F523A20002570257020
S3150800E4C0555020307825325800000000454D424509
S3150800E4D0525F00004E4554574F524B5F00000000F4
S3150800E4E054727573742043656E7465722045554978
S3150800E4F020686173206368616E6765642E0000009A
S3150800E50025702570444F574E0000000025704A4F6D
S3150800E510494E2570000000005F4641494C454400BD
S3150800E52054686520617070206672616D65776F72D8
S3150800E5306B2069732068616E646C696E6720746805
S3150800E5406520737461636B207374617475732E0030
S3150800E5502570696E67206F6E2063682025642C20FD
S3150800E56070616E4964203078253258004A6F696EAA
S3150800E57000000000737461636B207665722E205B61
S3150800E58025642E25642E25640000000020257020B1
S3150800E5906275696C642025645D0000000100000056
S3150800E5A00000000028C502081100000034C5020852
S3150800E5B0120000003CC502081300000044C502080A
S3150800E5C0210000004CC502082200000054C50208BC
S3150800E5D0230000005CC50208AA00000064C5020802
S3150800E5E0FF0000000000000080B59F480021416040
S3150800E5F041708170A52101700120FBF776FAFBF7BF
S3150800E60078FA00F01EF8002002BD98480168C9078C
S3150800E61000D4704780B596490A6822F440620A60B9
S3150800E620016849084900016001680902FCD491485B
S3150800E630006810B16420F7F7C1FC8F490020086014
S3150800E64001BD80B58D48016841F0807101600120E7
S3150800E6508B49086000208B49F7F7F7FC8A498B4AF3
S3150800E6600220086000208A4908608A498A480160B1
S3150800E670012111607D4A8949116040F20141016515
S3150800E6804FF480308649086001BD7B48006800B1B8
S3150800E6900120C0B27047D12202704170090A817008
S3150800E6A080490A78C270501C0870042070472DE90A
S3150800E6B0F14F82B0002500907B4800990068085CFD
S3150800E6C0441DE4B2FFF77EFA01904FF6FF79FFF793
S3150800E6D0DCFFB8B954E0A91E9DF80800C9B2FDF7D9
S3150800E6E077F80746494610F0C5FE81465546F000BC
S3150800E6F0F9B2761C01FA00F0042E40EA080815DB88
S3150800E700CBF80080EDB2A54232DAFFF75BFA019941
S3150800E710401A80B2B0F5FA7F2ADC4FF0604BDBF87E
S3150800E72000000128EED14FF000080026EDB215B919
S3150800E7305B270125DBE7012D05F1010A04D15A48BB
S3150800E740009900680F5CD1E7E11E8D4208BF4F466D
S3150800E750CCD0A11E8D4208BF4FEA1927C6D0611E2C
S3150800E7608D4208BF5D27C1D0A542B4D10027BEE7B8
S3150800E7704FF4C870F7F722FCA54208BF002000D066
S3150800E7800120BDE8FE8F48490968415C0429A8BFF5
S3150800E790FFF78DBF012070472DE9F04D324D6E7899
S3150800E7A0002E5ED0FFF70EFA834631460020FCF7AE
S3150800E7B0FCFE0446FF2CA04602D10020687050E0FB
S3150800E7C0202EB4BF37462027FCF7F8FD6860AF70E7
S3150800E7D0DFF8D8A004E04046FCF7F0FD6860AF70AB
S3150800E7E06878C0B1FFF7EEF9A0EB0B0080B2B0F580
S3150800E7F0FA7F10DCA8780028F2D1F61B6E70F6B204
S3150800E800002EEDD0DAF8000018F80080202EB4BFEC
S3150800E81037462027DFE7002E04BF6878002818D17E
S3150800E820A878B0B920480068205C851EE9B2204661
S3150800E830FDF775F8122808D1E9B22046FCF77DFFE6
S3150800E84021461220FAF763FF06E02046FAF7A9FEEA
S3150800E85002E000206870A8702046BDE8F04DFCF77D
S3150800E86021BEBDE8F08D0000F0FF0020800E00E01C
S3150800E870001000E034000040100004E0FCED00E069
S3150800E880040004E020A10700F00004E0000E00E008
S3150800E890040304E055CEACC5B00F00E00D0001003E
S3150800E8A000E100E0E7FF0020C8BD0020D0BD002041
S3150800E8B070B51346101802E0A4192C705B1EDBB263
S3150800E8C04BB101F00F060909451E0A2E2846B4BFAA
S3150800E8D030243724F0E7101870BD2DE9F24F88B0C0
S3150800E8E0804601A81446994601AD4FF0000B002753
S3150800E8F08DF8000010E00127641E05A885420AD39A
S3150800E9009DF800002E1A00F0B4F8002839D1B34457
S3150800E9105FFA8BFB01AD641C9DF800002E1A207867
S3150800E92000280BD0252803D017B905F8010BE4E712
S3150800E930002F14BF0027641C2078010000F08E8089
S3150800E940B0F1250113D00B39092967D928395CD0CC
S3150800E9500B390ED0491E2CD008392AD0091F0BD0E6
S3150800E960C91E09D0891E24D0C91E4ED0C5E7252048
S3150800E970DBE759F8040BD8E759F804AB00F079F847
S3150800E980002872D1B3445FFA8BFB01AD002600E084
S3150800E990761CF6B216F80A000028F9D19DF8200070
S3150800E9A032465146C04700285FD1B3445FFA8BFB15
S3150800E9B0A3E759F8040B0021002803D52D21297057
S3150800E9C040420121002300224FF0000C02E0801B88
S3150800E9D00CF1010C0FF2041656F82260B042F6D27A
S3150800E9E043EA0C06F6B2002E05D0C9B20CF1300384
S3150800E9F04B55491C0123521C092AE5DBC9B23030A4
S3150800EA004855481CC0B2451977E759F8041B022235
S3150800EA10C9B22846FFF74CFF05466EE7607801271E
S3150800EA20782818BF5828F8D1641C002714F8010C58
S3150800EA30322804D159F8041B042289B2E9E734289C
S3150800EA407FF459AF59F804AB04224FEA1A41284615
S3150800EA50FFF72EFF04221FFA8AF1DBE700F009F818
S3150800EA6018B906EB0B00C0B200E0002009B0BDE8FB
S3150800EA70F08F9DF82000F2B201A9404709A117E0DE
S3150800EA8010B5094BC35C0024012B07D113460A466F
S3150800EA9001460648FFF721FF00B90124204610BDAC
S3150800EAA0000000000D0A0000649A00084D9900084D
S3150800EAB00CB480B502AAFFF7E3FF02BC5DF80CFBB5
S3150800EAC00CB438B5044604AAFFF7DAFF0546204613
S3150800EAD0FFF7D4FF284632BC5DF80CFB00CA9A3B08
S3150800EAE000E1F5058096980040420F00A0860100D7
S3150800EAF010270000E8030000640000000A00000078
S3150800EB0000B500BF130096469446103928BFA0E802
S3150800EB100C50FAD85FEA417C28BF0CC048BF40F8C1
S3150800EB20042BC90728BF20F8022B48BF00F8012B81
S3150800EB3000BD00002DE9F0470546DFF8F40400683B
S3150800EB409946302303FB010CD1078AB00CF11E004D
S3150800EB5004D4817B01F00301022927D1904608F0ED
S3150800EB60010EBEF1010FDFF8CC7411DA017C01F059
S3150800EB700103012B08F0020212DB012A10DA002237
S3150800EB80002408F004010129ACBF012600260FE085
S3150800EB903978002201F001014C1EA441E40FF0E788
S3150800EBA0C90701D40122EBE7012AFBDAFF204FE06F
S3150800EBB0BEF1010F4FF6FF7102DA037CDB0701D4C1
S3150800EBC00B4601E0BCF81E300AB10CF11002BEF18A
S3150800EBD0010FB8BF41880194009602A800F0CCF94D
S3150800EBE002A9461808F04004012CACBF03200120F6
S3150800EBF040F0280A08F0080001283878A8BF4AF02B
S3150800EC00040A00F001000128A4BF08F0200001282A
S3150800EC1009DBDFF824040078012100F048F94AEA04
S3150800EC2080105FFA80FA06F801AB311D012C01F855
S3150800EC30019B05DB129801F8010B000A01F8010B8C
S3150800EC4002A8149B139A0095091AC9B200F0FEF996
S3150800EC500AB0BDE8F08710B58AB001240093019484
S3150800EC6013460A46014602A800F086F902A9411889
S3150800EC700E98800140F02A020C9808B142F004026E
S3150800EC8001F8012B0D98109B0F9A0090081D02A9F8
S3150800EC90411AC9B202A800F0D9F90AB010BDF8B5F0
S3150800ECA0002A05460F460CBF00AC1446FCF730FF99
S3150800ECB000F00C00082803D04FF4827100F015F913
S3150800ECC0DFF878030068285C000605D52846FCF7B7
S3150800ECD01FFC0546002000E0062020702846217803
S3150800ECE0FCF71DFE410600F440623E4606D44FF48A
S3150800ECF04041084202D001233FB9F2BD0023042E49
S3150800ED00FAD12078C01C20700AE02178891C21706D
S3150800ED10012E08BFC9B271D0491C022E217001D13B
S3150800ED20002A5AE00AB1891C2170032E04D100F486
S3150800ED304060B0F5006F19E000F44061B1F5006F6E
S3150800ED4002D12178891C04E0B1F5406F02D12178FF
S3150800ED5008312170042E41D013B12178891C217005
S3150800ED60052E05D100F44040B0F5004F5FD135E0DF
S3150800ED7000F44041B1F5004F02D12078801C06E02E
S3150800ED8000F44040B0F5404F02D12078083020709A
S3150800ED9021782846FCF71CFD00F00302012A08BF6B
S3150800EDA0012305D0032A02D10123012701E000230C
S3150800EDB00027062E3DD02078411C072E21702FD023
S3150800EDC0091D082E217002D17BB3C9B216E00BB11A
S3150800EDD0481C2070092E06D1002F26D021782846F7
S3150800EDE0FCF79DFDF2BD17B12078801C20700B2E14
S3150800EDF01DD00A2E06D1022A17D121782846FCF7FB
S3150800EE00E7FCF2BD0C2E04D1022A0ED12078401C54
S3150800EE100CE00D2E09D18A480068285C011F217074
S3150800EE20C9B22846FCF793FDF2BDFF2020704FF0CB
S3150800EE30FF30F2BDF0B505468048006883B0285C0F
S3150800EE4000060C4604D52846FCF762FB064600E099
S3150800EE502E46284600F011F8074601AA0B21284637
S3150800EE60FFF71DFF002000903B469DF80420314621
S3150800EE702046FCF7B6FB3846FEBD38B504466F4853
S3150800EE800068205C000604D52046FCF741FB0546D1
S3150800EE9000E0254600AA0B212046FFF700FF684838
S3150800EEA000689DF80010285C401AC0B232BD80B5D3
S3150800EEB00F2804D0142806D019280AD00FE0080015
S3150800EEC012D0012002BD09B1022002BD4FF4006034
S3150800EED002BD09B1032002BD4FF4805002BD4FF4B4
S3150800EEE0FD7100F002F8FF2002BD0FF2C010F7F71F
S3150800EEF06BBD80B5012804D009D3032805D002D3F9
S3150800EF0005E00F2002BD142002BD192002BD40F203
S3150800EF10092114E080B5FCF7F6FD10F4C05006D0C0
S3150800EF20B0F5006F05D0B0F5805F04D005E00F207E
S3150800EF3002BD142002BD192002BD4FF40671FFF769
S3150800EF40D4FFFF2002BD10B5044600220621FFF7B4
S3150800EF50A6FE00F0030002280AD100220A21204654
S3150800EF60FFF79DFEC0B2062802D16FF00E0010BD55
S3150800EF70344890F9000010BD2DE9F04781468846CF
S3150800EF8016469A4600F0FBFC8245099C14BF0125EB
S3150800EF900025002C14BF4CF2010048F20100002E97
S3150800EFA00CBF4FF400624FF440620243089849468A
S3150800EFB008B142F020020DB942F0400201F8012BD7
S3150800EFC0100A01F8010B4F1C4FEA1A2007F801AB8B
S3150800EFD007F8010B36B907F8018B4FEA182007F82E
S3150800EFE0010B05E0082231463846F7F7EBFD0837EE
S3150800EFF045B100F0C4FC07F8010B00F0C0FC000A9C
S3150800F00007F8010B34B108220F493846F7F7DAFD3D
S3150800F010083708E000F0ABFC07F8010B00F0A7FC86
S3150800F020000A07F8010BA7EB0900C0B2BDE8F08794
S3150800F03010BE0020C2C00020C3C00020CCBD0020E6
S3150800F040C8BD0020D6FF00206CFB00202DE9F0414A
S3150800F0500D461F460446791982B09046C9B200206B
S3150800F060FCF7A3FA0646FF2E1ED0012000902B4679
S3150800F070002231462046FCF7B4FA012000903B46B0
S3150800F0802A4631464046FCF7ACFA08980021FFF7B5
S3150800F0900EFF3246002140F00800FCF7E7FD044663
S3150800F0A03046FCF7FFF92046BDE8F6817266346300
S3150800F0B0652D7061636B65742D6865616465722E74
S3150800F0C0630000002DE9FC4204460D469146CDF842
S3150800F0D004900095234624220FF2F0310320FAF714
S3150800F0E00AFDDFF8D87338780A2818BF3D203DD1C5
S3150800F0F0B9F10F0FA8BF332038DA092CA8BF34207E
S3150800F10034DADFF8BC032840A84218BF35202DD1D1
S3150800F11035B9DFF8B0130968897B012000FA01F5D3
S3150800F120002C18BF022CDFF8A0630CD12021002088
S3150800F130FCF73BFA7870FF2808BF182016D0FCF7B2
S3150800F1403DF9F06130623C7086F80190B5610020A7
S3150800F15030700A20F8F7CCFE01210FF21500FBF7F4
S3150800F16041FF38780A280CBF01200020BDE8F68246
S3150800F17038B50A20F8F7CBFE0446F8F7E8FC20462F
S3150800F180F8F7F1FD0020F8F706FECF4CFBF739F942
S3150800F190E07000F0F4FB2082F6F79FFA20714FF634
S3150800F1A0FF75C64C2078062808D10120F6F798FA8C
S3150800F1B0072020702846FAF72FFE0CE0082805D00D
S3150800F1C0284600F0E0FB2846F6F709FB0020F6F78C
S3150800F1D087FA00F059F8BDE83140F8F7E8BC38B5C9
S3150800F1E0F8F73AFCB54D044628780A2818BF0928C6
S3150800F1F004D12046BDE83240F8F734BC072808BFDA
S3150800F200FAF7CEFD2878B0490870092028702046FC
S3150800F210F8F728FCBDE8344001210FF20900FBF796
S3150800F220E1BE000070B5A54C2078092802D0E82177
S3150800F23000F0A3F80A20F8F76AFEF8F788FCA24D52
S3150800F240288A00F0A0FB9F49E8780968887328791E
S3150800F250F6F746FA0120F8F79EFDF8F7A0FD66785E
S3150800F2600020287200220A2020703146FF20607094
S3150800F270287801F0F7FBFF2E1CBF3046FCF712F981
S3150800F280BDE87040F8F793BCF8B58F4C00202072A3
S3150800F2900A20F8F73CFEF8F75AFC884D28780A2821
S3150800F2A003D14FF48A7100F068F82878E0B917E0BE
S3150800F2B0401CE061282210F9016DE069401CE061FC
S3150800F2C07DA110F8017D00963B460320FAF713FC52
S3150800F2D0F8F7B0FC31463846FBF7A3FDF8F767FCAC
S3150800F2E0E069216A8842E3D320781B281FDA00F0F8
S3150800F2F0FBF850B12078A169C140C90705D4401C64
S3150800F3002070C0B21B28F5DB11E0F5F79DF9014620
S3150800F3102078884202D0F5F78FF940B9207800F0B6
S3150800F320E0F820700020A07000F064F808B3287890
S3150800F330052818BF012803D0032818BF08280DD1AF
S3150800F3400B26A069F040C00704D528783622314636
S3150800F35001F088FB761C1B2EF3DB08E0022806D199
S3150800F360206AE169411A6878C9B2FCF7E6F9FFF73D
S3150800F37036FFBDE8F140F8F71ABC0FF25810F7F758
S3150800F38023BB38B54D480178092904BFBDE831408B
S3150800F390FAF729BD4C4C6369002918BF02291ED10A
S3150800F3A09BB9226A6179521C226202F8011D007813
S3150800F3B028B9256A681C2062F5F746F9287004F111
S3150800F3C00800BDE83240FAF741BE0825F6F79AF973
S3150800F3D094F905108142B8BF0146617103E0002B1C
S3150800F3E0EDD04FF470752846FAF716FD6069401E91
S3150800F3F0606131BD80B534484278012191402F4A79
S3150800F4001278491C092A416120D8DFE802F011095F
S3150800F410110917051F1F0D1CBDE801400BF018BC8C
S3150800F420BDE801400BF021BCBDE8014000F057B82B
S3150800F4306FF07F0242717822514341610020FAF74A
S3150800F440EBFC002002BDFAF7CEFC03E040F2A31164
S3150800F450FFF793FF012002BD10B5184A1A4C12781F
S3150800F460052A11D1062816D120206061A9B9F5F719
S3150800F470EBF80122A16902FA00F021EA0000A06176
S3150800F4800020FAF7C9FC15E0012A14BF032A072849
S3150800F490ECD0082AEAD0002010BDA078401CA07045
S3150800F4A0C0B2032802DAFFF7A5FF18B104F1080075
S3150800F4B0FAF7CCFD012010BD42424200ADC0002043
S3150800F4C000F8FF072CFB002084FB00204242444240
S3150800F4D0000000007363616E2E6300007047B5205C
S3150800F4E07047401CC0B27047012070470020704723
S3150800F4F070470020704700207047002070470020A2
S3150800F50070477047012070470120704770470120F7
S3150800F51070477047012070470120704738B5FAF7E1
S3150800F520F1FAFFF761F8DFF874442078002840F014
S3150800F530A78012200FF0B0FF00060BD500F0DFF809
S3150800F540000607D500F0DEF8000603D500F0D4F86B
S3150800F550000610D412200FF09FFF000614D500F005
S3150800F560CEF8000610D400F0CDF800060CD500F051
S3150800F570C3F8000608D5E0780E2861D1F5F740FAF9
S3150800F580002800F07F8032BD00F0B9F800060FD4DD
S3150800F59000F0B8F800060BD500F0B4F8C00707D499
S3150800F5A000F0AAF8000603D4E0780C2845D1E5E770
S3150800F5B000F0A5F8000609D500F0A4F800F08100CF
S3150800F5C0812803D100F098F800060DD500F097F8C9
S3150800F5D000060ED400F096F800F08100812808D1C4
S3150800F5E000F08AF8000604D4E0780D28C6D00E2864
S3150800F5F0DCE700F084F8000610D500F083F8000672
S3150800F6000CD400F079F8000608D5E07816281CBF57
S3150800F61001281A28B2D00F2815D1AFE700F06FF8E5
S3150800F6200006ABD400F06EF80006A7D400F064F824
S3150800F6300006A3D5E0781628A0D0E07801289DD04A
S3150800F640E0781A289AD0E078022818BF1B2895D0A7
S3150800F650062818BF072891D0082818BF09288DD072
S3150800F6600A2818BF032889D0102818BF112885D062
S3150800F670122818BF1328FAD0142818BF1528F6D050
S3150800F680B02032BDF6F734FE0FF04AFFDFF810035C
S3150800F690007808B10AF0CEFE0AF052F9F9F759FFD8
S3150800F6A0DFF800430FF24430FAF763FD2070DFF805
S3150800F6B0F802FAF75EFD6070F8F7CEF9054660784D
S3150800F6C0FAF778FD2846F8F7CDF9F8F7FDF9FBF7CC
S3150800F6D0C8FCFCF7A5FC0FF02EFF0FF02FFFFFF775
S3150800F6E015FF0120F5F7FAFEDFF8C0024FF4704166
S3150800F6F0FAF7B7FC002032BD00200FF0CDBE10206F
S3150800F7000FF0CABE11200FF0C7BE2DE9F0470BF067
S3150800F7104FFC0BF0B1FBF8F70FFF08B9F8F7F8FE46
S3150800F720DFF88C824046FCF79FF908B9FCF775FFAD
S3150800F730DFF880924846FCF797F908B909F0F7FD13
S3150800F7400EF04DF9F8F79EF9DFF858623078FAF7B7
S3150800F750FCFC7078FAF7F9FC0FF0F2FEDFF8585265
S3150800F760DFF858A2002700240BE02046F8F7EFF947
S3150800F7702868007B001F022838BF0127F8F717FA08
S3150800F780641C9AF80000E4B28442EED3002F1EBF30
S3150800F7908B480078002805D000F02AF8102808BF02
S3150800F7A00EF0A0FAF9F79EFEFFF7B3FEF8F754F944
S3150800F7B00746F8F7C1FE68B14046FCF755F948B167
S3150800F7C04846FCF751F928B1FFF7A1FE10B1307889
S3150800F7D0FAF7F0FC3846F8F745F9F8F720FA18B9B9
S3150800F7E04FF4B47100F055F8F6F711FCBDE8F08750
S3150800F7F010B5FBF720FC40B10BF0EBFC28B102F08A
S3150800F8002FFB441EA441E40F00E00124F5F750FF46
S3150800F81008B944F00404F8F78FFE38B16448FCF7D9
S3150800F82023F918B16348FCF71FF908B944F0020434
S3150800F8306448007808B144F020046148007808B1AB
S3150800F84044F010046048007808B144F04004FBF71F
S3150800F8502AF808B144F08004FBF735F808B144F4F7
S3150800F8608074204610BD80B52D224BA10320FAF7DF
S3150800F87042F9FBF7E0FB18B940F29B1100F009F8D2
S3150800F880F5F7B7FE5148FCF7F6F8BDE80140FEF774
S3150800F890BCBE0FF24810F7F797B880B5FEF7D1FE51
S3150800F8A02E223DA10320FAF726F9F5F716FFF5F7FC
S3150800F8B015FE4748007808B10BF037FB4548007835
S3150800F8C008B10BF0F0FF4448007808B110F06CFA64
S3150800F8D0BDE80140FBF701B838B50446364800686C
S3150800F8E0007BC01E03280BD320460BF013FD4FF6F2
S3150800F8F0FF75A84204BF20460BF092FDA84204D12A
S3150800F9002046BDE832400AF003B932BD70B5044658
S3150800F9104FF6F87084420D4627DA274E3CB9306810
S3150800F920007D800703D4284610F0D0F8D8B930688F
S3150800F93041888C4205D1011D08222846F7F742F96D
S3150800F94011E0007BC01E032808D320460DF0D0FA2C
S3150800F950FF2803D029460DF0EFFA20B9294620469C
S3150800F9600AF01DF908B1002070BD012070BD1248CB
S3150800F9700068008A704710490968088270470E486F
S3150800F9800068408A70470C490968488270470A48E7
S3150800F99000680078704700004200000096070808D3
S3150800F9A0B6C00020C6FF002040A9000848FF002076
S3150800F9B0DCC00020BCC000202CFB002000BE0020BC
S3150800F9C078FB002058FB0020CCFE0020ECC000206D
S3150800F9D034FE002040FE002078FD00207A69676228
S3150800F9E065652D737461636B2E630000B4FE002099
S3150800F9F0817A00089CFD0020059C00088CFB0020ED
S3150800FA0089F2000868FE0020FDB201085CFF0020AC
S3150800FA10A9A8010858FB00201307010864FB002069
S3150800FA20D107010878FB0020E1DC010850FB002023
S3150800FA301BFD0008B4FB002025D501085CFE00204C
S3150800FA402F120108D4FE0020B95E020840FE0020ED
S3150800FA50A7B8010834FE00202BAF010848FE002095
S3150800FA605D42020850FE0020D5FD010878FD002001
S3150800FA70A9FD0108C4FE002059F80108CCFE0020A3
S3150800FA80DDF4000834FB00209F7D000850FF0020AD
S3150800FA905382000848FF00207DBF020818FB00209B
S3150800FAA00D8000080000000000000000DFF83C2C74
S3150800FAB01268127882420AD019B1012A03D10228A3
S3150800FAC005D000207047022A08BF0128F9D1012075
S3150800FAD07047DFF81C1C0875704710B5DFF80C4C2A
S3150800FAE02068407B112804D0B6210FF21000F6F7E3
S3150800FAF06BFF21684120487310BD00006173736F66
S3150800FB0063696174696F6E2E6300000080B5022018
S3150800FB10F8F7FDF9F8F71BF800F026FC001F022895
S3150800FB2005D2DFF8CC0BC17C491DC17405E04FF442
S3150800FB307A71DFF8C00BFAF794FA00F05FBE10B5D9
S3150800FB40DFF8AC4B002060742078FF2803D0FBF761
S3150800FB50A9FCFF20207010BD38B504460D46FBF7FA
S3150800FB602DFC007C00F00701400800F0380000EB8F
S3150800FB70410000F11102DFF8540C0068205CD2B293
S3150800FB8082420ADA831ADBB20F2BA8BF0F230020A2
S3150800FB90009021462846FBF724FD31BDDFF84C0BC3
S3150800FBA00068407B33281CBF4328532801D1012015
S3150800FBB07047002070471FB5FCF77BFA08B3DFF8DB
S3150800FBC0304B207800A9FFF7C7FFDFF8281B002075
S3150800FBD008700DF10300617901F0C8F8FFF7AFFF6F
S3150800FBE000F010F800F031FA007DC00702D510F0D9
S3150800FBF0F3F808B910F023FB10F0EDF8012001F036
S3150800FC00E3F91FBD10B500F020FA017BC91E0329D0
S3150800FC1006D240884FF6FF71884208BF032008D0F5
S3150800FC20FAF71AFB0446FAF71BFB21460AF021FAF3
S3150800FC300220FAF71DFB01F029FABDE8104000F092
S3150800FC40E1BD38B5DFF8A84A2075FFF778FF00212F
S3150800FC504FF6FF7001F083F9DFF8905A2868417B68
S3150800FC60032918BF00291DD0332918BF432913D1EA
S3150800FC7000F019F82868017BC91E032906D203215A
S3150800FC804173207DBDE83240F8F750B9207DF8F77A
S3150800FC904DF9BDE83140B5E721214173BDE8314052
S3150800FCA00DF0B1BC31BD237D132296A10320F9F7CF
S3150800FCB022BF10B500F054FB002048734FF6FE70C3
S3150800FCC0FFF759FE4FF6FF70FFF75DFEDFF8204A93
S3150800FCD0FFF7E9FF207DBDE81040F8F727B910B512
S3150800FCE004462346182287A10320F9F704FFDFF804
S3150800FCF0380B0021017114B1FF2C02D101210170CA
S3150800FD0007E0012100F8041BA100491C0902FAF7C3
S3150800FD10A8F900F077FD002010BDDFF80C1B0020C5
S3150800FD200871DCE730B50D4689B0044668690FF2FC
S3150800FD307C1107902346287C06901622E8890590B0
S3150800FD40287B0490E87A039095F90A00029028899E
S3150800FD500190009500F076F9287B00280CBF4FF635
S3150800FD60FE70FFF704FE2B46224609B0BDE8304078
S3150800FD70014601202DE9F041DFF8706980463068B8
S3150800FD80407B00280F4614461D464BD1002C49D00F
S3150800FD90062C47DADFF88C0A00780A2842D1F8F7E9
S3150800FDA089F800283ED1F8F79AF808B1042C39DB0F
S3150800FDB0287B032816D14FF6FE70874214D1012CF2
S3150800FDC008BF002710D0022C2CD1FFF7D0FD4FF624
S3150800FDD0FC71884202DAFFF7CAFD01E00DF0AEF9C0
S3150800FDE0074601E0012C1DD0B8F1000F0CD0287B86
S3150800FDF003280CBF01210021012C0CBF0120002083
S3150800FE000CF0EDFA00284ED12946384600F06AFF74
S3150800FE10002848D1F7F7EEFEF8F706F820B1F8F70C
S3150800FE205EF808B170203EE03068DFF8C478407BA1
S3150800FE3033281EBF532800207875204600F035FF6A
S3150800FE40387E20B1F8F74BF808B90BF074FA287B1E
S3150800FE50032803D12846BDE8F0412DE008222946AB
S3150800FE6007F10800F6F7AEFE287B0328A8BF002096
S3150800FE703874FFF764FE94203875387C316800289A
S3150800FE800CBF012031204873002031687A7EB8748F
S3150800FE900120897B00FA01F10320FFF713F910B15D
S3150800FEA0326800215173BDE8F08100004242387083
S3150800FEB0574242425742440010B5044600220821E0
S3150800FEC0FAF772FA08B1012010BDFFF750FD0022BB
S3150800FED04FF6FF7100F02EFF217C204600F046FF0A
S3150800FEE06269E189207C01F004F9DFF800080068FE
S3150800FEF0007B012808BF0CF099FFFFF783FE00205E
S3150800FF0010BD00004242000038B5DFF8E04705465C
S3150800FF102068407B002802BFDFF8080900780A2815
S3150800FF2001D0702032BD02F087FA002843D12DB1E6
S3150800FF3002222946DFF8280BF6F744FE00A800F04F
S3150800FF40DAFF08B1932032BD9DF8003014221BA1B8
S3150800FF500320F9F7D0FD00F051FF68BB9DF80000BB
S3150800FF6000F0A3FE2068007B012818BF022806D0EF
S3150800FF70C01E03280FD2002000F0FDFF58B100F084
S3150800FF8054FF2068007BC01E032838BF0DF038FDDB
S3150800FF90FFF738FE0FE02168132048730020DFF8CA
S3150800FFA05017887405222168897B012000FA01F11F
S3150800FFB00520FFF787F8002032BD00004242000006
S3150800FFC0FF222DE9FC41044600F03FF80D46017B6F
S3150800FFD00129904625D0407B022818BF032820D146
S3150800FFE0FAF72DFADFF808777A7E29460320FFF715
S3150800FFF069F8060016D13320FAF73AF9FFF79FFD9C
S31508010000FFF7BDFCF880002C14BF022001203874CC
S3150801001007F1080000F08DFF0020B87487F81580F5
S3150801002000E070260196009523462C220FF20C015A
S3150801003000F008F83046BDE8F68100004242444225
S31508010040000000000320F9F756BDDFF8A006006896
S31508010050704738B50446FBF7B1F905462046FBF764
S315080100603EFD44192046FDF765FA4FF6FF5101405A
S315080100702046BDE83440FDF764BA70B584B0FFF791
S3150801008076FCDFF86C46064620780B21FBF706FD61
S31508010090002100F064FFDFF85456FAF79DF958B1CC
S315080100A01EB14FF6F870864206DB0DF047F8064694
S315080100B0286840888642F8D03046FFF75CFC2078ED
S315080100C00921FBF7EBFCFFF75EFC2E68307B052860
S315080100D013D100F039FF8DF8080002AB207C002807
S315080100E00CBF4FF4804244F20102012000904FF404
S315080100F08061708809F03CF80FE006208DF8080049
S3150801010000F022FF8DF809000223002001900090DB
S3150801011002AA708801210BF0FAFE0646FF2E08BFD7
S31508010120002011D0286841883046FBF714FD207C51
S3150801013002281CBF3046FFF78CFF00F044F804463E
S315080101403046FBF7AFF9204604B070BD70B586B0EE
S315080101500C4616461D4638B92046F7F795FC02AAFD
S3150801016003A90BF0DCF803A807218DF80810019004
S31508010170310A8DF80A1001200A998DF80B100090A2
S315080101808DF80960042300F0BBFA0646FF2E18D045
S315080101902146FBF7E0FC15B93046FFF75AFF0B98E5
S315080101A008B930460DE020460BF0BBF818B13046C9
S315080101B0F7F75CFC01E000F006F83046FBF772F948
S315080101C0FF2006B070BD00220023114630460AF012
S315080101D0B7BF2DE9F64F83B004461E4600274FF6F2
S315080101E0FF7556B14FF0010B30460BF0CEFE814636
S315080101F07078400800F0010A05E0BB461046FBF797
S3150801020011FD8146BA4600F0AFF8C01E0328C0F0BA
S31508010210A2800E98411C9DF81000C9B2FBF7D8FAC6
S31508010220804608F0020002909DF80C0020B95FEAAA
S31508010230086058BF48F08008FFF707FF407B02288F
S3150801024004D1DFF8E4050078204301D102271EE036
S315080102504846FFF741FB9DF80C1019B1651EAD41E3
S31508010260ED0F00E00025BBF1000F1CBF301DFDF7A7
S3150801027061F9012100912B460146424648460BF099
S3150801028047F805464FF6FF70854208BF0127D6B1E4
S315080102901CB94FF6FF70854204D1301DFDF74AF9A6
S315080102A0014600E0294601200190009753462A4657
S315080102B04846FFF74BFF029850B94FF6FF7148467B
S315080102C00BF00AFA04E03A46294648460AF052FD76
S315080102D0002F40D10298E8B1494628460BF01FFA8B
S315080102E00E2101FB00F700F03BF8896A79184A7973
S315080102F042F040024A710BF045FAFFF7A6FE806A02
S3150801030038185FEA486241794CBF41F0800101F033
S315080103107F014171FEB1DFF8A86C9DF810003070BD
S31508010320FFF725FB5FEA48610FF22C0C48BF0CF179
S31508010330010CBAF1000F18BF0CF1020C02D10CB96D
S315080103400CF1040C01469CF800004B462A4610F0B5
S315080103505BF8FF203070B0E00307000401050000D8
S31508010360DFF8881309687047DFF880030068007BA7
S3150801037070472DE9F04F0446884685B091464046B8
S31508010380FBF7B7FBDA4D297C824601B10121D74E2D
S315080103908DF804103068007B05280CBF012700275B
S315080103A03CB150460BF0F1FD834650460BF0E0FD9B
S315080103B005E04046FBF736FC8346DFF8080C039058
S315080103C00423002000904A46414602A8FBF709F992
S315080103D00DF10900FDF7AEF89DF80B908046CCB1FA
S315080103E00398DFF8E01B0822F6F736FC002862D1ED
S315080103F000F08BF908BFB9F1000F0BD14046FFF7A2
S31508010400BAFA0FF01CFF9923FFF74EFC9920F7F76C
S315080104108DFD50E0F9F7E0FF00284CD09DF8040067
S31508010420384301D014B946E0002C44D1B9F1000F84
S3150801043003D09420FFF705FC3DE030684088594613
S315080104400BF06DF90BF09EF9306841885A46404623
S3150801045000F070FC3068417B012916BF3129112152
S31508010460432141730220F7F743FDA24F40F6B83105
S315080104703846F9F7F6FD0DF0C3FA0020E87430683E
S31508010480C17E19B93846F9F7E1FD11E034B19AF898
S315080104900110890702D5FFF78EFB09E0007B001FD3
S315080104A0022805D205213846F9F7DBFD0620E8744E
S315080104B0AD20FFF70EFBF7F772FC05B0BDE8F08F2C
S315080104C02DE9FE4F8046FBF714FB0446FBF756FB66
S315080104D005462F194046FBF702FB2844C5B240469C
S315080104E0FBF7A0FB834638780090F9F79FFF0028B1
S315080104F01CBF0098072816D10098DFF8F4A17B4E97
S31508010500EC1C01284FF6FF790ED0022814D00428D6
S3150801051000F0BE80062815D0072863D0082821D008
S315080105207C2800F07F80DEE000210095002342460A
S315080105300846FFF74EFED6E02A4641460020FFF759
S3150801054018FFD0E058460AF0E5FE484503D00146B3
S3150801055058460AF0C0FB00F0D8F802D15846F9F718
S31508010560DFFAC0E0691C00F0C7F80746E1B200F0FF
S31508010570C4F80446A91D00F0BFF805464D45F0D05C
S315080105800DF03EFA3068407B132808D100F04DFC87
S315080105904046FBF747FB014620460BF0C0F800F042
S315080105A0B4F818BF13281CD12846FFF7E4F93846D2
S315080105B0FFF7E9F90021002000F0D8FB594620464B
S315080105C000F0CDFC9AF80300DFF85C1A087000F019
S315080105D019F93068417B132903D123214173FEF7A9
S315080105E0FEFD80E000F091F802BFDFF8404A20786E
S315080105F0002878D1F8F72CF805469AF91910012040
S315080106008840C0EB001B1FFA8BF60020F7F770FC39
S3150801061095FBF6F006FB1050411C89B22046F9F706
S3150801062020FD60E07878652804BFB8786D285AD12E
S315080106306648006818F80000E4B2844253D20822DA
S31508010640594601A8F6F7BEFA00AB002221464046F4
S315080106500BF048FB002846D19DF80000FF2842D040
S31508010660DFF8CC49DFF858590120207085F8008059
S31508010670F7F7E0FA01A89DF80010F9F746FAF7F737
S3150801068096FAFF202870002020709DF8000028E0C7
S315080106904046FBF7E4FA0446DFF898090078FE2895
S315080106A009DB4046FBF72FFA000B00F00101204653
S315080106B0F9F730FA17E00FF6D0100088ADF8080000
S315080106C0022300200190009000F01AF80546FF2D3C
S315080106D009D02146FBF73FFA00212846FAF7F8FB2D
S315080106E02846FAF7DFFEBDE8F78F00002CFB00204D
S315080106F070C0002058FB0020C9B24046FBF70FB96D
S3150801070002AA012120460BF002BC3068407B022870
S31508010710704770B50220F7F7FAFBF7F718FADFF812
S315080107201859DFF8186900202870FBF7C2FC28B1B0
S315080107303068C07E10B9FFF73EFA3EE0DFF800499F
S31508010740FBF7B7FC10B9F9F747FE58B1E07C48B199
S31508010750C8212846F9F785FCE07C401EE074FAF7C3
S31508010760ECFB2AE03068407B132809D0F9F734FE00
S3150801077030B93068407B11281CBF4328412803D172
S31508010780207DFFF75EFA18E0022818BF032803D078
S31508010790002818BF212810D10024DFF8A85808E03E
S315080107A02046F7F7D4F9002000F00EFCF7F7FFF919
S315080107B0641C2878E4B28442F2D3BDE87040F7F7A6
S315080107C0F6B9DFF87C180020C8747047C8BD002048
S315080107D080B50020F7F79BFBF7F7B9F9DFF84C1856
S315080107E000200870DFF854080068417B022905D10A
S315080107F0007BC01E032828BF0AF0DBFABDE80140CA
S31508010800F7F7D5B980B5F7F722FBFF2804D00648D4
S31508010810007810B1012000E00020DFF82C180870DC
S3150801082001BD0000ADC000204CFB00202DE9F04FB2
S315080108300446DFF8180800688DB0205C0090204651
S31508010840FAF7BCFD0646B01DFCF774FE074606F12D
S315080108500900FCF76FFE814606F10B00FCF76AFEFC
S31508010860ADF80A0006F10D00FCF764FE8346C00BDD
S315080108708DF80800F9F7DAFD18B1204602F04AF8B2
S31508010880EAE008A92046FFF767F908AEDFF8AC5792
S31508010890B078C0F3C3000390707800F00F0A00988F
S315080108A020282868407BACBF9DF82E804FF00008B1
S315080108B0022812D1FFF763F881450ED104A800F08A
S315080108C038FB00981C2806DB08220DF1230104A831
S315080108D0F6F7C2F908B100F040FDB7F5004F02BFBF
S315080108E02BF4404040F6FF718842C9D100981C2874
S315080108F0C6DB002208210DF12300F9F755FD002872
S3150801090039D1DFF84C070078012830D19DF8080065
S315080109100FF26C710090CDF804A04B462722FFF721
S3150801092091FBDFF8300700788DF81200ADF81090CA
S315080109308DF81CA08DF81D8008229DF808008DF8F9
S3150801094013000DF1230105A8F6F73CF92868DFF82D
S315080109507076407B01281CBF33283C70F7F76AF98B
S3150801096004A8FAF73FFAFF203870F7F720F9DFF8FD
S31508010970D076B87C00286FD1F9F72EFD00286BD008
S31508010980012078740022082107F10800F9F70CFD07
S3150801099010B1F888814508D008220DF1230107F125
S315080109A00800F6F759F9002856D19DF8080028B924
S315080109B02868407B312818BF33284DD1012150467C
S315080109C0FFF774F8002847D09DF82000002802BFD9
S315080109D07078000902283FD12868017BB27802297C
S315080109E002D1500709D437E0120606D405291EBFDD
S315080109F04088BDF80A1088422ED13878DFF8585653
S31508010A00DFF85866FF2813D0787980450BD197F916
S31508010A10020096F9001088420ADB1DD178782978F8
S31508010A20884205D318E0A8EB0000C0B2812813DA82
S31508010A30FFF785F83C702046FAF726FD2878787086
S31508010A403078B87003980F28B4BF401C0F20F8708F
S31508010A5087F804A087F805800DB0BDE8F08F00007F
S31508010A6060FB00202DE9FF410546DFF8D44501204A
S31508010A700E461746A074FEF739FD002813D1A8467D
S31508010A80B8F1010F18BF002D0ED100973346262263
S31508010A90B5A1FFF7D7FAF7F7CDF839463046FAF791
S31508010AA0B6F9F7F784F8A4E0F9F7C0FC28B13A4695
S31508010AB03146284601F01EFE9BE0DFF8805528687E
S31508010AC0407B23280BD1F9F7C7FB0446F9F7C8FB86
S31508010AD0214609F0CEFA0220F9F7CAFB89E0002F70
S31508010AE0FCD121281CBF0428532802D10CF08BFD08
S31508010AF07FE0F9F771FC00285BD02678FF2E05D137
S31508010B00607C00280CBFAB20942066E02868007B37
S31508010B10C01E032889412079C90FFEF7C7FF08B906
S31508010B2098205AE0F4F792FD05213046FAF7D1FFED
S31508010B3029688873F7F733F9207C68BB2868007B36
S31508010B40052829D000F000FA074609213046FAF7A8
S31508010B50A5FF80460B213046FAF7A0FF3A464146E3
S31508010B600AF0EDF8E0B99420FEF7B3FF0220F7F793
S31508010B70BFF92968DFF8C0044A7B012A07D0312A60
S31508010B8018BF332A0ED1097B091F02290AD2C821A7
S31508010B90F9F767FA03200AE0FFF76FFA0028E2D1AE
S31508010BA094201AE04FF41671F9F75BFA0020E07405
S31508010BB01FE02868407B132815D100F017F9BDF806
S31508010BC00000FEF7E0FE00F030F92868017BC91E37
S31508010BD0032905D2332141739620FFF732F808E03D
S31508010BE0FFF710F805E0B8F1020F04BF30460EF022
S31508010BF09AFD4FF400600AF087FB10B90AF0F1FA82
S31508010C0008B1F8F7E5FFBDE8FF811FB504460020E6
S31508010C108DF80000FFF719FA007840F020008DF8EA
S31508010C200100F9F703FC18B1204601F09FFC3AE0F0
S31508010C300DF1030000F07DF90322FF210DF10B00F0
S31508010C40F6F703F800F03FFA8DF80E00DFF81014F6
S31508010C50DFF8E003DFF80C240078DFF80C340978B4
S31508010C6012781B78FE28A8BF0020091A9B1A904201
S31508010C70B4BF101A0020DFF8B0231278DBB2C0B275
S31508010C80D200C018C9B242F004028842B8BF42F085
S31508010C9080028DF8022000A90F222046FAF70BFDE3
S31508010CA0401E8041C00F04B010BD38B5DFF88C5323
S31508010CB004462868017BA14203D004732046F7F74E
S31508010CC0B5F924B12868007B001F022805D2F7F779
S31508010CD0DAF8FF2808BF012000D00020BDE832401D
S31508010CE0F4F7FEBC38B50D460446E87A0B381028E9
S31508010CF001D38A2032BD95F90A00F9F779FB08B1C3
S31508010D008B2032BDCD48E97A026891730068A97AC9
S31508010D10C1732046FEF72FFE4FF6FE7084420CBFC4
S31508010D204FF6FF702889FEF72EFE2889C449C88028
S31508010D30002032BD38B50C461546FEF71CFE0CF0F0
S31508010D40D1F92946204600F00AF9BD480178FF295C
S31508010D5018BFC07805D1FFF707FB01280CBF002093
S31508010D600120B149087031BD424242007FB50446AF
S31508010D700D4600F03BF8B14E94B1BC4A0021284615
S31508010D8000F0B7F9306801788DF804100822007B65
S31508010D908DF80500214602A8F5F714FF0EF046FE68
S31508010DA03068817B8DF80310C07B8DF80200FEF751
S31508010DB0E6FDADF80000FEF7DAFDADF8060000F035
S31508010DC017F87FBD1FB5044600F010F81CB10020C6
S31508010DD08DF8050007E0FEF7CAFDADF80600FEF737
S31508010DE0CEFDADF8000000F003F81FBD00A833E002
S31508010DF01023072200A9002002F0A9BC00B58BB078
S31508010E00FFF7F4FFBDF80000ADF8180004A99DF836
S31508010E1003008DF81B009DF802008DF81A00BDF835
S31508010E200600FFF75FFF0BB000BD1FB5012000F0FC
S31508010E30A2F804460EF005FEFFF7D8FF1CB90022FA
S31508010E404FF6FF7103E0FFF700F94188021DBDF86F
S31508010E500600FFF76FFF1FBD014610230722012079
S31508010E6002F075BC38B50820F7F751F80446F6F7CD
S31508010E706EFE724D7E48296800788873F6F726FF5C
S31508010E80A04208BFF6F744FF00210020FFF76EFFD6
S31508010E909B23FEF709FF9B20F7F748F828680021EE
S31508010EA0A0F84410A0F84610BDE83140F6F77FBE19
S31508010EB080B5A0F10B01102901D38A2002BDFFF7E5
S31508010EC04FFA497B022918BF032901D0702002BDB8
S31508010ED0674908700820F7F70BF800216548FAF703
S31508010EE081F820B1012808BFFFF7BCFF01E0A12066
S31508010EF002BD002002BD1FB50446F9F797FA18B1DD
S31508010F002046F9F76BFB12E000A8FFF7A5FF9DF84D
S31508010F10050040B1062806DAFFF722FA9DF80420F3
S31508010F200978914201D0932001E02070002004B095
S31508010F3010BD1FB5044600A8FFF78EFF082202A9B7
S31508010F402046F5F73FFE1FBD4B48007800B140200B
S31508010F503A4A4A491268127B515C08437047374A34
S31508010F601368588019B90822181DF5F76EBE0822AC
S31508010F70181DF5F727BE10B504462F48007AC00795
S31508010F8084B011D50A230A2200A9012002F0DFFB49
S31508010F90BDF808004FF6FF71884205D00822FF21E7
S31508010FA000A8F9F701FA08B1002006E024B1BDF856
S31508010FB0080000A9FFF7D3FF012004B010BD000007
S31508010FC0A0C000206CFB002070B51B4D0446287A92
S31508010FD0C00784B00CD5194E306841884FF6FF72A8
S31508010FE0914207D100220821001DF9F7DDF908B160
S31508010FF0002017E044B10220F6F77AFF4FF4F041DA
S315080110002846F9F72EF80CE030684188ADF8081043
S315080110100822011D00A8F5F7D5FD0A230A22FFF7C4
S31508011020E9FE012004B070BDE3FF002064FB002047
S3150801103040FB0020A3FF002058FB00202CFB0020CA
S3150801104070C0002000BE0020E5FF0020C8BD0020BA
S31508011050ADC00020D1FF0020CFFF0020D0FF002027
S3150801106047BE0020C3FF0020C2FF002000F8FF078B
S31508011070BFFF0020650E01080E3503080435030875
S31508011080425742420000000004600000DFF84013A6
S31508011090002008714FF6FF70CE490880704730B5B9
S315080110A083B004460D460823092200A9012002F04F
S315080110B04EFB14B19DF8060020700DB1009828600A
S315080110C0BDF804003EBD80B5002100A8FFF7E7FF83
S315080110D09DF8000002BD10B582B0044600A90020A3
S315080110E0FFF7DDFF009A0146204600F002F8204688
S315080110F016BD00B583B08DF80600ADF80410009250
S315080111000823092200A9002002F021FB07BD2DE9C9
S31508011110F04786B080460AF019FF0546AE480068D2
S3150801112018F80090002000900A232A46414602A892
S31508011130FAF757FA9DF8080005F10A0409280CBFC1
S31508011140012500259DF80900E021084268D100A87B
S31508011150FFF7EFFE08220DF10A0100A8F5F77CFD5D
S3150801116000285DD1002D4ED000F01AF9002857D07D
S31508011170984D28884FF6FF7A50451CBF4FF6FE71E9
S3150801118088424DD1924F954938780978001D3870B3
S31508011190491E8900C0B2814242DA00203870F7F749
S315080111A057FA2880264607E031464046FAF7B7FB44
S315080111B029888842F3D0B61CF6B2A9F10100864205
S315080111C0F2DB2888002818BF5045E8D0FEF7D7FB80
S315080111D029888142E3D0FFF776FF401CC0B2FFF7AA
S315080111E07AFF01462A880A2000F050F840B14FF4E8
S315080111F07A71381DF8F735FF0C20F6F779FE0FE0FE
S31508011200A5F800A00CE0E1B24046FAF7E1FAFFF7CB
S3150801121062FF611CC9B24046FAF781FB00F07FF80C
S315080112207AE06B48017809B1491E0170704738B5F3
S315080112306749002008710C20F6F769FEF6F787FC66
S3150801124067480068407B022818BF03281AD1614CF9
S3150801125020884FF6FE724FF6FF7590420CBF258027
S31508011260A8420FD0FEF78FFB258000210020FFF74B
S315080112707DFD9A23132255A10320F8F73CFC9A20F9
S31508011280F6F754FEBDE83140F6F791BC2DE9F04773
S3150801129005460026092D0C460CBF0127002700210B
S315080112A086B091460846FFF7FAFE8DF80850804643
S315080112B002AD012068700DF10A00FFF73AFE0DF143
S315080112C0120A17B9AC720DF1130A49465046FCF7D2
S315080112D038F90AF102000FB94FF6FF7802A9431A45
S315080112E001960096DBB202AA642140460AF00FFE77
S315080112F00446FF2C0FD03FB100F052F820B120462A
S31508011300FFF705FF012603E02046FAF7DFFE06464A
S315080113102046FAF7C7F8304606B0BDE8F08738B573
S3150801132004464FF6FF75AC4216D0FEF728FB8442F9
S3150801133012D028480188A9421CBF4FF6FE72914275
S315080113400AD104804FF47A712648F8F78AFEBDE877
S3150801135032400C20F6F7CCBD31BD21480068007B30
S31508011360001F022800D2704738B51A4C20884FF65C
S31508011370FF71884213D1FEF702FB05464FF470410F
S315080113801848F8F76EFE0C20F6F7B2FD4FF6FE7018
S3150801139020802A46BDE838400021092076E731BD7C
S315080113A010B50F480068007B001F02280AD3FEF714
S315080113B0DEFA044600210020FFF771FE844201D1BE
S315080113C0012010BD002010BD0000000042420000AF
S315080113D058FE0020E2C00020C8BD00204FBE0020F4
S315080113E02CFB00205CFE002080B5F8F784FF58B17D
S315080113F0F9F71CF840B1DFF808040078002818BF8F
S31508011400022801D1012002BD002002BD2DE9F041CB
S315080114108CB004460D46FFF7E7FF00283BD0DFF8FE
S31508011420E4030078844228BFB12048D223463020FD
S3150801143000FB03F8DFF8D07355B93222AAA10320BD
S31508011440F8F759FB39684144002081F82C0032E04D
S3150801145005F118063022F07D0FF2B4310B90B07DFC
S315080114600A90707D0990307D0890F07C079070890C
S31508011470069030890590F0880490B0880390A86991
S315080114800290009505F1100001900320F8F733FB4F
S31508011490F07C082801DB702011E0386830222946E3
S315080114A04044F5F78FFB3868404490F82C1001F05A
S315080114B0EF0180F82C10204600F0BDF800200CB092
S315080114C0BDE8F08138B505460C462B46312286A182
S315080114D00320F8F710FBFFF787FF002818BF002C39
S315080114E001D1702032BDC7480078854201D3B120A9
S315080114F032BDC5480068302101FB0501302220466E
S31508011500F5F760FB94F82C0000F00F0084F82C0026
S31508011510002032BD10B50020BB49BA4A07E00B6866
S31508011520302404FB0033002483F82C40401C137834
S31508011530C0B29842F3D3BDE8104064E02DE9F04704
S315080115400446884616460027AF4DDFF8B89205E0EF
S315080115502188008C814219D07F1CFFB299F80000BE
S3150801156087421CDA302000FB07FA2868504490F8B5
S315080115702C1001F003010229EED1F107E8D4082263
S3150801158021461030F5F768FB0028E5D12868504454
S31508011590C08B804501D0B007DED4384600E0FF2075
S315080115A0BDE8F087002000E0401C96490978C0B2E2
S315080115B088420AD294490968302202FB00110322A3
S315080115C091F82C101142EFD17047FF20704730B5C2
S315080115D0302250438C4A1368C31893F82C4004F000
S315080115E01005012D05DB93F82F508D4201D10020FE
S315080115F030BD44F0100483F82C401268801880F836
S315080116002F10012030BD00207E490CE07E4A126869
S31508011610302303FB0022401C92F82C3003F0EF0321
S3150801162082F82C30C0B20A789042EFDB4FF4205191
S315080116307648F8F716BDF0B504463020724E00FB21
S3150801164004F5306828188BB090F82B00082804DBBD
S31508011650BB210FF2D010F5F7B7F92A22FF2100A80E
S31508011660F5F7F3FA3068281800F11C010A7C02F034
S315080116700302022A2FD1828BADF8182006AF497CC6
S31508011680F973082200F1100104A8F5F79BFA3068EE
S315080116902918C88B788001F11E004288BA80827B9E
S315080116A0037C02F00802012AACBF802200221A43F9
S315080116B03A74807B00F00400012803DB102200A89D
S315080116C0F5F780FA3068281800F1240190F82B20E4
S315080116D008A8F5F777FA2A2300AA21461A20F3F76C
S315080116E0E4F90BB0F0BD0000424200002DE9F043D9
S315080116F08BB0002406AD444EDFF808913CE0316812
S31508011700414447F0060081F82C001022306800A9F0
S315080117104044F5F757FA3068BDF8181040440822D6
S315080117208183E97B80F82D1004A930684044103084
S31508011730F5F748FA306869884044C1831E30A9889C
S315080117404180297C0174002031684144886100A9DF
S31508011750411891F82010FF2908D0326842448218AE
S31508011760401CC0B2072882F82410F0DB31684144D6
S3150801177081F82B00641CE4B299F80000844227DA48
S315080117802A2322461A2100A8F3F77EF9302000FB06
S3150801179004F8E87BFF2805D131684144002081F827
S315080117A02C00E7E7287C010600F00F0028744CBFDF
S315080117B008270027FF22102100A8F8F7F5FD0028C1
S315080117C09DD03168414447F0020081F82C00A2E718
S315080117D00BB0BDE8F08370B500240B4D094E0AE045
S315080117E02868302101FB0400002180F82C102046CE
S315080117F0FFF721FF641C3078E4B28442F0D370BD50
S31508011800E4FC002014BE002010BE002070FD00205C
S31508011810424231367038704457575757424242420E
S315080118204200000072663463652D70616972696EE3
S31508011830672D7461626C652E630000002DE9F64F11
S3150801184085B0824699460024DFF8047700E0641CD7
S31508011850DFF800070078E4B2844206D2386800EB64
S315080118600410007AFF28F2D100E0FF24BDF8180021
S31508011870DDF840800FF2F8610190CDF80C80CDF8C3
S31508011880089053469DF81400009036220320F8F775
S3150801189032F95FEAC97006D4DFF8BC0600788245DA
S315080118A028BFB1203CD2F8F7DCFFC0B3302000FBDB
S315080118B00AF00090DFF8A4660099306808185FEA14
S315080118C0C97105D490F82C1001F00301022926D11B
S315080118D009F00103012B09F0080209F0040106DBEE
S315080118E00129BEBF09F00203012B012A17DA012AD1
S315080118F005DB90F82C2002F00402012A0FDB09F01F
S315080119002002012ADFF858B60BDB012907DB9BF811
S315080119100010C90703D590F82E00000701D47020DE
S3150801192063E0FF2C60D0119D4946504600F060F8EF
S31508011930A84238BF742058D35FEAC97015D49BF8FA
S315080119400000C0070BD4306800990818808BFEF791
S3150801195012F8306800990818C08BFEF714F8306839
S315080119600099081890F82D6002E0DFF8F805067866
S3150801197012989DF81430019002954A46BDF8180050
S31508011980009051463046FDF7D5F88346BBF1FF0F67
S3150801199008BF182029D000220023114609F0D0FBE0
S315080119A0F8B138682501281880F808B03868281869
S315080119B080F809903868281886723868281880F8D7
S315080119C00BA00120396869180873FCF706F939680C
S315080119D06850681880F80D800020396869184860D1
S315080119E003E05846F9F75EFD662007B0BDE8F08FBB
S315080119F0F0B50C4604F001018DB081F001066E25A3
S31508011A002EB100A9FFF75EFD08B1002033E0DFF82B
S31508011A105075397801F0010181F001010E4214BFB8
S31508011A20BDF81E00FDF7ABFF397801F0010131431E
S31508011A3008BF682566B19DF82E10C90703D504F0BD
S31508011A400201012901DBAD1FEDB2BDF81E1001E04F
S31508011A504FF6FF7188421CBFAD1EEDB204F040007F
S31508011A600128A4BFAD1EEDB204F008000128A4BFE9
S31508011A702D1FEDB228460DB0F0BDF8B50446002578
S31508011A80DFF8CC64DFF8CC7410E0002C1FBF306897
S31508011A9000EB0510007AFF2818BFF9F703FD316836
S31508011AA001EB0511FF206D1C0872EDB238788542ED
S31508011AB0EBDBF1BD38B5DFF8985404012868201826
S31508011AC0406820B902F0FCFF296861184860286857
S31508011AD02018406832BD2DE9F047A0B0804600AA1B
S31508011AE00021FDF7DCF8044600AA042100F0C8F835
S31508011AF0064604F44040B0F5404F4FF6FF7A00AA77
S31508011B0014D100F0BCF84046F9F758FC9DF80010CE
S31508011B100918082201A8F5F755F8B6B2564507BFC0
S31508011B20002200210222314601A807E000F0A7F8A9
S31508011B30ADF802000322B1B20DF10200FFF7FEFC77
S31508011B40044600F0A5F8054600F0A2F8814600F023
S31508011B5068F90006870F002600F063F9400748BFB9
S31508011B6008260FB146F0200600F08DF84FF44061C3
S31508011B70084218BF46F0020609D100220321404651
S31508011B80FDF78DF880B2504508BF46F0010600F012
S31508011B907AF8800648BF46F0040600F042F900F0DC
S31508011BA032F908BF46F04006A246BAF1FF0F63D0E4
S31508011BB0E9B22046FFF70BFD00285DD000F031F9A8
S31508011BC0400705D52146404602F088FB002853D038
S31508011BD0DFF888030068302101FB0A00806948455F
S31508011BE04AD2DFF87C03007800F0080001280BDBF5
S31508011BF057B13846FDF77DF900F0C7FC00F07FFCC8
S31508011C000221D948F8F72DFA03A94046FDF712F93A
S31508011C100546F6F70FF800F004F900F0F4F803D1D9
S31508011C2000F0FAF8814601E04FF0000900F0EFF8FC
S31508011C30014603A80190009533461FFA89F2C9B2F5
S31508011C4020460EF079FE00F0ECF800F0DCF803D13E
S31508011C5000F0E2F884B200E0002400F0D8F8C0B23F
S31508011C60009002960194534638220FF20C31032054
S31508011C70F7F741FFF5F79BFF20B0BDE8F08705218F
S31508011C804046FDF70CB8002200214046FDF707B88B
S31508011C90002207214046FDF702B82DE9F04FA1B011
S31508011CA00F46804605A9FDF7C5F80446404600F0EB
S31508011CB0C4F80546FF2D05D140F275110FF2C02073
S31508011CC0F4F782FEA24E30684FEA0519484490F8A7
S31508011CD009A0FBF782FF3168DFF880B259F80120C5
S31508011CE0801AA0F57A70A14A90428041C00F5FEA36
S31508011CF0CA6225D45FEACA72494417D40AF00402B3
S31508011D00012A13DB27B1D8B900F079F8B8B173E025
S31508011D10DBF80000CA7A897A302303FB020090F8BF
S31508011D202D2091420CD000F081F809E0087B0328A8
S31508011D3008BF002704D000F062F800285CD16627A6
S31508011D4030684844417A01F02001012909DBDBF8B2
S31508011D500010C07A302202FB00108249097800F08F
S31508011D6065F8F5F767FF00F05CF800F04CF803D169
S31508011D7000F052F8054600E0002500F048F8316801
S31508011D8005AA49440392029403464A7B0192002F0D
S31508011D90AAB200920CBF002066204A7AC97ADBB241
S31508011DA00EF0BBFD00F03DF800F02DF803D100F070
S31508011DB033F884B200E0002400F029F83168494478
S31508011DC0C0B24A7B049203940290002F487A01908C
S31508011DD00CBF00236623C87A0FF2B411009037228C
S31508011DE00320F7F788FEF5F7E2FE4046F9F75AFBB6
S31508011DF031684944FF20087221B0BDE8F08F2246B8
S31508011E0005A928463FE000F0030003287047002291
S31508011E1008214046FCF743BF002209214046FCF74A
S31508011E203EBF002206214046FCF739BF80F82D1037
S31508011E3030684844C07AFFF7FEBB002100E0491C20
S31508011E40444A1278C9B2914208D2414A126802EB51
S31508011E500112127A8242F2D108467047FF20704772
S31508011E60002000E0401C3B490978C0B2884208D2EC
S31508011E703749096801EB0011097AFF29F2D00020D8
S31508011E807047012070472DE9FE4F314F4FEA001B7D
S31508011E90386858440C4690F80880807A9246F8F7D4
S31508011EA0CAFC814638685844417AC90715D42C4971
S31508011EB00978C90711D4294EC07A3168302505FB3E
S31508011EC00010808BFDF757FD396830685944C97A87
S31508011ED005FB0100C08BFDF756FDFFF7A2FFFFF7D3
S31508011EE092FF03D1FFF798FF054600E00025FFF7AB
S31508011EF08EFF03463868CDF808A00194A9B2584464
S31508011F000091DBB2427AC17A4846FCF713FE0446D1
S31508011F10FF2C08D001230022002109F011F920B96C
S31508011F202046F9F7BFFA00200FE04046F9F7BAFA5A
S31508011F303868584404723868584480F80A903868F2
S31508011F405844017B491C01730120BDE8FE8F00003E
S31508011F5018BE00201CBE002014BE002010BE0020A2
S31508011F60C2C00020C3C0002034FB0020010000804D
S31508011F704242425742420000424242574200000052
S31508011F8072663463652D646174612E630000000016
S31508011F9042424242425742002DE9F04383B00D4680
S31508011FA0164680460196434628880FF2C8010090D6
S31508011FB0392200F013FADFF8D47B3868407B40B940
S31508011FC03DB1DFF8CC0B00780A2802D1F5F787FF77
S31508011FD008B170204BE03968032008704FF6FF748A
S31508011FE03868C6730F20396888732046FDF7C3FC25
S31508011FF02046FDF7C8FCDFF89C0BDFF89C9B0670B2
S315080120005FEAC87089F800804CBF06200720FEF7F2
S315080120104CFE0A222946DFF8E80CF4F7D3FDFFF750
S31508012020DAFB99F80000C00715D4DFF8700B0480B5
S31508012030DFF86C0B04800F2000F0A7FAF5F768FEAD
S3150801204038B902F056FD00F05AFA0220F8F710F9ED
S315080120500CE001200BE039680120487301F0EFF923
S315080120600622DFF8A01C0220FDF72CF80020BDE8A7
S31508012070FE830000424257420000000010B51820B6
S31508012080F5F745FF0446F5F762FD00F03DFC04D17E
S31508012090DFF8740C0078844202D3BC2101F06DF993
S315080120A000F055FA0020FEF700FEF9F7DDFF0020E3
S315080120B0F8F7DEF8F5F77BFDBDE81040F5F76FBEDA
S315080120C080B53A229FA10320F7F715FDF8F7C9FB5A
S315080120D008B9702002BD09F089F80120FFF7CDFC87
S315080120E0DFF8A81A096804204873DFF8A40A0078FB
S315080120F00A2802D0FDF773F807E01820F5F7F8FE6D
S315080121000121DFF8080CF8F76DFF002002BD2DE963
S31508012110FF410A9C06460F4690461D4603940295C2
S31508012120CDF80480009733463B220FF2980100F060
S3150801213055F9F8F796FB58B10B9A082A08DA0C995B
S31508012140002918BF002A03D0002D18BF002C01D181
S31508012150702034E0DFF8B80B0680631E80F8333050
S3150801216047800023058680F8348080F83F3080F860
S315080121703C203530F4F726FDDFF81C4A2078C007E5
S315080121805CBF4FF6FF70FDF7FEFB207801F065F89E
S31508012190A6BFDFF8800B04780F24204601F07BF9EF
S315080121A068B9DFF8740B00688473032001F047F9F6
S315080121B01620F5F79DFE294600F008F8002004B020
S315080121C0BDE8F0814257574257420000DFF84C0BF1
S315080121D0F7F747BF2DE9FE4F04460D4691461F46C0
S315080121E0A0460297CDF804900095234641220FF2A6
S315080121F0FC0100F0F3F8F8F734FB08B970205DE04C
S315080122000F2C18BF142C03D0192C18BF8A2055D1AE
S31508012210002200214846FFF791F9DFF8F46A86F8AB
S315080122203E00FF2805D1FFF7BDF986F83E000020DC
S3150801223000E0012086F83F0096F83E00FF2808BF17
S31508012240B4203BD086F83240358086F83D700822A6
S315080122504946301DF4F7B6FCDFF83C090078C0079B
S315080122605CBF4FF6FF70FDF78EFBDFF82C0900F017
S31508012270F3FFA6BFDFF8240903884FF6FE7300971C
S3150801228042462946484601F068FB8246BAF1FF0FE5
S3150801229008BF182012D000220023114608F050FF6B
S315080122A083465046F9F7FEF8BBF1000F08D14046C0
S315080122B0F8F7C1FA8046A045D7D16620BDE8FE8F5A
S315080122C0DFF8540A006880F80E80062001F0B7F896
S315080122D01620F5F70DFE6421FFF778FF96F83F0003
S315080122E00028EBD0C120E9E7000000004242573838
S315080122F07042000010B504462346442200F0E5FF6B
S31508012300DFF81C0A0078844201D3B12010BDF8F722
S31508012310A8FA28B100F056F801F00301022901D004
S31508012320702010BDDFF8E81981F83E4090F82D00BD
S3150801233001F0E0F8040004BF0C2001F080F8204603
S3150801234010BD0000420000002DE9F04188B01F468B
S315080123500E9C039405460E4690460297CDF80480D6
S3150801236000962B4648220FF2540100F037F8F8F789
S3150801237078FA70B100F039FEC0070AD5212D08DABE
S31508012380DFF8000DA5B126B1B54202D30FB10F2C66
S3150801239001DB70200FE0002101600571467180F8AC
S315080123A0068007818472B9021030F7F75AFE01E0F8
S315080123B000210174002008B0BDE8F0814242424282
S315080123C057420000DFF8C00C0068302101FB040009
S315080123D090F82C107047DFF8B40C00900320F7F73B
S315080123E08ABB10B504462346492200F06EFFDFF882
S315080123F0940C4473002010BD80B5DFF89C170420A7
S3150801240008704FF6FF70DFF894170880DFF8901709
S3150801241008800F2000F0B9F80A22FF21DFF8E0084A
S31508012420F4F713FCDFF82C0E1A22FF21F4F70DFC42
S31508012430FFF770F8002002BD2DE9F04385B012239D
S31508012440192200A9012001F082F9F5F7D3FB9DF8BD
S315080124500010814218BF00204ED1DFF83047DFF85F
S3150801246038972168DFF82C67DFF83077DFF83057BF
S31508012470032008709DF802009DF80180307089F8E4
S315080124800080BDF804003880BDF8060028809DF854
S31508012490030000F07AF85FEAC8704CBF06200720EF
S315080124A0FEF703FCDFF85808BDF8081020F8021BF0
S315080124B007220DF10A01F4F785FBFFF717F93888AA
S315080124C0FDF759FA2888FDF75EFADFF8480821680A
S315080124D00078887321683078C8730220F7F7C8FE38
S315080124E0F5F75DFC99F8000000F0B7FE03DB00F094
S315080124F0C3FF00F0C9F8012005B0BDE8F08300B5B7
S3150801250085B0F5F777FB8DF80000122300F06DFD15
S315080125108DF801001922DFF874060068C07B8DF872
S31508012520020000A9DFF8EC0700788DF80300DFF850
S315080125306C060088ADF80400DFF864060088ADF87B
S315080125400600DFF8BC070088ADF8080009E000B509
S3150801255085B01222FF2100A8F4F777FB122319226E
S3150801256000A9002001F0F3F805B000BD80B5CE2121
S315080125708DF80010022201218DF8011000A9F9F742
S315080125809AF8401E8041C00F02BDDFF888170A7805
S315080125900870824203D0DFF89C1D0020086070474E
S315080125A02DE9F043DFF8DC4A0020207685B01620B5
S315080125B0F5F7ADFCF5F7CBFA207BDFF85487DFF8A2
S315080125C05867C11E022908F1300505D9C91E32D03E
S315080125D0091F01293AD952E03068807BF8F72BF9AF
S315080125E08146207B032808BF042710D0042808BF8A
S315080125F005270CD00327052809D1E87828B9E87BEF
S3150801260000280CBFC320002012E0401EE87048468F
S3150801261000F041FF60B9306880F80E90384600F046
S315080126200EFFB8F8301004F11800F7F71AFD26E086
S3150801263000F079FF23E0DFF8DC063168007888735B
S31508012640F5F7ADFBC02000F089FF18E004BF287C30
S31508012650F8F728FF00F0BFFAF5F7ECFA00F0B3FA3D
S31508012660C3200EF045F9FF2004900390C32300F020
S31508012670A3FA0FF23051FFF7AEFEF5F798FA05B057
S31508012680BDE8F043F5F793BA38B5DFF80C050FF650
S31508012690F44400F0E1FD04DA40F2D9212046F4F7CA
S315080126A093F9DFF8E0592889810205F11000F7F757
S315080126B0D8FC287BE8B9022000F0C1FEF5F7E3FB58
S315080126C0F5F745FAF7F7B2FE20B940F2E9212046B7
S315080126D0F4F77AF9DFF83C16AA7A91F90010012085
S315080126E000FA01F10220FCF7EDFCBDE83140F5F7EF
S315080126F05EBA31BD2DE9F84FDFF888790FF6844ABD
S315080127000546387B012818BF02280E46144606D00E
S3150801271000F0FAF806D040F2FA2100F0F2F800F0DB
S31508012720F3F806D1BDE8F44F0121DFF8E005F8F723
S3150801273059BC397B28460129DFF8D895DFF8B05D01
S3150801274040F09780002C40F089800228DFF8084E77
S3150801275035D1FF2E2AD02868305C032803D040F2F1
S31508012760173100F0CEF800F0C8F847B2012100F0A1
S31508012770C5F845B2022100F0C1F840B2BD42A4BF76
S31508012780B8420F2004DAAF42A6BFA8421420192086
S31508012790FFF7FBFE2078FF2803D04FF44A7100F0BB
S315080127A0B0F80120F8F715FEFF28207056D0BDE8CD
S315080127B0F84F0622DFF84C150320FCF783BC0328E3
S315080127C0DFF86065DFF8D8834CD1F5F741FF4FF69E
S315080127D0FF7A50453080F8D0F5F73AFFA8F800009F
S315080127E0002713E0791CC9B2F8F7F2FF834620786F
S315080127F03946F8F7EDFFB8F8001000EB0B2080B268
S31508012800814218BF5145E7D0B81CC7B220782A685B
S31508012810825C9742E6D3F8F745FEFF2020703088A0
S31508012820FDF7A9F8B8F80000FDF7ADF8DFF89C1D2B
S3150801283099F8000009688873F5F76AFA70B902F021
S3150801284058F9FFF75CFE00F017FEFFF71DFF00F0D1
S31508012850C2F90220BDE8F24FF7F70ABDBDE8F14F0C
S3150801286000F0F1BD5046BDE8F44F40F26B31F4F784
S31508012870ABB8022803D040F2723100F042F8FF2EBD
S3150801288004D1BDE8F24F002000F0D9BD2868305CBC
S31508012890012803D040F2793100F033F800F09BF9B2
S315080128A000F02BF83A6897F906300021520040B239
S315080128B08342B8BF42F001023A60002005E03A6857
S315080128C0C240D20748BF491C401C3A79C0B290425F
S315080128D0F5D37879C9B281420DD30020386099F8C9
S315080128E00000F7F7A8FFFFF750FEFFF708FEBDE85F
S315080128F0F14FF5F754BABDE8F18F00213046F8F7E4
S3150801290067BF5046F4F760B8DFF8C00C0068407B33
S315080129100428704780B5F8F751FDDFF86817097B79
S31508012920012909D100F10901DFF82C0C0078BDE86D
S3150801293008400222F8F7BFBE01BD2DE9F04A9FB053
S315080129408346F7F7B5FF002860D1F7F7A3FFDFF84D
S315080129503447617B884259D30A22002108A8F4F733
S3150801296074F91A22002110A8F4F76FF90DF115026E
S3150801297005215846FCF793F95846F8F71FFD9DF8C7
S3150801298015100918082206A8F4F71CF90DF1150205
S315080129900C215846FCF783F99DF81510481C8DF84B
S315080129A015005846F8F714FF05460DF1150208A952
S315080129B0584600F044FE0DF1150210A9584600F0DC
S315080129C05BFE9DF815105846F8F702FF277B0A2F7C
S315080129D018BF0B2F064640F0AC809DF84000DFF883
S315080129E07438C0F302120DF15301304600F000FEAF
S315080129F000280BD00A2FDFF8D89B08D15846F8F7DC
S31508012A0043FD89F840B00B2000F019FDBBE00A220E
S31508012A1000210DA8F4F719F91A22002117A8F4F7CD
S31508012A2014F900F0C5F80521FCF739F999F84000C1
S31508012A30F8F7C4FC9DF81410091808220BA8F4F736
S31508012A40C1F800F0B5F80C21FCF729F99DF8141026
S31508012A50481C8DF8140099F84000F8F7B9FE83462A
S31508012A6000F0A6F80DA900F0EAFD00F0A1F817A9F3
S31508012A7000F002FE9DF8141099F84000F8F7A8FE38
S31508012A80074699F84000F8F70DFD00F0A4F8002074
S31508012A90207608220FF20C140BA906A8F4F7DCF825
S31508012AA0A0BB0A220DA908A8F4F7D6F870BB1A220A
S31508012AB017A910A8F4F7D0F8002804BF5D45BE424F
S31508012AC024D1FEF76FFDFF280CBFB121002106A80E
S31508012AD000F0F0FC0746F5F7ADF810A8009001964E
S31508012AE008AB2A4606A938460DF002FF9DF84000B4
S31508012AF00390049601953B46BDF8200002904022BA
S31508012B0006A80090214600F015F90FE0F5F792F8AE
S31508012B1000F059F8C4200DF0EBFEFF200490039055
S31508012B20C42300F049F82146FFF755FCF5F73FF8AD
S31508012B3029E0F5F77FF8F7F7ADFE0190009610AB9F
S31508012B4008AA294606A80DF0BBFE0446F7F7A2FE19
S31508012B5004900396009506AB9DF840000FF6A03148
S31508012B6002903D22BDF82000019000F0E3F8F5F748
S31508012B701EF844B1FEF716FDFF280CBFB12100214E
S31508012B8006A800F097FC1FB0BDE8F08A2CFB0020D0
S31508012B90ADC00020D6FF0020C2C00020C4C000205E
S31508012BA0C6C0002042423870425742420000000027
S31508012BB099F8400005AA70474FF6FF700290402227
S31508012BC0FF2001907047FF2001900023002000900C
S31508012BD00146FF227047002000F031BC2DE9F04381
S31508012BE0074600F04BFAC01E032895B080F0848092
S31508012BF008AA04213846FCF752F8DFF8149104466E
S31508012C00B9F800004FF6FF7188421CBFA4B2A04272
S31508012C1072D108AA05213846FCF741F83846F8F773
S31508012C20CDFB9DF820100918082209A8F3F7CAFF59
S31508012C3008AA0C213846FCF732F89DF8201000F056
S31508012C4073F89DF82010054600F06EF8064608AAA6
S31508012C500BA9384600F0F3FC08AA0EA9384600F07D
S31508012C600BFD9DF8201000F062F8074699F83C2004
S31508012C7099F834000EAB09F1350100F0B9FC0028CA
S31508012C803AD0012089F83F00F4F7D4FFF7F702FE9E
S31508012C9001460391B12D0EA902910CBF0120002016
S31508012CA00BA9DFF8308901910497009609AB98F8CA
S31508012CB00010A2B20DF00AFE08B989F83300F7F739
S31508012CC0E9FD0690B12D9DF838000FF640210590D3
S31508012CD00CBF01230023BDF82C000490A4B209A857
S31508012CE002900797039601943E2298F800000090F7
S31508012CF000F020F8F4F75BFF15B0BDE8F08300009B
S31508012D0048FD00200080100200BE00207D20010839
S31508012D10F8FC0020C3C000202CFB0020F0FC00209A
S31508012D2014BE0020C4C00020481C8DF82000384677
S31508012D30F8F74EBD0320F6F7DEBE2DE9F04F8246C1
S31508012D4000F09CF9002895B007D100F04EF9C007AC
S31508012D5040F13481F7F7ACFD002840F02F8106AA2F
S31508012D6005215046FBF79BFF5046F8F727FB9DF8D0
S31508012D7018100918082207A8F3F724FF06AA042140
S31508012D805046FBF78CFF814606AA0C215046FBF7F5
S31508012D9086FF9DF818105046F8F7C1FD80469DF844
S31508012DA01800811C481C8DF81800C9B25046F8F75E
S31508012DB00FFD8DF80C0006AA0AA9504600F03FFC43
S31508012DC006AA0DA9504600F057FC9DF81810504662
S31508012DD0F8F7FEFC8DF819000A22DFF8F4B70AA9FC
S31508012DE00BF10C00F3F7EEFE1A220DA90BF11600F2
S31508012DF0F3F7E8FE9DF80C00099000F02EFAACBF37
S31508012E00012600260022002107A8FEF797FB0446A3
S31508012E10FF2C0BF13D0703D00120B870C12508E04E
S31508012E200020B870FEF7BEFB0446FF2C14BF002530
S31508012E30B4257C709DF81900934F8BF83D0030201E
S31508012E40B42D00FB04FB57D09DF834003968C0F354
S31508012E5002108DF800005944DFF87C070088888342
S31508012E604EB1002206215046FBF719FF0006800FD6
S31508012E70FCF73FF802E0DFF864070078396859443F
S31508012E80082281F82D0007A9386858441030F3F74D
S31508012E9099FE3968002E594412BF4846DFF84007A3
S31508012EA00088C88318BF404606D1F5F7D1FBDFF87D
S31508012EB0281709888842F8D03968594408849DF842
S31508012EC00C0081F82E000021386858448161BDF84C
S31508012ED0281041840DF147019DF800202430F3F7AD
S31508012EE071FE39689DF80000594481F82B000120CC
S31508012EF03968594481F82C00F4F79CFE07AA9DF815
S31508012F0019009DF80C30029021460DA801900AA8D7
S31508012F10009028460DF0F7FC80469DF819000FF23F
S31508012F20F87105902B469DF8340004904322BDF8AC
S31508012F30280003900998029007A801900094FFF7CA
S31508012F40F9FEF4F734FE4446B42D08BF4FF00008E5
S31508012F504FF0000A4FF6FE70B6BBB42D31D1B1233E
S31508012F604FF6FF71DFF8702612880090019289B238
S31508012F70DFF86006027807A800F03CFD0646FF2E3A
S31508012F800ED000231A46114608F0DAF88246304672
S31508012F90F8F788FABAF1000F18BFB8F1000F20D177
S31508012FA0B42D04D039685944002081F82C002CB17D
S31508012FB0BAF1000F04BF012000F0D0FA15B0BDE840
S31508012FC0F08F38685844008CB42D08BFB12304D05B
S31508012FD0B8F1000F14BF0023B423002EC0D0494610
S31508012FE0C0E7072000F02BFAE8E7DFF8F8050078D4
S31508012FF070472DE9F04100F041F807280C463BD10E
S31508013000DFF8CC85DFF8E075386808F13D0530262C
S31508013010697806FB010000F0E6F903D040F2B351E6
S3150801302000F0ABF9BCB9FFF7E0FF00F00400012896
S3150801303013DB3868697806FB010090F82E00400713
S315080130400BD5082000F0FBF998F83D106878BDE823
S31508013050F04101F06AB8002000E0022039686A7878
S3150801306006FB021181F82C0014B96878FEF7E3FA19
S315080130702046BDE8F04171E2BDE8F081AD48007B2C
S3150801308070470000D8FC002010BE00206CFB002011
S315080130902DE9F04FDFF83845A64D80468FB094F8F4
S315080130A03E00019094F83D008DF80200287B062821
S315080130B040F0CC8000AA04214046FBF7F0FD81468A
S315080130C000AA05214046FBF7EAFD4046F8F776F9DE
S315080130D09DF800100918082202A8F3F773FD00AA43
S315080130E00C214046FBF7DBFD9DF80010481C8DF8C6
S315080130F000004046F8F76CFB06469DF8001040466E
S31508013100F8F70DFC82469DF80000801C8DF800003A
S3150801311040469DF80010F8F702FC83469DF800002A
S31508013120811C481C8DF80000C9B24046F8F750FBCF
S31508013130074600AA04A9404600F081FA00AA07A991
S31508013140404600F099FA0A2204A904F10C00F3F7A3
S3150801315039FD1A2207A904F11600F3F733FD96B9CA
S3150801316000242C769DF81C00DFF87854C0F3021071
S315080131708DF80100287800F070F8A6BFDFF858042A
S315080131800088504606E0B12E0CBFB424C2240020A4
S31508013190287658E00199DFF85064302202FB01FADB
S315080131A0316851440022888306214046FBF777FDA2
S315080131B00006800FFBF79DFE31685144082281F80D
S315080131C02D0002A9306850441030F3F7FBFC306833
S315080131D05044A0F81E901E30A0F802B0077430685B
S315080131E050448461BDF8101041840DF12F019DF8FA
S315080131F001202430F3F7E6FC31689DF801005144BB
S3150801320081F82B0001203168514481F82C00287877
S3150801321000F0040001280DDB78070BD5092000F022
S315080132200EF9F4F7BCFD01989DF80210C0B200F042
S3150801323051FF0BE0316851440A2081F82C000198AE
S31508013240C0B2FEF7F8F9204600F088F90FB0BDE8DC
S31508013250F08F000054FD0020007800F001000128DD
S315080132607047F8B50F46FBF755FEF7F7E4FA302431
S31508013270D74DDD4E5FB1316895F83E2004FB02114A
S3150801328091F82D10884202D000F034F9E0B1306887
S3150801329095F83E1004FB0100002180F82C1095F8E2
S315080132A03E00FEF7C8F9FFF796FCF4F7C3FC95F85C
S315080132B03E000DF049FB95F83E30462200F005F830
S315080132C0BDE8F140F4F773BCF1BDBFA10320F6F7E1
S315080132D012BCF8B5044600F08CF80546FF2D27D038
S315080132E03020C14F00FB05F63868301890F82C00DD
S315080132F000F00400012806DB002206212046FBF720
S31508013300CEFC400714D5F4F795FC28460DF01AFBB8
S315080133102B464522FFF7D9FFF4F749FC396871189E
S31508013320002081F82C002846BDE8F240FEF783B953
S31508013330F1BD0000D8FC002038B50446FFF79EFE13
S31508013340092803D040F2AD6100F017F8A049A64A52
S3150801335091F83E301268002C0CBF0E200020302553
S3150801336005FB032282F82C001CB991F83E00FEF7F2
S3150801337062F92046BDE83240F0E00FF20800F3F7A3
S3150801338023BB000072663463652D6E6574776F72B0
S315080133906B2E6300F8B5044694488D4E007B924F18
S315080133A03025082807D1386896F83E1005FB010034
S315080133B000F019F803D040F2CC61FFF7DEFF396857
S315080133C096F83E20002C05FB02110CBF06200020B2
S315080133D081F82C001CB996F83E00FEF72CF9204618
S315080133E0BDE8F240BAE090F82C0000F0030001288D
S315080133F070473EB5044600AA0421FBF750FC85B286
S315080134004FF6FF70854205D100AA02212046FBF737
S3150801341046FC054600AA05212046FBF740FC204646
S31508013420F7F7CCFF9DF800100918082201A8F3F751
S31508013430C9FB0222A9B201A8FEF780F83EBD6B4975
S315080134400873F7F77FB810B5604C216800204873F8
S31508013450FFF7F5FF022021683F4C08702078FF2806
S3150801346003D0F8F71FF8FF202070FFF770F89120B6
S31508013470BDE81040F4F75ABD5C48002101601021EF
S3150801348001710F2141716FF04A0181710A21018190
S3150801349000218172704738B502464D4890F834309C
S315080134A00188408800F0FEF90446FF2C01D1182056
S315080134B032BD2BE038B504460D46F7F7EBF903465E
S315080134C0444801782A46204600F018FA0446FF2C9B
S315080134D001D1182032BDF5F7BBF84B2190FBF1F16C
S315080134E04B2202FB1102002392B20021204610E072
S315080134F0C8BD002038B50146354890F83E0000F0B1
S31508013500D4FA0446FF2C01D1182032BD002200232B
S31508013510114607F015FE05462046F7F7C3FF681E54
S315080135208041C00F32BD10B504460020FFF787FF62
S3150801353026492A48096800788873F4F730FCF4F7B5
S3150801354079FB20460DF0D2F923463C22FFF7BDFE52
S31508013550BDE81040F4F72BBBC1C00020FEB50446F8
S315080135600020FFF76CFFF4F765FB0FF2B815ACB94D
S31508013570174E96F83F0000B1C12406F10C0796F8DC
S315080135803E1006F116033A4620460DF0C4F9B87AFC
S315080135900290B089019096F83E000BE000230022C4
S315080135A0FF2120460DF0B7F9FF2002904FF6FF7074
S315080135B00190FF200090234642222946FEF70EFF7E
S315080135C0BDE8F740F4F7F3BA424200002CFB0020AD
S315080135D0F8FC0020D1FF0020C4C00020C3C0002091
S315080135E0C6C00020C2C0002010BE0020D8FC0020A2
S315080135F0F0B51C78C4F34105C4F30214002601E0B2
S31508013600761CF6B2AE4218DAFF281EBFF7183F7CC1
S31508013610B842F5D1002601E0761CF6B296420CDADC
S31508013620002000E0401CC0B2A042F5D2C718755C64
S31508013630FF7CBD42F6D10120F0BD0020F0BDF8B5F2
S3150801364004460D4616460A22FF212846F3F7FDFAD7
S3150801365031782046F8F763F9288000273078801CEE
S31508013660307000F049F879197F1C88703078401C51
S31508013670072F3070F5DBF1BD2DE9F04104460D4603
S3150801368016461A22FF212846F3F7DFFA00F034F826
S3150801369028703078401C30702878C0070AD5002772
S315080136A000F02AF879197F1C48703078401C0F2FD2
S315080136B03070F5DB2878C0F34108002707E000F0F1
S315080136C01BF879197F1C08743078401C3070FFB2DA
S315080136D04745F4D32878C0F30218002707E000F01D
S315080136E00BF879197F1CC8743078401C3070FFB20A
S315080136F04745F4D3BDE8F08131782046F8F768B834
S315080137004238704257424242000000004242425744
S31508013710387042574242420042424238704257424A
S3150801372042000000424242574200000010B50446DA
S31508013730F4F760FA48B10FF2341000E0801D017900
S3150801374019B10188A142F9D14488204610BD2DE955
S31508013750F04182B005460C4616469846F4F74AFAF1
S31508013760074641480178FF2918D04078B84215D153
S3150801377000220FF2F80002E09A18D2B2801D0379EE
S3150801378063B1B0F800C0B445F6D16B1E9B41DB0F9F
S31508013790009303792046F7F724FF1DE03046FFF72B
S315080137A0C5FF064607B17F1E002D434607D0FAB26C
S315080137B03146204602B0BDE8F041F1F765B9224627
S315080137C0F9B2F1F772F9F4F735FA3046F6F7AAF9CC
S315080137D0BDE8F341F4F7EBB9BDE8F3812DE9F04310
S315080137E089B004460FF284070026F4F703FA0500A8
S315080137F013D06D1E11E00020009043461A48017847
S31508013800F2B201A8F7F7EDFE2CB9434601AAE9B2CF
S315080138104846F1F74AF94644BF1D387978B13888E0
S31508013820FFF784FF97F80480002C8146E3D04346CE
S31508013830EAB2494601A8F1F727F90120DCE709B000
S31508013840BDE8F08310B5084C2078FF2801D1702017
S3150801385010BD0020FFF7C2FF2078F7F723FEFF20EF
S3150801386020706070002010BD8AC0002007000D007E
S31508013870100008000F001A0006000C0011000200D3
S315080138800E001100040012000400010001000400EA
S315080138900900100008000A0011000A0000000000D3
S315080138A000000000F0B591B0044601208DF818001B
S315080138B00D46DE48DE4900788DF8190016460DF1E9
S315080138C01A0005901F4605A800F0EDF900F08FF8DB
S315080138D00598401C059006A900F8017D019600236C
S315080138E000F036F82A4606A80390002002900090B8
S315080138F001462046FBF7AFF911B0F0BD70B590B09F
S3150801390004460D4602208DF818001E46C749097857
S3150801391006A8427081700DF11B00059000F064F84D
S3150801392000F065F80598401C059006A900F8016D98
S315080139300195012300F00CF84FF6FF7206A80390D3
S315080139402146002002900090FBF785F910B070BD62
S315080139500598401AC0B2049070472DE9F04391B01A
S31508013960804606A805908946B04C207800F00100EB
S31508013970012816461F4603DB00F073F8054600E0EA
S3150801398000250599491C0591032001F8010D0598A3
S31508013990401C059000F8017D380A0599491C0591D6
S315080139A001F8010D05992078491C059101F8010DC9
S315080139B000F01AF800F01BF805991898491C0591AA
S315080139C0012301F8010D06A9FFF7C2FF4A4606A819
S315080139D003904146E8B20290019600200090FBF759
S315080139E03AF911B0BDE8F08305A891495BE191491F
S315080139F005A86FE170B592B0044604208DF8180049
S31508013A000D4616988DF81A0006A9000A8DF81B00AE
S31508013A104B70164617980871000A8DF81D008449DF
S31508013A20824800788DF81E000DF11F00059005A843
S31508013A3000F039F9FFF7DBFF00F013F80599019655
S31508013A4006AA891AC9B20491C0B206A902900391BD
S31508013A500020009001232A462146FBF7FCF812B004
S31508013A6070BD754800780121FBF721BA30B59BB0C6
S31508013A70044606208DF814008DF815200D461946C2
S31508013A8050220DF11600F3F79DF852200490019586
S31508013A9005A8039001230020029000904FF6FF72BB
S31508013AA02146FBF7D8F81BB030BD70B50C4630215E
S31508013AB0624E01FB00F53068281886B090F82C0094
S31508013AC000F00300022804D0B8210FF26020F2F7B3
S31508013AD07BFF05208DF814003068281800F11E01B7
S31508013AE08A7B097C02F00402012AACBF0123002368
S31508013AF001F001010129ACBFC28B4FF6FF7201210A
S31508013B000491009305A903910194002102910123CF
S31508013B1000F110010020FBF79EF806B070BD70B5E4
S31508013B209AB015461F9A1646512E0C46A8BFFF2075
S31508013B3021DA002814BF072008208DF814008DF813
S31508013B4015300DF116001E99F3F73CF8019505A8F5
S31508013B503018801C05A9401AC0B20490012305A893
S31508013B6003904FF6FF720020029021460120009033
S31508013B700020FBF770F81AB070BD000010B50446B6
S31508013B8000220621FBF78BF8400704D52046BDE83D
S31508013B90104000F0AFBC2146072000F036FA002895
S31508013BA043D000220A212046FBF779F824490978EF
S31508013BB0CA1E032AC0B201D2022836D10A2918BF61
S31508013BC00B2901D1012830D1401E07282DD8DFE85D
S31508013BD000F004090E181D2213272046BDE81040DF
S31508013BE0FEF7ABBE2046BDE81040FEF7F7BF2046FC
S31508013BF0BDE81040FFF7A1B82046BDE8104000F027
S31508013C00A0BD2046BDE81040FFF742BA2046BDE8F0
S31508013C101040FFF75EBB2046BDE8104000F0B2BC7D
S31508013C202046BDE8104000F0EABD10BDC2C0002024
S31508013C3048FD002054FD0020C3C0002010BE00200E
S31508013C40E4FC002038B50D46044600220A21FBF79C
S31508013C5026F8C0B2042807D024D306280AD015D3DB
S31508013C6008280DD018D331BD29462046BDE8344071
S31508013C70FFF7BFB929462046BDE8344000F026BD06
S31508013C8029462046BDE8344000F00BBE29462046A9
S31508013C90BDE83440FFF7E5BA29462046BDE8344079
S31508013CA000F0A5BD31BD10B504462268088810701C
S31508013CB02068401C2060226831F8020B000A107047
S31508013CC007222068401C2060F2F77CFF2068C01D8F
S31508013CD0206010BD70B504460D4621682878087025
S31508013CE02068401C20602878C00707D520680F2265
S31508013CF0691CF2F767FF20680F30206005F1100193
S31508013D002878C0F3410620683246F2F75BFF20683F
S31508013D10301820602978C1F30216324605F11301DD
S31508013D20F2F750FF20683018206070BD7266346360
S31508013D30652D636F6D6D616E642E6300C3480078EF
S31508013D4000B101207047F8B50546F7F7D2FE0646D9
S31508013D50F7F714FF845D2846F7F7C1FE0746304694
S31508013D60F7F70CFFBA490968695CC91B091AFF22EA
S31508013D707C2C08BF032204D0092C3CBF0FF2D420A7
S31508013D80225CC9B291428041C043C00FF2BD70B5F1
S31508013D90044608F00EF805462046F7F7AAFE4078CD
S31508013DA0400713D5A91C00F0D3F848B1294600F0FD
S31508013DB0C9F800F0C4F82EB1B04203DBFF2801D0E0
S31508013DC0002070BD05EB4600851CADB2294620468C
S31508013DD0BDE8704008F005B8F8B5044608F0B6F82D
S31508013DE005462046F7F785FE0746A91C00F0B0F8F8
S31508013DF000283DD0294600F0A5F800F0A0F80B2EC2
S31508013E0036D20FF25C21715C4D19ADB205F108018C
S31508013E10012E89B20AD0022E0CD0052E11D0082EF9
S31508013E2015D0092E18BF0A2E16D020E080061ED5F9
S31508013E300D461CE0C20648BF0D46800617D5083553
S31508013E4014E07978C90613D505EB40050EE000F0B4
S31508013E501F0000EB400008E010F0E00108D1092E30
S31508013E6006BF00F01F00400002204519ADB236E03A
S31508013E700020F2BDF8B5044608F068F80546691C45
S31508013E8000F066F848B3294600F05CF8064606F0E5
S31508013E90030706F00C00032F18BF04281DD0022FB4
S31508013EA000D1D0B9304608F081F845193006ADB2CF
S31508013EB012D5691C00F04CF880B1E9B200F042F85D
S31508013EC00146012F1CBF01F00300032805D0304627
S31508013ED008F07AF84519ADB201E00020F2BD29468D
S31508013EE02046BDE8F44007F07CBFF8B5044608F063
S31508013EF0B0F80546A91C00F02BF8F0B1294600F0E8
S31508013F0021F806460F2E18D20FF26010305C4719B9
S31508013F10691CFFB200F015F8052E06D106280CD249
S31508013F200FF25811405CC71904E0082E08BF022891
S31508013F3001D10837FFB23946D2E70020F2BD06465D
S31508013F40691CC9B22046F7F743BC9DF80000291839
S31508013F5089B2204607F045BF10B582B0044600AACB
S31508013F600621FAF79CFE9DF80000411CFFF7F0FFB9
S31508013F70D0B19DF80010FFF7E5FF9DF80010491D27
S31508013F80C9B24A1C00F00303012BD2B208D0032B95
S31508013F9002D1C91CC9B204E000F00300022800D10D
S31508013FA01146204607F01DFF16BD70B582B00446BE
S31508013FB000AA0A21FAF773FEC6B20A2E23D20FF215
S31508013FC0C400355CFFF7C1FFE8B1052E19DA0FF217
S31508013FD0C0019DF80000711811F8011C0918FFF7B6
S31508013FE0B0FF0646FFF7B1FF0021F20748BF0F21D0
S31508013FF0C6F341025118C6F302125118C9B208187C
S3150801400001D0012076BD002076BD38B50F4A0FF2E2
S315080140108403127804460020002A02D1012032BD09
S31508014020401CC0B2024613F8325045B1AC42F7D132
S31508014030084603EBC2014968884708B132BD002426
S3150801404021461E20F3F77DFF002032BDE7C0002080
S31508014050C8BD0020FF0204FF01010101080000009C
S31508014060FF06080402020204020A0B00FF212121AD
S3150801407021000C090202232316161C0022231B1BEE
S3150801408022230000FF0D0E0F110152060600000043
S315080140900B0C0D1001000000473D0108020000004D
S315080140A08F3D010803000000D93D01080400000006
S315080140B0753E010805000000EB3E010806000000F8
S315080140C0593F010807000000AB3F01080000000046
S315080140D00000000070B50446DFF82809DFF82869F2
S315080140E000680D46302101FB040000F060F804BFAA
S315080140F0B078002802D04B2100F0E2F9DFF80C096C
S3150801410035700470002070700220B07000F0CFFB8B
S3150801411018B90021BDE870406FE3681C3C21414392
S31508014120301DBDE87040F5F79CBF2DE9F041044606
S315080141303020DFF8D068DFF8D07800FB04F8306863
S3150801414040440D4600F033F804BFB878002802D081
S31508014150642100F0B5F9DFF8B4083D700470002059
S31508014160787000F0A4FBE0B1681C3C214143381D7E
S31508014170F5F777FF30681021404400F05EFC30689F
S31508014180FF2210214044F6F70FF90028F2D13168D1
S315080141904144052081F82C000120B87000F0DAFBB3
S315080141A018B10121BDE8F04127E3BDE8F08190F897
S315080141B02C0000F00300012870472DE9F04F8BB061
S315080141C080468A46F7F7A4F9DFF84458DFF83468D9
S315080141D02968405C06900022302000FB0AF9306805
S315080141E009EB000B07214046FAF759FD0746DFF8A8
S315080141F024080FF69C040078824503D3A0212046A3
S31508014200F2F7E2FB5846F4F7B3F93A46DFF808182D
S3150801421007A800F02CFC04AA0B214046FAF73FFD3B
S315080142209DF810000D2803DAB4212046F2F7CCFBDD
S315080142309DF81000DFF8E4B70D385FFA80FA0AEB4B
S315080142400B04002206214046FAF729FD6070A77083
S31508014250380AE0700822380C2071380E607130680F
S31508014260484400F11001A01DF2F7ACFC4046F7F7EF
S315080142704FF905A9039107A9029100210191524617
S315080142802968405C9DF8103000900BF10101FF2070
S3150801429000F069FC00F0DCF84046F7F739F9014609
S315080142A0002000900D235246601CF7F79AF90698EC
S315080142B09DF81010411A9DF81000584407AB0122C9
S315080142C0C9B2401C00F077FD06985844042205A996
S315080142D0401CF2F777FC0BB0BDE8F08F2DE9F047EB
S315080142E081460E463020DFF81C8700FB06F7D8F812
S315080142F000003D1890B0002207214846FAF7CFFC86
S315080143000446DFF810070FF2887A0078864203D34D
S31508014310FD215046F2F758FB2846F4F729F9D8F853
S315080143200000381800F11001224607A800F09FFB8B
S3150801433004AA0B214846FAF7B2FC0DF111020D2128
S315080143404846FAF7ACFC9DF810000D2804DA40F24D
S315080143501F115046F2F738FB9DF81000A0F10D0623
S31508014360F6B200279DF811003918C9B24846F7F781
S315080143702FFA06A978547F1C042FF3DBDFF8907611
S31508014380386819F80000011FC9B24846F7F71CF842
S315080143909DF8101007AA484600F0A6FC0025A919A1
S315080143A0C9B24846F7F714FA0BA968546D1C0D2DC6
S315080143B0F5DB002206214846FAF771FCC2B23146FE
S315080143C04846F7F70AFA711CE2B200F03DF82204F2
S315080143D0B11C00F038F82202F11C00F034F8311D46
S315080143E0220E00F031F801200090721D0823D2B286
S315080143F04946DFF82406F7F7F4F89DF8103005A8C2
S315080144000390324607A802900021002001903868DF
S3150801441019F800000090484600F0A5FB00F018F8CE
S31508014420012000900D23324649460BA8F7F7D9F823
S31508014430042206A905A8F2F70FFC401E8041C00F09
S3150801444010B0BDE8F087120EC9B24846F7F7C5B9EC
S3150801445007AB0022042105A800F0ADBC10B504463F
S3150801446000220621FAF71BFC400703D44FF4BC715E
S3150801447000F026F800F0B6F900F00300022811D181
S3150801448000F07BF8C0B2072818BF082803D1DFF867
S315080144907C05007810BD052810D1DFF8840590F851
S315080144A03E0010BD2046FDF7C8FCFF2806D0DFF800
S315080144B07415096801EB0010C07A10BDFF2010BD04
S315080144C00FF2CC50F2F780BADFF83C0500210171F2
S315080144D08078401E05280CD8DFE800F00304090699
S315080144E006090121C52003E00121C62000E0C020FC
S315080144F0F3E1704738B50446DFF810050578FF2D56
S3150801450003D12046FEF775FF0546FF2D34D000F08E
S3150801451069F9400703D440F2B311FFF7D1FF2946E1
S315080145202046FFF7DBFED0B100F027F8C5B22146D9
S315080145300720FFF76AFDF8B1052D04D12046BDE82D
S315080145403240FEF7C6BE072D03D12046BDE83240EC
S31508014550F7E0082D10D12046BDE832404FE1DFF8DB
S31508014560A8048078042808BF012102D0062803D1AF
S315080145700021BDE8344040E131BD00220A21204630
S31508014580FAF78DBB2DE9FF47804600AA0521FAF700
S3150801459086FB4046F6F712FF00F015F900AA0C2132
S315080145A04046FAF77CFB9DF80010481C8DF8000080
S315080145B04046F7F70DF9DFF85054A978022904BFE8
S315080145C06978884210D1DFF84474DFF838443978BD
S315080145D020684FF0300909FB010000F1100108229B
S315080145E002A8F2F739FB00286ED100269DF80000D3
S315080145F03118C9B24046F7F7EBF88246E878F1B2C6
S31508014600F7F7E6F880EA0A02E878F1B2F7F7E5F88B
S31508014610761C502EEADB68782978884252D12068C0
S315080146203B781022002109FB0300F2F70EFB4FF03D
S315080146300008002606EB0811E878C9B2F7F7C8F8AA
S315080146403978226809FB01F18A18B35C5840B054DD
S31508014650761C102EEEDB08F10108B8F1050FE8DB30
S3150801466022688918052081F82C00042101A800F088
S31508014670E4F9002601A8F1B2325CE878F7F7ADF85B
S31508014680761C042EF6DBDFF8A0030078C00705D4F4
S315080146902068397809FB0100C08B01E04FF6FF70ED
S315080146A0FBF771F96421281DF5F7DBFC0320A870D7
S315080146B001AA0021012000F02EF928B1002100F0FD
S315080146C03EF801E0401C6870BDE8FF87F8B500F0C8
S315080146D076F8012831D159BB68782978884206D1FC
S315080146E06421281DF5F7BDFC0420A870F1BD401C06
S315080146F0687000F0C5F89DF80000401C8DF80000B0
S3150801470000262046F6F704FF9DF800107118C9B275
S31508014710F7F75EF80746E8783146F7F759F880EA79
S315080147200702E8783146F7F758F8761C502EE8DB89
S3150801473000F010F908B100F001F8F1BD0121C62019
S31508014740CBE0F0B500F03BF8042885B035D1F6F793
S31508014750AFF8002831D100AA052100F093F82046C8
S31508014760F6F72CFE00F02FF800F08AF800F032F880
S3150801477006462046FAF781FB00F087F802A8F2F709
S315080147806BFAC0B900F02EF8400714D5002E04BF05
S315080147907FB2042F0FD100F01DF801A97054761CC1
S315080147A0042EF8DB01AA0021002000F0B4F810B9A4
S315080147B00520A87001E0FFF7C1FF05B0F0BD924DD5
S315080147C00446A87870479DF800100918082202A81F
S315080147D0F2F7F8B99DF80010481C8DF8000020463C
S315080147E0F6F7F6BF002206212046FAF758BA19B994
S315080147F085490620887070470021C6206DE0FEB500
S31508014800FFF7DDFF06283AD100AA052100F03AF89C
S315080148102046F6F7D3FD9DF800100918082201A8CD
S31508014820F2F7D0F900F02CF8FFF7D4FF0646204638
S31508014830FAF723FB00F029F801A8F2F70DFAD0B927
S31508014840FFF7D0FF400716D5002E04BFFFB2042F8D
S3150801485011D1E8783146F6F7BBFF9DF800100746F7
S31508014860FFF7BAFF874206D1761CF6B2042EF0DBB3
S315080148700021002001E00021C62000F02EF8F7BD36
S3150801488000AA0C212046FAF70ABA871E5D485F4935
S3150801489000680978302303FB010000F110010822A2
S315080148A0704700290CBF0020C620012115E038B544
S315080148B050210020F6F779FE534CE070FF2801D10C
S315080148C0002032BD0025E07800222946F6F785FF4B
S315080148D06D1C502DF7DB012032BD38B504460D4657
S315080148E049484A4A002181700171FF21C078117037
S315080148F0FF2818BFF6F7D6FD25B12046BDE8324098
S31508014900FEF748BD49480088FBF73DF82046BDE853
S315080149103240FEF711BD30B53A4B3C4C1B68247842
S31508014920302583B005FB04340423019300920B461A
S3150801493094F82D2004F11001FFF7F1F8044600F070
S3150801494077F805462046F6F7ADFD0DB100203EBDC8
S3150801495001203EBD2DE9F0432B4C607821782B4D83
S31508014960DFF8A080884295B04FF0300928D1402160
S3150801497000A800F062F8002000AE00A94118825D87
S315080149800B7C2F785A4091F820305A4091F83030F4
S315080149905A40D8F8003009FB0733C35C5A40401C1B
S315080149A0102881F84020E8DB0027E078F9B2F6F70D
S315080149B00FFFB95D4840B8557F1C502FF5DB03E062
S315080149C0502100A800F039F8D8F800002978627853
S315080149D009FB010000AB90F82D101030FFF746F8DF
S315080149E00446FF2C08BF182009D000F021F8054617
S315080149F02046F6F757FD002D14BF0020012015B0FB
S31508014A00BDE8F08310BE002080FF0020F6C000201C
S31508014A10C8BD002014BE00206CFB0020A4FD0020A8
S31508014A20F8FC002018BE0020C2C00020C6C0002025
