:020000040800F2
:100000000004002079000008850000088500000831
:10001000A70B090100000000040150540040000833
:1000200004100000BB0B00087D0E0008DC06000871
:1000300000000000000000000000000000000000C0
:100040000000000000000000000000005604000056
:10005000FFFFFFFF06480068202100EA010028B1E9
:100060000448016842685FEA010D104770470000CC
:100070002C00004000400008FFF7ECFF00F00EF8F5
:1000800000F042F806E000005FEA000D70474548C6
:10009000008870474FF4017000F09EB838B54FF2F9
:1000A0000F04414D00F0C6F828B140F20520288029
:1000B0006C80012032BD3D480068C00615D56888B7
:1000C000A0421ED1288840F2022188421CBF40F283
:1000D0000621884215D040F2011188421EBFB0F5BA
:1000E0008A7F40F2111188420BD0314C208A40F6B1
:1000F000A721884205D12068FFF7C6FF60688047C6
:1001000000BF002032BD000038B50400294872B697
:10011000016849084900016000F0ECF823480068D4
:10012000000910F001000CBF2349244902E0CD2250
:1001300001F8012B224A9142F9D32249224A234B4A
:1001400003E011F8015B02F8015B9A42F9D3204900
:10015000204A002301E001F8013B9142FBD3124AFF
:1001600053884FF20F05AB4240F205210AD11388A4
:100170008B4205D030B1180A012818BF022801D1DE
:10018000194601E004B90021064801804CF23C30D8
:10019000508000F0DFF94FF40170BDE8324000F00C
:1001A0001BB80000840D0020000000202C0000403F
:1001B00000400008FCED00E0000000209800002056
:1001C0000004002030140008000400200404002073
:1001D00004040020970D00200E4A302111600E4AC1
:1001E00011600E4A116010210D4A1160010A0029A8
:1001F0000C4908BF000208804FF20F004880BFF38F
:100200005F8F094800210160416008480849086083
:10021000704700003020004030C8004030C000402F
:1002200010E00040000000201C4000400400FA05DF
:100230000CED00E010B5002408210E2000F074FA47
:100240002948402181600A2100BF491EFCD1C821F4
:100250000268520601D4012401E0491EF8D10421AC
:100260000E2000F061FA204610BD80B500F04FFA74
:100270000121062000F058FA062000F08BFA012137
:10028000072000F051FA072000F078FA17480168BB
:1002900021F01001016001BD052800D9704710B59B
:1002A000DFE800F01721030F1C17114C2088411EB6
:1002B0002180C0B9072000F079FA42F21070208046
:1002C00010BD072000F066FABDE81040062000F0DF
:1002D0006DBABDE81040062000F050BABDE81040ED
:1002E000062000F057BA10BD08B2004000BC004024
:1002F000900D0020794951200860704738B50546B7
:1003000000F0F8F97649B0FBF1F44FF4F070B0FB6F
:10031000F4F02D1A1E2DBCBF4FF40170FFF75CFFE7
:100320007048714A072101600021416081604FF0EF
:100330000071116005FB04F1C91C8908491E416068
:1003400031BD6A4A01215170D8E76A48016841F01D
:10035000010101600121416051206049086070473E
:10036000002070472DE9F047814661485F4E0568DF
:1003700040F2DC58012DC2465A485F4F5F4C1BDAF1
:100380000221618039600068C00348BF00F08DF829
:10039000B86900F0030003285FD0002D03D5B869C9
:1003A00040F00200B8614846FFF7DAFF5FEA000A52
:1003B0001AD1002D51D54EE061884FF6FF75A94244
:1003C0001DD14F48018802237F22A01C00F004FAAF
:1003D0006088A84204BF02206080B869800703D407
:1003E000B86940F00200B8610120B07060883860E0
:1003F0000FFA8AF0FFF7A5FF5046BDE8F087B9690C
:100400008907EDD50068C00348BF00F04EF8B0780A
:1004100008B14046F1E7B868B968628810F0010099
:1004200003D10F2A08D2521C06E0890704D521788F
:1004300011B1032AA8BFAA1892B2022A2070B8BF2D
:1004400002226280386861888842CDD1B86900F0A4
:100450000300032801D0FFF778FF0020CDE710B597
:1004600004462848017869B9C078072818BF0928C8
:1004700013D0032818BF11280FD013281CBF15282C
:100480000B280AD02048016841F48071016004E023
:1004900000F0D6F90620FFF763FF2046FFF762FF62
:1004A0000028F5D110BD0220D9E70E480E4A0021E0
:1004B00041608160016821F00201016000210B4868
:1004C00041704FF000711160817801B9704780B5BB
:1004D000002181700620FFF743FF01BD008000402E
:1004E00090D0030010E000E004ED00E0920D002049
:1004F000241400081C400040044000400004002078
:100500002C1400089607080838400040007870470F
:1005100030B5DBB00446214636A800F0B1F9002022
:1005200000904FF40263584A36A901A800F045FB39
:100530000FF29C120FF2A41001A900F09FFC0546D7
:1005400000F0EEF81DB12146284600F0E1F92846FA
:100550005BB030BD80B5FFF7A6FFFFF798FDB0F5A3
:100560008A7F09D100F0AAFC00F0BCFC0028FBD077
:1005700040F21110FFF730FEFFF777FE00F09EFC0F
:1005800000F0CEF800F0CAFC0020FFF785FE07E07F
:100590001A2000F0B6FA01220021522000F023F8C0
:1005A00000F0BEF80220FFF777FE00A800F088FCFC
:1005B0000028F5D19DF800005128E9D033490020EA
:1005C00008700120FFF7A4FF20B90520FFF764FEA3
:1005D000012000E00420FFF75FFE40F20120FFF75A
:1005E000FBFD002002BDF8B506460F461546284C17
:1005F0000FF2B4011D22204600F091FC0A2204F102
:100600003401201D00F08BFC2248018808237F2242
:1006100004F10E0000F0E0F8522EA6761BD1352032
:10062000207006220FF2A00104F12E0000F077FCEA
:100630000120E0760223184801887F2204F11C0083
:1006400000F0CAF81548018810237F2204F11E002B
:1006500000F0C2F802E01D202070E776012D12D1D3
:100660002078A0F11B05012000F000FD0C48FD21C1
:1006700001704570EAB204F11A01801C00F04FFCD1
:10068000084901200870F1BD640500208F0D00208D
:10069000240500202E1400082A140008281400083D
:1006A000940400208E0D00200063CC00FFFF0000AA
:1006B000000000000000FFFFFFFFFFFFFFFF7C6561
:1006C0006D01000000000000000410005450000004
:1006D0009B130008D71300080D050008910A0008B5
:1006E000C90A000819480068C00701D418487047B3
:1006F0001848704780B5FFF7F5FF1749096801B939
:10070000400802BD80B5FFF7EDFF400802BD134869
:10071000012181604EF6BE214160012101607047D8
:100720000F4901200860704710B50FF238028308A6
:1007300052F82320136800F0030080000F24844047
:10074000A34301FA00F01843106010BD1C400040A4
:10075000001BB70000366E012040004000600040E2
:100760000860004000B0004004B0004000B200400B
:1007700004B2004000B4004004B40040C1080329A2
:1007800007DA012100F007029140C00840020F4A39
:1007900011507047C108032907DA012100F0070250
:1007A0009140C00840020A4A11507047C10803290D
:1007B0000ADA084A02EB412101230A6800F0070027
:1007C00003FA00F0504008607047000014B0004089
:1007D00010B000400CB0004030B5044610467F28F1
:1007E00008BF0020B1F5004F83B01AD108237F2243
:1007F00040F6120100A8FFF7EFFF08220FF23801C0
:1008000000A800F0A5FB30B908237F2240F2A271B6
:1008100000A8FFF7E1FF082200A9204600F07FFBB7
:1008200037BD044D294300FB03111A46204600F052
:1008300076FB37BD00000808FFFFFFFFFFFFFFFF4B
:1008400070B50D4C25680646FFF75CFF0B49B0FB01
:10085000F1F070432F303021B0FBF1F0032809D3C1
:10086000616D41F0010161652168491B0903090BB4
:100870008142F9D370BD00003820004090D00300C1
:10088000017001224270012982700CBF8021402139
:1008900081800021C1800181A84801600E21816210
:1008A000016821F01001016000214163416270473D
:1008B000F8B50D460446A249A04F4FF0FF3008603E
:1008C0001646FE6200207862386840F00100386009
:1008D000FFF726FF012C19D16DB900F003FB78B9A1
:1008E000786AB042F4D3002EF2D038684008400055
:1008F00038601620F2BD284600F0E2FA0028EFD159
:1009000038684008400038600020F2BD0120F2BD88
:1009100080B50A4601461820FFF765FE012000F069
:10092000A5FBBDE80140EFE038B50446002020817A
:100930004AF6B432207800A9FFF7BAFF08B11C20AC
:1009400032BD9DF80000032818BF182801D11820D7
:1009500032BD042801D1172032BD012801D0212049
:1009600032BD002500E06D1CA188EDB2091D8D424D
:100970000BDA281900F10A01207840F2DD22FFF796
:1009800097FF0028EFD0262032BD0025002006E08A
:100990000146EDB22819007B00F0CCFC6D1CA1884B
:1009A000EAB28A42F4D3A27AE37A9B18FF2B01D0F1
:1009B000222032BD0B191D7BB5EB102F01D0232057
:1009C00032BD5B7BC0B2834201D0242032BDA0780F
:1009D000824207D0401EC0B2824201D1272032BDE0
:1009E000252032BD881C20810220E080002032BDFD
:1009F00038B504466078012804D00ED3032845D0CA
:100A000003D30AE0022060700FE000F087FA00F0E4
:100A100065F8A078401CA07007E0182032BDA078CF
:100A20002278411EC9B200F05BF82046FFF77CFF38
:100A300005462078012804BF284600F062F80DB171
:100A400000F06CFA272DEAD0A8060BD52278A17801
:100A50001520FFF7C8FD002DE7D10320FFF71CFC90
:100A6000002032BD680603D4182D18BF1C2D07D1F5
:100A700021782846FFF74CFF04206070284632BDDD
:100A8000172DE8D100F02AF803206070172032BD3E
:100A9000F8B504460D461646002706E0E088411CDE
:100AA0000019E180807A78557F1CBFB2B74209D225
:100AB000E08821898842F1D32046FFF799FF00287A
:100AC000ECD0F2BD0020F2BD10B50446FFF790FF58
:100AD00000F004F800F018F8172010BD2278A17873
:100AE0000620FFF780BD80B51649FD220A70887088
:100AF00001224A70012000F0CFFB1349002008704A
:100B000001BD00B91920EEE710B582B00F4C207876
:100B100060B1002000F0C0FB0028F8D0002000F0F9
:100B2000A5FA012000F0B8FB0020207040F2DD2281
:100B300000A90120FFF7BCFE13BD000000F000403B
:100B400000A80040940400208D0D00208E0D002090
:100B5000F8B504460D4616461F4607E03046A04746
:100B6000294600F0F9FB05467F1E761CBFB2002F18
:100B7000F4D12846F2BD38B50C46154605E00146CD
:100B800014F8010B00F0E8FB6D1EADB2002DF6D19C
:100B900032BDF8B504460D461F4616462868236840
:100BA0003A4631469847040005D1E8683A4631464E
:100BB000FFF7E1FFE8602046F2BD10B5029C8472A9
:100BC0000381426001604FF0FF31C1600021017478
:100BD00010BD2DE9F84F8946044699F81BB0D0683E
:100BE000A249BBF1800FA8BF4FF0800B88421E4680
:100BF00051D1002E4DD0B06800904FF0FF38002545
:100C000009EB450A9AF848700DE0FFF789FDF802F4
:100C100040F0006200984FF400634146FFF798FFF0
:100C20008046781CC7B20AF148004078B84204DA1E
:100C3000681CC5B2062D02DAE2E7FF2FE5D1D9F82C
:100C400044006FEA0801884225D1A068736800BAA1
:100C50004FEA5B0249469847C8B9E06805BAA06800
:100C600002BAB0685B464FF0FF31FFF771FFC04337
:100C700085420CD140F6A720A9F810000122A068F7
:100C8000736800BA09F110011030984708B142208A
:100C900002E0172000E04320BDE8F28F2DE9F04F7D
:100CA0000D4683B08046D5F804A02889ADF804002D
:100CB000914605F1140606F11007042352464046FA
:100CC000FFF767FF002870D1BAF8000040BA80B281
:100CD0000090BAF8020040BA84B2E00748BF46204C
:100CE00063D4B4F5026FC8BF4E205EDC002C5BD02D
:100CF0000098DFF87CB148B14FF60441401A00F08B
:100D00009C80FF3853D0FE3851D0ACE0287C08B12D
:100D100051204AE08D2C28BF4F2046D22346321D59
:100D200000F0A9F8002840D1FA7E802AA8BF8022CE
:100D300002F10C00844201BFB08840BA00F47F4049
:100D4000B0F5007F2CD1F08840BA4EF25031884285
:100D500002BF388A40F6A721884221D1788A00F460
:100D60007F40B0F5807F01BFB06800BADBF81C108F
:100D7000884215D14FF6FF70388206F110014FF00E
:100D8000FF30FFF7F8FEF16809BAC943884204BF93
:100D9000387E042804D1787E102818BF062801D098
:100DA000452002E0012028740020BDE8FE8F287C49
:100DB000002844D0042300F05DF80028F5D1DAF8CB
:100DC000000006BA201F84B2DBF81C00864238BF40
:100DD0004820EAD3796DA019884228BF4920E4D27F
:100DE00000984FF6035188420DD1B9F1000F0AD097
:100DF000D9F8002031460220904720B14A20D4E79C
:100E0000E01B84B2BE19002CCED0BDF80400844291
:100E1000B4BF274607463B4600F02CF80028C4D153
:100E2000B9F1000FECD0D9F804307A0851463046B9
:100E300098470028E4D04B20B7E7287C08B9412028
:100E4000B3E7042C18BF4C20AFD16A68042300F02C
:100E500012F80028A9D14B462A463946304603B03D
:100E6000BDE8F04FB5E644209FE70000E320BBDE7D
:100E7000000000085246294640468AE670B50D46F5
:100E800004462889C107164601D4802803DA4F207A
:100E900070BDA87A78B9324629462046FFF7FEFE93
:100EA0000028F6D0172807D12868616888471728D6
:100EB00002D1002070BD502070BD000000F091B83C
:100EC00010B5044600F00EF850B11248124982786D
:100ED0005118897821708178491C8170002010BDDB
:100EE000012010BD10B50B4C207888B900F0D4F962
:100EF00078B1607840B1002000F0B8F8012000F02F
:100F0000CBF90020607010BD012020700020A0707F
:100F1000012010BD8D0D0020040400207047814287
:100F200012D210185118401E491E92B2002A1EBF3C
:100F300011F8013900F80139521EF6D1704711F845
:100F4000013B00F8013B521E92B2002AF7D17047D4
:100F500010B500E0521E92B222B100F005F8F9D0AF
:100F6000181B10BD002010BD10F8013B11F8014BFB
:100F7000A3427047DFF8780300214171817110228C
:100F8000DFF87003016C490849000164016C21F429
:100F900000710164DFF860130A6320220A630022F3
:100FA0004A650A664A668A6502224A65DFF84C236A
:100FB0000A608D324A60D24A0A618D324A61D14A52
:100FC0001268120709D5026C42F001020264026C39
:100FD00042F40072026401220A634FF6FF7101605D
:100FE000704738B5C248002181700121C17001717C
:100FF0000021017009214170FFF7BCFF48F29441C4
:10100000C148C24D01604FF4005308210161002224
:10101000BF48C04903600A65BF4A546824F470643D
:1010200044F4006454604024146102240C60BB4CFE
:10103000236040230B65136823F4704343F480431B
:1010400013604FF48043036000204865032028604C
:101050000420086023602020486504201061106887
:1010600020F4706040F48070106031BD58B1AC481D
:101070000168490605D5A3490968090744BF042149
:10108000C160002000E001209949C870704798496C
:101090000A7922B90870012200200A71487070474D
:1010A00010B504460620FFF769FB9E491020086032
:1010B0000620FFF76FFB91484078A72807BF9048AC
:1010C00004700320FFF7E3FFBDE810400120E3E0D8
:1010D0002DE9F843864D924C2A798A4922B10A6853
:1010E000120744BF0422E260AA7892B10420E060B3
:1010F00020684006FCD50420A0600020A870E87895
:1011000020B93220FFF79CFB0420E0600020BDE8FE
:10111000F28300281CBF68790028764E824FDFF8E2
:10112000E0813ED00620FFF729FB287930B100206E
:101130002871022229464046FFF7F1FEE87808B1FF
:101140000420A06098F80000052804DAA72088F899
:101150000200032010E0FE2818BFFD2808D198F8EF
:1011600001104144A720887098F80100C01C03E0DA
:10117000A72088F801000220A871A8794044401EE9
:101180003860FF20B862012030600420F861306CC4
:1011900040F0010030640420E0600620FFF7FAFA16
:1011A000B4E7B869C0074FF4007914D408680007A1
:1011B00011D500F06AF800F068F801203060C6F838
:1011C0000090306C40F001003064306C40F40070EE
:1011D00030640120F861F86810B93068800595D551
:1011E000012068710420A060444C306880051FD441
:1011F000F86802288AD320780A2806D00B2808D05D
:10120000FD2818BFFE2806D080E78220FFF748FFA0
:101210007CE7C120FAE76078862805DBFFF7AAFEA5
:101220000120FFF734FF71E7F968C01C8142FAD34F
:101230000620FFF7A3FA306C400840003064306CA1
:1012400020F4007030641020F861C6F80090062089
:10125000FFF7A0FA287918B1012000F01DF855E732
:10126000607800198078A72803D00320FFF70FFFCC
:10127000F2E72078FE2803D10420FFF708FFEBE710
:10128000FD2088F80000012041E7B86A8DF80000D1
:10129000B86A8DF80000704770B504461548144DC3
:1012A0000168224EC90703D504213160012169710B
:1012B0008168890703D5022181600121A9708168B5
:1012C000490710D504218160316019480068A97967
:1012D00088421CBF0220FFF7DAFEFFF74BFEE878DA
:1012E00008B9042070602046BDE87040F0E60000B8
:1012F000860D00200CA8004000C00040040400201F
:101300009404002008B0004000B0004020BC004021
:1013100080E100E014A8004000B2004080E200E05C
:1013200008B2004030C0004014C0004010B200407D
:1013300028C000400A0242EA11214840C0F30311CC
:10134000484080EA003041010206C9B2D20E41EAAB
:101350000221484080B270470A0A4840C0B20821C2
:101360004308C00746BF034858401846491EF7D1F6
:10137000504070472083B8ED2748018A40F6A77295
:10138000914202BF408A4FF47F41084203D10228B4
:1013900001DB0120704700207047F8B504461D4E60
:1013A00001200D463070FFF7E7FF18B94FF40170C8
:1013B000FEF712FF29461848876A44F48070B84740
:1013C000002131700FF2540618B9294644F4007018
:1013D000B847805DF2BD2DE9F041044688465600CD
:1013E000FFF7CAFF18B94FF40170FEF7F5FE0A487F
:1013F000476A0023324641462046B8470FF21C0593
:1014000020B93346002241462046B847405DBDE83A
:10141000F0810000960D0020000008080002020282
:101420004B4B464700366E012A083A08EE0800800A
:101430000100FFFFFFFFFFFFFFFFFFFFFFFFFFFFB9
:10144000FFFFFFFFFFFFFFFFFFFFFFFFFFFFFFFFAC
:10145000FFFFFFFFFFFFFFFFFFFFFFFFFFFFFFFF9C
:10146000FFFFFFFFFFFFFFFFFFFFFFFFFFFFFFFF8C
:10147000FFFFFFFFFFFFFFFFFFFFFFFFFFFFFFFF7C
:10400000A0F20020F52902086529020869290208A2
:10401000A70A080100410008041003AC50545604DC
:10402000F0441157000000000000000000000000F4
:104030000000000000000000000000000000000080
:1040400000000000EFEFD3DC084AFFFFFFFFFFFF97
:10405000FFFFFFFF007007080000000000000000E5
:1040600066B6AAD2BD5B0FFFFFFFFFFFFFFFFFFF9A
:10407000FFFFFFFFFFFFFFFFFFFFFFFFFFFFFFFF50
:10408000F0FF002000000000EFFF0020EFFF002005
:10409000A0F200202C560208A04F020840E90020A0
:1040A000F80D00200000080800000120FFFFFFFFBE
:1040B000FFFFFFFFFFFFFFFFFFFFFFFFFFFFFFFF10
:1040C000FFFFFFFFFFFFFFFFFFFFFFFFFFFFFFFF00
:1040D000FFFFFFFFFFFFFFFFFFFFFFFFFFFFFFFFF0
:1040E000FFFFFFFFFFFFFFFFFFFFFFFFFFFFFFFFE0
:1040F000FFFFFFFFFFFFFFFFFFFFFFFFFFFFFFFFD0
:10410000A0F20020F52902086529020869290208A1
:10411000712902086D29020875290208F029020890
:10412000F0290208F0290208F0290208F029020803
:1041300079290208F0290208F0290208AD7B00085D
:10414000F0290208F0290208C7620008F0290208D5
:104150003BC70008F02902086BAB0008F0290208F1
:10416000B39D0008F9700008D56B00089DAC0008ED
:10417000F029020807AC000815AC0008CF8200083F
:1041800015B70008F0290208F0290208F1290208F1
:1041900010B501F007010368012405E010B501F036
:1041A0000301890003680F2400F05DF8016010BD71
:1041B00070B500F0DBF8044600F0D8F8054600F0D2
:1041C000D5F800F00106182C05F00F05A8BF362021
:1041D0003BDA00F09FF810F0010018BF382034D10E
:1041E000E00803D0022809D004D30CE0324621466F
:1041F0004F4806E0324621464E4802E0324621460C
:104200004D48FFF7C5FFA00805281DD8DFE800F0DE
:1042100003070B0F13172A462146484812E02A4687
:10422000214647480EE02A46214646480AE02A46EB
:104230002146454806E02A462146444802E02A46EF
:1042400021464348FFF7AAFF0020BDE8704000F078
:1042500094B810B501F00301890003880F2400F021
:1042600002F8018010BD8C40A34302FA01F119430A
:10427000704710B501F0070103780124FFF7F3FF41
:10428000017010BD2DE9F84300F070F8044600F00D
:104290006DF8054600F06AF8064600F067F8074634
:1042A00000F064F805F00F0806F0010500F00109C0
:1042B000182C07F00F06A8BF362023DA00F02AF8E2
:1042C00010F0010018BF38201CD1600804EB90707A
:1042D00087082048424600F019F81F48324600F08F
:1042E00015F8A00804EB5070C6081C482A46214661
:1042F0003018FFF7BEFF1A484A4621463018FFF72C
:10430000B8FF0020BDE8F24300F037B8214600EBCB
:1043100047009EE745F20F400021224600F0EEB92B
:1043200080B500F04EF80F4908400F49086001BD04
:104330000CB000400CB200400CB4004000B0004093
:1043400004B0004000B2004004B2004000B400409D
:1043500004B4004098F30020ACF3002088F3002060
:1043600090F30020F0ABFF00C0F300202848016864
:10437000491C016011F8010D70472649264B0A6857
:104380001B68D31A852BB8BF10700868401C0860E2
:10439000704710B50446C0B2FFF7EFFF200A66E091
:1043A00010B5FFF7E3FF0446FFF7E0FF04EB002042
:1043B00080B210BD10B5044680B2FFF7EAFF200CB2
:1043C000BDE010B5FFF7ECFF00F06BF804EB004028
:1043D00010BD38B50F4C104A2368126805469A1A6A
:1043E000AA18862A03DA0246184600F096F92068D1
:1043F0002818206031BD38B50446054D08462968A7
:10440000224600F08AF928682018286031BD000093
:10441000C0F70020C4F70020B4F9002070B50446AE
:104420000D46002604E0FFF7BBFF25F81600761CBA
:10443000F6B2A642F7D370BD10B50446214600F08F
:104440007CF8FFF7ADFF2081FFF790FFA072FFF728
:104450008DFFE072FFF78AFF2073FFF7A1FFE08175
:10446000FFF784FF2074FFF7ACFF606110BDBDE86B
:10447000104082E710B500F014F82080FFF790FF9D
:104480006080FFF773FF2071FFF770FF6071FFF727
:1044900087FFE080FFF784FF2081FFF767FFA072AE
:1044A00010BD04467CE710B50446FFF75FFFA0701F
:1044B000FFF776FF2080211D00F03FF8FFF756FF41
:1044C000E070FFF753FF2073FFF750FF607310BDDC
:1044D00010B500F0DDF82069BDE810406AE710B5BE
:1044E00000F007F9FFF76DFF206110BD10B5FFF771
:1044F000D8FF208010BD20793FE710B50446FFF7B4
:10450000D2FF04F1100000F01DF804F11C0100F0CE
:1045100014F8FFF745FFA0842434FFF741FF6080C3
:10452000FFF724FF2071FFF721FF6071FFF71EFFE7
:10453000A071FFF71BFFE07110BD08205BE7BDE82D
:10454000104026E710B50446FFF73BFF2060FFF759
:1045500038FF6060FFF724FF208110BD10B500F028
:1045600011F8A088FFF715FFE088FFF712FF2089F8
:10457000FFF70FFF6089FFF70CFFA089FFF709FF26
:10458000A07B74E70446206814E710B50446FFF7E3
:1045900018FF2060FFF704FFA080FFF701FFE08015
:1045A000FFF7FEFE2081FFF7FBFE6081FFF7F8FEBC
:1045B000A081FFF7DBFEA07310BD10B5FFF7E2FF8F
:1045C000FFF799FF611D1020FFF703FF04F11501AC
:1045D000BDE810401020FCE610B5FFF762FF208018
:1045E000A11C23E010B504462078FFF7C6FE611C2D
:1045F0000F20FFF7EEFE04F110010320FFF7E9FEA4
:1046000004F11301BDE810400720E2E610B50446AE
:10461000FFF7ACFE2070611C0F20FFF7ECFE04F1E9
:1046200010010320FFF7E7FE04F11301BDE810407D
:104630000720E0E638B500F02BF804F1100108205F
:10464000FFF7C7FEA069FFF7B5FE04F11805A888BB
:10465000FFF79FFEE888FFF79CFE2889FFF799FE89
:104660006889FFF796FE04F124010720FFF7B1FEE9
:10467000E87CFFF782FE287DFFF77FFE687DFFF76D
:104680007CFEA87DFFF779FEE87DBDE8324074E648
:104690000446214610209CE638B500F02AF804F1C3
:1046A0001001FFF74AFFFFF78CFEA06104F1180527
:1046B000FFF776FEA880FFF773FEE880FFF770FE35
:1046C0002881FFF76DFE688104F124010720FFF7C0
:1046D00092FEFFF74BFEE874FFF748FE2875FFF7E0
:1046E00045FE6875FFF742FEA875FFF73FFEE875C7
:1046F00031BD0446214610207DE60000D2B2203AAA
:1047000022BF21FA02F0002170472032D141D0406F
:1047100048409140D14048407047814233D2101800
:104720005118401E491E10E011F8013900F80139F6
:10473000121F11F8013900F8013911F8013900F898
:10474000013911F8013900F8013992B2042AEBDA83
:1047500092B2002A1EBF11F8013900F80139521E29
:10476000F6D1704711F8013B00F8013B121F11F818
:10477000013B00F8013B11F8013B00F8013B11F847
:10478000013B00F8013B92B2042AEBDA92B2002A14
:104790001EBF11F8013B00F8013B521EF6D17047D5
:1047A000130003D00A46194600F020B8704710B530
:1047B00000E0521E92B222B100F012F8F9D0181B9C
:1047C00010BD002010BD10B500E0521E92B22AB1FB
:1047D00000F006F8F9D0181B40B210BD002010BD43
:1047E00010F8013B11F8014BA342704762F30F220E
:1047F00062F31F42401810F0030308D0C91A1FD3F8
:10480000DB0748BF00F8012D28BF20F8022D130058
:1048100030B414461546103928BF20E93C00FAD8B8
:10482000490728BF20E90C0048BF40F8042D890043
:1048300028BF20F8022D48BF00F8012D30BC70477A
:10484000C91818BF00F8012DCB0728BF00F8012DAB
:104850007047000080B500F002F8212002BD042856
:1048600006DA0FF21001415C481E8041C00F70470C
:10487000012070470000000070477047002070471B
:1048800000F00CBA70B5044643380FF2800508D02A
:10489000401E012809D9801E01280ED9C01F32D020
:1048A0002AE0BDE8704001F0D8BB002600E00126F8
:1048B00001F0D3FB0028FAD12EBB134E307810BB89
:1048C00001203070002001F00FFC452C11D00BD3DB
:1048D000472C01D003D307E040F6010001E040F689
:1048E000020001F0CFFC04E040F21631284601F04E
:1048F0008BFD0020307070BD2846BDE870404FF43D
:104900004A7101F081BD70BDACFF0020656D62652C
:10491000722D636F6E66696775726174696F6E2E52
:1049200063000000DFF8E03433F810001040C840A6
:10493000704730B50FF29054DFF8D03434F810409F
:104940009C601140DFF8C04434F81050954329436F
:10495000D96002221A6000221A6024F810105868E8
:104960000028FCD130BDDFF8A824DFF8A8041278B5
:10497000DFF8A4140AB149780EE0895611F1090F45
:10498000B8BF302108DBC16D39B1C26D40F24A3188
:10499000B1FBF2F189B2C91E01607047E0B5DFF8E2
:1049A0007C0401880A2300F064F8BDF806104FF675
:1049B000FF720D20FFF7BDFF07BDF8B50546B5F541
:1049C000004FDFF8544419D1DFF854040188022362
:1049D00000F04FF8BDF80000000AFF2814BF0028BF
:1049E00018206070BDF800000006C00E10281CBF23
:1049F000001D00F098F9BDF80000C543DFF8106411
:104A0000707808B1002005E0A089ADB26840C00709
:104A100001D501207070DFF80C04A58105F00104B8
:104A2000016841F400410160C5F340070FF2BC404A
:104A300000EB44004FF440524078010389B2022059
:104A4000FFF777FF204601F0CBFD4022B90100F0CF
:104A500005FA2D06A80E00F0010038433070FFF76C
:104A600082FF707818B1FFF799FF00207070002066
:104A7000F2BD7F2200A801F029BE2DE9F04FDFF83A
:104A8000AC43207887B0042304900B210B38C0B2CC
:104A9000039000A8039A01F0D7FE9DF800008DF85E
:104AA0000A009DF801008DF809009DF802008DF8BC
:104AB00008009DF803008DF80500DFF87403007806
:104AC000012804D16078451EAD41ED0F00E00125BD
:104AD00002F04BF983469DF902000399D24F0BF186
:104AE0000A0AABF10A065045B6BF86424FF00108EC
:104AF0004FF0000801208840ADF806009DF8010045
:104B0000000604D47888BDF80610084201D04FF0A2
:104B1000010802F0B1F99DF8030000060AD4B88834
:104B2000BDF80610084205D19DF900005045B8BFF8
:104B3000864202DB4FF0010901E04FF0000948EA2C
:104B4000050059EA000000F09E80DFF8E8A2BA49AB
:104B5000DAF8000000F002008DF80400B7480068A1
:104B600000F4E06005904FF4E0600860002002F07F
:104B700095FD03F0A0F8B24EADB1607858B1DAF807
:104B80000000AB4940084000CAF80000012008704E
:104B900003F076F907E0306840F400503060306888
:104BA00020F480503060A248007801280DD103F035
:104BB0002FFBDAF800009E4940F00100CAF800001F
:104BC00000200870642003F05BF92DB1607818B9FB
:104BD0000498C0B203F031FC607838B1306820F43A
:104BE00080503060306840F400503060BDF80600FE
:104BF000C543B8F1000F08D003F00AFD8DF801009D
:104C00008DF802B0788828407880B9F1000F08D07C
:104C100003F0AFFD8DF803008DF800B0B888284090
:104C2000B8809DF900009DF90A10884202BF9DF8E6
:104C300001009DF8091088420BD19DF902009DF9F1
:104C40000810884202BF9DF803009DF805108842B5
:104C500006D00399042300AAC9B20B2001F01AFE62
:104C600005987649086001F04DFE9DF8040002F0B9
:104C700015FD03F09EFE607828B148F26070306048
:104C8000642003F0FDF89DF8010003F02DFC9DF871
:104C9000030003F069FD07B0BDE8F08F80B502F0B6
:104CA00057F8BDE80140E8E602F052B870B5064694
:104CB000A6F10B0402F00AFC0546A6F10B00102831
:104CC00001D38A2070BD5F488168090702D400685B
:104CD000C00701D58C2070BD544806705A48016841
:104CE0000C290FD00FF27811584A92F90020A4B283
:104CF00031F824105118C161FFF7BFFE012D08BF24
:104D000002F085FB002070BD10B5044602F020F8CB
:104D10002046BDE81040C9E74448007870473E4847
:104D200090F9000070472DE9F041044614F12B0F73
:104D300086B045DB464801881423FFF79AFEBDF88C
:104D400010004FF6FF71884203D0400448BF01268F
:104D500006D43F2200211020FFF7E4FD054600267F
:104D600004F12B022F2A2C483A491AD213220FF2AF
:104D7000301300E0521ED2B213F91270BC42F9DBBC
:104D800003EB4204032764780C60002413F812102C
:104D9000017000208046AEB1BDF810104FF6BF7212
:104DA00029E0092C0CDA225C0A60047014232A48DA
:104DB0000188FFF75EFE01240320A0462827EAE7CA
:104DC0008B201DE0C1024FF4605200F047F84FF411
:104DD000E062210200F042F880224FEAC81100F0A0
:104DE0003DF885F020003D18ADB2402DA8BF3F250D
:104DF0003F2285F0200100F031F8FFF7B4FD0020DC
:104E000006B0BDE8F0810000C8F70020E8100040BF
:104E1000B2FF002064100040C8F30020F4530208E1
:104E2000085402081C10004012F50020C4F30020B2
:104E300012F400208020004080E100E000E100E06A
:104E4000D010004060200040AC100040B1FF0020B6
:104E5000F0530208C0100040F25302080B2068E52E
:104E6000AA2129005523290000252800AA26270069
:104E700055282700002A2600AA2B2600552D25009C
:104E8000002F2400AA3024005532230000342200D1
:104E9000AA3522005537210000392000AA3A200007
:104EA000D500E601EC02EF03F204F405F506F7077E
:104EB000F808F909FA0AFB0BFC0DFD0FFE11FF13B0
:104EC00000160119021C031F100011002000300001
:104ED0004000410050006000700080009000A00081
:104EE000B000C000D000E000F000000000000103AE
:104EF00010B5DFF8DC4BDFF8DC3B2488001B03EB4C
:104F00004000002304E030F8134021F813405B1CFC
:104F10009342F8DB002010BDDFF8B42BDFF8B41BA0
:104F20001288801A01EB4001022003F08ABDF8B517
:104F300004460F461546DFF89C6BEDB205B34FF6FD
:104F4000FF70ADF8000000AA002017F8011B815483
:104F5000401C6D1EC0B2022802DAEDB2002DF4D161
:104F6000DFF86C0B0088A4B2201A012200A906EB1E
:104F7000400003F09FFD641C0028DED000F0F4BB6D
:104F80000120F2BD70B582B004460D461646F6B259
:104F90007EB100F0BBFF641C002000A9761E415CBE
:104FA00005F8011B401CC0B20228F0DAF6B2002E50
:104FB000F3D173BDDFF8201BDFF8202B415C825C4E
:104FC000DFF8083DC05C10B102F5997292B241EA77
:104FD000C21080B2704710B5DFF8403CDFF8F84AE5
:104FE00003EB4002005D012801D1104610BD10887E
:104FF000081803EB400010BD30B591B004460D46D3
:1050000004E0401C80B220280BDB2034A4B2A5426F
:1050100011D3202200A92046FFF76AFF00204FF697
:10502000FF7200A931F810109142EAD02046FFF734
:1050300073FF203CE9E711B030BD10B5044661882C
:105040002088FFF7D9FFDFF8D81B0120A07109786D
:1050500020880818DFF8781C098800EB4100801DC3
:10506000A08010BD10B5DFF86C4C00F08AF800F09D
:1050700050F900F04BF9DFF8600C446004F10801CE
:10508000816004F11001C16010BD2DE9F0460446B5
:10509000DFF88C0B05782E46072E85B003DB40F237
:1050A000CD2100F017FB0020A0716A1C208892B26D
:1050B00001A9FFF71DFFBDF804004FF6FF7A504528
:1050C00018BF002858D00DF10409AAEB000039F8E8
:1050D0001610814250D1012705E0BDF80410884226
:1050E0004AD1781CC7B2B74214DA39F81700002841
:1050F000F3D1DFF8E81B20880A8807FB022141185A
:10510000514407FB020089B280B2FFF775FF02200D
:10511000A071E6E7A079022830D020882818C01CAA
:1051200000F0CEFEBDF80000000BA84224D120887C
:105130002818401D00F0C4FEBDF80010BDF80000A6
:10514000C1F1FF01000AC9B2884215D10320A07144
:10515000012220882818401C0DF1020180B2FFF7BF
:10516000C7FEBDF80200FF2802D10420A07105E0AF
:10517000504518BF002801D000F003F805B0BDE885
:10518000F086204659E770B5DFF8484BDFF8485BFA
:105190000020A071A073A07582B004F10800A8607F
:1051A0006C6004F11000E8602046FFF76EFF04F128
:1051B0000800FFF76AFF04F11000FFF766FFA1790E
:1051C000A07BDFF81069042908D100210428ADF87C
:1051D00000102CD1FFF746FF012076BDA17D0428E9
:1051E00012D100200429ADF80000F3D0FFF7C9FF69
:1051F00000F08CF8DFF8283A208900F08DF80600DE
:1052000026D10320A07334E0042929D10020ADF871
:105210000000FFF7B6FF00F07CF8DFF8043A208AC0
:1052200000F07AF8060013D10320A07518E0A07DE5
:105230000428CFD000F06DF800F068F8DFF8E0390E
:10524000208800F069F8060002D10320A0710AE06E
:105250003046FFF717FB1EB140F2C13100F03AFAB9
:10526000A079032805D1A07B012804BFA07D0128D7
:1052700043D0A079032801BFA17B0329A17D012987
:105280003BD0022801BFA17B0329A17D01290DD0BC
:10529000012801BFA17B0329A17D012906D0012896
:1052A00001BFA17B0329A17D032904D104F10800DA
:1052B00004F1100125E0012801BFA17B0229A17D95
:1052C00003290DD0012801BFA17B0129A17D03295C
:1052D00006D0032801BFA17B0129A17D032904D1A8
:1052E00004F11000214608340BE0032801BFA07B25
:1052F0000128A07D02287FF46DAF204604F108014B
:1053000010346860EC60A960002076BD04F11000E4
:1053100093E604F1080090E61B781818DFF8B03720
:105320001B88401CC01A012200A906EB400003F0B4
:10533000C1BB2DE9F04F0446DFF8E408007885B0E2
:105340000D46ADF80C0001222088BDF80C1008189D
:10535000461D0DF10201B0B2FFF7CAFDBDF8020013
:10536000DFF8E88BDFF870AC000AADF80200761CBD
:10537000DFF85C090788BDF80200B8421CBF0120B5
:1053800028704FF000091DE0401CC1B2B94215D28F
:10539000C0B283463AF81B10BDF80A209142F3D1FF
:1053A000FFF708FE4FF680710840BDF808104FF671
:1053B00080721140884208BF0BF8089009F1010083
:1053C0001FFA80F9BDF80200814507DA022202A91E
:1053D000B0B2FFF78DFDB61C0020D6E70021B9461C
:1053E00001E0491C89B2494509DA11F808008842F0
:1053F000F7D00120287002E022F817600646608886
:10540000C01EB6B2B0424FF6FF7A69DBFF2700F04C
:1054100078F8BDF80000504562D0701C01220DF1F3
:10542000060180B2FFF764FDBDF80010BDF806006C
:10543000AAEB010188425FD1BDF80010BDF8000061
:1054400001F07F0ABDF80210F61C000A884253DA08
:10545000002101E0491C89B2494504DA11F808200D
:105460008242F7D1CFB22388BDF80CC0634403EB6E
:105470004000801D00F01FFDBDF804006188C0F3EE
:10548000C710401C00EBD07006EB600080B2814278
:1054900032D3FF2FB2D0DFF8E41B795CBAF17F0F73
:1054A0000CBF002252468A4208DADFF82038BDF8E5
:1054B0000020FB5CC2F3C0129A4202D00121297085
:1054C0009CE70129DFF8542796D0BAF17F0F32F814
:1054D000171008BF4FF0000A514422F811608DE701
:1054E000A6806088B6B2B04208D300F00AF8BDF8D2
:1054F0000000761C5045F4D00120287005B0BDE8AE
:10550000F08F012200A93046F2E4F8B58DF80000D2
:10551000DFF86C1BDFF8B8050288DFF8B8070988E8
:10552000DFF8FC361D78DFF85C3B1B884180028089
:10553000AA18DFF89C170C88438102EB4402921DE5
:10554000828000228271DFF8403BDFF8402B128816
:105550001B8802814382AA1802EB4402921D8281B9
:1055600000228273DFF8282B12880282AA1802EB2D
:105570004401891D818200218175FFF704FE01220B
:105580009DF80010DFF8506708438DF80000B11C4B
:10559000706800882818801C80B2FFF7A9FC9DF86D
:1055A000000000283ED1706800A9FFF7C2FEDFF8B6
:1055B000E40ADFF868760588B0688179032922D18A
:1055C00000A9FFF7B6FE7168DFF8B02A002010E0EE
:1055D000A04202DA835C012B09D137F81030B1F810
:1055E00000C0634524BFB1F802C09C450BD2401CEB
:1055F00080B2A842ECDB02208871B16870687160EB
:10560000F168B160F06000204FF6FF7201E0401CCD
:1056100080B2A84206DA37F810109142F7D1012083
:105620008DF80000307828B101208DF800000020AE
:10563000307002E09DF80000B8B14D20FFF722F96C
:105640007088401C7080F068FFF7F7FC9DF8000040
:1056500000F055F838B100F08BF820B19DF800004B
:1056600000F044FA08B90120F2BD0020F2BD2DE996
:10567000F04104460D461646984631462846FFF747
:10568000AAFCDFF84C16078809887F2E08BF002681
:105690008D423EBFDFF84004285C864204D2DFF82A
:1056A0003C04285C804503D040F2A67100F012F85B
:1056B000DFF8E409285C28B13946284600F02BFCC5
:1056C000206005E0424621463846BDE8F04159E4F5
:1056D000BDE8F0810FF6F81000F096BE10B5044654
:1056E00008461146FFF777FCDFF8E42300881288AC
:1056F000DFF8A819801A01EB4000206010BDF8B552
:10570000DFF8D415DFF8CC43DFF8CC58002814BFFD
:10571000C8688868DFF80815008809780818861DA9
:10572000B6B2002703E0B61C7F1CB6B2BFB2DFF8EA
:10573000A0050088874215DAF8B2FFF73BFCADF808
:105740000000022235F81700DFF854391B88ADF845
:10575000020000A9F01A04EB400003F0ABF90028A6
:10576000E1D001E00120F2BDFFF78CF80020F2BD8E
:105770002DE9F04FDFF85805DFF8A4140088097808
:10578000DFF850A385B00025ADF80600DFF8480526
:10579000C06800880818BDF8061000EB4100801DA5
:1057A00086B201E06D1CADB2BDF80600854280F204
:1057B00098804FF0000B1DE0012201A91FFA88F02C
:1057C000FFF796FBB819001B08F10108012201A997
:1057D0000AEB400003F06EF900287CD17F1C03988F
:1057E000FFB28742E8DBDFF8BC08285C801986B28C
:1057F0000BF1010BB8482C5C5FFA8BFBA345D1D2AF
:105800005946E8B2FFF7E7FB0746DFF8C004B7F8F0
:10581000008015F800904FEAC91040EA0520ADF865
:105820000000012CBDF800000CBF40F07F004BEAE7
:105830000000ADF800004FF6FF70BDF80010401AF0
:10584000ADF80200711CA2480488301B8EB24FF6DE
:10585000FF7188450AEB400018D1012200A903F02E
:1058600029F9002837D100F042F8002833D1B01CC4
:1058700086B29A483E802A5CDFF82C0850F8251042
:105880003046FFF754FB0028ADD127E09349695C0F
:10589000491C01EBD171C905090E0391012200A930
:1058A00003F008F9B8B900F022F8A0B9B11C8EB223
:1058B000B9F1000F3E8012D002904146E8B200F0EC
:1058C0002AFB029002A9039A301B0AEB400003F066
:1058D000F1F8002887D0FEF7D5FF00200EE600275C
:1058E0007DE7DFF8F403C06886800120F6E7301B0F
:1058F00001220DF102010AEB400003F0DBB82DE9B3
:10590000F64F8046DFF89C07DFF8A0371B6885B0AC
:10591000085CDFF89C17098801900C264A0891FB67
:10592000F6F6B618B3424FF0000928BF001808D2A7
:10593000182691FBF6F1511A8B4203D300EB50006D
:1059400080B201900026DFF8907301E0761CB6B2B9
:10595000DF480088864280F2AB80002441E00122CB
:105960000DF102011FFA8BF0FFF7C2FABB68DFF8F6
:1059700060C19B88BCF800C05648EB18A3EB0C0331
:105980000BF1010B4A4600F0ABF8002816D16D1C54
:105990000498EDB28542E2DBBDF80010BB684FF61B
:1059A000FF70401AADF80200012249489B88058823
:1059B00048489B1E5B1B00F093F8002872D1BB681F
:1059C00044489B88DB1E5B1B012200F041FB002842
:1059D00068D1B868039A8188118081885144818098
:1059E000641CE4B23C48355CAC42AFD22146F0B214
:1059F000FFF7F1FA0390B0F800B03848305C401C73
:105A000000EBD070C005000E0490BDF81400864273
:105A100004BF9DF818008442E2D0786801888B4565
:105A200024BF40885845DBD301981FFA88F880B21C
:105A3000804549D2DFF86C0616F800A0B868828865
:105A400041885244D21C914203DA0120387045202B
:105A500028E09E49715CCA0142EA0622ADF80020A6
:105A6000012DBDF800200CBF42F07F022243ADF8AB
:105A70000020D0448288D21C4FF001098280A9B155
:105A80005946F0B200F047FABB68114D049A0290F3
:105A90009B882D880F485B1B02A900F023F8002883
:105AA0003FF47AAFFEF7EEFE0020FAE100256FE743
:105AB000B9F1000F08D1796802208871B968786857
:105AC0007960F968B960F8600120EEE70000000035
:105AD000AE520208007007081C500208005002086D
:105AE0000DF1020100EB430002F0E4BF2DE9F04F9D
:105AF00083B05FEA0008784DDFF8A09514BFE8682E
:105B0000A8680122B0F800B071480088C0F1FF0118
:105B1000C9B241EA0020ADF8000000A9404806786B
:105B2000DFF87C05048806EB0B07781D001B00F0EE
:105B300079F800284CD140F6127040EA0630ADF8F2
:105B400000000122F81C001B00A900F06BF80028DF
:105B50003ED1B81C001B0122A91C09EB400002F039
:105B6000A9FF002834D1781C001BB8F1000F09EB05
:105B7000400A03D0FF2000F059F848BB686800884D
:105B800001220DF10201FFF7B3F9BDF8020001286F
:105B90000CBF4FF6FE70401EADF802004FF6FF70CE
:105BA000BDF80210401AADF804000122381B01A90B
:105BB00000F038F860B9731E7EB19EB206EB0B00A0
:105BC000001B01220DF1020100F02CF80028F2D098
:105BD000FEF758FE0020BDE8FE8FB8F1000F17D089
:105BE000E968032088716868FFF727FAA868FFF75B
:105BF00024FAA968EA686868AA60E860A860696031
:105C000000206A60E96000F011F80028E0D102E0AD
:105C1000A968032088710120DDE7000028F5002035
:105C2000AC52020809EB400002F044BFADF800009E
:105C3000012200A9504602F03DBFF8B50446DFF846
:105C4000640482B00D5CA088134662882E18F61C8E
:105C5000B24204DA204901200870452031E0C01C1E
:105C6000DFF85024A08080B28A5C1946FFF75FF904
:105C700050B3DFF82C04DFF824740688A088C01E17
:105C8000801B012202A907EB400002F013FFC0B9FC
:105C9000BDF808104FF6FF70401AADF80000012261
:105CA000A088801E801B00A907EB400002F002FFC5
:105CB00038B90899A0880880A0882818A0800120F9
:105CC000FEBDFEF7DFFD0020FEBD0000E44F020830
:105CD000BA520208DCF30020ECF70020AA520208B6
:105CE0002DE9F94F85B088469146012602F046FF1E
:105CF000B9F17F0F08BF4FF000099DF8140001278C
:105D00004946FFF768F904469DF81400258802907B
:105D10008F48B0F800A09DF8140050453FBFDFF851
:105D20005C030299085C814507D2029ADFF884136C
:105D30009DF81800515C884203D040F61B21FFF704
:105D4000C9FCDFF87403817902291FBF817B022916
:105D5000807D022802D14320FEF794FD0299CE48AF
:105D6000085C80B39DF81400294600F0D4F8D8F8F8
:105D70000010814253D0E81E00F09DF8CF4F7868A4
:105D8000DDF808C0C74B42881CF803308188D21E5A
:105D9000D21A8A4207DB31B1B9680A889542A4BF9A
:105DA0004988A94272DBF868BD688079022837D13A
:105DB0004420FEF767FDF8688079012830D045203F
:105DC000FEF760FD53E09DF8180003904FF0000BC4
:105DD00020E00BEBDB7005EB600000F071F80BEBE3
:105DE00008001BF80810407801EB00200399491EB9
:105DF0008B4580B205D1BDF80010C9B2C0B2ADF874
:105E00000010BDF8001088420BF1020018BF0027F7
:105E10005FFA80FB03988345DBDB002FABD040E0CB
:105E2000B8688179012913D10020FFF768FC0028A8
:105E300037D00020FFF75AFE002832D0A0489DF846
:105E40001410007800EB4A00C01D4A4680B205E0FD
:105E5000032912D19DF814104A460020FFF74FFD88
:105E600028B100F021F82846FFF7E7FEC8B9304610
:105E7000461EC0B2002812D113E002290CBF40F622
:105E8000013140F60431FFF725FC0AE000F00CF880
:105E9000FFF7D3FE28B93046461EC0B200287FF473
:105EA0002CAF07B0BDE8F08F0094BDF804309DF82A
:105EB000141042467047012201A980B2FFF718B8BA
:105EC000012200A980B2FFF713B870B582B0044672
:105ED0000025192600F01AF8BDF80000641C48B12E
:105EE0004FF47F41401A02D0FF3806D007E0681C0B
:105EF00040B276BDAD1C761EECD168B276BDBDF861
:105F00000000C0B200B96D1CE843F1E7012200A90E
:105F1000A0B2FEF7EDBF38B50C46002100916549EF
:105F2000455C2A4600A92046FFF72CF8681C00EBC8
:105F3000D07004EB600080B2FFF7C7FF002848BFB5
:105F4000C043009940B2401832BD0000A4F70020C1
:105F5000BA520208F0B55B49098804465A4883B032
:105F6000254630F815608C4202D24B48285C18B99F
:105F700040F66331FFF7AEFB4E482D5C681C00EB2A
:105F8000D07006EB6007B8B2FFF79FFF322814D23B
:105F9000C107BFB207EB6000414F404B3F884CBF89
:105FA00000214FF47F41ADF80410C01B012201A96C
:105FB00003EB400002F07EFD60B131462046FFF762
:105FC000AAFF00902B46401C00907F2200A920468B
:105FD000FFF786FEF7BD0000AC4F020870B504461F
:105FE0003748067882B0354629464D1E208802295A
:105FF00020DBEDB22818FFF763FFBDF80000002892
:10600000F2D032492088098805FB010080B2FEF7F2
:1060100083FF0020ADF8000001222388204C1F4898
:106020002488EB181B1B00F013F808B1FEF72AFCBC
:10603000284676BDFEF770FF0120A0712149208817
:106040000988301800EB4100801DA080E8B276BDC1
:1060500000A900EB430002F02DBD17488179022909
:1060600008D0817B022908BF083003D0817D022936
:1060700001D11030B2E70020704700001C50020828
:10608000B0520208B4520208B8520208B2520208D2
:10609000B6520208BC520208E44F0208007007081A
:1060A000AE520208C052020838520208A0F700207F
:1060B000A852020800500208DCF30020ECF7002090
:1060C000AC520208BA52020828F50020AA5202086F
:1060D00073696D2D656570726F6D322D696E7465B3
:1060E000726E616C2E6300002DE9F94D82B0DFF80D
:1060F000E08008F51F7001901C22FF21FEF750FB85
:106100004FF41E72FF214046FEF74AFB3820C8F8C4
:1061100078024FF01C0A38210FF2E00002F083FDF4
:106120000FF2C80B00262B48345C601C00EBD070CB
:1061300045102948375CFF2C02D19F2100F052F80E
:106140007F2F02DBA02100F04DF82448305C28B1FD
:10615000042C02D0A22100F045F81935E81C00FB00
:1061600007F41F4830F816100FF2AC003B462246E9
:1061700002F059FDD8F878022118C8F87812012FDA
:106180001CBF28F816A0BA44761C1C2ECBDBB1F538
:10619000805F34BF0DA30FF2E0031C2000904FF48A
:1061A00080520FF29C0002F03EFDD8F87802B0F564
:1061B000805F02D9C72100F015F801999DF8080009
:1061C00004B0BDE8F04DFFF7A0B900006F6B000010
:1061D00028F50020005002081C500208E44F020875
:1061E000AC4F0208584600F00FB9000073696D2DDE
:1061F000656570726F6D322E63000000546F6B65C1
:106200006E206F766572686561643A202564207738
:106210006F7264730A00000043726561746F723AB2
:106220002030782532582C20576F7264733A20251D
:10623000642C20436F756E743A2025640A000000B8
:1062400053696D454520646174613A202564207767
:106250006F726473206F66202564206D617820283A
:106260002570292C20746F6B656E436F756E743AC0
:106270002025640A00000000544F4F204C41524733
:106280004500000010B5044602F0DAFC4949302010
:106290000860494908604949086010204849086079
:1062A0004FF20F01200A0028464808BF240204804C
:1062B0004180BFF35F8F4448002101604160434843
:1062C0004349086010BD43480168C90708D5424AE0
:1062D00003211170016C490849000164012101602A
:1062E0000168090703D5016C21F0080101647047BA
:1062F00080B5002000F009F830B9BDE80440FC2169
:106300000FF2EC0000F080B801BD2DE9F044334CF1
:1063100021680D1A15F01F0105D0002852BF6D1A13
:10632000681A00F120052E48A5F12006A84224BFD6
:106330002C48864203D3EFF30880854201D3002026
:106340002DE002F07DFC82462748006810F001072E
:1063500018BF02F093FC206801468D4206D2A84285
:1063600024BFCD2100F80119F9D206E0203800221F
:1063700001E000F8012B8842FBD32560304602F093
:1063800082FCE22001E006F8010BAE42FBD30FB124
:1063900002F05CFC504602F093FC20682038BDE817
:1063A000F0840E48006870470C4800682038704739
:1063B0000E4870473020004030C8004030C00040D8
:1063C00010E00040000000201C4000400400FA05DE
:1063D0000CED00E018A00040BCFF0020D8F3002026
:1063E00040E90020F80D002094ED00E000000020BE
:1063F0006D6963726F2D696E7465726E616C2E6368
:106400000000000042DE704738B504460D4602F039
:10641000B5FB02F015FC2946204602F078FC29461F
:106420002046BDE83440EDE72DE9F84F6448654D5E
:1064300001682E1D4FF4206A7165016AB1656249D9
:106440000968F165416A3166816A7166C16AB1663F
:10645000016BF166806B306796F8340040074CBFE3
:10646000F76BB76BBB46FFF79CFF0022574CDFF87A
:106470006081DFF86091F2648742014624BFA4F195
:106480002003BB4231651DD357F8180F306457F80D
:10649000040F7064706DC005C00D062815D1306CF6
:1064A000484512D3404510D200884DF642629042D2
:1064B0000BD105F18C006A68426040F2017A726883
:1064C000826002E03264726483464348814202D2B1
:1064D000014600E0091DA14203D20B68B3F1CD3F94
:1064E000F8D0601AB064182105F1780002F066FD5A
:1064F000002003E0C0B205EB80029167A34523D2E0
:1065000054F8041D4945F9D34145F7D2CA07F5D5DA
:10651000002205EB82039B6F8B4203D0521CD2B248
:10652000062AF6DB062AE9D1002814BF401E052002
:10653000E0E7716F002205EB8203521CDF6F9F675B
:10654000052AF8DBC5F88C100146481EC9B200299F
:10655000EFD1706DC005C00D02280AD0032815D0F8
:10656000042816D0052817D0062818D00C281CD0CF
:106570001EE01A480168890748BF40F6021A1CD479
:106580000068C00719D540F2025A16E040F6012A09
:1065900013E040F6022A10E040F6032A0DE0BAF5B7
:1065A000206F0AD140F6042A07E040F6052A04E0ED
:1065B00018B1242838BF40F6072A5046BDE8F28FAC
:1065C00004ED00E00000002000E300E0A0F2002065
:1065D000A04F020890410008980000201CA0004035
:1065E000F0B5044689B0002001F0E2FB264801889E
:1065F0000A237F2200A800F069F8BDF802004FF6D8
:10660000FF75A84204D1DC210FF29400FFF7FCFED5
:106610000FF2A407002601E02A4616B94FF47C4287
:1066200003E0022E08BF4EF23F0200A800F032F84D
:10663000761C052EF0D3012C03D114237F2213489E
:1066400002E014237F221248018803A800F03EF8DC
:1066500000260FF26C072A4608E02A46012E08BFE2
:106660004FF6C07202D0082E08BF002203A800F027
:1066700011F8761C0A2EF0D3012C04BF012001F082
:1066800097FB09B0F0BD0000F4530208F253020872
:10669000F053020830F81610F05DFEF74AB900001A
:1066A000616E616C6F6775652D63656C6C2D6269D9
:1066B00061732E630000000000100C0D0E0000003E
:1066C000010203040708090A0B0F000030B5044655
:1066D00010467F2808BF0020B1F5004F83B01AD1C3
:1066E00008237F2240F6120100A8FFF7EFFF0822DF
:1066F0000FF2C40100A8FEF75AF830B908237F2230
:1067000040F2A27100A8FFF7E1FF082200A920468D
:10671000FEF703F837BD204D294300FB03111A464D
:106720002046FDF7FAFF37BD2DE9F0440C461A4923
:106730000FF2780A41EA0006C007154602D5622129
:1067400000F030F8E80702D5632100F02BF8134879
:10675000864204D3A819401E1149884202D36421FD
:1067600000F020F8002706E0B85DFF2802D06B217A
:1067700000F018F87F1CAF42F6D36A082146304675
:1067800002F098F928B15046BDE8F0447121FFF7B6
:106790003BBEBDE8F08400000000080800080808BF
:1067A000001008085046FFF72FBE00006D66672DE9
:1067B000746F6B656E2E6300FFFFFFFFFFFFFFFF2F
:1067C00030B50FF23C11DFF824510A6883B001A8FC
:1067D00000240260012028700020FFF785FC30B102
:1067E0000020FFF781FC10B12C7049203EBDDFF87E
:1067F0000001018802237F220DF1020000F024F83D
:1068000002237F22002100A800F01EF8204601A9E3
:10681000BDF8022031F81010914208BF0124401C3D
:106820000228F4D3BDF8000024B1B0F57F7F07D172
:1068300000203EBDB0F57F7F0CBF0620042000E0A5
:106840000720002129703EBD10B5FF2908DCDFF8C4
:106850009C40247844B1BDE81040C9B2FEF707BFA0
:10686000BDE81040FFF732BF10BD10B5FF2908DCAE
:10687000DFF87840247864B1BDE81040C9B2FEF773
:106880002DBF7F2A08BF00221A4C214302FB0311AF
:10689000016010BD2DE9F0410546FF2D0E4617465B
:1068A00098460FF2540012DC104C2178A1B16178A7
:1068B00011B1C221FFF7A8FD0120607043463246A6
:1068C0003946E8B2FFF70CFA0020607004E0BDE83A
:1068D000F041CD21FFF798BDBDE8F081034909786B
:1068E000002918BFFFF736BB70470000AEFF00203D
:1068F000FC53020800000808746F6B656E2E63007D
:10690000FE01FD0210B5DFF81C451020206302F0E7
:1069100097F9DFF814150A6842F001020A6002F0E4
:10692000CFF9DFF8080500F10801616021609230BD
:1069300061688931616001212163E060A060DFF856
:10694000F014E0688930E060022020634FF6FF70A9
:10695000086010BDDFF8DC0445F26401C1601E214F
:10696000416250210162C821C1618165F021C16588
:1069700045F690014166882181660621C16644F290
:10698000066101604FF6FF714160DFF8AC040078EA
:1069900038B1DFF8A80448F2607101604FF4C151CA
:1069A0004160DFF89C04016841F0040101600020AF
:1069B000DFF89014487070472DE9F04FDFF86C1441
:1069C0008A2283B002FB0012083200920427521C74
:1069D00004465378127802EB0325ADB205F4406308
:1069E000B3F5006F05F440424FF000094FF0010A83
:1069F00008BF082703D0B3F5406F08BF0E271AB1B0
:106A00006B065CBFBB1CDFB2DFF83C341B784B70FD
:106A100040180190A806019981F8029064D5DFF82A
:106A20002C64706E00065FD500983818B2F5404FA0
:106A30004FF4806B4FF4006807D102F010FB5FEA5F
:106A4000000947D007F1080019E0B2F5004F41D125
:106A500000994078795C01EB002080B202F07CFD67
:106A6000FF2808BFCA4609D0DFF8E413096831F8E7
:106A700010004FF4FE6108422CD0D146B81CC0B2C1
:106A8000410805F00702032A24D1002C14BF7268C4
:106A900032688A421ED3002C14BF726832684B1CC5
:106AA0009A42F8D30099405C042813D1BAF1000F40
:106AB00002D0B9F1000F0DD0F06DC00606D400F081
:106AC00015F803D0706C40F001007064012001994A
:106AD000887009E0F06DC00606D500F007F803D015
:106AE000706C400840007064BDE8F78FB06C04B172
:106AF000C34610EA0B0F70472DE9F04E0446CB4E0B
:106B0000DFF848538A2000FB046000F1080B002CDA
:106B10000CBF28686868C1B2052903DA7068401C98
:106B2000706055E040005FFA80F909EB0B00A0F1BE
:106B300008073878797801EB00201FFA80FA70781E
:106B4000387002F02BFE7870C24FF86B20F4805042
:106B5000F863686E14B93868400504D4012C1FD15D
:106B6000386800051CD5BC48017889B10021017046
:106B70001AF4E45FB948016802D00022402005E021
:106B80009BF80100000900F001028F2003F077F864
:106B9000002C0CBF4FF480604FF40060386012E0AE
:106BA0001AF4E45F0FD100F02DFD10B15FEA4A4006
:106BB00009D59BF80000802805DAA019494682789B
:106BC000584603F021F9002C0CBF01200220286157
:106BD000BDE8F08E2DE9F047954CA04E2068216C61
:106BE0009A4FDFF87C82DFF87092DFF840A201EA6A
:106BF000000519E038B14878C00604D43168002295
:106C00008F2003F03CF8280605D503F091F880208A
:106C100025F080052060E80506D503F089F84FF4DB
:106C2000807025F480752060002D5CD0280706D583
:106C30000020FFF7C1FE082025F008052060E806C7
:106C400006D50120FFF7B8FE102025F010052060C2
:106C500005F06000602803D1B86CC0050AD401E0DB
:106C6000A80605D52020206025F02005002006E09C
:106C7000680606D54020206025F040050120FFF77A
:106C80003BFFE80404D54FF4805025F48055206084
:106C9000E807B8D5012020606D089AF800006D0063
:106CA0000028B0D000F027FC0128ACD199F80000F2
:106CB0000028A8D098F800000428A4D1F86840085B
:106CC00000F001008A2101FB00A10831002814BF57
:106CD0007A683A6812B92268D204F7D5002814BF3E
:106CE0007868386886E700202060BDE8F0875D4856
:106CF00000687047F0B504460D4689B000210320B6
:106D000001F000FE04AE1BE0002701F016FE26F89D
:106D1000170001F012FE00A921F817007F1C082FB0
:106D2000F3DB04A803F00AFA00202080218836F85B
:106D300010205140401C08282180F7DB6D1EA41C48
:106D4000EDB2002DE0D101F034FE012009B0F0BD1C
:106D50000321022001F0D6BD4FF6FF71081A292148
:106D600090FBF1F03A3040B2704738B501F0E5FDE4
:106D7000FFF7F2FF3C4D04462878B0B90321032009
:106D800001F0C0FD3948018802237F2200A8FFF7E7
:106D90009DFC01F0D2FDBDF80010401880B2FFF755
:106DA000DBFF153868700120287001F002FE68785A
:106DB000201A40B232BD80B50321022001F0A2FDAD
:106DC000BDE80140D1E770B529480078002490B9AA
:106DD000FFF7F1FF1B4E0546707848B13078401B35
:106DE00040B203F0BCF90B2805DB3570012402E04A
:106DF000012035707070204670BD80B540B11D49CE
:106E0000002008600848016821F08001016001BD90
:106E100000F078FC00F04EFC00F0B7FBBDE802404B
:106E200000F09BBB0020004084200040FCF70020C5
:106E300000A000404C100040C5F30020D0100040DE
:106E400080200040B7FF0020C4F300202020004035
:106E5000C4F2002004A00040B8F90020C0F90020CE
:106E600011F4002038200040B5FF0020FA5302083A
:106E700012F400205410004010B50D48018884B071
:106E80000A237F2200A8FFF721FCBDF800004FF67F
:106E9000FF74A04204D14E210FF21800FFF7B4FA9C
:106EA000BDF8001022460020FDF743FD1FBD000085
:106EB000F4530208616E616C6F6775652D66696CCD
:106EC0007465722E63000000DFF84408007848B152
:106ED000DFF840080179012904BF4079042801D175
:106EE00001207047002070470FF6D001405C7047CA
:106EF000010603D54FF67F710840C000704780013E
:106F0000B0FBF1F080B2FF288CBF0020C0F1FF0081
:106F1000C0B2704738B5DFF80008C178012901D147
:106F2000002032BDDFF8FC47617871B1E17840792B
:106F300045182079ADB2854228BF054603F028F9EF
:106F40000121A940491E084000E00020617908188D
:106F5000C0B232BD2DE9F0470446C00705D54FF455
:106F6000B8710FF64800FFF74FFADFF8BC57286DED
:106F7000C00748BF8C2000F19480DFF89C07DFF841
:106F8000A4770021017101704178B1B93978A1B1BC
:106F90002178122918BF0C290BD1627802F0070260
:106FA000032A02BF091911F8021C042904BF012198
:106FB0000171A96F41F0010102E0A96F4908490080
:106FC000A967DFF850877A7898F80610DFF85C97A1
:106FD000DFF85C6792B1002242710129286D40F010
:106FE0000400286506D14FF6FF7030604FF4007042
:106FF000C9F80000FFF78EFF82460CE0286D20F0F4
:107000000400012928654FF0000A04D100F02CFA91
:10701000642000F035FFA86F20F00800A867142056
:10702000E864C5F848A0787838B198F806000028D8
:1070300001BFA86C00280120A864B8790028286D39
:1070400014BF40F0080020F008002865FFF73CFF5F
:1070500018B1306C40F008003064202028626C6069
:107060002C604FF4E06468687F3068600420286218
:10707000DFF8C006046006E003F09AF818B103F0E8
:107080009FF801F0DDFDDFF8B006006800F00300B6
:107090000328F1D0C9F80040286D40F001002865B0
:1070A0000020BDE8F087DFF8940600214160816090
:1070B000016821F0020101604FF00070DFF88016D6
:1070C00008600120DFF87C1608707047A0F13301DA
:1070D000DFF87426914200D3704710B5DFF864469C
:1070E0000021217000F0B9FB02E0012003F06CF8F0
:1070F00020780028F9D010BD2DE9F84FDFF8308650
:10710000DFF81456D8F80000D8F84010DFF81876E9
:1071100001EA0004A4B2C8F800406878002840F0F2
:10712000D580E007DFF82466DFF8F8954CD5D7F86E
:1071300000A0386C796C41EA004199F80000A96020
:1071400000283DD09AF80100800639D5012028702A
:10715000FFF7BAFEC0B3192000F092FE4FF4404092
:10716000DFF8ECB5CBF82800DBF800000090F06EFB
:1071700040F40050F066F06E40F48050F0669AF8EB
:107180000010A8684901B83101EB000AFFF7AFFD14
:10719000AAEB00000003000BFFF798FFF06E8009D8
:1071A0008001F06600A9F06E09880843F0660020AF
:1071B000CBF8280048F26070F066E888306003E0A1
:1071C0000022002002F05BFD20060ED5287830B1A9
:1071D000002028700022A968402002F050FDD8F855
:1071E0003C0020F48050C8F83C00600608D5687860
:1071F00030B9FFF77CFD01460022892002F03FFDF7
:10720000E00654D5DFF80CA5DFF820B59AF80400A5
:10721000012804BF9AF8061001291FD100F0F8FFD9
:10722000386F40F00100386700208AF80600FFF749
:1072300069FB0A2000F024FE4FF6FF70C8F800003A
:1072400000244FF4E060CBF800000920B86601206C
:10725000B864B86F40F00800B86718E0697999F829
:107260000220491C6971C9B2914215D2012808BF98
:1072700000F0CDF8B86F20F00800B8671420B866A9
:10728000FFF748FEB8644FF40070CBF80000386D8B
:1072900040F0010038650AE0012808BF00F0B7F8A7
:1072A000FFF725FD014600228D2002F0E8FC2007B3
:1072B0000CD5FFF709FE48B13068E8800120306046
:1072C000D8F8400020F00800C8F84000A0060AD511
:1072D00020203862687830B9FFF709FD01460022A6
:1072E000882002F0CCFC687820B114F4407F04BF01
:1072F0000120A870BDE8F18F70B582B00446FDF79B
:10730000D3FCDFF85804DFF8145400210160152184
:10731000E960092101651F21416001210166DFF853
:1073200038040088FDF749FBFFF714FB03F060FA0F
:1073300000F02EF9DFF8DC63308900F056F970892F
:1073400000F05BF901F07CFC696841F04001696084
:1073500001F0B6FC707800F0F0F8B07800F0FDF8BD
:10736000DFF8FC03007800F02AF9DFF8F80390F961
:107370000000FDF7D8FC307800F090F996F9030092
:1073800000F098F9DFF8E00300F0B6F9BDF800006E
:10739000DFF8D813C0054CBF0020BDF8000008700E
:1073A000DFF8CC030078FDF781FC28B10FF2FC3048
:1073B00040F2B631FFF728F8012C05D12868C00744
:1073C00011D500F024F80EE06CB92868C0070AD483
:1073D00000F01EFF286840F001002860C82000F07F
:1073E0004FFD0020B071F120DFF84443206440F2EB
:1073F000F910E063FFF786FA2868C00704D54FF656
:10740000FF70206000F05DF800F055FC73BD70B5B2
:10741000DFF86053DFF8FC422E68A079012822D003
:1074200001F00EFCB6B2DFF80C232E604FF4E061E1
:107430001160DFF820130A6A520852000A620A68D3
:10744000520852000A600A6842F002020A604A6A60
:1074500042F001024A620121A17101F031FCBDE854
:10746000704000F0A6BE70BD70B5AA4CA07938B3CC
:1074700000F0CEFE01F0E4FB0546DFF8FC12A84E5A
:1074800001200860306D40F0010030650020A071DF
:10749000FFF738FA20203060306B40F00200306394
:1074A000F06D40F00800F065284601F009FC0A2064
:1074B00000F0E6FC9E494FF6FF70086000F001F80E
:1074C00070BD4FF4E0609949086070479148807939
:1074D000704710B58F4CA07928B140F2A7410FF248
:1074E000CC20FEF791FF2079012804BFBDE81040B1
:1074F000FFF78DBF10BD87480079704780B502281F
:1075000001DB012002BD834908718979884205D0D9
:1075100010B9FFF7A9FF01E0FFF779FF002002BDD6
:1075200096480068800200149A3801B211F1800F69
:10753000B8BF6FF07F0040B2704710B5044601F04D
:107540007FFB8F490A68002C14BF42F0120222F020
:1075500012020A606F494C7040E038B5044601F0F1
:107560006FFB054600F0ADFE40B985480168002C70
:1075700014BF41F0800121F08001016065488470F2
:107580002846BDE8324001F09BBB624880787047D6
:107590007C494A780B787C4803EB022202608B78A6
:1075A000CA7803EB022242600B794A7903EB02228C
:1075B0008260CA79897901EB0221C160704710B5F8
:1075C000044601F03DFB6E490A68002C14BF42F0EE
:1075D000200222F020020A6061490C70BDE81040D0
:1075E00001F06EBB4B48008970474A4908816749E2
:1075F0000860704747484089704746494881644958
:10760000086070476348007870475248816A41F0CB
:10761000020181620121016070474E480021016032
:10762000816A21F002018162502000F029BC38B546
:10763000594C5A4821695A4D0180E1694180E96CF1
:10764000818000202061FFF7E0FF0120E061002041
:10765000606220624CF25D00E864286840F40040FB
:1076600028604FF40040206048F20200206031BDE5
:1076700080B5FFF7D2FF48484FF400410160002178
:10768000016047490A6822F400420A60434A93882D
:10769000CB64118801615188C16101BD1F490A682D
:1076A000002814BF42F0020222F002020A601949C7
:1076B0000870704738B504467F2C0AD1394800F06D
:1076C0001BF8BDF80000C00554BFBDF800406FF0C6
:1076D0004A0401F0B5FA054600F0F3FD30B964B292
:1076E00004F19A0080053049000C08600948C47014
:1076F000284601F0E5FA31BD018802237F2200A867
:10770000FEF7E4BF034890F9030070470000000053
:10771000C5FF00200CF40020B8F9002080200040B4
:107720003020004038F400201020004000E100E04C
:1077300004A0004080E100E0A820004010E000E04C
:1077400004ED00E0C6FF0020CDFF070064100040FC
:10775000E410004060200040D4F300205C100040A2
:10776000C4FF0020C8F3002016540208B1FF002017
:10777000C4F300201C100040281000400C100040F2
:1077800084200040F4F9002098200040942000401C
:10779000902000400AF400201810004022F500203C
:1077A000C01000401C540208541000407068792D2D
:1077B000636F6D6D6F6E2E6300000000FEFEF7F7C5
:1077C000C8C80100DFF860155120086070472DE936
:1077D000F041054601F0BAF9DFF85015B0FBF1F6BB
:1077E0004FF4F070B0FBF6F71E2D3FB201DBE81B43
:1077F00004D5A8B2BDE8F04100F042BB01F020FA88
:10780000804603F001F8DFF82815DFF8282501206D
:1078100048700721DFF8200500F041F8E91B09B2A4
:107820007143C91C8908491EDFF81055416000F0FA
:10783000BDF8DFF8F4743C68386820F04000386028
:1078400002F0E4FF3C602E6002F0E4FF02F0EAFF89
:107850004046BDE8F04101F033BA38B5054601F0C5
:1078600075F9DFF8C814B0FBF1F44FF4F070B0FB19
:10787000F4F02D1A1E2D04DA95210FF20850FEF7B0
:10788000C3FDDFF8B404DFF8AC24072100F007F8EB
:1078900005FB04F1C91C8908491E416031BD016026
:1078A0000021416081604FF0007111607047DFF886
:1078B000802401215170D0E7DFF88404006800B90A
:1078C00070472DE9F041DFF87C54DFF87C64002438
:1078D0002C6034604FF4A040706041F29A0840463A
:1078E000FFF775FF6F6801F039F9000142F210717E
:1078F000B0FBF1F000F5C870C01B00B24FF4487146
:1079000090FBF1F000B20828A8BF072004DA10F1BC
:10791000080FB8BF6FF0070030604046FFF757FF11
:1079200008274046FFF753FF686804197F1EF8D107
:1079300001F014F9211D4001C908B0FBF1F080B23B
:107940007060BDE8F081DFF8F803006800B97047A7
:1079500038B5DFF8F85301206FF00F04A8602C60F1
:107960008020FFF734FFE868FF2802D8641C102C41
:10797000F5DB31BD70B5DFF8D803016841F00101D6
:1079800001600121416001F05BF90446DFF8AC536E
:1079900000F00CF85120DFF8901308602E6002F020
:1079A00039FF2046BDE8704001F08AB92E6828688A
:1079B00040084000286002F02DBF0020704710B53D
:1079C000DFF87C03DFF8684300680128BCBF0320B0
:1079D00000F01DF80120207000202071DFF87403F2
:1079E000816901F00301032907D10020A070042060
:1079F00000F07DF80120207110BD0F2101600221EF
:107A000081610120E0706420BDE810404FE72DE95E
:107A1000F041CB4AC64D146840F2DC51012C884637
:107A2000CC4ECD4F15DA0221B9803160B16901F039
:107A30000301032959D0002C03D5B16941F002019B
:107A4000B161FFF7BAFF5FEA00081AD1002C4CD5EC
:107A500049E0B8884FF6FF74A0421DD1BF480188A5
:107A600002237F22381DFEF731FEB888A04204BFF2
:107A70000220B880B069800703D4B06940F00200EA
:107A8000B0610120A870B88830600FFA88F0FFF765
:107A90000EFF4046BDE8F081B3699B07EDD5AB789A
:107AA0000BB10846F6E7B168B36811F0010103D1E4
:107AB0000F2809D2401C06E09B0705D53B781BB177
:107AC000032801DB2018B880B88839700228BCBFB1
:107AD0000220B8803068B9888842D2D1B06900F0FD
:107AE0000300032801D0FFF745FF0020D2E72DE96E
:107AF000F047804600248C4D904E01F0A1F881465D
:107B000002F082FE4046FFF782FF08B901240AE036
:107B100000F0CAF8D5F800A000F02EF9C5F800A0D2
:107B2000376002F077FE02F07DFE484601F0C8F8AB
:107B3000002CE2D0BDE8F0870220D8E710B57E48DF
:107B40007B4C002141608160016821F002010160ED
:107B5000002060704FF0007076490860A07838B15E
:107B60000020A0700620FFF728FF00F098F81CDB2B
:107B7000E078012814D17A48012101607949096827
:107B8000C90748BF03200FD40221E170016C41F006
:107B9000010101640420744908607449086010BD43
:107BA000E078042801D10520E07010BD80B5604860
:107BB000407800281CBFBDE80140FFF7BFBFFFF7BA
:107BC00072FA01BD2DE9F84300F069F803DABDE867
:107BD000F24304208BE7564C207900B35DE001F0BE
:107BE0002FF8054602F010FEE078032812D000F0CE
:107BF0005AF8DFF83481D8F80090D8F8000020F067
:107C00004000C8F8000002F001FEC8F8009037609C
:107C100002F000FE02F006FE284601F051F8E0787E
:107C20000328DCD14C4E4B4DB08828604FF6FF77CF
:107C30007088B8420CD14E48018802237F22B01CC4
:107C4000FEF744FD7088B84202D16420708001E0E4
:107C50007088C8B100F082FF7188344AB0FBF2F03E
:107C600048432F303021B0FBF1F042494A6D42F0D9
:107C700001024A650A68AB68DB07FBD50B689B1AF3
:107C80001B031B0B8342F6D3FFF774FE0420E07046
:107C90004FF4C870BDE8F24309E6BDE8F183284817
:107CA000006801287047254E37683068400840005A
:107CB000306002F0AFBD2DE9F8431D4C207800285C
:107CC0002DD0207900282AD1FFF7E9FF1FDA40F2F2
:107CD000EF310FF2B000FEF797FB18E000F0B0FFB5
:107CE000804602F091FDE07805280BD0FFF7DBFF1E
:107CF0000D4DD5F8009000F03FF8C5F800903760C2
:107D000002F088FD02F08EFD404600F0D9FFE078D9
:107D10000528E3D10020A0700520FFF7E8FE002031
:107D20002070BDE8F18300000080004090D0030087
:107D3000B9FF002004ED00E010E000E094ED00E069
:107D4000DC520208104000400C0000400840004097
:107D50001C40004004400040F8F300201454020886
:107D600018A000400C40004080E200E000E100E08C
:107D70001854020838200040286820F0400028608D
:107D800002F044BD636C6F636B732E6300000000F0
:107D900010B5794C002000F012FE40F68C2188428C
:107DA0002068B4BF40F0080020F00800206010BD3B
:107DB00010B504467148018882B000F05CF89DF867
:107DC00000109DF80100FF2902BFFF2804200021B8
:107DD00004B1801C6A4A1368C0B20828A8BF0720F3
:107DE00023F4607343EAC010106008291068A8BF2C
:107DF0000721C00841EAC00010606248047013BD4A
:107E000000B56148018883B000F035F8BDF8000086
:107E10004FF6FF7188420EBF4FF4E1600A2190FBDC
:107E2000F1F0ADF800005748007808B353480188D6
:107E300002237F2201A8FEF749FC9DF80500BDF84A
:107E40000030FF2808BF0420811CC9B20829A8BF40
:107E50000721C1F12F0202EBD272C0F12F005210A4
:107E600000FB0320C1F12F01B0FBF1F0ADF80000E1
:107E7000BDF800000EBD02237F2200A8FEF726BC3D
:107E800070B5424C2568064600F068FE4049B0FBDC
:107E9000F1F070432F303021B0FBF1F0032809D30B
:107EA000616D41F0010161652168491B0903090BFE
:107EB0008142F9D370BD10B5040004D110BD4FF458
:107EC0007A70FFF7DDFF2046441E80B20028F6D10D
:107ED00010BD3048017869B9C078072818BF092853
:107EE00014D0032818BF112810D013281CBF152840
:107EF0000B280BD02848016841F480720260C80545
:107F000004D438210FF2A400FEF77EBA704738B5CA
:107F100004000D4605D0022C10D00FD3032C26D020
:107F200027E01E4C45B100F019FE1D49B0FBF1F0F1
:107F3000401EB0F5005F0CD2206018E04DB100F09B
:107F40000DFE690801EB4000B0FBF5F0B0F5003F15
:107F500001D3202032BD4108022C00F0010008BFEF
:107F6000104A02D0012C02D10F4A5060116000204B
:107F700032BD212032BD000000BC0040F653020893
:107F800018000040B4FF0020F853020838200040D9
:107F900090D003009607080838400040100004E025
:107FA00020A1070068D8004068C800407573625F70
:107FB0006572726F722E6300F8B50120FFF727FD1E
:107FC0000020FFF7F5FEDFF8EC43206840F00800E2
:107FD000206000F0CAFDFFF7DBFEDFF8DC03DFF80E
:107FE000DC630178F1604278DFF8D413CA608378EB
:107FF000DFF8D023D360C578DFF8CC33DD600779B4
:10800000DFF8C853EF60078A3760478A7760868A4F
:108010000E60C68A4E60018B1160418B5160818B6E
:108020001960C18B5960008C286000F0C2F820688C
:1080300020F01000206002F041FC02F062FE02F02D
:108040002EFCFFF779FD00F08EFDBDE8F14000F059
:10805000AABD70B502F085FE02F075FCDFF858038A
:10806000DFF85843017ADFF85853E160417AE9605C
:10807000827ADFF85013CA60C37ADFF84C23D360EA
:10808000067BDFF84833DE60868C2660C68C66602F
:10809000048D2C60448D6C60848D0C60C48D4C60AC
:1080A000018E1160418E5160808E186070BD70B578
:1080B000FFF785FCFFF76CFEDFF8FC02DFF8FC42FF
:1080C0000178DFF8FC52E1604178E9608278DFF8FE
:1080D000F412CA60C378DFF8F022D3600679DFF8C3
:1080E000EC32DE60068A2660468A6660848A2C60EE
:1080F000C48A6C60048B0C60448B4C60818B116073
:10810000C18B5160008C186000F053F800F00AF841
:1081100002F0D4FB02F0F5FDFFF754FDBDE870401E
:1081200002F020BEA348016821F0100101607047F1
:10813000F0B50B68A04C0F25A46B960005FA06F667
:10814000344215D0002606EB820724FA07F7FF0712
:108150000BD5B70005FA07FC23EA0C0330F812C070
:1081600005FA07F707EA0C073B43761C042EEADB07
:108170000B60F0BDF0B50B688F4CFF25A46BD600EB
:10818000B5402C4213D00025012605EBC20724FA86
:1081900007F7FF0708D506FA05F7BB43175C06FA91
:1081A00005FC0CEA07073B436D1C082DEDDB0B605B
:1081B000F0BD10B5804CA06B002822D0002285496C
:1081C00000F020F80122844900F01CF802228349C3
:1081D00000F018F80022794900F017F801227C49D4
:1081E00000F013F80222764900F00FF803227C49D0
:1081F00000F00BF80422734900F007F804F12400A2
:1082000035E010BD04F10800B4E704F124008FE765
:1082100010B5694CA06B002825D000226D4920467E
:10822000FFF7A8FF01226C492046FFF7A3FF0222B7
:108230006A492046FFF79EFF0022604900F014F8CB
:108240000122634900F010F802225D4900F00CF8A9
:108250000322634900F008F804225A4900F004F8A8
:1082600004F1100003E010BD04F1100060E7BDE868
:10827000104005225B495BE70320FEF72FBB00009F
:1082800010B502F0B0FD044602F0B1FDC0B208B96D
:10829000012C07D1072C11D8DFE804F004100608E0
:1082A000080A0C0E002010BD092010BD022010BDD0
:1082B000032010BD0B2010BD062010BD44F080002F
:1082C00010BD494800787047474880787047484853
:1082D0004FF40041C160082101604349887850B1E2
:1082E000424800680B78800900F0010083421CBFFF
:1082F0000870FEF782BD70472DE9F0413A4D3C4FC2
:108300000446AC700020B8654FF400483948C0F806
:10831000008008203860C7F80C8000F091FC002C29
:108320002B4E2549326822F4706214D042F4006268
:108330003260B26822F04002B260082200F066F8B3
:1083400002F0BF020A70082200F05AF802F0BF02E1
:108350000A72012113E042F480723260B26842F086
:108360004002B260012200F051F842F040020A706F
:10837000012200F045F842F040020A7200216970C3
:1083800000F09EFC4CB11C49062008606020B865D6
:108390007068800900F0010001E00020B8652870D5
:1083A0002878FEF72AFD14B11448C0F80080BDE813
:1083B000F081000000BC004088F3002000B00040C5
:1083C00000B2004000B4004000B6004000B80040D9
:1083D00004B000400CB000400CB200400CB40040AF
:1083E00004B2004004B4004025FD002008B0004065
:1083F00014A8004080E100E024BC004000E100E05F
:10840000CB8C62F30B230A7ACB8470474B8A62F3DE
:108410000B230A784B8270472A490A689209920115
:108420000A600A68104308604FF400412648016062
:10843000002101606420FFF723BD2DE9F047234DA3
:10844000204FD5F80090224C8046286840F4004028
:108450002860386820F480503860207868B16278ED
:108460001C48A17800EB820200EB880012F82A2C4D
:1084700010F82A0C891A461802E0012020262070E4
:10848000B0B2FFF7C9FF0FF2500A02E0B0B2FFF737
:10849000C3FF386B042805D0386B400754BF761EE5
:1084A000761CF3E7F86A38B184F80180A6701FFAE9
:1084B00089F02860BDE8F08740F221115046FDF7B1
:1084C000A3FFE6E7D0100040181000401C10004049
:1084D000C1FF0020604E0008616E616C6F677565BA
:1084E0002D76636F2E63000081014FF4FE5289B236
:1084F0000C20FCF71EBA2DE9F84F8F4CA5682068B8
:108500000127ADB200264FF00A08B9461FFA80FADB
:1085100000F04FFAB0202063DFF820B208E016F137
:10852000190FB8BF4FF00A08464436B27019A06060
:10853000DBF80000000702D559EA070028D0012027
:10854000FFF79EFCB9F1000F11D0AAF1030087429A
:1085500002DAF81C87B213E00AF5004020605746A3
:108560000621092000F0CEF94FF000090BE0DBF8FE
:108570000000000707D5042FA6BFF81E87B200270A
:1085800007F5004020601A2EC9DB6FF00908CBE721
:10859000A560C4F800A00820CBF800006848006877
:1085A00080B2BDE8F28F80B5624B66491B784FF010
:1085B000FF326BB1002819BF4A606348486041F23E
:1085C00011100860614841880088BDE8044092E7C6
:1085D000002819BF4A600A604860086000F0E9F9A5
:1085E000BDE804400621092000F0DDB938B50120BE
:1085F000FFF7D9FF04460020FFF7D5FF054601200D
:10860000FFF7D1FF4042001B00EB450000B232BD36
:108610002DE9FE4F4E4CDFF83C81A06A454EADF887
:1086200002002568D8F800B0307860B14FF6FF72CC
:1086300000210820FCF776F9ADF80000C022C02127
:108640000820FCF776F94448DFF81091007818B15B
:1086500048F26070C9F80000708840F4404040F073
:108660004C00C9F83C000220A0620120206040F2CA
:108670004C40FFF705FC0120C8F80C00C8F80000CA
:108680000020324F388040207880307800B12020A0
:10869000FFF72AFFFFF7AAFF8246402038807F209D
:1086A0007880FFF721FFFFF7A1FF0290504601F00D
:1086B00056FDFE2101FB00F70298AAEB0000019095
:1086C000307860B1029801F04AFD8246019801F0CD
:1086D00046FD80B207EB8A11B1FBF0F005E001988E
:1086E00001F03DFD80B2B7FBF0F080B2401CC70343
:1086F0001FFA8BF0C8F80000ADB20020C8F80C00DB
:10870000022020602560BDF80200A0620020C9F8A8
:108710003C00307830B1BDF800104FF6FF720820F1
:10872000FCF707F940F24C40FFF7AAFB380CBDE814
:10873000FE8F000006F40020C010004018A000408A
:108740000070004038100040EEEEFFFF90FF002068
:108750006020004028100040C5F30020D0100040E9
:1087600041003F2289B201E001463F220220FCF78E
:10877000E0B82DE9F04F564C564D95B0E06CADF891
:1087800010004FF6FF782068ADF80E004246E86A08
:10879000ADF80C0000210120FCF7C4F8ADF80A0088
:1087A000424600210B20FCF7BDF8ADF808004FF45D
:1087B0000040206000202861686148F2020000F05B
:1087C0008BF84CF68C30E0644FF4805248F2F000A5
:1087D000E86211460120FCF7ACF8424600210B206C
:1087E000FCF7A7F80621062000F0DDF8019000F064
:1087F00085F800904CF69C30E0640020FFF7B0FF55
:108800000621084600F07EF800260DF1140BB0B2E8
:10881000FFF7A6FF0621062000F074F800F08DF89F
:108820002BF81600761C202EF1DB00F086F81020C5
:10883000FFF796FF00F062F80099019A401ABBF822
:108840002010891A404301FB01094FF0100A11273B
:1088500000F04EF800F052F800F043F806DB8146D5
:108860001FFA87FA781C07B2202FF1DBBAF1100F3C
:108870000ED10F2700F03CF800F040F800F031F87E
:1088800006DB81461FFA87FA781E07B2002FF1D562
:10889000BDF81000E0644246BDF80E002060BDF84F
:1088A0000C00E8620120BDF80A10FCF742F8BDF8A0
:1088B000081042460B20FCF73CF8012028610020FC
:1088C00000F00AF84FEA4A00C0B215B0BDE8F08FD8
:1088D000C010004018100040286040F24C40FFF7E4
:1088E000CFBA0099401A404306FB0600484570473E
:1088F0003BF817000199461AB8B231E70621072064
:1089000000F051B870B505460E4601F07DFF3D4CB4
:10891000206C20F00800206401F084FF00F090F942
:10892000310341EAC511384A41F0010111600821C3
:108930002160BDE8704000F0C3B92DE9F041334C2F
:10894000334D304E25E001F05FFF324904200860CE
:10895000306C40F0080030642F6828684008400000
:10896000286001F057FFD4F80080206820F0400014
:10897000206001F04BFFC4F800802F6001F04AFF37
:10898000306C254920F0080030640420086001F0B4
:1089900049FF30680007D6D5082030601F480068BE
:1089A00080B2BDE8F08180B5FFF7ACFFBDE80140C3
:1089B000C3E7154801684908490001607047F8B5E8
:1089C0000746FFF71DFA044639460320FFF7EBFF81
:1089D000054639460120FFF7E6FF064639460020E6
:1089E000FFF7E1FF08490A68520852000A60401B7D
:1089F0000004711BB0FBF1F060434000000CF2BDBD
:108A00000000000018A000400470004000800040FA
:108A100094ED00E000E100E080E200E00070004042
:108A20004048018A40F6A772914202BF408A4FF443
:108A30007F41084203D1022801DB0120704700205A
:108A400070472DE9F84F8246884600F0F9F8364D18
:108A50002F680446286840084000286001F0DAFECC
:108A60000120DFF8BCB08BF80000FFF7D9FF20B978
:108A7000FF210FF2B800FDF7C7FC2A48D0F8289074
:108A800041464AF48070C84706462F6001F0C2FE96
:108A9000204600F015F900208BF800000FF2940436
:108AA0000EB1305D04E041464AF40070C847005DF5
:108AB000BDE8F28F2DE9F84F804689464FEA420A19
:108AC00000F0BEF8184E3768054630684008400090
:108AD000306001F09FFEFFF7A3FF28B94FF4A171AA
:108AE0000FF24800FDF790FC0E48D0F824B00023A8
:108AF000524649464046D8470446376001F08AFE50
:108B0000284600F0DDF80FF22C050CB1605D05E0A1
:108B10005346002249464046D847405DBDE8F28FA3
:108B2000BEFF00200000080894ED00E0666C617351
:108B3000682E6300000202024B4B46472D48006836
:108B4000C00701D42C4870472C48704780B5FFF708
:108B5000F5FF2B49096801B9400802BD80B5FFF750
:108B6000EDFF400802BDFEF7EEBE26480121816000
:108B70004EF6BE214160012101607047224901206B
:108B800008607047A52805D11E484DF6AD614160CB
:108B90000221016070471B480068C00701D5012011
:108BA00070470020704780B51849194A10200860A6
:108BB00018491948007858B103280CBF002001203B
:108BC000106040F6510008600020FFF774F906E0DD
:108BD000022010604FF400600860FEF76DFE072170
:108BE0000E4801600021016410200D49086000203A
:108BF00002BD00001C400040001BB70000366E01A3
:108C000020400040006000400860004080E100E03B
:108C1000080000400C600040ADFF002014A00040A0
:108C200000E100E070470EB403B070477047704732
:108C30000CB402B07047002070470020704700005D
:108C4000EFF31180602181F311887047174838B520
:108C50000446FFF7F5FF054615480021016008218D
:108C600054F8042B8260491E54F8042BC260F7D1DB
:108C70000121016001F0CEFD284613E00C490020DF
:108C8000086001F0C7BD38B545096D0109480A4CB7
:108C9000854238BF094CFFF7D3FF044945F0140261
:108CA0004C620A62BDE8324000F00AB848F3002086
:108CB00094ED00E09800002009000B1008000B1054
:108CC00080F311887047000070B5AE4C204602F06A
:108CD0002FFCD8B9204602F0E1FBFF28044615D04E
:108CE000A9490968405C851EE9B2204602F058FB9C
:108CF0000646E9B2204602F04CFA2146304600F022
:108D0000F1F82046BDE8704002F0F8B870BD0346A7
:108D10000A469BA10420FFE70CB480B502AA00F02C
:108D200036F801BC5DF80CFB00B587B0FFF7A8FA78
:108D30000021059102465021049100235421039102
:108D40000120002102910191904900910FF24C21E4
:108D5000FFF7E2FF8E488179C3788278039101881A
:108D60000291417901910179009142200FF238215D
:108D7000FFF7D2FF07B000BD10B504462146814879
:108D800002F077FB2046BDE8104002F0A9B82DE9BB
:108D9000F04F85B005460C4690460026FFF74BFF86
:108DA000F8B902F030FCE0B1012002F03EF8824652
:108DB000BAF1FF0F15D0002102F032F8294601A8C0
:108DC00002F027FC05469CB900F087F830B9504600
:108DD00002F097FC10B10420FFF729FF504602F083
:108DE0008DF805B0BDE8F08F8DF804200125641CD6
:108DF00020780028E8D0A0F130010A2905D20A2104
:108E000001FB0600A0F13006F1E700F066F800284B
:108E1000E4D122780025422A01A80ED0442A1AD093
:108E2000462A25D0572A0DD0622A3AD0662A2AD05F
:108E30006C2A25D0702A26D0D6E758F8040B8DF876
:108E40000400D3E758F8041B8DF804100225090428
:108E5000090E4170CBE758F8041B8DF804100A0A7C
:108E6000427004250A0C8270080E8DF80700BEE7D8
:108E700058F8041B504602F04CF90028B7D0ADE773
:108E800058F8046BB3E7012358F8041B662A08BF9F
:108E90000223F2B2504602F01EF9002808BF002655
:108EA000ECE7394858F8041B00681AF80090CFB274
:108EB000FF2F9CD017F800B00BEB0901C9B2504648
:108EC00002F067F9002889D1CDF800B000233A46B6
:108ED0004946504602F09CFA89E72A4601A95046C5
:108EE00002F015B92DE9F043122885B080460D46F1
:108EF00009D03A281DD04FF6FE71884204BF28469B
:108F000002F039FF34E02048224F00682E5C08E070
:108F1000284601F07FFF214601F022FF38682D5CD2
:108F2000203EFF2D24D0F6B2212EACBF20243446A3
:108F3000EEE703F008FB8146FEF75CFB0646FBF715
:108F4000EEFE0746FBF7E8FE0446FEF74BFB024643
:108F50000E480FF25C010390CDF8109023460E48A6
:108F6000006840880290019600973B20FFF7D4FEEE
:108F70002946404605B0BDE8F043FFF75EBE00005D
:108F800057460000F4F30020A8F20020F4F9002076
:108F9000E0520208B0F20020E0F9002042423870AE
:108FA000424242425742420042424242574200003D
:108FB000574242575738704200000000002203F029
:108FC0008BBB0000DFF86C1500200870FF21DFF874
:108FD0006805017001717047F8B5044603F096FB0F
:108FE0000546DFF85805DFF850750688204603F07F
:108FF000DAFCB0F5006F16D1204603F0F8FC00F063
:10900000ABFAFF280DD000F01EFA2146381D02F001
:1090100030FADFF82005017881B10089A9190E1A0C
:1090200010E09320F2BDFF21384602F04DFA0528EA
:1090300002DA21463846EAE73920F2BD0581314699
:1090400003F065FDB2B20321204603F02AFC03229F
:1090500000F070F8204601F043FF0020F2BDF8B5A3
:109060000446DFF8D4040078FF2813D0DFF8D0548A
:109070002968465C3746384603F0AAFC01460822B8
:109080002046FBF794FB08B90120F2BD28683F5C3D
:10909000B742F0D10020F2BDF8B5044603F02DFC34
:1090A000000B00F00105204603F0B6FC0646204602
:1090B00003F0A1FCB0F5404F11D1002D36D0314660
:1090C000002000F07BF90446FF2C2FD0002103F094
:1090D00017FE58B300F098F900F02AF826E0304661
:1090E00004F030F800F038FA0446FF2C01D10020DB
:1090F000F2BD01200021224604F052F8DFF844249A
:10910000D2E9006706430F43C2E9006775B1DFF893
:1091100038341B6833F814304FF4FE64234205D012
:10912000D2E9024520432943C2E902010120F2BDF0
:1091300040F080020521204603F0BEBB38B504464E
:1091400003F031FCB0F5006F0CBF0125002520466F
:1091500003F03EFC04462146284600F02FF9FF2884
:1091600010D18DB1204603F0EDFF00F0F5F9FF2896
:109170000AD0DFF8D413096831F810004FF4FA610F
:10918000084201D0012032BD002032BD2DE9F0415E
:1091900007460C46DFF8A05303F005FCB0F5006F5E
:1091A0000CBF281D28460078FF2846D0DFF8901312
:1091B0000968405C0646B7423CD1FFF741FD804656
:1091C0000521304603F07FFB00F07F00471EFAB216
:1091D0000521304603F070FB002C18BF312C01D064
:1091E000F8B200BBFFF72CFD0746F0B203F0DBFB43
:1091F000B0F5006FF1B205D1281D02F065F900F05D
:1092000007F902E0284602F05FF93846FFF758FDFB
:109210004046FFF755FD2146304604F0D5FE304666
:1092200001F06CFE04E000F0F3F84046FFF748FD63
:10923000012003E0765C8642BDD10020BDE8F081CC
:1092400038B503F063FABB4C21892081421A4FF6EE
:10925000FF75ADF8005000A990B200F0FDF8BDF820
:109260000000A84202D10020207031BD01462046F6
:1092700003F04DFC31BD00214FF6FF70ECE02DE90D
:10928000F84FDFF8C092D9E90001002908BF002893
:1092900000F08D8000264FF00108B2460027002420
:1092A000FFF7CEFCD9E90023844608EA02001AEA57
:1092B000030108BF002817D06FEA08006FEA0A010F
:1092C00002400B40C9E90023D9E9025B012708EA03
:1092D00005021AEA0B0308BF002A05D028400BEA52
:1092E0000101C9E9020101246046FFF7E9FC002FF2
:1092F0004CD09548006830F81600810746D5934950
:10930000096831F816702CB100F49871102908BF63
:10931000012500D000258E4A12680021B154F4B115
:1093200080061CD5380A8DF801008DF8007000A960
:10933000012000F043F80446FF2C07D100F039F873
:109340004FF6DF72114020F8161014E0002103F0F0
:10935000D7FC80B100F058F8FFF7EAFE0BE085F08B
:109360000100044207D000F024F841F4006120F825
:10937000161005F0CFF900953B461A226CA1032088
:10938000FFF756FC2946384605F029FC761CF6B254
:109390004FEA4A0040EAD87A402E4FEA480806DAF7
:1093A000D9E90001002908BF00287FF477AFBDE8A4
:1093B000F18F6548006830F8161070472DE9F041CC
:1093C00088465D4900281ABF091D0225082508782E
:1093D000FF2816D05A4E3168475C3C4600F014F81E
:1093E00000060AD4204603F0F3FA01462A46404616
:1093F000FBF7DDF908B9204604E03068245CBC4284
:10940000ECD1FF20BDE8F0810521204603F05BBAD6
:1094100070B50021202005F050FC47480079FF2856
:1094200010D0474C2168455C2E46304603F0DFFAE9
:1094300000F092F8FF2801D000F005F82068365CB3
:10944000AE42F2D170BD4049096831F8102042F0B7
:10945000200221F8102070472DE9F84F80460FF2C6
:10946000F400354E0068364F00908A46344600E0DE
:10947000341DFFF7E5FB814606E0204602F00EF8BA
:10948000294600A801F0F5FF204602F051F840B946
:10949000386821780D5C0321284603F0F9F98045EE
:1094A000EBD2301D844208BFFFF7B2FF4846FFF7FA
:1094B00007FC2078FF281CD0396810F801904D4631
:1094C0000321284603F0E4F9A0EB080B1FFA8BF206
:1094D0000321284603F0E5F9BAF800001FFA8BFBD8
:1094E000834588BF8346AAF800B038682D5C4D4597
:1094F000E6D1301D8442BBD100A802F019F8A8B90A
:1095000000A801F0CBFF044603F001FA00F087F851
:10951000FFF77AFF000603D44221204604F054FDF1
:10952000204601F0EBFC00F0AAF8E5E7BDE8F18F7A
:1095300042574200FCF900201CF4002038F30020C0
:10954000B4F20020B0F40020C4F20020BCF20020ED
:10955000C8F20020FF000000F8B50D4C2768060097
:1095600014D0FFF76DFB0B4D21682A7821F81260AB
:1095700037F8021BB142FBD1FFF7A2FBB81E2168EE
:10958000401AC0052978000E884200D1FF20F2BDA4
:10959000BCF20020C0F200202DE9F047DFF864465D
:1095A000DFF864562068DFF864A6DFF86486DFF829
:1095B0006496E8612862002625E02068482101FBC6
:1095C0000607482200213846FBF7EAF898F8000021
:1095D00038700020387378730B20B8730320F87349
:1095E0004FF6FE7038824FF6FF70788200F0D0FDA3
:1095F000387600F0CDFD787600F0CAFDB876761C9E
:109600009AF80000F876F6B299F800008642D4D3B2
:10961000281DBDE8F0470222FF21FBF7C1B82DE964
:10962000F041DFF8F4550FF21068044695F9000098
:1096300010F1010F03DA52214046FCF7E5FEDFF896
:10964000D47538788442264605D3FE2E03D05421A3
:109650004046FCF7D9FE2878DFF8AC15401C28708E
:1096600040B2401804743878844200F073F828BF80
:109670000E78482202FB0600C861BDE8F08110B5F3
:10968000DFF8944594F90000002802D5652100F028
:10969000A3F82078DFF87015DFF878350A781B78A2
:1096A000401E207040B200284EBF10464018007C7B
:1096B000984238BF024600F04DF8482303FB0200F1
:1096C000C86110BD10B50020DFF83C15482400E04B
:1096D000401C00F07BF808D2DFF82835CA691B6807
:1096E00004FB00339A42F3D110BD7E216AE0DFF81B
:1096F000280590F9000010F1010F01D101207047F9
:1097000000207047FE208AE7DFF8FC0400787047ED
:1097100038B50446DFF8F054FFF7E9FF50B9DFF839
:10972000F80490F900004019007CFE2802D09A212C
:1097300000F052F8DFF8DC040078844201D3B12055
:1097400032BD00F007F82C70482101FB0400E861ED
:10975000002032BDDFF8AC040068704738B5DFF890
:10976000B804DFF8A45490F900406019007CFE288A
:1097700007D0FFF7BCFF20B9B62100F02DF8FF207D
:1097800032BD611E00E0491E49B2080004D44819E8
:10979000007CFE28F7D032BD287832BD10B50020FD
:1097A000DFF86414482400E0401C00F00FF808D2F1
:1097B000DFF850340A6A1B6804FB00339A42F3D185
:1097C00010BDD52100F008F8FF2010BDDFF84424BB
:1097D0001278C0B2904270470FF25C40FCF714BEA2
:1097E00010B5FBF799FADFF82044216A897B88429B
:1097F00003D00846FBF788FA50B9FBF790FA014608
:10980000206A90F90F00814204D0FBF78CFA08B16E
:10981000012010BD206A008AFDF7E7FE206A408A19
:10982000FDF7EBFE206A007B012818BF0020FDF742
:10983000C6FE002010BD10B500F041F802D3F7219C
:10984000FFF7CAFFDFF8D403007808B9702010BD15
:10985000FFF780FF482101FB0400DFF8AC1308622A
:10986000BDE81040BCE7DFF8B4130870704710B5CE
:10987000DFF8AC430020207005F057F920B92046EE
:10988000BDE8104003F038B900F065F800F017F8B3
:109890000AD22046FFF7C3FE02F0FCFE08B105F035
:1098A000CDFDFFF7ECFE05E0FFF70CFF044600F0EE
:1098B00014F818B12046BDE81040BCE710BD0446BE
:1098C000DFF85003007884427047CF48006A008A6E
:1098D0007047CD48006A408A7047CA4909684822E3
:1098E00002FB0010407B02281CBF1128432801D135
:1098F0000120704700207047C2490968482202FBD6
:109900000010007B012818BF022804D003281CBFC8
:109910000628072801D10120704700207047F8B5BC
:109920000024B84DBB4E00E0641C3078E4B28442A1
:109930000FD22868482101FB04072046FFF7CDFF1E
:109940000028F1D0387B012818BF0228ECD120462E
:10995000F2BDFF20F2BD38B50024AE4D00E0641C1E
:109960002878E4B284420BD22046FFF7C5FF0028D6
:10997000F5D02046FFF7B1FF0028F0D0204632BDD9
:10998000FF2032BD70B500240025A24E09E0284614
:10999000FFF745FE02F04EFE00B10124FFF76FFE17
:1099A0006D1C3078EDB28542F1D3204670BD80B594
:1099B000FFF7D1FFFF2801D0012002BD002002BD2A
:1099C00038B5984C054620680321A940884320609B
:1099D000FFF778FEA84021680843206031BD914917
:1099E000096821FA00F000F00300704738B500F074
:1099F0001AF82946204602F0AEF911E010B50446E7
:109A0000FE20FFF70CFE204602F047F8BDE81040AC
:109A100035E638B500F007F82946204605F024FF62
:109A2000BDE831402BE604460D46FE20F7E5F8B5CB
:109A3000784E754D04463078687000270DE0384642
:109A4000FFF7EDFDE869416944F8371004EBC70101
:109A5000C07E0871FFF713FE7F1CFFB2307887428B
:109A6000EDD3F1BDF8B504460025674E0DE028465C
:109A7000FFF7D5FDF06954F83710416104EBC701D9
:109A80000979C176FFF7FBFD6D1CEDB26149707875
:109A90000978814238BF08462F468742E7DBF1BD8F
:109AA00038B5FFF70FFE5B4A574B1278002100E0F4
:109AB000491CC9B291420DD29C780C1994FBF2F565
:109AC00002FB1544E4B2E4182579854202D0FF2D4B
:109AD000EED1207131BD70B54B4C4E4EA0780019BF
:109AE00005793078854203D34FF4F571FFF774FEA2
:109AF000A0780219FF211171401C317890FBF1F21E
:109B000001FB1200A070284670BD3F4881780818FC
:109B10000079FF2801D0012070470020704710B560
:109B2000FFF745FF78B1384CE069007B001F022841
:109B300009D21420FFF744FF04F10800BDE81040EB
:109B4000642102F0E4BFBDE8104003F00EB980B517
:109B50002D49002008721420FFF741FFFFF75FFD39
:109B600003F003F9BDE8014089E500002DE9F84361
:109B70008146FFF7A7FDB9F1070F0FF2BC082A4C89
:109B8000214F2A4D2A4E33D8DFE809F0040A0A1B78
:109B90001B1B3939F96900208862283188602EE062
:109BA000FFF705FF20B140F221214046FCF72CFCD5
:109BB000F8693168816228302168816029780171F3
:109BC0001DE02A783568F9690E2303FB025503FB73
:109BD00000538B622831236803EB8202154B1B78FC
:109BE00002EB830202EB800088600120087106E02E
:109BF0004046BDE8F44340F23721FCF705BCBDE820
:109C0000F1830000F0F20020C4F9002035F30020B9
:109C1000A8FF0020F4F200201AF4002019F400201C
:109C2000E8F90020F0F9002000F30020FCF2002009
:109C3000F8F20020C0F20020656D6265722D6D752E
:109C40006C74692D6E6574776F726B2E6300000003
:109C500038B504460D46012005F0DEFE5D48002DB6
:109C600012BF00210178491C01705B4844705B48B9
:109C7000FDF770F9BDE83240002005F0CDBE10B50B
:109C8000002814463FD0402823D0882818BF8928B0
:109C900040D08D282FD08F2846D1514800780428F5
:109CA0000DD144B14F490220087040F60620BDE8AE
:109CB000104005F0B9BEFDF70CFC312030E001206A
:109CC000FEF7B5FFFDF705FC002C0CBF312000208E
:109CD00026E04048444900780978884204D2BDE82B
:109CE000104000210120B3E70020FEF7A0FFFDF7A0
:109CF000F0FB402014E00020FEF799FF0021202017
:109D0000FFF787FE0BE00120FEF791FFFDF7E1FB77
:109D1000002005E00020FEF78AFFFDF7DAFB8D202A
:109D2000BDE8104003F0E6B8BDE81040C9213CE0B2
:109D30002C480078022800D0704780B52B48007866
:109D4000042807D00C280ED129480078022818BF13
:109D50007C2808D105F083FEFDF7BBFBBDE802407F
:109D6000002003F0C7B801BD38B50024FEF768FF36
:109D700005461C48007810B9FDF725F8044628462A
:109D8000FEF79EFF002C1CBFBDE83140FAF778BDFE
:109D900031BD80B5FFF7E8FFBDE804404FF4A051A6
:109DA000144802F0B4BE40F205110FF25000FCF767
:109DB0002BBB38B5104C2068216C01EA0005ADB210
:109DC000680705D5206C20F00400206404F08AFDAB
:109DD000256031BDC8FF002038F400207CFB002046
:109DE00011F4002070FB00202CF40020C9FF00209B
:109DF000CAFF002010FA002008A000406D61632D0A
:109E0000656D3235302E630070B504460D4616463A
:109E1000FDF7BBFB38B16078002E14BF40F0200086
:109E200000F0DF0060702946204601F0EAF8FF28C4
:109E300021D0934C0146201D01F01BFB914D288839
:109E40002188401C288080B281420AD26888401C48
:109E50006880201D01F022FB01F050F82888401E88
:109E60002880208829888842F3D3BDE8704086483E
:109E7000007802F02FBF70BD2DE9F04FA5B08246EB
:109E80000027FEF7DDFE7F4C2188491E2180FEF76A
:109E900017FF504600F0BEFF082390F8008040787E
:109EA000DFF8E891029000975146D9F800001AF8BF
:109EB0000000A0F10802D2B203A801F0BEF803AE80
:109EC0007078FFF7ACFB7248007808B36068002830
:109ED0001DD0F078FDF70CF84146FDF710F8074665
:109EE00096F9020000F166060020009008F10103D7
:109EF000DBB20022514605A801F09FF8FFF702FCF3
:109F0000636872B2394605A89847FFF7B8FB95E039
:109F1000029800F00700022827D0FF208DF80400E7
:109F2000504600F077FF00F1010B584602F020FD8B
:109F30000446A8EB0400801E45B2002D15D401A9EB
:109F4000584605F09FFE002879D1029800F00700DE
:109F500001280BD19DF8040004EB0B0104F059FB20
:109F600020B99DF8040000F0C9FF68E09DF80400E6
:109F7000D9F80010475C4749096800F801A0D9F8F2
:109F800000001AF8000000F120019DF80400C9B299
:109F900000F046FF9DF8040002F0B4FC00F00C0055
:109FA00004281CBF6519002468B280B20090631CAD
:109FB0009DF804009BB25246394601F029FAE9198E
:109FC0009DF80400C9B201F0E4F8334970780978CB
:109FD000884204D3BD210FF2C800FCF715FA9DF8A2
:109FE000040002F08AFC71788004800C40EA813120
:109FF0009DF8040089B202F082FCF078FCF778FF4B
:10A000004146FCF77CFF02469DF80400032102F064
:10A0100053FCB07800F166029DF80400D2B204212E
:10A0200002F04AFC9DF80C209DF80400052102F086
:10A0300043FC9DF804A0504602F0B8FF01275046AB
:10A0400000F05CFFFFF71BFB384625B0BDE8F08F42
:10A0500010B50C4C618829B1C9B21D20FFF7D9FC9D
:10A06000002060800D4801F019FAFF2803D0FFF7A7
:10A0700003FF0028F6D010BD084801F059BA0000CF
:10A0800024F4002008FA0020CBFF0020A8F20020D2
:10A09000B9F90020B0F20020F4F2002028F40020EA
:10A0A0006D61632D726563656976652E63000000DE
:10A0B00038B504461B4D214600F03DF8E860211DEF
:10A0C00000F039F8A86004F1080100F034F8686085
:10A0D00004F10C0100F02FF8286031BD7047F8B58D
:10A0E0000446114D114E8020286006203060072064
:10A0F000286030688007FCD5002704EB870100F05A
:10A100001AF87F1C042FA862F7D330684007FCD5EB
:10A1100000262A6B04EB860100F00AF8761C042E58
:10A12000F7D3F1BD383000400030004010A00040AF
:10A13000002003F012B8002003F01DB870B50446EB
:10A140000D46FEF77DFD06462846FFF7B1FF204687
:10A15000FFF7C5FF3046BDE87040FEF7B1BD0028EF
:10A1600048BF40427047000081B209B94BF6EF6129
:10A170000E4A1180000C08BF4FF6CE205080704769
:10A180000288130448BF4A405100018010467047BE
:10A1900038B5064C62212046FFF7F2FF054641F232
:10A1A0000B01A01CFFF7ECFF684032BD42F300201A
:10A1B000EFF3118060288041C043C00F704700005A
:10A1C000002181F3118870472DE9F04FDFF8C44575
:10A1D00093B0074660681090072F08BF032702D08E
:10A1E000082F08BF0227DFF8B05528686A68A968F9
:10A1F000EB6840EA022040EA0140296940EA036234
:10A20000CDE902216868400703D5E06940F002000B
:10A21000E0612868400703D5E06940F00400E06190
:10A22000DDE90223E969012088401040002118B1CE
:10A23000E06940F00800E061012FDFF85485C8E9CB
:10A24000001100F03782C0F05D82032F1DD004D3CF
:10A25000042F40F05782616017E000F05CFAC007FD
:10A2600003D5E06940F04000E06100F054FA400797
:10A2700003D5E06940F02000E06100F04CFA80076F
:10A2800003D5E06940F01000E061FEF7D9FCFEF76D
:10A2900082FC8DF83C000027DFF80015DFF8006530
:10A2A000C1F580310120090B8840401EB063000ACF
:10A2B00007D1DFF8F004007818B1606C40F020009E
:10A2C000606400F028FA0E90DFF8DC04406C0D901A
:10A2D000DFF8D804C06C0C90DFF8D004006D0B9050
:10A2E000DFF8C804406D0A90DFF8C004806D099063
:10A2F000306808907068079070690690706A0590E1
:10A30000DFF8AC04D0F800E0DFF8A804006804909F
:10A3100002202060DFF8A00400688DF80000DFF85C
:10A320009C0400688DF80100DFF8940400688DF843
:10A330000200DFF8900400688DF80300DFF888045D
:10A3400000688DF804004FF0FF306062DFF87C0495
:10A350000068C0040CD56868C00709D5E069C0076B
:10A3600006D5D8E9000140F48070C8E90001012752
:10A37000DFF85804006880040CD56868400609D5E9
:10A38000E069C00706D5D8E9000140F48040C8E97B
:10A3900000010127DFF834040068400412D5DDE92C
:10A3A0000223A9690120884010400BD0E069C00752
:10A3B00008D5D8E90023A969012707FA01F010435D
:10A3C000C8E90003DFF804040068000415D5DDE9DE
:10A3D0000223E9690120884010400ED0E069C007DF
:10A3E00002D4E069000708D5D8E90023E96901270C
:10A3F00007FA01F01043C8E90003DFF8D003006852
:10A40000C00309D5E069000606D598F8050040F0BC
:10A410000800012788F805004FF0000C6868C007A5
:10A420006868DDE9022348BF4FF4805C400648BFFE
:10A430004CF4005CA96901208840104018BF4CF41E
:10A44000804CE969012088401040E06918BF4CF455
:10A45000004CC00605D4E069800602D4E0694006DD
:10A4600001D54CF0100CE069000648BF4CF4803C6C
:10A470000CEA0E09A520FEF785FB0120E063E069E8
:10A48000A16B11B1616A0142FAD0616A014200F028
:10A49000E9800020E06398F8050040F0400088F86B
:10A4A000050000F0B1F90720BF4908600F20BF493F
:10A4B0000860FEF7CBFB1098BB4960600E980864FB
:10A4C0000D984864B9490C98C8640B9808650A98B7
:10A4D000486509988865B7490898306007987060A2
:10A4E0000698706105987062B148C0F800900498B1
:10A4F00008604FF0FF30B64908600021AE480068A0
:10A5000088F80000AD48006888F80100AC48006891
:10A5100088F80200AB48006888F80300AA48006881
:10A5200088F80400626AE069EF691040D8E90069C0
:10A53000DDE90023564089EA0309DDE902231640DC
:10A540000206520E02F0010256EA82260206920E1E
:10A5500002F0010256EA82020606F60E06F0010635
:10A5600006FA07F7FE1709EA030317431E4300F430
:10A570007C70242202F014FE38433143C8E9000104
:10A58000FEF75EFB00F04EF9002020609DF83C00D5
:10A5900008B1FEF7EAFA98F8057085480068C0032C
:10A5A00004D5C7F3C00008B12020206200F0B3F842
:10A5B000800704D5F80702D57B490220C86000F067
:10A5C000AAF8400705D5C7F3400010B1764904202A
:10A5D000C86000F0A0F8C00705D5C7F3800010B12F
:10A5E00071490120C860D8E900237048C06C10F0A0
:10A5F000E00F18BF12F4807003D074494FF48050FC
:10A6000008606A48006D10F0E00F18BF12F4804037
:10A6100003D06E494FF4005008606448406D10F05C
:10A62000E00F08D0A96901208840104003D0674995
:10A630004FF4804008605D48806D10F0E00F08D056
:10A64000E96901208840104003D060494FF4004080
:10A65000086047F0800088F8050013B0BDE8F04FAF
:10A66000FFF7AEBD002F7FF416AFB0695149DFF898
:10A6700064B140084000B0614FF20F0A4D48806855
:10A6800040F00400886040F20721BBF800008842D7
:10A6900004BFBBF80200504504D14CF23C30ABF88B
:10A6A00002000127012005F0AFFB002F01D0ABF81D
:10A6B00002A0F8E6FEF76FFA0446A520FEF762FA5C
:10A6C00000F0A2F8FFF77CFD434DD5F80080286824
:10A6D00040084000286000F09DF8404F3E68386810
:10A6E00020F04000386000F091F83E60C5F800802E
:10A6F00000F090F80CB1FEF738FA13B0BDE8F04F57
:10A7000000F090B813B0BDE8F04F40F23C410FF2BA
:10A71000D800FBF779BE2448006C704710B51E497D
:10A72000D4B20C601404240E4C60C2F307448C6055
:10A73000140E04F01E04CC6003F00F020A61002323
:10A74000274A13600B68002B04BF4B68002B07D10E
:10A750008B68002B04BFCB68002B01D1096919B1AC
:10A76000116841F001011160116841F4007111603C
:10A77000116841F080011160BDE8104024E51949DD
:10A780000978890141F480420023C7E700000000F6
:10A79000A8F400200400004008BC004000000000B5
:10A7A000044000409807080814A0004014A8004086
:10A7B00000E100E008ED00E008B0004008B2004011
:10A7C00008B4004008B6004008B8004000E200E0CD
:10A7D00080E200E00000002094ED00E000800040F6
:10A7E0002000004026FD0020736C6565702E63001C
:10A7F00003480188034808237F22FBF767BF00BF97
:10A800001E540208F4F9002072B6704700BF30BF32
:10A8100000BF7047BFF35F8FBFF34F8FBFF36F8FE2
:10A820007047000062B67047DFF8180400214171DC
:10A8300081711022DFF81004016C4908490001649D
:10A84000016C21F400710164DFF800140A63202216
:10A850000A6300224A650A664A668A6502224A65D8
:10A86000DFF8EC230A6002F18D034B600A614B6153
:10A87000DFF8E0231268120709D5026C42F00102EA
:10A880000264026C42F40072026401220A634FF611
:10A89000FF7101604020DFF8C0130860704710B5F9
:10A8A000DFF8A0430020A0700120E070207100209C
:10A8B0002070FDF7E5FC6070BDE8104070B5FFF753
:10A8C000B3FFDFF89803DFF89043DFF8946348F2B2
:10A8D000944101604FF40055082101610022DFF826
:10A8E0008403DFF8841305600A65DFF8802353686A
:10A8F00023F4706343F40063536040231361022325
:10A900000B60DFF86C331D60256040250D65156810
:10A9100025F4704545F4804515604FF48045056089
:10A920000020486503203060042008601D60256019
:10A930002020486504201061106820F4706040F405
:10A940008070106070BD80B501E0FEF717F9C14856
:10A9500000680007F9D501BD58B1C648016849062D
:10A9600005D5BC490968090744BF0421C16000201E
:10A9700000E00120B349C8707047B2490A7922B992
:10A980000870012200200A714870704738B50446EB
:10A99000FEF756F90546204600F016F8044628460C
:10A9A000FEF78EF9204632BD80B5B34A1021116002
:10A9B000A7494A78A72A0EBF08700320FFF7DDFFDA
:10A9C000BDE802400120E1E72DE9F8439D4CDFF8A6
:10A9D000A48221799F4A29B113681B0744BF04232D
:10A9E000C8F80C30A378B3B10420C8F80C00D8F82C
:10A9F00000004006FBD50420C8F808000020A07025
:10AA0000E07828B93220FDF73BFA0420C8F80C00A2
:10AA10000020BDE8F28300281CBF60790028974E13
:10AA2000894F8B4D3CD031B100202071022221464C
:10AA30002846F9F772FEE07810B10420C8F8080043
:10AA40004FF0FF092878052803DAA720A870032013
:10AA50001AE0FE2818BFFD2813D16878862805DB88
:10AA600040F23F110FF22420FBF7CEFC6978491920
:10AA7000A72088706878401980F803906878C01C17
:10AA800002E0A72068700220A071C6F81C90012087
:10AA9000386004203061386C40F001003864B4E75D
:10AAA000F368DB074FF4007013D41268120710D557
:10AAB00000F054F800F052F801223A6038603A6C25
:10AAC00042F001023A643A6C42F400723A640122A4
:10AAD0003261326812B93A68920599D501226271E1
:10AAE0000422C8F808202B786A783C68A40513D49F
:10AAF0003468022C8CD3A3F1FD04012C88D8862A5B
:10AB000005DBFFF791FE0120FFF737FF80E7346890
:10AB100002F103084445F9D33C6C640864003C64CA
:10AB20003C6C24F400743C6410243461386019B126
:10AB30000120FFF72BFF6BE750198078A72803D07F
:10AB40000320FFF71AFFF3E7FD2B03D10420FFF7E3
:10AB500014FFEDE7FE20287001205AE7F2698DF816
:10AB60000020F2698DF80020704738B53648012181
:10AB700001600168890503D5016C21F4007140E092
:10AB80003F4A042111603F498A6A520736D42D4B4F
:10AB900001225A71CA69022A34D32D4A13780A2B2A
:10ABA00006D00B2B0AD0FD2B18BFFE2B0ED031BDCB
:10ABB000016C490849000164822004E0016C4908E5
:10ABC00049000164C120BDE83240EDE653781C46DF
:10ABD000862C05DBFFF728FEBDE832400120CCE6DD
:10ABE000CD69DB1C5B1B5BB2052B03DBA218921C3F
:10ABF0000A6003E0C969E21C914203D3016C490871
:10AC00004900016431BD18490220086001200D4946
:10AC10008870704738B51449194C0A4D04200860F3
:10AC2000206019480068A979091D88421CBF0220CC
:10AC3000FFF7A3FEFFF7F8FDE87808B9042060608D
:10AC400031BD000088FF00200CA8004000C000407B
:10AC500018F9002008B0004000E100E000B000401A
:10AC600020BC004080E100E014A8004000B2004099
:10AC700080E200E008B2004030C0004020C0004048
:10AC800010B2004004C0004028C000407370692D1D
:10AC900070726F746F636F6C2E63000070B52C4818
:10ACA0002C4942780B685B0725D5032A23DA838871
:10ACB00000EB4204A3810123847803FA02F22243C9
:10ACC0008270254C0278002A12D0002522FA05F65F
:10ACD000F60708D5AB4045705A40027010EB4500AE
:10ACE000808A206007E06D1CEDB2032DEEDB02E0F0
:10ACF0002260032242704FF6FF700860BFF35F8F3F
:10AD000070BD134800210170002203214170002111
:10AD1000C1700521018100218170001D0E490A606A
:10AD20004A604FF400428A601022CA6048610120E4
:10AD300088610320C8600421064801644FF6FF7152
:10AD400001604FF4006005490860F9F727BE000074
:10AD5000F4F4002010A8004004E0004000E100E00E
:10AD6000704770477047000030B5224801680020E6
:10AD7000002201249440CBB2234213D00FF284006E
:10AD80001D4C30F8120006284CF23C324FF20F03F3
:10AD90001DD16088984216D12188080A0B2812DA42
:10ADA000084612E0521C92B2082AE2D313490881E5
:10ADB00040F201720889904204D11148D0E9002381
:10ADC000C1E9002330BD4FF4C0606280EEE740F27D
:10ADD0000725A84201BF618899422188A942E5D18F
:10ADE00062800846E2E705480089000A7047034888
:10ADF000008970472C0000400000002018F500205A
:10AE0000900000200104020401030105060007026E
:10AE100003090109DFF8F816096801EB40107047D3
:10AE2000DFF8F0261268815470472DE9F0410400E4
:10AE300035D0FDF705FFDFF8E016DFF8E0360E78D5
:10AE4000FF228046FE2EDFF8D8061BD100260E70AA
:10AE5000DFF8D0C6DFF8D06637781F70002708E02B
:10AE600007F1010E07F805E0DCF800507A555FFAAB
:10AE70008EF796F800E005687745F1DB0EEB0506E6
:10AE800006F8012C1E78A6420BD24046FDF718FFAB
:10AE90000520FDF7CCFE00211B20FEF7BAFDFF20A8
:10AEA0001CE0361B1E70DFF884360E780F78D3F85E
:10AEB00000E0012507F80E50641E056817F805E04C
:10AEC00081F800E0E4B2002CF0D17A550021304640
:10AED000FFF7A6FF4046FDF7F3FE3046BDE8F081E0
:10AEE00010B50446FDF7ACFEDFF840160968625C59
:10AEF000521C6254BDE81040FDF7E2BE2DE9F0415E
:10AF0000054600F031F80446FDF79AFEDFF8082602
:10AF1000DFF80836DFF80866DFF81086FF2D1FD04F
:10AF2000D8F800106F5C7F1E6F547F27D8F800E0C0
:10AF300015F80E10394213D13168695C002705F805
:10AF40000E701F787F1C1F70FF29376892F800E091
:10AF500005F807E0157006BF2546FF240D46DDE71E
:10AF6000BDE8F041FDF7ACBE80B5DFF8C01509685B
:10AF7000415C090603D5FFF74DFF007802BDFF20B5
:10AF800002BDB0B504460D46FFF7EEFFFF2818BF1F
:10AF9000FFF7B4FFFF2DDFF8947504D13868215C0A
:10AFA00001F07F0106E02846FFF79AFF3868215C30
:10AFB00041F0800121542046FFF72CFF0570B0BD01
:10AFC0000EB478B504460120FFF72FFF0546FFF7C2
:10AFD00021FF0646FF2D08BFFF200FD0E1B2284613
:10AFE000FFF71EFF05A8002104E050F8042B06F827
:10AFF000012B491CC9B2A142F7D3284672BC5DF8A7
:10B0000010FB70B504460D4605F11F000004400D0D
:10B0100082B0C0B2FFF709FF0646FF2E0CD02946CA
:10B02000FFF7FEFE3CB1012000902B460022314686
:10B03000204600F002F8304676BD73B500F0BBF84C
:10B04000085C15461E467119884203DA4FF4B07148
:10B0500000F0DAF866B1294601A800F0D9F80246F6
:10B0600006989DF8041000903346204600F001F841
:10B0700073BD2DE9F843089CDFF8A4840546894692
:10B0800016461F460BE04A5D0A54491CB142FADBE2
:10B09000D8F80000BF1B751919F800900026FFB200
:10B0A000BFB14846FFF7B6FE3018F1192029B2BFEC
:10B0B0003E46C6F12006F6B2324624B9014628467D
:10B0C000F9F72BFBE4E7012C08BF2946F8D0002153
:10B0D000DCE7BDE8F1832DE9F04100F06CF882B0C7
:10B0E0001600255C88461F460ED07119C9B220464D
:10B0F00000F04FF808B1182007E0009733462A46C1
:10B1000021464046FFF799FF0020BDE8F681012364
:10B11000E1E70A4600E0521C1378002BFBD1521ADB
:10B120000223D2B2D7E7F8B5044601F11F00C504E7
:10B1300002F11F00C0042D0E000E05B9012500B953
:10B140000120854223D08542DFF8D46310DA401B0A
:10B15000C0B2FFF76AFE0746FF2F01D10020F2BD03
:10B16000691EC9B2204600F02BF8316847540EE042
:10B170008A420CD2411EC9B2204600F021F8044692
:10B180003068205CFFF7BAFE3168FF206054012070
:10B19000F2BD38B500F00FF80D46215C2A46204676
:10B1A000FFF7C1FF28B129462046FFF739FE0020EE
:10B1B00032BD182032BD0446DFF8580300687047DE
:10B1C00004E0DFF85C231268805C491EC9B20029E4
:10B1D000F7D1704711B581B0DFF8380300680C462D
:10B1E0009DF80410085C844203D34FF4F47100F01E
:10B1F0000BF8214601A800F00BF804469DF8040066
:10B20000FFF708FE201816BD0FF24830FBF7FCB818
:10B2100038B504460D46E9042078090EFFF7D0FF43
:10B22000207005F01F0032BD80B5FFF7D3FF007816
:10B2300002BD10B51446FFF7CDFF047010BDB0B5C8
:10B24000FFF7B9FF82B0255CFF2C03D14FF40271E8
:10B25000FFF7DAFF05F11F000004400DC0B2FFF751
:10B26000E4FD0746FF2F0AD02946FFF7D9FD0095D8
:10B27000002322460021384600F0CAF83846B6BD01
:10B28000F8B504460D4616460120FFF7CEFD0746E9
:10B29000FFF7C0FDFF2F01D1FF20F2BD33462A4644
:10B2A0002021201800F020F82118C9B23846FFF7F5
:10B2B000B7FD3846F2BD10B582B004AC009400F082
:10B2C00001F816BD10B514461A46029B091B20183A
:10B2D000BDE81040C9B207E00CB480B502AAFFF780
:10B2E000CFFF02BC5DF80CFB2DE9F0478046164607
:10B2F0009946C24600250C460AE03A465046F9F700
:10B300000CFA7819BA44401EC5B2681CC5B2761C46
:10B31000A5423CDA3078002839D0312818BF3228CD
:10B320000ED159F8041B0AF8011B3228EDD1681C14
:10B33000C5B2AC42A4BF08120AF8010BE5DA26E058
:10B34000342811D1291D59F8040B8C421FDB0AF84F
:10B35000010B010A0AF8011B010C0AF8011B000E7F
:10B360000AF8010BE81CCFE7A0F1330259F8041BDF
:10B37000072A38BF303806D3A0F14102072A34BF6C
:10B38000373859F8040BC7B27819A042B5DBAAEBDD
:10B390000800C0B2BDE8F0875F49FE200870704722
:10B3A00070B500F02AF800F004F800EB062080B237
:10B3B00070BD06462946204636E700B583B0022315
:10B3C0008DF80420120A8DF805200122009219E060
:10B3D000F8B500F012F8FFF7ECFF0746E91CC9B218
:10B3E000FFF7E9FF07EB06260702A91CC9B2FFF722
:10B3F000E2FFC01906EB0040F2BD0D46691C044691
:10B40000C9B211E70A46014601A8FFF716FE07BDBB
:10B410002DE9F541089C1F464CB3254689B200A88A
:10B42000FFF7F6FE0646B9B201A8FFF7F1FE0746A0
:10B430003046B84238BF3846C0F12000C0B2A842FA
:10B44000B8BF05469DF80400FFF7E4FC80469DF870
:10B450000000FFF7DFFCAAB207EB08013018F9F78C
:10B460005CF9641BA919EF19A4B2002CD5D1BDE871
:10B47000F38170B504460D46FDF7E2FB294B2178B8
:10B480001B68FF2908BFED5403D0C9180E78EE548D
:10B490000D702570BDE87040FDF712BC38B504464C
:10B4A000FDF7CEFB2178FF22FF2908BFFF2507D03B
:10B4B0001C4B1B68CD5C8D420EBF2270EA5CCA54E7
:10B4C000FDF7FEFB284632BDF8B504460D460026C2
:10B4D000FDF7B6FB2178FF2915D0124B1B680A46F1
:10B4E000012602E0761C3A46F6B2D75CAF4208D19C
:10B4F000FF5CD754A94206D18A4208BFFF222270BE
:10B5000001E08F42EED1FDF7DBFB3046F2BD0000DB
:10B51000A4F20020A8F2002018F40020A1F20020DC
:10B52000B0F20020B4F20020A0F20020ACF2002023
:10B530000078FF2801D1012070470020704710B526
:10B54000044602E0FFF7DAFC2046FFF7A7FFFF28DA
:10B55000F8D110BD7061636B65742D6275666665A8
:10B56000722E630080B59F48002141604170817058
:10B57000A52101700120FDF755FBFDF757FB00F0F9
:10B580001EF8002002BD98480168C90700D4704722
:10B5900080B596490A6822F440620A600168490849
:10B5A0004900016001680902FCD49148006810B1AB
:10B5B0006420FCF765FC8F490020086001BD80B560
:10B5C0008D48016841F08071016001208B4908605D
:10B5D00000208B49FCF79BFC8A498B4A02200860BB
:10B5E00000208A4908608A498A4801600121116067
:10B5F0007D4A8949116040F2014101654FF4803074
:10B600008649086001BD7B48006800B10120C0B2D6
:10B610007047D12202704170090A817080490A780E
:10B62000C270501C0870042070472DE9F14F82B0A1
:10B63000002500907B4800990068085C441DE4B236
:10B6400001F064F801904FF6FF79FFF7DCFFB8B91D
:10B6500054E0A91E9DF80800C9B2FFF7E5FD0746B2
:10B66000494604F0F7FB81465546F000F9B2761CD6
:10B6700001FA00F0042E40EA080815DBCBF8008040
:10B68000EDB2A54232DA01F041F80199401A80B2D8
:10B69000B0F5FA7F2ADC4FF0604BDBF800000128A0
:10B6A000EED14FF000080026EDB215B95B27012559
:10B6B000DBE7012D05F1010A04D15A480099006821
:10B6C0000F5CD1E7E11E8D4208BF4F46CCD0A11ED2
:10B6D0008D4208BF4FEA1927C6D0611E8D4208BFB0
:10B6E0005D27C1D0A542B4D10027BEE74FF4C87092
:10B6F000FCF7C6FBA54208BF002000D00120BDE832
:10B70000FE8F48490968415C0429A8BFFFF78DBF37
:10B71000012070472DE9F04D324D6E78002E5ED03D
:10B7200000F0F4FF834631460020FFF76AFC044630
:10B73000FF2CA04602D10020687050E0202EB4BF3C
:10B7400037462027FFF766FB6860AF70DFF8D8A0A8
:10B7500004E04046FFF75EFB6860AF706878C0B1F8
:10B7600000F0D4FFA0EB0B0080B2B0F5FA7F10DC44
:10B77000A8780028F2D1F61B6E70F6B2002EEDD03C
:10B78000DAF8000018F80080202EB4BF37462027D2
:10B79000DFE7002E04BF6878002818D1A878B0B978
:10B7A00020480068205C851EE9B22046FFF7F8FDBE
:10B7B000122808D1E9B22046FFF7EBFC21461220FF
:10B7C000FDF790FB06E02046FDF7D6FA02E00020E8
:10B7D0006870A8702046BDE8F04DFFF78FBBBDE84C
:10B7E000F08D0000F0FF0020800E00E0001000E06F
:10B7F00034000040100004E0FCED00E0040004E030
:10B8000020A10700F00004E0000E00E0040304E0C3
:10B8100055CEACC5B00F00E00D00010000E100E026
:10B82000C7FF0020A8F20020B0F2002070B5044647
:10B83000DFF8E006DFF8E066006882B0255C00F023
:10B8400028F88DF800003088411E89B200A8FFF763
:10B85000DFFCDFF8C8169DF800200968545405B9CC
:10B86000202531881F31081A2818308073BD38B55B
:10B87000DFF8A4560446288809B1A04207D2014641
:10B8800000F007F82246FFF74EFC08B12C8001209B
:10B8900032BDDFF88C060078704710B5DFF88016EF
:10B8A000097882B08DF80010014600A8FFF7B0FCBF
:10B8B00004469DF80000FFF7ADFA201816BD80B5CC
:10B8C000FFF7EBFF007802BD10B50C46FFF7E5FF70
:10B8D000047010BD80B5002200920023FF2200F00A
:10B8E00001F802BD2DE9FC4609B4FFF7D2FF83B091
:10B8F0008946164600258DF80500FDF72FFF824684
:10B90000DFF820060078824504DB9C210FF68830A2
:10B91000FAF77AFD0398494604F0B1FA002800F0DE
:10B920009880FF2E05D03046FFF7DAFA00F0BFFA14
:10B93000355CDFF8F4452078FF2813D0FFF714FBBF
:10B94000FF2818BFFFF7DAFADFF8E015207809685A
:10B95000425C02F07F0242542078FFF7C1FA20785F
:10B96000FFF764FFDFF8C8750E9C788848442018FC
:10B97000C01C012180B2FFF77AFF40B90120387066
:10B98000FF2E1CBF3046FFF7B9FA002062E005EB3E
:10B9900009002018811C7888C9B2FFF795FFDFF8ED
:10B9A000940501787888401C80B2FFF78DFF4FEA3C
:10B9B0004A1040F080017888801CC9B280B2FFF73D
:10B9C00083FF7888C11C89B20DF10500FFF720FCC8
:10B9D0000246012000904B469DF805100398FFF7A2
:10B9E00048FBFF2E0DD03046FFF720FF78880095EA
:10B9F0004844C11CFFF74DFF0023324689B2FFF7D0
:10BA000007FDA4B1FFF745FF8DF8040078882818DA
:10BA10004844C11C89B201A8FFF7FAFB012100913B
:10BA200002469DF8041004982346FFF722FB05EB1D
:10BA3000090178886118C91C08187880012004F071
:10BA40006DFADFF8F4040178012912BF0229002100
:10BA50000170012007B0BDE8F08638B50D0004463E
:10BA600008D02D1FA8B200E02846FFF716FF007887
:10BA7000401C4519DFF8B8044088ADB2854209D2B0
:10BA8000E81C80B2FFF709FF0078A042ECD1281D26
:10BA900080B232BD4FF6FF7032BD10B582B00446A1
:10BAA000192000F0E6FC902C03D1DFF8901402205E
:10BAB000087013BD80B500F02BF848228DF80020E7
:10BAC00073E210B586B004461B208DF80000A07804
:10BAD0008DF801000DF10200218801F03AFB0822E7
:10BAE000211D01A8F8F719FE00A8E1780173217B58
:10BAF0004173607B8DF80E000DF10F0000F05AFAD3
:10BB0000CCE280B500F004F81C228DF800204CE255
:10BB10008DF801008DF8021070472DE9F04F87B0C5
:10BB200005460E46144604F0A8FA804622463146E1
:10BB3000284604F0A6F9002864D10DF1090004F0AC
:10BB4000A4FA28B962208DF80800092100F06AFBE8
:10BB5000FF2C0FBF4FF0000BDFF8B813096814F883
:10BB600001B045208DF8080002AF0DF10A017D708B
:10BB7000304600F081F80DF1150000F01BFA00F0DE
:10BB800096FB04F097FE8DF819000025DFF8B0034E
:10BB9000DFF8B0930668DFF8B0A301E06D1C0C3647
:10BBA0009AF8000099F80010EDB2401A85420BDABD
:10BBB00030884045F2D1FDF7D1FDB17AC1F34201A1
:10BBC0008142EBD1BD7401E0FF20B8748DF81BB049
:10BBD000404604F0B2FF8DF8040000B1012000904F
:10BBE00001AB2246142102A8FFF77CFE00281EBFED
:10BBF000DFF858030078212804D1D548017841F0B6
:10BC00000401017007B0BDE8F08F2DE9F04307464D
:10BC100000F04DF987B01D460E9C2E5C884691467B
:10BC20002146384605F03CF83F208DF804008DF899
:10BC3000057041460DF1060001F08BFA02A9484655
:10BC400000F01AF8C3480068285C8DF813008DF8DE
:10BC50001440C1480078402804BF0026FF2500207A
:10BC600000908DF8156000232A46122101A8FFF7E5
:10BC700039FE07B0BDE8F08338B504460D4621888B
:10BC8000284601F066FA6188A81C01F062FA207962
:10BC9000287160796871A81DE18801F05AFA21893C
:10BCA00005F1080001F055FAA07AA87231BD2DE91E
:10BCB000FF411546012D074688461C4607D1012144
:10BCC0000020022650EA01020AD103261AE0052DBF
:10BCD000F5D00021032D18BF072DF1D10120F0E789
:10BCE0009E4A12783AB1012A08D0022A05D0042AC5
:10BCF00008BF0E4604E0012604E058B1002601E02A
:10BD0000022E07D005F00DFA844203D021463846B2
:10BD100004F0FFFE24208DF80000394600F067F89B
:10BD2000082241460DF10300F8F7F7FC8DF80B509F
:10BD30008DF80C6021460DF10D0001F00AFA0F217B
:10BD400000F06FF8304604B0BDE8F08180B56E2198
:10BD500000F015F92AE110B584B00C469B218DF84E
:10BD60000010082201460DF10100F8F7D6FC8DF80D
:10BD700009400A2115E070471FB50446232000F052
:10BD80004BF88DF80210204603F0D7F8014600F07A
:10BD90008AF90DF10D020DF10501204603F0DDF8E1
:10BDA0000E2100F03EF81FBD80B57C21F8E070B593
:10BDB00086B004467D208DF800000D4616462146CB
:10BDC00000F015F8082229460DF10300F8F7A5FC4C
:10BDD0008DF80B600C2100F024F803A804F055F94D
:10BDE00018B903A9204605F041FA06B070BD0DF15F
:10BDF000010001F0AEB938B504460D4604F035FF38
:10BE0000802000F009F829460DF1020001F0A1F9A7
:10BE1000042100F006F831BD8DF800008DF80140D6
:10BE2000704700A856E580B5F22100F0A8F8BDE003
:10BE3000F0B583B010F8014B0E4617462146FFF7C8
:10BE4000E0F80546FF2D03D1394901200870F7BD00
:10BE50008E208DF804008DF80560002000908DF88C
:10BE600006708DF8074000232A46042101A8FFF739
:10BE700039FD2846FFF742F8F7BD1FB50C46922161
:10BE80008DF80410082201460DF10500F8F745FC75
:10BE90000DF10D0000F08EF800F009F8205C8DF82F
:10BEA0000F0000230020009022460C2112E01948C8
:10BEB0000068704700B5174A126883B0825C8DF83D
:10BEC000051093238DF8062000218DF80430009191
:10BED00002464EE001A8FFF705FD1FBD10B584B076
:10BEE000044646208DF8040001A82178417061784D
:10BEF00081700DF1070000F05DF80648A178006838
:10BF0000085C8DF809000023002000900621A2782B
:10BF1000E0E70000A8F2002006FA0020B0F20020BE
:10BF20001BF40020F4F2002040F40020ACF20020CA
:10BF300094FF0020CFFF0020BFFF0020D0FF002093
:10BF400020F30020D4FF00201CF3002044F4002044
:10BF500030FC002068FB002047F4002042F4002061
:10BF600080B598208DF800008DF8011000A80221FE
:10BF70001DE00023032101A8FFF7B4FC07BD8DF8E5
:10BF800000108DF801000221704700000249096885
:10BF9000497B022902D07047E0F9002080B50D21CD
:10BFA0008DF800100146FFF722FF032100A8FFF7DC
:10BFB00091FC01BD10B5044604F058F8601CBDE8C2
:10BFC000104004F055B830B58FB005460C463B2202
:10BFD000002100A8F8F7E4FBB6208DF800000DF171
:10BFE0000101284600F071F800A8DCB1002180F8BA
:10BFF0002910082221460DF12A00F8F78EFB0DF1D9
:10C000002905207A68720DF13300618901F0A1F8E9
:10C01000A1890DF1350001F09CF8A07BA873E07BAD
:10C02000E87302E0012180F829100DF13900FFF7D3
:10C03000C1FF3B21FFF7F5FE0FB030BD80B5B72142
:10C04000FFF79DFFB2E710B586B00446B8208DF823
:10C0500000000DF10100218801F07BF8618800F0FB
:10C0600022F8A1880DF1050001F073F8E1880DF1C7
:10C07000070001F06EF821890DF1090001F069F85F
:10C0800061890DF10B0001F064F8A1890DF10D003B
:10C0900001F05FF80DF10F00FFF78CFF1121FFF7A2
:10C0A000C0FE06B010BD0DF1030001F052B800B59E
:10C0B0008BB0BB218DF800100DF1010100F005F8E7
:10C0C0002921FFF7AEFE0BB000BDF8B504460D46C2
:10C0D000A0782870681C218801F03BF80822211DF7
:10C0E000E81CF8F71AFBE078E87204F11007207BEF
:10C0F000287305F10E06607B687331463A680120AB
:10C1000001F02BF87A68311D012001F026F83989F9
:10C1100006F1080001F01DF8082204F11C0105F1E8
:10C120001800F8F7FAFAA18C05F1200001F011F8D7
:10C13000E18C05F1220001F00CF894F8280085F854
:10C14000240094F8290085F8250094F82A0085F841
:10C15000260094F82B0085F82700F1BD38B5044679
:10C160000D46092200212846F8F71AFB21882846A7
:10C1700000F0EFFFA11CA81CBDE838400722F8F72B
:10C18000CCBA38B504460D461A2200212846F8F7E5
:10C1900007FB207828700F22611C681CF8F7BDFA95
:10C1A0002078C0F3410204F1100105F11000F8F706
:10C1B000B4FA2078C0F3021204F1130105F1130060
:10C1C000BDE83840F8F7A9BA2DE9F0438FB006462C
:10C1D000DB208DF808000F4690469946082231462C
:10C1E0000DF10900F8F799FA8DF811700DF11201AF
:10C1F0004046FFF7B3FF0DF11B014846FFF7C1FFB3
:10C20000169D179C8DF835508DF8364000F009F8D2
:10C21000019400954B4642463946304605F007F9F1
:10C22000B0E02F2102A8FFF755BB2DE9F14F92B0E6
:10C23000DC208DF8140005AE9DF8480070700DF1FB
:10C2400015058A469046994685F801A000F02FF81A
:10C25000082249460DF11900F8F75FFA1C9C2C736F
:10C260000DF122011D9F3846FFF778FFDDF878B009
:10C270000DF12B015846FFF784FF1F9D86F83150C2
:10C280003321209E8DF8466005A8FFF723FB049616
:10C290000395CDF808B0019700944B469DF84800EF
:10C2A0004246514605F0F8F913B0BDE8F08F41461B
:10C2B0000DF1170000F04DBF2DE9F04790B0814619
:10C2C000E1208DF80C000DF10D040E4692469846C3
:10C2D0008DF80D906670082251460DF10F00F8F7A9
:10C2E0001CFA84F80A8006A9189D2846FFF736FF35
:10C2F000199F0DF121013846FFF743FF1A9C8DF875
:10C300003B40302103A8FFF7E5FA0294019700951E
:10C31000434652463146484605F041FA10B0BDE862
:10C32000F0872DE9F0438FB005460E4691469846BA
:10C330002F22FF2102A8F8F733FADE208DF808003B
:10C340008DF80950169F179C95B9082231460DF1BA
:10C350000A00F8F7E2F98DF812900DF1130140464A
:10C36000FFF7FCFE07A93846FFF70BFF8DF83640B4
:10C37000FFF757FF0194009743464A463146284647
:10C3800005F007FA0FB0BDE8F08310B582B004469F
:10C39000DA2000F06EF8204605F0FAF913BD10B56A
:10C3A0009EB01C46FFF7B4FBD5238DF80030114634
:10C3B000FFF779FE8DF805400DF10700209C2199CB
:10C3C0008DF806402246F8F7A8F9E11D1FE010B5E8
:10C3D0009EB0D6248DF802108DF801008DF8004033
:10C3E0008DF803208DF804300DF10500209900F040
:10C3F000B0FE2198229C23998DF807008DF8084003
:10C4000022460DF10900F8F788F904F10901C9B2D3
:10C41000FFF707FD1EB010BDF0B50446E0208BB05D
:10C42000002C0D4618BFC12C16461F46FFF7F4FC22
:10C430008DF8025008D10DF103013046FFF78EFE52
:10C4400003A93846FFF79DFE2621FFF7EAFC3B468D
:10C4500032462946204605F033FA0BB0F0BD10B540
:10C4600082B00446E32000F004F8204605F029FAE3
:10C4700013BD8DF800008DF80140022100A8FFF7E0
:10C4800029BA10B582B00446E420FFF7F2FF204637
:10C4900005F018FA13BD0000737461636B2D6361BE
:10C4A0006C6C6261636B732E6300000072480068FD
:10C4B0004088704770480068001D70476E480068EB
:10C4C000C07E70476C490968C876704770B56A4C81
:10C4D0006A4D21686A4E4873022819D100F0DAF8D3
:10C4E00078B92068007B001F022824BF304600F086
:10C4F00003FB2068007BC01E032824BF284600F0F1
:10C50000FBFA20684069C00054BF9024BC240AE0B4
:10C5100000F0C0F810B103F02FF903E0307028707C
:10C5200000F031FC9124204605F090FA50B92346E2
:10C53000132250A10320FCF77BFB2046BDE870408E
:10C54000FDF75CBA70BD4C480068407B00F00F00FE
:10C55000704749480068407B00F00F00022801D175
:10C56000012070470020704710B5FDF785FDE0B150
:10C570004448FEF7DDFFC0B14348FEF7D9FFA0B144
:10C5800005F00EFF88B105F072FA70B94FF0FF3177
:10C590003E4800F016FB04464FF0FF313C4800F0E7
:10C5A00010FB844202D2204610BD002010BD38B5D9
:10C5B000044600F06FF820B12046BDE8324002F09A
:10C5C00074BF2D4DFFF7C5FF28B92868407B0328AD
:10C5D00001D0932032BD04F0ACFD20812868C07BDF
:10C5E000A0722868807BE072204607F086F9002060
:10C5F000207304F1140104F1100007F034FAE08113
:10C60000002032BD10B5002300E05B1CDBB28B4282
:10C6100005D210F8014B9442F7D0002010BD012044
:10C6200010BD80B50821FAF765FB08B1002002BDF6
:10C63000A52002BD10480068407B01281CBF31289E
:10C64000332801D1012070470020704710B50446FF
:10C65000F8F769FB10B908490968CC7310BD0648A2
:10C66000006890F90F00704703480068807B7047AE
:10C670000000000042420000E0F900203CFD0020E4
:10C6800034FD002034F400205CF40020A0110108E7
:10C6900038F8000880B504F054FD032801D10120CA
:10C6A00002BD002002BD80B5FFF7F4FF38B1BDE840
:10C6B00004404FF490710FF20800F9F7A5BE01BDD8
:10C6C000656D6265722D737461636B2D636F6D6D43
:10C6D0006F6E2E630000000000B500BF1300964689
:10C6E0009446103928BFA0E80C50FAD85FEA417C84
:10C6F00028BF0CC048BF40F8042BC90728BF20F84A
:10C70000022B48BF00F8012B00BD000080B500F0EF
:10C7100008F880B202BD80B500F003F80002000CFA
:10C7200002BD38B5FCF78CFA50490C684D68FCF72F
:10C73000C7FA45EA044032BD704780B5FFF7FCFFF9
:10C740004B490720086001204A49087001BD2DE9C6
:10C75000F84304460025206810B9FDF731FD2DE0AF
:10C76000FCF76EFA804600F079F81CBF401C206090
:10C77000FFF7D7FF21683F4E3D4F81463E48494471
:10C7800089B2416021684944090C0160357002207A
:10C790003860386400F015F84046FCF791FA012043
:10C7A000FDF7EDFF3D64307838B98525FFF7B9FF17
:10C7B0002168081A4844206000E025602846BDE84A
:10C7C000F28310202E49086070472DE9F14F0C4686
:10C7D000924620689B46002510B9FDF7F1FC3AE02F
:10C7E000FCF72EFA814600F039F81CBF401C20608F
:10C7F000FFF797FF1F4F1E4E3D70804621681E4871
:10C80000414489B2416021684144090C0160022021
:10C8100030603064FFF7D5FF4846FCF751FA01E07D
:10C8200025603D702068B0B19DF8000018B9022065
:10C83000FDF7A5FF04E052465B460220FDF76EFFC0
:10C84000356438780028EBD18525FFF76AFF216829
:10C85000081A404420602846BDE8F28F074910209E
:10C860000860206810F1010F704700001060004060
:10C8700014A00040B0FF00201860004080E100E0FC
:10C8800000E100E000220146002310469DE7000081
:10C8900010B50C46FEF7BEFA2018BDE8104000F0B7
:10C8A00051BC38B50C461546FEF7B4FA2946201897
:10C8B000BDE8344000F04DBC38B50C461546FEF7D7
:10C8C000A9FA255431BD10B50C46FEF7A3FA205C39
:10C8D00010BD80B500F016F800F076F801D1082000
:10C8E00002BD062002BD38B50446FEF793FA0546A0
:10C8F0002046FFF7EEFF401932BD0121C8E70A4686
:10C900000121CEE780B5FEF785FA407802BD80B5FB
:10C91000FFF7F3FF800B02BD80B5FEF77BFA41788D
:10C9200041F01001417001BD10B50446FFF7EAFF68
:10C9300000F04AF804D05E210FF27810F9F764FD98
:10C940002046BDE810400621A2E738B504460D4652
:10C95000FFF7D8FF00F038F804D064210FF254102C
:10C96000F9F752FD2A462046BDE83840062198E7EF
:10C9700080B500F0E7FB01468A0A42EAA2030FF203
:10C98000441003F00F03185C4B0700D408B9FF20D4
:10C9900002BD490605D412F003011CBF12F030019C
:10C9A000801CC0B202BD10B50446FFF7ABFF00F01B
:10C9B0000BF802D14FF4006010BD06212046FFF7AE
:10C9C00067FF00F4406010BD00F00C0004287047C1
:10C9D00038B50446FEF71EFA05462046FFF792FFDB
:10C9E000FFF7F2FF0CBF06200B20401932BD80B5C7
:10C9F000FFF7EEFF30E010B50446FFF783FFFFF7C7
:10CA0000E3FF02D14FF4004010BD06212046FFF79E
:10CA10003FFF00F4404010BD70B50446FEF7FAF940
:10CA200005462046FFF76EFFFFF7CEFF01D1A81D98
:10CA300070BDA81DFFF79CFF06462046FFF7DBFFF1
:10CA4000B0F5004F0CBF022008207119081A801D94
:10CA500070BD80B5FFF7E0FFBDE8024000F072BB9B
:10CA6000F8B504460D4616460120FEF7DEF90746E6
:10CA7000FF2F1ED0FCF726FEA104890C41EA80316D
:10CA800089B23846FFF73BFF3846FFF722FF0146E1
:10CA90003846FEF7C5F931463846FEF772FA42F2DB
:10CAA0000C002040042803D129463846FFF74DFFEB
:10CAB0003846F2BD7061636B65742D6865616465AD
:10CAC000722E63000300070D000000000700090F2D
:10CAD0000D000F1538B544784568FCF7B1F8814A68
:10CAE0000C2161438B585B1BB3F1004F98BF8D50F5
:10CAF000BDE83240FCF7E4B810B50446FFF711FE7C
:10CB00006060042020702046BDE81040E2E738B5A0
:10CB100004460D46FFF705FE2818606001202070CE
:10CB20002046BDE83240D5E710B50446207860B114
:10CB3000042806D0FFF7F5FD6168421AB2F1004FF4
:10CB400001D8002010BD081A10BD4FF0FF3010BDF5
:10CB500070B50446FFF7E5FD0546FCF771F806469B
:10CB600060686FF0004100F02CF8401920603046FA
:10CB7000BDE87040FCF7A4B870B504460D461646F3
:10CB8000FFF7CFFD002156B1FF22327007E0121AE5
:10CB9000AA4202D2154606B13170491C08342268F7
:10CBA0000AB9284670BD1378002BF6D0042B04D0A8
:10CBB0005268831AB3F1004FE9D806B131700020F2
:10CBC00070BD0022D8E738B50446FFF7AAFD054638
:10CBD0000DE0017851B1042904D04168691AB1F11E
:10CBE000004F03D804210170616888470834206829
:10CBF0000028EED131BD10B53A490C2202FB0014D9
:10CC0000FFF78FFD2168401AB0F1004F06D8606829
:10CC1000FFF7D9FF2046BDE8104099E710BD70B579
:10CC2000314D3249097804466878884204D3E521B9
:10CC30000FF2BC00F9F7E8FB6E78701C68700C21ED
:10CC4000284801FB060001214460017200E04E709B
:10CC500054F8081B0029FAD1FFF77AFF304670BD5F
:10CC6000F8B505464FF0FF3000901F4C207840B3D8
:10CC7000FDF79EFA28B940F219110FF27400F9F786
:10CC8000C3FBFFF74EFD174A0C2101FB05230025CE
:10CC90001D72002305E0009EB54288BF3546009511
:10CCA0005B1C6578DBB2AB420FD201FB0326356813
:10CCB000471BB7F1004F04D9367A2D1A0EB9002D53
:10CCC000E9D1FDF77DFA0020F2BD00A8FFF73FFD96
:10CCD0000120F2BD034A0C2303FB00200121017255
:10CCE00070470000C4F40020CDFF0020A84F0208C8
:10CCF0006576656E742D636F6E74726F6C2E630053
:10CD0000F8B50446DFF8FC030078002802BFDFF81E
:10CD1000F863F06800280D4625D1DFF8F0030078AD
:10CD20000A2818BF022D1ED1FBF78AFFB278082A05
:10CD3000074616DA012D02D19019047104E0311D65
:10CD4000701DF7F7EAFC3471B078401CB0703846BB
:10CD5000FBF7B6FF2046FEF7C3F801F0DBFC01202D
:10CD6000F2BDFBF7ADFF0020F2BD80B5FCF798FEE9
:10CD7000DFF89403C17829B90121C170BDE80140F1
:10CD800001F0C8BC01BDDFF880130020C8707047F7
:10CD900070B5DFF870030078002839D1FBF750FF39
:10CDA000DFF86443DFF868530646A07860B1217964
:10CDB0002970421EA270611DD2B2201DF7F7ADFC92
:10CDC0003046FBF77DFF21E03046FBF779FFE06856
:10CDD000F0B9E078022802D007F02EF82870287801
:10CDE000FF2810D1E07870B1FCF775FEFCF717FC56
:10CDF00007F001FAFF28287003D0FCF786FE00B97F
:10CE0000E070FCF73CFC2878FF2801D0012070BDC1
:10CE1000002070BD2DE9F04104460D46FCF72BFAC9
:10CE2000B94E0020F070FBF70BFF8046F06820B190
:10CE30004046FBF745FF002013E0B6480078052880
:10CE400008BF01F072FD00F00EF8070008BFF460A3
:10CE50004046FBF735FF1FB105B1A047012000E0B8
:10CE60000220BDE8F08110B5FBF7EAFEA649A94B08
:10CE70008A781B78C9781A43114305D1A6490978E5
:10CE80004C1EA441E40F00E00024FBF719FF2046EC
:10CE900010BD10B59F499C4C00200870FF209C4994
:10CEA00008700020E060FDF773F9207000209A49B7
:10CEB00008709A4908704FF4A0519948FFF727FE6F
:10CEC000BDE81040FCF77EB838B5024600210820C6
:10CED000FFF7C6FD0446FF2C01D1012032BD012120
:10CEE000FFF70EFF05462046FEF708F8681E804152
:10CEF000C00F32BD2DE9F843854E8A4D814630780A
:10CF0000FF2808D12878FE2805D04FF4B3710FF21E
:10CF10002420F9F779FA28787B4FDFF8FC817D4CE3
:10CF2000811F01290DD805212170494607F04AFCCF
:10CF300008B900F014F83078FDF7E0FFFF203070FA
:10CF400003E087F8019000F00AF82878042804D05C
:10CF5000F878012804BF0220F870BDE8F1830320AF
:10CF600020704046FFF7C8BD10B5694C217881425A
:10CF70000DD10846FDF7C2FFFBF762FEFF212170CD
:10CF8000FE21684A1170BDE81040FBF799BE10BD44
:10CF900038B55D4D69780446FCF7F8F828B969782A
:10CFA0002046BDE8344001F00FB831BD2DE9F8430B
:10CFB0000446FF2C05D140F2B7110FF27810F9F7B3
:10CFC00023FA0320FBF733FE574D2046FFF79AFC68
:10CFD00000F00C002870FF2068702046FFF792FCDC
:10CFE00000F00C0008285CD028780C2859D1204685
:10CFF000FFF779FC074600F0A5F8064606F44C4812
:10D000003846FFF7B5FCC05D68704FF6FF794FF406
:10D010004060064206D0F81C00F094F8484508BF6E
:10D0200048F0400806F44060B0F5006F06D1781D66
:10D0300000F088F8484508BF48F0100869780129D1
:10D040004CF6500017D0022918D0042908D0062920
:10D0500025D0072925D0082918D07C2911D04FE0E8
:10D06000B8F5484F18BFB8F5084F49D12046FCF72E
:10D0700013F8002811E0B8F5484F0EE0B8F54C4F12
:10D080000BE0B8F54C4F0CD0804506E04CF6404024
:10D09000804535D11D480078052802D030E0804514
:10D0A0002ED12046FFF729FC05462046FFF72AFC33
:10D0B00000F00C00082816D0A80614D54FF6DF7033
:10D0C00000EA05012046FFF71AFC2046FFF701FCA5
:10D0D00005462046FFF707FCFFF74AFC4119C9B295
:10D0E0002046FEF756F821461048FEF7C2F92046C2
:10D0F000FDF7F6FE0E480078BDE8F243FFF7EABD03
:10D10000BDE8F183B9F9002030FA002085F4002051
:10D1100030F4002070FB002074FB0020A0FD0020F4
:10D1200010FA002011F40020C9FF002034F4002080
:10D13000CBFF00206D61632D617262697465722E90
:10D140006300000041780078FFE700EB012080B227
:10D1500070470170090A4170704710B5002300281C
:10D1600014BF1C46C3F10304E4B25B1C6254120AF0
:10D17000042BF4DB10BD30B54A788B78CC78097875
:10D1800018B120461D460C4602E0154608461A46D0
:10D1900045EA002044EA022141EA004030BD000097
:10D1A000D2B2203A22BF00FA02F100207047524268
:10D1B000D041D2F1200291404140D04090404140C6
:10D1C0007047000038B5DFF8BC1C0020087007F07D
:10D1D00068FB07F065FE07F040FF01F017FD07F060
:10D1E000DDFF02F056F90024DFF89C5C09E02046E0
:10D1F000FCF715FA07F0F4FF08F02AFBFCF73FFAFA
:10D20000641C2878E4B28442F1D320E038B5FCF7FE
:10D21000A2FB04460025FF2C08D0FCF700FAFFF71C
:10D2200039FA00B90125FCF72AFA4DB907F039FBA4
:10D2300007F036FE01F0EAFC07F0B0FFFF2C00D04B
:10D240000DB102F026F907F0CBFF08F001FBBDE8B5
:10D25000314008F0B7BDDFF8340C0068407B11287E
:10D260001CBF4328412801D101207047002070478E
:10D2700010B50446FFF737FB801CFFF763FF4FF63E
:10D28000F87188422046A4BFBDE8104000F005B800
:10D2900000F05CF800F075F910BD2DE9F04104468E
:10D2A00007F0CAFD002837D100F046F94FF6FF75A8
:10D2B00005D24188A9422FD02046FFF746FB002324
:10D2C00000220221204607F05FFE28B32046FFF728
:10D2D0000AFB0646F77903F024FF804603F021FF9E
:10D2E0004246394607F0B6FD20B9BE210FF23C2078
:10D2F000F9F78AF8B01CFFF725FFA84204BF2046C3
:10D3000006F056FD30780321084203D10121204662
:10D3100001F0C4F9012000E00020BDE8F08138B53B
:10D320000446DFF8A00C0068205C851AEDB2681A8C
:10D3300080B2009053189BB222462046FEF768F850
:10D3400029462046BDE83440FDF723BF2DE9FE4FB6
:10D35000002582460195FFF7C6FA0646301DFFF705
:10D36000F1FE0746B01CFFF7EDFE8046307800F076
:10D37000C00002903846FCF7EFF88DF80200FF2855
:10D3800014BF4FF00109A94630780321084208D1A3
:10D3900003F0C7FE874202D05FEA090402D00124ED
:10D3A00000E00024B079002873D003F0BAFE804575
:10D3B0000BD103F0B6FE834600225946504600F0DA
:10D3C000E5F8002865D00020AEE000F0B5F838BFE1
:10D3D000B0F802B0F0D3404601F0F6FD20B9504657
:10D3E000FFF78BFA400514D570784007C346E3D5A4
:10D3F000504608F0FAFE00F0B1FC401C4200D2B2E8
:10D4000029465046FFF78BFF707800F0FB007070E4
:10D41000D2E7707840071CD5504608F0E6FE00F0D1
:10D420009DFC06466F1CF9B200F09AFC002E18BF56
:10D43000FF2806D10022F9B25046FDF7FAFEC34696
:10D44000BAE705EB4000811CC9B25046FDF7A8FFC2
:10D45000B1E701AA00A9404607F0D4FB8346DCB13E
:10D460000298802804D0402816D19DF8000098B179
:10D47000307800F03F003070384601F0A5FD10B95B
:10D4800003F04FFE07463A460021404609F018F9DE
:10D49000002848D0012047E00198B8B307F009FB05
:10D4A0008DF801000198007900F0300002909DF89D
:10D4B0000100FF2805D140F223110FF27000F8F7A8
:10D4C000A3FF1CB30298102811D020281ED1B9F157
:10D4D000000F07D09DF802109DF8010007F021FC15
:10D4E000A0B904E0019800790C2108420ED0F3792C
:10D4F0005A464146384609F03BFC019800790199AB
:10D5000000F0F30040F00400087101259DF80000D0
:10D5100028B10121404608F08CF820B1C346002D07
:10D520008ED0302249E70220BDE8FE8F6E65747709
:10D530006F726B2E63000000DFF850090068017BFA
:10D54000C91E0329704738B504460D46FFF7ABF8EE
:10D5500000F091FC01D2012032BD4FF6F9718C42EE
:10D560001CBF4FF6F8718C4201D0702032BD03F021
:10D57000D8FD02462946204609F0A2F800F001F83D
:10D5800032BD401E8041C00F70470022F8B50446EE
:10D590000D461646FFF7A7F9007800F0DBFB0CBF3D
:10D5A0000127002729462046FFF7CFF903F0B9FDF0
:10D5B000854217D0284601F0FCFC50B9DFF8C00ABC
:10D5C00001783246204601B0BDE8F040002307F064
:10D5D000DBBC6FB903F0A5FD00232246294603F00A
:10D5E00081F928B10121204601F058F80120F2BD4F
:10D5F0002046FFF782F9400505D52046BDE8F440F6
:10D600000021FFF77DBB2046FBF7E6FCFFF7B9FFE3
:10D61000F2BD2DE9F041044616468846304608F032
:10D62000B8FE07463046FFF754F93E1AF6B23719EE
:10D63000A8EB060292B2394607F10E00F7F76DF833
:10D6400028203870DFF84458286890F82000787354
:10D6500008F00CF90246791C0120FFF77EFD082234
:10D66000DFF86C1C781DF7F758F8286890F8200050
:10D670000AF078F908F10E0133460022C9B22046BB
:10D6800008F015FB1220BDE8F0812DE9F04F85B0C0
:10D6900080460D4608F07DFE82464046FFF744F97D
:10D6A00081464046FFF715F907460AF10E0189B297
:10D6B000404608F0B2FD002852D0002000900E2312
:10D6C0005246414601A8FDF7B8FC0DF105010120C5
:10D6D000FFF751FD83469DF804009DF8114028286E
:10D6E0003ED10822DFF8E81B0DF10900F7F75FF8DB
:10D6F000B0B3DFF8E06B20460AF034F958B930686F
:10D7000090F82000201AC0B280280DDA00210020F5
:10D7100005F038F908E00120009000235246394610
:10D72000404608F0F9FAD8B1404608F042FD4946B3
:10D730000DF109000AF011FAFE28824610D0FF28E8
:10D740003CD1484607F0A3FD8246BAF1FF0FDFF84F
:10D75000887B0BD00DF1090107F08FFF387868B393
:10D7600000211920FCF755F90020F0E200F0FBFA47
:10D770000AD1404608F00DFE01464046FDF754FD33
:10D78000082801D10120F0E738780028E8D1306876
:10D7900090F82D1090F82C00814206D3A81CFFF7BA
:10D7A000D1FC4FF6F8718842DADA0DF109014846EA
:10D7B00007F0BFFE484607F06AFD8246306890F8E1
:10D7C0002000844205D02146012009F0DAFE00281D
:10D7D000C6D0306890F82000844203D150460AF049
:10D7E0002AFA28B9594650460AF0A0F90028BCD0B8
:10D7F000594650460AF0AAF9C4E738B5DFF8E00AFE
:10D80000FDF74CFE0446FF2C1DD0DFF8D85A03214B
:10D81000FFF759F8287004212046FFF754F8687084
:10D8200005212046FFF74FF8A870012002F0F4F818
:10D83000204600F009F82046FDF760FBBDE83240C5
:10D84000002002F0E9B831BD38B50446FFF75AF8B8
:10D8500000F00C052046FFF75AF8FBF7E0FE2046E3
:10D86000FFF750F800F040FD32D1FEF713FF18B17A
:10D87000204601F089FE75E0062200212046FFF7D0
:10D880004EFD2046FDF7C6FA02F01FF98DF80100A3
:10D890008DF802409DF8010048B92046FDF7BAFA1C
:10D8A00001460DF1010002F063F98DF800009DF8CA
:10D8B0000100802804D100A80AF0E1FB002851D122
:10D8C000FBF720FF00A8FEF709FBFBF7D8FE49E0B5
:10D8D000042D204617D1FFF710F800051ED40220B2
:10D8E0000021FCF796F8FEF7D5FE08B1042D39D0DB
:10D8F0000C2D15D1214601200BF00BF890B32046DA
:10D9000005F0C0FA2EE0FFF74EF8B0F5006FE6D153
:10D910002046FFF76CF800F0B5FBE0D10020DFE710
:10D920001DB9204605F066FC1CE0042D1AD1DFF875
:10D93000A4090568687B02280CD0FFF78CFC48B965
:10D94000687B332818BF312804D0012804BF287B06
:10D95000052807D1214602200AF0DBFF10B120463E
:10D9600000F004F8FBF78BFE31BD00002DE9F04F0D
:10D9700085B08246FEF7B7FF05465046FEF7D4FF56
:10D98000ADF80600281DFFF7DDFB8346A81CFFF756
:10D99000D9FBADF80400284608F01AFD03904FF6B5
:10D9A000F87200F0E0F9687800F00201029100F0EE
:10D9B0000100BDF8041004900CBF0127002791421C
:10D9C000ACBF4FF001084FF00008504608F0E1FCF2
:10D9D0008146287800F03C01082943D1DFF8E4159E
:10D9E00009681AF8011089453CD217B90321084289
:10D9F00038D10298DFF8DC4848B12068C07E0028A2
:10DA000030D029465046FFF740FE00282AD02FB1DB
:10DA1000514603200AF07DFF002823D0494600F03C
:10DA20009FF90646029878B92068C07E60B1BDF8BB
:10DA30000400009003F075FB0099814212D197B168
:10DA4000062E18BF072E0DD12068417B022956D122
:10DA5000029911B9C07E002851D1BDF806000BF023
:10DA6000FCF860B173E106F003000128ECD04A46EF
:10DA70002946504600F0A6FD0028E5D167E1BDF833
:10DA80000600009003F04DFB0099814211D12068FF
:10DA9000007BC01E032808D203F043FB0146206828
:10DAA00040880D220BF016F951E101200AF0EAFF3F
:10DAB0004DE1BDF8060001F087FA70B903F039FBBB
:10DAC0004FF6FF71884208D0DFF8040C00780A286E
:10DAD00004BFBDF8060007F06DFB0399012258460C
:10DAE0000AF0F9FF0028E3D1284608F064FC01465B
:10DAF000BDF8040000220AF0EEFF0028D8D1BDF8DE
:10DB000004004FF6FC71884266D12068007BC01E7D
:10DB10000328CDD3A87908B1401EA87168784007C2
:10DB20002AD50020029002AA00A9584607F06AF8F8
:10DB3000029808B306F0BDFF0446BDF80400FBF7E9
:10DB40000BFD0299097901F03003102B1CBF01F085
:10DB50000C02082A03D0029A01F0F3011171029914
:10DB6000097901F03301202906D1FF2804D00146AC
:10DB70000122204607F0BEF8BDF80600FBF7ECFCDA
:10DB8000FF2804D0DFF84C2B12680021815409F1E2
:10DB90000104049840EA0800C0B2002874D1E97971
:10DBA000584607F0E7FA04F0B9FB08B1039820B132
:10DBB000BDF80610584600F0CAF903F0B2FABDF8F5
:10DBC0000410884260D0084601F0FEF970B177B1C8
:10DBD000012E1BD1002267E04FF6FD71884299D1DA
:10DBE0002068007B001F022894D2B0E077B9BDF80E
:10DBF000040001F0DEF948B1BDF8041000235246DC
:10DC0000584602F06FFE002840F09D80DFF8C80AF9
:10DC1000007848B9584601F0D7F928B9BDF8040092
:10DC200001F0D2F90028E0D0C7B1052E16D103F0DB
:10DC300078FA8DF8000003F074FA000A8DF80100FC
:10DC4000022200A95046FDF762FA00281BD1E1B27A
:10DC50005046FDF7BFFA0178491C0170687840070B
:10DC60000AD5504608F0C1FA411CC9B25046FDF72A
:10DC7000B1FA0178491E01705046FFF767FB002199
:10DC80001C20FBF7C6FE62E0002F4ED0701E092854
:10DC90005DD8DFE800F005050E131930393F434326
:10DCA000022E0CBF012200224946504608F0E8FE31
:10DCB0004DE0494650460BF041F848E04A4651468F
:10DCC00058460BF07EF942E0E1B200F049F8054613
:10DCD000DFF8087A03983860FBF714FD09F10200B9
:10DCE000C0B20090534639682A4658460BF087FA6E
:10DCF000FBF7C5FC2BE0CDF800902B4652460021E7
:10DD0000012004F048FF22E04A465146012005F078
:10DD100012F81CE050460BF08EFB18E0504605F060
:10DD2000DAFEB8F1000F12D009E0049820B1287A89
:10DD300000F010F80BD102E0B8F1000F03D050460C
:10DD400000F016F803E00021504600F0A7FC05B0F3
:10DD5000BDE8F08F00F00300012870470546294612
:10DD60005046FDF761BA287800F00300012870479B
:10DD70002DE9F84F8046FEF7B6FD05464046FEF712
:10DD8000D3FD0446281DFFF7DDF98146A81CFFF7E7
:10DD9000D9F9834695F807A0204601F015F9074602
:10DDA0002946404600F074F80646022E61D022460D
:10DDB0005146484607F00BF800285AD103F0B1F954
:10DDC000814556D0DFF81809007860B9012E06D0D9
:10DDD00004F0A4FA18B1284608F0FAFA18B121465E
:10DDE000484600F0B4F822465146484607F032F85B
:10DDF00000283ED028780321084203D10021404664
:10DE000000F04CFCA879A0B300F035F831D3687865
:10DE1000C00715D52C7A58460BF0EDFD40B1E1084E
:10DE200004F0E00001F01C01084340F0010006E0AE
:10DE300004F01C001C2803D005281ADB201F2872C0
:10DE40004FF6FF7529464046FEF77FFD0FB10022D1
:10DE500003E0FCF79DF900F03F0200230221404659
:10DE600007F092F8AB4504D14046BDE8F24F05F00B
:10DE70009FBFBDE8F18FDFF85C040068007BC01E27
:10DE80000328704774FD0020F4F20020E0F9002020
:10DE9000F0B587B0044608780321084254D12146E2
:10DEA00004200AF036FD00284FD0204608F071FA11
:10DEB000014600F084FB0321084245D1204608F0CA
:10DEC00068FA0546294600F07AFB0FF6380248CA80
:10DED00005A948C10321084236D1002000906A1CE0
:10DEE0000523D2B2214603A8FDF7A7F8052203A90E
:10DEF00005A8F6F768FC38BB204608F0CDFA0546C1
:10DF0000A91C00F05BFB0646691C00F057FB00EB08
:10DF1000062605F10B0100F051FB0746002000909A
:10DF2000EA1C0823D2B2214601A8FDF786F8204654
:10DF3000FEF7FAFC3A46B1B204F0ACF9012201A9AD
:10DF4000B0B20AF0C8FD00E0002007B0F0BD38B55F
:10DF500004460D4601F038F8002818BFAC4206D040
:10DF60002046FBF7F9FABDE8324001F0BFB831BDF9
:10DF700010B5192241A10320FAF75AFEDFF85443E5
:10DF80002068417B022918BF032901D0932010BDCE
:10DF9000007BC01E032802D203F052FD08B170209E
:10DFA00010BD0BF067FD2068407B032805D10021E0
:10DFB000012004F0E7FC012010BDFEF7D6FE002092
:10DFC00010BD0000A8F200202DE9F04180460D466A
:10DFD00000260DB9012602E0312D08BF0025FEF70D
:10DFE00091FC00F081F913D1FEF754FB80B9DFF802
:10DFF000F46686F80080FBF785FB4046FCF7B4FF2B
:10E000002946FDF7ADFFFBF73AFBFF20307032E009
:10E01000DFF8D4764046FEF775FC0C21084205D1A6
:10E020003978BDE8F0410120FBF7F3BC03244046FA
:10E03000FEF7B9FCB0F5006F07D14046FEF7D7FCFC
:10E0400000F020F808BF012401D005B1052439787B
:10E050002046FBF7DEFC2946404605F01BFF50B981
:10E060002946404607F010F828B93246294640466E
:10E07000BDE8F0410AE0BDE8F08100004200000088
:10E0800060F400204FF6FF71884270472DE9F04F91
:10E0900083B007460E461446FEF734FC00F024F920
:10E0A00008D1FEF7F7FA28B122463146384601F08A
:10E0B00032FA07E1DFF81C823846FEF723FC00F055
:10E0C0000C000C2838465AD1FEF70DFC8246FEF7AC
:10E0D0004FFC50444FF0FF090178DFF80856012942
:10E0E00006D0022912D0042924D07C2939D0E9E0B5
:10E0F0004EB99AF804009AF8031001EB002080B2A0
:10E1000003F01BF8DEE005F03EF8DBE0002E04BF74
:10E11000C178002908D18278407800EB0220394686
:10E1200080B209F01AF992E00AF10501002000F02E
:10E1300024FE92E0D8F80000407B0228E5D11EB909
:10E140000BF02EFD04B931263346222263A10320B1
:10E15000FAF76EFD2F70FBF7D5FA304600F020FD80
:10E1600008E02F70FBF7CEFA3846FCF7FDFE31468B
:10E17000FDF7A0FEFBF783FA85F80090A2E0FEF71A
:10E18000B2FB0446201DFEF7DDFF8146A01CFEF712
:10E19000D9FF05464FF6F87B5D450BDAD8F800004D
:10E1A000B0F84410491CA0F844101EB14430418816
:10E1B000491C4180207800F00301012950D13846E4
:10E1C00008F0E7F801463846FDF72EF8042802D09B
:10E1D000072804D076E038460AF0DEFF72E02046D9
:10E1E00008F0E9F800286DD00146002000F0C5FDD8
:10E1F0000446384608F0CDF800210091421C032364
:10E20000D2B2394601A8FCF718FF002E02BFD8F899
:10E210000000407B02281FD101A88178E1B9407835
:10E220009DF8041001EB00252046FF280CD0DFF8F4
:10E23000BC14096831F810204FF6FF331A4021F85A
:10E240001020A9B200F019FFA8B206F04AFC002184
:10E250001020FBF7DEFB35E0204600F047FF31E001
:10E26000032108422ED102F05CFF814504D03846DC
:10E27000FEF743FBC00606D5002E0CBF0021662129
:10E2800038460BF051FFEEB15D451BDA607810F0B7
:10E29000040606D1284606F002FD070002D0012739
:10E2A00000E00027284600F084FE10B1062267B97E
:10E2B00004E00EB10B22FAE737B90222294648469C
:10E2C0000AF008FDBDE8F78F0C2249462846F7E71B
:10E2D000F4F90020E0F90020E2FF002042420000B3
:10E2E00034F40020DCFF002000F00C000828704708
:10E2F0002DE9F04F044685B094F800A05046FEF793
:10E3000006FBFBF78CF9FEF7C5F9B0B1A07901283F
:10E3100005D1DFF8DC03017841F0010101702078BC
:10E3200001F05BF9002840F0D080607800F0F00048
:10E330006070FBF7A4F9002009E55046FEF7D3FA18
:10E340000646301DFEF7FEFEADF80000B01CFEF7DD
:10E35000F9FE8146504608F01CF883465946FFF7FF
:10E36000FFFC8DF802003078FFF7F4FC0CBF9DF83D
:10E370000250FF25FEF7CAF9A188401A1FFA80F85B
:10E3800002F0CFFEBDF8001088420CBF0127002725
:10E3900008460AF062FC0028C7D148460AF05DFC36
:10E3A00020B1484600F010FE0028BED0FFF763FD04
:10E3B00021D2062D18BF042D62D05A463146504650
:10E3C00000F000F9B8B9FEF746FF20B19DF8020051
:10E3D000FFF7C0FC0FD0FEF7BCF800284DD002F0CC
:10E3E000A0FE0146301DFEF7B4FEC2480068418819
:10E3F0005046FEF7AAFA012D42D15046FEF794FA94
:10E40000FFF740FE3CD1002300F0B3F805008CD0AC
:10E410006A799DF80D00824207D20BF10501C9B25D
:10E420005046FCF706FF00F09EF8FBF7B1FE7E2198
:10E4300090FBF1F17E2202FB110000F580706080FC
:10E4400018219DF80E00084212D060780F21084272
:10E4500008BF002F0CD1FBF755F9304607F0B8FF85
:10E4600001466A79BDF80000FDF7A1FCFBF707F94A
:10E47000FBF705F99DF80F005EE72820608058E75C
:10E480004FF6F870814502DA7078C00721D5FFF7A2
:10E49000F2FC1ED340F6B93080455CDAFBF778FE1B
:10E4A00000F03F00C0F5FA706080607800090CD081
:10E4B0005FB9F179BDF8000006F07FFC00281EBFAF
:10E4C00080884FF6FF718842A1D0FBF7D8F8012071
:10E4D00032E7022D26D1012300F04BF8054602F069
:10E4E00020FE0146BDF80A00814202D000F06CFD1A
:10E4F00058B3002D8BD06B8801225946504608F046
:10E500006AFA7C480068417E491C4176F171BDF889
:10E5100006006988884201D000F025F84FF4C870E1
:10E520006080D2E7032D10D17FB10BF10101C9B298
:10E53000FFF716FC0C2808D107F044F9FFF7A2FDFD
:10E5400003D001465046FEF700FA607800097FF4D8
:10E55000ECAEB8F1FB0FBFF6E8AEFBF719FE00F02A
:10E560001F001030DCE7607800F0F000801C607065
:10E57000704701AA5946504608F05FB970B5044685
:10E58000FEF788F8C0B92046FEF7ADF905462046EB
:10E5900007F0FFFE014600F012F806462046FEF79F
:10E5A000C3F94FF6F871884204DAFFF7DCFB08BFC5
:10E5B000022E01D1012070BD002070BDC9B22046DD
:10E5C000FCF732BEF8B5044615460846FEF7BAFD1C
:10E5D00020F4007041F20801884218D146480068D2
:10E5E000205C401B072812DB00260FF22017711950
:10E5F000FFF7E4FFF15D814203D0022E08BF00283F
:10E6000005D1761CF6B2072EF1D30120F2BD002011
:10E61000F2BD2DE9F04180460C46FEF773F9FFF795
:10E6200063FE31D0201DFEF78DFD0546E67940469C
:10E63000FEF77AF907464046FEF75FF900060FD568
:10E640002C480068017B091F022909D2417B02295D
:10E6500006D140884FF6FF71884218BFFBF75FFA7A
:10E66000A01CFEF76FFD4FF6F871884202DA607861
:10E67000C0070BD520780321084205D13A46314620
:10E68000284606F0A4FB05E0012005E031462846B7
:10E6900006F05CFDFEF775FFBDE8F08110B504469D
:10E6A00041B1FF220321FEF707F900220421204691
:10E6B000FEF702F921461148FCF7DBFE2046FCF785
:10E6C0000FFC0F480078BDE81040FEF703BB0000C8
:10E6D00085F40020C8F20020B8F2002038FC0020A9
:10E6E000CAFD002040F40020C8FF0020C4F2002032
:10E6F00071FB0020E0F90020A8F200205CF400206B
:10E70000CBFF0020001300000000000000FF0140CC
:10E710000EC0FF0010B5DFF82004006898B9FAF7C2
:10E720008FFA0446DFF814040178002918BF052980
:10E7300004D1032100F8041BFEF7DEF92046BDE8F2
:10E740001040FAF7BDBA10BD2DE9F047DFF8F043ED
:10E75000DFF8E85327782978DFF8DC830020287178
:10E760000FF2004051B9D8F8004014B99D21F7F7D5
:10E770004BFE0020C8F80000A047B1E003291CBFF1
:10E78000A321F7F741FEFF26FF2F26700CD0384655
:10E79000FEF7BDF8FAF743FF3846FEF7F9FB3846B7
:10E7A000FCF7ACFBFAF76BFF00206870FEF7F0FA9D
:10E7B000002800F0838020780127FEF7A8F8804623
:10E7C000FAF72DFF2078DFF87C93FEF79BF800F036
:10E7D0000C000C2816D12078FEF785F88246FEF74B
:10E7E000C7F899F8001010F80A00052902D1062888
:10E7F00008D106E001291CBF0329082902D10728F6
:10E8000000D100272078FEF77DF800F00C000828E2
:10E8100004BF99F80000082834D09FB3FDF73AFFF1
:10E8200088B12078FEF76EF800F00C0008280AD1B5
:10E8300020780CF06BF8C44F3968887320780CF09E
:10E840007EF83968C8734046FAF7F5FFD0B1412128
:10E850002078FAF79BFC18B920784121FFF7B4FB28
:10E860002078FCF74BFB2670FAF7EAF906460320FE
:10E870002870281DFEF740F93046FAF721FAFAF71A
:10E88000F6FF17E0207800F08AF804466878AF4970
:10E89000C0074EBF0020AE4800780870FAF7D0F9E4
:10E8A00006460120287001212046FBF7D1F93046A9
:10E8B000FAF706FABDE8F047FAF7E1BEFAF7C0F951
:10E8C000064600202870D8F8000010B1281DFEF779
:10E8D00013F93046FAF7F4F9BDE8F047FAF7C7BF85
:10E8E000BDE8F08780B595480178012904D0022958
:10E8F00006D004290BD010E0BDE80140FBF753BA65
:10E90000F8F7E7FDBDE802403120FEF7F3BA052134
:10E910000170BDE8014005F0EABEBDE804404FF4D7
:10E92000B4710FF24020F7F76FBD38B5FAF788F9E8
:10E93000824D04462878052803D040F2771100F074
:10E940002AF8002028707C48006810B1281DFEF7C6
:10E95000D3F82046BDE83240FAF7B2B970B50446A4
:10E96000FAF76EF9754E05463078002818BF05286D
:10E9700003D04FF4C27100F00EF8042030704FF64F
:10E98000FF7084421CBF204601F04EF82846BDE8C7
:10E990007040FAF795B90FF2CC10F7F735BD2DE9B5
:10E9A000FE4F8046FDF795FF8DF80500694F3868EA
:10E9B0009DF8051018F80000401A8DF80400404634
:10E9C000FDF7A0FF00F00C0004280CBF0125002576
:10E9D0004046FCF7C9FAFF2883460EBF0027396876
:10E9E000475CDFF874915D4CFF20661C89F80000DD
:10E9F000FDF750FE58B14046FDF784FF00F00C00D3
:10EA0000082804D1404600F007FE01208BE00DB33A
:10EA10004046FDF789FF06464FF6FF7048F6410A6B
:10EA2000864218BF48F6610AFAF753FF0146201DD7
:10EA3000FEF78FFB3146A01DFEF78BFBFAF745FF73
:10EA4000014604F10800FEF784FB04F10A0004F11A
:10EA50000A060290002000909DF804309DF80520E1
:10EA600041463046FCF7E9FA9DF80400861947B1A3
:10EA7000002000903B46002259463046FCF7DDFA64
:10EA8000BE196DB14046FDF72EFF4078800726D5B0
:10EA90000298311A4246C9B2FEF7BBFD86191EE044
:10EAA000A078617801EB002080B2410B01F00101F8
:10EAB00081F001054DF6FF7101EA000A0AF0070036
:10EAC000032805D1601CFDF753FF0019407804E0CE
:10EAD0001C480078082802D1072089F80000404629
:10EAE000FAF72CFB08B14AF0100A1FFA8AF1601CF1
:10EAF000FEF72FFB1AF0070F04D119480178491CC3
:10EB0000017004E010480068017E491C0176301B4A
:10EB1000E170401C2070301B7F2803DB4FF4F6713E
:10EB2000FFF739FF2846BDE8FE8F04480178481EEC
:10EB30008041C00F704700003CFA002070FB0020AD
:10EB400030F4002085F40020E0F900202CF40020AF
:10EB50002DF40020A8F2002011F400207CFB0020FE
:10EB600030FA00206D61632E6300000010B5254966
:10EB700001EB0014FAF7CCFDFFF7FAF908B100F049
:10EB80000FF8A27A21892046BDE810400BF096BF0D
:10EB90000020EBE70120E9E70220E7E70320E5E7B3
:10EBA00010B582B00446FAF7D9FD164901EB001002
:10EBB000002C017B16BF312C0021491C0173C27A45
:10EBC000017B91420AD30021017343208DF800009C
:10EBD0008DF80140022100A8FCF77CFE13BD0A4914
:10EBE0000978312900D0704780B544218DF8001094
:10EBF00001460DF10100FEF7ACFA032100A8FCF775
:10EC000069FE01BD24FB002046F40020FEB5DFF8BC
:10EC10001817DFF81857FF2008700021DFF81007D9
:10EC200041804170002407E02046FAF7F8FC0AF022
:10EC3000B7FFFAF724FD641C2878E4B28442F3D3CA
:10EC4000DFF8F0462078420000F014FA0021F5F7D2
:10EC5000A7FD0025DFF8E06600AF18E00B232A4689
:10EC6000142100A8F7F7F0FD787A397A01EB00203B
:10EC7000316821F8150080B200281CBF4FF6FF71E3
:10EC8000884203D0B97A284600F006F86D1C207837
:10EC9000EDB28542E2D3F7BDDFF8A026126809077E
:10ECA0004CBF41F2020141F2060122F8101000218E
:10ECB000DFF88C2612688154704770B5DFF87C4607
:10ECC00024680022002302E024F813505B1CDFF8C4
:10ECD00064562D78AB4209DA34F813506E07F5D537
:10ECE0000122002914BF05438543EDE7104670BD9E
:10ECF000002100E0491CDFF83C261278C9B291429D
:10ED000009D2DFF83826126832F811200240824218
:10ED1000F0D101207047002070472DE9FE430646E0
:10ED20000C461546DFF81086DFF8089601E0E7B1DB
:10ED3000761C99F80000F6B286421BD2D8F8000083
:10ED400030F8167000A9304600F076FA002CEED0AC
:10ED5000002F1CBF4FF6FF708742E9D0082200A9A0
:10ED60002046F5F724FD0028E2D19DF80A0028701E
:10ED7000304600E0FF20BDE8FE8380B500AAFFF723
:10ED8000CCFF02BDFEB50D46044611461E460822C4
:10ED900000A8F5F7C2FC280A8DF809008DF8085084
:10EDA0008DF80A6031462046FFF776FF20460BF0CB
:10EDB000C5FE00F05FF9274630F81710320641F41F
:10EDC000804104D441F0080120F8171006E020F833
:10EDD0001710DFF870050078FE2805DB00A9204633
:10EDE00000F0DBF930B9FEBD0B2300AA2146142048
:10EDF000F7F750FDDFF84005006820F817500022B3
:10EE0000DFF844050068016B90F82C00381841F8D1
:10EE100020200120FEBD2DE9F04784B082468846BF
:10EE200016461D4600AA51460020FFF776FFFF2830
:10EE30000746DFF804450CD09DF80010B14202BF30
:10EE4000216831F81000804503D0384600F04EF9B3
:10EE5000FF274FF6FF79C84513D095B901A9404661
:10EE600002F02EF998B90022082101A8FDF7CAFB8B
:10EE700068B9082201A95046F5F799FC38B1C8468F
:10EE800005E0FF2F03D0384600F030F9FF27B10727
:10EE9000404604D548452CD109F0CCFD29E0FF2F90
:10EEA00020D1DFF88C54DFF8A4142A780978914235
:10EEB00011D0484502D109F0BDFD80460021002057
:10EEC000FFF75BFF0746FF2F05D03346524641460A
:10EED000FFF758FF08B948460BE02878401C287017
:10EEE00004F072F938460C9900F09CF8206830F86C
:10EEF000170004B0BDE8F087DFF84014096800206F
:10EF00004EF6FF7305E031F810201A4021F810206A
:10EF1000401CDFF8202412789042F4DB704780B563
:10EF200001460020FFF729FFFF281CBFBDE8024073
:10EF300000F003B84FF6FF7002BDDFF80014096857
:10EF400011F81010890705D5DFF8EC13096831F8BE
:10EF5000100070474FF6FF70704770B50D46DFF830
:10EF6000EC130978884284B0144606D2DFF8CC133B
:10EF7000096811F81010890701D4932017E000A93F
:10EF800000F05AF99DF80A60082200A92846F5F712
:10EF9000C4FBB00748BF022007D4300748BF032096
:10EFA00003D430064CBF042005202070002004B09C
:10EFB00070BD80B5FAF7D0FAFF2803D000F00DF845
:10EFC000800E11E0002002BD80B5FAF7C5FAFF28D7
:10EFD00001D0012002BD002002BDDFF860130968E6
:10EFE00031F810000006704700F0010002BDE0B5E6
:10EFF00000A900F021F99DF80A000EBD10B584B0FB
:10F000000C46FAF7A9FAFF2809D000A900F014F974
:10F01000082200A92046F5F780FB012000E000202F
:10F0200004B010BD70B5044611F0010584B0264649
:10F030000DD000AA01A9FFF790FF40B900F01AF81F
:10F0400010F8160000F0040101A80AF0C1FC2046E7
:10F0500005F038FE00953346232289A10320F9F7F5
:10F06000E7FDFAF74FFB29462046FCF785FEFAF745
:10F0700006FB7FBDB14800687047FEB5AE4E044642
:10F080003068254630F815000F46B8420FD000A969
:10F09000204600F0D1F8380A8DF809008DF8087084
:10F0A00000A9204600F0EEF8306820F81570F7BD92
:10F0B00038B50546A04800682C4630F81400A0B1C9
:10F0C0009B480178491E017004F07EF80021284613
:10F0D000FFF7D3FF99490968002021F814000021A7
:10F0E000BDE834401120FAF794BC31BD10B5044698
:10F0F0009648007884420CD28F48006830F814009B
:10F1000038B100212046FFF78DFF2046BDE81040B2
:10F11000CEE710BD70B50024864D04E000212046E6
:10F12000FFF7ABFF641C2878E4B28442F6D37E4C30
:10F130007F4E2078FF2805D0FBF7E0FEFF202070EF
:10F140000020708000203070002128784200BDE847
:10F1500070407A480068F5F723BB30B5774B794AA1
:10F160001B68127833F810400021FE2AACBF02223F
:10F170000822E4B214420DD0002407E033F8145002
:10F18000EDB215421CBF0B3189B2641C8442F5DB21
:10F19000084630BD4FF6FF7030BD2DE9F04383B017
:10F1A00081460C46FFF7D9FF5F4E644F604D8046A5
:10F1B0003078FF2808D10B210020FBF722FF3070A8
:10F1C00000216980FF2806E0698801F10B0292B2F4
:10F1D000FBF7A9FF002809D1386830F819104FF65D
:10F1E000F772114020F81910002023E0698808E028
:10F1F0000B220092A1F10B07BBB20246FCF708F903
:10F20000B9B230788845F3DB8DF80400414601A897
:10F21000FBF7FEFF0246012000900B239DF804102F
:10F220002046FBF726FF68880B3068806878401C12
:10F2300068700120BDE8FE8330B583B004460D46FA
:10F24000FFF78BFF4FF6FF71884206D10B23224652
:10F2500014212846F7F7F8FA37BD334909788DF8B5
:10F260000410014601A8FBF7D3FF024600200090DE
:10F270000B239DF804102846FBF7FBFE37BD00006A
:10F28000424242007CB505460E46FFF766FF014646
:10F290004FF6FF70814206D10B23324629461420D7
:10F2A000F7F7F8FA73BD204C707A337A227813EBB3
:10F2B00000202AD1FFF7DEFE30F815304FF6F77642
:10F2C000334020F815301A4D6878012806D11046D1
:10F2D000FBF714FEFF202070002611E06888A0F1E3
:10F2E0000B06701A80B230B1009001F10B039BB293
:10F2F0001046FCF78DF869882078B2B2FBF713FF4F
:10F3000068786E80401E687073BD8DF8042001A877
:10F31000FBF77EFF0121009102469DF804100B23AC
:10F320003046FBF7A6FE73BD52F40020F4F2002035
:10F3300098FF0020C0F20020BCF20020C4F20020A0
:10F34000C8F20020A9FF0020E0F9002036F30020D9
:10F35000008F8E8C8000000038B504460D46009565
:10F3600023464722A9A10320F9F762FCFDF7F1F833
:10F3700068B1FDF78FF950B1002C18BF002D08D0EF
:10F38000B4F57A7F03D8112D01D3A54201D37020A3
:10F3900032BDDFF860040481458100F01EF80020D2
:10F3A00032BD10B504463322237899A10320F9F722
:10F3B0003FFC1A222146DFF840040AE010B504465B
:10F3C000342294A10320F9F733FC1A22DFF8281421
:10F3D0002046F5F7A2F9002010BD10B5DFF814445F
:10F3E00000202070FDF73FFD20B92046BDE8104009
:10F3F000FDF782BB208920B1DFF8040400780328E0
:10F4000001DB002002E0608920B90120BDE8104046
:10F41000F8F774B8F8F76FF830B90120F8F76EF81C
:10F4200020896189411A03E00020F8F767F86189B3
:10F430002046BDE81040FDF76ABBCEE738B5DFF8DF
:10F44000C443DFF8C40321680078C873DFF8B00351
:10F450000078C11E03291BD31AD0DFF8A0532978E6
:10F46000C90701D4092813D0688801F05EFEA88876
:10F4700001F063FE2978206801F00101012905DA15
:10F48000817B0F291CBF1429192901D06978817348
:10F4900031BD80B500F070F90BF0EAFC00200BF0F4
:10F4A0009AFFBDE801400CF09FBC10B50446FDF783
:10F4B00050F808B9932010BDD04881882181D149E6
:10F4C0000968C97BA1724178E1724088E08100201F
:10F4D00010BD10B586B00446FDF7DCF828B940F23F
:10F4E00025110FF24430F6F78FFF1223192200A9DD
:10F4F00001200DF02CFE9DF80000FF2808BF93208E
:10F5000007D09DF80100C0074CBF062007202070DF
:10F51000002006B010BDF8B504460D4616460FF2A1
:10F520000837FDF7EFF900F00C00082804D040F28E
:10F5300039113846F6F768FF00F04AF810F0030F6B
:10F5400004D14FF49D713846F6F75EFFFDF701F8E0
:10F55000C8B100F03DF800F00300012805D000F02C
:10F5600037F800F00300032806D13246294620462A
:10F57000BDE8F8400CF03FB8324629462046BDE8C9
:10F58000F8400EF087B8F1BD10B5044621460620BC
:10F5900009F0BFF9D8B100F01BF800F00300022811
:10F5A00004D12046BDE810400EF010B800F010F86D
:10F5B00000F00300012805D000F00AF800F0030075
:10F5C000032804D12046BDE810400BF032BF10BD27
:10F5D0000022062120460BF05EB810B500F0A2F81C
:10F5E000400711D520460EF095FAFF280AD087492A
:10F5F0000968302202FB001090F82C0000F0040093
:10F60000012801DA002010BD012010BD4244440051
:10F6100042420000420000002DE9F04383B000F0B8
:10F6200081F8800800F0010979480FF2FC180068A1
:10F63000205C000604D44FF4BE714046F6F7E4FEA9
:10F640002046FBF791FC074601AA012120460BF05A
:10F6500022F86C480068017E4A1C0276D2B29DF8FE
:10F66000041000F05CF801AA072120460BF013F803
:10F67000FFF7AEFF00F00300022802D106F0F6F813
:10F6800004E020460CF087F80BF0C2FE9DF8041051
:10F690000546481C8DF80400EAB200F040F800F07E
:10F6A00037F82A0400F03AF800F032F82A0200F0A5
:10F6B00035F800F02DF82A0E00F031F80020554EF4
:10F6C000554D0090002230683B5C3946681CFBF7C2
:10F6D000B4FC3068385C4019471CB9F1000F08D001
:10F6E00020460EF017FA014620460EF0C2F804201C
:10F6F00000E00020791B4018401C2870781B7F28F0
:10F7000004DB40F2AB114046F6F77EFEBDE8F7831E
:10F710009DF80410481C8DF804007047120E3846FE
:10F72000FBF787BD0446002206210AF0B4BF80B56E
:10F730000F2804D0142804D0192804D005E0142080
:10F7400002BD192002BD0F2002BD40F2C1110FF20F
:10F75000D800F6F759FEFF2002BD80B5FCF7F9FE90
:10F7600040B1FCF797FF28B125480178481E804139
:10F77000C00F02BD002002BD0FF2BC00002200E05D
:10F780000A7050F8081B0029FAD17047234890F9F5
:10F79000000000284CBF4000FF20C0B2704718484E
:10F7A000007800B1012070471248008928B1144840
:10F7B0000078032801DA01207047002070470D48C7
:10F7C000018919B1408910B1012000E00020C0B2C8
:10F7D000704780B5FFF701FE1148007808B10BF0C3
:10F7E000C0FB1048007800281CBFBDE801400CF0A9
:10F7F0004BBC01BDFCFB002014FC002048F40020A1
:10F80000F8FE0020E0F90020D3FF002004F30020E0
:10F81000ACF20020A8F200207CFB0020DDFF0020DD
:10F8200054FF0020FCFE002072663463652D737463
:10F8300061636B2E63000000FCFB0020DBF300081B
:10F8400004FF0020A1BF010860FF002081DB010848
:10F8500054FF002063AF0108FCFE002089C00108AE
:10F8600000000000000000002DE9F041494F4A4A25
:10F8700032F810600D4637F810108E429B41DB4382
:10F88000DB0F4FF6FF74A6421CBF761C22F81060F7
:10F89000032818BF0528804607D114893F892E19EF
:10F8A000BE42ACBF1781168118E00928BE8A18BF76
:10F8B0000B2805D1978AEC19B4420EDAEE190CE048
:10F8C0001D280BD1548F7F8F2C44BC4205DA32F8AF
:10F8D0001070EE1922F8106000E0968232F81000E5
:10F8E000884203D313B94046FCF79DFA29464046A7
:10F8F000BDE8F04115E080B5422200212648F4F72A
:10F900004FFF2648BDE8084044220021F4F748BFD5
:10F910004222FF211F48F4F743BF1E4A22F810106D
:10F920007047F8B504460D4600260FF28400315C9E
:10F93000A14204D0761CF6B2112EF8DBF1BDFF2EE9
:10F9400027D0F9F70BFF074615480078874204DBFC
:10F950009C210FF25000F6F757FD1048222101FBC1
:10F9600007004FF6FF7230F8161091421CBF491C79
:10F9700020F81610032C18BF052C03D10189691833
:10F980000181F1BD092C18BF0B2C02D1818A6918A5
:10F990008182F1BD84FA002040FA0020C8FA0020DC
:10F9A000F4F20020636F756E746572732E6300004D
:10F9B000000102030405060708090A0B15161819A9
:10F9C0001A00000010B50446062C02D1F8F77CFCA2
:10F9D00030B9E008032803DA00F012F80C4A50505E
:10F9E00010BD10B50446062C02D1F8F76DFC30B9F5
:10F9F000E008032803DA00F003F8064A505010BD6F
:10FA0000012004F007018840E10849027047000026
:10FA100014B0004010B0004000281CBF0620FFF7C3
:10FA2000D1BF0620DDE7000038B5002814BF04016F
:10FA30001024F9F705F90546F7F759F920180F4989
:10FA40000F4C82B24A60000C0860042020602846F7
:10FA5000F9F736F9206C40F00400206431BD80B520
:10FA6000F9F7EEF806490A6C22F004020A6404224F
:10FA70000A60BDE80240F9F723B9000048200040C1
:10FA800008A00040F8B504460025E01CFDF75AFB2D
:10FA90000646601DFDF756FB4FF6FF77BE42044653
:10FAA00008BF012504D001F044FB864208BF0225AF
:10FAB000BC4208BF45F0040505D001F032FB84428A
:10FAC00008BF45F008052846F2BDF8B50546FDF724
:10FAD00039FB06464FF6CF7000EA06072846FFF7C7
:10FAE000D1FF002448F641018E4208BF052809D104
:10FAF000E81DFDF727FBBB490988884214BF022493
:10FB0000062412E04CF6010087421ABF4CF6014071
:10FB10008742012409D0F9F7F5FD2846F4F7AEFE37
:10FB20000546F9F7ACFD05B10824AF480078204040
:10FB3000F2BD3CB50FF2C82330CB00AA002130C281
:10FB400028B9AA490860002036BD491CC9B230F85E
:10FB500011201304F5D4002300E05B1C00ACDBB2E1
:10FB600034F813402504F0D49442F6D1022036BD77
:10FB70002DE9F04F8346884683B000250026404695
:10FB8000FDF7E0FA994C82462068002804BF6068BF
:10FB900000282F464FF003095CD04FF440611AEA69
:10FBA000010F0BD008F10300FDF7CCFA4FF6FF71FF
:10FBB00088420CBF022701274FF0050947F00800D3
:10FBC00001905FEA4A6017D44FF440411AEA010FEE
:10FBD00016D00AF44060B0F5406F0CBF0820022038
:10FBE0004844C0B24044FDF7ADFA009001F0A1FADC
:10FBF000009989B2814201D1019F01E047F00407D9
:10FC00000AF44040B0F5004F04BF47F0800087B2CF
:10FC10000AF44060B0F5006F0BD109EB0800FDF766
:10FC200091FA804601F07DFA80450AD147F010072D
:10FC300007E0B0F5406F04D147F0200701E000264F
:10FC400015B96068014600E0216839B96D1CEDB254
:10FC5000022DF4DBFF20BDE8FE8F761CF6B231F8F2
:10FC600016201304F2D4BBB29342F6D1BBF1000FBD
:10FC700005D081420CBF802010208BF80000304658
:10FC8000E9E700002DE9F04781468846FDF75AFA7A
:10FC9000054605F0070605F4406A2F464846FFF77B
:10FCA000F1FE04464FF6F7700540514800780828E9
:10FCB0000DD8DFE800F087058705050A0C0C070062
:10FCC000002E00E0012E7DD101E0032E7AD139070C
:10FCD00021D5002E76D10A2801D1A00772D5B5F51D
:10FCE000004F18BFB5F5404F6CD10026E80648BF5D
:10FCF00046F08006A80648BF46F4805606F00C0081
:10FD0000042861D109F10700FDF71CFA0146FF2222
:10FD100046F004005BE0002E364FDCD0022E03D00C
:10FD200004D3032E2FD04DE03B2058E04FF6CF7088
:10FD300000EA05064846FFF7C8FE38B94946FFF70E
:10FD400017FFFF2802D1FCF7A5FC08B10826CDE774
:10FD500048F64100864235D10A2C18BF062C31D115
:10FD600060070ED5FCF7F5FB20B13868007B001F5B
:10FD7000022827D320480078022823D040F6040622
:10FD8000B4E70426B2E714F0030005D101F0D1F97D
:10FD90004FF6FF71884215D10C26BAF1000F0DD035
:10FDA000BAF5006FA2D0BAF5406F0BD10822134903
:10FDB00009F10500F4F7FBFC20B997E73868007BF0
:10FDC000012893D03A200AE0FF2200213046FCF7B8
:10FDD00047FEFF280EBF182088F800000020BDE86D
:10FDE000F087000082F40020E0FF002088FD002062
:10FDF00085F40020E0F9002070FB0020F4F90020D9
:10FE0000990089000080000070B12DE9F05FEFF3E8
:10FE100008800D490860EFF309800C490860EFF392
:10FE200014800B49086030BF0748006880F30888D9
:10FE30000648006880F309880548006880F3148844
:10FE4000BDE8F05F70470000A8F90020ACF9002081
:10FE5000B0F900200A0242EA11214840C0F3031120
:10FE6000484080EA003041010206C9B2D20E41EAA0
:10FE70000221484080B2704770470120704701203E
:10FE800070470020704780B57020F4F776FABDE81F
:10FE900002400020F4F771BA7020F4F76EBA000047
:10FEA00080B5FAF7FCFC3C483C490068401C0860FF
:10FEB00001BD3B483B4900780978884201D10120C7
:10FEC000704700207047704700BF80B53648007803
:10FED00028B900F006F8401E8041C00F02BD002086
:10FEE00002BD10B5314C207820B9FAF74FFD08B1AA
:10FEF00001202070207810BD80B52C4900200870AA
:10FF00000120FAF743FDBDE8014024480368224878
:10FF1000006802781FA13C20F8F7FEBEFAF71CBD6E
:10FF20001E4A12688018FBF76CB81B4800680078FE
:10FF30007047194909680870704770B582B0002091
:10FF4000FBF7BDFC04460020144D194E317800909B
:10FF5000234628680122FBF78CF816480188091B04
:10FF6000491E018089B230780091631C9BB2024621
:10FF70000021FBF74DFA28680F492018086001207E
:10FF800076BD06490968CA78521C92B2C91CF4F7BA
:10FF9000C4BB00006C70000000F40020B4F9002025
:10FFA000A1F20020A0F200208AFF0020C0FF002064
:10FFB0001BF4002096FF0020C4F70020F0B53A4C57
:10FFC0000D46A16889B00646174629B1082206A841
:10FFD000F4F7A3FB06A8A06037B901F0A2F8618886
:10FFE000814218BF012700D10027304606F054FA9D
:10FFF000014605AB3A46304606F090F8A0BB606873
:020000040801F1
:10000000C18804912B464179039111220179029113
:100010004188019100880FF29C0100900320F8F7BD
:1000200007FE01202070F9F76DFB9DF81420616830
:100030002846FBF772FDF9F722FB9DF81400FF2814
:1000400018BFFAF75BFF6DB96068C18848F24002DB
:100050001140402906D12178490703D44088FF2167
:1000600000F003FC0020207009B0F0BD0F4900E053
:100070000F4909780170002070470B48017811B9C9
:100080004FF6FF7070474088704780B506490A7880
:10009000002A1CBF8968002901D1702002BD0822F6
:1000A000F4F73BFB002002BD30FC0020DCFF002009
:1000B000DDFF002042425757424257002DE9F84FDA
:1000C0008AB00D461646ADF804504FF00008F78888
:1000D0000446C246C146FCF7E6FA159860B9F80630
:1000E0000AD59DF850009DF82830009032462946E8
:1000F00020460EF035F804E1780548BF4FF4805AE9
:10010000380548BF4AF4006AB80548BF4AF0800A7B
:1001100003D4F80548BF4AF0400A9DF85000029009
:10012000072CAB4665D8DFE804F0062C183A3A04F1
:10013000063A4FF002099DF82800BDF8042000900F
:1001400043469DF850004AF4027106F07DF882465D
:10015000BAF1FF0F4FD11820D3E005A9E8B20EF095
:10016000DCF808220DF1190103A8F4F7D6FADFF83C
:100170007408006830F81B000DF10C08ADF804009D
:10018000D9E703A9E8B209F0ECFADFF85C080068E7
:100190000C2101FB0B000DF10C080088EEE74FF677
:1001A000F870834525DBF0884FF40261084220D1C6
:1001B00000F033F918BF91201CD10298FF280FD00E
:1001C00000F04CFB032C0CBF01210021401ADFF88A
:1001D0001C18029A0968515C8842B8BF742009DB78
:1001E000032C0CBF4FF00C094FF008092AF4C07A19
:1001F000A1E7012085E0DFF8F80700884FF6FF71DE
:10020000884214D05046FCF76EFB8346DFF8E007C7
:1002100001880BF10400FCF79CFFDFF8D807DFF83A
:10022000D01700788BF807004FF6FF700880324631
:100230004946504606F0C2F908B918265DE0DFF8D5
:10024000B8070068C07E48B1B80607D5012342460A
:100250000021504605F032FF06004ED10298FF28DB
:1002600016D05046FCF735FBDFF88C170968C97EBD
:1002700001B11221DFF87427029B12689B5C1AF807
:100280000220D218743089188842B8BF742634DB33
:10029000B80407D55046FCF730FB40F48061504667
:1002A000FCF72DFB062C12BF072C5046FCF734FB45
:1002B000159848B1BDF804105046FCF746FB159858
:1002C00080F800A000201CE0E01E022801D9001FD9
:1002D00007D15046FCF7CCFF00280CBFA126002612
:1002E0000BE0B80444BF4FF6BF7007403B46EAB28C
:1002F0002146504609F0C9FC06465046FAF7FEFD75
:1003000030460BB0BDE8F08FF0B587B00E4604461E
:100310000C9917461846FAF774FE0546FF2D21D0B2
:10032000FF208DF810008DF81100ADF80E704CF222
:100330000E00ADF80C00ADF812600020ADF814000E
:10034000009502A80190FF2303AA21460020FFF791
:10035000B5FE04462846FAF7D1FD002C0CBF9DF8E7
:100360000800FF2007B0F0BD2DE9F043164685B028
:100370000446F08804900D4670790FF2B461039042
:100380001F4630790290A846708801904346308815
:100390000090082200F098F800F03FF818BF912074
:1003A00019D1FF2F09D000F059FADFF8401609687B
:1003B000795C884238BF74200DD37CB94FF6F87051
:1003C000804528DA002001900097FF233246294615
:1003D0002046FFF773FE05B0BDE8F083022C4FF610
:1003E000FE790CD1DFF814060078854213D2DFF8CD
:1003F000F405006830F818004845E3DB0BE0012CF9
:1004000009D1DFF8FC050078854204D2E8B209F092
:10041000B6F94845D6DB0120DDE7DFF8DC050068EA
:10042000407B02287047F0B587B00D46164604465B
:1004300005961F46E8880FF200610490234668790C
:1004400003900922287902906888019028880090FA
:1004500000F03AF800200190009733462A462146E2
:100460000420FFF72BFE07B0F0BD2DE9F04188B066
:100470001E460E9C07948046F088069017467079B9
:1004800005900D4630790FF2BC51049043467088B8
:1004900003900A22308802900197009500F014F82A
:1004A000DFF84C05A0F800802346DFF84805077008
:1004B0000020019032460F98009029460420FFF753
:1004C000FDFD08B0BDE8F0810320F8F7B1BB70B5C1
:1004D00088B004460D46069205951E46E0880FF248
:1004E0007051049006226079039020790290608810
:1004F00001902088009003202389F8F799FBDFF80A
:10050000040500780096002814BF4FF6FF714FF6DF
:10051000FD71002001902B4622460320FFF7CEFDFF
:1005200008B070BD10B5DFF8E004FAF7B7FF044675
:10053000FF2C0DD02146042008F0EBF918B1012161
:10054000204600F006F82046BDE81040FAF7D6BC79
:1005500010BD2DE9FE4F82460D46FCF7C4F9064654
:10056000B01CFCF7EFFD8346504605F012FF014634
:100570005046FAF759FE804608F003095046FCF74A
:10058000C6F9F9F74CF8DFF88444301DFCF7DAFDC2
:100590002080DFF87C7400F0C4FD834512D04FF654
:1005A000F87083450EDA7078C0070BD45846FEF712
:1005B00000FD002869D0208801235246594600F0EA
:1005C00091F962E000A9504605F072FF00A838607A
:1005D000304605F0FDFEDFF83C140860032150466C
:1005E000FCF771F9DFF83014087004215046FCF76D
:1005F0006AF9DFF8281408704DB39DF806008006EC
:1006000025D5DFF8F45300F08CFD40B12868007D5B
:10061000800704D4B9F1010F08BF102000D00020DA
:1006200040F0080300220021504605F047FD70B15C
:1006300008F00300012802BF2868407B112839D147
:100640000EF0ECF9B0BBAF2001F0C7FE32E018F0BD
:10065000030003D0022805D009D316E0504600F06D
:100660002DF812E05146404609F03DFB0DE000F048
:1006700058FD2188814208D05146052008F049F9EB
:1006800018B12188504606F09EFC00F04AFD2188F2
:1006900081420DD1504605F07CFE01465046FAF7E6
:1006A000C3FD0C21084203D10021504609F03CFD56
:1006B00000203860F8F7E3FFBDE8F78F2DE9F04F31
:1006C00083B08046FCF70FF90546A81C95F801B0E9
:1006D000FCF738FD4FF6F8718842ACBF01260026C2
:1006E00000F01FFDDFF82493DFF82473B9F8001041
:1006F00081423868B0F802A00CBF012400240BF03E
:10070000010030438DF804009DF80400002814BF58
:10071000062008200021F9F77CF9386801880029B3
:1007200004BF4079002808D1B9F80000BAF5004F9D
:1007300019DB524641460EF0A4FB386800884CF2A3
:100740000E01884241D144F20106B24518BFBAF504
:10075000804F37D1404605F09FFE0146B2450CBFA1
:100760000120002025E0DFF8B8B202218BF800104C
:100770003346002241460EF0F7F93868807940068A
:1007800003D5FF21504600F070F8BAF1130FD4D012
:100790003868C0884004D0D4A2499BF8000009788A
:1007A000CA0701D50228C8D0890749D50128C4D075
:1007B00046E0491EC9B200912B464246012102F093
:1007C000EAF93DE040460AF0D3F93868817901F052
:1007D0000C010C290DD1008909F00DF980B338689E
:1007E0000189002C14BF0325022500200DF019FEFD
:1007F00014E00179009100224379B9F8000000214A
:100800000DF03EFE3968897901F00C01082904D108
:10081000002C0CBF0425052500E000258249087046
:100820009DF8040010B9BAF1380F01D1012200E09F
:1008300000222946404603B0BDE8F04FFFF7BEBB9B
:10084000BDE8F78F10B5044600F008F8610548BF11
:100850000838210548BF0838C0B210BD664909688C
:10086000C97E642001B15220704770B5684E0C46B5
:1008700086B0054631680C2202A8F3F74EFF3068B7
:1008800001798DF80D10FF2341798DF80C10ADF82A
:100890000A504FF6BF71C08800940840ADF80E00B2
:1008A00002AA00200190594801880520FFF706FCA4
:1008B00006B070BD5D48007808B9FF2070475A48FF
:1008C000007870470A4680B50C21084208D190791B
:1008D000400605D55088FF21FFF7C7FF012002BD64
:1008E000002002BD2DE9F34F904683B01D464046DF
:1008F00005F04FFD01464046FAF796FC824603207C
:100900001AEA000F69D1424806684048B0F800B0C2
:10091000002400A9404605F0CBFD3D4900A8086031
:100920003A49BDF80C0008809DF80500002804BF76
:10093000BDF80000002834D14046FBF7D4FF801CEE
:10094000FCF700FC4FF6F8718842ACBF4FF001098C
:10095000A146002D14BF022501250127FFB2BD428B
:1009600034D3BDF80C004B463A4641460EF0FCF835
:100970000446012C04BF022D012F10D1BDF8100038
:100980001B4908801C480068417E491C4176A1F142
:1009900080001849087000A95046FFF793FF7F1C9C
:1009A000DCE7BDF800004CF20E01884204BFBDF840
:1009B000020001280AD145B1BDF8100041460AF0F5
:1009C00038F900A95046FFF77DFF01241048066062
:1009D0000E48A0F800B0204600E0002005B0BDE8B9
:1009E000F08F000014F3002020F30020A8F2002074
:1009F00054F40020D9FF0020E0F90020A2FF0020DD
:100A00001CF30020ABFF00205CF4002032FC00202F
:100A100034FC002038FC0020DCFF0020DDFF00203B
:100A2000D8FF0020A7FF0020D7FF002030FC0020C7
:100A30004257575742425700425757574242574230
:100A400000000000425757425757424257420000A9
:100A5000425757424242574242000000002100E004
:100A6000491C3F4A1278C9B2914207D23D4A1268E6
:100A700032F821208242F3D108467047FF207047A8
:100A80002DE9F04104460D46FFF7E8FFFF28354900
:100A9000364A334B10D1344E18783678B04202D2F1
:100AA000461C1E7008E010780F6800E0304607EB27
:100AB0008006F678FF2EF9D11678B0421AD04FF0A2
:100AC000000C01E00CF1010C1F785FFA8CFCBC45B6
:100AD0000BD20F6807EB8C0E9EF803808045F1D196
:100AE00007EB8003DB788EF803300B6803EB8003A1
:100AF000DE701070FF230A6822F8204002EB8002AB
:100B0000FF2D937003D0096801EB85018870BDE863
:100B1000F08138B504460846FFF7A0FF0546FF2DD3
:100B20000AD0FF212046FFF7ABFFFF2804D00D4A73
:100B3000126802EB80018D7032BD10B50024FFF702
:100B40008DFFFF280AD0022401E0A41CE4B205496D
:100B5000096801EB80008078FF28F6D1204610BD9F
:100B6000DAFF0020C0F400208FFF002056F40020A0
:100B700070B5554D6E8A044605F10800FBF7D4FFA9
:100B8000012C08BFAE8A02D0022C08BF022618B181
:100B9000FA217143884206D3310205F10800BDE80D
:100BA0007040FBF7B4BF70BD38B5F3F7DFFB044608
:100BB000454DF3F7F5FB2882F3F7F2FB80006882DE
:100BC000F3F7EEFB8000A882F3F7D0FB2870F3F771
:100BD000CDFB6870F3F7CAFBA870698AA88A8842BF
:100BE00008D3288A4FF6F87188421CBF4FF6F97176
:100BF000884201D070200DE0002068714FF6FD7032
:100C0000324908801CB10120FFF7B2FF01E000204B
:100C100028720020BDE83240F3F7AFBB7CB52A4C08
:100C20002A4E0020E07020714FF6FD75607988B182
:100C30004FF6FC7001900023002000900246014610
:100C400030880EF06AF93580002060710120BDE81F
:100C500076408DE7A178208AFCF775FC3088A842A1
:100C6000F4D0012060710220F1E710B5A92818BF67
:100C7000AA2814D11448C2780378521CC270D2B288
:100C80009A420CD3114A13884FF6FD74A34202D145
:100C90001180002141710020BDE8104068E710BDBF
:100CA00000281CBF012802280CD166290AD1064859
:100CB0000179491C0171C9B24078814224BF0020EA
:100CC000FFF756BF7047000018FA00202EF40020EE
:100CD00038B5F3F7D1FDFAF745FCDFF87444207816
:100CE000002840F0A78012200EF04AFA00060BD52B
:100CF00000F0DFF8000607D500F0DEF8000603D5A7
:100D000000F0D4F8000610D412200EF039FA0006D4
:100D100014D500F0CEF8000610D400F0CDF800068F
:100D20000CD500F0C3F8000608D5E0780E2861D194
:100D3000F5F746FD002800F07F8032BD00F0B9F8DD
:100D400000060FD400F0B8F800060BD500F0B4F898
:100D5000C00707D400F0AAF8000603D4E0780C28F6
:100D600045D1E5E700F0A5F8000609D500F0A4F8A4
:100D700000F08100812803D100F098F800060DD51D
:100D800000F097F800060ED400F096F800F081000D
:100D9000812808D100F08AF8000604D4E0780D28F4
:100DA000C6D00E28DCE700F084F8000610D500F06D
:100DB00083F800060CD400F079F8000608D5E07836
:100DC00016281CBF01281A28B2D00F2815D1AFE76A
:100DD00000F06FF80006ABD400F06EF80006A7D460
:100DE00000F064F80006A3D5E0781628A0D0E078DB
:100DF00001289DD0E0781A289AD0E078022818BF00
:100E00001B2895D0062818BF072891D0082818BF9E
:100E100009288DD00A2818BF032889D0102818BFA8
:100E2000112885D0122818BF1328FAD0142818BF0B
:100E30001528F6D0B02032BDF7F71EFA0EF0E4F90F
:100E4000DFF81003007808B10DF0BCFB08F010FCCF
:100E5000F7F76AFFDFF800430FF24430FBF7DFFEDD
:100E60002070DFF8F802FBF7DAFE6070F7F7E8FEB3
:100E700005466078FBF7F4FE2846F7F721FFF8F700
:100E80008BFBFCF706F8FCF79DF90EF0CCF90EF0A1
:100E9000D7F901F054FA0120F6F72EFADFF8C00274
:100EA0004FF47041FBF733FE002032BD00200EF0FE
:100EB00067B910200EF064B911200EF061B92DE968
:100EC000F04703F099FF03F065FDF9F7D5F808B98D
:100ED000F9F7BEF8DFF88C824046FAF729FB08B92B
:100EE000FCF78BFCDFF880924846FAF721FB08B943
:100EF000FFF718FB08F043FEF8F7C1F9DFF8586276
:100F00003078FBF778FE7078FBF775FE0EF0A0F9ED
:100F1000DFF85852DFF858A2002700240BE02046E3
:100F2000F8F77DFB2868007B001F022838BF0127E7
:100F3000F8F7A5FB641C9AF80000E4B28442EED3F3
:100F4000002F1EBF8B480078002805D000F02AF83B
:100F5000102808BF08F040FFF7F7B6FE01F022FAAC
:100F6000F7F76EFE0746F9F787F868B14046FAF7DB
:100F7000DFFA48B14846FAF7DBFA28B101F010FA77
:100F800010B13078FBF76CFE3846F7F799FEF8F7AA
:100F9000AEFB18B94FF4B47100F055F8F6F799FFAD
:100FA000BDE8F08710B5FBF75EFF40B104F035F8FF
:100FB00028B10AF003FC441EA441E40F00E0012420
:100FC000F6F784FA08B944F00404F9F755F838B193
:100FD0006448FAF7ADFA18B16348FAF7A9FA08B904
:100FE00044F002046448007808B144F020046148E9
:100FF000007808B144F010046048007808B144F06B
:101000004004FEF7CCFB08B144F08004FEF7D7FBA8
:1010100008B144F48074204610BD80B52D224BA148
:101020000320F7F705FEFBF71EFF18B940F29B11EE
:1010300000F009F8F6F7EBF95148FAF780FABDE845
:101040000140FAF7A0BA0FF24810F5F7DDB980B504
:10105000FAF7B5FA2E223DA10320F7F7E9FDF6F7DE
:101060004AFAF6F749F94748007808B108F0D8FA83
:101070004548007808B104F020FB4448007808B1E6
:101080000DF05CFDBDE80140FEF7A3BB38B504469A
:1010900036480068007BC01E03280BD32046FDF7AE
:1010A0003EFF4FF6FF75A84204BF204604F0C2F889
:1010B000A84204D12046BDE8324008F0C1BB32BD91
:1010C00070B504464FF6F87084420D4627DA274E75
:1010D0003CB93068007D800703D428460DF0C0FB82
:1010E000D8B9306841888C4205D1011D08222846B4
:1010F000F3F713FB11E0007BC01E032808D3204642
:1011000006F0CAFCFF2803D0294606F0E9FC20B906
:101110002946204608F0DBFB08B1002070BD012005
:1011200070BD12480068008A70471049096808823B
:1011300070470E480068408A70470C490968488229
:1011400070470A48006800787047000042000000BD
:101150009607080884F40020CBFF002038F8000828
:101160002CFE002034F400205CF40020E0F9002084
:10117000F4F2002058FE002074FD002048FD0020FD
:1011800028F400203CFD002034FD00204CFE00200F
:101190007A69676265652D737461636B2E63000005
:1011A000FCF900204192000874FB002049E7000888
:1011B000A0FD0020F545010878FE002045510108FA
:1011C000C0FD0020093E010874FD0020D730010851
:1011D00080FD00209531010858FE0020D59D0108B2
:1011E0006CFD0020D5260108E4FE00201D8E0108BC
:1011F0002CFD0020F73B0108D8FE0020BF14020898
:1012000034FD0020BB5601083CFD0020219601085A
:101210006CFE00200702020844FE0020ADF9010820
:101220004CFE00203DEB01083CFE002069F5010862
:1012300048FD0020971E0108E8F900206F9800087B
:1012400010FA0020939D00082CFE0020494F020850
:10125000CCF900204F9B00080000000000000000B7
:10126000214A507011700020907070472DE9FC41A8
:101270001D4EB77804463078884698B34FF6FC7018
:10128000844204DB49210FF26400F5F7BDF8002524
:1012900000E06D1C3078EDB285420DD270782818D0
:1012A00000A9C0B208F05DFA0822414600A8F3F791
:1012B0007EFA0028EDD12F46B0780146874201BF63
:1012C000491C3078C9B2814208BF00217078B170E2
:1012D000C7194146F8B208F0D7F918B92146F8B253
:1012E00008F013FABDE8F381D4FF0020736563753D
:1012F000726974792D616464726573732D636163BF
:1013000068652E630000000010B527280A46DFF844
:10131000544611D1042907DB3620F3F72EF8372085
:10132000BDE81040F3F729B8627304F120011046BC
:10133000F3F761F80020F0E7282805D10829EBDA57
:10134000227304F11801F2E71D2812D10429E3D118
:10135000E07B40F00100E073F3F708F82072F3F748
:1013600005F86072F3F702F8A072F2F7FFFFE0727F
:10137000E0E71E280CD10129CED1F2F7F7FFE17B7F
:10138000002814BF41F0020001F0FD00E073D1E736
:101390001F280CD10129BFD1F2F7E8FFE17B00281B
:1013A00014BF41F0040001F0FB00E073C2E7202805
:1013B00005D10829B0D104F1B0010820B8E72128EF
:1013C00005D10929A8D104F1A4010920B0E72228F8
:1013D000A5D1052918BF3620A2D1F2F7C7FF20708A
:1013E000F2F7C4FF6070F2F7C1FFA070F2F7BEFF22
:1013F000E070F2F7BBFF2071002091E710B5DFF835
:1014000064458022FF2104F12400F3F7C9F9039A0F
:101410000499A27304F11000BDE81040F3F77DB900
:101420008022FF21DFF84005F3F7BAB970472DE9B4
:10143000F54FDFF83805C0780027702895B08A4648
:101440001E46BB4640F01F813078DDF88090DFF803
:101450002085DFF81045C0F302100090002500E061
:101460006D1C0098EDB2C0B2854280F09380A8193F
:101470000221C07C00F084FA0028F1D0327BF07A9F
:10148000B17AE57B130901EB0020AF0702F00F01F1
:101490004EBF0127277A07F00F07727BED0780B256
:1014A00068D54FF6FF75A8421CBFB8F80050A84297
:1014B00060D18F4222BFBB42219890425AD31599E6
:1014C000082208A8F3F729F916998DF828A00A220E
:1014D0000DF12A00F3F721F91A2231460DA8F3F78E
:1014E0001CF98DF84E90E07B80074CD5DFF88454D2
:1014F00005F12E06B07800283DD00822294608A81C
:10150000F3F755F9002801BF0AAE7088698988424F
:101510002CD1072205F10C010BA8F3F748F900289C
:1015200002BF307B297D884220D10F220DF1350189
:101530000DF13500F3F73BF9C0B9032205F12401A1
:1015400011A8F3F734F988B9072205F127010DF145
:101550004700F3F72CF9002802BF9DF84E0095F8DC
:101560002E10884202D1022101200EE0E07B00F023
:10157000FD00E07385E0302208A92846F3F7CDF896
:101580000120B0707DE00221002000F0AFF94FF0A3
:10159000010B76E000253BE0401CC0B2884236D209
:1015A000DFF8D4238218127C9145F5D101A800F010
:1015B0008AF9227B04F118010DF11700F3F7ADF859
:1015C0009DF8040000F08F008DF804000922217BB3
:1015D000090141F0010108438DF8040004F1A40160
:1015E0000DF10500F3F799F8A0788DF80F006078F9
:1015F0008DF8100020788DF8110020798DF81200F8
:10160000E0788DF8130001A8FDF7CBFEBB466D1CFA
:101610000098EDB2C0B2854232D2BBF1000F2FD19B
:10162000A819C07C012802D0C0280FD0EFE7E07BCA
:1016300001278007EBD51599082204F12400F3F760
:101640006CF80021012000F051F9DFE7CB4909785F
:1016500001F0010101270AF0010081F001010843B6
:1016600001BF16980088B8F800108842CFD1C24850
:101670000078B9F1FF0FC0F3410197D000208CE74B
:101680000FB1584605E0B948007872280CBF012018
:10169000002017B0BDE8F08F2DE9FE4FB348C078A9
:1016A00000247028A0466BD10E98DFF8B8A200780D
:1016B0000094C0F30210019021E06D1C09F10109B2
:1016C000B9F1100F43DB96B10E980078C0070ED524
:1016D0000E98C07AC0F30110022818BFFF2F06D061
:1016E00002990AEBC70008222430F3F716F8E8B293
:1016F000102800DAA0460098401CC0B20090009864
:101700000199884239DAB8F1000F36D10E98009964
:1017100008180022C17C00E0521C9AF80E30D2B2A8
:101720009A42E8D202EB0A031B7C8B42F4D10129D6
:1017300006D0032902D0C02904D0DCE70124D9E770
:101740000124D8E70025FF2701260124A9460AEB3A
:10175000C90B029908220BF12400F3F728F800B90D
:101760000026FF2208210BF12400FAF74BFF002886
:10177000A3D0FF2FA2D14F46A0E70CB1404605E011
:101780007A48407874280CBF01200020BDE8FE8F05
:10179000704718B908227448F2F7BFBF70472DE9A7
:1017A000F44FDFF8C8A105469AF803000026702818
:1017B0008EB0B3467BD1199F38781A9CDFF8A4818C
:1017C000C0F302100490B14607E00126002D18BFB7
:1017D000C12D00D1B34609F1010904985FFA89F9D6
:1017E000C0B2814560D2BBF1000F5DD109EB0700AB
:1017F000C07C012848D0032802D0C028E5D0EAE701
:101800000126032CE7DB002D18BFC12DE3D107A86B
:1018100000F059F89DF81C0040F001008DF81C0004
:10182000082208F1B0010DF11D00F2F776FF072242
:1018300000210DF12500F2F7B3FF387805A90391D7
:10184000C0F34102C0F30211029108F1180307F13D
:1018500013010191FF2098F80C10009107F110017D
:1018600000F0BDF89DF81C1001F08F0141EA001155
:101870008DF81C10024605A90DF12F00F2F74DFF5F
:1018800007A8FDF78EFDA5E70126002D18BFC12D85
:10189000A1D1032C9FDB0E99082208F12400F2F756
:1018A00086FF002897D195E70EB1584605E09AF8D3
:1018B000020076280CBF012000200FB0BDE8F08F99
:1018C00070477047704738B5264D6A7B044605F16E
:1018D000200104F11000F2F720FF207800F0F90059
:1018E0002070697B40EA4100207031BD70B588B03E
:1018F00005460E4600A8FFF7E6FF9DF80000194CCC
:10190000217B00F08F008DF80000334600AA04F11F
:10191000180000F042F89DF8000040F001008DF83A
:101920000000082204F1B0010DF10100F2F7F5FE0C
:1019300000208DF80900ADF80A00002DA07A8DF87E
:101940000C00607A8DF80D0014BF2120207A8DF8EC
:101950000E00E07A8DF80F0000A8FDF722FD08B018
:1019600070BD00003CFC002060FC00204EF4002014
:1019700008FC0020F4FC002014FC002048F40020A7
:101980000022022808BF0122032808BF02228A423F
:1019900001D101207047002070472DE9F84314461B
:1019A0000546207888469946C0F3021600270BE0CA
:1019B000785D40B14946FFF7E3FF20B1F2B2785DB0
:1019C0001119561CC8747F1C4745F1DB207800F0C4
:1019D0008F00207040EA06102070BDE8F183F8B552
:1019E0001C460025002306E0FF281CBF5E5CB042B9
:1019F00005D05B1CDBB29342F6DB0020F2BD099EF2
:101A00000722FF213046F2F7CBFE0699079A089885
:101A100000230EE01F5D1CF802E0774502D1EDB215
:101A2000AF556D1C0CF1010C5FFA8CFC8445F1D3B1
:101A30005B1C8B42B8BF4FF0000CF5DBE8B2F2BD87
:101A4000DFF82409007800B101207047DFF8181989
:101A50000A78072A18BFFFF7F3BF80B5902803D193
:101A6000002008700DF0A2FABDE80140E8E7DFF8B9
:101A7000F8080078042801D1012070470020704741
:101A800070B5164604460D46FF22FAF7BBFD28B98D
:101A9000002229462046FAF7B5FD50B146B1690843
:101AA0002046F5F727F908B9A52070BD002070BDC4
:101AB000702070BD70B50446084615461E46324675
:101AC0000821FFF7DDFFA8B9324602212046FFF7C3
:101AD000D7FF78B92878002818BFFF2807D0DFF88B
:101AE0008C1821FA00F0C00703D5702070BD0B20C0
:101AF0002870002070BD10B5441A48BF6442C92C3C
:101B00000A4602DB884203D201E0884200D3024643
:101B1000904201D1012010BD002010BD70B50446D7
:101B2000DFF84C08006886B00D46407B0F21084264
:101B300006BF94F828000228702038D10123A21C87
:101B4000211D2046FFF7B6FF060030D194F826008D
:101B500000F0020040F001000DF09EFD94F8280016
:101B6000DFF8041848701822002100A8F2F718FEC8
:101B70000822211D00A8F2F7D0FD2088ADF808004A
:101B80008DF80A5000ABA0788DF80B004FF441712E
:101B900003208DF80C00DFF8DC070590012094F895
:101BA000282000F0C4FD0646F7F761FE304606B077
:101BB00070BD2DE9F041DFF8B847064620688EB0C9
:101BC000407B00F00F052C22314602A8F2F7A5FD5C
:101BD000012D18BF042D31D0DFF88C57287800284C
:101BE00018BF06282AD196F82800801E022825D87A
:101BF0000DF043FDC00723D4FFF79BFA074601F021
:101C000046FF804600A801F078FE0822311D00A89A
:101C1000F2F7CDFD002840D1707B4146FFF76BFF06
:101C200000283AD0FFF77DFA01460122304600F045
:101C3000FAF8DFF844170020087059E0702057E0E8
:101C40000121002005F09FF9070050D10DF074FD2F
:101C50000FF244724FF6FF71012001F04FFD96F82C
:101C600026000027C0070ED500220821301DFAF7F4
:101C7000C9FC40B90822311D03A8F2F74EFD308897
:101C8000ADF8080006E00822002103A8F2F788FD5D
:101C9000ADF808708DF815700EE0082200A903A8B1
:101CA000F2F73BFDADF808708DF8158096F8280026
:101CB00002280CBF01270227B0788DF80A00032004
:101CC00001F0D7FC02A9384606F099FB07000AD1BB
:101CD0002168012048734FF4A05104202870281D6A
:101CE000FAF715FF03E000F02FF801F0C2FC3846C8
:101CF0000EB0BDE8F08130B58BB004460D462C2205
:101D0000002100A8F2F74CFD41F60630ADF80000C6
:101D1000102205F115010DF10200F2F7FEFC102270
:101D200021460DF11200F2F7F8FC28460DF0D9FC1F
:101D300000A805F06DF80BB030BDDFF82C06007878
:101D4000012818BF00207047DFF81C06407818B93A
:101D5000DFF81C060068007B70472DE9F04104465F
:101D6000DFF80C06DFF8006600687778407B88466D
:101D70003178002918BF0729154600F00F0037D128
:101D8000012818BF042833D00DF077FCC00744BFEA
:101D900048F69900FFF7D1F90DF06FFC40F0020012
:101DA0000DF07AFC05F0B4FF204605F08FFFFAF73E
:101DB00056FCF0704046FAF749FC5FEA000814D17F
:101DC000A81E022814D80120307075700422214604
:101DD000082002F023FB5FEA000806D000203070E4
:101DE00096F90300FAF732FC77704046BDE8F081BF
:101DF0007020FBE738B5DFF870550446287810B13D
:101E0000062808D00DE006202870F5F774FBA870AE
:101E10000020F5F773FB2146281DFAF778FE002015
:101E200032BD702032BD70B50546DFF84C05DFF8D5
:101E30004C654180144628883081A878F072FAF702
:101E40000EFCB0720822291D3046F2F766FC687B52
:101E50003074DFF820057061032030734CB90DF049
:101E60000CFCC00705D404224FF6FD71002007F0DA
:101E700001F89120FAF72AFBDFF8EC040321017046
:101E8000002CBDE8704014BF4FF400614FF40071A6
:101E9000001DFAF73CBE38B5DFF8CC4400202071B5
:101EA0002078032838D10DF0E8FBDFF8CC542978EE
:101EB000002914BF6FF480714FF6FF7108404FF690
:101EC000FE7108400DF0E8FBDFF8A414096801205A
:101ED000287000204873FFF737FF0328BCBF072096
:101EE0002070FBF793F941F6063100200CF065FCF9
:101EF000FFF72AFF02466988DFF88034002000F0EF
:101F000016FCFFF721FF03281ADB002020700021B8
:101F1000012000F037FD13E0042818BF052808D180
:101F2000FFF712FF01F0A5FB0020207000F0A0F8E1
:101F300006E0062804D100202070A078F5F7DEFA2C
:101F4000BDE83140F7F793BC70B5DFF81C64044678
:101F50003078012882B00D4613D1F2F7DDFE0090F3
:101F60002B462246CAA10020F9F7B6F9DFF8101473
:101F70000870FF2805D002203070BDE8734002F0E1
:101F8000E4BA73BD70B5DFF8E04394F9030021783B
:101F900001298AB00BD100212170FAF757FBF7F71E
:101FA000B1FB0020FAF74AF8F7F769FB5BE002297A
:101FB0005BD1FAF74BFBF7F7A5FB0120FAF73EF8E8
:101FC000F7F75DFB1822002103A8F2F7E9FBE078A0
:101FD000DFF8AC538DF816000C212878F9F724F9B6
:101FE0008DF81700012303208DF818000DF117025A
:101FF00000208DF81C0003A9DFF87803089005A8DD
:10200000FFF758FD06460020FAF760FA3EB903AB29
:1020100002224FF44171002000F089FB0646F6B918
:1020200028780821F9F7D4F9064600200090082303
:102030002978002201A8F9F700F82878F8F75EFF60
:10204000FF20287001220520207001A9304606F0EB
:102050004EF94FF40051201DFAF759FD03E000201E
:10206000207000F005F8012000E000200AB070BDEB
:1020700000B585B000F0DFF89DF8030000F056F9D8
:1020800094231322B7A10320F6F7D2FD9420F7F78B
:10209000B5FCFFF759FE032808DBB5480068408807
:1020A0004FF6FF71884208BF032000D00220FAF7E4
:1020B0000DFA05B000BD2DE9F04196B004460D467D
:1020C000164698460127082205F11C0105A8F2F7DB
:1020D00024FB022C08D1FFF737FE032869DB0DF043
:1020E000CCFAC00704D464E0FFF72EFE032860DAC0
:1020F000288B0DF0D3FBFF285BD007AB424605F1E0
:10210000100100200DF0DDFB002852D10E223146D7
:1021100001A8F2F702FBBDF80C00BDF80A108842D6
:1021200004D20020ADF80A00ADF80C00BDF808009C
:10213000BDF80610884204D20020ADF80600ADF8C4
:102140000800BDF81000BDF80E10884204D200202F
:10215000ADF80E00ADF81000BDF81000BDF80E305F
:10216000BDF80A20BDF808100090BDF806000DF07B
:102170005BFAF0B9002C34D1A87810B9FAF774FAE8
:10218000A8700123AA1C291D2846FFF793FC80B9DB
:1021900000270122002107A805F02BFA0BA80DF05B
:1021A00083FA0DF141033A4641F6063140200CF026
:1021B000CFFA2A462146384606F0C0F977B9318869
:1021C00000222846FFF72FFE0120FAF77FF9F7F7E4
:1021D00099FA2846F9F76BFFF7F751FA16B0BDE800
:1021E000F0810023CEE77FB55F4915460A78042ABF
:1021F0001C461FD100220A710A7010B1FFF738FF88
:102200007FBDFEF78EFF06467DB100F014F8082270
:1022100002A9201DF2F781FA9DF80300A070BDF815
:102220000000208001F033FC60730122314620461B
:10223000FFF7F9FD7FBD1023072200A901200AF056
:1022400086BF30B583B004460D4600A801F055FBAB
:10225000082200A9201DF2F7AAFA80B9FEF769FF4B
:10226000218881420BD101F012FC0146607BFFF70F
:1022700042FC20B1002229462046FFF7D4FD37BD9D
:1022800080B501200DF008FA37490020087001BD23
:102290003834310070B504460D461646FFF754FD3C
:1022A000032811DA3748007870B1AC420CD1B0077E
:1022B0000AD5284602F0F5FF30B1007920B9BDE813
:1022C00070403148FAF718BC70BD10237F221721E7
:1022D000F4F7BABA28237F221821F4F7B5BA10B55B
:1022E0000C46FFF7F2FF2046BDE81040F2E7024639
:1022F00010237F211720F4F7CDBA80B50DF0BDF97A
:10230000000A00F0010080F0010002BD80B5FFF777
:10231000F4FF08B1002002BD012002BD80B5FFF727
:10232000ECFF08B1002002BD012002BD1049096880
:102330008873F7F755BA0E480068807B704780B500
:102340001249134808600DF098F9C00702D40649F5
:102350000720087001BD0F48007870470D490870CC
:10236000002070474242000044FD0020FF0700F8B3
:10237000E0F9002000F8FF0762F4002050FD002083
:1023800066F4002098FF00203CFD00208CFD00201A
:10239000E45302083FF300200000000000000000AA
:1023A0000120704770470120704701207047B52019
:1023B00070470000DFF8F82C1268127882420AD0C9
:1023C00019B1012A03D1022805D000207047022A42
:1023D00008BF0128F9D101207047DFF8D81C087523
:1023E000704710B5DFF8C84C2068407B112804D036
:1023F000B6210FF21000F4F707F821684120487366
:1024000010BD00006173736F63696174696F6E2E34
:102410006300000080B50220F7F7E1FAF7F7FFF854
:1024200000F084FC001F022805D2DFF8880CC17C74
:10243000491DC17405E04FF47A71DFF87C0CFAF79E
:1024400066FB00F0BDBE10B5DFF8684C002060747C
:102450002078FF2803D0F8F751FDFF20207010BD31
:1024600038B504460D46F8F7D5FC007C00F00701AE
:10247000400800F0380000EB410000F11102DFF8E5
:10248000100D0068205CD2B282420ADA831ADBB2F5
:102490000F2BA8BF0F230020009021462846F8F7F5
:1024A000CCFD31BDDFF8080C0068407B33281CBF31
:1024B0004328532801D101207047002070471FB5E1
:1024C000FAF7C9FE08B3DFF8EC4B207800A9FFF754
:1024D000C7FFDFF8E41B002008700DF103006179ED
:1024E00001F028F9FFF7AFFF00F010F800F08FFAC5
:1024F000007DC00702D50DF05BFA08B90CF056FD5F
:102500000DF055FA012001F043FA1FBD10B500F09F
:102510007EFA017BC91E032906D240884FF6FF715F
:10252000884208BF032008D0F9F7C0FF0446F9F736
:10253000C1FF21460BF065FE0220F9F7C7FF01F04D
:1025400089FABDE8104000F03FBE38B5DFF8644BB3
:102550002075FFF778FF00214FF6FF7001F0E3F9D7
:10256000DFF84C5B2868417B032918BF00291DD088
:10257000332918BF432913D100F019F82868017BCB
:10258000C91E032906D203214173207DBDE83240D4
:10259000F7F734BA207DF7F731FABDE83140B5E7F7
:1025A00021214173BDE8314006F0B2BC31BD237D2D
:1025B0001322C3A10320F6F73BBB10B500F0B2FB1A
:1025C000002048734FF6FE70FEF7AFFD4FF6FF7028
:1025D000FEF7B3FDDFF8DC4AFFF7E9FF207DBDE839
:1025E0001040F7F70BBA3EB504462346E07A0FF2E7
:1025F000A0010290152294F90A0001902089009010
:1026000000F002FA00F003FA407B78B920894FF617
:10261000FF7188420AD0DFF8D00B00780A2805D174
:10262000F7F7B0F910B9F7F7C2F908B170203EBD5D
:10263000214601F03BF8050008D1012001F019F80E
:102640000021012004F09FFC050001D028463EBD7A
:10265000DFF8600A007E08B1FCF75CFD002208216B
:102660002046F9F7CFFF30B104212046F4F742FBB2
:1026700008B9A5203EBD00202074E081DFF86C0B76
:102680006061204600F0F6F80546F7F7F0F8DDE760
:10269000423870574242000010B5044623461822C3
:1026A00087A10320F6F7C4FADFF8440B002101717B
:1026B00014B1FF2C02D10121017007E0012100F8C3
:1026C000041BA100491C0902FAF721FA00F07CFD65
:1026D000002010BDDFF8181B00200871DCE730B5C2
:1026E0000D4689B0044668690FF27C1107902346B5
:1026F000287C06901622E8890590287B0490E87AC9
:10270000039095F90A00029028890190009500F045
:102710007BF9287B00280CBF4FF6FE70FEF701FD09
:102720002B46224609B0BDE83040014601202DE984
:10273000F041DFF87C6980463068407B00280F4616
:1027400014461D464BD1002C49D0062C47DADFF841
:10275000980A00780A2842D1F7F714F900283ED1E8
:10276000F7F725F908B1042C39DB287B032816D1AB
:102770004FF6FE70874214D1012C08BF002710D0FD
:10278000022C2CD1FEF7CDFC4FF6FC71884202DA08
:10279000FEF7C7FC01E006F04DF9074601E0012C09
:1027A0001DD0B8F1000F0CD0287B03280CBF0121ED
:1027B0000021012C0CBF0120002004F0E4FB0028C4
:1027C0004ED12946384600F071FF002848D1F6F76F
:1027D00079FFF7F791F820B1F7F7E9F808B1702021
:1027E0003EE03068DFF8CC78407B33281EBF5328AA
:1027F00000207875204600F03CFF387E20B1F7F7C6
:10280000D6F808B9FCF786FC287B032803D12846B4
:10281000BDE8F0412EE00822294607F10800F1F753
:102820007CFF287B0328A8BF00203874FFF70BFE2D
:1028300094203875387C316800280CBF0120312085
:102840004873002031687A7EB8740120897B00FAD1
:1028500001F1032001F0E2FD10B132680021517353
:10286000BDE8F08100000000424238705742424209
:102870005742440010B5044600220821F9F7C2FE71
:1028800008B1012010BDFEF74CFC00224FF6FF718D
:1028900000F034FF217C204600F04CFF6269E189A2
:1028A000207C01F00AF9DFF808080068007B0128A5
:1028B00008BF05F08FF8FFF729FE002010BD0000CB
:1028C00042420000002038B5DFF8E44705462068A2
:1028D000407B002802BFDFF8100900780A2801D0E9
:1028E000702032BD09F0A2FA002843D12DB1022296
:1028F0002946DFF8340BF1F710FF00A800F0DFFFE6
:1029000008B1932032BD9DF8003014221CA1032091
:10291000F6F78EF900F056FF68BB9DF8000000F056
:10292000A8FE2068007B012818BF022806D0C01E20
:1029300003280FD2002001F002F858B100F059FF2F
:102940002068007BC01E032838BF07F029F9FFF775
:10295000DDFD0FE02168132048730020DFF85417D5
:10296000887405222168897B012000FA01F1052085
:1029700001F054FD002032BDDFF83807407D70477C
:1029800042420000FF222DE9FC41044600F03FF8DE
:102990000D46017B0129904625D0407B022818BFB7
:1029A000032820D1F9F77FFEDFF808777A7E2946E1
:1029B000032001F033FD060016D13320F9F786FD20
:1029C000FFF741FDFEF7B5FBF880002C14BF022095
:1029D0000120387407F1080000F08FFF0020B87460
:1029E00087F8158000E070260196009523462C227A
:1029F0000FF20C0100F008F83046BDE8F681000047
:102A000042424442000000000320F6F711B9DFF80B
:102A1000A0060068704738B50446F8F7FBF905468C
:102A20002046F9F756FF44192046FAF78BFB4FF67C
:102A3000FF5101402046BDE83440FAF78ABB70B52B
:102A400084B0FEF76EFBDFF86C46064620780B215B
:102A5000F9F71EFF002100F066FFDFF85456F9F782
:102A6000E9FD58B11EB14FF6F870864206DB05F05D
:102A7000E1FF0646286840888642F8D03046FEF7D7
:102A800054FB20780921F9F703FFFEF756FB2E6867
:102A9000307B052813D100F03BFF8DF8080002AB16
:102AA000207C00280CBF4FF4804244F20102012038
:102AB00000904FF480617088FDF726FC0FE006203F
:102AC0008DF8080000F024FF8DF809000223002093
:102AD0000190009002AA7088012103F034FC0646A0
:102AE000FF2E08BF002011D0286841883046F9F732
:102AF0002CFF207C02281CBF3046FFF78CFF00F023
:102B000044F804463046F8F7F9F9204604B070BDA1
:102B100070B586B00C4616461D4638B92046F6F705
:102B20001BFD02AA03A9FCF718FA03A807218DF8D8
:102B300008100190310A8DF80A1001200A998DF8C9
:102B40000B1000908DF80960042300F0BBFA0646D4
:102B5000FF2E18D02146F9F7F8FE15B93046FFF7D9
:102B60005AFF0B9808B930460DE02046FCF721FAD1
:102B700018B13046F6F730FA01E000F006F83046BA
:102B8000F8F7BCF9FF2006B070BD00220023114603
:102B9000304602F0F9B92DE9F64F83B004461E46DF
:102BA00000274FF6FF7556B14FF0010B304603F08A
:102BB0000FFC81467078400800F0010A05E0BB4632
:102BC0001046F9F729FF8146BA4600F0AFF8C01E5B
:102BD0000328C0F0A2800E98411C9DF81000C9B2D5
:102BE000F8F722FB804608F0020002909DF80C00E6
:102BF00020B95FEA086058BF48F08008FFF707FF78
:102C0000407B022804D1DFF8E8050078204301D199
:102C100002271EE04846FEF739FA9DF80C1019B15C
:102C2000651EAD41ED0F00E00025BBF1000F1CBF9C
:102C3000301DFAF787FA012100912B4601464246E2
:102C40004846FCF7E8F805464FF6FF70854208BF96
:102C50000127D6B11CB94FF6FF70854204D1301D53
:102C6000FAF770FA014600E029460120019000972A
:102C700053462A464846FFF74BFF029850B94FF695
:102C8000FF71484602F032FC04E03A4629464846C5
:102C900001F020FB002F40D10298E8B149462846B8
:102CA00002F047FC0E2101FB00F700F03BF8896AB7
:102CB00079184A7942F040024A7102F06DFCFFF740
:102CC000A6FE806A38185FEA486241794CBF41F03D
:102CD000800101F07F014171FEB1DFF8AC6C9DF81D
:102CE00010003070FEF71DFA5FEA48610FF22C0CFD
:102CF00048BF0CF1010CBAF1000F18BF0CF1020C27
:102D000002D10CB90CF1040C01469CF800004B46B2
:102D10002A460CF04FFEFF203070B0E0030700049D
:102D200001050000DFF8881309687047DFF88003A9
:102D30000068007B70472DE9F04F0446884685B057
:102D400091464046F9F7CFFDDA4D297C824601B124
:102D50000121D74E8DF804103068007B05280CBF88
:102D6000012700273CB1504603F032FB8346504612
:102D700003F021FB05E04046F9F74EFE8346DFF8FD
:102D80000C0C03900423002000904A46414602A800
:102D9000F8F753F90DF10900FAF7D4F99DF80B9003
:102DA0008046CCB10398DFF8E41B0822F1F7FFFC62
:102DB000002862D100F08BF908BFB9F1000F0BD1E8
:102DC0004046FEF7B2F90CF0F1F89923FFF7F0FB5B
:102DD0009920F6F713FE50E0F9F72CFC00284CD0B0
:102DE0009DF80400384301D014B946E0002C44D1CA
:102DF000B9F1000F03D09420FFF7A7FB3DE0306846
:102E00004088594602F095FB02F0C6FB30684188C5
:102E10005A46404600F072FC3068417B012916BFDB
:102E200031291121432141730220F6F7C9FDA24F38
:102E300040F6B8313846F9F76AFE06F0B1FE0020D8
:102E4000E8743068C17E19B93846F9F755FE11E0CB
:102E500034B19AF80110890702D5FFF730FB09E079
:102E6000007B001F022805D205213846F9F74FFEE6
:102E70000620E874AD20FFF7B0FAF6F7F8FC05B0CD
:102E8000BDE8F08F2DE9FE4F8046F9F72CFD044692
:102E9000F9F76EFD05462F194046F9F71AFD28444B
:102EA000C5B24046F9F7B8FD834638780090F9F787
:102EB000F1FB00281CBF0098072816D10098DFF806
:102EC000F4A17B4EEC1C01284FF6FF790ED00228AE
:102ED00014D0042800F0BE80062815D0072863D03F
:102EE000082821D07C2800F07F80DEE000210095BA
:102EF000002342460846FFF74EFED6E02A464146EA
:102F00000020FFF718FFD0E05846FCF708F84845C6
:102F100003D00146584601F08EF900F0D8F802D1EE
:102F20005846F1F7AAFCC0E0691C00F0C7F8074654
:102F3000E1B200F0C4F80446A91D00F0BFF8054650
:102F40004D45F0D006F02CFE3068407B132808D1A8
:102F500000F04FFC4046F9F75FFD0146204602F0C5
:102F6000E8FA00F0B4F818BF13281CD12846FEF781
:102F7000DCF83846FEF7E1F80021002000F0DAFB2B
:102F80005946204600F0CFFC9AF80300DFF8601A9B
:102F9000087000F019F93068417B132903D123210F
:102FA000417301F0D2FA80E000F091F802BFDFF83F
:102FB000444A2078002878D1F7F7EAF805469AF9CC
:102FC000191001208840C0EB001B1FFA8BF600206F
:102FD000F6F7F6FC95FBF6F006FB1050411C89B2A3
:102FE0002046F9F794FD60E07878652804BFB8784A
:102FF0006D285AD16648006818F80000E4B284428F
:1030000053D20822594601A8F1F787FB00AB0022F2
:103010002146404603F082F8002846D19DF8000082
:10302000FF2842D0DFF8D049DFF85C59012020703A
:1030300085F80080F6F766FB01A89DF80010F8F708
:103040001CFFF6F71CFBFF202870002020709DF865
:10305000000028E04046F9F7FCFC0446DFF89C0934
:103060000078FE2809DB4046F9F747FC000B00F02A
:1030700001012046FBF7B3FD17E00FF6D4100088DE
:10308000ADF80800022300200190009000F01AF82B
:103090000546FF2D09D02146F9F757FC00212846A7
:1030A000F9F72EFE2846F7F729FFBDE8F78F000055
:1030B000E0F9002068F4002074FD0020C9B2404609
:1030C000F8F76EB902AA0121204603F03CB9306836
:1030D000407B0228704770B50220F6F780FCF6F7B7
:1030E0009EFADFF81C59DFF81C6900202870FAF7F7
:1030F000B2F828B13068C07E10B9FFF7E0F93EE0C1
:10310000DFF80449FAF7A7F810B9F9F793FA58B1BC
:10311000E07C48B1C8212846F9F7F9FCE07C401E64
:10312000E074F9F722FE2AE03068407B132809D0CA
:10313000F9F780FA30B93068407B11281CBF43286A
:10314000412803D1207DFFF700FA18E0022818BFBC
:10315000032803D0002818BF212810D10024DFF84D
:10316000AC5808E02046F6F75AFA002000F010FCB0
:10317000F6F785FA641C2878E4B28442F2D3BDE8FD
:103180007040F6F77CBADFF880180020C8747047EA
:10319000A8F2002080B50020F6F721FCF6F73FFAF0
:1031A000DFF8501800200870DFF858080068417BED
:1031B000022905D1007BC01E032828BF01F0DAF8E0
:1031C000BDE80140F6F75BBA80B5F6F7A8FBFF282B
:1031D00004D00748007810B1012000E00020DFF89B
:1031E0003018087001BD000085F4002000F8FF07CA
:1031F00068FD00202DE9F04F0446DFF8180800684C
:103200008DB0205C00902046F7F704FE0646B01D06
:10321000F9F798FF074606F10900F9F793FF814691
:1032200006F10B00F9F78EFFADF80A0006F10D006C
:10323000F9F788FF8346C00B8DF80800F9F72AFAE2
:1032400018B1204609F066F8EAE008A92046FFF721
:1032500007F908AEDFF8AC57B078C0F3C3000390AD
:10326000707800F00F0A009820282868407BACBFD7
:103270009DF82E804FF00008022812D1FDF759FF6B
:1032800081450ED104A800F038FB00981C2806DB0D
:1032900008220DF1230104A8F1F789FA08B100F022
:1032A00040FDB7F5004F02BF2BF4404040F6FF71E0
:1032B0008842C9D100981C28C6DB002208210DF1E4
:1032C0002300F9F79FF9002839D1DFF84C0700787F
:1032D000012830D19DF808000FF26C710090CDF8F4
:1032E00004A04B462722FFF78FFBDFF8300700785A
:1032F0008DF81200ADF810908DF81CA08DF81D808F
:1033000008229DF808008DF813000DF1230105A88F
:10331000F1F703FA2868DFF87076407B01281CBFBC
:1033200033283C70F6F7EEF904A8F8F7CAFBFF2043
:103330003870F6F7A4F9DFF8D076B87C00286FD1A2
:10334000F9F778F900286BD0012078740022082161
:1033500007F10800F9F756F910B1F888814508D04F
:1033600008220DF1230107F10800F1F720FA0028E7
:1033700056D19DF8080028B92868407B312818BF2D
:1033800033284DD101215046FFF714F8002847D0CB
:103390009DF82000002802BF7078000902283FD164
:1033A0002868017BB278022902D1500709D437E09E
:1033B000120606D405291EBF4088BDF80A108842AF
:1033C0002ED13878DFF85856DFF85866FF2813D02A
:1033D000787980450BD197F9020096F90010884260
:1033E0000ADB1DD178782978884205D318E0A8EB4C
:1033F0000000C0B2812813DAFFF725F83C702046A0
:10340000F7F76EFD287878703078B87003980F2839
:10341000B4BF401C0F20F87087F804A087F805801F
:103420000DB0BDE8F08F00007CFD00202DE9FF41CC
:103430000546DFF8D44501200E461746A074FEF776
:10344000A1FD002813D1A846B8F1010F18BF002D27
:103450000ED1009733462622B5A1FFF7D5FAF6F72D
:1034600051F939463046F8F74CFBF6F708F9A4E075
:10347000F9F710F928B13A463146284608F03AFEE5
:103480009BE0DFF880552868407B23280BD1F9F7B3
:103490000DF80446F9F70EF821460AF0B2FE0220B4
:1034A000F9F714F889E0002FFCD121281CBF04286B
:1034B000532802D105F02CFD7FE0F9F7BBF8002876
:1034C0005BD02678FF2E05D1607C00280CBFAB2096
:1034D000942066E02868007BC01E0328894120797B
:1034E000C90FFEF767FF08B998205AE0F3F7BCFF51
:1034F00005213046F9F7E7F929688873F6F7B7F937
:10350000207C68BB2868007B052829D000F000FAE1
:10351000074609213046F9F7BBF980460B213046B2
:10352000F9F7B6F93A46414600F0B9FEE0B9942001
:10353000FEF753FF0220F6F743FA2968DFF8C004CC
:103540004A7B012A07D0312A18BF332A0ED1097BC2
:10355000091F02290AD2C821F9F7D9FA03200AE083
:10356000FFF76DFA0028E2D194201AE04FF41671AB
:10357000F9F7CDFA0020E0741FE02868407B13289B
:1035800015D100F017F9BDF80000FDF7D6FD00F0E9
:1035900030F92868017BC91E032905D23321417304
:1035A0009620FEF7D2FF08E0FEF7B0FF05E0B8F185
:1035B000020F04BF30460BF03EFF4FF40060FBF7F4
:1035C00097FB10B901F031FD08B1FBF7A3F8BDE896
:1035D000FF811FB5044600208DF80000FFF717FAA1
:1035E000007840F020008DF80100F9F753F818B189
:1035F000204608F0BBFC3AE00DF1030000F07DF935
:103600000322FF210DF10B00F1F7CAF800F03FFA99
:103610008DF80E00DFF81014DFF8E003DFF80C245B
:103620000078DFF80C34097812781B78FE28A8BFE0
:103630000020091A9B1A9042B4BF101A0020DFF82C
:10364000B0231278DBB2C0B2D200C018C9B242F0C7
:1036500004028842B8BF42F080028DF8022000A91F
:103660000F222046F7F753FD401E8041C00F04B0E3
:1036700010BD38B5DFF88C5304462868017BA142A1
:1036800003D004732046F6F771FA24B12868007B52
:10369000001F022805D2F6F75EF9FF2808BF0120B7
:1036A00000D00020BDE83240F3F728BF38B50D4602
:1036B0000446E87A0B38102801D38A2032BD95F9E8
:1036C0000A00F8F7C3FF08B18B2032BDCD48E97A74
:1036D000026891730068A97AC1732046FDF725FD41
:1036E0004FF6FE7084420CBF4FF6FF702889FDF73D
:1036F00024FD2889C449C880002032BD38B50C4655
:103700001546FDF712FD05F069F92946204600F03F
:103710000AF9BD480178FF2918BFC07805D1FFF725
:1037200005FB01280CBF00200120B149087031BD04
:10373000424242007FB504460D4600F03BF8B14ED0
:1037400094B1BC4A0021284600F0B7F930680178EE
:103750008DF804100822007B8DF80500214602A890
:10376000F0F7DBFF0BF02CF83068817B8DF803104D
:10377000C07B8DF80200FDF7DCFCADF80000FDF722
:10378000D0FCADF8060000F017F87FBD1FB5044669
:1037900000F010F81CB100208DF8050007E0FDF7DF
:1037A000C0FCADF80600FDF7C4FCADF8000000F069
:1037B00003F81FBD00A833E01023072200A9002052
:1037C00009F0C5BC00B58BB0FFF7F4FFBDF80000F1
:1037D000ADF8180004A99DF803008DF81B009DF8B2
:1037E00002008DF81A00BDF80600FFF75FFF0BB06E
:1037F00000BD1FB5012000F0A2F804460AF0EBFF5F
:10380000FFF7D8FF1CB900224FF6FF7103E0FFF766
:10381000FEF84188021DBDF80600FFF76FFF1FBDCF
:10382000014610230722012009F091BC38B5082079
:10383000F6F7D5F80446F5F7F2FE724D7E48296892
:1038400000788873F5F7AAFFA04208BFF5F7C8FF14
:1038500000210020FFF76EFF9B23FEF7A9FE9B20AF
:10386000F6F7CCF828680021A0F84410A0F846101C
:10387000BDE83140F5F703BF80B5A0F10B01102979
:1038800001D38A2002BDFFF74DFA497B022918BFF8
:10389000032901D0702002BD674908700820F6F79F
:1038A0008FF800216548F9F7B5FA20B1012808BF63
:1038B000FFF7BCFF01E0A12002BD002002BD1FB543
:1038C0000446F8F7E7FE18B12046FBF702FE12E0C7
:1038D00000A8FFF7A5FF9DF8050040B1062806DA0D
:1038E000FFF720FA9DF804200978914201D0932037
:1038F00001E02070002004B010BD1FB5044600A8F0
:10390000FFF78EFF082202A92046F0F706FF1FBD31
:103910004B48007800B140203A4A4A491268127B6D
:10392000515C08437047374A1368588019B9082218
:10393000181DF0F735BF0822181DF0F7EEBE10B5C0
:1039400004462F48007AC00784B011D50A230A2202
:1039500000A9012009F0FBFBBDF808004FF6FF713C
:10396000884205D00822FF2100A8F8F74BFE08B1D5
:10397000002006E024B1BDF8080000A9FFF7D3FF3E
:10398000012004B010BD000040F40020F4F9002034
:1039900070B51B4D0446287AC00784B00CD5194E6B
:1039A000306841884FF6FF72914207D1002208210A
:1039B000001DF8F727FE08B1002017E044B10220EF
:1039C000F5F7FEFF4FF4F0412846F9F7A0F80CE0B8
:1039D00030684188ADF808100822011D00A8F0F7F2
:1039E0009CFE0A230A22FFF7E9FE012004B070BD05
:1039F000E9FF002080FD002030FC0020A9FF00200E
:103A000074FD0020E0F9002068F40020F4F20020AA
:103A1000E1FF0020A8F2002085F40020DEFF002056
:103A2000DCFF0020DDFF002036F3002099FF00209E
:103A300098FF002000F8FF07DFFF00202D38010865
:103A4000DD53020850F300084257424200000000D4
:103A500004600000DFF84013002008714FF6FF708B
:103A6000CE490880704730B583B004460D46082320
:103A7000092200A9012009F06AFB14B19DF8060093
:103A800020700DB100982860BDF804003EBD80B5DF
:103A9000002100A8FFF7E7FF9DF8000002BD10B568
:103AA00082B0044600A90020FFF7DDFF009A01461E
:103AB000204600F002F8204616BD00B583B08DF810
:103AC0000600ADF8041000920823092200A9002086
:103AD00009F03DFB07BD2DE9F04786B0804602F0B6
:103AE00058FC0546AE48006818F800900020009089
:103AF0000A232A46414602A8F7F79FFA9DF80800D4
:103B000005F10A0409280CBF012500259DF80900CC
:103B1000E021084268D100A8FFF7EFFE08220DF16E
:103B20000A0100A8F0F743FE00285DD1002D4ED019
:103B300000F01AF9002857D0984D28884FF6FF7AE0
:103B400050451CBF4FF6FE7188424DD1924F9549AA
:103B500038780978001D3870491E8900C0B281424A
:103B600042DA00203870F6F713FB2880264607E07B
:103B700031464046F7F714FC29888842F3D0B61C3A
:103B8000F6B2A9F101008642F2DB2888002818BFAE
:103B90005045E8D0FDF7CDFA29888142E3D0FFF700
:103BA00076FF401CC0B2FFF77AFF01462A880A2040
:103BB00000F050F840B14FF47A71381DF8F7A7FFC4
:103BC0000C20F5F7FDFE0FE0A5F800A00CE0E1B237
:103BD0004046F7F729FBFFF762FF611CC9B2404678
:103BE000F7F7DEFB00F07FF87AE06B48017809B167
:103BF000491E0170704738B56749002008710C20D4
:103C0000F5F7EDFEF5F70BFD67480068407B0228ED
:103C100018BF03281AD1614C20884FF6FE724FF668
:103C2000FF7590420CBF2580A8420FD0FDF785FAA2
:103C3000258000210020FFF77DFD9A23132255A146
:103C40000320F4F7F5FF9A20F5F7D8FEBDE83140E0
:103C5000F5F715BD2DE9F04705460026092D0C4660
:103C60000CBF01270027002186B091460846FFF7C8
:103C7000FAFE8DF80850804602AD012068700DF103
:103C80000A00FFF73AFE0DF1120A17B9AC720DF1F6
:103C9000130A49465046F9F75CFA0AF102000FB9D7
:103CA0004FF6FF7802A9431A01960096DBB202AAEA
:103CB0006421404602F047FB0446FF2C0FD03FB181
:103CC00000F052F820B12046FFF705FF012603E07F
:103CD0002046F9F7CDFA06462046F7F70FF93046A9
:103CE00006B0BDE8F08738B504464FF6FF75AC4224
:103CF00016D0FDF71EFA844212D028480188A94246
:103D00001CBF4FF6FE7291420AD104804FF47A71C3
:103D10002648F8F7FCFEBDE832400C20F5F750BE0F
:103D200031BD21480068007B001F022800D2704787
:103D300038B51A4C20884FF6FF71884213D1FDF731
:103D4000F8F905464FF470411848F8F7E0FE0C20EA
:103D5000F5F736FE4FF6FE7020802A46BDE8384063
:103D60000021092076E731BD10B50F480068007BBF
:103D7000001F02280AD3FDF7D4F9044600210020D1
:103D8000FFF771FE844201D1012010BD002010BD5B
:103D9000000000004242000028FD002058F40020EE
:103DA000A8F200203EF30020E0F900202CFD0020C6
:103DB00070B5044601214FF48070FAF77EFFC8B158
:103DC000984E994D3078FF2807D02878C00748BF13
:103DD00000F003F93078F7F791F83470002028707C
:103DE0002046F7F77DF891480188281DBDE870400E
:103DF000F8F78DBE70BD8C490A7842F0010208B117
:103E000042F002020A70704738B5864D864C287819
:103E1000FF280ED000214FF48070FAF74EFF207873
:103E2000C00748BF00F0D9F82878F7F767F8FF20F7
:103E300028700020207131BDF8B50025784E7C4FE8
:103E400000E06D1C3878EDB2854217D230682C4600
:103E500030F814100805F4D5284600F058F8FF286B
:103E6000EFD0316831F814204FF2FF731A4021F877
:103E7000142000216F4A1268A154F2BD6E4900203F
:103E8000088001F0F0F80446FF2C18BFF7F728F877
:103E90002046F2BDF8B50446674806880D46002165
:103EA000018096B32046F8F77EFDB0F5006F2CD167
:103EB0002046F8F79CFD0746F5F74EFBFF2824D077
:103EC00035B15749096831F81020324321F81020E4
:103ED000402E14D0B6F5807F17D152480078844226
:103EE00011D14FF6FF718F420DD0F8F72EFD4FF430
:103EF0008270FAF7FDFE30B9FFF786FF03E015B9CF
:103F0000214606F058FE0120F2BD0020F2BD2DE949
:103F1000F04381464948006883B04C4630F814802D
:103F20000F46FF25F5F717FD45490978884251D21C
:103F3000F5F775FBB8050FD478051CD504F07AFDAC
:103F4000024600200190009001234146FEF7E0FD6B
:103F500005464FF480602FE04FF6FF7241460E2079
:103F600004F0D6FE0546FF2D32D04146F8F7EDFCB1
:103F70004FF4007020E02B4E3078FF280BD0F9056D
:103F800009D54146F8F7E1FC3078F6F7A9FF357816
:103F90004FF4807010E0780606D50021484606F000
:103FA000A4FE0546402007E0380611D50121484609
:103FB00006F09BFE05468020FF2D09D01E49088093
:103FC0001749096831F8142022EA000021F814008A
:103FD000F5F755FB2846BDE8FE837FB5114C2078E8
:103FE000F6F7C2FF05462078F8F77DFC801CF9F74C
:103FF000A9F80646207801A902F05AFAF5F782FBE3
:104000000948007880074CBF0020662000902B46AE
:1040100001AA31460420F7F7F8FDF5F730FB7FBD24
:10402000C4F2002087F40020BCFD002038F30020FB
:10403000C0F20020C8F200202EFA0020BCF20020BE
:10404000F4F2002000B587B041F400618DF814202F
:10405000120A8DF815200C9A04920B9A03920A9A70
:104060000292099A0192089A009205AA00F002F8B9
:1040700007B000BD2DE9F14F82B00C4604F440407A
:10408000009015469DF808000F9AFF2807BF0126EB
:10409000082000260C20984604F4406A0021F8F716
:1040A000DFFCBAF5006F81460CBF02270827B9F183
:1040B000FF0F59D0F6F7AEFE83464846F8F713FCDB
:1040C0000EB944F0030400F8014B210A00F8011B6B
:1040D000461CBAF1000F05D006F8018B4FEA1820F4
:1040E00006F8010B3A4629463046F0F716FB0098D1
:1040F000BD19F8B1600605D40C9805F8010B000A4B
:1041000005F8010B0098B0F5004F03D0B0F5404F13
:104110000AD00FE0FDF705F805F8010BFDF701F8EF
:10412000000A05F8010B05E00822B8492846F0F717
:10413000F4FA0835A5EB0B01C9B24846F6F770FE54
:104140009DF80800FF2825D0012202A94846F6F76D
:10415000DEFF30B90D9971B10E9A4846F6F7D7FFD8
:1041600048B14846F6F7CAFE9DF8080004280CBF7F
:10417000FF2018201AE09DF80800042808BF4846D0
:1041800014D0022806D14846F4F726FF441EA44165
:10419000E40F04E010994846F8F7B2FD044648469B
:1041A000F6F7ACFE002C0CBF39200020BDE8FE8FD6
:1041B00000B585B000F018F800930020029001903F
:1041C0001A464FF4404106200AE000B585B000F0E1
:1041D0000BF81A4600200290019000900021072061
:1041E000FFF730FF05B000BD022004904FF6FF73CB
:1041F000FF200390704710B586B0FCF79AFF044685
:10420000FCF78FFF4FF6FE718842B4BF48F26001A1
:104210004CF26001012004902346FF20039000200F
:104220000290019000907A48006842880420FFF7CD
:1042300009FF06B010BD30B587B004460D46FCF747
:1042400078FF8DF81400FCF774FF000A8DF8150054
:10425000FCF767FF8DF81600FCF763FF000A8DF886
:104260001700F8F701FA8DF818008DF81950280A90
:104270008DF81A00FCF75DFF012104910090FF21E9
:1042800003914FF6FF7307210291224605A9019180
:1042900008204FF44C41FFF7EDFE07B030BD34B5B8
:1042A0000D4686B004460021FFF73DFB0120049037
:1042B0002B46FF2003902246012002904CF620015D
:1042C00006A801904FF6FF7000900120FFF7BAFE9C
:1042D00007B030BD10B586B00446080A8DF814103A
:1042E0008DF815008DF81620FCF723FF00210491AE
:1042F0000346FF210391224603210291022005A9D2
:104300000191002100914CF66041FFF7B3FE06B029
:1043100010BD30B50C460FF20011098887B0154664
:10432000ADF8141090B1FCF704FF00210491009047
:10433000022102914FF6FF7205A9019103951346E0
:104340004FF440417C20FFF77DFE11E0FCF7F1FEC9
:10435000034600200490039502200290224605A8FF
:1043600001904CF66041002000907C20FFF782FE17
:1043700007B030BD70B584B0FF2200210020F8F7EF
:104380006FFB0446FF2C40F6FF753DD020480068C7
:10439000007B01281F48007808BF44F6FF7508B16C
:1043A00045F4004500208DF8000000AE80207070BC
:1043B000FCF7BFFE8DF80300FCF7BBFE000A8DF88A
:1043C0000400FCF7AEFE8DF80500FCF7AAFE000A1B
:1043D0008DF806000B22FF208DF8070000A9280A9F
:1043E000307200208DF809008DF80A002046F6F79B
:1043F0008EFE2046FFF7EDF818B101212046F8F7B0
:104400007FFC2046F6F77AFD7FBD0000F4F900201E
:10441000E0F90020E1FF0020656D00002DE9FC427D
:1044200004460D469146CDF804900095234624227B
:104430000FF208410320F4F7FBFBDFF8F073387844
:104440000A2818BF3D203DD1B9F10F0FA8BF332076
:1044500038DA092CA8BF342034DADFF8D403284036
:10446000A84218BF35202DD135B9DFF8C813096827
:10447000897B012000FA01F5002C18BF022CDFF81F
:10448000B8630CD120210020F6F7BBFD7870FF281F
:1044900008BF182016D0F6F7BDFCF06130623C7002
:1044A00086F80190B561002030700A20F5F788FA8F
:1044B00001210FF21500F8F7ADFC38780A280CBF7F
:1044C00001200020BDE8F68238B50A20F5F787FA0A
:1044D0000446F5F7A4F82046F5F7ADF90020F5F706
:1044E000C2F9D54CF8F7C0F8E070FCF722FE208244
:1044F000F3F701F820714FF6FF75CC4C20780628B1
:1045000008D10120F2F7FAFF072020702846FAF7B9
:1045100025FA0CE0082805D02846FCF70EFE2846B0
:10452000F3F76BF80020F2F7E9FF00F063F8BDE85D
:104530003140F5F7A4B880B52522BAA10320F4F7DD
:1045400077FB00F002F8002002BD38B5F4F778FBE5
:10455000B64D044628780A2818BF092804D12046F9
:10456000BDE83240F4F7ACBB072808BFFAF7BAF948
:104570002878B1490870092028702046F4F7A0FB7C
:10458000BDE8344001210FF20900F8F743BC0000F8
:1045900070B5A64C2078092802D0E82100F0A3F8D5
:1045A0000A20F5F71CFAF5F73AF8A34D288AFCF72C
:1045B000C4FDA049E878096888732879F2F79EFF5E
:1045C0000120F5F750F9F5F752F9667800202872C6
:1045D00000220A2020703146FF2060702878FEF704
:1045E00025FFFF2E1CBF3046F6F788FCBDE8704063
:1045F000F5F745B8F8B5904C002020720A20F5F781
:10460000EEF9F5F70CF8894D28780A2803D14FF414
:104610008A7100F068F82878E0B917E0401CE06182
:10462000282210F9016DE069401CE0617EA110F8BC
:10463000017D00963B460320F4F7FAFAF5F762F89D
:1046400031463846F7F736FAF5F719F8E069216A86
:104650008842E3D320781B281FDA03F029FB50B1EE
:104660002078A169C140C90705D4401C2070C0B2A0
:104670001B28F5DB11E0F0F74FFB0146207888425C
:1046800002D0F0F741FB40B9207803F0FFFA207028
:104690000020A07000F064F808B32878052818BF3F
:1046A000012803D0032818BF08280DD10B26A069C4
:1046B000F040C00704D5287836223146FEF7B6FE12
:1046C000761C1B2EF3DB08E0022806D1206AE16984
:1046D000411A6878C9B2F6F75CFDFFF736FFBDE80E
:1046E000F140F4F7CCBF0FF25C10F1F78DBE38B596
:1046F0004E480178092904BFBDE83140FAF715B9E1
:104700004D4C6369002918BF02291ED19BB9226A4A
:104710006179521C226202F8011D007828B9256ACD
:10472000681C2062F0F7F8FA287004F10800BDE870
:104730003240F8F7E1B90825F2F7F2FE94F90510D6
:104740008142B8BF0146617103E0002BEDD04FF408
:1047500070752846FAF702F96069401E606131BD44
:1047600080B53548427801219140304A1278491C81
:10477000092A416120D8DFE802F011091109170563
