S0160000656D3236302D756172742D6669666F2E733337BA
S3150800400058F2002069330208D9320208DD32020864
S31508004010A70A080100410008041003AC50545604CE
S315080040200000000000000000000000000000000082
S315080040300000000000000000000000000000000072
S315080040400000000000000000FFFFFFFFFFFFFFFF6A
S31508004050FFFFFFFF007007080000000000000000D7
S31508004060FFFFFFFFFFFFFFFFFFFFFFFFFFFFFFFF52
S31508004070FFFFFFFFFFFFFFFFFFFFFFFFFFFFFFFF42
S31508004080F0FF002000000000ECFF0020ECFF0020FD
S3150800409058F200204C5F02089C580208F8E80020F5
S311080040A0F80D00200000080800000120B0
S3150800410058F2002069330208D9320208DD32020863
S31508004110E5320208E1320208E9320208643302088D
S3150800412064330208643302086433020864330208FD
S31508004130ED3202086433020864330208F995000870
S31508004140A1320208643302082F9A00086433020871
S31508004150F75600086B4D00086433020864330208FA
S315080041604BAD0008C564000875A00008E981010880
S31508004170643302087B310208C3310208A3A500088C
S31508004180716901086433020864330208653302085A
S3150800419010B501F007010368012405E010B501F028
S315080041A00301890003680F2400F05DF8016010BD63
S315080041B070B500F0DBF8044600F0D8F8054600F0C4
S315080041C0D5F800F00106182C05F00F05A8BF362013
S315080041D03BDA00F09FF810F0010018BF382034D100
S315080041E0E00803D0022809D004D30CE03246214661
S315080041F04F4806E0324621464E4802E032462146FE
S315080042004D48FFF7C5FFA00805281DD8DFE800F0D0
S3150800421003070B0F13172A462146484812E02A4679
S31508004220214647480EE02A46214646480AE02A46DD
S315080042302146454806E02A462146444802E02A46E1
S3150800424021464348FFF7AAFF0020BDE8704000F06A
S3150800425094B810B501F00301890003880F2400F013
S3150800426002F8018010BD8C40A34302FA01F11943FC
S31508004270704710B501F0070103780124FFF7F3FF33
S31508004280017010BD2DE9F84300F070F8044600F0FF
S315080042906DF8054600F06AF8064600F067F8074626
S315080042A000F064F805F00F0806F0010500F00109B2
S315080042B0182C07F00F06A8BF362023DA00F02AF8D4
S315080042C010F0010018BF38201CD1600804EB90706C
S315080042D087082048424600F019F81F48324600F081
S315080042E015F8A00804EB5070C6081C482A46214653
S315080042F03018FFF7BEFF1A484A4621463018FFF71E
S31508004300B8FF0020BDE8F24300F037B8214600EBBD
S3150800431047009EE74FF4F0500021224600F0EEB920
S3150800432080B500F04EF80F4908400F49086001BDF6
S315080043300CB000400CB200400CB4004000B0004085
S3150800434004B0004000B2004004B2004000B400408F
S3150800435004B4004070F3002084F3002060F30020CA
S3150800436068F30020FFE1FF0098F300202848016861
S31508004370491C016011F8010D70472649264B0A6849
S315080043801B68D31A852BB8BF10700868401C0860D4
S31508004390704710B50446C0B2FFF7EFFF200A66E083
S315080043A010B5FFF7E3FF0446FFF7E0FF04EB002034
S315080043B080B210BD10B5044680B2FFF7EAFF200CA4
S315080043C0BDE010B5FFF7ECFF00F06BF804EB00401A
S315080043D010BD38B50F4C104A2368126805469A1A5C
S315080043E0AA18862A03DA0246184600F096F92068C3
S315080043F02818206031BD38B50446054D0846296899
S31508004400224600F08AF928682018286031BD000085
S315080044101CF8002020F80020B4F9002070B50446E6
S315080044200D46002604E0FFF7BBFF25F81600761CAC
S31508004430F6B2A642F7D370BD10B50446214600F081
S315080044407CF8FFF7ADFF2081FFF790FFA072FFF71A
S315080044508DFFE072FFF78AFF2073FFF7A1FFE08167
S31508004460FFF784FF2074FFF7ACFF606110BDBDE85D
S31508004470104082E710B500F014F82080FFF790FF8F
S315080044806080FFF773FF2071FFF770FF6071FFF719
S3150800449087FFE080FFF784FF2081FFF767FFA072A0
S315080044A010BD04467CE710B50446FFF75FFFA07011
S315080044B0FFF776FF2080211D00F03FF8FFF756FF33
S315080044C0E070FFF753FF2073FFF750FF607310BDCE
S315080044D010B500F0DDF82069BDE810406AE710B5B0
S315080044E000F007F9FFF76DFF206110BD10B5FFF763
S315080044F0D8FF208010BD20793FE710B50446FFF7A6
S31508004500D2FF04F1100000F01DF804F11C0100F0C0
S3150800451014F8FFF745FFA0842434FFF741FF6080B5
S31508004520FFF724FF2071FFF721FF6071FFF71EFFD9
S31508004530A071FFF71BFFE07110BD08205BE7BDE81F
S31508004540104026E710B50446FFF73BFF2060FFF74B
S3150800455038FF6060FFF724FF208110BD10B500F01A
S3150800456011F8A088FFF715FFE088FFF712FF2089EA
S31508004570FFF70FFF6089FFF70CFFA089FFF709FF18
S31508004580A07B74E70446206814E710B50446FFF7D5
S3150800459018FF2060FFF704FFA080FFF701FFE08007
S315080045A0FFF7FEFE2081FFF7FBFE6081FFF7F8FEAE
S315080045B0A081FFF7DBFEA07310BD10B5FFF7E2FF81
S315080045C0FFF799FF611D1020FFF703FF04F115019E
S315080045D0BDE810401020FCE610B5FFF762FF20800A
S315080045E0A11C23E010B504462078FFF7C6FE611C1F
S315080045F00F20FFF7EEFE04F110010320FFF7E9FE96
S3150800460004F11301BDE810400720E2E610B50446A0
S31508004610FFF7ACFE2070611C0F20FFF7ECFE04F1DB
S3150800462010010320FFF7E7FE04F11301BDE810406F
S315080046300720E0E638B500F02BF804F11001082051
S31508004640FFF7C7FEA069FFF7B5FE04F11805A888AD
S31508004650FFF79FFEE888FFF79CFE2889FFF799FE7B
S315080046606889FFF796FE04F124010720FFF7B1FEDB
S31508004670E87CFFF782FE287DFFF77FFE687DFFF75F
S315080046807CFEA87DFFF779FEE87DBDE8324074E63A
S315080046900446214610209CE638B500F02AF804F1B5
S315080046A01001FFF74AFFFFF78CFEA06104F1180519
S315080046B0FFF776FEA880FFF773FEE880FFF770FE27
S315080046C02881FFF76DFE688104F124010720FFF7B2
S315080046D092FEFFF74BFEE874FFF748FE2875FFF7D2
S315080046E045FE6875FFF742FEA875FFF73FFEE875B9
S315080046F031BD0446214610207DE60000D2B2203A9C
S3150800470022BF21FA02F0002170472032D141D04061
S3150800471048409140D14048407047814233D21018F2
S315080047205118401E491E10E011F8013900F80139E8
S31508004730121F11F8013900F8013911F8013900F88A
S31508004740013911F8013900F8013992B2042AEBDA75
S3150800475092B2002A1EBF11F8013900F80139521E1B
S31508004760F6D1704711F8013B00F8013B121F11F80A
S31508004770013B00F8013B11F8013B00F8013B11F839
S31508004780013B00F8013B92B2042AEBDA92B2002A06
S315080047901EBF11F8013B00F8013B521EF6D17047C7
S315080047A0130003D00A46194600F020B8704710B522
S315080047B000E0521E92B222B100F012F8F9D0181B8E
S315080047C010BD002010BD10B500E0521E92B22AB1ED
S315080047D000F006F8F9D0181B40B210BD002010BD35
S315080047E010F8013B11F8014BA342704762F30F2200
S315080047F062F31F42401810F0030308D0C91A1FD3EA
S31508004800DB0748BF00F8012D28BF20F8022D13004A
S3150800481030B414461546103928BF20E93C00FAD8AA
S31508004820490728BF20E90C0048BF40F8042D890035
S3150800483028BF20F8022D48BF00F8012D30BC70476C
S31508004840C91818BF00F8012DCB0728BF00F8012D9D
S31508004850704700002DE9F0470446884691469A4677
S3150800486000F0ECF8002801BF25460FF2F010285C8E
S31508004870012823D1DFF8BC6156F8257000F0F8F856
S315080048800021B9803980798000F0F8F806EB8500B8
S31508004890066900F0EDF8DFF8A0210021B18031802B
S315080048A07180A95400F0EAF800F026FA53464A4601
S315080048B041462046BDE8F04700F0F4B82120BDE89F
S315080048C0F0872DE9F84381464C46DFF8680100EB8E
S315080048D0840088460669484600F0B0F808B1012009
S315080048E03AE0DFF85451605D05EB440760B1B888DB
S315080048F07188884208D100F0BBF8665D00216155D1
S3150800490000F0BCF8304627E0484600F0A4F94846CF
S3150800491000F0F3F9B088F0B100F0AAF871880FF248
S3150800492048128919897988F800104FF6FF78718836
S3150800493032F8142000F036F87180B1884144B1800D
S3150800494000F09CF8605D20B1B888404504BF308807
S31508004950B880002000E02620BDE8F2830FF2FC01B3
S31508004960415C01290AD10FF2EC01324A31F81010E4
S3150800497052F820008088081A80B2704700207047D5
S3150800498002B5012200A900F013F802BD80880FF2D3
S31508004990C40333F81110891A884201DA01207047D6
S315080049A000207047491C91FBF2F302FB1311704774
S315080049B02DE9F047804647460FF2A000385C0128EB
S315080049C08A4616462FD11B480FF2940950F82740FD
S315080049D0002514E000F04CF8A18801B901252288C9
S315080049E01AF8011B12199171218839F81720FFF757
S315080049F0D9FF2180A188491CA18000F03FF83046E4
S31508004A00461EC0B258B1002241462046FFF7BEFFF7
S31508004A100028DFD10DB100F009F8222004E000F0EB
S31508004A2005F8002000E00120BDE8F087404600F0C8
S31508004A3079B8000058F200200CF50020042806DAA0
S31508004A400FF21801415C481E8041C00F70470120D3
S31508004A507047000000002000000000000001000070
S31508004A6000002000000000000000400000000000D8
S31508004A70EFF31180602181F31188704780F3118864
S31508004A8070470000DFF81403016C41F4C04141F09F
S31508004A90090101644FF6FF7101602020DFF8001359
S31508004AA00860704770B5012815461E4638D1132987
S31508004AB03CBF0FF22030095C08096422504301F01C
S31508004AC00F010B2903DA884006E00A2250430A46FA
S31508004AD0511ED2B20B2AF8DA0146012000F043FA39
S31508004AE0F8B9300907280CBF00200220012D08BF9D
S31508004AF040F0180003D0022D08BF40F0080006F069
S31508004B000F010229DFF89C12A8BF40F00400886054
S31508004B1001200860FFF7B6FF00F015F9002062BD16
S31508004B20212062BD012800D0704720B59D48006845
S31508004B3001280FD1FFF79CFF05469B48016841F005
S31508004B4006010160012000F09FF82846BDE82040D4
S31508004B50FFF794BF20BD70472DE9F84F04469548E6
S31508004B60DFF854B250F82450944FDFF85482DFF837
S31508004B705492DFF838A210E08180012C0DD1A88864
S31508004B8024280ADB904890F90000002805D48E49AD
S31508004B90132048700120FFF7C5FFDAF80C008007DC
S31508004BA047D5DAF80C0010F03801DAF8000012D10F
S31508004BB0A98839F81420521E914214DA012C07D11B
S31508004BC0C0B2112818BF1328D9D000F034F8D6E798
S31508004BD000F031F8E1E7080709D4C8060DD5242600
S31508004BE00021132006E023260021122002E02726B2
S31508004BF00021142000F049FC03E088064CBF252656
S31508004C0001266C48E15D50F8240021B900882BF88C
S31508004C101400E655B1E73BF814100180E6554288C2
S31508004C20018891423DBF39F814309A1A8918891AB1
S31508004C30A2E7BDE8F18F298849198871288838F8CC
S31508004C401410401C90FBF1F201FB12002880A88882
S31508004C50401CA880704770475B4890F900000328FD
S31508004C6001D1012070470020704701280AD1504819
S31508004C70C168012904D10068800900F00100704765
S31508004C800020704701207047F8B506464F484E4F3A
S31508004C9050F826407878454D40B3E968490725D548
S31508004CA01328286007D14FF0FF30387000211720ED
S31508004CB000F0EBFB06E097F9000000284CBF012046
S31508004CC0401C38700020787010E060884049001950
S31508004CD080792860608831F81610401C90FBF1F244
S31508004CE001FB12006080A088401EA080A08810B139
S31508004CF0E8684007E9D4F1BD7047F8B5012821D125
S31508004D002C484068848800F0E4FC2F4E054604B120
S31508004D10B570FFF7ADFE074696F9000010F1010FD2
S31508004D2001D1092C07DB44B9B178691AC9B2082937
S31508004D3003DB032801DA00F006F83846BDE8F2403E
S31508004D40FFF79CBEF1BD10B51F4C6078132803D140
S31508004D5000206070207004E0112060700120FFF7C9
S31508004D60E1FE00F0B6FCA07010BD38B50B4C0FE0A4
S31508004D7046F229700542256003D0A9B20120FFF743
S31508004D80EBFE41F6D60005421CBF0120FFF77CFF6B
S31508004D902068216C11EA0005EAD131BD08A8004057
S31508004DA000E100E054C8004048A800403CC8004064
S31508004DB048C8004068F2002010F500200CF50020D5
S31508004DC0684A0008A4580208A9FF002058F20020E3
S31508004DD0604A0008306090C0C1C2C394C495C55CDF
S31508004DE096C6AC9798990D0010B5794C002000F03E
S31508004DF03AFD40F68C2188422068B4BF40F008008E
S31508004E0020F00800206010BD10B5044671480188DE
S31508004E1082B000F05CF89DF800109DF80100FF29AB
S31508004E2002BFFF280420002104B1801C6A4A1368C7
S31508004E30C0B20828A8BF072023F4607343EAC0104D
S31508004E40106008291068A8BF0721C00841EAC000F9
S31508004E5010606248047013BD00B56148018883B0CC
S31508004E6000F035F8BDF800004FF6FF7188420EBF16
S31508004E704FF4E1600A2190FBF1F0ADF800005748C5
S31508004E80007808B35348018802237F2201A800F05E
S31508004E901BFD9DF80500BDF80030FF2808BF04205B
S31508004EA0811CC9B20829A8BF0721C1F12F0202EB4C
S31508004EB0D272C0F12F00521000FB0320C1F12F015E
S31508004EC0B0FBF1F0ADF80000BDF800000EBD0223FE
S31508004ED07F2200A800F0F8BC70B5424C256806464B
S31508004EE000F07CFD4049B0FBF1F070432F303021D3
S31508004EF0B0FBF1F0032809D3616D41F0010161654A
S31508004F002168491B0903090B8142F9D370BD10B505
S31508004F10040004D110BD4FF47A70FFF7DDFF204678
S31508004F20441E80B20028F6D110BD3048017869B910
S31508004F30C078072818BF092814D0032818BF1128D5
S31508004F4010D013281CBF15280B280BD02848016839
S31508004F5041F480720260C80504D438210FF2A40017
S31508004F6000F0A2BD704738B504000D4605D0022CE6
S31508004F7010D00FD3032C26D027E01E4C45B100F0E5
S31508004F802DFD1D49B0FBF1F0401EB0F5005F0CD2B7
S31508004F90206018E04DB100F021FD690801EB4000E2
S31508004FA0B0FBF5F0B0F5003F01D3202032BD410833
S31508004FB0022C00F0010008BF104A02D0012C02D1D1
S31508004FC00F4A50601160002032BD212032BD00001A
S31508004FD000BC0040F45B020818000040B0FF002047
S31508004FE0F65B02083820004090D0030096070808B0
S31508004FF038400040100004E020A1070068D80040AF
S3150800500068C800407573625F6572726F722E6300BE
S315080050102DE9F047DFF86446DFF864562068DFF8C4
S3150800502064A6DFF86486DFF86496E86128620026DD
S3150800503025E02068482101FB06074822002138465A
S31508005040FFF7AEFB98F800003870002038737873C5
S315080050500B20B8730320F8734FF6FE7038824FF6AC
S31508005060FF70788200F020FE387600F01DFE787614
S3150800507000F01AFEB876761C9AF80000F876F6B2B2
S3150800508099F800008642D4D3281DBDE8F0470222CD
S31508005090FF21FFF785BB2DE9F041DFF8F4550FF244
S315080050A01068044695F9000010F1010F03DA522141
S315080050B0404600F0F9FCDFF8D47538788442264675
S315080050C005D3FE2E03D05421404600F0EDFC287887
S315080050D0DFF8AC15401C287040B2401804743878C4
S315080050E0844200F073F828BF0E78482202FB0600B7
S315080050F0C861BDE8F08110B5DFF8944594F9000061
S31508005100002802D5652100F0A3F82078DFF870158D
S31508005110DFF878350A781B78401E207040B20028E0
S315080051204EBF10464018007C984238BF024600F031
S315080051304DF8482303FB0200C86110BD10B50020D6
S31508005140DFF83C15482400E0401C00F07BF808D244
S31508005150DFF82835CA691B6804FB00339A42F3D185
S3150800516010BD7E216AE0DFF8280590F9000010F1ED
S31508005170010F01D10120704700207047FE208AE701
S31508005180DFF8FC040078704738B50446DFF8F054B9
S31508005190FFF7E9FF50B9DFF8F80490F90000401965
S315080051A0007CFE2802D09A2100F052F8DFF8DC04D1
S315080051B00078844201D3B12032BD00F007F82C7084
S315080051C0482101FB0400E861002032BDDFF8AC0489
S315080051D00068704738B5DFF8B804DFF8A45490F9CA
S315080051E000406019007CFE2807D0FFF7BCFF20B9F5
S315080051F0B62100F02DF8FF2032BD611E00E0491EE1
S3150800520049B2080004D44819007CFE28F7D032BDFC
S31508005210287832BD10B50020DFF86414482400E071
S31508005220401C00F00FF808D2DFF850340A6A1B68F1
S3150800523004FB00339A42F3D110BDD52100F008F8DB
S31508005240FF2010BDDFF844241278C0B290427047A0
S315080052500FF25C4000F028BC10B500F02FFFDFF815
S315080052602044216A897B884203D0084600F01EFF45
S3150800527050B900F026FF0146206A90F90F008142D6
S3150800528004D000F022FF08B1012010BD206A008A70
S3150800529001F091FB206A408A01F095FB206A007BA9
S315080052A0012818BF002001F070FB002010BD10B5C2
S315080052B000F041F802D3F721FFF7CAFFDFF8D4035D
S315080052C0007808B9702010BDFFF780FF482101FB60
S315080052D00400DFF8AC130862BDE81040BCE7DFF84D
S315080052E0B4130870704710B5DFF8AC43002020707F
S315080052F001F059FE20B92046BDE8104001F086BEEF
S3150800530000F065F800F017F80AD22046FFF7C3FE4A
S3150800531002F048F808B102F0D9F8FFF7ECFE05E00C
S31508005320FFF70CFF044600F014F818B12046BDE854
S315080053301040BCE710BD0446DFF8500300788442ED
S315080053407047CF48006A008A7047CD48006A408A8D
S315080053507047CA490968482202FB0010407B0228A8
S315080053601CBF1128432801D101207047002070472F
S31508005370C2490968482202FB0010007B012818BFB1
S31508005380022804D003281CBF0628072801D10120BB
S31508005390704700207047F8B50024B84DBB4E00E0B2
S315080053A0641C3078E4B284420FD22868482101FB95
S315080053B004072046FFF7CDFF0028F1D0387B0128E7
S315080053C018BF0228ECD12046F2BDFF20F2BD38B541
S315080053D00024AE4D00E0641C2878E4B284420BD267
S315080053E02046FFF7C5FF0028F5D02046FFF7B1FF96
S315080053F00028F0D0204632BDFF2032BD70B500240B
S315080054000025A24E09E02846FFF745FE01F0A3FF56
S3150800541000B10124FFF76FFE6D1C3078EDB28542AE
S31508005420F1D3204670BD80B5FFF7D1FFFF2801D024
S31508005430012002BD002002BD38B5984C05462068FB
S315080054400321A94088432060FFF778FEA840216819
S315080054500843206031BD9149096821FA00F000F03F
S315080054600300704738B500F01AF82946204602F0BE
S31508005470C4FC11E010B50446FE20FFF70CFE2046DA
S3150800548002F05DFBBDE8104035E638B500F007F8D8
S315080054902946204603F05CF8BDE831402BE6044671
S315080054A00D46FE20F7E5F8B5784E754D044630787A
S315080054B0687000270DE03846FFF7EDFDE869416999
S315080054C044F8371004EBC701C07E0871FFF713FED6
S315080054D07F1CFFB230788742EDD3F1BDF8B504469C
S315080054E00025674E0DE02846FFF7D5FDF06954F80C
S315080054F03710416104EBC7010979C176FFF7FBFD57
S315080055006D1CEDB2614970780978814238BF08464A
S315080055102F468742E7DBF1BD38B5FFF70FFE5B4A3A
S31508005520574B1278002100E0491CC9B291420DD2AE
S315080055309C780C1994FBF2F502FB1544E4B2E418C6
S315080055402579854202D0FF2DEED1207131BD70B587
S315080055504B4C4E4EA078001905793078854203D316
S315080055604FF4F571FFF774FEA0780219FF21117147
S31508005570401C317890FBF1F201FB1200A07028461E
S3150800558070BD3F48817808180079FF2801D00120AE
S3150800559070470020704710B5FFF745FF78B1384CC3
S315080055A0E069007B001F022809D21420FFF744FF98
S315080055B004F10800BDE81040642101F032BDBDE8E1
S315080055C0104003F0A8B880B52D49002008721420B1
S315080055D0FFF741FFFFF75FFD03F09DF8BDE80140C7
S315080055E089E500002DE9F8438146FFF7A7FDB9F1E3
S315080055F0070F0FF2BC082A4C214F2A4D2A4E33D8E2
S31508005600DFE809F0040A0A1B1B1B3939F96900206F
S315080056108862283188602EE0FFF705FF20B140F246
S315080056202121404600F040FAF86931688162283045
S3150800563021688160297801711DE02A783568F96941
S315080056400E2303FB025503FB00538B6228312368A4
S3150800565003EB8202154B1B7802EB830202EB8000F8
S3150800566088600120087106E04046BDE8F44340F230
S31508005670372100F019BABDE8F1830000C8F200200E
S3150800568080F900200DF300209FFF0020CCF20020B7
S31508005690D7F30020D6F30020A4F90020ACF90020A7
S315080056A0D8F20020D4F20020D0F2002098F2002090
S315080056B0656D6265722D6D756C74692D6E6574778E
S315080056C06F726B2E6300000080B500F008F880B298
S315080056D002BD80B500F003F80002000C02BD38B523
S315080056E0FFF7C6F92B490C684D68FFF7C7F945EA75
S315080056F0044032BD704780B5FFF7FCFF26490720F6
S31508005700086001202549087001BD2DE9F8430446C3
S315080057100025206810B903F0EBF92DE0FFF7A8F98A
S31508005720804600F030F81CBF401C2060FFF7D7FF0A
S3150800573021681A4E184F81461948494489B2416072
S3150800574021684944090C01603570022038603864C4
S3150800575000F015F84046FFF791F9012003F0A7FC81
S315080057603D64307838B98525FFF7B9FF2168081AEE
S315080057704844206000E025602846BDE8F2831020F2
S31508005780094908607047074910200860206810F129
S31508005790010F70471060004014A00040ACFF0020C5
S315080057A01860004080E100E000E100E070B50546C1
S315080057B00E4603F0B7FC3D4C206C20F00800206430
S315080057C003F0B2FCFFF754F9310341EAC511384A30
S315080057D041F00101116008212160BDE87040FFF722
S315080057E04DB92DE9F041334C334D304E25E003F0E9
S315080057F099FC324904200860306C40F00800306497
S315080058002F68286840084000286003F08FFCD4F809
S315080058100080206820F04000206003F08FFCC4F868
S3150800582000802F6003F082FC306C254920F00800C8
S3150800583030640420086003F077FC30680007D6D58A
S31508005840082030601F48006880B2BDE8F08180B546
S31508005850FFF7ACFFBDE80140C3E7154801684908F2
S31508005860490001607047F8B50746FFF7F5FA0446A0
S3150800587039460320FFF7EBFF054639460120FFF7B7
S31508005880E6FF064639460020FFF7E1FF08490A68A1
S31508005890520852000A60401B0004711BB0FBF1F06D
S315080058A060434000000CF2BD0000000018A0004054
S315080058B0047000400080004094ED00E000E100E044
S315080058C080E200E00070004030B5044610467F28AC
S315080058D008BF0020B1F5004F83B01AD108237F22F4
S315080058E040F6120100A8FFF7EFFF08220FF2C401E5
S315080058F000A8FEF75CFF30B908237F2240F2A271A8
S3150800590000A8FFF7E1FF082200A92046FEF705FFD9
S3150800591037BD204D294300FB03111A462046FEF7E2
S31508005920FCFE37BD2DE9F0440C461A490FF2780AF9
S3150800593041EA0006C007154602D5622100F030F894
S31508005940E80702D5632100F02BF81348864204D3F2
S31508005950A819401E1149884202D3642100F020F894
S31508005960002706E0B85DFF2802D06B2100F018F882
S315080059707F1CAF42F6D36A082146304603F02CFC5A
S3150800598028B15046BDE8F044712100F08DB8BDE855
S31508005990F08400000000080800080808001008083D
S315080059A0504600F081B800006D66672D746F6B6510
S315080059B06E2E6300FFFFFFFFFFFFFFFF2D48006805
S315080059C0C00701D42C4870472C48704780B5FFF7AC
S315080059D0F5FF2B49096801B9400802BD80B5FFF7F4
S315080059E0EDFF400802BD03F0FCBC2648012181609A
S315080059F04EF6BE214160012101607047224901200F
S31508005A0008607047A52805D11E484DF6AD6141606E
S31508005A100221016070471B480068C00701D50120B4
S31508005A2070470020704780B51849194A1020086049
S31508005A3018491948007858B103280CBF00200120DE
S31508005A40106040F6510008600020FFF760FA06E093
S31508005A50022010604FF40060086003F07BFC072109
S31508005A600E4801600021016410200D4908600020DD
S31508005A7002BD00001C400040001BB70000366E0146
S31508005A8020400040006000400860004080E100E0DF
S31508005A90080000400C600040A6FF002014A000404B
S31508005AA000E100E042DE704738B504460D46FFF7D0
S31508005AB0A5FFFEF7DDFF2946204603F040FE2946EE
S31508005AC02046BDE83440EDE72DE9F84F6448654DBA
S31508005AD001682E1D4FF4206A7165016AB165624935
S31508005AE00968F165416A3166816A7166C16AB1669B
S31508005AF0016BF166806B306796F8340040074CBF3F
S31508005B00F76BB76BBB4604F000F80022574CDFF87A
S31508005B106081DFF86091F2648742014624BFA4F1F0
S31508005B202003BB4231651DD357F8180F306457F868
S31508005B30040F7064706DC005C00D062815D1306C51
S31508005B40484512D3404510D200884DF6426290422D
S31508005B500BD105F18C006A68426040F2017A7268DE
S31508005B60826002E03264726483464348814202D20C
S31508005B70014600E0091DA14203D20B68B3F1CD3FEF
S31508005B80F8D0601AB064182105F1780003F0EEFF2A
S31508005B90002003E0C0B205EB80029167A34523D23B
S31508005BA054F8041D4945F9D34145F7D2CA07F5D536
S31508005BB0002205EB82039B6F8B4203D0521CD2B2A4
S31508005BC0062AF6DB062AE9D1002814BF401E05205E
S31508005BD0E0E7716F002205EB8203521CDF6F9F67B7
S31508005BE0052AF8DBC5F88C100146481EC9B20029FB
S31508005BF0EFD1706DC005C00D02280AD0032815D054
S31508005C00042816D0052817D0062818D00C281CD02A
S31508005C101EE01A480168890748BF40F6021A1CD4D4
S31508005C200068C00719D540F2025A16E040F6012A64
S31508005C3013E040F6022A10E040F6032A0DE0BAF512
S31508005C40206F0AD140F6042A07E040F6052A04E048
S31508005C5018B1242838BF40F6072A5046BDE8F28F07
S31508005C6004ED00E00000002000E300E058F2002008
S31508005C709C58020890410008980000201CA000408B
S31508005C8081B209B94BF6EF610E4A1180000C08BFC4
S31508005C904FF6CE20508070470288130448BF4A400A
S31508005CA0510001801046704738B5064C62212046DF
S31508005CB0FFF7F2FF054641F20B01A01CFFF7ECFFC8
S31508005CC0684032BD1AF30020DFF8E03433F81000DC
S31508005CD01040C840704730B50FF29054DFF8D03402
S31508005CE034F810409C601140DFF8C04434F8105076
S31508005CF095432943D96002221A6000221A6024F8C3
S31508005D00101058680028FCD130BDDFF8A824DFF849
S31508005D10A8041278DFF8A4140AB149780EE0895667
S31508005D2011F1090FB8BF302108DBC16D39B1C26D59
S31508005D3040F24A31B1FBF2F189B2C91E01607047DF
S31508005D40E0B5DFF87C0401880A2300F064F8BDF8A2
S31508005D5006104FF6FF720D20FFF7BDFF07BDF8B519
S31508005D600546B5F5004FDFF8544419D1DFF8540459
S31508005D700188022300F04FF8BDF80000000AFF284A
S31508005D8014BF002818206070BDF800000006C00E79
S31508005D9010281CBF001D00F098F9BDF80000C54387
S31508005DA0DFF81064707808B1002005E0A089ADB26C
S31508005DB06840C00701D501207070DFF80C04A58182
S31508005DC005F00104016841F400410160C5F340078C
S31508005DD00FF2BC4000EB44004FF4405240780103F8
S31508005DE089B20220FFF777FF204603F0C3FE402260
S31508005DF0B90100F005FA2D06A80E00F00100384397
S31508005E003070FFF782FF707818B1FFF799FF00200E
S31508005E1070700020F2BD7F2200A8FFF755BD2DE95E
S31508005E20F04FDFF8AC43207887B0042304900B21A9
S31508005E300B38C0B2039000A8039A03F055FF9DF8EB
S31508005E4000008DF80A009DF801008DF809009DF8FC
S31508005E5002008DF808009DF803008DF80500DFF8AC
S31508005E6074030078012804D16078451EAD41ED0F12
S31508005E7000E0012504F0C9F983469DF9020003995B
S31508005E80D24F0BF10A0AABF10A065045B6BF864255
S31508005E904FF001084FF0000801208840ADF80600D1
S31508005EA09DF80100000604D47888BDF8061008425B
S31508005EB001D04FF0010804F02FFA9DF80300000600
S31508005EC00AD4B888BDF80610084205D19DF9000025
S31508005ED05045B8BF864202DB4FF0010901E04FF09A
S31508005EE0000948EA050059EA000000F09E80DFF83C
S31508005EF0E8A2BA49DAF8000000F002008DF80400BA
S31508005F00B748006800F4E06005904FF4E060086068
S31508005F10002000F0A9FD03F087FBB24EADB1607812
S31508005F2058B1DAF80000AB4940084000CAF800004A
S31508005F3001200870FEF7D0FF07E0306840F40050F3
S31508005F403060306820F480503060A248007801281C
S31508005F500DD104F0C8FADAF800009E4940F00100B5
S31508005F60CAF80000002008706420FEF7B5FF2DB1BE
S31508005F70607818B90498C0B204F0C9FB607838B1E3
S31508005F80306820F480503060306840F4005030604B
S31508005F90BDF80600C543B8F1000F08D004F0A2FC0E
S31508005FA08DF801008DF802B0788828407880B9F11C
S31508005FB0000F08D004F047FD8DF803008DF800B0F7
S31508005FC0B8882840B8809DF900009DF90A108842D3
S31508005FD002BF9DF801009DF8091088420BD19DF972
S31508005FE002009DF90810884202BF9DF803009DF83B
S31508005FF00510884206D00399042300AAC9B20B20CB
S3150800600003F098FE05987649086003F0CBFE9DF8E4
S31508006010040000F029FDFFF720FC607828B148F25B
S31508006020607030606420FEF757FF9DF8010004F0A9
S31508006030C5FB9DF8030004F001FD07B0BDE8F08F2D
S3150800604080B504F0D5F8BDE80140E8E604F0D0B81C
S3150800605070B50646A6F10B0400F01EFC0546A6F12F
S315080060600B00102801D38A2070BD5F488168090794
S3150800607002D40068C00701D58C2070BD544806704C
S315080060805A4801680C290FD00FF27811584A92F92C
S315080060900020A4B231F824105118C161FFF7BFFEE1
S315080060A0012D08BF00F099FB002070BD10B504460D
S315080060B004F09EF82046BDE81040C9E74448007839
S315080060C070473E4890F9000070472DE9F0410446B4
S315080060D014F12B0F86B045DB464801881423FFF7D9
S315080060E09AFEBDF810004FF6FF71884203D04004AF
S315080060F048BF012606D43F2200211020FFF7E4FD01
S315080061000546002604F12B022F2A2C483A491AD2B2
S3150800611013220FF2301300E0521ED2B213F9127096
S31508006120BC42F9DB03EB4204032764780C600024C5
S3150800613013F81210017000208046AEB1BDF8101099
S315080061404FF6BF7229E0092C0CDA225C0A6004704B
S3150800615014232A480188FFF75EFE01240320A0467F
S315080061602827EAE78B201DE0C1024FF4605200F0B1
S3150800617047F84FF4E062210200F042F880224FEA25
S31508006180C81100F03DF885F020003D18ADB2402D4D
S31508006190A8BF3F253F2285F0200100F031F8FFF720
S315080061A0B4FD002006B0BDE8F081000024F8002008
S315080061B0E8100040AEFF002064100040A0F3002065
S315080061C0F25B0208065C02081C10004066F5002017
S315080061D09DF30020E6F300208020004080E100E0E7
S315080061E000E100E0D010004060200040AC10004004
S315080061F0ADFF0020EE5B0208C0100040F05B02080D
S315080062000B2068E5AA212900552329000025280026
S31508006210AA26270055282700002A2600AA2B26008A
S31508006220552D2500002F2400AA30240055322300BE
S3150800623000342200AA3522005537210000392000F3
S31508006240AA3A2000D500E601EC02EF03F204F405B1
S31508006250F506F707F808F909FA0AFB0BFC0DFD0F16
S31508006260FE11FF1300160119021C031F100011006E
S31508006270200030004000410050006000700080009F
S315080062809000A000B000C000D000E000F0000000C0
S3150800629000000103DFF84408007848B1DFF8400839
S315080062A00179012904BF4079042801D101207047EA
S315080062B0002070470FF6D001405C7047010603D5F1
S315080062C04FF67F710840C00070478001B0FBF1F0BF
S315080062D080B2FF288CBF0020C0F1FF00C0B2704713
S315080062E038B5DFF80008C178012901D1002032BD90
S315080062F0DFF8FC47617871B1E17840794518207973
S31508006300ADB2854228BF0546FFF7CEFC0121A9405C
S31508006310491E084000E0002061790818C0B232BD65
S315080063202DE9F0470446C00705D54FF4B8710FF6B6
S315080063304800FFF7B9FBDFF8BC57286DC00748BF10
S315080063408C2000F19480DFF89C07DFF8A477002101
S31508006350017101704178B1B93978A1B12178122952
S3150800636018BF0C290BD1627802F00702032A02BF74
S31508006370091911F8021C042904BF01210171A96F2A
S3150800638041F0010102E0A96F49084900A967DFF851
S3150800639050877A7898F80610DFF85C97DFF85C671C
S315080063A092B1002242710129286D40F00400286547
S315080063B006D14FF6FF7030604FF40070C9F8000040
S315080063C0FFF78EFF82460CE0286D20F004000129B5
S315080063D028654FF0000A04D100F02CFA6420FEF775
S315080063E07BFDA86F20F00800A8671420E864C5F8AC
S315080063F048A0787838B198F80600002801BFA86C3C
S3150800640000280120A864B8790028286D14BF40F038
S31508006410080020F008002865FFF73CFF18B1306C2B
S3150800642040F008003064202028626C602C604FF42D
S31508006430E06468687F30686004202862DFF8C00678
S31508006440046006E004F0C8FB18B102F051FBFEF741
S315080064500FFBDFF8B006006800F003000328F1D050
S31508006460C9F80040286D40F0010028650020BDE805
S31508006470F087DFF89406002141608160016821F009
S31508006480020101604FF00070DFF8801608600120F5
S31508006490DFF87C1608707047A0F13301DFF8742620
S315080064A0914200D3704710B5DFF864460021217089
S315080064B002F021FF02E0012002F01EFB20780028EE
S315080064C0F9D010BD2DE9F84FDFF83086DFF81456FD
S315080064D0D8F80000D8F84010DFF8187601EA00046A
S315080064E0A4B2C8F800406878002840F0D580E007D4
S315080064F0DFF82466DFF8F8954CD5D7F800A0386C95
S31508006500796C41EA004199F80000A96000283DD05D
S315080065109AF80100800639D501202870FFF7BAFEDF
S31508006520C0B31920FEF7D8FC4FF44040DFF8ECB5AD
S31508006530CBF82800DBF800000090F06E40F400501D
S31508006540F066F06E40F48050F0669AF80010A8687D
S315080065504901B83101EB000A03F019FEAAEB000065
S315080065600003000BFFF798FFF06E80098001F066C4
S3150800657000A9F06E09880843F0660020CBF82800C9
S3150800658048F26070F066E888306003E00022002078
S3150800659004F041FB20060ED5287830B1002028707B
S315080065A00022A968402004F036FBD8F83C0020F405
S315080065B08050C8F83C00600608D5687830B903F002
S315080065C0E6FD01460022892004F025FBE00654D5A5
S315080065D0DFF80CA5DFF820B59AF80400012804BFF7
S315080065E09AF8061001291FD103F07DFF386F40F095
S315080065F00100386700208AF8060003F0D3FB0A205A
S31508006600FEF76AFC4FF6FF70C8F8000000244FF446
S31508006610E060CBF800000920B8660120B864B86FBE
S3150800662040F00800B86718E0697999F80220491C13
S315080066306971C9B2914215D2012808BF00F0CDF898
S31508006640B86F20F00800B8671420B866FFF748FE50
S31508006650B8644FF40070CBF80000386D40F00100C4
S3150800666038650AE0012808BF00F0B7F803F08FFD87
S31508006670014600228D2004F0CEFA20070CD5FFF73C
S3150800668009FE48B13068E88001203060D8F840003B
S3150800669020F00800C8F84000A0060AD52020386275
S315080066A0687830B903F073FD01460022882004F0AB
S315080066B0B2FA687820B114F4407F04BF0120A870AC
S315080066C0BDE8F18F70B582B00446FFF7BFFCDFF86E
S315080066D05804DFF81454002101601521E9600921E6
S315080066E001651F21416001210166DFF83804008831
S315080066F0FFF735FB03F07EFB04F052FB00F02EF9A2
S31508006700DFF8DC63308900F056F9708900F05BF930
S31508006710FEF7AEF9696841F040016960FEF7AEF927
S31508006720707800F0F0F8B07800F0FDF8DFF8FC03B8
S31508006730007800F02AF9DFF8F80390F90000FFF76F
S31508006740C4FC307800F090F996F9030000F098F947
S31508006750DFF8E00300F0B6F9BDF80000DFF8D8135B
S31508006760C0054CBF0020BDF800000870DFF8CC0358
S315080067700078FFF76DFC28B10FF2FC3040F2B63115
S31508006780FFF792F9012C05D12868C00711D500F04A
S3150800679024F80EE06CB92868C0070AD403F0A3FEF3
S315080067A0286840F001002860C820FEF795FB002005
S315080067B0B071F120DFF84443206440F2F910E06339
S315080067C003F0F0FA2868C00704D54FF6FF7020607A
S315080067D000F05DF802F028FF73BD70B5DFF860536E
S315080067E0DFF8FC422E68A079012822D0FEF740F98E
S315080067F0B6B2DFF80C232E604FF4E0611160DFF8C3
S3150800680020130A6A520852000A620A68520852009D
S315080068100A600A6842F002020A604A6A42F0010205
S315080068204A620121A171FEF729F9BDE8704003F01B
S315080068302BBE70BD70B5AA4CA07938B303F053FED1
S31508006840FEF716F90546DFF8FC12A84E0120086087
S31508006850306D40F0010030650020A07103F0A2FA07
S3150800686020203060306B40F002003063F06D40F05D
S315080068700800F0652846FEF701F90A20FEF72CFB0A
S315080068809E494FF6FF70086000F001F870BD4FF49E
S31508006890E06099490860704791488079704710B55B
S315080068A08F4CA07928B140F2A7410FF2CC20FFF710
S315080068B0FBF82079012804BFBDE81040FFF78DBF1B
S315080068C010BD87480079704780B5022801DB012092
S315080068D002BD834908718979884205D010B9FFF746
S315080068E0A9FF01E0FFF779FF002002BD964800687E
S315080068F0800200149A3801B211F1800FB8BF6FF008
S315080069007F0040B2704710B50446FEF7B1F88F49CC
S315080069100A68002C14BF42F0120222F012020A6022
S315080069206F494C7040E038B50446FEF7A1F80546B5
S3150800693003F031FE40B985480168002C14BF41F0C8
S31508006940800121F080010160654884702846BDE811
S315080069503240FEF793B86248807870477C494A7897
S315080069600B787C4803EB022202608B78CA7803EB2B
S31508006970022242600B794A7903EB02228260CA79C5
S31508006980897901EB0221C160704710B50446FEF70C
S315080069906FF86E490A68002C14BF42F0200222F0F4
S315080069A020020A6061490C70BDE81040FEF766B81F
S315080069B04B48008970474A4908816749086070470B
S315080069C04748408970474649488164490860704786
S315080069D06348007870475248816A41F00201816233
S315080069E00121016070474E4800210160816A21F04B
S315080069F0020181625020FEF76FBA38B5594C5A48E1
S31508006A0021695A4D0180E1694180E96C8180002045
S31508006A102061FFF7E0FF0120E0610020606220624C
S31508006A204CF25D00E864286840F4004028604FF4A2
S31508006A300040206048F20200206031BD80B5FFF7B3
S31508006A40D2FF48484FF400410160002101604749E0
S31508006A500A6822F400420A60434A9388CB64118884
S31508006A6001615188C16101BD1F490A68002814BF28
S31508006A7042F0020222F002020A60194908707047C1
S31508006A8038B504467F2C0AD1394800F01BF8BDF802
S31508006A900000C00554BFBDF800406FF04A04FDF77A
S31508006AA0E7FF054603F077FD30B964B204F19A00B2
S31508006AB080053049000C08600948C4702846FDF76F
S31508006AC0DDFF31BD018802237F2200A8FEF7FCBE48
S31508006AD0034890F90300704700000000C0FF00203B
S31508006AE0E0F30020B8F90020802000403020004064
S31508006AF010F400201020004000E100E004A000404F
S31508006B0080E100E0A820004010E000E004ED00E08D
S31508006B10C1FF0020CDFF070064100040E4100040CC
S31508006B2060200040ACF300205C100040BFFF00204E
S31508006B30A0F30020145C0208ADFF00209DF300209E
S31508006B401C100040281000400C1000408420004013
S31508006B50C4F900209820004094200040902000406E
S31508006B60DEF30020181000407EF50020C01000401B
S31508006B70185C0208541000407068792D636F6D6DBB
S31508006B806F6E2E6300000000FEFEF7F7C8C801000E
S31508006B9010B5DFF82004006898B9FDF769FF0446C8
S31508006BA0DFF814040178002918BF052904D1032148
S31508006BB000F8041B00F02AFA2046BDE81040FDF74D
S31508006BC05DBF10BD2DE9F047DFF8F043DFF8E85365
S31508006BD027782978DFF8DC83002028710FF2004037
S31508006BE051B9D8F8004014B99D21FEF75DFF002081
S31508006BF0C8F80000A047B1E003291CBFA321FEF78F
S31508006C0053FFFF26FF2F26700CD0384604F013F9E1
S31508006C10FEF741FA384601F091FE384604F062FA6A
S31508006C20FEF769FA0020687001F088FD002800F078
S31508006C3083802078012704F0FEF88046FEF72BFAB9
S31508006C402078DFF87C9304F0F1F800F00C000C28AB
S31508006C5016D1207804F0DBF8824604F01DF999F87D
S31508006C60001010F80A00052902D1062808D106E006
S31508006C7001291CBF0329082902D1072800D10027AA
S31508006C80207804F0D3F800F00C00082804BF99F81F
S31508006C900000082834D09FB300F084FB88B1207820
S31508006CA004F0C4F800F00C0008280AD1207804F093
S31508006CB033FFC44F39688873207804F046FF396873
S31508006CC0C8734046FEF7F3FAD0B14121207805F0A3
S31508006CD0DFF818B92078412106F0C2F9207804F0C7
S31508006CE001FA2670FDF7C4FE064603202870281D03
S31508006CF000F08CF93046FDF7C1FEFEF7F4FA17E00E
S31508006D00207800F08AF804466878AF49C0074EBF75
S31508006D100020AE4800780870FDF7AAFE0646012056
S31508006D2028700121204603F05FFF3046FDF7A6FED6
S31508006D30BDE8F047FEF7DFB9FDF79AFE06460020E4
S31508006D402870D8F8000010B1281D00F05FF9304609
S31508006D50FDF794FEBDE8F047FEF7C5BABDE8F08733
S31508006D6080B595480178012904D0022906D004295E
S31508006D700BD010E0BDE8014003F0E1BFFFF78FFD3F
S31508006D80BDE80240312001F08BBD05210170BDE848
S31508006D90014006F074BEBDE804404FF4B4710FF22A
S31508006DA04020FEF781BE38B5FDF762FE824D0446E7
S31508006DB02878052803D040F2771100F02AF8002039
S31508006DC028707C48006810B1281D00F01FF920467D
S31508006DD0BDE83240FDF752BE70B50446FDF748FEE1
S31508006DE0754E05463078002818BF052803D04FF49D
S31508006DF0C27100F00EF8042030704FF6FF7084421E
S31508006E001CBF204606F0EAFE2846BDE87040FDF79E
S31508006E1035BE0FF2CC10FEF747BE2DE9FE4F804671
S31508006E2003F0EBFF8DF80500694F38689DF80510EB
S31508006E3018F80000401A8DF80400404603F0F6FFE3
S31508006E4000F00C0004280CBF01250025404604F07C
S31508006E507FF9FF2883460EBF00273968475CDFF8AD
S31508006E6074915D4CFF20661C89F8000000F09AFAC0
S31508006E7058B1404603F0DAFF00F00C00082804D1A8
S31508006E80404600F011FC01208BE00DB3404603F0AC
S31508006E90DFFF06464FF6FF7048F6410A864218BFDE
S31508006EA048F6610AFEF751FA0146201D06F0CBFEA8
S31508006EB03146A01D06F0C7FEFEF743FA014604F167
S31508006EC0080006F0C0FE04F10A0004F10A06029062
S31508006ED0002000909DF804309DF805204146304674
S31508006EE004F09FF99DF80400861947B10020009028
S31508006EF03B4600225946304604F093F9BE196DB157
S31508006F00404603F084FF4078800726D50298311A58
S31508006F104246C9B205F0C9FB86191EE0A078617819
S31508006F2001EB002080B2410B01F0010181F001055F
S31508006F304DF6FF7101EA000A0AF00700032805D199
S31508006F40601C03F0A9FF0019407804E01C4800788B
S31508006F50082802D1072089F80000404604F070FF8F
S31508006F6008B14AF0100A1FFA8AF1601C06F06BFE97
S31508006F701AF0070F04D119480178491C017004E07A
S31508006F8010480068017E491C0176301BE170401CE0
S31508006F902070301B7F2803DB4FF4F671FFF739FFAB
S31508006FA02846BDE8FE8F04480178481E8041C00F78
S31508006FB07047000080FA0020E8F9002002F400205B
S31508006FC060F400209CF9002000F4002001F4002061
S31508006FD080F20020E5F30020F4F9002074FA00207E
S31508006FE06D61632E6300000038B544784568FDF787
S31508006FF03FFD814A0C2161438B585B1BB3F1004F5F
S3150800700098BF8D50BDE83240FDF738BD10B504462F
S31508007010FEF765FB6060042020702046BDE810403E
S31508007020E2E738B504460D46FEF759FB28186060B6
S31508007030012020702046BDE83240D5E710B5044649
S31508007040207860B1042806D0FEF749FB6168421A29
S31508007050B2F1004F01D8002010BD081A10BD4FF03C
S31508007060FF3010BD70B50446FEF739FB0546FDF73F
S31508007070FFFC064660686FF0004100F02CF84019E6
S3150800708020603046BDE87040FDF7F8BC70B5044690
S315080070900D461646FEF723FB002156B1FF22327035
S315080070A007E0121AAA4202D2154606B13170491CE7
S315080070B0083422680AB9284670BD1378002BF6D022
S315080070C0042B04D05268831AB3F1004FE9D806B1ED
S315080070D03170002070BD0022D8E738B50446FEF7A7
S315080070E0FEFA05460DE0017851B1042904D041683D
S315080070F0691AB1F1004F03D8042101706168884705
S31508007100083420680028EED131BD10B53A490C2262
S3150800711002FB0014FEF7E3FA2168401AB0F1004FAB
S3150800712006D86068FFF7D9FF2046BDE8104099E702
S3150800713010BD70B5314D32490978044668788842E1
S3150800714004D3E5210FF2BC00FEF7AEFC6E78701C86
S3150800715068700C21284801FB060001214460017271
S3150800716000E04E7054F8081B0029FAD1FFF77AFFA1
S31508007170304670BDF8B505464FF0FF3000901F4CFD
S31508007180207840B303F028FD28B940F219110FF210
S315080071907400FEF789FCFEF7A2FA174A0C2101FBD8
S315080071A0052300251D72002305E0009EB54288BF11
S315080071B0354600955B1C6578DBB2AB420FD201FB06
S315080071C003263568471BB7F1004F04D9367A2D1ABE
S315080071D00EB9002DE9D101F08BFC0020F2BD00A804
S315080071E0FEF793FA0120F2BD034A0C2303FB0020A5
S315080071F0012101727047000018F50020C4FF002025
S31508007200AC5802086576656E742D636F6E74726F7E
S315080072106C2E630060480068408870475E480068C6
S31508007220001D70475C480068C07E70475A49096867
S31508007230C876704770B5584C584D2168584E4873F3
S31508007240022819D100F0AEF878B92068007B001F33
S31508007250022824BF3046FFF7D9FE2068007BC01EEF
S31508007260032824BF2846FFF7D1FE20684069C000DE
S3150800727054BF9024BC240AE000F094F810B100F042
S31508007280C3FA03E03070287001F053FA91242046BF
S3150800729006F006FD50B9234613223EA1032007F047
S315080072A0A7F92046BDE87040FEF7E4B870BD3A4835
S315080072B00068407B00F00F00704737480068407B45
S315080072C000F00F00022801D1012070470020704706
S315080072D038B5044600F066F820B12046BDE83240CD
S315080072E000F02BB92C4DFFF7E8FF28B92868407B3A
S315080072F0032801D0932032BD07F07EFB2081286841
S31508007300C07BA0722868807BE072204608F0A5FE44
S315080073100020207304F1140104F1100008F053FF53
S31508007320E081002032BD10B5002300E05B1CDBB213
S315080073308B4205D210F8014B9442F7D0002010BDBD
S31508007340012010BD80B5082102F024FF08B10020F5
S3150800735002BDA52002BD10480068407B01281CBF5D
S315080073603128332801D1012070470020704710B515
S315080073700446FEF7AAFE10B907490968CC7310BD82
S315080073800548006890F90F00704703480068807B3D
S3150800739070470000424200009CF9002028FD0020AA
S315080073A020FD002080B507F02FFB032801D101201E
S315080073B002BD002002BD80B5FFF7F4FF38B1BDE875
S315080073C004404FF490710FF20800FEF76DBB01BD43
S315080073D0656D6265722D737461636B2D636F6D6D78
S315080073E06F6E2E630000000038B504460D46009502
S315080073F023464722A9A1032007F0FAF8FFF75DFF05
S3150800740068B1FFF7CFFF50B1002C18BF002D08D088
S31508007410B4F57A7F03D8112D01D3A54201D3702084
S3150800742032BDDFF840040481458100F01EF80020D3
S3150800743032BD10B504463322237899A1032007F0FC
S31508007440D7F81A222146DFF820040AE010B50446C8
S31508007450342294A1032007F0CBF81A22DFF8081487
S315080074602046FDF75AF9002010BD10B5DFF8F443A1
S315080074700020207001F0CDF920B92046BDE8104063
S31508007480FFF7C4BD208920B1DFF8E403007803289C
S3150800749001DB002002E0608920B90120BDE8104028
S315080074A0FFF712BAFFF70DFA30B90120FFF70CFA09
S315080074B020896189411A03E00020FFF705FA6189EE
S315080074C02046BDE81040FFF7ACBDCEE738B5DFF87B
S315080074D0A443DFF8A40321680078C873DFF8900393
S315080074E00078C11E03291BD31AD0DFF880532978E8
S315080074F0C90701D4092813D0688807F079FAA8883B
S3150800750007F07EFA2978206801F00101012905DAD9
S31508007510817B0F291CBF1429192901D06978817329
S3150800752031BD80B500F070F909F088F8002009F03F
S3150800753038FBBDE801400AF03DB810B50446FFF730
S31508007540BCFE08B9932010BDC84881882181C94965
S315080075500968C97BA1724178E1724088E081002000
S3150800756010BD10B586B00446FFF71CFF28B940F2D7
S3150800757025110FF21C30FEF797FA1223192200A9DB
S3150800758001200BF0CAF99DF80000FF2808BF9320D8
S3150800759007D09DF80100C0074CBF062007202070C1
S315080075A0002006B010BDF8B504460D4616460FF283
S315080075B0E02703F03BFC00F00C00082804D040F25A
S315080075C039113846FEF770FA00F04AF810F0030F42
S315080075D004D14FF49D713846FEF766FAFFF76DFE43
S315080075E0C8B100F03DF800F00300012805D000F00E
S315080075F037F800F00300032806D13246294620460C
S31508007600BDE8F84009F0DDBB324629462046BDE80C
S31508007610F8400BF025BCF1BD10B5044621460620FE
S315080076200BF007FED8B100F01BF800F003000228A3
S3150800763004D12046BDE810400BF0AEBB00F010F8B0
S3150800764000F00300012805D000F00AF800F0030056
S31508007650032804D12046BDE8104009F0D0BA10BD71
S3150800766000220621204604F01CB910B500F0A2F845
S31508007670400711D520460CF005F8FF280AD07F49A7
S315080076800968302202FB001090F82C0000F0040074
S31508007690012801DA002010BD012010BD4244440033
S315080076A042420000420000002DE9F04383B000F09A
S315080076B081F8800800F0010971480FF2D4180068B3
S315080076C0205C000604D44FF4BE714046FEF7ECF980
S315080076D0204603F03DFD074601AA0121204604F095
S315080076E0E0F864480068017E4A1C0276D2B29DF82A
S315080076F0041000F05CF801AA0721204604F0D1F82E
S31508007700FFF7AEFF00F00300022802D10CF0ECFAF6
S3150800771004E0204609F025FC09F060FA9DF80410FB
S315080077200546481C8DF80400EAB200F040F800F05F
S3150800773037F82A0400F03AF800F032F82A0200F086
S3150800774035F800F02DF82A0E00F031F800204D4EDD
S315080077504D4D0090002230683B5C3946681C03F0AA
S3150800776060FD3068385C4019471CB9F1000F08D035
S3150800777020460BF087FF014620460BF032FE042018
S3150800778000E00020791B4018401C2870781B7F28D1
S3150800779004DB40F2AB114046FEF786F9BDE8F783F5
S315080077A09DF80410481C8DF804007047120E3846E0
S315080077B003F033BE04460022062104F072B880B5F1
S315080077C00F2804D0142804D0192804D005E0142062
S315080077D002BD192002BD0F2002BD40F2C1110FF2F1
S315080077E0B000FEF761F9FF2002BD80B5FFF765FD21
S315080077F040B1FFF7D7FD28B11D480178481E8041E2
S31508007800C00F02BD002002BD0FF29400002200E066
S315080078100A7050F8081B0029FAD170471B4890F9DE
S31508007820000000284CBF4000FF20C0B27047104837
S31508007830007800B1012070470A48008928B10C4831
S315080078400078032801DA01207047002070470548B0
S31508007850018919B1408910B1012000E00020C0B2A9
S315080078607047000084FA00209CFA002008F40020E3
S31508007870B8FD00209CF90020C8FF0020DCF200209B
S3150800788084F2002080F20020F4F90020D9FF0020BD
S3150800789072663463652D737461636B2E6300000032
S315080078A084FA00206B740008C4FD00206D170108D7
S315080078B014FE0020F13601081CFE00202F070108DF
S315080078C0BCFD00205518010800000000000000005B
S315080078D070B50446DFF8E006DFF8E066006882B0B7
S315080078E0255C00F028F88DF800003088411E89B222
S315080078F000A803F081FDDFF8C8169DF80020096886
S31508007900545405B9202531881F31081A28183080A3
S3150800791073BD38B5DFF8A4560446288809B1A042D5
S3150800792007D2014600F007F8224603F0F0FC08B13A
S315080079302C80012032BDDFF88C060078704710B520
S31508007940DFF88016097882B08DF80010014600A885
S3150800795003F052FD04469DF8000003F04FFB201883
S3150800796016BD80B5FFF7EBFF007802BD10B50C46D3
S31508007970FFF7E5FF047010BD80B5002200920023D2
S31508007980FF2200F001F802BD2DE9FC4609B4FFF715
S31508007990D2FF83B08946164600258DF80500FDF707
S315080079A019FC8246DFF820060078824504DB9C2114
S315080079B00FF68830FEF778F8039849460CF043FC32
S315080079C0002800F09880FF2E05D0304603F07CFB97
S315080079D000F0BFFA355CDFF8F4452078FF2813D0AD
S315080079E003F0B6FBFF2818BF03F07CFBDFF8E015B1
S315080079F020780968425C02F07F024254207803F03E
S31508007A0063FB2078FFF764FFDFF8C8750E9C78885B
S31508007A1048442018C01C012180B2FFF77AFF40B9FC
S31508007A2001203870FF2E1CBF304603F05BFB002098
S31508007A3062E005EB09002018811C7888C9B2FFF7B7
S31508007A4095FFDFF8940501787888401C80B2FFF727
S31508007A508DFF4FEA4A1040F080017888801CC9B231
S31508007A6080B2FFF783FF7888C11C89B20DF1050043
S31508007A7003F0C2FC0246012000904B469DF8051013
S31508007A80039803F0EAFBFF2E0DD03046FFF720FFE0
S31508007A90788800954844C11CFFF74DFF00233246FD
S31508007AA089B203F0A9FDA4B1FFF745FF8DF80400DC
S31508007AB0788828184844C11C89B201A803F09CFCA0
S31508007AC00121009102469DF804100498234603F00C
S31508007AD0C4FB05EB090178886118C91C0818788069
S31508007AE001200CF0BFFCDFF8F4040178012912BF6D
S31508007AF0022900210170012007B0BDE8F08638B5DB
S31508007B000D00044608D02D1FA8B200E02846FFF74E
S31508007B1016FF0078401C4519DFF8B8044088ADB256
S31508007B20854209D2E81C80B2FFF709FF0078A04217
S31508007B30ECD1281D80B232BD4FF6FF7032BD10B5AC
S31508007B4082B00446192000F0E6FC902C03D1DFF839
S31508007B5090140220087013BD80B500F02BF8482257
S31508007B608DF8002073E210B586B004461B208DF808
S31508007B700000A0788DF801000DF10200218806F0BA
S31508007B8062F80822211D01A8FCF7C7FD00A8E178C4
S31508007B900173217B4173607B8DF80E000DF10F0098
S31508007BA000F05AFACCE280B500F004F81C228DF8F1
S31508007BB000204CE28DF801008DF8021070472DE97F
S31508007BC0F04F87B005460E4614460CF0ACFC8046CE
S31508007BD02246314628460CF038FB002864D10DF1C0
S31508007BE009000CF0A8FC28B962208DF808000921C4
S31508007BF000F06AFBFF2C0FBF4FF0000BDFF8B8133D
S31508007C00096814F801B045208DF8080002AF0DF197
S31508007C100A017D70304600F081F80DF1150000F07C
S31508007C201BFA00F096FB0DF09BF88DF8190000255D
S31508007C30DFF8B003DFF8B0930668DFF8B0A301E019
S31508007C406D1C0C369AF8000099F80010EDB2401A2F
S31508007C5085420BDA30884045F2D1FDF7BBFAB17A96
S31508007C60C1F342018142EBD1BD7401E0FF20B87433
S31508007C708DF81BB040460DF0B6F98DF8040000B13A
S31508007C800120009001AB2246142102A8FFF77CFED2
S31508007C9000281EBFDFF858030078212804D1D548EC
S31508007CA0017841F00401017007B0BDE8F08F2DE9B5
S31508007CB0F043074600F04DF987B01D460E9C2E5C32
S31508007CC088469146214638460DF040FA3F208DF801
S31508007CD004008DF8057041460DF1060005F0B3FF66
S31508007CE002A9484600F01AF8C3480068285C8DF8CF
S31508007CF013008DF81440C1480078402804BF0026B8
S31508007D00FF25002000908DF8156000232A461221D1
S31508007D1001A8FFF739FE07B0BDE8F08338B5044679
S31508007D200D462188284605F08EFF6188A81C05F0B7
S31508007D308AFF2079287160796871A81DE18805F0A5
S31508007D4082FF218905F1080005F07DFFA07AA87257
S31508007D5031BD2DE9FF411546012D074688461C46CB
S31508007D6007D101210020022650EA01020AD1032682
S31508007D701AE0052DF5D00021032D18BF072DF1D1E6
S31508007D800120F0E79E4A12783AB1012A08D0022A61
S31508007D9005D0042A08BF0E4604E0012604E058B1BF
S31508007DA0002601E0022E07D006F01EFE844203D00C
S31508007DB0214638460DF003F924208DF8000039468F
S31508007DC000F067F8082241460DF10300FCF7A5FC10
S31508007DD08DF80B508DF80C6021460DF10D0005F05D
S31508007DE032FF0F2100F06FF8304604B0BDE8F0818D
S31508007DF080B56E2100F015F92AE110B584B00C465D
S31508007E009B218DF80010082201460DF10100FCF7B0
S31508007E1084FC8DF809400A2115E070471FB5044611
S31508007E20232000F04BF88DF8021020460DF03DFB9C
S31508007E30014600F08AF90DF10D020DF10501204603
S31508007E400DF043FB0E2100F03EF81FBD80B57C21E6
S31508007E50F8E070B586B004467D208DF800000D4622
S31508007E601646214600F015F8082229460DF10300AA
S31508007E70FCF753FC8DF80B600C2100F024F803A8DE
S31508007E800CF059FB18B903A920460DF023FD06B0DE
S31508007E9070BD0DF1010005F0D6BE38B504460D4695
S31508007EA00DF039F9802000F009F829460DF1020095
S31508007EB005F0C9FE042100F006F831BD8DF8000072
S31508007EC08DF80140704700A856E580B5F22100F00C
S31508007ED0A8F8BDE0F0B583B010F8014B0E4617467A
S31508007EE0214603F082F90546FF2D03D139490120C1
S31508007EF00870F7BD8E208DF804008DF80560002007
S31508007F0000908DF806708DF8074000232A46042154
S31508007F1001A8FFF739FD284603F0E4F8F7BD1FB5B9
S31508007F200C4692218DF80410082201460DF1050031
S31508007F30FCF7F3FB0DF10D0000F08EF800F009F8E0
S31508007F40205C8DF80F0000230020009022460C21AB
S31508007F5012E019480068704700B5174A126883B0DE
S31508007F60825C8DF8051093238DF8062000218DF884
S31508007F700430009102464EE001A8FFF705FD1FBD3B
S31508007F8010B584B0044646208DF8040001A821786F
S31508007F904170617881700DF1070000F05DF80648C0
S31508007FA0A1780068085C8DF809000023002000907D
S31508007FB00621A278E0E7000080F20020D6F900202A
S31508007FC088F20020ECF30020CCF2002018F4002000
S31508007FD084F2002078FF0020CBFF0020BBFF0020A2
S31508007FE0CCFF0020F8F20020D0FF0020F4F2002099
S31508007FF01CF400201CFC0020F8FB00201FF40020C5
S315080080001AF4002080B598208DF800008DF801102C
S3150800801000A802211DE00023032101A8FFF7B4FCF4
S3150800802007BD8DF800108DF8010002217047000089
S3150800803002490968497B022902D070479CF9002049
S3150800804080B50D218DF800100146FFF722FF0321A8
S3150800805000A8FFF791FC01BD10B504460CF05CFAC8
S31508008060601CBDE810400CF059BA30B58FB0054613
S315080080700C463B22002100A8FCF792FBB6208DF89F
S3150800808000000DF10101284600F071F800A8DCB1E6
S31508008090002180F82910082221460DF12A00FCF754
S315080080A03CFB0DF12905207A68720DF133006189D0
S315080080B005F0C9FDA1890DF1350005F0C4FDA07BC9
S315080080C0A873E07BE87302E0012180F829100DF11E
S315080080D03900FFF7C1FF3B21FFF7F5FE0FB030BDB2
S315080080E080B5B721FFF79DFFB2E710B586B0044605
S315080080F0B8208DF800000DF10100218805F0A3FDD8
S31508008100618800F022F8A1880DF1050005F09BFDB5
S31508008110E1880DF1070005F096FD21890DF10900AA
S3150800812005F091FD61890DF10B0005F08CFDA18923
S315080081300DF10D0005F087FD0DF10F00FFF78CFF1F
S315080081401121FFF7C0FE06B010BD0DF1030005F0C2
S315080081507ABD00B58BB0BB218DF800100DF1010179
S3150800816000F005F82921FFF7AEFE0BB000BDF8B503
S3150800817004460D46A0782870681C218805F063FD22
S315080081800822211DE81CFCF7C8FAE078E87204F119
S315080081901007207B287305F10E06607B687331464D
S315080081A03A68012005F053FD7A68311D012005F073
S315080081B04EFD398906F1080005F045FD082204F14F
S315080081C01C0105F11800FCF7A8FAA18C05F120009E
S315080081D005F039FDE18C05F1220005F034FD94F82F
S315080081E0280085F8240094F8290085F8250094F8D5
S315080081F02A0085F8260094F82B0085F82700F1BD9B
S3150800820038B504460D46092200212846FCF7C8FA67
S315080082102188284605F017FDA11CA81CBDE8384092
S315080082200722FCF77ABA38B504460D461A22002109
S315080082302846FCF7B5FA207828700F22611C681CBE
S31508008240FCF76BFA2078C0F3410204F1100105F13E
S315080082501000FCF762FA2078C0F3021204F1130149
S3150800826005F11300BDE83840FCF757BA2DE9F0438D
S315080082708FB00646DB208DF808000F4690469946D3
S31508008280082231460DF10900FCF747FA8DF81170FE
S315080082900DF112014046FFF7B3FF0DF11B014846E9
S315080082A0FFF7C1FF169D179C8DF835508DF836409F
S315080082B000F009F8019400954B4642463946304687
S315080082C00DF0E9FBB0E02F2102A8FFF755BB2DE919
S315080082D0F14F92B0DC208DF8140005AE9DF84800E9
S315080082E070700DF115058A469046994685F801A0E5
S315080082F000F02FF8082249460DF11900FCF70DFA8F
S315080083001C9C2C730DF122011D9F3846FFF778FF40
S31508008310DDF878B00DF12B015846FFF784FF1F9D55
S3150800832086F831503321209E8DF8466005A8FFF760
S3150800833023FB04960395CDF808B0019700944B46A5
S315080083409DF84800424651460DF0DAFC13B0BDE8E8
S31508008350F08F41460DF1170005F075BC2DE9F04781
S3150800836090B08146E1208DF80C000DF10D040E4603
S31508008370924698468DF80D906670082251460DF182
S315080083800F00FCF7CAF984F80A8006A9189D284642
S31508008390FFF736FF199F0DF121013846FFF743FF16
S315080083A01A9C8DF83B40302103A8FFF7E5FA0294A2
S315080083B00197009543465246314648460DF023FD3F
S315080083C010B0BDE8F0872DE9F0438FB005460E469C
S315080083D0914698462F22FF2102A8FCF7E1F9DE20F4
S315080083E08DF808008DF80950169F179C95B9082234
S315080083F031460DF10A00FCF790F98DF812900DF14F
S3150800840013014046FFF7FCFE07A93846FFF70BFFA6
S315080084108DF83640FFF757FF0194009743464A46C2
S31508008420314628460DF0E9FC0FB0BDE8F08310B5DB
S3150800843082B00446DA2000F06EF820460DF0DCFC27
S3150800844013BD10B59EB01C46FFF7B4FBD5238DF8B7
S3150800845000301146FFF779FE8DF805400DF107004B
S31508008460209C21998DF806402246FCF756F9E11D15
S315080084701FE010B59EB0D6248DF802108DF80100C5
S315080084808DF800408DF803208DF804300DF10500B5
S31508008490209905F0D8FB2198229C23998DF807008E
S315080084A08DF8084022460DF10900FCF736F904F16B
S315080084B00901C9B2FFF707FD1EB010BDF0B50446A5
S315080084C0E0208BB0002C0D4618BFC12C16461F465F
S315080084D0FFF7F4FC8DF8025008D10DF10301304680
S315080084E0FFF78EFE03A93846FFF79DFE2621FFF704
S315080084F0EAFC3B463246294620460DF015FD0BB0F0
S31508008500F0BD10B582B00446E32000F004F820461A
S315080085100DF00BFD13BD8DF800008DF8014002210A
S3150800852000A8FFF729BA10B582B00446E420FFF781
S31508008530F2FF20460DF0FAFC13BD00007374616368
S315080085406B2D63616C6C6261636B732E6300000054
S315080085502DE9F041494F4A4A32F810600D4637F87E
S3150800856010108E429B41DB43DB0F4FF6FF74A64289
S315080085701CBF761C22F81060032818BF0528804601
S3150800858007D114893F892E19BE42ACBF17811681BF
S3150800859018E00928BE8A18BF0B2805D1978AEC1956
S315080085A0B4420EDAEE190CE01D280BD1548F7F8FDA
S315080085B02C44BC4205DA32F81070EE1922F8106025
S315080085C000E0968232F81000884203D313B9404679
S315080085D0FFF77BFC29464046BDE8F04115E080B52B
S315080085E0422200212648FCF7DBF82648BDE8084069
S315080085F044220021FCF7D4B84222FF211F48FCF789
S31508008600CFB81E4A22F810107047F8B504460D4632
S3150800861000260FF28400315CA14204D0761CF6B223
S31508008620112EF8DBF1BDFF2E27D0FCF7D3FD074648
S3150800863015480078874204DB9C210FF25000FDF7AD
S3150800864033FA1048222101FB07004FF6FF7230F873
S31508008650161091421CBF491C20F81610032C18BF8F
S31508008660052C03D1018969180181F1BD092C18BFB0
S315080086700B2C02D1818A69188182F1BDFCFA00208F
S31508008680B8FA002040FB0020CCF20020636F756E1C
S31508008690746572732E630000000102030405060761
S315080086A008090A0B151618191A000000F8B5044629
S315080086B0DFF8FC030078002802BFDFF8F863F068EB
S315080086C000280D4625D1DFF8F00300780A2818BFE0
S315080086D0022D1ED1FCF7CCF9B278082A074616DA1D
S315080086E0012D02D19019047104E0311D701DFCF7AB
S315080086F014F83471B078401CB0703846FCF7BEF9EF
S31508008700204602F0E1FCFEF743FA0120F2BDFCF731
S31508008710B5F90020F2BD80B5FCF7FEFEDFF894033C
S31508008720C17829B90121C170BDE80140FEF730BA08
S3150800873001BDDFF880130020C870704770B5DFF8F8
S3150800874070030078002839D1FCF792F9DFF8644302
S31508008750DFF868530646A07860B121792970421E71
S31508008760A270611DD2B2201DFBF7D7FF3046FCF779
S3150800877085F921E03046FCF781F9E068F0B9E07840
S31508008780022802D00DF0D4FC28702878FF2810D1D2
S31508008790E07870B1FCF7DBFEFCF77DFC0DF0A7FE78
S315080087A0FF28287003D0FCF7ECFE00B9E070FCF750
S315080087B0A2FC2878FF2801D0012070BD002070BDDA
S315080087C02DE9F04104460D4603F0D7FBB94E0020CB
S315080087D0F070FCF74DF98046F06820B14046FCF78A
S315080087E04DF9002013E0B6480078052808BFFEF7C3
S315080087F0DAFA00F00EF8070008BFF4604046FCF706
S315080088003DF91FB105B1A047012000E00220BDE8EF
S31508008810F08110B5FCF72CF9A649A94B8A781B7884
S31508008820C9781A43114305D1A64909784C1EA441B3
S31508008830E40F00E00024FCF721F9204610BD10B52E
S315080088409F499C4C00200870FF209C490870002016
S31508008850E060FDF729FA207000209A4908709A49C5
S3150800886008704FF4A0519948FEF7DBFBBDE81040AD
S3150800887003F02ABA38B502460021082002F084FB24
S315080088800446FF2C01D1012032BD0121FFF70EFF5E
S315080088900546204602F026FC681E8041C00F32BD00
S315080088A02DE9F843854E8A4D81463078FF2808D150
S315080088B02878FE2805D04FF4B3710FF22420FDF76F
S315080088C0F3F828787B4FDFF8FC817D4C811F01295E
S315080088D00DD805212170494605F03CF908B900F084
S315080088E014F8307802F0FEFBFF20307003E087F8BA
S315080088F0019000F00AF82878042804D0F8780128AE
S3150800890004BF0220F870BDE8F183032020704046BA
S31508008910FEF77CBB10B5694C217881420DD108461B
S3150800892002F0E0FBFCF7A4F8FF212170FE21684A5B
S315080089301170BDE81040FCF7A1B810BD38B55D4D03
S315080089406978044603F0A4FA28B969782046BDE890
S31508008950344004F085BB31BD2DE9F8430446FF2CAD
S3150800896005D140F2B7110FF27810FDF79DF80320F4
S3150800897005F03DFE574D204602F058FA00F00C006F
S315080089802870FF206870204602F050FA00F00C00AC
S3150800899008285CD028780C2859D1204602F037FAE6
S315080089A0074605F049F9064606F44C48384602F0EB
S315080089B073FAC05D68704FF6FF794FF4406006425F
S315080089C006D0F81C05F038F9484508BF48F04008B5
S315080089D006F44060B0F5006F06D1781D05F02CF955
S315080089E0484508BF48F01008697801294CF6500038
S315080089F017D0022918D0042908D0062925D0072916
S31508008A0025D0082918D07C2911D04FE0B8F5484F51
S31508008A1018BFB8F5084F49D1204603F0BFF900281A
S31508008A2011E0B8F5484F0EE0B8F54C4F0BE0B8F535
S31508008A304C4F0CD0804506E04CF64040804535D179
S31508008A401D480078052802D030E080452ED1204602
S31508008A5002F0E7F90546204602F0E8F900F00C00B6
S31508008A60082816D0A80614D54FF6DF7000EA0501C7
S31508008A70204602F0D8F9204602F0BFF905462046FE
S31508008A8002F0C5F902F008FA4119C9B2204602F007
S31508008A9074FC2146104802F0E0FD204602F014FB63
S31508008AA00E480078BDE8F243FEF79EBBBDE8F183A9
S31508008AB0B9F9002074FA002060F4002002F40020BE
S31508008AC0E8F90020ECF9002084FD0020E0F90020F8
S31508008AD0E5F30020C6FF002004F40020C9FF0020AB
S31508008AE06D61632D617262697465722E63000000A0
S31508008AF0002181F3118870472DE9F04FDFF8C8454A
S31508008B0093B0074660681090072F08BF032702D066
S31508008B10082F08BF0227DFF8B45528686A68A968CD
S31508008B20EB6840EA022040EA0140296940EA03620C
S31508008B30CDE902216868400703D5E06940F00200E4
S31508008B40E0612868400703D5E06940F00400E06169
S31508008B50DDE90223E969012088401040002118B1A7
S31508008B60E06940F00800E061012FDFF85885C8E9A0
S31508008B70001100F03782C0F05D82032F1DD004D3A8
S31508008B80042F40F05782616017E000F05CFAC007D6
S31508008B9003D5E06940F04000E06100F054FA400770
S31508008BA003D5E06940F02000E06100F04CFA800748
S31508008BB003D5E06940F01000E061FBF759FFFCF7C8
S31508008BC02AFF8DF83C000027DFF80415DFF8046556
S31508008BD0C1F580310120090B8840401EB063000AA8
S31508008BE007D1DFF8F404007818B1606C40F0200073
S31508008BF0606400F028FA0E90DFF8E004406C0D90EF
S31508008C00DFF8DC04C06C0C90DFF8D404006D0B9020
S31508008C10DFF8CC04406D0A90DFF8C404806D099033
S31508008C20306808907068079070690690706A0590B9
S31508008C30DFF8B004D0F800E0DFF8AC040068049070
S31508008C4002202060DFF8A40400688DF80000DFF831
S31508008C50A00400688DF80100DFF8980400688DF814
S31508008C600200DFF8940400688DF80300DFF88C042E
S31508008C7000688DF804004FF0FF306062DFF880046A
S31508008C800068C0040CD56868C00709D5E069C00744
S31508008C9006D5D8E9000140F48070C8E9000101272B
S31508008CA0DFF85C04006880040CD56868400609D5BE
S31508008CB0E069C00706D5D8E9000140F48040C8E954
S31508008CC000010127DFF838040068400412D5DDE901
S31508008CD00223A9690120884010400BD0E069C0072B
S31508008CE008D5D8E90023A969012707FA01F0104336
S31508008CF0C8E90003DFF808040068000415D5DDE9B3
S31508008D000223E9690120884010400ED0E069C007B7
S31508008D1002D4E069000708D5D8E90023E9690127E4
S31508008D2007FA01F01043C8E90003DFF8D403006826
S31508008D30C00309D5E069000606D598F8050040F095
S31508008D400800012788F805004FF0000C6868C0077E
S31508008D506868DDE9022348BF4FF4805C400648BFD7
S31508008D604CF4005CA96901208840104018BF4CF4F7
S31508008D70804CE969012088401040E06918BF4CF42E
S31508008D80004CC00605D4E069800602D4E0694006B6
S31508008D9001D54CF0100CE069000648BF4CF4803C45
S31508008DA00CEA0E09A520FCF72DFE0120E063E06918
S31508008DB0A16B11B1616A0142FAD0616A014200F001
S31508008DC0E9800020E06398F8050040F0400088F844
S31508008DD0050000F0A7F90720C04908600F20C04920
S31508008DE008600DF097FC1098BC4960600E980864FE
S31508008DF00D984864BA490C98C8640B9808650A988F
S31508008E00486509988865B849089830600798706079
S31508008E100698706105987062B248C0F80090049888
S31508008E2008604FF0FF30B74908600021AF48006876
S31508008E3088F80000AE48006888F80100AD48006868
S31508008E4088F80200AC48006888F80300AB48006858
S31508008E5088F80400626AE069EF691040D8E9006999
S31508008E60DDE90023564089EA0309DDE902231640B5
S31508008E700206520E02F0010256EA82260206920EF7
S31508008E8002F0010256EA82020606F60E06F001060E
S31508008E9006FA07F7FE1709EA030317431E4300F409
S31508008EA07C7024220DF070FC38433143C8E9000178
S31508008EB0FBF7DEFD00F038F9002020609DF83C0045
S31508008EC008B1FCF792FD98F8057086480068C0035B
S31508008ED004D5C7F3C00008B12020206200F0B3F81B
S31508008EE0800704D5F80702D57C490220C86000F03F
S31508008EF0AAF8400705D5C7F3400010B17749042002
S31508008F00C86000F0A0F8C00705D5C7F3800010B107
S31508008F1072490120C860D8E900237148C06C10F076
S31508008F20E00F18BF12F4807003D075494FF48050D3
S31508008F3008606B48006D10F0E00F18BF12F480400F
S31508008F4003D06F494FF4005008606548406D10F033
S31508008F50E00F08D0A96901208840104003D068496D
S31508008F604FF4804008605E48806D10F0E00F08D02E
S31508008F70E96901208840104003D061494FF4004058
S31508008F80086047F0800088F8050013B0BDE8F04F88
S31508008F90FFF7AEBD002F7FF416AFB0695249DFF870
S31508008FA068B140084000B0614FF20F0A4E48806829
S31508008FB040F00400886040F20721BBF800008842B0
S31508008FC004BFBBF80200504504D14CF23C30ABF864
S31508008FD00200012701200DF0E9FB002F01D0ABF8B4
S31508008FE002A0F8E6FCF717FD0446A520FCF70AFDE3
S31508008FF000F098F8FFF77CFD444DD5F80080286806
S3150800900040084000286000F091F8414F3E683868F3
S3150800901020F04000386000F091F83E60C5F8008006
S3150800902000F084F80CB1FCF7E0FC13B0BDE8F04F93
S3150800903000F07AB813B0BDE8F04F40F23C410FF2A9
S31508009040DC00FCF731BD2548006C704710B51F4998
S31508009050D4B20C601404240E4C60C2F307448C602E
S31508009060140E04F01E04CC6003F00F020A610023FC
S31508009070284A13600B68002B04BF4B68002B07D1E6
S315080090808B68002B04BFCB68002B01D1096919B185
S31508009090116841F001011160116841F40071116015
S315080090A0116841F080011160BDE8104024E51A49B5
S315080090B00978890141F4800242F480420023C5E719
S315080090C00000000080F400200400004008BC0040B6
S315080090D000000000044000409807080814A000405B
S315080090E014A8004000E100E008ED00E008B00040E8
S315080090F008B2004008B4004008B6004008B800406E
S3150800910000E200E080E200E00000002094ED00E0CC
S31508009110008000402000004012FD0020736C656549
S31508009120702E630072B6704762B67047BFF35F8FE2
S31508009130BFF34F8FBFF36F8F7047000000BF30BF7C
S3150800914000BF70474048018A40F6A772914202BFA5
S31508009150408A4FF47F41084203D1022801DB0120EF
S315080091607047002070472DE9F84F82468846FBF77E
S315080091707FFC364D2F680446286840084000286062
S31508009180FFF7D4FF0120DFF8BCB08BF80000FFF72B
S31508009190D9FF20B9FF210FF2B800FCF785FC2A4851
S315080091A0D0F8289041464AF48070C84706462F6092
S315080091B0FFF7BCFF2046FBF761FC00208BF8000098
S315080091C00FF294040EB1305D04E041464AF4007093
S315080091D0C847005DBDE8F28F2DE9F84F80468946FD
S315080091E04FEA420AFBF744FC184E376805463068D2
S315080091F0400840003060FFF799FFFFF7A3FF28B942
S315080092004FF4A1710FF24800FCF74EFC0E48D0F857
S3150800921024B00023524649464046D847044637609C
S31508009220FFF784FF2846FBF729FC0FF22C050CB143
S31508009230605D05E05346002249464046D847405DF2
S31508009240BDE8F28FBAFF00200000080894ED00E0A0
S31508009250666C6173682E6300000202024B4B464738
S31508009260DFF834145120086070472DE9F0410546AF
S31508009270FCF7ACFBDFF82414B0FBF1F64FF4F07002
S31508009280B0FBF6F71E2D3FB201DBE81B04D5A8B2EA
S31508009290BDE8F041FBF720BEFBF7EAFB8046FFF787
S315080092A041FFDFF8FC13DFF8FC2301204870072193
S315080092B0DFF8F40300F041F8E91B09B27143C91C51
S315080092C08908491EDFF8E453416000F0BDF8DFF86D
S315080092D0C8733C68386820F040003860FFF72EFFF6
S315080092E03C602E60FFF722FFFFF71EFF4046BDE8F1
S315080092F0F041FBF7C3BB38B50546FCF767FBDFF85B
S315080093009C13B0FBF1F44FF4F070B0FBF4F02D1A97
S315080093101E2D04DA95210FF2D430FCF7C5FBDFF8D1
S315080093208803DFF88023072100F007F805FB04F11E
S31508009330C91C8908491E416031BD01600021416090
S3150800934081604FF0007111607047DFF854230121E6
S315080093505170D0E7DFF85803006800B970472DE967
S31508009360F041DFF85053DFF8506300242C60346076
S315080093704FF4A040706041F29A084046FFF775FF27
S315080093806F68FCF72BFB000142F21071B0FBF1F09D
S3150800939000F5C870C01B00B24FF4487190FBF1F09D
S315080093A000B20828A8BF072004DA10F1080FB8BFD2
S315080093B06FF0070030604046FFF757FF0827404622
S315080093C0FFF753FF686804197F1EF8D1FCF706FB00
S315080093D0211D4001C908B0FBF1F080B27060BDE8FC
S315080093E0F081DFF8CC02006800B9704738B5DFF8BD
S315080093F0CC5201206FF00F04A8602C608020FFF784
S3150800940034FFE868FF2802D8641C102CF5DB31BD50
S3150800941070B5DFF8AC02016841F001010160012175
S315080094204160FBF725FB0446DFF8805200F00CF894
S315080094305120DFF8641208602E60FFF777FE204699
S31508009440BDE87040FBF71ABB2E6828684008400044
S315080094502860FFF76BBE002070472DE9F041944A5B
S315080094608F4D146840F2DC51012C8846954E964F74
S3150800947015DA0221B9803160B16901F003010329C7
S3150800948059D0002C03D5B16941F00201B161FFF74B
S31508009490E2FF5FEA00081AD1002C4CD549E0B888EB
S315080094A04FF6FF74A0421DD18848018802237F2207
S315080094B0381DFCF709FAB888A04204BF0220B88014
S315080094C0B069800703D4B06940F00200B06101209A
S315080094D0A870B88830600FFA88F0FFF736FF404664
S315080094E0BDE8F081B3699B07EDD5AB780BB10846AB
S315080094F0F6E7B168B36811F0010103D10F2809D264
S31508009500401C06E09B0705D53B781BB1032801DB09
S315080095102018B880B88839700228BCBF0220B880E5
S315080095203068B9888842D2D1B06900F003000328B0
S3150800953001D0FFF76DFF0020D2E72DE9F0478046FE
S315080095400024554D594EFBF793FA8146FFF7EAFD7D
S315080095504046FFF782FF08B901240AE000F05DF8EB
S31508009560D5F800A000F0BCF8C5F800A03760FFF7F2
S31508009570DDFDFFF7D9FD4846FBF780FA002CE2D05F
S31508009580BDE8F0870220D8E710B54748444C0021CB
S3150800959041608160016821F002010160002060706D
S315080095A04FF000703F490860A07838B10020A070DD
S315080095B00620FFF750FF00F02BF81CDBE0780128A7
S315080095C014D143480121016042490968C90748BFC7
S315080095D003200FD40221E170016C41F001010164FE
S315080095E004203D4908603D49086010BDE07804281C
S315080095F001D10520E07010BD80B5294840780028C3
S315080096001CBFBDE80140FFF7BFBFFCF732FF01BD35
S315080096102748006801287047244E37683068400894
S3150800962040003060FFF782BD2DE9F8431C4C2078D6
S3150800963000282DD0207900282AD1FFF7E9FF1FDA64
S3150800964040F2EF310FF2A400FCF72EFA18E0FBF710
S315080096500FFA8046FFF766FDE07805280BD0FFF77E
S31508009660DBFF0D4DD5F8009000F03AF8C5F80090EC
S315080096703760FFF75BFDFFF757FD4046FBF7FEF93E
S31508009680E0780528E3D10020A0700520FFF755FFF4
S3150800969000202070BDE8F1830080004090D00300D0
S315080096A0B5FF002004ED00E010E000E094ED00E0D6
S315080096B0E05B0208104000400C00004008400040F3
S315080096C01C40004004400040D0F30020125C020811
S315080096D018A000400C40004080E200E000E100E0F5
S315080096E0286820F040002860FFF728BD636C6F6388
S315080096F06B732E630000000070B5AE4C204602F076
S315080097000BF8D8B9204601F0BDFFFF28044615D04E
S31508009710A9490968405C851EE9B2204601F034FF74
S315080097200646E9B2204601F028FE2146304600F0FA
S31508009730F1F82046BDE8704001F0D4BC70BD034680
S315080097400A469BA10420FFE70CB480B502AA00F0E4
S3150800975036F801BC5DF80CFB00B587B000F0FAFEE0
S3150800976000210591024650210491002354210391BA
S315080097700120002102910191904900910FF24C219C
S31508009780FFF7E2FF8E488179C378827803910188D2
S315080097900291417901910179009142200FF2382115
S315080097A0FFF7D2FF07B000BD10B504462146814831
S315080097B001F053FF2046BDE8104001F085BC2DE9B5
S315080097C0F04F85B005460C469046002604F013FF78
S315080097D0F8B90DF046F8E0B1012001F01AFC82460E
S315080097E0BAF1FF0F15D0002101F00EFC294601A899
S315080097F00DF03DF805469CB900F087F830B950469B
S315080098000DF0ADF810B1042004F0F1FE504601F059
S3150800981069FC05B0BDE8F08F8DF804200125641CAD
S3150800982020780028E8D0A0F130010A2905D20A21BB
S3150800983001FB0600A0F13006F1E700F066F8002803
S31508009840E4D122780025422A01A80ED0442A1AD04B
S31508009850462A25D0572A0DD0622A3AD0662A2AD017
S315080098606C2A25D0702A26D0D6E758F8040B8DF82E
S315080098700400D3E758F8041B8DF8041002250904E0
S31508009880090E4170CBE758F8041B8DF804100A0A34
S31508009890427004250A0C8270080E8DF80700BEE790
S315080098A058F8041B504601F028FD0028B7D0ADE74C
S315080098B058F8046BB3E7012358F8041B662A08BF57
S315080098C00223F2B2504601F0FAFC002808BF00262F
S315080098D0ECE7394858F8041B00681AF80090CFB22C
S315080098E0FF2F9CD017F800B00BEB0901C9B2504600
S315080098F001F043FD002889D1CDF800B000233A468F
S315080099004946504601F078FE89E72A4601A950469D
S3150800991001F0F1BC2DE9F043122885B080460D46CA
S3150800992009D03A281DD04FF6FE71884204BF284652
S31508009930FEF773FA34E02048224F00682E5C08E0F0
S31508009940284601F05BFB2146FBF705F938682D5CD4
S31508009950203EFF2D24D0F6B2212EACBF202434465B
S31508009960EEE7FDF7A4FC8146FDF72AF80646FCF764
S31508009970A8FB0746FCF7A2FB0446FDF719F80246C2
S315080099800E480FF25C010390CDF8109023460E485E
S31508009990006840880290019600973B20FFF7D4FEA6
S315080099A02946404605B0BDE8F04304F026BE00004F
S315080099B057460000CCF3002080F20020C4F90020AE
S315080099C0E45B020888F200209CF9002042423870C5
S315080099D042424242574242004242424257420000F5
S315080099E057424257573870420000000010B50446E7
S315080099F0FBF73EF84949302008604949086049495B
S31508009A0008601020484908604FF20F01200A002814
S31508009A10464808BF240204804180BFF35F8F44484C
S31508009A2000210160416043484349086010BD43482E
S31508009A300168C90708D5424A03211170016C490813
S31508009A4049000164012101600168090703D5016C19
S31508009A5021F008010164704780B5002000F009F87C
S31508009A6030B9BDE80440FC210FF2EC00FCF71CB845
S31508009A7001BD2DE9F044334C21680D1A15F01F017C
S31508009A8005D0002852BF6D1A681A00F120052E4825
S31508009A90A5F12006A84224BF2C48864203D3EFF33B
S31508009AA00880854201D300202DE0FAF7E1FF8246BF
S31508009AB02748006810F0010718BF0CF043FE20681D
S31508009AC001468D4206D2A84224BFCD2100F80119CD
S31508009AD0F9D206E02038002201E000F8012B88427E
S31508009AE0FBD3256030460CF032FEE22001E006F892
S31508009AF0010BAE42FBD30FB10CF00CFE5046FAF741
S31508009B00BDFF20682038BDE8F0840E48006870471D
S31508009B100C480068203870470E48704730200040CF
S31508009B2030C8004030C0004010E00040000000206F
S31508009B301C4000400400FA050CED00E018A00040A7
S31508009B40B8FF0020B0F30020F8E80020F80D002048
S31508009B5094ED00E0000000206D6963726F2D696E58
S31508009B607465726E616C2E630000000000220CF0B2
S31508009B7087BF0000F0B5044689B00020FBF744F91A
S31508009B80264801880A237F2200A8FBF79DFEBDF818
S31508009B9002004FF6FF75A84204D1DC210FF29400AB
S31508009BA0FBF782FF0FF2A407002601E02A4616B942
S31508009BB04FF47C4203E0022E08BF4EF23F0200A893
S31508009BC000F032F8761C052EF0D3012C03D11423AD
S31508009BD07F22134802E014237F221248018803A833
S31508009BE0FBF772FE00260FF26C072A4608E02A46A3
S31508009BF0012E08BF4FF6C07202D0082E08BF0022F9
S31508009C0003A800F011F8761C0A2EF0D3012C04BF25
S31508009C100120FBF7F9F809B0F0BD0000F25B020875
S31508009C20F05B0208EE5B020830F81610F05DFCF7F0
S31508009C3052B80000616E616C6F6775652D63656C5F
S31508009C406C2D626961732E630000000000100C0D14
S31508009C500E000000010203040708090A0B0F0000A2
S31508009C6030B50FF23C11DFF824510A6883B001A819
S31508009C70002402600120287000200CF01BFF30B180
S31508009C8000200CF017FF10B12C7049203EBDDFF8FC
S31508009C900001018802237F220DF1020000F024F85A
S31508009CA002237F22002100A800F01EF8204601A901
S31508009CB0BDF8022031F81010914208BF0124401C5B
S31508009CC00228F4D3BDF8000024B1B0F57F7F07D190
S31508009CD000203EBDB0F57F7F0CBF0620042000E0C3
S31508009CE00720002129703EBD10B5FF2908DCDFF8E2
S31508009CF09C40247844B1BDE81040C9B20DF067BB5A
S31508009D00BDE81040FBF7E0BD10BD10B5FF2908DC23
S31508009D10DFF87840247864B1BDE81040C9B20DF088
S31508009D208DBB7F2A08BF00221A4C214302FB031170
S31508009D30016010BD2DE9F0410546FF2D0E46174678
S31508009D4098460FF2540012DC104C2178A1B16178C4
S31508009D5011B1C221FBF7A8FE0120607043463246C6
S31508009D603946E8B20DF06CFE0020607004E0BDE8EC
S31508009D70F041CD21FBF798BEBDE8F081034909788B
S31508009D80002918BF0DF096BF70470000A7FF0020F6
S31508009D90FA5B020800000808746F6B656E2E630094
S31508009DA0FE01FD0210B5DFF81C4510202063FAF706
S31508009DB05FFEDFF814150A6842F001020A60FAF736
S31508009DC05DFEDFF8080500F1080161602160923048
S31508009DD061688931616001212163E060A060DFF874
S31508009DE0F014E0688930E060022020634FF6FF70C7
S31508009DF0086010BDDFF8DC0445F26401C1601E216D
S31508009E00416250210162C821C1618165F021C165A5
S31508009E1045F690014166882181660621C16644F2AD
S31508009E20066101604FF6FF714160DFF8AC04007807
S31508009E3038B1DFF8A80448F2607101604FF4C151E7
S31508009E404160DFF89C04016841F0040101600020CC
S31508009E50DFF89014487070472DE9F04FDFF86C145E
S31508009E608A2283B002FB0012083200920427521C91
S31508009E7004465378127802EB0325ADB205F4406325
S31508009E80B3F5006F05F440424FF000094FF0010AA0
S31508009E9008BF082703D0B3F5406F08BF0E271AB1CD
S31508009EA06B065CBFBB1CDFB2DFF83C341B784B701B
S31508009EB040180190A806019981F8029064D5DFF848
S31508009EC02C64706E00065FD500983818B2F5404FBE
S31508009ED04FF4806B4FF4006807D101F042FF5FEA48
S31508009EE0000947D007F1080019E0B2F5004F41D143
S31508009EF000994078795C01EB002080B20DF0A4FF50
S31508009F00FF2808BFCA4609D0DFF8E413096831F804
S31508009F1010004FF4FE6108422CD0D146B81CC0B2DE
S31508009F20410805F00702032A24D1002C14BF7268E1
S31508009F3032688A421ED3002C14BF726832684B1CE2
S31508009F409A42F8D30099405C042813D1BAF1000F5D
S31508009F5002D0B9F1000F0DD0F06DC00606D400F09E
S31508009F6015F803D0706C40F0010070640120019967
S31508009F70887009E0F06DC00606D500F007F803D032
S31508009F80706C400840007064BDE8F78FB06C04B18F
S31508009F90C34610EA0B0F70472DE9F04E0446CB4E28
S31508009FA0DFF848538A2000FB046000F1080B002CF8
S31508009FB00CBF28686868C1B2052903DA7068401CB6
S31508009FC0706055E040005FFA80F909EB0B00A0F1DC
S31508009FD008073878797801EB00201FFA80FA70783C
S31508009FE03870FBF717F97870C24FF86B20F4805079
S31508009FF0F863686E14B93868400504D4012C1FD17B
S3150800A000386800051CD5BC48017889B10021017063
S3150800A0101AF4E45FB948016802D00022402005E03E
S3150800A0209BF80100000900F001028F2000F0F3FD03
S3150800A030002C0CBF4FF480604FF40060386012E0CB
S3150800A0401AF4E45F0FD1FCF7C3FC10B15FEA4A408B
S3150800A05009D59BF80000802805DAA01949468278B8
S3150800A06058460DF011FF002C0CBF01200220286174
S3150800A070BDE8F08E2DE9F047954CA04E2068216C7E
S3150800A0809A4FDFF87C82DFF87092DFF840A201EA87
S3150800A090000519E038B14878C00604D431680022B2
S3150800A0A08F2000F0B8FD280605D500F00DFE8020AB
S3150800A0B025F080052060E80506D500F005FE4FF47A
S3150800A0C0807025F480752060002D5CD0280706D5A1
S3150800A0D00020FFF7C1FE082025F008052060E806E5
S3150800A0E006D50120FFF7B8FE102025F010052060E0
S3150800A0F005F06000602803D1B86CC0050AD401E0F9
S3150800A100A80605D52020206025F02005002006E0B9
S3150800A110680606D54020206025F040050120FFF797
S3150800A1203BFFE80404D54FF4805025F480552060A1
S3150800A130E807B8D5012020606D089AF800006D0080
S3150800A1400028B0D0FCF7BDFB0128ACD199F8000077
S3150800A1500028A8D098F800000428A4D1F868400878
S3150800A16000F001008A2101FB00A10831002814BF74
S3150800A1707A683A6812B92268D204F7D5002814BF5B
S3150800A1807868386886E700202060BDE8F0875D4873
S3150800A19000687047F0B504460D4689B000210320D3
S3150800A1A0FBF704FB04AE1BE00027FBF71AFB26F8B7
S3150800A1B01700FBF716FB00A921F817007F1C082FCC
S3150800A1C0F3DB04A80DF0FAFF00202080218836F87A
S3150800A1D010205140401C08282180F7DB6D1EA41C66
S3150800A1E0EDB2002DE0D1FBF738FB012009B0F0BD38
S3150800A1F003210220FBF7DABA4FF6FF71081A292164
S3150800A20090FBF1F03A3040B2704738B5FBF7E9FAFF
S3150800A210FFF7F2FF3C4D04462878B0B90321032026
S3150800A220FBF7C4FA3948018802237F2200A8FBF706
S3150800A2304BFBFBF7D6FABDF80010401880B2FFF7C3
S3150800A240DBFF1538687001202870FBF706FB687875
S3150800A250201A40B232BD80B503210220FBF7A6FAC8
S3150800A260BDE80140D1E770B529480078002490B9C7
S3150800A270FFF7F1FF1B4E0546707848B13078401B52
S3150800A28040B20DF0ACFF0B2805DB3570012402E067
S3150800A290012035707070204670BD80B540B11D49EB
S3150800A2A0002008600848016821F08001016001BDAE
S3150800A2B0FCF70EFCFCF7E4FBFCF74DFBBDE802409F
S3150800A2C0FCF731BB002000408420004058F80020ED
S3150800A2D000A000404C1000409EF30020D010004023
S3150800A2E080200040B3FF00209DF30020202000407E
S3150800A2F09CF2002004A00040B8F90020C0F9002014
S3150800A300E5F3002038200040B1FF0020F85B020882
S3150800A310E6F300205410004010B50D48018884B0BB
S3150800A3200A237F2200A8FBF7CFFABDF800004FF6F4
S3150800A330FF74A04204D14E210FF21800FBF7B4FBBC
S3150800A340BDF8001022460020FBF7C5FC1FBD000023
S3150800A350F25B0208616E616C6F6775652D66696CE4
S3150800A3607465722E63000000F8B50120FFF775F8D2
S3150800A3700020FAF749FDDFF81043206840F008008E
S3150800A3802060FBF732FBFAF72FFDDFF80003DFF852
S3150800A39000630178F1604278DFF8F812CA608378C2
S3150800A3A0DFF8F422D360C578DFF8F032DD6007798C
S3150800A3B0DFF8EC52EF60078A3760478A7760868A4B
S3150800A3C00E60C68A4E60018B1160418B5160818B8D
S3150800A3D01960C18B5960008C286000F055F8206818
S3150800A3E020F0100020600DF032FFFAF785FCFFF729
S3150800A3F0C9F8FBF7F8FABDE8F140FBF714BB40F2E1
S3150800A4000160FFF7F3BAF0B50B68A04C0F25A46BF3
S3150800A410960005FA06F6344215D0002606EB8207A2
S3150800A42024FA07F7FF070BD5B70005FA07FC23EA56
S3150800A4300C0330F812C005FA07F707EA0C073B4386
S3150800A440761C042EEADB0B60F0BDF0B50B688F4C6A
S3150800A450FF25A46BD600B5402C4213D00025012653
S3150800A46005EBC20724FA07F7FF0708D506FA05F72A
S3150800A470BB43175C06FA05FC0CEA07073B436D1C51
S3150800A480082DEDDB0B60F0BD10B5804CA06B0028E5
S3150800A49022D00022844900F020F80122834900F0E6
S3150800A4A01CF80222824900F018F80022784900F0C8
S3150800A4B017F801227B4900F013F80222754900F0CB
S3150800A4C00FF803227B4900F00BF80422724900F0CA
S3150800A4D007F804F1240035E010BD04F10800B4E7DC
S3150800A4E004F124008FE710B5684CA06B002825D02E
S3150800A4F000226D492046FFF7A8FF01226B49204636
S3150800A500FFF7A3FF02226A492046FFF79EFF0022B3
S3150800A5105F4900F014F80122624900F010F802229F
S3150800A5205C4900F00CF80322624900F008F804229E
S3150800A530594900F004F804F1100003E010BD04F1D5
S3150800A540100060E7BDE8104005225B495BE7032081
S3150800A550FFF714BC10B50DF0E8FE04460DF0E9FE51
S3150800A560C0B208B9012C07D1072C11D8DFE804F0CE
S3150800A57004100608080A0C0E002010BD092010BD9C
S3150800A580022010BD032010BD0B2010BD062010BDF3
S3150800A59044F0800010BD49480078704747488078E5
S3150800A5A0704748484FF40041C1600821016043499B
S3150800A5B0887850B1424800680B78800900F001009D
S3150800A5C083421CBF0870FFF768BE70472DE9F0414B
S3150800A5D03A4D3C4F0446AC700020B8654FF400482D
S3150800A5E03948C0F8008008203860C7F80C80FAF7A8
S3150800A5F03FFA002C2B4E2549326822F4706214D09B
S3150800A60042F400623260B26822F04002B260082268
S3150800A61000F066F802F0BF020A70082200F05AF845
S3150800A62002F0BF020A72012113E042F4807232601E
S3150800A630B26842F04002B260012200F051F842F0DE
S3150800A64040020A70012200F045F842F040020A7200
S3150800A65000216970FAF712FA4CB11C490620086005
S3150800A6606020B8657068800900F0010001E00020EC
S3150800A670B86528702878FFF710FE14B11448C0F89A
S3150800A6800080BDE8F081000000BC004060F30020B7
S3150800A69000B0004000B2004000B4004000B60040E0
S3150800A6A000B8004004B000400CB000400CB20040B6
S3150800A6B00CB4004004B2004004B4004011FD002070
S3150800A6C008B0004014A8004080E100E024BC004027
S3150800A6D000E100E0CB8C62F30B230A7ACB84704747
S3150800A6E04B8A62F30B230A784B8270472A490A6819
S3150800A6F0920992010A600A68104308604FF4004103
S3150800A70026480160002101606420FAF7E5BB2DE9BF
S3150800A710F047234D204FD5F80090224C80462868F4
S3150800A72040F400402860386820F48050386020786B
S3150800A73068B162781C48A17800EB820200EB8800B9
S3150800A74012F82A2C10F82A0C891A461802E0012059
S3150800A75020262070B0B2FFF7C9FF0FF2500A02E0B8
S3150800A760B0B2FFF7C3FF386B042805D0386B400733
S3150800A77054BF761E761CF3E7F86A38B184F8018070
S3150800A780A6701FFA89F02860BDE8F08740F221110B
S3150800A7905046FBF789F9E6E7D0100040181000404C
S3150800A7A01C100040BCFF002004620008616E616C4A
S3150800A7B06F6775652D76636F2E63000081014FF410
S3150800A7C0FE5289B20C20FBF786BA2DE9F84F8F4C5A
S3150800A7D0A56820680127ADB200264FF00A08B946D9
S3150800A7E01FFA80FAFBF739F8B0202063DFF820B2A9
S3150800A7F008E016F1190FB8BF4FF00A08464436B2FA
S3150800A8007019A060DBF80000000702D559EA0700B6
S3150800A81028D00120FAF760FBB9F1000F11D0AAF190
S3150800A8200300874202DAF81C87B213E00AF50040F3
S3150800A8302060574606210920FAF7B8FF4FF00009AD
S3150800A8400BE0DBF80000000707D5042FA6BFF81EAB
S3150800A85087B2002707F5004020601A2EC9DB6FF083
S3150800A8600908CBE7A560C4F800A00820CBF80000CB
S3150800A8706848006880B2BDE8F28F80B5624B6649C9
S3150800A8801B784FF0FF326BB1002819BF4A60634846
S3150800A890486041F211100860614841880088BDE8A7
S3150800A8A0044092E7002819BF4A600A6048600860B9
S3150800A8B0FAF7D3FFBDE8044006210920FAF7C7BF17
S3150800A8C038B50120FFF7D9FF04460020FFF7D5FF6A
S3150800A8D005460120FFF7D1FF4042001B00EB45006B
S3150800A8E000B232BD2DE9FE4F4E4CDFF83C81A06A1E
S3150800A8F0454EADF802002568D8F800B0307860B14A
S3150800A9004FF6FF7200210820FBF7DEF9ADF80000CC
S3150800A910C022C0210820FBF7DEF94448DFF8109171
S3150800A920007818B148F26070C9F80000708840F4E1
S3150800A930404040F04C00C9F83C000220A0620120CB
S3150800A940206040F24C40FAF7C7FA0120C8F80C001C
S3150800A950C8F800000020324F3880402078803078D0
S3150800A96000B12020FFF72AFFFFF7AAFF8246402002
S3150800A97038807F207880FFF721FFFFF7A1FF02903C
S3150800A98050460DF02CFCFE2101FB00F70298AAEBBD
S3150800A99000000190307860B102980DF020FC8246E4
S3150800A9A001980DF01CFC80B207EB8A11B1FBF0F0A0
S3150800A9B005E001980DF013FC80B2B7FBF0F080B209
S3150800A9C0401CC7031FFA8BF0C8F80000ADB2002080
S3150800A9D0C8F80C00022020602560BDF80200A062BD
S3150800A9E00020C9F83C00307830B1BDF800104FF6A9
S3150800A9F0FF720820FBF76FF940F24C40FAF76CFA41
S3150800AA00380CBDE8FE8F0000DAF30020C0100040C5
S3150800AA1018A000400070004038100040EEEEFFFF1E
S3150800AA2074FF002060200040281000409EF300209C
S3150800AA30D010004041003F2289B201E001463F2282
S3150800AA400220FBF748B92DE9F04F564C564D95B004
S3150800AA50E06CADF810004FF6FF782068ADF80E00F0
S3150800AA604246E86AADF80C0000210120FBF72CF9F4
S3150800AA70ADF80A00424600210B20FBF725F9ADF890
S3150800AA8008004FF40040206000202861686148F201
S3150800AA90020000F08BF84CF68C30E0644FF48052DC
S3150800AAA048F2F000E86211460120FBF714F9424625
S3150800AAB000210B20FBF70FF906210620FAF7C7FE3F
S3150800AAC0019000F085F800904CF69C30E064002078
S3150800AAD0FFF7B0FF06210846FAF768FE00260DF1D3
S3150800AAE0140BB0B2FFF7A6FF06210620FAF75EFEA2
S3150800AAF0FAF777FE2BF81600761C202EF1DBFAF70C
S3150800AB0070FE1020FFF796FF00F062F80099019A90
S3150800AB10401ABBF82010891A404301FB01094FF07F
S3150800AB20100A112700F04EF800F052F800F043F82A
S3150800AB3006DB81461FFA87FA781C07B2202FF1DB5D
S3150800AB40BAF1100F0ED10F2700F03CF800F040F8CC
S3150800AB5000F031F806DB81461FFA87FA781E07B23D
S3150800AB60002FF1D5BDF81000E0644246BDF80E008E
S3150800AB702060BDF80C00E8620120BDF80A10FBF75A
S3150800AB80AAF8BDF8081042460B20FBF7A4F80120E6
S3150800AB902861002000F00AF84FEA4A00C0B215B052
S3150800ABA0BDE8F08FC010004018100040286040F241
S3150800ABB04C40FAF791B90099401A404306FB060043
S3150800ABC0484570473BF817000199461AB8B231E76D
S3150800ABD006210720FAF73BBEEFF311806028804173
S3150800ABE0C043C00F7047000038B504460D46012023
S3150800ABF00DF0DCFB5D48002D12BF00210178491CD1
S3150800AC0001705B4844705B48FBF78AFBBDE832403D
S3150800AC1000200DF0CBBB10B5002814463FD04028C5
S3150800AC2023D0882818BF892840D08D282FD08F2870
S3150800AC3046D15148007804280DD144B14F49022025
S3150800AC40087040F60620BDE8104002F0C7BFFBF7C3
S3150800AC5026FE312030E0012003F0C9FCFBF71FFE79
S3150800AC60002C0CBF3120002026E0404844490078DB
S3150800AC700978884204D2BDE8104000210120B3E7D4
S3150800AC80002003F0B4FCFBF70AFE402014E0002085
S3150800AC9003F0ADFC00212020FAF7F7FB0BE00120BA
S3150800ACA003F0A5FCFBF7FBFD002005E0002003F000
S3150800ACB09EFCFBF7F4FD8D20BDE81040FDF7F0BDC6
S3150800ACC0BDE81040C9213CE02C480078022800D095
S3150800ACD0704780B52B480078042807D00C280ED179
S3150800ACE029480078022818BF7C2808D102F091FF6D
S3150800ACF0FBF7D5FDBDE802400020FDF7D1BD01BD3B
S3150800AD0038B50024F9F7B4FE05461C48007810B992
S3150800AD10FFF7A9FA04462846F9F7B0FE002C1CBF2F
S3150800AD20BDE831400DF04FBB31BD80B5FFF7E8FFF8
S3150800AD30BDE804404FF4A0511448FCF772B940F23C
S3150800AD4005110FF25000FAF7AFBE38B5104C20685F
S3150800AD50216C01EA0005ADB2680705D5206C20F024
S3150800AD6004002064FBF7FCFF256031BDC3FF00200B
S3150800AD7010F40020F4F90020E5F30020E8F900209B
S3150800AD8000F40020C6FF0020C7FF0020E0F90020DD
S3150800AD9008A000406D61632D656D3235302E630065
S3150800ADA003480188034808237F22FAF78DBD00BFB0
S3150800ADB01A5C0208C4F9002010B50C4600F01EF90A
S3150800ADC02018BDE8104002F037BF38B50C461546C6
S3150800ADD000F014F929462018BDE8344002F033BFC4
S3150800ADE038B50C46154600F009F9255431BD10B59D
S3150800ADF00C4600F003F9205C10BD80B500F016F88B
S3150800AE0000F076F801D1082002BD062002BD38B54B
S3150800AE10044600F0F3F805462046FFF7EEFF401912
S3150800AE2032BD0121C8E70A460121CEE780B500F008
S3150800AE30E5F8407802BD80B5FFF7F3FF800B02BD49
S3150800AE4080B500F0DBF8417841F01001417001BD92
S3150800AE5010B50446FFF7EAFF00F04AF804D05E2171
S3150800AE600FF27810FAF720FE2046BDE810400621BA
S3150800AE70A2E738B504460D46FFF7D8FF00F038F8C4
S3150800AE8004D064210FF25410FAF70EFE2A46204623
S3150800AE90BDE83840062198E780B502F0CDFE0146A8
S3150800AEA08A0A42EAA2030FF2441003F00F03185C61
S3150800AEB04B0700D408B9FF2002BD490605D412F095
S3150800AEC003011CBF12F03001801CC0B202BD10B5D0
S3150800AED00446FFF7ABFF00F00BF802D14FF4006011
S3150800AEE010BD06212046FFF767FF00F4406010BD3D
S3150800AEF000F00C000428704738B5044600F07EF8C8
S3150800AF0005462046FFF792FFFFF7F2FF0CBF062023
S3150800AF100B20401932BD80B5FFF7EEFF30E010B5C3
S3150800AF200446FFF783FFFFF7E3FF02D14FF4004023
S3150800AF3010BD06212046FFF73FFF00F4404010BD34
S3150800AF4070B5044600F05AF805462046FFF76EFF2E
S3150800AF50FFF7CEFF01D1A81D70BDA81DFFF79CFF06
S3150800AF6006462046FFF7DBFFB0F5004F0CBF022070
S3150800AF7008207119081A801D70BD80B5FFF7E0FF1B
S3150800AF80BDE8024002F058BEF8B504460D4616461E
S3150800AF90012000F03EF80746FF2F1ED0FAF7CEF83C
S3150800AFA0A104890C41EA803189B23846FFF73BFF94
S3150800AFB03846FFF722FF0146384600F025F83146A5
S3150800AFC0384600F0D2F842F20C002040042803D19B
S3150800AFD029463846FFF74DFF3846F2BD7061636B68
S3150800AFE065742D6865616465722E63000300070D3C
S3150800AFF0000000000700090F0D000F15DFF8F8160E
S3150800B000096801EB40107047DFF8F0261268815492
S3150800B01070472DE9F041040035D0F9F729FDDFF82E
S3150800B020E016DFF8E0360E78FF228046FE2EDFF8BF
S3150800B030D8061BD100260E70DFF8D0C6DFF8D0661A
S3150800B04037781F70002708E007F1010E07F805E0BA
S3150800B050DCF800507A555FFA8EF796F800E0056836
S3150800B0607745F1DB0EEB050606F8012C1E78A6429D
S3150800B0700BD24046F9F702FD052003F0B8FA002185
S3150800B0801B20FAF702FAFF201CE0361B1E70DFF8B9
S3150800B09084360E780F78D3F800E0012507F80E50AD
S3150800B0A0641E056817F805E081F800E0E4B2002C94
S3150800B0B0F0D17A5500213046FFF7A6FF4046F9F74A
S3150800B0C0DDFC3046BDE8F08110B50446F9F7D0FC42
S3150800B0D0DFF840160968625C521C6254BDE81040ED
S3150800B0E0F9F7CCBC2DE9F041054600F031F80446E5
S3150800B0F0F9F7BEFCDFF80826DFF80836DFF8086639
S3150800B100DFF81086FF2D1FD0D8F800106F5C7F1E61
S3150800B1106F547F27D8F800E015F80E10394213D17E
S3150800B1203168695C002705F80E701F787F1C1F7050
S3150800B130FF29376892F800E005F807E0157006BFA2
S3150800B1402546FF240D46DDE7BDE8F041F9F796BC34
S3150800B15080B5DFF8C0150968415C090603D5FFF715
S3150800B1604DFF007802BDFF2002BDB0B504460D466E
S3150800B170FFF7EEFFFF2818BFFFF7B4FFFF2DDFF834
S3150800B180947504D13868215C01F07F0106E02846F1
S3150800B190FFF79AFF3868215C41F080012154204668
S3150800B1A0FFF72CFF0570B0BD0EB478B50446012034
S3150800B1B0FFF72FFF0546FFF721FF0646FF2D08BFBD
S3150800B1C0FF200FD0E1B22846FFF71EFF05A8002191
S3150800B1D004E050F8042B06F8012B491CC9B2A14219
S3150800B1E0F7D3284672BC5DF810FB70B504460D46C9
S3150800B1F005F11F000004400D82B0C0B2FFF709FF39
S3150800B2000646FF2E0CD02946FFF7FEFE3CB101206C
S3150800B21000902B4600223146204600F002F83046C0
S3150800B22076BD73B500F0BBF8085C15461E46711965
S3150800B230884203DA4FF4B07100F0DAF866B12946AD
S3150800B24001A800F0D9F8024606989DF80410009067
S3150800B2503346204600F001F873BD2DE9F843089CF3
S3150800B260DFF8A4840546894616461F460BE04A5D64
S3150800B2700A54491CB142FADBD8F80000BF1B7519FD
S3150800B28019F800900026FFB2BFB14846FFF7B6FE90
S3150800B2903018F1192029B2BF3E46C6F12006F6B28B
S3150800B2A0324624B901462846F9F737FAE4E7012C6D
S3150800B2B008BF2946F8D00021DCE7BDE8F1832DE96F
S3150800B2C0F04100F06CF882B01600255C88461F46EF
S3150800B2D00ED07119C9B2204600F04FF808B11820EF
S3150800B2E007E0009733462A4621464046FFF799FF6E
S3150800B2F00020BDE8F6810123E1E70A4600E0521C7A
S3150800B3001378002BFBD1521A0223D2B2D7E7F8B52D
S3150800B310044601F11F00C50402F11F00C0042D0EEA
S3150800B320000E05B9012500B90120854223D08542C2
S3150800B330DFF8D46310DA401BC0B2FFF76AFE07468F
S3150800B340FF2F01D10020F2BD691EC9B2204600F0C8
S3150800B3502BF8316847540EE08A420CD2411EC9B216
S3150800B360204600F021F804463068205CFFF7BAFE54
S3150800B3703168FF2060540120F2BD38B500F00FF89F
S3150800B3800D46215C2A462046FFF7C1FF28B129460B
S3150800B3902046FFF739FE002032BD182032BD04468C
S3150800B3A0DFF858030068704704E0DFF85C2312688A
S3150800B3B0805C491EC9B20029F7D1704711B581B022
S3150800B3C0DFF8380300680C469DF80410085C8442D0
S3150800B3D003D34FF4F47100F00BF8214601A800F0EE
S3150800B3E00BF804469DF80400FFF708FE201816BD62
S3150800B3F00FF23430FAF758BB38B504460D46E9045F
S3150800B4002078090EFFF7D0FF207005F01F0032BD27
S3150800B41080B5FFF7D3FF007802BD10B51446FFF7D5
S3150800B420CDFF047010BDB0B5FFF7B9FF82B0255C3B
S3150800B430FF2C03D14FF40271FFF7DAFF05F11F0065
S3150800B4400004400DC0B2FFF7E4FD0746FF2F0AD0FF
S3150800B4502946FFF7D9FD00950023224600213846E4
S3150800B46000F0CAF83846B6BDF8B504460D46164685
S3150800B4700120FFF7CEFD0746FFF7C0FDFF2F01D1DC
S3150800B480FF20F2BD33462A462021201800F020F876
S3150800B4902118C9B23846FFF7B7FD3846F2BD10B5D0
S3150800B4A082B004AC009400F001F816BD10B514463D
S3150800B4B01A46029B091B2018BDE81040C9B207E0CE
S3150800B4C00CB480B502AAFFF7CFFF02BC5DF80CFBEF
S3150800B4D02DE9F047804616469946C24600250C4691
S3150800B4E00AE03A465046F9F718F97819BA44401E60
S3150800B4F0C5B2681CC5B2761CA5423CDA307800286D
S3150800B50039D0312818BF32280ED159F8041B0AF849
S3150800B510011B3228EDD1681CC5B2AC42A4BF081283
S3150800B5200AF8010BE5DA26E0342811D1291D59F865
S3150800B530040B8C421FDB0AF8010B010A0AF8011BEF
S3150800B540010C0AF8011B000E0AF8010BE81CCFE7EC
S3150800B550A0F1330259F8041B072A38BF303806D33E
S3150800B560A0F14102072A34BF373859F8040BC7B28D
S3150800B5707819A042B5DBAAEB0800C0B2BDE8F0878F
S3150800B5805F49FE200870704770B500F02AF800F091
S3150800B59004F800EB062080B270BD06462946204610
S3150800B5A036E700B583B002238DF80420120A8DF819
S3150800B5B005200122009219E0F8B500F012F8FFF70D
S3150800B5C0ECFF0746E91CC9B2FFF7E9FF07EB0626B9
S3150800B5D00702A91CC9B2FFF7E2FFC01906EB004033
S3150800B5E0F2BD0D46691C0446C9B211E70A46014672
S3150800B5F001A8FFF716FE07BD2DE9F541089C1F4671
S3150800B6004CB3254689B200A8FFF7F6FE0646B9B23E
S3150800B61001A8FFF7F1FE07463046B84238BF38465C
S3150800B620C0F12000C0B2A842B8BF05469DF8040084
S3150800B630FFF7E4FC80469DF80000FFF7DFFCAAB29E
S3150800B64007EB08013018F9F768F8641BA919EF1910
S3150800B650A4B2002CD5D1BDE8F38170B504460D46D9
S3150800B660F9F706FA294B21781B68FF2908BFED541C
S3150800B67003D0C9180E78EE540D702570BDE87040D9
S3150800B680F9F7FCB938B50446F9F7F2F92178FF223B
S3150800B690FF2908BFFF2507D01C4B1B68CD5C8D42D0
S3150800B6A00EBF2270EA5CCA54F9F7E8F9284632BD9B
S3150800B6B0F8B504460D460026F9F7DAF92178FF2988
S3150800B6C015D0124B1B680A46012602E0761C3A463C
S3150800B6D0F6B2D75CAF4208D1FF5CD754A94206D16F
S3150800B6E08A4208BFFF22227001E08F42EED1F9F7A5
S3150800B6F0C5F93046F2BD00007CF2002080F2002039
S3150800B7009CF3002079F2002088F200208CF20020B9
S3150800B71078F2002084F200200078FF2801D1012069
S3150800B72070470020704700007061636B65742D6276
S3150800B73075666665722E63002DE9F0470546DFF8E3
S3150800B740F40400689946302303FB010CD1078AB03C
S3150800B7500CF11E0004D4817B01F00301022927D1D4
S3150800B760904608F0010EBEF1010FDFF8CC7411DA2D
S3150800B770017C01F00103012B08F0020212DB012A09
S3150800B78010DA0022002408F004010129ACBF0126C2
S3150800B79000260FE03978002201F001014C1EA44171
S3150800B7A0E40FF0E7C90701D40122EBE7012AFBDA27
S3150800B7B0FF204FE0BEF1010F4FF6FF7102DA037C5E
S3150800B7C0DB0701D40B4601E0BCF81E300AB10CF1C8
S3150800B7D01002BEF1010FB8BF41880194009602A875
S3150800B7E000F0CCF902A9461808F04004012CACBFB9
S3150800B7F00320012040F0280A08F0080001283878BC
S3150800B800A8BF4AF0040A00F001000128A4BF08F006
S3150800B8102000012809DBDFF824040078012100F064
S3150800B82048F94AEA80105FFA80FA06F801AB311D3A
S3150800B830012C01F8019B05DB129801F8010B000A9F
S3150800B84001F8010B02A8149B139A0095091AC9B2AC
S3150800B85000F0FEF90AB0BDE8F08710B58AB00124F9
S3150800B8600093019413460A46014602A800F086F999
S3150800B87002A941180E98800140F02A020C9808B1D6
S3150800B88042F0040201F8012B0D98109B0F9A0090C4
S3150800B890081D02A9411AC9B202A800F0D9F90AB0CE
S3150800B8A010BDF8B5002A05460F460CBF00AC144675
S3150800B8B0FFF7BCFA00F00C00082803D04FF4827199
S3150800B8C000F015F9DFF878030068285C000605D54E
S3150800B8D02846FFF73DFC0546002000E006202070BC
S3150800B8E028462178FFF750FE410600F440623E469E
S3150800B8F006D44FF44041084202D001233FB9F2BDB5
S3150800B9000023042EFAD12078C01C20700AE0217882
S3150800B910891C2170012E08BFC9B271D0491C022E9C
S3150800B920217001D1002A5AE00AB1891C2170032E20
S3150800B93004D100F44060B0F5006F19E000F44061EE
S3150800B940B1F5006F02D12178891C04E0B1F5406F8A
S3150800B95002D1217808312170042E41D013B1217803
S3150800B960891C2170052E05D100F44040B0F5004F22
S3150800B9705FD135E000F44041B1F5004F02D120789F
S3150800B980801C06E000F44040B0F5404F02D1207814
S3150800B9900830207021782846FFF73AFD00F00302A8
S3150800B9A0012A08BF012305D0032A02D10123012752
S3150800B9B001E000230027062E3DD02078411C072EE3
S3150800B9C021702FD0091D082E217002D17BB3C9B270
S3150800B9D016E00BB1481C2070092E06D1002F26D080
S3150800B9E021782846FFF7D0FDF2BD17B12078801CD4
S3150800B9F020700B2E1DD00A2E06D1022A17D12178C7
S3150800BA002846FFF705FDF2BD0C2E04D1022A0ED1F9
S3150800BA102078401C0CE00D2E09D18A480068285C65
S3150800BA20011F2170C9B22846FFF7C6FDF2BDFF20E7
S3150800BA3020704FF0FF30F2BDF0B50546804800682B
S3150800BA4083B0285C00060C4604D52846FFF780FB21
S3150800BA50064600E02E46284600F011F8074601AAD9
S3150800BA600B212846FFF71DFF002000903B469DF856
S3150800BA70042031462046FFF7D4FB3846FEBD38B5CC
S3150800BA8004466F480068205C000604D52046FFF788
S3150800BA905FFB054600E0254600AA0B212046FFF776
S3150800BAA000FF684800689DF80010285C401AC0B27C
S3150800BAB032BD80B50F2804D0142806D019280AD01C
S3150800BAC00FE0080012D0012002BD09B1022002BD14
S3150800BAD04FF4006002BD09B1032002BD4FF4805047
S3150800BAE002BD4FF4FD7100F002F8FF2002BD0FF20F
S3150800BAF0C010F9F7D9BF80B5012804D009D30328A7
S3150800BB0005D002D305E00F2002BD142002BD19207E
S3150800BB1002BD40F2092114E080B5FFF782F910F45E
S3150800BB20C05006D0B0F5006F05D0B0F5805F04D0E0
S3150800BB3005E00F2002BD142002BD192002BD4FF4F6
S3150800BB400671FFF7D4FFFF2002BD10B50446002298
S3150800BB500621FFF7A6FE00F0030002280AD10022FC
S3150800BB600A212046FFF79DFEC0B2062802D16FF0D3
S3150800BB700E0010BD344890F9000010BD2DE9F047BD
S3150800BB808146884616469A4602F036FF8245099C43
S3150800BB9014BF01250025002C14BF4CF2010048F201
S3150800BBA00100002E0CBF4FF400624FF440620243BE
S3150800BBB00898494608B142F020020DB942F0400201
S3150800BBC001F8012B100A01F8010B4F1C4FEA1A2045
S3150800BBD007F801AB07F8010B36B907F8018B4FEAEE
S3150800BBE0182007F8010B05E0082231463846F8F711
S3150800BBF094FD083745B102F0FFFE07F8010B02F085
S3150800BC00FBFE000A07F8010B34B108220F49384633
S3150800BC10F8F783FD083708E002F0E6FE07F8010B9F
S3150800BC2002F0E2FE000A07F8010BA7EB0900C0B212
S3150800BC30BDE8F087DCF2002008F4002009F40020B3
S3150800BC4084F2002080F20020C8FF0020C4F90020FA
S3150800BC502DE9F0410D461F460446791982B09046F3
S3150800BC60C9B20020FFF7C1FA0646FF2E1ED00120F2
S3150800BC7000902B46002231462046FFF7D2FA0120D3
S3150800BC8000903B462A4631464046FFF7CAFA0898CE
S3150800BC900021FFF70EFF3246002140F00800FFF7AB
S3150800BCA073F904463046FFF71DFA2046BDE8F681CB
S3150800BCB072663463652D7061636B65742D686561A2
S3150800BCC06465722E63000000DFF86C1500200870AA
S3150800BCD0FF21DFF86805017001717047F8B5044661
S3150800BCE0F9F7F2FC0546DFF85805DFF850750688BF
S3150800BCF02046FFF7ECF8B0F5006F16D12046FFF79F
S3150800BD000AF90CF0A1F8FF280DD000F01EFA21461A
S3150800BD10381DFFF7A2FCDFF82005017881B10089FC
S3150800BD20A9190E1A10E09320F2BDFF213846FFF735
S3150800BD30BFFC052802DA21463846EAE73920F2BD73
S3150800BD4005813146FBF76DF9B2B203212046FFF7AC
S3150800BD503CF8032200F070F82046FFF7B5F90020FA
S3150800BD60F2BDF8B50446DFF8D4040078FF2813D0EE
S3150800BD70DFF8D0542968465C37463846FFF7BCF8E2
S3150800BD80014608222046F8F712FD08B90120F2BD3F
S3150800BD9028683F5CB742F0D10020F2BDF8B50446EA
S3150800BDA0FFF73FF8000B00F001052046FFF7C8F83B
S3150800BDB006462046FFF7B3F8B0F5404F11D1002DDF
S3150800BDC036D03146002000F07BF90446FF2C2FD0F0
S3150800BDD00021FCF76BFC58B300F098F900F02AF83C
S3150800BDE026E0304601F028FF0CF02EF80446FF2C1A
S3150800BDF001D10020F2BD0120002122460AF0C4FC30
S3150800BE00DFF84424D2E9006706430F43C2E9006716
S3150800BE1075B1DFF838341B6833F814304FF4FE6414
S3150800BE20234205D0D2E9024520432943C2E902014B
S3150800BE300120F2BD40F0800205212046FEF7D0BF62
S3150800BE4038B50446FFF743F8B0F5006F0CBF012577
S3150800BE5000252046FFF750F804462146284600F0FC
S3150800BE602FF9FF2810D18DB1204601F0E5FE0BF021
S3150800BE70EBFFFF280AD0DFF8D413096831F8100061
S3150800BE804FF4FA61084201D0012032BD002032BDCC
S3150800BE902DE9F04107460C46DFF8A053FFF717F8DF
S3150800BEA0B0F5006F0CBF281D28460078FF2846D03D
S3150800BEB0DFF890130968405C0646B7423CD1F8F7AC
S3150800BEC0D7FD804605213046FEF791FF00F07F003A
S3150800BED0471EFAB205213046FEF782FF002C18BF2E
S3150800BEE0312C01D0F8B200BBF8F7C2FD0746F0B214
S3150800BEF0FEF7EDFFB0F5006FF1B205D1281DFFF78B
S3150800BF00D7FB00F007F902E02846FFF7D1FB3846D1
S3150800BF10F8F7B4FD4046F8F7B1FD2146304601F082
S3150800BF209FF83046FFF7DEF804E000F0F3F84046E5
S3150800BF30F8F7A4FD012003E0765C8642BDD1002017
S3150800BF40BDE8F08138B5F9F7BFFBBB4C21892081E4
S3150800BF50421A4FF6FF75ADF8005000A990B200F0EE
S3150800BF60FDF8BDF80000A84202D10020207031BDBE
S3150800BF7001462046FBF755F831BD00214FF6FF7004
S3150800BF80ECE02DE9F84FDFF8C092D9E90001002965
S3150800BF9008BF002800F08D8000264FF00108B24641
S3150800BFA000270024F8F764FDD9E90023844608EA47
S3150800BFB002001AEA030108BF002817D06FEA080032
S3150800BFC06FEA0A0102400B40C9E90023D9E9025B7E
S3150800BFD0012708EA05021AEA0B0308BF002A05D05A
S3150800BFE028400BEA0101C9E9020101246046F8F775
S3150800BFF045FD002F4CD09548006830F8160081079B
S3150800C00046D59349096831F816702CB100F4987131
S3150800C010102908BF012500D000258E4A1268002184
S3150800C020B154F4B180061CD5380A8DF801008DF894
S3150800C030007000A9012000F043F80446FF2C07D140
S3150800C04000F039F84FF6DF72114020F8161014E0A8
S3150800C0500021FCF72BFB80B100F058F8FFF7EAFE49
S3150800C0600BE085F00100044207D000F024F841F403
S3150800C070006120F81610FAF78BFD00953B461A2248
S3150800C0806CA1032002F0B4FA294638460CF027FAC8
S3150800C090761CF6B24FEA4A0040EAD87A402E4FEAB2
S3150800C0A0480806DAD9E90001002908BF00287FF404
S3150800C0B077AFBDE8F18F6548006830F8161070470D
S3150800C0C02DE9F04188465D4900281ABF091D022559
S3150800C0D008250878FF2816D05A4E3168475C3C4632
S3150800C0E000F014F800060AD42046FEF705FF0146BC
S3150800C0F02A464046F8F75BFB08B9204604E0306854
S3150800C100245CBC42ECD1FF20BDE8F0810521204625
S3150800C110FEF76DBE70B50021202009F086F8474865
S3150800C1200079FF2810D0474C2168455C2E463046DA
S3150800C130FEF7F1FE0BF088FEFF2801D000F005F8A7
S3150800C1402068365CAE42F2D170BD4049096831F8C4
S3150800C150102042F0200221F8102070472DE9F84FF0
S3150800C16080460FF2F400354E0068364F00908A4636
S3150800C170344600E0341DF8F77BFC814606E020468D
S3150800C180FFF780FA294600A8FFF767FA2046FFF767
S3150800C190C3FA40B9386821780D5C03212846FEF7B2
S3150800C1A00BFE8045EBD2301D844208BFFFF7B2FF75
S3150800C1B04846F8F763FC2078FF281CD0396810F841
S3150800C1C001904D4603212846FEF7F6FDA0EB080B25
S3150800C1D01FFA8BF203212846FEF7F7FDBAF800008E
S3150800C1E01FFA8BFB834588BF8346AAF800B03868D8
S3150800C1F02D5C4D45E6D1301D8442BBD100A8FFF722
S3150800C2008BFAA8B900A8FFF73DFA0446FEF713FE15
S3150800C210F8F741FFFFF77AFF000603D442212046CC
S3150800C22000F01EFF2046FEF75DFFF8F764FFE5E71E
S3150800C230BDE8F18F42574200CCF90020F0F3002008
S3150800C24010F300208CF2002088F400209CF20020D5
S3150800C25094F20020A0F20020FF00000038B5DFF8B5
S3150800C260BC1C002008700CF07CF90CF079FC0CF072
S3150800C27054FD08F083FF0CF0F1FDFBF752F900249A
S3150800C280DFF89C5C09E02046F8F705FF0CF008FE8D
S3150800C29007F01CFDF8F72FFF641C2878E4B28442E7
S3150800C2A0F1D320E038B5F9F792F804460025FF2CBB
S3150800C2B008D0F8F7F0FEFBF775F800B90125F8F78E
S3150800C2C01AFF4DB90CF04DF90CF04AFC08F056FF70
S3150800C2D00CF0C4FDFF2C00D00DB1FBF722F90CF0D1
S3150800C2E0DFFD07F0F3FCBDE831400DF011B9DFF8CA
S3150800C2F0340C0068407B11281CBF4328412801D113
S3150800C300012070470020704710B50446FEF77FFDF0
S3150800C310801C01F091FC4FF6F87188422046A4BFB4
S3150800C320BDE8104000F005B800F05CF800F075F9BB
S3150800C33010BD2DE9F04104460CF0DEFB002837D18C
S3150800C34000F046F94FF6FF7505D24188A9422FD06D
S3150800C3502046FEF78EFD00230022022120460CF01F
S3150800C36073FC28B32046FEF752FD0646F77902F01D
S3150800C3703BFB804602F038FB424639460CF0CAFBC6
S3150800C38020B9BE210FF23C20F9F78EFBB01C01F054
S3150800C39053FCA84204BF204609F086FE30780321E4
S3150800C3A0084203D10121204601F0C4F9012000E02A
S3150800C3B00020BDE8F08138B50446DFF8A00C006817
S3150800C3C0205C851AEDB2681A80B2009053189BB2A9
S3150800C3D022462046FFF710F929462046BDE8344094
S3150800C3E0FEF7CBBF2DE9FE4F002582460195FEF7E5
S3150800C3F00EFD0646301D01F01FFC0746B01C01F075
S3150800C4001BFC8046307800F0C000029038460BF0DE
S3150800C4101BFD8DF80200FF2814BF4FF00109A9463D
S3150800C42030780321084208D102F0DEFA874202D0AA
S3150800C4305FEA090402D0012400E00024B07900284C
S3150800C44073D002F0D1FA80450BD102F0CDFA8346BB
S3150800C45000225946504600F0E5F8002865D000202D
S3150800C460AEE000F0B5F838BFB0F802B0F0D34046F9
S3150800C47009F062F820B95046FEF7D3FC400514D5FA
S3150800C48070784007C346E3D550460DF054FA00F0DD
S3150800C490B1FC401C4200D2B229465046FFF78BFF3A
S3150800C4A0707800F0FB007070D2E7707840071CD5F2
S3150800C4B050460DF040FA00F09DFC06466F1CF9B296
S3150800C4C000F09AFC002E18BFFF2806D10022F9B208
S3150800C4D05046FEF7A2FFC346BAE705EB4000811CAB
S3150800C4E0C9B25046FFF750F8B1E701AA00A940467D
S3150800C4F00CF0E8F98346DCB10298802804D040287D
S3150800C50016D19DF8000098B1307800F03F003070E1
S3150800C510384609F011F810B902F066FA07463A46A5
S3150800C520002140460DF072FC002848D0012047E063
S3150800C5300198B8B30CF01DF98DF80100019800793F
S3150800C54000F0300002909DF80100FF2805D140F266
S3150800C55023110FF27000F9F7A7FA1CB302981028F6
S3150800C56011D020281ED1B9F1000F07D09DF802106E
S3150800C5709DF801000CF035FAA0B904E0019800799D
S3150800C5800C2108420ED0F3795A46414638460DF03A
S3150800C59095FF01980079019900F0F30040F0040036
S3150800C5A0087101259DF8000028B1012140460CF0CC
S3150800C5B0A0FE20B1C346002D8ED0302249E70220C6
S3150800C5C0BDE8FE8F6E6574776F726B2E6300000090
S3150800C5D0DFF850090068017BC91E0329704738B582
S3150800C5E004460D46FAF7E7FE00F091FC01D2012059
S3150800C5F032BD4FF6F9718C421CBF4FF6F8718C426A
S3150800C60001D0702032BD02F0EFF9024629462046D5
S3150800C6100DF0FCFB00F001F832BD401E8041C00F52
S3150800C62070470022F8B504460D461646FEF7EFFB9E
S3150800C630007800F0DBFB0CBF0127002729462046BF
S3150800C640FEF717FC02F0D0F9854217D0284608F005
S3150800C65068FF50B9DFF8C00A01783246204601B0B3
S3150800C660BDE8F04000230CF0EFBA6FB902F0BCF950
S3150800C67000232246294608F08BFB28B101212046D3
S3150800C68001F058F80120F2BD2046FEF7CAFB400526
S3150800C69005D52046BDE8F4400021FCF707B820463A
S3150800C6A0FFF71CFBFFF7B9FFF2BD2DE9F041044681
S3150800C6B01646884630460DF012FA07463046FEF70B
S3150800C6C09CFB3E1AF6B23719A8EB060292B2394617
S3150800C6D007F10E00F8F721F828203870DFF84458DB
S3150800C6E0286890F82000787307F0FEFA0246791C4D
S3150800C6F0012001F0ACFA0822DFF86C1C781DF8F767
S3150800C7000CF8286890F820000EF0D2FC08F10E010B
S3150800C71033460022C9B2204607F007FD1220BDE8BD
S3150800C720F0812DE9F04F85B080460D460DF0D7F91A
S3150800C73082464046FEF78CFB81464046FEF75DFB87
S3150800C74007460AF10E0189B240460DF00CF9002899
S3150800C75052D0002000900E235246414601A8FEF70B
S3150800C76060FD0DF10501012001F07FFA83469DF871
S3150800C77004009DF8114028283ED10822DFF8E81B5E
S3150800C7800DF10900F8F713F8B0B3DFF8E06B2046AF
S3150800C7900EF08EFC58B9306890F82000201AC0B206
S3150800C7A080280DDA0021002002F09CFC08E0012018
S3150800C7B00090002352463946404607F0EBFCD8B1B4
S3150800C7C040460DF09CF849460DF109000EF06BFD48
S3150800C7D0FE28824610D0FF283CD148460CF0B7FB0D
S3150800C7E08246BAF1FF0FDFF8887B0BD00DF10901FD
S3150800C7F00CF0A3FD387868B300211920F8F745FE38
S3150800C8000020F0E200F0FBFA0AD140460DF067F985
S3150800C81001464046FEF7FCFD082801D10120F0E755
S3150800C82038780028E8D1306890F82D1090F82C0058
S3150800C830814206D3A81C01F0FFF94FF6F871884229
S3150800C840DADA0DF1090148460CF0D3FC48460CF03B
S3150800C8507EFB8246306890F82000844205D0214647
S3150800C86001200EF034FA0028C6D0306890F820006F
S3150800C870844203D150460EF084FD28B959465046E5
S3150800C8800EF0FAFC0028BCD0594650460EF004FDBE
S3150800C890C4E738B5DFF8E00AFEF7F4FE0446FF2CD5
S3150800C8A01DD0DFF8D85A0321FEF7A1FA2870042113
S3150800C8B02046FEF79CFA687005212046FEF797FA8F
S3150800C8C0A87001200BF072FD204600F009F82046FA
S3150800C8D0FEF708FCBDE8324000200BF067BD31BD0D
S3150800C8E038B50446FEF7A2FA00F00C052046FEF716
S3150800C8F0A2FAF8F7D0FB2046FEF798FA00F040FDBA
S3150800C90032D1FAF74FFD18B12046FAF785FE75E0E1
S3150800C910062200212046FFF74EFD2046FEF76EFB55
S3150800C9200EF07DFD8DF801008DF802409DF801009E
S3150800C93048B92046FEF762FB01460DF101000EF0EC
S3150800C940C1FD8DF800009DF80100802804D100A8DB
S3150800C9500FF0FDF8002851D1F8F710FC00A8FBF7F6
S3150800C9600FFBF8F7C8FB49E0042D204617D1FEF760
S3150800C97058FA00051ED402200021F8F786FDFAF7BA
S3150800C98011FD08B1042D39D00C2D15D121460120F1
S3150800C99006F04FFC90B3204602F024FE2EE0FEF788
S3150800C9A096FAB0F5006FE6D12046FEF7B4FA00F025
S3150800C9B0B5FBE0D10020DFE71DB9204602F0CAFF2B
S3150800C9C01CE0042D1AD1DFF8A4090568687B022843
S3150800C9D00CD0FFF78CFC48B9687B332818BF312880
S3150800C9E004D0012804BF287B052807D12146022048
S3150800C9F006F01FFC10B1204600F004F8F8F77BFBA0
S3150800CA0031BD00002DE9F04F85B08246FEF7FFF9EB
S3150800CA1005465046FEF71CFAADF80600281D01F03B
S3150800CA200BF98346A81C01F007F9ADF8040028465F
S3150800CA300DF074F803904FF6F87200F0E0F9687894
S3150800CA4000F00201029100F00100BDF80410049004
S3150800CA500CBF012700279142ACBF4FF001084FF0E9
S3150800CA60000850460DF03BF88146287800F03C0156
S3150800CA70082943D1DFF8E41509681AF80110894531
S3150800CA803CD217B90321084238D10298DFF8DC48AE
S3150800CA9048B12068C07E002830D029465046FFF7A6
S3150800CAA040FE00282AD02FB15146032006F0C1FBCC
S3150800CAB0002823D0494600F09FF90646029878B91F
S3150800CAC02068C07E60B1BDF80400009001F08CFFBC
S3150800CAD00099814212D197B1062E18BF072E0DD1A3
S3150800CAE02068417B022956D1029911B9C07E0028D7
S3150800CAF051D1BDF806000FF046FC60B173E106F0AF
S3150800CB0003000128ECD04A462946504600F0A6FD07
S3150800CB100028E5D167E1BDF80600009001F064FF42
S3150800CB200099814211D12068007BC01E032808D2D3
S3150800CB3001F05AFF0146206840880D220FF060FC7C
S3150800CB4051E101200FF034FB4DE1BDF8060008F075
S3150800CB50F3FC70B901F050FF4FF6FF71884208D018
S3150800CB60DFF8040C00780A2804BFBDF806000CF0AC
S3150800CB7081F90399012258460FF043FB0028E3D1B7
S3150800CB8028460CF0BEFF0146BDF8040000220FF04F
S3150800CB9038FB0028D8D1BDF804004FF6FC7188424E
S3150800CBA066D12068007BC01E0328CDD3A87908B1BA
S3150800CBB0401EA871687840072AD50020029002AA6C
S3150800CBC000A958460BF07EFE029808B30BF0D1FD7B
S3150800CBD00446BDF804000BF037F90299097901F00B
S3150800CBE03003102B1CBF01F00C02082A03D0029A4E
S3150800CBF001F0F30111710299097901F03301202935
S3150800CC0006D1FF2804D00146012220460BF0D2FEA9
S3150800CC10BDF806000BF018F9FF2804D0DFF84C2BF6
S3150800CC2012680021815409F10104049840EA0800B9
S3150800CC30C0B2002874D1E97958460CF0FBF801F027
S3150800CC408FFC08B1039820B1BDF80610584600F0CD
S3150800CC50CAF901F0C9FEBDF80410884260D008463A
S3150800CC6008F06AFC70B177B1012E1BD1002267E08B
S3150800CC704FF6FD71884299D12068007B001F022873
S3150800CC8094D2B0E077B9BDF8040008F04AFC48B180
S3150800CC90BDF8041000235246584608F079F80028D3
S3150800CCA040F09D80DFF8C80A007848B9584608F071
S3150800CCB043FC28B9BDF8040008F03EFC0028E0D083
S3150800CCC0C7B1052E16D101F08FFE8DF8000001F0D0
S3150800CCD08BFE000A8DF80100022200A95046FEF7D5
S3150800CCE00AFB00281BD1E1B25046FEF767FB017824
S3150800CCF0491C0170687840070AD550460CF01BFE9F
S3150800CD00411CC9B25046FEF759FB0178491E01700D
S3150800CD105046FFF767FB00211C20F8F7B6FB62E0D8
S3150800CD20002F4ED0701E09285DD8DFE800F00505F3
S3150800CD300E131930393F4343022E0CBF012200223D
S3150800CD40494650460DF042FA4DE0494650460FF026
S3150800CD508BFB48E04A46514658460FF0C8FC42E06D
S3150800CD60E1B200F049F80546DFF8087A039838601A
S3150800CD70F8F704FA09F10200C0B200905346396880
S3150800CD802A4658460FF0D1FDF8F7B5F92BE0CDF84D
S3150800CD9000902B4652460021012002F0ACFA22E010
S3150800CDA04A465146012002F076FB1CE050460FF039
S3150800CDB0D8FE18E0504603F03EFAB8F1000F12D03C
S3150800CDC009E0049820B1287A00F010F80BD102E0A7
S3150800CDD0B8F1000F03D0504600F016F803E0002122
S3150800CDE0504600F0A7FC05B0BDE8F08F00F0030040
S3150800CDF001287047054629465046FEF709BB28789C
S3150800CE0000F00300012870472DE9F84F8046FDF72A
S3150800CE10FEFF05464046FEF71BF80446281D00F0AF
S3150800CE200BFF8146A81C00F007FF834695F807A06C
S3150800CE30204608F081FB07462946404600F074F86C
S3150800CE400646022E61D02246514648460BF01FFE82
S3150800CE5000285AD101F0C8FD814556D0DFF81809D7
S3150800CE60007860B9012E06D001F07AFB18B1284681
S3150800CE700CF054FE18B12146484600F0B4F8224694
S3150800CE80514648460BF046FE00283ED02878032136
S3150800CE90084203D10021404600F04CFCA879A0B313
S3150800CEA000F035F831D36878C00715D52C7A58467E
S3150800CEB010F037F940B1E10804F0E00001F01C0178
S3150800CEC0084340F0010006E004F01C001C2803D0CB
S3150800CED005281ADB201F28724FF6FF75294640469B
S3150800CEE0FDF7C7FF0FB1002203E0F8F7DDFE00F0FB
S3150800CEF03F020023022140460BF0A6FEAB4504D1B3
S3150800CF004046BDE8F24F09F0CFB8BDE8F18FDFF82B
S3150800CF105C040068007BC01E0328704760FD002083
S3150800CF20CCF200209CF90020F0B587B004460878BA
S3150800CF300321084254D12146042006F07AF9002834
S3150800CF404FD020460CF0CBFD014600F084FB0321B0
S3150800CF50084245D120460CF0C2FD0546294600F098
S3150800CF607AFB0FF6380248CA05A948C103210842C8
S3150800CF7036D1002000906A1C0523D2B2214603A8A8
S3150800CF80FEF74FF9052203A905A8F7F71CFC38BBDD
S3150800CF9020460CF027FE0546A91C00F05BFB06465A
S3150800CFA0691C00F057FB00EB062605F10B0100F0A3
S3150800CFB051FB074600200090EA1C0823D2B22146FE
S3150800CFC001A8FEF72EF92046FDF742FF3A46B1B210
S3150800CFD001F082FA012201A9B0B20FF012F900E0BD
S3150800CFE0002007B0F0BD38B504460D4608F0A4FA8F
S3150800CFF0002818BFAC4206D020460AF025FFBDE837
S3150800D000324008F02BBB31BD10B5192241A10320CF
S3150800D01001F0EEFADFF854432068417B022918BF75
S3150800D020032901D0932010BD007BC01E032802D21D
S3150800D03000F030FE08B1702010BD10F0B1F820687D
S3150800D040407B032805D10021012002F04BF801207E
S3150800D05010BDFBF760FB002010BD000080F2002029
S3150800D0602DE9F04180460D4600260DB9012602E05D
S3150800D070312D08BF0025FDF7D9FE00F081F913D13F
S3150800D080FAF790F980B9DFF8F46686F80080F8F7C1
S3150800D09075F84046FEF75CF82946FAF7B3FFF8F745
S3150800D0A02AF8FF20307032E0DFF8D4764046FDF7E4
S3150800D0B0BDFE0C21084205D13978BDE8F0410120B2
S3150800D0C0F8F7E3B903244046FDF701FFB0F5006F12
S3150800D0D007D14046FDF71FFF00F020F808BF0124DE
S3150800D0E001D005B1052439782046F8F7CEF9294646
S3150800D0F0404609F04BF850B9294640460BF024FE45
S3150800D10028B9324629464046BDE8F0410AE0BDE85E
S3150800D110F0810000420000003CF400204FF6FF7149
S3150800D120884270472DE9F04F83B007460E461446ED
S3150800D130FDF77CFE00F024F908D1FAF733F928B197
S3150800D140224631463846FAF72EFA07E1DFF81C82FE
S3150800D1503846FDF76BFE00F00C000C2838465AD10D
S3150800D160FDF755FE8246FDF797FE50444FF0FF093E
S3150800D1700178DFF80856012906D0022912D00429B9
S3150800D18024D07C2939D0E9E04EB99AF804009AF8F7
S3150800D190031001EB002080B201F032FCDEE002F061
S3150800D1A0A2FBDBE0002E04BFC178002908D18278F3
S3150800D1B0407800EB0220394680B20DF074FC92E00C
S3150800D1C00AF10501002008F090F892E0D8F800006E
S3150800D1D0407B0228E5D11EB910F078F804B931264B
S3150800D1E03346222263A1032001F002FA2F70F7F7D3
S3150800D1F0C5FF30460BF054F908E02F70F7F7BEFF6D
S3150800D2003846FDF7A5FF3146FAF7A6FEF7F773FF8E
S3150800D21085F80090A2E0FDF7FAFD0446201D00F00F
S3150800D2200BFD8146A01C00F007FD05464FF6F87B6E
S3150800D2305D450BDAD8F80000B0F84410491CA0F890
S3150800D24044101EB144304188491C4180207800F0C2
S3150800D2500301012950D138460CF041FC01463846F5
S3150800D260FEF7D6F8042802D0072804D076E0384618
S3150800D2700FF028FB72E020460CF043FC00286DD026
S3150800D2800146002008F031F8044638460CF027FC21
S3150800D29000210091421C0323D2B2394601A8FDF7AA
S3150800D2A0C0FF002E02BFD8F80000407B02281FD11D
S3150800D2B001A88178E1B940789DF8041001EB0025B2
S3150800D2C02046FF280CD0DFF8BC14096831F8102076
S3150800D2D04FF6FF331A4021F81020A9B208F085F955
S3150800D2E0A8B20BF05EFA00211020F8F7CEF835E068
S3150800D2F0204608F0B3F931E0032108422ED101F0A7
S3150800D30073FB814504D03846FDF78BFDC00606D56C
S3150800D310002E0CBF00216621384610F09BFAEEB1AC
S3150800D3205D451BDA607810F0040606D128460BF036
S3150800D33016FB070002D0012700E00027284608F060
S3150800D340F0F810B1062267B904E00EB10B22FAE72D
S3150800D35037B90222294648460FF052F8BDE8F78F3A
S3150800D3600C2249462846F7E7C4F900209CF9002014
S3150800D370DEFF00204242000004F40020D8FF00200F
S3150800D38000F00C00082870472DE9F04F044685B0D8
S3150800D39094F800A05046FDF74EFDF7F77CFEFAF725
S3150800D3A001F8B0B1A079012805D1DFF8DC030178CE
S3150800D3B041F0010101702078FAF757F9002840F08A
S3150800D3C0D080607800F0F0006070F7F794FE0020D7
S3150800D3D009E55046FDF71BFD0646301D00F02CFCFE
S3150800D3E0ADF80000B01C00F027FC814650460CF052
S3150800D3F076FB83465946FFF7FFFC8DF80200307826
S3150800D400FFF7F4FC0CBF9DF80250FF25F8F75CF90E
S3150800D410A188401A1FFA80F801F0E6FABDF8001054
S3150800D42088420CBF0127002708460EF0ACFF0028EB
S3150800D430C7D148460EF0A7FF20B1484608F07CF849
S3150800D4400028BED0FFF763FD21D2062D18BF042D94
S3150800D45062D05A463146504600F000F9B8B9FEF790
S3150800D46046FF20B19DF80200FFF7C0FC0FD0F9F780
S3150800D47024FF00284DD001F0B7FA0146301D00F010
S3150800D480E2FBC248006841885046FDF7F2FC012DD0
S3150800D49042D15046FDF7DCFCFFF740FE3CD10023A5
S3150800D4A000F0B3F805008CD06A799DF80D00824229
S3150800D4B007D20BF10501C9B25046FDF7AEFF00F0E1
S3150800D4C09EF8F8F7F1FB7E2190FBF1F17E2202FB34
S3150800D4D0110000F58070608018219DF80E00084242
S3150800D4E012D060780F21084208BF002F0CD1F7F739
S3150800D4F045FE30460CF012FB01466A79BDF800007D
S3150800D500FAF7A7FCF7F7F7FDF7F7F5FD9DF80F0013
S3150800D5105EE72820608058E74FF6F870814502DA02
S3150800D5207078C00721D5FFF7F2FC1ED340F6B93054
S3150800D53080455CDAF8F7B8FB00F03F00C0F5FA70F2
S3150800D5406080607800090CD05FB9F179BDF80000F9
S3150800D5500BF093FA00281EBF80884FF6FF718842A9
S3150800D560A1D0F7F7C8FD012032E7022D26D1012305
S3150800D57000F04BF8054601F037FA0146BDF80A00F7
S3150800D580814202D007F0D8FF58B3002D8BD06B88A4
S3150800D5900122594650460CF0C4FD7C480068417E7D
S3150800D5A0491C4176F171BDF806006988884201D0A8
S3150800D5B000F025F84FF4C8706080D2E7032D10D12B
S3150800D5C07FB10BF10101C9B2FFF716FC0C2808D18F
S3150800D5D00BF058FFFFF7A2FD03D001465046FDF7B2
S3150800D5E048FC607800097FF4ECAEB8F1FB0FBFF693
S3150800D5F0E8AEF8F759FB00F01F001030DCE760785A
S3150800D60000F0F000801C6070704701AA5946504629
S3150800D6100CF0B9BC70B50446F9F7C4FEC0B920468B
S3150800D620FDF7F5FB054620460CF059FA014600F0D1
S3150800D63012F806462046FDF70BFC4FF6F8718842AD
S3150800D64004DAFFF7DCFB08BF022E01D1012070BD0A
S3150800D650002070BDC9B22046FDF7DABEF8B504460B
S3150800D6601546084600F0E8FA20F4007041F2080171
S3150800D670884218D146480068205C401B072812DB00
S3150800D68000260FF220177119FFF7E4FFF15D8142BA
S3150800D69003D0022E08BF002805D1761CF6B2072E45
S3150800D6A0F1D30120F2BD0020F2BD2DE9F0418046FC
S3150800D6B00C46FDF7BBFBFFF763FE31D0201D00F0DB
S3150800D6C0BBFA0546E6794046FDF7C2FB07464046E3
S3150800D6D0FDF7A7FB00060FD52C480068017B091F3C
S3150800D6E0022909D2417B022906D140884FF6FF71EB
S3150800D6F0884218BFF7F74FFFA01C00F09DFA4FF6B7
S3150800D700F871884202DA6078C0070BD520780321C1
S3150800D710084205D13A46314628460BF0B8F905E0E5
S3150800D720012005E0314628460BF070FBFEF775FF31
S3150800D730BDE8F08110B5044641B1FF220321FDF78B
S3150800D7404FFB002204212046FDF74AFB21461148DB
S3150800D750FDF783FF2046FDF7B7FC0F480078BDE8C4
S3150800D7601040F9F741BD000060F40020A0F2002047
S3150800D77090F2002024FC00202EFE002018F4002041
S3150800D780C3FF00209CF20020E9F900209CF9002044
S3150800D79080F2002038F40020C9FF002000130000A2
S3150800D7A00000000000FF01400EC0FF002DE9FC420A
S3150800D7B004460D469146CDF804900095234624224A
S3150800D7C00FF20841032000F013FFDFF8F0733878F2
S3150800D7D00A2818BF3D203DD1B9F10F0FA8BF332045
S3150800D7E038DA092CA8BF342034DADFF8D403284005
S3150800D7F0A84218BF35202DD135B9DFF8C8130968F6
S3150800D800897B012000FA01F5002C18BF022CDFF8ED
S3150800D810B8630CD120210020FDF7E7FC7870FF28BB
S3150800D82008BF182016D0FDF7E9FBF06130623C709E
S3150800D83086F80190B561002030700A20F7F7FCFDE4
S3150800D84001210FF21500FAF7BBFF38780A280CBF3A
S3150800D85001200020BDE8F68238B50A20F7F7FBFD5F
S3150800D8600446F7F718FC2046F7F721FD0020F7F7DE
S3150800D87036FDD54CF9F789FDE07001F0BDF8208238
S3150800D880F9F71FF820714FF6FF75CC4C207806285B
S3150800D89008D10120F9F718F8072020702846F9F76B
S3150800D8A09BFA0CE0082805D0284601F0A9F8284676
S3150800D8B0F9F789F80020F9F707F800F063F8BDE8EA
S3150800D8C03140F7F718BC80B52522BAA1032000F02D
S3150800D8D08FFE00F002F8002002BD38B5F7F7C8F849
S3150800D8E0B64D044628780A2818BF092804D12046C8
S3150800D8F0BDE83240F7F7C2B8072808BFF9F730FA8B
S3150800D9002878B1490870092028702046F7F7B6F834
S3150800D910BDE8344001210FF20900FAF751BF0000B3
S3150800D92070B5A64C2078092802D0E82100F0A3F8A3
S3150800D9300A20F7F790FDF7F7AEFBA34D288A01F00A
S3150800D9405FF8A049E878096888732879F8F7BCFF72
S3150800D9500120F7F7C4FCF7F7C6FC667800202872A2
S3150800D96000220A2020703146FF206070287802F0D5
S3150800D9700DF9FF2E1CBF3046FDF7B4FBBDE870401D
S3150800D980F7F7B9BBF8B5904C002020720A20F7F7D4
S3150800D99062FDF7F780FB894D28780A2803D14FF4F2
S3150800D9A08A7100F068F82878E0B917E0401CE06151
S3150800D9B0282210F9016DE069401CE0617EA110F88B
S3150800D9C0017D00963B46032000F012FEF7F7D6FBD2
S3150800D9D031463846FAF7C0F8F7F78DFBE069216A51
S3150800D9E08842E3D320781B281FDA0DF0C9FE50B110
S3150800D9F02078A169C140C90705D4401C2070C0B26F
S3150800DA001B28F5DB11E0F8F759FB01462078884218
S3150800DA1002D0F8F74BFB40B920780DF09FFE207036
S3150800DA200020A07000F064F808B32878052818BF0D
S3150800DA30012803D0032818BF08280DD10B26A06992
S3150800DA40F040C00704D528783622314602F09EF801
S3150800DA50761C1B2EF3DB08E0022806D1206AE16952
S3150800DA60411A6878C9B2FDF788FCFFF736FFBDE8AA
S3150800DA70F140F7F740BB0FF25C10F8F715B838B568
S3150800DA804E480178092904BFBDE83140F9F78BB93A
S3150800DA904D4C6369002918BF02291ED19BB9226A19
S3150800DAA06179521C226202F8011D007828B9256A9C
S3150800DAB0681C2062F8F702FB287004F10800BDE82C
S3150800DAC03240F9F7A3BA0825F8F710FF94F90510BC
S3150800DAD08142B8BF0146617103E0002BEDD04FF4D7
S3150800DAE070752846F9F778F96069401E606131BD9E
S3150800DAF080B53548427801219140304A1278491C50
S3150800DB00092A416120D8DFE802F011091109170531
S3150800DB101F1F0D1CBDE8014008F0C6BCBDE801404A
S3150800DB2008F0CFBCBDE801400EF00CB96FF07F02DB
S3150800DB3042717822514341610020F9F74DF90020DE
S3150800DB4002BDF9F730F903E040F2A311FFF793FF9E
S3150800DB50012002BD10B5194A1B4C1278052A11D1AD
S3150800DB60062816D120206061A9B9F8F7A7FA01227C
S3150800DB70A16902FA00F021EA0000A0610020F9F785
S3150800DB802BF915E0012A14BF032A0728ECD0082A26
S3150800DB90EAD0002010BDA078401CA070C0B20328AF
S3150800DBA002DAFFF7A5FF18B104F10800F9F72EFA13
S3150800DBB0012010BD420000004242420060F40020ED
S3150800DBC000F8FF079CF900207CFD002042424442F1
S3150800DBD0000000007363616E2E63000038B50028EC
S3150800DBE014BF04011024F6F743FF0546FCF7CFFAE5
S3150800DBF020180F490F4C82B24A60000C08600420B6
S3150800DC0020602846F6F73AFF206C40F004002064AE
S3150800DC1031BD80B5F6F72CFF06490A6C22F00402DE
S3150800DC200A6404220A60BDE80240F6F727BF00002E
S3150800DC304820004008A0004041780078FFE700EB44
S3150800DC40012080B270470170090A4170704710B50B
S3150800DC500023002814BF1C46C3F10304E4B25B1C6E
S3150800DC606254120A042BF4DB10BD30B54A788B785F
S3150800DC70CC78097818B120461D460C4602E01546B0
S3150800DC8008461A4645EA002044EA022141EA0040CD
S3150800DC9030BD0000DFF81409007800B10120704794
S3150800DCA0DFF808190A78072A18BFFFF7F3BF80B507
S3150800DCB0902803D10020087010F0F0F9BDE8014063
S3150800DCC0E8E770B5164604460D46FF22F9F72BFB22
S3150800DCD028B9002229462046F9F725FB50B146B156
S3150800DCE069082046FCF756FA08B9A52070BD002039
S3150800DCF070BD702070BD70B50446084615461E46B0
S3150800DD0032460821FFF7DDFFA8B932460221204630
S3150800DD10FFF7D7FF78B92878002818BFFF2807D05B
S3150800DD20DFF88C1821FA00F0C00703D5702070BD03
S3150800DD300B202870002070BD10B5441A48BF6442F5
S3150800DD40C92C0A4602DB884203D201E0884200D386
S3150800DD500246904201D1012010BD002010BD70B5C9
S3150800DD600446DFF85008006886B00D46407B0F2150
S3150800DD70084206BF94F828000228702038D10123EB
S3150800DD80A21C211D2046FFF7B6FF060030D194F8E5
S3150800DD90260000F0020040F0010010F0C9FA94F8DD
S3150800DDA02800DFF8081848701822002100A8F6F79E
S3150800DDB0F7FC0822211D00A8F6F7AFFC2088ADF86D
S3150800DDC008008DF80A5000ABA0788DF80B004FF4C8
S3150800DDD0417103208DF80C00DFF8DC07059001205F
S3150800DDE094F8282001F053F80646F7F77CFA3046EF
S3150800DDF006B070BD2DE9F041DFF8B8470646206841
S3150800DE008EB0407B00F00F052C22314602A8F6F7AB
S3150800DE1084FC012D18BF042D31D0DFF890572878DF
S3150800DE20002818BF06282AD196F82800801E02283E
S3150800DE3025D810F06EFAC00723D400F0DDFD07469A
S3150800DE4002F0D5F9804600A802F007F90822311D2C
S3150800DE5000A8F6F7ACFC002840D1707B4146FFF7D6
S3150800DE606BFF00283AD000F0BFFD0146012230467C
S3150800DE7000F0FAF8DFF844170020087059E070201F
S3150800DE8057E0012100200CF024FC070050D110F0C7
S3150800DE909FFA0FF248724FF6FF71012001F0DEFF7C
S3150800DEA096F826000027C0070ED500220821301D47
S3150800DEB0F9F739FA40B90822311D03A8F6F72DFCFF
S3150800DEC03088ADF8080006E00822002103A8F6F716
S3150800DED067FCADF808708DF815700EE0082200A9E9
S3150800DEE003A8F6F71AFCADF808708DF8158096F8B1
S3150800DEF0280002280CBF01270227B0788DF80A00EF
S3150800DF00032001F066FF02A938460DF0E0FF07007E
S3150800DF100AD12168012048734FF4A05104202870C3
S3150800DF20281DF9F77EF803E000F02FF801F051FFFD
S3150800DF3038460EB0BDE8F08130B58BB004460D46C4
S3150800DF402C22002100A8F6F72BFC41F60630ADF886
S3150800DF500000102205F115010DF10200F6F7DDFBB0
S3150800DF60102221460DF11200F6F7D7FB284610F0CD
S3150800DF7004FA00A80CF0F2FA0BB030BDDFF82C0654
S3150800DF800078012818BF00207047DFF8200640787F
S3150800DF9018B9DFF820060068007B70472DE9F041C4
S3150800DFA00446DFF81006DFF8046600687778407BD9
S3150800DFB088463178002918BF0729154600F00F0052
S3150800DFC037D1012818BF042833D010F0A2F9C007AA
S3150800DFD044BF48F6990000F013FD10F09AF940F096
S3150800DFE0020010F0A5F90DF0FBFB20460DF0D6FB5C
S3150800DFF0F9F7C6F9F0704046F9F7B9F95FEA00088B
S3150800E00014D1A81E022814D8012030707570042275
S3150800E01021460820FFF7CAFB5FEA000806D0002061
S3150800E020307096F90300F9F7A2F977704046BDE813
S3150800E030F0817020FBE738B5DFF87055044628787C
S3150800E04010B1062808D00DE006202870F8F739FC2C
S3150800E050A8700020F8F738FC2146281DF8F7E1FFDC
S3150800E060002032BD702032BD70B50546DFF84C057C
S3150800E070DFF84C654180144628883081A878F0720C
S3150800E080F9F77EF9B0720822291D3046F6F745FBE6
S3150800E090687B3074DFF820057061032030734CB953
S3150800E0A010F037F9C00705D404224FF6FD71002099
S3150800E0B00EF076FA9120F9F7BDF8DFF8F00403219F
S3150800E0C00170002CBDE8704014BF4FF400614FF496
S3150800E0D00071001DF8F7A5BF38B5DFF8D044002059
S3150800E0E020712078032838D110F013F9DFF8CC54C2
S3150800E0F02978002914BF6FF480714FF6FF71084024
S3150800E1004FF6FE71084010F013F9DFF8A8140968F5
S3150800E1100120287000204873FFF737FF0328BCBF8B
S3150800E12007202070FEF7BEF841F60631002010F0F1
S3150800E130A4FAFFF72AFF02466988DFF8843400202C
S3150800E14000F0A5FEFFF721FF03281ADB0020207048
S3150800E1500021012000F0C6FF13E0042818BF052897
S3150800E16008D1FFF712FF01F034FE0020207000F0FE
S3150800E170A0F806E0062804D100202070A078F8F759
S3150800E180A3FBBDE83140F7F7AEB870B5DFF81C64FD
S3150800E19004463078012882B00D4613D1F7F78EFF72
S3150800E1A000902B462246CBA10020FDF789F9DFF81F
S3150800E1B014140870FF2805D002203070BDE873409B
S3150800E1C0FFF78BBB73BD70B5DFF8E04394F9030026
S3150800E1D0217801298AB00BD100212170F9F7C7F8F7
S3150800E1E0F6F7CCFF0020F9F77BFFF6F784FF5BE034
S3150800E1F002295BD1F9F7BBF8F6F7C0FF0120F9F75A
S3150800E2006FFFF6F778FF1822002103A8F6F7C8FA79
S3150800E210E078DFF8B0538DF816000C212878FDF762
S3150800E220F7F88DF81700012303208DF818000DF173
S3150800E230170200208DF81C0003A9DFF87C0308905C
S3150800E24005A8FFF758FD06460020F8F7F3FF3EB984
S3150800E25003AB02224FF44171002000F018FE064677
S3150800E260F6B928780821FDF7A7F906460020009098
S3150800E27008232978002201A8FCF7D3FF2878FCF7A1
S3150800E28031FFFF20287001220520207001A93046A1
S3150800E2900DF095FD4FF40051201DF8F7C2FE03E07E
S3150800E2A00020207000F005F8012000E000200AB0E8
S3150800E2B070BD00B585B000F0DFF89DF8030000F0EA
S3150800E2C057F994231322B8A1032000F091F994205A
S3150800E2D0F7F7D0F8FFF759FE032808DBB5480068BA
S3150800E2E040884FF6FF71884208BF032000D00220FD
S3150800E2F0F8F7A0FF05B000BD2DE9F04196B0044639
S3150800E3000D46164698460127082205F11C0105A860
S3150800E310F6F703FA022C08D1FFF737FE032869DB64
S3150800E3200FF0F7FFC00704D464E0FFF72EFE0328BA
S3150800E33060DA288B10F084FBFF285BD007AB4246D7
S3150800E34005F11001002010F08EFB002852D10E2294
S3150800E350314601A8F6F7E1F9BDF80C00BDF80A1038
S3150800E360884204D20020ADF80A00ADF80C00BDF8CA
S3150800E3700800BDF80610884204D20020ADF8060051
S3150800E380ADF80800BDF81000BDF80E10884204D29A
S3150800E3900020ADF80E00ADF81000BDF81000BDF86D
S3150800E3A00E30BDF80A20BDF808100090BDF806002A
S3150800E3B00FF086FFF0B9002C34D1A87810B9F8F719
S3150800E3C0E4FFA8700123AA1C291D2846FFF793FC21
S3150800E3D080B900270122002107A80CF0B0FC0BA881
S3150800E3E00FF0AEFF0DF141033A4641F606314020E3
S3150800E3F010F00EF92A46214638460DF007FE77B981
S3150800E400318800222846FFF72FFE0120F8F712FF71
S3150800E410F6F7B4FE2846F9F79CFEF6F76CFE16B03A
S3150800E420BDE8F0810023CEE77FB5604915460A7836
S3150800E430042A1C461FD100220A710A7010B1FFF780
S3150800E44038FF7FBD00F0D0FA06467DB100F014F81B
S3150800E450082202A9201DF6F760F99DF80300A070AE
S3150800E460BDF80000208001F0C2FE6073012231462B
S3150800E4702046FFF7F9FD7FBD1023072200A90120DA
S3150800E48004F04BBA30B583B004460D4600A801F037
S3150800E490E4FD082200A9201DF6F789F980B900F0E5
S3150800E4A0ABFA218881420BD101F0A1FE0146607BBF
S3150800E4B0FFF742FC20B1002229462046FFF7D4FD8B
S3150800E4C037BD80B501200FF033FF384900200870AA
S3150800E4D001BD00003834310070B504460D461646B5
S3150800E4E0FFF753FD032811DA3748007870B1AC42BC
S3150800E4F00CD1B0070AD528460AF033FD30B10079A9
S3150800E50020B9BDE870403148F8F780BD70BD1023CA
S3150800E5107F221721FBF7E8BB28237F221821FBF768
S3150800E520E3BB10B50C46FFF7F2FF2046BDE81040E6
S3150800E530F2E7024610237F211720FBF7FBBB80B5C5
S3150800E5400FF0E7FE000A00F0010080F0010002BDAE
S3150800E55080B5FFF7F4FF08B1002002BD012002BD17
S3150800E56080B5FFF7ECFF08B1002002BD012002BD0F
S3150800E570104909688873F6F76FBE0E480068807BF5
S3150800E580704780B51249134808600FF0C2FEC007ED
S3150800E59002D406490720087001BD0F480078704765
S3150800E5A00D490870002070474242000030FD0020E7
S3150800E5B0FF0700F89CF9002000F8FF073EF400204A
S3150800E5C03CFD002042F400207CFF002028FD0020AE
S3150800E5D078FD0020145D020817F3002000000000F3
S3150800E5E00000000070470EB403B0704770477047CC
S3150800E5F00CB402B070470020704700207047000036
S3150800E60038B509F0DBFE08F0F7F8DFF8084420789B
S3150800E610002840F0A780122010F09AFA00060BD5C1
S3150800E62000F0DFF8000607D500F0DEF8000603D58F
S3150800E63000F0D4F8000610D4122010F089FA00066B
S3150800E64014D500F0CEF8000610D400F0CDF8000678
S3150800E6500CD500F0C3F8000608D5E0780E2861D17D
S3150800E660FBF7FEFA002800F07F8032BD00F0B9F80B
S3150800E67000060FD400F0B8F800060BD500F0B4F881
S3150800E680C00707D400F0AAF8000603D4E0780C28DF
S3150800E69045D1E5E700F0A5F8000609D500F0A4F88D
S3150800E6A000F08100812803D100F098F800060DD506
S3150800E6B000F097F800060ED400F096F800F08100F6
S3150800E6C0812808D100F08AF8000604D4E0780D28DD
S3150800E6D0C6D00E28DCE700F084F8000610D500F056
S3150800E6E083F800060CD400F079F8000608D5E0781F
S3150800E6F016281CBF01281A28B2D00F2815D1AFE753
S3150800E70000F06FF80006ABD400F06EF80006A7D448
S3150800E71000F064F80006A3D5E0781628A0D0E078C3
S3150800E72001289DD0E0781A289AD0E078022818BFE8
S3150800E7301B2895D0062818BF072891D0082818BF87
S3150800E74009288DD00A2818BF032889D0102818BF91
S3150800E750112885D0122818BF1328FAD0142818BFF4
S3150800E7601528F6D0B02032BDFBF7F1FE10F034FACA
S3150800E770DFF8A402007808B110F068FC0EF00EFB72
S3150800E780FAF7EAFFDFF894420FF2C820F8F7D1FC4F
S3150800E7902070DFF88C02F8F7CCFC6070F6F768F9A1
S3150800E7A005466078F8F7E6FC2846F6F767F9F6F7BF
S3150800E7B02FFCFAF744F8FDF751FD10F099FC10F01C
S3150800E7C0A4FCFFF7DEFE0120F7F77CFFDFF8540212
S3150800E7D04FF47041F8F725FC002032BD002010F0F8
S3150800E7E0B7B9102010F0B4B9112010F0B1B92DE95D
S3150800E7F0F0470AF061F909F02DFF09F07DFC08B928
S3150800E80009F066FCDFF820824046FCF785FF08B968
S3150800E810FEF73FF8DFF814924846FCF77DFF08B983
S3150800E82006F0D6F80EF041FDFDF7ABFBDFF8EC611C
S3150800E8303078F8F76AFC7078F8F767FC10F06CFC2B
S3150800E840DFF8EC51DFF8ECA1002700240BE02046A6
S3150800E850F6F721FC2868007B001F022838BF01272D
S3150800E860F6F749FC641C9AF80000E4B28442EED339
S3150800E870002F1EBF70480078002805D000F02AF83F
S3150800E880102808BF0EF03EFEFAF736FF10F00AFE13
S3150800E890F6F7EEF8074609F02FFC68B14046FCF794
S3150800E8A03BFF48B14846FCF737FF28B110F0F8FDA2
S3150800E8B010B13078F8F75EFC3846F6F7DFF8F6F769
S3150800E8C052FC18B94FF4B47100F03FF8F6F72DFB77
S3150800E8D0BDE8F08710B5F9F79CFF40B10AF0FDF9DD
S3150800E8E028B102F051FB441EA441E40F00E00124C4
S3150800E8F0F7F7D2FF08B944F0040409F0FDFB38B174
S3150800E9004948FCF709FF18B14848FCF705FF08B95C
S3150800E91044F002044948007808B144F02004464807
S3150800E920007808B144F010044548007808B144F06E
S3150800E9304004F8F77CFF08B144F08004F8F787FF35
S3150800E94008B144F48074204610BD0FF2F800F7F7BA
S3150800E950ABB838B5044636480068007BC01E0328A5
S3150800E9600BD3204606F093FD4FF6FF75A84204BF69
S3150800E97020460AF0BFFAA84204D12046BDE8324034
S3150800E9800EF0F4BA32BD70B504464FF6F8708442FC
S3150800E9900D4627DA264E3CB93068007D800703D439
S3150800E9A028460FF0BDFED8B9306841888C4205D19B
S3150800E9B0011D08222846F5F7B0FE11E0007BC01EAF
S3150800E9C0032808D320460CF00DFCFF2803D029465F
S3150800E9D00CF02CFC20B9294620460EF00EFB08B197
S3150800E9E0002070BD012070BD11480068008A70477C
S3150800E9F00F490968088270470D480068408A7047C1
S3150800EA000B490968488270470948006800787047CA
S3150800EA10000000009607080868F40020C9FF0020D7
S3150800EA20A078000890FE002004F4002038F40020A6
S3150800EA309CF90020CCF20020BCFE002060FD0020DE
S3150800EA4034FD00207A69676265652D737461636BAE
S3150800EA502E630000CCF9002045BF0008ECF9002021
S3150800EA60C56B000884FD002085D90008DCFE00205F
S3150800EA70058E0108A4FD00200161010860FD002043
S3150800EA8037F800086CFD0020F5F80008BCFE0020E9
S3150800EA9001D5010858FD002035EE000848FF002082
S3150800EAA049C5010818FD0020570301083CFF00204E
S3150800EAB01317020820FD00207B93010828FD00207B
S3150800EAC04DCD0108D0FE002087070208A8FE0020C9
S3150800EAD0B3F40108B0FE0020FDE90108A0FE0020FD
S3150800EAE031F4010834FD0020D9E00008A4F900201B
S3150800EAF0E7520008E0F900202BAD000890FE002040
S3150800EB004558020888F90020C7550008000000008B
S3150800EB1000000000DFF8F82C1268127882420AD04A
S3150800EB2019B1012A03D1022805D000207047022A0C
S3150800EB3008BF0128F9D101207047DFF8D81C0875ED
S3150800EB40704710B5DFF8C84C2068407B112804D000
S3150800EB50B6210FF21000F6F7A7FF21684120487387
S3150800EB6010BD00006173736F63696174696F6E2EFF
S3150800EB706300000080B50220F6F76DFCF6F78BFA05
S3150800EB8000F084FC001F022805D2DFF8880CC17C3F
S3150800EB90491DC17405E04FF47A71DFF87C0CF8F76B
S3150800EBA040FA00F0BDBE10B5DFF8684C002060746E
S3150800EBB02078FF2803D0FCF795FAFF20207010BDB7
S3150800EBC038B504460D46FCF719FA007C00F0070133
S3150800EBD0400800F0380000EB410000F11102DFF8B0
S3150800EBE0100D0068205CD2B282420ADA831ADBB2C0
S3150800EBF00F2BA8BF0F230020009021462846FCF7BC
S3150800EC0010FB31BDDFF8080C0068407B33281CBFB9
S3150800EC104328532801D101207047002070471FB5AB
S3150800EC20FDF765FB08B3DFF8EC4B207800A9FFF782
S3150800EC30C7FFDFF8E41B002008700DF103006179B7
S3150800EC4001F028F9FFF7AFFF00F010F800F08FFA8F
S3150800EC50007DC00702D510F02EFC08B90FF01EFA89
S3150800EC6010F028FC012001F043FA1FBD10B500F092
S3150800EC707EFA017BC91E032906D240884FF6FF712A
S3150800EC80884208BF032008D0F8F7C4FA0446F8F704
S3150800EC90C5FA21460FF0F9FF0220F8F7CBFA01F082
S3150800ECA089FABDE8104000F03FBE38B5DFF8644B7E
S3150800ECB02075FFF778FF00214FF6FF7001F0E3F9A2
S3150800ECC0DFF84C5B2868417B032918BF00291DD053
S3150800ECD0332918BF432913D100F019F82868017B96
S3150800ECE0C91E032906D203214173207DBDE832409F
S3150800ECF0F6F7C0BB207DF6F7BDFBBDE83140B5E7AA
S3150800ED0021214173BDE831400DF098BC31BD237D0A
S3150800ED101322C3A10320FFF76BBC10B500F0B2FBAA
S3150800ED20002048734FF6FE70FFF762FE4FF6FF703D
S3150800ED30FFF766FEDFF8DC4AFFF7E9FF207DBDE84E
S3150800ED401040F6F797BB3EB504462346E07A0FF225
S3150800ED50A0010290152294F90A00019020890090DA
S3150800ED6000F002FA00F003FA407B78B920894FF6E2
S3150800ED70FF7188420AD0DFF8D00B00780A2805D13F
S3150800ED80F6F73CFB10B9F6F74EFB08B170203EBD0E
S3150800ED90214601F03BF8050008D1012001F019F8D9
S3150800EDA0002101200BF095FC050001D028463EBD48
S3150800EDB0DFF8600A007E08B106F064FC002208212C
S3150800EDC02046F8F7B0FA30B104212046FBF7E2F9FD
S3150800EDD008B9A5203EBD00202074E081DFF86C0B41
S3150800EDE06061204600F0F6F80546F6F77CFADDE79E
S3150800EDF0423870574242000010B50446234618228E
S3150800EE0087A10320FFF7F4FBDFF8440B002101710B
S3150800EE1014B1FF2C02D10121017007E0012100F88D
S3150800EE20041BA100491C0902F8F7FBF800F07CFD59
S3150800EE30002010BDDFF8181B00200871DCE730B58C
S3150800EE400D4689B0044668690FF27C11079023467F
S3150800EE50287C06901622E8890590287B0490E87A93
S3150800EE60039095F90A00029028890190009500F010
S3150800EE707BF9287B00280CBF4FF6FE70FFF7B4FD20
S3150800EE802B46224609B0BDE83040014601202DE94F
S3150800EE90F041DFF87C6980463068407B00280F46E1
S3150800EEA014461D464BD1002C49D0062C47DADFF80C
S3150800EEB0980A00780A2842D1F6F7A0FA00283ED127
S3150800EEC0F6F7B1FA08B1042C39DB287B032816D1EA
S3150800EED04FF6FE70874214D1012C08BF002710D0C8
S3150800EEE0022C2CD1FFF780FD4FF6FC71884202DA1E
S3150800EEF0FFF77AFD01E00DF033F9074601E0012C32
S3150800EF001DD0B8F1000F0CD0287B03280CBF0121B7
S3150800EF100021012C0CBF012000200BF0DAFB002891
S3150800EF204ED12946384600F071FF002848D1F6F739
S3150800EF3005F9F6F71DFA20B1F6F775FA08B170204B
S3150800EF403EE03068DFF8CC78407B33281EBF532874
S3150800EF5000207875204600F03CFF387E20B1F6F791
S3150800EF6062FA08B906F08EFB287B032803D12846E7
S3150800EF70BDE8F0412EE00822294607F10800F5F71A
S3150800EF80CCFB287B0328A8BF00203874FFF70BFEAC
S3150800EF9094203875387C316800280CBF0120312050
S3150800EFA04873002031687A7EB8740120897B00FA9C
S3150800EFB001F10320FEF7FAFB10B132680021517304
S3150800EFC0BDE8F081000000004242387057424242D4
S3150800EFD05742440010B5044600220821F8F7A3F961
S3150800EFE008B1012010BDFFF7FFFC00224FF6FF71A4
S3150800EFF000F034FF217C204600F04CFF6269E1896D
S3150800F000207C01F00AF9DFF808080068007B01286F
S3150800F01008BF0CF085F8FFF729FE002010BD000098
S3150800F02042420000002038B5DFF8E447054620686C
S3150800F030407B002802BFDFF8100900780A2801D0B3
S3150800F040702032BD02F0D8FA002843D12DB1022231
S3150800F0502946DFF8340BF5F760FB00A800F0DFFF60
S3150800F06008B1932032BD9DF8003014221CA103205C
S3150800F070FFF7BEFA00F056FF68BB9DF8000000F0E7
S3150800F080A8FE2068007B012818BF022806D0C01EEB
S3150800F09003280FD2002001F002F858B100F059FFFA
S3150800F0A02068007BC01E032838BF0EF00FF9FFF753
S3150800F0B0DDFD0FE02168132048730020DFF85417A0
S3150800F0C0887405222168897B012000FA01F1052050
S3150800F0D0FEF76CFB002032BDDFF83807407D70472D
S3150800F0E042420000FF222DE9FC41044600F03FF8A9
S3150800F0F00D46017B0129904625D0407B022818BF82
S3150800F100032820D1F8F757F9DFF808777A7E2946D9
S3150800F1100320FEF74BFB060016D13320F8F78AF8D2
S3150800F120FFF741FDFFF768FCF880002C14BF0220AA
S3150800F1300120387407F1080000F08FFF0020B8742A
S3150800F14087F8158000E070260196009523462C2244
S3150800F1500FF20C0100F008F83046BDE8F681000011
S3150800F16042424442000000000320FFF741BADFF89C
S3150800F170A0060068704738B50446FBF73FFF05460A
S3150800F1802046FBF73AFE44192046FEF755FD4FF692
S3150800F190FF5101402046BDE83440FEF754BD70B526
S3150800F1A084B0FFF721FCDFF86C46064620780B2171
S3150800F1B0FBF702FE002100F066FFDFF85456F8F769
S3150800F1C0CAF858B11EB14FF6F870864206DB0CF045
S3150800F1D0C7FF0646286840888642F8D03046FFF7BB
S3150800F1E007FC20780921FBF7E7FDFFF709FC2E68E5
S3150800F1F0307B052813D100F03BFF8DF8080002ABE1
S3150800F200207C00280CBF4FF4804244F20102012002
S3150800F21000904FF48061708805F0CCFA0FE0062064
S3150800F2208DF8080000F024FF8DF80900022300205D
S3150800F2300190009002AA708801210AF02AFC06466D
S3150800F240FF2E08BF002011D0286841883046FBF7FA
S3150800F25010FE207C02281CBF3046FFF78CFF00F00A
S3150800F26044F804463046FBF73DFF204604B070BD1F
S3150800F27070B586B00C4616461D4638B9204608F0C5
S3150800F280E3FD02AA03A906F020F903A807218DF8D1
S3150800F29008100190310A8DF80A1001200A998DF894
S3150800F2A00B1000908DF80960042300F0BBFA06469F
S3150800F2B0FF2E18D02146FBF7DCFD15B93046FFF7BF
S3150800F2C05AFF0B9808B930460DE0204606F029F992
S3150800F2D018B13046FCF702FD01E000F006F83046AA
S3150800F2E0FBF700FFFF2006B070BD00220023114681
S3150800F2F0304609F0A9BC2DE9F64F83B004461E46F0
S3150800F30000274FF6FF7556B14FF0010B30460AF04D
S3150800F31005FC81467078400800F0010A05E0BB4606
S3150800F3201046FBF70DFE8146BA4600F0AFF8C01E40
S3150800F3300328C0F0A2800E98411C9DF81000C9B29F
S3150800F340FCF766F8804608F0020002909DF80C006B
S3150800F35020B95FEA086058BF48F08008FFF707FF42
S3150800F360407B022804D1DFF8E8050078204301D164
S3150800F37002271EE04846FFF7ECFA9DF80C1019B173
S3150800F380651EAD41ED0F00E00025BBF1000F1CBF67
S3150800F390301DFEF751FC012100912B4601464246DD
S3150800F3A0484605F0F0FF05464FF6FF70854208BF50
S3150800F3B00127D6B11CB94FF6FF70854204D1301D1E
S3150800F3C0FEF73AFC014600E0294601200190009725
S3150800F3D053462A464846FFF74BFF029850B94FF660
S3150800F3E0FF71484609F0E2FE04E03A4629464846D7
S3150800F3F007F0ECF8002F40D10298E8B149462846B4
S3150800F40009F0F7FE0E2101FB00F700F03BF8896AC8
S3150800F41079184A7942F040024A7109F01DFFFFF750
S3150800F420A6FE806A38185FEA486241794CBF41F007
S3150800F430800101F07F014171FEB1DFF8AC6C9DF8E7
S3150800F44010003070FFF7D0FA5FEA48610FF22C0C13
S3150800F45048BF0CF1010CBAF1000F18BF0CF1020CF1
S3150800F46002D10CB90CF1040C01469CF800004B467D
S3150800F4702A4610F023F8FF203070B0E00307000496
S3150800F48001050000DFF8881309687047DFF8800374
S3150800F4900068007B70472DE9F04F0446884685B022
S3150800F4A091464046FBF7B3FCDA4D297C824601B10A
S3150800F4B00121D74E8DF804103068007B05280CBF53
S3150800F4C0012700273CB150460AF028FB83465046E0
S3150800F4D00AF017FB05E04046FBF732FD8346DFF8E6
S3150800F4E00C0C03900423002000904A46414602A8CB
S3150800F4F0FBF797FE0DF10900FEF79EFB9DF80B90B2
S3150800F5008046CCB10398DFF8E41B0822F5F74FF9DB
S3150800F510002862D100F08BF908BFB9F1000F0BD1B2
S3150800F5204046FFF765FA0EF0B9FD9923FFF7F0FBA1
S3150800F5309920F5F79FFF50E0F7F70DFF00284CD00C
S3150800F5409DF80400384301D014B946E0002C44D194
S3150800F550B9F1000F03D09420FFF7A7FB3DE0306810
S3150800F5604088594609F045FE09F076FE306841881C
S3150800F5705A46404600F072FC3068417B012916BFA6
S3150800F58031291121432141730220F5F755FFA24F76
S3150800F59040F6B8313846F7F744FD0DF097FE0020DF
S3150800F5A0E8743068C17E19B93846F7F72FFD11E0BF
S3150800F5B034B19AF80110890702D5FFF730FB09E044
S3150800F5C0007B001F022805D205213846F7F729FDDA
S3150800F5D00620E874AD20FFF7B0FAF5F784FE05B00B
S3150800F5E0BDE8F08F2DE9FE4F8046FBF710FC044678
S3150800F5F0FBF752FC05462F194046FBF7FEFB28444D
S3150800F600C5B24046FBF79CFC834638780090F7F76E
S3150800F610C9FE00281CBF0098072816D10098DFF8F5
S3150800F620F4A17B4EEC1C01284FF6FF790ED0022878
S3150800F63014D0042800F0BE80062815D0072863D009
S3150800F640082821D07C2800F07F80DEE00021009584
S3150800F650002342460846FFF74EFED6E02A464146B4
S3150800F6600020FFF718FFD0E0584605F010FF484580
S3150800F67003D00146584606F05AFF00F0D8F802D1E2
S3150800F680584608F09DFEC0E0691C00F0C7F807461A
S3150800F690E1B200F0C4F80446A91D00F0BFF805461B
S3150800F6A04D45F0D00DF012FE3068407B132808D186
S3150800F6B000F04FFC4046FBF743FC0146204609F0A4
S3150800F6C098FD00F0B4F818BF13281CD12846FFF798
S3150800F6D08FF93846FFF794F90021002000F0DAFB8D
S3150800F6E05946204600F0CFFC9AF80300DFF8601A66
S3150800F6F0087000F019F93068417B132903D12321DA
S3150800F7004173FEF7EAF880E000F091F802BFDFF8EF
S3150800F710444A2078002878D1F6F7C6FA05469AF9B9
S3150800F720191001208840C0EB001B1FFA8BF6002039
S3150800F730F5F782FE95FBF6F006FB1050411C89B2E0
S3150800F7402046F7F76EFC60E07878652804BFB8783D
S3150800F7506D285AD16648006818F80000E4B2844259
S3150800F76053D20822594601A8F4F7D7FF00AB002266
S3150800F770214640460AF078F8002846D19DF8000050
S3150800F780FF2842D0DFF8D049DFF85C590120207005
S3150800F79085F80080F5F7F2FC01A89DF80010F8F747
S3150800F7A0BEFBF5F7A8FCFF202870002020709DF806
S3150800F7B0000028E04046FBF7E0FB0446DFF89C091A
S3150800F7C00078FE2809DB4046FBF72BFB000B00F010
S3150800F7D00101204608F083FE17E00FF6D4100088D2
S3150800F7E0ADF80800022300200190009000F01AF8F6
S3150800F7F00546FF2D09D02146FBF73BFB002128468D
S3150800F800F8F754FF2846FBF76DFCBDE8F78F0000B4
S3150800F8109CF9002044F4002060FD0020C9B240464F
S3150800F820FBF7B2BE02AA012120460AF032B93068B7
S3150800F830407B0228704770B50220F5F70CFEF5F7F5
S3150800F8402AFCDFF81C59DFF81C6900202870FCF731
S3150800F8504EFD28B13068C07E10B9FFF7E0F93EE0EA
S3150800F860DFF80449FCF743FD10B9F7F774FD58B102
S3150800F870E07C48B1C8212846F7F7D3FBE07C401E58
S3150800F880E074F8F748FF2AE03068407B132809D06F
S3150800F890F7F761FD30B93068407B11281CBF432853
S3150800F8A0412803D1207DFFF700FA18E0022818BF87
S3150800F8B0032803D0002818BF212810D10024DFF818
S3150800F8C0AC5808E02046F5F7E6FB002000F010FCEF
S3150800F8D0F5F711FC641C2878E4B28442F2D3BDE83B
S3150800F8E07040F5F708BCDFF880180020C874704728
S3150800F8F080F2002080B50020F5F7ADFDF5F7CBFBCB
S3150800F900DFF8501800200870DFF858080068417BB7
S3150800F910022905D1007BC01E032828BF06F0A6FED3
S3150800F920BDE80140F5F7E7BB80B5F5F734FDFF28DC
S3150800F93004D00748007810B1012000E00020DFF865
S3150800F9403018087001BD000060F4002000F8FF07B9
S3150800F95054FD00202DE9F04F0446DFF8180800682A
S3150800F9608DB0205C00902046FBF748FB0646B01D8C
S3150800F970FEF762F9074606F10900FEF75DF98146CA
S3150800F98006F10B00FEF758F9ADF80A0006F10D006E
S3150800F990FEF752F98346C00B8DF80800F7F702FD0B
S3150800F9A018B1204602F09CF8EAE008A92046FFF7BD
S3150800F9B007F908AEDFF8AC57B078C0F3C300039078
S3150800F9C0707800F00F0A009820282868407BACBFA2
S3150800F9D09DF82E804FF00008022812D1FFF70CF888
S3150800F9E081450ED104A800F038FB00981C2806DBD8
S3150800F9F008220DF1230104A8F4F7D9FE08B100F096
S3150800FA0040FDB7F5004F02BF2BF4404040F6FF71AA
S3150800FA108842C9D100981C28C6DB002208210DF1AE
S3150800FA202300F7F780FC002839D1DFF84C07007867
S3150800FA30012830D19DF808000FF26C710090CDF8BE
S3150800FA4004A04B462722FFF78FFBDFF83007007824
S3150800FA508DF81200ADF810908DF81CA08DF81D8059
S3150800FA6008229DF808008DF813000DF1230105A85A
S3150800FA70F4F753FE2868DFF87076407B01281CBF30
S3150800FA8033283C70F5F77AFB04A8F8F76CF8FF20E2
S3150800FA903870F5F730FBDFF8D076B87C00286FD1E0
S3150800FAA0F7F759FC00286BD001207874002208214A
S3150800FAB007F10800F7F737FC10B1F888814508D038
S3150800FAC008220DF1230107F10800F4F770FE00285B
S3150800FAD056D19DF8080028B92868407B312818BFF8
S3150800FAE033284DD101215046FFF714F8002847D096
S3150800FAF09DF82000002802BF7078000902283FD12F
S3150800FB002868017BB278022902D1500709D437E068
S3150800FB10120606D405291EBF4088BDF80A10884279
S3150800FB202ED13878DFF85856DFF85866FF2813D0F4
S3150800FB30787980450BD197F9020096F9001088422A
S3150800FB400ADB1DD178782978884205D318E0A8EB16
S3150800FB500000C0B2812813DAFFF725F83C7020466A
S3150800FB60FBF7B2FA287878703078B87003980F28BF
S3150800FB70B4BF401C0F20F87087F804A087F80580EA
S3150800FB800DB0BDE8F08F000068FD00202DE9FF41AB
S3150800FB900546DFF8D44501200E461746A074FEF741
S3150800FBA012FB002813D1A846B8F1010F18BF002D83
S3150800FBB00ED1009733462622B5A1FFF7D5FAF5F7F9
S3150800FBC0DDFA39463046F7F7EEFFF5F794FAA4E082
S3150800FBD0F7F7E8FB28B13A463146284601F070FEA9
S3150800FBE09BE0DFF880552868407B23280BD1F7F780
S3150800FBF011FB0446F7F712FB21460FF046F80220E0
S3150800FC00F7F718FB89E0002FFCD121281CBF042830
S3150800FC10532802D10CF012FD7FE0F7F79CFB002871
S3150800FC205BD02678FF2E05D1607C00280CBFAB2060
S3150800FC30942066E02868007BC01E03288941207945
S3150800FC40C90FFEF767FF08B998205AE0F6F7F2FDE4
S3150800FC5005213046FBF7CBF829688873F5F743FB8F
S3150800FC60207C68BB2868007B052829D000F000FAAC
S3150800FC70074609213046FBF79FF880460B21304698
S3150800FC80FBF79AF83A46414606F085FCE0B9942017
S3150800FC90FEF753FF0220F5F7CFFB2968DFF8C0040B
S3150800FCA04A7B012A07D0312A18BF332A0ED1097B8D
S3150800FCB0091F02290AD2C821F7F7B3F903200AE077
S3150800FCC0FFF76DFA0028E2D194201AE04FF4167176
S3150800FCD0F7F7A7F90020E0741FE02868407B13288F
S3150800FCE015D100F017F9BDF80000FEF789FE00F0FF
S3150800FCF030F92868017BC91E032905D233214173CF
S3150800FD009620FEF7D2FF08E0FEF7B0FF05E0B8F14F
S3150800FD10020F04BF30460FF0F2FA4FF4006005F008
S3150800FD209FFA10B908F0E1FF08B1F6F731FFBDE810
S3150800FD30FF811FB5044600208DF80000FFF717FA6B
S3150800FD40007840F020008DF80100F7F72BFB18B17A
S3150800FD50204601F0F1FC3AE00DF1030000F07DF9D0
S3150800FD600322FF210DF10B00F4F71AFD00F03FFA0C
S3150800FD708DF80E00DFF81014DFF8E003DFF80C2426
S3150800FD800078DFF80C34097812781B78FE28A8BFAB
S3150800FD900020091A9B1A9042B4BF101A0020DFF8F7
S3150800FDA0B0231278DBB2C0B2D200C018C9B242F092
S3150800FDB004028842B8BF42F080028DF8022000A9EA
S3150800FDC00F222046FBF797FA401E8041C00F04B069
S3150800FDD010BD38B5DFF88C5304462868017BA1426C
S3150800FDE003D004732046F5F7FDFB24B12868007B91
S3150800FDF0001F022805D2F5F7EAFAFF2808BF0120F6
S3150800FE0000D00020BDE83240F6F75EBD38B50D4695
S3150800FE100446E87A0B38102801D38A2032BD95F9B2
S3150800FE200A00F7F7A4FA08B18B2032BDCD48E97A63
S3150800FE30026891730068A97AC1732046FEF7D8FD57
S3150800FE404FF6FE7084420CBF4FF6FF702889FEF706
S3150800FE50D7FD2889C449C880002032BD38B50C466C
S3150800FE601546FEF7C5FD0CF04FF92946204600F069
S3150800FE700AF9BD480178FF2918BFC07805D1FFF7F0
S3150800FE8005FB01280CBF00200120B149087031BDCF
S3150800FE90424242007FB504460D4600F03BF8B14E9B
S3150800FEA094B1BC4A0021284600F0B7F930680178B9
S3150800FEB08DF804100822007B8DF80500214602A85B
S3150800FEC0F4F72BFC0EF0DCFB3068817B8DF8031011
S3150800FED0C07B8DF80200FEF78FFDADF80000FEF737
S3150800FEE083FDADF8060000F017F87FBD1FB5044680
S3150800FEF000F010F81CB100208DF8050007E0FEF7A9
S3150800FF0073FDADF80600FEF777FDADF8000000F0CA
S3150800FF1003F81FBD00A833E01023072200A900201C
S3150800FF2002F0FBBC00B58BB0FFF7F4FFBDF800008C
S3150800FF30ADF8180004A99DF803008DF81B009DF87C
S3150800FF4002008DF81A00BDF80600FFF75FFF0BB038
S3150800FF5000BD1FB5012000F0A2F804460EF09BFB79
S3150800FF60FFF7D8FF1CB900224FF6FF7103E0FFF731
S3150800FF70FEF84188021DBDF80600FFF76FFF1FBD9A
S3150800FF80014610230722012002F0C7BC38B5082015
S3150800FF90F5F761FA0446F5F77EF8724D7E4829684A
S3150800FFA000788873F5F736F9A04208BFF5F754F9D3
S3150800FFB000210020FFF76EFF9B23FEF7A9FE9B207A
S3150800FFC0F5F758FA28680021A0F84410A0F846105A
S3150800FFD0BDE83140F5F78FB880B5A0F10B011029BF
S3150800FFE001D38A2002BDFFF74DFA497B022918BFC3
S3150800FFF0032901D0702002BD674908700820F5F76B
S315080100001BFA00216548F8F7DBFB20B1012808BF78
S31508010010FFF7BCFF01E0A12002BD002002BD1FB50C
S315080100200446F7F7BFF918B12046F7F79AFA12E02E
S3150801003000A8FFF7A5FF9DF8050040B1062806DAD6
S31508010040FFF720FA9DF804200978914201D0932000
S3150801005001E02070002004B010BD1FB5044600A8B9
S31508010060FFF78EFF082202A92046F4F756FB1FBDAB
S315080100704B48007800B140203A4A4A491268127B37
S31508010080515C08437047374A1368588019B90822E2
S31508010090181DF4F785BB0822181DF4F73EBB10B5E9
S315080100A004462F48007AC00784B011D50A230A22CC
S315080100B000A9012002F031FCBDF808004FF6FF71D6
S315080100C0884205D00822FF2100A8F7F72CF908B1C4
S315080100D0002006E024B1BDF8080000A9FFF7D3FF08
S315080100E0012004B010BD000018F40020C4F9002056
S315080100F070B51B4D0446287AC00784B00CD5194E35
S31508010100306841884FF6FF72914207D100220821D3
S31508010110001DF7F708F908B1002017E044B10220DD
S31508010120F5F78AF94FF4F0412846F6F77AFF0CE01D
S3150801013030684188ADF808100822011D00A8F4F7B7
S31508010140ECFA0A230A22FFF7E9FE012004B070BD82
S31508010150E6FF00206CFD00201CFC0020A0FF00200B
S3150801016060FD00209CF9002044F40020CCF2002018
S31508010170DDFF002080F2002060F40020DAFF002075
S31508010180D8FF0020D9FF00200EF300207DFF0020B4
S315080101907CFF002000F8FF07DBFF00208DFF000829
S315080101A0125D0208C0580108425742420000000089
S315080101B004600000DFF84013002008714FF6FF7055
S315080101C0CE490880704730B583B004460D460823EA
S315080101D0092200A9012002F0A0FB14B19DF806002E
S315080101E020700DB100982860BDF804003EBD80B5A9
S315080101F0002100A8FFF7E7FF9DF8000002BD10B532
S3150801020082B0044600A90020FFF7DDFF009A0146E7
S31508010210204600F002F8204616BD00B583B08DF8D9
S315080102200600ADF8041000920823092200A900204F
S3150801023002F073FB07BD2DE9F04786B0804609F049
S315080102404EFC0546AE48006818F80090002000905C
S315080102500A232A46414602A8FAF7E3FF9DF8080051
S3150801026005F10A0409280CBF012500259DF8090096
S31508010270E021084268D100A8FFF7EFFE08220DF138
S315080102800A0100A8F4F793FA00285DD1002D4ED093
S3150801029000F01AF9002857D0984D28884FF6FF7AAA
S315080102A050451CBF4FF6FE7188424DD1924F954974
S315080102B038780978001D3870491E8900C0B2814214
S315080102C042DA00203870F5F7EFFC2880264607E069
S315080102D031464046FBF758F929888842F3D0B61CBF
S315080102E0F6B2A9F101008642F2DB2888002818BF78
S315080102F05045E8D0FEF780FB29888142E3D0FFF715
S3150801030076FF401CC0B2FFF77AFF01462A880A2009
S3150801031000F050F840B14FF47A71381DF6F781FEB6
S315080103200C20F5F789F80FE0A5F800A00CE0E1B27A
S315080103304046FBF76DF8FFF762FF611CC9B24046FC
S31508010340FBF722F900F07FF87AE06B48017809B1EA
S31508010350491E0170704738B56749002008710C209D
S31508010360F5F779F8F4F797FE67480068407B0228A5
S3150801037018BF03281AD1614C20884FF6FE724FF632
S31508010380FF7590420CBF2580A8420FD0FEF738FBB7
S31508010390258000210020FFF77DFD9A23132255A110
S315080103A00320FEF725F99A20F5F764F8BDE83140F0
S315080103B0F4F7A1BE2DE9F04705460026092D0C469E
S315080103C00CBF01270027002186B091460846FFF792
S315080103D0FAFE8DF80850804602AD012068700DF1CD
S315080103E00A00FFF73AFE0DF1120A17B9AC720DF1C0
S315080103F0130A49465046FDF726FC0AF102000FB9D1
S315080104004FF6FF7802A9431A01960096DBB202AAB3
S315080104106421404609F03DFB0446FF2C0FD03FB14D
S3150801042000F052F820B12046FFF705FF012603E048
S315080104302046FBF769FF06462046FAF753FE304683
S3150801044006B0BDE8F08738B504464FF6FF75AC42ED
S3150801045016D0FEF7D1FA844212D028480188A9425B
S315080104601CBF4FF6FE7291420AD104804FF47A718D
S315080104702648F6F7D6FDBDE832400C20F4F7DCBF76
S3150801048031BD21480068007B001F022800D2704751
S3150801049038B51A4C20884FF6FF71884213D1FEF7FA
S315080104A0ABFA05464FF470411848F6F7BAFD0C2029
S315080104B0F4F7C2FF4FF6FE7020802A46BDE83840A1
S315080104C00021092076E731BD10B50F480068007B89
S315080104D0001F02280AD3FEF787FA044600210020E6
S315080104E0FFF771FE844201D1012010BD002010BD25
S315080104F0000000004242000014FD002036F40020EE
S3150801050080F2002016F300209CF9002018FD002037
S3150801051080B5F6F7D2FE58B1F6F744FF40B1DFF8D9
S3150801052008040078002818BF022801D1012002BD5D
S31508010530002002BD2DE9F0418CB004460D46FFF7B7
S31508010540E7FF00283BD0DFF8E4030078844228BFA0
S31508010550B12048D22346302000FB03F8DFF8D073D8
S3150801056055B93222AAA10320FEF742F83968414457
S31508010570002081F82C0032E005F118063022F07DC2
S315080105800FF2B4310B90B07D0A90707D0990307DE1
S315080105900890F07C07907089069030890590F0885C
S315080105A00490B0880390A8690290009505F110009F
S315080105B001900320FEF71CF8F07C082801DB702067
S315080105C011E03868302229464044F4F7A6F838681D
S315080105D0404490F82C1001F0EF0180F82C102046C9
S315080105E000F0BDF800200CB0BDE8F08138B505462D
S315080105F00C462B46312286A10320FDF7F9FFFFF7AA
S3150801060087FF002818BF002C01D1702032BDC748CA
S315080106100078854201D3B12032BDC5480068302132
S3150801062001FB050130222046F4F777F894F82C00EF
S3150801063000F00F0084F82C00002032BD10B5002010
S31508010640BB49BA4A07E00B68302404FB003300248F
S3150801065083F82C40401C1378C0B29842F3D3BDE806
S31508010660104064E02DE9F0470446884616460027FF
S31508010670AF4DDFF8B89205E02188008C814219D088
S315080106807F1CFFB299F8000087421CDA302000FB74
S3150801069007FA2868504490F82C1001F00301022942
S315080106A0EED1F107E8D4082221461030F4F77FF895
S315080106B00028E5D128685044C08B804501D0B00791
S315080106C0DED4384600E0FF20BDE8F087002000E0D0
S315080106D0401C96490978C0B288420AD294490968E9
S315080106E0302202FB0011032291F82C101142EFD19E
S315080106F07047FF20704730B5302250438C4A136843
S31508010700C31893F82C4004F01005012D05DB93F866
S315080107102F508D4201D1002030BD44F0100483F8DA
S315080107202C401268801880F82F10012030BD002057
S315080107307E490CE07E4A1268302303FB0022401CE6
S3150801074092F82C3003F0EF0382F82C30C0B20A7805
S315080107509042EFDB4FF420517648F6F762BCF0B5CC
S3150801076004463020724E00FB04F5306828188BB019
S3150801077090F82B00082804DBBB210FF2D010F5F7FF
S3150801078093F92A22FF2100A8F4F70AF830682818F5
S3150801079000F11C010A7C02F00302022A2FD1828B86
S315080107A0ADF8182006AF497CF973082200F110014B
S315080107B004A8F3F7B2FF30682918C88B788001F1CD
S315080107C01E004288BA80827B037C02F00802012A55
S315080107D0ACBF802200221A433A74807B00F00400E1
S315080107E0012803DB102200A8F3F797FF30682818C1
S315080107F000F1240190F82B2008A8F3F78EFF2A238D
S3150801080000AA21461A20F9F795FA0BB0F0BD0000A7
S31508010810424200002DE9F0438BB0002406AD444E58
S31508010820DFF808913CE03168414447F0060081F859
S315080108302C001022306800A94044F3F76EFF306897
S31508010840BDF81810404408228183E97B80F82D10F1
S3150801085004A9306840441030F3F75FFF30686988AF
S315080108604044C1831E30A9884180297C0174002037
S3150801087031684144886100A9411891F82010FF297F
S3150801088008D0326842448218401CC0B2072882F850
S315080108902410F0DB3168414481F82B00641CE4B272
S315080108A099F80000844227DA2A2322461A2100A849
S315080108B0F9F71AFA302000FB04F8E87BFF2805D17E
S315080108C031684144002081F82C00E7E7287C0106BD
S315080108D000F00F0028744CBF08270027FF221021BB
S315080108E000A8F6F720FD00289DD03168414447F05D
S315080108F0020081F82C00A2E70BB0BDE8F08370B5C1
S3150801090000240B4D094E0AE02868302101FB04003A
S31508010910002180F82C102046FFF721FF641C30784F
S31508010920E4B28442F0D370BDB8FD0020E0F20020A5
S31508010930DCF200201CFE0020424231367038704439
S315080109405757575742424242420000007266346383
S31508010950652D70616972696E672D7461626C652EA9
S31508010960630000002DE9F64F85B0824699460024BA
S31508010970DFF8047700E0641CDFF800070078E4B2CA
S31508010980844206D2386800EB0410007AFF28F2D1B7
S3150801099000E0FF24BDF81800DDF840800FF2F86189
S315080109A00190CDF80C80CDF8089053469DF81400B7
S315080109B0009036220320FDF71BFE5FEAC97006D4B4
S315080109C0DFF8BC060078824528BFB1203CD2F6F78D
S315080109D00CFFC0B3302000FB0AF00090DFF8A466D4
S315080109E00099306808185FEAC97105D490F82C1087
S315080109F001F00301022926D109F00103012B09F0AF
S31508010A00080209F0040106DB0129BEBF09F0020349
S31508010A10012B012A17DA012A05DB90F82C2002F0AE
S31508010A200402012A0FDB09F02002012ADFF858B671
S31508010A300BDB012907DB9BF80010C90703D590F8E2
S31508010A402E00000701D4702063E0FF2C60D0119DB1
S31508010A504946504600F060F8A84238BF742058D37A
S31508010A605FEAC97015D49BF80000C0070BD430683B
S31508010A7000990818808BFDF7BBFF306800990818A4
S31508010A80C08BFDF7BDFF30680099081890F82D60F6
S31508010A9002E0DFF8F805067812989DF814300190FF
S31508010AA002954A46BDF81800009051463046FAF7B5
S31508010AB043FE8346BBF1FF0F08BF182029D0002249
S31508010AC00023114608F0C0F8F8B13868250128183E
S31508010AD080F808B03868281880F809903868281806
S31508010AE086723868281880F80BA0012039686918B9
S31508010AF00873F4F7F4FD39686850681880F80D80B2
S31508010B00002039686918486003E05846FAF7EAFA96
S31508010B10662007B0BDE8F08FF0B50C4604F0010178
S31508010B208DB081F001066E252EB100A9FFF75EFD95
S31508010B3008B1002033E0DFF85075397801F001017A
S31508010B4081F001010E4214BFBDF81E00FDF754FFE6
S31508010B50397801F00101314308BF682566B19DF86E
S31508010B602E10C90703D504F00201012901DBAD1FC7
S31508010B70EDB2BDF81E1001E04FF6FF7188421CBFA9
S31508010B80AD1EEDB204F040000128A4BFAD1EEDB2C2
S31508010B9004F008000128A4BF2D1FEDB228460DB0A8
S31508010BA0F0BDF8B504460025DFF8CC64DFF8CC744F
S31508010BB010E0002C1FBF306800EB0510007AFF28F3
S31508010BC018BFFAF78FFA316801EB0511FF206D1C82
S31508010BD00872EDB238788542EBDBF1BD38B5DFF83E
S31508010BE09854040128682018406820B903F07CF855
S31508010BF029686118486028682018406832BD2DE9BF
S31508010C00F047A0B0804600AA0021FAF74AFE04463A
S31508010C1000AA042100F0C8F8064604F44040B0F5DD
S31508010C20404F4FF6FF7A00AA14D100F0BCF84046AF
S31508010C30FAF7E4F99DF800100918082201A8F3F754
S31508010C406CFDB6B2564507BF002200210222314685
S31508010C5001A807E000F0A7F8ADF802000322B1B237
S31508010C600DF10200FFF7FEFC044600F0A5F8054663
S31508010C7000F0A2F8814600F068F90006870F002601
S31508010C8000F063F9400748BF08260FB146F0200671
S31508010C9000F08DF84FF44061084218BF46F002068D
S31508010CA009D1002203214046FAF7FBFD80B25045DF
S31508010CB008BF46F0010600F07AF8800648BF46F0FC
S31508010CC0040600F042F900F032F908BF46F0400682
S31508010CD0A246BAF1FF0F63D0E9B22046FFF70BFD32
S31508010CE000285DD000F031F9400705D52146404678
S31508010CF002F008FC002853D0DFF888030068302189
S31508010D0001FB0A00806948454AD2DFF87C0300786E
S31508010D1000F0080001280BDB57B13846FAF7EBFE5D
S31508010D2000F019FD00F0D1FC0221D948F6F779F94E
S31508010D3003A94046FAF780FE0546F4F71FFA00F0C4
S31508010D4004F900F0F4F803D100F0FAF8814601E05D
S31508010D504FF0000900F0EFF8014603A8019000954D
S31508010D6033461FFA89F2C9B22046F7F76AFB00F043
S31508010D70ECF800F0DCF803D100F0E2F884B200E008
S31508010D80002400F0D8F8C0B20090029601945346A8
S31508010D9038220FF20C310320FDF72AFCF4F7ABF9E0
S31508010DA020B0BDE8F08705214046FAF77ABD002252
S31508010DB000214046FAF775BD002207214046FAF799
S31508010DC070BD2DE9F04FA1B00F46804605A9FAF787
S31508010DD033FE0446404600F0C4F80546FF2D05D10A
S31508010DE040F275110FF2C020F4F75EFEA24E30688C
S31508010DF04FEA0519484490F809A0F4F770FC3168E0
S31508010E00DFF880B259F80120801AA0F57A70A14A54
S31508010E1090428041C00F5FEACA6225D45FEACA726E
S31508010E20494417D40AF00402012A13DB27B1D8B9B9
S31508010E3000F079F8B8B173E0DBF80000CA7A897A6C
S31508010E40302303FB020090F82D2091420CD000F0CC
S31508010E5081F809E0087B032808BF002704D000F0C1
S31508010E6062F800285CD1662730684844417A01F067
S31508010E702001012909DBDBF80010C07A302202FBC8
S31508010E8000108249097800F065F8F4F777F900F05F
S31508010E905CF800F04CF803D100F052F8054600E082
S31508010EA0002500F048F8316805AA494403920294DE
S31508010EB003464A7B0192002FAAB200920CBF00207A
S31508010EC066204A7AC97ADBB2F7F7D3FA00F03DF819
S31508010ED000F02DF803D100F033F884B200E00024C5
S31508010EE000F029F831684944C0B24A7B0492039458
S31508010EF00290002F487A01900CBF00236623C87A16
S31508010F000FF2B411009037220320FDF771FBF4F7B5
S31508010F10F2F84046FAF7E6F831684944FF200872C4
S31508010F2021B0BDE8F08F224605A928463FE000F02A
S31508010F30030003287047002208214046FAF7B1BC8E
S31508010F40002209214046FAF7ACBC00220621404698
S31508010F50FAF7A7BC80F82D1030684844C07AFFF725
S31508010F60FEBB002100E0491C444A1278C9B29142ED
S31508010F7008D2414A126802EB0112127A8242F2D170
S31508010F8008467047FF207047002000E0401C3B4997
S31508010F900978C0B2884208D23749096801EB0011BD
S31508010FA0097AFF29F2D000207047012070472DE900
S31508010FB0FE4F314F4FEA001B386858440C4690F8EB
S31508010FC00880807A9246F6F7FAFB814638685844D3
S31508010FD0417AC90715D42C490978C90711D4294E6C
S31508010FE0C07A3168302505FB0010808BFDF700FDBE
S31508010FF0396830685944C97A05FB0100C08BFDF789
S31508011000FFFCFFF7A2FFFFF792FF03D1FFF798FF57
S31508011010054600E00025FFF78EFF03463868CDF840
S3150801102008A00194A9B258440091DBB2427AC17A68
S315080110304846FAF781FB0446FF2C08D00123002213
S31508011040002107F001FE20B92046FAF74BF80020E7
S315080110500FE04046FAF746F838685844047238688B
S31508011060584480F80A9038685844017B491C017332
S315080110700120BDE8FE8F0000E4F20020E8F200201E
S31508011080E0F20020DCF2002008F4002009F4002038
S31508011090A4F9002001000080424242574242000062
S315080110A0424242574200000072663463652D64610C
S315080110B074612E63000000004242424242574200D8
S315080110C02DE9F04383B00D46164680460196434600
S315080110D028880FF2C8010090392200F05DFADFF87E
S315080110E0787C3868407B40B93DB1DFF8700C0078F0
S315080110F00A2802D1F4F797F908B170204BE039684C
S31508011100032008704FF6FF743868C6730F203968D4
S3150801111088732046FDF76CFC2046FDF771FCDFF865
S31508011120400CDFF8409C06705FEAC87089F80080B9
S315080111304CBF06200720FEF74CFE0A222946DFF897
S315080111408C0DF3F7EAFAFFF7DAFB99F80000C00706
S3150801115015D4DFF8140C0480DFF8100C04800F2076
S3150801116000F0F9FAF4F778F838B902F0D6FD00F08C
S31508011170ACFA0220F6F75EF80CE001200BE03968BC
S315080111800120487301F041FA0622DFF8441D0220C6
S31508011190FCF70CFB0020BDE8FE83000042425742E3
S315080111A00000000010B51820F4F755F90446F3F7C6
S315080111B072FF00F08FFC04D1DFF8180D0078844225
S315080111C002D3BC2101F0BFF900F0A7FA0020FEF70F
S315080111D000FEFBF767F80020F6F72CF8F3F78BFF0C
S315080111E0BDE81040F4F77FB880B53A22AAA10320DA
S315080111F0FDF7FEF9F6F7F9FA08B9702002BD07F00E
S3150801120079FD0120FFF7CDFCDFF84C1B09680420A6
S315080112104873DFF8480B00780A2802D0FCF75DFB13
S3150801122007E01820F4F708F90121DFF8AC0CF7F705
S31508011230C7FA002002BD2DE9FF410A9C06460F4662
S3150801124090461D4603940295CDF8048000973346CF
S315080112503B220FF2980100F09FF9F6F7C6FA58B14A
S315080112600B9A082A08DA0C99002918BF002A03D014
S31508011270002D18BF002C01D1702034E0DFF85C0C7A
S315080112800680631E80F8333047800023058680F880
S31508011290348080F83F3080F83C203530F3F73DFA4A
S315080112A0DFF8C04A2078C0075CBF4FF6FF70FDF72C
S315080112B0A7FB207801F0B7F8A6BFDFF8240C04785D
S315080112C00F24204601F0CDF968B9DFF8180C00683B
S315080112D08473032001F099F91620F4F7ADF829462D
S315080112E000F01FF8002004B0BDE8F08142575742CC
S315080112F05742000010B5044623463F22BDA101F01E
S31508011300CBF8F6F772FA08B9702010BD0A2001F079
S315080113107CF91620F4F790F8214600F002F800202F
S3150801132010BDDFF8C40BF5F77CBE2DE9FE4F044668
S315080113300D4691461F46A0460297CDF804900095A2
S31508011340234641220FF2F80100F026F9F6F74DFA85
S3150801135008B970205DE00F2C18BF142C03D0192C86
S3150801136018BF8A2055D1002200214846FFF77AF98D
S31508011370DFF8686B86F83E00FF2805D1FFF7A6F966
S3150801138086F83E00002000E0012086F83F0096F826
S315080113903E00FF2808BFB4203BD086F8324035808E
S315080113A086F83D7008224946301DF3F7B6F9DFF88D
S315080113B0B4090078C0075CBF4FF6FF70FDF720FB44
S315080113C0DFF8A00901F02EF8A6BFDFF89C0903880B
S315080113D04FF6FE73009742462946484601F0CBFB75
S315080113E08246BAF1FF0F08BF182012D00022002347
S315080113F0114607F029FC83465046F9F773FEBBF1FF
S31508011400000F08D14046F6F7DAF98046A045D7D14C
S315080114106620BDE8FE8FDFF8CC0A006880F80E80EA
S31508011420062001F0F2F81620F4F706F86421FFF712
S3150801143078FF96F83F000028EBD0C120E9E70000C5
S31508011440424257387042000010B5044623464422EA
S3150801145001F021F8DFF8940A0078844201D3B1201B
S3150801146010BDF6F7C2F928B100F08AF801F00301B8
S31508011470022901D0702010BDDFF8601A81F83E40BC
S3150801148090F82D0001F01CF9040004BF0C2001F0AE
S31508011490BCF8204610BD0000420000002DE9F041CD
S315080114A088B01F460E9C039405460E469046029741
S315080114B0CDF8048000962B4648220FF2540100F01D
S315080114C06BF8F6F792F970B100F075FEC0070AD508
S315080114D0212D08DADFF8780DA5B126B1B54202D378
S315080114E00FB10F2C01DB70200FE00021016005719F
S315080114F0467180F8068007818472B9021030F5F7C3
S3150801150090FD01E000210174002008B0BDE8F081DA
S31508011510424242425742000038B504460D460095FC
S31508011520234635220FF2500100F036F8DFF8BC09E0
S315080115300078844201D3B12032BDF6F756F980B15D
S3150801154000F01EF801F00302022A0AD1DFF8142876
S31508011550127802F00402012AA4BF01F0040101294C
S3150801156001DA702032BD10222946F3F7D6F8204653
S31508011570FFF7F5F8002032BD42423136700000000F
S31508011580DFF8D00C0068302101FB040090F82C101C
S315080115907047DFF8C40C00900320FDF729B810B591
S315080115A004462346492200F076FFDFF8A40C44736B
S315080115B0002010BD80B5DFF8AC17042008704FF67F
S315080115C0FF70DFF8A4170880DFF8A01708800F203E
S315080115D000F0C1F80A22FF21DFF8F008F3F7E0F876
S315080115E0DFF83C0E1A22FF21F3F7DAF8FFF726F89F
S315080115F0002002BD425700002DE9F04385B01223B1
S31508011600192200A9012001F088F9F3F797FD9DF841
S315080116100010814218BF00204ED1DFF83C47DFF8A1
S3150801162044972168DFF83867DFF83C77DFF83C57DD
S31508011630032008709DF802009DF80180307089F832
S315080116400080BDF804003880BDF8060028809DF8A2
S31508011650030000F080F85FEAC8704CBF0620072037
S31508011660FEF7B7FBDFF86408BDF8081020F8021B7F
S3150801167007220DF10A01F3F750F8FFF7CBF838887E
S31508011680FDF7B6F92888FDF7BBF9DFF85408216894
S315080116900078887321683078C8730220F5F7CAFD87
S315080116A0F3F721FE99F8000000F0BDFE03DB00F018
S315080116B0C9FF00F0CFF8012005B0BDE8F083DFF8D7
S315080116C0901B497B01700020704700B585B0F3F780
S315080116D035FD8DF80000122300F06DFD8DF801002F
S315080116E01922DFF874060068C07B8DF8020000A98C
S315080116F0DFF8EC0700788DF80300DFF86C06008840
S31508011700ADF80400DFF864060088ADF80600DFF8D6
S31508011710BC070088ADF8080009E000B585B01222BB
S31508011720FF2100A8F3F73CF81223192200A900208B
S3150801173001F0F3F805B000BD80B5CE218DF8001093
S31508011740022201218DF8011000A9F9F7D4FD401EE6
S315080117508041C00F02BDDFF888170A7808708242F7
S3150801176003D0DFF89C1D0020086070472DE9F0437F
S31508011770DFF8DC4A0020207685B01620F3F76BFEE9
S31508011780F3F789FC207BDFF85487DFF85867C11E19
S31508011790022908F1300505D9C91E32D0091F0129C8
S315080117A03AD952E03068807BF6F709F88146207B02
S315080117B0032808BF042710D0042808BF05270CD022
S315080117C00327052809D1E87828B9E87B00280CBF42
S315080117D0C320002012E0401EE870484600F041FF91
S315080117E060B9306880F80E90384600F00EFFB8F8F8
S315080117F0301004F11800F5F714FC26E000F079FF23
S3150801180023E0DFF8DC06316800788873F3F76BFDAF
S31508011810C02000F089FF18E004BF287CF9F762FCB4
S3150801182000F0BFFAF3F7AAFC00F0B3FAC320F6F703
S31508011830CAFDFF2004900390C32300F0A3FA0FF218
S315080118403051FFF7A6FEF3F756FC05B0BDE8F043A5
S31508011850F3F751BC38B5DFF80C050FF6F44400F080
S31508011860E1FD04DA40F2D9212046F4F71DF9DFF843
S31508011870E0592889810205F11000F5F7D2FB287B8A
S31508011880E8B9022000F0C1FEF3F7A1FDF3F703FC66
S31508011890F5F788FD20B940F2E9212046F4F704F965
S315080118A0DFF83C16AA7A91F90010012000FA01F135
S315080118B00220FBF77BFFBDE83140F3F71CBC31BDC5
S315080118C02DE9F84FDFF888790FF6844A0546387B03
S315080118D0012818BF02280E46144606D000F0FAF869
S315080118E006D040F2FA2100F0F2F800F0F3F806D13A
S315080118F0BDE8F44F0121DFF8E005F6F761BF397B52
S3150801190028460129DFF8D895DFF8B05D40F09780C1
S31508011910002C40F089800228DFF8084E35D1FF2EC9
S315080119202AD02868305C032803D040F2173100F02A
S31508011930CEF800F0C8F847B2012100F0C5F845B263
S31508011940022100F0C1F840B2BD42A4BFB8420F203F
S3150801195004DAAF42A6BFA84214201920FFF7FBFEFE
S315080119602078FF2803D04FF44A7100F0B0F801201F
S31508011970F9F74FFBFF28207056D0BDE8F84F06222D
S31508011980DFF84C150320FBF711BF0328DFF8606564
S31508011990DFF8D8834CD1F4F787F94FF6FF7A50452B
S315080119A03080F8D0F4F780F9A8F80000002713E092
S315080119B0791CC9B2F9F72CFD834620783946F9F71F
S315080119C027FDB8F8001000EB0B2080B2814218BF42
S315080119D05145E7D0B81CC7B220782A68825C97427D
S315080119E0E6D3F9F77FFBFF2020703088FDF700F872
S315080119F0B8F80000FDF704F8DFF89C1D99F8000017
S31508011A0009688873F3F728FC70B902F086F9FFF7BD
S31508011A105CFE00F017FEFFF71DFF00F0C2F9022079
S31508011A20BDE8F24FF5F706BCBDE8F14F00F0F1BD90
S31508011A305046BDE8F44F40F26B31F4F735B8022849
S31508011A4003D040F2723100F042F8FF2E04D1BDE80E
S31508011A50F24F002000F0D9BD2868305C012803D078
S31508011A6040F2793100F033F800F09BF900F02BF8D9
S31508011A703A6897F906300021520040B28342B8BF4E
S31508011A8042F001023A60002005E03A68C240D207F6
S31508011A9048BF491C401C3A79C0B29042F5D37879BF
S31508011AA0C9B281420DD30020386099F80000F5F7D4
S31508011AB086FEFFF750FEFFF708FEBDE8F14FF3F784
S31508011AC012BCBDE8F18F00213046F9F7A1BC50469A
S31508011AD0F3F7EABFDFF8C00C0068407B04287047BB
S31508011AE080B5F9F78BFADFF86817097B012909D15F
S31508011AF000F10901DFF82C0C0078BDE80840022244
S31508011B00F9F7F9BB01BD2DE9F04A9FB08346F5F710
S31508011B1093FE002860D1F5F781FEDFF83447617B33
S31508011B20884259D30A22002108A8F2F739FE1A2257
S31508011B30002110A8F2F734FE0DF1150205215846C9
S31508011B40F9F7AFFE5846F9F759FA9DF8151009182D
S31508011B50082206A8F2F7E1FD0DF115020C215846F7
S31508011B60F9F79FFE9DF81510481C8DF81500584683
S31508011B70F9F74EFC05460DF1150208A9584600F07D
S31508011B8044FE0DF1150210A9584600F05BFE9DF8BA
S31508011B9015105846F9F73CFC277B0A2F18BF0B2F5F
S31508011BA0064640F0AC809DF84000DFF87438C0F373
S31508011BB002120DF15301304600F000FE00280BD049
S31508011BC00A2FDFF8D89B08D15846F9F77DFA89F824
S31508011BD040B00B2000F019FDBBE00A2200210DA838
S31508011BE0F2F7DEFD1A22002117A8F2F7D9FD00F057
S31508011BF0C5F80521F9F755FE99F84000F9F7FEF9F8
S31508011C009DF81410091808220BA8F2F786FD00F0B2
S31508011C10B5F80C21F9F745FE9DF81410481C8DF806
S31508011C20140099F84000F9F7F3FB834600F0A6F88B
S31508011C300DA900F0EAFD00F0A1F817A900F002FECF
S31508011C409DF8141099F84000F9F7E2FB074699F850
S31508011C504000F9F747FA00F0A4F800202076082298
S31508011C600FF20C140BA906A8F2F7A1FDA0BB0A22D4
S31508011C700DA908A8F2F79BFD70BB1A2217A910A88F
S31508011C80F2F795FD002804BF5D45BE4224D1FEF753
S31508011C901DFDFF280CBFB121002106A800F0F0FCAC
S31508011CA00746F3F76BFA10A80090019608AB2A4687
S31508011CB006A93846F6F787FB9DF840000390049677
S31508011CC001953B46BDF820000290402206A80090E7
S31508011CD0214600F015F90FE0F3F750FA00F059F82C
S31508011CE0C420F6F770FBFF2004900390C42300F08C
S31508011CF049F82146FFF74DFCF3F7FDF929E0F3F71B
S31508011D003DFAF5F78BFD0190009610AB08AA294616
S31508011D1006A8F6F7ABFA0446F5F780FD0490039694
S31508011D20009506AB9DF840000FF6A03102903D22C2
S31508011D30BDF82000019000F0E3F8F3F7DCF944B1AF
S31508011D40FEF7C4FCFF280CBFB121002106A800F04C
S31508011D5097FC1FB0BDE8F08A9CF9002060F40020CA
S31508011D60C8FF002008F400200AF400200CF4002023
S31508011D7042423870425742420000000099F840003A
S31508011D8005AA70474FF6FF7002904022FF20019086
S31508011D907047FF2001900023002000900146FF2292
S31508011DA07047002000F031BC2DE9F043074600F0EA
S31508011DB04BFAC01E032895B080F0848008AA042136
S31508011DC03846F9F76EFDDFF814910446B9F80000B4
S31508011DD04FF6FF7188421CBFA4B2A04272D108AA6D
S31508011DE005213846F9F75DFD3846F9F707F99DF8F3
S31508011DF020100918082209A8F2F78FFC08AA0C2155
S31508011E003846F9F74EFD9DF8201000F073F89DF855
S31508011E102010054600F06EF8064608AA0BA93846B2
S31508011E2000F0F3FC08AA0EA9384600F00BFD9DF850
S31508011E30201000F062F8074699F83C2099F834001A
S31508011E400EAB09F1350100F0B9FC00283AD00120A2
S31508011E5089F83F00F3F792F9F5F7E0FC014603919B
S31508011E60B12D0EA902910CBF012000200BA9DFF8A4
S31508011E70308901910497009609AB98F80010A2B22F
S31508011E80F6F725FA08B989F83300F5F7C7FC06907D
S31508011E90B12D9DF838000FF6402105900CBF01239E
S31508011EA00023BDF82C000490A4B209A80290079754
S31508011EB0039601943E2298F80000009000F020F85D
S31508011EC0F3F719F915B0BDE8F083000090FA002080
S31508011ED000801002CCF20020A5110108CCFD0020DB
S31508011EE009F400209CF90020C4FD0020E0F200203E
S31508011EF00AF40020481C8DF820003846F9F788BAFC
S31508011F000320FCF775BB2DE9F04F824600F09CF9DA
S31508011F10002895B007D100F04EF9C00740F1348189
S31508011F20F5F78AFC002840F02F8106AA05215046BC
S31508011F30F9F7B7FC5046F9F761F89DF81810091832
S31508011F40082207A8F2F7E9FB06AA04215046F9F781
S31508011F50A8FC814606AA0C215046F9F7A2FC9DF871
S31508011F6018105046F9F710FB80469DF81800811C99
S31508011F70481C8DF81800C9B25046F9F749FA8DF888
S31508011F800C0006AA0AA9504600F03FFC06AA0DA9AC
S31508011F90504600F057FC9DF818105046F9F738FAE4
S31508011FA08DF819000A22DFF8F4B70AA90BF10C001B
S31508011FB0F2F7B3FB1A220DA90BF11600F2F7ADFBE6
S31508011FC09DF80C00099000F02EFAACBF01260026F8
S31508011FD00022002107A8FEF745FB0446FF2C0BF15A
S31508011FE03D0703D00120B870C12508E00020B8706C
S31508011FF0FEF76CFB0446FF2C14BF0025B4257C7044
S315080120009DF81900934F8BF83D003020B42D00FB45
S3150801201004FB57D09DF834003968C0F302108DF8D7
S3150801202000005944DFF87C07008888834EB10022F6
S3150801203006215046F9F735FC0006800FF9F75BFDD6
S3150801204002E0DFF86407007839685944082281F804
S315080120502D0007A9386858441030F2F75EFB396835
S31508012060002E594412BF4846DFF840070088C88346
S3150801207018BF404606D1F3F717FEDFF82817098877
S315080120808842F8D03968594408849DF80C0081F8CB
S315080120902E000021386858448161BDF82810418412
S315080120A00DF147019DF800202430F2F736FB396817
S315080120B09DF80000594481F82B00012039685944DC
S315080120C081F82C00F3F75AF807AA9DF819009DF82C
S315080120D00C30029021460DA801900AA800902846C6
S315080120E0F6F73CF980469DF819000FF2F87105904C
S315080120F02B469DF8340004904322BDF8280003902E
S315080121000998029007A801900094FFF7F9FEF2F7E3
S31508012110F2FF4446B42D08BF4FF000084FF0000AFD
S315080121204FF6FE70B6BBB42D31D1B1234FF6FF7110
S31508012130DFF8702612880090019289B2DFF86006EE
S31508012140027807A800F064FD0646FF2E0ED000238C
S315080121501A46114606F078FD82463046F8F7C2FF60
S31508012160BAF1000F18BFB8F1000F20D1B42D04D071
S3150801217039685944002081F82C002CB1BAF1000FB6
S3150801218004BF012000F0D0FA15B0BDE8F08F386819
S315080121905844008CB42D08BFB12304D0B8F1000F00
S315080121A014BF0023B423002EC0D04946C0E7072038
S315080121B000F02BFAE8E7DFF8F805007870472DE913
S315080121C0F04100F041F807280C463BD1DFF8CC85F1
S315080121D0DFF8E075386808F13D053026697806FBB1
S315080121E0010000F0E6F903D040F2B35100F0ABF973
S315080121F0BCB9FFF7E0FF00F00400012813DB3868DB
S31508012200697806FB010090F82E0040070BD50820D7
S3150801221000F0FBF998F83D106878BDE8F04101F047
S3150801222098B8002000E0022039686A7806FB021196
S3150801223081F82C0014B96878FEF791FA2046BDE8B2
S31508012240F04171E2BDE8F081AD48007B70470000BE
S31508012250ACFD0020DCF20020C4F900202DE9F04F86
S31508012260DFF83845A64D80468FB094F83E000190B8
S3150801227094F83D008DF80200287B062840F0CC80B2
S3150801228000AA04214046F9F70CFB814600AA05215C
S315080122904046F9F706FB4046F8F7B0FE9DF80010F0
S315080122A00918082202A8F2F738FA00AA0C214046B2
S315080122B0F9F7F7FA9DF80010481C8DF8000040461A
S315080122C0F9F7A6F806469DF800104046F9F75CF9B5
S315080122D082469DF80000801C8DF8000040469DF856
S315080122E00010F9F751F983469DF80000811C481C36
S315080122F08DF80000C9B24046F9F78AF8074600AAE0
S3150801230004A9404600F081FA00AA07A9404600F050
S3150801231099FA0A2204A904F10C00F2F7FEF91A2225
S3150801232007A904F11600F2F7F8F996B900242C76F4
S315080123309DF81C00DFF87854C0F302108DF80100EF
S31508012340287800F070F8A6BFDFF8580400885046D0
S3150801235006E0B12E0CBFB424C2240020287658E02A
S315080123600199DFF85064302202FB01FA31685144C1
S315080123700022888306214046F9F793FA0006800F62
S31508012380F9F7B9FB31685144082281F82D0002A9F1
S31508012390306850441030F2F7C0F930685044A0F85C
S315080123A01E901E30A0F802B007743068504484614C
S315080123B0BDF8101041840DF12F019DF8012024303C
S315080123C0F2F7ABF931689DF80100514481F82B0009
S315080123D001203168514481F82C00287800F0040066
S315080123E001280DDB78070BD5092000F00EF9F2F765
S315080123F07AFF01989DF80210C0B200F07FFF0BE04A
S31508012400316851440A2081F82C000198C0B2FEF7C0
S31508012410A6F9204600F088F90FB0BDE8F08F000054
S315080124209CFA0020007800F0010001287047F8B5F1
S315080124300F46F9F771FBF5F7C2F93024D74DDD4E92
S315080124405FB1316895F83E2004FB021191F82D1011
S31508012450884202D000F034F9E0B1306895F83E10B0
S3150801246004FB0100002180F82C1095F83E00FEF7C8
S3150801247076F9FFF796FCF2F781FE95F83E00F6F736
S3150801248052F895F83E30462200F005F8BDE8F140CD
S31508012490F2F731BEF1BDBFA10320FCF7A9B8F8B523
S315080124A0044600F08CF80546FF2D27D03020C14F91
S315080124B000FB05F63868301890F82C0000F0040087
S315080124C0012806DB002206212046F9F7EAF940072A
S315080124D014D5F2F753FE2846F6F713F82B4645228C
S315080124E0FFF7D9FFF2F707FE39687118002081F85E
S315080124F02C002846BDE8F240FEF731B9F1BD0000CF
S31508012500ACFD002038B50446FFF79EFE092803D026
S3150801251040F2AD6100F017F8A049A64A91F83E309D
S315080125201268002C0CBF0E200020302505FB032263
S3150801253082F82C001CB991F83E00FEF710F92046E6
S31508012540BDE83240F0E00FF20800F3F7ADBA00003B
S3150801255072663463652D6E6574776F726B2E6300D0
S31508012560F8B5044694488D4E007B924F30250828CD
S3150801257007D1386896F83E1005FB010000F019F8F6
S3150801258003D040F2CC61FFF7DEFF396896F83E20AA
S31508012590002C05FB02110CBF0620002081F82C0037
S315080125A01CB996F83E00FEF7DAF82046BDE8F24077
S315080125B0BAE090F82C0000F00300012870473EB5F8
S315080125C0044600AA0421F9F76CF985B24FF6FF70A3
S315080125D0854205D100AA02212046F9F762F9054686
S315080125E000AA05212046F9F75CF92046F8F706FD09
S315080125F09DF800100918082201A8F2F78EF80222A0
S31508012600A9B201A8FEF72EF83EBD6B490873F4F787
S315080126105CBF10B5604C216800204873FFF7F5FFD1
S31508012620022021683F4C08702078FF2803D0F8F76C
S3150801263059FDFF202070FFF770F89120BDE8104082
S31508012640F2F718BF5C4800210160102101710F21C2
S3150801265041716FF04A0181710A210181002181725C
S31508012660704738B502464D4890F83430018840889D
S3150801267000F026FA0446FF2C01D1182032BD2BE0C2
S3150801268038B504460D46F5F7C9F8034644480178B6
S315080126902A46204600F040FA0446FF2C01D11820AC
S315080126A032BDF3F701FB4B2190FBF1F14B2202FB03
S315080126B01102002392B20021204610E080F2002088
S315080126C038B50146354890F83E0000F0FCFA044654
S315080126D0FF2C01D1182032BD00220023114606F035
S315080126E0B3FA05462046F8F7FDFC681E8041C00F7F
S315080126F032BD10B504460020FFF787FF26492A4850
S31508012700096800788873F2F7EEFDF2F737FD20467F
S31508012710F5F78DFE23463C22FFF7BDFEBDE81040C6
S31508012720F2F7E9BC63F40020FEB504460020FFF782
S315080127306CFFF2F723FD0FF2B815ACB9174E96F8F0
S315080127403F0000B1C12406F10C0796F83E1006F1C8
S3150801275016033A462046F5F7B1FEB87A0290B089D3
S31508012760019096F83E000BE000230022FF21204647
S31508012770F5F7A4FEFF2002904FF6FF700190FF20A7
S315080127800090234642222946FEF706FFBDE8F74098
S31508012790F2F7B1BC424200009CF90020CCFD0020B2
S315080127A0DAFF00200AF4002009F400200CF40020C6
S315080127B008F40020DCF20020ACFD0020F0B51C78FE
S315080127C0C4F34105C4F30214002601E0761CF6B2EF
S315080127D0AE4218DAFF281EBFF7183F7CB842F5D17A
S315080127E0002601E0761CF6B296420CDA002000E0DB
S315080127F0401CC0B2A042F5D2C718755CFF7CBD4229
S31508012800F6D10120F0BD0020F0BDF8B504460D460D
S3150801281016460A22FF212846F1F7C2FF31782046DB
S31508012820F8F7B2FE288000273078801C307000F057
S3150801283049F879197F1C88703078401C072F307049
S31508012840F5DBF1BD2DE9F04104460D4616461A227F
S31508012850FF212846F1F7A4FF00F034F828703078F4
S31508012860401C30702878C0070AD5002700F02AF8DE
S3150801287079197F1C48703078401C0F2F3070F5DBB2
S315080128802878C0F34108002707E000F01BF87919FA
S315080128907F1C08743078401C3070FFB24745F4D36A
S315080128A02878C0F30218002707E000F00BF8791919
S315080128B07F1CC8743078401C3070FFB24745F4D38A
S315080128C0BDE8F08131782046F8F7A2BD423870425A
S315080128D0574242420000000042424257387042576E
S315080128E04242420042424238704257424200000088
S315080128F0424242574200000010B50446F2F71EFC58
S3150801290048B10FF2841000E0801D017919B10188E0
S31508012910A142F9D14488204610BD2DE9F04182B083
S3150801292005460C4616469846F2F708FC07465548EA
S315080129300178FF2918D04078B84215D100220FF244
S31508012940481002E09A18D2B2801D037963B1B0F833
S3150801295000C0B445F6D16B1E9B41DB0F009303798A
S315080129602046F8F75EFC1DE03046FFF7C5FF064630
S3150801297007B17F1E002D434607D0FAB231462046DD
S3150801298002B0BDE8F041F7F7AFB92246F9B2F7F759
S31508012990D1F9F2F7F3FB3046F5F74AFBBDE8F34107
S315080129A0F2F7A9BBBDE8F3812DE9F04389B00446E6
S315080129B00FF2D4070026F2F7C1FB050013D06D1EEE
S315080129C011E00020009043462E480178F2B201A892
S315080129D0F8F727FC2CB9434601AAE9B24846F7F7A6
S315080129E0A9F94644BF1D387978B13888FFF784FFBD
S315080129F097F80480002C8146E3D04346EAB249465B
S31508012A0001A8F7F771F90120DCE709B0BDE8F08301
S31508012A1010B51C4C2078FF2801D1702010BD00206C
S31508012A20FFF7C2FF2078F8F75DFBFF202070607082
S31508012A30002010BD10B5134C0FF24C00627800212E
S31508012A40FF2A04D0702010BD5118C9B2801D027921
S31508012A50002AF9D10020F8F7C8FBFF28207007D013
S31508012A60F2F76CFB60700120FFF79EFF002010BD96
S31508012A70182010BD03480078FF2801D101207047AE
S31508012A800020704766F4002007000D0010000800BA
S31508012A900F001A0006000C00110002000E001100BA
S31508012AA004001200040001000100040009001000DE
S31508012AB008000A0011000A000000000000000000DA
S31508012AC0F0B591B0044601208DF818000D46DE4890
S31508012AD0DE4900788DF8190016460DF11A000590A1
S31508012AE01F4605A800F0EDF900F08FF80598401C7F
S31508012AF0059006A900F8017D0196002300F036F835
S31508012B002A4606A803900020029000900146204616
S31508012B10F8F7A3FE11B0F0BD70B590B004460D46A6
S31508012B2002208DF818001E46C749097806A8427082
S31508012B3081700DF11B00059000F064F800F065F84E
S31508012B400598401C059006A900F8016D0195012319
S31508012B5000F00CF84FF6FF7206A8039021460020F4
S31508012B6002900090F8F779FE10B070BD0598401AEA
S31508012B70C0B2049070472DE9F04391B0804606A88B
S31508012B8005908946B04C207800F0010001281646C8
S31508012B901F4603DB00F073F8054600E0002505999A
S31508012BA0491C0591032001F8010D0598401C059063
S31508012BB000F8017D380A0599491C059101F8010DAE
S31508012BC005992078491C059101F8010D00F01AF8BC
S31508012BD000F01BF805991898491C0591012301F87D
S31508012BE0010D06A9FFF7C2FF4A4606A8039041460A
S31508012BF0E8B20290019600200090F8F72EFE11B077
S31508012C00BDE8F08305A891495BE1914905A86FE103
S31508012C1070B592B0044604208DF818000D46169832
S31508012C208DF81A0006A9000A8DF81B004B70164686
S31508012C3017980871000A8DF81D00844982480078A2
S31508012C408DF81E000DF11F00059005A800F039F951
S31508012C50FFF7DBFF00F013F80599019606AA891A12
S31508012C60C9B20491C0B206A902900391002000904E
S31508012C7001232A462146F8F7F0FD12B070BD7548C2
S31508012C8000780121F8F715BF30B59BB00446062038
S31508012C908DF814008DF815200D46194650220DF1B0
S31508012CA01600F1F73AFD52200490019505A8039004
S31508012CB001230020029000904FF6FF722146F8F793
S31508012CC0CCFD1BB030BD70B50C463021624E01FB00
S31508012CD000F53068281886B090F82C0000F003003B
S31508012CE0022804D0B8210FF26020F2F7DDFE052094
S31508012CF08DF814003068281800F11E018A7B097CBA
S31508012D0002F00402012AACBF0123002301F00101EC
S31508012D100129ACBFC28B4FF6FF72012104910093C2
S31508012D2005A90391019400210291012300F11001E3
S31508012D300020F8F792FD06B070BD70B59AB0154639
S31508012D401F9A1646512E0C46A8BFFF2021DA0028E5
S31508012D5014BF072008208DF814008DF815300DF1E1
S31508012D6016001E99F1F7D9FC019505A83018801CA3
S31508012D7005A9401AC0B20490012305A803904FF68D
S31508012D80FF72002002902146012000900020F8F7EA
S31508012D9064FD1AB070BD000010B504460022062174
S31508012DA0F8F77FFD400704D52046BDE8104000F03E
S31508012DB0B5BC2146072000F03CFA002843D0002282
S31508012DC00A212046F8F76DFD24490978CA1E032A07
S31508012DD0C0B201D2022836D10A2918BF0B2901D15E
S31508012DE0012830D1401E07282DD8DFE800F0040954
S31508012DF00E181D2213272046BDE81040FEF783BE94
S31508012E002046BDE81040FEF7CFBF2046BDE810407A
S31508012E10FFF779B82046BDE8104000F0A6BD204668
S31508012E20BDE81040FFF71ABA2046BDE81040FFF783
S31508012E3036BB2046BDE8104000F0B8BC2046BDE8C8
S31508012E40104000F0F0BD10BD08F4002090FA0020F3
S31508012E509CFA002009F40020DCF20020B8FD0020CD
S31508012E6038B50D46044600220A21F8F71AFDC0B204
S31508012E70042807D024D306280AD015D308280DD04C
S31508012E8018D331BD29462046BDE83440FFF797B926
S31508012E9029462046BDE8344000F02CBD2946204687
S31508012EA0BDE8344000F011BE29462046BDE834404D
S31508012EB0FFF7BDBA29462046BDE8344000F0ABBD50
S31508012EC031BD10B504462268088810702068401C78
S31508012ED02060226831F8020B000A10700722206868
S31508012EE0401C2060F1F719FC2068C01D206010BD48
S31508012EF070B504460D462168287808702068401C7C
S31508012F0020602878C00707D520680F22691CF1F7C9
S31508012F1004FC20680F30206005F110012878C0F301
S31508012F20410620683246F1F7F8FB20683018206020
S31508012F302978C1F30216324605F11301F1F7EDFBC3
S31508012F4020683018206070BD72663463652D636F22
S31508012F506D6D616E642E6300C648007800B101206C
S31508012F607047C44900F00100087000207047F8B5A1
S31508012F700546F7F74CFF0646F7F78EFF845D2846A8
S31508012F80F7F73BFF07463046F7F786FFBA49096860
S31508012F90695CC91B091AFF227C2C08BF032204D0CD
S31508012FA0092C3CBF0FF2D420225CC9B29142804160
S31508012FB0C043C00FF2BD70B5044606F0BCFC054619
S31508012FC02046F7F724FF4078400713D5A91C00F0DF
S31508012FD0D3F848B1294600F0C9F800F0C4F82EB173
S31508012FE0B04203DBFF2801D0002070BD05EB460087
S31508012FF0851CADB229462046BDE8704006F0B3BC33
S31508013000F8B5044606F06BFD05462046F7F7FFFEC0
S315080130100746A91C00F0B0F800283DD0294600F063
S31508013020A5F800F0A0F80B2E36D20FF25C21715CE0
S315080130304D19ADB205F10801012E89B20AD0022E49
S315080130400CD0052E11D0082E15D0092E18BF0A2E20
S3150801305016D020E080061ED50D461CE0C20648BFE4
S315080130600D46800617D5083514E07978C90613D5B3
S3150801307005EB40050EE000F01F0000EB400008E0FC
S3150801308010F0E00108D1092E06BF00F01F0040002C
S3150801309002204519ADB236E00020F2BDF8B5044666
S315080130A006F01DFD0546691C00F066F848B3294679
S315080130B000F05CF8064606F0030706F00C00032F3D
S315080130C018BF04281DD0022F00D1D0B9304606F00A
S315080130D036FD45193006ADB212D5691C00F04CF81B
S315080130E080B1E9B200F042F80146012F1CBF01F098
S315080130F00300032805D0304606F02FFD4519ADB269
S3150801310001E00020F2BD29462046BDE8F44006F05C
S315080131102ABCF8B5044606F065FD0546A91C00F06B
S315080131202BF8F0B1294600F021F806460F2E18D2E1
S315080131300FF26010305C4719691CFFB200F015F8F0
S31508013140052E06D106280CD20FF25811405CC71974
S3150801315004E0082E08BF022801D10837FFB2394614
S31508013160D2E70020F2BD0646691CC9B22046F8F727
S315080131704FB99DF80000291889B2204606F0F3BB1D
S3150801318010B582B0044600AA0621F8F78AFB9DF815
S315080131900000411CFFF7F0FFD0B19DF80010FFF7C2
S315080131A0E5FF9DF80010491DC9B24A1C00F003034A
S315080131B0012BD2B208D0032B02D1C91CC9B204E033
S315080131C000F00300022800D11146204606F0CBFB89
S315080131D016BD70B582B0044600AA0A21F8F761FB4C
S315080131E0C6B20A2E23D20FF2C400355CFFF7C1FF1F
S315080131F0E8B1052E19DA0FF2C0019DF80000711821
S3150801320011F8011C0918FFF7B0FF0646FFF7B1FFD1
S315080132100021F20748BF0F21C6F341025118C6F330
S3150801322002125118C9B2081801D0012076BD002032
S3150801323076BD38B50F4A0FF284031278044600208A
S31508013240002A02D1012032BD401CC0B2024613F841
S31508013250325045B1AC42F7D1084603EBC201496881
S31508013260884708B132BD002421461E20F2F70DF920
S31508013270002032BD64F4002080F20020FF0204FF22
S315080132800101010108000000FF0608040202020408
S31508013290020A0B00FF21212121000C090202232326
S315080132A016161C0022231B1B22230000FF0D0E0FDE
S315080132B011015206060000000B0C0D10010000005A
S315080132C06F2F010802000000B72F01080300000054
S315080132D001300108040000009D30010805000000C6
S315080132E013310108060000008131010807000000BA
S315080132F0D3310108000000000000000070B5044643
S31508013300DFF82809DFF8286900680D46302101FB36
S31508013310040000F060F804BFB078002802D04B2101
S3150801332000F0E2F9DFF80C093570047000207070BE
S315080133300220B07000F0CFFB18B90021BDE870403B
S315080133406FE3681C3C214143301DBDE87040F3F72B
S3150801335068BE2DE9F04104463020DFF8D068DFF871
S31508013360D07800FB04F8306840440D4600F033F885
S3150801337004BFB878002802D0642100F0B5F9DFF857
S31508013380B4083D7004700020787000F0A4FBE0B129
S31508013390681C3C214143381DF3F743FE3068102170
S315080133A0404400F05EFC3068FF2210214044F3F7E8
S315080133B0BAFF0028F2D131684144052081F82C0072
S315080133C00120B87000F0DAFB18B10121BDE8F0411F
S315080133D027E3BDE8F08190F82C0000F003000128EE
S315080133E070472DE9F04F8BB080468A46F7F7B0FE55
S315080133F0DFF84458DFF834682968405C06900022F3
S31508013400302000FB0AF9306809EB000B072140461A
S31508013410F8F747FA0746DFF824080FF69C04007800
S31508013420824503D3A0212046F2F73EFB584604F015
S315080134307FFE3A46DFF8081807A800F02CFC04AA14
S315080134400B214046F8F72DFA9DF810000D2803DAEE
S31508013450B4212046F2F728FB9DF81000DFF8E4B7FF
S315080134600D385FFA80FA0AEB0B0400220621404662
S31508013470F8F717FA6070A770380AE0700822380C56
S315080134802071380E60713068484400F11001A01DA2
S31508013490F1F743F94046F7F75BFE05A9039107A93A
S315080134A002910021019152462968405C9DF810302D
S315080134B000900BF10101FF2000F069FC00F0DCF837
S315080134C04046F7F745FE0146002000900D23524677
S315080134D0601CF7F7A6FE06989DF81010411A9DF88C
S315080134E01000584407AB0122C9B2401C00F077FD11
S315080134F006985844042205A9401CF1F70EF90BB0A9
S31508013500BDE8F08F2DE9F04781460E463020DFF8F9
S315080135101C8700FB06F7D8F800003D1890B000227A
S3150801352007214846F8F7BDF90446DFF810070FF2F8
S31508013530887A0078864203D3FD215046F2F7B4FA19
S31508013540284604F0F5FDD8F80000381800F11001F6
S31508013550224607A800F09FFB04AA0B214846F8F764
S31508013560A0F90DF111020D214846F8F79AF99DF8CF
S3150801357010000D2804DA40F21F115046F2F794FAAA
S315080135809DF81000A0F10D06F6B200279DF811006E
S315080135903918C9B24846F7F73BFF06A978547F1C84
S315080135A0042FF3DBDFF89076386819F80000011F5D
S315080135B0C9B24846F7F728FD9DF8101007AA4846EC
S315080135C000F0A6FC0025A919C9B24846F7F720FF5D
S315080135D00BA968546D1C0D2DF5DB00220621484602
S315080135E0F8F75FF9C2B231464846F7F716FF711C7C
S315080135F0E2B200F03DF82204B11C00F038F82202CC
S31508013600F11C00F034F8311D220E00F031F80120CA
S315080136100090721D0823D2B24946DFF82406F7F74F
S3150801362000FE9DF8103005A80390324607A80290BF
S31508013630002100200190386819F8000000904846DA
S3150801364000F0A5FB00F018F8012000900D23324682
S3150801365049460BA8F7F7E5FD042206A905A8F1F7DF
S31508013660A6F8401E8041C00F10B0BDE8F087120EC3
S31508013670C9B24846F7F7D1BE07AB0022042105A80F
S3150801368000F0ADBC10B5044600220621F8F709F989
S31508013690400703D44FF4BC7100F026F800F0B6F9E0
S315080136A000F00300022811D100F07BF8C0B2072808
S315080136B018BF082803D1DFF87C05007810BD052856
S315080136C010D1DFF8840590F83E0010BD2046FDF7BD
S315080136D048FCFF2806D0DFF87415096801EB0010CD
S315080136E0C07A10BDFF2010BD0FF2CC50F2F7DCB93D
S315080136F0DFF83C05002101718078401E05280CD8A9
S31508013700DFE800F00304090606090121C52003E0E4
S315080137100121C62000E0C020F3E1704738B5044610
S31508013720DFF810050578FF2D03D12046FEF747FF80
S315080137300546FF2D34D000F069F9400703D440F25D
S31508013740B311FFF7D1FF29462046FFF7DBFED0B1BB
S3150801375000F027F8C5B221460720FFF76AFDF8B140
S31508013760052D04D12046BDE83240FEF798BE072D47
S3150801377003D12046BDE83240F7E0082D10D1204696
S31508013780BDE832404FE1DFF8A8048078042808BF75
S31508013790012102D0062803D10021BDE8344040E1C9
S315080137A031BD00220A212046F8F77BB82DE9FF47EB
S315080137B0804600AA0521F8F774F84046F7F71EFC7B
S315080137C000F015F900AA0C214046F8F76AF89DF8A9
S315080137D00010481C8DF800004046F7F719FEDFF87F
S315080137E05054A978022904BF6978884210D1DFF8B4
S315080137F04474DFF83844397820684FF0300909FBFA
S31508013800010000F11001082202A8F0F7D0FF0028F4
S315080138106ED100269DF800003118C9B24046F7F767
S31508013820F7FD8246E878F1B2F7F7F2FD80EA0A0277
S31508013830E878F1B2F7F7F1FD761C502EEADB6878E5
S315080138402978884252D120683B781022002109FB49
S315080138500300F0F7A5FF4FF00008002606EB081154
S31508013860E878C9B2F7F7D4FD3978226809FB01F17E
S315080138708A18B35C5840B054761C102EEEDB08F15A
S315080138800108B8F1050FE8DB22688918052081F8D7
S315080138902C00042101A800F0E4F9002601A8F1B2E0
S315080138A0325CE878F7F7B9FD761C042EF6DBDFF80B
S315080138B0A0030078C00705D42068397809FB010000
S315080138C0C08B01E04FF6FF70FBF79AF86421281DBB
S315080138D0F3F7A7FB0320A87001AA0021012000F035
S315080138E02EF928B1002100F03EF801E0401C68706D
S315080138F0BDE8FF87F8B500F076F8012831D159BB44
S3150801390068782978884206D16421281DF3F789FB4E
S315080139100420A870F1BD401C687000F0C5F89DF838
S315080139200000401C8DF8000000262046F7F710FC21
S315080139309DF800107118C9B2F7F76AFD0746E878CD
S315080139403146F7F765FD80EA0702E8783146F7F769
S3150801395064FD761C502EE8DB00F010F908B100F082
S3150801396001F8F1BD0121C620CBE0F0B500F03BF826
S31508013970042885B035D1F3F75FFF002831D100AAB5
S31508013980052100F093F82046F7F738FB00F02FF8E9
S3150801399000F08AF800F032F806462046F8F76FF884
S315080139A000F087F802A8F0F702FFC0B900F02EF878
S315080139B0400714D5002E04BF7FB2042F0FD100F0A3
S315080139C01DF801A97054761C042EF8DB01AA002102
S315080139D0002000F0B4F810B90520A87001E0FFF73F
S315080139E0C1FF05B0F0BD924D0446A87870479DF811
S315080139F000100918082202A8F0F78FBE9DF80010DA
S31508013A00481C8DF800002046F7F702BD0022062162
S31508013A102046F7F746BF19B98549062088707047C9
S31508013A200021C6206DE0FEB5FFF7DDFF06283AD175
S31508013A3000AA052100F03AF82046F7F7DFFA9DF8C3
S31508013A4000100918082201A8F0F767FE00F02CF803
S31508013A50FFF7D4FF06462046F8F711F800F029F8D3
S31508013A6001A8F0F7A4FED0B9FFF7D0FF400716D595
S31508013A70002E04BFFFB2042F11D1E8783146F7F7BB
S31508013A80C7FC9DF800100746FFF7BAFF874206D123
S31508013A90761CF6B2042EF0DB0021002001E000219D
S31508013AA0C62000F02EF8F7BD00AA0C212046F7F72C
S31508013AB0F8BE871E5D485F4900680978302303FB15
S31508013AC0010000F110010822704700290CBF0020EF
S31508013AD0C620012115E038B550210020F7F785FBEE
S31508013AE0534CE070FF2801D1002032BD0025E07853
S31508013AF000222946F7F791FC6D1C502DF7DB0120B2
S31508013B0032BD38B504460D4649484A4A00218170F6
S31508013B100171FF21C0781170FF2818BFF7F7E2FA83
S31508013B2025B12046BDE83240FEF71ABD494800884E
S31508013B30FAF766FF2046BDE83240FEF7E3BC30B52A
S31508013B403A4B3C4C1B682478302583B005FB04347A
S31508013B500423019300920B4694F82D2004F11001D9
S31508013B60FFF7EBF8044600F077F805462046F7F725
S31508013B70B9FA0DB100203EBD01203EBD2DE9F04345
S31508013B802B4C607821782B4DDFF8A080884295B0C0
S31508013B904FF0300928D1402100A800F062F8002032
S31508013BA000AE00A94118825D0B7C2F785A4091F826
S31508013BB020305A4091F830305A40D8F8003009FB85
S31508013BC00733C35C5A40401C102881F84020E8DBC3
S31508013BD00027E078F9B2F7F71BFCB95D4840B855FC
S31508013BE07F1C502FF5DB03E0502100A800F039F8BF
S31508013BF0D8F800002978627809FB010000AB90F833
S31508013C002D101030FFF740F80446FF2C08BF182086
S31508013C1009D000F021F805462046F7F763FA002D8A
S31508013C2014BF0020012015B0BDE8F083DCF20020A6
S31508013C3010FE002065F4002080F20020E0F200204A
S31508013C40C4F90020F4F90020CCFD0020E4F200209C
S31508013C5008F400200CF4002001230022002104F0BE
S31508013C60F3BF30B5D1B004464D08294600A8F6F78A
S31508013C7091FA002000A90AE031F8102004F8102072
S31508013C8004EB400331F81020120A5A70401CA8426E
S31508013C90F2DB51B030BD38B5044615460822601C22
S31508013CA0F0F73BFD6572280AA072280CE072280E0F
S31508013CB020730520607331BD72663463652D7365A3
S31508013CC06375726974792E630000000080B5042358
S31508013CD0042200A90120FEF720FEDFF854150098FA
S31508013CE009680003C86101BD10B5DFF844452068BD
S31508013CF0C069000507D1F1F721FA00280CBF042095
S31508013D001220F6F73BF82168C869421CCA6110BD42
S31508013D10DFF81C050068C069704780B5DFF8101523
S31508013D20096800200090C8610423042200A9FEF74F
S31508013D30F4FD01BD00B585B01123062200A90120B5
S31508013D40FEF7EBFDDFF8E8049DF81010026882F82B
S31508013D5020100068C07E00281CBF0528002002D15B
S31508013D6004F0FCF9012005B000BD70B50C461546F6
S31508013D701E46014610223046F0F7CFFC3470280A59
S31508013D80B073F5733046BDE8704004F0E8B92DE923
S31508013D90FB4F8CB090469DF86400189D00289DF84D
S31508013DA030008DF8040014BF012702279DF838005A
S31508013DB0841A9DF83000029026460D9850B900F0F5
S31508013DC0A3F8DFF87014029A0968555CFF281CBF2E
S31508013DD0405C45199DF8640000289DF8380014BF19
S31508013DE009214921EDB22A1A1A9803AB92B2FFF7B3
S31508013DF0BCFF0DF10C0A9AF8010060408AF801002F
S31508013E009DF8640030B11022002103A8F0F7C8FC20
S31508013E108DF80C4000244FF0000915E017F80A3018
S31508013E2011F8010B434007F80A30521C7F1CD2B225
S31508013E305A45FFB2F2DBD944102F5FFA89F903D14B
S31508013E4003A804F08CF90027F6B2B1451EDAC7F1CA
S31508013E50100BA6EB0900C0B25FFA8BFB584538BFB9
S31508013E6083460D9858B9009009EB08029DF804108D
S31508013E705B46D2B207A8F7F7D4F907A904E05FFAB7
S31508013E8088F8404409EB00010022D0E7012C18BF4D
S31508013E90002FB04403D003A804F061F900270D9858
S31508013EA008BB00F031F884B9E249029A0968515C05
S31508013EB09DF838208E1AFF289DF8640008BF012452
S31508013EC0B0B1F6B2A6B9022412E0012C10D100F065
S31508013ED01BF88DF804004FF00008D6489DF8041029
S31508013EE000680E5C04E01CB99DF8380001242E1AFE
S31508013EF0601CC4B2032C8EDB1B98042203A9F0F7BD
S31508013F000CFC0FB0BDE8F08F9DF83000F7F720B92B
S31508013F102DE9F04F85B004460F4690460025F7F780
S31508013F2017F9824601224FF0010901AB114600F04B
S31508013F3078F88DF80040DFF800B3BE489DF8001008
S31508013F4000680E5C394600A8F7F756FAF71B0446CF
S31508013F50FFB223E0037815F80C205A4000F8012B2C
S31508013F60491C6D1CC9B2B142EDB2F3DB3419BF1B52
S31508013F70E4B2202CFFB207D1DBF800009DF800104F
S31508013F80085C8DF800000024102D07D109F10109FC
S31508013F9001AB1FFA89F200F043F80025A7B1C4F175
S31508013FA02006F6B2C5F11000BE42A8BF3E46C0B211
S31508013FB0864228BF06469DF80000F7F71FF8201825
S31508013FC000210DF1040CCDE78DF800A04FF0FF0A92
S31508013FD09DF80000FF28B0D105B0BDE8F08F2DE9A6
S31508013FE0FF4104460D461646984609E02278C85C04
S31508013FF0504004F8010B491CC9B2B942F6DBED1B66
S31508014000EDB25DB1102DB4BF2F46102700ABB2B289
S3150801401000F006F8761C002100ABEDE7BDE8FF814C
S3150801402001214046A1E670B50D461146804A12683F
S31508014030D27E0446287800F020061043287006B17F
S31508014040691D0822601CF0F768FB0422691C04F14B
S315080140500900F0F762FB28786073002E297814BFEF
S315080140600D20052001F01801082908BF401CC0B21F
S3150801407070BDF0B506466F4800680C4685B0205CF1
S3150801408015461F46431BDBB20E2BA8BF0D23002086
S31508014090009001A8F7F7C5F83A4601A93046FFF797
S315080140A0C2FF06469DF8042029462046F7F7B5F9CA
S315080140B0304605B0F0BD2DE9F0418CB0044688467E
S315080140C01546F7F745F806465C4B2A46214608A8E1
S315080140D0FFF7CFFF471904A80390FBB208A802907F
S315080140E0424600200190009000212046FFF74FFE2E
S315080140F000F04BF808AAF9B22046FFF709FF29464E
S315080141002046F7F785F900F0F80229462046F7F721
S3150801411084F9FF2E18BF3446042204A92046F7F76E
S31508014120EAF8401E8041C00F2CE02DE9F0418CB021
S3150801413004460D4690461F46404A391908A8FFF716
S3150801414072FFC61904A80390009508A80290F3B255
S315080141500020019042462146FF20FFF718FE00F095
S3150801416014F8042204A92819F0F7D7FA385D00F0E3
S31508014170F8003855A91BF6B208AB0122C9B23019A5
S31508014180FFF72DFF0CB0BDE8F08108AB0022042132
S3150801419004A824E72DE9F04391B0804689461546DF
S315080141A01C46F6F7D5FF074623462A46414608A880
S315080141B0FFF75FFF44191F480068FF2F08BF4746EE
S315080141C00423385C061F00200090F2B2394604A881
S315080141D0F7F727F8F1B23846F7F7CFF8FFF7D5FF23
S315080141E008AAE1B24046FFF793FE0CA80390E3B292
S315080141F008A802904A4600200190009000214046F6
S31508014200FFF7C5FD29464046F7F702F900F0F8021F
S3150801421029464046F7F701F904220CA904A8F0F744
S31508014220C6FA401E8041C00F11B0BDE8F0830000F8
S315080142309CF9002080F2002088F20020C4F90020B1
S31508014240704701207047012070470020704780B5EC
S315080142507020F0F792F8BDE802400020F0F78DB81B
S315080142607020F0F78AB800000BF059BC80B50BF046
S3150801427043FC20B173480078F6F734FF012002BDEC
S3150801428010B50BF031FC6F4C2070F6F71DFF207846
S31508014290F6F7B4FE6C49486010BD38B50BF096FDCB
S315080142A0684C2078FF2815D1674D688838B1F1F731
S315080142B00BFA2A886988801A80B2814204D20020C2
S315080142C0688020460BF0A0FC2078FF2804D0F6F77A
S315080142D095FE6860012032BD002032BD38B504461E
S315080142E000F00BF8574D287821460BF064FCFF20A7
S315080142F02870BDE831400BF069BD52480278FF2AA3
S3150801430003D04FA13C20F5F71FBA704770B5044694
S3150801431082B00D460020F6F768FF0646FF2E07D045
S31508014320484802780095234600213046F7F764F994
S31508014330304676BD4548434900680978085C7047A8
S31508014340014640480078F6F75FBE2DE9F04782B08E
S315080143500020F3F706FB3E4E96F800A00446651CBE
S31508014360EDB20120F6F755FE8046B8F1FF0F08BFFA
S31508014370002049D0334F3878FF2809D0F6F7B2FE26
S3150801438006E0824633480188203D2039EDB2018096
S31508014390212D314A11681AF80100F2DAFF230AF8C9
S315080143A001300023116808F80100524620200090C8
S315080143B000214046F7F720F93078DFF88C903870FD
S315080143C0F6F71CFEC9F8040086F8008001233A783E
S315080143D0009400211046F7F70FF938782146F6F7C9
S315080143E013FE1E480188091B491E018089B23078CF
S315080143F000912B4602460021F7F7FEF8D9F804008A
S315080144001749201808600120BDE8F68738B50D4D13
S31508014410044628780321F6F7FBFF00210091431C87
S315080144202978DBB203222046F6F7FBFE31BD38B503
S315080144300446054DF1F748F928806C8031BD000026
S3150801444062000000D9F30020B0F9002080F20020B4
S31508014450ECF30020D6F9002088F200207AFF00202C
S3150801446020F8002070470000F0B53A4C0D46A168C7
S3150801447089B00646174629B1082206A8F0F74DF96C
S3150801448006A8A06037B9FAF7AFFA6188814218BF62
S31508014490012700D10027304605F0A4FB014605ABEC
S315080144A03A46304605F0E0F9A0BB6068C188049138
S315080144B02B46417903911122017902914188019193
S315080144C000880FF29C0100900320FAF791F8012069
S315080144D02070F0F753FE9DF8142061682846F3F71B
S315080144E06EFBF0F708FE9DF81400FF2818BFF6F7D3
S315080144F0F9FD6DB96068C18848F24002114040294A
S3150801450006D12178490703D44088FF2100F003FC2E
S315080145100020207009B0F0BD0F4900E00F49097865
S315080145200170002070470B48017811B94FF6FF70EA
S3150801453070474088704780B506490A78002A1CBF2B
S315080145408968002901D1702002BD0822F0F7E5F833
S31508014550002002BD1CFC0020D8FF0020D9FF002046
S3150801456042425757424257002DE9F84F8AB00D4645
S315080145701646ADF804504FF00008F7880446C246BF
S31508014580C146F2F718FF159860B9F8060AD59DF8DD
S3150801459050009DF8283000903246294620460BF0F7
S315080145A087FE04E1780548BF4FF4805A380548BFAD
S315080145B04AF4006AB80548BF4AF0800A03D4F805E8
S315080145C048BF4AF0400A9DF850000290072CAB46B6
S315080145D065D8DFE804F0062C183A3A04063A4FF093
S315080145E002099DF82800BDF80420009043469DF86D
S315080145F050004AF4027105F0CDF98246BAF1FF0F6F
S315080146004FD11820D3E005A9E8B20AF0CAFB08225F
S315080146100DF1190103A8F0F780F8DFF874080068AE
S3150801462030F81B000DF10C08ADF80400D9E703A911
S31508014630E8B208F02CFCDFF85C0800680C2101FBE5
S315080146400B000DF10C080088EEE74FF6F87083456C
S3150801465025DBF0884FF40261084220D100F033F9D6
S3150801466018BF91201CD10298FF280FD000F04CFBEF
S31508014670032C0CBF01210021401ADFF81C18029AED
S315080146800968515C8842B8BF742009DB032C0CBF4A
S315080146904FF00C094FF008092AF4C07AA1E7012066
S315080146A085E0DFF8F80700884FF6FF71884214D0D5
S315080146B05046F6F7ACFB8346DFF8E00701880BF1B5
S315080146C00400F9F7C0FADFF8D807DFF8D017007841
S315080146D08BF807004FF6FF70088032464946504668
S315080146E005F012FB08B918265DE0DFF8B80700687F
S315080146F0C07E48B1B80607D5012342460021504677
S3150801470005F082F806004ED10298FF2816D05046C9
S31508014710F6F773FBDFF88C170968C97E01B1122118
S31508014720DFF87427029B12689B5C1AF80220D218DC
S31508014730743089188842B8BF742634DBB80407D5A3
S315080147405046F6F76EFB40F480615046F6F76BFB70
S31508014750062C12BF072C5046F6F772FB159848B17E
S31508014760BDF804105046F6F784FB159880F800A0AA
S3150801477000201CE0E01E022801D9001F07D150467F
S31508014780F7F7C2FD00280CBFA12600260BE0B804E6
S3150801479044BF4FF6BF7007403B46EAB22146504632
S315080147A008F009FE06465046F6F79CFC30460BB063
S315080147B0BDE8F08FF0B587B00E4604460C9917464A
S315080147C01846F6F712FD0546FF2D21D0FF208DF874
S315080147D010008DF81100ADF80E704CF20E00ADF810
S315080147E00C00ADF812600020ADF81400009502A87F
S315080147F00190FF2303AA21460020FFF7B5FE0446D0
S315080148002846F6F76FFC002C0CBF9DF80800FF2020
S3150801481007B0F0BD2DE9F043164685B00446F08889
S3150801482004900D4670790FF2B46103901F463079F2
S315080148300290A84670880190434630880090082265
S3150801484000F098F800F03FF818BF912019D1FF2F12
S3150801485009D000F059FADFF840160968795C8842F0
S3150801486038BF74200DD37CB94FF6F870804528DA25
S31508014870002001900097FF23324629462046FFF77C
S3150801488073FE05B0BDE8F083022C4FF6FE790CD114
S31508014890DFF814060078854213D2DFF8F4050068BC
S315080148A030F818004845E3DB0BE0012C09D1DFF8A5
S315080148B0FC050078854204D2E8B208F0F6FA4845C4
S315080148C0D6DB0120DDE7DFF8DC050068407B02283E
S315080148D07047F0B587B00D461646044605961F463D
S315080148E0E8880FF20061049023466879039009224B
S315080148F028790290688801902888009000F03AF893
S3150801490000200190009733462A4621460420FFF7E6
S315080149102BFE07B0F0BD2DE9F04188B01E460E9C6E
S3150801492007948046F08806901746707905900D46DB
S3150801493030790FF2BC5104904346708803900A22DD
S31508014940308802900197009500F014F8DFF84C05BD
S31508014950A0F800802346DFF848050770002001907B
S3150801496032460F98009029460420FFF7FDFD08B04E
S31508014970BDE8F0810320F9F73BBE70B588B004465F
S315080149800D46069205951E46E0880FF27051049071
S315080149900622607903902079029060880190208828
S315080149A0009003202389F9F723FEDFF80405007830
S315080149B00096002814BF4FF6FF714FF6FD710020CF
S315080149C001902B4622460320FFF7CEFD08B070BDA5
S315080149D010B5DFF8E004F6F755FE0446FF2C0DD0B6
S315080149E021460420FEF725FC18B10121204600F0D6
S315080149F006F82046BDE81040F6F774BB10BD2DE950
S31508014A00FE4F82460D46F6F702FA0646B01CF9F73E
S31508014A1013F98346504605F062F801465046F6F703
S31508014A20F7FC804608F003095046F6F704FAF0F752
