:020000040800F2
:100000000004002079000008850000088500000831
:10001000A70B090100000000010150540040000836
:1000200004100000970A0008590D00087805000820
:1000300000000000000000000000000000000000C0
:100040000000000000000000000000005604000056
:10005000FFFFFFFF06480068202100EA010028B1E9
:100060000448016842685FEA010D104770470000CC
:100070002C00004000400008FFF7ECFF00F00EF8F5
:1000800000F042F806E000005FEA000D70474548C6
:10009000008870474FF4017000F09EB838B54FF2F9
:1000A0000F04414D00F0C6F828B140F20520288029
:1000B0006C80012032BD3D480068C00615D56888B7
:1000C000A0421ED1288840F2022188421CBF40F283
:1000D0000621884215D040F2011188421EBFB0F5BA
:1000E0008A7F40F2111188420BD0314C208A40F6B1
:1000F000A721884205D12068FFF7C6FF60688047C6
:1001000000BF002032BD000038B50400294872B697
:10011000016849084900016000F0D2F823480068EE
:10012000000910F001000CBF2349244902E0CD2250
:1001300001F8012B224A9142F9D32249224A234B4A
:1001400003E011F8015B02F8015B9A42F9D3204900
:10015000204A002301E001F8013B9142FBD3124AFF
:1001600053884FF20F05AB4240F205210AD11388A4
:100170008B4205D030B1180A012818BF022801D1DE
:10018000194601E004B90021064801804CF23C30D8
:10019000508000F0C7F94FF40170BDE8324000F024
:1001A0001BB80000240C0020000000202C000040A0
:1001B00000400008FCED00E0000000209800002056
:1001C000000400200C120008000400200404002099
:1001D000040400202D0C00200E4A302111600E4A2C
:1001E00011600E4A116010210D4A1160010A0029A8
:1001F0000C4908BF000208804FF20F004880BFF38F
:100200005F8F094800210160416008480849086083
:10021000704700003020004030C8004030C000402F
:1002200010E00040000000201C4000400400FA05DF
:100230000CED00E00020704780B500F0B6F9012118
:10024000062000F0BFF9062000F0F2F90121072096
:1002500000F0B8F9072000F0DFF91748016821F035
:100260001001016001BD0000052800D9704710B5DC
:10027000DFE800F01721030F1C17104C2088411EE7
:100280002180C0B9072000F0DFF942F21070208011
:1002900010BD072000F0CCF9BDE81040062000F0AA
:1002A000D3B9BDE81040062000F0B6B9BDE8104053
:1002B000062000F0BDB910BD00BC0040260C002097
:1002C000794951200860704738B5054600F060F95B
:1002D0007649B0FBF1F44FF4F070B0FBF4F02D1A56
:1002E0001E2DBCBF4FF40170FFF776FF7048714AB6
:1002F000072101600021416081604FF000711160B1
:1003000005FB04F1C91C8908491E416031BD6A4AD8
:1003100001215170D8E76A48016841F0010101608C
:1003200001214160512060490860704700207047FA
:100330002DE9F047814661485F4E056840F2DC5880
:10034000012DC2465A485F4F5F4C1BDA0221618083
:1003500039600068C00348BF00F08DF8B86900F04C
:10036000030003285FD0002D03D5B86940F00200D8
:10037000B8614846FFF7DAFF5FEA000A1AD1002D9C
:1003800051D54EE061884FF6FF75A9421DD14F4807
:10039000018802237F22A01C00F06CF96088A8422B
:1003A00004BF02206080B869800703D4B86940F0B8
:1003B0000200B8610120B070608838600FFA8AF0DE
:1003C000FFF7A5FF5046BDE8F087B9698907EDD56D
:1003D0000068C00348BF00F04EF8B07808B140464E
:1003E000F1E7B868B968628810F0010003D10F2AFC
:1003F00008D2521C06E0890704D5217811B1032ADE
:10040000A8BFAA1892B2022A2070B8BF0222628046
:10041000386861888842CDD1B86900F003000328AC
:1004200001D0FFF778FF0020CDE710B5044628483B
:10043000017869B9C078072818BF092813D00328A4
:1004400018BF11280FD013281CBF15280B280AD05D
:100450002048016841F48071016004E000F03EF939
:100460000620FFF763FF2046FFF762FF0028F5D163
:1004700010BD0220D9E70E480E4A0021416081607C
:10048000016821F00201016000210B4841704FF02A
:1004900000711160817801B9704780B500218170C9
:1004A0000620FFF743FF01BD0080004090D003000D
:1004B00010E000E004ED00E0280C00200412000829
:1004C0001C400040044000400004002008120008C6
:1004D00096070808384000400078704730B5DBB018
:1004E0000446214636A800F055F9002000904FF44C
:1004F00002630B4A36A901A800F0CDFA0FF26C0294
:100500000FF2740001A900F027FC054600F056F830
:100510001DB12146284600F089F928465BB030BD60
:100520000404002080B5FFF7A4FFFFF7B0FDB0F58D
:100530008A7F09D100F030FC00F094FC0028FBD049
:1005400040F21110FFF748FEFFF776FE00F024FCA2
:1005500000F0AEFC40F20120FFF73EFE002002BD9D
:10056000012A08BF00F02DBC704700007B11000875
:10057000B7110008D9040008E30900081B0A0008A5
:1005800019480068C00701D41848704718487047D8
:1005900080B5FFF7F5FF1749096801B9400802BDAA
:1005A00080B5FFF7EDFF400802BD134801218160CF
:1005B0004EF6BE2141600121016070470F490120C4
:1005C0000860704710B50FF23802830852F82320F4
:1005D000136800F0030080000F248440A34301FA55
:1005E00000F01843106010BD1C400040001BB70015
:1005F00000366E012040004000600040086000406E
:1006000000B0004004B0004000B2004004B200401E
:1006100000B4004004B40040C108032907DA0121F6
:1006200000F007029140C00840020F4A1150704785
:10063000C108032907DA012100F007029140C00830
:1006400040020A4A11507047C10803290ADA084AD1
:1006500002EB412101230A6800F0070003FA00F0D1
:10066000504008607047000014B0004010B00040D7
:100670000CB0004030B5044610467F2808BF00206B
:10068000B1F5004F83B01AD108237F2240F6120142
:1006900000A8FFF7EFFF08220FF2380100A800F0D2
:1006A00026FD30B908237F2240F2A27100A8FFF78F
:1006B000E1FF082200A9204600F000FD37BD044DEF
:1006C000294300FB03111A46204600F0F7FC37BD12
:1006D00000000808FFFFFFFFFFFFFFFF70B5274C7A
:1006E00025680646FFF75CFF2549B0FBF1F0704333
:1006F0002F303021B0FBF1F0032809D3616D41F0B8
:10070000010161652168491B0903090B8142F9D385
:1007100070BD38B504000D4605D0022C10D00FD3A3
:10072000032C26D027E0174C45B1FFF739FF1649B7
:10073000B0FBF1F0401EB0F5005F0CD2206018E075
:100740004DB1FFF72DFF690801EB4000B0FBF5F05C
:10075000B0F5003F01D3202032BD4108022C00F04B
:10076000010008BF094A02D0012C02D1084A50609A
:100770001160002032BD212032BD00003820004031
:1007800090D00300100004E020A1070068D80040CA
:1007900068C80040017001224270012982700CBFBC
:1007A0008021402181800021C18001811D4801609C
:1007B0000E218162016821F0100101600021416376
:1007C00041627047F8B50D4604461749154F4FF082
:1007D000FF3008601646FE6200207862386840F0FC
:1007E00001003860FFF7EAFE012C19D16DB900F065
:1007F00039FB78B9786AB042F4D3002EF2D0386869
:100800004008400038601620F2BD284600F032FB58
:100810000028EFD138684008400038600020F2BD61
:100820000120F2BD00F0004000A8004038B50446A9
:100830000D4600F009F800F007F82A462146BDE809
:1008400038401820FFF78CBE2A4621461820FFF7B3
:1008500087BE38B50446002020814AF6B43220789D
:1008600000A9FFF7AFFF08B11C2032BD9DF80000C2
:10087000032818BF182801D1182032BD042801D13F
:10088000172032BD012801D0212032BD002500E013
:100890006D1CA188EDB2091D8D420BDA281900F1FB
:1008A0000A01207840F2DD22FFF78CFF0028EFD00C
:1008B000262032BD0025002006E00146EDB22819B1
:1008C000007B00F027FC6D1CA188EAB28A42F4D3B9
:1008D000A27AE37A9B18FF2B01D0222032BD0B199C
:1008E0001D7BB5EB102F01D0232032BD5B7BC0B246
:1008F000834201D0242032BDA078824207D0401E1E
:10090000C0B2824201D1272032BD252032BD881CD1
:1009100020810220E080002032BD38B50446607896
:10092000012804D023D3032854D018D31FE0207803
:10093000012811D13B25432000F043FA207840F2F2
:10094000DD220021FFF73EFF30B12846451EC0B230
:100950000028F0D11B2032BD022060700FE000F0B3
:100960009BFA00F039F8A078401CA07007E018202E
:1009700032BDA0782278411EC9B200F02FF820467F
:10098000FFF767FF050018BF00F086FA272DF0D0AB
:10099000A8060BD52278A1781520FFF7E1FD002DE0
:1009A000EDD10320FFF760FC002032BD680603D4C0
:1009B000182D18BF1C2D07D121782846FFF736FFC8
:1009C00004206070284632BD172DE8D100F004F8ED
:1009D00003206070172032BD2278A1780620FFF72F
:1009E000BFBDF8B504460D461646002706E0E08870
:1009F000411C0019E180807A78557F1CBFB2B74254
:100A000009D2E08821898842F1D32046FFF785FF8B
:100A10000028ECD0F2BD0020F2BD10B504462046FF
:100A2000FFF77BFF0028FAD010BD0000F8B50446A0
:100A30000D4616461F4607E03046A047294600F0FF
:100A40007BFB05467F1E761CBFB2002FF4D12846E3
:100A5000F2BD38B50C46154605E0014614F8010B09
:100A600000F06AFB6D1EADB2002DF6D132BDF8B5B7
:100A700004460D461F461646286823683A46314606
:100A80009847040005D1E8683A463146FFF7E1FF90
:100A9000E8602046F2BD10B5029C8472038142607A
:100AA00001604FF0FF31C1600021017410BD2DE9DC
:100AB000F84F8946044699F81BB0D068A249BBF1AB
:100AC000800FA8BF4FF0800B88421E4651D1002EE8
:100AD0004DD0B06800904FF0FF38002509EB450A73
:100AE0009AF848700DE0FFF769FDF80240F00062E7
:100AF00000984FF400634146FFF798FF8046781C4A
:100B0000C7B20AF148004078B84204DA681CC5B29E
:100B1000062D02DAE2E7FF2FE5D1D9F844006FEAAB
:100B20000801884225D1A068736800BA4FEA5B02C9
:100B300049469847C8B9E06805BAA06802BAB068E3
:100B40005B464FF0FF31FFF771FFC04385420CD188
:100B500040F6A720A9F810000122A068736800BA27
:100B600009F110011030984708B1422002E0172027
:100B700000E04320BDE8F28F2DE9F04F0D4683B031
:100B80008046D5F804A02889ADF80400914605F107
:100B9000140606F11007042352464046FFF767FF8C
:100BA000002870D1BAF8000040BA80B20090BAF8BC
:100BB000020040BA84B2E00748BF462063D4B4F5CF
:100BC000026FC8BF4E205EDC002C5BD00098DFF8BF
:100BD0007CB148B14FF60441401A00F09C80FF38C8
:100BE00053D0FE3851D0ACE0287C08B151204AE007
:100BF0008D2C28BF4F2046D22346321D00F0A9F885
:100C0000002840D1FA7E802AA8BF802202F10C0081
:100C1000844201BFB08840BA00F47F40B0F5007F45
:100C20002CD1F08840BA4EF25031884202BF388A47
:100C300040F6A721884221D1788A00F47F40B0F5A0
:100C4000807F01BFB06800BADBF81C10884215D164
:100C50004FF6FF70388206F110014FF0FF30FFF7BA
:100C6000F8FEF16809BAC943884204BF387E0428F7
:100C700004D1787E102818BF062801D0452002E054
:100C8000012028740020BDE8FE8F287C002844D075
:100C9000042300F05DF80028F5D1DAF8000006BA68
:100CA000201F84B2DBF81C00864238BF4820EAD3FC
:100CB000796DA019884228BF4920E4D200984FF6E8
:100CC000035188420DD1B9F1000F0AD0D9F80020A4
:100CD00031460220904720B14A20D4E7E01B84B27D
:100CE000BE19002CCED0BDF804008442B4BF274604
:100CF00007463B4600F02CF80028C4D1B9F1000F9C
:100D0000ECD0D9F804307A0851463046984700288C
:100D1000E4D04B20B7E7287C08B94120B3E7042C86
:100D200018BF4C20AFD16A68042300F012F80028E5
:100D3000A9D14B462A463946304603B0BDE8F04FAC
:100D4000B5E644209FE70000E320BBDE000000087A
:100D50005246294640468AE670B50D460446288923
:100D6000C107164601D4802803DA4F2070BDA87A47
:100D700078B9324629462046FFF7FEFE0028F6D015
:100D8000172807D1286861688847172802D10020F2
:100D900070BD502070BD000080B54FF4E1310120DE
:100DA000FFF7B7FC39480221816001210160092069
:100DB0000921FFF707FCBDE8044004210A20FFF7E2
:100DC00001BC3449CA685207FCD50860704710B5A9
:100DD000044603E014F8010BFFF7F3FF2078002826
:100DE000F8D110BD30B583B00FF2BC0218CA00A90B
:100DF000042218C1052100AD0DE080B20A2390FB4A
:100E0000F3F30A2404FB1304E4B2184604F130039C
:100E10004B5504B10A46491E49B20029EDD500A838
:100E2000D2B21018FFF7D3FF37BD10B50446200922
:100E30000A28ACBF37303030C0B2FFF7C2FF04F031
:100E40000F000A28BDE81040ACBF37303030C0B2C8
:100E5000B7E710B50446200AFFF7E7FFE0B2BDE8A8
:100E60001040E2E70A480068800701D5012070477A
:100E70000020704710B50446FFF7F4FF20B1054885
:100E800000682070002010BD012010BD54C8004033
:100E900048C800403CC8004080B500A8FFF7EAFF02
:100EA0000028FAD001BD00003030303030000000A2
:100EB0002DE9F84FFFF782FBFFF7EEFF0020FFF769
:100EC000D3F90FF27418474D0FF2401BDFF8189159
:100ED0000FF2181A41A642A41EE05046FFF777FF12
:100EE0000C27B9F81A00F84000F00F00FFF77AFF5E
:100EF000012FA4BF2E20FFF764FF3F1FF1D520462E
:100F0000FFF765FF09F11A00408EFFF76BFF5846A7
:100F1000FFF75DFFFFF7C0FFFFF750FB0220FFF771
:100F2000A3F900A8FFF7A6FF0028F5D19DF800005F
:100F3000FFF747FF9DF800000A2818BF0D28CCD006
:100F4000312804D032282ED0332831D0E2E70FF2F6
:100F5000F800FFF73CFF0120FFF7C0FA07460FF249
:100F6000FC00FFF734FF2FB90520FFF77DF90FF2E2
:100F70000010CDE70420FFF777F90FF20010FFF71C
:100F800026FFB80648BF0FF2001005D478064CBF04
:100F90000FF20C100FF21810FFF719FF3846FFF789
:100FA00058FF3046B4E70120FFF75EF9BDE8F18F46
:100FB00000273046FFF70BFF288A40F6A72188421A
:100FC00018BF4046A4D178197F1C90F8240020B1A6
:100FD000FFF7F7FEFFB2202FF5DBE2E70D0A000076
:100FE0002062000000400008000000080D0A454D86
:100FF000333539372053657269616C20426F6F74E5
:101000006C6F616465722076000000000D0A312E5D
:101010002075706C6F61642065626C0D0A322E2041
:1010200072756E0D0A332E2065626C20696E666FD4
:101030000D0A424C203E20002A2A206E6F2061704B
:1010400070202A2A0D0A00000D0A626567696E2069
:1010500075706C6F61640D0A000000000D0A536525
:101060007269616C2075706C6F6164200000000013
:10107000636F6D706C6574650D0A000061626F725C
:101080007465640D0A0000000D0A584D6F64656DAB
:1010900020626C6F636B206572726F722030780013
:1010A0000D0A66696C65206572726F722030780077
:1010B0000D0A6572726F722030780000814212D280
:1010C00010185118401E491E92B2002A1EBF11F876
:1010D000013900F80139521EF6D1704711F8013B71
:1010E00000F8013B521E92B2002AF7D1704710B5AA
:1010F00000E0521E92B222B100F005F8F9D0181BA0
:1011000010BD002010BD10F8013B11F8014BA342A7
:10111000704700000A0242EA11214840C0F303115F
:10112000484080EA003041010206C9B2D20E41EACD
:101130000221484080B270470A0A4840C0B20821E4
:101140004308C00746BF034858401846491EF7D118
:10115000504070472083B8ED2748018A40F6A772B7
:10116000914202BF408A4FF47F41084203D10228D6
:1011700001DB0120704700207047F8B504461D4E82
:1011800001200D463070FFF7E7FF18B94FF40170EA
:10119000FFF722F829461848876A44F48070B84758
:1011A000002131700FF2540618B9294644F400703A
:1011B000B847805DF2BD2DE9F041044688465600EF
:1011C000FFF7CAFF18B94FF40170FFF705F80A4896
:1011D000476A0023324641462046B8470FF21C05B5
:1011E00020B93346002241462046B847405DBDE85D
:1011F000F08100002C0C0020000008080002020210
:101200004B4B464700366E01EE0800000100FFFF21
:10121000FFFFFFFFFFFFFFFFFFFFFFFFFFFFFFFFDE
:10122000FFFFFFFFFFFFFFFFFFFFFFFFFFFFFFFFCE
:10123000FFFFFFFFFFFFFFFFFFFFFFFFFFFFFFFFBE
:10124000FFFFFFFFFFFFFFFFFFFFFFFFFFFFFFFFAE
:10400000C8F10020ED3802085D3802086138020866
:10401000A70A080100410008041003AC50545604DC
:1040200011451157000000000000000000000000D2
:104030000000000000000000000000000000000080
:10404000000000003DD492EC084CFFFFFFFFFFFF93
:10405000FFFFFFFF007007080000000000000000E5
:104060009D4D56C576530E1EFFFFFFFFFFFFFFFF5E
:10407000FFFFFFFFFFFFFFFFFFFFFFFFFFFFFFFF50
:10408000F0FF002000000000EDFF0020EDFF002009
:10409000C8F10020E0640208205E020868E8002001
:1040A000F80D00200000080800000120FFFFFFFFBE
:1040B000FFFFFFFFFFFFFFFFFFFFFFFFFFFFFFFF10
:1040C000FFFFFFFFFFFFFFFFFFFFFFFFFFFFFFFF00
:1040D000FFFFFFFFFFFFFFFFFFFFFFFFFFFFFFFFF0
:1040E000FFFFFFFFFFFFFFFFFFFFFFFFFFFFFFFFE0
:1040F000FFFFFFFFFFFFFFFFFFFFFFFFFFFFFFFFD0
:10410000C8F10020ED3802085D3802086138020865
:1041100069380208653802086D380208E838020874
:10412000E8380208E8380208E8380208E8380208E7
:1041300071380208E8380208E83802087DAC000847
:1041400025380208E83802088F970008E838020886
:104150004BE2000847590008E8380208E83802082E
:104160000FBA000839700008F1A50008496F01086E
:10417000E8380208FF360208473702081F9D00088A
:10418000E19F0008E8380208E8380208E938020828
:1041900010B501F007010368012405E010B501F036
:1041A0000301890003680F2400F05DF8016010BD71
:1041B00070B500F0DBF8044600F0D8F8054600F0D2
:1041C000D5F800F00106182C05F00F05A8BF362021
:1041D0003BDA00F09FF810F0010018BF382034D10E
:1041E000E00803D0022809D004D30CE0324621466F
:1041F0004F4806E0324621464E4802E0324621460C
:104200004D48FFF7C5FFA00805281DD8DFE800F0DE
:1042100003070B0F13172A462146484812E02A4687
:10422000214647480EE02A46214646480AE02A46EB
:104230002146454806E02A462146444802E02A46EF
:1042400021464348FFF7AAFF0020BDE8704000F078
:1042500094B810B501F00301890003880F2400F021
:1042600002F8018010BD8C40A34302FA01F119430A
:10427000704710B501F0070103780124FFF7F3FF41
:10428000017010BD2DE9F84300F070F8044600F00D
:104290006DF8054600F06AF8064600F067F8074634
:1042A00000F064F805F00F0806F0010500F00109C0
:1042B000182C07F00F06A8BF362023DA00F02AF8E2
:1042C00010F0010018BF38201CD1600804EB90707A
:1042D00087082048424600F019F81F48324600F08F
:1042E00015F8A00804EB5070C6081C482A46214661
:1042F0003018FFF7BEFF1A484A4621463018FFF72C
:10430000B8FF0020BDE8F24300F037B8214600EBCB
:1043100047009EE74FF4F0500021224600F0EEB92E
:1043200080B500F04EF80F4908400F49086001BD04
:104330000CB000400CB200400CB4004000B0004093
:1043400004B0004000B2004004B2004000B400409D
:1043500004B40040E0F20020F4F20020D0F200208B
:10436000D8F20020FFE1FF0008F300202848016890
:10437000491C016011F8010D70472649264B0A6857
:104380001B68D31A852BB8BF10700868401C0860E2
:10439000704710B50446C0B2FFF7EFFF200A66E091
:1043A00010B5FFF7E3FF0446FFF7E0FF04EB002042
:1043B00080B210BD10B5044680B2FFF7EAFF200CB2
:1043C000BDE010B5FFF7ECFF00F06BF804EB004028
:1043D00010BD38B50F4C104A2368126805469A1A6A
:1043E000AA18862A03DA0246184600F096F92068D1
:1043F0002818206031BD38B50446054D08462968A7
:10440000224600F08AF928682018286031BD000093
:104410001CF8002020F80020B4F9002070B50446F4
:104420000D46002604E0FFF7BBFF25F81600761CBA
:10443000F6B2A642F7D370BD10B50446214600F08F
:104440007CF8FFF7ADFF2081FFF790FFA072FFF728
:104450008DFFE072FFF78AFF2073FFF7A1FFE08175
:10446000FFF784FF2074FFF7ACFF606110BDBDE86B
:10447000104082E710B500F014F82080FFF790FF9D
:104480006080FFF773FF2071FFF770FF6071FFF727
:1044900087FFE080FFF784FF2081FFF767FFA072AE
:1044A00010BD04467CE710B50446FFF75FFFA0701F
:1044B000FFF776FF2080211D00F03FF8FFF756FF41
:1044C000E070FFF753FF2073FFF750FF607310BDDC
:1044D00010B500F0DDF82069BDE810406AE710B5BE
:1044E00000F007F9FFF76DFF206110BD10B5FFF771
:1044F000D8FF208010BD20793FE710B50446FFF7B4
:10450000D2FF04F1100000F01DF804F11C0100F0CE
:1045100014F8FFF745FFA0842434FFF741FF6080C3
:10452000FFF724FF2071FFF721FF6071FFF71EFFE7
:10453000A071FFF71BFFE07110BD08205BE7BDE82D
:10454000104026E710B50446FFF73BFF2060FFF759
:1045500038FF6060FFF724FF208110BD10B500F028
:1045600011F8A088FFF715FFE088FFF712FF2089F8
:10457000FFF70FFF6089FFF70CFFA089FFF709FF26
:10458000A07B74E70446206814E710B50446FFF7E3
:1045900018FF2060FFF704FFA080FFF701FFE08015
:1045A000FFF7FEFE2081FFF7FBFE6081FFF7F8FEBC
:1045B000A081FFF7DBFEA07310BD10B5FFF7E2FF8F
:1045C000FFF799FF611D1020FFF703FF04F11501AC
:1045D000BDE810401020FCE610B5FFF762FF208018
:1045E000A11C23E010B504462078FFF7C6FE611C2D
:1045F0000F20FFF7EEFE04F110010320FFF7E9FEA4
:1046000004F11301BDE810400720E2E610B50446AE
:10461000FFF7ACFE2070611C0F20FFF7ECFE04F1E9
:1046200010010320FFF7E7FE04F11301BDE810407D
:104630000720E0E638B500F02BF804F1100108205F
:10464000FFF7C7FEA069FFF7B5FE04F11805A888BB
:10465000FFF79FFEE888FFF79CFE2889FFF799FE89
:104660006889FFF796FE04F124010720FFF7B1FEE9
:10467000E87CFFF782FE287DFFF77FFE687DFFF76D
:104680007CFEA87DFFF779FEE87DBDE8324074E648
:104690000446214610209CE638B500F02AF804F1C3
:1046A0001001FFF74AFFFFF78CFEA06104F1180527
:1046B000FFF776FEA880FFF773FEE880FFF770FE35
:1046C0002881FFF76DFE688104F124010720FFF7C0
:1046D00092FEFFF74BFEE874FFF748FE2875FFF7E0
:1046E00045FE6875FFF742FEA875FFF73FFEE875C7
:1046F00031BD0446214610207DE60000D2B2203AAA
:1047000022BF21FA02F0002170472032D141D0406F
:1047100048409140D14048407047814233D2101800
:104720005118401E491E10E011F8013900F80139F6
:10473000121F11F8013900F8013911F8013900F898
:10474000013911F8013900F8013992B2042AEBDA83
:1047500092B2002A1EBF11F8013900F80139521E29
:10476000F6D1704711F8013B00F8013B121F11F818
:10477000013B00F8013B11F8013B00F8013B11F847
:10478000013B00F8013B92B2042AEBDA92B2002A14
:104790001EBF11F8013B00F8013B521EF6D17047D5
:1047A000130003D00A46194600F020B8704710B530
:1047B00000E0521E92B222B100F012F8F9D0181B9C
:1047C00010BD002010BD10B500E0521E92B22AB1FB
:1047D00000F006F8F9D0181B40B210BD002010BD43
:1047E00010F8013B11F8014BA342704762F30F220E
:1047F00062F31F42401810F0030308D0C91A1FD3F8
:10480000DB0748BF00F8012D28BF20F8022D130058
:1048100030B414461546103928BF20E93C00FAD8B8
:10482000490728BF20E90C0048BF40F8042D890043
:1048300028BF20F8022D48BF00F8012D30BC70477A
:10484000C91818BF00F8012DCB0728BF00F8012DAB
:104850007047000038B50446607800EB400000194E
:1048600000F110056878207100F03EFAA978081868
:10487000A060A9782A788B18212B07DB401A1F30FB
:10488000E060A97828782039081803E01018401E45
:10489000E0600020287031BD38B50446607800EB38
:1048A0004002121902F110052A78B2B1DFF8F403C0
:1048B00021790068085C207100F016FAA060297860
:1048C000212904DB1F30E0602878203803E0081835
:1048D000401EE0600020287031BD0FF2F03232F847
:1048E0001110401C90FBF1F201FB12006070E078A7
:1048F000401CE070A078401EA070A07818B120463F
:10490000BDE83240A6E7A06031BD2DE9F04704467E
:10491000884691469A4600F0CDF900283DD12546BB
:104920000FF2B030DFF88063285C012802D0022843
:1049300024D032E056F8257000F074FD0021B980D3
:104940003980798000F074FD06EB8500066900F07F
:1049500069FDDFF858230021B18031807180A954AE
:1049600000F066FD00F0EEFF53464A464146204601
:10497000BDE8F04700F07ABDBDE8F08756F8257035
:1049800000F050FD0021B97039707970F970FF2185
:1049900039710021B960F960D4E72120ECE72DE9F5
:1049A000F84381464C46DFF8000300EB840088465C
:1049B0000669484600F07EF908B1012037E0DFF8CB
:1049C000EC52605D05EB440760B1B888718888429D
:1049D00008D100F027FD665D0021615500F028FD3B
:1049E000304624E0484600F080FEB088F0B100F088
:1049F00019FD71880FF2E8228919897988F8001069
:104A00004FF6FF78718832F8142000F01EF871809C
:104A1000B1884144B18000F00BFD605D20B1B888E1
:104A2000404504BF3088B880002000E02620BDE863
:104A3000F28380880FF2942333F81110891A884288
:104A400001DA0120704700207047491C91FBF2F306
:104A500002FB131170472DE9F047804647460FF2DD
:104A60007420385C01288A46164602D0022830D0CD
:104A70004CE08D480FF2602950F82740002514E0E3
:104A800000F0D0FCA18801B9012522881AF8011B89
:104A900012199171218839F81720FFF7D6FF21806C
:104AA000A188491CA18000F0C3FC3046461EC0B25C
:104AB00058B1002241462046FFF7BBFF0028DFD156
:104AC0000DB100F026F8222021E000F022F80020AD
:104AD0001DE03146504600F0FEF9FF28044613D091
:104AE00073490968435C00222146404600F014F8EF
:104AF000054600F097FC0646204600F069F930466E
:104B000000F096FC284602E0182000E00120BDE8F5
:104B1000F087404600F0EABC2DE9F84F0D46FF2D26
:104B2000824616461F460CD0002F6DD0D0460FF29D
:104B3000A410DFF8709118F80000012807D00228AF
:104B400022D0012061E0D9F800002D5C203EF6B2B1
:104B5000202EF8DAC6F12000C0B2B846874288BFDE
:104B60008046284600F0C0F831185FFA88F25046B7
:104B7000FFF771FFD9F800002D5CA7EB08070026AE
:104B8000FFB2002FE6D13CE0474850F8284000F043
:104B900049FCA1788DF8001094F803B000F048FCAF
:104BA0000FF2281030F818809DF800005844404556
:104BB0000BDBBBF1000F02D000F035F805E022203E
:104BC00023E0D9F800002D5C203EF6B2202EF8DA62
:104BD000284600F0EFF8207800EB4000001900F8BC
:104BE000107F457086702078401C90FBF8F108FB20
:104BF0001100207000F016FCA178491CA17000F093
:104C000017FC504600F072FC0020BDE8F28F914284
:104C100006D20FF2B80333F810000818801A00E02B
:104C2000881AC0B270472DE9F84F00240FF29C0893
:104C3000DFF874900FF29C0A14F80A0002282BD1B6
:104C400059F82450E87838B300F0ECFB8346EE784E
:104C50000020E87032466978E0B2FFF7D8FF0746D7
:104C6000584600F0E5FB14E000F0DCFB834607EB60
:104C700047004019407C00F0ABF8584600F0D8FBE4
:104C800038F81410781C90FBF1F201FB1207FFB208
:104C9000761EF6B2002EE7D1641C042CCCDBBDE8F6
:104CA000F18F0000F8F10020C8F100200CF5002081
:104CB000F0F10020042806DA0FF21801415C481ECA
:104CC0008041C00F70470120704700004000020083
:104CD000000000000102000040000200000000008F
:104CE0004000400000000000DFF8F816096801EB02
:104CF00040107047DFF8F0261268815470472DE9A4
:104D0000F041040035D000F08DFBDFF8E016DFF84D
:104D1000E0360E78FF228046FE2EDFF8D8061BD143
:104D200000260E70DFF8D0C6DFF8D06637781F7027
:104D3000002708E007F1010E07F805E0DCF8005055
:104D40007A555FFA8EF796F800E005687745F1DB53
:104D50000EEB050606F8012C1E78A6420BD2404643
:104D600000F066FB052000F05AFE00211B2001F038
:104D70009CF8FF201CE0361B1E70DFF884360E788E
:104D80000F78D3F800E0012507F80E50641E05687F
:104D900017F805E081F800E0E4B2002CF0D17A5574
:104DA00000213046FFF7A6FF404600F041FB3046A9
:104DB000BDE8F08110B5044600F034FBDFF8401682
:104DC0000968625C521C6254BDE8104000F030BBC0
:104DD0002DE9F041054600F031F8044600F022FBD1
:104DE000DFF80826DFF80836DFF80866DFF81086F7
:104DF000FF2D1FD0D8F800106F5C7F1E6F547F27E7
:104E0000D8F800E015F80E10394213D13168695C0A
:104E1000002705F80E701F787F1C1F70FF29376868
:104E200092F800E005F807E0157006BF2546FF245C
:104E30000D46DDE7BDE8F04100F0FABA80B5DFF8D5
:104E4000C0150968415C090603D5FFF74DFF0078DE
:104E500002BDFF2002BDB0B504460D46FFF7EEFFD0
:104E6000FF2818BFFFF7B4FFFF2DDFF8947504D1BA
:104E70003868215C01F07F0106E02846FFF79AFFC1
:104E80003868215C41F0800121542046FFF72CFF57
:104E90000570B0BD0EB478B504460120FFF72FFFB2
:104EA0000546FFF721FF0646FF2D08BFFF200FD064
:104EB000E1B22846FFF71EFF05A8002104E050F8E4
:104EC000042B06F8012B491CC9B2A142F7D328468E
:104ED00072BC5DF810FB70B504460D4605F11F006D
:104EE0000004400D82B0C0B2FFF709FF0646FF2E56
:104EF0000CD02946FFF7FEFE3CB1012000902B4666
:104F000000223146204600F002F8304676BD73B5E7
:104F100000F0BBF8085C15461E467119884203DA9A
:104F20004FF4B07100F0DAF866B1294601A800F03C
:104F3000D9F8024606989DF80410009033462046A2
:104F400000F001F873BD2DE9F843089CDFF8A48454
:104F50000546894616461F460BE04A5D0A54491C21
:104F6000B142FADBD8F80000BF1B751919F80090A0
:104F70000026FFB2BFB14846FFF7B6FE3018F11960
:104F80002029B2BF3E46C6F12006F6B2324624B909
:104F900001462846FFF7C1FBE4E7012C08BF29467C
:104FA000F8D00021DCE7BDE8F1832DE9F04100F005
:104FB0006CF882B01600255C88461F460ED0711929
:104FC000C9B2204600F04FF808B1182007E000975A
:104FD00033462A4621464046FFF799FF0020BDE8A8
:104FE000F6810123E1E70A4600E0521C1378002B0A
:104FF000FBD1521A0223D2B2D7E7F8B5044601F129
:105000001F00C50402F11F00C0042D0E000E05B9DB
:10501000012500B90120854223D08542DFF8D46301
:1050200010DA401BC0B2FFF76AFE0746FF2F01D11E
:105030000020F2BD691EC9B2204600F02BF831688D
:1050400047540EE08A420CD2411EC9B2204600F0FD
:1050500021F804463068205CFFF7BAFE3168FF2073
:1050600060540120F2BD38B500F00FF80D46215C08
:105070002A462046FFF7C1FF28B129462046FFF700
:1050800039FE002032BD182032BD0446DFF8580337
:105090000068704704E0DFF85C231268805C491EFA
:1050A000C9B20029F7D1704711B581B0DFF83803D4
:1050B00000680C469DF80410085C844203D34FF44A
:1050C000F47100F00BF8214601A800F00BF804463B
:1050D0009DF80400FFF708FE201816BD0FF23430CB
:1050E00001F004B838B504460D46E9042078090EED
:1050F000FFF7D0FF207005F01F0032BD80B5FFF72D
:10510000D3FF007802BD10B51446FFF7CDFF047041
:1051100010BDB0B5FFF7B9FF82B0255CFF2C03D1FD
:105120004FF40271FFF7DAFF05F11F000004400D94
:10513000C0B2FFF7E4FD0746FF2F0AD02946FFF76C
:10514000D9FD0095002322460021384600F0CAF818
:105150003846B6BDF8B504460D4616460120FFF7A1
:10516000CEFD0746FFF7C0FDFF2F01D1FF20F2BDA6
:1051700033462A462021201800F020F82118C9B211
:105180003846FFF7B7FD3846F2BD10B582B004AC23
:10519000009400F001F816BD10B514461A46029BA3
:1051A000091B2018BDE81040C9B207E00CB480B557
:1051B00002AAFFF7CFFF02BC5DF80CFB2DE9F04718
:1051C000804616469946C24600250C460AE03A46F5
:1051D0005046FFF7A2FA7819BA44401EC5B2681CBF
:1051E000C5B2761CA5423CDA3078002839D0312887
:1051F00018BF32280ED159F8041B0AF8011B3228B7
:10520000EDD1681CC5B2AC42A4BF08120AF8010B6C
:10521000E5DA26E0342811D1291D59F8040B8C4217
:105220001FDB0AF8010B010A0AF8011B010C0AF83E
:10523000011B000E0AF8010BE81CCFE7A0F13302B6
:1052400059F8041B072A38BF303806D3A0F14102B1
:10525000072A34BF373859F8040BC7B27819A0426F
:10526000B5DBAAEB0800C0B2BDE8F0875F49FE20BD
:105270000870704770B500F02AF800F004F800EBF1
:10528000062080B270BD06462946204636E700B5A6
:1052900083B002238DF80420120A8DF80520012224
:1052A000009219E0F8B500F012F8FFF7ECFF07469E
:1052B000E91CC9B2FFF7E9FF07EB06260702A91CA4
:1052C000C9B2FFF7E2FFC01906EB0040F2BD0D4680
:1052D000691C0446C9B211E70A46014601A8FFF756
:1052E00016FE07BD2DE9F541089C1F464CB3254627
:1052F00089B200A8FFF7F6FE0646B9B201A8FFF78B
:10530000F1FE07463046B84238BF3846C0F12000AB
:10531000C0B2A842B8BF05469DF80400FFF7E4FC00
:1053200080469DF80000FFF7DFFCAAB207EB0801FA
:105330003018FFF7F2F9641BA919EF19A4B2002C79
:10534000D5D1BDE8F38170B504460D4600F06AF88A
:10535000294B21781B68FF2908BFED5403D0C918D9
:105360000E78EE540D702570BDE8704000F060B806
:1053700038B5044600F056F82178FF22FF2908BF0F
:10538000FF2507D01C4B1B68CD5C8D420EBF2270E1
:10539000EA5CCA5400F04CF8284632BDF8B5044621
:1053A0000D46002600F03EF82178FF2915D0124B5B
:1053B0001B680A46012602E0761C3A46F6B2D75C24
:1053C000AF4208D1FF5CD754A94206D18A4208BF38
:1053D000FF22227001E08F42EED100F029F8304622
:1053E000F2BD0000ECF10020F0F100201CF30020E1
:1053F000E9F10020F8F10020FCF10020E8F10020A4
:10540000F4F100200078FF2801D10120704700202E
:10541000704700007061636B65742D627566666528
:10542000722E6300EFF31180602181F311887047C1
:1054300080F3118870470000012800D0704780B5C4
:1054400000F0ABF8DFF86C05DFF86C254FF6FF7164
:10545000016020211160016C41F4C0610164DFF83A
:105460005C05016841F02101016001BD70B50028B3
:1054700015461E4639D0012836D113293CBF0FF2FC
:105480008050095C08096422504301F00F010B2988
:1054900003DA884006E00A2250430A46511ED2B27F
:1054A0000B2AF8DA0146012000F0CBFFE8B93009F9
:1054B00007280CBF00200220012D08BF40F0180073
:1054C00003D0022D08BF40F0080006F00F010229AA
:1054D000DFF8EC14A8BF40F00400886001200860E9
:1054E000FFF7AAFF002062BD212062BD38B504008D
:1054F00013D1DFF8D0040468608828B140F2AB21F2
:105500000FF2F44000F0F2FDA188C9B2A01D01F035
:105510001DF80020A080208031BD012802BFDFF8E7
:10552000A004006801280FD1FFF77CFF0546DFF8D3
:105530009804016841F4C05141F004010160012068
:1055400000F097F9284681E131BD70B5DFF880247D
:10555000DFF8803412680FE0158810F8014BAD18A1
:10556000AC7114881D88641C94FBF5F605FB164489
:1055700014809488641C94800C46611EE4B25CB173
:105580009488DFF858542D886D1EAC42E4DBBDE8EA
:10559000704023210020EEE170BD2DE9F041DFF8DD
:1055A0003014DFF83C4451F82000DFF83854002272
:1055B00062602281A2721026811D2E632960002361
:1055C000278801EB5706A6F1010CC5F804C0AE60B0
:1055D00007EB010CACF1010CC5F80CC0B0F804C02D
:1055E000BC453BD00788B4F8028007EB010E474565
:1055F00039BFC5F800E00122C5F808E00123B0F882
:1056000002C007889CFBF8FEBEF1000F18BF4FF0E8
:10561000010E97FBF8F707B101275FFA8EFEFFB284
:10562000BE450ED0C44527BF012060720120207204
:10563000D2B20AB101202863DBB293B10220286301
:105640000FE08088804507D3002B0FBF521C01203C
:105650002072A0725B1CEBE72960AE600120207213
:105660006072BDE8F08170B501280C463CD14FF462
:10567000C0610C4238D0DFF85813DFF8602351F8CE
:10568000201032F810004988DFF85C53B1EB500F5E
:1056900002D22A68D20709D4B1EB500F02D328688E
:1056A000800703D4286B40084000286314F4007678
:1056B00002D02868C00604D4600506D52868800694
:1056C00003D50021122000F0F0FB16B12868C005B8
:1056D00004D4600508D52868800505D5BDE870406C
:1056E0000021132000F0E1BB70BD2DE9F843054611
:1056F000012D40F08680B649BA4A51F82510136B47
:10570000D2F820C0566AB64CB44FB4F804E01FFA81
:105710008CFCE645DBB219D0ACEB0E0EB1F8048080
:105720001FFA8EFEF044A1F80480B1F80080C64450
:1057300037F815809EFBF8F908FB19EEA1F800E098
:10574000A4F804C04FF0010C84F808C0B6B2B4F855
:1057500006C0B44517D0A6EB0C0EB1F804C01FFA72
:105760008EFEF444A1F804C0B1F800C037F815501B
:10577000F4449CFBF5F705FB17C50D80E680012579
:1057800065720025A57265888E88B54239D38E88EA
:105790000EB9012512E04E8896FBF5F606B10126FA
:1057A0000F887F1EBFB297FBF5F505B10125F6B254
:1057B000EDB2AE4222D186F001057EB1A67A6EB975
:1057C000DE070BD48E1D1660268801EB6606761D5B
:1057D00056600026A68026720126166375B19B07C7
:1057E0000CD4238801EB6305AD1D59189560491D44
:1057F000D1600021E180617202211163BDE8F243B2
:1058000001E0BDE8F18338B5704C0546E06A00F070
:105810006100202819D1FFF705FE6D496F4A51F844
:10582000251032F815204988B1EB520F02D22368B7
:10583000DB0705D4B1EB520F06D32168890703D5E6
:10584000E16A41F00101E16200E031BDBDE83240B2
:10585000FFF7EEBD01280AD15F48C168012904D1D4
:105860000068800900F001007047002070470120A7
:105870007047012800D07047F8B5524951F82060B0
:10588000B078F0B9B068E0B140F255610FF268103D
:1058900000F02CFC15E0B1683960F16879604FF4D4
:1058A0000061016004203862E07AFF2818BFFFF72A
:1058B0008FFA3079E072FFF77DFA01213046FEF76A
:1058C000EBFFB078464C494F10B3B06810B9304682
:1058D000FEF7C0FF396A3748490702D4F96949071A
:1058E000D9D5396A090713D4F969090710D4B16801
:1058F000B960F168F9604FF48051016008203862A6
:10590000207BFF2818BFFFF763FA30792073D2E7B6
:10591000E07AFF25FF2808D0396A490705D4F969DC
:10592000490702D4FFF754FAE572207BFF2808D01C
:10593000396A090705D4F969090702D4FFF748FA5B
:105940002573F1BD704710B51A480168026C02EA70
:105950000104046046F22970044203D0A1B2012080
:10596000FFF781FE41F6D600044203D0BDE81040A7
:1059700001207EE710BD30B5154A1D4C52F820209D
:10598000055D1C4B25B9128823F81020015530BD48
:1059900033F8103013800155138851888B4205D29B
:1059A0000E4C34F81000401A181800E0581A908075
:1059B00030BD000008A8004000E100E05CC80040E5
:1059C00054C80040C8F1002048A8004030C800403A
:1059D000D8F10020E04C000848C80040285E0208CA
:1059E0000CF3002000C800402CC8004010C8004044
:1059F0000CF5002010F50020756172742E63000014
:105A0000306090C0C1C2C394C495C55C96C6AC97C3
:105A100098990D0070470EB403B0704770477047F7
:105A20000CB402B07047002070470020704700009F
:105A30002DE9F047DFF86446DFF864562068DFF8A8
:105A400064A6DFF86486DFF86496E86128620026C1
:105A500025E02068482101FB06074822002138463E
:105A6000FEF79EFE98F800003870002038737873B7
:105A70000B20B8730320F8734FF6FE7038824FF690
:105A8000FF70788200F0CAFE387600F0C7FE7876A4
:105A900000F0C4FEB876761C9AF80000F876F6B2EC
:105AA00099F800008642D4D3281DBDE8F0470222B1
:105AB000FF21FEF775BE2DE9F041DFF8F4550FF236
:105AC0001068044695F9000010F1010F03DA522125
:105AD000404600F00BFBDFF8D47538788442264648
:105AE00005D3FE2E03D05421404600F0FFFA28785B
:105AF000DFF8AC15401C287040B2401804743878A8
:105B0000844200F073F828BF0E78482202FB06009A
:105B1000C861BDE8F08110B5DFF8944594F9000044
:105B2000002802D5652100F0A3F82078DFF8701571
:105B3000DFF878350A781B78401E207040B20028C4
:105B40004EBF10464018007C984238BF024600F015
:105B50004DF8482303FB0200C86110BD10B50020BA
:105B6000DFF83C15482400E0401C00F07BF808D228
:105B7000DFF82835CA691B6804FB00339A42F3D169
:105B800010BD7E216AE0DFF8280590F9000010F1D1
:105B9000010F01D10120704700207047FE208AE7E5
:105BA000DFF8FC040078704738B50446DFF8F0549D
:105BB000FFF7E9FF50B9DFF8F80490F90000401949
:105BC000007CFE2802D09A2100F052F8DFF8DC04B5
:105BD0000078844201D3B12032BD00F007F82C7068
:105BE000482101FB0400E861002032BDDFF8AC046D
:105BF0000068704738B5DFF8B804DFF8A45490F9AE
:105C000000406019007CFE2807D0FFF7BCFF20B9D8
:105C1000B62100F02DF8FF2032BD611E00E0491EC4
:105C200049B2080004D44819007CFE28F7D032BDE0
:105C3000287832BD10B50020DFF86414482400E055
:105C4000401C00F00FF808D2DFF850340A6A1B68D5
:105C500004FB00339A42F3D110BDD52100F008F8BF
:105C6000FF2010BDDFF844241278C0B29042704784
:105C70000FF25C4000F03ABA10B500F0D9FFDFF83F
:105C80002044216A897B884203D0084600F0C8FF7F
:105C900050B900F0D0FF0146206A90F90F00814210
:105CA00004D000F0CCFF08B1012010BD206A008AAA
:105CB00001F03BFC206A408A01F03FFC206A007B37
:105CC000012818BF002001F01AFC002010BD10B5FB
:105CD00000F041F802D3F721FFF7CAFFDFF8D40341
:105CE000007808B9702010BDFFF780FF482101FB44
:105CF0000400DFF8AC130862BDE81040BCE7DFF831
:105D0000B4130870704710B5DFF8AC430020207062
:105D100001F003FF20B92046BDE8104001F030BF7C
:105D200000F065F800F017F80AD22046FFF7C3FE2E
:105D300002F0F2F808B102F083F9FFF7ECFE05E09B
:105D4000FFF70CFF044600F014F818B12046BDE838
:105D50001040BCE710BD0446DFF8500300788442D1
:105D60007047CF48006A008A7047CD48006A408A71
:105D70007047CA490968482202FB0010407B02288C
:105D80001CBF1128432801D1012070470020704713
:105D9000C2490968482202FB0010007B012818BF95
:105DA000022804D003281CBF0628072801D101209F
:105DB000704700207047F8B50024B84DBB4E00E096
:105DC000641C3078E4B284420FD22868482101FB79
:105DD00004072046FFF7CDFF0028F1D0387B0128CB
:105DE00018BF0228ECD12046F2BDFF20F2BD38B525
:105DF0000024AE4D00E0641C2878E4B284420BD24B
:105E00002046FFF7C5FF0028F5D02046FFF7B1FF79
:105E10000028F0D0204632BDFF2032BD70B50024EE
:105E20000025A24E09E02846FFF745FE02F04DF896
:105E300000B10124FFF76FFE6D1C3078EDB2854292
:105E4000F1D3204670BD80B5FFF7D1FFFF2801D008
:105E5000012002BD002002BD38B5984C05462068DF
:105E60000321A94088432060FFF778FEA8402168FD
:105E70000843206031BD9149096821FA00F000F023
:105E80000300704738B500F01AF82946204602F0A2
:105E90006EFD11E010B50446FE20FFF70CFE204613
:105EA00002F007FCBDE8104035E638B500F007F811
:105EB0002946204603F006F9BDE831402BE60446AA
:105EC0000D46FE20F7E5F8B5784E754D044630785E
:105ED000687000270DE03846FFF7EDFDE86941697D
:105EE00044F8371004EBC701C07E0871FFF713FEBA
:105EF0007F1CFFB230788742EDD3F1BDF8B5044680
:105F00000025674E0DE02846FFF7D5FDF06954F8EF
:105F10003710416104EBC7010979C176FFF7FBFD3A
:105F20006D1CEDB2614970780978814238BF08462E
:105F30002F468742E7DBF1BD38B5FFF70FFE5B4A1E
:105F4000574B1278002100E0491CC9B291420DD292
:105F50009C780C1994FBF2F502FB1544E4B2E418AA
:105F60002579854202D0FF2DEED1207131BD70B56B
:105F70004B4C4E4EA078001905793078854203D3FA
:105F80004FF4F571FFF774FEA0780219FF2111712B
:105F9000401C317890FBF1F201FB1200A070284602
:105FA00070BD3F48817808180079FF2801D0012092
:105FB00070470020704710B5FFF745FF78B1384CA7
:105FC000E069007B001F022809D21420FFF744FF7C
:105FD00004F10800BDE81040642101F0DCBDBDE81B
:105FE000104003F052B980B52D49002008721420EA
:105FF000FFF741FFFFF75FFD03F047F9BDE8014000
:1060000089E500002DE9F8438146FFF7A7FDB9F1C6
:10601000070F0FF2BC082A4C214F2A4D2A4E33D8C5
:10602000DFE809F0040A0A1B1B1B3939F969002053
:106030008862283188602EE0FFF705FF20B140F22A
:106040002121404600F052F8F86931688162283019
:1060500021688160297801711DE02A783568F96925
:106060000E2303FB025503FB00538B622831236888
:1060700003EB8202154B1B7802EB830202EB8000DC
:1060800088600120087106E04046BDE8F44340F214
:10609000372100F02BB8BDE8F183000038F2002072
:1060A00080F900207DF20020A3FF00203CF20020B8
:1060B00057F3002056F30020A4F90020ACF900208B
:1060C00048F2002044F2002040F2002008F20020B4
:1060D000656D6265722D6D756C74692D6E65747772
:1060E0006F726B2E6300000042DE704738B50446C5
:1060F0000D4603F0D7FAFFF795F92946204600F040
:1061000018FA29462046BDE83440EDE72DE9F84F5E
:106110006448654D01682E1D4FF4206A7165016A5F
:10612000B16562490968F165416A3166816A7166E3
:10613000C16AB166016BF166806B306796F8340016
:1061400040074CBFF76BB76BBB4603F08EFB0022DA
:10615000574CDFF86081DFF86091F26487420146B6
:1061600024BFA4F12003BB4231651DD357F8180F9B
:10617000306457F8040F7064706DC005C00D0628B8
:1061800015D1306C484512D3404510D200884DF6E9
:10619000426290420BD105F18C006A68426040F285
:1061A000017A7268826002E0326472648346434816
:1061B000814202D2014600E0091DA14203D20B68D0
:1061C000B3F1CD3FF8D0601AB064182105F1780022
:1061D00003F07CFB002003E0C0B205EB8002916776
:1061E000A34523D254F8041D4945F9D34145F7D2BC
:1061F000CA07F5D5002205EB82039B6F8B4203D0C3
:10620000521CD2B2062AF6DB062AE9D1002814BFB6
:10621000401E0520E0E7716F002205EB8203521C4F
:10622000DF6F9F67052AF8DBC5F88C100146481E12
:10623000C9B20029EFD1706DC005C00D02280AD087
:10624000032815D0042816D0052817D0062818D002
:106250000C281CD01EE01A480168890748BF40F688
:10626000021A1CD40068C00719D540F2025A16E081
:1062700040F6012A13E040F6022A10E040F6032A15
:106280000DE0BAF5206F0AD140F6042A07E040F687
:10629000052A04E018B1242838BF40F6072A5046E2
:1062A000BDE8F28F04ED00E00000002000E300E014
:1062B000C8F10020205E02089041000898000020EC
:1062C0001CA0004010B5794C002003F060FB40F6A4
:1062D0008C2188422068B4BF40F0080020F00800FC
:1062E000206010BD10B504467148018882B000F0EE
:1062F0005CF89DF800109DF80100FF2902BFFF28FF
:106300000420002104B1801C6A4A1368C0B2082826
:10631000A8BF072023F4607343EAC0101060082967
:106320001068A8BF0721C00841EAC0001060624899
:10633000047013BD00B56148018883B000F035F8E2
:10634000BDF800004FF6FF7188420EBF4FF4E160C8
:106350000A2190FBF1F0ADF800005748007808B32F
:106360005348018802237F2201A803F041FB9DF8D6
:106370000500BDF80030FF2808BF0420811CC9B209
:106380000829A8BF0721C1F12F0202EBD272C0F188
:106390002F00521000FB0320C1F12F01B0FBF1F0E0
:1063A000ADF80000BDF800000EBD02237F2200A85A
:1063B00003F01EBB70B5424C2568064603F062F937
:1063C0004049B0FBF1F070432F303021B0FBF1F0C9
:1063D000032809D3616D41F0010161652168491B02
:1063E0000903090B8142F9D370BD10B5040004D133
:1063F00010BD4FF47A70FFF7DDFF2046441E80B2D7
:106400000028F6D110BD3048017869B9C078072856
:1064100018BF092814D0032818BF112810D013283A
:106420001CBF15280B280BD02848016841F4807246
:106430000260C80504D438210FF2A400FFF756BE4D
:10644000704738B504000D4605D0022C10D00FD38C
:10645000032C26D027E01E4C45B103F013F91D494B
:10646000B0FBF1F0401EB0F5005F0CD2206018E0E8
:106470004DB103F007F9690801EB4000B0FBF5F0FE
:10648000B0F5003F01D3202032BD4108022C00F0BE
:10649000010008BF104A02D0012C02D10F4A5060FF
:1064A0001160002032BD212032BD000000BC004040
:1064B0007861020818000040B1FF00207A610208EC
:1064C0003820004090D0030096070808384000406C
:1064D000100004E020A1070068D8004068C8004010
:1064E0007573625F6572726F722E630070B5B34C24
:1064F0002046FEF787FFD8B92046FEF739FFFF2870
:10650000044615D0AE490968405C851EE9B22046B4
:10651000FEF7B0FE0646E9B22046FEF7A4FD21468E
:10652000304600F0F8F82046BDE87040FEF750BC59
:1065300070BD03460A469FA10420FFE70CB480B556
:1065400002AA00F03DF801BC5DF80CFB21B1034646
:106550000A4699A11120F1E7704700B587B003F012
:10656000B7FB0021059102465021049100235421DC
:1065700003910120002102910191924900910FF2B3
:106580005421FFF7DBFF90488179C378827803912B
:1065900001880291417901910179009142200FF225
:1065A0004021FFF7CBFF07B000BD10B504462146E0
:1065B0008248FEF7C8FE2046BDE81040FEF7FABB51
:1065C0002DE9F04F85B005460C4690460026FFF7B2
:1065D0002AFAF8B903F07DFCE0B10120FEF78FFB49
:1065E0008246BAF1FF0F15D00021FEF783FB294642
:1065F00001A803F074FC05469CB900F087F830B997
:10660000504603F0E4FC10B10420FFF708FA5046AE
:10661000FEF7DEFB05B0BDE8F08F8DF80420012504
:10662000641C20780028E8D0A0F130010A2905D2A6
:106630000A2101FB0600A0F13006F1E700F066F840
:106640000028E4D122780025422A01A80ED0442A4D
:106650001AD0462A25D0572A0DD0622A3AD0662A67
:106660002AD06C2A25D0702A26D0D6E758F8040BF9
:106670008DF80400D3E758F8041B8DF804100225A8
:106680000904090E4170CBE758F8041B8DF804107B
:106690000A0A427004250A0C8270080E8DF8070061
:1066A000BEE758F8041B5046FEF79DFC0028B7D003
:1066B000ADE758F8046BB3E7012358F8041B662ACA
:1066C00008BF0223F2B25046FEF76FFC002808BF55
:1066D0000026ECE73A4858F8041B00681AF80090C6
:1066E000CFB2FF2F9CD017F800B00BEB0901C9B255
:1066F0005046FEF7B8FC002889D1CDF800B0002341
:106700003A4649465046FEF7EDFD89E72A4601A97B
:106710005046FEF766BC2DE9F043122885B080464E
:106720000D4609D03A281DD04FF6FE71884204BFAD
:10673000284602F02CF934E02148244F00682E5CF2
:1067400008E02846FEF7D0FA2146FEF7FEFE38683C
:106750002D5C203EFF2D24D0F6B2212EACBF20248C
:106760003446EEE701F05DFB814600F0E3FE0646AD
:1067700000F061FA074600F05BFA044600F0D2FE32
:10678000024610480FF260010390CDF810902346A6
:106790000F48006840880290019600973B20FFF761
:1067A000CDFE2946404605B0BDE8F043FFF73DB9B0
:1067B00000000000574600006C7000004CF3002001
:1067C000F0F10020C4F9002068610208F8F100200F
:1067D0009CF90020424238704242424257424200F5
:1067E0004242424257420000574242575738704295
:1067F0000000000081B209B94BF6EF610E4A11802A
:10680000000C08BF4FF6CE2050807047028813045A
:1068100048BF4A40510001801046704738B5064CC9
:1068200062212046FFF7F2FF054641F20B01A01C52
:10683000FFF7ECFF684032BD8AF20020DFF8E03459
:1068400033F810001040C840704730B50FF2905434
:10685000DFF8D03434F810409C601140DFF8C044B9
:1068600034F8105095432943D96002221A6000225F
:106870001A6024F8101058680028FCD130BDDFF8E9
:10688000A824DFF8A8041278DFF8A4140AB1497824
:106890000EE0895611F1090FB8BF302108DBC16D38
:1068A00039B1C26D40F24A31B1FBF2F189B2C91E71
:1068B00001607047E0B5DFF87C0401880A2300F02E
:1068C00064F8BDF806104FF6FF720D20FFF7BDFF0C
:1068D00007BDF8B50546B5F5004FDFF8544419D1AA
:1068E000DFF854040188022300F04FF8BDF80000DF
:1068F000000AFF2814BF002818206070BDF80000AF
:106900000006C00E10281CBF001D00F098F9BDF84D
:106910000000C543DFF81064707808B1002005E07E
:10692000A089ADB26840C00701D501207070DFF8C2
:106930000C04A58105F00104016841F400410160E7
:10694000C5F340070FF2BC4000EB44004FF4405247
:106950004078010389B20220FFF777FF204603F059
:10696000C7FB4022B90100F005FA2D06A80E00F081
:10697000010038433070FFF782FF707818B1FFF7DD
:1069800099FF002070700020F2BD7F2200A803F064
:106990002FB82DE9F04FDFF8AC43207887B00423FF
:1069A00004900B210B38C0B2039000A8039A03F0A7
:1069B00059FC9DF800008DF80A009DF801008DF843
:1069C00009009DF802008DF808009DF803008DF87D
:1069D0000500DFF874030078012804D16078451EB3
:1069E000AD41ED0F00E0012503F0CDFE83469DF99A
:1069F00002000399D24F0BF10A0AABF10A06504587
:106A0000B6BF86424FF001084FF0000801208840D1
:106A1000ADF806009DF80100000604D47888BDF8A2
:106A20000610084201D04FF0010803F033FF9DF833
:106A3000030000060AD4B888BDF80610084205D144
:106A40009DF900005045B8BF864202DB4FF00109B6
:106A500001E04FF0000948EA050059EA000000F0A3
:106A60009E80DFF8E8A2BA49DAF8000000F00200E0
:106A70008DF80400B748006800F4E06005904FF41A
:106A8000E0600860002000F0A9FD04F00FF9B24EAC
:106A9000ADB1607858B1DAF80000AB494008400069
:106AA000CAF8000001200870FFF784FC07E0306896
:106AB00040F400503060306820F480503060A248CC
:106AC000007801280DD103F0CCF8DAF800009E49D7
:106AD00040F00100CAF80000002008706420FFF7B1
:106AE00069FC2DB1607818B90498C0B204F057F968
:106AF000607838B1306820F480503060306840F4FD
:106B000000503060BDF80600C543B8F1000F08D052
:106B100004F030FA8DF801008DF802B07888284032
:106B20007880B9F1000F08D004F0D5FA8DF8030091
:106B30008DF800B0B8882840B8809DF900009DF914
:106B40000A10884202BF9DF801009DF80910884292
:106B50000BD19DF902009DF90810884202BF9DF8F3
:106B600003009DF80510884206D00399042300AA6B
:106B7000C9B20B2003F09CFB05987649086003F02E
:106B8000CFFB9DF8040000F029FD02F0FAFE6078CA
:106B900028B148F2607030606420FFF70BFC9DF86C
:106BA000010004F053F99DF8030004F08FFA07B0D8
:106BB000BDE8F08F80B503F0D9FDBDE80140E8E6FF
:106BC00003F0D4BD70B50646A6F10B0400F01EFC20
:106BD0000546A6F10B00102801D38A2070BD5F483E
:106BE0008168090702D40068C00701D58C2070BDF8
:106BF000544806705A4801680C290FD00FF27811DA
:106C0000584A92F90020A4B231F824105118C161F9
:106C1000FFF7BFFE012D08BF00F099FB002070BDFB
:106C200010B5044603F0A2FD2046BDE81040C9E7B8
:106C30004448007870473E4890F9000070472DE9BD
:106C4000F041044614F12B0F86B045DB464801881D
:106C50001423FFF79AFEBDF810004FF6FF7188422B
:106C600003D0400448BF012606D43F220021102053
:106C7000FFF7E4FD0546002604F12B022F2A2C48DD
:106C80003A491AD213220FF2301300E0521ED2B248
:106C900013F91270BC42F9DB03EB4204032764785A
:106CA0000C60002413F81210017000208046AEB171
:106CB000BDF810104FF6BF7229E0092C0CDA225CE7
:106CC0000A60047014232A480188FFF75EFE01243D
:106CD0000320A0462827EAE78B201DE0C1024FF4DD
:106CE000605200F047F84FF4E062210200F042F8F1
:106CF00080224FEAC81100F03DF885F020003D18D1
:106D0000ADB2402DA8BF3F253F2285F0200100F005
:106D100031F8FFF7B4FD002006B0BDE8F0810000B7
:106D200024F80020E8100040AFFF0020641000406D
:106D300020F30020766102088A6102081C100040DE
:106D400066F500201DF3002066F30020802000403F
:106D500080E100E000E100E0D01000406020004051
:106D6000AC100040AEFF002072610208C01000406D
:106D7000746102080B2068E5AA2129005523290027
:106D800000252800AA26270055282700002A2600CB
:106D9000AA2B2600552D2500002F2400AA30240000
:106DA0005532230000342200AA3522005537210035
:106DB00000392000AA3A2000D500E601EC02EF03DA
:106DC000F204F405F506F707F808F909FA0AFB0BCF
:106DD000FC0DFD0FFE11FF1300160119021C031F0D
:106DE0001000110020003000400041005000600001
:106DF000700080009000A000B000C000D000E00053
:106E0000F000000000000103DFF84408007848B1FA
:106E1000DFF840080179012904BF4079042801D135
:106E200001207047002070470FF6D001405C70478A
:106E3000010603D54FF67F710840C00070478001FE
:106E4000B0FBF1F080B2FF288CBF0020C0F1FF0042
:106E5000C0B2704738B5DFF80008C178012901D108
:106E6000002032BDDFF8FC47617871B1E1784079EC
:106E700045182079ADB2854228BF0546FFF7CEFC04
:106E80000121A940491E084000E00020617908184E
:106E9000C0B232BD2DE9F0470446C00705D54FF416
:106EA000B8710FF64800FFF721F9DFF8BC57286DDD
:106EB000C00748BF8C2000F19480DFF89C07DFF802
:106EC000A4770021017101704178B1B93978A1B17D
:106ED0002178122918BF0C290BD1627802F0070221
:106EE000032A02BF091911F8021C042904BF012159
:106EF0000171A96F41F0010102E0A96F4908490041
:106F0000A967DFF850877A7898F80610DFF85C9761
:106F1000DFF85C6792B1002242710129286D40F0D0
:106F20000400286506D14FF6FF7030604FF4007002
:106F3000C9F80000FFF78EFF82460CE0286D20F0B4
:106F40000400012928654FF0000A04D100F02CFA52
:106F50006420FFF72FFAA86F20F00800A86714201C
:106F6000E864C5F848A0787838B198F80600002899
:106F700001BFA86C00280120A864B8790028286DFA
:106F800014BF40F0080020F008002865FFF73CFF20
:106F900018B1306C40F008003064202028626C602A
:106FA0002C604FF4E06468687F30686004202862D9
:106FB000DFF8C006046006E004F056F918B104F0EA
:106FC0005BF9FEF72FFADFF8B006006800F0030067
:106FD0000328F1D0C9F80040286D40F00100286571
:106FE0000020BDE8F087DFF8940600214160816051
:106FF000016821F0020101604FF00070DFF8801697
:1070000008600120DFF87C1608707047A0F133019A
:10701000DFF87426914200D3704710B5DFF864465C
:107020000021217003F0A9FC02E0012004F028F9FE
:1070300020780028F9D010BD2DE9F84FDFF8308610
:10704000DFF81456D8F80000D8F84010DFF81876AA
:1070500001EA0004A4B2C8F800406878002840F0B3
:10706000D580E007DFF82466DFF8F8954CD5D7F82F
:1070700000A0386C796C41EA004199F80000A960E1
:1070800000283DD09AF80100800639D501202870EB
:10709000FFF7BAFEC0B31920FFF78CF94FF4404058
:1070A000DFF8ECB5CBF82800DBF800000090F06EBC
:1070B00040F40050F066F06E40F48050F0669AF8AC
:1070C0000010A8684901B83101EB000A03F01DFB6C
:1070D000AAEB00000003000BFFF798FFF06E800999
:1070E0008001F06600A9F06E09880843F066002070
:1070F000CBF8280048F26070F066E888306003E062
:107100000022002004F0E9FB20060ED5287830B1DB
:10711000002028700022A968402004F0DEFBD8F887
:107120003C0020F48050C8F83C00600608D5687820
:1071300030B903F0EAFA01460022892004F0CDFBC1
:10714000E00654D5DFF80CA5DFF820B59AF8040066
:10715000012804BF9AF8061001291FD102F081FD11
:10716000386F40F00100386700208AF8060003F00D
:10717000D7F80A20FFF71EF94FF6FF70C8F8000095
:1071800000244FF4E060CBF800000920B86601202D
:10719000B864B86F40F00800B86718E0697999F8EA
:1071A0000220491C6971C9B2914215D2012808BF59
:1071B00000F0CDF8B86F20F00800B8671420B8666A
:1071C000FFF748FEB8644FF40070CBF80000386D4C
:1071D00040F0010038650AE0012808BF00F0B7F868
:1071E00003F093FA014600228D2004F076FB20077D
:1071F0000CD5FFF709FE48B13068E8800120306007
:10720000D8F8400020F00800C8F84000A0060AD5D1
:1072100020203862687830B903F077FA01460022FE
:10722000882004F05AFB687820B114F4407F04BF32
:107230000120A870BDE8F18F70B582B00446FFF759
:10724000BFFCDFF85804DFF8145400210160152159
:10725000E960092101651F21416001210166DFF814
:1072600038040088FFF735FB03F082F804F0FAFBDE
:1072700000F02EF9DFF8DC63308900F056F97089F0
:1072800000F05BF9FEF7CEF8696841F040016960F3
:10729000FEF7CEF8707800F0F0F8B07800F0FDF866
:1072A000DFF8FC03007800F02AF9DFF8F80390F922
:1072B0000000FFF7C4FC307800F090F996F9030065
:1072C00000F098F9DFF8E00300F0B6F9BDF800002F
:1072D000DFF8D813C0054CBF0020BDF800000870CF
:1072E000DFF8CC030078FFF76DFC28B10FF2FC301B
:1072F00040F2B631FEF7FAFE012C05D12868C0072E
:1073000011D500F024F80EE06CB92868C0070AD443
:1073100002F0A7FC286840F001002860C820FFF7B1
:1073200049F80020B071F120DFF84443206440F2B6
:10733000F910E06302F0F4FF2868C00704D54FF6A7
:10734000FF70206000F05DF803F0B0FC73BD70B515
:10735000DFF86053DFF8FC422E68A079012822D0C4
:10736000FEF760F8B6B2DFF80C232E604FF4E06150
:107370001160DFF820130A6A520852000A620A6894
:10738000520852000A600A6842F002020A604A6A21
:1073900042F001024A620121A171FEF749F8BDE8FD
:1073A000704002F02FBC70BD70B5AA4CA07938B304
:1073B00002F057FCFEF736F80546DFF8FC12A84E3F
:1073C00001200860306D40F0010030650020A071A0
:1073D00002F0A6FF20203060306B40F002003063E6
:1073E000F06D40F00800F0652846FEF721F80A200D
:1073F000FEF7E0FF9E494FF6FF70086000F001F8CD
:1074000070BD4FF4E06099490860704791488079F9
:10741000704710B58F4CA07928B140F2A7410FF208
:10742000CC20FEF763FE2079012804BFBDE81040A0
:10743000FFF78DBF10BD87480079704780B50228DF
:1074400001DB012002BD834908718979884205D09A
:1074500010B9FFF7A9FF01E0FFF779FF002002BD97
:1074600096480068800200149A3801B211F1800F2A
:10747000B8BF6FF07F0040B2704710B50446FDF70B
:10748000D1FF8F490A68002C14BF42F0120222F08B
:1074900012020A606F494C7040E038B50446FDF7AF
:1074A000C1FF054602F035FC40B985480168002C53
:1074B00014BF41F0800121F08001016065488470B3
:1074C0002846BDE83240FDF7B3BF62488078704778
:1074D0007C494A780B787C4803EB022202608B7867
:1074E000CA7803EB022242600B794A7903EB02224D
:1074F0008260CA79897901EB0221C160704710B5B9
:107500000446FDF78FFF6E490A68002C14BF42F055
:10751000200222F020020A6061490C70BDE8104090
:10752000FDF786BF4B48008970474A490881674983
:107530000860704747484089704746494881644918
:10754000086070476348007870475248816A41F08C
:10755000020181620121016070474E4800210160F3
:10756000816A21F0020181625020FEF723BF38B505
:10757000594C5A4821695A4D0180E1694180E96CB2
:10758000818000202061FFF7E0FF0120E061002002
:10759000606220624CF25D00E864286840F40040BC
:1075A00028604FF40040206048F20200206031BDA6
:1075B00080B5FFF7D2FF48484FF400410160002139
:1075C000016047490A6822F400420A60434A9388EE
:1075D000CB64118801615188C16101BD1F490A68EE
:1075E000002814BF42F0020222F002020A60194988
:1075F0000870704738B504467F2C0AD1394800F02E
:107600001BF8BDF80000C00554BFBDF800406FF086
:107610004A04FDF707FF054602F07BFB30B964B270
:1076200004F19A0080053049000C08600948C470D4
:107630002846FDF7FDFE31BD018802237F2200A808
:1076400002F0D6B9034890F903007047000000002B
:10765000C1FF002060F30020B8F900208020004026
:107660003020004090F300201020004000E100E0B6
:1076700004A0004080E100E0A820004010E000E00D
:1076800004ED00E0C2FF0020CDFF070064100040C1
:10769000E4100040602000402CF300205C1000400B
:1076A000C0FF002020F3002098610208AEFF0020F8
:1076B0001DF300201C100040281000400C1000405A
:1076C00084200040C4F9002098200040942000400D
:1076D000902000405EF30020181000407EF500204E
:1076E000C01000409C610208541000407068792D61
:1076F000636F6D6D6F6E2E6300000000FEFEF7F786
:10770000C8C8010010B5DFF82004006898B9FDF77B
:1077100089FE0446DFF814040178002918BF052902
:1077200004D1032100F8041B00F02AFA2046BDE82A
:107730001040FDF77DBE10BD2DE9F047DFF8F043A6
:10774000DFF8E85327782978DFF8DC8300202871F8
:107750000FF2004051B9D8F8004014B99D21FEF74E
:10776000C5FC0020C8F80000A047B1E003291CBFF9
:10777000A321FEF7BBFCFF26FF2F26700CD0384656
:1077800004F0BBF9FEF797F9384601F091FE384650
:10779000FDF71EFBFEF7BFF90020687001F088FDC1
:1077A000002800F083802078012704F0A6F98046A5
:1077B000FEF781F92078DFF87C9304F099F900F066
:1077C0000C000C2816D1207804F083F9824604F0CE
:1077D000C5F999F8001010F80A00052902D1062809
:1077E00008D106E001291CBF0329082902D1072876
:1077F00000D10027207804F07BF900F00C00082865
:1078000004BF99F80000082834D09FB300F084FB2F
:1078100088B1207804F06CF900F00C0008280AD137
:10782000207804F03DFCC44F39688873207804F058
:1078300050FC3968C8734046FEF749FAD0B141217F
:10784000207804F0E9FD18B92078412105F0CCFE3C
:107850002078FDF7BDFA2670FDF7E4FD064603200B
:107860002870281D00F08CF93046FDF7E1FDFEF789
:107870004AFA17E0207800F08AF804466878AF49A1
:10788000C0074EBF0020AE4800780870FDF7CAFD63
:107890000646012028700121204604F007F83046F2
:1078A000FDF7C6FDBDE8F047FEF735B9FDF7BAFDB7
:1078B000064600202870D8F8000010B1281D00F0FE
:1078C0005FF93046FDF7B4FDBDE8F047FEF71BBA9F
:1078D000BDE8F08780B595480178012904D00229D8
:1078E00006D004290BD010E0BDE8014004F089B8AF
:1078F000FFF78FFDBDE80240312001F08BBD05216F
:107900000170BDE8014006F07EBBBDE804404FF4C5
:10791000B4710FF24020FEF7E9BB38B5FDF782FDE8
:10792000824D04462878052803D040F2771100F0F4
:107930002AF8002028707C48006810B1281D00F04B
:107940001FF92046BDE83240FDF772BD70B5044610
:10795000FDF768FD754E05463078002818BF0528EC
:1079600003D04FF4C27100F00EF8042030704FF6CF
:10797000FF7084421CBF204606F0F4FB2846BDE899
:107980007040FDF755BD0FF2CC10FEF7AFBB2DE9EF
:10799000FE4F804604F093F88DF80500694F386873
:1079A0009DF8051018F80000401A8DF804004046B4
:1079B00004F09EF800F00C0004280CBF01250025FF
:1079C0004046FDF73BFAFF2883460EBF0027396883
:1079D000475CDFF874915D4CFF20661C89F800005D
:1079E00000F09AFA58B1404604F082F800F00C001A
:1079F000082804D1404600F011FC01208BE00DB3B3
:107A0000404604F087F806464FF6FF7048F6410AF4
:107A1000864218BF48F6610AFEF7A7F90146201D05
:107A200006F0D5FB3146A01D06F0D1FBFEF799F913
:107A3000014604F1080006F0CAFB04F10A0004F153
:107A40000A060290002000909DF804309DF8052061
:107A500041463046FDF75BFA9DF80400861947B1B0
:107A6000002000903B46002259463046FDF74FFA71
:107A7000BE196DB1404604F02CF84078800726D539
:107A80000298311A4246C9B205F0D3F886191EE0B1
:107A9000A078617801EB002080B2410B01F0010178
:107AA00081F001054DF6FF7101EA000A0AF00700B6
:107AB000032805D1601C04F051F80019407804E057
:107AC0001C480078082802D1072089F800004046A9
:107AD00004F07AFC08B14AF0100A1FFA8AF1601C1F
:107AE00006F075FB1AF0070F04D119480178491CFC
:107AF000017004E010480068017E491C0176301BCB
:107B0000E170401C2070301B7F2803DB4FF4F671BE
:107B1000FFF739FF2846BDE8FE8F04480178481E6C
:107B20008041C00F7047000080FA0020E8F9002073
:107B300082F30020E0F300209CF9002080F3002075
:107B400081F30020F0F1002065F30020F4F900201B
:107B500074FA00206D61632E6300000038B544782C
:107B60004568FDF75FFC814A0C2161438B585B1B24
:107B7000B3F1004F98BF8D50BDE83240FDF758BCBF
:107B800010B5044606F055FB6060042020702046C6
:107B9000BDE81040E2E738B504460D4606F049FB63
:107BA00028186060012020702046BDE83240D5E7EB
:107BB00010B50446207860B1042806D006F039FBE1
:107BC0006168421AB2F1004F01D8002010BD081AB6
:107BD00010BD4FF0FF3010BD70B5044606F029FB14
:107BE0000546FDF71FFC064660686FF0004100F097
:107BF0002CF8401920603046BDE87040FDF718BCF5
:107C000070B504460D46164606F013FB002156B12A
:107C1000FF22327007E0121AAA4202D2154606B1BC
:107C20003170491C083422680AB9284670BD13789F
:107C3000002BF6D0042B04D05268831AB3F1004F06
:107C4000E9D806B13170002070BD0022D8E738B500
:107C5000044606F0EEFA05460DE0017851B104291C
:107C600004D04168691AB1F1004F03D804210170B2
:107C700061688847083420680028EED131BD10B50E
:107C80003A490C2202FB001406F0D3FA2168401A8C
:107C9000B0F1004F06D86068FFF7D9FF2046BDE875
:107CA000104099E710BD70B5314D3249097804464E
:107CB0006878884204D3E5210FF2BC00FEF716FA7B
:107CC0006E78701C68700C21284801FB06000121A9
:107CD0004460017200E04E7054F8081B0029FAD18C
:107CE000FFF77AFF304670BDF8B505464FF0FF301C
:107CF00000901F4C207840B303F0B6FA28B940F248
:107D000019110FF27400FEF7F1F906F092FA174A12
:107D10000C2101FB052300251D72002305E0009EB8
:107D2000B54288BF354600955B1C6578DBB2AB4237
:107D30000FD201FB03263568471BB7F1004F04D96A
:107D4000367A2D1A0EB9002DE9D103F095FA0020EC
:107D5000F2BD00A806F083FA0120F2BD034A0C230D
:107D600003FB0020012101727047000018F500207C
:107D7000C5FF0020305E02086576656E742D636F66
:107D80006E74726F6C2E63006048006840887047A4
:107D90005E480068001D70475C480068C07E704700
:107DA0005A490968C876704770B5584C584D2168D3
:107DB000584E4873022819D100F0AEF878B92068FF
:107DC000007B001F022824BF3046FFF7D9FE206841
:107DD000007BC01E032824BF2846FFF7D1FE206881
:107DE0004069C00054BF9024BC240AE000F094F81D
:107DF00010B100F0C3FA03E03070287001F053FABC
:107E00009124204606F082FA50B9234613223EA15F
:107E10000320FDF705FE2046BDE87040FEF73AB8A6
:107E200070BD3A480068407B00F00F00704737484B
:107E30000068407B00F00F00022801D1012070474C
:107E40000020704738B5044600F066F820B120469F
:107E5000BDE8324000F02BB92C4DFFF7E8FF28B900
:107E60002868407B032801D0932032BD07F0ECF84E
:107E700020812868C07BA0722868807BE072204641
:107E800008F013FC0020207304F1140104F1100029
:107E900008F0C1FCE081002032BD10B5002300E0F5
:107EA0005B1CDBB28B4205D210F8014B9442F7D039
:107EB000002010BD012010BD80B5082102F028FC73
:107EC00008B1002002BDA52002BD10480068407B1B
:107ED00001281CBF3128332801D101207047002020
:107EE000704710B50446FEF7AAFE10B907490968A5
:107EF000CC7310BD0548006890F90F007047034827
:107F00000068807B70470000424200009CF900201E
:107F10002CFD002024FD002080B507F09DF80328EB
:107F200001D1012002BD002002BD80B5FFF7F4FFA2
:107F300038B1BDE804404FF490710FF20800FEF72D
:107F4000D5B801BD656D6265722D737461636B2D6B
:107F5000636F6D6D6F6E2E630000000038B50446D0
:107F60000D46009523464722A9A10320FDF758FDA1
:107F7000FFF75DFF68B1FFF7CFFF50B1002C18BFCE
:107F8000002D08D0B4F57A7F03D8112D01D3A54276
:107F900001D3702032BDDFF840040481458100F038
:107FA0001EF8002032BD10B504463322237899A173
:107FB0000320FDF735FD1A222146DFF820040AE0F0
:107FC00010B50446342294A10320FDF729FD1A229E
:107FD000DFF808142046FCF7A0FB002010BD10B508
:107FE000DFF8F4430020207001F0CDF920B92046DD
:107FF000BDE81040FFF7C4BD208920B1DFF8E403DD
:108000000078032801DB002002E0608920B901200C
:10801000BDE81040FFF712BAFFF70DFA30B90120A2
:10802000FFF70CFA20896189411A03E00020FFF76D
:1080300005FA61892046BDE81040FFF7ACBDCEE7E8
:1080400038B5DFF8A443DFF8A40321680078C873CB
:10805000DFF890030078C11E03291BD31AD0DFF884
:1080600080532978C90701D4092813D0688806F0FD
:10807000E7FFA88806F0ECFF2978206801F00101ED
:10808000012905DA817B0F291CBF1429192901D088
:108090006978817331BD80B500F070F908F0F6FDA4
:1080A000002009F0A6F8BDE8014009F0ABBD10B50D
:1080B0000446FFF7BCFE08B9932010BDC84881886C
:1080C0002181C9490968C97BA1724178E172408860
:1080D000E081002010BD10B586B00446FFF71CFFFC
:1080E00028B940F225110FF21C30FDF7FFFF1223D3
:1080F000192200A901200AF038FF9DF80000FF288E
:1081000008BF932007D09DF80100C0074CBF062090
:1081100007202070002006B010BDF8B504460D46BB
:1081200016460FF2E02703F0E3FC00F00C000828ED
:1081300004D040F239113846FDF7D8FF00F04AF874
:1081400010F0030F04D14FF49D713846FDF7CEFFB8
:10815000FFF76DFEC8B100F03DF800F00300012804
:1081600005D000F037F800F00300032806D13246AE
:1081700029462046BDE8F84009F04BB93246294669
:108180002046BDE8F8400BF093B9F1BD10B50446A8
:10819000214606200BF075FBD8B100F01BF800F06B
:1081A0000300022804D12046BDE810400BF01CB9A2
:1081B00000F010F800F00300012805D000F00AF8E4
:1081C00000F00300032804D12046BDE8104009F068
:1081D0003EB810BD00220621204603F026BE10B591
:1081E00000F0A2F8400711D520460BF073FDFF28E0
:1081F0000AD07F490968302202FB001090F82C0059
:1082000000F00400012801DA002010BD012010BD9B
:108210004244440042420000420000002DE9F04385
:1082200083B000F081F8800800F0010971480FF276
:10823000D4180068205C000604D44FF4BE71404698
:10824000FDF754FF2046FCF7F9FD074601AA01217E
:10825000204603F0EAFD64480068017E4A1C02766D
:10826000D2B29DF8041000F05CF801AA0721204664
:1082700003F0DBFDFFF7AEFF00F00300022802D1A0
:108280000CF05AF804E0204609F093F908F0CEFF0C
:108290009DF804100546481C8DF80400EAB200F071
:1082A00040F800F037F82A0400F03AF800F032F80D
:1082B0002A0200F035F800F02DF82A0E00F031F80F
:1082C00000204D4E4D4D0090002230683B5C3946F9
:1082D000681CFCF71CFE3068385C4019471CB9F17B
:1082E000000F08D020460BF0F5FC014620460BF0AD
:1082F000A0FB042000E00020791B4018401C2870DF
:10830000781B7F2804DB40F2AB114046FDF7EEFE00
:10831000BDE8F7839DF80410481C8DF804007047F1
:10832000120E3846FCF7EFBE04460022062103F089
:108330007CBD80B50F2804D0142804D0192804D09F
:1083400005E0142002BD192002BD0F2002BD40F23D
:10835000C1110FF2B000FDF7C9FEFF2002BD80B5CC
:10836000FFF765FD40B1FFF7D7FD28B11D48017843
:10837000481E8041C00F02BD002002BD0FF29400D4
:10838000002200E00A7050F8081B0029FAD170475B
:108390001B4890F9000000284CBF4000FF20C0B2ED
:1083A00070471048007800B1012070470A480089E2
:1083B00028B10C480078032801DA0120704700201A
:1083C00070470548018919B1408910B1012000E0CA
:1083D0000020C0B27047000084FA00209CFA002000
:1083E00088F30020BCFD00209CF90020C9FF00207C
:1083F0004CF20020F4F10020F0F10020F4F900200C
:10840000DAFF002072663463652D737461636B2E2E
:108410006300000084FA0020DF7F0008C8FD002010
:10842000BD1D010818FE0020413D010820FE00206E
:108430007F0D0108C0FD0020A51E010800000000FE
:108440000000000070B50446DFF8E006DFF8E066E3
:10845000006882B0255C00F028F88DF800003088B4
:10846000411E89B200A8FCF73DFEDFF8C8169DF852
:1084700000200968545405B9202531881F31081A95
:108480002818308073BD38B5DFF8A4560446288814
:1084900009B1A04207D2014600F007F82246FCF7D6
:1084A000ACFD08B12C80012032BDDFF88C060078CD
:1084B000704710B5DFF88016097882B08DF800108B
:1084C000014600A8FCF70EFE04469DF80000FCF7EC
:1084D0000BFC201816BD80B5FFF7EBFF007802BD3E
:1084E00010B50C46FFF7E5FF047010BD80B5002203
:1084F00000920023FF2200F001F802BD2DE9FC46A6
:1085000009B4FFF7D2FF83B08946164600258DF8DF
:108510000500FDF76FFB8246DFF8200600788245F4
:1085200004DB9C210FF68830FDF7E0FD03984946F7
:108530000CF0B1F9002800F09880FF2E05D03046ED
:10854000FCF738FC00F0BFFA355CDFF8F445207822
:10855000FF2813D0FCF772FCFF2818BFFCF738FC8B
:10856000DFF8E01520780968425C02F07F0242548F
:108570002078FCF71FFC2078FFF764FFDFF8C87550
:108580000E9C788848442018C01C012180B2FFF757
:108590007AFF40B901203870FF2E1CBF3046FCF72F
:1085A00017FC002062E005EB09002018811C788888
:1085B000C9B2FFF795FFDFF8940501787888401C71
:1085C00080B2FFF78DFF4FEA4A1040F080017888B3
:1085D000801CC9B280B2FFF783FF7888C11C89B2C2
:1085E0000DF10500FCF77EFD0246012000904B4690
:1085F0009DF805100398FCF7A6FCFF2E0DD0304621
:10860000FFF720FF788800954844C11CFFF74DFF15
:108610000023324689B2FCF765FEA4B1FFF745FF9F
:108620008DF80400788828184844C11C89B201A834
:10863000FCF758FD0121009102469DF804100498B2
:108640002346FCF780FC05EB090178886118C91CFA
:108650000818788001200CF02DFADFF8F404017876
:10866000012912BF022900210170012007B0BDE8D5
:10867000F08638B50D00044608D02D1FA8B200E0E2
:108680002846FFF716FF0078401C4519DFF8B804AC
:108690004088ADB2854209D2E81C80B2FFF709FFDD
:1086A0000078A042ECD1281D80B232BD4FF6FF7099
:1086B00032BD10B582B00446192000F0E6FC902CC3
:1086C00003D1DFF890140220087013BD80B500F0CC
:1086D0002BF848228DF8002073E210B586B00446CE
:1086E0001B208DF80000A0788DF801000DF102002C
:1086F000218805F06CFD0822211D01A8FCF70DF86A
:1087000000A8E1780173217B4173607B8DF80E0036
:108710000DF10F0000F05AFACCE280B500F004F839
:108720001C228DF800204CE28DF801008DF802101B
:1087300070472DE9F04F87B005460E4614460CF001
:108740001AFA80462246314628460CF0A6F8002840
:1087500064D10DF109000CF016FA28B962208DF8E9
:108760000800092100F06AFBFF2C0FBF4FF0000B3F
:10877000DFF8B813096814F801B045208DF8080037
:1087800002AF0DF10A017D70304600F081F80DF165
:10879000150000F01BFA00F096FB0CF009FE8DF8B6
:1087A00019000025DFF8B003DFF8B0930668DFF8A2
:1087B000B0A301E06D1C0C369AF8000099F8001087
:1087C000EDB2401A85420BDA30884045F2D1FDF710
:1087D00011FAB17AC1F342018142EBD1BD7401E0DB
:1087E000FF20B8748DF81BB040460CF024FF8DF8C4
:1087F000040000B10120009001AB2246142102A820
:10880000FFF77CFE00281EBFDFF858030078212800
:1088100004D1D548017841F00401017007B0BDE8EA
:10882000F08F2DE9F043074600F04DF987B01D4663
:108830000E9C2E5C88469146214638460CF0AEFFD1
:108840003F208DF804008DF8057041460DF10600BB
:1088500005F0BDFC02A9484600F01AF8C3480068BC
:10886000285C8DF813008DF81440C148007840282A
:1088700004BF0026FF25002000908DF8156000231E
:108880002A46122101A8FFF739FE07B0BDE8F083A0
:1088900038B504460D462188284605F098FC6188C5
:1088A000A81C05F094FC2079287160796871A81DD6
:1088B000E18805F08CFC218905F1080005F087FCB2
:1088C000A07AA87231BD2DE9FF411546012D07465A
:1088D00088461C4607D101210020022650EA0102E9
:1088E0000AD103261AE0052DF5D00021032D18BF6B
:1088F000072DF1D10120F0E79E4A12783AB1012A02
:1089000008D0022A05D0042A08BF0E4604E001263A
:1089100004E058B1002601E0022E07D006F08CFBDF
:10892000844203D0214638460CF071FE24208DF895
:108930000000394600F067F8082241460DF10300B7
:10894000FBF7EBFE8DF80B508DF80C6021460DF116
:108950000D0005F03CFC0F2100F06FF8304604B02C
:10896000BDE8F08180B56E2100F015F92AE110B55F
:1089700084B00C469B218DF80010082201460DF1B1
:108980000100FBF7CAFE8DF809400A2115E0704787
:108990001FB50446232000F04BF88DF80210204646
:1089A0000DF0ABF8014600F08AF90DF10D020DF162
:1089B000050120460DF0B1F80E2100F03EF81FBD74
:1089C00080B57C21F8E070B586B004467D208DF836
:1089D00000000D461646214600F015F808222946EB
:1089E0000DF10300FBF799FE8DF80B600C2100F0F0
:1089F00024F803A80CF0C7F818B903A920460DF015
:108A000091FA06B070BD0DF1010005F0E0BB38B57C
:108A100004460D460CF0A7FE802000F009F8294618
:108A20000DF1020005F0D3FB042100F006F831BD82
:108A30008DF800008DF80140704700A856E580B51C
:108A4000F22100F0A8F8BDE0F0B583B010F8014BBA
:108A50000E4617462146FCF73EFA0546FF2D03D188
:108A6000394901200870F7BD8E208DF804008DF87B
:108A70000560002000908DF806708DF807400023F7
:108A80002A46042101A8FFF739FD2846FCF7A0F982
:108A9000F7BD1FB50C4692218DF80410082201463F
:108AA0000DF10500FBF739FE0DF10D0000F08EF819
:108AB00000F009F8205C8DF80F00002300200090E2
:108AC00022460C2112E019480068704700B5174A89
:108AD000126883B0825C8DF8051093238DF8062010
:108AE00000218DF80430009102464EE001A8FFF706
:108AF00005FD1FBD10B584B0044646208DF8040066
:108B000001A821784170617881700DF1070000F0B3
:108B10005DF80648A1780068085C8DF8090000231C
:108B2000002000900621A278E0E70000F0F100208C
:108B3000D6F90020F8F100206CF300203CF2002070
:108B400098F30020F4F100207CFF0020CCFF0020EF
:108B5000BCFF0020CDFF002068F20020D1FF0020E4
:108B600064F200209CF3002020FC0020F8FB002091
:108B70009FF300209AF3002080B598208DF8000024
:108B80008DF8011000A802211DE00023032101A897
:108B9000FFF7B4FC07BD8DF800108DF8010002212D
:108BA0007047000002490968497B022902D07047DA
:108BB0009CF9002080B50D218DF800100146FFF7CB
:108BC00022FF032100A8FFF791FC01BD10B5044668
:108BD0000BF0CAFF601CBDE810400BF0C7BF30B5FA
:108BE0008FB005460C463B22002100A8FBF7D8FDBC
:108BF000B6208DF800000DF10101284600F071F853
:108C000000A8DCB1002180F82910082221460DF1CE
:108C10002A00FBF782FD0DF12905207A68720DF11B
:108C20003300618905F0D3FAA1890DF1350005F013
:108C3000CEFAA07BA873E07BE87302E0012180F804
:108C400029100DF13900FFF7C1FF3B21FFF7F5FEB9
:108C50000FB030BD80B5B721FFF79DFFB2E710B56B
:108C600086B00446B8208DF800000DF1010021887F
:108C700005F0ADFA618800F022F8A1880DF1050039
:108C800005F0A5FAE1880DF1070005F0A0FA2189A9
:108C90000DF1090005F09BFA61890DF10B0005F05B
:108CA00096FAA1890DF10D0005F091FA0DF10F0072
:108CB000FFF78CFF1121FFF7C0FE06B010BD0DF1CC
:108CC000030005F084BA00B58BB0BB218DF800100D
:108CD0000DF1010100F005F82921FFF7AEFE0BB000
:108CE00000BDF8B504460D46A0782870681C2188A0
:108CF00005F06DFA0822211DE81CFBF70EFDE07857
:108D0000E87204F11007207B287305F10E06607BE2
:108D1000687331463A68012005F05DFA7A68311DC2
:108D2000012005F058FA398906F1080005F04FFADC
:108D3000082204F11C0105F11800FBF7EEFCA18CE0
:108D400005F1200005F043FAE18C05F1220005F061
:108D50003EFA94F8280085F8240094F8290085F854
:108D6000250094F82A0085F8260094F82B0085F851
:108D70002700F1BD38B504460D46092200212846DA
:108D8000FBF70EFD2188284605F021FAA11CA81C3E
:108D9000BDE838400722FBF7C0BC38B504460D4695
:108DA0001A2200212846FBF7FBFC207828700F22AE
:108DB000611C681CFBF7B1FC2078C0F3410204F190
:108DC000100105F11000FBF7A8FC2078C0F3021297
:108DD00004F1130105F11300BDE83840FBF79DBC19
:108DE0002DE9F0438FB00646DB208DF808000F46D2
:108DF00090469946082231460DF10900FBF78DFC9B
:108E00008DF811700DF112014046FFF7B3FF0DF11F
:108E10001B014846FFF7C1FF169D179C8DF8355082
:108E20008DF8364000F009F8019400954B46424613
:108E3000394630460DF057F9B0E02F2102A8FFF770
:108E400055BB2DE9F14F92B0DC208DF8140005AE32
:108E50009DF8480070700DF115058A4690469946B8
:108E600085F801A000F02FF8082249460DF11900FD
:108E7000FBF753FC1C9C2C730DF122011D9F3846FF
:108E8000FFF778FFDDF878B00DF12B015846FFF7BA
:108E900084FF1F9D86F831503321209E8DF8466057
:108EA00005A8FFF723FB04960395CDF808B00197BA
:108EB00000944B469DF84800424651460DF048FA52
:108EC00013B0BDE8F08F41460DF1170005F07FB9F2
:108ED0002DE9F04790B08146E1208DF80C000DF1AE
:108EE0000D040E46924698468DF80D906670082245
:108EF00051460DF10F00FBF710FC84F80A8006A91B
:108F0000189D2846FFF736FF199F0DF121013846BD
:108F1000FFF743FF1A9C8DF83B40302103A8FFF771
:108F2000E5FA029401970095434652463146484679
:108F30000DF091FA10B0BDE8F0872DE9F0438FB045
:108F400005460E46914698462F22FF2102A8FBF7C0
:108F500027FCDE208DF808008DF80950169F179C1D
:108F600095B9082231460DF10A00FBF7D6FB8DF8C2
:108F700012900DF113014046FFF7FCFE07A9384699
:108F8000FFF70BFF8DF83640FFF757FF019400976E
:108F900043464A46314628460DF057FA0FB0BDE821
:108FA000F08310B582B00446DA2000F06EF8204657
:108FB0000DF04AFA13BD10B59EB01C46FFF7B4FB86
:108FC000D5238DF800301146FFF779FE8DF8054066
:108FD0000DF10700209C21998DF806402246FBF7F1
:108FE0009CFBE11D1FE010B59EB0D6248DF8021049
:108FF0008DF801008DF800408DF803208DF80430C5
:109000000DF10500209905F0E2F82198229C2399A2
:109010008DF807008DF8084022460DF10900FBF796
:109020007CFB04F10901C9B2FFF707FD1EB010BDBA
:10903000F0B50446E0208BB0002C0D4618BFC12CC3
:1090400016461F46FFF7F4FC8DF8025008D10DF1CB
:1090500003013046FFF78EFE03A93846FFF79DFE59
:109060002621FFF7EAFC3B463246294620460DF012
:1090700083FA0BB0F0BD10B582B00446E32000F0D7
:1090800004F820460DF079FA13BD8DF800008DF834
:109090000140022100A8FFF729BA10B582B00446AA
:1090A000E420FFF7F2FF20460DF068FA13BD000040
:1090B000737461636B2D63616C6C6261636B732E9F
:1090C000630000002DE9F041494F4A4A32F8106030
:1090D0000D4637F810108E429B41DB43DB0F4FF6F5
:1090E000FF74A6421CBF761C22F81060032818BF2C
:1090F0000528804607D114893F892E19BE42ACBF8E
:109100001781168118E00928BE8A18BF0B2805D1DF
:10911000978AEC19B4420EDAEE190CE01D280BD137
:10912000548F7F8F2C44BC4205DA32F81070EE1950
:1091300022F8106000E0968232F81000884203D3D3
:1091400013B94046FFF77BFC29464046BDE8F04195
:1091500015E080B5422200212648FBF721FB264876
:10916000BDE8084044220021FBF71ABB4222FF2140
:109170001F48FBF715BB1E4A22F810107047F8B5C0
:1091800004460D4600260FF28400315CA14204D053
:10919000761CF6B2112EF8DBF1BDFF2E27D0FCF7BE
:1091A00029FD074615480078874204DB9C210FF211
:1091B0005000FCF79BFF1048222101FB07004FF6EF
:1091C000FF7230F8161091421CBF491C20F816108F
:1091D000032C18BF052C03D1018969180181F1BD49
:1091E000092C18BF0B2C02D1818A69188182F1BD2C
:1091F000FCFA0020B8FA002040FB00203CF20020DE
:10920000636F756E746572732E6300000001020354
:109210000405060708090A0B151618191A0000009C
:10922000F8B50446DFF8FC030078002802BFDFF839
:10923000F863F06800280D4625D1DFF8F0030078C8
:109240000A2818BF022D1ED1FCF7ECF8B278082AC4
:10925000074616DA012D02D19019047104E0311D80
:10926000701DFBF75AFA3471B078401CB070384664
:10927000FCF7DEF82046FBF79DFDFEF743FA0120E0
:10928000F2BDFCF7D5F80020F2BD80B5FCF754FE26
:10929000DFF89403C17829B90121C170BDE801400C
:1092A000FEF730BA01BDDFF880130020C8707047A8
:1092B00070B5DFF870030078002839D1FCF7B2F8F8
:1092C000DFF86443DFF868530646A07860B121797F
:1092D0002970421EA270611DD2B2201DFBF71DFA3B
:1092E0003046FCF7A5F821E03046FCF7A1F8E0682D
:1092F000F0B9E078022802D00DF042FA2870287800
:10930000FF2810D1E07870B1FCF731FEFCF7D3FBF9
:109310000DF015FCFF28287003D0FCF742FE00B9C1
:10932000E070FCF7F8FB2878FF2801D0012070BD21
:10933000002070BD2DE9F04104460D4603F0E1F830
:10934000B94E0020F070FCF76DF88046F06820B14F
:109350004046FCF76DF8002013E0B6480078052879
:1093600008BFFEF7DAFA00F00EF8070008BFF46055
:109370004046FCF75DF81FB105B1A047012000E0B1
:109380000220BDE8F08110B5FCF74CF8A649A94BC6
:109390008A781B78C9781A43114305D1A649097800
:1093A0004C1EA441E40F00E00024FCF741F82046E5
:1093B00010BD10B59F499C4C00200870FF209C49AF
:1093C00008700020E060FDF729FA207000209A491B
:1093D00008709A4908704FF4A0519948FEF7DBFBDA
:1093E000BDE8104002F034BF38B502460021082025
:1093F00002F02CFC0446FF2C01D1012032BD0121DA
:10940000FFF70EFF05462046FBF7E2FC681E804191
:10941000C00F32BD2DE9F843854E8A4D8146307824
:10942000FF2808D12878FE2805D04FF4B3710FF239
:109430002420FCF75BFE28787B4FDFF8FC817D4C15
:10944000811F01290DD805212170494604F046FEEF
:1094500008B900F014F83078FBF7BAFCFF20307040
:1094600003E087F8019000F00AF82878042804D077
:10947000F878012804BF0220F870BDE8F1830320CA
:1094800020704046FEF77CBB10B5694C21788142C4
:109490000DD10846FBF79CFCFBF7C4FFFF212170B0
:1094A000FE21684A1170BDE81040FBF7C1BF10BD36
:1094B00038B55D4D6978044602F0AEFF28B9697889
:1094C0002046BDE8344004F08FB831BD2DE9F843A3
:1094D0000446FF2C05D140F2B7110FF27810FCF7CB
:1094E00005FE0320FCF79BFA574D204602F000FBD7
:1094F00000F00C002870FF206870204602F0F8FA97
:1095000000F00C0008285CD028780C2859D120469F
:1095100002F0DFFA074604F053FE064606F44C4814
:10952000384602F01BFBC05D68704FF6FF794FF4C0
:109530004060064206D0F81C04F042FE484508BFD1
:1095400048F0400806F44060B0F5006F06D1781D81
:1095500004F036FE484508BF48F010086978012934
:109560004CF6500017D0022918D0042908D006293B
:1095700025D0072925D0082918D07C2911D04FE003
:10958000B8F5484F18BFB8F5084F49D1204602F04A
:10959000C9FE002811E0B8F5484F0EE0B8F54C4F71
:1095A0000BE0B8F54C4F0CD0804506E04CF640403F
:1095B000804535D11D480078052802D030E080452F
:1095C0002ED1204602F08FFA0546204602F090FA8E
:1095D00000F00C00082816D0A80614D54FF6DF704E
:1095E00000EA0501204602F080FA204602F067FA00
:1095F0000546204602F06DFA02F0B0FA4119C9B2F0
:109600002046FBF730FD21461048FBF79CFE204624
:10961000FBF7D0FB0E480078BDE8F243FEF79EBB97
:10962000BDE8F183B9F9002074FA0020E0F30020CE
:1096300082F30020E8F90020ECF9002088FD0020EA
:10964000E0F9002065F30020C7FF002084F300202C
:10965000CAFF00206D61632D617262697465722EAC
:10966000630000002D480068C00701D42C487047F3
:109670002C48704780B5FFF7F5FF2B49096801B901
:10968000400802BD80B5FFF7EDFF400802BD01F0C4
:10969000EAB92648012181604EF6BE2141600121D0
:1096A000016070472249012008607047A52805D154
:1096B0001E484DF6AD6141600221016070471B48B4
:1096C0000068C00701D5012070470020704780B5B1
:1096D0001849194A1020086018491948007858B1EB
:1096E00003280CBF00200120106040F651000860E4
:1096F0000020FCF77AFE06E0022010604FF40060C4
:10970000086001F069F907210E4801600021016439
:1097100010200D490860002002BD00001C400040E0
:10972000001BB70000366E01204000400060004082
:109730000860004080E100E0080000400C6000404C
:10974000AAFF002014A0004000E100E010B504468C
:10975000FBF768FE494930200860494908604949DB
:1097600008601020484908604FF20F01200A0028C5
:10977000464808BF240204804180BFF35F8F4448FD
:1097800000210160416043484349086010BD4348DF
:109790000168C90708D5424A03211170016C4908C4
:1097A00049000164012101600168090703D5016CCA
:1097B00021F008010164704780B5002000F009F82D
:1097C00030B9BDE80440FC210FF2EC00FCF78EBC80
:1097D00001BD2DE9F044334C21680D1A15F01F012D
:1097E00005D0002852BF6D1A681A00F120052E48D6
:1097F000A5F12006A84224BF2C48864203D3EFF3EC
:109800000880854201D300202DE0FBF70BFE824645
:109810002748006810F0010718BF0DF0BBFA206858
:1098200001468D4206D2A84224BFCD2100F801197D
:10983000F9D206E02038002201E000F8012B88422E
:10984000FBD3256030460DF0AAFAE22001E006F8CD
:10985000010BAE42FBD30FB10DF084FA5046FBF77B
:10986000E7FD20682038BDE8F0840E4800687047A6
:109870000C480068203870470E4870473020004080
:1098800030C8004030C0004010E000400000002020
:109890001C4000400400FA050CED00E018A0004058
:1098A000B9FF002030F3002068E80020F80D002008
:1098B00094ED00E0000000206D6963726F2D696E09
:1098C0007465726E616C2E630000000000220DF062
:1098D00083BA000070B505460E460DF097FA3D4C70
:1098E000206C20F0080020640DF092FAFBF79AFD3E
:1098F000310341EAC511384A41F0010111600821E4
:109900002160BDE87040FBF793BD2DE9F041334C79
:10991000334D304E25E00DF079FA324904200860CD
:10992000306C40F0080030642F6828684008400020
:1099300028600DF06FFAD4F80080206820F0400015
:1099400020600DF06FFAC4F800802F600DF062FA0D
:10995000306C254920F008003064042008600DF0C8
:1099600057FA30680007D6D5082030601F480068D5
:1099700080B2BDE8F08180B5FFF7ACFFBDE80140E3
:10998000C3E7154801684908490001607047F8B508
:109990000746FCF7CFFC044639460320FFF7EBFFF0
:1099A000054639460120FFF7E6FF06463946002006
:1099B000FFF7E1FF08490A68520852000A60401B9D
:1099C0000004711BB0FBF1F060434000000CF2BDDD
:1099D0000000000018A0004004700040008000401B
:1099E00094ED00E000E100E080E200E00070004063
:1099F00030B5044610467F2808BF0020B1F5004F5F
:109A000083B01AD108237F2240F6120100A8FFF785
:109A1000EFFF08220FF2C40100A8FAF7C8FE30B920
:109A200008237F2240F2A27100A8FFF7E1FF08227D
:109A300000A92046FAF771FE37BD204D294300FBEF
:109A400003111A462046FAF768FE37BD2DE9F044A7
:109A50000C461A490FF2780A41EA0006C00715467B
:109A600002D5622100F030F8E80702D5632100F04A
:109A70002BF81348864204D3A819401E1149884286
:109A800002D3642100F020F8002706E0B85DFF282B
:109A900002D06B2100F018F87F1CAF42F6D36A08A1
:109AA000214630460DF00CFA28B15046BDE8F0448E
:109AB0007121FCF71BBBBDE8F08400000000080822
:109AC00000080808001008085046FCF70FBB00000B
:109AD0006D66672D746F6B656E2E6300FFFFFFFF71
:109AE000FFFFFFFFF8B5012000F0F9FF0020FCF7B1
:109AF000F9FBDFF81043206840F008002060FFF712
:109B0000C8FDFCF7DFFBDFF80003DFF80063017836
:109B1000F1604278DFF8F812CA608378DFF8F42247
:109B2000D360C578DFF8F032DD600779DFF8EC52FA
:109B3000EF60078A3760478A7760868A0E60C68A38
:109B40004E60018B1160418B5160818B1960C18B1C
:109B50005960008C286000F055F8206820F0100053
:109B600020600DF024FAFBF7EDFE01F04DF8FFF751
:109B70008EFDBDE8F140FFF7AABD40F20160FFF79E
:109B8000E5BDF0B50B68A04C0F25A46B960005FA57
:109B900006F6344215D0002606EB820724FA07F7B2
:109BA000FF070BD5B70005FA07FC23EA0C0330F8D2
:109BB00012C005FA07F707EA0C073B43761C042E90
:109BC000EADB0B60F0BDF0B50B688F4CFF25A46B92
:109BD000D600B5402C4213D00025012605EBC20764
:109BE00024FA07F7FF0708D506FA05F7BB43175C09
:109BF00006FA05FC0CEA07073B436D1C082DEDDB5C
:109C00000B60F0BD10B5804CA06B002822D0002264
:109C1000844900F020F80122834900F01CF8022258
:109C2000824900F018F80022784900F017F8012264
:109C30007B4900F013F80222754900F00FF8032267
:109C40007B4900F00BF80422724900F007F804F198
:109C5000240035E010BD04F10800B4E704F124004D
:109C60008FE710B5684CA06B002825D000226D4905
:109C70002046FFF7A8FF01226B492046FFF7A3FF0C
:109C800002226A492046FFF79EFF00225F4900F04A
:109C900014F80122624900F010F802225C4900F039
:109CA0000CF80322624900F008F80422594900F038
:109CB00004F804F1100003E010BD04F1100060E7A7
:109CC000BDE8104005225B495BE7032000F014BBB0
:109CD00010B50DF0DAF904460DF0DBF9C0B208B9A1
:109CE000012C07D1072C11D8DFE804F00410060876
:109CF000080A0C0E002010BD092010BD022010BD66
:109D0000032010BD0B2010BD062010BD44F08000C4
:109D100010BD4948007870474748807870474848E8
:109D20004FF40041C160082101604349887850B177
:109D3000424800680B78800900F0010083421CBF94
:109D4000087000F068BD70472DE9F0413A4D3C4F76
:109D50000446AC700020B8654FF400483948C0F89C
:109D6000008008203860C7F80C80FBF75BFB002CF4
:109D70002B4E2549326822F4706214D042F40062FE
:109D80003260B26822F04002B260082200F066F849
:109D900002F0BF020A70082200F05AF802F0BF0277
:109DA0000A72012113E042F480723260B26842F01C
:109DB0004002B260012200F051F842F040020A7005
:109DC000012200F045F842F040020A720021697059
:109DD000FBF72EFB4CB11C49062008606020B865DB
:109DE0007068800900F0010001E00020B86528706B
:109DF000287800F010FD14B11448C0F80080BDE8C8
:109E0000F081000000BC0040D0F2002000B0004013
:109E100000B2004000B4004000B6004000B800406E
:109E200004B000400CB000400CB200400CB4004044
:109E300004B2004004B4004015FD002008B000400A
:109E400014A8004080E100E024BC004000E100E0F4
:109E5000CB8C62F30B230A7ACB8470474B8A62F374
:109E60000B230A784B82704780B5914800214160EE
:109E700041708170A52101700120FBF7CBFDFBF73C
:109E8000CDFD00F002F8002002BD80B58B480168CE
:109E900041F08071016001208949086000208949F2
:109EA000FCF7CFFA8849894A0220086000208849D7
:109EB0000860884988480160012111607D4A87490E
:109EC000116040F2014101654FF48030844908601F
:109ED00001BD7948006800B10120C0B27047D122AD
:109EE00002704170090A81707E490A78C270501C64
:109EF0000870042070472DE9F14F82B000250090D2
:109F0000794800990068085C441DE4B204F086F9C1
:109F100001904FF6FF79FFF7DCFFB8B954E0A91EB6
:109F20009DF80800C9B2FBF7E9F8074649460DF06D
:109F3000C3F881465546F000F9B2761C01FA00F0EC
:109F4000042E40EA080815DBCBF80080EDB2A542EC
:109F500032DA04F063F90199401A80B2B0F5FA7F61
:109F60002ADC4FF0604BDBF800000128EED14FF007
:109F700000080026EDB215B95B270125DBE7012DAE
:109F800005F1010A04D15848009900680F5CD1E737
:109F9000E11E8D4208BF4F46CCD0A11E8D4208BFA6
:109FA0004FEA1927C6D0611E8D4208BF5D27C1D078
:109FB000A542B4D10027BEE74FF4C870FCF7FAF908
:109FC000A54208BF002000D00120BDE8FE8F464911
:109FD0000968415C0429A8BFFFF78DBF01207047C5
:109FE0002DE9F04D324D6E78002E5ED004F016F95A
:109FF000834631460020FAF76EFF0446FF2CA04648
:10A0000002D10020687050E0202EB4BF37462027D0
:10A01000FAF76AFE6860AF70DFF8D0A004E040464F
:10A02000FAF762FE6860AF706878C0B104F0F6F8C5
:10A03000A0EB0B0080B2B0F5FA7F10DCA878002806
:10A04000F2D1F61B6E70F6B2002EEDD0DAF80000F9
:10A0500018F80080202EB4BF37462027DFE7002EF7
:10A0600004BF6878002818D1A878B0B91E480068E5
:10A07000205C851EE9B22046FBF7FCF8122808D1C7
:10A08000E9B22046FAF7EFFF21461220FCF743FB26
:10A0900006E02046FCF789FA02E000206870A8700C
:10A0A0002046BDE8F04DFAF793BEBDE8F08D000004
:10A0B000F0FF0020800E00E0100004E0FCED00E066
:10A0C000040004E020A10700F00004E0000E00E01E
:10A0D000040304E055CEACC5B00F00E00D00010054
:10A0E00000E100E0C3FF0020F0F10020F8F10020C3
:10A0F000F0B5044689B00020FCF7F4F82648018842
:10A100000A237F2200A8FFF773FCBDF802004FF678
:10A11000FF75A84204D1DC210FF29400FBF7E6FFA3
:10A120000FF2A407002601E02A4616B94FF47C423C
:10A1300003E0022E08BF4EF23F0200A800F032F802
:10A14000761C052EF0D3012C03D114237F22134853
:10A1500002E014237F221248018803A8FFF748FC7D
:10A1600000260FF26C072A4608E02A46012E08BF97
:10A170004FF6C07202D0082E08BF002203A800F0DC
:10A1800011F8761C0A2EF0D3012C04BF0120FCF735
:10A19000A9F809B0F0BD00007661020874610208F8
:10A1A0007261020830F81610F05DFCF74EBB00003B
:10A1B000616E616C6F6775652D63656C6C2D62698E
:10A1C00061732E630000000000100C0D0E000000F3
:10A1D000010203040708090A0B0F000030B50FF253
:10A1E0003C11DFF824510A6883B001A80024026002
:10A1F0000120287000200CF071FF30B100200CF01D
:10A200006DFF10B12C7049203EBDDFF800010188C0
:10A2100002237F220DF1020000F024F802237F22A6
:10A22000002100A800F01EF8204601A9BDF8022078
:10A2300031F81010914208BF0124401C0228F4D3C9
:10A24000BDF8000024B1B0F57F7F07D100203EBDEE
:10A25000B0F57F7F0CBF0620042000E0072000211E
:10A2600029703EBD10B5FF2908DCDFF89C4024783A
:10A2700044B1BDE81040C9B20DF0BDBBBDE810400F
:10A28000FFF7B6BB10BD10B5FF2908DCDFF878403A
:10A29000247864B1BDE81040C9B20DF0E3BB7F2A59
:10A2A00008BF00221A4C214302FB0311016010BDBC
:10A2B0002DE9F0410546FF2D0E46174698460FF250
:10A2C000540012DC104C2178A1B1617811B1C22187
:10A2D000FBF70CFF01206070434632463946E8B276
:10A2E0000DF0C2FE0020607004E0BDE8F041CD2119
:10A2F000FBF7FCBEBDE8F08103490978002918BFCF
:10A300000DF0ECBF70470000ABFF00207E6102083B
:10A3100000000808746F6B656E2E6300FE01FD027D
:10A3200010B5DFF81C4510202063FBF77BF8DFF841
:10A3300014150A6842F001020A60FBF779F8DFF8A9
:10A34000080500F10801616021609230616889317F
:10A35000616001212163E060A060DFF8F014E06833
:10A360008930E060022020634FF6FF70086010BD66
:10A37000DFF8DC0445F26401C1601E214162502116
:10A380000162C821C1618165F021C16545F6900176
:10A390004166882181660621C16644F2066101603A
:10A3A0004FF6FF714160DFF8AC04007838B1DFF898
:10A3B000A80448F2607101604FF4C1514160DFF8B8
:10A3C0009C04016841F0040101600020DFF8901452
:10A3D000487070472DE9F04FDFF86C148A2283B083
:10A3E00002FB0012083200920427521C04465378E4
:10A3F000127802EB0325ADB205F44063B3F5006FAC
:10A4000005F440424FF000094FF0010A08BF082749
:10A4100003D0B3F5406F08BF0E271AB16B065CBFBF
:10A42000BB1CDFB2DFF83C341B784B704018019046
:10A43000A806019981F8029064D5DFF82C64706E4B
:10A4400000065FD500983818B2F5404F4FF4806B86
:10A450004FF4006807D101F048FF5FEA000947D0D8
:10A4600007F1080019E0B2F5004F41D1009940789A
:10A47000795C01EB002080B20DF0FAFFFF2808BFE5
:10A48000CA4609D0DFF8E413096831F810004FF428
:10A49000FE6108422CD0D146B81CC0B2410805F07C
:10A4A0000702032A24D1002C14BF726832688A4242
:10A4B0001ED3002C14BF726832684B1C9A42F8D32A
:10A4C0000099405C042813D1BAF1000F02D0B9F111
:10A4D000000F0DD0F06DC00606D400F015F803D0C3
:10A4E000706C40F00100706401200199887009E0EF
:10A4F000F06DC00606D500F007F803D0706C400878
:10A5000040007064BDE8F78FB06C04B1C34610EA38
:10A510000B0F70472DE9F04E0446CB4EDFF8485341
:10A520008A2000FB046000F1080B002C0CBF286897
:10A530006868C1B2052903DA7068401C706055E094
:10A5400040005FFA80F909EB0B00A0F108073878AA
:10A55000797801EB00201FFA80FA70783870FBF7E9
:10A5600069FB7870C24FF86B20F48050F863686E16
:10A5700014B93868400504D4012C1FD1386800058F
:10A580001CD5BC48017889B1002101701AF4E45F40
:10A59000B948016802D00022402005E09BF8010084
:10A5A000000900F001028F2001F097F9002C0CBF88
:10A5B0004FF480604FF40060386012E01AF4E45FFA
:10A5C0000FD1FCF7BFFF10B15FEA4A4009D59BF8F5
:10A5D0000000802805DAA0194946827858460DF017
:10A5E00067FF002C0CBF012002202861BDE8F08E1F
:10A5F0002DE9F047954CA04E2068216C9A4FDFF86A
:10A600007C82DFF87092DFF840A201EA000519E0D1
:10A6100038B14878C00604D4316800228F2001F098
:10A620005CF9280605D501F0B1F9802025F08005F8
:10A630002060E80506D501F0A9F94FF4807025F4F3
:10A6400080752060002D5CD0280706D50020FFF71C
:10A65000C1FE082025F008052060E80606D5012087
:10A66000FFF7B8FE102025F01005206005F060000F
:10A67000602803D1B86CC0050AD401E0A80605D54E
:10A680002020206025F02005002006E0680606D581
:10A690004020206025F040050120FFF73BFFE80443
:10A6A00004D54FF4805025F480552060E807B8D5D4
:10A6B000012020606D089AF800006D000028B0D0DD
:10A6C000FCF7B9FE0128ACD199F800000028A8D009
:10A6D00098F800000428A4D1F868400800F00100B0
:10A6E0008A2101FB00A10831002814BF7A683A686A
:10A6F00012B92268D204F7D5002814BF78683868E8
:10A7000086E700202060BDE8F0875D48006870475C
:10A71000F0B504460D4689B000210320FFF7DAF8B2
:10A7200004AE1BE00027FFF7F0F826F81700FFF74C
:10A73000ECF800A921F817007F1C082FF3DB04A810
:10A740000EF050F800202080218836F8102051406B
:10A75000401C08282180F7DB6D1EA41CEDB2002DE3
:10A76000E0D1FFF70EF9012009B0F0BD032102206E
:10A77000FFF7B0B84FF6FF71081A292190FBF1F0EE
:10A780003A3040B2704738B5FFF7BFF8FFF7F2FF35
:10A790003C4D04462878B0B903210320FFF79AF80E
:10A7A0003948018802237F2200A8FFF721F9FFF72B
:10A7B000ACF8BDF80010401880B2FFF7DBFF153889
:10A7C000687001202870FFF7DCF86878201A40B222
:10A7D00032BD80B503210220FFF77CF8BDE80140BF
:10A7E000D1E770B529480078002490B9FFF7F1FF50
:10A7F0001B4E0546707848B13078401B40B20EF0D1
:10A8000002F80B2805DB3570012402E001203570C9
:10A810007070204670BD80B540B11D4900200860B1
:10A820000848016821F08001016001BDFCF70AFFC2
:10A83000FCF7E0FEFCF749FEBDE80240FCF72DBE48
:10A84000002000408420004058F8002000A0004074
:10A850004C1000401EF30020D0100040802000402B
:10A86000B4FF00201DF30020202000400CF2002047
:10A8700004A00040B8F90020C0F9002065F30020D2
:10A8800038200040B2FF00207C61020866F30020FF
:10A890005410004010B50D48018884B00A237F226F
:10A8A00000A8FFF7A5F8BDF800004FF6FF74A0421E
:10A8B00004D14E210FF21800FBF718FCBDF8001070
:10A8C00022460020FBF7C1FF1FBD00007661020891
:10A8D000616E616C6F6775652D66696C7465722E4B
:10A8E00063000000DFF834145120086070472DE940
:10A8F000F0410546FEF7BEFEDFF82414B0FBF1F68A
:10A900004FF4F070B0FBF6F71E2D3FB201DBE81BF1
:10A9100004D5A8B2BDE8F041FBF74CBDFAF782FDC3
:10A9200080460CF073FADFF8FC13DFF8FC230120FB
:10A9300048700721DFF8F40300F041F8E91B09B281
:10A940007143C91C8908491EDFF8E453416000F0D7
:10A95000BDF8DFF8C8733C68386820F04000386004
:10A960000CF060FA3C602E600CF054FA0CF050FAD7
:10A970004046BDE8F041FAF75BBD38B50546FEF745
:10A9800079FEDFF89C13B0FBF1F44FF4F070B0FBEC
:10A99000F4F02D1A1E2D04DA95210FF2D430FBF7B6
:10A9A000A5FBDFF88803DFF88023072100F007F814
:10A9B00005FB04F1C91C8908491E416031BD0160D5
:10A9C0000021416081604FF0007111607047DFF835
:10A9D000542301215170D0E7DFF85803006800B913
:10A9E00070472DE9F041DFF85053DFF85063002441
:10A9F0002C6034604FF4A040706041F29A084046E9
:10AA0000FFF775FF6F68FEF73DFE000142F210711F
:10AA1000B0FBF1F000F5C870C01B00B24FF44871F4
:10AA200090FBF1F000B20828A8BF072004DA10F16B
:10AA3000080FB8BF6FF0070030604046FFF757FFC0
:10AA400008274046FFF753FF686804197F1EF8D1B6
:10AA5000FEF718FE211D4001C908B0FBF1F080B2DD
:10AA60007060BDE8F081DFF8CC02006800B9704783
:10AA700038B5DFF8CC5201206FF00F04A8602C60CD
:10AA80008020FFF734FFE868FF2802D8641C102CF0
:10AA9000F5DB31BD70B5DFF8AC02016841F00101B2
:10AAA000016001214160FAF7BDFC0446DFF88052E5
:10AAB00000F00CF85120DFF8641208602E600CF0F2
:10AAC000A9F92046BDE87040FAF7B2BC2E682868A4
:10AAD0004008400028600CF09DB9002070472DE927
:10AAE000F041944A8F4D146840F2DC51012C8846A5
:10AAF000954E964F15DA0221B9803160B16901F0A7
:10AB00000301032959D0002C03D5B16941F002019A
:10AB1000B161FFF7E2FF5FEA00081AD1002C4CD5C3
:10AB200049E0B8884FF6FF74A0421DD188480188DB
:10AB300002237F22381DFEF75BFFB888A04204BFC6
:10AB40000220B880B069800703D4B06940F00200E9
:10AB5000B0610120A870B88830600FFA88F0FFF764
:10AB600036FF4046BDE8F081B3699B07EDD5AB7871
:10AB70000BB10846F6E7B168B36811F0010103D1E3
:10AB80000F2809D2401C06E09B0705D53B781BB176
:10AB9000032801DB2018B880B88839700228BCBFB0
:10ABA0000220B8803068B9888842D2D1B06900F0FC
:10ABB0000300032801D0FFF76DFF0020D2E72DE945
:10ABC000F04780460024554D594EFAF72BFC81463C
:10ABD0000CF01CF94046FFF782FF08B901240AE097
:10ABE00000F05DF8D5F800A000F0BCF8C5F800A0B2
:10ABF00037600CF00FF90CF00BF94846FAF718FC27
:10AC0000002CE2D0BDE8F0870220D8E710B5474815
:10AC1000444C002141608160016821F00201016023
:10AC2000002060704FF000703F490860A07838B194
:10AC30000020A0700620FFF750FF00F02BF81CDB6F
:10AC4000E078012814D14348012101604249096894
:10AC5000C90748BF03200FD40221E170016C41F005
:10AC60000101016404203D4908603D49086010BDB0
:10AC7000E078042801D10520E07010BD80B5294896
:10AC8000407800281CBFBDE80140FFF7BFBFFCF7BC
:10AC9000AAF901BD2748006801287047244E37688B
:10ACA00030684008400030600CF0B4B82DE9F8433B
:10ACB0001C4C207800282DD0207900282AD1FFF7BD
:10ACC000E9FF1FDA40F2EF310FF2A400FBF70EFAB2
:10ACD00018E0FAF7A7FB80460CF098F8E078052812
:10ACE0000BD0FFF7DBFF0D4DD5F8009000F03AF8E0
:10ACF000C5F8009037600CF08DF80CF089F84046EC
:10AD0000FAF796FBE0780528E3D10020A070052033
:10AD1000FFF755FF00202070BDE8F1830080004060
:10AD200090D00300B6FF002004ED00E010E000E04A
:10AD300094ED00E064610208104000400C00004007
:10AD4000084000401C4000400440004050F30020F8
:10AD50009661020818A000400C40004080E200E02C
:10AD600000E100E0286820F0400028600CF05AB8AC
:10AD7000636C6F636B732E63000000002A490A68DE
:10AD8000920992010A600A68104308604FF400417A
:10AD900026480160002101606420FBF70BBB2DE910
:10ADA000F047234D204FD5F80090224C804628686C
:10ADB00040F400402860386820F4805038602078E3
:10ADC00068B162781C48A17800EB820200EB880031
:10ADD00012F82A2C10F82A0C891A461802E00120D1
:10ADE00020262070B0B2FFF7C9FF0FF2500A02E030
:10ADF000B0B2FFF7C3FF386B042805D0386B4007AB
:10AE000054BF761E761CF3E7F86A38B184F80180E7
:10AE1000A6701FFA89F02860BDE8F08740F2211182
:10AE20005046FBF763F9E6E7D010004018100040E9
:10AE30001C100040BDFF0020786D0008616E616C41
:10AE40006F6775652D76636F2E63000081014FF487
:10AE5000FE5289B20C20FBF7F8BC2DE9F84F8F4C5D
:10AE6000A56820680127ADB200264FF00A08B94650
:10AE70001FFA80FAFEF785FDB0202063DFF820B2CC
:10AE800008E016F1190FB8BF4FF00A08464436B271
:10AE90007019A060DBF80000000702D559EA07002E
:10AEA00028D00120FBF786FAB9F1000F11D0AAF1E2
:10AEB0000300874202DAF81C87B213E00AF500406B
:10AEC0002060574606210920FEF704FD4FF00009D7
:10AED0000BE0DBF80000000707D5042FA6BFF81E23
:10AEE00087B2002707F5004020601A2EC9DB6FF0FB
:10AEF0000908CBE7A560C4F800A00820CBF8000043
:10AF00006848006880B2BDE8F28F80B5624B664940
:10AF10001B784FF0FF326BB1002819BF4A606348BD
:10AF2000486041F211100860614841880088BDE81E
:10AF3000044092E7002819BF4A600A604860086030
:10AF4000FEF71FFDBDE8044006210920FEF713BDF2
:10AF500038B50120FFF7D9FF04460020FFF7D5FFE1
:10AF600005460120FFF7D1FF4042001B00EB4500E2
:10AF700000B232BD2DE9FE4F4E4CDFF83C81A06A95
:10AF8000454EADF802002568D8F800B0307860B1C1
:10AF90004FF6FF7200210820FBF750FCADF80000CF
:10AFA000C022C0210820FBF750FC4448DFF8109174
:10AFB000007818B148F26070C9F80000708840F459
:10AFC000404040F04C00C9F83C000220A062012043
:10AFD000206040F24C40FBF7EDF90120C8F80C006E
:10AFE000C8F800000020324F388040207880307848
:10AFF00000B12020FFF72AFFFFF7AAFF824640207A
:10B0000038807F207880FFF721FFFFF7A1FF0290B3
:10B0100050460DF0F8FBFE2101FB00F70298AAEB69
:10B0200000000190307860B102980DF0ECFB824690
:10B0300001980DF0E8FB80B207EB8A11B1FBF0F04C
:10B0400005E001980DF0DFFB80B2B7FBF0F080B2B5
:10B05000401CC7031FFA8BF0C8F80000ADB20020F7
:10B06000C8F80C00022020602560BDF80200A06234
:10B070000020C9F83C00307830B1BDF800104FF620
:10B08000FF720820FBF7E1FB40F24C40FBF792F91E
:10B09000380CBDE8FE8F00005AF30020C0100040BD
:10B0A00018A000400070004038100040EEEEFFFF96
:10B0B00078FF002060200040281000401EF3002090
:10B0C000D010004041003F2289B201E001463F22FA
:10B0D0000220FBF7BABB2DE9F04F564C564D95B008
:10B0E000E06CADF810004FF6FF782068ADF80E0068
:10B0F0004246E86AADF80C0000210120FBF79EFBF8
:10B10000ADF80A00424600210B20FBF797FBADF893
:10B1100008004FF40040206000202861686148F278
:10B12000020000F08BF84CF68C30E0644FF4805253
:10B1300048F2F000E86211460120FBF786FB424628
:10B1400000210B20FBF781FB06210620FEF713FCF4
:10B15000019000F085F800904CF69C30E0640020EF
:10B16000FFF7B0FF06210846FEF7B4FB00260DF1FD
:10B17000140BB0B2FFF7A6FF06210620FEF7AAFBCC
:10B18000FEF7C3FB2BF81600761C202EF1DBFEF732
:10B19000BCFB1020FFF796FF00F062F80099019ABF
:10B1A000401ABBF82010891A404301FB01094FF0F7
:10B1B000100A112700F04EF800F052F800F043F8A2
:10B1C00006DB81461FFA87FA781C07B2202FF1DBD5
:10B1D000BAF1100F0ED10F2700F03CF800F040F844
:10B1E00000F031F806DB81461FFA87FA781E07B2B5
:10B1F000002FF1D5BDF81000E0644246BDF80E0006
:10B200002060BDF80C00E8620120BDF80A10FBF7D1
:10B210001CFBBDF8081042460B20FBF716FB012073
:10B220002861002000F00AF84FEA4A00C0B215B0C9
:10B23000BDE8F08FC010004018100040286040F2B8
:10B240004C40FBF7B7B80099401A404306FB060094
:10B25000484570473BF817000199461AB8B231E7E4
:10B2600006210720FEF787BBEFF31180602880419D
:10B27000C043C00F70470000002181F31188704760
:10B280002DE9F04FDFF8C84593B00746606810908D
:10B29000072F08BF032702D0082F08BF0227DFF8B7
:10B2A000B45528686A68A968EB6840EA022040EA59
:10B2B0000140296940EA0362CDE90221686840073C
:10B2C00003D5E06940F00200E0612868400703D53B
:10B2D000E06940F00400E061DDE90223E969012052
:10B2E00088401040002118B1E06940F00800E0619A
:10B2F000012FDFF85885C8E9001100F03782C0F04F
:10B300005D82032F1DD004D3042F40F0578261606B
:10B3100017E000F05CFAC00703D5E06940F0400098
:10B32000E06100F054FA400703D5E06940F02000E6
:10B33000E06100F04CFA800703D5E06940F01000AE
:10B34000E061FAF76FF8FEF7BAF98DF83C000027D4
:10B35000DFF80415DFF80465C1F580310120090B21
:10B360008840401EB063000A07D1DFF8F40400787B
:10B3700018B1606C40F02000606400F028FA0E9074
:10B38000DFF8E004406C0D90DFF8DC04C06C0C903A
:10B39000DFF8D404006D0B90DFF8CC04406D0A9008
:10B3A000DFF8C404806D09903068089070680790D9
:10B3B00070690690706A0590DFF8B004D0F800E07C
:10B3C000DFF8AC040068049002202060DFF8A404D9
:10B3D00000688DF80000DFF8A00400688DF8010017
:10B3E000DFF8980400688DF80200DFF89404006824
:10B3F0008DF80300DFF88C0400688DF804004FF02E
:10B40000FF306062DFF880040068C0040CD5686813
:10B41000C00709D5E069C00706D5D8E9000140F4A6
:10B420008070C8E900010127DFF85C04006880042F
:10B430000CD56868400609D5E069C00706D5D8E98B
:10B44000000140F48040C8E900010127DFF838041A
:10B450000068400412D5DDE90223A9690120884073
:10B4600010400BD0E069C00708D5D8E90023A969CE
:10B47000012707FA01F01043C8E90003DFF80804C8
:10B480000068000415D5DDE90223E9690120884040
:10B4900010400ED0E069C00702D4E069000708D56B
:10B4A000D8E90023E969012707FA01F01043C8E948
:10B4B0000003DFF8D4030068C00309D5E069000683
:10B4C00006D598F8050040F00800012788F8050027
:10B4D0004FF0000C6868C0076868DDE9022348BFC8
:10B4E0004FF4805C400648BF4CF4005CA969012021
:10B4F0008840104018BF4CF4804CE9690120884016
:10B500001040E06918BF4CF4004CC00605D4E06957
:10B51000800602D4E069400601D54CF0100CE069C9
:10B52000000648BF4CF4803C0CEA0E09A520FEF74B
:10B53000BDF80120E063E069A16B11B1616A0142CD
:10B54000FAD0616A014200F0E9800020E06398F8D7
:10B55000050040F0400088F805000BF057FC07207C
:10B56000C04908600F20C04908600BF0FBFB109831
:10B57000BC4960600E9808640D984864BA490C98FC
:10B58000C8640B9808650A98486509988865B849A1
:10B59000089830600798706006987061059870622E
:10B5A000B248C0F80090049808604FF0FF30B749E7
:10B5B00008600021AF48006888F80000AE480068C5
:10B5C00088F80100AD48006888F80200AC480068BF
:10B5D00088F80300AB48006888F80400626AE069F4
:10B5E000EF691040D8E90069DDE90023564089EA97
:10B5F0000309DDE9022316400206520E02F00102A1
:10B6000056EA82260206920E02F0010256EA8202F1
:10B610000606F60E06F0010606FA07F7FE1709EA17
:10B62000030317431E4300F47C7024220DF0F0F84E
:10B6300038433143C8E90001F9F7F4FE0BF0E8FBA9
:10B64000002020609DF83C0008B1FEF722F898F831
:10B65000057086480068C00304D5C7F3C00008B170
:10B660002020206200F0B3F8800704D5F80702D547
:10B670007C490220C86000F0AAF8400705D5C7F34E
:10B68000400010B177490420C86000F0A0F8C0075E
:10B6900005D5C7F3800010B172490120C860D8E910
:10B6A00000237148C06C10F0E00F18BF12F48070D6
:10B6B00003D075494FF4805008606B48006D10F05E
:10B6C000E00F18BF12F4804003D06F494FF40050D0
:10B6D00008606548406D10F0E00F08D0A9690120AE
:10B6E0008840104003D068494FF4804008605E48AD
:10B6F000806D10F0E00F08D0E9690120884010400B
:10B7000003D061494FF40040086047F0800088F89A
:10B71000050013B0BDE8F04FFFF7AEBD002F7FF47A
:10B7200016AFB0695249DFF868B140084000B06117
:10B730004FF20F0A4E48806840F00400886040F2E3
:10B740000721BBF80000884204BFBBF80200504547
:10B7500004D14CF23C30ABF80200012701200DF07F
:10B7600069F8002F01D0ABF802A0F8E6FDF7A7FFBB
:10B770000446A520FDF79AFF0BF048FBFFF77CFD80
:10B78000444DD5F8008028684008400028600BF040
:10B7900041FB414F3E68386820F0400038600BF0B4
:10B7A00041FB3E60C5F800800BF034FB0CB1FDF7A7
:10B7B00070FF13B0BDE8F04F0BF02ABB13B0BDE82B
:10B7C000F04F40F23C410FF2DC00FAF78FBC254805
:10B7D000006C704710B51F49D4B20C601404240EDD
:10B7E0004C60C2F307448C60140E04F01E04CC605D
:10B7F00003F00F020A610023284A13600B68002B34
:10B8000004BF4B68002B07D18B68002B04BFCB68AB
:10B81000002B01D1096919B1116841F001011160D2
:10B82000116841F400711160116841F080011160EC
:10B83000BDE8104024E51A490978890141F48002E5
:10B8400042F480420023C5E70000000000F400201D
:10B850000400004008BC004000000000044000401C
:10B860009807080814A0004014A8004000E100E078
:10B8700008ED00E008B0004008B2004008B4004005
:10B8800008B6004008B8004000E200E080E200E0B6
:10B890000000002094ED00E0008000402000004007
:10B8A00016FD0020736C6565702E630038B5044684
:10B8B0000D4601200DF00EF85D48002D12BF00214D
:10B8C0000178491C01705B4844705B48FBF7E2FA61
:10B8D000BDE8324000200CF0FDBF10B50028144632
:10B8E0003FD0402823D0882818BF892840D08D28F1
:10B8F0002FD08F2846D15148007804280DD144B16B
:10B900004F490220087040F60620BDE8104002F0C2
:10B9100029BCFBF77EFD312030E00120FAF77FF8EB
:10B92000FBF777FD002C0CBF3120002026E04048BB
:10B93000444900780978884204D2BDE810400021CB
:10B940000120B3E70020FAF76AF8FBF762FD402018
:10B9500014E00020FAF763F800212020FAF7A5FA96
:10B960000BE00120FAF75BF8FBF753FD002005E040
:10B970000020FAF754F8FBF74CFD8D20BDE810408D
:10B98000FDF748BDBDE81040C9213CE02C480078D7
:10B99000022800D0704780B52B480078042807D0D3
:10B9A0000C280ED129480078022818BF7C2808D11D
:10B9B00002F0F3FBFBF72DFDBDE802400020FDF790
:10B9C00029BD01BD38B50024F9F72CFD05461C48FA
:10B9D000007810B9FEF705FF04462846F9F728FD60
:10B9E000002C1CBFBDE831400CF081BF31BD80B5DB
:10B9F000FFF7E8FFBDE804404FF4A0511448FCF7FE
:10BA0000CAB840F205110FF25000FAF76FBB38B513
:10BA1000104C2068216C01EA0005ADB2680705D51D
:10BA2000206C20F004002064FBF754FF256031BD3A
:10BA3000C4FF002090F30020F4F9002065F30020FB
:10BA4000E8F9002080F30020C7FF0020C8FF002095
:10BA5000E0F9002008A000406D61632D656D32356E
:10BA6000302E630003480188034808237F22FDF736
:10BA7000BFBF00BF9E610208C4F9002010B50C468C
:10BA8000F9F732F92018BDE8104002F099BB38B53B
:10BA90000C461546F9F728F929462018BDE8344028
:10BAA00002F095BB38B50C461546F9F71DF925543B
:10BAB00031BD10B50C46F9F717F9205C10BD80B503
:10BAC00000F016F800F076F801D1082002BD06203B
:10BAD00002BD38B50446F9F707F905462046FFF7D9
:10BAE000EEFF401932BD0121C8E70A460121CEE729
:10BAF00080B5F9F7F9F8407802BD80B5FFF7F3FF9C
:10BB0000800B02BD80B5F9F7EFF8417841F01001E4
:10BB1000417001BD10B50446FFF7EAFF00F04AF896
:10BB200004D05E210FF27810FAF7E0FA2046BDE863
:10BB300010400621A2E738B504460D46FFF7D8FFAE
:10BB400000F038F804D064210FF25410FAF7CEFA5E
:10BB50002A462046BDE83840062198E780B502F025
:10BB60002FFB01468A0A42EAA2030FF2441003F0B7
:10BB70000F03185C4B0700D408B9FF2002BD49062B
:10BB800005D412F003011CBF12F03001801CC0B2BA
:10BB900002BD10B50446FFF7ABFF00F00BF802D171
:10BBA0004FF4006010BD06212046FFF767FF00F448
:10BBB000406010BD00F00C000428704738B5044602
:10BBC000F9F792F805462046FFF792FFFFF7F2FFDC
:10BBD0000CBF06200B20401932BD80B5FFF7EEFFE9
:10BBE00030E010B50446FFF783FFFFF7E3FF02D113
:10BBF0004FF4004010BD06212046FFF73FFF00F440
:10BC0000404010BD70B50446F9F76EF80546204671
:10BC1000FFF76EFFFFF7CEFF01D1A81D70BDA81D75
:10BC2000FFF79CFF06462046FFF7DBFFB0F5004F0D
:10BC30000CBF022008207119081A801D70BD80B544
:10BC4000FFF7E0FFBDE8024002F0BABAF8B50446DB
:10BC50000D4616460120F9F752F80746FF2F1ED071
:10BC6000F9F77CFFA104890C41EA803189B238469A
:10BC7000FFF73BFF3846FFF722FF01463846F9F74A
:10BC800039F831463846F9F7E6F842F20C00204020
:10BC9000042803D129463846FFF74DFF3846F2BD48
:10BCA0007061636B65742D6865616465722E6300F5
:10BCB0000300070D000000000700090F0D000F151D
:10BCC0002DE9F0470546DFF8F40400689946302373
:10BCD00003FB010CD1078AB00CF11E0004D4817B58
:10BCE00001F00301022927D1904608F0010EBEF1B0
:10BCF000010FDFF8CC7411DA017C01F00103012B94
:10BD000008F0020212DB012A10DA0022002408F0F7
:10BD100004010129ACBF012600260FE0397800227A
:10BD200001F001014C1EA441E40FF0E7C90701D462
:10BD30000122EBE7012AFBDAFF204FE0BEF1010F01
:10BD40004FF6FF7102DA037CDB0701D40B4601E0FA
:10BD5000BCF81E300AB10CF11002BEF1010FB8BFE1
:10BD600041880194009602A800F0CCF902A9461877
:10BD700008F04004012CACBF0320012040F0280A49
:10BD800008F0080001283878A8BF4AF0040A00F03B
:10BD900001000128A4BF08F02000012809DBDFF81A
:10BDA00024040078012100F048F94AEA80105FFA83
:10BDB00080FA06F801AB311D012C01F8019B05DB6F
:10BDC000129801F8010B000A01F8010B02A8149B5C
:10BDD000139A0095091AC9B200F0FEF90AB0BDE83D
:10BDE000F08710B58AB001240093019413460A46E7
:10BDF000014602A800F086F902A941180E988001B8
:10BE000040F02A020C9808B142F0040201F8012B1C
:10BE10000D98109B0F9A0090081D02A9411AC9B2F3
:10BE200002A800F0D9F90AB010BDF8B5002A0546FD
:10BE30000F460CBF00AC1446FFF75AFE00F00C0092
:10BE4000082803D04FF4827100F015F9DFF8780369
:10BE50000068285C000605D52846F8F7EFFF054680
:10BE6000002000E00620207028462178F9F702FA29
:10BE7000410600F440623E4606D44FF44041084279
:10BE800002D001233FB9F2BD0023042EFAD120785D
:10BE9000C01C20700AE02178891C2170012E08BF87
:10BEA000C9B271D0491C022E217001D1002A5AE07A
:10BEB0000AB1891C2170032E04D100F44060B0F552
:10BEC000006F19E000F44061B1F5006F02D12178F4
:10BED000891C04E0B1F5406F02D12178083121704E
:10BEE000042E41D013B12178891C2170052E05D173
:10BEF00000F44040B0F5004F5FD135E000F4404120
:10BF0000B1F5004F02D12078801C06E000F44040DB
:10BF1000B0F5404F02D120780830207021782846B3
:10BF2000F9F7ECF800F00302012A08BF012305D05D
:10BF3000032A02D10123012701E000230027062E56
:10BF40003DD02078411C072E21702FD0091D082ECE
:10BF5000217002D17BB3C9B216E00BB1481C20702E
:10BF6000092E06D1002F26D021782846F9F782F92C
:10BF7000F2BD17B12078801C20700B2E1DD00A2E28
:10BF800006D1022A17D121782846F9F7B7F8F2BD71
:10BF90000C2E04D1022A0ED12078401C0CE00D2E6C
:10BFA00009D18A480068285C011F2170C9B228465F
:10BFB000F9F778F9F2BDFF2020704FF0FF30F2BDA5
:10BFC000F0B505468048006883B0285C00060C4642
:10BFD00004D52846F8F732FF064600E02E462846EC
:10BFE00000F011F8074601AA0B212846FFF71DFFB4
:10BFF000002000903B469DF8042031462046F8F78B
:10C0000086FF3846FEBD38B504466F480068205CA0
:10C01000000604D52046F8F711FF054600E0254646
:10C0200000AA0B212046FFF700FF684800689DF832
:10C030000010285C401AC0B232BD80B50F2804D071
:10C04000142806D019280AD00FE0080012D00120C9
:10C0500002BD09B1022002BD4FF4006002BD09B16A
:10C06000032002BD4FF4805002BD4FF4FD7100F07B
:10C0700002F8FF2002BD0FF2C010FAF737B880B502
:10C08000012804D009D3032805D002D305E00F20EE
:10C0900002BD142002BD192002BD40F2092114E0A6
:10C0A00080B5FFF720FD10F4C05006D0B0F5006F4A
:10C0B00005D0B0F5805F04D005E00F2002BD14204C
:10C0C00002BD192002BD4FF40671FFF7D4FFFF2017
:10C0D00002BD10B5044600220621FFF7A6FE00F0BF
:10C0E000030002280AD100220A212046FFF79DFE04
:10C0F000C0B2062802D16FF00E0010BD344890F98E
:10C10000000010BD2DE9F0478146884616469A4644
:10C1100002F09AFF8245099C14BF01250025002CDE
:10C1200014BF4CF2010048F20100002E0CBF4FF486
:10C1300000624FF4406202430898494608B142F059
:10C1400020020DB942F0400201F8012B100A01F85B
:10C15000010B4F1C4FEA1A2007F801AB07F8010B3F
:10C1600036B907F8018B4FEA182007F8010B05E0F4
:10C17000082231463846F8F7D0FA083745B102F0C0
:10C1800063FF07F8010B02F05FFF000A07F8010BDD
:10C1900034B108220F493846F8F7BFFA083708E0EB
:10C1A00002F04AFF07F8010B02F046FF000A07F809
:10C1B000010BA7EB0900C0B2BDE8F0874CF20020EC
:10C1C00088F3002089F30020F4F10020F0F1002032
:10C1D000C9FF0020C4F900202DE9F0410D461F469B
:10C1E0000446791982B09046C9B20020F8F773FE70
:10C1F0000646FF2E1ED0012000902B46002231461D
:10C200002046F8F784FE012000903B462A4631463E
:10C210004046F8F77CFE08980021FFF70EFF3246F3
:10C22000002140F00800FFF711FD04463046F8F702
:10C23000CFFD2046BDE8F68172663463652D7061DE
:10C24000636B65742D6865616465722E6300000020
:10C25000DFF86C1500200870FF21DFF86805017019
:10C2600001717047F8B5044601F0D8FF0546DFF8C4
:10C270005805DFF8507506882046FFF78AFCB0F5B0
:10C28000006F16D12046FFF7A8FC0CF0F1F8FF284C
:10C290000DD000F01EFA2146381DF9F754F8DFF8EA
:10C2A0002005017881B10089A9190E1A10E09320A8
:10C2B000F2BDFF213846F9F771F8052802DA214668
:10C2C0003846EAE73920F2BD05813146FBF763FCC9
:10C2D000B2B203212046FFF7DAFB032200F070F828
:10C2E0002046F8F767FD0020F2BDF8B50446DFF8F8
:10C2F000D4040078FF2813D0DFF8D0542968465CB6
:10C3000037463846FFF75AFC014608222046F8F720
:10C310004EFA08B90120F2BD28683F5CB742F0D15F
:10C320000020F2BDF8B50446FFF7DDFB000B00F07E
:10C3300001052046FFF766FC06462046FFF751FC44
:10C34000B0F5404F11D1002D36D03146002000F01D
:10C350007BF90446FF2C2FD00021FCF761FF58B376
:10C3600000F098F900F02AF826E0304601F028FFA6
:10C370000CF07EF80446FF2C01D10020F2BD012014
:10C38000002122460CF044FADFF84424D2E9006789
:10C3900006430F43C2E9006775B1DFF838341B6804
:10C3A00033F814304FF4FE64234205D0D2E902453D
:10C3B00020432943C2E902010120F2BD40F080027E
:10C3C00005212046FFF76EBB38B50446FFF7E1FBB9
:10C3D000B0F5006F0CBF012500252046FFF7EEFBEE
:10C3E00004462146284600F02FF9FF2810D18DB1D0
:10C3F000204601F0E5FE0CF03BF8FF280AD0DFF8FC
:10C40000D413096831F810004FF4FA61084201D0E2
:10C41000012032BD002032BD2DE9F04107460C4617
:10C42000DFF8A053FFF7B5FBB0F5006F0CBF281D78
:10C4300028460078FF2846D0DFF890130968405C52
:10C440000646B7423CD1F8F7EDFF8046052130465D
:10C45000FFF72FFB00F07F00471EFAB205213046A0
:10C46000FFF720FB002C18BF312C01D0F8B200BB25
:10C47000F8F7D8FF0746F0B2FFF78BFBB0F5006F77
:10C48000F1B205D1281DF8F789FF00F007F902E0A5
:10C490002846F8F783FF3846F8F7CAFF4046F8F712
:10C4A000C7FF2146304601F09FF83046F8F790FC70
:10C4B00004E000F0F3F84046F8F7BAFF012003E08B
:10C4C000765C8642BDD10020BDE8F08138B501F030
:10C4D000A5FEBB4C21892081421A4FF6FF75ADF8AD
:10C4E000005000A990B200F0FDF8BDF80000A8428D
:10C4F00002D10020207031BD01462046FBF74BFBE6
:10C5000031BD00214FF6FF70ECE02DE9F84FDFF868
:10C51000C092D9E90001002908BF002800F08D80F1
:10C5200000264FF00108B24600270024F8F77AFFF2
:10C53000D9E90023844608EA02001AEA030108BF89
:10C54000002817D06FEA08006FEA0A0102400B408A
:10C55000C9E90023D9E9025B012708EA05021AEAC2
:10C560000B0308BF002A05D028400BEA0101C9E9E6
:10C57000020101246046F8F75BFF002F4CD095487C
:10C58000006830F81600810746D59349096831F8EC
:10C5900016702CB100F49871102908BF012500D045
:10C5A00000258E4A12680021B154F4B180061CD5D2
:10C5B000380A8DF801008DF8007000A9012000F004
:10C5C00043F80446FF2C07D100F039F84FF6DF722C
:10C5D000114020F8161014E00021FCF721FE80B174
:10C5E00000F058F8FFF7EAFE0BE085F00100044286
:10C5F00007D000F024F841F4006120F81610FBF792
:10C6000081F800953B461A226CA10320F9F708FA3D
:10C61000294638460CF0F7F9761CF6B24FEA4A0084
:10C6200040EAD87A402E4FEA480806DAD9E90001F4
:10C63000002908BF00287FF477AFBDE8F18F654877
:10C64000006830F8161070472DE9F04188465D49C2
:10C6500000281ABF091D022508250878FF2816D0D2
:10C660005A4E3168475C3C4600F014F800060AD484
:10C670002046FFF7A3FA01462A464046F8F797F806
:10C6800008B9204604E03068245CBC42ECD1FF20AD
:10C69000BDE8F08105212046FFF70BBA70B50021F7
:10C6A000202009F0EAF847480079FF2810D0474CCD
:10C6B0002168455C2E463046FFF78FFA0BF0D8FE16
:10C6C000FF2801D000F005F82068365CAE42F2D1B8
:10C6D00070BD4049096831F8102042F0200221F86D
:10C6E000102070472DE9F84F80460FF2F400354EC8
:10C6F0000068364F00908A46344600E0341DF8F753
:10C7000091FE814606E02046F8F732FE294600A851
:10C71000F8F719FE2046F8F775FE40B93868217819
:10C720000D5C03212846FFF7A9F98045EBD2301DA7
:10C73000844208BFFFF7B2FF4846F8F779FE207839
:10C74000FF281CD0396810F801904D460321284677
:10C75000FFF794F9A0EB080B1FFA8BF20321284690
:10C76000FFF795F9BAF800001FFA8BFB834588BFE5
:10C770008346AAF800B038682D5C4D45E6D1301DDF
:10C780008442BBD100A8F8F73DFEA8B900A8F8F78D
:10C79000EFFD0446FFF7B1F9F9F78DF9FFF77AFFDE
:10C7A000000603D44221204600F01EFF2046F8F781
:10C7B0000FFBF9F7B0F9E5E7BDE8F18F425742000A
:10C7C000CCF9002070F3002080F20020FCF1002062
:10C7D00008F400200CF2002004F2002010F20020E7
:10C7E000FF00000038B5DFF8BC1C002008700CF01A
:10C7F0004CF90CF049FC0CF024FD08F0E7FF0CF0BC
:10C80000C1FDFBF748FC0024DFF89C5C09E02046F2
:10C81000F9F751F90CF0D8FD07F080FDF9F77BF935
:10C82000641C2878E4B28442F1D320E038B5F9F7EB
:10C83000DEFA04460025FF2C08D0F9F73CF9FBF797
:10C840006BFB00B90125F9F766F94DB90CF01DF93C
:10C850000CF01AFC08F0BAFF0CF094FDFF2C00D08D
:10C860000DB1FBF718FC0CF0AFFD07F057FDBDE86C
:10C8700031400DF0E1B8DFF8340C0068407B11283E
:10C880001CBF4328412801D1012070470020704778
:10C8900010B50446FFF71DF9801C01F091FC4FF61E
:10C8A000F87188422046A4BFBDE8104000F005B8EA
:10C8B00000F05CF800F075F910BD2DE9F041044678
:10C8C0000CF0AEFB002837D100F046F94FF6FF75AB
:10C8D00005D24188A9422FD02046FFF72CF900232A
:10C8E0000022022120460CF043FC28B32046FFF72B
:10C8F000F0F80646F77902F09FFB804602F09CFBB9
:10C90000424639460CF09AFB20B9BE210FF23C207A
:10C91000F9F7ECFBB01C01F053FCA84204BF204621
:10C9200009F0EAFE30780321084203D101212046B4
:10C9300001F0C4F9012000E00020BDE8F08138B525
:10C940000446DFF8A00C0068205C851AEDB2681A76
:10C9500080B2009053189BB222462046F8F7C2FCE2
:10C9600029462046BDE83440F8F77DBB2DE9FE4F4F
:10C97000002582460195FFF7ACF80646301D01F010
:10C980001FFC0746B01C01F01BFC8046307800F00D
:10C99000C000029038460BF06BFD8DF80200FF28B6
:10C9A00014BF4FF00109A94630780321084208D18D
:10C9B00002F042FB874202D05FEA090402D0012460
:10C9C00000E00024B079002873D002F035FB8045E8
:10C9D0000BD102F031FB834600225946504600F04D
:10C9E000E5F8002865D00020AEE000F0B5F838BFCB
:10C9F000B0F802B0F0D3404609F0C6F820B950466E
:10CA0000FFF771F8400514D570784007C346E3D5A9
:10CA100050460DF024FA00F0B1FC401C4200D2B2A6
:10CA200029465046FFF78BFF707800F0FB007070CE
:10CA3000D2E7707840071CD550460DF010FA00F090
:10CA40009DFC06466F1CF9B200F09AFC002E18BF40
:10CA5000FF2806D10022F9B25046F8F754FBC3462E
:10CA6000BAE705EB4000811CC9B25046F8F702FC5A
:10CA7000B1E701AA00A940460CF0B8F98346DCB141
:10CA80000298802804D0402816D19DF8000098B163
:10CA9000307800F03F003070384609F075F810B972
:10CAA00002F0CAFA07463A46002140460DF042FC21
:10CAB000002848D0012047E00198B8B30CF0EDF809
:10CAC0008DF801000198007900F0300002909DF887
:10CAD0000100FF2805D140F223110FF27000F9F791
:10CAE00005FB1CB30298102811D020281ED1B9F1E3
:10CAF000000F07D09DF802109DF801000CF005FA18
:10CB0000A0B904E0019800790C2108420ED0F37915
:10CB10005A46414638460DF065FF01980079019963
:10CB200000F0F30040F00400087101259DF80000BA
:10CB300028B1012140460CF070FE20B1C346002D03
:10CB40008ED0302249E70220BDE8FE8F6E657477F3
:10CB50006F726B2E63000000DFF850090068017BE4
:10CB6000C91E0329704738B504460D46FBF7DDF9A9
:10CB700000F091FC01D2012032BD4FF6F9718C42D8
:10CB80001CBF4FF6F8718C4201D0702032BD02F00C
:10CB900053FA0246294620460DF0CCFB00F001F87E
:10CBA00032BD401E8041C00F70470022F8B50446D8
:10CBB0000D461646FEF78DFF007800F0DBFB0CBF3C
:10CBC0000127002729462046FEF7B5FF02F034FA78
:10CBD000854217D0284608F0CCFF50B9DFF8C00ACC
:10CBE00001783246204601B0BDE8F04000230CF049
:10CBF000BFBA6FB902F020FA00232246294608F096
:10CC0000EFFB28B10121204601F058F80120F2BDC8
:10CC10002046FEF768FF400505D52046BDE8F440F4
:10CC20000021FCF7FDBA2046FFF71CFBFFF7B9FF18
:10CC3000F2BD2DE9F04104461646884630460DF017
:10CC4000E2F907463046FEF73AFF3E1AF6B23719C8
:10CC5000A8EB060292B2394607F10E00F7F75DFD28
:10CC600028203870DFF84458286890F8200078733E
:10CC700007F062FB0246791C012001F0ACFA0822A1
:10CC8000DFF86C1C781DF7F748FD286890F8200045
:10CC90000EF0A2FC08F10E0133460022C9B2204674
:10CCA00007F06BFD1220BDE8F0812DE9F04F85B053
:10CCB00080460D460DF0A7F982464046FEF72AFF52
:10CCC00081464046FEF7FBFE07460AF10E0189B297
:10CCD00040460DF0DCF8002852D0002000900E23D2
:10CCE0005246414601A8F8F712F90DF1050101205D
:10CCF00001F07FFA83469DF804009DF81140282832
:10CD00003ED10822DFF8E81B0DF10900F7F74FFDCF
:10CD1000B0B3DFF8E06B20460EF05EFC58B9306827
:10CD200090F82000201AC0B280280DDA00210020DF
:10CD300002F000FD08E00120009000235246394631
:10CD4000404607F04FFDD8B140460DF06CF849461B
:10CD50000DF109000EF03BFDFE28824610D0FF28A1
:10CD60003CD148460CF087FB8246BAF1FF0FDFF852
:10CD7000887B0BD00DF109010CF073FD387868B396
:10CD800000211920F9F791F80020F0E200F0FBFAF9
:10CD90000AD140460DF037F901464046F8F7AEF9A2
:10CDA000082801D10120F0E738780028E8D1306860
:10CDB00090F82D1090F82C00814206D3A81C01F0A9
:10CDC000FFF94FF6F8718842DADA0DF109014846A9
:10CDD0000CF0A3FC48460CF04EFB8246306890F8FD
:10CDE0002000844205D0214601200EF004FA0028DC
:10CDF000C6D0306890F82000844203D150460EF02F
:10CE000054FD28B9594650460EF0CAFC0028BCD043
:10CE1000594650460EF0D4FCC4E738B5DFF8E00AB6
:10CE2000F8F7A6FA0446FF2C1DD0DFF8D85A0321E4
:10CE3000FEF73FFE287004212046FEF73AFE687098
:10CE400005212046FEF735FEA87001200BF042FDBB
:10CE5000204600F009F82046F7F7BAFFBDE8324057
:10CE600000200BF037BD31BD38B50446FEF740FE5B
:10CE700000F00C052046FEF740FEF8F71CFE2046A9
:10CE8000FEF736FE00F040FD32D1FBF745F818B151
:10CE90002046FBF77BF975E0062200212046FFF7CC
:10CEA0004EFD2046F7F720FF0EF04DFD8DF80100F6
:10CEB0008DF802409DF8010048B92046F7F714FFAD
:10CEC00001460DF101000EF091FD8DF800009DF876
:10CED0000100802804D100A80FF0CDF8002851D11E
:10CEE000F8F75CFE00A8FBF705FEF8F714FE49E032
:10CEF000042D204617D1FEF7F6FD00051ED40220B2
:10CF00000021F8F7D2FFFBF707F808B1042D39D05C
:10CF10000C2D15D12146012006F0B3FC90B320461C
:10CF200002F088FE2EE0FEF734FEB0F5006FE6D189
:10CF30002046FEF752FE00F0B5FBE0D10020DFE70F
:10CF40001DB9204603F02EF81CE0042D1AD1DFF89D
:10CF5000A4090568687B02280CD0FFF78CFC48B94F
:10CF6000687B332818BF312804D0012804BF287BF0
:10CF7000052807D12146022006F083FC10B1204687
:10CF800000F004F8F8F7C7FD31BD00002DE9F04FBF
:10CF900085B08246FEF79DFD05465046FEF7BAFD78
:10CFA000ADF80600281D01F00BF98346A81C01F01E
:10CFB00007F9ADF8040028460DF044F803904FF649
:10CFC000F87200F0E0F9687800F00201029100F0D8
:10CFD0000100BDF8041004900CBF01270027914206
:10CFE000ACBF4FF001084FF0000850460DF00BF8B1
:10CFF0008146287800F03C01082943D1DFF8E41588
:10D0000009681AF8011089453CD217B90321084272
:10D0100038D10298DFF8DC4848B12068C07E00288B
:10D0200030D029465046FFF740FE00282AD02FB1C5
:10D030005146032006F025FC002823D0494600F085
:10D040009FF90646029878B92068C07E60B1BDF8A5
:10D050000400009001F0F0FF0099814212D197B1D5
:10D06000062E18BF072E0DD12068417B022956D10C
:10D07000029911B9C07E002851D1BDF806000FF009
:10D0800016FC60B173E106F003000128ECD04A46BB
:10D090002946504600F0A6FD0028E5D167E1BDF81D
:10D0A0000600009001F0C8FF0099814211D120686C
:10D0B000007BC01E032808D201F0BEFF0146206895
:10D0C00040880D220FF030FC51E101200FF004FBED
:10D0D0004DE1BDF8060008F057FD70B901F0B4FF4E
:10D0E0004FF6FF71884208D0DFF8040C00780A2858
:10D0F00004BFBDF806000CF051F90399012258460F
:10D100000FF013FB0028E3D128460CF08EFF0146F8
:10D11000BDF8040000220FF008FB0028D8D1BDF8AC
:10D1200004004FF6FC71884266D12068007BC01E67
:10D130000328CDD3A87908B1401EA87168784007AC
:10D140002AD50020029002AA00A958460BF04EFEF4
:10D15000029808B30BF0A1FD0446BDF804000BF0E3
:10D1600087F90299097901F03003102B1CBF01F0F7
:10D170000C02082A03D0029A01F0F30111710299FE
:10D18000097901F03301202906D1FF2804D0014696
:10D19000012220460BF0A2FEBDF806000BF068F954
:10D1A000FF2804D0DFF84C2B12680021815409F1CC
:10D1B0000104049840EA0800C0B2002874D1E9795B
:10D1C00058460CF0CBF801F001FD08B1039820B1EE
:10D1D000BDF80610584600F0CAF901F02DFFBDF861
:10D1E0000410884260D0084608F0CEFC70B177B1D8
:10D1F000012E1BD1002267E04FF6FD71884299D1C4
:10D200002068007B001F022894D2B0E077B9BDF8F7
:10D21000040008F0AEFC48B1BDF8041000235246EB
:10D22000584608F0DDF8002840F09D80DFF8C80A75
:10D23000007848B9584608F0A7FC28B9BDF80400A2
:10D2400008F0A2FC0028E0D0C7B1052E16D101F0ED
:10D25000F3FE8DF8000001F0EFFE000A8DF80100EA
:10D26000022200A95046F7F7BCFE00281BD1E1B20C
:10D270005046F7F719FF0178491C0170687840079C
:10D280000AD550460CF0EBFD411CC9B25046F7F7E9
:10D290000BFF0178491E01705046FFF767FB002124
:10D2A0001C20F8F702FE62E0002F4ED0701E092805
:10D2B0005DD8DFE800F005050E131930393F434310
:10D2C000022E0CBF01220022494650460DF012FAF0
:10D2D0004DE0494650460FF05BFB48E04A46514658
:10D2E00058460FF098FC42E0E1B200F049F80546DC
:10D2F000DFF8087A03983860F8F750FC09F102006B
:10D30000C0B20090534639682A4658460FF0A1FD36
:10D31000F8F701FC2BE0CDF800902B465246002197
:10D32000012002F010FB22E04A465146012002F0A3
:10D33000DAFB1CE050460FF0A8FE18E0504603F060
:10D34000A2FAB8F1000F12D009E0049820B1287AAF
:10D3500000F010F80BD102E0B8F1000F03D05046F6
:10D3600000F016F803E00021504600F0A7FC05B0DD
:10D37000BDE8F08F00F003000128704705462946FC
:10D380005046F7F7BBBE287800F00300012870472D
:10D390002DE9F84F8046FEF79CFB05464046FEF718
:10D3A000B9FB0446281D00F00BFF8146A81C00F0C5
:10D3B00007FF834695F807A0204608F0E5FB0746DF
:10D3C0002946404600F074F80646022E61D02246F7
:10D3D000514648460BF0EFFD00285AD101F02CFED3
:10D3E000814556D0DFF81809007860B9012E06D0C3
:10D3F00001F0ECFB18B128460CF024FE18B12146D0
:10D40000484600F0B4F82246514648460BF016FE56
:10D4100000283ED028780321084203D1002140464D
:10D4200000F04CFCA879A0B300F035F831D368784F
:10D43000C00715D52C7A584610F007F940B1E1081D
:10D4400004F0E00001F01C01084340F0010006E098
:10D4500004F01C001C2803D005281ADB201F2872AA
:10D460004FF6FF7529464046FEF765FB0FB10022D7
:10D4700003E0F9F7D3F900F03F0200230221404610
:10D480000BF076FEAB4504D14046BDE8F24F09F003
:10D4900033B9BDE8F18FDFF85C040068007BC01E83
:10D4A0000328704764FD00203CF200209CF9002016
:10D4B000F0B587B0044608780321084254D12146CC
:10D4C000042006F0DEF900284FD020460CF09BFD2A
:10D4D000014600F084FB0321084245D120460CF0B0
:10D4E00092FD0546294600F07AFB0FF6380248CA3D
:10D4F00005A948C10321084236D1002000906A1CCA
:10D500000523D2B2214603A8F7F701FD052203A99E
:10D5100005A8F7F758F938BB20460CF0F7FD05468B
:10D52000A91C00F05BFB0646691C00F057FB00EBF2
:10D53000062605F10B0100F051FB07460020009084
:10D54000EA1C0823D2B2214601A8F7F7E0FC2046E6
:10D55000FEF7E0FA3A46B1B201F0F4FA012201A96D
:10D56000B0B20FF0E2F800E0002007B0F0BD38B52F
:10D5700004460D4608F008FB002818BFAC4206D050
:10D5800020460AF075FFBDE8324008F08FBB31BD80
:10D5900010B5192241A10320F8F742FADFF85443ED
:10D5A0002068417B022918BF032901D0932010BDB8
:10D5B000007BC01E032802D200F0A2FE08B170203A
:10D5C00010BD10F081F82068407B032805D10021B0
:10D5D000012002F0AFF8012010BDFBF756FE00203D
:10D5E00010BD0000F0F100202DE9F04180460D460D
:10D5F00000260DB9012602E0312D08BF0025FEF7F7
:10D6000077FA00F081F913D1FAF786FC80B9DFF8D8
:10D61000F46686F80080F8F7C1FA4046F7F70EFC8A
:10D620002946FBF7A9FAF8F776FAFF20307032E0C6
:10D63000DFF8D4764046FEF75BFA0C21084205D1AC
:10D640003978BDE8F0410120F8F72FBC03244046AB
:10D65000FEF79FFAB0F5006F07D14046FEF7BDFA1E
:10D6600000F020F808BF012401D005B10524397865
:10D670002046F8F71AFC2946404609F0AFF850B9A1
:10D68000294640460BF0F4FD28B93246294640466B
:10D69000BDE8F0410AE0BDE8F08100004200000072
:10D6A000BCF300204FF6FF71884270472DE9F04F20
:10D6B00083B007460E461446FEF71AFA00F024F926
:10D6C00008D1FAF729FC28B1224631463846FAF744
:10D6D00024FD07E1DFF81C823846FEF709FA00F066
:10D6E0000C000C2838465AD1FEF7F3F98246FEF7B3
:10D6F00035FA50444FF0FF090178DFF80856012948
:10D7000006D0022912D0042924D07C2939D0E9E09E
:10D710004EB99AF804009AF8031001EB002080B289
:10D7200001F096FCDEE002F006FCDBE0002E04BF18
:10D73000C178002908D18278407800EB0220394670
:10D7400080B20DF044FC92E00AF10501002008F0DF
:10D75000F4F892E0D8F80000407B0228E5D11EB929
:10D7600010F048F804B931263346222263A1032081
:10D77000F8F756F92F70F8F711FA30460BF024F944
:10D7800008E02F70F8F70AFA3846F7F757FB3146EA
:10D79000FBF79CF9F8F7BFF985F80090A2E0FEF7D7
:10D7A00098F90446201D00F00BFD8146A01C00F0F6
:10D7B00007FD05464FF6F87B5D450BDAD8F800000B
:10D7C000B0F84410491CA0F844101EB14430418800
:10D7D000491C4180207800F00301012950D13846CE
:10D7E0000CF011FC01463846F7F788FC042802D0FB
:10D7F000072804D076E038460FF0F8FA72E02046A9
:10D800000CF013FC00286DD00146002008F095F8BC
:10D81000044638460CF0F7FB00210091421C03231C
:10D82000D2B2394601A8F7F772FB002E02BFD8F832
:10D830000000407B02281FD101A88178E1B940781F
:10D840009DF8041001EB00252046FF280CD0DFF8DE
:10D85000BC14096831F810204FF6FF331A4021F844
:10D860001020A9B208F0E9F9A8B20BF02EFA0021B5
:10D870001020F8F71AFB35E0204608F017FA31E0DF
:10D88000032108422ED101F0D7FB814504D0384650
:10D89000FEF729F9C00606D5002E0CBF002166212F
:10D8A000384610F06BFAEEB15D451BDA607810F087
:10D8B000040606D128460BF0E6FA070002D001273D
:10D8C00000E00027284608F054F910B1062267B995
:10D8D00004E00EB10B22FAE737B902222946484686
:10D8E0000FF022F8BDE8F78F0C2249462846F7E7EB
:10D8F000C4F900209CF90020DFFF00204242000014
:10D9000084F30020D9FF002000F00C0008287047A5
:10D910002DE9F04F044685B094F800A05046FEF77C
:10D92000ECF8F8F7C8F8FAF7F7FAB0B1A0790128DF
:10D9300005D1DFF8DC03017841F0010101702078A6
:10D94000FAF74DFC002840F0D080607800F0F0003D
:10D950006070F8F7E0F8002009E55046FEF7B9F8E6
:10D960000646301D00F02CFCADF80000B01C00F0A5
:10D9700027FC814650460CF046FB83465946FFF78C
:10D98000FFFC8DF802003078FFF7F4FC0CBF9DF827
:10D990000250FF2500F042FCA188401A1FFA80F8CF
:10D9A00001F04AFBBDF8001088420CBF0127002798
:10D9B00008460EF07CFF0028C7D148460EF077FFDE
:10D9C00020B1484608F0E0F80028BED0FFF763FD1C
:10D9D00021D2062D18BF042D62D05A46314650463A
:10D9E00000F000F9B8B9FEF746FF20B19DF802003B
:10D9F000FFF7C0FC0FD0FAF71AFA00284DD001F05B
:10DA00001BFB0146301D00F0E2FBC2480068418864
:10DA10005046FEF790F8012D42D15046FEF77AF8B5
:10DA2000FFF740FE3CD1002300F0B3F805008CD096
:10DA30006A799DF80D00824207D20BF10501C9B247
:10DA40005046F7F760FB00F09EF8F8F7E7FE7E21FE
:10DA500090FBF1F17E2202FB110000F580706080E6
:10DA600018219DF80E00084212D060780F2108425C
:10DA700008BF002F0CD1F8F791F830460CF0E2FA0D
:10DA800001466A79BDF80000FAF79DFFF8F743F800
:10DA9000F8F741F89DF80F005EE72820608058E70E
:10DAA0004FF6F870814502DA7078C00721D5FFF78C
:10DAB000F2FC1ED340F6B93080455CDAF8F7AEFED2
:10DAC00000F03F00C0F5FA706080607800090CD06B
:10DAD0005FB9F179BDF800000BF063FA00281EBFB2
:10DAE00080884FF6FF718842A1D0F8F714F8012022
:10DAF00032E7022D26D1012300F04BF8054601F054
:10DB00009BFA0146BDF80A00814202D008F03CF8B9
:10DB100058B3002D8BD06B880122594650460CF02B
:10DB200094FD7C480068417E491C4176F171BDF846
:10DB300006006988884201D000F025F84FF4C870CB
:10DB40006080D2E7032D10D17FB10BF10101C9B282
:10DB5000FFF716FC0C2808D10BF028FFFFF7A2FDF9
:10DB600003D001465046FDF7E6FF607800097FF4D8
:10DB7000ECAEB8F1FB0FBFF6E8AEF8F74FFE00F0E1
:10DB80001F001030DCE7607800F0F000801C60704F
:10DB9000704701AA594650460CF089BC70B504463E
:10DBA000FAF7BAF9C0B92046FDF793FF05462046BB
:10DBB0000CF029FA014600F012F806462046FDF75F
:10DBC000A9FF4FF6F871884204DAFFF7DCFB08BFC3
:10DBD000022E01D1012070BD002070BDC9B22046C7
:10DBE000F7F78CBAF8B504461546084600F0E8FA8F
:10DBF00020F4007041F20801884218D146480068BC
:10DC0000205C401B072812DB00260FF22017711939
:10DC1000FFF7E4FFF15D814203D0022E08BF002828
:10DC200005D1761CF6B2072EF1D30120F2BD0020FB
:10DC3000F2BD2DE9F04180460C46FDF759FFFFF794
:10DC400063FE31D0201D00F0BBFA0546E679404660
:10DC5000FDF760FF07464046FDF745FF00060FD57C
:10DC60002C480068017B091F022909D2417B022947
:10DC700006D140884FF6FF71884218BFF8F79BF92C
:10DC8000A01C00F09DFA4FF6F871884202DA607825
:10DC9000C0070BD520780321084205D13A4631460A
:10DCA00028460BF088F905E0012005E031462846BA
:10DCB0000BF040FBFEF775FFBDE8F08110B50446A0
:10DCC00041B1FF220321FDF7EDFE00220421204691
:10DCD000FDF7E8FE21461148F7F735FB2046F7F738
:10DCE00069F80F480078BDE81040FAF737B800002F
:10DCF000E0F3002010F2002000F2002028FC0020B9
:10DD000032FE002098F30020C4FF00200CF2002017
:10DD1000E9F900209CF90020F0F10020B8F3002080
:10DD2000CAFF0020001300000000000000FF0140B7
:10DD30000EC0FF002DE9FC4204460D469146CDF889
:10DD400004900095234624220FF208410320F7F7A0
:10DD500067FEDFF8F07338780A2818BF3D203DD100
:10DD6000B9F10F0FA8BF332038DA092CA8BF34202F
:10DD700034DADFF8D4032840A84218BF35202DD16B
:10DD800035B9DFF8C8130968897B012000FA01F56D
:10DD9000002C18BF022CDFF8B8630CD12021002022
:10DDA000F7F799F87870FF2808BF182016D0F6F713
:10DDB0009BFFF06130623C7086F80190B5610020F5
:10DDC00030700A20F8F748F801210FF21500FBF730
:10DDD000B1FA38780A280CBF01200020BDE8F6828D
:10DDE00038B50A20F8F747F80446F7F764FE2046EE
:10DDF000F7F76DFF0020F7F782FFD54CFAF77FF8B1
:10DE0000E07001F021F92082F9F715FB20714FF63F
:10DE1000FF75CC4C2078062808D10120F9F70EFBBD
:10DE2000072020702846F9F791FD0CE0082805D05E
:10DE3000284601F00DF92846F9F77FFB0020F9F795
:10DE4000FDFA00F063F8BDE83140F7F764BE80B535
:10DE50002522BAA10320F7F7E3FD00F002F8002025
:10DE600002BD38B5F7F7DEFAB64D044628780A2821
:10DE700018BF092804D12046BDE83240F7F7D8BAC8
:10DE8000072808BFF9F726FD2878B149087009204E
:10DE900028702046F7F7CCFABDE8344001210FF294
:10DEA0000900FBF747BA000070B5A64C2078092896
:10DEB00002D0E82100F0A3F80A20F7F7DCFFF7F71B
:10DEC000FAFDA34D288A01F0C3F8A049E878096853
:10DED00088732879F9F7B2FA0120F7F710FFF7F7FE
:10DEE00012FF66780020287200220A202070314636
:10DEF000FF206070287802F071F9FF2E1CBF3046B9
:10DF0000F6F766FFBDE87040F7F705BEF8B5904C30
:10DF1000002020720A20F7F7AEFFF7F7CCFD894DFD
:10DF200028780A2803D14FF48A7100F068F828781D
:10DF3000E0B917E0401CE061282210F9016DE069AA
:10DF4000401CE0617EA110F8017D00963B46032055
:10DF5000F7F766FDF7F722FE31463846FAF7B6FBCB
:10DF6000F7F7D9FDE069216A8842E3D320781B28BE
:10DF70001FDA0DF099FE50B12078A169C140C907A0
:10DF800005D4401C2070C0B21B28F5DB11E0F8F767
:10DF90004FFE01462078884202D0F8F741FE40B992
:10DFA00020780DF06FFE20700020A07000F064F863
:10DFB00008B32878052818BF012803D0032818BF04
:10DFC00008280DD10B26A069F040C00704D5287899
:10DFD0003622314602F002F9761C1B2EF3DB08E0F4
:10DFE000022806D1206AE169411A6878C9B2F7F7B8
:10DFF0003AF8FFF736FFBDE8F140F7F78CBD0FF2B6
:10E000005C10F8F773B838B54E480178092904BF99
:10E01000BDE83140F9F781BC4D4C6369002918BF58
:10E0200002291ED19BB9226A6179521C226202F830
:10E03000011D007828B9256A681C2062F8F7F8FDF0
:10E04000287004F10800BDE83240F9F799BD0825B1
:10E05000F9F706FA94F905108142B8BF01466171DB
:10E0600003E0002BEDD04FF470752846F9F76EFCF5
:10E070006069401E606131BD80B53548427801213C
:10E080009140304A1278491C092A416120D8DFE8C2
:10E0900002F01109110917051F1F0D1CBDE80140F1
:10E0A00008F02ABDBDE8014008F033BDBDE80140DD
:10E0B0000EF0DCB86FF07F0242717822514341616B
:10E0C0000020F9F743FC002002BDF9F726FC03E02D
:10E0D00040F2A311FFF793FF012002BD10B5194ACA
:10E0E0001B4C1278052A11D1062816D12020606118
:10E0F000A9B9F8F79DFD0122A16902FA00F021EA11
:10E100000000A0610020F9F721FC15E0012A14BFEE
:10E11000032A0728ECD0082AEAD0002010BDA078F6
:10E12000401CA070C0B2032802DAFFF7A5FF18B1A7
:10E1300004F10800F9F724FD012010BD42000000A1
:10E1400042424200E0F3002000F8FF079CF9002063
:10E1500080FD002042424442000000007363616E73
:10E160002E63000038B5002814BF04011024F7F70F
:10E1700059F90546FCF7C9FA20180F490F4C82B22D
:10E180004A60000C0860042020602846F7F750F928
:10E19000206C40F00400206431BD80B5F7F742F9EF
:10E1A00006490A6C22F004020A6404220A60BDE8EF
:10E1B0000240F7F73DB900004820004008A00040A9
:10E1C00041780078FFE700EB012080B270470170D2
:10E1D000090A4170704710B50023002814BF1C467F
:10E1E000C3F10304E4B25B1C6254120A042BF4DB97
:10E1F00010BD30B54A788B78CC78097818B12046B4
:10E200001D460C4602E0154608461A4645EA00201F
:10E2100044EA022141EA004030BD000080B500F030
:10E2200008F880B202BD80B500F003F80002000CCF
:10E2300002BD38B5F7F7F6F82B490C684D68F7F7CB
:10E24000F7F845EA044032BD704780B5FFF7FCFFA0
:10E2500026490720086001202549087001BD2DE9E5
:10E26000F84304460025206810B9FDF705F82DE0B5
:10E27000F7F7D8F8804600F030F81CBF401C20604B
:10E28000FFF7D7FF21681A4E184F814619484944B5
:10E2900089B2416021684944090C0160357002204F
:10E2A0003860386400F015F84046F7F7C1F80120EF
:10E2B000FDF7C1FA3D64307838B98525FFF7B9FF1D
:10E2C0002168081A4844206000E025602846BDE81F
:10E2D000F283102009490860704707491020086040
:10E2E000206810F1010F70471060004014A000403A
:10E2F000ADFF00201860004080E100E000E100E098
:10E30000DFF81409007800B101207047DFF8081920
:10E310000A78072A18BFFFF7F3BF80B5902803D10A
:10E320000020087010F04EF9BDE80140E8E770B534
:10E33000164604460D46FF22F9F7AFFD28B9002224
:10E3400029462046F9F7A9FD50B146B16908204693
:10E35000FCF7DEF908B9A52070BD002070BD702063
:10E3600070BD70B50446084615461E463246082163
:10E37000FFF7DDFFA8B9324602212046FFF7D7FF9D
:10E3800078B92878002818BFFF2807D0DFF88C1844
:10E3900021FA00F0C00703D5702070BD0B20287053
:10E3A000002070BD10B5441A48BF6442C92C0A460B
:10E3B00002DB884203D201E0884200D30246904249
:10E3C00001D1012010BD002010BD70B50446DFF85A
:10E3D0005008006886B00D46407B0F21084206BFFA
:10E3E00094F828000228702038D10123A21C211D96
:10E3F0002046FFF7B6FF060030D194F8260000F063
:10E40000020040F0010010F027FA94F82800DFF82D
:10E41000081848701822002100A8F6F7C1F9082250
:10E42000211D00A8F6F779F92088ADF808008DF8CD
:10E430000A5000ABA0788DF80B004FF44171032017
:10E440008DF80C00DFF8DC070590012094F82820F7
:10E4500001F045F80646F7F756FC304606B070BDA9
:10E460002DE9F041DFF8B847064620688EB0407BC2
:10E4700000F00F052C22314602A8F6F74EF9012DC7
:10E4800018BF042D31D0DFF890572878002818BF26
:10E4900006282AD196F82800801E022825D810F0D8
:10E4A000CCF9C00723D400F0CFFD074602F0C7F92E
:10E4B000804600A802F0F9F80822311D00A8F6F7FE
:10E4C00076F9002840D1707B4146FFF76BFF0028AA
:10E4D0003AD000F0B1FD01460122304600F0FAF8D2
:10E4E000DFF844170020087059E0702057E0012140
:10E4F00000200CF082FB070050D110F0FDF90FF264
:10E5000048724FF6FF71012001F0D0FF96F8260007
:10E510000027C0070ED500220821301DF9F7BDFCE9
:10E5200040B90822311D03A8F6F7F7F83088ADF896
:10E53000080006E00822002103A8F6F731F9ADF83B
:10E5400008708DF815700EE0082200A903A8F6F7F0
:10E55000E4F8ADF808708DF8158096F828000228C8
:10E560000CBF01270227B0788DF80A00032001F0C4
:10E5700058FF02A938460DF03EFF07000AD1216876
:10E58000012048734FF4A05104202870281DF9F78A
:10E5900002FB03E000F02FF801F043FF38460EB015
:10E5A000BDE8F08130B58BB004460D462C22002129
:10E5B00000A8F6F7F5F841F60630ADF80000102295
:10E5C00005F115010DF10200F6F7A7F8102221461A
:10E5D0000DF11200F6F7A1F8284610F062F900A834
:10E5E0000CF050FA0BB030BDDFF82C060078012893
:10E5F00018BF00207047DFF82006407818B9DFF810
:10E6000020060068007B70472DE9F0410446DFF8E2
:10E610001006DFF8046600687778407B884631781A
:10E62000002918BF0729154600F00F0037D101282F
:10E6300018BF042833D010F000F9C00744BF48F6D3
:10E64000990000F005FD10F0F8F840F0020010F01D
:10E6500003F90DF059FB20460DF034FBF9F74AFCA5
:10E66000F0704046F9F73DFC5FEA000814D1A81E9F
:10E67000022814D801203070757004222146082029
:10E68000FFF758FB5FEA000806D00020307096F9CB
:10E690000300F9F726FC77704046BDE8F081702052
:10E6A000FBE738B5DFF870550446287810B1062826
:10E6B00008D00DE006202870F8F7BDFEA8700020F5
:10E6C000F8F7BCFE2146281DF9F765FA002032BD97
:10E6D000702032BD70B50546DFF84C05DFF84C659B
:10E6E0004180144628883081A878F072F9F702FC3E
:10E6F000B0720822291D3046F6F70FF8687B307497
:10E70000DFF820057061032030734CB910F095F8E4
:10E71000C00705D404224FF6FD7100200EF0D4F995
:10E720009120F9F741FBDFF8F00403210170002C80
:10E73000BDE8704014BF4FF400614FF40071001D3C
:10E74000F9F729BA38B5DFF8D044002020712078D5
:10E75000032838D110F071F8DFF8CC54297800295B
:10E7600014BF6FF480714FF6FF7108404FF6FE71D1
:10E77000084010F071F8DFF8A8140968012028702B
:10E7800000204873FFF737FF0328BCBF0720207025
:10E79000FEF74CF841F60631002010F002FAFFF7C0
:10E7A0002AFF02466988DFF88434002000F097FED3
:10E7B000FFF721FF03281ADB002020700021012031
:10E7C00000F0B8FF13E0042818BF052808D1FFF7B0
:10E7D00012FF01F026FE0020207000F0A0F806E0F5
:10E7E000062804D100202070A078F8F727FEBDE8A5
:10E7F0003140F7F788BA70B5DFF81C64044630780A
:10E80000012882B00D4613D1F8F712FA00902B467A
:10E810002246CBA10020F6F7C9FCDFF814140870DB
:10E82000FF2805D002203070BDE87340FFF719BB08
:10E8300073BD70B5DFF8E04394F903002178012936
:10E840008AB00BD100212170F9F74BFBF7F7A6F93D
:10E850000020FAF7FFF9F7F75EF95BE002295BD1D8
:10E86000F9F73FFBF7F79AF90120FAF7F3F9F7F711
:10E8700052F91822002103A8F5F792FFE078DFF89B
:10E88000B0538DF816000C212878F6F737FC8DF878
:10E890001700012303208DF818000DF11702002046
:10E8A0008DF81C0003A9DFF87C03089005A8FFF78A
:10E8B00058FD06460020F9F777FA3EB903AB02226D
:10E8C0004FF44171002000F00AFE0646F6B92878A0
:10E8D0000821F6F7E7FC0646002000900823297877
:10E8E000002201A8F6F713FB2878F6F771FAFF204B
:10E8F000287001220520207001A930460DF0F3FC9C
:10E900004FF40051201DF9F746F903E00020207074
:10E9100000F005F8012000E000200AB070BD00B54D
:10E9200085B000F0DFF89DF8030000F057F994235C
:10E930001322B8A10320F7F773F89420F7F7AAFA87
:10E94000FFF759FE032808DBB548006840884FF6FA
:10E95000FF71884208BF032000D00220F9F724FA93
:10E9600005B000BD2DE9F04196B004460D461646AF
:10E9700098460127082205F11C0105A8F5F7CDFEF0
:10E98000022C08D1FFF737FE032869DB0FF055FF93
:10E99000C00704D464E0FFF72EFE032860DA288B5A
:10E9A00010F0E2FAFF285BD007AB424605F11001F8
:10E9B000002010F0ECFA002852D10E22314601A8B6
:10E9C000F5F7ABFEBDF80C00BDF80A10884204D282
:10E9D0000020ADF80A00ADF80C00BDF80800BDF845
:10E9E0000610884204D20020ADF80600ADF80800F9
:10E9F000BDF81000BDF80E10884204D20020ADF81A
:10EA00000E00ADF81000BDF81000BDF80E30BDF8D6
:10EA10000A20BDF808100090BDF806000FF0E4FED3
:10EA2000F0B9002C34D1A87810B9F9F768FAA870B9
:10EA30000123AA1C291D2846FFF793FC80B9002753
:10EA40000122002107A80CF00EFC0BA80FF00CFF10
:10EA50000DF141033A4641F60631402010F06CF8C2
:10EA60002A46214638460DF065FD77B931880022E7
:10EA70002846FFF72FFE0120F9F796F9F7F78EF8F1
:10EA80002846FAF720F9F7F746F816B0BDE8F08106
:10EA90000023CEE77FB5604915460A78042A1C4654
:10EAA0001FD100220A710A7010B1FFF738FF7FBD35
:10EAB00000F0C2FA06467DB100F014F8082202A95F
:10EAC000201DF5F72AFE9DF80300A070BDF8000098
:10EAD000208001F0B4FE6073012231462046FFF72A
:10EAE000F9FD7FBD1023072200A9012004F03DBAE3
:10EAF00030B583B004460D4600A801F0D6FD0822CB
:10EB000000A9201DF5F753FE80B900F09DFA218879
:10EB100081420BD101F093FE0146607BFFF742FC7E
:10EB200020B1002229462046FFF7D4FD37BD80B52D
:10EB300001200FF091FE38490020087001BD00004F
:10EB40003834310070B504460D461646FFF753FDC4
:10EB5000032811DA3748007870B1AC420CD1B00705
:10EB60000AD528460AF091FC30B1007920B9BDE8F9
:10EB700070403148F9F704B870BD10237F22172187
:10EB8000FBF770BB28237F221821FBF76BBB10B566
:10EB90000C46FFF7F2FF2046BDE81040F2E70246C0
:10EBA00010237F211720FBF783BB80B50FF045FEB4
:10EBB000000A00F0010080F0010002BD80B5FFF7FF
:10EBC000F4FF08B1002002BD012002BD80B5FFF7AF
:10EBD000ECFF08B1002002BD012002BD1049096808
:10EBE0008873F7F749B80E480068807B704780B596
:10EBF0001249134808600FF020FEC00702D40649EE
:10EC00000720087001BD0F48007870470D49087053
:10EC1000002070474242000034FD0020FF0700F84A
:10EC20009CF9002000F8FF07BEF3002040FD002003
:10EC3000C2F3002080FF00202CFD00207CFD00207E
:10EC40009862020887F20020000000000000000027
:10EC500038B509F047FEFBF707F9DFF808442078DC
:10EC6000002840F0A780122010F006FA00060BD50D
:10EC700000F0DFF8000607D500F0DEF8000603D547
:10EC800000F0D4F8000610D4122010F0F5F90006B8
:10EC900014D500F0CEF8000610D400F0CDF8000630
:10ECA0000CD500F0C3F8000608D5E0780E2861D135
:10ECB000FBF794FA002800F07F8032BD00F0B9F82D
:10ECC00000060FD400F0B8F800060BD500F0B4F839
:10ECD000C00707D400F0AAF8000603D4E0780C2897
:10ECE00045D1E5E700F0A5F8000609D500F0A4F845
:10ECF00000F08100812803D100F098F800060DD5BE
:10ED000000F097F800060ED400F096F800F08100AD
:10ED1000812808D100F08AF8000604D4E0780D2894
:10ED2000C6D00E28DCE700F084F8000610D500F00D
:10ED300083F800060CD400F079F8000608D5E078D6
:10ED400016281CBF01281A28B2D00F2815D1AFE70A
:10ED500000F06FF80006ABD400F06EF80006A7D400
:10ED600000F064F80006A3D5E0781628A0D0E0787B
:10ED700001289DD0E0781A289AD0E078022818BFA0
:10ED80001B2895D0062818BF072891D0082818BF3F
:10ED900009288DD00A2818BF032889D0102818BF49
:10EDA000112885D0122818BF1328FAD0142818BFAC
:10EDB0001528F6D0B02032BDFAF787FF10F0A0F981
:10EDC000DFF8A402007808B110F0D4FB0EF07AFA54
:10EDD000F7F7C3FBDFF894420FF2C820F8F763FFA0
:10EDE0002070DFF88C02F8F75EFF6070F6F71AFB10
:10EDF00005466078F8F778FF2846F6F719FBF6F72E
:10EE000017FEFAF7D6FAFDF7EDFC10F005FC10F04E
:10EE100010FCFFF7ECFE0120F8F70EFADFF85402C1
:10EE20004FF47041F8F7B7FE002032BD002010F01B
:10EE300023B9102010F020B9112010F01DB92DE9D0
:10EE4000F0470AF0CDF809F099FE09F069FC08B91D
:10EE500009F052FCDFF820824046F6F7D3FA08B9F1
:10EE6000FDF7DBFFDFF814924846F6F7CBFA08B956
:10EE700006F0D6F80EF0ADFCFDF747FBDFF8EC61CD
:10EE80003078F8F7FCFE7078F8F7F9FE10F0D8FB50
:10EE9000DFF8EC51DFF8ECA1002700240BE020465E
:10EEA000F6F709FE2868007B001F022838BF0127FB
:10EEB000F6F731FE641C9AF80000E4B28442EED307
:10EEC000002F1EBF70480078002805D000F02AF8F7
:10EED000102808BF0EF0AAFDF7F708FB10F076FD2A
:10EEE000F6F7A0FA074609F01BFC68B14046F6F7B2
:10EEF00089FA48B14846F6F785FA28B110F064FD62
:10EF000010B13078F8F7F0FE3846F6F791FAF6F7D8
:10EF10003AFE18B94FF4B47100F03FF8F7F773FAFE
:10EF2000BDE8F08710B5FAF72EFA40B10AF069F99A
:10EF300028B102F051FB441EA441E40F00E001247B
:10EF4000F8F764FA08B944F0040409F0E9FB38B1B1
:10EF50004948F6F757FA18B14848F6F753FA08B98E
:10EF600044F002044948007808B144F020044648BF
:10EF7000007808B144F010044548007808B144F026
:10EF80004004F9F70EFA08B144F08004F9F719FAD1
:10EF900008B144F48074204610BD0FF2F800F7F772
:10EFA000A5B838B5044636480068007BC01E032863
:10EFB0000BD3204606F093FD4FF6FF75A84204BF21
:10EFC00020460AF02BFAA84204D12046BDE8324080
:10EFD0000EF060BA32BD70B504464FF6F870844248
:10EFE0000D4627DA264E3CB93068007D800703D4F1
:10EFF00028460FF029FED8B9306841888C4205D1E7
:10F00000011D08222846F5F788FB11E0007BC01E91
:10F01000032808D320460CF079FBFF2803D02946AB
:10F020000CF098FB20B9294620460EF07AFA08B178
:10F03000002070BD012070BD11480068008A704733
:10F040000F490968088270470D480068408A704778
:10F050000B49096848827047094800680078704782
:10F060000000000096070808E8F30020CAFF00200F
:10F070001484000894FE002084F30020B8F30020DC
:10F080009CF900203CF20020C0FE002064FD00201E
:10F0900038FD00207A69676265652D737461636B62
:10F0A0002E630000CCF90020CDC40008ECF900204C
:10F0B0003977000888FD00200DDF0008E0FE002001
:10F0C0002D930108A8FD00205167010864FD002070
:10F0D00087FE000870FD002045FF0008C0FE0020EC
:10F0E00029DA01085CFD002085F400084CFF0020AF
:10F0F00071CA01081CFD0020A709010840FF00207B
:10F10000971C020824FD0020A39801082CFD002074
:10F1100075D20108D4FE00200B0D0208ACFE0020C1
:10F12000DBF90108B4FE002025EF0108A4FE002051
:10F1300059F9010838FD002045E70008A4F900202E
:10F14000075D0008E0F90020EFB9000894FE0020F8
:10F15000C95D020888F90020E75F00080000000090
:10F1600000000000DFF8F82C1268127882420AD002
:10F1700019B1012A03D1022805D000207047022AC4
:10F1800008BF0128F9D101207047DFF8D81C0875A5
:10F19000704710B5DFF8C84C2068407B112804D0B8
:10F1A000B6210FF21000F6F7A1FF21684120487345
:10F1B00010BD00006173736F63696174696F6E2EB7
:10F1C0006300000080B50220F6F755FEF6F773FCE9
:10F1D00000F084FC001F022805D2DFF8880CC17CF7
:10F1E000491DC17405E04FF47A71DFF87C0CF8F723
:10F1F000D2FC00F0BDBE10B5DFF8684C0020607492
:10F200002078FF2803D0F5F7E3FDFF20207010BD24
:10F2100038B504460D46F5F767FD007C00F00701A0
:10F22000400800F0380000EB410000F11102DFF867
:10F23000100D0068205CD2B282420ADA831ADBB277
:10F240000F2BA8BF0F230020009021462846F5F77A
:10F250005EFE31BDDFF8080C0068407B33281CBF20
:10F260004328532801D101207047002070471FB563
:10F27000FDF701FB08B3DFF8EC4B207800A9FFF79E
:10F28000C7FFDFF8E41B002008700DF1030061796F
:10F2900001F028F9FFF7AFFF00F010F800F08FFA47
:10F2A000007DC00702D510F09AFB08B90FF08AF96B
:10F2B00010F094FB012001F043FA1FBD10B500F0DF
:10F2C0007EFA017BC91E032906D240884FF6FF71E2
:10F2D000884208BF032008D0F8F756FD0446F8F727
:10F2E00057FD21460FF065FF0220F8F75DFD01F0A4
:10F2F00089FABDE8104000F03FBE38B5DFF8644B36
:10F300002075FFF778FF00214FF6FF7001F0E3F959
:10F31000DFF84C5B2868417B032918BF00291DD00A
:10F32000332918BF432913D100F019F82868017B4D
:10F33000C91E032906D203214173207DBDE8324056
:10F34000F6F7A8BD207DF6F7A5FDBDE83140B5E78D
:10F3500021214173BDE831400DF004BC31BD237D56
:10F360001322C3A10320F6F75BBB10B500F0B2FB7C
:10F37000002048734FF6FE70FFF762FE4FF6FF70F5
:10F38000FFF766FEDFF8DC4AFFF7E9FF207DBDE806
:10F390001040F6F77FBD3EB504462346E07A0FF2F3
:10F3A000A0010290152294F90A0001902089009092
:10F3B00000F002FA00F003FA407B78B920894FF69A
:10F3C000FF7188420AD0DFF8D00B00780A2805D1F7
:10F3D000F6F724FD10B9F6F736FD08B170203EBDF2
:10F3E000214601F03BF8050008D1012001F019F891
:10F3F000002101200BF001FC050001D028463EBD94
:10F40000DFF8600A007E08B106F064FC00220821E3
:10F410002046F8F742FD30B104212046FBF778F989
:10F4200008B9A5203EBD00202074E081DFF86C0BF8
:10F430006061204600F0F6F80546F6F764FCDDE76B
:10F44000423870574242000010B504462346182245
:10F4500087A10320F6F7E4FADFF8440B00210171DD
:10F4600014B1FF2C02D10121017007E0012100F845
:10F47000041BA100491C0902F8F78DFB00F07CFD7C
:10F48000002010BDDFF8181B00200871DCE730B544
:10F490000D4689B0044668690FF27C110790234637
:10F4A000287C06901622E8890590287B0490E87A4B
:10F4B000039095F90A00029028890190009500F0C8
:10F4C0007BF9287B00280CBF4FF6FE70FFF7B4FDD8
:10F4D0002B46224609B0BDE83040014601202DE907
:10F4E000F041DFF87C6980463068407B00280F4699
:10F4F00014461D464BD1002C49D0062C47DADFF8C4
:10F50000980A00780A2842D1F6F788FC00283ED1F4
:10F51000F6F799FC08B1042C39DB287B032816D1B7
:10F520004FF6FE70874214D1012C08BF002710D07F
:10F53000022C2CD1FFF780FD4FF6FC71884202DAD5
:10F54000FFF77AFD01E00DF09FF8074601E0012C7E
:10F550001DD0B8F1000F0CD0287B03280CBF01216F
:10F560000021012C0CBF012000200BF046FB0028DD
:10F570004ED12946384600F071FF002848D1F6F7F1
:10F58000EDFAF6F705FC20B1F6F75DFC08B1702046
:10F590003EE03068DFF8CC78407B33281EBF53282C
:10F5A00000207875204600F03CFF387E20B1F6F749
:10F5B0004AFC08B906F08EFB287B032803D12846B5
:10F5C000BDE8F0412EE00822294607F10800F5F7D2
:10F5D000A4F8287B0328A8BF00203874FFF70BFE8F
:10F5E00094203875387C316800280CBF0120312008
:10F5F0004873002031687A7EB8740120897B00FA54
:10F6000001F10320FEF796FB10B13268002151731F
:10F61000BDE8F0810000000042423870574242428B
:10F620005742440010B5044600220821F8F735FC83
:10F6300008B1012010BDFFF7FFFC00224FF6FF715B
:10F6400000F034FF217C204600F04CFF6269E18924
:10F65000207C01F00AF9DFF808080068007B012827
:10F6600008BF0BF0F1FFFFF729FE002010BD0000DE
:10F6700042420000002038B5DFF8E4470546206824
:10F68000407B002802BFDFF8100900780A2801D06B
:10F69000702032BD02F0D8FA002843D12DB10222E9
:10F6A0002946DFF8340BF5F738F800A800F0DFFF43
:10F6B00008B1932032BD9DF8003014221CA1032014
:10F6C000F6F7AEF900F056FF68BB9DF8000000F0B9
:10F6D000A8FE2068007B012818BF022806D0C01EA3
:10F6E00003280FD2002001F002F858B100F059FFB2
:10F6F0002068007BC01E032838BF0EF07BF8FFF7A0
:10F70000DDFD0FE02168132048730020DFF8541757
:10F71000887405222168897B012000FA01F1052007
:10F72000FEF708FB002032BDDFF83807407D704748
:10F7300042420000FF222DE9FC41044600F03FF860
:10F740000D46017B0129904625D0407B022818BF39
:10F75000032820D1F8F7E9FBDFF808777A7E2946FD
:10F760000320FEF7E7FA060016D13320F8F71CFB5A
:10F77000FFF741FDFFF768FCF880002C14BF022062
:10F780000120387407F1080000F08FFF0020B874E2
:10F7900087F8158000E070260196009523462C22FC
:10F7A0000FF20C0100F008F83046BDE8F6810000C9
:10F7B00042424442000000000320F6F731B9DFF86E
:10F7C000A0060068704738B50446F5F78DFA05467F
:10F7D0002046FCF774F944192046FEF7F1FC4FF679
:10F7E000FF5101402046BDE83440FEF7F0BC70B543
:10F7F00084B0FFF721FCDFF86C46064620780B2129
:10F80000FCF73CF9002100F066FFDFF85456F8F7EA
:10F810005CFB58B11EB14FF6F870864206DB0CF067
:10F8200033FF0646286840888642F8D03046FFF706
:10F8300007FC20780921FCF721F9FFF709FC2E6865
:10F84000307B052813D100F03BFF8DF8080002AB98
:10F85000207C00280CBF4FF4804244F201020120BA
:10F8600000904FF48061708805F0CCFA0FE006201C
:10F870008DF8080000F024FF8DF809000223002015
:10F880000190009002AA708801210AF096FB0646BA
:10F89000FF2E08BF002011D0286841883046FCF7B1
:10F8A0004AF9207C02281CBF3046FFF78CFF00F08D
:10F8B00044F804463046F5F78BFA204604B070BD94
:10F8C00070B586B00C4616461D4638B9204608F07D
:10F8D000CFFD02AA03A906F020F903A807218DF89D
:10F8E00008100190310A8DF80A1001200A998DF84C
:10F8F0000B1000908DF80960042300F0BBFA064657
:10F90000FF2E18D02146FCF716F915B93046FFF73F
:10F910005AFF0B9808B930460DE0204606F029F949
:10F9200018B13046FCF79EFC01E000F006F83046C6
:10F93000F5F74EFAFF2006B070BD002200231146F5
:10F94000304609F015BC2DE9F64F83B004461E463B
:10F9500000274FF6FF7556B14FF0010B30460AF005
:10F9600071FB81467078400800F0010A05E0BB4653
:10F970001046FCF747F98146BA4600F0AFF8C01EC2
:10F980000328C0F0A2800E98411C9DF81000C9B257
:10F99000F5F7B4FB804608F0020002909DF80C00D9
:10F9A00020B95FEA086058BF48F08008FFF707FFFA
:10F9B000407B022804D1DFF8E8050078204301D11C
:10F9C00002271EE04846FFF7ECFA9DF80C1019B12B
:10F9D000651EAD41ED0F00E00025BBF1000F1CBF1F
:10F9E000301DFEF7EDFB012100912B4601464246FA
:10F9F000484605F0F0FF05464FF6FF70854208BF08
:10FA00000127D6B11CB94FF6FF70854204D1301DD5
:10FA1000FEF7D6FB014600E0294601200190009741
:10FA200053462A464846FFF74BFF029850B94FF617
:10FA3000FF71484609F04EFE04E03A462946484622
:10FA400007F0ECF8002F40D10298E8B1494628466B
:10FA500009F063FE0E2101FB00F700F03BF8896A14
:10FA600079184A7942F040024A7109F089FEFFF79D
:10FA7000A6FE806A38185FEA486241794CBF41F0BF
:10FA8000800101F07F014171FEB1DFF8AC6C9DF89F
:10FA900010003070FFF7D0FA5FEA48610FF22C0CCB
:10FAA00048BF0CF1010CBAF1000F18BF0CF1020CA9
:10FAB00002D10CB90CF1040C01469CF800004B4635
:10FAC0002A460FF08FFFFF203070B0E003070004DC
:10FAD00001050000DFF8881309687047DFF880032C
:10FAE0000068007B70472DE9F04F0446884685B0DA
:10FAF00091464046FBF7EDFFDA4D297C824601B185
:10FB00000121D74E8DF804103068007B05280CBF0A
:10FB1000012700273CB150460AF094FA834650462C
:10FB20000AF083FA05E04046FCF76CF88346DFF8FC
:10FB30000C0C03900423002000904A46414602A882
:10FB4000F5F7E5F90DF10900FEF73AFB9DF80B908A
:10FB50008046CCB10398DFF8E41B0822F4F727FEB7
:10FB6000002862D100F08BF908BFB9F1000F0BD16A
:10FB70004046FFF765FA0EF025FD9923FFF7F0FBED
:10FB80009920F6F787F950E0F8F79FF900284CD054
:10FB90009DF80400384301D014B946E0002C44D14C
:10FBA000B9F1000F03D09420FFF7A7FB3DE03068C8
:10FBB0004088594609F0B1FD09F0E2FD30684188FE
:10FBC0005A46404600F072FC3068417B012916BF5E
:10FBD00031291121432141730220F6F73DF9A24F4B
:10FBE00040F6B8313846F7F7D6FF0DF003FE002097
:10FBF000E8743068C17E19B93846F7F7C1FF11E0E3
:10FC000034B19AF80110890702D5FFF730FB09E0FB
:10FC1000007B001F022805D205213846F7F7BBFFFD
:10FC20000620E874AD20FFF7B0FAF6F76CF805B0DF
:10FC3000BDE8F08F2DE9FE4F8046FBF74AFF0446F2
:10FC4000FBF78CFF05462F194046FBF738FF284489
:10FC5000C5B24046FBF7D6FF834638780090F8F7E8
:10FC60005BF900281CBF0098072816D10098DFF820
:10FC7000F4A17B4EEC1C01284FF6FF790ED0022830
:10FC800014D0042800F0BE80062815D0072863D0C1
:10FC9000082821D07C2800F07F80DEE0002100953C
:10FCA000002342460846FFF74EFED6E02A4641466C
:10FCB0000020FFF718FFD0E0584605F010FF484538
:10FCC00003D00146584606F05AFF00F0D8F802D19A
:10FCD000584608F009FEC0E0691C00F0C7F8074666
:10FCE000E1B200F0C4F80446A91D00F0BFF80546D3
:10FCF0004D45F0D00DF07EFD3068407B132808D1D3
:10FD000000F04FFC4046FBF77DFF0146204609F01E
:10FD100004FD00F0B4F818BF13281CD12846FFF7E3
:10FD20008FF93846FFF794F90021002000F0DAFB44
:10FD30005946204600F0CFFC9AF80300DFF8601A1D
:10FD4000087000F019F93068417B132903D1232191
:10FD50004173FEF786F880E000F091F802BFDFF80B
:10FD6000444A2078002878D1F6F758FD05469AF9DC
:10FD7000191001208840C0EB001B1FFA8BF60020F1
:10FD8000F6F76AF895FBF6F006FB1050411C89B2B5
:10FD90002046F7F700FF60E07878652804BFB87860
:10FDA0006D285AD16648006818F80000E4B2844211
:10FDB00053D20822594601A8F4F7AFFC00AB002249
:10FDC0002146404609F0E4FF002846D19DF8000096
:10FDD000FF2842D0DFF8D049DFF85C5901202070BD
:10FDE00085F80080F5F7DAFE01A89DF80010F8F715
:10FDF00050FEF5F790FEFF202870002020709DF83F
:10FE0000000028E04046FBF71AFF0446DFF89C0993
:10FE10000078FE2809DB4046FBF765FE000B00F08A
:10FE20000101204608F0EFFD17E00FF6D41000881E
:10FE3000ADF80800022300200190009000F01AF8AD
:10FE40000546FF2D09D02146FBF775FE0021284607
:10FE5000F9F7E6F92846F4F7BBFFBDE8F78F000095
:10FE60009CF90020C4F3002064FD0020C9B2404684
:10FE7000F5F700BA02AA012120460AF09EB83068C0
:10FE8000407B0228704770B50220F5F7F4FFF5F7C4
:10FE900012FEDFF81C59DFF81C6900202870FCF7FF
:10FEA000EAFC28B13068C07E10B9FFF7E0F93EE007
:10FEB000DFF80449FCF7DFFC10B9F8F706F858B191
:10FEC000E07C48B1C8212846F7F765FEE07C401E7B
:10FED000E074F9F7DAF92AE03068407B132809D09A
:10FEE000F7F7F3FF30B93068407B11281CBF432877
:10FEF000412803D1207DFFF700FA18E0022818BF3F
:10FF0000032803D0002818BF212810D10024DFF8CF
:10FF1000AC5808E02046F5F7CEFD002000F010FCBC
:10FF2000F5F7F9FD641C2878E4B28442F2D3BDE809
:10FF30007040F5F7F0BDDFF880180020C8747047F6
:10FF4000F0F1002080B50020F5F795FFF5F7B3FD3F
:10FF5000DFF8501800200870DFF858080068417B6F
:10FF6000022905D1007BC01E032828BF06F0A6FE8B
:10FF7000BDE80140F5F7CFBD80B5F5F71CFFFF28C0
:10FF800004D00748007810B1012000E00020DFF81D
:10FF90003018087001BD0000E0F3002000F8FF07F2
:10FFA00058FD00202DE9F04F0446DFF818080068DE
:10FFB0008DB0205C00902046F4F796FE0646B01DFA
:10FFC000FEF7FEF8074606F10900FEF7F9F881464C
:10FFD00006F10B00FEF7F4F8ADF80A0006F10D008B
:10FFE000FEF7EEF88346C00B8DF80800F7F794FF94
:10FFF00018B1204602F09CF8EAE008A92046FFF775
:020000040801F1
:1000000007F908AEDFF8AC57B078C0F3C30003902F
:10001000707800F00F0A009820282868407BACBF59
:100020009DF82E804FF00008022812D1FFF70CF83F
:1000300081450ED104A800F038FB00981C2806DB8F
:1000400008220DF1230104A8F4F7B1FB08B100F078
:1000500040FDB7F5004F02BF2BF4404040F6FF7162
:100060008842C9D100981C28C6DB002208210DF166
:100070002300F7F712FF002839D1DFF84C0700788A
:10008000012830D19DF808000FF26C710090CDF876
:1000900004A04B462722FFF78FFBDFF830070078DC
:1000A0008DF81200ADF810908DF81CA08DF81D8011
:1000B00008229DF808008DF813000DF1230105A812
:1000C000F4F72BFB2868DFF87076407B01281CBF13
:1000D00033283C70F5F762FD04A8F8F7FEFAFF201C
:1000E0003870F5F718FDDFF8D076B87C00286FD1AE
:1000F000F7F7EBFE00286BD001207874002208216E
:1001000007F10800F7F7C9FE10B1F888814508D05B
:1001100008220DF1230107F10800F4F748FB00283D
:1001200056D19DF8080028B92868407B312818BFAF
:1001300033284DD101215046FFF714F8002847D04D
:100140009DF82000002802BF7078000902283FD1E6
:100150002868017BB278022902D1500709D437E020
:10016000120606D405291EBF4088BDF80A10884231
:100170002ED13878DFF85856DFF85866FF2813D0AC
:10018000787980450BD197F9020096F900108842E2
:100190000ADB1DD178782978884205D318E0A8EBCE
:1001A0000000C0B2812813DAFFF725F83C70204622
:1001B000F4F700FE287878703078B87003980F282C
:1001C000B4BF401C0F20F87087F804A087F80580A2
:1001D0000DB0BDE8F08F00006CFD00202DE9FF415F
:1001E0000546DFF8D44501200E461746A074FEF7F9
:1001F00020FB002813D1A846B8F1010F18BF002D2D
:100200000ED1009733462622B5A1FFF7D5FAF5F7B0
:10021000C5FC39463046F8F780FAF5F77CFCA4E0D7
:10022000F7F77AFE28B13A463146284601F070FECB
:100230009BE0DFF880552868407B23280BD1F7F737
:10024000A3FD0446F7F7A4FD21460EF0B2FF0220FD
:10025000F7F7AAFD89E0002FFCD121281CBF042854
:10026000532802D10CF07EFC7FE0F7F72EFE002829
:100270005BD02678FF2E05D1607C00280CBFAB2018
:10028000942066E02868007BC01E032889412079FD
:10029000C90FFEF767FF08B998205AE0F7F784F80E
:1002A00005213046FBF705FC29688873F5F72BFD1F
:1002B000207C68BB2868007B052829D000F000FA64
:1002C000074609213046FBF7D9FB80460B21304613
:1002D000FBF7D4FB3A46414606F085FCE0B9942092
:1002E000FEF753FF0220F5F7B7FD2968DFF8C004D9
:1002F0004A7B012A07D0312A18BF332A0ED1097B45
:10030000091F02290AD2C821F7F745FC03200AE099
:10031000FFF76DFA0028E2D194201AE04FF416712D
:10032000F7F739FC0020E0741FE02868407B1328B1
:1003300015D100F017F9BDF80000FEF789FE00F0B6
:1003400030F92868017BC91E032905D23321417386
:100350009620FEF7D2FF08E0FEF7B0FF05E0B8F107
:10036000020F04BF30460FF05EFA4FF4006005F054
:100370009FFA10B908F04DFF08B1F7F7C3F9BDE8CF
:10038000FF811FB5044600208DF80000FFF717FA23
:10039000007840F020008DF80100F7F7BDFD18B19E
:1003A000204601F0F1FC3AE00DF1030000F07DF988
:1003B0000322FF210DF10B00F4F7F2F900F03FFAF0
:1003C0008DF80E00DFF81014DFF8E003DFF80C24DE
:1003D0000078DFF80C34097812781B78FE28A8BF63
:1003E0000020091A9B1A9042B4BF101A0020DFF8AF
:1003F000B0231278DBB2C0B2D200C018C9B242F04A
:1004000004028842B8BF42F080028DF8022000A9A1
:100410000F222046F4F7E5FD401E8041C00F04B0D6
:1004200010BD38B5DFF88C5304462868017BA14223
:1004300003D004732046F5F7E5FD24B12868007B5E
:10044000001F022805D2F5F7D2FCFF2808BF0120C3
:1004500000D00020BDE83240F6F7F0BF38B50D46B9
:100460000446E87A0B38102801D38A2032BD95F96A
:100470000A00F7F736FD08B18B2032BDCD48E97A86
:10048000026891730068A97AC1732046FEF7D8FD0F
:100490004FF6FE7084420CBF4FF6FF702889FEF7BE
:1004A000D7FD2889C449C880002032BD38B50C4624
:1004B0001546FEF7C5FD0CF0BBF82946204600F0B6
:1004C0000AF9BD480178FF2918BFC07805D1FFF7A8
:1004D00005FB01280CBF00200120B149087031BD87
:1004E000424242007FB504460D4600F03BF8B14E53
:1004F00094B1BC4A0021284600F0B7F93068017871
:100500008DF804100822007B8DF80500214602A812
:10051000F4F703F90EF048FB3068817B8DF8031087
:10052000C07B8DF80200FEF78FFDADF80000FEF7EE
:1005300083FDADF8060000F017F87FBD1FB5044637
:1005400000F010F81CB100208DF8050007E0FEF760
:1005500073FDADF80600FEF777FDADF8000000F082
:1005600003F81FBD00A833E01023072200A90020D4
:1005700002F0FBBC00B58BB0FFF7F4FFBDF8000044
:10058000ADF8180004A99DF803008DF81B009DF834
:1005900002008DF81A00BDF80600FFF75FFF0BB0F0
:1005A00000BD1FB5012000F0A2F804460EF007FBC5
:1005B000FFF7D8FF1CB900224FF6FF7103E0FFF7E9
:1005C000FEF84188021DBDF80600FFF76FFF1FBD52
:1005D000014610230722012002F0C7BC38B50820CD
:1005E000F5F749FC0446F5F766FA724D7E4829682E
:1005F00000788873F5F71EFBA04208BFF5F73CFBB7
:1006000000210020FFF76EFF9B23FEF7A9FE9B2031
:10061000F5F740FC28680021A0F84410A0F8461027
:10062000BDE83140F5F777BA80B5A0F10B0110298C
:1006300001D38A2002BDFFF74DFA497B022918BF7A
:10064000032901D0702002BD674908700820F5F722
:1006500003FC00216548F8F76DFE20B1012808BFB2
:10066000FFF7BCFF01E0A12002BD002002BD1FB5C5
:100670000446F7F751FC18B12046F7F72CFD12E0BD
:1006800000A8FFF7A5FF9DF8050040B1062806DA8F
:10069000FFF720FA9DF804200978914201D09320B9
:1006A00001E02070002004B010BD1FB5044600A872
:1006B000FFF78EFF082202A92046F4F72EF81FBD8F
:1006C0004B48007800B140203A4A4A491268127BF0
:1006D000515C08437047374A1368588019B908229B
:1006E000181DF4F75DB80822181DF4F716B810B5F8
:1006F00004462F48007AC00784B011D50A230A2285
:1007000000A9012002F031FCBDF808004FF6FF718E
:10071000884205D00822FF2100A8F7F7BEFB08B1E8
:10072000002006E024B1BDF8080000A9FFF7D3FFC0
:10073000012004B010BD000098F30020C4F900208F
:1007400070B51B4D0446287AC00784B00CD5194EED
:10075000306841884FF6FF72914207D1002208218C
:10076000001DF7F79AFB08B1002017E044B1022002
:10077000F5F772FB4FF4F0412846F7F70CFA0CE05E
:1007800030684188ADF808100822011D00A8F3F771
:10079000C4FF0A230A22FFF7E9FE012004B070BD5E
:1007A000E7FF002070FD002020FC0020A4FF0020B7
:1007B00064FD00209CF90020C4F300203CF20020DE
:1007C000DEFF0020F0F10020E0F30020DBFF00203E
:1007D000D9FF0020DAFF00207EF2002081FF0020F8
:1007E00080FF002000F8FF07DCFF0020DD05010886
:1007F00096620208105F0108425742420000000062
:1008000004600000DFF84013002008714FF6FF700D
:10081000CE490880704730B583B004460D460823A2
:10082000092200A9012002F0A0FB14B19DF80600E6
:1008300020700DB100982860BDF804003EBD80B561
:10084000002100A8FFF7E7FF9DF8000002BD10B5EA
:1008500082B0044600A90020FFF7DDFF009A0146A0
:10086000204600F002F8204616BD00B583B08DF892
:100870000600ADF8041000920823092200A9002008
:1008800002F073FB07BD2DE9F04786B0804609F002
:10089000BAFB0546AE48006818F8009000200090AA
:1008A0000A232A46414602A8F4F731FB9DF80800C6
:1008B00005F10A0409280CBF012500259DF809004F
:1008C000E021084268D100A8FFF7EFFE08220DF1F1
:1008D0000A0100A8F3F76BFF00285DD1002D4ED070
:1008E00000F01AF9002857D0984D28884FF6FF7A63
:1008F00050451CBF4FF6FE7188424DD1924F95492D
:1009000038780978001D3870491E8900C0B28142CC
:1009100042DA00203870F5F781FF2880264607E08C
:1009200031464046F4F7A6FC29888842F3D0B61C2D
:10093000F6B2A9F101008642F2DB2888002818BF30
:100940005045E8D0FEF780FB29888142E3D0FFF7CD
:1009500076FF401CC0B2FFF77AFF01462A880A20C2
:1009600000F050F840B14FF47A71381DF7F713F9E1
:100970000C20F5F771FA0FE0A5F800A00CE0E1B249
:100980004046F4F7BBFBFFF762FF611CC9B240466B
:10099000F4F770FC00F07FF87AE06B48017809B159
:1009A000491E0170704738B56749002008710C2056
:1009B000F5F761FAF5F77FF867480068407B022891
:1009C00018BF03281AD1614C20884FF6FE724FF6EB
:1009D000FF7590420CBF2580A8420FD0FEF738FB70
:1009E000258000210020FFF77DFD9A23132255A1C9
:1009F0000320F5F715F89A20F5F74CFABDE83140D9
:100A0000F5F789B82DE9F04705460026092D0C4673
:100A10000CBF01270027002186B091460846FFF74A
:100A2000FAFE8DF80850804602AD012068700DF185
:100A30000A00FFF73AFE0DF1120A17B9AC720DF178
:100A4000130A49465046FDF7C2FB0AF102000FB9EE
:100A50004FF6FF7802A9431A01960096DBB202AA6C
:100A60006421404609F0A9FA0446FF2C0FD03FB19B
:100A700000F052F820B12046FFF705FF012603E001
:100A80002046FBF705FF06462046F4F7A1F930465D
:100A900006B0BDE8F08738B504464FF6FF75AC42A6
:100AA00016D0FEF7D1FA844212D028480188A94214
:100AB0001CBF4FF6FE7291420AD104804FF47A7146
:100AC0002648F7F768F8BDE832400C20F5F7C4B9BE
:100AD00031BD21480068007B001F022800D270470A
:100AE00038B51A4C20884FF6FF71884213D1FEF7B3
:100AF000ABFA05464FF470411848F7F74CF80C2054
:100B0000F5F7AAF94FF6FE7020802A46BDE8384076
:100B10000021092076E731BD10B50F480068007B41
:100B2000001F02280AD3FEF787FA0446002100209E
:100B3000FFF771FE844201D1012010BD002010BDDD
:100B4000000000004242000018FD0020B6F3002023
:100B5000F0F1002086F200209CF900201CFD00200E
:100B600080B5F7F764F958B1F7F7D6F940B1DFF877
:100B700008040078002818BF022801D1012002BD16
:100B8000002002BD2DE9F0418CB004460D46FFF770
:100B9000E7FF00283BD0DFF8E4030078844228BF59
:100BA000B12048D22346302000FB03F8DFF8D07391
:100BB00055B93222AAA10320F4F732FF3968414423
:100BC000002081F82C0032E005F118063022F07D7B
:100BD0000FF2B4310B90B07D0A90707D0990307D9A
:100BE0000890F07C07907089069030890590F08815
:100BF0000490B0880390A8690290009505F1100058
:100C000001900320F4F70CFFF07C082801DB702032
:100C100011E03868302229464044F3F77EFD3868F9
:100C2000404490F82C1001F0EF0180F82C10204681
:100C300000F0BDF800200CB0BDE8F08138B50546E5
:100C40000C462B46312286A10320F4F7E9FEFFF77C
:100C500087FF002818BF002C01D1702032BDC74883
:100C60000078854201D3B12032BDC54800683021EB
:100C700001FB050130222046F3F74FFD94F82C00CC
:100C800000F00F0084F82C00002032BD10B50020C9
:100C9000BB49BA4A07E00B68302404FB0033002448
:100CA00083F82C40401C1378C0B29842F3D3BDE8BF
:100CB000104064E02DE9F0470446884616460027B8
:100CC000AF4DDFF8B89205E02188008C814219D041
:100CD0007F1CFFB299F8000087421CDA302000FB2D
:100CE00007FA2868504490F82C1001F003010229FB
:100CF000EED1F107E8D4082221461030F3F757FD72
:100D00000028E5D128685044C08B804501D0B00749
:100D1000DED4384600E0FF20BDE8F087002000E088
:100D2000401C96490978C0B288420AD294490968A1
:100D3000302202FB0011032291F82C101142EFD156
:100D40007047FF20704730B5302250438C4A1368FB
:100D5000C31893F82C4004F01005012D05DB93F81F
:100D60002F508D4201D1002030BD44F0100483F893
:100D70002C401268801880F82F10012030BD002010
:100D80007E490CE07E4A1268302303FB0022401C9F
:100D900092F82C3003F0EF0382F82C30C0B20A78BE
:100DA0009042EFDB4FF420517648F6F7F4BEF0B5F1
:100DB00004463020724E00FB04F5306828188BB0D2
:100DC00090F82B00082804DBBB210FF2D010F5F7B8
:100DD0008DF92A22FF2100A8F3F7E2FC30682818D9
:100DE00000F11C010A7C02F00302022A2FD1828B3F
:100DF000ADF8182006AF497CF973082200F1100104
:100E000004A8F3F78AFC30682918C88B788001F1B0
:100E10001E004288BA80827B037C02F00802012A0D
:100E2000ACBF802200221A433A74807B00F0040099
:100E3000012803DB102200A8F3F76FFC30682818A4
:100E400000F1240190F82B2008A8F3F766FC2A2370
:100E500000AA21461A20F9F72BFA0BB0F0BD0000CA
:100E6000424200002DE9F0438BB0002406AD444E11
:100E7000DFF808913CE03168414447F0060081F812
:100E80002C001022306800A94044F3F746FC30687B
:100E9000BDF81810404408228183E97B80F82D10AA
:100EA00004A9306840441030F3F737FC3068698893
:100EB0004044C1831E30A9884180297C01740020F0
:100EC00031684144886100A9411891F82010FF2938
:100ED00008D0326842448218401CC0B2072882F809
:100EE0002410F0DB3168414481F82B00641CE4B22B
:100EF00099F80000844227DA2A2322461A2100A802
:100F0000F9F7B0F9302000FB04F8E87BFF2805D1A1
:100F100031684144002081F82C00E7E7287C010675
:100F200000F00F0028744CBF08270027FF22102173
:100F300000A8F6F7B2FF00289DD03168414447F081
:100F4000020081F82C00A2E70BB0BDE8F08370B579
:100F500000240B4D094E0AE02868302101FB0400F3
:100F6000002180F82C102046FFF721FF641C307808
:100F7000E4B28442F0D370BDBCFD002050F20020EA
:100F80004CF2002020FE002042423136703870447E
:100F9000575757574242424242000000726634633C
:100FA000652D70616972696E672D7461626C652E62
:100FB000630000002DE9F64F85B082469946002473
:100FC000DFF8047700E0641CDFF800070078E4B283
:100FD000844206D2386800EB0410007AFF28F2D170
:100FE00000E0FF24BDF81800DDF840800FF2F86142
:100FF0000190CDF80C80CDF8089053469DF8140070
:10100000009036220320F4F70BFD5FEAC97006D486
:10101000DFF8BC060078824528BFB1203CD2F7F744
:101020009EF9C0B3302000FB0AF00090DFF8A46600
:101030000099306808185FEAC97105D490F82C103F
:1010400001F00301022926D109F00103012B09F067
:10105000080209F0040106DB0129BEBF09F0020302
:10106000012B012A17DA012A05DB90F82C2002F067
:101070000402012A0FDB09F02002012ADFF858B62A
:101080000BDB012907DB9BF80010C90703D590F89B
:101090002E00000701D4702063E0FF2C60D0119D6A
:1010A0004946504600F060F8A84238BF742058D333
:1010B0005FEAC97015D49BF80000C0070BD43068F4
:1010C00000990818808BFDF7BBFF3068009908185D
:1010D000C08BFDF7BDFF30680099081890F82D60AF
:1010E00002E0DFF8F805067812989DF814300190B8
:1010F00002954A46BDF81800009051463046FAF76E
:10110000DFFD8346BBF1FF0F08BF182029D0002266
:101110000023114608F02CF8F8B13868250128188A
:1011200080F808B03868281880F8099038682818BE
:1011300086723868281880F80BA001203968691871
:101140000873FDF776F839686850681880F80D80E4
:10115000002039686918486003E05846F3F738FE04
:10116000662007B0BDE8F08FF0B50C4604F0010131
:101170008DB081F001066E252EB100A9FFF75EFD4E
:1011800008B1002033E0DFF85075397801F0010133
:1011900081F001010E4214BFBDF81E00FDF754FF9F
:1011A000397801F00101314308BF682566B19DF827
:1011B0002E10C90703D504F00201012901DBAD1F80
:1011C000EDB2BDF81E1001E04FF6FF7188421CBF62
:1011D000AD1EEDB204F040000128A4BFAD1EEDB27B
:1011E00004F008000128A4BF2D1FEDB228460DB061
:1011F000F0BDF8B504460025DFF8CC64DFF8CC7408
:1012000010E0002C1FBF306800EB0510007AFF28AB
:1012100018BFF3F7DDFD316801EB0511FF206D1CF0
:101220000872EDB238788542EBDBF1BD38B5DFF8F6
:101230009854040128682018406820B903F07CF80D
:1012400029686118486028682018406832BD2DE977
:10125000F047A0B0804600AA0021FAF7E6FD044658
:1012600000AA042100F0C8F8064604F44040B0F596
:10127000404F4FF6FF7A00AA14D100F0BCF8404668
:10128000F3F732FD9DF800100918082201A8F3F7C2
:1012900044FAB6B2564507BF002200210222314669
:1012A00001A807E000F0A7F8ADF802000322B1B2F0
:1012B0000DF10200FFF7FEFC044600F0A5F805461C
:1012C00000F0A2F8814600F068F90006870F0026BA
:1012D00000F063F9400748BF08260FB146F020062A
:1012E00000F08DF84FF44061084218BF46F0020646
:1012F00009D1002203214046FAF797FD80B25045FC
:1013000008BF46F0010600F07AF8800648BF46F0B4
:10131000040600F042F900F032F908BF46F040063A
:10132000A246BAF1FF0F63D0E9B22046FFF70BFDEA
:1013300000285DD000F031F9400705D52146404630
:1013400002F008FC002853D0DFF888030068302141
:1013500001FB0A00806948454AD2DFF87C03007827
:1013600000F0080001280BDB57B13846FAF787FE7A
:1013700000F019FD00F0D1FC0221D948F6F70BFC72
:1013800003A94046FAF71CFE0546F4F707FC00F0F7
:1013900004F900F0F4F803D100F0FAF8814601E016
:1013A0004FF0000900F0EFF8014603A80190009506
:1013B00033461FFA89F2C9B22046F7F7FCFD00F068
:1013C000ECF800F0DCF803D100F0E2F884B200E0C1
:1013D000002400F0D8F8C0B2009002960194534661
:1013E00038220FF20C310320F4F71AFBF4F793FBC9
:1013F00020B0BDE8F08705214046FAF716BD00226F
:1014000000214046FAF711BD002207214046FAF7B5
:101410000CBD2DE9F04FA1B00F46804605A9FAF7A3
:10142000CFFD0446404600F0C4F80546FF2D05D127
:1014300040F275110FF2C020F4F758FEA24E30684A
:101440004FEA0519484490F809A0FCF7F2FE31680C
:10145000DFF880B259F80120801AA0F57A70A14A0D
:1014600090428041C00F5FEACA6225D45FEACA7227
:10147000494417D40AF00402012A13DB27B1D8B972
:1014800000F079F8B8B173E0DBF80000CA7A897A25
:10149000302303FB020090F82D2091420CD000F085
:1014A00081F809E0087B032808BF002704D000F07A
:1014B00062F800285CD1662730684844417A01F020
:1014C0002001012909DBDBF80010C07A302202FB81
:1014D00000108249097800F065F8F4F75FFB00F02E
:1014E0005CF800F04CF803D100F052F8054600E03B
:1014F000002500F048F8316805AA49440392029497
:1015000003464A7B0192002FAAB200920CBF002032
:1015100066204A7AC97ADBB2F7F765FD00F03DF83C
:1015200000F02DF803D100F033F884B200E000247D
:1015300000F029F831684944C0B24A7B0492039410
:101540000290002F487A01900CBF00236623C87ACE
:101550000FF2B411009037220320F4F761FAF4F788
:10156000DAFA4046F3F734FC31684944FF20087248
:1015700021B0BDE8F08F224605A928463FE000F0E3
:10158000030003287047002208214046FAF74DBCAB
:10159000002209214046FAF748BC002206214046B5
:1015A000FAF743BC80F82D1030684844C07AFFF742
:1015B000FEBB002100E0491C444A1278C9B29142A6
:1015C00008D2414A126802EB0112127A8242F2D129
:1015D00008467047FF207047002000E0401C3B4950
:1015E0000978C0B2884208D23749096801EB001176
:1015F000097AFF29F2D000207047012070472DE9B9
:10160000FE4F314F4FEA001B386858440C4690F8A3
:101610000880807A9246F6F78CFE814638685844F6
:10162000417AC90715D42C490978C90711D4294E24
:10163000C07A3168302505FB0010808BFDF700FD76
:10164000396830685944C97A05FB0100C08BFDF741
:10165000FFFCFFF7A2FFFFF792FF03D1FFF798FF10
:10166000054600E00025FFF78EFF03463868CDF8F9
:1016700008A00194A9B258440091DBB2427AC17A21
:101680004846FAF71DFB0446FF2C08D00123002230
:10169000002107F06DFD20B92046F3F799FB0020EB
:1016A0000FE04046F3F794FB3868584404723868FA
:1016B000584480F80A9038685844017B491C0173EB
:1016C0000120BDE8FE8F000054F2002058F20020F7
:1016D00050F200204CF2002088F3002089F3002013
:1016E000A4F900200100008042424257424200001B
:1016F000424242574200000072663463652D6461C5
:1017000074612E6300000000424242424257420090
:101710002DE9F04383B00D461646804601964346B8
:1017200028880FF2C8010090392200F05DFADFF836
:10173000787C3868407B40B93DB1DFF8700C0078A8
:101740000A2802D1F4F77FFB08B170204BE039681A
:10175000032008704FF6FF743868C6730F2039688D
:1017600088732046FDF76CFC2046FDF771FCDFF81E
:10177000400CDFF8409C06705FEAC87089F8008072
:101780004CBF06200720FEF74CFE0A222946DFF850
:101790008C0DF2F7C2FFFFF7DAFB99F80000C007E3
:1017A00015D4DFF8140C0480DFF8100C04800F202F
:1017B00000F0F9FAF4F760FA38B902F0D6FD00F05B
:1017C000ACFA0220F6F7F0FA0CE001200BE03968E1
:1017D0000120487301F041FA0622DFF8441D02207F
:1017E000FCF7A8FA0020BDE8FE8300004242574201
:1017F0000000000010B51820F4F73DFB0446F4F794
:101800005AF900F08FFC04D1DFF8180D00788442FB
:1018100002D3BC2101F0BFF900F0A7FA0020FEF7C7
:1018200000FEFBF703F80020F6F7BEFAF4F773F9B1
:10183000BDE81040F4F767BA80B53A22AAA10320A8
:10184000F4F7EEF8F6F78BFD08B9702002BD07F04B
:10185000E5FC0120FFF7CDFCDFF84C1B09680420F4
:101860004873DFF8480B00780A2802D0FCF7F9FA31
:1018700007E01820F4F7F0FA0121DFF8AC0CF7F7D5
:1018800059FD002002BD2DE9FF410A9C06460F4686
:1018900090461D4603940295CDF804800097334688
:1018A0003B220FF2980100F09FF9F6F758FD58B16E
:1018B0000B9A082A08DA0C99002918BF002A03D0CD
:1018C000002D18BF002C01D1702034E0DFF85C0C33
:1018D0000680631E80F8333047800023058680F839
:1018E000348080F83F3080F83C203530F2F715FF27
:1018F000DFF8C04A2078C0075CBF4FF6FF70FDF7E5
:10190000A7FB207801F0B7F8A6BFDFF8240C047815
:101910000F24204601F0CDF968B9DFF8180C0068F3
:101920008473032001F099F91620F4F795FA2946FB
:1019300000F01FF8002004B0BDE8F0814257574284
:101940005742000010B5044623463F22BDA101F0D6
:10195000CBF8F6F704FD08B9702010BD0A2001F09D
:101960007CF91620F4F778FA214600F002F80020FE
:1019700010BDDFF8C40BF6F70EB92DE9FE4F044693
:101980000D4691461F46A0460297CDF8049000955B
:10199000234641220FF2F80100F026F9F6F7DFFCAA
:1019A00008B970205DE00F2C18BF142C03D0192C3F
:1019B00018BF8A2055D1002200214846FFF77AF946
:1019C000DFF8686B86F83E00FF2805D1FFF7A6F91F
:1019D00086F83E00002000E0012086F83F0096F8DF
:1019E0003E00FF2808BFB4203BD086F83240358047
:1019F00086F83D7008224946301DF2F78EFEDFF86A
:101A0000B4090078C0075CBF4FF6FF70FDF720FBFC
:101A1000DFF8A00901F02EF8A6BFDFF89C090388C3
:101A20004FF6FE73009742462946484601F0CBFB2D
:101A30008246BAF1FF0F08BF182012D000220023FF
:101A4000114607F095FB83465046F3F7C1F9BBF109
:101A5000000F08D14046F6F76CFC8046A045D7D170
:101A60006620BDE8FE8FDFF8CC0A006880F80E80A3
:101A7000062001F0F2F81620F4F7EEF96421FFF7E2
:101A800078FF96F83F000028EBD0C120E9E700007E
:101A9000424257387042000010B5044623464422A3
:101AA00001F021F8DFF8940A0078844201D3B120D4
:101AB00010BDF6F754FC28B100F08AF801F00301DC
:101AC000022901D0702010BDDFF8601A81F83E4075
:101AD00090F82D0001F01CF9040004BF0C2001F067
:101AE000BCF8204610BD0000420000002DE9F04186
:101AF00088B01F460E9C039405460E4690460297FA
:101B0000CDF8048000962B4648220FF2540100F0D5
:101B10006BF8F6F724FC70B100F075FEC0070AD52B
:101B2000212D08DADFF8780DA5B126B1B54202D330
:101B30000FB10F2C01DB70200FE000210160057157
:101B4000467180F8068007818472B9021030F6F77A
:101B500022F801E000210174002008B0BDE8F08106
:101B6000424242425742000038B504460D460095B5
:101B7000234635220FF2500100F036F8DFF8BC0999
:101B80000078844201D3B12032BDF6F7E8FB80B182
:101B900000F01EF801F00302022A0AD1DFF814282F
:101BA000127802F00402012AA4BF01F00401012905
:101BB00001DA702032BD10222946F2F7AEFD204630
:101BC000FFF7F5F8002032BD4242313670000000C8
:101BD000DFF8D00C0068302101FB040090F82C10D5
:101BE0007047DFF8C40C00900320F3F719BF10B55D
:101BF00004462346492200F076FFDFF8A40C447324
:101C0000002010BD80B5DFF8AC17042008704FF637
:101C1000FF70DFF8A4170880DFF8A01708800F20F6
:101C200000F0C1F80A22FF21DFF8F008F2F7B8FD52
:101C3000DFF83C0E1A22FF21F2F7B2FDFFF726F87B
:101C4000002002BD425700002DE9F04385B0122369
:101C5000192200A9012001F088F9F3F77FFF9DF810
:101C60000010814218BF00204ED1DFF83C47DFF85A
:101C700044972168DFF83867DFF83C77DFF83C5796
:101C8000032008709DF802009DF80180307089F8EB
:101C90000080BDF804003880BDF8060028809DF85B
:101CA000030000F080F85FEAC8704CBF06200720F0
:101CB000FEF7B7FBDFF86408BDF8081020F8021B38
:101CC00007220DF10A01F2F728FDFFF7CBF838885B
:101CD000FDF7B6F92888FDF7BBF9DFF8540821684D
:101CE0000078887321683078C8730220F6F75CF8B2
:101CF000F4F709F899F8000000F0BDFE03DB00F0EE
:101D0000C9FF00F0CFF8012005B0BDE8F083DFF88F
:101D1000901B497B01700020704700B585B0F3F738
:101D20001DFF8DF80000122300F06DFD8DF80100FD
:101D30001922DFF874060068C07B8DF8020000A944
:101D4000DFF8EC0700788DF80300DFF86C060088F8
:101D5000ADF80400DFF864060088ADF80600DFF88F
:101D6000BC070088ADF8080009E000B585B0122274
:101D7000FF2100A8F2F714FD1223192200A9002068
:101D800001F0F3F805B000BD80B5CE218DF800104C
:101D9000022201218DF8011000A9F3F722F9401E5B
:101DA0008041C00F02BDDFF888170A7808708242B0
:101DB00003D0DFF89C1D0020086070472DE9F04338
:101DC000DFF8DC4A0020207685B01620F4F753F8BF
:101DD000F3F771FE207BDFF85487DFF85867C11EE8
:101DE000022908F1300505D9C91E32D0091F012981
:101DF0003AD952E03068807BF6F79BFA8146207B27
:101E0000032808BF042710D0042808BF05270CD0DA
:101E10000327052809D1E87828B9E87B00280CBFFA
:101E2000C320002012E0401EE870484600F041FF49
:101E300060B9306880F80E90384600F00EFFB8F8B0
:101E4000301004F11800F5F7A6FE26E000F079FF47
:101E500023E0DFF8DC06316800788873F3F753FF7E
:101E6000C02000F089FF18E004BF287CF2F7B0FF23
:101E700000F0BFFAF3F792FE00F0B3FAC320F7F7D1
:101E80005CF8FF2004900390C32300F0A3FA0FF244
:101E90003051FFF7A6FEF3F73EFE05B0BDE8F04374
:101EA000F3F739BE38B5DFF80C050FF6F44400F04F
:101EB000E1FD04DA40F2D9212046F4F717F9DFF802
:101EC000E0592889810205F11000F5F764FE287BAE
:101ED000E8B9022000F0C1FEF3F789FFF3F7EBFD4C
:101EE000F6F71AF820B940F2E9212046F4F7FEF897
:101EF000DFF83C16AA7A91F90010012000FA01F1EE
:101F00000220FBF717FFBDE83140F3F704BE31BDF7
:101F10002DE9F84FDFF888790FF6844A0546387BBB
:101F2000012818BF02280E46144606D000F0FAF821
:101F300006D040F2FA2100F0F2F800F0F3F806D1F2
:101F4000BDE8F44F0121DFF8E005F7F7F3B9397B7D
:101F500028460129DFF8D895DFF8B05D40F097807A
:101F6000002C40F089800228DFF8084E35D1FF2E82
:101F70002AD02868305C032803D040F2173100F0E3
:101F8000CEF800F0C8F847B2012100F0C5F845B21C
:101F9000022100F0C1F840B2BD42A4BFB8420F20F8
:101FA00004DAAF42A6BFA84214201920FFF7FBFEB7
:101FB0002078FF2803D04FF44A7100F0B0F80120D8
:101FC000F2F79DFEFF28207056D0BDE8F84F06229C
:101FD000DFF84C150320FBF7ADBE0328DFF8606582
:101FE000DFF8D8834CD1F4F719FC4FF6FF7A50454F
:101FF0003080F8D0F4F712FCA8F80000002713E0B6
:10200000791CC9B2F3F77AF8834620783946F3F79A
:1020100075F8B8F8001000EB0B2080B2814218BFB1
:102020005145E7D0B81CC7B220782A68825C974235
:10203000E6D3F2F7CDFEFF2020703088FDF700F8E0
:10204000B8F80000FDF704F8DFF89C1D99F80000CF
:1020500009688873F3F710FE70B902F086F9FFF78C
:102060005CFE00F017FEFFF71DFF00F0C2F9022032
:10207000BDE8F24FF5F798BEBDE8F14F00F0F1BDB5
:102080005046BDE8F44F40F26B31F4F72FB8022808
:1020900003D040F2723100F042F8FF2E04D1BDE8C7
:1020A000F24F002000F0D9BD2868305C012803D031
:1020B00040F2793100F033F800F09BF900F02BF892
:1020C0003A6897F906300021520040B28342B8BF07
:1020D00042F001023A60002005E03A68C240D207AF
:1020E00048BF491C401C3A79C0B29042F5D3787978
:1020F000C9B281420DD30020386099F80000F6F78C
:1021000018F9FFF750FEFFF708FEBDE8F14FF3F7AF
:10211000FABDBDE8F18F00213046F2F7EFBF50461F
:10212000F3F7E4BFDFF8C00C0068407B0428704779
:1021300080B5F2F7D9FDDFF86817097B012909D1CD
:1021400000F10901DFF82C0C0078BDE808400222FC
:10215000F2F747BF01BD2DE9F04A9FB08346F6F77D
:1021600025F9002860D1F6F713F9DFF83447617BD1
:10217000884259D30A22002108A8F2F711FB1A223B
:10218000002110A8F2F70CFB0DF1150205215846AD
:10219000F9F74BFE5846F2F7A7FD9DF81510091800
:1021A000082206A8F2F7B9FA0DF115020C215846DB
:1021B000F9F73BFE9DF81510481C8DF815005846A0
:1021C000F2F79CFF05460DF1150208A9584600F0EC
:1021D00044FE0DF1150210A9584600F05BFE9DF873
:1021E00015105846F2F78AFF277B0A2F18BF0B2FCE
:1021F000064640F0AC809DF84000DFF87438C0F32C
:1022000002120DF15301304600F000FE00280BD001
:102210000A2FDFF8D89B08D15846F2F7CBFD89F892
:1022200040B00B2000F019FDBBE00A2200210DA8F0
:10223000F2F7B6FA1A22002117A8F2F7B1FA00F065
:10224000C5F80521F9F7F1FD99F84000F2F74CFDCA
:102250009DF81410091808220BA8F2F75EFA00F096
:10226000B5F80C21F9F7E1FD9DF81410481C8DF824
:10227000140099F84000F2F741FF834600F0A6F8F9
:102280000DA900F0EAFD00F0A1F817A900F002FE88
:102290009DF8141099F84000F2F730FF074699F8BE
:1022A0004000F2F795FD00F0A4F800202076082207
:1022B0000FF20C140BA906A8F2F779FAA0BB0A22B8
:1022C0000DA908A8F2F773FA70BB1A2217A910A873
:1022D000F2F76DFA002804BF5D45BE4224D1FEF737
:1022E0001DFDFF280CBFB121002106A800F0F0FC65
:1022F0000746F3F753FC10A80090019608AB2A4656
:1023000006A93846F6F719FE9DF84000039004969A
:1023100001953B46BDF820000290402206A800909F
:10232000214600F015F90FE0F3F738FC00F059F8FA
:10233000C420F6F702FEFF2004900390C42300F0AF
:1023400049F82146FFF74DFCF3F7E5FB29E0F3F7E9
:1023500025FCF6F71DF80190009610AB08AA294657
:1023600006A8F6F73DFD0446F6F712F8049003962A
:10237000009506AB9DF840000FF6A03102903D227B
:10238000BDF82000019000F0E3F8F3F7C4FB44B17E
:10239000FEF7C4FCFF280CBFB121002106A800F005
:1023A00097FC1FB0BDE8F08A9CF90020E0F3002004
:1023B000C9FF002088F300208AF300208CF300205E
:1023C00042423870425742420000000099F84000F3
:1023D00005AA70474FF6FF7002904022FF2001903F
:1023E0007047FF2001900023002000900146FF224B
:1023F0007047002000F031BC2DE9F043074600F0A3
:102400004BFAC01E032895B080F0848008AA0421EE
:102410003846F9F70AFDDFF814910446B9F80000D0
:102420004FF6FF7188421CBFA4B2A04272D108AA25
:1024300005213846F9F7F9FC3846F2F755FC9DF8C6
:1024400020100918082209A8F2F767F908AA0C2138
:102450003846F9F7EAFC9DF8201000F073F89DF873
:102460002010054600F06EF8064608AA0BA938466B
:1024700000F0F3FC08AA0EA9384600F00BFD9DF809
:10248000201000F062F8074699F83C2099F83400D3
:102490000EAB09F1350100F0B9FC00283AD001205B
:1024A00089F83F00F3F77AFBF5F772FF01460391D5
:1024B000B12D0EA902910CBF012000200BA9DFF85D
:1024C000308901910497009609AB98F80010A2B2E8
:1024D000F6F7B7FC08B989F83300F5F759FF06900D
:1024E000B12D9DF838000FF6402105900CBF012357
:1024F0000023BDF82C000490A4B209A8029007970D
:10250000039601943E2298F80000009000F020F815
:10251000F3F701FB15B0BDE8F083000090FA00204E
:10252000008010023CF20020F5170108D0FD0020C9
:1025300089F300209CF90020C8FD002050F2002003
:102540008AF30020481C8DF820003846F2F7D6BDEB
:102550000320F3F765BA2DE9F04F824600F09CF9AD
:10256000002895B007D100F04EF9C00740F1348142
:10257000F5F71CFF002840F02F8106AA05215046E0
:10258000F9F753FC5046F2F7AFFB9DF81810091805
:10259000082207A8F2F7C1F806AA04215046F9F765
:1025A00044FC814606AA0C215046F9F73EFC9DF8F2
:1025B00018105046F2F75EFE80469DF81800811C08
:1025C000481C8DF81800C9B25046F2F797FD8DF8F7
:1025D0000C0006AA0AA9504600F03FFC06AA0DA965
:1025E000504600F057FC9DF818105046F2F786FD53
:1025F0008DF819000A22DFF8F4B70AA90BF10C00D4
:10260000F2F78BF81A220DA90BF11600F2F785F8F4
:102610009DF80C00099000F02EFAACBF01260026B0
:102620000022002107A8FEF745FB0446FF2C0BF112
:102630003D0703D00120B870C12508E00020B87024
:10264000FEF76CFB0446FF2C14BF0025B4257C70FC
:102650009DF81900934F8BF83D003020B42D00FBFE
:1026600004FB57D09DF834003968C0F302108DF890
:1026700000005944DFF87C07008888834EB10022AF
:1026800006215046F9F7D1FB0006800FF9F7F7FC59
:1026900002E0DFF86407007839685944082281F8BD
:1026A0002D0007A9386858441030F2F736F8396819
:1026B000002E594412BF4846DFF840070088C883FF
:1026C00018BF404606D1F4F7A9F8DFF828170988A3
:1026D0008842F8D03968594408849DF80C0081F884
:1026E0002E000021386858448161BDF828104184CB
:1026F0000DF147019DF800202430F2F70EF83968FB
:102700009DF80000594481F82B0001203968594494
:1027100081F82C00F3F742FA07AA9DF819009DF8FA
:102720000C30029021460DA801900AA8009028467E
:10273000F6F7CEFB80469DF819000FF2F871059070
:102740002B469DF8340004904322BDF828000390E6
:102750000998029007A801900094FFF7F9FEF3F79B
:10276000DAF94446B42D08BF4FF000084FF0000AD4
:102770004FF6FE70B6BBB42D31D1B1234FF6FF71C9
:10278000DFF8702612880090019289B2DFF86006A7
:10279000027807A800F064FD0646FF2E0ED0002345
:1027A0001A46114606F0E4FC82463046F2F710FB6A
:1027B000BAF1000F18BFB8F1000F20D1B42D04D02A
:1027C00039685944002081F82C002CB1BAF1000F6F
:1027D00004BF012000F0D0FA15B0BDE8F08F3868D2
:1027E0005844008CB42D08BFB12304D0B8F1000FB9
:1027F00014BF0023B423002EC0D04946C0E70720F1
:1028000000F02BFAE8E7DFF8F805007870472DE9CB
:10281000F04100F041F807280C463BD1DFF8CC85A9
:10282000DFF8E075386808F13D053026697806FB69
:10283000010000F0E6F903D040F2B35100F0ABF92B
:10284000BCB9FFF7E0FF00F00400012813DB386893
:10285000697806FB010090F82E0040070BD5082090
:1028600000F0FBF998F83D106878BDE8F04101F000
:1028700098B8002000E0022039686A7806FB02114F
:1028800081F82C0014B96878FEF791FA2046BDE86B
:10289000F04171E2BDE8F081AD48007B7047000077
:1028A000B0FD00204CF20020C4F900202DE9F04FCB
:1028B000DFF83845A64D80468FB094F83E00019071
:1028C00094F83D008DF80200287B062840F0CC806B
:1028D00000AA04214046F9F7A8FA814600AA05217A
:1028E0004046F9F7A2FA4046F2F7FEF99DF80010CB
:1028F0000918082202A8F1F710FF00AA0C2140468F
:10290000F9F793FA9DF80010481C8DF80000404636
:10291000F2F7F4FB06469DF800104046F2F7AAFCD9
:1029200082469DF80000801C8DF8000040469DF80E
:102930000010F2F79FFC83469DF80000811C481CA4
:102940008DF80000C9B24046F2F7D8FB074600AA4E
:1029500004A9404600F081FA00AA07A9404600F009
:1029600099FA0A2204A904F10C00F1F7D6FE1A2202
:1029700007A904F11600F1F7D0FE96B900242C76D1
:102980009DF81C00DFF87854C0F302108DF80100A8
:10299000287800F070F8A6BFDFF858040088504689
:1029A00006E0B12E0CBFB424C2240020287658E0E3
:1029B0000199DFF85064302202FB01FA316851447A
:1029C0000022888306214046F9F72FFA0006800F7F
:1029D000F9F755FB31685144082281F82D0002A90E
:1029E000306850441030F1F798FE30685044A0F839
:1029F0001E901E30A0F802B0077430685044846105
:102A0000BDF8101041840DF12F019DF801202430F4
:102A1000F1F783FE31689DF80100514481F82B00E5
:102A200001203168514481F82C00287800F004001E
:102A300001280DDB78070BD5092000F00EF9F3F71C
:102A400062F901989DF80210C0B200F07FFF0BE020
:102A5000316851440A2081F82C000198C0B2FEF779
:102A6000A6F9204600F088F90FB0BDE8F08F00000D
:102A70009CFA0020007800F0010001287047F8B5AA
:102A80000F46F9F70DFBF5F754FC3024D74DDD4E1A
:102A90005FB1316895F83E2004FB021191F82D10CA
:102AA000884202D000F034F9E0B1306895F83E1069
:102AB00004FB0100002180F82C1095F83E00FEF781
:102AC00076F9FFF796FCF3F769F895F83E00F6F70C
:102AD000E4FA95F83E30462200F005F8BDE8F140F2
:102AE000F3F719B8F1BDBFA10320F2F799BFF8B50C
:102AF000044600F08CF80546FF2D27D03020C14F4A
:102B000000FB05F63868301890F82C0000F004003F
:102B1000012806DB002206212046F9F786F9400746
:102B200014D5F3F73BF82846F6F7A5FA2B464522CD
:102B3000FFF7D9FFF2F7EFFF39687118002081F82D
:102B40002C002846BDE8F240FEF731B9F1BD000087
:102B5000B0FD002038B50446FFF79EFE092803D0DB
:102B600040F2AD6100F017F8A049A64A91F83E3056
:102B70001268002C0CBF0E200020302505FB03221C
:102B800082F82C001CB991F83E00FEF710F920469F
:102B9000BDE83240F0E00FF20800F3F7A7BA0000FA
:102BA00072663463652D6E6574776F726B2E630089
:102BB000F8B5044694488D4E007B924F3025082886
:102BC00007D1386896F83E1005FB010000F019F8AF
:102BD00003D040F2CC61FFF7DEFF396896F83E2063
:102BE000002C05FB02110CBF0620002081F82C00F0
:102BF0001CB996F83E00FEF7DAF82046BDE8F24030
:102C0000BAE090F82C0000F00300012870473EB5B0
:102C1000044600AA0421F9F708F985B24FF6FF70BF
:102C2000854205D100AA02212046F9F7FEF80546A3
:102C300000AA05212046F9F7F8F82046F2F754F8E3
:102C40009DF800100918082201A8F1F766FD02227C
:102C5000A9B201A8FEF72EF83EBD6B490873F5F73F
:102C6000EEB910B5604C216800204873FFF7F5FFFE
:102C7000022021683F4C08702078FF2803D0F2F72B
:102C8000A7F8FF202070FFF770F89120BDE81040F2
:102C9000F3F700B95C4800210160102101710F2198
:102CA00041716FF04A0181710A2101810021817215
:102CB000704738B502464D4890F834300188408856
:102CC00000F026FA0446FF2C01D1182032BD2BE07B
:102CD00038B504460D46F5F75BFB034644480178DA
:102CE0002A46204600F040FA0446FF2C01D1182065
:102CF00032BDF3F793FD4B2190FBF1F14B2202FB28
:102D00001102002392B20021204610E0F0F10020D1
:102D100038B50146354890F83E0000F0FCFA04460C
:102D2000FF2C01D1182032BD00220023114606F0ED
:102D30001FFA05462046F2F74BF8681E8041C00F87
:102D400032BD10B504460020FFF787FF26492A4808
:102D5000096800788873F2F7D6FFF2F71FFF204664
:102D6000F6F71FF923463C22FFF7BDFEBDE81040F1
:102D7000F2F7D1BEE3F30020FEB504460020FFF7D2
:102D80006CFFF2F70BFF0FF2B815ACB9174E96F8BF
:102D90003F0000B1C12406F10C0796F83E1006F181
:102DA00016033A462046F6F743F9B87A0290B089FE
:102DB000019096F83E000BE000230022FF21204600
:102DC000F6F736F9FF2002904FF6FF700190FF20D2
:102DD0000090234642222946FEF706FFBDE8F74051
:102DE000F2F799BE424200009CF90020D0FD00207D
:102DF000DBFF00208AF3002089F300208CF3002001
:102E000088F300204CF20020B0FD0020F0B51C78C3
:102E1000C4F34105C4F30214002601E0761CF6B2A7
:102E2000AE4218DAFF281EBFF7183F7CB842F5D132
:102E3000002601E0761CF6B296420CDA002000E093
:102E4000401CC0B2A042F5D2C718755CFF7CBD42E1
:102E5000F6D10120F0BD0020F0BDF8B504460D46C6
:102E600016460A22FF212846F1F79AFC31782046BF
:102E7000F2F700FA288000273078801C307000F0CC
:102E800049F879197F1C88703078401C072F307002
:102E9000F5DBF1BD2DE9F04104460D4616461A2238
:102EA000FF212846F1F77CFC00F034F828703078D8
:102EB000401C30702878C0070AD5002700F02AF897
:102EC00079197F1C48703078401C0F2F3070F5DB6B
:102ED0002878C0F34108002707E000F01BF87919B3
:102EE0007F1C08743078401C3070FFB24745F4D323
:102EF0002878C0F30218002707E000F00BF87919D2
:102F00007F1CC8743078401C3070FFB24745F4D342
:102F1000BDE8F08131782046F2F7F0B842387042CF
:102F20005742424200000000424242573870425726
:102F30004242420042424238704257424200000040
:102F4000424242574200000010B50446F2F706FE26
:102F500048B10FF2841000E0801D017919B1018899
:102F6000A142F9D14488204610BD2DE9F04182B03C
:102F700005460C4616469846F2F7F0FD07465548BA
:102F80000178FF2918D04078B84215D100220FF2FD
:102F9000481002E09A18D2B2801D037963B1B0F8EC
:102FA00000C0B445F6D16B1E9B41DB0F0093037943
:102FB0002046F1F7ACFF1DE03046FFF7C5FF06469F
:102FC00007B17F1E002D434607D0FAB23146204696
:102FD00002B0BDE8F041F7F745B92246F9B2F7F77C
:102FE00067F9F2F7DBFD3046F5F7DCFDBDE8F341AC
:102FF000F2F791BDBDE8F3812DE9F04389B00446B5
:103000000FF2D4070026F2F7A9FD050013D06D1EBC
:1030100011E00020009043462E480178F2B201A84A
:10302000F1F775FF2CB9434601AAE9B24846F7F714
:103030003FF94644BF1D387978B13888FFF784FFDF
:1030400097F80480002C8146E3D04346EAB2494613
:1030500001A8F7F707F90120DCE709B0BDE8F08324
:1030600010B51C4C2078FF2801D1702010BD002025
:10307000FFF7C2FF2078F1F7ABFEFF2020706070F1
:10308000002010BD10B5134C0FF24C0062780021E7
:10309000FF2A04D0702010BD5118C9B2801D0279DA
:1030A000002AF9D10020F1F716FFFF28207007D081
:1030B000F2F754FD60700120FFF79EFF002010BD65
:1030C000182010BD03480078FF2801D10120704767
:1030D00000207047E6F3002007000D0010000800F4
:1030E0000F001A0006000C00110002000E00110073
:1030F0000400120004000100010004000900100097
:1031000008000A0011000A00000000000000000092
:10311000F0B591B0044601208DF818000D46DE4848
:10312000DE4900788DF8190016460DF11A00059059
:103130001F4605A800F0EDF900F08FF80598401C37
:10314000059006A900F8017D0196002300F036F8ED
:103150002A4606A8039000200290009001462046CF
:10316000F8F73FFE11B0F0BD70B590B004460D46C3
:1031700002208DF818001E46C749097806A842703B
:1031800081700DF11B00059000F064F800F065F807
:103190000598401C059006A900F8016D01950123D2
:1031A00000F00CF84FF6FF7206A8039021460020AD
:1031B00002900090F8F715FE10B070BD0598401A07
:1031C000C0B2049070472DE9F04391B0804606A844
:1031D00005908946B04C207800F001000128164681
:1031E0001F4603DB00F073F8054600E00025059953
:1031F000491C0591032001F8010D0598401C05901C
:1032000000F8017D380A0599491C059101F8010D66
:1032100005992078491C059101F8010D00F01AF874
:1032200000F01BF805991898491C0591012301F835
:10323000010D06A9FFF7C2FF4A4606A803904146C2
:10324000E8B20290019600200090F8F7CAFD11B094
:10325000BDE8F08305A891495BE1914905A86FE1BC
:1032600070B592B0044604208DF818000D461698EB
:103270008DF81A0006A9000A8DF81B004B7016463F
:1032800017980871000A8DF81D008449824800785B
:103290008DF81E000DF11F00059005A800F039F90A
:1032A000FFF7DBFF00F013F80599019606AA891ACB
:1032B000C9B20491C0B206A9029003910020009007
:1032C00001232A462146F8F78CFD12B070BD7548DF
:1032D00000780121F8F7B1BE30B59BB00446062056
:1032E0008DF814008DF815200D46194650220DF169
:1032F0001600F1F712FA52200490019505A80390E8
:1033000001230020029000904FF6FF722146F8F74B
:1033100068FD1BB030BD70B50C463021624E01FB1C
:1033200000F53068281886B090F82C0000F00300F3
:10333000022804D0B8210FF26020F2F7D7FE052052
:103340008DF814003068281800F11E018A7B097C72
:1033500002F00402012AACBF0123002301F00101A5
:103360000129ACBFC28B4FF6FF720121049100937B
:1033700005A90391019400210291012300F110019C
:103380000020F8F72EFD06B070BD70B59AB0154656
:103390001F9A1646512E0C46A8BFFF2021DA00289E
:1033A00014BF072008208DF814008DF815300DF19A
:1033B00016001E99F1F7B1F9019505A83018801C87
:1033C00005A9401AC0B20490012305A803904FF646
:1033D000FF72002002902146012000900020F8F7A3
:1033E00000FD1AB070BD000010B504460022062191
:1033F000F8F71BFD400704D52046BDE8104000F05B
:10340000B5BC2146072000F03CFA002843D000223A
:103410000A212046F8F709FD24490978CA1E032A23
:10342000C0B201D2022836D10A2918BF0B2901D116
:10343000012830D1401E07282DD8DFE800F004090C
:103440000E181D2213272046BDE81040FEF783BE4C
:103450002046BDE81040FEF7CFBF2046BDE8104033
:10346000FFF779B82046BDE8104000F0A6BD204621
:10347000BDE81040FFF71ABA2046BDE81040FFF73C
:1034800036BB2046BDE8104000F0B8BC2046BDE881
:10349000104000F0F0BD10BD88F3002090FA00202D
:1034A0009CFA002089F300204CF20020BCFD002093
:1034B00038B50D46044600220A21F8F7B6FCC0B222
:1034C000042807D024D306280AD015D308280DD005
:1034D00018D331BD29462046BDE83440FFF797B9DF
:1034E00029462046BDE8344000F02CBD2946204640
:1034F000BDE8344000F011BE29462046BDE8344006
:10350000FFF7BDBA29462046BDE8344000F0ABBD08
:1035100031BD10B504462268088810702068401C30
:103520002060226831F8020B000A10700722206820
:10353000401C2060F1F7F1F82068C01D206010BD2C
:1035400070B504460D462168287808702068401C34
:1035500020602878C00707D520680F22691CF1F782
:10356000DCF820680F30206005F110012878C0F3E6
:10357000410620683246F1F7D0F820683018206004
:103580002978C1F30216324605F11301F1F7C5F8A7
:1035900020683018206070BD72663463652D636FDB
:1035A0006D6D616E642E6300C648007800B1012025
:1035B0007047C44900F00100087000207047F8B55A
:1035C0000546F8F786FA0646F8F7C8FA845D2846F5
:1035D000F8F775FA07463046F8F7C0FABA490968AD
:1035E000695CC91B091AFF227C2C08BF032204D086
:1035F000092C3CBF0FF2D420225CC9B29142804119
:10360000C043C00FF2BD70B5044606F028FC054665
:103610002046F8F75EFA4078400713D5A91C00F061
:10362000D3F848B1294600F0C9F800F0C4F82EB12B
:10363000B04203DBFF2801D0002070BD05EB46003F
:10364000851CADB229462046BDE8704006F01FBC7F
:10365000F8B5044606F0D7FC05462046F8F739FAD7
:103660000746A91C00F0B0F800283DD0294600F01C
:10367000A5F800F0A0F80B2E36D20FF25C21715C99
:103680004D19ADB205F10801012E89B20AD0022E02
:103690000CD0052E11D0082E15D0092E18BF0A2ED9
:1036A00016D020E080061ED50D461CE0C20648BF9D
:1036B0000D46800617D5083514E07978C90613D56C
:1036C00005EB40050EE000F01F0000EB400008E0B5
:1036D00010F0E00108D1092E06BF00F01F004000E5
:1036E00002204519ADB236E00020F2BDF8B504461F
:1036F00006F089FC0546691C00F066F848B32946C7
:1037000000F05CF8064606F0030706F00C00032FF5
:1037100018BF04281DD0022F00D1D0B9304606F0C2
:10372000A2FC45193006ADB212D5691C00F04CF868
:1037300080B1E9B200F042F80146012F1CBF01F050
:103740000300032805D0304606F09BFC4519ADB2B6
:1037500001E00020F2BD29462046BDE8F44006F015
:1037600096BBF8B5044606F0D1FC0546A91C00F04E
:103770002BF8F0B1294600F021F806460F2E18D29A
:103780000FF26010305C4719691CFFB200F015F8A9
:10379000052E06D106280CD20FF25811405CC7192D
:1037A00004E0082E08BF022801D10837FFB23946CD
:1037B000D2E70020F2BD0646691CC9B22046F1F7E7
:1037C0009DBC9DF80000291889B2204606F05FBB19
:1037D00010B582B0044600AA0621F8F726FB9DF832
:1037E0000000411CFFF7F0FFD0B19DF80010FFF77B
:1037F000E5FF9DF80010491DC9B24A1C00F0030303
:10380000012BD2B208D0032B02D1C91CC9B204E0EB
:1038100000F00300022800D11146204606F037FBD5
:1038200016BD70B582B0044600AA0A21F8F7FDFA69
:10383000C6B20A2E23D20FF2C400355CFFF7C1FFD7
:10384000E8B1052E19DA0FF2C0019DF800007118D9
:1038500011F8011C0918FFF7B0FF0646FFF7B1FF8A
:103860000021F20748BF0F21C6F341025118C6F3E9
:1038700002125118C9B2081801D0012076BD0020EB
:1038800076BD38B50F4A0FF2840312780446002043
:10389000002A02D1012032BD401CC0B2024613F8FA
:1038A000325045B1AC42F7D1084603EBC20149683A
:1038B000884708B132BD002421461E20F2F7F5FAF0
:1038C000002032BDE4F30020F0F10020FF0204FFED
:1038D0000101010108000000FF06080402020204C1
:1038E000020A0B00FF21212121000C0902022323DF
:1038F00016161C0022231B1B22230000FF0D0E0F97
:1039000011015206060000000B0C0D100100000012
:10391000BF3501080200000007360108030000005F
:103920005136010804000000ED36010805000000D2
:103930006337010806000000D137010807000000C6
:1039400023380108000000000000000070B50446A4
:10395000DFF82809DFF8286900680D46302101FBEF
:10396000040000F060F804BFB078002802D04B21BA
:1039700000F0E2F9DFF80C09357004700020707077
:103980000220B07000F0CFFB18B90021BDE87040F4
:103990006FE3681C3C214143301DBDE87040F4F7E3
:1039A000FAB82DE9F04104463020DFF8D068DFF89E
:1039B000D07800FB04F8306840440D4600F033F83E
:1039C00004BFB878002802D0642100F0B5F9DFF810
:1039D000B4083D7004700020787000F0A4FBE0B1E2
:1039E000681C3C214143381DF4F7D5F8306810219C
:1039F000404400F05EFC3068FF2210214044F4F7A0
:103A00004CFA0028F2D131684144052081F82C009D
:103A10000120B87000F0DAFB18B10121BDE8F041D7
:103A200027E3BDE8F08190F82C0000F003000128A6
:103A300070472DE9F04F8BB080468A46F1F7FEF9CA
:103A4000DFF84458DFF834682968405C06900022AB
:103A5000302000FB0AF9306809EB000B07214046D3
:103A6000F8F7E3F90746DFF824080FF69C0400781E
:103A7000824503D3A0212046F2F738FB584604F0D4
:103A80006BFE3A46DFF8081807A800F02CFC04AAE1
:103A90000B214046F8F7C9F99DF810000D2803DA0C
:103AA000B4212046F2F722FB9DF81000DFF8E4B7BE
:103AB0000D385FFA80FA0AEB0B040022062140461B
:103AC000F8F7B3F96070A770380AE0700822380C74
:103AD0002071380E60713068484400F11001A01D5B
:103AE000F0F71BFE4046F1F7A9F905A9039107A9D4
:103AF00002910021019152462968405C9DF81030E6
:103B000000900BF10101FF2000F069FC00F0DCF8EF
:103B10004046F1F793F90146002000900D235246EC
:103B2000601CF1F7F4F906989DF81010411A9DF801
:103B30001000584407AB0122C9B2401C00F077FDC9
:103B400006985844042205A9401CF0F7E6FD0BB086
:103B5000BDE8F08F2DE9F04781460E463020DFF8B2
:103B60001C8700FB06F7D8F800003D1890B0002233
:103B700007214846F8F759F90446DFF810070FF215
:103B8000887A0078864203D3FD215046F2F7AEFAD8
:103B9000284604F0E1FDD8F80000381800F11001C3
:103BA000224607A800F09FFB04AA0B214846F8F71D
:103BB0003CF90DF111020D214846F8F736F99DF850
:103BC00010000D2804DA40F21F115046F2F78EFA69
:103BD0009DF81000A0F10D06F6B200279DF8110027
:103BE0003918C9B24846F1F789FA06A978547F1CFA
:103BF000042FF3DBDFF89076386819F80000011F16
:103C0000C9B24846F1F776F89DF8101007AA484661
:103C100000F0A6FC0025A919C9B24846F1F76EFAD2
:103C20000BA968546D1C0D2DF5DB002206214846BA
:103C3000F8F7FBF8C2B231464846F1F764FA711C56
:103C4000E2B200F03DF82204B11C00F038F8220284
:103C5000F11C00F034F8311D220E00F031F8012083
:103C60000090721D0823D2B24946DFF82406F1F70E
:103C70004EF99DF8103005A80390324607A802902F
:103C8000002100200190386819F800000090484693
:103C900000F0A5FB00F018F8012000900D2332463B
:103CA00049460BA8F1F733F9042206A905A8F0F755
:103CB0007EFD401E8041C00F10B0BDE8F087120E9F
:103CC000C9B24846F1F71FBA07AB0022042105A884
:103CD00000F0ADBC10B5044600220621F8F7A5F8A7
:103CE000400703D44FF4BC7100F026F800F0B6F999
:103CF00000F00300022811D100F07BF8C0B20728C1
:103D000018BF082803D1DFF87C05007810BD05280E
:103D100010D1DFF8840590F83E0010BD2046FDF775
:103D200048FCFF2806D0DFF87415096801EB001085
:103D3000C07A10BDFF2010BD0FF2CC50F2F7D6B9FB
:103D4000DFF83C05002101718078401E05280CD861
:103D5000DFE800F00304090606090121C52003E09D
:103D60000121C62000E0C020F3E1704738B50446C9
:103D7000DFF810050578FF2D03D12046FEF747FF39
:103D80000546FF2D34D000F069F9400703D440F216
:103D9000B311FFF7D1FF29462046FFF7DBFED0B174
:103DA00000F027F8C5B221460720FFF76AFDF8B1F9
:103DB000052D04D12046BDE83240FEF798BE072D00
:103DC00003D12046BDE83240F7E0082D10D120464F
:103DD000BDE832404FE1DFF8A8048078042808BF2E
:103DE000012102D0062803D10021BDE8344040E182
:103DF00031BD00220A212046F8F717B82DE9FF4708
:103E0000804600AA0521F8F710F84046F0F76CFF4D
:103E100000F015F900AA0C214046F8F706F89DF8C5
:103E20000010481C8DF800004046F1F767F9DFF8F4
:103E30005054A978022904BF6978884210D1DFF86C
:103E40004474DFF83844397820684FF0300909FBB2
:103E5000010000F11001082202A8F0F7A8FC0028D8
:103E60006ED100269DF800003118C9B24046F1F726
:103E700045F98246E878F1B2F1F740F980EA0A02A2
:103E8000E878F1B2F1F73FF9761C502EEADB68785A
:103E90002978884252D120683B781022002109FB02
:103EA0000300F0F77DFC4FF00008002606EB081138
:103EB000E878C9B2F1F722F93978226809FB01F1F3
:103EC0008A18B35C5840B054761C102EEEDB08F113
:103ED0000108B8F1050FE8DB22688918052081F890
:103EE0002C00042101A800F0E4F9002601A8F1B299
:103EF000325CE878F1F707F9761C042EF6DBDFF880
:103F0000A0030078C00705D42068397809FB0100B8
:103F1000C08B01E04FF6FF70FBF79AF86421281D73
:103F2000F3F739FE0320A87001AA0021012000F058
:103F30002EF928B1002100F03EF801E0401C687025
:103F4000BDE8FF87F8B500F076F8012831D159BBFC
:103F500068782978884206D16421281DF3F71BFE72
:103F60000420A870F1BD401C687000F0C5F89DF8F1
:103F70000000401C8DF8000000262046F0F75EFF90
:103F80009DF800107118C9B2F1F7B8F80746E87843
:103F90003146F1F7B3F880EA0702E8783146F1F7E5
:103FA000B2F8761C502EE8DB00F010F908B100F0F2
:103FB00001F8F1BD0121C620CBE0F0B500F03BF8DF
:103FC000042885B035D1F4F7F1F9002831D100AAE1
:103FD000052100F093F82046F0F786FE00F02FF858
:103FE00000F08AF800F032F806462046F8F70BF8A1
:103FF00000F087F802A8F0F7DAFBC0B900F02EF85D
:10400000400714D5002E04BF7FB2042F0FD100F05B
:104010001DF801A97054761C042EF8DB01AA0021BA
:10402000002000F0B4F810B90520A87001E0FFF7F7
:10403000C1FF05B0F0BD924D0446A87870479DF8C9
:1040400000100918082202A8F0F767BB9DF80010BD
:10405000481C8DF800002046F1F750B800220621D8
:104060002046F7F7E2BE19B98549062088707047E7
:104070000021C6206DE0FEB5FFF7DDFF06283AD12E
:1040800000AA052100F03AF82046F0F72DFE9DF831
:1040900000100918082201A8F0F73FFB00F02CF8E7
:1040A000FFF7D4FF06462046F7F7ADFF00F029F8EA
:1040B00001A8F0F77CFBD0B9FFF7D0FF400716D579
:1040C000002E04BFFFB2042F11D1E8783146F1F77A
:1040D00015F89DF800100746FFF7BAFF874206D192
:1040E000761CF6B2042EF0DB0021002001E0002156
:1040F000C62000F02EF8F7BD00AA0C212046F7F7E5
:1041000094BE871E5D485F4900680978302303FB31
:10411000010000F110010822704700290CBF0020A7
:10412000C620012115E038B550210020F0F7D3FE5C
:10413000534CE070FF2801D1002032BD0025E0780B
:1041400000222946F0F7DFFF6D1C502DF7DB012020
:1041500032BD38B504460D4649484A4A00218170AF
:104160000171FF21C0781170FF2818BFF0F730FEF1
:1041700025B12046BDE83240FEF71ABD4948008807
:10418000FAF766FF2046BDE83240FEF7E3BC30B5E3
:104190003A4B3C4C1B682478302583B005FB043433
:1041A0000423019300920B4694F82D2004F1100192
:1041B000FFF7EBF8044600F077F805462046F0F7E5
:1041C00007FE0DB100203EBD01203EBD2DE9F043AC
:1041D0002B4C607821782B4DDFF8A080884295B079
:1041E0004FF0300928D1402100A800F062F80020EB
:1041F00000AE00A94118825D0B7C2F785A4091F8DF
:1042000020305A4091F830305A40D8F8003009FB3D
:104210000733C35C5A40401C102881F84020E8DB7B
:104220000027E078F9B2F0F769FFB95D4840B8556A
:104230007F1C502FF5DB03E0502100A800F039F877
:10424000D8F800002978627809FB010000AB90F8EB
:104250002D101030FFF740F80446FF2C08BF18203F
:1042600009D000F021F805462046F0F7B1FD002DF9
:1042700014BF0020012015B0BDE8F0834CF20020EF
:1042800014FE0020E5F30020F0F1002050F20020A1
:10429000C4F90020F4F90020D0FD002054F20020E1
:1042A00088F300208CF3002001230022002104F079
:1042B0005FBF30B5D1B004464D08294600A8F6F7D7
:1042C00027FA002000A90AE031F8102004F8102095
:1042D00004EB400331F81020120A5A70401CA84227
:1042E000F2DB51B030BD38B5044615460822601CDB
:1042F000F0F713FA6572280AA072280CE072280EF3
:1043000020730520607331BD72663463652D73655B
:104310006375726974792E630000000080B5042310
:10432000042200A90120FEF720FEDFF854150098B2
:1043300009680003C86101BD10B5DFF84445206875
:10434000C069000507D1F1F709FC00280CBF042063
:104350001220F5F7D1FF2168C869421CCA6110BD5F
:10436000DFF81C050068C069704780B5DFF81015DC
:10437000096800200090C8610423042200A9FEF708
:10438000F4FD01BD00B585B01123062200A901206E
:10439000FEF7EBFDDFF8E8049DF81010026882F8E4
:1043A00020100068C07E00281CBF0528002002D114
:1043B00004F0E8F9012005B000BD70B50C461546C3
:1043C0001E46014610223046F0F7A7F93470280A3D
:1043D000B073F5733046BDE8704004F0D4B92DE9F0
:1043E000FB4F8CB090469DF86400189D00289DF806
:1043F00030008DF8040014BF012702279DF8380013
:10440000841A9DF83000029026460D9850B900F0AD
:10441000A3F8DFF87014029A0968555CFF281CBFE6
:10442000405C45199DF8640000289DF8380014BFD1
:1044300009214921EDB22A1A1A9803AB92B2FFF76B
:10444000BCFF0DF10C0A9AF8010060408AF80100E7
:104450009DF8640030B11022002103A8F0F7A0F904
:104460008DF80C4000244FF0000915E017F80A30D1
:1044700011F8010B434007F80A30521C7F1CD2B2DE
:104480005A45FFB2F2DBD944102F5FFA89F903D104
:1044900003A804F078F90027F6B2B1451EDAC7F197
:1044A000100BA6EB0900C0B25FFA8BFB584538BF72
:1044B00083460D9858B9009009EB08029DF8041046
:1044C0005B46D2B207A8F0F722FD07A904E05FFA25
:1044D00088F8404409EB00010022D0E7012C18BF06
:1044E000002FB04403D003A804F04DF900270D9825
:1044F00008BB00F031F884B9E249029A0968515CBE
:104500009DF838208E1AFF289DF8640008BF01240A
:10451000B0B1F6B2A6B9022412E0012C10D100F01D
:104520001BF88DF804004FF00008D6489DF80410E1
:1045300000680E5C04E01CB99DF8380001242E1AB6
:10454000601CC4B2032C8EDB1B98042203A9F0F775
:10455000E4F80FB0BDE8F08F9DF83000F0F76EBCC6
:104560002DE9F04F85B004460F4690460025F0F740
:1045700065FC824601224FF0010901AB114600F0B3
:1045800078F88DF80040DFF800B3BE489DF80010C1
:1045900000680E5C394600A8F0F7A4FDF71B04463E
:1045A000FFB223E0037815F80C205A4000F8012BE5
:1045B000491C6D1CC9B2B142EDB2F3DB3419BF1B0B
:1045C000E4B2202CFFB207D1DBF800009DF8001008
:1045D000085C8DF800000024102D07D109F10109B5
:1045E00001AB1FFA89F200F043F80025A7B1C4F12E
:1045F0002006F6B2C5F11000BE42A8BF3E46C0B2CA
:10460000864228BF06469DF80000F0F76DFB201893
:1046100000210DF1040CCDE78DF800A04FF0FF0A4A
:104620009DF80000FF28B0D105B0BDE8F08F2DE95E
:10463000FF4104460D461646984609E02278C85CBC
:10464000504004F8010B491CC9B2B942F6DBED1B1E
:10465000EDB25DB1102DB4BF2F46102700ABB2B242
:1046600000F006F8761C002100ABEDE7BDE8FF8105
:1046700001214046A1E670B50D461146804A1268F8
:10468000D27E0446287800F020061043287006B138
:10469000691D0822601CF0F740F80422691C04F12F
:1046A0000900F0F73AF828786073002E297814BFD3
:1046B0000D20052001F01801082908BF401CC0B2D8
:1046C00070BDF0B506466F4800680C4685B0205CAA
:1046D00015461F46431BDBB20E2BA8BF0D2300203F
:1046E000009001A8F0F713FC3A4601A93046FFF705
:1046F000C2FF06469DF8042029462046F0F703FD38
:10470000304605B0F0BD2DE9F0418CB00446884636
:104710001546F0F793FB06465C4B2A46214608A84F
:10472000FFF7CFFF471904A80390FBB208A8029037
:10473000424600200190009000212046FFF74FFEE6
:1047400000F04BF808AAF9B22046FFF709FF294606
:104750002046F0F7D3FC00F0F80229462046F0F797
:10476000D2FCFF2E18BF3446042204A92046F0F7DD
:1047700038FC401E8041C00F2CE02DE9F0418CB088
:1047800004460D4690461F46404A391908A8FFF7CF
:1047900072FFC61904A80390009508A80290F3B20E
:1047A0000020019042462146FF20FFF718FE00F04E
:1047B00014F8042204A92819EFF7AFFF385D00F0C0
:1047C000F8003855A91BF6B208AB0122C9B230195E
:1047D000FFF72DFF0CB0BDE8F08108AB00220421EB
:1047E00004A824E72DE9F04391B080468946154698
:1047F0001C46F0F723FB074623462A46414608A8F5
:10480000FFF75FFF44191F480068FF2F08BF4746A6
:104810000423385C061F00200090F2B2394604A839
:10482000F0F775FBF1B23846F0F71DFCFFF7D5FF46
:1048300008AAE1B24046FFF793FE0CA80390E3B24A
:1048400008A802904A4600200190009000214046AE
:10485000FFF7C5FD29464046F0F750FC00F0F8028E
:1048600029464046F0F74FFC04220CA904A8EFF7B4
:104870009EFF401E8041C00F11B0BDE8F0830000D4
:104880009CF90020F0F10020F8F10020C4F900208C
:10489000704701207047012070470020704780B5A5
:1048A0007020EFF76AFDBDE802400020EFF765BD1C
:1048B0007020EFF762BD00000BF0E6BB80B50BF097
:1048C000C5FB20B173480078F0F782FA012002BDE1
:1048D00010B50BF09DFB6F4C2070F0F76BFA207851
:1048E000F0F702FA6C49486010BD38B50BF023FDB3
:1048F000684C2078FF2815D1674D688838B1F9F7E2
:104900008DFC2A886988801A80B2814204D20020F6
:10491000688020460BF02DFC2078FF2804D0F0F7AB
:10492000E3F96860012032BD002032BD38B504468D
:1049300000F00BF8574D287821460BF0F1FBFF20D3
:104940002870BDE831400BF0F6BC52480278FF2ACF
:1049500003D04FA13C20F1F7F1BD704770B504467C
:1049600082B00D460020F0F7B6FA0646FF2E07D0BB
:10497000484802780095234600213046F0F7B2FC03
:10498000304676BD4548434900680978085C704761
:10499000014640480078F0F7ADB92DE9F04782B004
:1049A0000020F3F798FD3E4E96F800A00446651CE3
