S0120000536553616D706C655043542E733337E1
S31508002000781C00207D5102089D2C0208A12C02088C
S31508002010A70A080100210008040303AC505456041B
S3150800202000000000000000000000000000000000A2
S315080020300000000000000000000000000000000092
S315080020400000000000000000FFFFFFFFFFFFFFFF8A
S31508002050FFFFFFFF00E0020800000000000000008C
S31508002060FFFFFFFFFFFFFFFFFFFFFFFFFFFFFFFF72
S31508002070FFFFFFFFFFFFFFFFFFFFFFFFFFFFFFFF62
S31508002080F02F002000000000EB2F0020EB2F00208F
S31508002090781C0020D0C90208025402081813002030
S311080020A0380D0020000003080030002066
S31508002100781C00207D5102089D2C0208A12C02088B
S31508002110A92C0208A52C0208AD2C0208202E0208BC
S31508002120202E0208202E0208202E0208202E020841
S31508002130B12C0208202E0208202E0208593D00085C
S31508002140F12B0208202E02087F730008202E0208B1
S31508002150B57C000843710008202E0208202E0208CC
S315080021604763000861330008E72D0008912100083D
S31508002170202E02088F720008D772000873420008E2
S315080021803DC70008202E0208202E0208212E02082C
S3150800219070B52C482C4942780B685B0725D5032A6D
S315080021A023DA838800EB4204A3810123847803FAA7
S315080021B002F222438270254C0278002A12D00025AA
S315080021C022FA05F6F60708D5AB4045705A40027064
S315080021D010EB4500808A206007E06D1CEDB2032DE8
S315080021E0EEDB02E02260032242704FF6FF700860C1
S315080021F0BFF35F8F70BD13480021017000220321D1
S3150800220041700021C1700521018100218170001DE6
S315080022100E490A604A604FF400428A601022CA607A
S315080022204861012088610320C860042106480164CA
S315080022304FF6FF7101604FF400600549086000F031
S3150800224045B80000501F002010A8004004D00040E8
S3150800225000E100E0DFF8E03433F810001040C84031
S31508002260704730B50FF29054DFF8D03434F8104088
S315080022709C601140DFF8C04434F810509543294358
S31508002280D96002221A6000221A6024F810105868D1
S315080022900028FCD130BDDFF8A824DFF8A80412789E
S315080022A0DFF8A4140AB149780EE0895611F1090F2E
S315080022B0B8BF302108DBC16D39B1C26D40F24A3171
S315080022C0B1FBF2F189B2C91E01607047E0B5DFF8CB
S315080022D07C0401880A2300F064F8BDF806104FF65E
S315080022E0FF720D20FFF7BDFF07BDF8B50546B5F52A
S315080022F0004FDFF8544419D1DFF85404018802234B
S3150800230000F04FF8BDF80000000AFF2814BF0028A7
S3150800231018206070BDF800000006C00E10281CBF0B
S31508002320001D00F098F9BDF80000C543DFF81064F9
S31508002330707808B1002005E0A089ADB26840C007F2
S3150800234001D501207070DFF80C04A58105F00104A1
S31508002350016841F400410160C5F340070FF2BC4033
S3150800236000EB44004FF440524078010389B2022042
S31508002370FFF777FF204600F053FA4022B90100F034
S3150800238005FA2D06A80E00F0010038433070FFF755
S3150800239082FF707818B1FFF799FF0020707000204F
S315080023A0F2BD7F2200A800F0B1BA2DE9F04FDFF8A0
S315080023B0AC43207887B0042304900B210B38C0B2B5
S315080023C0039000A8039A00F05FFB9DF800008DF8C3
S315080023D00A009DF801008DF809009DF802008DF8A5
S315080023E008009DF803008DF80500DFF874030078EF
S315080023F0012804D16078451EAD41ED0F00E00125A6
S3150800240000F0C9FD83469DF902000399D24F0BF1EE
S315080024100A0AABF10A065045B6BF86424FF00108D4
S315080024204FF0000801208840ADF806009DF801002D
S31508002430000604D47888BDF80610084201D04FF08B
S31508002440010800F031FE9DF8030000060AD4B8889A
S31508002450BDF80610084205D19DF900005045B8BFE1
S31508002460864202DB4FF0010901E04FF0000948EA15
S31508002470050059EA000000F09E80DFF8E8A2BA4994
S31508002480DAF8000000F002008DF80400B74800688A
S3150800249000F4E06005904FF4E0600860002001F069
S315080024A0FFF901F071FCB24EADB1607858B1DAF8B7
S315080024B00000AB4940084000CAF800000120087037
S315080024C001F042FD07E0306840F4005030603068A3
S315080024D020F480503060A248007801280DD101F020
S315080024E051FEDAF800009E4940F00100CAF80000E3
S315080024F000200870642001F027FD2DB1607818B916
S315080025000498C0B201F025FF607838B1306820F42D
S3150800251080503060306840F400503060BDF80600E6
S31508002520C543B8F1000F08D001F0FEFF8DF8010091
S315080025308DF802B0788828407880B9F1000F08D065
S3150800254002F0A3F88DF803008DF800B0B88828408B
S31508002550B8809DF900009DF90A10884202BF9DF8CF
S3150800256001009DF8091088420BD19DF902009DF9DA
S315080025700810884202BF9DF803009DF8051088429E
S3150800258006D00399042300AAC9B20B2000F08DFADD
S3150800259005987649086000F0BDFA9DF8040001F038
S315080025A07FF902F092F9607828B148F260703060DD
S315080025B0642001F0C9FC9DF8010001F021FF9DF897
S315080025C0030002F05DF807B0BDE8F08F80B500F0B3
S315080025D0D5FCBDE80140E8E600F0D0BC70B506467B
S315080025E0A6F10B0401F0BDF80546A6F10B0010286C
S315080025F001D38A2070BD5F488168090702D4006844
S31508002600C00701D58C2070BD544806705A48016829
S315080026100C290FD00FF27811584A92F90020A4B26B
S3150800262031F824105118C161FFF7BFFE012D08BF0C
S3150800263001F028F8002070BD10B5044600F09EFC95
S315080026402046BDE81040C9E74448007870473E4830
S3150800265090F9000070472DE9F041044614F12B0F5C
S3150800266086B045DB464801881423FFF79AFEBDF875
S3150800267010004FF6FF71884203D0400448BF012678
S3150800268006D43F2200211020FFF7E4FD0546002668
S3150800269004F12B022F2A2C483A491AD213220FF298
S315080026A0301300E0521ED2B213F91270BC42F9DBA5
S315080026B003EB4204032764780C60002413F8121015
S315080026C0017000208046AEB1BDF810104FF6BF72FB
S315080026D029E0092C0CDA225C0A60047014232A48C3
S315080026E00188FFF75EFE01240320A0462827EAE7B3
S315080026F08B201DE0C1024FF4605200F047F84FF4FA
S31508002700E062210200F042F880224FEAC81100F088
S315080027103DF885F020003D18ADB2402DA8BF3F25F5
S315080027203F2285F0200100F031F8FFF7B4FD0020C4
S3150800273006B0BDE8F0810000902B0020E8100040AC
S31508002740BE2F002064100040A41E0020CAC1020843
S31508002750D6C102081C100040CA2E00209F1E002069
S31508002760081F00208020004080E100E000E100E032
S31508002770D010004060200040AC100040BD2F002063
S31508002780C6C10208C0100040C8C102080B2068E58F
S31508002790AA2129005523290000252800AA26270052
S315080027A055282700002A2600AA2B2600552D250085
S315080027B0002F2400AA3024005532230000342200BA
S315080027C0AA3522005537210000392000AA3A2000F0
S315080027D0D500E601EC02EF03F204F405F506F70767
S315080027E0F808F909FA0AFB0BFC0DFD0FFE11FF1399
S315080027F000160119021C031F1000110020003000EA
S315080028004000410050006000700080009000A00069
S31508002810B000C000D000E000F00000000000010396
S31508002820F0B5044689B0002001F026FB2648018849
S315080028300A237F2200A800F069F8BDF802004FF6C7
S31508002840FF75A84204D1DC210FF2940002F076F855
S315080028500FF2A407002601E02A4616B94FF47C4277
S3150800286003E0022E08BF4EF23F0200A800F032F83D
S31508002870761C052EF0D3012C03D114237F2213488E
S3150800288002E014237F221248018803A800F03EF8CC
S3150800289000260FF26C072A4608E02A46012E08BFD2
S315080028A04FF6C07202D0082E08BF002203A800F017
S315080028B011F8761C0A2EF0D3012C04BF012001F072
S315080028C0DBFA09B0F0BD0000CAC10208C8C1020897
S315080028D0C6C1020830F81610F05DFFF7C2BC00004A
S315080028E0616E616C6F6775652D63656C6C2D6269C9
S315080028F061732E630000000000100C0D0E0000002E
S31508002900010203040708090A0B0F000030B5044644
S3150800291010467F2808BF0020B1F5004F83B01AD1B2
S3150800292008237F2240F6120100A8FFF7EFFF0822CE
S315080029300FF2C40100A802F049F930B908237F2232
S3150800294040F2A27100A8FFF7E1FF082200A920467D
S3150800295002F0F2F837BD204D294300FB03111A4651
S31508002960204602F0E9F837BD2DE9F0440C461A492D
S315080029700FF2780A41EA0006C007154602D5622119
S3150800298000F030F8E80702D5632100F02BF8134869
S31508002990864204D3A819401E1149884202D36421ED
S315080029A000F020F8002706E0B85DFF2802D06B216A
S315080029B000F018F87F1CAF42F6D36A082146304665
S315080029C002F06EF928B15046BDE8F044712101F0D5
S315080029D0B5BFBDE8F084000000000408000804083C
S315080029E000100408504601F0A9BF00006D66672D67
S315080029F0746F6B656E2E6300FFFFFFFFFFFFFFFF1F
S31508002A0030B50FF20C11DFF8F8500A6883B001A848
S31508002A100024026001202870002002F087F930B1F6
S31508002A20002002F083F910B12C7049203EBDDFF872
S31508002A30D400018802237F220DF1020000F024F859
S31508002A4002237F22002100A800F01EF8204601A9D3
S31508002A50BDF8022031F81010914208BF0124401C2D
S31508002A600228F4D3BDF8000024B1B0F57F7F07D162
S31508002A7000203EBDB0F57F7F0CBF0620042000E095
S31508002A800720002129703EBD10B5FF2908DCDFF8B4
S31508002A907040247844B1BDE81040C9B202F079BC50
S31508002AA0BDE81040FFF732BF10BD2DE9F0410546DD
S31508002AB0FF2D0E46174698460FF24C0012DC104CB6
S31508002AC02178A1B1617811B1C22101F037FF012047
S31508002AD06070434632463946E8B202F0C4FD00202B
S31508002AE0607004E0BDE8F041CD2101F027BFBDE8E4
S31508002AF0F08103490978002918BF02F0B7BE70476C
S31508002B00B92F0020D2C10208746F6B656E2E630060
S31508002B10FE01FD0210B5DFF838451020206302F0EB
S31508002B2057FFDFF830150A6842F001020A6002F022
S31508002B3055FFDFF8240500F1080161602160923035
S31508002B4061688931616001212163E060A060DFF876
S31508002B500C15E0688930E060022020634FF6FF70AC
S31508002B60086010BDDFF8F80445F26401C1601E2153
S31508002B70416250210162C821C1618165F021C165A8
S31508002B8045F690014166882181660621C16644F2B0
S31508002B90066101604FF6FF714160DFF8C8040078EE
S31508002BA038B1DFF8C40448F2607101604FF4C151CE
S31508002BB04160DFF8B804016841F0040101600020B3
S31508002BC0DFF8AC14487070472DE9F04FDFF8881429
S31508002BD08A2283B002FB0012083200920427521C94
S31508002BE004465378127802EB0325ADB205F4406328
S31508002BF0B3F5006F05F440424FF000094FF0010AA3
S31508002C0008BF082703D0B3F5406F08BF0E271AB1CF
S31508002C106B065CBFBB1CDFB2DFF858341B784B7001
S31508002C2040180190A806019981F8029064D5DFF84A
S31508002C304864706E00065FD500983818B2F5404FA4
S31508002C404FF4806B4FF4006807D102F018FF5FEA73
S31508002C50000947D007F1080019E0B2F5004F41D145
S31508002C6000994078795C01EB002080B203F084F982
S31508002C70FF2808BFCA4609D0DFF80014096831F8EA
S31508002C8010004FF4FE6108422CD0D146B81CC0B2E1
S31508002C90410805F00702032A24D1002C14BF7268E4
S31508002CA032688A421ED3002C14BF726832684B1CE5
S31508002CB09A42F8D30099405C042813D1BAF1000F60
S31508002CC002D0B9F1000F0DD0F06DC00606D400F0A1
S31508002CD015F803D0706C40F001007064012001996A
S31508002CE0887009E0F06DC00606D500F007F803D035
S31508002CF0706C400840007064BDE8F78FB06C04B192
S31508002D00C34610EA0B0F70472DE9F04E0446DFF86C
S31508002D104863DFF864538A2000FB046000F1080B5F
S31508002D20002C0CBF28686868C1B2052903DA7068E8
S31508002D30401C706055E040005FFA80F909EB0B0013
S31508002D40A0F108073878797801EB00201FFA80FA95
S31508002D507078387003F0DFF97870C94FF86B20F493
S31508002D608050F863686E14B93868400504D4012C9D
S31508002D701FD1386800051CD5C248017889B10021E1
S31508002D8001701AF4E45FC048016802D000224020AE
S31508002D9005E09BF80100000900F001028F2003F00E
S31508002DA038FA002C0CBF4FF480604FF4006038608E
S31508002DB012E01AF4E45F0FD100F06FFD10B15FEA7C
S31508002DC04A4009D59BF80000802805DAA01949462B
S31508002DD08278584603F0E2FA002C0CBF0120022044
S31508002DE02861BDE8F08E2DE9F84F9C4CA24E20686C
S31508002DF0216CDFF898A2DFF88C82DFF85C92A44F8A
S31508002E0001EA00051AE040B14878C00605D49E4894
S31508002E10016800228F2003F0FCF9280605D503F087
S31508002E2051FA802025F080052060E80506D503F0D4
S31508002E3049FA4FF4807025F480752060002D68D01B
S31508002E40280706D50020FFF7BFFE082025F008054D
S31508002E502060E80606D50120FFF7B6FE102025F00B
S31508002E601005206005F06000602803D1B06CC0052D
S31508002E700AD401E0A80605D52020206025F0200503
S31508002E80002006E0680606D54020206025F04005AB
S31508002E900120FFF739FFE80410D54FF48050206071
S31508002EA025F48055D7F800B0082038607868000502
S31508002EB048BF00F031F91FFA8BF03860E807ACD547
S31508002EC0012020606D0899F800006D000028A4D044
S31508002ED000F05CFC0128A0D198F8000000289CD0DE
S31508002EE09AF80000042898D1F068400800F001001C
S31508002EF08A2101FB00910831002814BF72683268E4
S31508002F0012B92268D204F7D5002814BF7068306851
S31508002F1079E700202060BDE8F18F5E4800687047B9
S31508002F20F0B504460D4689B00021032001F076FC71
S31508002F3004AE1BE0002701F08CFC26F8170001F010
S31508002F4088FC00A921F817007F1C082FF3DB04A8CA
S31508002F5003F0BEFB00202080218836F8102051405F
S31508002F60401C08282180F7DB6D1EA41CEDB2002D3D
S31508002F70E0D101F0AAFC012009B0F0BD032102202E
S31508002F8001F04CBC4FF6FF71081A292190FBF1F0AD
S31508002F903A3040B2704738B501F05BFCFFF7F2FFF4
S31508002FA03D4D04462878B0B90321032001F036FCCC
S31508002FB03A48018802237F2200A8FFF7A7FC01F000
S31508002FC048FCBDF80010401880B2FFF7DBFF153843
S31508002FD068700120287001F078FC6878201A40B2E1
S31508002FE032BD80B50321022001F018FCBDE801407E
S31508002FF0D1E770B52A480078002490B9FFF7F1FFA9
S315080030001B4E0546707848B13078401B40B203F035
S3150800301070FB0B2805DB3570012402E001203570B2
S315080030207070204670BD80B540B11E49002008600A
S315080030300848016821F08001016001BD00F064FCC8
S3150800304000F03AFC00F0ECFBBDE8024000F0D0BB13
S315080030500020004084200040442C002000A00040AE
S315080030604C100040A01E0020D010004080200040D8
S31508003070D32F00209F1E002020200040141D002072
S3150800308004A00040742D00207C2D0020071F00207E
S31508003090B820004038200040D12F0020D0C10208B7
S315080030A0081F00205410004010B50D48018884B050
S315080030B00A237F2200A8FFF729FCBDF800004FF677
S315080030C0FF74A04204D14E210FF2180001F036FC1D
S315080030D0BDF8001022460020FFF7C3F81FBD000008
S315080030E0CAC10208616E616C6F6775652D66696C89
S315080030F07465722E63000000DFF81408007848B182
S31508003100DFF810080179012904BF4079042801D1A4
S315080031100120704700207047DFF8FC07016821F49A
S3150800312080510160DFF8F407017881B10021017050
S31508003130DFF8EC170A68520852000A600A6842F07B
S3150800314001020A6000228168402003F062B87047D5
S315080031500FF66401405C7047010603D54FF67F7190
S315080031600840C00070478001B0FBF1F080B2FF282C
S315080031708CBF0020C0F1FF00C0B2704738B5DFF839
S315080031809C07C178012901D1002032BDDFF8984794
S31508003190617871B1E178407945182079ADB28542F8
S315080031A028BF054603F0BEFA0121A940491E08407A
S315080031B000E0002061790818C0B232BD2DE9F04759
S315080031C00446C00705D54FF4B8710FF2DC7001F05C
S315080031D0B5FBDFF85857286DC00748BF8C2000F1AB
S315080031E09480DFF83807DFF8407700210171017015
S315080031F04178B1B93978A1B12178122918BF0C29BB
S315080032000BD1627802F00702032A02BF091911F8E6
S31508003210021C042904BF01210171A96F41F00101B3
S3150800322002E0A96F49084900A967DFF8E8867A78B5
S3150800323098F80610DFF8F896DFF8F86692B10022DB
S3150800324042710129286D40F00400286506D14FF621
S31508003250FF7030604FF40070C9F80000FFF78EFF6A
S3150800326082460CE0286D20F00400012928654FF0FD
S31508003270000A04D100F043FA642000F065FEA86F46
S3150800328020F00800A8671420E864C5F848A07878F4
S3150800329038B198F80600002801BFA86C002801205C
S315080032A0A864B8790028286D14BF40F0080020F0FB
S315080032B008002865FFF720FF18B1306C40F00800B9
S315080032C03064202028626C602C604FF4E0646868E3
S315080032D07F30686004202862DFF85C06046006E038
S315080032E003F030FA18B103F035FA02F071FBDFF893
S315080032F04C06006800F003000328F1D0C9F8004026
S31508003300286D40F0010028650020BDE8F087DFF849
S315080033103006002141608160016821F002010160E8
S315080033204FF00070DFF81C1608600120DFF8181649
S3150800333008707047A0F13301DFF81026914200D3D8
S31508003340704710B5DFF800460021217000F083FBB6
S3150800335002E0012003F002FA20780028F9D010BD17
S315080033602DE9F84FDFF8E865DFF8B0557068716C3D
S31508003370DFF8B87508401FFA80F8C6F80480687840
S31508003380002840F0DD805FEAC870DFF8C845DFF83E
S31508003390989553D5D7F800A0386C796C41EA004166
S315080033A099F80000A960002844D09AF80100800620
S315080033B040D5012028704FF480503060306C40F4BE
S315080033C080503064FFF798FEC0B3192000F0BCFDAA
S315080033D04FF44040DFF880B5CBF82800DBF8000052
S315080033E00090E06E40F40050E066E06E40F48050D5
S315080033F0E0669AF80010A8684901B83101EB000A9E
S31508003400FFF78BFDAAEB00000003000BFFF792FF06
S31508003410E06E80098001E06600A9E06E098808432D
S31508003420E0660020CBF8280048F26070E066E8887D
S31508003430206003E00022002002F0EBFE5FEA08604D
S315080034400CD5287830B1002028700022A9684020C1
S3150800345002F0DFFE306C20F4805030645FEA48608A
S3150800346008D5687830B9FFF758FD0146002289204B
S3150800347002F0CFFE5FEAC86054D5DFF898A4DFF8FB
S31508003480B0B49AF80400012804BF9AF80610012976
S315080034901FD100F077FE386F40F001003867002032
S315080034A08AF80600FFF736FB0A2000F04DFD4FF6B6
S315080034B0FF7070604FF000084FF4E060CBF8000032
S315080034C00920B8660120B864B86F40F00800B867EC
S315080034D018E0697999F80220491C6971C9B29142C4
S315080034E015D2012808BF00F0CDF8B86F20F0080003
S315080034F0B8671420B866FFF741FEB8644FF4007049
S31508003500CBF80000386D40F0010038650AE0012864
S3150800351008BF00F0B7F8FFF700FD014600228D202E
S3150800352002F077FE5FEA08700AD5FFF7E5FD38B1C5
S315080035302068E88001202060706C20F00800706424
S315080035405FEA88600AD520203862687830B9FFF7C4
S31508003550E4FC01460022882002F05BFE687820B170
S3150800356018F4407F04BF0120A870BDE8F18F70B53C
S3150800357082B00446FFF730F8DFF8E803DFF8A05317
S31508003580002101601521E960092101651F214160BB
S3150800359001210166DFF8C8030088FEF7A6FEFFF7DB
S315080035A0E1FA03F00DFC00F03EF9DFF868633089B4
S315080035B000F066F9708900F06BF902F009FA69689B
S315080035C041F04001696002F009FA707800F000F9EC
S315080035D0B07800F00DF9DFF89003007800F03AF9BA
S315080035E0DFF8880390F90000FFF735F8307800F027
S315080035F057F996F9030000F05FF9DFF8740300F055
S315080036007DF9BDF80000DFF86C13C0054CBF00203B
S31508003610BDF800000870DFF860030078FEF7DEFFEB
S3150800362028B10FF2843040F2B63101F087F9012C47
S3150800363005D12868C00711D500F024F80EE06CB94A
S315080036402868C0070AD400F09DFD286840F00100EC
S315080036502860C82000F078FC0020B071F120DFF85F
S31508003660D442206440F2F910E063FFF753FA286861
S31508003670C00704D54FF6FF70206000F06DF800F023
S3150800368083FB73BD70B5DFF8F452DFF888422E6805
S31508003690A079012832D002F09BF948F2D0012960BE
S315080036A06A68520509D548F222022A606A68D20574
S315080036B0F5D529606A685207F1D4B6B2DFF87822E0
S315080036C02E604FF4E0611160DFF890120A6A520822
S315080036D052000A620A68520852000A600A6842F0F2
S315080036E002020A604A6A42F001024A620121A17195
S315080036F002F074F9BDE8704000F015BD70BD70B5F4
S31508003700844CA07938B300F03DFD02F061F9054616
S31508003710DFF86C12834E01200860306D40F001001E
S3150800372030650020A071FFF7F5F920203060306B76
S3150800373040F002003063F06D40F00800F06528465E
S3150800374002F04CF90A2000F0FFFB7A494FF6FF70A9
S31508003750086000F001F870BD4FF4E0607449086035
S3150800376070476C488079704710B56A4CA07928B1C3
S3150800377040F2A7410FF2302001F0E0F82079012845
S3150800378004BFBDE81040FFF77DBF10BD6148007952
S31508003790704780B5022801DB012002BD5D4908712A
S315080037A08979884205D010B9FFF7A9FF01E0FFF72C
S315080037B069FF002002BD73480068800200149A3829
S315080037C001B211F1800FB8BF6FF07F0040B27047A9
S315080037D010B5044602F0FCF86B490A68002C14BFC1
S315080037E042F0120222F012020A604A494C7040E086
S315080037F038B5044602F0ECF8054600F034FD40B949
S3150800380061480168002C14BF41F0800121F0800155
S315080038100160404884702846BDE8324002F0DEB8B0
S315080038203C488078704759494A780B78584803EBE2
S31508003830022202608B78CA7803EB022242600B7977
S315080038404A7903EB02228260CA79897901EB02215F
S31508003850C160704710B5044602F0BAF84A490A68CA
S31508003860002C14BF42F0200222F020020A603E49D2
S315080038700C70BDE8104002F0B1B8264800897047C0
S31508003880244908814349086070472248408970479F
S315080038902049488140490860704740480078704789
S315080038A01F490A68002814BF42F0020222F00202E9
S315080038B00A6018490870704738B504467F2C0AD143
S315080038C0374800F01BF8BDF80000C00554BFBDF826
S315080038D000406FF04A0402F07BF8054600F0C3FC8E
S315080038E030B964B204F19A0080052E49000C0860CC
S315080038F00848C470284602F071F831BD01880223D1
S315080039007F2200A8FFF702B8024890F90300704723
S31508003910D92F0020021F002040A00040742D00204F
S315080039208020004030200040DC1E0020102000408F
S3150800393000E100E004A0004080E100E0A82000408B
S3150800394010E000E004ED00E0DA2F0020CDFF0700CC
S3150800395000A0004064100040E410004060200040D1
S31508003960B01E00205C100040D82F0020A41E0020A6
S31508003970DCC10208BD2F00209F1E00201C1000403D
S31508003980281000400C10004084200040F82B00202E
S31508003990982000409420004090200040001F0020FE
S315080039A0E0C10208541000407068792D636F6D6D90
S315080039B06F6E2E6300000000FEFEF7F7C8C8010010
S315080039C0DFF834145120086070472DE9F0410546A8
S315080039D003F00AFADFF82414B0FBF1F64FF4F0709E
S315080039E0B0FBF6F71E2D3FB201DBE81B04D5A8B2E3
S315080039F0BDE8F04100F0A8BA01F0EAFF804603F0FE
S31508003A005FFADFF8FC13DFF8FC2301204870072172
S31508003A10DFF8F40300F041F8E91B09B27143C91C49
S31508003A208908491EDFF8E453416000F0BDF8DFF865
S31508003A30C8733C68386820F04000386003F042FAE2
S31508003A403C602E6003F042FA03F048FA4046BDE8AF
S31508003A50F04101F0C3BF38B5054603F0C5F9DFF8F4
S31508003A609C13B0FBF1F44FF4F070B0FBF4F02D1A90
S31508003A701E2D04DA95210FF2D43000F05FFFDFF82F
S31508003A808803DFF88023072100F007F805FB04F117
S31508003A90C91C8908491E416031BD01600021416089
S31508003AA081604FF0007111607047DFF854230121DF
S31508003AB05170D0E7DFF85803006800B970472DE960
S31508003AC0F041DFF85053DFF8506300242C6034606F
S31508003AD04FF4A040706041F29A084046FFF775FF20
S31508003AE06F6803F089F9000142F21071B0FBF1F03A
S31508003AF000F5C870C01B00B24FF4487190FBF1F096
S31508003B0000B20828A8BF072004DA10F1080FB8BFCA
S31508003B106FF0070030604046FFF757FF082740461A
S31508003B20FFF753FF686804197F1EF8D103F064F99C
S31508003B30211D4001C908B0FBF1F080B27060BDE8F4
S31508003B40F081DFF8CC02006800B9704738B5DFF8B5
S31508003B50CC5201206FF00F04A8602C608020FFF77C
S31508003B6034FFE868FF2802D8641C102CF5DB31BD49
S31508003B7070B5DFF8AC02016841F00101016001216E
S31508003B80416001F025FF0446DFF8805200F00CF88A
S31508003B905120DFF8641208602E6003F097F920467A
S31508003BA0BDE8704001F01ABF2E682868400840003A
S31508003BB0286003F08BB9002070472DE9F041944A3C
S31508003BC08F4D146840F2DC51012C8846954E964F6D
S31508003BD015DA0221B9803160B16901F003010329C0
S31508003BE059D0002C03D5B16941F00201B161FFF744
S31508003BF0E2FF5FEA00081AD1002C4CD549E0B888E4
S31508003C004FF6FF74A0421DD18848018802237F22FF
S31508003C10381DFEF77BFEB888A04204BF0220B88094
S31508003C20B069800703D4B06940F00200B061012092
S31508003C30A870B88830600FFA88F0FFF736FF40465C
S31508003C40BDE8F081B3699B07EDD5AB780BB10846A3
S31508003C50F6E7B168B36811F0010103D10F2809D25C
S31508003C60401C06E09B0705D53B781BB1032801DB02
S31508003C702018B880B88839700228BCBF0220B880DE
S31508003C803068B9888842D2D1B06900F003000328A9
S31508003C9001D0FFF76DFF0020D2E72DE9F0478046F7
S31508003CA00024554D594E01F093FE814603F008F95C
S31508003CB04046FFF782FF08B901240AE000F05DF8E4
S31508003CC0D5F800A000F0BCF8C5F800A0376003F0EE
S31508003CD0FDF803F003F9484601F080FE002CE2D017
S31508003CE0BDE8F0870220D8E710B54748444C0021C4
S31508003CF041608160016821F0020101600020607066
S31508003D004FF000703F490860A07838B10020A070D5
S31508003D100620FFF750FF00F02BF81CDBE07801289F
S31508003D2014D143480121016042490968C90748BFBF
S31508003D3003200FD40221E170016C41F001010164F6
S31508003D4004203D4908603D49086010BDE078042814
S31508003D5001D10520E07010BD80B5294840780028BB
S31508003D601CBFBDE80140FFF7BFBFFFF7D0FA01BD92
S31508003D702748006801287047244E3768306840088D
S31508003D804000306003F0A2B82DE9F8431C4C2078B7
S31508003D9000282DD0207900282AD1FFF7E9FF1FDA5D
S31508003DA040F2EF310FF2A40000F0C8FD18E001F070
S31508003DB00FFE804603F084F8E07805280BD0FFF75D
S31508003DC0DBFF0D4DD5F8009000F03AF8C5F80090E5
S31508003DD0376003F07BF803F081F8404601F0FEFDFA
S31508003DE0E0780528E3D10020A0700520FFF755FFED
S31508003DF000202070BDE8F1830080004090D00300C9
S31508003E00CC2F002004ED00E010E000E094ED00E087
S31508003E1014BD0208104000400C0000400840004055
S31508003E201C40004004400040F41E0020DAC102088D
S31508003E3018A000400C40004080E200E000E100E0ED
S31508003E40286820F04000286003F03CB8636C6F6374
S31508003E506B732E630000000010B5664C002000F05E
S31508003E603AFD40F68C2188422068B4BF40F008002D
S31508003E7020F00800206010BD10B504465E48018891
S31508003E8082B000F05CF89DF800109DF80100FF294B
S31508003E9002BFFF280420002104B1801C574A13687A
S31508003EA0C0B20828A8BF072023F4607343EAC010ED
S31508003EB0106008291068A8BF0721C00841EAC00099
S31508003EC010604F48047013BD00B54E48018883B092
S31508003ED000F035F8BDF800004FF6FF7188420EBFB6
S31508003EE04FF4E1600A2190FBF1F0ADF80000444878
S31508003EF0007808B34048018802237F2201A8FEF70C
S31508003F0005FD9DF80500BDF80030FF2808BF042010
S31508003F10811CC9B20829A8BF0721C1F12F0202EBEB
S31508003F20D272C0F12F00521000FB0320C1F12F01FD
S31508003F30B0FBF1F0ADF80000BDF800000EBD02239D
S31508003F407F2200A8FEF7E2BC70B52F4C256806460E
S31508003F5002F052FF2D49B0FBF1F070432F303021AB
S31508003F60B0FBF1F0032809D3616D41F001016165E9
S31508003F702168491B0903090B8142F9D370BD10B5A5
S31508003F80040004D110BD4FF47A70FFF7DDFF204618
S31508003F90441E80B20028F6D110BD704738B50C46CD
S31508003FA020B101280FD0032820D021E0184D44B1B4
S31508003FB002F022FF1749B0FBF1F0401EB0F5005F92
S31508003FC00CD2286012E04CB102F016FF610801EB32
S31508003FD04000B0FBF4F0B0F5003F01D3202032BD1D
S31508003FE00D4900F001024A6040080860002032BD11
S31508003FF0212032BD00BC0040CCC102081800004098
S31508004000C02F0020CEC102083820004090D00300FF
S31508004010100004E020A1070068C8004038B5012058
S31508004020FFF7CBFD0020FFF727FFDFF87042206877
S3150800403040F00800206002F0E6FEFFF70DFF00F0F2
S3150800404020F88D78DFF85832DD600D8905604D89D6
S31508004050456000F01EF8206820F010002060FEF78A
S31508004060CAF803F06DF803F0CDF8FFF73BFE02F04F
S31508004070C8FEBDE8314002F0E4BE40F2016003F03C
S315080040805DB9884988480A78C2604B78874AD36000
S31508004090704788891060C8895060088A1860488AFD
S315080040A0586040E0F0B50B68814C0F2524689600EF
S315080040B005FA06F6344215D0002606EB820724FADE
S315080040C007F7FF070BD5B70005FA07FC23EA0C0329
S315080040D030F812C005FA07F707EA0C073B43761CC7
S315080040E0042EEADB0B60F0BDF0B50B68704CFF25BB
S315080040F02468D600B5402C4213D00025012605EBCE
S31508004100C20724FA07F7FF0708D506FA05F7BB43DF
S31508004110175C06FA05FC0CEA07073B436D1C082DDD
S31508004120EDDB0B60F0BD10B561480068002825D0AE
S3150800413000F054F8201DFFF7D7FF01225D49201D26
S31508004140FFF7D2FF02225C49201DFFF7CDFF0022B0
S31508004150554900F014F80122584900F010F80222D7
S31508004160524900F00CF80322554900F008F80422D9
S315080041704B4900F004F804F1140036E010BD04F1D0
S3150800418014008FE710B54A480068002825D000F0CB
S3150800419025F82046FFF7A8FF012246492046FFF7E3
S315080041A0A3FF022244492046FFF79EFF00223E490C
S315080041B000F018F80122414900F014F802223B49A0
S315080041C000F010F803223E4900F00CF804223449A6
S315080041D000F008F804F1080007E010BD314C394931
S315080041E00022704704F108005CE7BDE8104005228C
S315080041F0354957E70320FEF77CBC80B503F0A7F9DD
S315080042000FF2D40109E080B503F0A5F90FF2F40125
S315080042100204120E51F82210C0B201EB800002BD52
S315080042200000000010B503F092F9044603F093F974
S31508004230C0B208B9012C07D1072C11D8DFE804F061
S3150800424004100608080A0C0E002010BD092010BD2F
S31508004250022010BD032010BD0B2010BD062010BD86
S3150800426044F0800010BD19480078704717488078D8
S31508004270704718484FF40041C1600821016013498E
S31508004280887850B1124800680B78800900F0010060
S3150800429083421CBF0870FEF7C6BE704700BC0040CC
S315080042A000B80040D41D002000B0004000B4004013
S315080042B0282200200CB400400CB8004004B000408E
S315080042C004B400400CB0004004B80040B12F0020F0
S315080042D008B0004014A80040554E4B00464942001D
S315080042E042544C0045585400505752005744470012
S315080042F02053570043525300465348004241440056
S31508004300464C540018BD02081CBD020874BD0208BC
S3150800431094BD02089CBD0208A8BD0208B4BD0208E7
S31508004320C0BD0208C8BD0208D4BD0208E4BD020823
S315080043302A490A68920992010A600A6810430860C5
S315080043404FF4004126480160002101606420FFF710
S31508004350FBBD2DE9F047234D204FD5F80090224CA0
S315080043608046286840F400402860386820F4805069
S315080043703860207868B162781C48A17800EB820220
S3150800438000EB880012F82A2C10F82A0C891A46180D
S3150800439002E0012020262070B0B2FFF7C9FF0FF215
S315080043A0500A02E0B0B2FFF7C3FF386B042805D005
S315080043B0386B400754BF761E761CF3E7F86A38B1A7
S315080043C084F80180A6701FFA89F02860BDE8F08796
S315080043D040F22111504600F0B1FAE6E7D01000404D
S315080043E0181000401C100040D52F00209027000808
S315080043F0616E616C6F6775652D76636F2E6300005D
S3150800440081014FF4FE5289B20C20FDF72ABF2DE92F
S31508004410F84F8F4CA56820680127ADB200264FF0EB
S315080044200A08B9461FFA80FA00F04FFAB02020634E
S31508004430DFF820B208E016F1190FB8BF4FF00A08E6
S31508004440464436B27019A060DBF80000000702D5B2
S3150800445059EA070028D00120FFF776FDB9F1000FC9
S3150800446011D0AAF10300874202DAF81C87B213E0DA
S315080044700AF50040206057460621092000F0CEF9CB
S315080044804FF000090BE0DBF80000000707D5042F02
S31508004490A6BFF81E87B2002707F5004020601A2E2F
S315080044A0C9DB6FF00908CBE7A560C4F800A00820AF
S315080044B0CBF800006848006880B2BDE8F28F80B586
S315080044C0624B66491B784FF0FF326BB1002819BF63
S315080044D04A606348486041F21110086061484188A3
S315080044E00088BDE8044092E7002819BF4A600A60C0
S315080044F04860086000F0E9F9BDE804400621092093
S3150800450000F0DDB938B50120FFF7D9FF04460020D1
S31508004510FFF7D5FF05460120FFF7D1FF4042001BF4
S3150800452000EB450000B232BD2DE9FE4F4E4CDFF8D8
S315080045303C81A06A454EADF802002568D8F800B05F
S31508004540307860B14FF6FF7200210820FDF782FE31
S31508004550ADF80000C022C0210820FDF782FE4448BD
S31508004560DFF81091007818B148F26070C9F80000B9
S31508004570708840F4404040F04C00C9F83C000220E6
S31508004580A0620120206040F24C40FFF7DDFC0120CC
S31508004590C8F80C00C8F800000020324F38804020C8
S315080045A07880307800B12020FFF72AFFFFF7AAFFAE
S315080045B08246402038807F207880FFF721FFFFF76A
S315080045C0A1FF0290504602F094F8FE2101FB00F785
S315080045D00298AAEB00000190307860B1029802F0C8
S315080045E088F88246019802F084F880B207EB8A11AF
S315080045F0B1FBF0F005E0019802F07BF880B2B7FB5A
S31508004600F0F080B2401CC7031FFA8BF0C8F8000010
S31508004610ADB20020C8F80C00022020602560BDF865
S315080046200200A0620020C9F83C00307830B1BDF81D
S3150800463000104FF6FF720820FDF713FE40F24C40BB
S31508004640FFF782FC380CBDE8FE8F0000FC1E002038
S31508004650C010004018A0004000700040381000400C
S31508004660EEEEFFFF942F0020602000402810004047
S31508004670A01E0020D010004041003F2289B201E070
S3150800468001463F220220FDF7ECBD2DE9F04F564CBE
S31508004690564D95B0E06CADF810004FF6FF782068DF
S315080046A0ADF80E004246E86AADF80C00002101207C
S315080046B0FDF7D0FDADF80A00424600210B20FDF7B4
S315080046C0C9FDADF808004FF40040206000202861BD
S315080046D0686148F2020000F08BF84CF68C30E06412
S315080046E04FF4805248F2F000E86211460120FDF7C7
S315080046F0B8FD424600210B20FDF7B3FD0621062032
S3150800470000F0DDF8019000F085F800904CF69C303A
S31508004710E0640020FFF7B0FF0621084600F07EF8A7
S3150800472000260DF1140BB0B2FFF7A6FF06210620EE
S3150800473000F074F800F08DF82BF81600761C202E81
S31508004740F1DB00F086F81020FFF796FF00F062F81C
S315080047500099019A401ABBF82010891A404301FBB8
S3150800476001094FF0100A112700F04EF800F052F830
S3150800477000F043F806DB81461FFA87FA781C07B271
S31508004780202FF1DBBAF1100F0ED10F2700F03CF8FD
S3150800479000F040F800F031F806DB81461FFA87FA88
S315080047A0781E07B2002FF1D5BDF81000E064424626
S315080047B0BDF80E002060BDF80C00E8620120BDF8C7
S315080047C00A10FDF74EFDBDF8081042460B20FDF70E
S315080047D048FD01202861002000F00AF84FEA4A0047
S315080047E0C0B215B0BDE8F08FC010004018100040E8
S315080047F0286040F24C40FFF7A7BB0099401A404397
S3150800480006FB0600484570473BF817000199461A0B
S31508004810B8B231E70621072000F051B870B5054651
S315080048200E4602F04DFB3D4C206C20F0080020643B
S3150800483002F054FB01F0CCF8310341EAC511384ABD
S3150800484041F00101116008212160BDE8704001F0C6
S31508004850C5B82DE9F041334C334D304E25E002F012
S315080048602FFB324904200860306C40F008003064A1
S315080048702F68286840084000286002F027FBD4F813
S315080048800080206820F04000206002F01BFBC4F87E
S3150800489000802F6002F01AFB306C254920F00800D2
S315080048A030640420086002F019FB30680007D6D58A
S315080048B0082030601F48006880B2BDE8F08180B5E6
S315080048C0FFF7ACFFBDE80140C3E715480168490892
S315080048D0490001607047F8B50746FFF7F5FA044640
S315080048E039460320FFF7EBFF054639460120FFF757
S315080048F0E6FF064639460020FFF7E1FF08490A6841
S31508004900520852000A60401B0004711BB0FBF1F00C
S3150800491060434000000CF2BD0000000018A00040F3
S31508004920047000400080004094ED00E000E100E0E3
S3150800493080E200E00070004042DE704738B5044669
S315080049400D4602F069FA01F043F82946204602F0BE
S3150800495038FE2B4622460FF2CC11012003F09AF8B6
S3150800496029462046BDE83440E6E72DE9F84F654874
S31508004970654D01682E1D4FF4206A7165016AB1659F
S3150800498062490968F165416A3166816A7166C16A78
S31508004990B166016BF166806B306796F834004007A4
S315080049A04CBFF76BB76BBB4602F067FD0022584C4D
S315080049B0DFF86081DFF86091F2648742014624BF20
S315080049C0A4F12003BB4231651DD357F8180F306494
S315080049D057F8040F7064706DC005C00D062815D110
S315080049E0306C484512D3404510D200884DF64262D5
S315080049F090420BD105F18C006A68426040F2017A58
S31508004A007268826002E03264726483464348814277
S31508004A1002D2014600E0091DA14203D20B68B3F198
S31508004A20CD3FF8D0601AB064182105F1780003F07C
S31508004A3071F8002003E0C0B205EB80029167A34538
S31508004A4023D254F8041D4945F9D34145F7D2CA077C
S31508004A50F5D5002205EB82039B6F8B4203D0521CCF
S31508004A60D2B2062AF6DB062AE9D1002814BF401E70
S31508004A700520E0E7716F002205EB8203521CDF6F09
S31508004A809F67052AF8DBC5F88C100146481EC9B28F
S31508004A900029EFD1706DC005C00D02280AD0032881
S31508004AA015D0042816D0052817D0062818D00C28A3
S31508004AB01CD01EE01A480168890748BF40F6021A4A
S31508004AC01CD40068C00719D540F2025A16E040F611
S31508004AD0012A13E040F6022A10E040F6032A0DE008
S31508004AE0BAF5206F0AD140F6042A07E040F6052AEF
S31508004AF004E018B1242838BF40F6072A5046BDE816
S31508004B00F28F000004ED00E00000002000E300E062
S31508004B10781C002002540208902100089800002002
S31508004B201CA000400D0A5B4153534552543A257068
S31508004B303A25645D0D0A0000814233D210185118D7
S31508004B40401E491E10E011F8013900F80139121FFC
S31508004B5011F8013900F8013911F8013900F801395D
S31508004B6011F8013900F8013992B2042AEBDA92B247
S31508004B70002A1EBF11F8013900F80139521EF6D174
S31508004B80704711F8013B00F8013B121F11F8013B71
S31508004B9000F8013B11F8013B00F8013B11F8013B15
S31508004BA000F8013B92B2042AEBDA92B2002A1EBF41
S31508004BB011F8013B00F8013B521EF6D1704713006D
S31508004BC003D00A46194602F0A9BF704710B500E09F
S31508004BD0521E92B222B100F012F8F9D0181B10BD7D
S31508004BE0002010BD10B500E0521E92B22AB100F0A6
S31508004BF006F8F9D0181B40B210BD002010BD10F8F9
S31508004C00013B11F8014BA342704700004148018A55
S31508004C1040F6A772914202BF408A4FF47F4108428C
S31508004C2003D1022801DB01207047002070472DE9D7
S31508004C30F84F8246884600F0CBFE374D2F6804466B
S31508004C40286840084000286002F040F90120DFF893
S31508004C50C0B08BF80000FFF7D9FF20B9FF210FF28B
S31508004C60BC00FFF76BFE2B48D0F8289041464AF463
S31508004C708070C84706462F6002F028F9204600F0E3
S31508004C80ADFE00208BF800000FF298040EB1305DDF
S31508004C9004E041464AF40070C847005DBDE8F28F5B
S31508004CA02DE9F84F804689464FEA420A00F090FE01
S31508004CB0194E37680546306840084000306002F0F3
S31508004CC005F9FFF7A3FF28B94FF4A1710FF24C00BD
S31508004CD0FFF734FE0F48D0F824B000235246494661
S31508004CE04046D8470446376002F0F0F8284600F0F8
S31508004CF075FE0FF230050CB1605D05E053460022E3
S31508004D0049464046D847405DBDE8F28F000000009E
S31508004D10CB2F00200000040894ED00E0666C617358
S31508004D20682E6300000202024B4B46472DE9F947FD
S31508004D3088B01B22FF2101A8FFF741FFDFF8D490B6
S31508004D406622FF214846FFF73AFF36254FF01B0A31
S31508004D5036210FF2E40002F015FF0FF2CC08002707
S31508004D602D48385C411C01EBD1714C102B497E5CF7
S31508004D70FF2803D170214046FFF7E0FD7F2E03DBB5
S31508004D8071214046FFF7DAFD2548385C00B1193431
S31508004D90601C00FB06F4234830F817100FF2B40025
S31508004DA03346A2B202F0EEFE6519012E1CBF29F8A1
S31508004DB017A0B2447F1C1B2FD2DB40F21C44A5422D
S31508004DC034BF13A30FF2EC031B2000902246A9B2AE
S31508004DD00FF2A80002F0D6FE40F21D4085420ED31F
S31508004DE002F01AF800F0F4FD23462A460FF2D00125
S31508004DF0012002F04FFE9D214046FFF79FFD9DF8DA
S31508004E00200001A900F036F90AB0BDE8F0870000D5
S31508004E106F6B0000582A0020D8BE0208F4BE0208AC
S31508004E20BCBE020884BE020873696D2D6565707282
S31508004E306F6D2E6300000000546F6B656E206F76F1
S31508004E406572686561643A20256420776F726473B9
S31508004E500A00000043726561746F723A2030782543
S31508004E6032582C20576F7264733A2025642C2043DD
S31508004E706F756E743A2025640A00000053696D4503
S31508004E804520646174613A20256420776F726473E3
S31508004E90206F66202564206D617820282570292CCE
S31508004EA020746F6B656E436F756E743A2025640ABD
S31508004EB000000000544F4F204C4152474500000067
S31508004EC00D0A4552524F523A2053696D45452064A2
S31508004ED061746120746F6F206C617267652E202083
S31508004EE0436F6D70696C696E6720776974682025F1
S31508004EF06420776F72647320636F6E73756D656473
S31508004F002E20204D617820616C6C6F77656420696E
S31508004F10732025642E0D0A0010B5DFF8444ADFF821
S31508004F20443A2488001B03EB4000002304E030F8D1
S31508004F30134021F813405B1C9342F8DB002010BD98
S31508004F402DE9F04182B004460D4616460027DFF8E3
S31508004F50148A01E0B81CC7B2B74217DA7819795D26
S31508004F604078DFF8FC391B8801EB0020ADF800001B
S31508004F70012207EBD77004EB6000C01A00F06EFB45
S31508004F800028E7D002F021FE002000E00120BDE85D
S31508004F90F681F8B504460E46154600270DE000F0E2
S31508004FA019F8BDF8000004EB4701000A4870761CA2
S31508004FB0BDF8000004F817007F1CB7EB550FEEDBB1
S31508004FC0E80706D500F006F8BDF80000291901F82B
S31508004FD0010CF1BD012200A9B0B29DE7DFF88029D6
S31508004FE0DFF880191288801A01EB40010220FFF7CA
S31508004FF01EBEDFF87419DFF87429415C825CDFF89D
S315080050007039C05C10B102F5997292B241EAC210C9
S3150800501080B2704710B5DFF85C39DFF84C4903EB0E
S315080050204002005D012801D1104610BD10880818FD
S3150800503003EB400010BD38B50C46DFF83C190D7877
S315080050402A462146FFF768FF208800281CBF4FF62E
S31508005050FF7188420AD0012000E0401CC0B2A84275
S3150800506006D234F8101022889142F6D0002032BDBC
S31508005070012032BD2DE9F24F0446DFF80069002011
S31508005080307070809CB0DFF8F8080088ADF8020030
S3150800509007A9FFF7D0FF83460120707009A9DFF83A
S315080050A0E4080588DFF8E008B0F80080DFF8B00803
S315080050B0BDF802A007883846FFF7BDFFB8B1BBF1B7
S315080050C0000F3CD0BDF81C10BDF824004FF6FE7248
S315080050D0914202D1012804D10CE0012908BF90426F
S315080050E02DD00846BDF82410884228D202E0BBF12C
S315080050F0000F23D000207070029750460695CDF811
S3150800510010800122DFF8701891F800804044ADF84D
S31508005110060000A9BDF80600FFF7FEFEDFF86C08DA
S31508005120008805904FF6FF79BDF80000000B404552
S3150800513018BF0F2800D10CB3002516E0012470789B
S315080051400128D9D13846CDF808A0CDF8188004959D
S31508005150D7E7059805FB00F4E01900F025FCBDF833
S315080051600200201800F020FC6D1C4545F1DB0120EB
S3150800517030704D2002F029FD0025FCE0BDF80650F0
S31508005180012201A92846FFF7C7FEBDF80400C0435F
S31508005190C0B2ADF804006F1CDFF8F4070588BDF847
S315080051A00400A84218BF01244FF0000A20E0401C62
S315080051B0C1B2A94218D2C0B2DFF8D817BDF80E207E
S315080051C0834631F81B109142F1D1FFF712FF4FF6D3
S315080051D080710840BDF80C104FF680721140884265
S315080051E004BF1C980BF800A00AF101001FFA80FA08
S315080051F0BDF80400824507DA022203A9B8B2FFF710
S315080052008BFEBF1C0020D3E7002001E0401C80B2C3
S31508005210A84217DA1C99415C8142F7D0012411E0B3
S315080052202AF81070BDF8060000EB4300401C00F099
S31508005230D2FABDF80200C0F3C710401C00EBD070CC
S3150800524007EB60070498DFF82CA7BFB2874211DA8C
S31508005250012200A93846FFF75FFEBDF80000484561
S3150800526008D0030A00F07F01BDF804007F1C8342C2
S3150800527002DB012400252DE0002001E0401C80B25D
S31508005280A842CFDA1C9A825C9A42F7D1C0B2FF28AC
S31508005290C8D0DFF8D426825C7F290CBF4FF0000CFB
S315080052A08C46944509DADFF8C8E6BDF800C010F860
S315080052B00EE0CCF3C01CF44501D00124B2E7012A64
S315080052C0AED07F293AF8100008BF00210818A7E7D2
S315080052D06D1CADB2DFF8C0060088854204DA3AF8DC
S315080052E015004845F4D1012477800498BDB285425B
S315080052F00ADA012200A92846FFF70EFEBDF80000CB
S315080053006F1C4845F1D034E7002CFCD102980122E5
S315080053100BA980B2FFF700FEBDF82C0048450DD159
S3150800532005E0401C80B2202813DB2034A4B206997D
S31508005330029A891A8C4205DB0120307000201DB0C4
S31508005340BDE8F08FA51820220BA9A8B2FFF7E4FD47
S3150800535000200BA931F810104945E2D0A8B2FFF792
S315080053603DFE203CA4B2E0E70298059905FB010042
S3150800537000F01AFB6D1C4545F6DB012030704946E6
S3150800538000F043F818B100F02DF90028D6D1012015
S31508005390D5E72DE9F84504460F46164698463146A0
S315080053A03846FFF737FEDFF8E815B0F800A0098899
S315080053B0DFF8B8558F420AD2DFF8AC05385C7F2E85
S315080053C008BF0026864202DA785D804503D040F29F
S315080053D0864100F0FCF9DFF89805385C68B151465B
S315080053E0384600F029FA795D012908BF20700AD0ED
S315080053F0022914BF2060208005E042465146204617
S31508005400BDE8F845C5E5BDE8F1852DE9F34FDFF8B8
S315080054105005DFF864150488DFF8600509784078D8
S3150800542083B000281ABFDFF85805008820460D18F3
S31508005430DFF85C050088ADF80800ADB2C043C0B21D
S3150800544000EB013000F55060ADF802002B1BDFF8C9
S31508005450140500F0C6F96E1C0028B6B238D100252E
S31508005460DFF8307514E0E8B2FFF7C3FDADF80400C5
S31508005470331B37F81500ADF806000222DFF8E404FE
S3150800548000F0ABF8002823D1B61C6D1CB6B2ADB23D
S31508005490BDF808008542E6DB002501E06D1CADB2CB
S315080054A0BDF80800854280F293804FF0000A1CE0A0
S315080054B001220DF102011FFA89F0FFF72DFDBB1934
S315080054C0DFF8A0041B1B09F1010900F08AF900287E
S315080054D078D17F1CFFB2B7EB1B6FE9DBDFF8BC04A2
S315080054E0285C8619B6B20AF1010ADFF87C0415F8B9
S315080054F000B05FFA8AFADA45D0D25146E8B2FFF729
S3150800550089FD8046DFF86804B8F800902F5CF8013A
S3150800551040EA0520ADF80000BBF1010FBDF8000018
S315080055200CBF40F07F004AEA0000ADF80000311BCE
S31508005530DFF8300400EB4100711C89B201914FF687
S31508005540FF7189451EBFBDF80010BDF810209142B5
S3150800555018D19DF80C100029C5D0012200A9FFF723
S315080055609FFB019E70BBDFF80404A8F800602A5C64
S31508005570DFF82C0450F82510B0B2FFF7E1FC00283C
S31508005580ACD122E0DFF8E413695C491C01EBD17168
S315080055904FEAC15B012200A9FFF782FB019E88B989
S315080055A0002FA8F8006095D04946E8B200F044F903
S315080055B00190331BDFF8AC034FEA1B6200F00DF8CD
S315080055C000288BD002F001FB002005B0BDE8F08F63
S315080055D0DFF8A80346800120F7E701A900EB43009E
S315080055E0FFF75EBB2DE9F041DFF89403DFF88C5333
S315080055F00688DFF86C0304886878002882B012BF32
S31508005600204630462646012200A9FFF785FCBDF84C
S315080056100000DFF8508301280CBF4FF6FE70401ECD
S31508005620ADF80000DFF8500307783846471E58B132
S31508005630BFB2B819001B012200F010F80028F4D0F8
S3150800564002F0C3FA002007E06978481E8041C00FBF
S315080056506870002028700120BDE8F68100A908EBD3
S315080056604000FFF71DBB2DE9FE4F0D4617460446C1
S315080056701E464FF000094FF001083946FFF7CAFCED
S31508005680C349098801908C420AD2B748205C7F2F0B
S3150800569008BF0027874203DAB448205C864203D055
S315080056A040F2A95100F093F8B44F787820B1B54884
S315080056B0B0F800A0AA4803E0B348B0F800A0B04884
S315080056C03978008849B97988081AB6490988884214
S315080056D0B4BF4320442002F078FA01980188A44810
S315080056E0205CF8B1204600F0A7F8012E08BF2978FB
S315080056F003D0022E0CBF29882968814265D00198FB
S315080057000088401E00F067F8A448265C7888AAF14D
S315080057100101891B814201DB002835D1387858BB45
S31508005720452044E00291CB4620E002980BEBDB7360
S3150800573000EB630000F03BF90BEB05001BF80510C6
S31508005740407801EB0020711E8B4580B205D1BDF86B
S315080057500010C9B2C0B2ADF80010BDF800108842FA
S315080057600BF1020018BFC8465FFA80FBB345DCDBC5
S31508005770B8F1000FC3D028E0BDF802100020FFF7EB
S3150800578044FE10B34FF0010978887849401C7880A8
S3150800579080B2625C2946FFF7D3FBB0B1704C7B88B8
S315080057A0248870485B1E1B1B00F01BF810B102F022
S315080057B00CFA0AE0B9F1000F02D0FFF713FF20B187
S315080057C001997888088030187880BDE8F78F0FF23D
S315080057D0E810FFF7B3B801220DF1020180B2FFF716
S315080057E09BBB01220DF1020100EB4300FFF758BAFB
S315080057F070B582B0044600251926012200A9A0B278
S31508005800FFF78AFBBDF80000641C48B14FF47F41DE
S31508005810401A02D0FF3806D007E0681C40B276BDB1
S31508005820AD1C761EE9D168B276BDBDF80000C0B2DF
S3150800583000B96D1CE843F1E738B50C460021009124
S315080058404A49455C2A46214600A8FFF7A2FB681C80
S3150800585000EBD07004EB600080B2FFF7C9FF0028A8
S3150800586048BFC043009940B2401832BDF0B5484918
S31508005870098804463F4883B0254630F815608C42AF
S3150800588002D23B48285C18B940F2A961FFF79FFF8E
S3150800589036482D5C681C00EBD07006EB6007B8B282
S315080058A0FFF7A6FF322814D2C107BFB207EB600084
S315080058B02B4F2C4B3F884CBF00214FF47F41ADF84E
S315080058C00410C01B012201A903EB4000FFF7E8F909
S315080058D060B131462046FFF7AFFF00902B46401CCB
S315080058E000907F2200A92046FFF7BDFEF7BDF8B558
S315080058F0224C20780027002830D11948058860787E
S3150800590000281ABF1E4806882E461B4807783846C0
S31508005910471E02281BDBFFB2B81900F048F8BDF88D
S3150800592000000028F3D01948008807FB006000F043
S315080059303BF80020ADF80000BB190A485B1B0122A2
S3150800594000A9FFF74BFE48B102F03FF906E03046E2
S31508005950FFF744FBFFB20FB9012020703846F2BDAD
S3150800596058BE020800E00208F4BE0208D8BE0208C3
S31508005970BCBE0208582A002054BE0208902F0020F8
S315080059805CBE02085ABE02085EBE020856BE02087F
S3150800599062BE020884BE020864BE020868BE020827
S315080059A008C1020860BE020880B2FFF717BB0122D1
S315080059B000A980B2FFF7B0BA73696D2D656570727C
S315080059C06F6D2D696E7465726E616C2E63000000D2
S315080059D0EFF31180602181F31188704780F31188F5
S315080059E070470000DFF86C1500200870FF21DFF80B
S315080059F06805017001717047F8B5044602F036F97A
S31508005A000546DFF85805DFF850750688204602F087
S31508005A103EFAB0F5006F16D1204602F05CFA00F0A7
S31508005A20ABFAFF280DD000F01EFA2146381D02F009
S31508005A30CAFDDFF82005017881B10089A9190E1A77
S31508005A4010E09320F2BDFF21384602F0E7FD052855
S31508005A5002DA21463846EAE73920F2BD05813146A1
S31508005A6002F03DFEB2B20321204602F08EF903226F
S31508005A7000F070F8204602F007FB0020F2BDF8B5EA
S31508005A800446DFF8D4040078FF2813D0DFF8D05492
S31508005A902968465C3746384602F00EFA014608225F
S31508005AA02046FFF793F808B90120F2BD28683F5C45
S31508005AB0B742F0D10020F2BDF8B5044602F091F9DC
S31508005AC0000B00F00105204602F01AFA06462046A9
S31508005AD002F005FAB0F5404F11D1002D36D0314607
S31508005AE0002000F07BF90446FF2C2FD0002102F09D
S31508005AF0F1FE58B300F098F900F02AF826E030468F
S31508005B0003F001F900F038FA0446FF2C01D1002011
S31508005B10F2BD01200021224603F022F9DFF84424D1
S31508005B20D2E9006706430F43C2E9006775B1DFF89B
S31508005B3038341B6833F814304FF4FE64234205D01A
S31508005B40D2E9024520432943C2E902010120F2BDF8
S31508005B5040F080020521204602F022B938B50446F5
S31508005B6002F095F9B0F5006F0CBF01250025204617
S31508005B7002F0A2F904462146284600F02FF9FF282C
S31508005B8010D18DB1204603F0BEF800F0F5F9FF28D4
S31508005B900AD0DFF8D413096831F810004FF4FA6117
S31508005BA0084201D0012032BD002032BD2DE9F04166
S31508005BB007460C46DFF8A05302F069F9B0F5006F06
S31508005BC00CBF281D28460078FF2846D0DFF890131A
S31508005BD00968405C0646B7423CD1FFF7F9FE8046A5
S31508005BE00521304602F0E3F800F07F00471EFAB2BE
S31508005BF00521304602F0D4F8002C18BF312C01D00C
S31508005C00F8B200BBFFF7E4FE0746F0B202F03FF930
S31508005C10B0F5006FF1B205D1281D02F0FFFC00F0C7
S31508005C2007F902E0284602F0F9FC3846FFF7D6FEE7
S31508005C304046FFF7D3FE2146304603F05DFF304667
S31508005C4002F030FA04E000F0F3F84046FFF7C6FE2B
S31508005C50012003E0765C8642BDD10020BDE8F081D4
S31508005C6038B502F003F8BB4C21892081421A4FF659
S31508005C70FF75ADF8005000A990B200F0FDF8BDF828
S31508005C800000A84202D10020207031BD01462046FE
S31508005C9002F025FD31BD00214FF6FF70ECE02DE93D
S31508005CA0F84FDFF8C092D9E90001002908BF00289B
S31508005CB000F08D8000264FF00108B2460027002428
S31508005CC0FFF786FED9E90023844608EA02001AEAA5
S31508005CD0030108BF002817D06FEA08006FEA0A0117
S31508005CE002400B40C9E90023D9E9025B012708EA0B
S31508005CF005021AEA0B0308BF002A05D028400BEA5A
S31508005D000101C9E9020101246046FFF767FE002F79
S31508005D104CD09548006830F81600810746D5934957
S31508005D20096831F816702CB100F49871102908BF6B
S31508005D30012500D000258E4A12680021B154F4B11D
S31508005D4080061CD5380A8DF801008DF8007000A968
S31508005D50012000F043F80446FF2C07D100F039F87B
S31508005D604FF6DF72114020F8161014E0002102F0F9
S31508005D70B1FD80B100F058F8FFF7EAFE0BE085F0B8
S31508005D800100044207D000F024F841F4006120F82D
S31508005D90161004F055FA00953B461A226CA103200A
S31508005DA001F0F5FE2946384601F001FF761CF6B2E9
S31508005DB04FEA4A0040EAD87A402E4FEA480806DAFF
S31508005DC0D9E90001002908BF00287FF477AFBDE8AC
S31508005DD0F18F6548006830F8161070472DE9F041D4
S31508005DE088465D4900281ABF091D02250825087836
S31508005DF0FF2816D05A4E3168475C3C4600F014F826
S31508005E0000060AD4204602F057F801462A464046BC
S31508005E10FEF7DCFE08B9204604E03068245CBC4284
S31508005E20ECD1FF20BDE8F0810521204601F0BFBF77
S31508005E3070B50021202004F086FC47480079FF2829
S31508005E4010D0474C2168455C2E46304602F043F890
S31508005E5000F092F8FF2801D000F005F82068365CBB
S31508005E60AE42F2D170BD4049096831F8102042F0BF
S31508005E70200221F8102070472DE9F84F80460FF2CE
S31508005E80F400354E0068364F00908A46344600E0E6
S31508005E90341DFFF79DFD814606E0204602F0A8FB6B
S31508005EA0294600A802F08FFB204602F0EBFB40B91A
S31508005EB0386821780D5C0321284601F05DFF80458E
S31508005EC0EBD2301D844208BFFFF7B2FF4846FFF702
S31508005ED085FD2078FF281CD0396810F801904D46BA
S31508005EE00321284601F048FFA0EB080B1FFA8BF2A6
S31508005EF00321284601F049FFBAF800001FFA8BFB78
S31508005F00834588BF8346AAF800B038682D5C4D459E
S31508005F10E6D1301D8442BBD100A802F0B3FBA8B974
S31508005F2000A802F065FB044601F065FF00F0F5F8ED
S31508005F30FFF77AFF000603D44221204603F0DCFD72
S31508005F40204602F0AFF800F0E9F8E5E7BDE8F18F82
S31508005F5042574200C02E0020241F0020761D002034
S31508005F60041D0020401F0020141D00200C1D0020C9
S31508005F70181D0020FF000000F8B50D4C2768060024
S31508005F8014D0FFF725FD0B4D21682A7821F81260F9
S31508005F9037F8021BB142FBD1FFF720FDB81E216876
S31508005FA0401AC0052978000E884200D1FF20F2BDAC
S31508005FB00C1D0020101D002010B57348734C006896
S31508005FC02060606048220021FEF7F9FD70482168CC
S31508005FD000780870002021680873216848730B2030
S31508005FE02168887303202168C8734FF6FE712068FC
S31508005FF001824FF6FF71418200F094FB2168087612
S3150800600000F090FB2168487600F08CFB21688876C2
S31508006010604821680078C8765F4920680968816207
S315080060205E49097880F82C105D4821680068086385
S3150800603010BD10B5FCF708FB544C6168897B884293
S3150800604003D00846FCF7F8FA50B9FCF700FB0146FE
S31508006050606890F90F00814204D0FCF7FCFA08B199
S31508006060012010BD6068008AFDF70AFC6068408A56
S31508006070FDF70EFC6068007B012818BF0020FDF7BD
S31508006080E9FB002010BD10B5464C0020207004F036
S31508006090E2FA20B92046BDE8104002F015BB04F02C
S315080060A061FF08B104F08FFF63E080B5002000F0BF
S315080060B015F828B1002000F005F808B1002002BD47
S315080060C0FF2002BD31480068407B02281CBF11280A
S315080060D0432801D101207047002070472B480068EB
S315080060E0007B012818BF022804D003281CBF0628F5
S315080060F0072801D10120704700207047002070470B
S31508006100002070477047704700207047012070478D
S31508006110704700207047002070477047704700207E
S31508006120704780B50020FFF7CDFF20B10020FFF7AC
S31508006130D5FF00B1012002BD80B50020FFF7C2FFE0
S3150800614030B112480068007B032801DA002002BD3E
S31508006150FF2002BD10B5040004D0E5210FF2680047
S31508006160FEF7ECFB08480068482101FB04000749D4
S315080061704860BDE810405CE704484068008A7047FC
S3150800618002484068408A7047381D0020C42B00200A
S31508006190711D0020721D0020401D0020441D002096
S315080061A0481D0020B42B00207047002070470020AF
S315080061B0704702F0C4BB7047704704F0C6BF05F0CD
S315080061C070B901F0FBBC0000656D6265722D6D75D6
S315080061D06C74692D6E6574776F726B2D7374756246
S315080061E02E63000038B504460D46012005F0ECFA8A
S315080061F05D48002D12BF00210178491C01705B48DB
S3150800620044705B48FCF7DAFFBDE83240002005F031
S31508006210DBBA10B5002814463FD0402823D088287A
S3150800622018BF892840D08D282FD08F2846D15148AD
S31508006230007804280DD144B14F490220087040F671
S315080062400620BDE8104005F0C7BAFDF78DFA3120E3
S3150800625030E0012001F09AFCFDF786FA002C0CBF0D
S315080062603120002026E040484449007809788842D1
S3150800627004D2BDE8104000210120B3E7002001F058
S3150800628085FCFDF771FA402014E0002001F07EFC41
S3150800629000212020FFF795FF0BE0012001F076FC96
S315080062A0FDF762FA002005E0002001F06FFCFDF71B
S315080062B05BFA8D20BDE8104002F0F0BBBDE8104047
S315080062C0C9213CE02C480078022800D0704780B5E8
S315080062D02B480078042807D00C280ED129480078C6
S315080062E0022818BF7C2808D105F091FAFDF73CFA78
S315080062F0BDE80240002002F0D1BB01BD38B500243C
S31508006300FFF766FB05461C48007810B9FCF771FED6
S3150800631004462846FFF762FB002C1CBFBDE8314047
S3150800632001F051BC31BD80B5FFF7E8FFBDE8044078
S315080063304FF4A051144802F0D2B940F205110FF2F9
S315080063405000FEF7FBBA38B5104C2068216C01EAFC
S315080063500005ADB2680705D5206C20F0040020645E
S3150800636004F056F8256031BDE82F0020DC1E002019
S315080063709C2D0020071F0020902D0020381F00208C
S31508006380DB2F0020DC2F00205C2F002008A0004017
S315080063906D61632D656D3235302E630070B5044628
S315080063A00D461646FDF73CFA38B16078002E14BF44
S315080063B040F0200000F0DF0060702946204601F01A
S315080063C0F4FEFF2821D0934C0146201D02F0FBF86D
S315080063D0914D28882188401C288080B281420AD2A3
S315080063E06888401C6880201D02F002F901F05AFEF8
S315080063F02888401E2880208829888842F3D3BDE84B
S3150800640070408648007802F04DBA70BD2DE9F04F0D
S31508006410A5B082460027FFF7DBFA7F4C2188491E84
S315080064202180FFF7DBFA504601F0C8FD082390F8F3
S3150800643000804078DFF8E891029000975146D9F835
S3150800644000001AF80000A0F10802D2B203A801F071
S31508006450C8FE03AE7078FFF760FE7248007808B38E
S31508006460606800281DD0F078FCF776FE4146FCF7F8
S315080064707AFE074696F9020000F1660600200090AB
S3150800648008F10103DBB20022514605A801F0A9FE76
S31508006490FFF73EFE636872B2394605A89847FFF7CC
S315080064A03DFE95E0029800F00700022827D0FF205D
S315080064B08DF80400504601F081FD00F1010B5846A5
S315080064C001F0CAFC0446A8EB0400801E45B2002D64
S315080064D015D401A9584605F08FFA002879D10298F3
S315080064E000F0070001280BD19DF8040004EB0B010E
S315080064F003F025FE20B99DF8040001F0D3FD68E0FD
S315080065009DF80400D9F80010475C4749096800F867
S3150800651001A0D9F800001AF8000000F120019DF842
S315080065200400C9B201F050FD9DF8040001F05EFCBC
S3150800653000F00C0004281CBF6519002468B280B25C
S315080065400090631C9DF804009BB25246394602F03F
S3150800655009F8E9199DF80400C9B201F0EEFE3349BD
S3150800656070780978884204D3BD210FF2C800FEF777
S31508006570E5F99DF8040001F034FC71788004800C7C
S3150800658040EA81319DF8040089B201F02CFCF078CC
S31508006590FCF7E2FD4146FCF7E6FD02469DF80400DD
S315080065A0032101F0FDFBB07800F166029DF80400B6
S315080065B0D2B2042101F0F4FB9DF80C209DF80400EA
S315080065C0052101F0EDFB9DF804A0504602F0C2FA41
S315080065D00127504601F066FDFFF7A0FD384625B0B5
S315080065E0BDE8F08F10B50C4C618829B1C9B21D20E1
S315080065F0FFF7E7FD002060800D4801F0F9FFFF284E
S3150800660003D0FFF703FF0028F6D010BD084802F0B4
S3150800661039B80000301F0020E02E0020C92F0020C6
S31508006620F81C0020752D0020001D00203C1D0020B0
S31508006630341F00206D61632D726563656976652E6A
S315080066406300000038B504461B4D214600F03DF8AE
S31508006650E860211D00F039F8A86004F1080100F08F
S3150800666034F8686004F10C0100F02FF8286031BD99
S315080066707047F8B50446114D114E80202860062053
S3150800668030600720286030688007FCD5002704EBB7
S31508006690870100F01AF87F1C042FA862F7D3306828
S315080066A04007FCD500262A6B04EB860100F00AF8A1
S315080066B0761C042EF7D3F1BD383000400030004078
S315080066C010A00040002002F029BB002002F034BBD5
S315080066D070B504460D46FFF77BF906462846FFF7D0
S315080066E0B1FF2046FFF7C5FF3046BDE87040FFF70B
S315080066F075B9002848BF40427047000081B209B901
S315080067004BF6EF610E4A1180000C08BF4FF6CE20FB
S31508006710508070470288130448BF4A4051000180E0
S315080067201046704738B5064C62212046FFF7F2FF3F
S31508006730054641F20B01A01CFFF7ECFF684032BD8D
S315080067404A1E0020EFF3118060288041C043C00F25
S3150800675070470000002181F3118870472DE9F04F3A
S31508006760DFF8004699B0804660681890B8F1070FC0
S3150800677008BF4FF0030804D0B8F1080F08BF4FF060
S315080067800208DFF8E4552868696840EA0120A96824
S3150800679040EA014000906868400703D5E06940F088
S315080067A00200E0612868400703D5E06940F004006C
S315080067B0E06100982969C840C00703D5E06940F040
S315080067C00800E0610020DFF89865DFF8A0953060E2
S315080067D0B8F1010F00F06982C0F08F82B8F1030F9B
S315080067E01ED005D3B8F1040F40F08782606017E029
S315080067F0D9F84000C00703D5E06940F04000E061E1
S31508006800D9F84000400703D5E06940F02000E06170
S31508006810D9F84000800703D5E06940F01000E06130
S31508006820FFF7D6F800F005FB8DF85C004FF0000B7B
S31508006830D9F84000DFF838A5DFF83875DFF83815DD
S315080068401690D9F844001590DFF83005C06C1490FE
S31508006850DFF82805006D1390DFF82005406D1290CB
S31508006860DFF81805806D1190DAF800001090DAF854
S3150800687004000F90DAF814000E90DAF824000D9050
S3150800688038680C9078680B90B8680A90F868099090
S315080068903869089078690790B8690690F86905908C
S315080068A0B86B0490DFF8D8040068096803910221E0
S315080068B02160DFF8D01409688DF80410DFF8C814D1
S315080068C009688DF80510DFF8C41409688DF80610F4
S315080068D04FF0FF316162DFF8B8140968C9040BD5B7
S315080068E06968C90708D5E169C90705D5316841F45A
S315080068F080714FF0010B3160DFF894140968890440
S315080069000BD56968490608D5E169C90705D531680F
S3150800691041F480414FF0010B31600121DFF870240A
S31508006920126852040ED5009AEB68DA40D20709D5E8
S31508006930E269D20706D53268EB6801FA03F31A430F
S315080069408B463260DFF848241268120410D5009A84
S315080069502B69DA40D2070BD5E269D20702D4E2697D
S31508006960120705D532682B698B4699401143316069
S31508006970DFF81C140968C90308D5E169090605D5B5
S31508006980F17841F008014FF0010BF17000216A68B7
S31508006990D2076A6848BF4FF480515206009AEB68DE
S315080069A048BF41F40051DA40D207009A2B6948BF24
S315080069B041F48041DA40D207E26948BF41F4004118
S315080069C0D20605D4E269920602D4E269520601D5D6
S315080069D041F01001E269120648BF41F480310840CF
S315080069E00290A52000F01CFA0120E063E069A16B83
S315080069F011B1616A0142FAD0616A014200F0F2807F
S31508006A000020E0634FF0010BF07840F04000F07092
S31508006A1000F056FA0720C9F800000F20DFF85C13CB
S31508006A20086005F0A7F81898D44960601698C9F860
S31508006A3040001598C9F844001498C8641398086566
S31508006A401298486511988865CD491098CAF80000CB
S31508006A500F98CAF804000E98CAF814000D98CAF8D8
S31508006A6024000C9838600B9878600A98B8600998E2
S31508006A70F86008983861079878610698B8610598AB
S31508006A80F8610498B86302980860BB4903980860DF
S31508006A904FF0FF30BF490860BA4800683070BA48FE
S31508006AA000687070B9480068B070626AE0691040A2
S31508006AB02A69336801994B4000990B400106490E33
S31508006AC001F0010143EA81230106890E01F0010163
S31508006AD043EA81030106C90E01F0010101FA02F237
S31508006AE01A4300F47C7042EA00503060FEF770FFEB
S31508006AF000F0F4F9002020609DF85C0008B100F071
S31508006B0082F9F0789E490968C90304D5C0F3C00123
S31508006B1009B120212162D9F84010890704D5C10797
S31508006B2044BF0221C9F80C10D9F84010490705D509
S31508006B30C0F3400111B10421C9F80C10D9F840106E
S31508006B40C90705D5C0F3800010B10120C9F80C00AB
S31508006B5030688A49C96C11F0E00F05D0C10503D524
S31508006B608B4A4FF4805111608449096D11F0E00F8A
S31508006B7005D0410403D5864A4FF4005111607F4978
S31508006B80496D11F0E00F08D0E96820FA01F1C9074C
S31508006B9003D57F4A4FF4804111607849896D11F019
S31508006BA0E00F07D02969C840C00703D578494FF4D4
S31508006BB000400860BBF1000F6ED1774800680005F9
S31508006BC06AD56068800767D5B8F1040F64D06C4849
S31508006BD00068C0063DD56E480068C00639D5012054
S31508006BE0307159E0BBF1000F7FF40EAFDAF81800E8
S31508006BF0614940084000CAF818005F48806840F0BC
S31508006C000400886040F2072164480088884201BF72
S31508006C10624840884FF20F01884205D15F494CF21D
S31508006C203C3048804FF0010B012004F0DDFFBBF13A
S31508006C30000F05D059494FF20F0048804FF0000B5E
S31508006C405548554940680004B06089680843B060F3
S31508006C50E0E600F0D1F85249B0FBF1F04FF47A7152
S31508006C6048432F303021B0FBF1F0002131714D49F6
S31508006C704A6D42F001024A650A68474B464C5B6812
S31508006C80A46844EA0343B468A34205D10B689B1A77
S31508006C901B031B0B8342F0D3F07840F08000F070A2
S31508006CA019B0BDE8F04FFFF755BD00F0C2F804462D
S31508006CB0A52000F0B5F800F003F9FFF74BFD3A4DB3
S31508006CC02E68286840084000286000F0FFF8374F13
S31508006CD0D7F80080386820F04000386000F0F2F8F5
S31508006CE0C7F800802E6000F0F1F80CB100F08BF8C0
S31508006CF019B0BDE8F04F00F0F1B819B0BDE8F04F93
S31508006D0040F23C410FF2B000FDF718BE164ACBB26E
S31508006D101360C1F307235360C1F307419160002351
S31508006D2023490B601368002B04BF5368002B01D15D
S31508006D3092681AB10A6842F001020A600A6842F4C7
S31508006D4000720A600A6842F080020A6006E519497C
S31508006D500978890141F4800141F48041D6E70000B1
S31508006D60C02A00200400004008BC004014A00040CF
S31508006D70044000400050004008ED00E014A8004020
S31508006D8000E100E008B0004008B4004008B8004040
S31508006D9000E200E080E200E00C6000400000002015
S31508006DA090D003003820004094ED00E000800040B9
S31508006DB020000040B22F0020736C6565702E6300BA
S31508006DC003480188034808237F22FBF79FBD00BFBD
S31508006DD0E2C10208F82B00202D480068C00701D43C
S31508006DE02C4870472C48704780B5FFF7F5FF2B49AC
S31508006DF0096801B9400802BD80B5FFF7EDFF4008F4
S31508006E0002BDFCF79EBE2648012181604EF6BE21D2
S31508006E1041600121016070472249012008607047DE
S31508006E20A52805D11E484DF6AD61416002210160D5
S31508006E3070471B480068C00701D50120704700202D
S31508006E40704780B51849194A10200860184919482A
S31508006E50007858B103280CBF00200120106040F6C6
S31508006E60510008600020FDF78AF806E0022010604D
S31508006E704FF400600860FCF71DFE07210E4801600C
S31508006E800021016410200D490860002002BD0000A1
S31508006E901C400040001BB70000366E012040004031
S31508006EA0006000400860004080E100E00800004003
S31508006EB00C600040B02F002014A0004000E100E064
S31508006EC072B6704700BF30BF00BF7047BFF35F8F11
S31508006ED0BFF34F8FBFF36F8F7047000062B67047DE
S31508006EE0DFF8D002016C41F4C04141F009010164A8
S31508006EF04FF6FF7101602020DFF8BC12086070476A
S31508006F0070B5002815461E4638D0012835D11329F4
S31508006F103CBF0FF2DC20095C08096422504301F0EB
S31508006F200F010B2903DA884006E00A2250430A4675
S31508006F30511ED2B20B2AF8DA01460120FDF72EF8C7
S31508006F40E0B9300907280CBF00200220012D08BF30
S31508006F5040F0180003D0022D08BF40F0080006F0E4
S31508006F600F0102299549A8BF40F004008860012056
S31508006F700860FFF7B5FF002062BD212062BD38B565
S31508006F80040012D18E480468608828B140F2AB210B
S31508006F900FF25420FDF7D2FCA188C9B2A01D00F05B
S31508006FA01DFB0020A080208031BD012802BF834838
S31508006FB0006801280FD1FEF70BFD054681480168D8
S31508006FC041F006010160012000F09AF82846BDE864
S31508006FD03240FEF703BD31BD012804D17948016866
S31508006FE021F006010160704780B50B46114620B9AD
S31508006FF0184600F0F3FA002002BD012802BF7248C5
S315080070008269012A07D0212002BDC2685207FCD531
S3150800701013F8012B02600A46511ED2B2002AF4D197
S31508007020C1684906FCD5E6E710B50446FFF7F4FE45
S31508007030012C03D1674800684006FBD510BD70B522
S31508007040624A634B12680CE0158810F8014BAD18BC
S31508007050AC7114881D8800F06DF814809488641C3F
S3150800706094800C46611EE4B254B194885A4D2D881A
S315080070706D1EAC42E8DBBDE870402321002079E0B4
S3150800708070BD2DE9F84304465048DFF84491DFF80F
S3150800709048814D4F254650F8256014E0B18838F8E8
S315080070A01520521E91421CDA318889198871308858
S315080070B039F81510401C90FBF1F201FB12003080E4
S315080070C0B088401CB080F868800716D5F86810F0BC
S315080070D038013868E2D0080705D4C80605D5242142
S315080070E007E0232105E0272103E088064CBF252178
S315080070F00121204600F03EF8E5E7BDE8F183704738
S3150800710070B52F49354A51F820102F4B0CE04C88A2
S315080071106418A4791C604C8832F8105000F00AF8FC
S315080071204C808C88641E8C808C8814B1DC6864075B
S31508007130EDD470BD641C94FBF5F605FB1644704748
S31508007140704738B51B4C0FE046F22970054225609A
S3150800715003D0A9B20120FFF794FF41F6D6000542F5
S315080071601CBF0120FFF7CCFF2068216C11EA00053F
S31508007170EAD131BD30B5154A194C52F82020055DC3
S31508007180184B25B9128823F81020015530BD33F85D
S31508007190103013800155138851888B4205D20E4C46
S315080071A034F81000401A181800E0581A908030BDBC
S315080071B00000000008A8004000E100E054C80040B4
S315080071C0701E002048A800403CC80040801E0020D1
S315080071D0087B000848C800404CBE0208007B00082F
S315080071E0302A0020342A0020756172742E6300004C
S315080071F0306090C0C1C2C394C495C55C96C6AC97AE
S3150800720098990D002DE9F041454C464EDFF8188156
S31508007210002020654FF40055356002202060E560A7
S3150800722000202065206D40F0600020650E2000F0EB
S315080072301DF888F800004FF4804700206065376025
S3150800724004202060E7601620384908600020606541
S31508007250606D40F060006065162000F007F888F859
S315080072600100334805600760BDE8F0810E2802D0AA
S31508007270162802D009E02F4800E02F480068800948
S3150800728000F0010080F0010070470020704710B53B
S3150800729023484FF40051C160022101600E20FFF718
S315080072A0E5FF214C227801468A4218BF21700DD18C
S315080072B0501E8041C00F20700E20217805F078F806
S315080072C02178481E8041C00F20702178BDE8104003
S315080072D00E2005F06DB810B511484FF48041C16015
S315080072E0042101601620FFF7C1FF0F4C62780146A2
S315080072F08A4218BF61700DD1501E8041C00F607060
S315080073001620617805F054F86178481E8041C00F50
S3150800731060706178BDE81040162005F049B8000095
S3150800732014A8004080E100E0A02F002014BC004013
S3150800733000E100E008B4004008B8004010B5044673
S31508007340FEF746FB4E49302008604E4908604E4914
S31508007350086010204D4908604FF20F01200A0028E6
S315080073604B4808BF240204804180BFF35F8F494819
S3150800737000210160416048484849086010BD10B5C1
S31508007380474C2068C0060BD5464941480A68C0F8EC
S3150800739094204968C0F8901040F60620FFF7CEFF03
S315080073A02068C00708D5404903200870206C4008AB
S315080073B040002064012020602068000703D5206C67
S315080073C020F00800206410BD80B5002000F009F800
S315080073D030B9BDE80440FC210FF2E000FDF7AEBA73
S315080073E001BD2DE9F044314C21680D1A15F01F0135
S315080073F005D0002852BF6D1A681A00F120052C48DE
S31508007400A5F12006A84224BF2A48864203D3EFF3F3
S315080074100880854201D300202DE0FEF7D9FA82467E
S315080074202548006810F0010718BF04F0BBFB206868
S3150800743001468D4206D2A84224BFCD2100F8011983
S31508007440F9D206E02038002201E000F8012B884234
S31508007450FBD32560304604F0AAFBE22001E006F8DB
S31508007460010BAE42FBD30FB104F084FB5046FEF786
S31508007470B5FA20682038BDE8F0840C4800687047E3
S315080074803020004030C8004030C0004010D00040D6
S31508007490000000201C4000400400FA050CED00E046
S315080074A018A0004030500040CF2F0020EC1E0020CE
S315080074B018130020380D002094ED00E06D69637202
S315080074C06F2D696E7465726E616C2E630000000024
S315080074D030B5224801680020002201249440CBB22E
S315080074E0234213D00FF284001D4C30F812000628F0
S315080074F04CF23C324FF20F031DD16088984216D1E8
S315080075002188080A0B2812DA084612E0521C92B2A1
S31508007510082AE2D31349088140F201720889904289
S3150800752004D11148D0E90023C1E9002330BD4FF446
S31508007530C0606280EEE740F20725A84201BF618875
S3150800754099422188A942E5D162800846E2E70548C2
S315080075500089000A70470348008970472C000040DC
S31508007560000000208420002090000020010402046E
S3150800757001030105060007020309010970B5B34CAA
S31508007580204601F07FF8D8B9204601F031F8FF28E7
S31508007590044615D0AE490968405C851EE9B2204606
S315080075A000F0BDFF0646E9B2204600F0C6FE2146B9
S315080075B0304600F0F8F82046BDE8704000F072BD8D
S315080075C070BD03460A469FA10420FFE70CB480B5A8
S315080075D002AA00F03DF801BC5DF80CFB21B1034698
S315080075E00A4699A11120F1E7704700B587B0FCF764
S315080075F019FE0021059102465021049100235421C9
S3150800760003910120002102910191924900910FF204
S315080076105421FFF7DBFF90488179C378827803917C
S3150800762001880291417901910179009142200FF276
S315080076304021FFF7CBFF07B000BD10B50446214631
S31508007640824800F0C0FF2046BDE8104000F01CBD8F
S315080076502DE9F04F85B005460C469046002600F009
S3150800766099FAF8B904F0E3FFE0B1012000F0B1FCA3
S315080076708246BAF1FF0F15D0002100F0A5FC294675
S3150800768001A804F0DAFF05469CB900F087F830B97E
S31508007690504605F04AF810B1042000F077FA504633
S315080076A000F000FD05B0BDE8F08F8DF80420012537
S315080076B0641C20780028E8D0A0F130010A2905D2F8
S315080076C00A2101FB0600A0F13006F1E700F066F892
S315080076D00028E4D122780025422A01A80ED0442A9F
S315080076E01AD0462A25D0572A0DD0622A3AD0662AB9
S315080076F02AD06C2A25D0702A26D0D6E758F8040B4B
S315080077008DF80400D3E758F8041B8DF804100225F9
S315080077100904090E4170CBE758F8041B8DF80410CC
S315080077200A0A427004250A0C8270080E8DF80700B2
S31508007730BEE758F8041B504600F0BFFD0028B7D036
S31508007740ADE758F8046BB3E7012358F8041B662A1B
S3150800775008BF0223F2B2504600F091FD002808BF88
S315080077600026ECE73A4858F8041B00681AF8009017
S31508007770CFB2FF2F9CD017F800B00BEB0901C9B2A6
S31508007780504600F0DAFD002889D1CDF800B0002374
S315080077903A464946504600F0E5FE89E72A4601A9D9
S315080077A0504600F088BD2DE9F043122885B0804682
S315080077B00D4609D03A281DD04FF6FE71884204BFFF
S315080077C0284600F0F3F934E02148244F00682E5C7F
S315080077D008E0284600F0F2FB2146FFF730FC38683F
S315080077E02D5C203EFF2D24D0F6B2212EACBF2024DE
S315080077F03446EEE703F03FFB8146FCF746F80646BB
S31508007800FAF725FF0746FAF71FFF0446FCF735F88F
S31508007810024610480FF260010390CDF810902346F7
S315080078200F48006840880290019600973B20FFF7B2
S31508007830CDFE2946404605B0BDE8F04300F0ACB998
S3150800784000000000574600006C700000E81E00208B
S31508007850F81C0020F82B0020E4C10208001D0020B7
S31508007860C42B0020424238704242424257424200EC
S3150800787042424242574200005742425757387042E6
S31508007880000000002DE9F0470446884691469A46CE
S3150800789000F025F9002801BF25460FF26020285C74
S315080078A0012823D1DFF8286256F82570FEF790F8EC
S315080078B00021B98039807980FEF790F806EB8500BB
S315080078C00669FEF785F8DFF80C220021B1803180C1
S315080078D07180A954FEF782F8FFF732FC53464A46F0
S315080078E041462046BDE8F047FFF70ABB2120BDE820
S315080078F0F08710B50446FFF702FCDFF8D40100EB69
S3150800790084000069808810BD2DE9F84381464C46FD
S31508007910DFF8BC0100EB840088460669484600F09B
S31508007920DEF808B1012037E0DFF8A851605D05EB05
S31508007930440760B1B8887188884208D1FEF748F8CC
S31508007940665D00216155FEF749F8304624E0484651
S31508007950FFF7D5FBB088F0B1FEF73AF871880FF259
S31508007960A8128919897988F800104FF6FF78718866
S3150800797032F8142000F030F87180B1884144B180A3
S31508007980FEF72CF8605D20B1B888404504BF308802
S31508007990B880002000E02620BDE8F2830FF25C11D3
S315080079A0415C01290AD10FF24C11494A31F81010ED
S315080079B052F820008088081A80B270470020704765
S315080079C080880FF2301333F81110891A884201DAC9
S315080079D00120704700207047491C91FBF2F302FB17
S315080079E0131170472DE9F84F804647460FF20C10E1
S315080079F0385C01288B46164638D135480FF21019DF
S31508007A0050F827400FF2F80A002514E0FDF7E0FFCA
S31508007A10A18801B9012522881BF8011B1219917149
S31508007A2021883AF81720FFF7D7FF2180A188491C3B
S31508007A30A180FDF7D3FF3046461EC0B288B10022AA
S31508007A4041462046FFF7BCFF0028DFD11DB140465E
S31508007A50FFF795FA002517F809000028EFD122202C
S31508007A6005E04046FFF78BFA002000E00120BDE85C
S31508007A70F28F80B501460FF284028A5C012A05D18D
S31508007A80134A52F821108A88002AFCD1FFF7CCFA4B
S31508007A90002002BD0CB438B504460D46FFF79CFA23
S31508007AA004AB2A4621460C4804F0E5FE0FF24C01C9
S31508007AB02046415C012907D1054951F820008088F4
S31508007AC010B12046FFF75BFA32BC00205DF80CFBCC
S31508007AD0701E0020302A0020E96F0008704704282D
S31508007AE006DA0FF21801415C481E8041C00F704744
S31508007AF0012070478000800000000000010100009E
S31508007B008000800000000000800080000000000067
S31508007B1001010000002204F0C1BF000062F30F2239
S31508007B2062F31F42401810F0030308D0C91A1FD386
S31508007B30DB0748BF00F8012D28BF20F8022D1300E7
S31508007B4030B414461546103928BF20E93C00FAD847
S31508007B50490728BF20E90C0048BF40F8042D8900D2
S31508007B6028BF20F8022D48BF00F8012D30BC704709
S31508007B70C91818BF00F8012DCB0728BF00F8012D3A
S31508007B80704770470EB403B07047704770470CB41F
S31508007B9002B0704700207047002070477047704752
S31508007BA0704770477047704770477047704770470F
S31508007BB07047002070477047704770477047704796
S31508007BC0704700207047FAF701BD70B50446433880
S31508007BD00FF2800508D0401E012809D9801E012809
S31508007BE00ED9C01F32D02AE0BDE87040FDF77FBE2F
S31508007BF0002600E00126FDF77AFE0028FAD12EBB02
S31508007C00134E307810BB012030700020FDF78EF837
S31508007C10452C11D00BD3472C01D003D307E040F6EF
S31508007C20010001E040F60200FFF788FB04E040F29D
S31508007C3016312846FCF782FE0020307070BD2846B3
S31508007C40BDE870404FF44A71FCF778BE70BD00007D
S31508007C50AB2F0020656D6265722D636F6E6669676E
S31508007C6075726174696F6E2E6300000080B500F04E
S31508007C7008F880B202BD80B500F003F80002000CD7
S31508007C8002BD10B5FDF7A4FE33490A68496841EA02
S31508007C900244FDF7A3FE3148017831B1304909683D
S31508007CA08C4202D12F48406810BD00210170204641
S31508007CB010BD704780B5FFF7FCFF2B490720086009
S31508007CC001202849087001BD2DE9F843044600251E
S31508007CD0206810B9FEF73EFD2AE0FDF779FE00F0B0
S31508007CE02FF8206810F1010F1CBF401C2060FFF719
S31508007CF0C8FF21681B4E1C4F814600F01CF82168FE
S31508007D004944090C0160357002203860386400F077
S31508007D101CF80120FFF71BF83D64307838B9852533
S31508007D20FFF7AFFF2168081A4844206000E0256085
S31508007D302846BDE8F2830E48494489B24160704737
S31508007D4080460A49102008607047102009490860D3
S31508007D504046FDF743BE000010600040C42A0020DC
S31508007D60C82A00200C2C002014A0004080E100E066
S31508007D701860004000E100E010B50C4600F01EF95E
S31508007D802018BDE8104000F0BEBF38B50C461546B1
S31508007D9000F014F929462018BDE8344000F0BABFAF
S31508007DA038B50C46154600F009F9255431BD10B50D
S31508007DB00C4600F003F9205C10BD80B500F016F8FB
S31508007DC000F076F801D1082002BD062002BD38B5BC
S31508007DD0044600F0F3F805462046FFF7EEFF401983
S31508007DE032BD0121C8E70A460121CEE780B500F079
S31508007DF0E5F8407802BD80B5FFF7F3FF800B02BDBA
S31508007E0080B500F0DBF8417841F01001417001BD02
S31508007E1010B50446FFF7EAFF00F04AF804D05E21E1
S31508007E200FF27810FCF78AFD2046BDE810400621BF
S31508007E30A2E738B504460D46FFF7D8FF00F038F834
S31508007E4004D064210FF25410FCF778FD2A46204628
S31508007E50BDE83840062198E780B500F054FF014692
S31508007E608A0A42EAA2030FF2441003F00F03185CD1
S31508007E704B0700D408B9FF2002BD490605D412F005
S31508007E8003011CBF12F03001801CC0B202BD10B540
S31508007E900446FFF7ABFF00F00BF802D14FF4006081
S31508007EA010BD06212046FFF767FF00F4406010BDAD
S31508007EB000F00C000428704738B5044600F07EF838
S31508007EC005462046FFF792FFFFF7F2FF0CBF062094
S31508007ED00B20401932BD80B5FFF7EEFF30E010B534
S31508007EE00446FFF783FFFFF7E3FF02D14FF4004094
S31508007EF010BD06212046FFF73FFF00F4404010BDA5
S31508007F0070B5044600F05AF805462046FFF76EFF9E
S31508007F10FFF7CEFF01D1A81D70BDA81DFFF79CFF76
S31508007F2006462046FFF7DBFFB0F5004F0CBF0220E0
S31508007F3008207119081A801D70BD80B5FFF7E0FF8B
S31508007F40BDE8024000F0DFBEF8B504460D46164609
S31508007F50012000F03EF80746FF2F1ED0FEF7D9F89D
S31508007F60A104890C41EA803189B23846FFF73BFF04
S31508007F703846FFF722FF0146384600F025F8314615
S31508007F80384600F0D2F842F20C002040042803D10B
S31508007F9029463846FFF74DFF3846F2BD7061636BD8
S31508007FA065742D6865616465722E63000300070DAC
S31508007FB0000000000700090F0D000F15DFF8A416D2
S31508007FC0096801EB40107047DFF89C261268815457
S31508007FD070472DE9F041040035D0FDF7F9FCDFF8CC
S31508007FE08C16DFF88C360E78FF228046FE2EDFF8D8
S31508007FF084061BD100260E70DFF87CC6DFF87C6687
S3150800800037781F70002708E007F1010E07F805E02A
S31508008010DCF800507A555FFA8EF796F800E00568A6
S315080080207745F1DB0EEB050606F8012C1E78A6420D
S315080080300BD24046FDF7D2FC0520FFF7A7FD00212D
S315080080401B20FEF7BEF8FF201CE0361B1E70DFF86B
S3150800805030360E780F78D3F800E0012507F80E5071
S31508008060641E056817F805E081F800E0E4B2002C04
S31508008070F0D17A5500213046FFF7A6FF4046FDF7B6
S31508008080ADFC3046BDE8F08110B50446FDF7A0FC0E
S31508008090DFF8EC150968625C521C6254BDE81040B2
S315080080A0FDF79CBC2DE9F041054600F031F8044681
S315080080B0FDF78EFCDFF8B425DFF8B435DFF8B465D4
S315080080C0DFF8BC85FF2D1FD0D8F800106F5C7F1E27
S315080080D06F547F27D8F800E015F80E10394213D1EF
S315080080E03168695C002705F80E701F787F1C1F70C1
S315080080F0FF29376892F800E005F807E0157006BF13
S315080081002546FF240D46DDE7BDE8F041FDF766BCD0
S3150800811080B5DFF86C150968415C090603D5FFF7D9
S315080081204DFF007802BDFF2002BDB0B504460D46DE
S31508008130FFF7EEFFFF2818BFFFF7B4FFFF2DDFF8A4
S31508008140407504D13868215C01F07F0106E02846B5
S31508008150FFF79AFF3868215C41F0800121542046D8
S31508008160FFF72CFF0570B0BD0EB478B504460120A4
S31508008170FFF72FFF0546FFF721FF0646FF2D08BF2D
S31508008180FF200FD0E1B22846FFF71EFF05A8002101
S3150800819004E050F8042B06F8012B491CC9B2A14289
S315080081A0F7D3284672BC5DF810FB70B504460D4639
S315080081B005F11F000004400D82B0C0B2FFF709FFA9
S315080081C00646FF2E0CD02946FFF7FEFE3CB10120DD
S315080081D000902B4600223146204600F002F8304631
S315080081E076BD73B500F0BBF8085C15461E467119D6
S315080081F0884203DA4FF4B07100F0DAF866B129461E
S3150800820001A800F0D9F8024606989DF804100090D7
S315080082103346204600F001F873BD2DE9F843089C63
S31508008220DFF850840546894616461F460BE04A5D28
S315080082300A54491CB142FADBD8F80000BF1B75196D
S3150800824019F800900026FFB2BFB14846FFF7B6FE00
S315080082503018F1192029B2BF3E46C6F12006F6B2FB
S31508008260324624B901462846FCF766FCE4E7012CA9
S3150800827008BF2946F8D00021DCE7BDE8F1832DE9DF
S31508008280F04100F06CF882B01600255C88461F465F
S315080082900ED07119C9B2204600F04FF808B118205F
S315080082A007E0009733462A4621464046FFF799FFDE
S315080082B00020BDE8F6810123E1E70A4600E0521CEA
S315080082C01378002BFBD1521A0223D2B2D7E7F8B59E
S315080082D0044601F11F00C50402F11F00C0042D0E5B
S315080082E0000E05B9012500B90120854223D0854233
S315080082F0DFF8806310DA401BC0B2FFF76AFE074654
S31508008300FF2F01D10020F2BD691EC9B2204600F038
S315080083102BF8316847540EE08A420CD2411EC9B286
S31508008320204600F021F804463068205CFFF7BAFEC4
S315080083303168FF2060540120F2BD38B500F00FF80F
S315080083400D46215C2A462046FFF7C1FF28B129467B
S315080083502046FFF739FE002032BD182032BD0446FC
S31508008360DFF804030068704704E0DFF808231268A2
S31508008370805C491EC9B20029F7D1704711B581B092
S31508008380DFF8E40200680C469DF80410085C844295
S3150800839003D34FF4F47100F00BF8214601A800F05E
S315080083A00BF804469DF80400FFF708FE201816BDD2
S315080083B00FF2E020FCF7C2BA38B504460D46E904C8
S315080083C02078090EFFF7D0FF207005F01F0032BD98
S315080083D080B5FFF7D3FF007802BD10B51446FFF746
S315080083E0CDFF047010BDB0B5FFF7B9FF82B0255CAC
S315080083F0FF2C03D14FF40271FFF7DAFF05F11F00D6
S315080084000004400DC0B2FFF7E4FD0746FF2F0AD06F
S315080084102946FFF7D9FD0095002322460021384654
S3150800842000F0A0F83846B6BDF8B504460D4616461F
S315080084300120FFF7CEFD0746FFF7C0FDFF2F01D14C
S31508008440FF20F2BD33462A462021201800F00FF8F7
S315080084502118C9B23846FFF7B7FD3846F2BD0CB445
S3150800846080B502AAFFF7E0FF02BC5DF80CFB2DE918
S31508008470F047804616469946C24600250C460AE04D
S315080084803A465046FCF758FB7819BA44401EC5B21E
S31508008490681CC5B2761CA5423CDA3078002839D06B
S315080084A0312818BF32280ED159F8041B0AF8011BC7
S315080084B03228EDD1681CC5B2AC42A4BF08120AF82E
S315080084C0010BE5DA26E0342811D1291D59F8040BE9
S315080084D08C421FDB0AF8010B010A0AF8011B010C82
S315080084E00AF8011B000E0AF8010BE81CCFE7A0F1F9
S315080084F0330259F8041B072A38BF303806D3A0F1CF
S315080085004102072A34BF373859F8040BC7B278191D
S31508008510A042B5DBAAEB0800C0B2BDE8F08770B58B
S3150800852000F015F800F004F800EB062080B270BDE4
S315080085300646294620464BE700B583B002238DF848
S315080085400420120A8DF805200122009204E00D4647
S31508008550691C0446C9B23BE70A46014601A8FFF76B
S3150800856040FE07BD2DE9F541089C1F464CB325463C
S3150800857089B200A8FFF720FF0646B9B201A8FFF79F
S315080085801BFF07463046B84238BF3846C0F12000C0
S31508008590C0B2A842B8BF05469DF80400FFF70EFD15
S315080085A080469DF80000FFF709FDAAB207EB08010F
S315080085B03018FCF7C1FA641BA919EF19A4B2002CEC
S315080085C0D5D1BDE8F38170B504460D46FDF700FA2E
S315080085D0294B21781B68FF2908BFED5403D0C91819
S315080085E00E78EE540D702570BDE87040FDF7F6B9AB
S315080085F038B50446FDF7ECF92178FF22FF2908BFB4
S31508008600FF2507D01C4B1B68CD5C8D420EBF227020
S31508008610EA5CCA54FDF7E2F9284632BDF8B50446C5
S315080086200D460026FDF7D4F92178FF2915D0124BFF
S315080086301B680A46012602E0761C3A46F6B2D75C63
S31508008640AF4208D1FF5CD754A94206D18A4208BF77
S31508008650FF22227001E08F42EED1FDF7BFF93046C6
S31508008660F2BD0000F41C0020F81C0020D81E0020D3
S31508008670F11C0020001D0020041D0020F01C002015
S31508008680FC1C00200078FF2801D10120704700203B
S31508008690704700007061636B65742D627566666568
S315080086A0722E630038B544784568FDF791F9824A19
S315080086B00C2161438B585B1BB3F1004F98BF8D505B
S315080086C0BDE83240FDF78AB910B50446FFF7D9FA76
S315080086D06060042020702046BDE81040E2E738B507
S315080086E004460D46FFF7CDFA281860600120207071
S315080086F02046BDE83240D5E710B50446207860B17B
S31508008700042806D0FFF7BDFA6168421AB2F1004F95
S3150800871001D8002010BD081A10BD4FF0FF3010BD5B
S3150800872070B50446FFF7ADFA0546FDF751F906465A
S3150800873060686FF0004100F02CF840192060304660
S31508008740BDE87040FDF74AB970B504460D461646B1
S31508008750FFF797FA002156B1FF22327007E0121A86
S31508008760AA4202D2154606B13170491C083422685D
S315080087700AB9284670BD1378002BF6D0042B04D00E
S315080087805268831AB3F1004FE9D806B13170002058
S3150800879070BD0022D8E738B50446FFF772FA0546D9
S315080087A00DE0017851B1042904D04168691AB1F184
S315080087B0004F03D80421017061688847083420688F
S315080087C00028EED131BD10B53B490C2202FB00143E
S315080087D0FFF757FA2168401AB0F1004F06D86068CB
S315080087E0FFF7D9FF2046BDE8104099E710BD70B5E0
S315080087F0324D3349097804466878884204D3E5211E
S315080088000FF2C000FCF79AF86E78701C68700C219D
S31508008810294801FB060001214460017200E04E7000
S3150800882054F8081B0029FAD1FFF77AFF304670BDC5
S31508008830F8B505464FF0FF300090204C207840B33D
S31508008840FDF780FF28B940F219110FF27800FCF7FE
S3150800885075F8FFF716FA184A0C2101FB05230025BF
S315080088601D72002305E0009EB54288BF3546009577
S315080088705B1C6578DBB2AB420FD201FB0326356879
S31508008880471BB7F1004F04D9367A2D1A0EB9002DB9
S31508008890E9D1FDF75FFF0020F2BD00A8FFF714FA43
S315080088A00120F2BD044A0C2303FB002001210172BA
S315080088B0704702490870704790200020C12F002099
S315080088C024BC02086576656E742D636F6E74726FCC
S315080088D06C2E6300F8B50446DFF8D003007800284C
S315080088E002BFDFF8CC63F06800280D4625D1DFF813
S315080088F0C40300780A2818BF022D1ED1FDF768F8B0
S31508008900B278082A074616DA012D02D190190471A1
S3150800891004E0311D701DFCF70FF93471B078401C66
S31508008920B0703846FDF75AF82046FFF7ADFB01F060
S3150800893087FC0120F2BDFDF751F80020F2BD80B595
S31508008940FDF732FCDFF86803C17829B90121C17047
S31508008950BDE8014001F074BC01BDDFF854130020E6
S31508008960C870704770B5DFF844030078002839D11D
S31508008970FDF72EF8DFF83843DFF83C530646A078B3
S3150800898060B121792970421EA270611DD2B2201DE4
S31508008990FCF7D2F83046FDF721F821E03046FDF71E
S315080089A01DF8E068F0B9E078022802D004F0D4F89F
S315080089B028702878FF2810D1E07870B1FDF7F5FB0C
S315080089C0FDF7ABFB04F0A7FAFF28287003D0FDF7E4
S315080089D0EEFB00B9E070FDF7A1FB2878FF2801D06F
S315080089E0012070BD002070BD2DE9F04104460D46FA
S315080089F0FDF751F9AE4E0020F070FCF7E9FF80460E
S31508008A00F06820B14046FCF7E9FF002013E0AB48C8
S31508008A100078052808BF01F01EFD00F00EF80700D3
S31508008A2008BFF4604046FCF7D9FF1FB105B1A0475F
S31508008A30012000E00220BDE8F08110B5FCF7C8FF70
S31508008A409B499E4B8A781B78C9781A43114305D1EE
S31508008A509B4909784C1EA441E40F00E00024FCF76A
S31508008A60BDFF204610BD10B59449914C00200870F2
S31508008A70FF20914908700020E060FDF753FE207042
S31508008A8000208F4908708F4908704FF4A0518E480E
S31508008A90FFF725FEBDE81040FCF7A4BF2DE9F84313
S31508008AA0854E8A4D81463078FF2808D12878FE28D9
S31508008AB005D04FF4B3710FF22420FBF73FFF287857
S31508008AC07B4FDFF8FC817D4C811F01290DD80521DC
S31508008AD02170494604F0CAFC08B900F014F8307849
S31508008AE0FFF7E0FAFF20307003E087F8019000F006
S31508008AF00AF82878042804D0F878012804BF022048
S31508008B00F870BDE8F183032020704046FFF7DCBD0E
S31508008B1010B5694C217881420DD10846FFF7C2FA93
S31508008B20FCF756FFFF212170FE21684A1170BDE847
S31508008B301040FCF753BF10BD38B55D4D6978044643
S31508008B40FDF734F828B969782046BDE8344000F0C6
S31508008B50D3BF31BD2DE9F8430446FF2C05D140F2B9
S31508008B60B7110FF27810FBF7E9FE0320FFF70EF8AE
S31508008B70574D2046FFF73AF900F00C002870FF2001
S31508008B8068702046FFF732F900F00C0008285CD020
S31508008B9028780C2859D12046FFF719F9074600F01E
S31508008BA0B2F8064606F44C483846FFF755F9C05D54
S31508008BB068704FF6FF794FF44060064206D0F81CFD
S31508008BC000F0A1F8484508BF48F0400806F44060A0
S31508008BD0B0F5006F06D1781D00F095F8484508BF36
S31508008BE048F01008697801294CF6500017D0022978
S31508008BF018D0042908D0062925D0072925D0082900
S31508008C0018D07C2911D04FE0B8F5484F18BFB8F5F1
S31508008C10084F49D12046FCF74FFF002811E0B8F568
S31508008C20484F0EE0B8F54C4F0BE0B8F54C4F0CD05A
S31508008C30804506E04CF64040804535D11D48007811
S31508008C40052802D030E080452ED12046FFF7C9F826
S31508008C5005462046FFF7CAF800F00C00082816D08B
S31508008C60A80614D54FF6DF7000EA05012046FFF77F
S31508008C70BAF82046FFF7A1F805462046FFF7A7F8F9
S31508008C80FFF7EAF84119C9B22046FFF756FB214615
S31508008C901048FFF798FC2046FFF7F6F90E480078CB
S31508008CA0BDE8F243FFF7FEBDBDE8F183752D002050
S31508008CB01C2E0020F21E00200F1F0020902D0020E1
S31508008CC0942D00201C2C00205C2F0020071F00205C
S31508008CD0DB2F0020101F0020C92F00206D61632D97
S31508008CE0617262697465722E6300000030B5531EA6
S31508008CF0002404E0DBB25D5C25545B1E641CE4B210
S31508008D009442F7D330BD41780078FFE700EB0120A5
S31508008D1080B270470170090A4170704710B5002388
S31508008D20002814BF1C46C3F10304E4B25B1C62545A
S31508008D30120A042BF4DB10BD30B54A788B78CC7850
S31508008D40097818B120461D460C4602E01546084625
S31508008D501A4645EA002044EA022141EA004030BDAD
S31508008D60D2B2203A22BF00FA02F1002070475242DE
S31508008D70D041D2F1200291404140D040904041403C
S31508008D807047000038B5DFF8801C0020087004F032
S31508008D90DAFB04F0AFFE04F08AFF01F07DFC05F073
S31508008DA027F802F001F90024DFF8605C09E02046A4
S31508008DB0FDF7B3F905F03EF805F040FBFDF7AEF90F
S31508008DC0641C2878E4B28442F1D320E038B5FDF774
S31508008DD06CF904460025FF2C08D0FDF79EF902F031
S31508008DE0C1F800B90125FDF799F94DB904F0ABFBB7
S31508008DF004F080FE01F050FC04F0FAFFFF2C00D0CE
S31508008E000DB102F0D1F805F015F805F017FBBDE82D
S31508008E10314005F0CDBDDFF8F80B0068407B11281E
S31508008E201CBF4328412801D1012070470020704704
S31508008E3010B50446FEF7CBFF801CFFF764FF4FF61C
S31508008E40F87188422046A4BFBDE8104000F005B876
S31508008E5000F05CF800F057F910BD2DE9F041044622
S31508008E6004F014FE002837D100F046F94FF6FF75D6
S31508008E7005D24188A9422FD02046FEF7DAFF002303
S31508008E8000220221204604F0A9FE28B32046FEF758
S31508008E909EFF0646F77906F007F9804606F004F9BC
S31508008EA04246394604F000FE20B9BE210FF23C20A6
S31508008EB0FBF744FDB01CFFF726FFA84204BF204677
S31508008EC003F006FE30780321084203D1012120462B
S31508008ED001F07AF9012000E00020BDE8F08138B5FC
S31508008EE00446DFF8100C0068205C851AEDB2681A93
S31508008EF080B2009053189BB222462046FFF732FBF9
S31508008F0029462046BDE83440FFF717BA2DE9FE4F3B
S31508008F10002582460195FEF75AFF0646301DFFF7E3
S31508008F20F2FE0746B01CFFF7EEFE8046307800F0EA
S31508008F30C00002903846FDF71FF88DF80200FF289A
S31508008F4014BF4FF00109A94630780321084208D119
S31508008F5006F0AAF8874202D05FEA090402D0012483
S31508008F6000E00024B079002873D006F09DF880450B
S31508008F700BD106F099F8834600225946504600F070
S31508008F80C7F8002865D00020AEE000F0B5F838BF75
S31508008F90B0F802B0F0D3404601F05CFD20B9504667
S31508008FA0FEF71FFF400514D570784007C346E3D582
S31508008FB0504606F076F900F093FC401C4200D2B207
S31508008FC029465046FFF78BFF707800F0FB0070705B
S31508008FD0D2E7707840071CD5504606F062F900F0D3
S31508008FE07FFC06466F1CF9B200F07CFC002E18BF09
S31508008FF0FF2806D10022F9B25046FFF7EEF9C3461C
S31508009000BAE705EB4000811CC9B25046FFF787FA5C
S31508009010B1E701AA00A9404604F046FC8346DCB144
S315080090200298802804D0402816D19DF8000098B1EF
S31508009030307800F03F003070384601F00BFD10B96B
S3150800904006F032F807463A460021404606F08EFBFF
S31508009050002848D0012047E00198B8B304F07BFB0C
S315080090608DF801000198007900F0300002909DF813
S315080090700100FF2805D140F223110FF27000FBF71B
S315080090805DFC1CB30298102811D020281ED1B9F116
S31508009090000F07D09DF802109DF8010004F06CFC43
S315080090A0A0B904E0019800790C2108420ED0F379A2
S315080090B05A464146384606F0B1FE019800790199AC
S315080090C000F0F30040F00400087101259DF8000047
S315080090D028B10121404605F0D6F820B1C346002D37
S315080090E08ED0302249E70220BDE8FE8F6E65747780
S315080090F06F726B2E63000000DFF814090068017BAD
S31508009100C91E03297047401E8041C00F70470022C0
S31508009110F8B504460D461646FEF759FE007800F0E7
S31508009120DBFB0CBF0127002729462046FEF781FEF8
S3150800913005F0BAFF854217D0284601F080FC50B9E1
S31508009140DFF8680A01783246204601B0BDE8F040EB
S31508009150002304F043BD6FB905F0A6FF002322469D
S31508009160294607F090FA28B10121204601F02CF88B
S315080091700120F2BD2046FEF734FE400505D52046FF
S31508009180BDE8F4400021FFF7A5BB2046FCF734FCF8
S31508009190FFF7B9FFF2BD2DE9F041044616468846A9
S315080091A0304606F04BF907463046FEF706FE3E1AED
S315080091B0F6B23719A8EB060292B2394607F10E0045
S315080091C0FBF7BAFC28203870DFF84458286890F86E
S315080091D02000787305F040F90246791C0120FFF754
S315080091E09DFD0822DFF8141C781DFBF7A5FC2868EE
S315080091F090F8200008F0A8F808F10E01334600227E
S31508009200C9B2204605F049FB1220BDE8F0812DE9D8
S31508009210F04F85B080460D4606F010F98246404666
S31508009220FEF7F6FD81464046FEF7C7FD07460AF1FA
S315080092300E0189B2404606F04CF8002852D00020AC
S3150800924000900E235246414601A8FEF7CAFF0DF1CB
S3150800925005010120FFF770FD83469DF804009DF87F
S31508009260114028283ED10822DFF8901B0DF109008D
S31508009270FBF7ACFCB0B3DFF8886B204608F064F85F
S3150800928058B9306890F82000201AC0B280280DDA44
S315080092900021002008F07CFB08E001200090002354
S315080092A052463946404605F02DFBD8B1404605F0F2
S315080092B0DCFF49460DF1090009F031FCFE2882461B
S315080092C010D0FF283CD1484604F00BFE8246BAF17E
S315080092D0FF0FDFF8307B0BD00DF1090104F0F7FF23
S315080092E0387868B300211920FCF76BFF0020F0E2FC
S315080092F000F0FBFA0AD1404606F0A0F801464046BF
S31508009300FFF766F8082801D10120F0E73878002829
S31508009310E8D1306890F82D1090F82C00814206D3D9
S31508009320A81CFFF7F0FC4FF6F8718842DADA0DF15F
S315080093300901484604F027FF484604F0D2FD824654
S31508009340306890F82000844205D02146012007F0B5
S315080093500AFE0028C6D0306890F82000844203D15F
S31508009360504609F04AFC28B95946504609F0C0FB50
S315080093700028BCD05946504609F0CAFBC4E738B5A0
S31508009380DFF8880AFFF734F90446FF2C1DD0DFF80A
S31508009390805A0321FEF70BFD287004212046FEF7AC
S315080093A006FD687005212046FEF701FDA87001201C
S315080093B002F00AFA204600F009F82046FEF772FE87
S315080093C0BDE83240002002F0FFB931BD38B5044689
S315080093D0FEF70CFD00F00C052046FEF70CFDFCF729
S315080093E09CFE2046FEF702FD00F014FD32D101F086
S315080093F0B9FD18B1204601F0DFFD75E0062200210F
S315080094002046FFF76CFD2046FEF7D8FD02F035FA38
S315080094108DF801008DF802409DF8010048B92046F4
S31508009420FEF7CCFD01460DF1010002F05AFA8DF85F
S3150800943000009DF80100802804D100A809F013FC5B
S31508009440002851D1FCF764FE00A8FEF7ADFBFCF737
S3150800945065FE49E0042D204617D1FEF7C2FC00053B
S315080094601ED402200021FCF7ACFE01F07BFD08B1FA
S31508009470042D39D00C2D15D12146012009F065FDA2
S3150800948090B3204608F004FD2EE0FEF700FDB0F587
S31508009490006FE6D12046FEF71EFD00F089FBE0D1FD
S315080094A00020DFE71DB9204608F0A8FE1CE0042DC1
S315080094B01AD1DFF84C090568687B02280CD0FFF73B
S315080094C0AAFC48B9687B332818BF312804D001287C
S315080094D004BF287B052807D12146022009F035FD5F
S315080094E010B1204600F004F8FCF718FE31BD000064
S315080094F02DE9F04F85B08246FEF769FC05465046D1
S31508009500FEF786FCADF80600281DFFF7FCFB834630
S31508009510A81CFFF7F8FBADF80400284605F0ADFFD8
S3150800952003904FF6F87200F0E0F9687800F002014F
S31508009530029100F00100BDF8041004900CBF012749
S3150800954000279142ACBF4FF001084FF00008504683
S3150800955005F074FF8146287800F03C01082943D1BC
S31508009560DFF8901509681AF8011089453CD217B931
S315080095700321084238D10298DFF8844848B12068A8
S31508009580C07E002830D029465046FFF740FE002806
S315080095902AD02FB15146032009F0D7FC002823D042
S315080095A0494600F09FF90646029878B92068C07EB9
S315080095B060B1BDF80400009005F076FD009981427F
S315080095C012D197B1062E18BF072E0DD12068417B00
S315080095D0022956D1029911B9C07E002851D1BDF889
S315080095E0060009F056FE60B173E106F00300012893
S315080095F0ECD04A462946504600F07AFD0028E5D1C7
S3150800960067E1BDF80600009005F04EFD009981421D
S3150800961011D12068007BC01E032808D205F044FD3E
S315080096200146206840880D2209F070FE51E10120AC
S3150800963009F044FD4DE1BDF8060001F00BFA70B9DA
S3150800964005F03AFD4FF6FF71884208D0DFF8AC0BFB
S3150800965000780A2804BFBDF8060004F0D5FB039974
S315080096600122584609F053FD0028E3D1284605F0A3
S31508009670F7FE0146BDF80400002209F048FD00285F
S31508009680D8D1BDF804004FF6FC71884266D120682F
S31508009690007BC01E0328CDD3A87908B1401EA87147
S315080096A0687840072AD50020029002AA00A95846E1
S315080096B004F0FAF8029808B304F04DF80446BDF829
S315080096C00400FCF759FC0299097901F03003102BC4
S315080096D01CBF01F00C02082A03D0029A01F0F3011C
S315080096E011710299097901F03301202906D1FF2861
S315080096F004D001460122204604F027F9BDF80600E9
S31508009700FCF73AFCFF2804D0DFF8F42A1268002197
S31508009710815409F10104049840EA0800C0B20028FF
S3150800972074D1E979584604F04FFB09F0A3FA08B159
S31508009730039820B1BDF80610584600F0CAF905F09E
S31508009740B3FCBDF80410884260D0084601F082F9DF
S3150800975070B177B1012E1BD1002267E04FF6FD717B
S31508009760884299D12068007B001F022894D2B0E075
S3150800977077B9BDF8040001F062F948B1BDF80410E4
S3150800978000235246584606F07EFF002840F09D808A
S31508009790DFF8700A007848B9584601F05BF928B92D
S315080097A0BDF8040001F056F90028E0D0C7B1052E2F
S315080097B016D105F079FC8DF8000005F075FC000A55
S315080097C08DF80100022200A95046FEF774FD002814
S315080097D01BD1E1B25046FEF7D1FD0178491C017054
S315080097E0687840070AD5504605F05BFD411CC9B2AA
S315080097F05046FEF7C3FD0178491E01705046FFF733
S3150800980085FB00211C20FCF7DCFC62E0002F4ED013
S31508009810701E09285DD8DFE800F005050E1319301B
S31508009820393F4343022E0CBF0122002249465046C7
S3150800983006F07CF94DE04946504609F09BFD48E0A4
S315080098404A465146584609F0D0FE42E0E1B200F0D9
S3150800985049F80546DFF8B07903983860FCF758FCF4
S3150800986009F10200C0B20090534639682A465846A4
S31508009870FEF79EF9FCF752FC2BE0CDF800902B463C
S3150800988052460021012008F08CF922E04A4651464A
S31508009890012008F056FA1CE050460AF042F818E093
S315080098A050460AF09CF9B8F1000F12D009E0049866
S315080098B020B1287A00F010F80BD102E0B8F1000FB9
S315080098C003D0504600F016F803E00021504600F099
S315080098D07BFC05B0BDE8F08F00F003000128704757
S315080098E0054629465046FEF773BD287800F0030062
S315080098F0012870472DE9F84F8046FEF768FA0546B5
S315080099004046FEF785FA0446281DFFF7FCF981460E
S31508009910A81CFFF7F8F9834695F807A0204601F03A
S3150800992099F807462946404600F074F80646022E7E
S3150800993061D022465146484604F073F800285AD1A9
S3150800994005F0B2FB814556D0DFF8C008007860B94B
S31508009950012E06D009F08EF918B1284605F08DFDBE
S3150800996018B12146484600F0B4F822465146484602
S3150800997004F09AF800283ED028780321084203D13B
S315080099800021404600F020FCA879A0B300F035F885
S3150800999031D36878C00715D52C7A58460AF04FFC9B
S315080099A040B1E10804F0E00001F01C01084340F072
S315080099B0010006E004F01C001C2803D005281ADB69
S315080099C0201F28724FF6FF7529464046FEF731FAE2
S315080099D00FB1002203E0FCF7A5FE00F03F020023CA
S315080099E00221404604F0FAF8AB4504D14046BDE8EA
S315080099F0F24F03F06DB8BDE8F18FDFF80404006894
S31508009A00007BC01E03287047E42B00203C1D002065
S31508009A10C42B0020F0B587B0044608780321084215
S31508009A2054D12146042009F090FA00284FD0204648
S31508009A3005F004FD014600F058FB0321084245D114
S31508009A40204605F0FBFC0546294600F04EFB0FF2C2
S31508009A50E07248CA05A948C10321084236D1002048
S31508009A6000906A1C0523D2B2214603A8FEF7B9FB6B
S31508009A70052203A905A8FBF7B5F838BB204605F06B
S31508009A8060FD0546A91C00F02FFB0646691C00F080
S31508009A902BFB00EB062605F10B0100F025FB07461C
S31508009AA000200090EA1C0823D2B2214601A8FEF73E
S31508009AB098FB2046FEF7ACF93A46B1B209F0D7F85A
S31508009AC0012201A9B0B209F022FB00E0002007B08C
S31508009AD0F0BD38B504460D4600F0BCFF002818BF97
S31508009AE0AC4206D02046FCF747FABDE8324001F002
S31508009AF043B831BDF81C00202DE9F04180460D46DB
S31508009B0000260DB9012602E0312D08BF0025FEF713
S31508009B106DF900F07FF913D101F024FA80B9DFF866
S31508009B20F06686F80080FCF7F3FA4046FEF7F0FA8E
S31508009B302946FEF73AF8FCF7F1FAFF20307032E0D2
S31508009B40DFF8D0764046FEF751F90C21084205D1D8
S31508009B503978BDE8F0410120FCF733BB03244046C1
S31508009B60FEF795F9B0F5006F07D14046FEF7B3F951
S31508009B7000F01EF808BF012401D005B10524397884
S31508009B802046FCF71EFB2946404603F013F850B959
S31508009B902946404604F0A2F828B9324629464046E6
S31508009BA0BDE8F04108E0BDE8F08100001C1F002078
S31508009BB04FF6FF71884270472DE9F04F83B007468C
S31508009BC00E461446FEF712F900F024F908D101F002
S31508009BD0C9F928B122463146384601F0EEF907E1BF
S31508009BE0DFF81C823846FEF701F900F00C000C2855
S31508009BF038465AD1FEF7EBF88246FEF72DF950445F
S31508009C004FF0FF090178DFF80856012906D0022926
S31508009C1012D0042924D07C2939D0E9E04EB99AF823
S31508009C2004009AF8031001EB002080B205F048FA08
S31508009C30DEE008F0AEFADBE0002E04BFC1780029AA
S31508009C4008D18278407800EB0220394680B207F0C6
S31508009C5076F892E00AF10501002000F0D4FD92E0C2
S31508009C60D8F80000407B0228E5D11EB90AF0BCFBF3
S31508009C7004B931263346222263A10320FDF787FF64
S31508009C802F70FCF745FA3046FDF78BFF08E02F707A
S31508009C90FCF73EFA3846FEF73BFA3146FDF783FFF6
S31508009CA0FCF73CFA85F80090A2E0FEF790F8044627
S31508009CB0201DFFF728F88146A01CFFF724F8054663
S31508009CC04FF6F87B5D450BDAD8F80000B0F844107B
S31508009CD0491CA0F844101EB144304188491C4180F3
S31508009CE0207800F00301012950D1384605F0A6FB7B
S31508009CF001463846FEF76CFB042802D0072804D034
S31508009D0076E0384609F05CFD72E0204605F0A8FBCF
S31508009D1000286DD00146002000F075FD044638463F
S31508009D2005F08CFB00210091421C0323D2B2394670
S31508009D3001A8FEF756FA002E02BFD8F80000407BAD
S31508009D4002281FD101A88178E1B940789DF804104E
S31508009D5001EB00252046FF280CD0DFF8BC14096863
S31508009D6031F810204FF6FF331A4021F81020A9B217
S31508009D7000F0C9FEA8B203F006FD00211020FCF78A
S31508009D8020FA35E0204600F0F7FE31E003210842CC
S31508009D902ED105F089F9814504D03846FEF721F819
S31508009DA0C00606D5002E0CBF0021662138460AF0EB
S31508009DB0DFFDEEB15D451BDA607810F0040606D1CA
S31508009DC0284603F097FD070002D0012700E0002788
S31508009DD0284600F034FE10B1062267B904E00EB139
S31508009DE00B22FAE737B902222946484609F08EFAC5
S31508009DF0BDE8F78F0C2249462846F7E7F82B0020DE
S31508009E00C42B0020E42F002042420000101F00202F
S31508009E10E12F002000F00C00082870472DE9F04FCC
S31508009E20044685B094F800A05046FDF7E4FFFCF719
S31508009E3074F901F097F8B0B1A079012805D1DFF8D7
S31508009E40DC03017841F001010170207801F0B6F8D1
S31508009E50002840F0D080607800F0F0006070FCF7D1
S31508009E605DF9002035E55046FDF7B1FF0646301D81
S31508009E70FEF749FFADF80000B01CFEF744FF814627
S31508009E80504605F0DBFA83465946FFF72BFD8DF859
S31508009E9002003078FFF720FD0CBF9DF80250FF2521
S31508009EA0FDF7E4FEA188401A1FFA80F805F0FCF8D1
S31508009EB0BDF8001088420CBF01270027084609F0A4
S31508009EC0E8F90028C7D1484609F0E3F920B1484621
S31508009ED000F0C0FD0028BED0FFF78FFD21D2062D69
S31508009EE018BF042D62D05A463146504600F000F994
S31508009EF0B8B9FEF790FF20B19DF80200FFF7ECFC19
S31508009F000FD000F0BEFF00284DD005F0CDF8014671
S31508009F10301DFEF7FFFEC248006841885046FDF72F
S31508009F2088FF012D42D15046FDF772FFFFF740FE2C
S31508009F303CD1002300F0B3F805008CD06A799DF86F
S31508009F400D00824207D20BF10501C9B25046FEF751
S31508009F5044FA00F09EF8FCF7E5FB7E2190FBF1F150
S31508009F607E2202FB110000F58070608018219DF8A2
S31508009F700E00084212D060780F21084208BF002F51
S31508009F800CD1FCF7C5F8304605F077FA01466A7930
S31508009F90BDF80000FDF70FFEFCF7C0F8FCF7BEF8A9
S31508009FA09DF80F005EE72820608058E74FF6F870A6
S31508009FB0814502DA7078C00721D5FFF71EFD1ED34A
S31508009FC040F6B93080455CDAFCF7ACFB00F03F00A0
S31508009FD0C0F5FA706080607800090CD05FB9F17935
S31508009FE0BDF8000003F013FD00281EBF80884FF659
S31508009FF0FF718842A1D0FCF791F8012032E7022DC3
S3150800A00026D1012300F04BF8054605F04DF8014628
S3150800A010BDF80A00814202D000F01CFD58B3002D9D
S3150800A0208BD06B8801225946504605F02AFD7C489C
S3150800A0300068417E491C4176F171BDF806006988C1
S3150800A040884201D000F025F84FF4C8706080D2E746
S3150800A050032D10D17FB10BF10101C9B2FFF742FC04
S3150800A0600C2808D104F0A3F9FFF7A2FD03D0014696
S3150800A0705046FDF7DEFE607800097FF4ECAEB8F1D5
S3150800A080FB0FBFF6E8AEFCF74DFB00F01F001030E3
S3150800A090DCE7607800F0F000801C6070704701AA69
S3150800A0A05946504605F01FBC70B5044600F05AFFE5
S3150800A0B0C0B92046FDF78BFE0546204605F0BEF9D9
S3150800A0C0014600F012F806462046FDF7A1FE4FF6B7
S3150800A0D0F871884204DAFFF708FC08BF022E01D19E
S3150800A0E0012070BD002070BDC9B22046FEF770B9C8
S3150800A0F0F8B5044615460846FEF705FE20F4007036
S3150800A10041F20801884218D146480068205C401B85
S3150800A110072812DB00260FF220177119FFF7E4FF54
S3150800A120F15D814203D0022E08BF002805D1761CB6
S3150800A130F6B2072EF1D30120F2BD0020F2BD2DE9BB
S3150800A140F04180460C46FDF751FEFFF763FE31D01D
S3150800A150201DFEF7D8FD0546E6794046FDF758FE70
S3150800A16007464046FDF73DFE00060FD52C48006819
S3150800A170017B091F022909D2417B022906D14088A1
S3150800A1804FF6FF71884218BFFCF713F8A01CFEF7BC
S3150800A190BAFD4FF6F871884202DA6078C0070BD527
S3150800A1A020780321084205D13A463146284603F06D
S3150800A1B038FC05E0012005E03146284603F0F0FDAD
S3150800A1C0FEF7A1FFBDE8F08110B5044641B1FF22B4
S3150800A1D00321FDF7E5FD002204212046FDF7E0FDF9
S3150800A1E021461148FEF7EFF92046FDF74DFF0F48C7
S3150800A1F00078BDE81040FEF755BB0000F21E0020AF
S3150800A200181D0020081D0020D42B0020F22E002047
S3150800A210E41E0020E82F0020141D0020912D0020A8
S3150800A220C42B0020F81C0020181F0020C92F00206E
S3150800A230001300000000000000FF01400EC0FF00F0
S3150800A24010B5DFF82004006898B9FBF7C1FB04468F
S3150800A250DFF814040178002918BF052904D1032161
S3150800A26000F8041BFEF730FA2046BDE81040FBF75D
S3150800A270B5BB10BD2DE9F047DFF8F043DFF8E8532A
S3150800A28027782978DFF8DC83002028710FF2004050
S3150800A29051B9D8F8004014B99D21FAF74FFB0020B0
S3150800A2A0C8F80000A047B1E003291CBFA321FAF7AC
S3150800A2B045FBFF26FF2F26700CD03846FDF79BFD81
S3150800A2C0FBF72BFF3846FEF737FC3846FDF7EAFE64
S3150800A2D0FBF724FF00206870FEF744FB002800F017
S3150800A2E0838020780127FDF786FD8046FBF715FF5A
S3150800A2F02078DFF87C93FDF779FD00F00C000C2838
S3150800A30016D12078FDF763FD8246FDF7A5FD99F87D
S3150800A310001010F80A00052902D1062808D106E01F
S3150800A32001291CBF0329082902D1072800D10027C3
S3150800A3302078FDF75BFD00F00C00082804BF99F8AB
S3150800A3400000082834D09FB300F00CFE88B12078AE
S3150800A350FDF74CFD00F00C0008280AD1207800F023
S3150800A3603CFEC44F39688873207800F03EFE396891
S3150800A370C8734046FBF7EEFED0B141212078FBF7C3
S3150800A38015FC18B920784121FFF7B6FB2078FDF7B0
S3150800A39089FE2670FBF71CFB064603202870281D3D
S3150800A3A0FEF792F93046FBF719FBFBF76CFE17E050
S3150800A3B0207800F08AF804466878AF49C0074EBF8F
S3150800A3C00020AE4800780870FBF702FB064601201D
S3150800A3D0287001212046FBF705FF3046FBF7FEFAF9
S3150800A3E0BDE8F047FBF79ABEFBF7F2FA06460020EF
S3150800A3F02870D8F8000010B1281DFEF765F9304618
S3150800A400FBF7ECFABDE8F047FBF73DBEBDE8F08781
S3150800A41080B595480178012904D0022906D0042977
S3150800A4200BD010E0BDE80140FBF787BFF9F79CF9B0
S3150800A430BDE802403120FEF731BB05210170BDE8B9
S3150800A440014002F0A8BFBDE804404FF4B4710FF212
S3150800A4504020FAF773BA38B5FBF7BAFA824D0446C4
S3150800A4602878052803D040F2771100F02AF8002052
S3150800A47028707C48006810B1281DFEF725F920468B
S3150800A480BDE83240FBF7AABA70B50446FBF7A0FA56
S3150800A490754E05463078002818BF052803D04FF4B6
S3150800A4A0C27100F00EF8042030704FF6FF70844237
S3150800A4B01CBF204601F090F92846BDE87040FBF71E
S3150800A4C08DBA0FF2CC10FAF739BA2DE9FE4F80464D
S3150800A4D0FDF773FC8DF80500694F38689DF805107F
S3150800A4E018F80000401A8DF804004046FDF77EFC77
S3150800A4F000F00C0004280CBF012500254046FDF796
S3150800A50007FEFF2883460EBF00273968475CDFF839
S3150800A51074915D4CFF20661C89F8000000F022FD4E
S3150800A52058B14046FDF762FC00F00C00082804D13B
S3150800A530404600F045FD01208BE00DB34046FDF78F
S3150800A54067FC06464FF6FF7048F6410A864218BF72
S3150800A55048F6610AFBF714FE0146201DFEF7DAFBF2
S3150800A5603146A01DFEF7D6FBFBF706FE014604F1B1
S3150800A5700800FEF7CFFB04F10A0004F10A06029070
S3150800A580002000909DF804309DF80520414630468D
S3150800A590FDF727FE9DF80400861947B100200090B4
S3150800A5A03B46002259463046FDF71BFEBE196DB1E3
S3150800A5B04046FDF70CFC4078800726D50298311AEC
S3150800A5C04246C9B2FEF7E7FD86191EE0A078617813
S3150800A5D001EB002080B2410B01F0010181F0010579
S3150800A5E04DF6FF7101EA000A0AF00700032805D1B3
S3150800A5F0601CFDF731FC0019407804E01C4800781F
S3150800A600082802D1072089F800004046FBF7A6FA79
S3150800A61008B14AF0100A1FFA8AF1601CFEF77AFBA5
S3150800A6201AF0070F04D119480178491C017004E093
S3150800A63010480068017E491C0176301BE170401CF9
S3150800A6402070301B7F2803DB4FF4F671FFF739FFC4
S3150800A6502846BDE8FE8F04480178481E8041C00F91
S3150800A66070470000282E0020902D00200F1F002084
S3150800A670F21E0020C42B0020381F0020391F00209E
S3150800A680F81C0020071F00209C2D00201C2E0020EF
S3150800A6906D61632E63000000FEB5DFF81817DFF85A
S3150800A6A01857FF2008700021DFF810074180417015
S3150800A6B0002407E02046FBF730FD09F095FEFBF77E
S3150800A6C02DFD641C2878E4B28442F3D3DFF8F04603
S3150800A6D02078420000F014FA0021FAF770FA0025F3
S3150800A6E0DFF8E06600AF18E00B232A46142100A81D
S3150800A6F0F8F7CAF9787A397A01EB0020316821F837
S3150800A700150080B200281CBF4FF6FF71884203D09F
S3150800A710B97A284600F006F86D1C2078EDB2854215
S3150800A720E2D3F7BDDFF8A026126809074CBF41F24D
S3150800A730020141F2060122F810100021DFF88C26EA
S3150800A74012688154704770B5DFF87C462468002289
S3150800A750002302E024F813505B1CDFF864562D78BA
S3150800A760AB4209DA34F813506E07F5D501220029F1
S3150800A77014BF05438543EDE7104670BD002100E090
S3150800A780491CDFF83C261278C9B2914209D2DFF893
S3150800A7903826126832F8112002408242F0D1012090
S3150800A7A07047002070472DE9FE4306460C461546BD
S3150800A7B0DFF81086DFF8089601E0E7B1761C99F80D
S3150800A7C00000F6B286421BD2D8F8000030F81670A0
S3150800A7D000A9304600F076FA002CEED0002F1CBFF8
S3150800A7E04FF6FF708742E9D0082200A92046FAF7FB
S3150800A7F0EDF90028E2D19DF80A002870304600E0FD
S3150800A800FF20BDE8FE8380B500AAFFF7CCFF02BD96
S3150800A810FEB50D46044611461E46082200A8FAF75C
S3150800A8208BF9280A8DF809008DF808508DF80A600A
S3150800A83031462046FFF776FF20460AF09BFA00F0DD
S3150800A8405FF9274630F81710320641F4804104D4E0
S3150800A85041F0080120F8171006E020F81710DFF875
S3150800A86070050078FE2805DB00A9204600F0DBF914
S3150800A87030B9FEBD0B2300AA21461420F8F715F9B6
S3150800A880DFF84005006820F817500022DFF8440575
S3150800A8900068016B90F82C00381841F82020012038
S3150800A8A0FEBD2DE9F04784B08246884616461D4609
S3150800A8B000AA51460020FFF776FFFF280746DFF873
S3150800A8C004450CD09DF80010B14202BF216831F84A
S3150800A8D01000804503D0384600F04EF9FF274FF6A2
S3150800A8E0FF79C84513D095B901A9404604F0ABFBDA
S3150800A8F098B90022082101A800F0F9FA68B90822D7
S3150800A90001A95046FAF762F938B1C84605E0FF2FA3
S3150800A91003D0384600F030F9FF27B107404604D582
S3150800A92048452CD108F0A2FB29E0FF2F20D1DFF8FB
S3150800A9308C54DFF8A4142A780978914211D0484536
S3150800A94002D108F093FB804600210020FFF75BFF49
S3150800A9500746FF2F05D0334652464146FFF758FFB4
S3150800A96008B948460BE02878401C287007F032FCE6
S3150800A97038460C9900F09CF8206830F8170004B0A7
S3150800A980BDE8F087DFF84014096800204EF6FF732B
S3150800A99005E031F810201A4021F81020401CDFF895
S3150800A9A0202412789042F4DB704780B501460020D7
S3150800A9B0FFF729FFFF281CBFBDE8024000F003B8D7
S3150800A9C04FF6FF7002BDDFF80014096811F8101081
S3150800A9D0890705D5DFF8EC13096831F810007047C8
S3150800A9E04FF6FF70704770B50D46DFF8EC1309781F
S3150800A9F0884284B0144606D2DFF8CC13096811F8E9
S3150800AA001010890701D4932017E000A900F05AF91D
S3150800AA109DF80A60082200A92846FAF78DF8B007BB
S3150800AA2048BF022007D4300748BF032003D43006A6
S3150800AA304CBF042005202070002004B070BD80B5EE
S3150800AA40FBF79AFAFF2803D000F00DF8800E11E004
S3150800AA50002002BD80B5FBF78FFAFF2801D0012040
S3150800AA6002BD002002BDDFF86013096831F8100046
S3150800AA700006704700F0010002BDE0B500A900F02D
S3150800AA8021F99DF80A000EBD10B584B00C46FBF7F7
S3150800AA9073FAFF2809D000A900F014F9082200A9C2
S3150800AAA02046FAF749F8012000E0002004B010BD5E
S3150800AAB070B5044611F0010584B026460DD000AAEB
S3150800AAC001A9FFF790FF40B900F01AF810F8160030
S3150800AAD000F0040101A809F09FFB204602F01DFFC3
S3150800AAE000953346232289A10320FDF750F8FBF78A
S3150800AAF00FFB29462046FDF753F8FBF70FFB7FBDF2
S3150800AB00B14800687047FEB5AE4E04463068254623
S3150800AB1030F815000F46B8420FD000A9204600F0BD
S3150800AB20D1F8380A8DF809008DF8087000A9204672
S3150800AB3000F0EEF8306820F81570F7BD38B5054610
S3150800AB40A04800682C4630F81400A0B19B4801784C
S3150800AB50491E017007F03EFB00212846FFF7D3FF88
S3150800AB6099490968002021F814000021BDE83440FD
S3150800AB701120FBF726BB31BD10B504469648007870
S3150800AB8084420CD28F48006830F8140038B100218E
S3150800AB902046FFF78DFF2046BDE81040CEE710BDE2
S3150800ABA070B50024864D04E000212046FFF7ABFF70
S3150800ABB0641C2878E4B28442F6D37E4C7F4E207813
S3150800ABC0FF2805D0FDF76EFAFF2020700020708060
S3150800ABD000203070002128784200BDE870407A488D
S3150800ABE00068F9F7ECBF30B5774B794A1B681278DD
S3150800ABF033F810400021FE2AACBF02220822E4B234
S3150800AC0014420DD0002407E033F81450EDB2154273
S3150800AC101CBF0B3189B2641C8442F5DB084630BD83
S3150800AC204FF6FF7030BD2DE9F04383B081460C46E0
S3150800AC30FFF7D9FF5F4E644F604D80463078FF2896
S3150800AC4008D10B210020FDF7B0FA30700021698089
S3150800AC50FF2806E0698801F10B0292B2FDF737FB7F
S3150800AC60002809D1386830F819104FF6F7721140E4
S3150800AC7020F81910002023E0698808E00B220092CA
S3150800AC80A1F10B07BBB20246FDF76CFCB9B23078EE
S3150800AC908845F3DB8DF80400414601A8FDF78CFBD7
S3150800ACA00246012000900B239DF804102046FDF76C
S3150800ACB0B4FA68880B3068806878401C6870012090
S3150800ACC0BDE8FE8330B583B004460D46FFF78BFF1B
S3150800ACD04FF6FF71884206D10B23224614212846D7
S3150800ACE0F7F7D2FE37BD334909788DF804100146C7
S3150800ACF001A8FDF761FB0246002000900B239DF892
S3150800AD0004102846FDF789FA37BD00004242420082
S3150800AD107CB505460E46FFF766FF01464FF6FF70FF
S3150800AD20814206D10B23324629461420F7F7BDFE89
S3150800AD3073BD204C707A337A227813EB00202AD11F
S3150800AD40FFF7DEFE30F815304FF6F776334020F879
S3150800AD5015301A4D6878012806D11046FDF7A2F974
S3150800AD60FF202070002611E06888A0F10B06701AF3
S3150800AD7080B230B1009001F10B039BB21046FDF78B
S3150800AD80F1FB69882078B2B2FDF7A1FA68786E807F
S3150800AD90401E687073BD8DF8042001A8FDF70CFBF2
S3150800ADA00121009102469DF804100B233046FDF759
S3150800ADB034FA73BDD91E00203C1D00208C2F0020BC
S3150800ADC0101D00200C1D0020141D0020181D002039
S3150800ADD0A82F0020C42B0020731D0020008F8E8C06
S3150800ADE0800000005C480068408870475A48006840
S3150800ADF0001D704758480068C07E704770B5564CAD
S3150800AE00564D2168564E4873022819D100F0AAF803
S3150800AE1078B92068007B001F022824BF3046FDF75A
S3150800AE2053FC2068007BC01E032824BF2846FDF774
S3150800AE304BFC20684069C00054BF9024BC240AE03B
S3150800AE4000F090F810B100F0BFF803E030702870F9
S3150800AE50FDF783FD9124204607F007FF50B92346E6
S3150800AE6013223CA10320FCF792FE2046BDE8704061
S3150800AE70FBF7A5B970BD38480068407B00F00F00A5
S3150800AE80704735480068407B00F00F00022801D162
S3150800AE90012070470020704738B5044600F062F874
S3150800AEA020B12046BDE8324000F082B82A4DFFF7AF
S3150800AEB0E8FF28B92868407B032801D0932032BDD3
S3150800AEC004F0FAF820812868C07BA0722868807B85
S3150800AED0E072204607F015FD0020207304F11401E6
S3150800AEE004F1100008F043FEE081002032BD10B5E1
S3150800AEF0002300E05B1CDBB28B4205D210F8014B45
S3150800AF009442F7D0002010BD012010BD80B508215D
S3150800AF10F8F706F808B1002002BDA52002BD0E48C4
S3150800AF200068407B01281CBF3128332801D1012045
S3150800AF3070470020704710B50446F7F78CFB10B928
S3150800AF4005490968CC7310BD03480068807B7047C3
S3150800AF500000000042420000C42B0020E82E00201A
S3150800AF603C2E002080B504F0AFF8032801D101205B
S3150800AF7002BD002002BD80B5FFF7F4FF38B1BDE879
S3150800AF8004404FF490710FF20800F9F7D7BC01BDE1
S3150800AF90656D6265722D737461636B2D636F6D6D7C
S3150800AFA06F6E2E6300000000002070470020704777
S3150800AFB0B5207047B5207047704770470020704726
S3150800AFC070477047704770477047002070470020E9
S3150800AFD07047012070470020704780B56C210FF23A
S3150800AFE02000F9F7ABFCFF2002BD80B572210FF2F5
S3150800AFF01000F9F7A3FC002002BD002070470000EE
S3150800B00072663463652D737461636B2D7374756230
S3150800B010732E63002DE9F0438BB004468846164626
S3150800B020FBF76CF8684901EBC007387820B909F0D6
S3150800B030BFFE0546FF2D01D1702030E006A9204647
S3150800B04004F001F85FEA000928D106A800F096F88E
S3150800B0505FEA000922D108A800F0BEFA0020059090
S3150800B06004950390434608A8029006AA0320019077
S3150800B07021214FF400600090204609F0D6FE5FEAD1
S3150800B08000090BD1012038707C807E60402009F0D1
S3150800B09025FF4FF4A0514D4809F0A0FE48460BB0D5
S3150800B0A0BDE8F08310B5044600F068F850B94FF6CD
S3150800B0B0FD7120460AF02CFB4548007808B9B720F0
S3150800B0C010BD002010BD30B583B004460D46FBF711
S3150800B0D015F83D4901EBC000017879B14088A042D6
S3150800B0E00CD145B900A9204603F0ADFF18B900A850
S3150800B0F00AF0F2FD10B1002000F029F837BDF8B5C6
S3150800B10004460D4609F046FEFAF7F8FF2E4901EB0C
S3150800B110C006204603F07DFF07464FF6FF708742BC
S3150800B12004D10022002120460BF069F8307840B19E
S3150800B1307088B84205D1012D0CBF0120002000F00F
S3150800B14006F8BDE8F14009F030BED8E7002038B56A
S3150800B1500446FAF7D3FF1C4901EBC0050020287006
S3150800B1601A4809F038FE402009F00BFF6968080004
S3150800B17003D02046BDE83440084731BD10B58AB033
S3150800B180044600F0BCF808B9702019E000A90120AF
S3150800B1900AF09CFB18B9BDF80000C00601D4BB2014
S3150800B1A00EE0012120460BF04BF9FF2807D10121BB
S3150800B1B008480BF045F9FF2808BFB42000D0002046
S3150800B1C00AB010BD0000000048220020881F002099
S3150800B1D0361E0020DC55020838B5FBF7BBFA0022FC
S3150800B1E0002100A809F0A3FE08B1009832BD03F0BB
S3150800B1F067FD0446012300220F210120FCF742FBCC
S3150800B200F8F7FBFF0546FCF7A2F902462B460FF2B4
S3150800B210A44101200BF062F9F8F7F5FF0546FCF7A3
S3150800B2209AF902462B460FF2A44101200BF056F973
S3150800B23040F2A175FCF78BF925FA00F0C0070AD58C
S3150800B240DFF8EC5328780BF0A7F928780BF02EFADC
S3150800B25028780BF02EFB64B10FF2A4420FF28C4152
S3150800B260234601200BF03AF998210FF29C40F9F792
S3150800B27065FB09F085FD00F0DDFC0BF023FE09F007
S3150800B28055FE09F0DAFE022102200CF06FFA00F0F2
S3150800B290E5FF0CF073FADFF89C1341F20200088010
S3150800B2A05220DFF894130880DFF8901308804FF4D3
S3150800B2B00040F7F71AF8CAA40FF25C4501E009F056
S3150800B2C076FDFBF7A9FD03F0F2FD09F0DCFEFCF7BD
S3150800B2D005FC0CF076FE012100200CF082FA00280D
S3150800B2E0EDD02A4621464FF6FF700BF0FDF8E6E74B
S3150800B2F0DFF84C13098810237F22F7F707BB03F002
S3150800B300D3BE03F0D9BEFFF7B6BD05F0A4B938B56C
S3150800B3100CF07FFF04460025284608F054FEA0429C
S3150800B32001D1284632BD6D1CEDB2022DF4DBFF209B
S3150800B33032BD38B5044609F02FFD050008D14FF493
S3150800B340A85120460CF0FFFF054609F02EFD2846B9
S3150800B35032BD30B585B000F0AEF803F0A5FE38B1C1
S3150800B3606088B0F5006F03D1601DFFF79BFE13E000
S3150800B370204609F004FE050015D1002500A9284637
S3150800B3800DF065F9002804BF9DF80000002805D1D6
S3150800B390214628460DF066F9054604E06D1CEDB217
S3150800B3A0022DEBDBB42509F000FD284605B030BDBB
S3150800B3B038B500F080F8204609F0DFFD050003D116
S3150800B3C020460DF09BF9054609F0EFFC284632BDEC
S3150800B3D038B5FF2504468DF8005000A909F09AFDF6
S3150800B3E010B19DF8000032BDFAF78AFE954901EBC7
S3150800B3F00411097B814207D120460BF09AFD18B14A
S3150800B40020460CF042F80546284632BD70B504467B
S3150800B4100D4609F081FDF8B920460CF034F80646C9
S3150800B420FF2E07D0FAF76CFE864901EB06110A7B58
S3150800B430824201D0002070BD4888288088886880AC
S3150800B44088792871012120460CF023F868710021BB
S3150800B45020460CF01EF8A871012070BD2DE9F041B8
S3150800B46005460E4690460CF00EF80746FF2F4FF697
S3150800B470FF7413D0FAF744FE724901EB0711097BF2
S3150800B48081420BD10EB9012202E0012E06D100221B
S3150800B490414628460CF021F800B104882046BDE84C
S3150800B4A0F08110B500F007F8204600F062FEBDE80E
S3150800B4B0104009F07ABC044609F06CBC38B50C4655
S3150800B4C061490968455CAA420AD200922B460FF2E6
S3150800B4D030220FF2502102200BF000F8002032BD76
S3150800B4E0002100912B46014600222046FCF779FEF2
S3150800B4F0284632BD70B598B004460D46164609F082
S3150800B50049FC522203A93046FFF7D8FF060011D09E
S3150800B5100DF109000CF076FE02A80CF075FE03A8E2
S3150800B52001909DF908309DF8092000962946204685
S3150800B53000F054FD09F039FC18B070BDF0B599B0AB
S3150800B54004460D4616461F4609F024FC522203A956
S3150800B5503846FFF7B3FF48B103A901910090029757
S3150800B56032461E9B2946204600F079FD09F01DFC4F
S3150800B57019B0F0BDF8B504460D46069816461946A4
S3150800B580FCF713FE0746FF2F01D11820F2BD0798D6
S3150800B59007702046022804D9C01E08D0401E0DD0C8
S3150800B5A014E03B463246294604F0DEFD0CE03B46F5
S3150800B5B006220621304604F05BFE05E03B460622DD
S3150800B5C03146284604F02FFE044600E00224384699
S3150800B5D0FCF768FD2046F2BD08221C49F9F7ACBA0B
S3150800B5E025703E0010B504460846FFF755FC204670
S3150800B5F0BDE8104007F067B907F065B90520704740
S3150800B60000207047022070470420704710480078D1
S3150800B61070474B20704700B583B000A80D49082233
S3150800B6200DF0B6F9DDE9000100F076FE07BD000071
S3150800B630CD1C0020D01E0020D41E0020D61E0020BF
S3150800B640D4C10208B01F0020F81C0020F82B0020E7
S3150800B650F11C0020E4C1020810B582B0FFF72BFFE9
S3150800B6600DF101000CF0CEFD00A80CF0CDFD9DF902
S3150800B67000209DF8011020460DF0ABFA09F095FB65
S3150800B68013BD38B504460D4609F084FB2946204605
S3150800B6900DF069FA08E038B504460D4609F07AFB5C
S3150800B6A0294620460DF0E8FABDE8314009F07DBB91
S3150800B6B070470000526573657420696E666F3A209C
S3150800B6C0307825782028257029000000457874658B
S3150800B6D06E64656420526573657420696E666F3A98
S3150800B6E02030782532582028257029002570656D68
S3150800B6F0626572496E69742030782578000000000A
S3150800B7004552524F523A200061662D6D61696E2D81
S3150800B710736F632E63000000536553616D706C652B
S3150800B7205043540025706D736720746F6F206269EB
S3150800B7306720282564203E202564290010B5044684
S3150800B740062C02D1F8F792FD30B9E008032803DA8F
S3150800B75000F012F8194A505010BD10B50446062CD0
S3150800B76002D1F8F783FD30B9E008032803DA00F0C0
S3150800B77003F8134A505010BD012004F00701884011
S3150800B780E1088902704710B50446062C02D1F8F77D
S3150800B7906DFD90B9FAF71CF9E108032909DA094A97
S3150800B7A002EB812101230A6804F00704A3405A40EA
S3150800B7B00A60BDE81040FAF711B910BD14B0004090
S3150800B7C010B000400CB0004000281CBF0620FFF750
S3150800B7D0B5BF0620C1E7000038B5002814BF04012C
S3150800B7E01024FAF7F5F80546F7F797FB20180F49DE
S3150800B7F00F4C82B24A60000C08600420206028467C
S3150800B800FAF7ECF8206C40F00400206431BD80B5EE
S3150800B810FAF7DEF806490A6C22F004020A640422E2
S3150800B8200A60BDE80240FAF7D9B80000482000408F
S3150800B83008A00040F8B504460025E01CFDF763FAA9
S3150800B8400646601DFDF75FFA4FF6FF77BE420446CF
S3150800B85008BF012504D003F02FFC864208BF022545
S3150800B860BC4208BF45F0040505D003F01DFC844220
S3150800B87008BF45F008052846F2BDF8B50546FDF7A8
S3150800B88042FA06464FF6CF7000EA06072846FFF743
S3150800B890D1FF002448F641018E4208BF052809D188
S3150800B8A0E81DFDF730FAAC490988884214BF02241E
S3150800B8B0062412E04CF6010087421ABF4CF60140F6
S3150800B8C08742012409D0FAF723FC2846FCF779F9C0
S3150800B8D00546FAF723FC05B10824A048007820405D
S3150800B8E0F2BD2DE9F04F8346884683B00025002631
S3150800B8F04046FDF708FA9A4C82462068002804BF9D
S3150800B900606800282F464FF003095CD04FF4406169
S3150800B9101AEA010F0BD008F10300FDF7F4F94FF608
S3150800B920FF7188420CBF022701274FF0050947F02F
S3150800B930080001905FEA4A6017D44FF440411AEABA
S3150800B940010F16D00AF44060B0F5406F0CBF08200E
S3150800B95002204844C0B24044FDF7D5F9009003F0F0
S3150800B960ABFB009989B2814201D1019F01E047F002
S3150800B97004070AF44040B0F5004F04BF47F08000C2
S3150800B98087B20AF44060B0F5006F0BD109EB0800E6
S3150800B990FDF7B9F9804603F087FB80450AD147F0E1
S3150800B9A0100707E0B0F5406F04D147F0200701E023
S3150800B9B0002615B96068014600E0216839B96D1C92
S3150800B9C0EDB2022DF4DBFF20BDE8FE8F761CF6B241
S3150800B9D031F816201304F2D4BBB29342F6D1BBF168
S3150800B9E0000F05D081420CBF802010208BF8000084
S3150800B9F03046E9E7000000002DE9F0478146884611
S3150800BA00FDF781F9054605F0070605F4406A2F4655
S3150800BA104846FFF70FFF04464FF6F77005405148B2
S3150800BA20007808280DD8DFE800F087058705050A9D
S3150800BA300C0C0700002E00E0012E7DD101E0032E3C
S3150800BA407AD1390721D5002E76D10A2801D1A00747
S3150800BA5072D5B5F5004F18BFB5F5404F6CD1002625
S3150800BA60E80648BF46F08006A80648BF46F4805652
S3150800BA7006F00C00042861D109F10700FDF743F927
S3150800BA800146FF2246F004005BE0002E364FDCD06C
S3150800BA90022E03D004D3032E2FD04DE03B2058E0CE
S3150800BAA04FF6CF7000EA05064846FFF7E6FE38B9B6
S3150800BAB04946FFF716FFFF2802D1FFF753FA08B1E8
S3150800BAC00826CDE748F64100864235D10A2C18BF2C
S3150800BAD0062C31D160070ED5FFF7D3F920B13868A7
S3150800BAE0007B001F022827D320480078022823D08D
S3150800BAF040F60406B4E70426B2E714F0030005D1BD
S3150800BB0003F0DAFA4FF6FF71884215D10C26BAF11E
S3150800BB10000F0DD0BAF5006FA2D0BAF5406F0BD161
S3150800BB200822134909F10500F9F750F820B997E7F3
S3150800BB303868007B012893D03A200AE0FF220021CA
S3150800BB403046FCF701FAFF280EBF182088F80000D7
S3150800BB500020BDE8F08700003E1F0020EA2F0020E5
S3150800BB60842F0020F21E0020C42B0020902D0020D8
S3150800BB70F82B0020174838B50446F9F729FF05467B
S3150800BB80154800210160082154F8042B8260491EDB
S3150800BB9054F8042BC260F7D101210160FBF796F92E
S3150800BBA0284613E00C4900200860FBF78FB938B522
S3150800BBB045096D0109480A4C854238BF094CF9F711
S3150800BBC007FF044945F014024C620A62BDE8324098
S3150800BBD0F9F704BFF41D002094ED00E0980000205A
S3150800BBE009000B1008000B1070B12DE9F05FEFF398
S3150800BBF008800D490860EFF309800C490860EFF3E7
S3150800BC0014800B49086030BF0748006880F308882D
S3150800BC100648006880F309880548006880F3148898
S3150800BC20BDE8F05F70470000682D00206C2D0020ED
S3150800BC30702D00200020DFF8681701EBC003FF22F3
S3150800BC401A71002241F83020401C0328F5DB7047A2
S3150800BC5010B5A0B0002408200DF05CF8000604D545
S3150800BC6013A80DF09BF800B901240E200DF052F828
S3150800BC70000605D500A80DF0DDF808B944F0020461
S3150800BC80204620B010BD2DE9F04F81468FB01C46E6
S3150800BC90FF20032C8B4617468DF8090005DB189DF7
S3150800BCA02A78520707D5052C03DA01200FB0BDE81C
S3150800BCB0F08F297900E0A9788DF80B100021DFF8BC
S3150800BCC0E0A60AEBC1021279FF2A0BD0491CC9B2B9
S3150800BCD00329F6DB03901A9E36B10398FF2803D191
S3150800BCE0B420E3E70391F6E700208DF80A0009AAD5
S3150800BCF038790DF10A0109F011F958B1BDF830008B
S3150800BD0038809DF80A0009F042F88DF808000028E6
S3150800BD103CD114E038790BF0B6FB8046B8F1FF0F3A
S3150800BD2008BFA320C2D0387909F036F88DF8080084
S3150800BD3060BBDFF8700600EB081040883880B9F160
S3150800BD40000F0CBF58464FF6FF7001900021788807
S3150800BD50DDF86480009042463B889DF80B0009F0A8
S3150800BD60CDFB18B1F88840F02000F88004960597B6
S3150800BD700695ADF81CB0ADF81E408DF820908DF8EC
S3150800BD80218002A904A809F0EEF810B19DF8080070
S3150800BD908CE73A465946484609F0F2FBA04219D3C1
S3150800BDA00DF1090001900095E3B23A465946484616
S3150800BDB0FFF7E0FB8DF8080086B178B99DF8090011
S3150800BDC0FF2819D003990AEBC101087103984AF8AC
S3150800BDD0306011E074208DF8080010E0BA2808D108
S3150800BDE0B879C0060BD500208DF8080001200DF0A3
S3150800BDF028F89DF8080010B9112009F06FF808F026
S3150800BE00D4FFC3E710B584B0088100931346069C97
S3150800BE1002940A46012401460194032011E010B554
S3150800BE2082B000240094FFF7EDFF16BD10B584B06C
S3150800BE30069C0093029413460A460124014601947F
S3150800BE400420FFF720FF04B010BD10B582B000240F
S3150800BE500094FFF7EBFF16BDF0B50446022C85B03B
S3150800BE600D4616461F460AD100A9E8B20CF0EFFBAC
S3150800BE7088B99DF8010030719DF8040070713B4641
S3150800BE800B98029032460020019029460A980090A5
S3150800BE902046FFF7F8FE05B0F0BD1CB50024019456
S3150800BEA0049C0094FFF7D8FF16BDF0B587B004468A
S3150800BEB00D4616461F461622002100A8F8F77FFEF3
S3150800BEC0ADF80C40ADF80A606DB1082229460DF1AF
S3150800BED00100F8F731FEBDF8140040F00200ADF895
S3150800BEE0140000200AE01FB1ADF812700C2005E01E
S3150800BEF04FF6FC708642B4BF002008208DF800007B
S3150800BF000D980F9A0E99ADF80E000C98ADF8100022
S3150800BF1000A809F009F807B0F0BD80B50346DFF8B8
S3150800BF208804008839B9BDE800500FF290420FF234
S3150800BF3084410AF0D9BA00910FF298420FF284416F
S3150800BF400AF0D2FA01BD10B5FF280C4604D10FF24B
S3150800BF508C4100F004F9FE202146BDE810407CB56E
S3150800BF6004460D4605F0A3FB0646334622460FF265
S3150800BF70A84102200AF0B2FA7EB975B101A80021DB
S3150800BF800160032000908DF8054001AB00223621A0
S3150800BF904FF6FC700CF051FA0646304676BD70B581
S3150800BFA00D4604462888164608B1002070BD20466E
S3150800BFB008F0DBFF002802BF688848F221018842A2
S3150800BFC003D171782046FFF77EF86888B0F5004FF0
S3150800BFD0C4BF082008F0D5FF012070BD2DE9F04741
S3150800BFE088B081460E46924698460CF012F98DF8AE
S3150800BFF0089003960546119F0497ADF816508DF8DC
S3150800C00018A08DF81980109CADF81440FFF77DF93B
S3150800C0108DF81A00FFF77BF98DF81B00FAF76EF812
S3150800C0208DF81C0002A808F09CFFA8B923463A46DA
S3150800C030314628460DF02EF870B923463A46314661
S3150800C0402846FFF7ACFF38B90190009523463A46D3
S3150800C0504946304609F02BF908B0BDE8F0872DE9C6
S3150800C060FC471D000A9C0B9E80468946174631D020
S3150800C0700FF21C420FF20C4102200AF035FA3B88F7
S3150800C0800BB9C0A20AE040F209118B4208BFBEA252
S3150800C09004D0B3F5827F0CBFBCA2BDA201947888F8
S3150800C0A00FF28C31009002200AF01EFA388870B11F
S3150800C0B0032C0CDB3078B3780FF2A431C0074CBFE1
S3150800C0C00FF2B0320FF2B43202200AF00DFAB1A123
S3150800C0D000F045F80C98B249002201EBC2031B791F
S3150800C0E0834211D0521CD2B2032AF6DB4FF0000A63
S3150800C0F0002201EBC20393F804C0844507D0521C02
S3150800C100D2B2032AF5DB07E051F832A0F0E7FF20A8
S3150800C1101871002041F83200002D04BF3888002825
S3150800C12006D17888B0F5004FBCBF082008F0D6FEC7
S3150800C130012008F026FF36B13078C00703D500F095
S3150800C14011F80AF030FFBAF1000F02D000F00AF831
S3150800C150D04700F007F808F0EDFEBDE8F3870220A7
S3150800C1600AF0BCB90195009623463A464946404628
S3150800C17070472DE9FC41044690380FF22C360FF231
S3150800C18030380CD0401E4BD0C01E49D0801E47D038
S3150800C190801E45D01338042842D9113851D10020C1
S3150800C1A0ADF804000DF028F80546FFF7A8F8471E75
S3150800C1B0BF41FF0F2DB1002F14BFA8882889ADF8FD
S3150800C1C004000DF1060004F0A7FBBDF80600800682
S3150800C1D005D5BDF8040040F02000ADF804003A4645
S3150800C1E001A9002008F0D2FEBDF8040004F07BFB8C
S3150800C1F0FFF785F80090434632460FF29C2102204D
S3150800C2000AF06CF9BC2C06D10FF2B021FFF7A7FF94
S3150800C2100DF049F801E00DF03FFC0DF021F810E0B3
S3150800C220912C04D1434632460FF2B02104E00FF2B6
S3150800C230C4230FF2B421324602200AF04FF908F05F
S3150800C24037FF20460DF036FD20460DF03FFE18B1AB
S3150800C2500FF2A821FFF783FFBDE8F3811CB5534C05
S3150800C260002008F094FD206890B10078012808BFE6
S3150800C2700DF0B8FE00A8FFF7BFF980B920689DF851
S3150800C28000100078814203D0012808BF022906D190
S3150800C2900FF2E4200068019001A805F01DFB08F0E4
S3150800C2A084FD13BD10B5044608F074FD20460DF054
S3150800C2B0B0FCBDE8104008F078BD7020704738B56E
S3150800C2C03A49096804467020A9B10D78012D08BFBE
S3150800C2D002250DF0B3FE20890FF26C220FF24C21D5
S3150800C2E000900120E37A0AF0F9F821462846BDE8CD
S3150800C2F0344005F0FFB932BD10B50446FEF7F8FF25
S3150800C3000020015DFF2904BF00210155401C1028AB
S3150800C310F7DB0020207410BD33B581B0002000245F
S3150800C3200FF2582108E011F830309DF80A50AB4258
S3150800C33008BF5468401CC0B201EBC0025368002B0A
S3150800C340F1D19DF808009DF807309DF806200FF2F8
S3150800C3500021009002200AF0C7F89DF809201AB1BA
S3150800C3600DA102200AF0C0F804B90CA4BDF80430E7
S3150800C370224603B0BDE830400FF2EC1102200AF065
S3150800C380ADB800005A444F0053450000484100002C
S3150800C3903F3F0000000000002E2564003F3F3F009D
S3150800C3A0981F0020B01F00208E2000203022002079
S3150800C3B00DF0E8BE25703A202570000053756363BA
S3150800C3C06573730025703A2025703A2030782578F1
S3150800C3D0000000004572726F720000004C696D69BA
S3150800C3E074696E67206475726174696F6E206F6612
S3150800C3F0207065726D6974206A6F696E2066726F47
S3150800C4006D20666F7265766572202832353529206B
S3150800C410746F203235340000704A6F696E20666F7B
S3150800C42072202564207365633A20307825780000E9
S3150800C43050726F66696C653A202570202830782519
S3150800C4403258292C20436C75737465723A203078FB
S3150800C4502532582C2025642062797465732C0000D7
S3150800C460205A434C20257020436D642049443A20C5
S3150800C47025640000436C757374657200476C6F62BF
S3150800C480616C0000257074782025782C2000000047
S3150800C4904552524F523A200025702570555020308B
S3150800C4A07825325800000000454D4245525F00008D
S3150800C4B04E4554574F524B5F000000005472757337
S3150800C4C0742043656E74657220455549206861730A
S3150800C4D0206368616E6765642E000000257025700C
S3150800C4E0444F574E0000000025704A4F494E2570AC
S3150800C4F0000000005F4641494C45440054686520E9
S3150800C500617070206672616D65776F726B206973F2
S3150800C5102068616E646C696E672074686520737440
S3150800C52061636B207374617475732E002570696E70
S3150800C53067206F6E2063682025642C2070616E4921
S3150800C54064203078253258004A6F696E0000000072
S3150800C550737461636B207665722E205B25642E25C5
S3150800C560642E256400000000202570206275696C21
S3150800C570642025645D000000000000000000000043
S3150800C5809C55020811000000A85502081200000078
S3150800C590B055020813000000B85502082100000033
S3150800C5A0C055020822000000C855020823000000F2
S3150800C5B0D0550208AA000000D8550208FF0000005E
S3150800C5C00000000080B591480021416041708170EB
S3150800C5D0A52101700120FBF7D4FAFBF7D6FA00F083
S3150800C5E002F8002002BD80B58B48016841F08071D1
S3150800C5F0016001208949086000208949F7F7CEFCC7
S3150800C6008849894A022008600020884908608849C4
S3150800C61088480160012111607D4A8749116040F20E
S3150800C620014101654FF480308449086001BD7948AD
S3150800C630006800B10120C0B27047D1220270417073
S3150800C640090A81707E490A78C270501C0870042055
S3150800C65070472DE9F14F82B000250090794800997E
S3150800C6600068085C441DE4B2FBF700FB01904FF636
S3150800C670FF79FFF7DCFFB8B954E0A91E9DF808005A
S3150800C680C9B2FBF7A5FE074649460DF0ABFD814644
S3150800C6905546F000F9B2761C01FA00F0042E40EA7D
S3150800C6A0080815DBCBF80080EDB2A54232DAFBF7B5
S3150800C6B0DDFA0199401A80B2B0F5FA7F2ADC4FF00C
S3150800C6C0604BDBF800000128EED14FF00008002689
S3150800C6D0EDB215B95B270125DBE7012D05F1010A46
S3150800C6E004D15848009900680F5CD1E7E11E8D42D5
S3150800C6F008BF4F46CCD0A11E8D4208BF4FEA192766
S3150800C700C6D0611E8D4208BF5D27C1D0A542B4D1EF
S3150800C7100027BEE74FF4C870F7F716FCA54208BF16
S3150800C720002000D00120BDE8FE8F46490968415C1B
S3150800C7300429A8BFFFF78DBF012070472DE9F04DEA
S3150800C740324D6E78002E5ED0FBF790FA834631465E
S3150800C7500020FBF72AFD0446FF2CA04602D1002044
S3150800C760687050E0202EB4BF37462027FBF726FC1A
S3150800C7706860AF70DFF8D0A004E04046FBF71EFC07
S3150800C7806860AF706878C0B1FBF770FAA0EB0B0071
S3150800C79080B2B0F5FA7F10DCA8780028F2D1F61B33
S3150800C7A06E70F6B2002EEDD0DAF8000018F80080A8
S3150800C7B0202EB4BF37462027DFE7002E04BF68784F
S3150800C7C0002818D1A878B0B91E480068205C851ED4
S3150800C7D0E9B22046FBF7A3FE122808D1E9B22046A3
S3150800C7E0FBF7ABFD21461220FAF7DDFF06E02046EF
S3150800C7F0FAF723FF02E000206870A8702046BDE81B
S3150800C800F04DFBF74FBCBDE8F08D0000F02F00207F
S3150800C810800E00E0100004E0FCED00E0040004E0F7
S3150800C82020A10700F00004E0000E00E0040304E085
S3150800C83055CEACC5B00F00E00D00010000E100E0E8
S3150800C840E92F0020F81C0020001D002070B51346B3
S3150800C850101802E0A4192C705B1EDBB24BB101F074
S3150800C8600F060909451E0A2E2846B4BF3024372468
S3150800C870F0E7101870BD2DE9F24F88B0804601A880
S3150800C8801446994601AD4FF0000B00278DF80000BD
S3150800C89010E00127641E05A885420AD39DF800000A
S3150800C8A02E1A00F0B4F8002839D1B3445FFA8BFB8E
S3150800C8B001AD641C9DF800002E1A207800280BD0C4
S3150800C8C0252803D017B905F8010BE4E7002F14BF94
S3150800C8D00027641C2078010000F08E80B0F1250145
S3150800C8E013D00B39092967D928395CD00B390ED0F2
S3150800C8F0491E2CD008392AD0091F0BD0C91E09D0C9
S3150800C900891E24D0C91E4ED0C5E72520DBE759F875
S3150800C910040BD8E759F804AB00F079F8002872D16F
S3150800C920B3445FFA8BFB01AD002600E0761CF6B235
S3150800C93016F80A000028F9D19DF82000324651461B
S3150800C940C04700285FD1B3445FFA8BFBA3E759F8C9
S3150800C950040B0021002803D52D212970404201210E
S3150800C960002300224FF0000C02E0801B0CF1010CA2
S3150800C9700FF2041656F82260B042F6D243EA0C06C5
S3150800C980F6B2002E05D0C9B20CF130034B55491C3E
S3150800C9900123521C092AE5DBC9B230304855481C28
S3150800C9A0C0B2451977E759F8041B0222C9B22846CE
S3150800C9B0FFF74CFF05466EE760780127782818BF11
S3150800C9C05828F8D1641C002714F8010C322804D121
S3150800C9D059F8041B042289B2E9E734287FF459AFD1
S3150800C9E059F804AB04224FEA1A412846FFF72EFFEE
S3150800C9F004221FFA8AF1DBE700F009F818B906EBFA
S3150800CA000B00C0B200E0002009B0BDE8F08F9DF829
S3150800CA102000F2B201A9404709A117E010B5094B59
S3150800CA20C35C0024012B07D113460A460146064873
S3150800CA30FFF721FF00B90124204610BD00000000C1
S3150800CA400D0A0000FC7A0008E57900080CB480B5E8
S3150800CA5002AAFFF7E3FF02BC5DF80CFB0CB438B57D
S3150800CA60044604AAFFF7DAFF05462046FFF7D4FF77
S3150800CA70284632BC5DF80CFB00CA9A3B00E1F50576
S3150800CA808096980040420F00A086010010270000FB
S3150800CA90E8030000640000000A00000000B500BFBB
S3150800CAA0130096469446103928BFA0E80C50FAD8C9
S3150800CAB05FEA417C28BF0CC048BF40F8042BC90771
S3150800CAC028BF20F8022B48BF00F8012B00BD000044
S3150800CAD070B5044601214FF48070FDF734FEC8B1E5
S3150800CAE0984E994D3078FF2807D02878C00748BF58
S3150800CAF000F003F93078FBF7D5FA34700020287077
S3150800CB002046FBF7C1FA91480188281DBDE8704008
S3150800CB10FBF7E5BD70BD8C490A7842F0010208B101
S3150800CB2042F002020A70704738B5864D864C28785E
S3150800CB30FF280ED000214FF48070FDF704FE207800
S3150800CB40C00748BF00F0D9F82878FBF7ABFAFF20F2
S3150800CB5028700020207131BDF8B50025784E7C4F2D
S3150800CB6000E06D1C3878EDB2854217D230682C4645
S3150800CB7030F814100805F4D5284600F058F8FF28B0
S3150800CB80EFD0316831F814204FF2FF731A4021F8BC
S3150800CB90142000216F4A1268A154F2BD6E49002084
S3150800CBA0088001F08AF80446FF2C18BFFBF76CFAD8
S3150800CBB02046F2BDF8B50446674806880D460021AA
S3150800CBC0018096B32046FBF762F9B0F5006F2CD1C9
S3150800CBD02046FBF780F90746F9F7CEF9FF2824D057
S3150800CBE035B15749096831F81020324321F8102029
S3150800CBF0402E14D0B6F5807F17D15248007884426B
S3150800CC0011D14FF6FF718F420DD0FBF712F94FF491
S3150800CC108270FDF7B3FD30B9FFF786FF03E015B95B
S3150800CC20214608F0A9F80120F2BD0020F2BD2DE941
S3150800CC30F04381464948006883B04C4630F8148072
S3150800CC400F46FF25F9F731FA45490978884251D246
S3150800CC50F9F763FAB8050FD478051CD506F006FA75
S3150800CC6002460020019000900123414604F056FF39
S3150800CC7005464FF480602FE04FF6FF7241460E20BE
S3150800CC8006F062FB0546FF2D32D04146FBF7D1F888
S3150800CC904FF4007020E02B4E3078FF280BD0F905B2
S3150800CCA009D54146FBF7C5F83078FBF7EDF9357835
S3150800CCB04FF4807010E0780606D50021484608F043
S3150800CCC05DF80546402007E0380611D5012148469B
S3150800CCD008F054F805468020FF2D09D01E49088023
S3150800CCE01749096831F8142022EA000021F81400CF
S3150800CCF0F9F714FA2846BDE8FE837FB5114C20786B
S3150800CD00FBF706FA05462078FBF761F8801CFBF767
S3150800CD10FAFF0646207801A902F01FFCF9F7F8F990
S3150800CD200948007880074CBF0020662000902B46F3
S3150800CD3001AA31460420FEF701FCF9F7EFF97FBD99
S3150800CD40141D00203A1F0020642F0020761D0020A5
S3150800CD50101D0020181D00209C2F00200C1D0020EF
S3150800CD603C1D002000B587B041F400618DF8142001
S3150800CD70120A8DF815200C9A04920B9A03920A9AB5
S3150800CD800292099A0192089A009205AA00F002F8FE
S3150800CD9007B000BD2DE9F14F82B00C4604F44040BF
S3150800CDA0009015469DF808000F9AFF2807BF012630
S3150800CDB0082000260C20984604F4406A0021FBF758
S3150800CDC0C3F8BAF5006F81460CBF02270827B9F1E8
S3150800CDD0FF0F59D0FBF7F2F883464846FAF7F7FFF4
S3150800CDE00EB944F0030400F8014B210A00F8011BB0
S3150800CDF0461CBAF1000F05D006F8018B4FEA182039
S3150800CE0006F8010B3A4629463046F7F795FE00988C
S3150800CE10BD19F8B1600605D40C9805F8010B000A8F
S3150800CE2005F8010B0098B0F5004F03D0B0F5404F58
S3150800CE300AD00FE002F038F905F8010B02F034F9D0
S3150800CE40000A05F8010B05E00822A0492846F7F76D
S3150800CE5073FE0835A5EB0B01C9B24846FBF7B4F8D3
S3150800CE609DF80800FF2825D0012202A94846FBF7AD
S3150800CE7022FA30B90D9971B10E9A4846FBF71BFA9A
S3150800CE8048B14846FBF70EF99DF8080004280CBF80
S3150800CE90FF2018201AE09DF80800042808BF484615
S3150800CEA014D0022806D14846F8F7A6FD441EA44128
S3150800CEB0E40F04E010994846FBF70CFD0446484683
S3150800CEC0FBF7F0F8002C0CBF39200020BDE8FE8FD8
S3150800CED000B585B000F018F8009300200290019084
S3150800CEE01A464FF4404106200AE000B585B000F026
S3150800CEF00BF81A46002002900190009000210720A6
S3150800CF00FFF730FF05B000BD022004904FF6FF730F
S3150800CF10FF200390704710B586B002F0CDF804469E
S3150800CF2002F0C2F84FF6FE718842B4BF48F26001BB
S3150800CF304CF26001012004902346FF200390002054
S3150800CF400290019000906248006842880420FFF72A
S3150800CF5009FF06B010BD30B587B004460D4602F08D
S3150800CF60ABF88DF8140002F0A7F8000A8DF8150042
S3150800CF7002F09AF88DF8160002F096F8000A8DF875
S3150800CF801700FDF7E1FF8DF818008DF81950280AEB
S3150800CF908DF81A0002F090F8012104910090FF2103
S3150800CFA003914FF6FF7307210291224605A90191C5
S3150800CFB008204FF44C41FFF7EDFE07B030BD34B5FD
S3150800CFC00D4686B00446002105F0B1FC0120049008
S3150800CFD02B46FF2003902246012002904CF62001A2
S3150800CFE006A801904FF6FF7000900120FFF7BAFEE1
S3150800CFF007B030BD10B586B00446080A8DF814107F
S3150800D0008DF815008DF8162002F056F800210491C7
S3150800D0100346FF210391224603210291022005A916
S3150800D0200191002100914CF66041FFF7B3FE06B06E
S3150800D03010BD70B584B0FF2200210020FAF784FFE6
S3150800D0400446FF2C40F6FF753DD021480068007B5A
S3150800D05001282048007808BF44F6FF7508B145F452
S3150800D060004500208DF8000000AE8020707002F0A8
S3150800D07023F88DF8030002F01FF8000A8DF8040063
S3150800D08002F012F88DF8050002F00EF8000A8DF885
S3150800D09006000B22FF208DF8070000A9280A307227
S3150800D0A000208DF809008DF80A002046FBF703F9E1
S3150800D0B0204605F092FA18B101212046FBF70AFC32
S3150800D0C02046FAF7EFFF7FBD00000000F82B00208E
S3150800D0D0C42B0020E72F00202DE9FC4204460D460C
S3150800D0E09146CDF804900095234624220FF2F0319C
S3150800D0F00320FAF74CFDDFF8D87338780A2818BFEA
S3150800D1003D203DD1B9F10F0FA8BF332038DA092CDD
S3150800D110A8BF342034DADFF8BC032840A84218BF79
S3150800D12035202DD135B9DFF8B0130968897B012080
S3150800D13000FA01F5002C18BF022CDFF8A0630CD109
S3150800D14020210020FBF731F87870FF2808BF182047
S3150800D15016D0FAF733FFF06130623C7086F801901A
S3150800D160B561002030700A20F8F7CDFF01210FF2D3
S3150800D1701500FBF739FC38780A280CBF0120002077
S3150800D180BDE8F68238B50A20F8F7BEFF0446F8F778
S3150800D190C4FF2046F8F7DEFF0020F8F7B3FFCF4CB0
S3150800D1A0FDF7D2FEE07001F087FF2082F6F7EEFA6F
S3150800D1B020714FF6FF75C64C2078062808D1012045
S3150800D1C0F6F7E7FA072020702846FDF75DF90CE028
S3150800D1D0082805D0284601F073FF2846F6F758FBBD
S3150800D1E00020F6F7D6FA00F059F8BDE83140F8F70E
S3150800D1F095BF38B5F8F7ECFBB54D044628780A28EC
S3150800D20018BF092804D12046BDE83240F8F7E6BB26
S3150800D210072808BFFDF7FCF82878B04908700920E8
S3150800D22028702046F8F7DAFBBDE8344001210FF2F2
S3150800D2300900FBF7D9BB000070B5A54C2078092872
S3150800D24002D0E82100F0A3F80A20F8F75DFFF8F706
S3150800D25064FFA24D288A01F033FF9F49E8780968E0
S3150800D26088732879F6F795FA0120F8F74BFFF8F74F
S3150800D2700AFF66780020287200220A2020703146AC
S3150800D280FF206070287805F0D5F8FF2E1CBF3046C1
S3150800D290FAF708FFBDE87040F8F740BFF8B58F4CBD
S3150800D2A0002020720A20F8F72FFFF8F736FF884D7E
S3150800D2B028780A2803D14FF48A7100F068F828788C
S3150800D2C0E0B917E0401CE061282210F9016DE06919
S3150800D2D0401CE0617DA110F8017D00963B460320C5
S3150800D2E0FAF755FCF8F714FF31463846FEF7D3F936
S3150800D2F0F8F714FFE069216A8842E3D320781B28EF
S3150800D3001FDA05F0ABFC50B12078A169C140C90706
S3150800D31005D4401C2070C0B21B28F5DB11E0F5F7D8
S3150800D32093F901462078884202D0F5F785F940B985
S3150800D330207805F090FC20700020A07000F064F8BA
S3150800D34008B32878052818BF012803D0032818BF72
S3150800D35008280DD10B26A069F040C00704D5287807
S3150800D3603622314605F066F8761C1B2EF3DB08E0FC
S3150800D370022806D1206AE169411A6878C9B2FAF723
S3150800D380DCFFFFF736FFBDE8F140F8F7C7BE0FF23E
S3150800D3905810F7F7D3BA38B54D480178092904BFAC
S3150800D3A0BDE83140FDF757B84C4C6369002918BFF2
S3150800D3B002291ED19BB9226A6179521C226202F89F
S3150800D3C0011D007828B9256A681C2062F5F73CF922
S3150800D3D0287004F10800BDE83240FBF775B9082546
S3150800D3E0F6F7E9F994F905108142B8BF014661716B
S3150800D3F003E0002BEDD04FF470752846FDF744F88E
S3150800D4006069401E606131BD80B5344842780121AB
S3150800D41091402F4A1278491C092A416120D8DFE831
S3150800D42002F01109110917051F1F0D1CBDE801405F
S3150800D430FFF74EBDBDE80140FFF757BDBDE8014007
S3150800D44005F007BC6FF07F024271782251434161B3
S3150800D4500020FDF719F8002002BDFCF7FCFF03E0E9
S3150800D46040F2A311FFF793FF012002BD10B5184A39
S3150800D4701A4C1278052A11D1062816D12020606187
S3150800D480A9B9F5F7E1F80122A16902FA00F021EA43
S3150800D4900000A0610020FCF7F7FF15E0012A14BF81
S3150800D4A0032A0728ECD0082AEAD0002010BDA07865
S3150800D4B0401CA070C0B2032802DAFFF7A5FF18B116
S3150800D4C004F10800FBF700F9012010BD42424200B2
S3150800D4D0F21E002000F8FF07C42B0020142C0020A1
S3150800D4E042424442000000007363616E2E630000EE
S3150800D4F0027902F0FC02114301F03F010171704705
S3150800D50038B5054600F027F90446FF2C02D1342128
S3150800D51000F075F84FF6FF70288003212846FFF7BC
S3150800D520E7FFDFF87804DFF8783400781B68C11D58
S3150800D530C01DC01000FB0430BDE838400904CA0C01
S3150800D5400021F7F73CBB70B5DFF85804DFF85864DC
S3150800D5500468002504E02046FFF7D2FFA41D6D1CD1
S3150800D5603078EDB28542F6D3DFF840040068002132
S3150800D57004E04FF6FF7220F8082B491CDFF8302428
S3150800D5801278C9B29142F4D3DFF8281414204870EF
S3150800D59070BDF8B50446FF2C30D0DFF80C040078CF
S3150800D5A0844202D36A2100F02AF8DFF8F8030068FB
S3150800D5B0062101FB04004FF6FF72018891421DD037
S3150800D5C0037903F00303012B18D1DFF8E0331B6856
S3150800D5D0002501E008336D1CDFF8D4633678EDB218
S3150800D5E0B54208D21E889642F4D0DF79A74205D004
S3150800D5F08E42EFD1F1BDBDE8F24081E7F1BD0FF2F1
S3150800D600B830F7F79BB910B5DFF8982312680021F0
S3150800D610032401E0491C921DDFF88C331B78C9B23C
S3150800D620994207D25388834204BF13792342F1D122
S3150800D630012010BD002010BD2DE9F843FAF71BFBA9
S3150800D640DFF8705306466888341AA4B2F8F774FDF2
S3150800D650FF2818BF002C68D0F8F75FFD2878DFF898
S3150800D66048236E80201880B2C10900F07F00287018
S3150800D6700027DFF8300303684FF6FF7606E00CF064
S3150800D6803F0C4CEA801018719B1D7F1C1078FFB266
S3150800D69087420FD21888B042F6D093F804C0032008
S3150800D6A01CEA000FF0D101EB9C1080B20328E6DBE0
S3150800D6B00220E4E768788442B4BF001B0020687043
S3150800D6C04FF00008B948BA4D076814E0B9F1000FE1
S3150800D6D03E8009D100A9104600F029F820B19DF82E
S3150800D6E000000021FFF755FFF8794946FFF751FF7B
S3150800D6F0083708F1010828785FFA88F8804512D2B9
S3150800D7003888B042F4D0B879844202DA001BB8717E
S3150800D710EEE701F0C9FC3A8882420CBF4FF00109D6
S3150800D7204FF00009D2E7F8F7F9FCBDE8F18310B528
S3150800D7309C4A1268002301E0921D5B1C9A4C2478CF
S3150800D740DBB2A34205D214888442F5D10B70104689
S3150800D75010BD002010BD0021062300E0491C924A96
S3150800D7601278C9B2914207D28E4A126803FB012287
S3150800D7709042F3D108467047FF20704780B500A94C
S3150800D780FFF7D5FF02BD80B5FFF7F8FF00281CBFDD
S3150800D790BDE80240FFF7B4BE01BDF0B5834B1B6878
S3150800D7A00024062701E00833641C814D2D78E4B275
S3150800D7B0AC4217D21D888542F5D15AB1012A08BF55
S3150800D7C01D7905D0774DDE792D6807FB06552D881E
S3150800D7D0A942E8D14FF6FF71884204BF1420987118
S3150800D7E01846F0BD0020F0BD002200214FF6FF705C
S3150800D7F0D3E7F8B50D46144607462146FFF797FFC7
S3150800D800060022D100204FF6FF7366490E680021F4
S3150800D81005E088B932889A4212D0B61D491C624A78
S3150800D8201278C9B29142F4D3401CC0B20228ECDB8C
S3150800D83000263EB90020F2BD32799209022AECD1BF
S3150800D8402170F6E73780012007E030790321084286
S3150800D85004D000F0FC0040F0010030718DB145F0B5
S3150800D860080030714E4B4D4800781B682478C11D5E
S3150800D8700904C01DCA0CC010002100FB0430F7F7CC
S3150800D8809EF9307900F03F0030713046F2BD10B590
S3150800D8900446FFF773FF28B9002200212046FFF748
S3150800D8A07CFF00B1012010BD70B504460D46164632
S3150800D8B0FFF764FF306060B1007910F0030028704C
S3150800D8C004D13068017901F03F0101713068408860
S3150800D8D070BD0021204600F0D6FC012818BF02289A
S3150800D8E003D100202870204670BD032028704FF60B
S3150800D8F0FF7070BD00B583B000AA01A9FFF7D4FF79
S3150800D9009DF8040038B9009828B1007910F0300065
S3150800D91002D001200EBD00200EBD70B504461F487A
S3150800D9200078844203D34FF4F571FFF768FE1E4E64
S3150800D930002505E000222146284600F006F86D1C61
S3150800D9403078EDB28542F5D370BD30B5134C144B23
S3150800D95024781B68E41DE41004FB0030CB0801F0B2
S3150800D96007011C5C012505FA01F1002A14BF2143B1
S3150800D97024EA0101195430BD084B094A1B7812687C
S3150800D980DB1DDB1003FB0020CA0801F00701105C51
S3150800D990C84000F00100704700000000101D00207C
S3150800D9A0241D00201C1D0020201D0020281D0020ED
S3150800D9B02C1D0020982F0020726F7574652D7461D8
S3150800D9C0626C652E63000000F0B5524C237903F0B3
S3150800D9D00F05002600E0761CF6B2AE4215D2237873
S3150800D9E09B1B0F330F2793FBF7F7C7EB0717DB1BB9
S3150800D9F0062707FB034333F8087F8742EBD112B9A2
S3150800DA009F788F42E7D11846F0BD0020F0BD00226E
S3150800DA10DAE780B501220021FFF7D6FF00B1012021
S3150800DA2002BD38B51446FFF7F2FF0546204600F05A
S3150800DA3058FA0DB9002032BDFF2805D0A988012261
S3150800DA4002FA00F00843A880012032BD10B5FAF7A3
S3150800DA5012F930494A78CB88C8808218D21A92B20D
S3150800DA60142392FBF3F3142000FB13204870DCB256
S3150800DA7088788442B4BF001B00208870042CBDBF80
S3150800DA808888A200D0400020888010BD2148808860
S3150800DA9000F00F010F2903D0C0F30310092801DB9A
S3150800DAA00120704700207047F8B504460D46164613
S3150800DAB0FFF7ECFF08B10020F2BD16480178491CB3
S3150800DAC00F2291FBF2F2C2EB0212891A01700622AA
S3150800DAD0017802FB010101F10807818801F58851E7
S3150800DAE0113181803C80BD70304600F0A3FBB880C0
S3150800DAF00120F2BD10B5074CFAF7BDF8E0805A22AE
S3150800DB000020A080FF2104F10800F7F758F8042048
S3150800DB10A07010BDF02E00202DE9F84F9C4D95F809
S3150800DB20009004468846FAF7ACF88346287918B177
S3150800DB30E9680BEB0400441A6878DFF858A2002657
S3150800DB400AEBC00703E0001B7880761C0837F6B29C
S3150800DB504E4520DA7888B8F1000FA4B20BD084427B
S3150800DB60F3D22878801BC20092B2394607F1080022
S3150800DB70F6F7E2FF12E08442E5D300207880787851
S3150800DB80401E78706878401C68702878401E287097
S3150800DB90FCF756FBD9E7B8F1000F04D02878401CEB
S3150800DBA028707C8001E000202871287808B928713F
S3150800DBB011E0287908B9C5F80CB06978E8680AEB65
S3150800DBC0C101ABEB00004988091AB1F1004F9CBFAF
S3150800DBD0281DFAF784FD3846BDE8F28FF8B50E46DB
S3150800DBE004466B4910464A780978891808291D465B
S3150800DBF004D11F20F8F7E5FA0020F2BD0121FFF74E
S3150800DC008BFF0746701C3C707870FAF72FF8B880BF
S3150800DC10BD712046FAF738FA0120F2BD70B55C4CA2
S3150800DC2061782278064600255A4801E06D1CEDB257
S3150800DC308B189D421ADA10F83530B342F6D15118CE
S3150800DC40491B491E00EBC500CA0092B200F1080143
S3150800DC50F6F772FF3046FAF725FA6078854202DA57
S3150800DC60401E607070BD2078401E207070BD484808
S3150800DC70417800784018401E8041C00F70474448DC
S3150800DC80407800B10120704770B50024414D404EE0
S3150800DC9004E015F83000FAF705FA641C3178727852
S3150800DCA0E4B2204651188842F3DBBDE87040384894
S3150800DCB00021017041700171704710B5354C01E0C3
S3150800DCC000F026F83248407830B12046FCF7A6F82E
S3150800DCD00028F5D0207810BDFF2010BD10B52C4ABD
S3150800DCE052789AB12B4C227882420FD151B960787A
S3150800DCF0103060701046FCF7D7F918B9607800F054
S3150800DD00F000607000F004F8012010BD002010BD7E
S3150800DD1030B51F4C1F4D6078401E607083B00822D6
S3150800DD20294600A8F6F708FF607821780818C20087
S3150800DD3092B205F108012846F6F7FEFE9DF80100A5
S3150800DD400F21084217D19DF80000FAF754F8F8F7A2
S3150800DD50E4F99DF801000009411E89419DF800007B
S3150800DD60C90F0022FBF728FF9DF80000FAF79AF979
S3150800DD70F8F7D4F937BDBDF802000121FFF7CCFE4C
S3150800DD804188ADF80210082200A9F6F7D5FE37BD7E
S3150800DD90702E0020802E002000210020BCE6000006
S3150800DDA010B50022154B03EB820333F8044F844267
S3150800DDB004BF9B788B4201D1012010BD521CD2B200
S3150800DDC0042AEFDB002010BD0D4A1268127B121FD1
S3150800DDD0022A00D2704710B5084A137802EB83046A
S3150800DDE024F8040FA170581C00F00300107010BD31
S3150800DDF01022FF210348F6F7E2BE0000702F00202C
S3150800DE00C42B0020742F00204FF6FF71884200D1E2
S3150800DE10704780B500F05DF9FF280AD000F040F899
S3150800DE20DFF8F82541881278A1EB111101EB0211F0
S3150800DE30418001BD80B5DFF8E8150968002081F842
S3150800DE402D00F8F779F9FF2803D1DFF8D815032054
S3150800DE50087001BD30B5DFF8C8351B689C6A2833E1
S3150800DE6000225B7901E0521C0E34D2B29A4208D2E3
S3150800DE7025888542F7D30A702188884202D1012075
S3150800DE8030BD0B70002030BD80B500F011F8FF28BA
S3150800DE9002D14FF6FF7002BD00F002F8008802BDFD
S3150800DEA0DFF87C150968896A0E2202FB00107047A4
S3150800DEB0F8B500F064F9876A002501E06D1C0E3795
S3150800DEC0306890F82D00EDB2854208D20822B91DB7
S3150800DED02046F6F77BFE0028F0D12846F2BDFF2043
S3150800DEE0F2BD80B500A9FFF7B5FF10B19DF8000097
S3150800DEF002BDFF2002BD80B500A9FFF7ABFF40B108
S3150800DF00DFF81C0500689DF80010806A0E2202FBE7
S3150800DF10010002BD2DE9F047DFF804550FF210564F
S3150800DF200446286882B090F82D1090F82C0081429B
S3150800DF3003D3AC213046F6F701FD00A92046FFF7CA
S3150800DF4089FF18B1AF213046F6F7F8FC28689DF826
S3150800DF50002090F82D108E1AF6B20E27BEB39DF942
S3150800DF600020DFF8C4C40121914089B24FF6FF7240
S3150800DF7053189BB24FF00F0EBCF8008090450CD09A
S3150800DF80BCF8048003EA08096FEA030A89440AEA26
S3150800DF90080809EB4808ACF80480BEF1010E0CF13C
S3150800DFA0060CE9D1806A9DF8001007FB010107FB02
S3150800DFB006F201F10E00F6F7BFFD28689DF800107D
S3150800DFC0006B00EB8101B200081DF6F7B5FD286865
S3150800DFD09DF80060806ADFF8441407FB06000822F3
S3150800DFE004800978090241800021017110214171DC
S3150800DFF0801D0021F6F7E3FD2868026B002142F830
S3150800E000261090F82D10491C80F82D100D2000219F
S3150800E010F8F7D7F80CB903F0EEF99DF80000BDE85B
S3150800E020F687F8B5DFF8F8430646206890F82D001D
S3150800E030811B4D1E8642EDB204D3D2210FF2F03079
S3150800E040F6F77CFC8DB3DFF8E0330120B04080B2F0
S3150800E0504FF6FF710A1892B20F278018B3F800C05E
S3150800E0608C450BD0B3F804C002EA0C0E2CEA000C5F
S3150800E0700EEB5C0CACF5004CA3F804C09B1D7F1E90
S3150800E080ECD12068806A0E2101FB060001FB05F22F
S3150800E09000F10E01F6F750FD2068006B00EB8600D4
S3150800E0A0AA00D2B2011DF6F747FD206890F82D1098
S3150800E0B0491E80F82D100021BDE8F4400E20F8F71F
S3150800E0C080B810B50C46FFF7ACFF2046BDE81040F7
S3150800E0D020E7F8B50446FFF704FFFF282FD1DFF83D
S3150800E0E04053286800F128014A7909798A4222D3DF
S3150800E0F0876A002601E0761C0E37286890F82D00FE
S3150800E100F6B2864210D23879C0F30211072904DA2A
S3150800E11007221042EFD10329EDDB3888FFF773FA9F
S3150800E1200028E8D1FF2E01D1FF20F2BD2146304656
S3150800E130BDE8F440C5E72046BDE8F240EAE6F2BD90
S3150800E1402DE9F04100F01BF8856A884600270EE0A5
S3150800E1500822A91D2046F6F739FD30B9288840451A
S3150800E16003D03846FFF75DFF7F1E7F1C0E353068EB
S3150800E17090F82D00FFB28742EAD3BDE8F081A84E99
S3150800E180044630687047F8B507460C4639462046B7
S3150800E190FFF7D6FF3846FFF79CFF0646FF2EA04D31
S3150800E1A011D105F098FBFF2808D1F8F7BBFA2968C2
S3150800E1B091F82C1090FBF1F201FB12003946C0B21F
S3150800E1C0FFF77FFF06460E2000FB06F72868806AE1
S3150800E1D0381808222146801DF6F7AEFC2868806AA2
S3150800E1E00021381800F0C9F83046F2BD10B58C4940
S3150800E1F00968896A0E2202FB001407212079084261
S3150800E20007D1204600F060F801462046BDE81040D8
S3150800E21077E010BD38B504460D462846FFF761FE7F
S3150800E220FF281CBF214600F052F829462046BDE8C3
S3150800E230344085E72DE9F843DFF8E4818146D8F8CC
S3150800E2400000846A002500260127D8F8000090F807
S3150800E2502D0086420CD22088484509D0204600F079
S3150800E26033F80428BEBF2079C0F30210072801DB63
S3150800E2703D43ADB2761C7F000E34F6B2102EE4DBB9
S3150800E2802846BDE8F28338B50C46FFF734FE05008C
S3150800E29001D1002032BD00F017F8014634B92879BB
S3150800E2A010F0070002D0884238BF084632BD38B59C
S3150800E2B004460020451CF4F74BFF8442E8B202D21C
S3150800E2C00628F7DB072032BD4088000AEFE770B55D
S3150800E2D0FFF755FF90F82C0084420D4605D340F20F
S3150800E2E095110FF24C10F6F729FB3068806A0E2359
S3150800E2F0294603FB0400BDE870400822801DF6F796
S3150800E3001BBC027902F0F802114301717047F8B597
S3150800E310F7F712FFFF2823D0414D2868866A0024A4
S3150800E32018E03079C0F30217072F11DA7F1CF9B20B
S3150800E330304600F022F8FFB2072F01DA032F07D183
S3150800E34000213046FFF7DDFF00210F20F7F739FFE0
S3150800E350641C0E36286890F82D00E4B28442E0D397
S3150800E360FFF746FD04F0B1FF05F0C3FCBDE8F44035
S3150800E3704FF47A512D48FAF7B2B9027902F08F02B2
S3150800E38042EA011101717047002009E0896A0E22EC
S3150800E39002FB0011401C4A7902F0EF024A71C0B232
S3150800E3A01F49096891F82D209042EFDB70472DE947
S3150800E3B0F8431B4C206890F82D6002252068D0F899
S3150800E3C02880002704E0761EF6B27F1C08F10E08A6
S3150800E3D0206890F82D00FFB287420BD2B8F800905B
S3150800E3E000214846FFF74FFF0028EED0002EEAD15D
S3150800E3F0484610E086420CD0F8F794F9216891F85F
S3150800E4002D10891B90FBF1F201FB12066D1EF6B268
S3150800E410D4D14FF6FF70BDE8F2830000E12F00204B
S3150800E420C42B0020E02F0020F82E00203C2E0020D0
S3150800E4306E65696768626F722E63000080B5042393
S3150800E440042200A901200BF0ACFADFF85415009855
S3150800E45009680003C86101BD10B5DFF844452068A6
S3150800E460C069000507D1F7F754FE00280CBF042041
S3150800E4701220F4F73EFB2168C869421CCA6110BD28
S3150800E480DFF81C050068C069704780B5DFF810150D
S3150800E490096800200090C8610423042200A90BF033
S3150800E4A080FA01BD00B585B01123062200A9012016
S3150800E4B00BF077FADFF8E8049DF81010026882F886
S3150800E4C020100068C07E00281CBF0528002002D145
S3150800E4D0F8F7CEF8012005B000BD70B50C46154614
S3150800E4E01E46014610223046F6F726FB3470280AE7
S3150800E4F0B073F5733046BDE87040F8F7BAB82DE941
S3150800E500FB4F8CB090469DF86400189D00289DF836
S3150800E51030008DF8040014BF012702279DF8380043
S3150800E520841A9DF83000029026460D9850B900F0DE
S3150800E530A3F8DFF87014029A0968555CFF281CBF17
S3150800E540405C45199DF8640000289DF8380014BF02
S3150800E55009214921EDB22A1A1A9803AB92B2FFF79C
S3150800E560BCFF0DF10C0A9AF8010060408AF8010018
S3150800E5709DF8640030B11022002103A8F6F71FFBAE
S3150800E5808DF80C4000244FF0000915E017F80A3002
S3150800E59011F8010B434007F80A30521C7F1CD2B20F
S3150800E5A05A45FFB2F2DBD944102F5FFA89F903D135
S3150800E5B003A8F8F75EF80027F6B2B1451EDAC7F1E8
S3150800E5C0100BA6EB0900C0B25FFA8BFB584538BFA3
S3150800E5D083460D9858B9009009EB08029DF8041077
S3150800E5E05B46D2B207A8F9F7FCFD07A904E05FFA73
S3150800E5F088F8404409EB00010022D0E7012C18BF37
S3150800E600002FB04403D003A8F8F733F800270D9875
S3150800E61008BB00F031F884B9E249029A0968515CEE
S3150800E6209DF838208E1AFF289DF8640008BF01243B
S3150800E630B0B1F6B2A6B9022412E0012C10D100F04E
S3150800E6401BF88DF804004FF00008D6489DF8041012
S3150800E65000680E5C04E01CB99DF8380001242E1AE7
S3150800E660601CC4B2032C8EDB1B98042203A9F6F7A0
S3150800E67063FA0FB0BDE8F08F9DF83000F9F748BD92
S3150800E6802DE9F04F85B004460F4690460025F9F768
S3150800E6903FFD824601224FF0010901AB114600F009
S3150800E6A078F88DF80040DFF800B3BE489DF80010F2
S3150800E6B000680E5C394600A8F9F77EFEF71B04468B
S3150800E6C0FFB223E0037815F80C205A4000F8012B16
S3150800E6D0491C6D1CC9B2B142EDB2F3DB3419BF1B3C
S3150800E6E0E4B2202CFFB207D1DBF800009DF8001039
S3150800E6F0085C8DF800000024102D07D109F10109E6
S3150800E70001AB1FFA89F200F043F80025A7B1C4F15E
S3150800E7102006F6B2C5F11000BE42A8BF3E46C0B2FA
S3150800E720864228BF06469DF80000F9F747FC2018E0
S3150800E73000210DF1040CCDE78DF800A04FF0FF0A7B
S3150800E7409DF80000FF28B0D105B0BDE8F08F2DE98F
S3150800E750FF4104460D461646984609E02278C85CED
S3150800E760504004F8010B491CC9B2B942F6DBED1B4F
S3150800E770EDB25DB1102DB4BF2F46102700ABB2B273
S3150800E78000F006F8761C002100ABEDE7BDE8FF8136
S3150800E79001214046A1E670B50D461146804A126829
S3150800E7A0D27E0446287800F020061043287006B169
S3150800E7B0691D0822601CF6F7BFF90422691C04F1DA
S3150800E7C00900F6F7B9F928786073002E297814BF7E
S3150800E7D00D20052001F01801082908BF401CC0B209
S3150800E7E070BDF0B506466F4800680C4685B0205CDB
S3150800E7F015461F46431BDBB20E2BA8BF0D23002070
S3150800E800009001A8F9F7EDFC3A4601A93046FFF752
S3150800E810C2FF06469DF8042029462046F9F7DDFD85
S3150800E820304605B0F0BD2DE9F0418CB00446884667
S3150800E8301546F9F76DFC06465C4B2A46214608A89C
S3150800E840FFF7CFFF471904A80390FBB208A8029068
S3150800E850424600200190009000212046FFF74FFE17
S3150800E86000F04BF808AAF9B22046FFF709FF294637
S3150800E8702046F9F7ADFD00F0F80229462046F9F7DB
S3150800E880ACFDFF2E18BF3446042204A92046F9F72A
S3150800E89012FD401E8041C00F2CE02DE9F0418CB0DE
S3150800E8A004460D4690461F46404A391908A8FFF700
S3150800E8B072FFC61904A80390009508A80290F3B23F
S3150800E8C00020019042462146FF20FFF718FE00F07F
S3150800E8D014F8042204A92819F6F72EF9385D00F071
S3150800E8E0F8003855A91BF6B208AB0122C9B230198F
S3150800E8F0FFF72DFF0CB0BDE8F08108AB002204211C
S3150800E90004A824E72DE9F04391B0804689461546C8
S3150800E9101C46F9F7FDFB074623462A46414608A842
S3150800E920FFF75FFF44191F480068FF2F08BF4746D7
S3150800E9300423385C061F00200090F2B2394604A86A
S3150800E940F9F74FFCF1B23846F9F7F7FCFFF7D5FFB0
S3150800E95008AAE1B24046FFF793FE0CA80390E3B27B
S3150800E96008A802904A4600200190009000214046DF
S3150800E970FFF7C5FD29464046F9F72AFD00F0F802DB
S3150800E98029464046F9F729FD04220CA904A8F6F7FA
S3150800E9901DF9401E8041C00F11B0BDE8F08300008C
S3150800E9A0C42B0020F81C0020001D0020F82B002096
S3150800E9B080B50423012200A901200AF0F2FF00987D
S3150800E9C0DFF8EC120003086001BDDFF8E402006816
S3150800E9D0704710B5DFF8D8422068000504BF01204B
S3150800E9E0F4F787F82068411C216010BD80B5DFF870
S3150800E9F0C012002000900860042300AA7F2101208D
S3150800EA00F4F753F801BD2DE9F84F94B00E461F9C54
S3150800EA10002703210C428046924603AD4FF0A60B11
S3150800EA2004D08DF80C300DF10D0513E0711D89B277
S3150800EA30504600F04EFC002845D000970523324684
S3150800EA40514603A8F9F7CDFB9DF80C0000F0180015
S3150800EA508DF85000DDF87890B9F1000F58D150467E
S3150800EA60F9F7B5F921074CBF001D801CFAF74BF9D9
S3150800EA7001900DF11C099DF80C0080060FD506F1D2
S3150800EA800D0189B2504600F024FCC8B1721D0097EA
S3150800EA900823D2B2514607A8F9F7A3FB05E0019867
S3150800EAA007A980B200F0CFFA50B98248006804F08E
S3150800EAB0180118290FD1019969B14088814227D0D8
S3150800EAC00320044203D100211A20F7F77AFB58469F
S3150800EAD015B0BDE8F08F417B432904BF0199002991
S3150800EAE016D1007D400613D509A807F00BF89DF846
S3150800EAF00C00800648BF07A904D46E480068011DAB
S3150800EB0000F10409082209A8F6F760F800B1012700
S3150800EB1041465046F9F75CFC00F00300431E9B4152
S3150800EB20DB0F002F14BF09A8484602AA0BA907F055
S3150800EB303DF85FEA000BC3D15FB10FAA0BA91020FD
S3150800EB400BF062FB0028BBD110220FA90BA8F5F722
S3150800EB50F3FF9DF8500008B90BA80BE0102845D123
S3150800EB6000208DF800000FAB012200A90BA80BF0BE
S3150800EB70F1FB0FA8F7F766FD03210C42DFF838B161
S3150800EB803CD0FFF726FF024629460120FAF7C6F8C9
S3150800EB902D1DA00718D54146504600F0B2FC093095
S3150800EBA080449DF80C0040F020008DF80C000822E7
S3150800EBB059462846F5F7C0FF08355FFA88F15046EA
S3150800EBC000F087FC00EB080601200090F2B203A8CB
S3150800EBD02B1ADBB25146F9F704FBF2B25FFA88F159
S3150800EBE05046FFF720FE38B1002071E7182808BF05
S3150800EBF00220B6D0A6206BE7182069E70DF10D01B3
S3150800EC000120FAF799F8054660071AD4029860B900
S3150800EC1000244B4600200090324641465046FFF7F6
S3150800EC2071FE88B94FF0A60B4DE797F00104F0D0B6
S3150800EC3000688542EDD200211620F7F7C2FA0120B6
S3150800EC4046E700245B46E5E714B10299681C0860AC
S3150800EC50002FC9D04FF08051002006F000FFC3E70F
S3150800EC602DE9FC410446884616461F4600F0E6FB99
S3150800EC7005462946204600F02CFC411901970096C6
S3150800EC8043462246C9B22846FFF7BDFEBDE8F681CF
S3150800EC9080B5F9F73DFAFF2808D0084A1268815C62
S3150800ECA0BDE80440091FC9B2F9F747BB01BD00001A
S3150800ECB02C2E0020C42B0020F82B0020F81C002046
S3150800ECC038B5F8F76BFFFDF77DFCDFF808442078C8
S3150800ECD0002840F0A78012200AF01CF800060BD581
S3150800ECE000F0DFF8000607D500F0DEF8000603D5C9
S3150800ECF000F0D4F8000610D412200AF00BF800062B
S3150800ED0014D500F0CEF8000610D400F0CDF80006B1
S3150800ED100CD500F0C3F8000608D5E0780E2861D1B6
S3150800ED20F3F76EFE002800F07F8032BD00F0B9F8D8
S3150800ED3000060FD400F0B8F800060BD500F0B4F8BA
S3150800ED40C00707D400F0AAF8000603D4E0780C2818
S3150800ED5045D1E5E700F0A5F8000609D500F0A4F8C6
S3150800ED6000F08100812803D100F098F800060DD53F
S3150800ED7000F097F800060ED400F096F800F081002F
S3150800ED80812808D100F08AF8000604D4E0780D2816
S3150800ED90C6D00E28DCE700F084F8000610D500F08F
S3150800EDA083F800060CD400F079F8000608D5E07858
S3150800EDB016281CBF01281A28B2D00F2815D1AFE78C
S3150800EDC000F06FF80006ABD400F06EF80006A7D482
S3150800EDD000F064F80006A3D5E0781628A0D0E078FD
S3150800EDE001289DD0E0781A289AD0E078022818BF22
S3150800EDF01B2895D0062818BF072891D0082818BFC1
S3150800EE0009288DD00A2818BF032889D0102818BFCA
S3150800EE10112885D0122818BF1328FAD0142818BF2D
S3150800EE201528F6D0B02032BDF5F7E4F90BF0C3FA91
S3150800EE30DFF8A402007808B109F05EFD05F03CF899
S3150800EE40F8F7D3FBDFF894420FF2C820F9F7CFFCA6
S3150800EE502070DFF88C02F9F7CAFC6070F6F7B8FD87
S3150800EE6005466078F9F7E4FC2846F6F7B7FDF7F7A4
S3150800EE70A3F8F9F7F8FDF9F785FF09F0D1FF09F0CE
S3150800EE80D8FF03F0F9FE0120F4F771FBDFF854020E
S3150800EE904FF47041F9F723FC002032BD002009F039
S3150800EEA039BF102009F036BF112009F033BF2DE90C
S3150800EEB0F047FEF7CBFDFEF7BFFBF7F7A7FB08B950
S3150800EEC0F7F790FBDFF820824046F9F7DBFB08B935
S3150800EED0FAF755FADFF814924846F9F7D3FB08B95A
S3150800EEE001F0F1F905F06FFAF6F7D9FEDFF8EC61F3
S3150800EEF03078F9F768FC7078F9F765FC0BF064FA76
S3150800EF00DFF8EC51DFF8ECA1002700240BE02046DF
S3150800EF10F7F703F92868007B001F022838BF012786
S3150800EF20F7F7FCF8641C9AF80000E4B28442EED3C2
S3150800EF30002F1EBF70480078002805D000F02AF878
S3150800EF40102808BF05F06CFBF8F718FB0BF012FC4D
S3150800EF50F6F73EFD0746F7F759FB68B14046F9F75D
S3150800EF6091FB48B14846F9F78DFB28B10BF0F0FB49
S3150800EF7010B13078F9F75CFC3846F6F72FFDF7F74D
S3150800EF80C5F818B94FF4B47100F03FF8F5F705F86D
S3150800EF90BDE8F08710B5F9F750FD40B1FEF767FEFA
S3150800EFA028B1FCF716F8441EA441E40F00E001243A
S3150800EFB0F4F7D7FB08B944F00404F7F727FB38B190
S3150800EFC04948F9F75FFB18B14848F9F75BFB08B9F8
S3150800EFD044F002044948007808B144F02004464841
S3150800EFE0007808B144F010044548007808B144F0A8
S3150800EFF04004FBF7EAFF08B144F08004FBF7E7FF9B
S3150800F00008B144F48074204610BD0FF2F800F5F7F5
S3150800F01095BC38B5044636480068007BC01E0328F0
S3150800F0200BD32046FBF7C1FC4FF6FF75A84204BF79
S3150800F0302046FEF729FFA84204D12046BDE8324003
S3150800F04005F022B832BD70B504464FF6F870844212
S3150800F0500D4627DA264E3CB93068007D800703D472
S3150800F060284606F04FFDD8B9306841888C4205D14C
S3150800F070011D08222846F5F75FFD11E0007BC01E3A
S3150800F080032808D3204603F0E9FCFF2803D02946C5
S3150800F09003F008FD20B92946204605F03CF808B1DA
S3150800F0A0002070BD012070BD11480068008A7047B5
S3150800F0B00F490968088270470D480068408A7047FA
S3150800F0C00B49096848827047094800680078704704
S3150800F0D00000000096070408FA1E0020C92F002029
S3150800F0E0F0C10208542F0020101F0020181F00200E
S3150800F0F0C42B00203C1D0020842D0020E42B00207A
S3150800F1005C2E00207A69676265652D737461636B8E
S3150800F1102E630000C02E0020615C0008942D00209C
S3150800F12075A200081C2C00209DD20008742E002011
S3150800F13099DD0008682F002029CB0008E42B002061
S3150800F140E3200108F02B0020A1210108842D0020CE
S3150800F1501D460108DC2B0020EB160108042C0020B4
S3150800F16055340108682E0020FF3C0108542E002063
S3150800F17095C601083C2E00200FE30008E82E002063
S3150800F1800D3B0108442E0020A9A801084C2E00209A
S3150800F19065AD01083C2C0020E15D0108D82E002051
S3150800F1A0E1A601085C2E0020512C0108B42B002092
S3150800F1B0876000085C2F002027630008542F002072
S3150800F1C049530208BC2B0020B76100080000000064
S3150800F1D0000000002DE9F8438046894617461C467C
S3150800F1E0F8F796FF0546FF2DDFF8586509D0AFB941
S3150800F1F0F9F7F9F8FF2820702BD13068285C90BB06
S3150800F20027E0306818F80000A0EB0900B9F1FF0FF5
S3150800F21008BF01201ED0C6B216B9FF20207018E01C
S3150800F220D7B145462846F8F72FFF00964B46424683
S3150800F23000212846F9F796F957B131462846F9F7D5
S3150800F2407CF8DFF804050068295C01F07F01295481
S3150800F25025700020BDE8F28331460020F8F7A5FFA7
S3150800F2600546FF2DE1D11820F4E738B50446DFF846
S3150800F270D4040068255C204600F0E0F800F10E038F
S3150800F280DBB2E91A89B20091224601462046F9F70F
S3150800F29069F9A5F10E012046BDE83440C9B2F9F76F
S3150800F2A04CB838B50446F8F792FD05462046F8F7F7
S3150800F2B084FD6A780821D30748BF0921130744BF8C
S3150800F2C00831C9B2D20644BF0831C9B20818C0B25B
S3150800F2D032BDDFF870241268825C8A428041C043DE
S3150800F2E0C00F704700F8011B090A00F8011B704798
S3150800F2F010B504460822F5F71FFC04F1080010BDF6
S3150800F3002DE9F04E92460C46024684B099464FF6D1
S3150800F310FF710420F8F718FE0546FF2D6CD0F8F7A4
S3150800F32056FDDFF8286407463068C07E10B94FF6E8
S3150800F330FF50044020050DD5B9F1000F0AD100A9E8
S3150800F3405046FFF780FE00280EBF0DF100094FF268
S3150800F350FF70044021463846FFF7C4FF5146FFF7C1
S3150800F360C1FF8346FFF7A0FE01465846FFF7BAFFDE
S3150800F370DFF8DC2313780C9A0146481C0AB193423D
S3150800F38000D21A460A703168DFF8B8634A7E521C02
S3150800F3904A7600F8012BE10548BF401C210544BF09
S3150800F3A04946FFF7A5FFE10444BFDFF8A813FFF7B6
S3150800F3B09FFF31686A5C8018C01B685440F20110D0
S3150800F3C0044218D14FF6F870824514DA30682F5C7B
S3150800F3D0F6F79EFE29465046F8F7EBFBF6F79EFE33
S3150800F3E03068285CB84206D02846F8F7F0FC417821
S3150800F3F041F004014170284604B0BDE8F08E70B5AE
S3150800F40082B01546069A1E4641F209240AB141F60B
S3150800F410092400910246079B2146FF20FFF770FF4B
S3150800F4200446FF2C09D032462946F8F744FF00283F
S3150800F430204602D0F8F736FEFF2076BD38B50446DA
S3150800F440FFF72FFF05462046F8F7C1FC407840072E
S3150800F45004D500F072F8401C05EB4005E8B232BD51
S3150800F46000F108014078020701D400207047C00760
S3150800F47001D5481C70470846704700F108014078D6
S3150800F480C20601D400207047C20748BF491C0007BE
S3150800F49002D501F1080070470846704700F00301DD
S3150800F4A0012901D10220704700F00C000C2801D177
S3150800F4B009207047082070470322114207D000F040
S3150800F4C00300022801D1032070470220704700205C
S3150800F4D07047F8B504460D46F8F77AFF0646FFF773
S3150800F4E0DDFF0746300601D43846F2BD7919C9B2A0
S3150800F4F000F024F801463046FFF7DEFFC019C0B217
S3150800F500F2BD70B504460D46FFF7E3FF064600F068
S3150800F51014F880060FD57119C9B200F00FF8761DD8
S3150800F52000F01801F6B2082904BF761CF6B2800668
S3150800F53044BF0836F6B2304670BD29462046F8F76D
S3150800F54047BF38B50446FFF779FF054629462046E2
S3150800F550FFF7D7FF4019C0B232BD2DE9FF478046F5
S3150800F5600C46F8F734FC0646F9F7CDFB0546404647
S3150800F570FFF764FF074639464046FFF7AAFF002112
S3150800F580009103463A46414601A8F8F72AFE9DF837
S3150800F590048008F00C000DF1050A4FF0FF090C284D
S3150800F5A01ABF9DF805000DF1060A484608F00C0733
S3150800F5B0607106D15046F9F7A6FB20810AF1020AC6
S3150800F5C001E0002020817078C00704D50C27B01C04
S3150800F5D0F9F799FB20815046F9F795FB60800AF107
S3150800F5E002063046F9F78FFB208008F00301B01CAD
S3150800F5F0012918BF10F8019B84F8049010F8011B24
S3150800F600A17208F0600139432A0648BF41F4007127
S3150800F61003D46A0648BF41F48071EA0448BF41F43E
S3150800F62080612A0548BF41F40061E1805FEA08610C
S3150800F63017D510F8011B11F0030112D0E38810F852
S3150800F640012B43F40043E38008F00303022B04D1A3
S3150800F650007842EA0020208103E0012908BF12024F
S3150800F6602281BDE8FF872DE9F041154686B0804620
S3150800F6700C46E888082C18BF0C2C064604D08004D3
S3150800F6805CBF06F040000143304F3868C07E10B1B9
S3150800F69006F020000143300448BF41F080010C2CDD
S3150800F6A08DF8001005D129890DF10100FFF71AFE22
S3150800F6B004E068798DF801000DF102006988FFF70A
S3150800F6C011FE2988FFF70EFE297900F8011B022C86
S3150800F6D009D0310402D52989C9B221B939688A7E87
S3150800F6E0531C8B76AA72A97A00F8011B310415D52A
S3150800F6F029890A0A022C01D0CBB23BB1022300F8B1
S3150800F700013B022C00F8011B08D105E010F8011C8A
S3150800F710A972012100F8011B00F8012B3968C97E7E
S3150800F72019B1A979890648BF401D00A9421AD2B263
S3150800F7304046F8F7C0FD401E8041C00F06B0BDE840
S3150800F740F0810000F81C0020FC1C0020C42B0020BF
S3150800F750741D0020F82B002010B50446FFF7A4FC02
S3150800F76002462046BDE810400021FFE72DE9F24F8A
S3150800F7700746DFF89406006886B0407B0025022815
S3150800F78092464FF0060913D13846FBF763F900286D
S3150800F7900ED14FF6F9718F4202AE1AD14FF02008FA
S3150800F7A0082400F02AFBC0F09C80FFF77DFC824508
S3150800F7B040F09780FFF778FC0746FC20F070FF20A2
S3150800F7C03071022239465046FDF7E7FFC8B10120DD
S3150800F7D088E04FF6F8718F4203D14FF010081024D5
S3150800F7E0DFE7380A3071A846F7700DF10E01384682
S3150800F7F0FFF729FC002812BF002420244FF00E0929
S3150800F800DFE7DFF808B69BF80000401C01218BF8FB
S3150800F81000008DF808107470B07075710195009528
S3150800F8204B469DF8181002AA4FF6FC70FFF7E7FD45
S3150800F8300646FF2E55D0FFF737FC824510D03046D6
S3150800F840F8F7C5FA04465146201DF9F763FA20462B
S3150800F850FFF713FE01465046FBF716F900283DD080
S3150800F86000F0CBFA4FF6FF7905D249463046F9F74C
S3150800F8704EFC054632E0FDF7B7FF04002ED0E21D28
S3150800F88041463846FDF7B5FF070027D000231A463C
S3150800F89003213046FEF7A2F9050015D0A4F800A00A
S3150800F8A09BF80000207100206071FFF7FDFB824580
S3150800F8B005D1387900F0FC0040F0010038710021CC
S3150800F8C00C20F6F77EFC09E0387900F003010129DF
S3150800F8D004D140F003003871A7F800903046F8F7D5
S3150800F8E0E1FB284686E22DE9F041804615461E468C
S3150800F8F04F1CF8F76CFA0446201DF9F704FA28801D
S3150800F9004046F8F785FA6880F9B2A079E872404669
S3150800F910F8F75EFDA8727F1CF9B24046F8F758FD65
S3150800F92028727F1C2EB1F9B24046F8F7F8FDBF1CC5
S3150800F93000E02888A880F9B24046F8F7F0FDE8808C
S3150800F940B91CC9B24046F8F743FD68720122297A04
S3150800F950A888BDE8F041FDF720BF3EB50C4600215A
S3150800F96000911D460146082301A8F8F73AFC2A46E5
S3150800F97001A9204603F0CBFB3EBD10B50C46DFF8C7
S3150800F9808814096882B0097BC91E032908D300AA0E
S3150800F9901021FDF72EFF18B144800021FDF7A8FDC0
S3150800F9A013BD2DE9F04704468AB0A07A8946154664
S3150800F9B000F040080826FFF777FBE288824206D067
S3150800F9C0012702A91046FBF75FF808B943E00027AC
S3150800F9D060880021FEF757FCB9F1000F824607D070
S3150800F9E00822494606A8F5F7A7F848F01008102691
S3150800F9F0002F14BF02A9DFF8181404A8082230182B
S3150800FA00F5F79AF8BAF1000F25D002208DF8100004
S3150800FA1048F0200104A806F108034170DBB2217AF8
S3150800FA20817004AAA1888DF81310A188090A0171AA
S3150800FA30E1888DF81510E1888DF817A0090A8171FB
S3150800FA40002001900021012000906088FFF7D7FC74
S3150800FA500646FF2E01D1002010E06188F8F7E9F983
S3150800FA60002D14BF02210021002300223046FEF794
S3150800FA70B5F804463046F8F715FB20460AB0BDE847
S3150800FA80F0872DE9F04383B080460F461546994620
S3150800FA90F8F79DF9044600214846FEF7F4FB0646AA
S3150800FAA0F91DC9B24046F8F769FC8EB10DB901785F
S3150800FAB0761806706078000713D500A94846FFF740
S3150800FAC0C2FA28B90022082100A8FBF710FA08B1E3
S3150800FAD0002029E02046FFF7C3FC082200A9F5F715
S3150800FAE02BF8FFF7E1FA0146201DF9F713F96078BC
S3150800FAF0C00606D52046FFF7C0FC0822C449F5F71C
S3150800FB001BF84946A01CF9F705F949464046F8F797
S3150800FB1090F9BD480068417E491C4176E171A0799B
S3150800FB2008B90120A0710120BDE8FE832DE9F04F38
S3150800FB3087B08046FF20154600278DF801004FF054
S3150800FB40000B002D89468DF800B014BF0824062442
S3150800FB502B4601AA4046FFF7C6FE06468DB19DF81C
S3150800FB600E00C0060DD504F10800C4B209F108025A
S3150800FB70BDF808100023D2B24046FFF7EEFE002873
S3150800FB8037D19DF80E0080060CD56B1E9B4104EB01
S3150800FB900902BDF80A10DB0FD2B24046FFF7DDFEB8
S3150800FBA0002826D1002D14BFBDF808A0BDF80AA06C
S3150800FBB0FFF77AFA824504D05046FAF74BFF04005D
S3150800FBC000D00124002D3FD016B94FF6FF7A26E063
S3150800FBD09048F1790068B6F802A0062202FB010BEC
S3150800FBE0BDF80A10BBF80000884203D04FF6FF7034
S3150800FBF03080FFE024B9BDF80800FDF7BFFD0746D1
S3150800FC0000215846FDF774FCBDF80600ABF8020063
S3150800FC102FB100213846FDF76BFC7088788004F018
S3150800FC2047FC7D48007800280DD0002C0BD15346A0
S3150800FC30002249464046FFF724FF002803D05146D4
S3150800FC404046F9F764FAD5E0BDF806000021FEF74C
S3150800FC501AFB0590BDF80400FAF7FCFE0546FFF707
S3150800FC6023FABDF804108142EDD000F0C6F8EAD3B5
S3150800FC709DF80E004106E6D405992943E3D000F025
S3150800FC801801082908BF4FF0200A06D000F018000E
S3150800FC9010280CBF4FF0100ADA469DF80D0005999A
S3150800FCA008188DF80D0014B95FEA0A0000D0012083
S3150800FCB004903EB9FDF798FD06460120002E8DF802
S3150800FCC00000C0D0049848B9BDF80A000DF1010239
S3150800FCD00021FDF78EFD5FEA000B45D045B9BDF85A
S3150800FCE008000DF102025146FDF783FD07003BD0DF
S3150800FCF04948007828431EBF9DF8000084F001019A
S3150800FD00084227D0F6F70EFD7E2190FBF1F17E2200
S3150800FD1002FB1100801CC5B29DF80D2009F10501F2
S3150800FD20C9B24046F8F759FB4FF6FF714046F8F757
S3150800FD3080F805980428A8BFA5F1800003DA0228F0
S3150800FD4002DB05F14000C5B200232A4602214046DF
S3150800FD50FDF744FF9DF8000070B970799DF80D1005
S3150800FD60814209D3BAF1000F44D0814242D1F6F755
S3150800FD70D9FC032108423DD1BDF8060070809DF8E4
S3150800FD800D0070719DF8000070B1BDF80400308058
S3150800FD909DF80C003071049810B1FF20F07111E045
S3150800FDA09DF80100F07119E0BBF1000F1EBFF07954
S3150800FDB09DF80110884205D040F267210FF2E8004D
S3150800FDC0F4F7BCFD002F1CBF0498002806D0BDF828
S3150800FDD006007880387900F0FC00387154B1404646
S3150800FDE0F7F7F5FFFFF749FB01469DF8002001A844
S3150800FDF0FFF7D7FD07B0BDE8F08F03480068007B22
S3150800FE00C01E032870470000C42B0020DD2F0020E9
S3150800FE10F82B00201C1D0020081D00202DE9FE439C
S3150800FE2004460D4690469946FFF73EF9844214BFAC
S3150800FE300126002605218DF80810002702A93EB1E3
S3150800FE4088700122000A4A708DF80B00042301E02D
S3150800FE504F70022301970120009002AA002128462C
S3150800FE60FFF7CDFA0546FF2D1AD08EB1F7F7AFFF8B
S3150800FE7006462146301DF8F74DFFA9F18000F071BE
S3150800FE803046FFF7FAFA01462046FAF7FDFD20B19B
S3150800FE9041462846F9F73BF907462846F8F702F996
S3150800FEA03846BDE8FE830000726F7574652D646977
S3150800FEB073636F766572792E630000002DE9F84F3B
S3150800FEC08AB00D461646ADF804504FF00008F7887C
S3150800FED00446C246C146FBF74EF8159860B9F806BF
S3150800FEE00AD59DF850009DF82830009032462946DC
S3150800FEF020460AF0D3FC04E1780548BF4FF4805A3F
S3150800FF00380548BF4AF4006AB80548BF4AF0800A6F
S3150800FF1003D4F80548BF4AF0400A9DF850000290FD
S3150800FF20072CAB4665D8DFE804F0062C183A3A04E5
S3150800FF30063A4FF002099DF82800BDF80420009003
S3150800FF4043469DF850004AF40271FFF7D9F98246F4
S3150800FF50BAF1FF0F4FD11820D3E005A9E8B208F08F
S3150800FF6076FB08220DF1190103A8F4F7E5FDDFF881
S3150800FF701808006830F81B000DF10C08ADF80400ED
S3150800FF80D9E703A9E8B204F010F8DFF8000800681A
S3150800FF900C2101FB0B000DF10C080088EEE74FF66B
S3150800FFA0F870834525DBF0884FF40261084220D1BA
S3150800FFB000F033F918BF91201CD10298FF280FD002
S3150800FFC000F01DFB032C0CBF01210021401ADFF8AD
S3150800FFD0C017029A0968515C8842B8BF742009DBC9
S3150800FFE0032C0CBF4FF00C094FF008092AF4C07A0D
S3150800FFF0A1E7012085E0DFF89C0700884FF6FF712E
S31508010000884214D05046F7F7E2FE8346DFF88407A4
S3150801001001880BF10400F8F77DFEDFF87C07DFF8AD
S31508010020741700788BF807004FF6FF700880324680
S3150801003049465046FFF717FB08B918265DE0DFF871
S315080100405C070068C07E48B1B80607D50123424659
S3150801005000215046FEF704FE06004ED10298FF28FD
S3150801006016D05046F7F7A9FEDFF830170968C97E9A
S3150801007001B11221DFF81827029B12689B5C1AF856
S315080100800220D218743089188842B8BF742634DB26
S31508010090B80407D55046F7F7A4FE40F480615046E8
S315080100A0F7F7A1FE062C12BF072C5046F7F7A8FE54
S315080100B0159848B1BDF804105046F7F7BAFE1598D9
S315080100C080F800A000201CE0E01E022801D9001FCC
S315080100D007D15046F8F7ACFE00280CBFA12600262A
S315080100E00BE0B80444BF4FF6BF7007403B46EAB27F
S315080100F02146504604F0EDF906465046F7F7D2FF79
S3150801010030460BB0BDE8F08FF0B587B00E46044611
S315080101100C9917461846F8F748F80546FF2D21D0D9
S31508010120FF208DF810008DF81100ADF80E704CF215
S315080101300E00ADF80C00ADF812600020ADF8140001
S31508010140009502A80190FF2303AA21460020FFF784
S31508010150B5FE04462846F7F7A5FF002C0CBF9DF807
S315080101600800FF2007B0F0BD2DE9F043164685B01B
S315080101700446F08804900D4670790FF25861039091
S315080101801F4630790290A846708801904346308808
S315080101900090082200F069F800F03FF818BF912096
S315080101A019D1FF2F09D000F02AFADFF8E4150968FA
S315080101B0795C884238BF74200DD37CB94FF6F87044
S315080101C0804528DA002001900097FF233246294608
S315080101D02046FFF773FE05B0BDE8F083022C4FF603
S315080101E0FE790CD1DFF8B8050078854213D2DFF81D
S315080101F09805006830F818004845E3DB0BE0012C48
S3150801020009D1DFF8A0050078854204D2E8B203F0E7
S31508010210DAFE4845D6DB0120DDE7DFF88005006810
S31508010220407B02287047F0B587B00D46164604464E
S3150801023005961F46E8880FF2A4510490234668796B
S3150801024003900922287902906888019028880090ED
S3150801025000F00BF800200190009733462A46214604
S315080102600420FFF72BFE07B0F0BD0320F7F78FBC7C
S3150801027070B588B004460D46069205951E46E08877
S315080102800FF2645104900622607903902079029056
S31508010290608801902088009003202389F7F777FC6E
S315080102A0DFF8040500780096002814BF4FF6FF71A1
S315080102B04FF6FD71002001902B4622460320FFF7D9
S315080102C0FDFD08B070BD10B5DFF8E004F8F790F948
S315080102D00446FF2C0DD02146042002F036FE18B143
S315080102E00121204600F006F82046BDE81040F7F740
S315080102F0D9BE10BD2DE9FE4F82460D46F7F767FDBB
S315080103000646B01CF8F7FFFC83465046FFF796F8F9
S3150801031001465046F8F75CF8804608F0030950464E
S31508010320F7F769FDF5F7F9FEDFF88444301DF8F7AC
S31508010330EAFC2080DFF87C74FEF7B6FE834512D00E
S315080103404FF6F87083450EDA7078C0070BD4584615
S31508010350FAF775FB002869D02088012352465946C9
S3150801036000F091F962E000A95046FFF7F6F800A8F7
S3150801037038603046FFF781F8DFF83C14086003213E
S315080103805046F7F714FDDFF8341408700421504677
S31508010390F7F70DFDDFF8281408704DB39DF8060030
S315080103A0800625D5DFF8F453FEF77EFE40B12868AE
S315080103B0007D800704D4B9F1010F08BF102000D0D1
S315080103C0002040F00803002200215046FEF748FCB1
S315080103D070B108F00300012802BF2868407B112884
S315080103E039D105F06DFCB0BBAF2001F05AF832E007
S315080103F018F0030003D0022805D009D316E05046A9
S3150801040000F02DF812E05146404604F090F80DE050
S31508010410FEF74AFE2188814208D05146052002F09E
S3150801042094FD18B12188504600F0BFFAFEF73CFE4C
S31508010430218881420DD15046FFF700F80146504602
S31508010440F7F7C6FF0C21084203D10021504604F0F4
S315080104508FFA00203860F5F761FEBDE8F78F2DE9C0
S31508010460F04F83B08046F7F7B2FC0546A81C95F80D
S3150801047001B0F8F748FC4FF6F8718842ACBF01267F
S315080104800026FEF711FEDFF82893DFF82873B9F87E
S31508010490001081423868B0F802A00CBF012400247C
S315080104A00BF0010030438DF804009DF80400002884
S315080104B014BF062008200021F5F783FE3868018855
S315080104C0002904BF4079002808D1B9F80000BAF517
S315080104D0004F19DB5246414605F025FE386800886B
S315080104E04CF20E01884241D144F20106B24518BFC9
S315080104F0BAF5804F37D14046FFF723F80146B24592
S315080105000CBF0120002025E0DFF8B8B202218BF8E4
S31508010510001033460022414605F078FC3868807998
S31508010520400603D5FF21504600F070F8BAF1130FC3
S31508010530D4D03868C0884004D0D4A3499BF80000B9
S315080105400978CA0701D50228C8D0890749D50128DB
S31508010550C4D046E0491EC9B200912B464246012144
S3150801056001F01FFB3DE0404604F005FC386881793F
S3150801057001F00C010C290DD1008903F060FE80B34E
S3150801058038680189002C14BF03250225002008F0CC
S31508010590E2F814E00179009100224379B9F80000E4
S315080105A0002108F007F93968897901F00C01082951
S315080105B004D1002C0CBF0425052500E0002583493C
S315080105C008709DF8040010B9BAF1380F01D101225B
S315080105D000E000222946404603B0BDE8F04F07F087
S315080105E0B9BDBDE8F78F10B5044600F008F86105F6
S315080105F048BF0838210548BF0838C0B210BD674949
S315080106000968C97E642001B15220704770B5694EE8
S315080106100C4686B0054631680C2202A8F4F78CFA16
S31508010620306801798DF80D10FF2341798DF80C108A
S31508010630ADF80A504FF6BF71C08800940840ADF86E
S315080106400E0002AA00200190594801880520FFF7EB
S3150801065035FC06B070BD5E48007808B9FF207047C2
S315080106605A48007870470A4680B50C21084208D1D5
S315080106709079400605D55088FF21FFF7C7FF01206D
S3150801068002BD002002BD2DE9F34F904683B01D46F9
S315080106904046FEF7D3FE01464046F7F799FE8246E5
S315080106A003201AEA000F69D1424806684048B0F8A3
S315080106B000B0002400A94046FEF74FFF3D4900A8B7
S315080106C008603B49BDF80C0008809DF80500002824
S315080106D004BFBDF80000002834D14046F7F777FB80
S315080106E0801CF8F710FB4FF6F8718842ACBF4FF043
S315080106F00109A146002D14BF022501250127FFB2D4
S31508010700BD4234D3BDF80C004B463A46414605F086
S315080107107DFB0446012C04BF022D012F10D1BDF823
S3150801072010001C4908801D480068417E491C417615
S31508010730A1F180001849087000A95046FFF793FFF8
S315080107407F1CDCE7BDF800004CF20E01884204BFAD
S31508010750BDF8020001280AD145B1BDF8100041468D
S3150801076004F00BFB00A95046FFF77DFF0124114851
S3150801077006600F48A0F800B0204600E0002005B04A
S31508010780BDE8F08F000000004C1D00205C1D002014
S31508010790F81C0020DA1E0020C82F0020C42B0020D8
S315080107A0501D0020581D0020AA2F0020181F0020C8
S315080107B0CE2B0020D02B0020D42B0020E12F0020A7
S315080107C0E22F0020C72F0020A72F0020C32F0020CB
S315080107D0CC2B00204257575742425700425757578A
S315080107E0424257420000000042575742424257428E
S315080107F04200000070B5DFF8445C0446286882B000
S315080108002688407B08B1702076BDB00504D504F171
S31508010810120000F0CDFDF0B906F08600862801D158
S31508010820B72076BD00F0B7FD2868466116F4045F67
S3150801083020D0B0040BD5A01C0AF033F8002851D1FA
S315080108402868416921F4005141F480714161A01C75
S3150801085000F0AEFD08B1B22076BD09F0BFFF20B9A0
S315080108602868416941F4803141612868416941F04C
S31508010870200141612868416941F400414161480606
S315080108804CBF04F123020022A31C47F2FF1005F016
S31508010890B1F800A800F040F828684069C004BDF81E
S315080108A0000004D540F02000ADF8000008E04FF63E
S315080108B0DF710840ADF80000FDF7E7FDFEF796F891
S315080108C0BDF8000000F00FF828684069800506D5D4
S315080108D094F82210012204F1120000F07CFB296829
S315080108E00020486276BD10B5044604F44C70010434
S315080108F0002300224FF07F6005F07CF823462F2263
S31508010900C2A10320F7F743F9E00703D500213020F8
S3150801091005F0A5F8002010BDDFF8201B0968496914
S31508010920090C01F44C7101800020704738B5DFF8D5
S315080109300C5B04462868407B022801D0932032BD0F
S315080109400A2200212046F4F73AF92868406900F09E
S31508010950FF01820648BF41F01001218080075CBF74
S31508010960A01C05F0CFF8002032BD38B504460D4667
S31508010970FDF798FD08B9952032BD00F05FFAC17EF2
S3150801098089B14069010401D4A82032BD5DB110F0D6
S31508010990420F08BF002C04D000F44070B0F5407F28
S315080109A001D0B72032BD002032BD2DE9F04F8BB002
S315080109B081468B46FEF742FD01464846F7F708FD94
S315080109C0044600254846F7F702FA804698F80100DA
S315080109D0800748BF0125A00648BF45F002054846DD
S315080109E0FEF7AFFD8DF80400DFF8540A00689DF89C
S315080109F0041019F800009DF80420431ADBB2242BD1
S31508010A00A8BF232300200090494602A8F7F7E9FB6F
S31508010A109DF80840012000FA04FA00F08BF902AEAD
S31508010A20777878B100F018FD002814BFA0204FF49C
S31508010A30F070E040C00705D5A80703D4082C0CD1EF
S31508010A40042F09D1F8F7E7F950B1052C01D1022F86
S31508010A5006D11AF01E0003D182E0052CF2D07FE000
S31508010A6043F61E411AEA010F05D05A464946204661
S31508010A7009F019FF74E0052C4FF6FF7A0AD0062C07
S31508010A8018D0072C37D0082C4CD0092C50D00E2C56
S31508010A9053D065E0062F63DA08F10200F8F733F957
S31508010AA004464846F7F7B4F92B4602AA214600F050
S31508010AB001FB55E0FEF7F8FA002851D100F0BEF91E
S31508010AC0C17E00294CD0A90702D44069800147D4C8
S31508010AD00DF11100F8F717F90246DFF868599DF884
S31508010AE0130085F800900DF10903594609F0DEFE59
S31508010AF0FF20287034E00822DFF84C190DF10900AF
S31508010B00F4F764F820B90222594602F0C6FC27E038
S31508010B100DF10900F9F749FF504521D0002102F0EE
S31508010B20EBFD1DE02A4602A9584609F083FF17E0A6
S31508010B307178012000F017FA12E0E80710D50DF1D7
S31508010B400900F9F732FF504504BF0DF10900FDF719
S31508010B509BF9504504D09DF80420494600F003F856
S31508010B600BB0BDE8F08F2DE9F0478046DFF8D008D5
S31508010B7000680D4688B0285C02F10906871BF9B2A0
S31508010B800020F7F712FB0446FF2C3CD00120009009
S31508010B900023424608212046FEF7B2FB8146B9F1F9
S31508010BA0FF0F2DD0F1B22846FEF7ABFC8246002096
S31508010BB000905346F2B2294601A8F7F712FB5246AE
S31508010BC001A94846F7F777FBB8B9A7EB0A075644D0
S31508010BD0F9B22046F7F7F8F94046F5F7CDF900F0EE
S31508010BE0B5F9FFB20097F3B22A4600212046F7F776
S31508010BF0B9FC41464846F8F78AFA4846F7F752FAE1
S31508010C002046F7F74FFA08B0BDE8F08742570000CB
S31508010C102DE9F24F8046934686B01D460021584677
S31508010C20F7F7D6FB04460227082C1CBF052C062C11
S31508010C3005F008064FF000094FF0080A01D16808C7
S31508010C400AE000F077F848B100F006FC002814BF66
S31508010C50A0204FF4F070E04000F001000190FAF78F
S31508010C608AF9BBF1FF0F63D0E80748BF4FF4027A50
S31508010C70C82000900023424651465846FEF740FBDD
S31508010C808346BBF1FF0F53D026B106990AF039F80E
S31508010C9000284AD04FF6F8708045ACBF08200020DE
S31508010CA040F001008DF8080000F0C8F8817E4A1C62
S31508010CB082768DF80910019848B19DF8080040F030
S31508010CC02000002E8DF8080014BF0F2707273A4683
S31508010CD002A95846F7F7EFFA38BB0198D0B10021B7
S31508010CE0052C0DD15846F7F713FA01240121F7F718
S31508010CF06FFB04FA00F010F0620014BF10211821EE
S31508010D00002E19BF0223069A012300225846FDF731
S31508010D10A7FF50B9680704D541465846F8F7F7F9C9
S31508010D2002E05846F8F784F881465846F7F7BAF9C3
S31508010D30484606E3DFF804070068C07E70472DE9D8
S31508010D40F04104460E463046F7F7B6F88046204687
S31508010D50F5F712F9FF2804D0F9F78FFE00F04007DE
S31508010D600DE02046FDF7BDF8FF2818D0DFF8CC16B0
S31508010D700968896A0E2202FB00104079C709DFF863
S31508010D80C4562E70FEF790F90146002F14BF0520B0
S31508010D9001204346224609F089FDFF202870BDE857
S31508010DA0F0817CB51C46DFF894361B681B7D00254F
S31508010DB09B0701D5002076BD019200900B460622BD
S31508010DC00FF2B0610020F7F74AFB0646FF2E0CD05A
S31508010DD0002C14BF03230123002132460846FFF7DE
S31508010DE017FF05463046F7F75DF9284676BD2DE922
S31508010DF0F041002704460D461646B84604F060FF42
S31508010E0018B1012300F016F8074604F059FF38B166
S31508010E1000F022FB40B100F011F84069800103D4CB
S31508010E20002300F007F8804658EA070018BF01209A
S31508010E30BDE8F081324629462046B2E7DFF8FC05CF
S31508010E40006870472DE9F34F1D46022D924616BFDD
S31508010E50032D01270027BAF1000F8DB018BFD04620
S31508010E6005D101A804F04EFE48B10DF1040823216D
S31508010E700020F7F79AF98146B9F1FF0F01D1002051
S31508010E8061E0F7F79BF883465E46052006F8010BF5
S31508010E9006F8015B199CE00606D5112200213046A9
S31508010EA0F3F78DFE113617E0189910223046F3F73D
S31508010EB043FE01201036A84010F062000CD003A9A9
S31508010EC008A800F058FA3046461CA1064CBF9DF802
S31508010ED01C109DF830100170002F14BF51460E9951
S31508010EE008223046F3F728FE06F1080A2FB1A009B1
S31508010EF000F001000AF8010B0BE001200090AAEBB3
S31508010F000B020823D2B249464046F7F76AF90AF1B5
S31508010F10080AAAEB0B01C9B24846F7F755F8600764
S31508010F2005D5BDF83400F5F727F800F00FF80E9946
S31508010F30BDF8340023464A46FFF76AFE044648468A
S31508010F40F7F7B0F820460FB0BDE8F08FFF2809D0B3
S31508010F50DFF8F814096831F810204BF6FF731A40C8
S31508010F6021F81020704730B58BB004460D4600F0C5
S31508010F709EF800A800F01CFA60B99DF810009DF8CB
S31508010F8024100A1AD2B2812A04DB2CB1A94201D053
S31508010F90A84201D000201CE01123022205A900F075
S31508010FA06EF89DF81010012200A800F014F801F05F
S31508010FB016FE01214FF40070F9F7C5FBF5F7A8F8FD
S31508010FC0FFF73CFF90F82000F6F7E9FDF5F7A6F8DC
S31508010FD001200BB030BDF0B591B005460C4616465A
S31508010FE001271122002101A8F3F7E9FD8DF8144024
S31508010FF02DB91022002101A8F3F7E1FD04E0102222
S31508011000294601A8F3F798FD112200210BA8F3F749
S31508011010D6FD1122002106A8F3F7D1FD06A90BA8D2
S3150801102000F0A9F9002E14BF0BA806A8112201A9E0
S31508011030F3F7CCFD00B90027CEB1DFF8005497B11C
S315080110401123062200F01AF82868407B432808BFB6
S3150801105001F016FD00A8FFF75FFCBDF80000800649
S3150801106058BFFDF712FA286880F8204004E01FB13E
S315080110701123022200F002F811B0F0BD01A90020E7
S3150801108008F08FBC70B58AB004460D46164600F0C6
S315080110900EF8002E14BF05AE00AE102231462046CA
S315080110A0F3F74AFD307C28700AB0002070BD00A90C
S315080110B005A860E12DE9FF4F541C83B014F8015BC4
S315080110C04FF0000BDA46022D16BF032D0127002724
S315080110D0D046FDF7E9FF00284BD0F7F79CFE9DF8AF
S315080110E01810084345D002941034029800F060F9AC
S315080110F0DFF8486381460120A8408DF80000622187
S315080111009DF80000084218BF14F801BB9FB90842B0
S3150801111004F1080A2ED03068007D80072AD5FF22FF
S3150801112008215046F9F7E3FE20BB0023524619462B
S31508011130022004F05FFCFDF7B7FFBDF810108842E6
S3150801114006D13FB90822C0492046F3F73FFD0028DA
S3150801115040F0CB809DF81840052D0AD8DFE805F048
S31508011160034D3E3E034D04F0ABFD002818BF032C8A
S3150801117010D0E6E0504604F0F8FC0028DBD13068D0
S31508011180407B4328F5D1012D18BF052DF1D14FF02C
S315080111900108D0E7B9F1000FEBD1042D029BAC4849
S315080111A00CBF20213021524604F024FC002DE0D04A
S315080111B0306800214162417B022909D10321504649
S315080111C0F4F7FBFF07B0BDE8F04F002004F0ECBDD3
S315080111D04129CED140694005CBD581E0032CC8D140
S315080111E00598029B827E032D07B0BDE8F04F0CBF20
S315080111F001210021123005F029B93068407B022807
S3150801120004F0020404D104F05BFD08B1002C1BD0E4
S315080112103068407B412817D0B9F1000F06D1F7F79E
S31508011220FAFD024602985946FFF7D5FE8948007825
S3150801123038B1012D07BF002101200121002004F04A
S315080112400EFCF7F7E8FD00287BD004F039FD68B1FC
S3150801125030684169090502D4407B432806D12CB977
S3150801126007B0BDE8F04FAC2000F01BB93068007D2F
S31508011270800704D4BDF80C100020FEF77EFB306809
S31508011280417B112914D14069400511D5002004F08C
S3150801129023FD002855D100F021F9AE2000F001F90F
S315080112A0002004F081FD07B0BDE8F04F00F0FDB85D
S315080112B00CB100F08FF8B8F1000F11D04FF0805142
S315080112C0002004F0CCFB09F089FA18B94FF48031F3
S315080112D004F0C5FB316800204862504604F043FC1F
S315080112E007B0BDE8F04F00F04EB99DF80000622145
S315080112F0084212D0BDF810004FF6F87188420CDB8F
S31508011300002208212046F9F7F2FD30B10298594624
S3150801131007B0BDE8F04F00225DE62046FDF779FEED
S315080113204FF6FF7188420CD0B9F1000F14BF152191
S31508011330042101912B460299009152462146FFF755
S3150801134081FD07B0BDE8F08F10B58AB00446FFF7F6
S31508011350AEFE9DF82400844205D105A8F5F772F979
S3150801136001200AB010BD9DF81000844208BF00A8EC
S31508011370F4D00020F5E710B50C46014611230622E4
S31508011380012008F00EFB2146BDE810401123022278
S31508011390012008F006BB80B5002100220846FFF7A8
S315080113A01AFEBDE8044000214FF6FF7004F057BB52
S315080113B000221021F9F79BBD80B5FFF7BBFC40B1B0
S315080113C000F008F8204804F0CCFBBDE8014009F01C
S315080113D0CABC01BD19480068406910F0300F09D030
S315080113E01C4A127830210AB1C00700D420213020C6
S315080113F004F035BB704711480068C17E01B97047D2
S3150801140080B5007BC01E032816D30020FCF7B6F969
S3150801141048B10179302211420ED101F0CF0141F0D4
S315080114201001017101BDFCF766FD28B1BDE8044054
S3150801143000210020FEF7A1BA01BD0000C42B00203F
S31508011440F81C0020E41E0020F82B0020141D0020A3
S315080114503000010000C7020880B5FDF725FE002807
S31508011460FFF7ECFC40690CBF8008000D00F0010095
S3150801147002BD00003138323100000000DFF83C2C93
S315080114801268127882420AD019B1012A03D10228B8
S3150801149005D000207047022A08BF0128F9D101208A
S315080114A07047DFF81C1C0875704710B5DFF80C4C3F
S315080114B02068407B112804D0B6210FF21000F3F7FB
S315080114C03DFA21684120487310BD00006173736FAE
S315080114D063696174696F6E2E6300000080B502202E
S315080114E0F4F712FEF4F719FE00F026FC001F022895
S315080114F005D2DFF8CC0BC17C491DC17405E04FF458
S315080115007A71DFF8C00BF7F7EAF800F05FBE10B59D
S31508011510DFF8AC4B002060742078FF2803D0F6F77B
S31508011520C1FDFF20207010BD38B504460D46F6F7FB
S3150801153045FD007C00F00701400800F0380000EB8B
S31508011540410000F11102DFF8540C0068205CD2B2A8
S3150801155082420ADA831ADBB20F2BA8BF0F230020B7
S31508011560009021462846F6F73CFE31BDDFF84C0BC4
S315080115700068407B33281CBF4328532801D101202A
S315080115807047002070471FB5F7F745FC08B3DFF829
S31508011590304B207800A9FFF7C7FFDFF8281B00208A
S315080115A008700DF10300617901F0C8F8FFF7AFFF84
S315080115B000F010F800F031FA007DC00702D509F0F5
S315080115C0D3FB08B904F053FE09F0CDFB012001F065
S315080115D0E3F91FBD10B500F020FA017BC91E0329E6
S315080115E006D240884FF6FF71884208BF032008D00B
S315080115F0F9F7F8FB0446F9F7F9FB214606F0B3FFBC
S315080116000220F9F7FBFB02F0A9FABDE8104000F049
S31508011610E1BD38B5DFF8A84A2075FFF778FF002144
S315080116204FF6FF7001F083F9DFF8905A2868417B7D
S31508011630032918BF00291DD0332918BF432913D1FF
S3150801164000F019F82868017BC91E032906D203216F
S315080116504173207DBDE83240F4F7B1BD207DF4F732
S31508011660AEFDBDE83140B5E721214173BDE8314002
S3150801167001F061BF31BD237D132296A10320F6F740
S3150801168086BA10B500F054FB002048734FF6FE7079
S31508011690FDF70EFD4FF6FF70FDF712FDDFF8204A44
S315080116A0FFF7E9FF207DBDE81040F4F788BD10B5C6
S315080116B004462346182287A10320F6F768FADFF8BD
S315080116C0380B0021017114B1FF2C02D101210170DF
S315080116D007E0012100F8041BA100491C0902F6F7DD
S315080116E0FEFF00F077FD002010BDDFF80C1B00207F
S315080116F00871DCE730B50D4689B0044668690FF212
S315080117007C1107902346287C06901622E8890590C5
S31508011710287B0490E87A039095F90A0002902889B3
S315080117200190009500F076F9287B00280CBF4FF64A
S31508011730FE70FDF7B9FC2B46224609B0BDE83040DC
S31508011740014601202DE9F041DFF8706980463068CD
S31508011750407B00280F4614461D464BD1002C49D024
S31508011760062C47DADFF88C0A00780A2842D1F4F702
S31508011770D6FC00283ED1F4F7D4FC08B1042C39DB99
S31508011780287B032816D14FF6FE70874214D1012C07
S3150801179008BF002710D0022C2CD1FDF785FC4FF687
S315080117A0FC71884202DAFDF77FFC01E001F05EFC7C
S315080117B0074601E0012C1DD0B8F1000F0CD0287B9B
S315080117C003280CBF01210021012C0CBF0120002098
S315080117D0FFF7CBF800284ED12946384600F06AFFB4
S315080117E0002848D1F4F795FCF4F778FC20B1F4F712
S315080117F098FC08B170203EE03068DFF8C478407B79
S3150801180033281EBF532800207875204600F035FF7F
S31508011810387E20B1F4F785FC08B9F9F7C1F9287BB8
S31508011820032803D12846BDE8F0412DE008222946C0
S3150801183007F10800F3F780F9287B0328A8BF0020E1
S315080118403874FFF764FE94203875387C31680028AF
S315080118500CBF012031204873002031687A7EB874A4
S315080118600120897B00FA01F10320FBF735FC10B151
S31508011870326800215173BDE8F08100004242387098
S31508011880574242425742440010B5044600220821F5
S31508011890F9F72DFB08B1012010BDFDF705FC002263
S315080118A04FF6FF7100F02EFF217C204600F046FF1F
S315080118B06269E189207C02F084F9DFF80008006892
S315080118C0007B012808BFFFF777FDFFF783FE00209D
S315080118D010BD00004242000038B5DFF8E047054672
S315080118E02068407B002802BFDFF8080900780A282B
S315080118F001D0702032BDF9F780FB002843D12DB104
S3150801190002222946DFF8280BF3F716F900A800F09A
S31508011910DAFF08B1932032BD9DF8003014221BA1CD
S315080119200320F6F734F900F051FF68BB9DF8000073
S3150801193000F0A3FE2068007B012818BF022806D004
S31508011940C01E03280FD2002000F0FDFF58B100F099
S3150801195054FF2068007BC01E032838BF02F044FDEF
S31508011960FFF738FE0FE02168132048730020DFF8DF
S315080119705017887405222168897B012000FA01F134
S315080119800520FBF7A9FB002032BD000042420000FA
S31508011990FF222DE9FC41044600F03FF80D46017B84
S315080119A00129904625D0407B022818BF032820D15B
S315080119B0F9F7E1FADFF808777A7E29460320FBF77B
S315080119C08BFB060016D13320F9F718FAFFF79FFDAE
S315080119D0FDF772FBF880002C14BF02200120387431
S315080119E007F1080000F08DFF0020B87487F815800C
S315080119F000E070260196009523462C220FF20C0171
S31508011A0000F008F83046BDE8F6810000424244423B
S31508011A10000000000320F6F7BAB8DFF8A006006850
S31508011A20704738B50446F6F7C9FA05462046F6F76B
S31508011A30C4F944192046F7F766F94FF6FF510140F4
S31508011A402046BDE83440F7F765B970B584B0FDF7AF
S31508011A502BFBDFF86C46064620780B21F6F78CF946
S31508011A60002100F064FFDFF85456F9F758FA58B127
S31508011A701EB14FF6F870864206DB01F0F7FA064604
S31508011A80286840888642F8D03046FDF711FB207851
S31508011A900921F6F771F9FDF713FB2E68307B052846
S31508011AA013D100F039FF8DF8080002AB207C00281D
S31508011AB00CBF4FF4804244F20102012000904FF41A
S31508011AC080617088FEF720FB0FE006208DF808007C
S31508011AD000F022FF8DF809000223002001900090F2
S31508011AE002AA70880121FDF78AFC0646FF2E08BF67
S31508011AF0002011D0286841883046F6F79AF9207CEB
S31508011B0002281CBF3046FFF78CFF00F044F8044654
S31508011B103046F6F7C7FA204604B070BD70B586B0F0
S31508011B200C4616461D4638B92046F4F725FA02AA88
S31508011B3003A9F8F758FF03A807218DF808100190A3
S31508011B40310A8DF80A1001200A998DF80B100090B8
S31508011B508DF80960042300F0BBFA0646FF2E18D05B
S31508011B602146F6F766F915B93046FFF75AFF0B987D
S31508011B7008B930460DE02046F8F761FF18B130463E
S31508011B80F3F73AFF01E000F006F83046F6F78AFA6D
S31508011B90FF2006B070BD0022002311463046FCF72F
S31508011BA01DB82DE9F64F83B004461E4600274FF6A9
S31508011BB0FF7556B14FF0010B3046FDF75EFC8146C5
S31508011BC07078400800F0010A05E0BB461046F6F7B2
S31508011BD097F98146BA4600F0AFF8C01E0328C0F04F
S31508011BE0A2800E98411C9DF81000C9B2F6F7F0FBC9
S31508011BF0804608F0020002909DF80C0020B95FEAC1
S31508011C00086058BF48F08008FFF707FF407B0228A5
S31508011C1004D1DFF8E4050078204301D102271EE04C
S31508011C204846FDF7F6F99DF80C1019B1651EAD4148
S31508011C30ED0F00E00025BBF1000F1CBF301DF7F7C3
S31508011C4062F8012100912B46014642464846F8F7BB
S31508011C5028FE05464FF6FF70854208BF0127D6B113
S31508011C601CB94FF6FF70854204D1301DF7F74BF8C2
S31508011C70014600E0294601200190009753462A466D
S31508011C804846FFF74BFF029850B94FF6FF71484691
S31508011C90FCF756FA04E03A4629464846FBF7AAF9FC
S31508011CA0002F40D10298E8B149462846FCF76BFA5D
S31508011CB00E2101FB00F700F03BF8896A79184A7989
S31508011CC042F040024A71FCF791FAFFF7A6FE806AD4
S31508011CD038185FEA486241794CBF41F0800101F04A
S31508011CE07F014171FEB1DFF8A86C9DF810003070D4
S31508011CF0FDF7DAF95FEA48610FF22C0C48BF0CF1DF
S31508011D00010CBAF1000F18BF0CF1020C02D10CB983
S31508011D100CF1040C01469CF800004B462A4608F0D3
S31508011D20C5FDFF203070B0E003070004010500007F
S31508011D30DFF8881309687047DFF880030068007BBD
S31508011D4070472DE9F04F0446884685B091464046CE
S31508011D50F6F73DF8DA4D297C824601B10121D74EC5
S31508011D608DF804103068007B05280CBF0127002771
S31508011D703CB15046FDF781FB83465046FDF770FBA3
S31508011D8005E04046F6F7BCF88346DFF8080C0390F1
S31508011D900423002000904A46414602A8F6F721FA94
S31508011DA00DF10900F6F7AFFF9DF80B908046CCB10F
S31508011DB00398DFF8E01B0822F2F708FF002862D132
S31508011DC000F08BF908BFB9F1000F0BD14046FDF7BA
S31508011DD06FF904F04CFA9923FFF74EFC9920F4F7B2
S31508011DE0EEF950E0F9F79BF800284CD09DF804006D
S31508011DF0384301D014B946E0002C44D1B9F1000F9B
S31508011E0003D09420FFF705FC3DE030684088594629
S31508011E10FCF7B9F9FCF7EAF9306841885A464046B1
S31508011E2000F070FC3068417B012916BF3129112168
S31508011E30432141730220F4F766F9A24F40F6B831FF
S31508011E403846F6F74CFC02F0CFFA0020E874306801
S31508011E50C17E19B93846F6F737FC11E034B19AF85C
S31508011E600110890702D5FFF78EFB09E0007B001FE9
S31508011E70022805D205213846F6F731FC0620E87412
S31508011E80AD20FFF70EFBF4F7FEF805B0BDE8F08FBD
S31508011E902DE9FE4F8046F5F79AFF0446F5F7DCFF74
S31508011EA005462F194046F5F788FF2844C5B240462E
S31508011EB0F6F726F8834638780090F9F753F800289C
S31508011EC01CBF0098072816D10098DFF8F4A17B4EAD
S31508011ED0EC1C01284FF6FF790ED0022814D00428ED
S31508011EE000F0BE80062815D0072863D0082821D01F
S31508011EF07C2800F07F80DEE0002100950023424621
S31508011F000846FFF74EFED6E02A4641460020FFF76F
S31508011F1018FFD0E05846F8F748FD484503D0014672
S31508011F205846FBF718F800F0D8F802D15846F5F7E5
S31508011F3044FEC0E0691C00F0C7F80746E1B200F0AC
S31508011F40C4F80446A91D00F0BFF805464D45F0D072
S31508011F5002F04AFA3068407B132808D100F04DFC9C
S31508011F604046F5F7CDFF01462046FCF70CF900F08F
S31508011F70B4F818BF13281CD12846FDF799F8384636
S31508011F80FDF79EF80021002000F0D8FB59462046AF
S31508011F9000F0CDFC9AF80300DFF85C1A087000F02F
S31508011FA019F93068417B132903D123214173FBF7C2
S31508011FB020F980E000F091F802BFDFF8404A207866
S31508011FC0002878D1F4F7AEFB05469AF919100120D5
S31508011FD08840C0EB001B1FFA8BF60020F4F793F834
S31508011FE095FBF6F006FB1050411C89B22046F6F720
S31508011FF076FB60E07878652804BFB8786D285AD1F1
S315080120006648006818F80000E4B2844253D20822F0
S31508012010594601A8F2F790FD00AB00222146404639
S31508012020FDF7D8F8002846D19DF80000FF2842D0D0
S31508012030DFF8CC49DFF858590120207085F800806F
S31508012040F4F766F801A89DF80010F5F7ABFDF4F76B
S3150801205065F8FF202870002020709DF8000028E010
S315080120604046F5F76AFF0446DFF898090078FE2826
S3150801207009DB4046F5F7B5FE000B00F001012046E5
S31508012080F5F795FD17E00FF6D0100088ADF80800B2
S31508012090022300200190009000F01AF80546FF2D52
S315080120A009D02146F5F7C5FE00212846F6F712FCA8
S315080120B02846F5F7F7FFBDE8F78F0000C42B002087
S315080120C0B41E0020E42B0020C9B24046F6F727BA11
S315080120D002AA01212046FDF792B93068407B022801
S315080120E0704770B50220F4F70FF8F4F716F8DFF821
S315080120F01859DFF8186900202870F6F78CFE28B100
S315080121003068C07E10B9FFF73EFA3EE0DFF80049B5
S31508012110F6F781FE10B9F8F702FF58B1E07C48B12D
S31508012120C8212846F6F7DBFAE07C401EE074F6F78C
S3150801213006FC2AE03068407B132809D0F8F7EFFE41
S3150801214030B93068407B11281CBF4328412803D188
S31508012150207DFFF75EFA18E0022818BF032803D08E
S31508012160002818BF212810D10024DFF8A85808E054
S315080121702046F3F7D2FF002000F00EFCF3F7CEFF5E
S31508012180641C2878E4B28442F2D3BDE87040F3F7C0
S31508012190C5BFDFF87C180020C8747047F81C0020FA
S315080121A080B50020F3F7B0FFF3F7B7FFDFF84C1857
S315080121B000200870DFF854080068417B022905D120
S315080121C0007BC01E032828BFFAF733FFBDE801408C
S315080121D0F3F7A4BF80B5F3F7AFFFFF2804D006488D
S315080121E0007810B1012000E00020DFF82C180870F3
S315080121F001BD0000F21E0020D82B00202DE9F04F6A
S315080122000446DFF8180800688DB0205C0090204667
S31508012210F5F7D4FE0646B01DF6F775FD074606F135
S315080122200900F6F770FD814606F10B00F6F76BFD1E
S31508012230ADF80A0006F10D00F6F765FD8346C00BF9
S315080122408DF80800F8F78EFE18B12046F8F7BAFEA1
S31508012250EAE008A92046FFF767F908AEDFF8AC57A8
S31508012260B078C0F3C3000390707800F00F0A0098A5
S3150801227020282868407BACBF9DF82E804FF00008C7
S31508012280022812D1FCF718FF81450ED104A800F0E7
S3150801229038FB00981C2806DB08220DF1230104A847
S315080122A0F2F794FC08B101F0C0FDB7F5004F02BF83
S315080122B02BF4404040F6FF718842C9D100981C288A
S315080122C0C6DB002208210DF12300F8F710FE0028CD
S315080122D039D1DFF84C070078012830D19DF808007C
S315080122E00FF26C710090CDF804A04B462722FFF738
S315080122F091FBDFF8300700788DF81200ADF81090E1
S315080123008DF81CA08DF81D8008229DF808008DF80F
S3150801231013000DF1230105A8F2F70EFC2868DFF872
S315080123207076407B01281CBF33283C70F3F7F0FE1A
S3150801233004A8F9F791F9FF203870F3F7EFFEDFF8F3
S31508012340D076B87C00286FD1F8F7E9FD00286BD064
S31508012350012078740022082107F10800F8F7C7FD63
S3150801236010B1F888814508D008220DF1230107F13B
S315080123700800F2F72BFC002856D19DF8080028B969
S315080123802868407B312818BF33284DD10121504692
S31508012390FFF774F8002847D09DF82000002802BFEF
S315080123A07078000902283FD12868017BB278022992
S315080123B002D1500709D437E0120606D405291EBFF3
S315080123C04088BDF80A1088422ED13878DFF8585669
S315080123D0DFF85866FF2813D0787980450BD197F92D
S315080123E0020096F9001088420ADB1DD1787829780F
S315080123F0884205D318E0A8EB0000C0B2812813DA99
S31508012400FFF785F83C702046F5F73EFE2878787088
S315080124103078B87003980F28B4BF401C0F20F870A5
S3150801242087F804A087F805800DB0BDE8F08F000095
S31508012430EC2B00202DE9FF410546DFF8D4450120A4
S315080124400E461746A07400F00BFC002813D1A846C7
S31508012450B8F1010F18BF002D0ED100973346262279
S31508012460B5A1FFF7D7FAF3F753FE39463046F9F720
S3150801247008F9F3F753FEA4E0F8F774FD28B13A46D4
S3150801248031462846F8F79DFD9BE0DFF88055286818
S31508012490407B23280BD1F8F7A5FC0446F8F7A6FCE0
S315080124A0214606F060F80220F8F7A8FC89E0002F1B
S315080124B0FCD121281CBF0428532802D101F03BF87E
S315080124C07FE0F8F72CFD00285BD02678FF2E05D192
S315080124D0607C00280CBFAB20942066E02868007B4E
S315080124E0C01E032889412079C90FFEF7C7FF08B91D
S315080124F098205AE0F1F703F905213046F5F757FC1C
S3150801250029688873F3F7BFFD207C68BB2868007BC0
S31508012510052829D000F000FA074609213046F5F7C3
S315080125202BFC80460B213046F5F726FC3A464146F8
S31508012530FAF745FDE0B99420FEF7B3FF0220F3F759
S31508012540E2FD2968DFF8C0044A7B012A07D0312A4F
S3150801255018BF332A0ED1097B091F02290AD2C821BD
S31508012560F6F7BDF803200AE0FFF76FFA0028E2D173
S3150801257094201AE04FF41671F6F7B1F80020E074CA
S315080125801FE02868407B132815D100F017F9BDF81C
S315080125900000FCF795FD00F030F92868017BC91E9B
S315080125A0032905D2332141739620FFF732F808E053
S315080125B0FFF710F805E0B8F1020F04BF304607F03F
S315080125C0F6FF4FF40060F8F7D9F810B9FBF757FB97
S315080125D008B1F7F735FEBDE8FF811FB504460020AF
S315080125E08DF80000FFF719FA007840F020008DF801
S315080125F00100F8F7B7FC18B12046F8F7ECFC3AE009
S315080126000DF1030000F07DF90322FF210DF10B0006
S31508012610F2F7D5FA01F0BFFA8DF80E00DFF81014BB
S31508012620DFF8E003DFF80C240078DFF80C340978CA
S3150801263012781B78FE28A8BF0020091A9B1A904217
S31508012640B4BF101A0020DFF8B0231278DBB2C0B28B
S31508012650D200C018C9B242F004028842B8BF42F09B
S3150801266080028DF8022000A90F222046F5F723FEE5
S31508012670401E8041C00F04B010BD38B5DFF88C5339
S3150801268004462868017BA14203D004732046F3F768
S3150801269093FD24B12868007B001F022805D2F3F7B1
S315080126A004FDFF2808BF012000D00020BDE8324004
S315080126B0F1F76FB838B50D460446E87A0B38102895
S315080126C001D38A2032BD95F90A00F8F734FC08B11E
S315080126D08B2032BDCD48E97A026891730068A97AE0
S315080126E0C1732046FCF7E4FC4FF6FE7084420CBF2A
S315080126F04FF6FF702889FCF7E3FC2889C449C8808E
S31508012700002032BD38B50C461546FCF7D1FC00F061
S3150801271081FC2946204600F00AF9BD480178FF29BF
S3150801272018BFC07805D1FFF707FB01280CBF0020A9
S315080127300120B149087031BD424242007FB50446C5
S315080127400D4600F03BF8B14E94B1BC4A002128462B
S3150801275001F037FA306801788DF804100822007BF9
S315080127608DF80500214602A8F2F7E6F903F07AF991
S315080127703068817B8DF80310C07B8DF80200FCF769
S315080127809BFCADF80000FCF78FFCADF8060000F0E5
S3150801279017F87FBD1FB5044600F010F81CB10020DC
S315080127A08DF8050007E0FCF77FFCADF80600FCF79D
S315080127B083FCADF8000000F003F81FBD00A833E064
S315080127C01023072200A9002007F0EBB800B58BB04B
S315080127D0FFF7F4FFBDF80000ADF8180004A99DF84D
S315080127E003008DF81B009DF802008DF81A00BDF84C
S315080127F00600FFF75FFF0BB000BD1FB5012000F013
S31508012800A2F8044603F039F9FFF7D8FF1CB90022EC
S315080128104FF6FF7103E0FFF700F94188021DBDF885
S315080128200600FFF76FFF1FBD01461023072201208F
S3150801283007F0B7B838B50820F3F766FC0446F3F78E
S315080128406CFC724D7E48296800788873F3F763FC3F
S31508012850A04208BFF3F7EDFB00210020FFF76EFF4A
S315080128609B23FEF709FF9B20F3F7A9FC28680021A3
S31508012870A0F84410A0F84610BDE83140F3F74EBC65
S3150801288080B5A0F10B01102901D38A2002BDFFF7FB
S315080128904FFA497B022918BF032901D0702002BDCE
S315080128A0674908700820F3F72EFC00216548F6F7FA
S315080128B09BF820B1012808BFFFF7BCFF01E0A12062
S315080128C002BD002002BD1FB50446F8F74BFB18B13F
S315080128D02046F8F76FFB12E000A8FFF7A5FF9DF861
S315080128E0050040B1062806DAFFF722FA9DF804200A
S315080128F00978914201D0932001E02070002004B0AC
S3150801290010BD1FB5044600A8FFF78EFF082202A9CD
S315080129102046F2F711F91FBD4B48007800B1402057
S315080129203A4A4A491268127B515C08437047374A4A
S315080129301368588019B90822181DF2F740B90822F8
S31508012940181DF2F7F9B810B504462F48007AC007E2
S3150801295084B011D50A230A2200A9012007F021F81B
S31508012960BDF808004FF6FF71884205D00822FF21FD
S3150801297000A8F8F7BCFA08B1002006E024B1BDF8B2
S31508012980080000A9FFF7D3FF012004B010BD00001D
S31508012990E41E0020F82B002070B51B4D0446287A4A
S315080129A0C00784B00CD5194E306841884FF6FF72BE
S315080129B0914207D100220821001DF8F798FA08B1BB
S315080129C0002017E044B10220F3F79DFB4FF4F041D4
S315080129D02846F5F784FE0CE030684188ADF8081002
S315080129E00822011D00A8F2F7A7F80A230A22FFF711
S315080129F0E9FE012004B070BDE52F0020F02B002070
S31508012A00CC2B0020A82F0020E42B0020C42B00206B
S31508012A10B41E00203C1D0020E72F0020F81C0020D2
S31508012A20F21E0020E32F0020E12F0020E22F0020D4
