S02400006170702D626F6F746C6F616465722D7370692D617434356462303231642E73333796
S315080000000004002079000008850000088500000823
S31508000010A70B090100000000010250540040000827
S31508000020041000003F0F000829120008F006000817
S3150800003033090008CB0A0008130B0008D309000887
S31508000040B1090008A50B0008B70900085604000006
S31508000050FFFFFFFF06480068202100EA010028B1DB
S315080000600448016842685FEA010D104770470000BE
S315080000702C00004000400008FFF7ECFF00F00EF8E7
S3150800008000F042F806E000005FEA000D70474548B8
S31508000090008870474FF4017000F09EB838B54FF2EB
S315080000A00F04414D00F0C6F828B140F2052028801B
S315080000B06C80012032BD3D480068C00615D56888A9
S315080000C0A0421ED1288840F2022188421CBF40F275
S315080000D00621884215D040F2011188421EBFB0F5AC
S315080000E08A7F40F2111188420BD0314C208A40F6A3
S315080000F0A721884205D12068FFF7C6FF60688047B8
S3150800010000BF002032BD000038B50400294872B689
S31508000110016849084900016000F0D2F823480068E0
S31508000120000910F001000CBF2349244902E0CD2242
S3150800013001F8012B224A9142F9D32249224A234B3C
S3150800014003E011F8015B02F8015B9A42F9D32049F2
S31508000150204A002301E001F8013B9142FBD3124AF1
S3150800016053884FF20F05AB4240F205210AD1138896
S315080001708B4205D030B1180A012818BF022801D1D0
S31508000180194601E004B90021064801804CF23C30CA
S31508000190508000F071FA4FF40170BDE8324000F06B
S315080001A01BB80000B40C0020000000202C00004002
S315080001B000400008FCED00E0000000209800002048
S315080001C0000400204C140008000400200404002049
S315080001D004040020BD0C00200E4A302111600E4A8E
S315080001E011600E4A116010210D4A1160010A00299A
S315080001F00C4908BF000208804FF20F004880BFF381
S315080002005F8F094800210160416008480849086075
S31508000210704700003020004030C8004030C0004021
S3150800022010E00040000000201C4000400400FA05D1
S315080002300CED00E00020704780B500F072FA01214D
S31508000240062000F07BFA062000F0AEFA012107200E
S3150800025000F074FA072000F09BFA1748016821F0AD
S315080002601001016001BD0000052800D9704710B5CE
S31508000270DFE800F01721030F1C17104C2088411ED9
S315080002802180C0B9072000F09BFA42F21070208046
S3150800029010BD072000F088FABDE81040062000F0DF
S315080002A08FBABDE81040062000F072BABDE81040CB
S315080002B0062000F079BA10BD00BC0040B60C00203C
S315080002C0794951200860704738B5054600F01CFA90
S315080002D07649B0FBF1F44FF4F070B0FBF4F02D1A48
S315080002E01E2DBCBF4FF40170FFF776FF7048714AA8
S315080002F0072101600021416081604FF000711160A3
S3150800030005FB04F1C91C8908491E416031BD6A4ACA
S3150800031001215170D8E76A48016841F0010101607E
S3150800032001214160512060490860704700207047EC
S315080003302DE9F047814661485F4E056840F2DC5872
S31508000340012DC2465A485F4F5F4C1BDA0221618075
S3150800035039600068C00348BF00F08DF8B86900F03E
S31508000360030003285FD0002D03D5B86940F00200CA
S31508000370B8614846FFF7DAFF5FEA000A1AD1002D8E
S3150800038051D54EE061884FF6FF75A9421DD14F48F9
S31508000390018802237F22A01C00F028FA6088A84260
S315080003A004BF02206080B869800703D4B86940F0AA
S315080003B00200B8610120B070608838600FFA8AF0D0
S315080003C0FFF7A5FF5046BDE8F087B9698907EDD55F
S315080003D00068C00348BF00F04EF8B07808B1404640
S315080003E0F1E7B868B968628810F0010003D10F2AEE
S315080003F008D2521C06E0890704D5217811B1032AD0
S31508000400A8BFAA1892B2022A2070B8BF0222628038
S31508000410386861888842CDD1B86900F0030003289E
S3150800042001D0FFF778FF0020CDE710B5044628482D
S31508000430017869B9C078072818BF092813D0032896
S3150800044018BF11280FD013281CBF15280B280AD04F
S315080004502048016841F48071016004E000F0FAF96F
S315080004600620FFF763FF2046FFF762FF0028F5D155
S3150800047010BD0220D9E70E480E4A0021416081606E
S31508000480016821F00201016000210B4841704FF01C
S3150800049000711160817801B9704780B500218170BB
S315080004A00620FFF743FF01BD0080004090D00300FF
S315080004B010E000E004ED00E0B80C00203814000855
S315080004C01C40004004400040000400204814000876
S315080004D096070808384000400078704700210160F8
S315080004E08180C18001817047F8B504460D461646DD
S315080004F0002710E02068803020600020E0808020FF
S315080005002081A088401CA080E088411C0019E18059
S31508000510807A78557F1CBFB2B7420CD2E088218911
S315080005208842F1D32068802204F10A0100F0CDFA4E
S315080005300028DFD0F2BD0020F2BD0020704710B5BC
S31508000540044600F0F7F82046BDE8104000F052BB1C
S315080005502DE9F043A5B000F033FB00F0EBF800F00E
S3150800056089FB012100A800F08DFB414C04F18005B0
S3150800057000206860A86000F01BFA00280FBFE8603A
S315080005808168E9604088A4F8800000A800F03DFC76
S31508000590070047D1BDF80610BDF8042000A80818C2
S315080005A000F10A0694F8800080075FFA82F80FD5F2
S315080005B0E96869B1686808EB00024B1E22EA03077E
S315080005C010B1A868B84203D2384600F0EBFAAF601B
S315080005D068684246314600F09CFA070010D1686800
S315080005E04246214600F071FA002001E0401CC0B2E4
S315080005F0404505DA015D825D9142F7D0832706E022
S3150800060068684044002F6860BFD01B2FBDD0042007
S31508000610FFF72AFE0121384600F080FB384625B050
S31508000620BDE8F083172FF0D10020F8E770B5DAB0EF
S31508000630044636A8FFF752FF012000904FF40263E4
S315080006400C4A36A901A800F07AFC0FF2A4050FF2AD
S31508000650940600F06FF8002C14BF3246002201A958
S31508000660284600F0E1FD5028F3D05AB070BD0000CE
S31508000670240C00200404002038B5FFF708FD0446C2
S31508000680FFF7F7FEB4F58A7F40F2111508D100F09E
S3150800069097FA00F0D4FA0028FBD02846FFF79CFD0D
S315080006A0FFF7CAFD00F045F918B14FF40170FFF7DE
S315080006B093FD00F03FF840F20110844218BFAC42A7
S315080006C009D0B4F58A7F1FBF40F20520844240F264
S315080006D00320844201D1012000E0002000F0C4FD7F
S315080006E0002032BDAF130008EB130008D904000838
S315080006F0E90400083B05000819480068C00701D44A
S31508000700184870471848704780B5FFF7F5FF17492E
S31508000710096801B9400802BD80B5FFF7EDFF40083A
S3150800072002BD1348012181604EF6BE2141600121B8
S31508000730016070470F4901200860704710B50FF235
S315080007403802830852F82320136800F0030080005B
S315080007500F248440A34301FA00F01843106010BD2B
S315080007601C400040001BB70000366E0120400040C8
S31508000770006000400860004000B0004004B000403F
S3150800078000B2004004B2004000B4004004B4004087
S31508000790C108032907DA012100F007029140C008C1
S315080007A040020F4A11507047C108032907DA012190
S315080007B000F007029140C00840020A4A11507047EB
S315080007C0C10803290ADA084A02EB412101230A680B
S315080007D000F0070003FA00F0504008607047000078
S315080007E014B0004010B000400CB0004030B50446CC
S315080007F010467F2808BF0020B1F5004F83B01AD1F4
S3150800080008237F2240F6120100A8FFF7EFFF08220F
S315080008100FF2380100A800F084FD30B908237F22C2
S3150800082040F2A27100A8FFF7E1FF082200A92046BE
S3150800083000F05EFD37BD044D294300FB03111A463F
S31508000840204600F055FD37BD00000808FFFFFFFFF2
S31508000850FFFFFFFF70B5274C25680646FFF75CFFCC
S315080008602549B0FBF1F070432F303021B0FBF1F091
S31508000870032809D3616D41F0010161652168491BAF
S315080008800903090B8142F9D370BD38B504000D463A
S3150800089005D0022C10D00FD3032C26D027E0174CF6
S315080008A045B1FFF739FF1649B0FBF1F0401EB0F528
S315080008B0005F0CD2206018E04DB1FFF72DFF6908E4
S315080008C001EB4000B0FBF5F0B0F5003F01D3202066
S315080008D032BD4108022C00F0010008BF094A02D0C7
S315080008E0012C02D1084A50601160002032BD212037
S315080008F032BD00003820004090D00300100004E00C
S3150800090020A1070068D8004068C80040A0490860D0
S3150800091048680007FCD5086870479D49FF200860AD
S315080009204A681207FCD54A68920748BF0868C0B2E9
S31508000930704710B5974C2068000900012060012116
S31508000940206820F0F0002060206820F470602060A5
S31508000950206820F470402060206840F0090020607C
S31508000960206840F040002060206840F41060206055
S31508000970206840F4805020608748C16000210161EA
S315080009804160102141600221016044F62060FFF7B2
S3150800099061FF082060619F20FFF7B8FFFFF7BDFFE2
S315080009A008211F28216101D1002010BD862010BD15
S315080009B00FF2F41070470020704710B5774C0820E6
S315080009C06060D720FFF7A2FFFFF7A7FF0821216085
S315080009D010BD80B5FFF7F1FF8028FBDB01BDF8B538
S315080009E004460D461646FFF7E8FF8028FBDB6B4FEB
S315080009F008207860D220FFF789FF6002000EFFF713
S31508000A0085FF200A4006000EFFF780FFE0B2FFF7D9
S31508000A107DFF00F016F800F014F800F012F800F068
S31508000A2010F805E0FFF786FEFFF777FF05F8010BDC
S31508000A303046461E80B20028F4D1082038600020CF
S31508000A40F2BD002062E72DE9F8430646884691463E
S31508000A50FFF7B3FF8028FBDB300A4400F50BB9F13A
S31508000A60FF0F4E4F13DC082078605320FFF74EFF28
S31508000A70E8B2FFF74BFFE0B2FFF748FFF0B2FFF727
S31508000A8045FF08203860FFF798FF8028FBDB082021
S31508000A9078608220FFF73AFFE8B2FFF737FFE0B247
S31508000AA0FFF734FFF0B203E0FFF744FE18F8010B36
S31508000AB0FFF72CFF4846A0F1010980B20028F3D1C0
S31508000AC0082038600020BDE8F2832DE9F84300F0DD
S31508000AD057F83ABF3119814285200CD200F044F804
S31508000AE004D000F047F803D3071B02E04E4504DAAA
S31508000AF037461EB90020BDE8F2834746BAB22946F2
S31508000B002046FFF76CFF0028F5D100F026F8F4DA46
S31508000B10EEE72DE9F84300F033F83ABF3119814280
S31508000B2085200CD200F020F804D000F023F803D377
S31508000B30071B02E04E4504DA37461EB90020BDE819
S31508000B40F2834746BAB229462046FFF77CFF0028BB
S31508000B50F5D100F002F8F4DAEEE7F61BB6B2B8B251
S31508000B604E45044405447047200640F201194FF4E7
S31508000B7080787047200A000200F58070814270472D
S31508000B80044607480D461646844270470000000092
S31508000B903CD0004000B8004054D0004010B8004097
S31508000BA001000400882070470201000000000000D0
S31508000BB000010000000004003C14000801000000C9
S31508000BC080B54FF4E1310120FFF75FFE2648022188
S31508000BD081600121016009200921FFF7AFFDBDE809
S31508000BE0044004210A20FFF7A9BD204800684006F2
S31508000BF0FBD570471E49CA685207FCD5086070477E
S31508000C0010B5044603E014F8010BFFF7F3FF20784C
S31508000C100028F8D110BD10B5044620090A28ACBF33
S31508000C2037303030C0B2FFF7E5FF04F00F000A286E
S31508000C30BDE81040ACBF37303030C0B2DAE70B48F9
S31508000C400068800701D5012070470020704710B55D
S31508000C500446FFF7F4FF20B105480068207000201D
S31508000C6010BD012010BD000054C8004048C800400F
S31508000C703CC8004080B500A8FFF7E9FF0028FAD075
S31508000C8001BD0000017001224270012982700CBF6B
S31508000C908021402181800021C18001811D48016099
S31508000CA00E218162016821F0100101600021416373
S31508000CB041627047F8B50D4604461749154F4FF07F
S31508000CC0FF3008601646FE6200207862386840F0F9
S31508000CD001003860FFF72EFD012C19D16DB9FFF719
S31508000CE0AEFF78B9786AB042F4D3002EF2D03868ED
S31508000CF04008400038601620F2BD2846FFF7A7FFD7
S31508000D000028EFD138684008400038600020F2BD5E
S31508000D100120F2BD00F0004000A8004038B50446A6
S31508000D200D4600F009F800F007F82A462146BDE806
S31508000D3038401820FFF703BC2A4621461820FFF73B
S31508000D40FEBB38B50446002020814AF6B432207826
S31508000D5000A9FFF7AFFF08B11C2032BD9DF80000BF
S31508000D60032818BF182801D1182032BD042801D13C
S31508000D70172032BD012801D0212032BD002500E010
S31508000D806D1CA188EDB2091D8D420BDA281900F1F8
S31508000D900A01207840F2DD22FFF78CFF0028EFD009
S31508000DA0262032BD0025002006E00146EDB22819AE
S31508000DB0007B00F0C9FA6D1CA188EAB28A42F4D316
S31508000DC0A27AE37A9B18FF2B01D0222032BD0B1999
S31508000DD01D7BB5EB102F01D0232032BD5B7BC0B243
S31508000DE0834201D0242032BDA078824207D0401E1B
S31508000DF0C0B2824201D1272032BD252032BD881CCF
S31508000E0020810220E080002032BD38B50446607893
S31508000E10012804D023D3032854D018D31FE0207800
S31508000E20012811D13B254320FFF7E4FE207840F244
S31508000E30DD220021FFF73EFF30B12846451EC0B22D
S31508000E400028F0D11B2032BD022060700FE0FFF7AA
S31508000E5011FF00F039F8A078401CA07007E01820B0
S31508000E6032BDA0782278411EC9B200F02FF820467C
S31508000E70FFF767FF050018BFFFF7FCFE272DF0D028
S31508000E80A8060BD52278A1781520FFF758FB002D68
S31508000E90EDD10320FFF7E8F9002032BD680603D438
S31508000EA0182D18BF1C2D07D121782846FFF736FFC5
S31508000EB004206070284632BD172DE8D100F004F8EA
S31508000EC003206070172032BD2278A1780620FFF72C
S31508000ED036BB0000F8B504460D4616461F4607E021
S31508000EE03046A047294600F041FA05467F1E761C83
S31508000EF0BFB2002FF4D12846F2BD38B50C461546C8
S31508000F0005E0014614F8010B00F030FA6D1EADB28B
S31508000F10002DF6D132BDF8B504460D461F461646D5
S31508000F20286823683A4631469847040005D1E86898
S31508000F303A463146FFF7E1FFE8602046F2BD10B5B4
S31508000F40029C84720381426001604FF0FF31C160E8
S31508000F500021017410BD2DE9F84F8946044699F819
S31508000F601BB0D068AB49BBF1800FA8BF4FF0800B10
S31508000F7088421E4651D1002E4DD0B06800904FF0E1
S31508000F80FF38002509EB450A9AF848700DE0FFF787
S31508000F90D1FBF80240F0006200984FF40063414626
S31508000FA0FFF798FF8046781CC7B20AF148004078D8
S31508000FB0B84204DA681CC5B2062D02DAE2E7FF2F4A
S31508000FC0E5D1D9F844006FEA0801884225D1A0681E
S31508000FD0736800BA4FEA5B0249469847C8B9E068A1
S31508000FE005BAA06802BAB0685B464FF0FF31FFF752
S31508000FF071FFC04385420CD140F6A720A9F810001E
S315080010000122A068736800BA09F1100110309847E8
S3150800101008B1422002E0172000E04320BDE8F28F25
S315080010202DE9F04F0D4683B08046D5F804A02889EF
S31508001030ADF80400914605F1140606F110070423DD
S3150800104052464046FFF767FF002824D1BAF8000049
S3150800105040BA80B20090BAF8020040BA84B2E007FB
S3150800106048BF462075D4B4F5026FC8BF4E2070DC61
S31508001070002C6DD00098DFF8A0B148B14FF60441B6
S31508001080401A00F0AE80FF3865D0FE3863D0BEE067
S31508001090287C08B151205CE08D2C28BF4F2058D2FF
S315080010A02346321D00F0BDF8002852D1FA7E802A68
S315080010B0A8BF802202F10C00844201BFB08840BA62
S315080010C000F47F40B0F5007F3ED1F08840BA4EF27A
S315080010D05031884202BF388A40F6A721884233D168
S315080010E0788A00F47F40B0F5807F01BFB06800BA07
S315080010F0DBF81C10884227D1BBF8180040F2032100
S3150800110088420BD1788AB0F5847F1DDBF86D4105DE
S315080011101AD14249081AB0F5F02F15D84FF6FF70C4
S31508001120388206F110014FF0FF30FFF7E6FEF1684E
S3150800113009BAC943884204BF387E042804D1787E98
S31508001140102818BF062801D0452002E0012028747F
S315080011500020BDE8FE8F287C002844D0042300F038
S315080011605FF80028F5D1DAF8000006BA201F84B225
S31508001170DBF81C00864238BF4820EAD3796DA019EF
S31508001180884228BF4920E4D200984FF60351884286
S315080011900DD1B9F1000F0AD0D9F800203146022046
S315080011A0904720B14A20D4E7E01B84B2BE19002C30
S315080011B0CED0BDF804008442B4BF274607463B4656
S315080011C000F02EF80028C4D1B9F1000FECD0D9F8F8
S315080011D004307A085146304698470028E4D04B2018
S315080011E0B7E7287C08B94120B3E7042C18BF4C2080
S315080011F0AFD16A68042300F014F80028A9D14B4639
S315080012002A463946304603B0BDE8F04FA3E64420E7
S315080012109FE70000E320BBDE0000000800E00708A7
S3150800122052462946404676E670B50D460446288954
S31508001230C107164601D4802803DA4F2070BDA87A64
S3150800124078B9324629462046FFF7EAFE0028F6D046
S31508001250172807D1286861688847172802D100200F
S3150800126070BD502070BD000010B504460020FEF782
S31508001270FBFF24BB0020FFF7D9F950B90120FFF77F
S31508001280D5F930B90520FEF7EFFF40F20120FEF749
S31508001290A3FF0420FEF7E8FF0120FEF7E5FFBDE8FF
S315080012A0104040F20320FEF797BF0FF23400FFF715
S315080012B0A7FCFFF79AFC40F20220FEF78DFFFFF726
S315080012C047F90400F1D00FF22000FFF799FC2046F9
S315080012D0FFF7A1FC01A0FFF793FCF0E70D0A000059
S315080012E00D0A4F6B0D0A00000D0A455252200000E8
S315080012F0814212D210185118401E491E92B2002A75
S315080013001EBF11F8013900F80139521EF6D170478F
S3150800131011F8013B00F8013B521E92B2002AF7D1A0
S31508001320704710B500E0521E92B222B100F005F8DF
S31508001330F9D0181B10BD002010BD10F8013B11F89C
S31508001340014BA342704700000A0242EA11214840B5
S31508001350C0F30311484080EA003041010206C9B2D1
S31508001360D20E41EA0221484080B270470A0A484034
S31508001370C0B208214308C00746BF0348584018466C
S31508001380491EF7D1504070472083B8ED2748018A97
S3150800139040F6A772914202BF408A4FF47F41084245
S315080013A003D1022801DB0120704700207047F8B5F9
S315080013B004461D4E01200D463070FFF7E7FF18B9A9
S315080013C04FF40170FEF708FF29461848876A44F467
S315080013D08070B847002131700FF2540618B92946B3
S315080013E044F40070B847805DF2BD2DE9F04104462B
S315080013F088465600FFF7CAFF18B94FF40170FEF782
S31508001400EBFE0A48476A0023324641462046B8475B
S315080014100FF21C0520B93346002241462046B8473C
S31508001420405DBDE8F0810000BC0C00200000080803
S31508001430000202024B4B464700366E0141543435D2
S315080014404442303231440000EE0800000100FFFF3C
S7050800007979
