S0130000536553616D706C6547534D452E7333379B
S31508004000083700206922030809FB02080DFB02088D
S31508004010A70A080100410008040A03AC50545604D4
S315080040200000000000000000000000000000000082
S315080040300000000000000000000000000000000072
S315080040400000000000000000FFFFFFFFFFFFFFFF6A
S31508004050FFFFFFFF00E0030800000000000000006B
S31508004060FFFFFFFFFFFFFFFFFFFFFFFFFFFFFFFF52
S31508004070FFFFFFFFFFFFFFFFFFFFFFFFFFFFFFFF42
S31508004080F07F002000000000F07F0020F07F002075
S31508004090083700200CDC0308402A0308A82D002056
S311080040A0500D00200000040800800020DD
S31508004100083700206922030809FB02080DFB02088C
S3150800411015FB020811FB020819FB020808FE020833
S3150800412008FE020808FE020808FE020808FE020841
S315080041301DFB020808FE020808FE0208C55C000806
S3150800414099F7020808FE0208BF91000808FE02084F
S315080041507B9A0008838F000808FE020808FE0208FA
S315080041607F82000809530008114E00089141000893
S3150800417008FE0208CF9000081791000808FE0208FA
S315080041809DE5000808FE020808FE020809FE020866
S3150800419070B52C482C4942780B685B0725D5032A4D
S315080041A023DA838800EB4204A3810123847803FA87
S315080041B002F222438270254C0278002A12D000258A
S315080041C022FA05F6F60708D5AB4045705A40027044
S315080041D010EB4500808A206007E06D1CEDB2032DC8
S315080041E0EEDB02E02260032242704FF6FF700860A1
S315080041F0BFF35F8F70BD13480021017000220321B1
S3150800420041700021C1700521018100218170001DC6
S315080042100E490A604A604FF400428A601022CA605A
S315080042204861012088610320C860042106480164AA
S315080042304FF6FF7101604FF400600549086000F011
S3150800424045B80000483C002010A8004004E00040A3
S3150800425000E100E0DFF8E03433F810001040C84011
S31508004260704730B50FF29054DFF8D03434F8104068
S315080042709C601140DFF8C04434F810509543294338
S31508004280D96002221A6000221A6024F810105868B1
S315080042900028FCD130BDDFF8A824DFF8A80412787E
S315080042A0DFF8A4140AB149780EE0895611F1090F0E
S315080042B0B8BF302108DBC16D39B1C26D40F24A3151
S315080042C0B1FBF2F189B2C91E01607047E0B5DFF8AB
S315080042D07C0401880A2300F064F8BDF806104FF63E
S315080042E0FF720D20FFF7BDFF07BDF8B50546B5F50A
S315080042F0004FDFF8544419D1DFF85404018802232B
S3150800430000F04FF8BDF80000000AFF2814BF002887
S3150800431018206070BDF800000006C00E10281CBFEB
S31508004320001D00F098F9BDF80000C543DFF81064D9
S31508004330707808B1002005E0A089ADB26840C007D2
S3150800434001D501207070DFF80C04A58105F0010481
S31508004350016841F400410160C5F340070FF2BC4013
S3150800436000EB44004FF440524078010389B2022022
S31508004370FFF777FF204600F053FA4022B90100F014
S3150800438005FA2D06A80E00F0010038433070FFF735
S3150800439082FF707818B1FFF799FF0020707000202F
S315080043A0F2BD7F2200A800F0B1BA2DE9F04FDFF880
S315080043B0AC43207887B0042304900B210B38C0B295
S315080043C0039000A8039A00F05FFB9DF800008DF8A3
S315080043D00A009DF801008DF809009DF802008DF885
S315080043E008009DF803008DF80500DFF874030078CF
S315080043F0012804D16078451EAD41ED0F00E0012586
S3150800440000F0D1FD83469DF902000399D24F0BF1C6
S315080044100A0AABF10A065045B6BF86424FF00108B4
S315080044204FF0000801208840ADF806009DF801000D
S31508004430000604D47888BDF80610084201D04FF06B
S31508004440010800F021FE9DF8030000060AD4B8888A
S31508004450BDF80610084205D19DF900005045B8BFC1
S31508004460864202DB4FF0010901E04FF0000948EAF5
S31508004470050059EA000000F09E80DFF8E8A2BA4974
S31508004480DAF8000000F002008DF80400B74800686A
S3150800449000F4E06005904FF4E0600860002001F049
S315080044A0BCF901F027FCB24EADB1607858B1DAF824
S315080044B00000AB4940084000CAF800000120087017
S315080044C001F0F8FC07E0306840F4005030603068CE
S315080044D020F480503060A248007801280DD101F000
S315080044E001FEDAF800009E4940F00100CAF8000013
S315080044F000200870642001F0DDFC2DB1607818B941
S315080045000498C0B201F0B1FE607838B1306820F482
S3150800451080503060306840F400503060BDF80600C6
S31508004520C543B8F1000F08D001F08AFF8DF80100E5
S315080045308DF802B0788828407880B9F1000F08D045
S3150800454002F02FF88DF803008DF800B0B8882840DF
S31508004550B8809DF900009DF90A10884202BF9DF8AF
S3150800456001009DF8091088420BD19DF902009DF9BA
S315080045700810884202BF9DF803009DF8051088427E
S3150800458006D00399042300AAC9B20B2000F0A1FAA9
S3150800459005987649086000F0D3FA9DF8040001F002
S315080045A03CF902F01EF9607828B148F26070306074
S315080045B0642001F07FFC9DF8010001F0ADFE9DF836
S315080045C0030001F0E9FF07B0BDE8F08F80B500F001
S315080045D0DDFCBDE80140E8E600F0D8BC70B506464B
S315080045E0A6F10B0401F07AF80546A6F10B0010288F
S315080045F001D38A2070BD5F488168090702D4006824
S31508004600C00701D58C2070BD544806705A48016809
S315080046100C290FD00FF27811584A92F90020A4B24B
S3150800462031F824105118C161FFF7BFFE012D08BFEC
S3150800463000F0F5FF002070BD10B5044600F0A6FC9A
S315080046402046BDE81040C9E74448007870473E4810
S3150800465090F9000070472DE9F041044614F12B0F3C
S3150800466086B045DB464801881423FFF79AFEBDF855
S3150800467010004FF6FF71884203D0400448BF012658
S3150800468006D43F2200211020FFF7E4FD0546002648
S3150800469004F12B022F2A2C483A491AD213220FF278
S315080046A0301300E0521ED2B213F91270BC42F9DB85
S315080046B003EB4204032764780C60002413F81210F5
S315080046C0017000208046AEB1BDF810104FF6BF72DB
S315080046D029E0092C0CDA225C0A60047014232A48A3
S315080046E00188FFF75EFE01240320A0462827EAE793
S315080046F08B201DE0C1024FF4605200F047F84FF4DA
S31508004700E062210200F042F880224FEAC81100F068
S315080047103DF885F020003D18ADB2402DA8BF3F25D5
S315080047203F2285F0200100F031F8FFF7B4FD0020A4
S3150800473006B0BDE8F0810000A4790020E81000402A
S31508004740C27F002064100040943B0020B8D60308BE
S31508004750C4D603081C1000408C7F0020903B002024
S31508004760023C00208020004080E100E000E100E0FB
S31508004770D010004060200040AC100040C17F0020EF
S31508004780B4D60308C0100040B6D603080B2068E567
S31508004790AA2129005523290000252800AA26270032
S315080047A055282700002A2600AA2B2600552D250065
S315080047B0002F2400AA30240055322300003422009A
S315080047C0AA3522005537210000392000AA3A2000D0
S315080047D0D500E601EC02EF03F204F405F506F70747
S315080047E0F808F909FA0AFB0BFC0DFD0FFE11FF1379
S315080047F000160119021C031F1000110020003000CA
S315080048004000410050006000700080009000A00049
S31508004810B000C000D000E000F00000000000010376
S31508004820F0B5044689B0002001F0DCFA2648018874
S315080048300A237F2200A800F069F8BDF802004FF6A7
S31508004840FF75A84204D1DC210FF2940002F002F8A9
S315080048500FF2A407002601E02A4616B94FF47C4257
S3150800486003E0022E08BF4EF23F0200A800F032F81D
S31508004870761C052EF0D3012C03D114237F2213486E
S3150800488002E014237F221248018803A800F03EF8AC
S3150800489000260FF26C072A4608E02A46012E08BFB2
S315080048A04FF6C07202D0082E08BF002203A800F0F7
S315080048B011F8761C0A2EF0D3012C04BF012001F052
S315080048C091FA09B0F0BD0000B8D60308B6D60308B9
S315080048D0B4D6030830F81610F05DFFF7C2BC000026
S315080048E0616E616C6F6775652D63656C6C2D6269A9
S315080048F061732E630000000000100C0D0E0000000E
S31508004900010203040708090A0B0F000030B5044624
S3150800491010467F2808BF0020B1F5004F83B01AD192
S3150800492008237F2240F6120100A8FFF7EFFF0822AE
S315080049300FF2C40100A802F0D5F830B908237F2287
S3150800494040F2A27100A8FFF7E1FF082200A920465D
S3150800495002F07EF837BD204D294300FB03111A46A5
S31508004960204602F075F837BD2DE9F0440C461A4981
S315080049700FF2780A41EA0006C007154602D56221F9
S3150800498000F030F8E80702D5632100F02BF8134849
S31508004990864204D3A819401E1149884202D36421CD
S315080049A000F020F8002706E0B85DFF2802D06B214A
S315080049B000F018F87F1CAF42F6D36A082146304645
S315080049C002F0FAF828B15046BDE8F044712101F02A
S315080049D041BFBDE8F0840000000008080008080888
S315080049E000100808504601F035BF00006D66672DB7
S315080049F0746F6B656E2E6300FFFFFFFFFFFFFFFFFF
S31508004A0030B50FF23811DFF820510A6883B001A8D3
S31508004A100024026001202870002002F011F930B14C
S31508004A20002002F00DF910B12C7049203EBDDFF8C8
S31508004A30FC00018802237F220DF1020000F024F811
S31508004A4002237F22002100A800F01EF8204601A9B3
S31508004A50BDF8022031F81010914208BF0124401C0D
S31508004A600228F4D3BDF8000024B1B0F57F7F07D142
S31508004A7000203EBDB0F57F7F0CBF0620042000E075
S31508004A800720002129703EBD10B5FF2908DCDFF894
S31508004A909840247844B1BDE81040C9B202F003BC7E
S31508004AA0BDE81040FFF732BF10BD10B5FF2907DC7F
S31508004AB01D4C247864B1BDE81040C9B202F02FBC81
S31508004AC07F2A08BF00221A4C214302FB031101600A
S31508004AD010BD2DE9F0410546FF2D0E4617469846AE
S31508004AE00FF2500012DC104C2178A1B1617811B197
S31508004AF0C22101F0AFFE01206070434632463946B6
S31508004B00E8B202F04BFD0020607004E0BDE8F04119
S31508004B10CD2101F09FBEBDE8F0810349097800293F
S31508004B2018BF02F03EBE7047BD7F0020C0D60308FE
S31508004B3000000808746F6B656E2E6300FE01FD02A7
S31508004B4010B5DFF8F4441020206302F0DDFEDFF82C
S31508004B50EC140A6842F001020A6002F0DBFEDFF894
S31508004B60E00400F1080161602160923061688931D2
S31508004B70616001212163E060A060DFF8C814E06885
S31508004B808930E060022020634FF6FF70086010BD90
S31508004B90DFF8B40445F26401C1601E214162502168
S31508004BA00162C821C1618165F021C16545F69001A0
S31508004BB04166882181660621C16644F20661016064
S31508004BC04FF6FF714160DFF88404007838B1DFF8EA
S31508004BD0800448F2607101604FF4C1514160DFF80A
S31508004BE07404016841F0040101600020DFF86814CC
S31508004BF0487070472DE9F04FDFF844148A2283B0D5
S31508004C0002FB0012083200920427521C044653780D
S31508004C10127802EB0325ADB205F44063B3F5006FD5
S31508004C2005F440424FF000094FF0010A08BF082773
S31508004C3003D0B3F5406F08BF0E271AB16B065CBFE9
S31508004C40BB1CDFB2DFF814341B784B704018019098
S31508004C50A806019981F8029064D5DFF80464706E9D
S31508004C6000065FD500983818B2F5404F4FF4806BB0
S31508004C704FF4006807D102F09EFE5FEA000947D0AC
S31508004C8007F1080019E0B2F5004F41D100994078C4
S31508004C90795C01EB002080B203F00AF9FF2808BF0F
S31508004CA0CA4609D0DFF8BC13096831F810004FF47A
S31508004CB0FE6108422CD0D146B81CC0B2410805F0A6
S31508004CC00702032A24D1002C14BF726832688A426C
S31508004CD01ED3002C14BF726832684B1C9A42F8D354
S31508004CE00099405C042813D1BAF1000F02D0B9F13B
S31508004CF0000F0DD0F06DC00606D400F015F803D0ED
S31508004D00706C40F00100706401200199887009E018
S31508004D10F06DC00606D500F007F803D0706C4008A1
S31508004D2040007064BDE8F78FB06C04B1C34610EA62
S31508004D300B0F70472DE9F04E0446C14EDFF820539D
S31508004D408A2000FB046000F1080B002C0CBF2868C1
S31508004D506868C1B2052903DA7068401C706055E0BE
S31508004D6040005FFA80F909EB0B00A0F108073878D4
S31508004D70797801EB00201FFA80FA7078387003F012
S31508004D8066F97870B84FF86B20F48050F863686E4F
S31508004D9014B93868400504D4012C1FD138680005B9
S31508004DA01CD5B248017889B1002101701AF4E45F74
S31508004DB0AF48016802D00022402005E09BF80100B8
S31508004DC0000900F001028F2003F0BFF9002C0CBF88
S31508004DD04FF480604FF40060386012E01AF4E45F24
S31508004DE00FD100F017FD10B15FEA4A4009D59BF8CC
S31508004DF00000802805DAA01949468278584603F04B
S31508004E0069FA002C0CBF012002202861BDE8F08E4B
S31508004E102DE9F0478B4C964E2068216C904FDFF8B1
S31508004E205482DFF84892DFF818A201EA000519E073
S31508004E3038B14878C00604D4316800228F2003F0C0
S31508004E4084F9280605D503F0D9F9802025F08005D0
S31508004E502060E80506D503F0D1F94FF4807025F4F3
S31508004E6080752060002D5CD0280706D50020FFF746
S31508004E70C1FE082025F008052060E80606D50120B1
S31508004E80FFF7B8FE102025F01005206005F0600039
S31508004E90602803D1B86CC0050AD401E0A80605D578
S31508004EA02020206025F02005002006E0680606D5AB
S31508004EB04020206025F040050120FFF73BFFE8046D
S31508004EC004D54FF4805025F480552060E807B8D5FE
S31508004ED0012020606D089AF800006D000028B0D007
S31508004EE000F011FC0128ACD199F800000028A8D0E0
S31508004EF098F800000428A4D1F868400800F00100DA
S31508004F008A2101FB00A10831002814BF7A683A6893
S31508004F1012B92268D204F7D5002814BF7868386811
S31508004F2086E700202060BDE8F08753480068704790
S31508004F30F0B504460D4689B00021032001F0FAFBBE
S31508004F4004AE1BE0002701F010FC26F8170001F05C
S31508004F500CFC00A921F817007F1C082FF3DB04A816
S31508004F6003F052FB00202080218836F8102051409B
S31508004F70401C08282180F7DB6D1EA41CEDB2002D0D
S31508004F80E0D101F02EFC012009B0F0BD032102207A
S31508004F9001F0D0BB4FF6FF71081A292190FBF1F0FA
S31508004FA03A3040B2704738B501F0DFFBFFF7F2FF41
S31508004FB0324D04462878B0B90321032001F0BAFB24
S31508004FC02F48018802237F2200A8FFF79FFC01F0E3
S31508004FD0CCFBBDF80010401880B2FFF7DBFF153890
S31508004FE068700120287001F0FCFB6878201A40B22E
S31508004FF032BD80B50321022001F09CFBBDE80140CB
S31508005000D1E770B51F480078002490B9FFF7F1FF83
S31508005010114E0546707848B13078401B40B203F00F
S3150800502004FB0B2805DB3570012402E001203570EE
S315080050307070204670BD00000020004084200040AB
S31508005040787A002000A000404C100040913B0020D8
S31508005050D010004080200040DB7F0020903B0020DD
S3150800506020200040B838002004A00040947B00208F
S315080050709C7B0020013C002038200040D97F00207E
S31508005080BED60308023C002010B50D48018884B03E
S315080050900A237F2200A8FFF739FCBDF800004FF667
S315080050A0FF74A04204D14E210FF2180001F0D2FB82
S315080050B0BDF8001022460020FFF7D3F81FBD0000F8
S315080050C0B8D60308616E616C6F6775652D66696C85
S315080050D07465722E63000000DFF8A807007848B1EF
S315080050E0DFF8A4070179012904BF4079042801D112
S315080050F001207047002070470FF62801405C704772
S31508005100010603D54FF67F710840C000704780013D
S31508005110B0FBF1F080B2FF288CBF0020C0F1FF0081
S31508005120C0B2704738B5DFF86407C178012901D1E4
S31508005130002032BDDFF86047617871B1E1784079C7
S3150800514045182079ADB2854228BF054603F086FA90
S315080051500121A940491E084000E00020617908188D
S31508005160C0B232BD2DE9F0470446C00705D54FF455
S31508005170B8710FF2A07001F06DFBDFF82057286DAB
S31508005180C00748BF8C2000F19480DFF80007DFF8DD
S3150800519008770021017101704178B1B93978A1B158
S315080051A02178122918BF0C290BD1627802F0070260
S315080051B0032A02BF091911F8021C042904BF012198
S315080051C00171A96F41F0010102E0A96F4908490080
S315080051D0A967DFF8B4867A7898F80610DFF8C096DB
S315080051E0DFF8C06692B1002242710129286D40F0AD
S315080051F00400286506D14FF6FF7030604FF4007042
S31508005200C9F80000FFF78EFF82460CE0286D20F0F3
S315080052100400012928654FF0000A04D100F02CFA91
S31508005220642000F047FEA86F20F00800A867142045
S31508005230E864C5F848A0787838B198F806000028D8
S3150800524001BFA86C00280120A864B8790028286D39
S3150800525014BF40F0080020F008002865FFF73CFF5F
S3150800526018B1306C40F008003064202028626C6069
S315080052702C604FF4E06468687F3068600420286218
S31508005280DFF82406046006E003F0F8F918B103F025
S31508005290FDF902F039FBDFF81406006800F0030098
S315080052A00328F1D0C9F80040286D40F001002865B0
S315080052B00020BDE8F087DFF8F8050021416081602D
S315080052C0016821F0020101604FF00070DFF8E41573
S315080052D008600120DFF8E01508707047A0F1330177
S315080052E0DFF8D825914200D3704710B5DFF8C845D6
S315080052F00021217000F065FB02E0012003F0CAF9E5
S3150800530020780028F9D010BD2DE9F84FDFF89485EC
S31508005310DFF87855D8F80000D8F84010DFF87C7523
S3150800532001EA0004A4B2C8F800406878002840F0F2
S31508005330D580E007DFF88865DFF85C954CD5D7F8A7
S3150800534000A0386C796C41EA004199F80000A96020
S3150800535000283DD09AF80100800639D5012028702A
S31508005360FFF7BAFEC0B3192000F0A4FD4FF4404081
S31508005370DFF850B5CBF82800DBF800000090F06E97
S3150800538040F40050F066F06E40F48050F0669AF8EB
S315080053900010A8684901B83101EB000AFFF7C5FDFE
S315080053A0AAEB00000003000BFFF798FFF06E8009D8
S315080053B08001F06600A9F06E09880843F0660020AF
S315080053C0CBF8280048F26070F066E888306003E0A1
S315080053D00022002002F0B9FE20060ED5287830B14A
S315080053E0002028700022A968402002F0AEFED8F8F6
S315080053F03C0020F48050C8F83C00600608D5687860
S3150800540030B9FFF792FD01460022892002F09DFE81
S31508005410E00654D5DFF870A4DFF884B49AF80400DF
S31508005420012804BF9AF8061001291FD100F05AFE78
S31508005430386F40F00100386700208AF80600FFF749
S315080054407FFB0A2000F036FD4FF6FF70C8F8000013
S3150800545000244FF4E060CBF800000920B86601206C
S31508005460B864B86F40F00800B86718E0697999F829
S315080054700220491C6971C9B2914215D2012808BF98
S3150800548000F0CDF8B86F20F00800B8671420B866A9
S31508005490FFF748FEB8644FF40070CBF80000386D8B
S315080054A040F0010038650AE0012808BF00F0B7F8A7
S315080054B0FFF73BFD014600228D2002F046FE20073D
S315080054C00CD5FFF709FE48B13068E8800120306046
S315080054D0D8F8400020F00800C8F84000A0060AD511
S315080054E020203862687830B9FFF71FFD0146002290
S315080054F0882002F02AFE687820B114F4407F04BFA1
S315080055000120A870BDE8F18F70B582B00446FFF798
S3150800551063F8DFF8BC03DFF8785300210160152132
S31508005520E960092101651F21416001210166DFF853
S315080055309C030088FEF7D9FEFFF72AFB03F060FB01
S3150800554000F02EF9DFF84063308900F056F97089CB
S3150800555000F05BF902F0D8F9696841F0400169602A
S3150800556002F0D8F9707800F0F0F8B07800F0FDF89D
S31508005570DFF86003007800F02AF9DFF85C0390F999
S315080055800000FFF768F8307800F047F996F903004D
S3150800559000F04FF9DFF8440300F06DF9BDF800009C
S315080055A0DFF83C13C0054CBF0020BDF800000870AA
S315080055B0DFF830030078FFF711F828B10FF25430FE
S315080055C040F2B63101F046F9012C05D12868C0072A
S315080055D011D500F024F80EE06CB92868C0070AD483
S315080055E000F080FD286840F001002860C82000F01F
S315080055F061FC0020B071F120DFF8A842206440F277
S31508005600F910E063FFF79CFA2868C00704D54FF63F
S31508005610FF70206000F05DF800F06CFB73BD70B59C
S31508005620DFF8C452DFF860422E68A079012822D03C
S3150800563002F06AF9B6B2DFF870222E604FF4E06124
S315080056401160DFF884120A6A520852000A620A6870
S31508005650520852000A600A6842F002020A604A6A60
S3150800566042F001024A620121A17102F053F9BDE834
S31508005670704000F030BD70BD70B5834CA07938B36A
S3150800568000F030FD02F040F90546DFF86012814E61
S3150800569001200860306D40F0010030650020A071DF
S315080056A0FFF74EFA20203060306B40F0020030637E
S315080056B0F06D40F00800F065284602F02BF90A2044
S315080056C000F0F8FB77494FF6FF70086000F001F824
S315080056D070BD4FF4E0607249086070476A48807987
S315080056E0704710B5684CA07928B140F2A7410FF26F
S315080056F0242001F0AFF82079012804BFBDE8104046
S31508005700FFF78DBF10BD60480079704780B5022845
S3150800571001DB012002BD5C4908718979884205D000
S3150800572010B9FFF7A9FF01E0FFF779FF002002BDD6
S315080057306F480068800200149A3801B211F1800F90
S31508005740B8BF6FF07F0040B2704710B5044602F04C
S31508005750DBF868490A68002C14BF42F0120222F0EE
S3150800576012020A6048494C7040E038B5044602F017
S31508005770CBF8054600F039FD40B95E480168002CB3
S3150800578014BF41F0800121F0800101603E48847019
S315080057902846BDE8324002F0BDB83B4880787047DD
S315080057A055494A780B78554803EB022202608B78F4
S315080057B0CA7803EB022242600B794A7903EB02228C
S315080057C08260CA79897901EB0221C160704710B5F8
S315080057D0044602F099F847490A68002C14BF42F0BB
S315080057E0200222F020020A603A490C70BDE81040F7
S315080057F002F090B824480089704723490881404937
S31508005800086070472048408970471F4948813D49CC
S31508005810086070473C48007870471D490A680028A8
S3150800582014BF42F0020222F002020A60164908700A
S31508005830704738B504467F2C0AD1344800F01BF867
S31508005840BDF80000C00554BFBDF800406FF04A041B
S3150800585002F05AF8054600F0C8FC30B964B204F103
S315080058609A0080052A49000C08600748C470284633
S3150800587002F050F831BD018802237F2200A8FFF705
S3150800588045B80000E17F0020FC3B0020947B002007
S315080058908020004030200040CC3B002010200040F3
S315080058A000E100E004A0004080E100E0A8200040FC
S315080058B010E000E004ED00E0E27F0020CDFF0700E5
S315080058C064100040E410004060200040A03B002027
S315080058D05C100040E07F0020943B0020CAD60308F5
S315080058E0C17F0020903B00201C100040281000407B
S315080058F00C100040842000400C7A002098200040BC
S315080059009420004090200040FA3B0020CED60308A1
S31508005910541000407068792D636F6D6D6F6E2E633D
S3150800592000000000FEFEF7F7C8C80100DFF83414CF
S315080059305120086070472DE9F041054603F074F9D7
S31508005940DFF82414B0FBF1F64FF4F070B0FBF6F76D
S315080059501E2D3FB201DBE81B04D5A8B2BDE8F04115
S3150800596000F0A8BA01F0D0FF804603F0C9F9DFF8C5
S31508005970FC13DFF8FC23012048700721DFF8F40345
S3150800598000F041F8E91B09B27143C91C8908491E90
S31508005990DFF8E453416000F0BDF8DFF8C8733C68EF
S315080059A0386820F04000386003F0ACF93C602E609F
S315080059B003F0ACF903F0B2F94046BDE8F04101F056
S315080059C0A9BF38B5054603F02FF9DFF89C13B0FBDD
S315080059D0F1F44FF4F070B0FBF4F02D1A1E2D04DA32
S315080059E095210FF2D43000F035FFDFF88803DFF891
S315080059F08023072100F007F805FB04F1C91C890874
S31508005A00491E416031BD01600021416081604FF04F
S31508005A10007111607047DFF8542301215170D0E7F7
S31508005A20DFF85803006800B970472DE9F041DFF840
S31508005A305053DFF8506300242C6034604FF4A040C4
S31508005A40706041F29A084046FFF775FF6F6803F0E9
S31508005A50F3F8000142F21071B0FBF1F000F5C870DE
S31508005A60C01B00B24FF4487190FBF1F000B2082851
S31508005A70A8BF072004DA10F1080FB8BF6FF00700B7
S31508005A8030604046FFF757FF08274046FFF753FFA9
S31508005A90686804197F1EF8D103F0CEF8211D40016D
S31508005AA0C908B0FBF1F080B27060BDE8F081DFF89C
S31508005AB0CC02006800B9704738B5DFF8CC5201202F
S31508005AC06FF00F04A8602C608020FFF734FFE868A9
S31508005AD0FF2802D8641C102CF5DB31BD70B5DFF841
S31508005AE0AC02016841F0010101600121416001F049
S31508005AF00BFF0446DFF8805200F00CF85120DFF85F
S31508005B00641208602E6003F001F92046BDE8704073
S31508005B1001F000BF2E68286840084000286003F09E
S31508005B20F5B8002070472DE9F041944A8F4D146866
S31508005B3040F2DC51012C8846954E964F15DA022123
S31508005B40B9803160B16901F00301032959D0002CED
S31508005B5003D5B16941F00201B161FFF7E2FF5FEADF
S31508005B6000081AD1002C4CD549E0B8884FF6FF74C6
S31508005B70A0421DD18848018802237F22381DFEF7DE
S31508005B80C5FEB888A04204BF0220B880B069800765
S31508005B9003D4B06940F00200B0610120A870B8884B
S31508005BA030600FFA88F0FFF736FF4046BDE8F0810F
S31508005BB0B3699B07EDD5AB780BB10846F6E7B16834
S31508005BC0B36811F0010103D10F2809D2401C06E081
S31508005BD09B0705D53B781BB1032801DB2018B88045
S31508005BE0B88839700228BCBF0220B8803068B988E6
S31508005BF08842D2D1B06900F00300032801D0FFF72C
S31508005C006DFF0020D2E72DE9F04780460024554D68
S31508005C10594E01F079FE814603F072F84046FFF7C7
S31508005C2082FF08B901240AE000F05DF8D5F800A063
S31508005C3000F0BCF8C5F800A0376003F067F803F079
S31508005C406DF8484601F066FE002CE2D0BDE8F08704
S31508005C500220D8E710B54748444C002141608160CE
S31508005C60016821F002010160002060704FF00070A9
S31508005C703F490860A07838B10020A0700620FFF7D9
S31508005C8050FF00F02BF81CDBE078012814D14348BC
S31508005C900121016042490968C90748BF03200FD49A
S31508005CA00221E170016C41F00101016404203D49C3
S31508005CB008603D49086010BDE078042801D1052038
S31508005CC0E07010BD80B52948407800281CBFBDE8A3
S31508005CD00140FFF7BFBFFFF7EEFA01BD274800688E
S31508005CE001287047244E3768306840084000306005
S31508005CF003F00CB82DE9F8431C4C207800282DD069
S31508005D00207900282AD1FFF7E9FF1FDA40F2EF31A0
S31508005D100FF2A40000F09EFD18E001F0F5FD8046A4
S31508005D2002F0EEFFE07805280BD0FFF7DBFF0D4DFC
S31508005D30D5F8009000F03AF8C5F80090376002F000
S31508005D40E5FF02F0EBFF404601F0E4FDE0780528A8
S31508005D50E3D10020A0700520FFF755FF0020207032
S31508005D60BDE8F1830080004090D00300D17F002079
S31508005D7004ED00E010E000E094ED00E078C60308CA
S31508005D80104000400C000040084000401C40004005
S31508005D9004400040E63B0020C8D6030818A000408F
S31508005DA00C40004080E200E000E100E0286820F0B6
S31508005DB04000286002F0A6BF636C6F636B732E63A6
S31508005DC00000000010B5754C002000F010FD40F6EC
S31508005DD08C2188422068B4BF40F0080020F00800F3
S31508005DE0206010BD10B504466D48018882B000F0E9
S31508005DF05CF89DF800109DF80100FF2902BFFF28F6
S31508005E000420002104B1801C664A1368C0B2082821
S31508005E10A8BF072023F4607343EAC010106008295E
S31508005E201068A8BF0721C00841EAC00010605E4894
S31508005E30047013BD00B55D48018883B000F035F8DD
S31508005E40BDF800004FF6FF7188420EBF4FF4E160BF
S31508005E500A2190FBF1F0ADF800005348007808B32A
S31508005E604F48018802237F2201A8FEF74FFD9DF8BF
S31508005E700500BDF80030FF2808BF0420811CC9B200
S31508005E800829A8BF0721C1F12F0202EBD272C0F17F
S31508005E902F00521000FB0320C1F12F01B0FBF1F0D7
S31508005EA0ADF80000BDF800000EBD02237F2200A851
S31508005EB0FEF72CBD70B53E4C2568064602F0BCFEC2
S31508005EC03C49B0FBF1F070432F303021B0FBF1F0C4
S31508005ED0032809D3616D41F0010161652168491BF9
S31508005EE00903090B8142F9D370BD10B5040004D12A
S31508005EF010BD4FF47A70FFF7DDFF2046441E80B2CE
S31508005F000028F6D110BD2C48017869B9C078072851
S31508005F1018BF092814D0032818BF112810D0132831
S31508005F201CBF15280B280BD02448016841F4807241
S31508005F300260C80504D438210FF2900000F08ABC2C
S31508005F40704738B50C4620B101280FD0032820D059
S31508005F5021E01B4D44B102F06FFE1A49B0FBF1F087
S31508005F60401EB0F5005F0CD2286012E04CB102F07A
S31508005F7063FE610801EB4000B0FBF4F0B0F5003FAA
S31508005F8001D3202032BD104900F001024A604008C2
S31508005F900860002032BD212032BD000000BC004050
S31508005FA0BAD6030818000040C47F0020BCD60308F0
S31508005FB03820004090D00300960708083840004073
S31508005FC0100004E020A1070068C800407573625FEE
S31508005FD06572726F722E630038B50120FFF7A3FD54
S31508005FE00020FFF7FFFE574C206840F008002060AD
S31508005FF002F029FEFFF7E6FE534954480A78C260C4
S315080060004B78534AD3608D78524BDD608D88056096
S31508006010CD8845600889106048895060888918606D
S31508006020C889586000F057F8206820F010002060F2
S31508006030FEF7E1F802F0A4FF03F004F8FFF708FE04
S3150800604002F0FFFDBDE8314002F01BBE40F20160E0
S3150800605003F094B8F0B50B68414C0F2524689600F8
S3150800606005FA06F6344215D0002606EB820724FA0E
S3150800607007F7FF070BD5B70005FA07FC23EA0C0359
S3150800608030F812C005FA07F707EA0C073B43761CF7
S31508006090042EEADB0B60F0BDF0B50B68304CFF252B
S315080060A02468D600B5402C4213D00025012605EBFE
S315080060B0C20724FA07F7FF0708D506FA05F7BB4310
S315080060C0175C06FA05FC0CEA07073B436D1C082D0E
S315080060D0EDDB0B60F0BD10B52148006808B11E4C19
S315080060E007E010BD10B51E48006808B1164C00E060
S315080060F010BD1C4900222046FFF7CEFF01221A498F
S315080061002046FFF7C9FF022218492046FFF7C4FFB9
S3150800611000220E4900F030F80122104900F02CF850
S3150800612002220B4900F028F80322114900F024F84E
S315080061300422084900F020F8201DBDE81040052279
S315080061400C4987E700BC0040BC3A002000B000407C
S3150800615000B2004000B40040CC3A002004B0004031
S31508006160E46600200CB000400CB200400CB40040BD
S3150800617004B2004004B40040201D6BE70320FEF77C
S31508006180CCBC80B503F0F1F80FF2640109E080B5E4
S3150800619003F0EFF80FF284010204120E51F82210F0
S315080061A0C0B201EB800002BD10B503F0DEF804466C
S315080061B003F0DFF8C0B208B9012C07D1072C11D8B3
S315080061C0DFE804F004100608080A0C0E002010BDCB
S315080061D0092010BD022010BD032010BD0B2010BDE4
S315080061E0062010BD44F0800010BD00207047000056
S315080061F0554E4B004649420042544C0045585400FF
S3150800620050575200574447002053570043525300F3
S315080062104653480042414400464C54007CC6030895
S3150800622080C60308D8C60308F8C6030800C70308CB
S315080062300CC7030818C7030824C703082CC7030894
S3150800624038C7030848C703082A490A689209920109
S315080062500A600A68104308604FF400412648016046
S31508006260002101606420FFF725BE2DE9F047234D84
S31508006270204FD5F80090224C8046286840F400400C
S315080062802860386820F480503860207868B16278D1
S315080062901C48A17800EB820200EB880012F82A2C31
S315080062A010F82A0C891A461802E0012020262070C8
S315080062B0B0B2FFF7C9FF0FF2500A02E0B0B2FFF71B
S315080062C0C3FF386B042805D0386B400754BF761EC9
S315080062D0761CF3E7F86A38B184F80180A6701FFACD
S315080062E089F02860BDE8F08740F22111504600F099
S315080062F0B1FAE6E7D0100040181000401C10004024
S31508006300DD7F002090470008616E616C6F677565D8
S315080063102D76636F2E63000081014FF4FE5289B219
S315080063200C20FDF79EBF2DE9F84F8F4CA568206815
S315080063300127ADB200264FF00A08B9461FFA80FABF
S3150800634000F04FFAB0202063DFF820B208E016F11B
S31508006350190FB8BF4FF00A08464436B27019A06044
S31508006360DBF80000000702D559EA070028D001200B
S31508006370FFF7A0FDB9F1000F11D0AAF1030087427B
S3150800638002DAF81C87B213E00AF500402060574687
S315080063900621092000F0CEF94FF000090BE0DBF8E2
S315080063A00000000707D5042FA6BFF81E87B20027EE
S315080063B007F5004020601A2EC9DB6FF00908CBE705
S315080063C0A560C4F800A00820CBF80000684800685B
S315080063D080B2BDE8F28F80B5624B66491B784FF0F4
S315080063E0FF326BB1002819BF4A606348486041F222
S315080063F011100860614841880088BDE8044092E7AA
S31508006400002819BF4A600A604860086000F0E9F988
S31508006410BDE804400621092000F0DDB938B50120A1
S31508006420FFF7D9FF04460020FFF7D5FF05460120F0
S31508006430FFF7D1FF4042001B00EB450000B232BD1A
S315080064402DE9FE4F4E4CDFF83C81A06A454EADF86B
S3150800645002002568D8F800B0307860B14FF6FF72B0
S3150800646000210820FDF7F6FEADF80000C022C02185
S315080064700820FDF7F6FE4448DFF81091007818B1B9
S3150800648048F26070C9F80000708840F4404040F057
S315080064904C00C9F83C000220A0620120206040F2AE
S315080064A04C40FFF707FD0120C8F80C00C8F80000AB
S315080064B00020324F388040207880307800B1202084
S315080064C0FFF72AFFFFF7AAFF8246402038807F2081
S315080064D07880FFF721FFFFF7A1FF0290504602F0F0
S315080064E0A4F8FE2101FB00F70298AAEB0000019030
S315080064F0307860B1029802F098F88246019802F066
S3150800650094F880B207EB8A11B1FBF0F005E0019828
S3150800651002F08BF880B2B7FBF0F080B2401CC703DC
S315080065201FFA8BF0C8F80000ADB20020C8F80C00BE
S31508006530022020602560BDF80200A0620020C9F88C
S315080065403C00307830B1BDF800104FF6FF720820D5
S31508006550FDF787FE40F24C40FFF7ACFC380CBDE86F
S31508006560FE8F0000F63B0020C010004018A0004037
S315080065700070004038100040EEEEFFFF9A7F0020C2
S315080065806020004028100040913B0020D0100040B9
S3150800659041003F2289B201E001463F220220FDF771
S315080065A060BE2DE9F04F564C564D95B0E06CADF8EF
S315080065B010004FF6FF782068ADF80E004246E86AEC
S315080065C0ADF80C0000210120FDF744FEADF80A00E5
S315080065D0424600210B20FDF73DFEADF808004FF4BA
S315080065E00040206000202861686148F2020000F03F
S315080065F08BF84CF68C30E0644FF4805248F2F00089
S31508006600E86211460120FDF72CFE424600210B20C8
S31508006610FDF727FE0621062000F0DDF8019000F0C0
S3150800662085F800904CF69C30E0640020FFF7B0FF38
S315080066300621084600F07EF800260DF1140BB0B2CC
S31508006640FFF7A6FF0621062000F074F800F08DF883
S315080066502BF81600761C202EF1DB00F086F81020A9
S31508006660FFF796FF00F062F80099019A401ABBF806
S315080066702010891A404301FB01094FF0100A11271F
S3150800668000F04EF800F052F800F043F806DB8146B9
S315080066901FFA87FA781C07B2202FF1DBBAF1100F20
S315080066A00ED10F2700F03CF800F040F800F031F862
S315080066B006DB81461FFA87FA781E07B2002FF1D546
S315080066C0BDF81000E0644246BDF80E002060BDF833
S315080066D00C00E8620120BDF80A10FDF7C2FDBDF8FE
S315080066E0081042460B20FDF7BCFD0120286100205A
S315080066F000F00AF84FEA4A00C0B215B0BDE8F08FBC
S31508006700C010004018100040286040F24C40FFF7C7
S31508006710D1BB0099401A404306FB0600484570471E
S315080067203BF817000199461AB8B231E70621072047
S3150800673000F051B870B505460E4602F0E1FA3D4C38
S31508006740206C20F00800206402F0E8FA01F0DCF87A
S31508006750310341EAC511384A41F0010111600821A7
S315080067602160BDE8704001F0D5B82DE9F041334C01
S31508006770334D304E25E002F0C3FA32490420086052
S31508006780306C40F0080030642F68286840084000E4
S31508006790286002F0BBFAD4F80080206820F0400098
S315080067A0206002F0AFFAC4F800802F6002F0AEFA5B
S315080067B0306C254920F0080030640420086002F097
S315080067C0ADFA30680007D6D5082030601F48006843
S315080067D080B2BDE8F08180B5FFF7ACFFBDE80140A7
S315080067E0C3E7154801684908490001607047F8B5CC
S315080067F00746FFF71FFB044639460320FFF7EBFF62
S31508006800054639460120FFF7E6FF064639460020C9
S31508006810FFF7E1FF08490A68520852000A60401B60
S315080068200004711BB0FBF1F060434000000CF2BDA0
S315080068300000000018A000400470004000800040DE
S3150800684094ED00E000E100E080E200E00070004026
S3150800685042DE704738B504460D4602F0FDF901F0F0
S3150800686053F82946204602F0BAFD2B4622460FF277
S31508006870CC11012002F0FFFF29462046BDE834402E
S31508006880E6E72DE9F84F6548654D01682E1D4FF47A
S31508006890206A7165016AB16562490968F165416AEC
S315080068A03166816A7166C16AB166016BF166806B91
S315080068B0306796F8340040074CBFF76BB76BBB469A
S315080068C002F0EBFC0022584CDFF86081DFF860919B
S315080068D0F2648742014624BFA4F12003BB42316516
S315080068E01DD357F8180F306457F8040F7064706D8D
S315080068F0C005C00D062815D1306C484512D3404551
S3150800690010D200884DF6426290420BD105F18C00F8
S315080069106A68426040F2017A7268826002E0326414
S31508006920726483464348814202D2014600E0091D4B
S31508006930A14203D20B68B3F1CD3FF8D0601AB06418
S31508006940182105F1780002F0D7FF002003E0C0B255
S3150800695005EB80029167A34523D254F8041D4945E7
S31508006960F9D34145F7D2CA07F5D5002205EB8203CC
S315080069709B6F8B4203D0521CD2B2062AF6DB062A3C
S31508006980E9D1002814BF401E0520E0E7716F0022F8
S3150800699005EB8203521CDF6F9F67052AF8DBC5F8F3
S315080069A08C100146481EC9B20029EFD1706DC0058A
S315080069B0C00D02280AD0032815D0042816D00528A9
S315080069C017D0062818D00C281CD01EE01A480168D3
S315080069D0890748BF40F6021A1CD40068C00719D5B3
S315080069E040F2025A16E040F6012A13E040F6022A5F
S315080069F010E040F6032A0DE0BAF5206F0AD140F6FA
S31508006A00042A07E040F6052A04E018B1242838BF0E
S31508006A1040F6072A5046BDE8F28F000004ED00E074
S31508006A200000002000E300E008370020402A0308A1
S31508006A3090410008980000201CA000400D0A5B4108
S31508006A4053534552543A25703A25645D0D0A0000A1
S31508006A50814233D210185118401E491E10E011F811
S31508006A60013900F80139121F11F8013900F8013906
S31508006A7011F8013900F8013911F8013900F801391E
S31508006A8092B2042AEBDA92B2002A1EBF11F8013933
S31508006A9000F80139521EF6D1704711F8013B00F88B
S31508006AA0013B121F11F8013B00F8013B11F8013BAD
S31508006AB000F8013B11F8013B00F8013B92B2042AA9
S31508006AC0EBDA92B2002A1EBF11F8013B00F8013B2F
S31508006AD0521EF6D17047130003D00A46194602F033
S31508006AE00FBF704710B500E0521E92B222B100F0F7
S31508006AF012F8F9D0181B10BD002010BD10B500E023
S31508006B00521E92B22AB100F006F8F9D0181B40B20C
S31508006B1010BD002010BD10F8013B11F8014BA3422F
S31508006B20704700004048018A40F6A772914202BFAA
S31508006B30408A4FF47F41084203D1022801DB012035
S31508006B407047002070472DE9F84F8246884600F0C6
S31508006B50DBFE364D2F68044628684008400028604A
S31508006B6002F0D4F80120DFF8BCB08BF80000FFF77C
S31508006B70D9FF20B9FF210FF2B800FFF76BFE2A48AC
S31508006B80D0F8289041464AF48070C84706462F60D8
S31508006B9002F0BCF8204600F0BDFE00208BF800008D
S31508006BA00FF294040EB1305D04E041464AF40070D9
S31508006BB0C847005DBDE8F28F2DE9F84F8046894643
S31508006BC04FEA420A00F0A0FE184E376805463068BC
S31508006BD040084000306002F099F8FFF7A3FF28B993
S31508006BE04FF4A1710FF24800FFF734FE0E48D0F8B3
S31508006BF024B00023524649464046D84704463760E3
S31508006C0002F084F8284600F085FE0FF22C050CB138
S31508006C10605D05E05346002249464046D847405D38
S31508006C20BDE8F28FD07F00200000080894ED00E050
S31508006C30666C6173682E6300000202024B4B46477E
S31508006C402DE9F94788B01B22FF2101A8FFF743FF6A
S31508006C50DFF8D4907222FF214846FFF73CFF36251D
S31508006C604FF01B0A36210FF2E40002F07DFE0FF208
S31508006C70CC0800272D48385C411C01EBD1714C101B
S31508006C802B497E5CFF2803D170214046FFF7E2FDC1
S31508006C907F2E03DB71214046FFF7DCFD2548385C73
S31508006CA000B11934601C00FB06F4234830F81710AD
S31508006CB00FF2B4003346A2B202F056FE6519012E51
S31508006CC01CBF29F817A0B2447F1C1B2FD2DB40F249
S31508006CD01C44A54234BF13A30FF2EC031B200090FB
S31508006CE02246A9B20FF2A80002F03EFE40F21D406D
S31508006CF085420ED301F0B0FF00F006FE23462A4671
S31508006D000FF2D001012002F0B6FD9D214046FFF7A3
S31508006D10A1FD9DF8200001A900F036F90AB0BDE8EA
S31508006D20F08700006F6B0000207100203CC8030844
S31508006D3058C8030820C80308E8C7030873696D2DF7
S31508006D40656570726F6D2E6300000000546F6B6589
S31508006D506E206F766572686561643A2025642077CF
S31508006D606F7264730A00000043726561746F723A49
S31508006D702030782532582C20576F7264733A2025B4
S31508006D80642C20436F756E743A2025640A0000004F
S31508006D9053696D454520646174613A2025642077FE
S31508006DA06F726473206F66202564206D61782028D1
S31508006DB02570292C20746F6B656E436F756E743A57
S31508006DC02025640A00000000544F4F204C415247CA
S31508006DD0450000000D0A4552524F523A2053696D3C
S31508006DE04545206461746120746F6F206C61726719
S31508006DF0652E2020436F6D70696C696E6720776910
S31508006E00746820256420776F72647320636F6E73CD
S31508006E10756D65642E20204D617820616C6C6F77E6
S31508006E2065642069732025642E0D0A0010B5DFF805
S31508006E30684ADFF8683A2488001B03EB4000002301
S31508006E4004E030F8134021F813405B1C9342F8DB4A
S31508006E50002010BD2DE9F04182B004460D461646C5
S31508006E600027DFF8388A01E0B81CC7B2B74217DA3C
S31508006E707819795D4078DFF8203A1B8801EB002005
S31508006E80ADF80000012207EBD77004EB6000C01ACA
S31508006E9000F07FFB0028E7D002F088FD002000E024
S31508006EA00120BDE8F681F8B504460E4615460027CA
S31508006EB00DE000F019F8BDF8000004EB4701000AE0
S31508006EC04870761CBDF8000004F817007F1CB7EB65
S31508006ED0550FEEDBE80706D500F006F8BDF800000A
S31508006EE0291901F8010CF1BD012200A9B0B29DE7EC
S31508006EF0DFF8A429DFF8A4191288801A01EB4001EB
S31508006F000220FFF720BEDFF89819DFF89829415CC0
S31508006F10825CDFF89439C05C10B102F5997292B2BE
S31508006F2041EAC21080B2704710B5DFF88039DFF841
S31508006F30704903EB4002005D012801D1104610BDDF
S31508006F401088081803EB400010BD38B50C46DFF86A
S31508006F5060190D782A462146FFF768FF2088002821
S31508006F601CBF4FF6FF7188420AD0012000E0401C82
S31508006F70C0B2A84206D234F8101022889142F6D040
S31508006F80002032BD012032BD2DE9F24F0446DFF85C
S31508006F9024690020307070809CB0DFF81C090088D6
S31508006FA0ADF8020007A9FFF7D0FF834601207070ED
S31508006FB009A9DFF808090588DFF80409B0F8008090
S31508006FC0DFF8D408BDF802A007883846FFF7BDFFEA
S31508006FD0B8B1BBF1000F3CD0BDF81C10BDF82400B9
S31508006FE04FF6FE72914202D1012804D10CE0012924
S31508006FF008BF90422DD00846BDF82410884228D2F2
S3150800700002E0BBF1000F23D00020707002975046B3
S315080070100695CDF810800122DFF8941891F80080C3
S315080070204044ADF8060000A9BDF80600FFF7FEFECD
S31508007030DFF89008008805904FF6FF79BDF8000044
S31508007040000B404518BF0F2800D10CB3002516E0E9
S31508007050012470780128D9D13846CDF808A0CDF892
S3150800706018800495D7E7059805FB00F4E01900F0A9
S3150800707037FCBDF80200201800F032FC6D1C4545AF
S31508007080F1DB012030704D2002F090FC0025FCE079
S31508007090BDF80650012201A92846FFF7C7FEBDF82C
S315080070A00400C043C0B2ADF804006F1CDFF818082E
S315080070B00588BDF80400A84218BF01244FF0000A4D
S315080070C020E0401CC1B2A94218D2C0B2DFF8FC17B2
S315080070D0BDF80E20834631F81B109142F1D1FFF717
S315080070E012FF4FF680710840BDF80C104FF68072FB
S315080070F01140884204BF1C980BF800A00AF1010051
S315080071001FFA80FABDF80400824507DA022203A9AD
S31508007110B8B2FFF78BFEBF1C0020D3E7002001E0C2
S31508007120401C80B2A84217DA1C99415C8142F7D00C
S31508007130012411E02AF81070BDF8060000EB4300A0
S31508007140401C00F0E3FABDF80200C0F3C710401C6B
S3150800715000EBD07007EB60070498DFF850A7BFB2C2
S31508007160874211DA012200A93846FFF75FFEBDF80B
S315080071700000484508D0030A00F07F01BDF8040066
S315080071807F1C834202DB012400252DE0002001E05C
S31508007190401C80B2A842CFDA1C9A825C9A42F7D188
S315080071A0C0B2FF28C8D0DFF8F826825C7F290CBF5A
S315080071B04FF0000C8C46944509DADFF8ECE6BDF88A
S315080071C000C010F80EE0CCF3C01CF44501D0012431
S315080071D0B2E7012AAED07F293AF8100008BF00218D
S315080071E00818A7E76D1CADB2DFF8E40600888542EB
S315080071F004DA3AF815004845F4D101247780049852
S31508007200BDB285420ADA012200A92846FFF70EFE1A
S31508007210BDF800006F1C4845F1D034E7002CFCD1BE
S31508007220029801220BA980B2FFF700FEBDF82C00D8
S3150800723048450DD105E0401C80B2202813DB2034D8
S31508007240A4B20699029A891A8C4205DB012030708D
S3150800725000201DB0BDE8F08FA51820220BA9A8B202
S31508007260FFF7E4FD00200BA931F810104945E2D0DC
S31508007270A8B2FFF73DFE203CA4B2E0E702980599C4
S3150800728005FB010000F02CFB6D1C4545F6DB0120D3
S315080072903070494600F054F818B100F03EF900285D
S315080072A0D6D10120D5E72DE9F84504460F461646FE
S315080072B0984631463846FFF737FEDFF80C16B0F821
S315080072C000A00988DFF8DC558F420AD2DFF8D0051E
S315080072D0385C7F2E08BF0026864202DA785D804534
S315080072E003D040F2864100F00DFADFF8BC05385CA1
S315080072F068B15146384600F03AFA795D012908BF67
S3150800730020700AD0022914BF2060208005E042467A
S3150800731051462046BDE8F845C5E5BDE8F18510B5F6
S31508007320044608461146FFF7FFFDDFF86C2500887E
S315080073301288DFF86815801A01EB4000206010BD3E
S315080073402DE9F34FDFF85005DFF864150488DFF8F8
S3150800735064050978407883B000281ABFDFF8580515
S31508007360008820460D18DFF860050088ADF808008B
S31508007370ADB2C043C0B200EB013000F55060ADF8C5
S3150800738002002B1BDFF8140500F0C6F96E1C002856
S31508007390B6B238D10025DFF8347514E0E8B2FFF745
S315080073A0B2FDADF80400331B37F81500ADF806003A
S315080073B00222DFF8E80400F0ABF8002823D1B61C57
S315080073C06D1CB6B2ADB2BDF808008542E6DB0025F5
S315080073D001E06D1CADB2BDF80800854280F29380CD
S315080073E04FF0000A1CE001220DF102011FFA89F094
S315080073F0FFF71CFDBB19DFF8A4041B1B09F10109E3
S3150800740000F08AF9002878D17F1CFFB2B7EB1B6F12
S31508007410E9DBDFF8C004285C8619B6B20AF1010A6E
S31508007420DFF87C0415F800B05FFA8AFADA45D0D29C
S315080074305146E8B2FFF778FD8046DFF86C04B8F8E5
S3150800744000902F5CF80140EA0520ADF80000BBF17A
S31508007450010FBDF800000CBF40F07F004AEA0000AB
S31508007460ADF80000311BDFF8340400EB4100711C55
S3150800747089B201914FF6FF7189451EBFBDF800100C
S31508007480BDF81020914218D19DF80C100029C5D0DE
S31508007490012200A9FFF790FB019E70BBDFF80404E8
S315080074A0A8F800602A5CDFF8300450F82510B0B25E
S315080074B0FFF7D0FC0028ACD122E0DFF8E813695CBE
S315080074C0491C01EBD1714FEAC15B012200A9FFF704
S315080074D073FB019E88B9002FA8F8006095D049462D
S315080074E0E8B200F044F90190331BDFF8B0034FEA25
S315080074F01B6200F00DF800288BD002F057FA002026
S3150800750005B0BDE8F08FDFF8AC0346800120F7E749
S3150800751001A900EB4300FFF74FBB2DE9F041DFF867
S315080075209803DFF890530688DFF86C0304886878B8
S31508007530002882B012BF204630462646012200A9FE
S31508007540FFF774FCBDF80000DFF8508301280CBF74
S315080075504FF6FE70401EADF80000DFF854030778BA
S315080075603846471E58B1BFB2B819001B012200F0B1
S3150800757010F80028F4D002F019FA002007E069781C
S31508007580481E8041C00F6870002028700120BDE8A1
S31508007590F68100A908EB4000FFF70EBB2DE9FE4F68
S315080075A00D46174604461E464FF000094FF00108DF
S315080075B03946FFF7B9FCC449098801908C420AD2BA
S315080075C0B748205C7F2F08BF0027874203DAB548F3
S315080075D0205C864203D040F2A95100F093F8B54FDB
S315080075E0787820B1B548B0F800A0AB4803E0B448B5
S315080075F0B0F800A0B0483978008849B97988081ADF
S31508007600B64909888842B4BF4320442002F0CEF91F
S3150800761001980188A448205CF8B1204600F0A7F834
S31508007620012E08BF297803D0022E0CBF29882968A5
S31508007630814265D001980088401E00F067F8A54889
S31508007640265C7888AAF10101891B814201DB0028A2
S3150800765035D1387858BB452044E00291CB4620E026
S3150800766002980BEBDB7300EB630000F03CF90BEBC5
S3150800767005001BF80510407801EB0020711E8B45AC
S3150800768080B205D1BDF80010C9B2C0B2ADF800107D
S31508007690BDF8001088420BF1020018BFC8465FFA11
S315080076A080FBB345DCDBB8F1000FC3D028E0BDF89A
S315080076B002100020FFF744FE10B34FF00109788846
S315080076C07849401C788080B2625C2946FFF7C2FB85
S315080076D0B0B1714C7B88248870485B1E1B1B00F078
S315080076E01BF810B102F062F90AE0B9F1000F02D0F6
S315080076F0FFF713FF20B10199788808803018788041
S31508007700BDE8F78F0FF2E810FFF7A4B801220DF1D4
S31508007710020180B2FFF78ABB01220DF1020100EBDC
S315080077204300FFF749BA70B582B00446002519260A
S31508007730012200A9A0B2FFF779FBBDF80000641C7E
S3150800774048B14FF47F41401A02D0FF3806D007E00F
S31508007750681C40B276BDAD1C761EE9D168B276BD0E
S31508007760BDF80000C0B200B96D1CE843F1E738B5B2
S315080077700C46002100914B49455C2A46214600A843
S31508007780FFF791FB681C00EBD07004EB600080B239
S31508007790FFF7C9FF002848BFC043009940B2401808
S315080077A032BDF0B5484909880446404883B02546A5
S315080077B030F815608C4202D23B48285C18B940F272
S315080077C0A961FFF79FFF37482D5C681C00EBD07056
S315080077D006EB6007B8B2FFF7A6FF322814D2C10736
S315080077E0BFB207EB60002C4F2C4B3F884CBF0021E3
S315080077F04FF47F41ADF80410C01B012201A903EB29
S315080078004000FFF7D9F960B131462046FFF7AFFFD0
S3150800781000902B46401C00907F2200A92046FFF7C7
S31508007820BDFEF7BDF8B5234C20780027002830D1D7
S3150800783019480588607800281ABF1F4806882E460A
S315080078401B4807783846471E02281BDBFFB2B819C3
S3150800785000F049F8BDF800000028F3D01948008860
S3150800786007FB006000F03CF80020ADF80000BB19EB
S315080078700A485B1B012200A9FFF74BFE48B102F03C
S3150800788095F806E03046FFF733FBFFB20FB9012043
S3150800789020703846F2BD0000BCC7030800E00308A4
S315080078A058C803083CC8030820C8030820710020EC
S315080078B0B8C70308967F0020C0C70308BEC70308D9
S315080078C0C2C70308BAC70308C6C70308E8C7030838
S315080078D0C8C70308CCC703086CCA0308C4C703088B
S315080078E080B2FFF705BB012200A980B2FFF79EBA56
S315080078F073696D2D656570726F6D2D696E7465722D
S315080079006E616C2E63000000EFF31180602181F335
S315080079101188704780F3118870470000DFF86C15EE
S3150800792000200870FF21DFF86805017001717047B3
S31508007930F8B5044602F08AF80546DFF85805DFF878
S3150800794050750688204602F082F9B0F5006F16D108
S31508007950204602F0A0F900F0ABFAFF280DD000F09F
S315080079601EFA2146381D02F00EFDDFF820050178C3
S3150800797081B10089A9190E1A10E09320F2BDFF21E2
S31508007980384602F02BFD052802DA21463846EAE792
S315080079903920F2BD0581314602F081FDB2B20321DC
S315080079A0204602F0D2F8032200F070F8204602F0D2
S315080079B04BFA0020F2BDF8B50446DFF8D404007887
S315080079C0FF2813D0DFF8D0542968465C3746384676
S315080079D002F052F9014608222046FFF783F808B953
S315080079E00120F2BD28683F5CB742F0D10020F2BD05
S315080079F0F8B5044602F0D5F8000B00F0010520465C
S31508007A0002F05EF90646204602F049F9B0F5404F05
S31508007A1011D1002D36D03146002000F07BF90446FE
S31508007A20FF2C2FD0002102F035FE58B300F098F94C
S31508007A3000F02AF826E0304603F045F800F038FA58
S31508007A400446FF2C01D10020F2BD01200021224668
S31508007A5003F066F8DFF84424D2E9006706430F43CB
S31508007A60C2E9006775B1DFF838341B6833F814309B
S31508007A704FF4FE64234205D0D2E902452043294348
S31508007A80C2E902010120F2BD40F08002052120462C
S31508007A9002F066B838B5044602F0D9F8B0F5006FBA
S31508007AA00CBF01250025204602F0E6F804462146CB
S31508007AB0284600F02FF9FF2810D18DB1204603F093
S31508007AC002F800F0F5F9FF280AD0DFF8D4130968A0
S31508007AD031F810004FF4FA61084201D0012032BD96
S31508007AE0002032BD2DE9F04107460C46DFF8A053C9
S31508007AF002F0ADF8B0F5006F0CBF281D28460078D7
S31508007B00FF2846D0DFF890130968405C0646B7425E
S31508007B103CD1FFF7F9FE80460521304602F027F8EA
S31508007B2000F07F00471EFAB20521304602F018F829
S31508007B30002C18BF312C01D0F8B200BBFFF7E4FEC9
S31508007B400746F0B202F083F8B0F5006FF1B205D13E
S31508007B50281D02F043FC00F007F902E0284602F06F
S31508007B603DFC3846FFF7D6FE4046FFF7D3FE2146D2
S31508007B70304603F0CBFE304602F074F904E000F01C
S31508007B80F3F84046FFF7C6FE012003E0765C86421E
S31508007B90BDD10020BDE8F08138B501F057FFBB4CD8
S31508007BA021892081421A4FF6FF75ADF8005000A9C9
S31508007BB090B200F0FDF8BDF80000A84202D10020FE
S31508007BC0207031BD0146204602F069FC31BD002116
S31508007BD04FF6FF70ECE02DE9F84FDFF8C092D9E9CF
S31508007BE00001002908BF002800F08D8000264FF00C
S31508007BF00108B24600270024FFF786FED9E90023CC
S31508007C00844608EA02001AEA030108BF002817D0CA
S31508007C106FEA08006FEA0A0102400B40C9E900232F
S31508007C20D9E9025B012708EA05021AEA0B0308BF2D
S31508007C30002A05D028400BEA0101C9E902010124FE
S31508007C406046FFF767FE002F4CD09548006830F86D
S31508007C501600810746D59349096831F816702CB184
S31508007C6000F49871102908BF012500D000258E4A16
S31508007C7012680021B154F4B180061CD5380A8DF873
S31508007C8001008DF8007000A9012000F043F80446B1
S31508007C90FF2C07D100F039F84FF6DF72114020F8B3
S31508007CA0161014E0002102F0F5FC80B100F058F837
S31508007CB0FFF7EAFE0BE085F00100044207D000F06A
S31508007CC024F841F4006120F8161004F0C5F900956F
S31508007CD03B461A226CA1032001F04BFE2946384682
S31508007CE001F056FE761CF6B24FEA4A0040EAD87A08
S31508007CF0402E4FEA480806DAD9E90001002908BFEC
S31508007D0000287FF477AFBDE8F18F6548006830F842
S31508007D10161070472DE9F04188465D4900281ABFBC
S31508007D20091D022508250878FF2816D05A4E3168FD
S31508007D30475C3C4600F014F800060AD4204601F0D9
S31508007D409BFF01462A464046FEF7CCFE08B9204668
S31508007D5004E03068245CBC42ECD1FF20BDE8F08129
S31508007D600521204601F003BF70B50021202004F04C
S31508007D70F6FB47480079FF2810D0474C2168455C38
S31508007D802E46304601F087FF00F092F8FF2801D012
S31508007D9000F005F82068365CAE42F2D170BD404965
S31508007DA0096831F8102042F0200221F810207047A7
S31508007DB02DE9F84F80460FF2F400354E0068364F2D
S31508007DC000908A46344600E0341DFFF79DFD814643
S31508007DD006E0204602F0ECFA294600A802F0D3FA9B
S31508007DE0204602F02FFB40B9386821780D5C032144
S31508007DF0284601F0A1FE8045EBD2301D844208BF1B
S31508007E00FFF7B2FF4846FFF785FD2078FF281CD00C
S31508007E10396810F801904D460321284601F08CFE7A
S31508007E20A0EB080B1FFA8BF20321284601F08DFE02
S31508007E30BAF800001FFA8BFB834588BF8346AAF869
S31508007E4000B038682D5C4D45E6D1301D8442BBD163
S31508007E5000A802F0F7FAA8B900A802F0A9FA0446A1
S31508007E6001F0A9FE00F0F5F8FFF77AFF000603D443
S31508007E704221204603F04AFD204601F0F3FF00F0B8
S31508007E80E9F8E5E7BDE8F18F42574200D07C0020CB
S31508007E90183C00201A390020A8380020383C002059
S31508007EA0B8380020B0380020BC380020FF00000099
S31508007EB0F8B50D4C2768060014D0FFF725FD0B4DC5
S31508007EC021682A7821F8126037F8021BB142FBD1E3
S31508007ED0FFF720FDB81E2168401AC0052978000E54
S31508007EE0884200D1FF20F2BDB0380020B438002007
S31508007EF010B57348734C0068206060604822002102
S31508007F00FEF7E9FD704821680078087000202168AE
S31508007F100873216848730B20216888730320216839
S31508007F20C8734FF6FE71206801824FF6FF714182D1
S31508007F3000F094FB2168087600F090FB21684876EB
S31508007F4000F08CFB21688876604821680078C8763E
S31508007F505F492068096881625E49097880F82C10B3
S31508007F605D4821680068086310BD10B5FCF76CFB16
S31508007F70544C6168897B884203D00846FCF75CFB51
S31508007F8050B9FCF764FB0146606890F90F0081421E
S31508007F9004D0FCF760FB08B1012010BD6068008AB8
S31508007FA0FDF72BFC6068408AFDF72FFC6068007BB4
S31508007FB0012818BF0020FDF70AFC002010BD10B5E7
S31508007FC0464C0020207004F052FA20B92046BDE83D
S31508007FD0104002F059BA04F0D1FE08B104F0FDFED3
S31508007FE063E080B5002000F015F828B1002000F005
S31508007FF005F808B1002002BDFF2002BD314800681F
S31508008000407B02281CBF1128432801D10120704754
S31508008010002070472B480068007B012818BF0228FB
S3150800802004D003281CBF0628072801D10120704761
S31508008030002070470020704700207047704770473F
S3150800804000207047012070477047002070470020C5
S315080080507047704770470020704780B50020FFF7CB
S31508008060CDFF20B10020FFF7D5FF00B1012002BDEA
S3150800807080B50020FFF7C2FF30B112480068007BC8
S31508008080032801DA002002BDFF2002BD10B5040056
S3150800809004D0E5210FF26800FEF7DCFB084800680B
S315080080A0482101FB040007494860BDE810405CE729
S315080080B004484068008A704702484068408A70470A
S315080080C0DC380020D8790020153900201639002020
S315080080D0E4380020E8380020EC380020C879002071
S315080080E07047002070470020704702F008BB7047B1
S315080080F0704704F034BF05F0DFB801F050BC00004B
S31508008100656D6265722D6D756C74692D6E65747713
S315080081106F726B2D737475622E63000038B5044652
S315080081200D46012005F054FA5D48002D12BF0021C6
S315080081300178491C01705B4844705B48FDF712F8EA
S31508008140BDE83240002005F043BA10B500281446B1
S315080081503FD0402823D0882818BF892840D08D28AA
S315080081602FD08F2846D15148007804280DD144B124
S315080081704F490220087040F60620BDE8104005F079
S315080081802FBAFDF7AEFA312030E0012001F0F0FBFE
S31508008190FDF7A7FA002C0CBF3120002026E0404846
S315080081A0444900780978884204D2BDE81040002185
S315080081B00120B3E7002001F0DBFBFDF792FA40202F
S315080081C014E0002001F0D4FB00212020FFF795FFE2
S315080081D00BE0012001F0CCFBFDF783FA002005E057
S315080081E0002001F0C5FBFDF77CFA8D20BDE81040A4
S315080081F002F034BBBDE81040C9213CE02C480078A9
S31508008200022800D0704780B52B480078042807D08C
S315080082100C280ED129480078022818BF7C2808D1D6
S3150800822005F0F9F9FDF75DFABDE80240002002F015
S3150800823015BB01BD38B50024FFF766FB05461C488B
S31508008240007810B9FCF7DDFE04462846FFF762FB06
S31508008250002C1CBFBDE8314001F0A6BB31BD80B57E
S31508008260FFF7E8FFBDE804404FF4A051144802F0B8
S3150800827016B940F205110FF25000FEF7EBBA38B501
S31508008280104C2068216C01EA0005ADB2680705D5D7
S31508008290206C20F00400206403F0C6FF256031BD81
S315080082A0ED7F0020CC3B0020AC7B0020013C002069
S315080082B0A07B00202C3C0020E37F0020E47F0020E8
S315080082C0687D002008A000406D61632D656D32351C
S315080082D0302E630070B504460D461646FDF75DFA66
S315080082E038B16078002E14BF40F0200000F0DF009F
S315080082F060702946204601F038FEFF2821D0934CAD
S315080083000146201D02F03FF8914D28882188401C1F
S31508008310288080B281420AD26888401C6880201D65
S3150800832002F046F801F09EFD2888401E2880208825
S3150800833029888842F3D3BDE870408648007802F061
S3150800834091B970BD2DE9F04FA5B082460027FFF719
S31508008350DBFA7F4C2188491E2180FFF7DBFA50465D
S3150800836001F00CFD082390F800804078DFF8E891CA
S31508008370029000975146D9F800001AF80000A0F1BB
S315080083800802D2B203A801F00CFE03AE7078FFF71C
S3150800839060FE7248007808B3606800281DD0F0783F
S315080083A0FCF7AEFE4146FCF7B2FE074696F9020018
S315080083B000F166060020009008F10103DBB20022F6
S315080083C0514605A801F0EDFDFFF73EFE636872B25F
S315080083D0394605A89847FFF73DFE95E0029800F054
S315080083E00700022827D0FF208DF80400504601F028
S315080083F0C5FC00F1010B584601F00EFC0446A8EB3B
S315080084000400801E45B2002D15D401A9584605F072
S31508008410F7F9002879D1029800F0070001280BD156
S315080084209DF8040004EB0B0103F095FD20B99DF8B7
S31508008430040001F017FD68E09DF80400D9F8001063
S31508008440475C4749096800F801A0D9F800001AF8FE
S31508008450000000F120019DF80400C9B201F094FC67
S315080084609DF8040001F0A2FB00F00C0004281CBFD4
S315080084706519002468B280B20090631C9DF8040058
S315080084809BB25246394601F04DFFE9199DF80400A2
S31508008490C9B201F032FE334970780978884204D3AC
S315080084A0BD210FF2C800FEF7D5F99DF8040001F0CA
S315080084B078FB71788004800C40EA81319DF80400CD
S315080084C089B201F070FBF078FCF71AFE4146FCF71A
S315080084D01EFE02469DF80400032101F041FBB07818
S315080084E000F166029DF80400D2B2042101F038FBBF
S315080084F09DF80C209DF80400052101F031FB9DF83C
S3150800850004A0504602F006FA0127504601F0AAFCDC
S31508008510FFF7A0FD384625B0BDE8F08F10B50C4C26
S31508008520618829B1C9B21D20FFF7E7FD00206080E8
S315080085300D4801F03DFFFF2803D0FFF703FF002891
S31508008540F6D010BD084801F07DBF0000243C00208D
S31508008550EC7C0020CD7F00209C380020957B0020F5
S31508008560A4380020E0380020283C00206D61632DE7
S31508008570726563656976652E6300000038B5044642
S315080085801B4D214600F03DF8E860211D00F039F842
S31508008590A86004F1080100F034F8686004F10C01E1
S315080085A000F02FF8286031BD7047F8B50446114D24
S315080085B0114E802028600620306007202860306829
S315080085C08007FCD5002704EB870100F01AF87F1C0A
S315080085D0042FA862F7D330684007FCD500262A6B1B
S315080085E004EB860100F00AF8761C042EF7D3F1BDD9
S315080085F0383000400030004010A00040002002F053
S315080086006DBA002002F078BA70B504460D46FFF739
S315080086107BF906462846FFF7B1FF2046FFF7C5FF58
S315080086203046BDE87040FFF775B9002848BF40429C
S315080086307047000081B209B94BF6EF610E4A118006
S31508008640000C08BF4FF6CE205080704702881304EE
S3150800865048BF4A40510001801046704738B5064C5D
S3150800866062212046FFF7F2FF054641F20B01A01CE6
S31508008670FFF7ECFF684032BD323B0020EFF3118074
S3150800868060288041C043C00F70470000002181F375
S31508008690118870472DE9F04FDFF8104591B06168F1
S315080086A00F91072808BF032002D0082808BF022018
S315080086B0DFF8FC5429686A6841EA0221AA6841EA97
S315080086C0024100916968490703D5E16941F0020151
S315080086D0E1612968490703D5E16941F00401E161CF
S315080086E00099EA69D140C90703D5E16941F0080153
S315080086F0E1610021DFF8B064DFF8B8743160012861
S3150800870000F0FA81C0F0208203281AD004D3042886
S3150800871040F01A82616014E0386CC00703D5E0693E
S3150800872040F04000E061386C400703D5E06940F04E
S315080087302000E061386C800703D5E06940F010003E
S31508008740E061FFF7E1F800F094FA8DF838004FF091
S315080087500009DFF86414DFF864A4C1F500410120BC
S31508008760090B00FA01F1491ECAF83810090A07D19F
S31508008770DFF84C14097819B1616C41F02001616485
S31508008780396CDFF84084DFF840240D91796C0C9140
S31508008790D8F84C100B91D8F850100A91D8F8541004
S315080087A00991D8F858100891DAF800100791DAF804
S315080087B004100691DAF814100591DAF824100491D9
S315080087C0DFF8081409681268039202222260DFF8AB
S315080087D0002412688DF80420DFF8F82312688DF853
S315080087E00520DFF8F42312688DF806204FF0FF32D3
S315080087F0626200F0B2F9D2040AD56A68D20707D5D0
S31508008800E269D20704D5326842F480728146326042
S3150800881000F0A3F992040AD56A68520607D5E269F8
S31508008820D20704D5326842F480428146326000F0AD
S3150800883094F952040ED5009AAB69DA40D20709D5E5
S31508008840E269D20706D53268AB6900FA03F31A4320
S315080088508146326000F081F9120410D5009AEB695E
S31508008860DA40D2070BD5E269D20702D4E2691207C9
S3150800887005D53268EB698146984010433060D74881
S315080088800068C00308D5E069000605D5F07840F011
S3150800889008004FF00109F07000206A68D2076A687C
S315080088A048BF4FF480505206009AAB6948BF40F45F
S315080088B00050DA40D207009AEB6948BF40F480407E
S315080088C0DA40D207E26948BF40F40040D20605D430
S315080088D0E269920602D4E269520601D540F0100018
S315080088E0E269120648BF40F4803008400290A5208D
S315080088F000F0B6F90120E063E069A16B11B1616A85
S315080089000142FAD0616A014200F0C7800020E063A4
S31508008910F07840F04000F07000F0F2F90720386077
S315080089200F20C8F8000005F029F80F98A7496060DD
S315080089300D9838640C9878640B98C8F84C000A9817
S31508008940C8F850000998C8F854000898C8F858009C
S315080089500798CAF800000698CAF804000598CAF8E5
S3150800896014000498CAF824000298086096490398E7
S3150800897008604FF0FF309A490860954800683070E3
S3150800898094480068707094480068B070626AE0693C
S315080089901040EA69336801994B4000990B4001067B
S315080089A0490E01F0010143EA81230106890E01F00F
S315080089B0010143EA81030106C90E01F0010101FA2A
S315080089C002F21A4300F47C7042EA00503060FEF767
S315080089D09BFF00F0A3F9002020609DF8380008B13D
S315080089E000F031F9F07879490968C90304D5C0F36C
S315080089F0C00109B120212162396C890703D5C10755
S31508008A0044BF0221F960396C490704D5C0F3400117
S31508008A1009B10421F960396CC90704D5C0F380018E
S31508008A2009B10121F9603168D8F84C2012F0E00F3D
S31508008A3005D0CA0503D5694B4FF480521A60D8F899
S31508008A40502012F0E00F05D04A0403D5634B4FF4CB
S31508008A5000521A60D8F8542012F0E00F08D0AA691C
S31508008A6021FA02F2D20703D55C4B4FF480421A6012
S31508008A70D8F8582012F0E00F07D0EA69D140C907A4
S31508008A8003D5564A4FF40041116040F08000F0705B
S31508008A9011B0BDE8F04FFFF7F9BDB9F1000F7FF44B
S31508008AA037AFDAF818004849DFF838B1400840000F
S31508008AB0CAF818004448806840F00400886040F20C
S31508008AC00721BBF80000884202BFBBF802004FF23C
S31508008AD00F01884205D14CF23C30ABF802004FF04A
S31508008AE00109012004F084FFB9F1000F03D04FF209
S31508008AF00F00ABF8020011E700F0BBF80446A5200A
S31508008B0000F0AEF800F0FCF8FFF7C0FD364D2E6811
S31508008B10286840084000286000F0F8F8334FD7F876
S31508008B200080386820F04000386000F0EBF8C7F89D
S31508008B3000802E6000F0EAF80CB100F084F811B05D
S31508008B40BDE8F04F00F0EAB811B0BDE8F04F40F2CA
S31508008B503C410FF2A400FDF77DBE204A126870471B
S31508008B60134ACBB21360C1F307235360C1F307411D
S31508008B70916000231E490B601368002B04BF5368DD
S31508008B80002B01D192681AB10A6842F001020A6004
S31508008B900A6842F400720A600A6842F080020A60B3
S31508008BA078E51449DCE70000F47200200400004070
S31508008BB008BC004014A0004000000000044000402B
S31508008BC09807080814A8004008ED00E000E100E056
S31508008BD008B0004008B2004008B4004000E200E0D7
S31508008BE080E200E00000002094ED00E000800040F4
S31508008BF02000004000404000736C6565702E6300DD
S31508008C0003480188034808237F22FBF77FBE00BF7D
S31508008C10D2D603080C7A00202D480068C00701D474
S31508008C202C4870472C48704780B5FFF7F5FF2B494D
S31508008C30096801B9400802BD80B5FFF7EDFF400895
S31508008C4002BDFCF734BF2648012181604EF6BE21DD
S31508008C504160012101607047224901200860704780
S31508008C60A52805D11E484DF6AD6141600221016077
S31508008C7070471B480068C00701D5012070470020CF
S31508008C80704780B51849194A1020086018491948CC
S31508008C90007858B103280CBF00200120106040F668
S31508008CA0510008600020FDF720F906E00220106058
S31508008CB04FF400600860FCF7B3FE07210E48016018
S31508008CC00021016410200D490860002002BD000043
S31508008CD01C400040001BB70000366E0120400040D3
S31508008CE0006000400860004080E100E008000040A5
S31508008CF00C600040B57F002014A0004000E100E0B1
S31508008D0072B6704700BF30BF00BF7047BFF35F8FB2
S31508008D10BFF34F8FBFF36F8F7047000062B670477F
S31508008D20DFF8D002016C41F4C04141F00901016449
S31508008D304FF6FF7101602020DFF8BC12086070470B
S31508008D4070B5002815461E4638D0012835D1132996
S31508008D503CBF0FF2DC20095C08096422504301F08D
S31508008D600F010B2903DA884006E00A2250430A4617
S31508008D70511ED2B20B2AF8DA01460120FDF7E1F8B6
S31508008D80E0B9300907280CBF00200220012D08BFD2
S31508008D9040F0180003D0022D08BF40F0080006F086
S31508008DA00F0102299549A8BF40F0040088600120F8
S31508008DB00860FFF7B5FF002062BD212062BD38B507
S31508008DC0040012D18E480468608828B140F2AB21AD
S31508008DD00FF25420FDF73EFDA188C9B2A01D00F090
S31508008DE00BFB0020A080208031BD012802BF8348EC
S31508008DF0006801280FD1FEF787FD054681480168FE
S31508008E0041F006010160012000F09AF82846BDE805
S31508008E103240FEF77FBD31BD012804D1794801688B
S31508008E2021F006010160704780B50B46114620B94E
S31508008E30184600F0E1FA002002BD012802BF724878
S31508008E408269012A07D0212002BDC2685207FCD5D3
S31508008E5013F8012B02600A46511ED2B2002AF4D139
S31508008E60C1684906FCD5E6E710B50446FFF7F4FEE7
S31508008E70012C03D1674800684006FBD510BD70B5C4
S31508008E80624A634B12680CE0158810F8014BAD185E
S31508008E90AC7114881D8800F06DF814809488641CE1
S31508008EA094800C46611EE4B254B194885A4D2D88BC
S31508008EB06D1EAC42E8DBBDE870402321002079E056
S31508008EC070BD2DE9F84304465048DFF84491DFF8B1
S31508008ED048814D4F254650F8256014E0B18838F88A
S31508008EE01520521E91421CDA3188891988713088FA
S31508008EF039F81510401C90FBF1F201FB1200308086
S31508008F00B088401CB080F868800716D5F86810F05D
S31508008F1038013868E2D0080705D4C80605D52421E3
S31508008F2007E0232105E0272103E088064CBF252119
S31508008F300121204600F03EF8E5E7BDE8F1837047D9
S31508008F4070B52F49354A51F820102F4B0CE04C8844
S31508008F506418A4791C604C8832F8105000F00AF89E
S31508008F604C808C88641E8C808C8814B1DC686407FD
S31508008F70EDD470BD641C94FBF5F605FB16447047EA
S31508008F80704738B51B4C0FE046F22970054225603C
S31508008F9003D0A9B20120FFF794FF41F6D600054297
S31508008FA01CBF0120FFF7CCFF2068216C11EA0005E1
S31508008FB0EAD131BD30B5154A194C52F82020055D65
S31508008FC0184B25B9128823F81020015530BD33F8FF
S31508008FD0103013800155138851888B4205D20E4CE8
S31508008FE034F81000401A181800E0581A908030BD5E
S31508008FF00000000008A8004000E100E054C8004056
S31508009000583B002048A800403CC80040683B002068
S31508009010EC98000848C80040B0C70308E498000860
S315080090200071002004710020756172742E630000BF
S31508009030306090C0C1C2C394C495C55C96C6AC974F
S3150800904098990D002DE9F041454C464EDFF81881F8
S31508009050002020654FF40055356002202060E56049
S3150800906000202065206D40F0600020650E2000F08D
S315080090701DF888F800004FF48047002060653760C7
S3150800908004202060E76016203849086000206065E3
S31508009090606D40F060006065162000F007F888F8FB
S315080090A00100334805600760BDE8F0810E2802D04C
S315080090B0162802D009E02F4800E02F4800688009EA
S315080090C000F0010080F0010070470020704710B5DD
S315080090D023484FF40051C160022101600E20FFF7BA
S315080090E0E5FF214C227801468A4218BF21700DD12E
S315080090F0501E8041C00F20700E20217805F088F898
S315080091002178481E8041C00F20702178BDE81040A4
S315080091100E2005F07DB810B511484FF48041C160A6
S31508009120042101601620FFF7C1FF0F4C6278014643
S315080091308A4218BF61700DD1501E8041C00F607001
S315080091401620617805F064F86178481E8041C00FE2
S3150800915060706178BDE81040162005F059B8000027
S3150800916014A8004080E100E0A67F002020BC004053
S3150800917000E100E008B2004008B4004010B504461B
S31508009180FEF7C2FB46493020086046490860464952
S3150800919008601020454908604FF20F01200A002890
S315080091A0434808BF240204804180BFF35F8F4148CB
S315080091B000210160416040484049086010BD4048B0
S315080091C00168C90708D53F4A03211170016C49088F
S315080091D049000164012101600168090703D5016C92
S315080091E021F008010164704780B5002000F009F8F5
S315080091F030B9BDE80440FC210FF2DC00FDF72ABBBC
S3150800920001BD2DE9F044304C21680D1A15F01F01F7
S3150800921005D0002852BF6D1A681A00F120052B48A0
S31508009220A5F12006A84224BF2948864203D3EFF3B6
S315080092300880854201D300202DE0FEF765FB8246B3
S315080092402448006810F0010718BF04F0AFFB206837
S3150800925001468D4206D2A84224BFCD2100F8011945
S31508009260F9D206E02038002201E000F8012B8842F6
S31508009270FBD32560304604F09EFBE22001E006F8A9
S31508009280010BAE42FBD30FB104F078FB5046FEF754
S3150800929041FB20682038BDE8F0840B480068704719
S315080092A03020004030C8004030C0004010E0004088
S315080092B0000000201C4000400400FA050CED00E008
S315080092C018A00040D47F0020DC3B0020A82D0020F9
S315080092D0500D002094ED00E06D6963726F2D696E84
S315080092E07465726E616C2E630000000030B522480A
S315080092F001680020002201249440CBB2234213D0F7
S315080093000FF284001D4C30F8120006284CF23C324D
S315080093104FF20F031DD16088984216D12188080A9A
S315080093200B2812DA084612E0521C92B2082AE2D337
S315080093301349088140F201720889904204D1114804
S31508009340D0E90023C1E9002330BD4FF4C060628034
S31508009350EEE740F20725A84201BF618899422188B5
S31508009360A942E5D162800846E2E705480089000A75
S3150800937070470348008970472C0000400000002011
S31508009380EC460020900000200104020401030105B8
S31508009390060007020309010970B5B34C204601F01F
S315080093A051F8D8B9204601F003F8FF28044615D02D
S315080093B0AE490968405C851EE9B2204600F08FFF79
S315080093C00646E9B2204600F098FE2146304600F0EF
S315080093D0F8F82046BDE8704000F044BD70BD03466D
S315080093E00A469FA10420FFE70CB480B502AA00F044
S315080093F03DF801BC5DF80CFB21B103460A4699A16C
S315080094001120F1E7704700B587B0FCF7CDFE0021C3
S31508009410059102465021049100235421039101200D
S31508009420002102910191924900910FF25421FFF710
S31508009430DBFF90488179C37882780391018802918D
S31508009440417901910179009142200FF24021FFF7FD
S31508009450CBFF07B000BD10B504462146824800F090
S3150800946092FF2046BDE8104000F0EEBC2DE9F04F13
S3150800947085B005460C469046002600F07DFAF8B9F8
S3150800948005F005F8E0B1012000F083FC8246BAF148
S31508009490FF0F15D0002100F077FC294601A804F03B
S315080094A0FCFF05469CB900F087F830B9504605F030
S315080094B06CF810B1042000F05BFA504600F0D2FCBC
S315080094C005B0BDE8F08F8DF804200125641C2078CE
S315080094D00028E8D0A0F130010A2905D20A2101FBAB
S315080094E00600A0F13006F1E700F066F80028E4D19E
S315080094F022780025422A01A80ED0442A1AD0462AE4
S3150800950025D0572A0DD0622A3AD0662A2AD06C2A44
S3150800951025D0702A26D0D6E758F8040B8DF8040013
S31508009520D3E758F8041B8DF8041002250904090E20
S315080095304170CBE758F8041B8DF804100A0A4270EC
S3150800954004250A0C8270080E8DF80700BEE758F845
S31508009550041B504600F091FD0028B7D0ADE758F837
S31508009560046BB3E7012358F8041B662A08BF0223D5
S31508009570F2B2504600F063FD002808BF0026ECE76B
S315080095803A4858F8041B00681AF80090CFB2FF2F23
S315080095909CD017F800B00BEB0901C9B2504600F091
S315080095A0ACFD002889D1CDF800B000233A464946DB
S315080095B0504600F0B7FE89E72A4601A9504600F052
S315080095C05ABD2DE9F043122885B080460D4609D0CC
S315080095D03A281DD04FF6FE71884204BF284600F08F
S315080095E0D6F934E02148244F00682E5C08E0284666
S315080095F000F0C4FB2146FFF742FC38682D5C203E8C
S31508009600FF2D24D0F6B2212EACBF20243446EEE737
S3150800961003F03DFB8146FCF7F5F80646FBF717F81D
S315080096200746FBF711F80446FCF7E4F8024610482B
S315080096300FF260010390CDF8109023460F4800689A
S3150800964040880290019600973B20FFF7CDFE2946F9
S31508009650404605B0BDE8F04300F090B900000000B0
S31508009660574600006C700000D83B00209C3800204C
S315080096700C7A002064CB0308A4380020D87900208F
S3150800968042423870424242425742420042424242B5
S3150800969057420000574242575738704200000000B0
S315080096A02DE9F0470446884691469A4600F009F99E
S315080096B0002801BF25460FF22820285C012823D15F
S315080096C0DFF8F06156F82570FEF71EF90021B9801B
S315080096D039807980FEF71EF906EB85000669FEF7E4
S315080096E013F9DFF8D4210021B18031807180A954A3
S315080096F0FEF710F9FFF744FC53464A464146204612
S31508009700BDE8F047FFF71CBB2120BDE8F0872DE92F
S31508009710F84381464C46DFF89C0100EB84008846F6
S315080097200669484600F0CDF808B1012037E0DFF8B1
S315080097308851605D05EB440760B1B8887188884236
S3150800974008D1FEF7E1F8665D00216155FEF7E2F8FB
S31508009750304624E04846FFF7F2FBB088F0B1FEF742
S31508009760D3F871880FF284128919897988F800105C
S315080097704FF6FF78718832F8142000F01EF87180D1
S31508009780B1884144B180FEF7C5F8605D20B1B8885C
S31508009790404504BF3088B880002000E02620BDE898
S315080097A0F28380880FF2301333F81110891A884231
S315080097B001DA0120704700207047491C91FBF2F33B
S315080097C002FB131170472DE9F84F804647460FF202
S315080097D01010385C01288B46164638D135480FF2EA
S315080097E0141950F827400FF2FC0A002514E0FEF77A
S315080097F08BF8A18801B9012522881BF8011B1219CB
S31508009800917121883AF81720FFF7D7FF2180A188A0
S31508009810491CA180FEF77EF83046461EC0B288B1C4
S31508009820002241462046FFF7BCFF0028DFD11DB1C4
S315080098304046FFF7C4FA002517F809000028EFD1BB
S31508009840222005E04046FFF7BAFA002000E0012092
S31508009850BDE8F28F80B501460FF284028A5C012AC0
S3150800986005D1144A52F821108A88002AFCD1FFF73C
S31508009870FBFA002002BD0CB438B504460D46FFF7C6
S31508009880CBFA04AB2A4621460C4804F024FF0FF213
S3150800989050012046415C012907D1064951F82000AC
S315080098A0808810B12046FFF78AFA32BC00205DF89E
S315080098B00CFB0000583B002000710020298E000890
S315080098C07047042806DA0FF21801415C481E8041E9
S315080098D0C00F70470120704780008000000000001C
S315080098E00101000080008000000000008000800068
S315080098F00000000001010000002204F0FFBF000084
S3150800990062F30F2262F31F42401810F0030308D0D7
S31508009910C91A1FD3DB0748BF00F8012D28BF20F856
S31508009920022D130030B414461546103928BF20E915
S315080099303C00FAD8490728BF20E90C0048BF40F880
S31508009940042D890028BF20F8022D48BF00F8012DF4
S3150800995030BC7047C91818BF00F8012DCB0728BFBF
S3150800996000F8012D704770470EB403B07047704772
S3150800997070470CB402B0704700207047002070474B
S315080099807047704770477047704770477047704711
S315080099907047704700207047704770477047704798
S315080099A07047704700207047FAF710BE70B5044636
S315080099B043380FF2800508D0401E012809D9801EB9
S315080099C001280ED9C01F32D02AE0BDE87040FDF745
S315080099D029BF002600E00126FDF724FF0028FAD15A
S315080099E02EBB134E307810BB012030700020FDF7D7
S315080099F027F9452C11D00BD3472C01D003D307E008
S31508009A0040F6010001E040F60200FFF7B7FB04E06C
S31508009A1040F216312846FCF71DFF0020307070BD55
S31508009A202846BDE870404FF44A71FCF713BF70BD75
S31508009A30B17F0020656D6265722D636F6E6669671A
S31508009A4075726174696F6E2E6300000080B500F050
S31508009A5008F880B202BD80B500F003F80002000CD9
S31508009A6002BD38B5FDF750FF2D490C684D68FDF766
S31508009A7051FF45EA044032BD704780B5FFF7FCFF49
S31508009A8028490720086001202749087001BD2DE9EB
S31508009A90F84304460025206810B9FEF7F7FD2AE0CA
S31508009AA0FDF732FF00F02FF8206810F1010F1CBFF8
S31508009AB0401C2060FFF7D5FF21681B4E194F8146D1
S31508009AC000F01CF821684944090C01603570022031
S31508009AD03860386400F01CF80120FFF762F83D642E
S31508009AE0307838B98525FFF7BCFF2168081A48443D
S31508009AF0206000E025602846BDE8F2830C4849440A
S31508009B0089B241607047804608491020086070474E
S31508009B101020084908604046FDF7FCBE000000001A
S31508009B201060004014A00040CF7F002080E100E0D4
S31508009B301860004000E100E010B50C4600F01EF980
S31508009B402018BDE8104000F0BEBF38B50C461546D3
S31508009B5000F014F929462018BDE8344000F0BABFD1
S31508009B6038B50C46154600F009F9255431BD10B52F
S31508009B700C4600F003F9205C10BD80B500F016F81D
S31508009B8000F076F801D1082002BD062002BD38B5DE
S31508009B90044600F0F3F805462046FFF7EEFF4019A5
S31508009BA032BD0121C8E70A460121CEE780B500F09B
S31508009BB0E5F8407802BD80B5FFF7F3FF800B02BDDC
S31508009BC080B500F0DBF8417841F01001417001BD25
S31508009BD010B50446FFF7EAFF00F04AF804D05E2104
S31508009BE00FF27810FCF736FE2046BDE81040062135
S31508009BF0A2E738B504460D46FFF7D8FF00F038F857
S31508009C0004D064210FF25410FCF724FE2A4620469D
S31508009C10BDE83840062198E780B500F054FF0146B4
S31508009C208A0A42EAA2030FF2441003F00F03185CF3
S31508009C304B0700D408B9FF2002BD490605D412F027
S31508009C4003011CBF12F03001801CC0B202BD10B562
S31508009C500446FFF7ABFF00F00BF802D14FF40060A3
S31508009C6010BD06212046FFF767FF00F4406010BDCF
S31508009C7000F00C000428704738B5044600F07EF85A
S31508009C8005462046FFF792FFFFF7F2FF0CBF0620B6
S31508009C900B20401932BD80B5FFF7EEFF30E010B556
S31508009CA00446FFF783FFFFF7E3FF02D14FF40040B6
S31508009CB010BD06212046FFF73FFF00F4404010BDC7
S31508009CC070B5044600F05AF805462046FFF76EFFC1
S31508009CD0FFF7CEFF01D1A81D70BDA81DFFF79CFF99
S31508009CE006462046FFF7DBFFB0F5004F0CBF022003
S31508009CF008207119081A801D70BD80B5FFF7E0FFAE
S31508009D00BDE8024000F0DFBEF8B504460D4616462B
S31508009D10012000F03EF80746FF2F1ED0FEF795F902
S31508009D20A104890C41EA803189B23846FFF73BFF26
S31508009D303846FFF722FF0146384600F025F8314637
S31508009D40384600F0D2F842F20C002040042803D12D
S31508009D5029463846FFF74DFF3846F2BD7061636BFA
S31508009D6065742D6865616465722E63000300070DCE
S31508009D70000000000700090F0D000F15DFF8A416F4
S31508009D80096801EB40107047DFF89C261268815479
S31508009D9070472DE9F041040035D0FDF7B5FDDFF831
S31508009DA08C16DFF88C360E78FF228046FE2EDFF8FA
S31508009DB084061BD100260E70DFF87CC6DFF87C66A9
S31508009DC037781F70002708E007F1010E07F805E04D
S31508009DD0DCF800507A555FFA8EF796F800E00568C9
S31508009DE07745F1DB0EEB050606F8012C1E78A64230
S31508009DF00BD24046FDF78EFD0520FFF7B9FD002181
S31508009E001B20FEF77AF9FF201CE0361B1E70DFF8D0
S31508009E1030360E780F78D3F800E0012507F80E5093
S31508009E20641E056817F805E081F800E0E4B2002C26
S31508009E30F0D17A5500213046FFF7A6FF4046FDF7D8
S31508009E4069FD3046BDE8F08110B50446FDF75CFDB6
S31508009E50DFF8EC150968625C521C6254BDE81040D4
S31508009E60FDF758BD2DE9F041054600F031F80446E6
S31508009E70FDF74AFDDFF8B425DFF8B435DFF8B46539
S31508009E80DFF8BC85FF2D1FD0D8F800106F5C7F1E49
S31508009E906F547F27D8F800E015F80E10394213D111
S31508009EA03168695C002705F80E701F787F1C1F70E3
S31508009EB0FF29376892F800E005F807E0157006BF35
S31508009EC02546FF240D46DDE7BDE8F041FDF722BD36
S31508009ED080B5DFF86C150968415C090603D5FFF7FC
S31508009EE04DFF007802BDFF2002BDB0B504460D4601
S31508009EF0FFF7EEFFFF2818BFFFF7B4FFFF2DDFF8C7
S31508009F00407504D13868215C01F07F0106E02846D7
S31508009F10FFF79AFF3868215C41F0800121542046FA
S31508009F20FFF72CFF0570B0BD0EB478B504460120C6
S31508009F30FFF72FFF0546FFF721FF0646FF2D08BF4F
S31508009F40FF200FD0E1B22846FFF71EFF05A8002123
S31508009F5004E050F8042B06F8012B491CC9B2A142AB
S31508009F60F7D3284672BC5DF810FB70B504460D465B
S31508009F7005F11F000004400D82B0C0B2FFF709FFCB
S31508009F800646FF2E0CD02946FFF7FEFE3CB10120FF
S31508009F9000902B4600223146204600F002F8304653
S31508009FA076BD73B500F0BBF8085C15461E467119F8
S31508009FB0884203DA4FF4B07100F0DAF866B1294640
S31508009FC001A800F0D9F8024606989DF804100090FA
S31508009FD03346204600F001F873BD2DE9F843089C86
S31508009FE0DFF850840546894616461F460BE04A5D4B
S31508009FF00A54491CB142FADBD8F80000BF1B751990
S3150800A00019F800900026FFB2BFB14846FFF7B6FE22
S3150800A0103018F1192029B2BF3E46C6F12006F6B21D
S3150800A020324624B901462846FCF712FDE4E7012C1E
S3150800A03008BF2946F8D00021DCE7BDE8F1832DE901
S3150800A040F04100F06CF882B01600255C88461F4681
S3150800A0500ED07119C9B2204600F04FF808B1182081
S3150800A06007E0009733462A4621464046FFF799FF00
S3150800A0700020BDE8F6810123E1E70A4600E0521C0C
S3150800A0801378002BFBD1521A0223D2B2D7E7F8B5C0
S3150800A090044601F11F00C50402F11F00C0042D0E7D
S3150800A0A0000E05B9012500B90120854223D0854255
S3150800A0B0DFF8806310DA401BC0B2FFF76AFE074676
S3150800A0C0FF2F01D10020F2BD691EC9B2204600F05B
S3150800A0D02BF8316847540EE08A420CD2411EC9B2A9
S3150800A0E0204600F021F804463068205CFFF7BAFEE7
S3150800A0F03168FF2060540120F2BD38B500F00FF832
S3150800A1000D46215C2A462046FFF7C1FF28B129469D
S3150800A1102046FFF739FE002032BD182032BD04461E
S3150800A120DFF804030068704704E0DFF808231268C4
S3150800A130805C491EC9B20029F7D1704711B581B0B4
S3150800A140DFF8E40200680C469DF80410085C8442B7
S3150800A15003D34FF4F47100F00BF8214601A800F080
S3150800A1600BF804469DF80400FFF708FE201816BDF4
S3150800A1700FF2E020FCF76EBB38B504460D46E9043D
S3150800A1802078090EFFF7D0FF207005F01F0032BDBA
S3150800A19080B5FFF7D3FF007802BD10B51446FFF768
S3150800A1A0CDFF047010BDB0B5FFF7B9FF82B0255CCE
S3150800A1B0FF2C03D14FF40271FFF7DAFF05F11F00F8
S3150800A1C00004400DC0B2FFF7E4FD0746FF2F0AD092
S3150800A1D02946FFF7D9FD0095002322460021384677
S3150800A1E000F0A0F83846B6BDF8B504460D46164642
S3150800A1F00120FFF7CEFD0746FFF7C0FDFF2F01D16F
S3150800A200FF20F2BD33462A462021201800F00FF819
S3150800A2102118C9B23846FFF7B7FD3846F2BD0CB467
S3150800A22080B502AAFFF7E0FF02BC5DF80CFB2DE93A
S3150800A230F047804616469946C24600250C460AE06F
S3150800A2403A465046FCF704FC7819BA44401EC5B293
S3150800A250681CC5B2761CA5423CDA3078002839D08D
S3150800A260312818BF32280ED159F8041B0AF8011BE9
S3150800A2703228EDD1681CC5B2AC42A4BF08120AF850
S3150800A280010BE5DA26E0342811D1291D59F8040B0B
S3150800A2908C421FDB0AF8010B010A0AF8011B010CA4
S3150800A2A00AF8011B000E0AF8010BE81CCFE7A0F11B
S3150800A2B0330259F8041B072A38BF303806D3A0F1F1
S3150800A2C04102072A34BF373859F8040BC7B2781940
S3150800A2D0A042B5DBAAEB0800C0B2BDE8F08770B5AE
S3150800A2E000F015F800F004F800EB062080B270BD07
S3150800A2F00646294620464BE700B583B002238DF86B
S3150800A3000420120A8DF805200122009204E00D4669
S3150800A310691C0446C9B23BE70A46014601A8FFF78D
S3150800A32040FE07BD2DE9F541089C1F464CB325465E
S3150800A33089B200A8FFF720FF0646B9B201A8FFF7C1
S3150800A3401BFF07463046B84238BF3846C0F12000E2
S3150800A350C0B2A842B8BF05469DF80400FFF70EFD37
S3150800A36080469DF80000FFF709FDAAB207EB080131
S3150800A3703018FCF76DFB641BA919EF19A4B2002C61
S3150800A380D5D1BDE8F38170B504460D46FDF7BCFA94
S3150800A390294B21781B68FF2908BFED5403D0C9183B
S3150800A3A00E78EE540D702570BDE87040FDF7B2BA10
S3150800A3B038B50446FDF7A8FA2178FF22FF2908BF19
S3150800A3C0FF2507D01C4B1B68CD5C8D420EBF227043
S3150800A3D0EA5CCA54FDF79EFA284632BDF8B504462B
S3150800A3E00D460026FDF790FA2178FF2915D0124B65
S3150800A3F01B680A46012602E0761C3A46F6B2D75C86
S3150800A400AF4208D1FF5CD754A94206D18A4208BF99
S3150800A410FF22227001E08F42EED1FDF77BFA30462B
S3150800A420F2BD0000983800209C380020C83B002068
S3150800A43095380020A4380020A83800209438002039
S3150800A440A03800200078FF2801D10120704700209D
S3150800A450704700007061636B65742D62756666658A
S3150800A460722E630038B544784568FDF74DFA824A7E
S3150800A4700C2161438B585B1BB3F1004F98BF8D507D
S3150800A480BDE83240FDF746BA10B50446FFF7E9FACB
S3150800A4906060042020702046BDE81040E2E738B529
S3150800A4A004460D46FFF7DDFA281860600120207083
S3150800A4B02046BDE83240D5E710B50446207860B19D
S3150800A4C0042806D0FFF7CDFA6168421AB2F1004FA8
S3150800A4D001D8002010BD081A10BD4FF0FF3010BD7E
S3150800A4E070B50446FFF7BDFA0546FDF70DFA0646B0
S3150800A4F060686FF0004100F02CF840192060304683
S3150800A500BDE87040FDF706BA70B504460D46164616
S3150800A510FFF7A7FA002156B1FF22327007E0121A98
S3150800A520AA4202D2154606B13170491C083422687F
S3150800A5300AB9284670BD1378002BF6D0042B04D030
S3150800A5405268831AB3F1004FE9D806B1317000207A
S3150800A55070BD0022D8E738B50446FFF782FA0546EB
S3150800A5600DE0017851B1042904D04168691AB1F1A6
S3150800A570004F03D8042101706168884708342068B1
S3150800A5800028EED131BD10B53B490C2202FB001460
S3150800A590FFF767FA2168401AB0F1004F06D86068DD
S3150800A5A0FFF7D9FF2046BDE8104099E710BD70B502
S3150800A5B0324D3349097804466878884204D3E52140
S3150800A5C00FF2C000FCF746F96E78701C68700C2113
S3150800A5D0294801FB060001214460017200E04E7023
S3150800A5E054F8081B0029FAD1FFF77AFF304670BDE8
S3150800A5F0F8B505464FF0FF300090204C207840B360
S3150800A600FEF73CF828B940F219110FF27800FCF76A
S3150800A61021F9FFF726FA184A0C2101FB0523002524
S3150800A6201D72002305E0009EB54288BF3546009599
S3150800A6305B1C6578DBB2AB420FD201FB032635689B
S3150800A640471BB7F1004F04D9367A2D1A0EB9002DDB
S3150800A650E9D1FEF71BF80020F2BD00A8FFF717FAAC
S3150800A6600120F2BD044A0C2303FB002001210172DC
S3150800A67070470249087070470C480020C57F0020C3
S3150800A68050C503086576656E742D636F6E74726FB8
S3150800A6906C2E6300F8B50446DFF8D003007800286E
S3150800A6A002BFDFF8CC63F06800280D4625D1DFF835
S3150800A6B0C40300780A2818BF022D1ED1FDF724F915
S3150800A6C0B278082A074616DA012D02D190190471C4
S3150800A6D004E0311D701DFCF7BBF93471B078401CDD
S3150800A6E0B0703846FDF716F92046FFF7ADFB01F0C6
S3150800A6F0B3FC0120F2BDFDF70DF90020F2BD80B5CF
S3150800A700FDF7EEFCDFF86803C17829B90121C170AD
S3150800A710BDE8014001F0A0BC01BDDFF854130020DC
S3150800A720C870704770B5DFF844030078002839D13F
S3150800A730FDF7EAF8DFF83843DFF83C530646A07819
S3150800A74060B121792970421EA270611DD2B2201D06
S3150800A750FCF77EF93046FDF7DDF821E03046FDF7D7
S3150800A760D9F8E068F0B9E078022802D004F024F9B4
S3150800A77028702878FF2810D1E07870B1FDF7B1FC71
S3150800A780FDF767FC04F0F7FAFF28287003D0FDF7F9
S3150800A790AAFC00B9E070FDF75DFC2878FF2801D017
S3150800A7A0012070BD002070BD2DE9F04104460D461C
S3150800A7B0FDF70DFAAE4E0020F070FDF7A5F88046BD
S3150800A7C0F06820B14046FDF7A5F8002013E0AB4835
S3150800A7D00078052808BF01F04AFD00F00EF80700CA
S3150800A7E008BFF4604046FDF795F81FB105B1A047CC
S3150800A7F0012000E00220BDE8F08110B5FDF784F8DD
S3150800A8009B499E4B8A781B78C9781A43114305D110
S3150800A8109B4909784C1EA441E40F00E00024FDF78B
S3150800A82079F8204610BD10B59449914C002008705F
S3150800A830FF20914908700020E060FDF70FFF2070A7
S3150800A84000208F4908708F4908704FF4A0518E4830
S3150800A850FFF725FEBDE81040FDF760B82DE9F8437F
S3150800A860854E8A4D81463078FF2808D12878FE28FB
S3150800A87005D04FF4B3710FF22420FBF7EBFF2878CD
S3150800A8807B4FDFF8FC817D4C811F01290DD80521FE
S3150800A8902170494604F01AFD08B900F014F830781A
S3150800A8A0FFF7E0FAFF20307003E087F8019000F028
S3150800A8B00AF82878042804D0F878012804BF02206A
S3150800A8C0F870BDE8F183032020704046FFF7DCBD31
S3150800A8D010B5694C217881420DD10846FFF7C2FAB6
S3150800A8E0FDF712F8FF212170FE21684A1170BDE8B4
S3150800A8F01040FDF70FB810BD38B55D4D69780446B0
S3150800A900FDF7F0F828B969782046BDE8344000F02C
S3150800A910FDBF31BD2DE9F8430446FF2C05D140F2B1
S3150800A920B7110FF27810FBF795FF0320FFF720F811
S3150800A930574D2046FFF73AF900F00C002870FF2023
S3150800A94068702046FFF732F900F00C0008285CD042
S3150800A95028780C2859D12046FFF719F9074600F040
S3150800A960B2F8064606F44C483846FFF755F9C05D76
S3150800A97068704FF6FF794FF44060064206D0F81C1F
S3150800A98000F0A1F8484508BF48F0400806F44060C2
S3150800A990B0F5006F06D1781D00F095F8484508BF58
S3150800A9A048F01008697801294CF6500017D002299A
S3150800A9B018D0042908D0062925D0072925D0082922
S3150800A9C018D07C2911D04FE0B8F5484F18BFB8F514
S3150800A9D0084F49D12046FDF70BF8002811E0B8F5D5
S3150800A9E0484F0EE0B8F54C4F0BE0B8F54C4F0CD07D
S3150800A9F0804506E04CF64040804535D11D48007834
S3150800AA00052802D030E080452ED12046FFF7C9F848
S3150800AA1005462046FFF7CAF800F00C00082816D0AD
S3150800AA20A80614D54FF6DF7000EA05012046FFF7A1
S3150800AA30BAF82046FFF7A1F805462046FFF7A7F81B
S3150800AA40FFF7EAF84119C9B22046FFF756FB214637
S3150800AA501048FFF798FC2046FFF7F6F90E480078ED
S3150800AA60BDE8F243FFF7FEBDBDE8F183957B002004
S3150800AA702C7C0020E33B0020083C0020A07B002023
S3150800AA80A47B0020387A0020687D0020013C002045
S3150800AA90E37F00200C3C0020CD7F00206D61632DF4
S3150800AAA0617262697465722E6300000030B5531EC8
S3150800AAB0002404E0DBB25D5C25545B1E641CE4B232
S3150800AAC09442F7D330BD41780078FFE700EB0120C8
S3150800AAD080B270470170090A4170704710B50023AB
S3150800AAE0002814BF1C46C3F10304E4B25B1C62547D
S3150800AAF0120A042BF4DB10BD30B54A788B78CC7873
S3150800AB00097818B120461D460C4602E01546084647
S3150800AB101A4645EA002044EA022141EA004030BDCF
S3150800AB20D2B2203A22BF00FA02F100207047524200
S3150800AB30D041D2F1200291404140D040904041405E
S3150800AB407047000038B5DFF8801C0020087004F054
S3150800AB502AFC04F0FFFE04F0DAFF01F0A9FC05F078
S3150800AB6077F802F02DF90024DFF8605C09E020464A
S3150800AB70FDF76FFA05F08EF805F090FBFDF76AFA17
S3150800AB80641C2878E4B28442F1D320E038B5FDF796
S3150800AB9028FA04460025FF2C08D0FDF75AFA02F0D9
S3150800ABA0EDF800B90125FDF755FA4DB904F0FBFBA0
S3150800ABB004F0D0FE01F07CFC05F04AF8FF2C00D02A
S3150800ABC00DB102F0FDF805F065F805F067FBBDE884
S3150800ABD0314005F01DBEDFF8F80B0068407B1128F0
S3150800ABE01CBF4328412801D1012070470020704727
S3150800ABF010B50446FEF7CBFF801CFFF764FF4FF63F
S3150800AC00F87188422046A4BFBDE8104000F005B898
S3150800AC1000F05CF800F057F910BD2DE9F041044644
S3150800AC2004F064FE002837D100F046F94FF6FF75A8
S3150800AC3005D24188A9422FD02046FEF7DAFF002325
S3150800AC4000220221204604F0F9FE28B32046FEF72A
S3150800AC509EFF0646F77906F057F9804606F054F93E
S3150800AC604246394604F050FE20B9BE210FF23C2078
S3150800AC70FBF7F0FDB01CFFF726FFA84204BF2046ED
S3150800AC8003F056FE30780321084203D101212046FD
S3150800AC9001F0A6F9012000E00020BDE8F08138B5F2
S3150800ACA00446DFF8640C0068205C851AEDB2681A61
S3150800ACB080B2009053189BB222462046FFF732FB1B
S3150800ACC029462046BDE83440FFF717BA2DE9FE4F5E
S3150800ACD0002582460195FEF75AFF0646301DFFF706
S3150800ACE0F2FE0746B01CFFF7EEFE8046307800F00D
S3150800ACF0C00002903846FDF7DBF88DF80200FF2801
S3150800AD0014BF4FF00109A94630780321084208D13B
S3150800AD1006F0FAF8874202D05FEA090402D0012455
S3150800AD2000E00024B079002873D006F0EDF88045DD
S3150800AD300BD106F0E9F8834600225946504600F042
S3150800AD40C7F8002865D00020AEE000F0B5F838BF97
S3150800AD50B0F802B0F0D3404601F088FD20B950465D
S3150800AD60FEF71FFF400514D570784007C346E3D5A4
S3150800AD70504606F0C6F900F093FC401C4200D2B2D9
S3150800AD8029465046FFF78BFF707800F0FB0070707D
S3150800AD90D2E7707840071CD5504606F0B2F900F0A5
S3150800ADA07FFC06466F1CF9B200F07CFC002E18BF2B
S3150800ADB0FF2806D10022F9B25046FFF7EEF9C3463E
S3150800ADC0BAE705EB4000811CC9B25046FFF787FA7F
S3150800ADD0B1E701AA00A9404604F096FC8346DCB117
S3150800ADE00298802804D0402816D19DF8000098B112
S3150800ADF0307800F03F003070384601F037FD10B962
S3150800AE0006F082F807463A460021404606F0DEFB81
S3150800AE10002848D0012047E00198B8B304F0CBFBDE
S3150800AE208DF801000198007900F0300002909DF835
S3150800AE300100FF2805D140F223110FF27000FBF73D
S3150800AE4009FD1CB30298102811D020281ED1B9F18B
S3150800AE50000F07D09DF802109DF8010004F0BCFC15
S3150800AE60A0B904E0019800790C2108420ED0F379C4
S3150800AE705A464146384606F001FF0198007901997D
S3150800AE8000F0F30040F00400087101259DF8000069
S3150800AE9028B10121404605F026F920B1C346002D08
S3150800AEA08ED0302249E70220BDE8FE8F6E657477A2
S3150800AEB06F726B2E63000000DFF814090068017BCF
S3150800AEC0C91E03297047401E8041C00F70470022E3
S3150800AED0F8B504460D461646FEF759FE007800F00A
S3150800AEE0DBFB0CBF0127002729462046FEF781FE1B
S3150800AEF006F00AF8854217D0284601F0ACFC50B98E
S3150800AF00DFF8C00A01783246204601B0BDE8F040B5
S3150800AF10002304F093BD6FB905F0F6FF002322461F
S3150800AF20294607F002FB28B10121204601F058F80E
S3150800AF300120F2BD2046FEF734FE400505D5204621
S3150800AF40BDE8F4400021FFF7A5BB2046FCF7F0FC5E
S3150800AF50FFF7B9FFF2BD2DE9F041044616468846CB
S3150800AF60304606F09BF907463046FEF706FE3E1ABF
S3150800AF70F6B23719A8EB060292B2394607F10E0067
S3150800AF80FBF766FD28203870DFF84458286890F8E3
S3150800AF902000787305F090F90246791C0120FFF726
S3150800AFA09DFD0822DFF86C1C781DFBF751FD28680B
S3150800AFB090F8200008F01CF908F10E01334600222B
S3150800AFC0C9B2204605F099FB1220BDE8F0812DE9AB
S3150800AFD0F04F85B080460D4606F060F98246404639
S3150800AFE0FEF7F6FD81464046FEF7C7FD07460AF11D
S3150800AFF00E0189B2404606F09CF8002852D000207F
S3150800B00000900E235246414601A8FEF7CAFF0DF1ED
S3150800B01005010120FFF770FD83469DF804009DF8A1
S3150800B020114028283ED10822DFF8E81B0DF1090057
S3150800B030FBF758FDB0B3DFF8E06B204608F0D8F808
S3150800B04058B9306890F82000201AC0B280280DDA66
S3150800B0500021002008F0F0FB08E001200090002302
S3150800B06052463946404605F07DFBD8B1404606F0C3
S3150800B0702CF849460DF1090009F0A5FCFE28824680
S3150800B08010D0FF283CD1484604F05BFE8246BAF150
S3150800B090FF0FDFF8887B0BD00DF1090105F047F8A3
S3150800B0A0387868B300211920FDF727F80020F0E268
S3150800B0B000F0FBFA0AD1404606F0F0F80146404691
S3150800B0C0FFF766F8082801D10120F0E7387800284C
S3150800B0D0E8D1306890F82D1090F82C00814206D3FC
S3150800B0E0A81CFFF7F0FC4FF6F8718842DADA0DF182
S3150800B0F00901484604F077FF484604F022FE8246D6
S3150800B100306890F82000844205D02146012007F0D7
S3150800B1107EFE0028C6D0306890F82000844203D10D
S3150800B120504609F0BEFC28B95946504609F034FC89
S3150800B1300028BCD05946504609F03EFCC4E738B54D
S3150800B140DFF8E00AFFF734F90446FF2C1DD0DFF8D4
S3150800B150D85A0321FEF70BFD287004212046FEF776
S3150800B16006FD687005212046FEF701FDA87001203E
S3150800B17002F02EFA204600F009F82046FEF772FE85
S3150800B180BDE83240002002F023BA31BD38B5044686
S3150800B190FEF70CFD00F00C052046FEF70CFDFCF74B
S3150800B1A058FF2046FEF702FD00F040FD32D101F0BF
S3150800B1B0E5FD18B1204601F009FE75E006220021DA
S3150800B1C02046FFF76CFD2046FEF7D8FD02F059FA37
S3150800B1D08DF801008DF802409DF8010048B9204617
S3150800B1E0FEF7CCFD01460DF1010002F07EFA8DF85E
S3150800B1F000009DF80100802804D100A809F087FC0A
S3150800B200002851D1FCF720FF00A8FEF7BEFBFCF78B
S3150800B21021FF49E0042D204617D1FEF7C2FC0005A0
S3150800B2201ED402200021FCF768FF01F0A7FD08B133
S3150800B230042D39D00C2D15D12146012009F075FCB5
S3150800B24090B3204608F078FD2EE0FEF700FDB0F535
S3150800B250006FE6D12046FEF71EFD00F0B5FBE0D1F3
S3150800B2600020DFE71DB9204608F01CFF1CE0042D6E
S3150800B2701AD1DFF8A4090568687B02280CD0FFF705
S3150800B280AAFC48B9687B332818BF312804D001289E
S3150800B29004BF287B052807D12146022009F045FC72
S3150800B2A010B1204600F004F8FCF7D4FE31BD0000CA
S3150800B2B02DE9F04F85B08246FEF769FC05465046F3
S3150800B2C0FEF786FCADF80600281DFFF7FCFB834653
S3150800B2D0A81CFFF7F8FBADF80400284605F0FDFFAB
S3150800B2E003904FF6F87200F0E0F9687800F0020172
S3150800B2F0029100F00100BDF8041004900CBF01276C
S3150800B30000279142ACBF4FF001084FF000085046A5
S3150800B31005F0C4FF8146287800F03C01082943D18E
S3150800B320DFF8E41509681AF8011089453CD217B9FF
S3150800B3300321084238D10298DFF8DC4848B1206872
S3150800B340C07E002830D029465046FFF740FE002828
S3150800B3502AD02FB15146032009F0E7FB002823D055
S3150800B360494600F09FF90646029878B92068C07EDB
S3150800B37060B1BDF80400009005F0C6FD0099814251
S3150800B38012D197B1062E18BF072E0DD12068417B22
S3150800B390022956D1029911B9C07E002851D1BDF8AB
S3150800B3A0060009F004FD60B173E106F00300012808
S3150800B3B0ECD04A462946504600F0A6FD0028E5D1BD
S3150800B3C067E1BDF80600009005F09EFD00998142F0
S3150800B3D011D12068007BC01E032808D205F094FD11
S3150800B3E00146206840880D2209F01EFD51E1012022
S3150800B3F009F0F2FB4DE1BDF8060001F037FA70B925
S3150800B40005F08AFD4FF6FF71884208D0DFF8040C74
S3150800B41000780A2804BFBDF8060004F025FC039945
S3150800B4200122584609F001FC0028E3D1284605F018
S3150800B43047FF0146BDF80400002209F0F6FB002884
S3150800B440D8D1BDF804004FF6FC71884266D1206851
S3150800B450007BC01E0328CDD3A87908B1401EA87169
S3150800B460687840072AD50020029002AA00A9584603
S3150800B47004F04AF9029808B304F09DF80446BDF8AA
S3150800B4800400FCF715FD0299097901F03003102B29
S3150800B4901CBF01F00C02082A03D0029A01F0F3013E
S3150800B4A011710299097901F03301202906D1FF2883
S3150800B4B004D001460122204604F077F9BDF80600BB
S3150800B4C0FCF7F6FCFF2804D0DFF84C2B12680021A5
S3150800B4D0815409F10104049840EA0800C0B2002822
S3150800B4E074D1E979584604F09FFB09F019FB08B1B5
S3150800B4F0039820B1BDF80610584600F0CAF905F0C1
S3150800B50003FDBDF80410884260D0084601F0AEF984
S3150800B51070B177B1012E1BD1002267E04FF6FD719D
S3150800B520884299D12068007B001F022894D2B0E097
S3150800B53077B9BDF8040001F08EF948B1BDF80410DA
S3150800B54000235246584606F0F0FF002840F09D803A
S3150800B550DFF8C80A007848B9584601F087F928B9CB
S3150800B560BDF8040001F082F90028E0D0C7B1052E25
S3150800B57016D105F0C9FC8DF8000005F0C5FC000AD7
S3150800B5808DF80100022200A95046FEF774FD002836
S3150800B5901BD1E1B25046FEF7D1FD0178491C017076
S3150800B5A0687840070AD5504605F0ABFD411CC9B27C
S3150800B5B05046FEF7C3FD0178491E01705046FFF755
S3150800B5C085FB00211C20FCF798FD62E0002F4ED079
S3150800B5D0701E09285DD8DFE800F005050E1319303E
S3150800B5E0393F4343022E0CBF0122002249465046EA
S3150800B5F006F0CCF94DE04946504609F049FC48E0CA
S3150800B6004A465146584609F07EFD42E0E1B200F04E
S3150800B61049F80546DFF8087A03983860FCF714FD00
S3150800B62009F10200C0B20090534639682A465846C6
S3150800B630FEF7AFF9FCF70EFD2BE0CDF800902B4690
S3150800B64052460021012008F000FA22E04A465146F7
S3150800B650012008F0CAFA1CE0504609F0F0FE18E08E
S3150800B66050460AF04AF8B8F1000F12D009E00498DB
S3150800B67020B1287A00F010F80BD102E0B8F1000FDB
S3150800B68003D0504600F016F803E00021504600F0BB
S3150800B690A7FC05B0BDE8F08F00F00300012870474D
S3150800B6A0054629465046FEF773BD287800F0030084
S3150800B6B0012870472DE9F84F8046FEF768FA0546D7
S3150800B6C04046FEF785FA0446281DFFF7FCF9814631
S3150800B6D0A81CFFF7F8F9834695F807A0204601F05D
S3150800B6E0C5F807462946404600F074F80646022E75
S3150800B6F061D022465146484604F0C3F800285AD17C
S3150800B70005F002FC814556D0DFF81809007860B9C3
S3150800B710012E06D009F004FA18B1284605F0DDFD19
S3150800B72018B12146484600F0B4F822465146484624
S3150800B73004F0EAF800283ED028780321084203D10D
S3150800B7400021404600F04CFCA879A0B300F035F87B
S3150800B75031D36878C00715D52C7A58460AF0FDFA11
S3150800B76040B1E10804F0E00001F01C01084340F094
S3150800B770010006E004F01C001C2803D005281ADB8B
S3150800B780201F28724FF6FF7529464046FEF731FA04
S3150800B7900FB1002203E0FCF761FF00F03F0200232F
S3150800B7A00221404604F04AF9AB4504D14046BDE8BB
S3150800B7B0F24F03F0BDB8BDE8F18FDFF85C0400680E
S3150800B7C0007BC01E03287047F8790020E038002067
S3150800B7D0D8790020F0B587B00446087803210842D6
S3150800B7E054D12146042009F0A0F900284FD020465C
S3150800B7F005F054FD014600F084FB0321084245D1BB
S3150800B800204605F04BFD0546294600F07AFB0FF663
S3150800B810380248CA05A948C10321084236D1002082
S3150800B82000906A1C0523D2B2214603A8FEF7B9FB8D
S3150800B830052203A905A8FBF761F938BB204605F0E0
S3150800B840B0FD0546A91C00F05BFB0646691C00F026
S3150800B85057FB00EB062605F10B0100F051FB0746E6
S3150800B86000200090EA1C0823D2B2214601A8FEF760
S3150800B87098FB2046FEF7ACF93A46B1B209F04DF905
S3150800B880012201A9B0B209F0D0F900E0002007B002
S3150800B890F0BD38B504460D4600F0E8FF002818BF8D
S3150800B8A0AC4206D02046FCF703FBBDE8324001F067
S3150800B8B06FB831BD10B5192241A10320FEF759F81A
S3150800B8C0DFF854432068417B022918BF032901D0B9
S3150800B8D0932010BD007BC01E032802D209F019F977
S3150800B8E008B1702010BD0AF077FA2068407B03285B
S3150800B8F005D10021012007F09FFF012010BDFEF7AA
S3150800B900FEFE002010BD00009C3800202DE9F04105
S3150800B91080460D4600260DB9012602E0312D08BFE6
S3150800B9200025FEF743F900F081F913D101F026FA54
S3150800B93080B9DFF8F46686F80080FCF785FB404698
S3150800B940FEF7C6FA2946FEF721F8FCF783FBFF2027
S3150800B950307032E0DFF8D4764046FEF727F90C213E
S3150800B960084205D13978BDE8F0410120FCF7C5BB8E
S3150800B97003244046FEF76BF9B0F5006F07D1404641
S3150800B980FEF789F900F020F808BF012401D005B1B7
S3150800B990052439782046FCF7B0FB2946404603F0D3
S3150800B9A039F850B92946404604F0C8F828B932464D
S3150800B9B029464046BDE8F0410AE0BDE8F0810000AE
S3150800B9C042000000F43B00204FF6FF7188427047A2
S3150800B9D02DE9F04F83B007460E461446FEF7E6F803
S3150800B9E000F024F908D101F0C9F928B122463146F8
S3150800B9F0384601F0ECF907E1DFF81C823846FEF715
S3150800BA00D5F800F00C000C2838465AD1FEF7BFF8D6
S3150800BA108246FEF701F950444FF0FF090178DFF836
S3150800BA200856012906D0022912D0042924D07C29D7
S3150800BA3039D0E9E04EB99AF804009AF8031001EBF8
S3150800BA40002080B205F06CFADEE008F0F6FADBE0DA
S3150800BA50002E04BFC178002908D18278407800EB0F
S3150800BA600220394680B207F0BEF892E00AF10501D5
S3150800BA70002000F0D4FD92E0D8F80000407B0228B0
S3150800BA80E5D11EB90AF03EFA04B931263346222218
S3150800BA9063A10320FDF76DFF2F70FCF7D5FA30463A
S3150800BAA00AF09BFA08E02F70FCF7CEFA3846FEF744
S3150800BAB00FFA3146FDF768FFFCF7CCFA85F80090D7
S3150800BAC0A2E0FEF764F80446201DFEF7FCFF814657
S3150800BAD0A01CFEF7F8FF05464FF6F87B5D450BDA26
S3150800BAE0D8F80000B0F84410491CA0F844101EB15C
S3150800BAF044304188491C4180207800F0030101291F
S3150800BB0050D1384605F0CAFB01463846FEF740FBD9
S3150800BB10042802D0072804D076E0384609F0DEFB70
S3150800BB2072E0204605F0CCFB00286DD001460020C7
S3150800BB3000F075FD0446384605F0B0FB002100917B
S3150800BB40421C0323D2B2394601A8FEF72AFA002E70
S3150800BB5002BFD8F80000407B02281FD101A88178CF
S3150800BB60E1B940789DF8041001EB00252046FF282E
S3150800BB700CD0DFF8BC14096831F810204FF6FF33F3
S3150800BB801A4021F81020A9B200F0C9FEA8B203F0A5
S3150800BB902AFD00211020FCF7B0FA35E0204600F017
S3150800BBA0F7FE31E0032108422ED105F0ADF98145B3
S3150800BBB004D03846FDF7F5FFC00606D5002E0CBFA3
S3150800BBC00021662138460AF0AFFCEEB15D451BDA66
S3150800BBD0607810F0040606D1284603F0BBFD07007E
S3150800BBE002D0012700E00027284600F034FE10B1F5
S3150800BBF0062267B904E00EB10B22FAE737B902222A
S3150800BC002946484609F010F9BDE8F78F0C2249463F
S3150800BC102846F7E70C7A0020D8790020E97F00202B
S3150800BC20424200000C3C0020D67F002000F00C00A9
S3150800BC30082870472DE9F04F044685B094F800A00F
S3150800BC405046FDF7B8FFFCF704FA01F097F8B0B1D3
S3150800BC50A079012805D1DFF8DC03017841F001015C
S3150800BC600170207801F0B4F8002840F0D0806078A0
S3150800BC7000F0F0006070FCF7EDF9002009E5504689
S3150800BC80FDF785FF0646301DFEF71DFFADF80000DF
S3150800BC90B01CFEF718FF8146504605F0FFFA8346AA
S3150800BCA05946FFF7FFFC8DF802003078FFF7F4FCE1
S3150800BCB00CBF9DF80250FF25FDF7C8FEA188401A63
S3150800BCC01FFA80F805F020F9BDF8001088420CBF6D
S3150800BCD001270027084609F06AF80028C7D1484610
S3150800BCE009F065F820B1484600F0C0FD0028BED02E
S3150800BCF0FFF763FD21D2062D18BF042D62D05A46E0
S3150800BD003146504600F000F9B8B9FEF764FF20B195
S3150800BD109DF80200FFF7C0FC0FD000F0BEFF002818
S3150800BD204DD005F0F1F80146301DFEF7D3FEC248A6
S3150800BD30006841885046FDF75CFF012D42D1504608
S3150800BD40FDF746FFFFF740FE3CD1002300F0B3F8AD
S3150800BD5005008CD06A799DF80D00824207D20BF156
S3150800BD600501C9B25046FEF718FA00F09EF8FCF72E
S3150800BD7075FC7E2190FBF1F17E2202FB110000F595
S3150800BD808070608018219DF80E00084212D06078F5
S3150800BD900F21084208BF002F0CD1FCF755F9304691
S3150800BDA005F09BFA01466A79BDF80000FDF7F4FD37
S3150800BDB0FCF750F9FCF74EF99DF80F005EE72820CE
S3150800BDC0608058E74FF6F870814502DA7078C00748
S3150800BDD021D5FFF7F2FC1ED340F6B93080455CDA70
S3150800BDE0FCF73CFC00F03F00C0F5FA706080607814
S3150800BDF000090CD05FB9F179BDF8000003F037FDF2
S3150800BE0000281EBF80884FF6FF718842A1D0FCF734
S3150800BE1021F9012032E7022D26D1012300F04BF843
S3150800BE20054605F071F80146BDF80A00814202D0C0
S3150800BE3000F01CFD58B3002D8BD06B8801225946A3
S3150800BE40504605F04EFD7C480068417E491C417607
S3150800BE50F171BDF806006988884201D000F025F81E
S3150800BE604FF4C8706080D2E7032D10D17FB10BF173
S3150800BE700101C9B2FFF716FC0C2808D104F0C7F96E
S3150800BE80FFF7A2FD03D001465046FDF7B2FE6078E3
S3150800BE9000097FF4ECAEB8F1FB0FBFF6E8AEFCF78D
S3150800BEA0DDFB00F01F001030DCE7607800F0F000E2
S3150800BEB0801C6070704701AA5946504605F043BC7D
S3150800BEC070B5044600F05AFFC0B92046FDF75FFE7C
S3150800BED00546204605F0E2F9014600F012F8064646
S3150800BEE02046FDF775FE4FF6F871884204DAFFF72B
S3150800BEF0DCFB08BF022E01D1012070BD002070BDF9
S3150800BF00C9B22046FEF744B9F8B5044615460846B0
S3150800BF10FEF7D9FD20F4007041F20801884218D1D5
S3150800BF2046480068205C401B072812DB00260FF2F3
S3150800BF3020177119FFF7E4FFF15D814203D0022E45
S3150800BF4008BF002805D1761CF6B2072EF1D30120CA
S3150800BF50F2BD0020F2BD2DE9F04180460C46FDF702
S3150800BF6025FEFFF763FE31D0201DFEF7ACFD054622
S3150800BF70E6794046FDF72CFE07464046FDF711FEDA
S3150800BF8000060FD52C480068017B091F022909D233
S3150800BF90417B022906D140884FF6FF71884218BFB7
S3150800BFA0FCF7A3F8A01CFEF78EFD4FF6F871884241
S3150800BFB002DA6078C0070BD520780321084205D13C
S3150800BFC03A463146284603F05CFC05E0012005E0C8
S3150800BFD03146284603F014FEFEF775FFBDE8F081EA
S3150800BFE010B5044641B1FF220321FDF7B9FD002231
S3150800BFF004212046FDF7B4FD21461148FEF7C3F992
S3150800C0002046FDF721FF0F480078BDE81040FEF7EF
S3150800C01029BB0000E33B0020BC380020AC380020D8
S3150800C020E8790020FE7C0020D43B0020ED7F00202C
S3150800C030B8380020A17B0020D87900209C38002041
S3150800C040F03B0020CD7F0020001300000000000018
S3150800C05000FF01400EC0FF0010B5DFF8200400689D
S3150800C06098B9FBF751FC0446DFF814040178002957
S3150800C07018BF052904D1032100F8041BFEF704FAAA
S3150800C0802046BDE81040FBF745BC10BD2DE9F0473A
S3150800C090DFF8F043DFF8E85327782978DFF8DC8300
S3150800C0A0002028710FF2004051B9D8F8004014B9A1
S3150800C0B09D21FAF7CFFB0020C8F80000A047B1E0A1
S3150800C0C003291CBFA321FAF7C5FBFF26FF2F2670FD
S3150800C0D00CD03846FDF76FFDFBF7BBFF3846FEF779
S3150800C0E00BFC3846FDF7BEFEFBF7B4FF0020687070
S3150800C0F0FEF718FB002800F0838020780127FDF75B
S3150800C1005AFD8046FBF7A5FF2078DFF87C93FDF7FC
S3150800C1104DFD00F00C000C2816D12078FDF737FDF0
S3150800C1208246FDF779FD99F8001010F80A000529EE
S3150800C13002D1062808D106E001291CBF03290829CF
S3150800C14002D1072800D100272078FDF72FFD00F03F
S3150800C1500C00082804BF99F80000082834D09FB3BB
S3150800C16000F00CFE88B12078FDF720FD00F00C00E9
S3150800C17008280AD1207800F03AFEC44F3968887337
S3150800C180207800F03CFE3968C8734046FBF77EFF0E
S3150800C190D0B141212078FBF7A5FC18B920784121B8
S3150800C1A0FFF7B4FB2078FDF75DFE2670FBF7ACFBC6
S3150800C1B0064603202870281DFEF766F93046FBF769
S3150800C1C0A9FBFBF7FCFE17E0207800F08AF8044686
S3150800C1D06878AF49C0074EBF0020AE48007808709F
S3150800C1E0FBF792FB06460120287001212046FBF743
S3150800C1F095FF3046FBF78EFBBDE8F047FBF72ABFF5
S3150800C200FBF782FB064600202870D8F8000010B11C
S3150800C210281DFEF739F93046FBF77CFBBDE8F047E9
S3150800C220FBF7CDBEBDE8F08780B5954801780129B2
S3150800C23004D0022906D004290BD010E0BDE801403D
S3150800C240FCF717B8F9F74DFABDE802403120FEF7BA
S3150800C25005BB05210170BDE8014002F0CCBFBDE871
S3150800C26004404FF4B4710FF24020FAF7F3BA38B528
S3150800C270FBF74AFB824D04462878052803D040F28E
S3150800C280771100F02AF8002028707C48006810B161
S3150800C290281DFEF7F9F82046BDE83240FBF73ABB01
S3150800C2A070B50446FBF730FB754E05463078002816
S3150800C2B018BF052803D04FF4C27100F00EF8042009
S3150800C2C030704FF6FF7084421CBF204601F088F993
S3150800C2D02846BDE87040FBF71DBB0FF2CC10FAF7F5
S3150800C2E0B9BA2DE9FE4F8046FDF747FC8DF80500E3
S3150800C2F0694F38689DF8051018F80000401A8DF83F
S3150800C30004004046FDF752FC00F00C0004280CBF60
S3150800C310012500254046FDF7DBFDFF2883460EBFB5
S3150800C32000273968475CDFF874915D4CFF20661C6E
S3150800C33089F8000000F022FD58B14046FDF736FCAA
S3150800C34000F00C00082804D1404600F043FD012007
S3150800C3508BE00DB34046FDF73BFC06464FF6FF70F3
S3150800C36048F6410A864218BF48F6610AFBF7A4FE5A
S3150800C3700146201DFEF7AEFB3146A01DFEF7AAFBBF
S3150800C380FBF796FE014604F10800FEF7A3FB04F14D
S3150800C3900A0004F10A060290002000909DF8043075
S3150800C3A09DF8052041463046FDF7FBFD9DF8040043
S3150800C3B0861947B1002000903B4600225946304670
S3150800C3C0FDF7EFFDBE196DB14046FDF7E0FB40787D
S3150800C3D0800726D50298311A4246C9B2FEF7BBFD38
S3150800C3E086191EE0A078617801EB002080B2410B27
S3150800C3F001F0010181F001054DF6FF7101EA000A1D
S3150800C4000AF00700032805D1601CFDF705FC001992
S3150800C410407804E01C480078082802D1072089F8EB
S3150800C42000004046FBF736FB08B14AF0100A1FFA2F
S3150800C4308AF1601CFEF74EFB1AF0070F04D1194863
S3150800C4400178491C017004E010480068017E491C07
S3150800C4500176301BE170401C2070301B7F2803DBFF
S3150800C4604FF4F671FFF739FF2846BDE8FE8F0448FA
S3150800C4700178481E8041C00F70470000387C0020B4
S3150800C480A07B0020083C0020E33B0020D879002050
S3150800C4902C3C00202D3C00209C380020013C00202C
S3150800C4A0AC7B00202C7C00206D61632E63000000AD
S3150800C4B0FEB5DFF81817DFF81857FF2008700021B7
S3150800C4C0DFF8100741804170002407E02046FBF79B
S3150800C4D0C0FD09F017FDFBF7BDFD641C2878E4B222
S3150800C4E08442F3D3DFF8F0462078420000F014FACD
S3150800C4F00021FAF7F0FA0025DFF8E06600AF18E049
S3150800C5000B232A46142100A8F8F7BEFA787A397A56
S3150800C51001EB0020316821F8150080B200281CBF05
S3150800C5204FF6FF71884203D0B97A284600F006F81C
S3150800C5306D1C2078EDB28542E2D3F7BDDFF8A02660
S3150800C540126809074CBF41F2020141F2060122F8BE
S3150800C55010100021DFF88C2612688154704770B5D8
S3150800C560DFF87C4624680022002302E024F81350F2
S3150800C5705B1CDFF864562D78AB4209DA34F81350A1
S3150800C5806E07F5D50122002914BF05438543EDE75B
S3150800C590104670BD002100E0491CDFF83C261278E1
S3150800C5A0C9B2914209D2DFF83826126832F811204A
S3150800C5B002408242F0D101207047002070472DE9E1
S3150800C5C0FE4306460C461546DFF81086DFF8089641
S3150800C5D001E0E7B1761C99F80000F6B286421BD254
S3150800C5E0D8F8000030F8167000A9304600F076FA40
S3150800C5F0002CEED0002F1CBF4FF6FF708742E9D003
S3150800C600082200A92046FAF76DFA0028E2D19DF81B
S3150800C6100A002870304600E0FF20BDE8FE8380B59A
S3150800C62000AAFFF7CCFF02BDFEB50D46044611462B
S3150800C6301E46082200A8FAF70BFA280A8DF8090000
S3150800C6408DF808508DF80A6031462046FFF776FFC8
S3150800C65020460AF083F900F05FF9274630F81710EC
S3150800C660320641F4804104D441F0080120F817103D
S3150800C67006E020F81710DFF870050078FE2805DBBD
S3150800C68000A9204600F0DBF930B9FEBD0B2300AA4D
S3150800C69021461420F8F71DFADFF84005006820F84F
S3150800C6A017500022DFF844050068016B90F82C004B
S3150800C6B0381841F820200120FEBD2DE9F04784B046
S3150800C6C08246884616461D4600AA51460020FFF7B0
S3150800C6D076FFFF280746DFF804450CD09DF80010C2
S3150800C6E0B14202BF216831F81000804503D03846B0
S3150800C6F000F04EF9FF274FF6FF79C84513D095B9D4
S3150800C70001A9404604F0CFFB98B90022082101A8E8
S3150800C71000F0F9FA68B9082201A95046FAF7E2F9D1
S3150800C72038B1C84605E0FF2F03D0384600F030F987
S3150800C730FF27B107404604D548452CD108F024FA0E
S3150800C74029E0FF2F20D1DFF88C54DFF8A4142A78CB
S3150800C7500978914211D0484502D108F015FA804669
S3150800C76000210020FFF75BFF0746FF2F05D0334661
S3150800C77052464146FFF758FF08B948460BE0287865
S3150800C780401C287007F07AFC38460C9900F09CF893
S3150800C790206830F8170004B0BDE8F087DFF84014C9
S3150800C7A0096800204EF6FF7305E031F810201A409C
S3150800C7B021F81020401CDFF8202412789042F4DB80
S3150800C7C0704780B501460020FFF729FFFF281CBFE8
S3150800C7D0BDE8024000F003B84FF6FF7002BDDFF86F
S3150800C7E00014096811F81010890705D5DFF8EC134D
S3150800C7F0096831F8100070474FF6FF70704770B53A
S3150800C8000D46DFF8EC130978884284B0144606D240
S3150800C810DFF8CC13096811F81010890701D49320A2
S3150800C82017E000A900F05AF99DF80A60082200A945
S3150800C8302846FAF70DF9B00748BF022007D4300793
S3150800C84048BF032003D430064CBF042005202070BF
S3150800C850002004B070BD80B5FBF72AFBFF2803D083
S3150800C86000F00DF8800E11E0002002BD80B5FBF740
S3150800C8701FFBFF2801D0012002BD002002BDDFF802
S3150800C8806013096831F810000006704700F00100CF
S3150800C89002BDE0B500A900F021F99DF80A000EBD19
S3150800C8A010B584B00C46FBF703FBFF2809D000A996
S3150800C8B000F014F9082200A92046FAF7C9F8012061
S3150800C8C000E0002004B010BD70B5044611F0010563
S3150800C8D084B026460DD000AA01A9FFF790FF40B9FB
S3150800C8E000F01AF810F8160000F0040101A809F083
S3150800C8F021FA204602F041FF00953346232289A1FA
S3150800C9000320FDF736F8FBF79FFB29462046FDF77F
S3150800C91039F8FBF79FFB7FBDB14800687047FEB545
S3150800C920AE4E04463068254630F815000F46B84224
S3150800C9300FD000A9204600F0D1F8380A8DF8090072
S3150800C9408DF8087000A9204600F0EEF8306820F847
S3150800C9501570F7BD38B50546A04800682C4630F86E
S3150800C9601400A0B19B480178491E017007F086FBA8
S3150800C97000212846FFF7D3FF99490968002021F8C6
S3150800C98014000021BDE834401120FBF7B6BB31BDC9
S3150800C99010B504469648007884420CD28F48006841
S3150800C9A030F8140038B100212046FFF78DFF2046E5
S3150800C9B0BDE81040CEE710BD70B50024864D04E0F2
S3150800C9C000212046FFF7ABFF641C2878E4B28442B6
S3150800C9D0F6D37E4C7F4E2078FF2805D0FDF742FA25
S3150800C9E0FF202070002070800020307000212878F9
S3150800C9F04200BDE870407A480068FAF76CB830B56E
S3150800CA00774B794A1B68127833F810400021FE2AC2
S3150800CA10ACBF02220822E4B214420DD0002407E07B
S3150800CA2033F81450EDB215421CBF0B3189B2641CA1
S3150800CA308442F5DB084630BD4FF6FF7030BD2DE960
S3150800CA40F04383B081460C46FFF7D9FF5F4E644F2B
S3150800CA50604D80463078FF2808D10B210020FDF76D
S3150800CA6084FA307000216980FF2806E0698801F1A0
S3150800CA700B0292B2FDF70BFB002809D1386830F893
S3150800CA8019104FF6F772114020F81910002023E00C
S3150800CA90698808E00B220092A1F10B07BBB2024697
S3150800CAA0FDF740FCB9B230788845F3DB8DF8040011
S3150800CAB0414601A8FDF760FB0246012000900B23C2
S3150800CAC09DF804102046FDF788FA68880B306880C0
S3150800CAD06878401C68700120BDE8FE8330B583B0D5
S3150800CAE004460D46FFF78BFF4FF6FF71884206D1C5
S3150800CAF00B23224614212846F7F7C6FF37BD3349CC
S3150800CB0009788DF80410014601A8FDF735FB0246A1
S3150800CB10002000900B239DF804102846FDF75DFAC7
S3150800CB2037BD0000424242007CB505460E46FFF777
S3150800CB3066FF01464FF6FF70814206D10B23324647
S3150800CB4029461420F7F7C5FF73BD204C707A337A4F
S3150800CB50227813EB00202AD1FFF7DEFE30F81530D5
S3150800CB604FF6F776334020F815301A4D68780128C5
S3150800CB7006D11046FDF776F9FF202070002611E051
S3150800CB806888A0F10B06701A80B230B1009001F1E6
S3150800CB900B039BB21046FDF7C5FB69882078B2B235
S3150800CBA0FDF775FA68786E80401E687073BD8DF85B
S3150800CBB0042001A8FDF7E0FA0121009102469DF83C
S3150800CBC004100B233046FDF708FA73BDC93B002055
S3150800CBD0E0380020927F0020B4380020B0380020CA
S3150800CBE0B8380020BC380020AE7F0020D879002055
S3150800CBF017390020008F8E8C800000005C48006882
S3150800CC00408870475A480068001D704758480068B1
S3150800CC10C07E704770B5564C564D2168564E4873BF
S3150800CC20022819D100F0AAF878B92068007B001FFD
S3150800CC30022824BF3046FDF727FC2068007BC01E6B
S3150800CC40032824BF2846FDF71FFC20684069C0005A
S3150800CC5054BF9024BC240AE000F090F810B100F00C
S3150800CC60BDF803E030702870FDF757FD9124204683
S3150800CC7007F051FF50B9234613223CA10320FCF7C5
S3150800CC8078FE2046BDE87040FBF735BA70BD3848D7
S3150800CC900068407B00F00F00704735480068407B0D
S3150800CCA000F00F00022801D10120704700207047CC
S3150800CCB038B5044600F062F820B12046BDE8324097
S3150800CCC000F080B82A4DFFF7E8FF28B92868407BAE
S3150800CCD0032801D0932032BD04F01EF9208128686C
S3150800CCE0C07BA0722868807BE072204607F05DFD55
S3150800CCF00020207304F1140104F1100008F0C5FCAB
S3150800CD00E081002032BD10B5002300E05B1CDBB2D9
S3150800CD108B4205D210F8014B9442F7D0002010BD83
S3150800CD20012010BD80B50821F8F702F908B10020E6
S3150800CD3002BDA52002BD0E480068407B01281CBF25
S3150800CD403128332801D1012070470020704710B5DB
S3150800CD500446F7F780FC10B905490968CC7310BD7D
S3150800CD6003480068807B70470000000042420000CC
S3150800CD70D8790020F47C00204C7C002080B504F093
S3150800CD80D3F8032801D1012002BD002002BD80B5D9
S3150800CD90FFF7F4FF38B1BDE804404FF490710FF285
S3150800CDA00800F9F757BD01BD656D6265722D73748C
S3150800CDB061636B2D636F6D6D6F6E2E6300000000EF
S3150800CDC000207047B5207047B520704770477047F8
S3150800CDD000207047704770477047704770470020BB
S3150800CDE0704700207047012070470020704780B5C3
S3150800CDF06C210FF22000F9F72DFDFF2002BD80B54A
S3150800CE0072210FF21000F9F725FD002002BD00205F
S3150800CE107047000072663463652D737461636B2D09
S3150800CE2073747562732E63002DE9F0438BB0044664
S3150800CE3088461646FBF7FEF8684901EBC0073878BE
S3150800CE4020B909F0A9FD0546FF2D01D1702030E073
S3150800CE5006A9204604F027F85FEA000928D106A8A3
S3150800CE6000F096F85FEA000922D108A800F0C7FA90
S3150800CE700020059004950390434608A8029006AA48
S3150800CE800320019021214FF400600090204609F00C
S3150800CE90C4FD5FEA00090BD1012038707C807E60F2
S3150800CEA0402009F025FE4FF4A0514D4809F08EFDAB
S3150800CEB048460BB0BDE8F08310B5044600F068F8A4
S3150800CEC050B94FF6FD7120460AF0B0FA4548007889
S3150800CED008B9B72010BD002010BD30B583B0044690
S3150800CEE00D46FBF7A7F83D4901EBC000017879B17B
S3150800CEF04088A0420CD145B900A9204603F0D3FFCB
S3150800CF0018B900A80AF0A6FD10B1002000F029F80B
S3150800CF1037BDF8B504460D4609F030FDFBF78AF82B
S3150800CF202E4901EBC006204603F0A3FF07464FF63D
S3150800CF30FF70874204D10022002120460BF01DF81D
S3150800CF40307840B17088B84205D1012D0CBF012058
S3150800CF50002000F006F8BDE8F14009F01ABDD8E750
S3150800CF60002038B50446FBF765F81C4901EBC005F7
S3150800CF70002028701A4809F022FD402009F0D0FD4B
S3150800CF806968080003D02046BDE83440084731BD2B
S3150800CF9010B58AB0044600F0BDF808B9702019E04B
S3150800CFA000A901200AF050FB18B9BDF80000C00618
S3150800CFB001D4BB200EE0012120460BF063F9FF28BF
S3150800CFC007D1012108480BF05DF9FF2808BFB420F6
S3150800CFD000D000200AB010BD000000000467002041
S3150800CFE0B83C00201E3B0020B82D030838B5FBF7D7
S3150800CFF04DFB0022002100A80BF0ABFA08B10098FF
S3150800D00032BD03F08DFD0446012300220F210120C5
S3150800D010FCF746FBF9F7B5F80546FCF7A6F902460C
S3150800D0202B460FF2B84101200BF01CFBF9F7AFF8BD
S3150800D0300546FCF79EF902462B460FF2B841012039
S3150800D0400BF010FB40F2A175FCF78FF925FA00F0FA
S3150800D050C0070AD5DFF8005428780BF061FB28785A
S3150800D0600BF0E8FB28780BF0E8FC64B10FF2B84245
S3150800D0700FF2A041234601200BF0F4FA98210FF293
S3150800D080B040F9F7E7FB09F06FFC00F0D7FC0BF0AE
S3150800D090DDFF0BF05DFA09F044FE022102200CF0D8
S3150800D0A0F3FF01F00AF80CF0F7FFDFF8B01341F2CE
S3150800D0B00200088040F2DC50DFF8A4130880DFF88D
S3150800D0C0A41308804FF40040F7F70FF9CEA40FF227
S3150800D0D0704501E009F05FFCFBF7BEFD03F017FEA3
S3150800D0E009F052FEFCF7ECFB0DF015FC01210020BF
S3150800D0F00DF005F80028EDD02A4621464FF6FF70B8
S3150800D1000BF0B6FAE6E7DFF86013098810237F22EA
S3150800D110F7F7FCBB03F0F8BE03F0FEBEFFF7B7BD9A
S3150800D12005F0EBB938B50DF082FD04460025284612
S3150800D13008F0D7FCA04201D1284632BD6D1CEDB2DD
S3150800D140022DF4DBFF2032BD38B5044609F018FC81
S3150800D150050008D14FF4A85120460DF002FE0546F9
S3150800D16009F017FC284632BD30B585B000F0AEF898
S3150800D17003F0CAFE38B16088B0F5006F03D1601DB0
S3150800D180FFF79AFE13E020460BF01AFA050015D1B0
S3150800D190002500A928460DF068FF002804BF9DF861
S3150800D1A00000002805D1214628460DF069FF0546EE
S3150800D1B004E06D1CEDB2022DEBDBB42509F0E9FBAA
S3150800D1C0284605B030BD38B500F080F820460BF08B
S3150800D1D0F5F9050003D120460DF09EFF054609F036
S3150800D1E0D8FB284632BD38B5FF2504468DF80050D1
S3150800D1F000A90BF0A1F910B19DF8000032BDFAF7AD
S3150800D2001BFF9A4901EB0411097B814207D120468D
S3150800D2100BF05EFF18B120460CF0A0FA054628462A
S3150800D22032BD70B504460D460BF088F9F8B92046AC
S3150800D2300CF092FA0646FF2E07D0FAF7FDFE8B4948
S3150800D24001EB06110A7B824201D0002070BD488896
S3150800D25028808888688088792871012120460CF002
S3150800D26081FA6871002120460CF07CFAA871012029
S3150800D27070BD2DE9F04105460E4690460CF06CFA55
S3150800D2800746FF2F4FF6FF7413D0FAF7D5FE7749F6
S3150800D29001EB0711097B81420BD10EB9012202E08D
S3150800D2A0012E06D10022414628460CF07FFA00B12D
S3150800D2B004882046BDE8F08110B500F007F820463E
S3150800D2C000F080FEBDE8104009F063BB044609F093
S3150800D2D055BB38B50C4666490968455CAA420AD268
S3150800D2E000922B460FF240220FF2642102200BF027
S3150800D2F0B9F9002032BD002100912B4601460022D3
S3150800D3002046FCF74EFE284632BD70B598B0044656
S3150800D3100D46164609F032FB522203A93046FFF79E
S3150800D320D8FF060011D00DF109000DF079FC02A80E
S3150800D3300DF078FC03A801909DF908309DF80920A6
S3150800D34000962946204600F05BFD09F022FB18B03E
S3150800D35070BD2DE9F04198B005460E4690461F4629
S3150800D36009F00CFB1E9C214640460EF075F878B96C
S3150800D370522203A93846FFF7ACFF48B1029703A922
S3150800D38001910090234642463146284600F085FD25
S3150800D39009F0FFFA18B0BDE8F081F8B504460D4665
S3150800D3A0069816461946FCF7E0FD0746FF2F01D1F9
S3150800D3B01820F2BD079807702046022804D9C01E17
S3150800D3C008D0401E0DD014E03B463246294604F0EC
S3150800D3D0FBFD0CE03B4606220621304604F078FEAB
S3150800D3E005E03B4606223146284604F04CFE044634
S3150800D3F000E002243846FCF735FD2046F2BD082237
S3150800D4001C49F9F725BB000025703E0010B50446F7
S3150800D4100846FFF74DFC2046BDE8104007F0A7B9BF
S3150800D42007F0A5B905207047062070470220704707
S3150800D430042070471048007870474B20704700B5A5
S3150800D44083B000A80D4908220EF066FADDE900014E
S3150800D45000F094FE07BD0000E5370020C03B002021
S3150800D460C43B0020C63B0020C2D60308E03C00208F
S3150800D4709C3800200C7A00209538002064CB0308DD
S3150800D48010B582B0FFF722FF0DF101000DF0C8FBC1
S3150800D49000A80DF0C7FB9DF900209DF80110204655
S3150800D4A00EF05BFB09F075FA13BD38B504460D4658
S3150800D4B009F064FA294620460EF019FB08E038B54B
S3150800D4C004460D4609F05AFA294620460EF098FBFE
S3150800D4D0BDE8314009F05DBA7047000052657365D2
S3150800D4E07420696E666F3A20307825782028257072
S3150800D4F029000000457874656E646564205265737A
S3150800D500657420696E666F3A20307825325820286F
S3150800D510257029002570656D626572496E697420EB
S3150800D52030782578000000004552524F523A2000C4
S3150800D53061662D6D61696E2D736F632E6300000041
S3150800D540536553616D706C6547534D450000000087
S3150800D55025706D736720746F6F20626967202825B0
S3150800D56064203E2025642900C108032907DA012121
S3150800D57000F007029140C0084002124A1150704755
S3150800D580C108032907DA012100F007029140C00803
S3150800D59040020D4A1150704710B50446FAF7B4F91F
S3150800D5A0E108032909DA094A02EB412101230A683D
S3150800D5B004F00704A3405A400A60BDE81040FAF791
S3150800D5C0A9B9000014B0004010B000400CB00040EB
S3150800D5D000281CBF0620FFF7C7BF0620D0E70000BB
S3150800D5E038B5002814BF04011024FAF78DF905464A
S3150800D5F0F7F79BFC20180F490F4C82B24A60000CC3
S3150800D6000860042020602846FAF784F9206C40F068
S3150800D6100400206431BD80B5FAF776F906490A6C2C
S3150800D62022F004020A6404220A60BDE80240FAF7FE
S3150800D63071B900004820004008A00040F8B504462B
S3150800D6400025E01CFDF73FFA0646601DFDF73BFA8C
S3150800D6504FF6FF77BE42044608BF012504D003F003
S3150800D6605BFC864208BF0225BC4208BF45F004059C
S3150800D67005D003F049FC844208BF45F00805284652
S3150800D680F2BDF8B50546FDF71EFA06464FF6CF7009
S3150800D69000EA06072846FFF7D1FF002448F64101AD
S3150800D6A08E4208BF052809D1E81DFDF70CFAAC49DA
S3150800D6B00988884214BF0224062412E04CF60100A9
S3150800D6C087421ABF4CF601408742012409D0FAF76F
S3150800D6D0BBFC2846FCF766F90546FAF7BBFC05B11C
S3150800D6E00824A04800782040F2BD2DE9F04F834673
S3150800D6F0884683B0002500264046FDF7E4F99A4C93
S3150800D70082462068002804BF606800282F464FF02C
S3150800D71003095CD04FF440611AEA010F0BD008F1F7
S3150800D7200300FDF7D0F94FF6FF7188420CBF0227B8
S3150800D73001274FF0050947F0080001905FEA4A60A3
S3150800D74017D44FF440411AEA010F16D00AF4406084
S3150800D750B0F5406F0CBF082002204844C0B24044D0
S3150800D760FDF7B1F9009003F0D7FB009989B2814221
S3150800D77001D1019F01E047F004070AF44040B0F5E3
S3150800D780004F04BF47F0800087B20AF44060B0F546
S3150800D790006F0BD109EB0800FDF795F9804603F0F9
S3150800D7A0B3FB80450AD147F0100707E0B0F5406F94
S3150800D7B004D147F0200701E0002615B96068014644
S3150800D7C000E0216839B96D1CEDB2022DF4DBFF20AB
S3150800D7D0BDE8FE8F761CF6B231F816201304F2D493
S3150800D7E0BBB29342F6D1BBF1000F05D081420CBF04
S3150800D7F0802010208BF800003046E9E70000000082
S3150800D8002DE9F04781468846FDF75DF9054605F09E
S3150800D810070605F4406A2F464846FFF70FFF0446F9
S3150800D8204FF6F77005405148007808280DD8DFE80C
S3150800D83000F087058705050A0C0C0700002E00E096
S3150800D840012E7DD101E0032E7AD1390721D5002E8C
S3150800D85076D10A2801D1A00772D5B5F5004F18BFB1
S3150800D860B5F5404F6CD10026E80648BF46F080065D
S3150800D870A80648BF46F4805606F00C00042861D175
S3150800D88009F10700FDF71FF90146FF2246F00400DB
S3150800D8905BE0002E364FDCD0022E03D004D3032ED5
S3150800D8A02FD04DE03B2058E04FF6CF7000EA050632
S3150800D8B04846FFF7E6FE38B94946FFF716FFFF2840
S3150800D8C002D1FFF75BFA08B10826CDE748F6410012
S3150800D8D0864235D10A2C18BF062C31D160070ED5E1
S3150800D8E0FFF7DBF920B13868007B001F022827D331
S3150800D8F020480078022823D040F60406B4E7042618
S3150800D900B2E714F0030005D103F006FB4FF6FF71EA
S3150800D910884215D10C26BAF1000F0DD0BAF5006F62
S3150800D920A2D0BAF5406F0BD10822134909F10500B8
S3150800D930F9F7D8F820B997E73868007B012893D01B
S3150800D9403A200AE0FF2200213046FCF7DDF9FF28DD
S3150800D9500EBF182088F800000020BDE8F0870000F8
S3150800D960363C0020EF7F0020907D0020E33B00201E
S3150800D970D8790020A07B00200C7A0020174838B5FB
S3150800D9800446F9F7C1FF054615480021016008213C
S3150800D99054F8042B8260491E54F8042BC260F7D150
S3150800D9A001210160FBF7B2F9284613E00C49002073
S3150800D9B00860FBF7ABB938B545096D0109480A4C4B
S3150800D9C0854238BF094CF9F79FFF044945F0140210
S3150800D9D04C620A62BDE83240F9F79CBFDC3A002087
S3150800D9E094ED00E09800002009000B1008000B10C9
S3150800D9F070B12DE9F05FEFF308800D490860EFF389
S3150800DA0009800C490860EFF314800B49086030BFA1
S3150800DA100748006880F308880648006880F3098884
S3150800DA200548006880F31488BDE8F05F7047000079
S3150800DA306C7A0020707A0020747A00200020DFF8C3
S3150800DA40C01701EBC003FF221A71002241F83020EB
S3150800DA50401C0328F5DB704710B5A0B00024082049
S3150800DA600EF01CF9000604D513A80EF05BF900B9F0
S3150800DA7001240E200EF012F9000605D500A80EF0B6
S3150800DA8095F908B944F00204204620B010BD2DE9E6
S3150800DA90F04F81468FB01C46FF20032C8B46174655
S3150800DAA08DF8090005DB189D2A78520707D5052C3D
S3150800DAB003DA01200FB0BDE8F08F297900E0A978D4
S3150800DAC08DF80B100021DFF838A70AEBC10212798E
S3150800DAD0FF2A0BD0491CC9B20329F6DB03901A9E0C
S3150800DAE036B10398FF2803D1B420E3E70391F6E79C
S3150800DAF000208DF80A0009AA38790DF10A010AF002
S3150800DB001FFD58B1BDF8300038809DF80A0008F0AE
S3150800DB1032FF8DF8080000283CD114E038790BF064
S3150800DB201BFE8046B8F1FF0F08BFA320C2D0387984
S3150800DB3008F026FF8DF8080060BBDFF8C80600EB82
S3150800DB40081040883880B9F1000F0CBF58464FF6C8
S3150800DB50FF70019000217888DDF8648000904246C5
S3150800DB603B889DF80B0009F049FB18B1F88840F08E
S3150800DB702000F880049605970695ADF81CB0ADF818
S3150800DB801E408DF820908DF8218002A904A80AF07D
S3150800DB900DFD10B19DF808008CE73A4659464846EF
S3150800DBA009F06EFBA04219D30DF10900019000950A
S3150800DBB0E3B23A4659464846FFF7EFFB8DF80800A8
S3150800DBC0C6B1B8B99DF80900FF2823D003990AEB16
S3150800DBD0C101087103984AF830601BE0B8F1000FDC
S3150800DBE01ED100942B463A46594648460DF0DEFBB0
S3150800DBF08DF808009DF80800BA2808D1B879C0063B
S3150800DC000BD500208DF8080001200EF010F99DF8BC
S3150800DC10080010B9112008F06BFF08F0BAFEB9E742
S3150800DC2074208DF80800F8E710B584B008810093D1
S3150800DC301346069C02940A460124014601940320D1
S3150800DC4011E010B582B000240094FFF7EDFF16BD71
S3150800DC5010B584B0069C0093029413460A46012424
S3150800DC60014601940420FFF712FF04B010BD10B559
S3150800DC7082B000240094FFF7EBFF16BDF0B504460A
S3150800DC80022C85B00D4616461F460AD100A9E8B2F1
S3150800DC900DF0EBF988B99DF8010030719DF8040084
S3150800DCA070713B460B980290324600200190294637
S3150800DCB00A9800902046FFF7EAFE05B0F0BD1CB5AD
S3150800DCC000240194049C0094FFF7D8FF16BDF0B514
S3150800DCD087B004460D4616461F461622002100A8A0
S3150800DCE0F8F7F9FEADF80C40ADF80A606DB10822F8
S3150800DCF029460DF10100F8F7ABFEBDF8140040F017
S3150800DD000200ADF8140000200AE01FB1ADF8127049
S3150800DD100C2005E04FF6FC708642B4BF00200820B0
S3150800DD208DF800000D980F9A0E99ADF80E000C9814
S3150800DD30ADF8100000A80AF009FC07B0F0BD80B5E0
S3150800DD400346DFF8C404008839B9BDE800500FF26D
S3150800DD50CC420FF2C0410AF08BBC00910FF2D442BC
S3150800DD600FF2C0410AF084FC01BD10B5FF280C462D
S3150800DD7004D10FF2C84100F010F9FE202146BDE893
S3150800DD8010407CB504460D4605F0E5FB06463346CD
S3150800DD9022460FF2E44102200AF064FC7EB975B10E
S3150800DDA001A800210160032000908DF8054001AB11
S3150800DDB0002236214FF6FC700DF04DF80646304627
S3150800DDC076BD70B50D4604462888164608B100206B
S3150800DDD070BD20460AF0ECFB002802BF688848F2AE
S3150800DDE02101884203D171782046FFF776F86888C2
S3150800DDF0B0F5004FC4BF082008F092FE012070BDA0
S3150800DE002DE9F04188B004460D46164698460CF0B2
S3150800DE100EFF07460EAB0FAA394628460DF0BBFB88
S3150800DE20002831D10F9804908DF808400395ADF875
S3150800DE3016708DF818608DF81980BDF83800ADF8A1
S3150800DE401400FFF76DF98DF81A00FFF76BF98DF8D6
S3150800DE501B00FAF7EFF88DF81C0002A80AF0A4FBDD
S3150800DE6090B900F014F80EF00BF968B900F00FF845
S3150800DE70FFF7A7FF40B901900097BDF838300F9A11
S3150800DE802146284609F094F808B0BDE8F081BDF8A7
S3150800DE9038300F9A2946384670472DE9FC471D0049
S3150800DEA00A9C0B9E80468946174631D00FF240429F
S3150800DEB00FF2304102200AF0DBFB3B880BB9A6A221
S3150800DEC00AE040F209118B4208BFC7A204D0B3F595
S3150800DED0827F0CBFC5A2C6A2019478880FF2B03122
S3150800DEE0009002200AF0C4FB388870B1032C0CDBC2
S3150800DEF03078B3780FF2C831C0074CBF0FF2D4326E
S3150800DF000FF2D83202200AF0B3FBBAA100F045F8A6
S3150800DF100C98BB49002201EBC2031B79834211D03E
S3150800DF20521CD2B2032AF6DB4FF0000A002201EB9C
S3150800DF30C20393F804C0844507D0521CD2B2032A00
S3150800DF40F5DB07E051F832A0F0E7FF201871002052
S3150800DF5041F83200002D04BF3888002806D1788899
S3150800DF60B0F5004FBCBF082008F0C2FD012008F03C
S3150800DF70D7FD36B13078C00703D500F011F80BF09D
S3150800DF80E1F8BAF1000F02D000F00AF8D04700F025
S3150800DF9007F80AF0E1FABDE8F38702200AF062BB47
S3150800DFA00195009623463A4649464046704710B5BD
S3150800DFB084B0FF2401930294069B0093079BFFF706
S3150800DFC06CFF1FBD2DE9FC41044690380FF2383628
S3150800DFD00FF23C380CD0401E4BD0C01E49D0801ED4
S3150800DFE047D0801E45D01338042842D9113851D15C
S3150800DFF00020ADF804000EF0FDF80546FFF78AF894
S3150800E000471EBF41FF0F2DB1002F14BFA8882889CE
S3150800E010ADF804000DF1060004F0D2FBBDF80600C9
S3150800E020800605D5BDF8040040F02000ADF80400D0
S3150800E0303A4601A900200AF0C9FABDF8040004F01E
S3150800E040A6FBFFF767F80090434632460FF2A82171
S3150800E05002200AF007FBBC2C06D10FF2C021FFF7FD
S3150800E0609CFF0EF020F901E00EF016FD0EF0F8F810
S3150800E07010E0912C04D1434632460FF2C02104E049
S3150800E0800FF2D0230FF2C021324602200AF0EAFA34
S3150800E09008F08FFE20460EF08BFD20460EF09EFE01
S3150800E0A020460EF0A5FF20460AF092FA18B10FF2A4
S3150800E0B0AC21FFF772FFBDE8F3811CB5534C002075
S3150800E0C008F059FC206890B10078012808BF0FF0C5
S3150800E0D031FA00A8FFF7A4F980B920689DF8001066
S3150800E0E00078814203D0012808BF022906D10FF221
S3150800E0F0E8200068019001A805F042FB08F049FCF9
S3150800E10013BD10B5044608F039FC20460EF015FE7E
S3150800E110BDE8104008F03DBC7020704738B53B4953
S3150800E120096804467020A9B10D78012D08BF02259B
S3150800E1300FF02CFA20890FF270220FF2502100906E
S3150800E1400120E37A0AF08EFA21462846BDE83440D3
S3150800E15005F024BA32BD00005A444F0010B50446F3
S3150800E160FEF7D1FF0020015DFF2904BF00210155FC
S3150800E170401C1028F7DB0020207410BD33B581B091
S3150800E180002000240FF2542108E011F830309DF8E1
S3150800E1900A50AB4208BF5468401CC0B201EBC0022B
S3150800E1A05368002BF1D19DF808009DF807309DF8BB
S3150800E1B006200FF2FC11009002200AF059FA9DF889
S3150800E1C009201AB10CA102200AF052FA04B90BA4CC
S3150800E1D0BDF80430224603B0BDE830400FF2E8111E
S3150800E1E002200AF03FBA00005345000048410000EB
S3150800E1F03F3F0000000000002E2564003F3F3F001F
S3150800E200C83C0020E03C0020EA5F0020EC660020C5
S3150800E2100FF060BA25703A202570000053756363C5
S3150800E2206573730025703A2025703A203078257872
S3150800E230000000004572726F720000004C696D693B
S3150800E24074696E67206475726174696F6E206F6693
S3150800E250207065726D6974206A6F696E2066726FC8
S3150800E2606D20666F726576657220283235352920ED
S3150800E270746F203235340000704A6F696E20666FFD
S3150800E28072202564207365633A203078257800006B
S3150800E29050726F66696C653A20257020283078259B
S3150800E2A03258292C20436C75737465723A2030787D
S3150800E2B02532582C2025642062797465732C000059
S3150800E2C0205A434C20257020436D642049443A2047
S3150800E2D025640000436C757374657200476C6F6241
S3150800E2E0616C0000257074782025782C20000000C9
S3150800E2F04552524F523A200025702570555020300D
S3150800E3007825325800000000454D4245525F00000E
S3150800E3104E4554574F524B5F0000000054727573B8
S3150800E320742043656E74657220455549206861738B
S3150800E330206368616E6765642E000000257025708D
S3150800E340444F574E0000000025704A4F494E25702D
S3150800E350000000005F4641494C454400546865206A
S3150800E360617070206672616D65776F726B20697374
S3150800E3702068616E646C696E6720746865207374C2
S3150800E38061636B207374617475732E002570696EF2
S3150800E39067206F6E2063682025642C2070616E49A3
S3150800E3A064203078253258004A6F696E00000000F4
S3150800E3B0737461636B207665722E205B25642E2547
S3150800E3C0642E256400000000202570206275696CA3
S3150800E3D0642025645D0000000000000000000000C5
S3150800E3E0782D030811000000842D03081200000090
S3150800E3F08C2D030813000000942D0308210000004B
S3150800E4009C2D030822000000A42D03082300000009
S3150800E410AC2D0308AA000000B42D0308FF00000075
S3150800E4200000000080B5914800214160417081706C
S3150800E430A52101700120FBF796FAFBF798FA00F080
S3150800E44002F8002002BD80B58B48016841F0807152
S3150800E450016001208949086000208949F7F771FDA4
S3150800E4608849894A02200860002088490860884946
S3150800E47088480160012111607D4A8749116040F290
S3150800E480014101654FF480308449086001BD79482F
S3150800E490006800B10120C0B27047D12202704170F5
S3150800E4A0090A81707E490A78C270501C08700420D7
S3150800E4B070472DE9F14F82B0002500907948009900
S3150800E4C00068085C441DE4B2FBF7C0FA01904FF6F9
S3150800E4D0FF79FFF7DCFFB8B954E0A91E9DF80800DC
S3150800E4E0C9B2FBF755FE074649460FF023F98146A0
S3150800E4F05546F000F9B2761C01FA00F0042E40EAFF
S3150800E500080815DBCBF80080EDB2A54232DAFBF736
S3150800E5109DFA0199401A80B2B0F5FA7F2ADC4FF0CD
S3150800E520604BDBF800000128EED14FF0000800260A
S3150800E530EDB215B95B270125DBE7012D05F1010AC7
S3150800E54004D15848009900680F5CD1E7E11E8D4256
S3150800E55008BF4F46CCD0A11E8D4208BF4FEA1927E7
S3150800E560C6D0611E8D4208BF5D27C1D0A542B4D171
S3150800E5700027BEE74FF4C870F7F79CFCA54208BF12
S3150800E580002000D00120BDE8FE8F46490968415C9D
S3150800E5900429A8BFFFF78DBF012070472DE9F04D6C
S3150800E5A0324D6E78002E5ED0FBF750FA8346314620
S3150800E5B00020FBF7DAFC0446FF2CA04602D1002017
S3150800E5C0687050E0202EB4BF37462027FBF7D6FBED
S3150800E5D06860AF70DFF8D0A004E04046FBF7CEFBDA
S3150800E5E06860AF706878C0B1FBF730FAA0EB0B0033
S3150800E5F080B2B0F5FA7F10DCA8780028F2D1F61BB5
S3150800E6006E70F6B2002EEDD0DAF8000018F8008029
S3150800E610202EB4BF37462027DFE7002E04BF6878D0
S3150800E620002818D1A878B0B91E480068205C851E55
S3150800E630E9B22046FBF753FE122808D1E9B2204674
S3150800E640FBF75BFD21461220FAF7BBFF06E02046E2
S3150800E650FAF701FF02E000206870A8702046BDE8BE
S3150800E660F04DFBF7FFBBBDE8F08D0000F07F002002
S3150800E670800E00E0100004E0FCED00E0040004E079
S3150800E68020A10700F00004E0000E00E0040304E007
S3150800E69055CEACC5B00F00E00D00010000E100E06A
S3150800E6A0EE7F00209C380020A438002070B5134661
S3150800E6B0101802E0A4192C705B1EDBB24BB101F0F6
S3150800E6C00F060909451E0A2E2846B4BF30243724EA
S3150800E6D0F0E7101870BD2DE9F24F88B0804601A802
S3150800E6E01446994601AD4FF0000B00278DF800003F
S3150800E6F010E00127641E05A885420AD39DF800008C
S3150800E7002E1A00F0B4F8002839D1B3445FFA8BFB0F
S3150800E71001AD641C9DF800002E1A207800280BD045
S3150800E720252803D017B905F8010BE4E7002F14BF15
S3150800E7300027641C2078010000F08E80B0F12501C6
S3150800E74013D00B39092967D928395CD00B390ED073
S3150800E750491E2CD008392AD0091F0BD0C91E09D04A
S3150800E760891E24D0C91E4ED0C5E72520DBE759F8F7
S3150800E770040BD8E759F804AB00F079F8002872D1F1
S3150800E780B3445FFA8BFB01AD002600E0761CF6B2B7
S3150800E79016F80A000028F9D19DF82000324651469D
S3150800E7A0C04700285FD1B3445FFA8BFBA3E759F84B
S3150800E7B0040B0021002803D52D2129704042012190
S3150800E7C0002300224FF0000C02E0801B0CF1010C24
S3150800E7D00FF2041656F82260B042F6D243EA0C0647
S3150800E7E0F6B2002E05D0C9B20CF130034B55491CC0
S3150800E7F00123521C092AE5DBC9B230304855481CAA
S3150800E800C0B2451977E759F8041B0222C9B228464F
S3150800E810FFF74CFF05466EE760780127782818BF92
S3150800E8205828F8D1641C002714F8010C322804D1A2
S3150800E83059F8041B042289B2E9E734287FF459AF52
S3150800E84059F804AB04224FEA1A412846FFF72EFF6F
S3150800E85004221FFA8AF1DBE700F009F818B906EB7B
S3150800E8600B00C0B200E0002009B0BDE8F08F9DF8AB
S3150800E8702000F2B201A9404709A117E010B5094BDB
S3150800E880C35C0024012B07D113460A4601460648F5
S3150800E890FFF721FF00B90124204610BD0000000043
S3150800E8A00D0A0000E0980008C79700080CB480B568
S3150800E8B002AAFFF7E3FF02BC5DF80CFB0CB438B5FF
S3150800E8C0044604AAFFF7DAFF05462046FFF7D4FFF9
S3150800E8D0284632BC5DF80CFB00CA9A3B00E1F505F8
S3150800E8E08096980040420F00A0860100102700007D
S3150800E8F0E8030000640000000A00000000B500BF3D
S3150800E900130096469446103928BFA0E80C50FAD84A
S3150800E9105FEA417C28BF0CC048BF40F8042BC907F2
S3150800E92028BF20F8022B48BF00F8012B00BD0000C5
S3150800E93070B5044601214FF48070FDF710FEC8B18A
S3150800E940984E994D3078FF2807D02878C00748BFD9
S3150800E95000F003F93078FBF785FA34700020287048
S3150800E9602046FBF771FA91480188281DBDE87040DA
S3150800E970FBF795BD70BD8C490A7842F0010208B1D3
S3150800E98042F002020A70704738B5864D864C2878E0
S3150800E990FF280ED000214FF48070FDF7E0FD2078A7
S3150800E9A0C00748BF00F0D9F82878FBF75BFAFF20C4
S3150800E9B028700020207131BDF8B50025784E7C4FAF
S3150800E9C000E06D1C3878EDB2854217D230682C46C7
S3150800E9D030F814100805F4D5284600F058F8FF2832
S3150800E9E0EFD0316831F814204FF2FF731A4021F83E
S3150800E9F0142000216F4A1268A154F2BD6E49002006
S3150800EA00088001F08AF80446FF2C18BFFBF71CFAA9
S3150800EA102046F2BDF8B50446674806880D4600212B
S3150800EA20018096B32046FBF712F9B0F5006F2CD19A
S3150800EA302046FBF730F90746F9F73AFAFF2824D0BB
S3150800EA4035B15749096831F81020324321F81020AA
S3150800EA50402E14D0B6F5807F17D1524800788442EC
S3150800EA6011D14FF6FF718F420DD0FBF7C2F84FF464
S3150800EA708270FDF78FFD30B9FFF786FF03E015B901
S3150800EA80214607F06DFF0120F2BD0020F2BD2DE9F9
S3150800EA90F04381464948006883B04C4630F81480F4
S3150800EAA00F46FF25F9F79DFA45490978884251D25C
S3150800EAB0F9F7CFFAB8050FD478051CD506F064F82F
S3150800EAC002460020019000900123414604F07AFF97
S3150800EAD005464FF480602FE04FF6FF7241460E2040
S3150800EAE006F0C0F90546FF2D32D04146FBF781F8FE
S3150800EAF04FF4007020E02B4E3078FF280BD0F90534
S3150800EB0009D54146FBF775F83078FBF79DF9357856
S3150800EB104FF4807010E0780606D50021484607F0C5
S3150800EB2021FF0546402007E0380611D50121484651
S3150800EB3007F018FF05468020FF2D09D01E490880DA
S3150800EB401749096831F8142022EA000021F8140050
S3150800EB50F9F780FA2846BDE8FE837FB5114C207880
S3150800EB60FBF7B6F905462078FBF711F8801CFBF78A
S3150800EB70AAFF0646207801A902F01FFCF9F764FAF5
S3150800EB800948007880074CBF0020662000902B4675
S3150800EB9001AA31460420FEF7DCFBF9F75BFA7FBDD4
S3150800EBA0B83800202E3C0020707D00201A3900203D
S3150800EBB0B4380020BC380020A27F0020B0380020DE
S3150800EBC0E038002000B587B041F400618DF81420C4
S3150800EBD0120A8DF815200C9A04920B9A03920A9A37
S3150800EBE00292099A0192089A009205AA00F002F880
S3150800EBF007B000BD2DE9F14F82B00C4604F4404041
S3150800EC00009015469DF808000F9AFF2807BF0126B1
S3150800EC10082000260C20984604F4406A0021FBF7D9
S3150800EC2073F8BAF5006F81460CBF02270827B9F1B9
S3150800EC30FF0F59D0FBF7A2F883464846FAF7A7FF15
S3150800EC400EB944F0030400F8014B210A00F8011B31
S3150800EC50461CBAF1000F05D006F8018B4FEA1820BA
S3150800EC6006F8010B3A4629463046F7F7F1FE0098B2
S3150800EC70BD19F8B1600605D40C9805F8010B000A11
S3150800EC8005F8010B0098B0F5004F03D0B0F5404FDA
S3150800EC900AD00FE002F038F905F8010B02F034F952
S3150800ECA0000A05F8010B05E00822A0492846F7F7EF
S3150800ECB0CFFE0835A5EB0B01C9B24846FBF764F849
S3150800ECC09DF80800FF2825D0012202A94846FBF72F
S3150800ECD0D2F930B90D9971B10E9A4846FBF7CBF9BE
S3150800ECE048B14846FBF7BEF89DF8080004280CBF53
S3150800ECF0FF2018201AE09DF80800042808BF484697
S3150800ED0014D0022806D14846F8F712FE441EA4413C
S3150800ED10E40F04E010994846FBF7BCFC0446484655
S3150800ED20FBF7A0F8002C0CBF39200020BDE8FE8FA9
S3150800ED3000B585B000F018F8009300200290019005
S3150800ED401A464FF4404106200AE000B585B000F0A7
S3150800ED500BF81A4600200290019000900021072027
S3150800ED60FFF730FF05B000BD022004904FF6FF7391
S3150800ED70FF200390704710B586B002F0CDF8044620
S3150800ED8002F0C2F84FF6FE718842B4BF48F260013D
S3150800ED904CF26001012004902346FF2003900020D6
S3150800EDA00290019000906248006842880420FFF7AC
S3150800EDB009FF06B010BD30B587B004460D4602F00F
S3150800EDC0ABF88DF8140002F0A7F8000A8DF81500C4
S3150800EDD002F09AF88DF8160002F096F8000A8DF8F7
S3150800EDE01700FDF7BDFF8DF818008DF81950280A91
S3150800EDF08DF81A0002F090F8012104910090FF2185
S3150800EE0003914FF6FF7307210291224605A9019146
S3150800EE1008204FF44C41FFF7EDFE07B030BD34B57E
S3150800EE200D4686B00446002105F0D5FC0120049065
S3150800EE302B46FF2003902246012002904CF6200123
S3150800EE4006A801904FF6FF7000900120FFF7BAFE62
S3150800EE5007B030BD10B586B00446080A8DF8141000
S3150800EE608DF815008DF8162002F056F80021049149
S3150800EE700346FF210391224603210291022005A998
S3150800EE800191002100914CF66041FFF7B3FE06B0F0
S3150800EE9010BD70B584B0FF2200210020FAF734FFB8
S3150800EEA00446FF2C40F6FF753DD021480068007BDC
S3150800EEB001282048007808BF44F6FF7508B145F4D4
S3150800EEC0004500208DF8000000AE8020707002F02A
S3150800EED023F88DF8030002F01FF8000A8DF80400E5
S3150800EEE002F012F88DF8050002F00EF8000A8DF807
S3150800EEF006000B22FF208DF8070000A9280A3072A9
S3150800EF0000208DF809008DF80A002046FBF7B3F8B3
S3150800EF10204605F0B6FA18B101212046FBF7BAFBE0
S3150800EF202046FAF79FFF7FBD000000000C7A0020FC
S3150800EF30D8790020EC7F00202DE9FC4204460D46D6
S3150800EF409146CDF804900095234624220FF2F0311D
S3150800EF500320FAF70EFDDFF8D87338780A2818BFA9
S3150800EF603D203DD1B9F10F0FA8BF332038DA092C5F
S3150800EF70A8BF342034DADFF8BC032840A84218BFFB
S3150800EF8035202DD135B9DFF8B0130968897B012002
S3150800EF9000FA01F5002C18BF022CDFF8A0630CD18B
S3150800EFA020210020FAF7E1FF7870FF2808BF182013
S3150800EFB016D0FAF7E3FEF06130623C7086F80190ED
S3150800EFC0B561002030700A20F9F739F801210FF2EF
S3150800EFD01500FBF7E9FB38780A280CBF012000204A
S3150800EFE0BDE8F68238B50A20F9F72AF80446F9F793
S3150800EFF030F82046F9F74AF80020F9F71FF8CF4C01
S3150800F000FDF7AEFEE07001F087FF2082F6F77BFB86
S3150800F01020714FF6FF75C64C2078062808D10120C6
S3150800F020F6F774FB072020702846FDF739F90CE03F
S3150800F030082805D0284601F073FF2846F6F7E5FBB1
S3150800F0400020F6F763FB00F059F8BDE83140F9F700
S3150800F05001B838B5F8F758FCB54D044628780A289B
S3150800F06018BF092804D12046BDE83240F8F752BC3B
S3150800F070072808BFFDF7D8F82878B049087009208E
S3150800F08028702046F8F746FCBDE8344001210FF207
S3150800F0900900FBF789BB000070B5A54C2078092844
S3150800F0A002D0E82100F0A3F80A20F8F7C9FFF8F71C
S3150800F0B0D0FFA24D288A01F033FF9F49E8780968F6
S3150800F0C088732879F6F722FB0120F8F7B7FFF8F7D7
S3150800F0D076FF66780020287200220A2020703146C2
S3150800F0E0FF206070287805F0F9F8FF2E1CBF30461F
S3150800F0F0FAF7B8FEBDE87040F8F7ACBFF8B58F4C24
S3150800F100002020720A20F8F79BFFF8F7A2FF884D27
S3150800F11028780A2803D14FF48A7100F068F828780D
S3150800F120E0B917E0401CE061282210F9016DE0699A
S3150800F130401CE0617DA110F8017D00963B46032046
S3150800F140FAF717FCF8F780FF31463846FEF7B7F9A5
S3150800F150F8F780FFE069216A8842E3D320781B2804
S3150800F1601FDA05F0CFFC50B12078A169C140C90764
S3150800F17005D4401C2070C0B21B28F5DB11E0F5F75A
S3150800F18063FA01462078884202D0F5F755FA40B965
S3150800F190207805F0B4FC20700020A07000F064F818
S3150800F1A008B32878052818BF012803D0032818BFF4
S3150800F1B008280DD10B26A069F040C00704D5287889
S3150800F1C03622314605F08AF8761C1B2EF3DB08E05A
S3150800F1D0022806D1206AE169411A6878C9B2FAF7A5
S3150800F1E08CFFFFF736FFBDE8F140F8F733BF0FF2A3
S3150800F1F05810F7F72FBB38B54D480178092904BFD1
S3150800F200BDE83140FDF733B84C4C6369002918BF97
S3150800F21002291ED19BB9226A6179521C226202F820
S3150800F220011D007828B9256A681C2062F5F70CFAD2
S3150800F230287004F10800BDE83240FBF725B9082517
S3150800F240F6F776FA94F905108142B8BF014661715E
S3150800F25003E0002BEDD04FF470752846FDF720F833
S3150800F2606069401E606131BD80B53448427801212D
S3150800F27091402F4A1278491C092A416120D8DFE8B3
S3150800F28002F01109110917051F1F0D1CBDE80140E1
S3150800F290FFF74EBDBDE80140FFF757BDBDE8014089
S3150800F2A005F02BBC6FF07F02427178225143416111
S3150800F2B00020FCF7F5FF002002BDFCF7D8FF03E0AD
S3150800F2C040F2A311FFF793FF012002BD10B5184ABB
S3150800F2D01A4C1278052A11D1062816D12020606109
S3150800F2E0A9B9F5F7B1F90122A16902FA00F021EAF4
S3150800F2F00000A0610020FCF7D3FF15E0012A14BF27
S3150800F300032A0728ECD0082AEAD0002010BDA078E6
S3150800F310401CA070C0B2032802DAFFF7A5FF18B197
S3150800F32004F10800FBF7B0F8012010BD4242420084
S3150800F330E33B002000F8FF07D8790020307A002048
S3150800F34042424442000000007363616E2E6300006F
S3150800F350027902F0FC02114301F03F010171704786
S3150800F36038B5054600F027F90446FF2C02D13421AA
S3150800F37000F075F84FF6FF70288003212846FFF73E
S3150800F380E7FFDFF87804DFF8783400781B68C11DDA
S3150800F390C01DC01000FB0430BDE838400904CA0C83
S3150800F3A00021F7F798BB70B5DFF85804DFF8586402
S3150800F3B00468002504E02046FFF7D2FFA41D6D1C53
S3150800F3C03078EDB28542F6D3DFF8400400680021B4
S3150800F3D004E04FF6FF7220F8082B491CDFF83024AA
S3150800F3E01278C9B29142F4D3DFF828141420487071
S3150800F3F070BDF8B50446FF2C30D0DFF80C04007851
S3150800F400844202D36A2100F02AF8DFF8F80300687C
S3150800F410062101FB04004FF6FF72018891421DD0B8
S3150800F420037903F00303012B18D1DFF8E0331B68D7
S3150800F430002501E008336D1CDFF8D4633678EDB299
S3150800F440B54208D21E889642F4D0DF79A74205D085
S3150800F4508E42EFD1F1BDBDE8F24081E7F1BD0FF272
S3150800F460B830F7F7F7B910B5DFF898231268002116
S3150800F470032401E0491C921DDFF88C331B78C9B2BE
S3150800F480994207D25388834204BF13792342F1D1A4
S3150800F490012010BD002010BD2DE9F843FAF7DBFA6C
S3150800F4A0DFF8705306466888341AA4B2F8F7E0FD08
S3150800F4B0FF2818BF002C68D0F8F7CBFD2878DFF8AE
S3150800F4C048236E80201880B2C10900F07F0028709A
S3150800F4D00027DFF8300303684FF6FF7606E00CF0E6
S3150800F4E03F0C4CEA801018719B1D7F1C1078FFB2E8
S3150800F4F087420FD21888B042F6D093F804C003208A
S3150800F5001CEA000FF0D101EB9C1080B20328E6DB61
S3150800F5100220E4E768788442B4BF001B00206870C4
S3150800F5204FF00008B948BA4D076814E0B9F1000F62
S3150800F5303E8009D100A9104600F029F820B19DF8AF
S3150800F54000000021FFF755FFF8794946FFF751FFFC
S3150800F550083708F1010828785FFA88F8804512D23A
S3150800F5603888B042F4D0B879844202DA001BB87100
S3150800F570EEE701F0C9FC3A8882420CBF4FF0010958
S3150800F5804FF00009D2E7F8F765FDBDE8F18310B53D
S3150800F5909C4A1268002301E0921D5B1C9A4C247851
S3150800F5A0DBB2A34205D214888442F5D10B7010460B
S3150800F5B010BD002010BD0021062300E0491C924A18
S3150800F5C01278C9B2914207D28E4A126803FB012209
S3150800F5D09042F3D108467047FF20704780B500A9CE
S3150800F5E0FFF7D5FF02BD80B5FFF7F8FF00281CBF5F
S3150800F5F0BDE80240FFF7B4BE01BDF0B5834B1B68FA
S3150800F6000024062701E00833641C814D2D78E4B2F6
S3150800F610AC4217D21D888542F5D15AB1012A08BFD6
S3150800F6201D7905D0774DDE792D6807FB06552D889F
S3150800F630A942E8D14FF6FF71884204BF1420987199
S3150800F6401846F0BD0020F0BD002200214FF6FF70DD
S3150800F650D3E7F8B50D46144607462146FFF797FF48
S3150800F660060022D100204FF6FF7366490E68002176
S3150800F67005E088B932889A4212D0B61D491C624AFA
S3150800F6801278C9B29142F4D3401CC0B20228ECDB0E
S3150800F69000263EB90020F2BD32799209022AECD141
S3150800F6A02170F6E73780012007E030790321084208
S3150800F6B004D000F0FC0040F0010030718DB145F037
S3150800F6C0080030714E4B4D4800781B682478C11DE0
S3150800F6D00904C01DCA0CC010002100FB0430F7F74E
S3150800F6E0FAF9307900F03F0030713046F2BD10B5B6
S3150800F6F00446FFF773FF28B9002200212046FFF7CA
S3150800F7007CFF00B1012010BD70B504460D461646B3
S3150800F710FFF764FF306060B1007910F003002870CD
S3150800F72004D13068017901F03F01017130684088E1
S3150800F73070BD0021204600F0D6FC012818BF02281B
S3150800F74003D100202870204670BD032028704FF68C
S3150800F750FF7070BD00B583B000AA01A9FFF7D4FFFA
S3150800F7609DF8040038B9009828B1007910F03000E7
S3150800F77002D001200EBD00200EBD70B504461F48FC
S3150800F7800078844203D34FF4F571FFF768FE1E4EE6
S3150800F790002505E000222146284600F006F86D1CE3
S3150800F7A03078EDB28542F5D370BD30B5134C144BA5
S3150800F7B024781B68E41DE41004FB0030CB0801F034
S3150800F7C007011C5C012505FA01F1002A14BF214333
S3150800F7D024EA0101195430BD084B094A1B781268FE
S3150800F7E0DB1DDB1003FB0020CA0801F00701105CD3
S3150800F7F0C84000F00100704700000000B43800203F
S3150800F800C8380020C0380020C4380020CC38002072
S3150800F810D03800209E7F0020726F7574652D746144
S3150800F820626C652E63000000F0B5524C237903F034
S3150800F8300F05002600E0761CF6B2AE4215D22378F4
S3150800F8409B1B0F330F2793FBF7F7C7EB0717DB1B3A
S3150800F850062707FB034333F8087F8742EBD112B923
S3150800F8609F788F42E7D11846F0BD0020F0BD0022F0
S3150800F870DAE780B501220021FFF7D6FF00B10120A3
S3150800F88002BD38B51446FFF7F2FF0546204600F0DC
S3150800F89058FA0DB9002032BDFF2805D0A9880122E3
S3150800F8A002FA00F00843A880012032BD10B5FAF725
S3150800F8B0D2F830494A78CB88C8808218D21A92B2D0
S3150800F8C0142392FBF3F3142000FB13204870DCB2D8
S3150800F8D088788442B4BF001B00208870042CBDBF02
S3150800F8E08888A200D0400020888010BD21488088E2
S3150800F8F000F00F010F2903D0C0F30310092801DB1C
S3150800F9000120704700207047F8B504460D46164694
S3150800F910FFF7ECFF08B10020F2BD16480178491C34
S3150800F9200F2291FBF2F2C2EB0212891A017006222B
S3150800F930017802FB010101F10807818801F5885168
S3150800F940113181803C80BD70304600F0A3FBB88041
S3150800F9500120F2BD10B5074CFAF77DF8E0805A226F
S3150800F9600020A080FF2104F10800F7F7B4F804206E
S3150800F970A07010BDFC7C00202DE9F84F9C4D95F831
S3150800F980009004468846FAF76CF88346287918B139
S3150800F990E9680BEB0400441A6878DFF858A20026D9
S3150800F9A00AEBC00703E0001B7880761C0837F6B21E
S3150800F9B04E4520DA7888B8F1000FA4B20BD08442FD
S3150800F9C0F3D22878801BC20092B2394607F10800A4
S3150800F9D0F7F73EF812E08442E5D30020788078787D
S3150800F9E0401E78706878401C68702878401E287019
S3150800F9F0FCF732FBD9E7B8F1000F04D02878401C91
S3150800FA0028707C8001E000202871287808B92871C0
S3150800FA1011E0287908B9C5F80CB06978E8680AEBE6
S3150800FA20C101ABEB00004988091AB1F1004F9CBF30
S3150800FA30281DFAF734FD3846BDE8F28FF8B50E46AC
S3150800FA4004466B4910464A780978891808291D46DC
S3150800FA5004D11F20F8F751FB0020F2BD0121FFF762
S3150800FA608BFF0746701C3C707870F9F7EFFFB8807B
S3150800FA70BD712046FAF7E8F90120F2BD70B55C4C75
S3150800FA8061782278064600255A4801E06D1CEDB2D9
S3150800FA908B189D421ADA10F83530B342F6D1511850
S3150800FAA0491B491E00EBC500CA0092B200F10801C5
S3150800FAB0F6F7CEFF3046FAF7D5F96078854202DACE
S3150800FAC0401E607070BD2078401E207070BD48488A
S3150800FAD0417800784018401E8041C00F704744485E
S3150800FAE0407800B10120704770B50024414D404E62
S3150800FAF004E015F83000FAF7B5F9641C3178727825
S3150800FB00E4B2204651188842F3DBBDE87040384815
S3150800FB100021017041700171704710B5354C01E044
S3150800FB2000F026F83248407830B12046FCF782F8D3
S3150800FB300028F5D0207810BDFF2010BD10B52C4A3E
S3150800FB4052789AB12B4C227882420FD151B96078FB
S3150800FB50103060701046FCF7B3F918B9607800F0F9
S3150800FB60F000607000F004F8012010BD002010BD00
S3150800FB7030B51F4C1F4D6078401E607083B0082258
S3150800FB80294600A8F6F764FF607821780818C200AD
S3150800FB9092B205F108012846F6F75AFF9DF80100CA
S3150800FBA00F21084217D19DF80000FAF704F8F8F774
S3150800FBB050FA9DF801000009411E89419DF8000090
S3150800FBC0C90F0022FBF704FF9DF80000FAF74AF96F
S3150800FBD0F8F740FA37BDBDF802000121FFF7CCFE61
S3150800FBE04188ADF80210082200A9F6F731FF37BDA3
S3150800FBF0807C0020907C002000210020BCE60000CC
S3150800FC0010B50022154B03EB820333F8044F8442E8
S3150800FC1004BF9B788B4201D1012010BD521CD2B281
S3150800FC20042AEFDB002010BD0D4A1268127B121F52
S3150800FC30022A00D2704710B5084A137802EB8304EB
S3150800FC4024F8040FA170581C00F00300107010BDB2
S3150800FC501022FF210348F6F73EBF00007C7D0020F6
S3150800FC60D8790020807D00204FF6FF71884200D1A8
S3150800FC70704780B500F05DF9FF280AD000F040F81B
S3150800FC80DFF8F82541881278A1EB111101EB021172
S3150800FC90418001BD80B5DFF8E8150968002081F8C4
S3150800FCA02D00F8F7E5F9FF2803D1DFF8D81503206A
S3150800FCB0087001BD30B5DFF8C8351B689C6A283363
S3150800FCC000225B7901E0521C0E34D2B29A4208D265
S3150800FCD025888542F7D30A702188884202D10120F7
S3150800FCE030BD0B70002030BD80B500F011F8FF283C
S3150800FCF002D14FF6FF7002BD00F002F8008802BD7F
S3150800FD00DFF87C150968896A0E2202FB0010704725
S3150800FD10F8B500F064F9876A002501E06D1C0E3716
S3150800FD20306890F82D00EDB2854208D20822B91D38
S3150800FD302046F6F7D7FE0028F0D12846F2BDFF2068
S3150800FD40F2BD80B500A9FFF7B5FF10B19DF8000018
S3150800FD5002BDFF2002BD80B500A9FFF7ABFF40B189
S3150800FD60DFF81C0500689DF80010806A0E2202FB69
S3150800FD70010002BD2DE9F047DFF804550FF21056D1
S3150800FD800446286882B090F82D1090F82C0081421D
S3150800FD9003D3AC213046F6F75DFD00A92046FFF7F0
S3150800FDA089FF18B1AF213046F6F754FD28689DF84B
S3150800FDB0002090F82D108E1AF6B20E27BEB39DF9C4
S3150800FDC00020DFF8C4C40121914089B24FF6FF72C2
S3150800FDD053189BB24FF00F0EBCF8008090450CD01C
S3150800FDE0BCF8048003EA08096FEA030A89440AEAA8
S3150800FDF0080809EB4808ACF80480BEF1010E0CF1BE
S3150800FE00060CE9D1806A9DF8001007FB010107FB83
S3150800FE1006F201F10E00F6F71BFE28689DF80010A1
S3150800FE20006B00EB8101B200081DF6F711FE286889
S3150800FE309DF80060806ADFF8441407FB0600082274
S3150800FE40048009780902418000210171102141715D
S3150800FE50801D0021F6F73FFE2868026B002142F854
S3150800FE60261090F82D10491C80F82D100D20002121
S3150800FE70F8F743F90CB903F012FA9DF80000BDE84B
S3150800FE80F687F8B5DFF8F8430646206890F82D009F
S3150800FE90811B4D1E8642EDB204D3D2210FF2F030FB
S3150800FEA0F6F7D8FC8DB3DFF8E0330120B04080B216
S3150800FEB04FF6FF710A1892B20F278018B3F800C0E0
S3150800FEC08C450BD0B3F804C002EA0C0E2CEA000CE1
S3150800FED00EEB5C0CACF5004CA3F804C09B1D7F1E12
S3150800FEE0ECD12068806A0E2101FB060001FB05F2B1
S3150800FEF000F10E01F6F7ACFD2068006B00EB8600FA
S3150800FF00AA00D2B2011DF6F7A3FD206890F82D10BD
S3150800FF10491E80F82D100021BDE8F4400E20F8F7A0
S3150800FF20ECB810B50C46FFF7ACFF2046BDE810400C
S3150800FF3020E7F8B50446FFF704FFFF282FD1DFF8BE
S3150800FF404053286800F128014A7909798A4222D360
S3150800FF50876A002601E0761C0E37286890F82D007F
S3150800FF60F6B2864210D23879C0F30211072904DAAC
S3150800FF7007221042EFD10329EDDB3888FFF773FA21
S3150800FF800028E8D1FF2E01D1FF20F2BD21463046D8
S3150800FF90BDE8F440C5E72046BDE8F240EAE6F2BD12
S3150800FFA02DE9F04100F01BF8856A884600270EE027
S3150800FFB00822A91D2046F6F795FD30B92888404540
S3150800FFC003D03846FFF75DFF7F1E7F1C0E3530686D
S3150800FFD090F82D00FFB28742EAD3BDE8F081A84E1B
S3150800FFE0044630687047F8B507460C463946204639
S3150800FFF0FFF7D6FF3846FFF79CFF0646FF2EA04DB3
S3150801000011D105F0F6F9FF2808D1F8F727FB296879
S3150801001091F82C1090FBF1F201FB12003946C0B29F
S31508010020FFF77FFF06460E2000FB06F72868806A61
S31508010030381808222146801DF6F70AFD2868806AC5
S315080100400021381800F0C9F83046F2BD10B58C49C0
S315080100500968896A0E2202FB0014072120790842E1
S3150801006007D1204600F060F801462046BDE8104059
S3150801007077E010BD38B504460D462846FFF761FE00
S31508010080FF281CBF214600F052F829462046BDE844
S31508010090344085E72DE9F843DFF8E4818146D8F84D
S315080100A00000846A002500260127D8F8000090F888
S315080100B02D0086420CD22088484509D0204600F0FA
S315080100C033F80428BEBF2079C0F30210072801DBE4
S315080100D03D43ADB2761C7F000E34F6B2102EE4DB3A
S315080100E02846BDE8F28338B50C46FFF734FE05000D
S315080100F001D1002032BD00F017F8014634B928793C
S3150801010010F0070002D0884238BF084632BD38B51C
S3150801011004460020451CF4F7EFFF8442E8B202D2F8
S315080101200628F7DB072032BD4088000AEFE770B5DD
S31508010130FFF755FF90F82C0084420D4605D340F28F
S3150801014095110FF24C10F6F785FB3068806A0E237D
S31508010150294603FB0400BDE870400822801DF6F716
S3150801016077BC027902F0F802114301717047F8B5BC
S31508010170F7F77EFFFF2823D0414D2868866A0024B9
S3150801018018E03079C0F30217072F11DA7F1CF9B28C
S31508010190304600F022F8FFB2072F01DA032F07D104
S315080101A000213046FFF7DDFF00210F20F7F7A5FFF5
S315080101B0641C0E36286890F82D00E4B28442E0D318
S315080101C0FFF746FD04F00FFE05F021FBBDE8F440FC
S315080101D04FF47A512D48FAF762B9027902F08F0283
S315080101E042EA011101717047002009E0896A0E226D
S315080101F002FB0011401C4A7902F0EF024A71C0B2B3
S315080102001F49096891F82D209042EFDB70472DE9C7
S31508010210F8431B4C206890F82D6002252068D0F819
S315080102202880002704E0761EF6B27F1C08F10E0826
S31508010230206890F82D00FFB287420BD2B8F80090DB
S3150801024000214846FFF74FFF0028EED0002EEAD1DD
S31508010250484610E086420CD0F8F700FA216891F872
S315080102602D10891B90FBF1F201FB12066D1EF6B2E9
S31508010270D4D14FF6FF70BDE8F2830000D67F002087
S31508010280D8790020E87F0020047D00204C7C0020DE
S315080102906E65696768626F722E63000080B5042314
S315080102A0042200A901200CF07CFBDFF85415009804
S315080102B009680003C86101BD10B5DFF84445206827
S315080102C0C069000507D1F7F7C0FE00280CBF042056
S315080102D01220F4F722FC2168C869421CCA6110BDC4
S315080102E0DFF81C050068C069704780B5DFF810158E
S315080102F0096800200090C8610423042200A90CF0B3
S3150801030050FB01BD00B585B01123062200A90120C5
S315080103100CF047FBDFF8E8049DF81010026882F834
S3150801032020100068C07E00281CBF0528002002D1C5
S31508010330F8F73AF9012005B000BD70B50C46154627
S315080103401E46014610223046F6F782FB3470280A0B
S31508010350B073F5733046BDE87040F8F726B92DE954
S31508010360FB4F8CB090469DF86400189D00289DF8B7
S3150801037030008DF8040014BF012702279DF83800C4
S31508010380841A9DF83000029026460D9850B900F05F
S31508010390A3F8DFF87014029A0968555CFF281CBF98
S315080103A0405C45199DF8640000289DF8380014BF83
S315080103B009214921EDB22A1A1A9803AB92B2FFF71D
S315080103C0BCFF0DF10C0A9AF8010060408AF8010099
S315080103D09DF8640030B11022002103A8F6F77BFBD3
S315080103E08DF80C4000244FF0000915E017F80A3083
S315080103F011F8010B434007F80A30521C7F1CD2B290
S315080104005A45FFB2F2DBD944102F5FFA89F903D1B5
S3150801041003A8F8F7CAF80027F6B2B1451EDAC7F1FC
S31508010420100BA6EB0900C0B25FFA8BFB584538BF23
S3150801043083460D9858B9009009EB08029DF80410F7
S315080104405B46D2B207A8F9F7ACFD07A904E05FFA43
S3150801045088F8404409EB00010022D0E7012C18BFB7
S31508010460002FB04403D003A8F8F79FF800270D988A
S3150801047008BB00F031F884B9E249029A0968515C6F
S315080104809DF838208E1AFF289DF8640008BF0124BC
S31508010490B0B1F6B2A6B9022412E0012C10D100F0CF
S315080104A01BF88DF804004FF00008D6489DF8041093
S315080104B000680E5C04E01CB99DF8380001242E1A68
S315080104C0601CC4B2032C8EDB1B98042203A9F6F721
S315080104D0BFFA0FB0BDE8F08F9DF83000F9F7F8BC08
S315080104E02DE9F04F85B004460F4690460025F9F7E9
S315080104F0EFFC824601224FF0010901AB114600F0DB
S3150801050078F88DF80040DFF800B3BE489DF8001072
S3150801051000680E5C394600A8F9F72EFEF71B04465B
S31508010520FFB223E0037815F80C205A4000F8012B96
S31508010530491C6D1CC9B2B142EDB2F3DB3419BF1BBC
S31508010540E4B2202CFFB207D1DBF800009DF80010B9
S31508010550085C8DF800000024102D07D109F1010966
S3150801056001AB1FFA89F200F043F80025A7B1C4F1DF
S315080105702006F6B2C5F11000BE42A8BF3E46C0B27B
S31508010580864228BF06469DF80000F9F7F7FB2018B2
S3150801059000210DF1040CCDE78DF800A04FF0FF0AFC
S315080105A09DF80000FF28B0D105B0BDE8F08F2DE910
S315080105B0FF4104460D461646984609E02278C85C6E
S315080105C0504004F8010B491CC9B2B942F6DBED1BD0
S315080105D0EDB25DB1102DB4BF2F46102700ABB2B2F4
S315080105E000F006F8761C002100ABEDE7BDE8FF81B7
S315080105F001214046A1E670B50D461146804A1268AA
S31508010600D27E0446287800F020061043287006B1E9
S31508010610691D0822601CF6F71BFA0422691C04F1FD
S315080106200900F6F715FA28786073002E297814BFA1
S315080106300D20052001F01801082908BF401CC0B289
S3150801064070BDF0B506466F4800680C4685B0205C5B
S3150801065015461F46431BDBB20E2BA8BF0D230020F0
S31508010660009001A8F9F79DFC3A4601A93046FFF723
S31508010670C2FF06469DF8042029462046F9F78DFD56
S31508010680304605B0F0BD2DE9F0418CB004468846E8
S315080106901546F9F71DFC06465C4B2A46214608A86D
S315080106A0FFF7CFFF471904A80390FBB208A80290E9
S315080106B0424600200190009000212046FFF74FFE98
S315080106C000F04BF808AAF9B22046FFF709FF2946B8
S315080106D02046F9F75DFD00F0F80229462046F9F7AC
S315080106E05CFDFF2E18BF3446042204A92046F9F7FB
S315080106F0C2FC401E8041C00F2CE02DE9F0418CB0B0
S3150801070004460D4690461F46404A391908A8FFF780
S3150801071072FFC61904A80390009508A80290F3B2BF
S315080107200020019042462146FF20FFF718FE00F0FF
S3150801073014F8042204A92819F6F78AF9385D00F095
S31508010740F8003855A91BF6B208AB0122C9B230190F
S31508010750FFF72DFF0CB0BDE8F08108AB002204219C
S3150801076004A824E72DE9F04391B080468946154649
S315080107701C46F9F7ADFB074623462A46414608A813
S31508010780FFF75FFF44191F480068FF2F08BF474658
S315080107900423385C061F00200090F2B2394604A8EB
S315080107A0F9F7FFFBF1B23846F9F7A7FCFFF7D5FFD2
S315080107B008AAE1B24046FFF793FE0CA80390E3B2FC
S315080107C008A802904A460020019000900021404660
S315080107D0FFF7C5FD29464046F9F7DAFC00F0F802AD
S315080107E029464046F9F7D9FC04220CA904A8F6F7CC
S315080107F079F9401E8041C00F11B0BDE8F0830000B1
S31508010800D87900209C380020A43800200C7A0020D2
S3150801081080B50423012200A901200CF0C2F8009832
S31508010820DFF8EC120003086001BDDFF8E402006896
S31508010830704710B5DFF8D8422068000504BF0120CB
S31508010840F4F76BF92068411C216010BD80B5DFF80B
S31508010850C012002000900860042300AA7F2101200D
S31508010860F4F737F901BD2DE9F84F94B00E461F9CF0
S31508010870002703210C428046924603AD4FF0A60B92
S3150801088004D08DF80C300DF10D0513E0711D89B2F8
S31508010890504600F04EFC002845D000970523324605
S315080108A0514603A8F9F77DFB9DF80C0000F01800E6
S315080108B08DF85000DDF87890B9F1000F58D15046FF
S315080108C0F9F765F921074CBF001D801CFAF7FBF8FB
S315080108D001900DF11C099DF80C0080060FD506F153
S315080108E00D0189B2504600F024FCC8B1721D00976B
S315080108F00823D2B2514607A8F9F753FB05E0019838
S3150801090007A980B200F0CFFA50B98248006804F00E
S31508010910180118290FD1019969B14088814227D058
S315080109200320044203D100211A20F7F7E6FB5846B3
S3150801093015B0BDE8F08F417B432904BF0199002911
S3150801094016D1007D400613D509A806F099FF9DF832
S315080109500C00800648BF07A904D46E480068011D2B
S3150801096000F10409082209A8F6F7BCF800B1012725
S3150801097041465046F9F70CFC00F00300431E9B4123
S31508010980DB0F002F14BF09A8484602AA0BA906F0D7
S31508010990CBFF5FEA000BC3D15FB10FAA0BA91020E9
S315080109A00CF0DAFE0028BBD110220FA90BA8F6F726
S315080109B04FF89DF8500008B90BA80BE0102845D14F
S315080109C000208DF800000FAB012200A90BA80CF03E
S315080109D069FF0FA8F7F7D2FD03210C42DFF838B1FA
S315080109E03CD0FFF726FF024629460120FAF776F89A
S315080109F02D1DA00718D54146504600F0B2FC093016
S31508010A0080449DF80C0040F020008DF80C00082267
S31508010A1059462846F6F71CF808355FFA88F1504614
S31508010A2000F087FC00EB080601200090F2B203A84B
S31508010A302B1ADBB25146F9F7B4FAF2B25FFA88F12A
S31508010A405046FFF720FE38B1002071E7182808BF85
S31508010A500220B6D0A6206BE7182069E70DF10D0133
S31508010A600120FAF749F8054660071AD4029860B9D1
S31508010A7000244B4600200090324641465046FFF777
S31508010A8071FE88B94FF0A60B4DE797F00104F0D037
S31508010A9000688542EDD200211620F7F72EFB0120CA
S31508010AA046E700245B46E5E714B10299681C08602D
S31508010AB0002FC9D04FF08051002006F08EFEC3E703
S31508010AC02DE9FC410446884616461F4600F0E6FB1A
S31508010AD005462946204600F02CFC41190197009647
S31508010AE043462246C9B22846FFF7BDFEBDE8F68150
S31508010AF080B5F9F7EDF9FF2808D0084A1268815C34
S31508010B00BDE80440091FC9B2F9F7F7BA01BD0000EB
S31508010B103C7C0020D87900200C7A00209C380020E3
S31508010B2038B5F8F72DFFFDF77DFCDFF80844207886
S31508010B30002840F0A78012200BF0B0F800060BD56C
S31508010B4000F0DFF8000607D500F0DEF8000603D549
S31508010B5000F0D4F8000610D412200BF09FF8000616
S31508010B6014D500F0CEF8000610D400F0CDF8000632
S31508010B700CD500F0C3F8000608D5E0780E2861D137
S31508010B80F3F73EFF002800F07F8032BD00F0B9F888
S31508010B9000060FD400F0B8F800060BD500F0B4F83B
S31508010BA0C00707D400F0AAF8000603D4E0780C2899
S31508010BB045D1E5E700F0A5F8000609D500F0A4F847
S31508010BC000F08100812803D100F098F800060DD5C0
S31508010BD000F097F800060ED400F096F800F08100B0
S31508010BE0812808D100F08AF8000604D4E0780D2897
S31508010BF0C6D00E28DCE700F084F8000610D500F010
S31508010C0083F800060CD400F079F8000608D5E078D8
S31508010C1016281CBF01281A28B2D00F2815D1AFE70C
S31508010C2000F06FF80006ABD400F06EF80006A7D402
S31508010C3000F064F80006A3D5E0781628A0D0E0787D
S31508010C4001289DD0E0781A289AD0E078022818BFA2
S31508010C501B2895D0062818BF072891D0082818BF41
S31508010C6009288DD00A2818BF032889D0102818BF4B
S31508010C70112885D0122818BF1328FAD0142818BFAE
S31508010C801528F6D0B02032BDF5F778FA0CF03BFE00
S31508010C90DFF8A402007808B10AF03CFB04F09AFEDA
S31508010CA0F8F7B1FBDFF894420FF2C820F9F77FFC99
S31508010CB02070DFF88C02F9F77AFC6070F6F724FEEB
S31508010CC005466078F9F794FC2846F6F723FEF7F708
S31508010CD00FF9F9F7A8FDF9F735FF0BF065F80BF0F1
S31508010CE0A1F803F01FFF0120F4F70EFCDFF8540208
S31508010CF04FF47041F9F7D3FB002032BD00200AF00A
S31508010D00CDBF10200AF0CABF11200AF0C7BF2DE9CE
S31508010D10F047FEF7CBFDFEF7BFFBF7F713FC08B963
S31508010D20F7F7FCFBDFF820824046F9F78BFB08B999
S31508010D30FAF705FADFF814924846F9F783FB08B97A
S31508010D4001F0F1F905F0CDF8F6F745FFDFF8EC61AA
S31508010D503078F9F718FC7078F9F715FC0CF0DCFD1A
S31508010D60DFF8EC51DFF8ECA1002700240BE0204660
S31508010D70F7F76FF92868007B001F022838BF01279B
S31508010D80F7F768F9641C9AF80000E4B28442EED3D6
S31508010D90002F1EBF70480078002805D000F02AF8F9
S31508010DA0102808BF05F018FAF8F7F6FA0CF08AFFCA
S31508010DB0F6F7AAFD0746F7F7C5FB68B14046F9F706
S31508010DC041FB48B14846F9F73DFB28B10CF068FFED
S31508010DD010B13078F9F70CFC3846F6F79BFDF7F7B2
S31508010DE031F918B94FF4B47100F03FF8F5F78BF8FB
S31508010DF0BDE8F08710B5F9F700FD40B1FEF767FECB
S31508010E0028B1FBF7F0FF441EA441E40F00E00124DA
S31508010E10F4F764FC08B944F00404F7F793FB38B116
S31508010E204948F9F70FFB18B14848F9F70BFB08B918
S31508010E3044F002044948007808B144F020044648C1
S31508010E40007808B144F010044548007808B144F028
S31508010E504004FBF7C4FF08B144F08004FBF7C1FF67
S31508010E6008B144F48074204610BD0FF2F800F5F776
S31508010E70F1BC38B5044636480068007BC01E032815
S31508010E800BD32046FBF79DFC4FF6FF75A84204BF1E
S31508010E902046FEF729FFA84204D12046BDE8324084
S31508010EA004F080BE32BD70B504464FF6F870844230
S31508010EB00D4627DA264E3CB93068007D800703D4F3
S31508010EC0284606F0DDFCD8B9306841888C4205D140
S31508010ED0011D08222846F5F7BBFD11E0007BC01E5F
S31508010EE0032808D3204603F00DFDFF2803D0294621
S31508010EF003F02CFD20B92946204604F09AFE08B1D4
S31508010F00002070BD012070BD11480068008A704735
S31508010F100F490968088270470D480068408A70477A
S31508010F200B49096848827047094800680078704784
S31508010F300000000096070808EC3B0020CD7F002042
S31508010F4070CB0308607D00200C3C0020F03B00209C
S31508010F50D8790020E0380020247A0020F87900208A
S31508010F606C7C00207A69676265652D737461636BB1
S31508010F702E630000D07C0020997B0008A47B00200A
S31508010F808DC00008387A0020FDF00008847C002016
S31508010F90F9FB0008747D002089E90008F87900202A
S31508010FA08B3F0108047A002049400108247A002071
S31508010FB0D5610108F079002093350108187A0020D7
S31508010FC0714F0108787C00201B580108647C0020B9
S31508010FD0391602084C7C00206F010108F47C0020B8
S31508010FE029560108547C0020FDDD01085C7C00209F
S31508010FF0B9E201085C7A00205D7B0108E47C0020E7
S3150801100031DC01086C7C0020F94A0108C879002006
S31508011010BF7F0008687D00205F820008607D002090
S3150801102085240308D0790020EF800008000000001D
S31508011030000000002DE9F8438046894617461C46FC
S31508011040F8F746FF0546FF2DDFF8586509D0AFB911
S31508011050F9F7A9F8FF2820702BD13068285C90BBD6
S3150801106027E0306818F80000A0EB0900B9F1FF0F76
S3150801107008BF01201ED0C6B216B9FF20207018E09D
S31508011080D7B145462846F8F7DFFE00964B46424655
S3150801109000212846F9F746F957B131462846F9F7A6
S315080110A02CF8DFF804050068295C01F07F01295452
S315080110B025700020BDE8F28331460020F8F755FF78
S315080110C00546FF2DE1D11820F4E738B50446DFF8C7
S315080110D0D4040068255C204600F0E0F800F10E0310
S315080110E0DBB2E91A89B20091224601462046F9F790
S315080110F019F9A5F10E012046BDE83440C9B2F8F741
S31508011100FCBF38B50446F8F742FD05462046F8F710
S3150801111034FD6A780821D30748BF0921130744BF5C
S315080111200831C9B2D20644BF0831C9B20818C0B2DB
S3150801113032BDDFF870241268825C8A428041C0435E
S31508011140C00F704700F8011B090A00F8011B704718
S3150801115010B504460822F5F77BFC04F1080010BD1A
S315080111602DE9F04E92460C46024684B099464FF652
S31508011170FF710420F8F7C8FD0546FF2D6CD0F8F776
S3150801118006FDDFF8286407463068C07E10B94FF6B9
S31508011190FF50044020050DD5B9F1000F0AD100A969
S315080111A05046FFF780FE00280EBF0DF100094FF2E9
S315080111B0FF70044021463846FFF7C4FF5146FFF742
S315080111C0C1FF8346FFF7A0FE01465846FFF7BAFF5F
S315080111D0DFF8DC2313780C9A0146481C0AB19342BE
S315080111E000D21A460A703168DFF8B8634A7E521C83
S315080111F04A7600F8012BE10548BF401C210544BF8A
S315080112004946FFF7A5FFE10444BFDFF8A813FFF736
S315080112109FFF31686A5C8018C01B685440F2011050
S31508011220044218D14FF6F870824514DA30682F5CFB
S31508011230F6F70AFF29465046F8F7ACFBF6F70AFF18
S315080112403068285CB84206D02846F8F7A0FC4178F1
S3150801125041F004014170284604B0BDE8F08E70B52E
S3150801126082B01546069A1E4641F209240AB141F68C
S31508011270092400910246079B2146FF20FFF770FFCC
S315080112800446FF2C09D032462946F8F7F4FE002811
S31508011290204602D0F8F7E6FDFF2076BD38B50446AC
S315080112A0FFF72FFF05462046F8F771FC40784007FF
S315080112B004D500F072F8401C05EB4005E8B232BDD2
S315080112C000F108014078020701D400207047C007E1
S315080112D001D5481C70470846704700F10801407857
S315080112E0C20601D400207047C20748BF491C00073F
S315080112F002D501F1080070470846704700F003015E
S31508011300012901D10220704700F00C000C2801D1F7
S3150801131009207047082070470322114207D000F0C0
S315080113200300022801D103207047022070470020DC
S315080113307047F8B504460D46F8F72AFF0646FFF743
S31508011340DDFF0746300601D43846F2BD7919C9B220
S3150801135000F024F801463046FFF7DEFFC019C0B297
S31508011360F2BD70B504460D46FFF7E3FF064600F0E9
S3150801137014F880060FD57119C9B200F00FF8761D59
S3150801138000F01801F6B2082904BF761CF6B28006E9
S3150801139044BF0836F6B2304670BD29462046F8F7EE
S315080113A0F7BE38B50446FFF779FF054629462046B4
S315080113B0FFF7D7FF4019C0B232BD2DE9FF47804676
S315080113C00C46F8F7E4FB0646F9F77DFB0546404669
S315080113D0FFF764FF074639464046FFF7AAFF002193
S315080113E0009103463A46414601A8F8F7DAFD9DF809
S315080113F0048008F00C000DF1050A4FF0FF090C28CE
S315080114001ABF9DF805000DF1060A484608F00C07B3
S31508011410607106D15046F9F756FB20810AF1020A96
S3150801142001E0002020817078C00704D50C27B01C84
S31508011430F9F749FB20815046F9F745FB60800AF127
S3150801144002063046F9F73FFB208008F00301B01C7D
S31508011450012918BF10F8019B84F8049010F8011BA4
S31508011460A17208F0600139432A0648BF41F40071A8
S3150801147003D46A0648BF41F48071EA0448BF41F4BF
S3150801148080612A0548BF41F40061E1805FEA08618D
S3150801149017D510F8011B11F0030112D0E38810F8D3
S315080114A0012B43F40043E38008F00303022B04D124
S315080114B0007842EA0020208103E0012908BF1202D0
S315080114C02281BDE8FF872DE9F041154686B08046A1
S315080114D00C46E888082C18BF0C2C064604D0800454
S315080114E05CBF06F040000143304F3868C07E10B13A
S315080114F006F020000143300448BF41F080010C2C5E
S315080115008DF8001005D129890DF10100FFF71AFEA2
S3150801151004E068798DF801000DF102006988FFF78A
S3150801152011FE2988FFF70EFE297900F8011B022C06
S3150801153009D0310402D52989C9B221B939688A7E07
S31508011540531C8B76AA72A97A00F8011B310415D5AA
S3150801155029890A0A022C01D0CBB23BB1022300F831
S31508011560013B022C00F8011B08D105E010F8011C0B
S31508011570A972012100F8011B00F8012B3968C97EFF
S3150801158019B1A979890648BF401D00A9421AD2B2E4
S315080115904046F8F770FD401E8041C00F06B0BDE811
S315080115A0F08100009C380020A0380020D87900205E
S315080115B0183900200C7A002010B50446FFF7A4FC60
S315080115C002462046BDE810400021FFE72DE9F24F0B
S315080115D00746DFF89406006886B0407B0025022896
S315080115E092464FF0060913D13846FBF73FF9002812
S315080115F00ED14FF6F9718F4202AE1AD14FF020087B
S31508011600082400F02AFBC0F09C80FFF77DFC824588
S3150801161040F09780FFF778FC0746FC20F070FF2022
S315080116203071022239465046FDF7E7FFC8B101205D
S3150801163088E04FF6F8718F4203D14FF01008102455
S31508011640DFE7380A3071A846F7700DF10E01384602
S31508011650FFF729FC002812BF002420244FF00E09A9
S31508011660DFE7DFF808B69BF80000401C01218BF87C
S3150801167000008DF808107470B070757101950095A9
S315080116804B469DF8181002AA4FF6FC70FFF7E7FDC6
S315080116900646FF2E55D0FFF737FC824510D0304657
S315080116A0F8F775FA04465146201DF9F713FA20464C
S315080116B0FFF713FE01465046FBF7F2F800283DD026
S315080116C000F0CBFA4FF6FF7905D249463046F9F7CD
S315080116D0FEFB054632E0FDF7B7FF04002ED0E21DFA
S315080116E041463846FDF7B5FF070027D000231A46BD
S315080116F003213046FEF7A2F9050015D0A4F800A08B
S315080117009BF80000207100206071FFF7FDFB824500
S3150801171005D1387900F0FC0040F00100387100214C
S315080117200C20F6F7EAFC09E0387900F003010129F3
S3150801173004D140F003003871A7F800903046F8F755
S3150801174091FB284686E22DE9F041804615461E465C
S315080117504F1CF8F71CFA0446201DF9F7B4F928803E
S315080117604046F8F735FA6880F9B2A079E87240463A
S31508011770F8F70EFDA8727F1CF9B24046F8F708FD86
S3150801178028727F1C2EB1F9B24046F8F7A8FDBF1C96
S3150801179000E02888A880F9B24046F8F7A0FDE8805D
S315080117A0B91CC9B24046F8F7F3FC68720122297AD6
S315080117B0A888BDE8F041FDF720BF3EB50C460021DB
S315080117C000911D460146082301A8F8F7EAFB2A46B7
S315080117D001A9204603F029FA3EBD10B50C46DFF8EB
S315080117E08814096882B0097BC91E032908D300AA8F
S315080117F01021FDF72EFF18B144800021FDF7A8FD41
S3150801180013BD2DE9F04704468AB0A07A89461546E4
S3150801181000F040080826FFF777FBE288824206D0E7
S31508011820012702A91046FBF73BF808B943E0002750
S3150801183060880021FEF757FCB9F1000F824607D0F0
S315080118400822494606A8F5F703F948F010081026B4
S31508011850002F14BF02A9DFF8181404A808223018AB
S31508011860F5F7F6F8BAF1000F25D002208DF8100029
S3150801187048F0200104A806F108034170DBB2217A79
S31508011880817004AAA1888DF81310A188090A01712B
S31508011890E1888DF81510E1888DF817A0090A81717C
S315080118A0002001900021012000906088FFF7D7FCF5
S315080118B00646FF2E01D1002010E06188F8F799F954
S315080118C0002D14BF02210021002300223046FEF715
S315080118D0B5F804463046F8F7C5FA20460AB0BDE819
S315080118E0F0872DE9F04383B080460F4615469946A1
S315080118F0F8F74DF9044600214846FEF7F4FB06467B
S31508011900F91DC9B24046F8F719FC8EB10DB901782F
S31508011910761806706078000713D500A94846FFF7C0
S31508011920C2FA28B90022082100A8FBF7ECF908B188
S31508011930002029E02046FFF7C3FC082200A9F5F795
S3150801194087F8FFF7E1FA0146201DF9F7C3F8607831
S31508011950C00606D52046FFF7C0FC0822C449F5F79C
S3150801196077F84946A01CF9F7B5F849464046F8F70D
S3150801197040F9BD480068417E491C4176E171A0796C
S3150801198008B90120A0710120BDE8FE832DE9F04FB9
S3150801199087B08046FF20154600278DF801004FF0D5
S315080119A0000B002D89468DF800B014BF08240624C3
S315080119B02B4601AA4046FFF7C6FE06468DB19DF89D
S315080119C00E00C0060DD504F10800C4B209F10802DB
S315080119D0BDF808100023D2B24046FFF7EEFE0028F4
S315080119E037D19DF80E0080060CD56B1E9B4104EB82
S315080119F00902BDF80A10DB0FD2B24046FFF7DDFE39
S31508011A00002826D1002D14BFBDF808A0BDF80AA0EC
S31508011A10FFF77AFA824504D05046FAF727FF040001
S31508011A2000D00124002D3FD016B94FF6FF7A26E0E3
S31508011A309048F1790068B6F802A0062202FB010B6C
S31508011A40BDF80A10BBF80000884203D04FF6FF70B4
S31508011A503080FFE024B9BDF80800FDF7BFFD074651
S31508011A6000215846FDF774FCBDF80600ABF80200E4
S31508011A702FB100213846FDF76BFC7088788004F099
S31508011A80F3FA7D48007800280DD0002C0BD1534677
S31508011A90002249464046FFF724FF002803D0514655
S31508011AA04046F9F714FAD5E0BDF806000021FEF71D
S31508011AB01AFB0590BDF80400FAF7D8FE0546FFF7AC
S31508011AC023FABDF804108142EDD000F0C6F8EAD336
S31508011AD09DF80E004106E6D405992943E3D000F0A6
S31508011AE01801082908BF4FF0200A06D000F018008F
S31508011AF010280CBF4FF0100ADA469DF80D0005991B
S31508011B0008188DF80D0014B95FEA0A0000D0012003
S31508011B1004903EB9FDF798FD06460120002E8DF882
S31508011B200000C0D0049848B9BDF80A000DF10102B9
S31508011B300021FDF78EFD5FEA000B45D045B9BDF8DA
S31508011B4008000DF102025146FDF783FD07003BD05F
S31508011B504948007828431EBF9DF8000084F001011A
S31508011B60084227D0F6F77AFD7E2190FBF1F17E2215
S31508011B7002FB1100801CC5B29DF80D2009F1050173
S31508011B80C9B24046F8F709FB4FF6FF714046F8F728
S31508011B9030F805980428A8BFA5F1800003DA0228C1
S31508011BA002DB05F14000C5B200232A460221404660
S31508011BB0FDF744FF9DF8000070B970799DF80D1086
S31508011BC0814209D3BAF1000F44D0814242D1F6F7D6
S31508011BD045FD032108423DD1BDF8060070809DF8F8
S31508011BE00D0070719DF8000070B1BDF804003080D9
S31508011BF09DF80C003071049810B1FF20F07111E0C6
S31508011C009DF80100F07119E0BBF1000F1EBFF079D4
S31508011C109DF80110884205D040F267210FF2E800CD
S31508011C20F4F718FE002F1CBF0498002806D0BDF84B
S31508011C3006007880387900F0FC00387154B14046C6
S31508011C40F7F7A5FFFFF749FB01469DF8002001A814
S31508011C50FFF7D7FD07B0BDE8F08F03480068007BA2
S31508011C60C01E032870470000D8790020E57F0020B0
S31508011C700C7A0020C0380020AC3800202DE9FE433C
S31508011C8004460D4690469946FFF73EF9844214BF2D
S31508011C900126002605218DF80810002702A93EB164
S31508011CA088700122000A4A708DF80B00042301E0AE
S31508011CB04F70022301970120009002AA00212846AD
S31508011CC0FFF7CDFA0546FF2D1AD08EB1F7F75FFF5C
S31508011CD006462146301DF8F7FDFEA9F18000F07190
S31508011CE03046FFF7FAFA01462046FAF7D9FD20B140
S31508011CF041462846F9F7EBF807462846F8F7B2F8B9
S31508011D003846BDE8FE830000726F7574652D6469F7
S31508011D1073636F766572792E630000002DE9F84FBB
S31508011D208AB00D461646ADF804504FF00008F788FC
S31508011D300446C246C146FBF72AF8159860B9F80663
S31508011D400AD59DF850009DF828300090324629465C
S31508011D5020460CF04BF804E1780548BF4FF4805A49
S31508011D60380548BF4AF4006AB80548BF4AF0800AF0
S31508011D7003D4F80548BF4AF0400A9DF8500002907E
S31508011D80072CAB4665D8DFE804F0062C183A3A0466
S31508011D90063A4FF002099DF82800BDF80420009084
S31508011DA043469DF850004AF40271FFF7D9F9824675
S31508011DB0BAF1FF0F4FD11820D3E005A9E8B209F00F
S31508011DC054F908220DF1190103A8F4F741FEDFF8C9
S31508011DD06008006830F81B000DF10C08ADF8040026
S31508011DE0D9E703A9E8B203F06EFEDFF848080068F0
S31508011DF00C2101FB0B000DF10C080088EEE74FF6EC
S31508011E00F870834525DBF0884FF40261084220D13A
S31508011E1000F033F918BF91201CD10298FF280FD082
S31508011E2000F01DFB032C0CBF01210021401ADFF82D
S31508011E300818029A0968515C8842B8BF742009DB00
S31508011E40032C0CBF4FF00C094FF008092AF4C07A8D
S31508011E50A1E7012085E0DFF8E40700884FF6FF7166
S31508011E60884214D05046F7F792FE8346DFF8CC072E
S31508011E7001880BF10400F8F72DFEDFF8C407DFF837
S31508011E80BC1700788BF807004FF6FF7008803246BA
S31508011E9049465046FFF717FB08B918265DE0DFF8F3
S31508011EA0A4070068C07E48B1B80607D50123424693
S31508011EB000215046FEF704FE06004ED10298FF287F
S31508011EC016D05046F7F759FEDFF878170968C97E24
S31508011ED001B11221DFF86027029B12689B5C1AF890
S31508011EE00220D218743089188842B8BF742634DBA8
S31508011EF0B80407D55046F7F754FE40F480615046BA
S31508011F00F7F751FE062C12BF072C5046F7F758FE75
S31508011F10159848B1BDF804105046F7F76AFE1598AA
S31508011F2080F800A000201CE0E01E022801D9001F4D
S31508011F3007D15046F8F75CFE00280CBFA1260026FB
S31508011F400BE0B80444BF4FF6BF7007403B46EAB200
S31508011F502146504604F099F806465046F7F782FF9F
S31508011F6030460BB0BDE8F08FF0B587B00E46044693
S31508011F700C9917461846F7F7F8FF0546FF2D21D0A5
S31508011F80FF208DF810008DF81100ADF80E704CF297
S31508011F900E00ADF80C00ADF812600020ADF8140083
S31508011FA0009502A80190FF2303AA21460020FFF706
S31508011FB0B5FE04462846F7F755FF002C0CBF9DF8D9
S31508011FC00800FF2007B0F0BD2DE9F043164685B09D
S31508011FD00446F08804900D4670790FF2A0610390CB
S31508011FE01F4630790290A84670880190434630888A
S31508011FF00090082200F069F800F03FF818BF912018
S3150801200019D1FF2F09D000F02AFADFF82C16096832
S31508012010795C884238BF74200DD37CB94FF6F870C5
S31508012020804528DA002001900097FF233246294689
S315080120302046FFF773FE05B0BDE8F083022C4FF684
S31508012040FE790CD1DFF800060078854213D2DFF855
S31508012050E005006830F818004845E3DB0BE0012C81
S3150801206009D1DFF8E8050078854204D2E8B203F021
S3150801207038FD4845D6DB0120DDE7DFF8C8050068ED
S31508012080407B02287047F0B587B00D4616460446D0
S3150801209005961F46E8880FF2EC51049023466879A5
S315080120A0039009222879029068880190288800906F
S315080120B000F00BF800200190009733462A46214686
S315080120C00420FFF72BFE07B0F0BD0320F7F751BC3C
S315080120D070B588B004460D46069205951E46E088F9
S315080120E00FF2AC5104900622607903902079029090
S315080120F0608801902088009003202389F7F739FC2E
S31508012100DFF84C0500780096002814BF4FF6FF71DA
S315080121104FF6FD71002001902B4622460320FFF75A
S31508012120FDFD08B070BD10B5DFF82805F8F740F9D0
S315080121300446FF2C0DD02146042002F0F6FC18B106
S315080121400121204600F006F82046BDE81040F7F7C1
S3150801215089BE10BD2DE9FE4F82460D46F7F717FDDC
S315080121600646B01CF8F7AFFC83465046FFF796F8CB
S3150801217001465046F8F70CF8804608F00309504620
S31508012180F7F719FDF5F765FFDFF8CC44301DF8F7C9
S315080121909AFC2080DFF8C474FEF7B6FE834512D098
S315080121A04FF6F87083450EDA7078C0070BD4584697
S315080121B0FAF751FB002869D020880123524659466F
S315080121C000F0B3F962E000A95046FFF7F6F800A857
S315080121D038603046FFF781F8DFF884140860032178
S315080121E05046F7F7C4FCDFF87C1408700421504602
S315080121F0F7F7BDFCDFF8701408704DB39DF80600BB
S31508012200800625D5DFF83C54FEF77EFE40B12868E6
S31508012210007D800704D4B9F1010F08BF102000D052
S31508012220002040F00803002200215046FEF748FC32
S3150801223070B108F00300012802BF2868407B112805
S3150801224039D105F0FBFBB0BBAF2001F07EF832E0D7
S3150801225018F0030003D0022805D009D316E050462A
S3150801226000F02DF812E05146404603F03CFF0DE020
S31508012270FEF74AFE2188814208D05146052002F020
S3150801228054FC18B12188504600F0E3FAFEF73CFEEB
S31508012290218881420DD15046FFF700F80146504684
S315080122A0F7F776FF0C21084203D10021504604F0C6
S315080122B03BF900203860F5F7CDFEBDE8F78F2DE92B
S315080122C0F04F83B08046F7F762FC0546A81C95F8DF
S315080122D001B0F8F7F8FB4FF6F8718842ACBF012652
S315080122E00026FEF711FEDFF87093DFF87073B9F870
S315080122F0001081423868B0F802A00CBF01240024FE
S315080123000BF0010030438DF804009DF80400002805
S3150801231014BF062008200021F5F7EFFE386801886A
S31508012320002904BF4079002808D1B9F80000BAF598
S31508012330004F19DB5246414605F0B3FD386800885F
S315080123404CF20E01884241D144F20106B24518BF4A
S31508012350BAF5804F37D14046FFF723F80146B24513
S315080123600CBF0120002025E0DFF800B302218BF81D
S31508012370001033460022414605F006FC386880798C
S31508012380400603D5FF21504600F074F8BAF1130F41
S31508012390D4D03868C0884004D0D4B5499BF8000029
S315080123A00978CA0701D50228C8D0890749D501285D
S315080123B0C4D046E0491EC9B200912B4642460121C6
S315080123C001F043FB3DE0404604F0C9FA38688179DB
S315080123D001F00C010C290DD1008903F0BEFC80B374
S315080123E038680189002C14BF03250225002008F04E
S315080123F0C0FE14E00179009100224379B9F8000082
S31508012400002108F0E5FE3968897901F00C010829EF
S3150801241004D1002C0CBF0425052500E000259549AB
S3150801242008709DF8040010B9BAF1380F01D10122DC
S3150801243000E000222946404603B0BDE8F04F08F007
S3150801244097BBBDE8F78F10B5044600F008F861059B
S3150801245048BF0838210548BF0838C0B210BD7949B8
S315080124600968C97E642001B1522070477B49096811
S315080124700881704770B5794E0C4686B005463168B5
S315080124800C2202A8F4F7E4FA306801798DF80D10E8
S31508012490FF2341798DF80C10ADF80A504FF6BF713C
S315080124A0C08800940840ADF80E0002AA00200190E9
S315080124B0694801880520FFF731FC06B070BD70B583
S315080124C082B005460E4600962B460C2257A1FFF709
S315080124D0FCFDFAF75CFC684C2078012804D15F48BA
S315080124E000688079400601D4702076BD31462846B9
S315080124F0FFF7C0FF0521217076BD5F48007808B94E
S31508012500FF2070475B48007870470A4680B50C2162
S31508012510084208D19079400605D55088FF21FFF772
S31508012520A9FF012002BD002002BD2DE9F34F904607
S3150801253083B01D464046FEF7B1FE01464046F7F711
S3150801254027FE824603201AEA000F69D14348066826
S315080125504148B0F800B0002400A94046FEF72DFF17
S315080125603E4900A808603C49BDF80C0008809DF862
S315080125700500002804BFBDF80000002834D14046F4
S31508012580F7F705FB801CF8F79EFA4FF6F8718842B3
S31508012590ACBF4FF00109A146002D14BF0225012544
S315080125A00127FFB2BD4234D3BDF80C004B463A466B
S315080125B0414605F0E9FA0446012C04BF022D012F14
S315080125C010D1BDF810001D4908801E480068417EDB
S315080125D0491C4176A1F180001949087000A95046A5
S315080125E0FFF793FF7F1CDCE7BDF800004CF20E01F4
S315080125F0884204BFBDF8020001280AD145B1BDF8D9
S315080126001000414604F0ADF900A95046FFF77DFFD9
S315080126100124124806601048A0F800B0204600E0E0
S31508012620002005B0BDE8F08F0000000042574200C7
S31508012630F0380020003900209C380020CA3B0020D1
S31508012640CC7F0020D8790020F4380020FC380020FF
S31508012650B07F0020F03B0020E2790020E4790020D9
S31508012660E8790020D67F0020D77F0020CB7F002085
S31508012670AD7F0020C77F0020E079002042575757D9
S3150801268042425700425757574242574200000000FC
S3150801269042575742424257424200000070B5DFF89E
S315080126A0445C0446286882B02688407B08B17020BD
S315080126B076BDB00504D504F1120000F0CDFDF0B9E0
S315080126C006F08600862801D1B72076BD00F0B7FD51
S315080126D02868466116F4045F20D0B0040BD5A01C07
S315080126E00BF087FB002851D12868416921F4005174
S315080126F041F480714161A01C00F0AEFD08B1B22021
S3150801270076BD0BF013FB20B92868416941F4803185
S3150801271041612868416941F02001416128684169A0
S3150801272041F40041416148064CBF04F123020022ED
S31508012730A31C47F2FF1005F01BF800A800F040F8AB
S3150801274028684069C004BDF8000004D540F020009F
S31508012750ADF8000008E04FF6DF710840ADF800005B
S31508012760FDF7C3FDFEF772F8BDF8000000F00FF89B
S3150801277028684069800506D594F82210012204F1DB
S31508012780120000F07CFB29680020486276BD10B56E
S31508012790044604F44C700104002300224FF07F60C4
S315080127A004F0E6FF23462F22C2A10320F7F7E1F83A
S315080127B0E00703D50021302005F00FF8002010BDF1
S315080127C0DFF8201B09684969090C01F44C7101807D
S315080127D00020704738B5DFF80C5B04462868407B53
S315080127E0022801D0932032BD0A2200212046F4F79F
S315080127F072F92868406900F0FF01820648BF41F076
S315080128001001218080075CBFA01C05F039F8002063
S3150801281032BD38B504460D46FDF774FD08B9952055
S3150801282032BD00F05FFAC17E89B14069010401D465
S31508012830A82032BD5DB110F0420F08BF002C04D0AC
S3150801284000F44070B0F5407F01D0B72032BD0020BA
S3150801285032BD2DE9F04F8BB081468B46FEF71EFD42
S3150801286001464846F7F794FC044600254846F7F71B
S315080128708EF9804698F80100800748BF0125A00611
S3150801288048BF45F002054846FEF78BFD8DF8040062
S31508012890DFF8540A00689DF8041019F800009DF83D
S315080128A00420431ADBB2242BA8BF2323002000905F
S315080128B0494602A8F7F775FB9DF80840012000FA7A
S315080128C004FA00F08BF902AE777878B100F018FDBA
S315080128D0002814BFA0204FF4F070E040C00705D5CA
S315080128E0A80703D4082C0CD1042F09D1F8F773F9DA
S315080128F050B1052C01D1022F06D11AF01E0003D1C1
S3150801290082E0052CF2D07FE043F61E411AEA010F58
S3150801291005D05A46494620460BF06FFA74E0052C55
S315080129204FF6FF7A0AD0062C18D0072C37D0082C78
S315080129304CD0092C50D00E2C53D065E0062F63DA03
S3150801294008F10200F8F7BFF804464846F7F740F9D8
S315080129502B4602AA214600F001FB55E0FEF7D4FA00
S31508012960002851D100F0BEF9C17E00294CD0A90733
S3150801297002D44069800147D40DF11100F8F7A3F894
S315080129800246DFF868599DF8130085F800900DF1A5
S31508012990090359460BF034FAFF20287034E008225F
S315080129A0DFF84C190DF10900F4F79CF820B9022259
S315080129B0594602F000FB27E00DF10900F9F701FF7E
S315080129C0504521D0002102F025FC1DE02A4602A926
S315080129D058460BF0D9FA17E07178012000F017FA7A
S315080129E012E0E80710D50DF10900F9F7EAFE50459E
S315080129F004BF0DF10900FDF777F9504504D09DF89C
S31508012A000420494600F003F80BB0BDE8F08F2DE924
S31508012A10F0478046DFF8D00800680D4688B0285C84
S31508012A2002F10906871BF9B20020F7F79EFA044658
S31508012A30FF2C3CD001200090002342460821204665
S31508012A40FEF78EFB8146B9F1FF0F2DD0F1B228466C
S31508012A50FEF787FC8246002000905346F2B22946CB
S31508012A6001A8F7F79EFA524601A94846F7F703FB6C
S31508012A70B8B9A7EB0A075644F9B22046F7F784F91D
S31508012A804046F5F715FA00F0B5F9FFB20097F3B22B
S31508012A902A4600212046F7F745FC41464846F8F7FD
S31508012AA016FA4846F7F7DEF92046F7F7DBF908B0D4
S31508012AB0BDE8F087425700002DE9F24F804693465C
S31508012AC086B01D4600215846F7F762FB04460227E1
S31508012AD0082C1CBF052C062C05F008064FF000092A
S31508012AE04FF0080A01D168080AE000F077F848B102
S31508012AF000F006FC002814BFA0204FF4F070E04057
S31508012B0000F001000190FAF742F9BBF1FF0F63D01B
S31508012B10E80748BF4FF4027AC820009000234246CE
S31508012B2051465846FEF71CFB8346BBF1FF0F53D0AF
S31508012B3026B106990BF08FFB00284AD04FF6F8709C
S31508012B408045ACBF0820002040F001008DF8080040
S31508012B5000F0C8F8817E4A1C82768DF80910019822
S31508012B6048B19DF8080040F02000002E8DF80800B5
S31508012B7014BF0F2707273A4602A95846F7F77BFAE3
S31508012B8038BB0198D0B10021052C0DD15846F7F76D
S31508012B909FF901240121F7F7FBFA04FA00F010F076
S31508012BA0620014BF10211821002E19BF0223069AAC
S31508012BB0012300225846FDF783FF50B9680704D55B
S31508012BC041465846F8F783F902E05846F8F710F8EF
S31508012BD081465846F7F746F9484606E3DFF80407FB
S31508012BE00068C07E70472DE9F04104460E4630461E
S31508012BF0F7F742F880462046F5F75AF9FF2804D038
S31508012C00F9F747FE00F040070DE02046FDF799F871
S31508012C10FF2818D0DFF8CC160968896A0E2202FB4C
S31508012C2000104079C709DFF8C4562E70FEF76CF913
S31508012C300146002F14BF05200120434622460BF00A
S31508012C40DFF8FF202870BDE8F0817CB51C46DFF867
S31508012C5094361B681B7D00259B0701D5002076BD90
S31508012C60019200900B4606220FF2B0610020F7F799
S31508012C70D6FA0646FF2E0CD0002C14BF03230123D7
S31508012C80002132460846FFF717FF05463046F7F793
S31508012C90E9F8284676BD2DE9F041002704460D4698
S31508012CA01646B84604F0CAFE18B1012300F016F814
S31508012CB0074604F0C3FE38B100F022FB40B100F02C
S31508012CC011F84069800103D4002300F007F8804613
S31508012CD058EA070018BF0120BDE8F08132462946A7
S31508012CE02046B2E7DFF8FC05006870472DE9F34F87
S31508012CF01D46022D924616BF032D01270027BAF15C
S31508012D00000F8DB018BFD04605D101A804F0B8FD53
S31508012D1048B10DF1040823210020F7F726F9814669
S31508012D20B9F1FF0F01D1002061E0F7F727F88346D3
S31508012D305E46052006F8010B06F8015B199CE006BC
S31508012D4006D5112200213046F3F7C5FE113617E0E4
S31508012D50189910223046F3F77BFE01201036A84059
S31508012D6010F062000CD003A908A800F058FA304602
S31508012D70461CA1064CBF9DF81C109DF83010017029
S31508012D80002F14BF51460E9908223046F3F760FE0C
S31508012D9006F1080A2FB1A00900F001000AF8010B93
S31508012DA00BE001200090AAEB0B020823D2B2494698
S31508012DB04046F7F7F6F80AF1080AAAEB0B01C9B279
S31508012DC04846F6F7E1FF600705D5BDF83400F5F783
S31508012DD06FF800F00FF80E99BDF8340023464A46FD
S31508012DE0FFF76AFE04464846F7F73CF820460FB057
S31508012DF0BDE8F08FFF2809D0DFF8F814096831F823
S31508012E0010204BF6FF731A4021F81020704730B591
S31508012E108BB004460D4600F09EF800A800F01CFA97
S31508012E2060B99DF810009DF824100A1AD2B2812AB9
S31508012E3004DB2CB1A94201D0A84201D000201CE034
S31508012E401123022205A900F06EF89DF8101001223F
S31508012E5000A800F014F801F016FE01214FF40070E5
S31508012E60F9F77DFBF5F7F0F8FFF73CFF90F820003E
S31508012E70F6F787FDF5F7EEF801200BB030BDF0B592
S31508012E8091B005460C46164601271122002101A8D4
S31508012E90F3F721FE8DF814402DB91022002101A85F
S31508012EA0F3F719FE04E01022294601A8F3F7D0FD2D
S31508012EB0112200210BA8F3F70EFE1122002106A804
S31508012EC0F3F709FE06A90BA800F0A9F9002E14BF0D
S31508012ED00BA806A8112201A9F3F704FE00B90027D9
S31508012EE0CEB1DFF8005497B11123062200F01AF883
S31508012EF02868407B432808BF01F016FD00A8FFF7A4
S31508012F005FFCBDF80000800658BFFDF7EEF928689A
S31508012F1080F8204004E01FB11123022200F002F8D4
S31508012F2011B0F0BD01A9002009F03BBD70B58AB00A
S31508012F3004460D46164600F00EF8002E14BF05AEDF
S31508012F4000AE102231462046F3F782FD307C287008
S31508012F500AB0002070BD00A905A860E12DE9FF4F60
S31508012F60541C83B014F8015B4FF0000BDA46022DAE
S31508012F7016BF032D01270027D046FDF7C5FF0028F8
S31508012F804BD0F7F728FE9DF81810084345D0029450
S31508012F901034029800F060F9DFF848638146012091
S31508012FA0A8408DF8000062219DF80000084218BF6C
S31508012FB014F801BB9FB9084204F1080A2ED03068FB
S31508012FC0007D80072AD5FF2208215046F9F79BFE86
S31508012FD020BB002352461946022004F0C9FBFDF71F
S31508012FE093FFBDF81010884206D13FB90822C0499F
S31508012FF02046F3F777FD002840F0CB809DF818406E
S31508013000052D0AD8DFE805F0034D3E3E034D04F0D1
S3150801301015FD002818BF032C10D0E6E0504604F031
S3150801302062FC0028DBD13068407B4328F5D1012DAD
S3150801303018BF052DF1D14FF00108D0E7B9F1000FFE
S31508013040EBD1042D029BAC480CBF202130215246FE
S3150801305004F08EFB002DE0D0306800214162417BEF
S31508013060022909D103215046F5F743F807B0BDE80F
S31508013070F04F002004F056BD4129CED140694005E4
S31508013080CBD581E0032CC8D10598029B827E032DFE
S3150801309007B0BDE8F04F0CBF01210021123005F041
S315080130A0CFB93068407B022804F0020404D104F049
S315080130B0C5FC08B1002C1BD03068407B412817D0CD
S315080130C0B9F1000F06D1F7F786FD0246029859466F
S315080130D0FFF7D5FE8948007838B1012D07BF0021D1
S315080130E001200121002004F078FBF7F774FD002880
S315080130F07BD004F0A3FC68B130684169090502D4A4
S31508013100407B432806D12CB907B0BDE8F04FAC2067
S3150801311000F01BB93068007D800704D4BDF80C1097
S315080131200020FEF75AFB3068417B112914D140690A
S31508013130400511D5002004F08DFC002855D100F07A
S3150801314021F9AE2000F001F9002004F0EBFC07B0EC
S31508013150BDE8F04F00F0FDB80CB100F08FF8B8F1FA
S31508013160000F11D04FF08051002004F036FB0AF011
S31508013170DDFD18B94FF4803104F02FFB31680020CA
S315080131804862504604F0ADFB07B0BDE8F04F00F0C9
S315080131904EB99DF800006221084212D0BDF8100010
S315080131A04FF6F87188420CDB002208212046F9F710
S315080131B0AAFD30B10298594607B0BDE8F04F002282
S315080131C05DE62046FDF755FE4FF6FF7188420CD0A5
S315080131D0B9F1000F14BF1521042101912B4602995B
S315080131E0009152462146FFF781FD07B0BDE8F08FF1
S315080131F010B58AB00446FFF7AEFE9DF82400844256
S3150801320005D105A8F5F7BAF901200AB010BD9DF850
S315080132101000844208BF00A8F4D00020F5E710B5D5
S315080132200C46014611230622012009F0BAFB214664
S31508013230BDE8104011230222012009F0B2BB80B576
S31508013240002100220846FFF71AFEBDE804400021C6
S315080132504FF6FF7004F0C1BA00221021F9F753BDE9
S3150801326080B5FFF7BBFC40B100F008F8204804F030
S3150801327036FBBDE801400BF020B801BD19480068CE
S31508013280406910F0300F09D01C4A127830210AB172
S31508013290C00700D42021302004F09FBA7047114896
S315080132A00068C17E01B9704780B5007BC01E03283E
S315080132B016D30020FCF792F948B101793022114260
S315080132C00ED101F0CF0141F01001017101BDFCF7EA
S315080132D042FD28B1BDE8044000210020FEF77DBA71
S315080132E001BD0000D87900209C380020D43B00207D
S315080132F00C7A0020B838002030000100D5D6030822
S3150801330080B5FDF701FE0028FFF7ECFC40690CBF0C
S315080133108008000D00F0010002BD0000313832318D
S3150801332000000000DFF83C2C1268127882420AD0AD
S3150801333019B1012A03D1022805D000207047022AB3
S3150801334008BF0128F9D101207047DFF81C1C087550
S31508013350704710B5DFF80C4C2068407B112804D063
S31508013360B6210FF21000F3F775FA21684120487368
S3150801337010BD00006173736F63696174696F6E2EA6
S315080133806300000080B50220F4F75AFEF4F761FEE7
S3150801339000F026FC001F022805D2DFF8CC0BC17C01
S315080133A0491DC17405E04FF47A71DFF8C00BF7F7D0
S315080133B076F800F05FBE10B5DFF8AC4B00206074FC
S315080133C02078FF2803D0F6F74DFDFF20207010BDA9
S315080133D038B504460D46F6F7D1FC007C00F0070126
S315080133E0400800F0380000EB410000F11102DFF857
S315080133F0540C0068205CD2B282420ADA831ADBB224
S315080134000F2BA8BF0F230020009021462846F6F768
S31508013410C8FD31BDDFF84C0B0068407B33281CBF63
S315080134204328532801D101207047002070471FB552
S31508013430F7F7D1FB08B3DFF8304B207800A9FFF77F
S31508013440C7FFDFF8281B002008700DF1030061791A
S3150801345001F0C8F8FFF7AFFF00F010F800F031FAF5
S31508013460007DC00702D50AF029FF08B904F0BDFDA1
S315080134700AF023FF012001F0E3F91FBD10B500F0A2
S3150801348020FA017BC91E032906D240884FF6FF712F
S31508013490884208BF032008D0F9F7B0FB0446F9F7BC
S315080134A0B1FB214607F06DFD0220F9F7B3FB02F0E7
S315080134B0E3F8BDE8104000F0E1BD38B5DFF8A84AE9
S315080134C02075FFF778FF00214FF6FF7001F083F9A9
S315080134D0DFF8905A2868417B032918BF00291DD0B7
S315080134E0332918BF432913D100F019F82868017B3D
S315080134F0C91E032906D203214173207DBDE8324046
S31508013500F4F7F9BD207DF4F7F6FDBDE83140B5E7DE
S3150801351021214173BDE8314001F09BBD31BD237DB9
S31508013520132296A10320F6F724BA10B500F054FB2E
S31508013530002048734FF6FE70FDF7EAFC4FF6FF7060
S31508013540FDF7EEFCDFF8204AFFF7E9FF207DBDE82D
S315080135501040F4F7D0BD10B504462346182287A1BA
S315080135600320F6F706FADFF8380B0021017114B1CA
S31508013570FF2C02D10121017007E0012100F8041B8B
S31508013580A100491C0902F6F78AFF00F077FD002021
S3150801359010BDDFF80C1B00200871DCE730B50D46BD
S315080135A089B0044668690FF27C1107902346287C86
S315080135B006901622E8890590287B0490E87A0390FC
S315080135C095F90A00029028890190009500F076F98C
S315080135D0287B00280CBF4FF6FE70FDF795FC2B469D
S315080135E0224609B0BDE83040014601202DE9F041E7
S315080135F0DFF8706980463068407B00280F4614461C
S315080136001D464BD1002C49D0062C47DADFF88C0A27
S3150801361000780A2842D1F4F71EFD00283ED1F4F7B6
S315080136201CFD08B1042C39DB287B032816D14FF67B
S31508013630FE70874214D1012C08BF002710D0022C36
S315080136402CD1FDF761FC4FF6FC71884202DAFDF7D1
S315080136505BFC01E001F098FA074601E0012C1DD058
S31508013660B8F1000F0CD0287B03280CBF01210021DB
S31508013670012C0CBF01200020FFF7CBF800284ED102
S315080136802946384600F06AFF002848D1F4F7DDFCE0
S31508013690F4F7C0FC20B1F4F7E0FC08B170203EE075
S315080136A03068DFF8C478407B33281EBF53280020D2
S315080136B07875204600F035FF387E20B1F4F7CDFC49
S315080136C008B9F9F779F9287B032803D12846BDE813
S315080136D0F0412DE00822294607F10800F3F7B8F969
S315080136E0287B0328A8BF00203874FFF764FE9420BE
S315080136F03875387C316800280CBF012031204873A1
S31508013700002031687A7EB8740120897B00FA01F1BC
S315080137100320FBF711FC10B1326800215173BDE893
S31508013720F0810000424238705742424257424400F3
S3150801373010B5044600220821F9F7E5FA08B1012077
S3150801374010BDFDF7E1FB00224FF6FF7100F02EFFD9
S31508013750217C204600F046FF6269E189207C01F060
S31508013760BEFFDFF800080068007B012808BFFFF7E5
S3150801377077FDFFF783FE002010BD000042420000DE
S3150801378038B5DFF8E04705462068407B002802BFC8
S31508013790DFF8080900780A2801D0702032BDF9F748
S315080137A036FB002843D12DB102222946DFF8280B22
S315080137B0F3F74EF900A800F0DAFF08B1932032BDFD
S315080137C09DF8003014221BA10320F6F7D2F800F069
S315080137D051FF68BB9DF8000000F0A3FE2068007B3E
S315080137E0012818BF022806D0C01E03280FD20020C0
S315080137F000F0FDFF58B100F054FF2068007BC01EA1
S31508013800032838BF02F07EFBFFF738FE0FE0216878
S31508013810132048730020DFF85017887405222168A1
S31508013820897B012000FA01F10520FBF785FB0020C1
S3150801383032BD000042420000FF222DE9FC41044648
S3150801384000F03FF80D46017B0129904625D0407BC3
S31508013850022818BF032820D1F9F799FADFF8087763
S315080138607A7E29460320FBF767FB060016D133202B
S31508013870F9F7D0F9FFF79FFDFDF74EFBF880002C0D
S3150801388014BF02200120387407F1080000F08DFFEB
S315080138900020B87487F8158000E070260196009517
S315080138A023462C220FF20C0100F008F83046BDE839
S315080138B0F681000042424442000000000320F6F768
S315080138C058B8DFF8A0060068704738B50446F6F719
S315080138D055FA05462046F6F750F944192046F7F7F2
S315080138E0F2F84FF6FF5101402046BDE83440F7F79C
S315080138F0F1B870B584B0FDF707FBDFF86C460646EC
S3150801390020780B21F6F718F9002100F064FFDFF89B
S315080139105456F9F710FA58B11EB14FF6F8708642A7
S3150801392006DB01F031F90646286840888642F8D058
S315080139303046FDF7EDFA20780921F6F7FDF8FDF78F
S31508013940EFFA2E68307B052813D100F039FF8DF880
S31508013950080002AB207C00280CBF4FF4804244F2D9
S315080139600102012000904FF480617088FEF7FCFA8D
S315080139700FE006208DF8080000F022FF8DF80900F7
S31508013980022300200190009002AA70880121FDF708
S3150801399066FC0646FF2E08BF002011D0286841881C
S315080139A03046F6F726F9207C02281CBF3046FFF779
S315080139B08CFF00F044F804463046F6F753FA2046E1
S315080139C004B070BD70B586B00C4616461D4638B9AA
S315080139D02046F4F76DFA02AA03A9F8F710FF03A81F
S315080139E007218DF808100190310A8DF80A10012077
S315080139F00A998DF80B1000908DF80960042300F0E0
S31508013A00BBFA0646FF2E18D02146F6F7F2F815B985
S31508013A103046FFF75AFF0B9808B930460DE02046A5
S31508013A20F8F719FF18B13046F3F782FF01E000F005
S31508013A3006F83046F6F716FAFF2006B070BD0022E2
S31508013A40002311463046FBF7F9BF2DE9F64F83B03F
S31508013A5004461E4600274FF6FF7556B14FF0010B77
S31508013A603046FDF73AFC81467078400800F0010AB5
S31508013A7005E0BB461046F6F723F98146BA4600F03B
S31508013A80AFF8C01E0328C0F0A2800E98411C9DF80D
S31508013A901000C9B2F6F77CFB804608F002000290D6
S31508013AA09DF80C0020B95FEA086058BF48F0800805
S31508013AB0FFF707FF407B022804D1DFF8E405007809
S31508013AC0204301D102271EE04846FDF7D2F99DF8A9
S31508013AD00C1019B1651EAD41ED0F00E00025BBF1D3
S31508013AE0000F1CBF301DF6F7EEFF012100912B4692
S31508013AF0014642464846F8F7E0FD05464FF6FF708F
S31508013B00854208BF0127D6B11CB94FF6FF70854219
S31508013B1004D1301DF6F7D7FF014600E029460120FA
S31508013B200190009753462A464846FFF74BFF0298ED
S31508013B3050B94FF6FF714846FCF732FA04E03A46A7
S31508013B4029464846FBF786F9002F40D10298E8B185
S31508013B5049462846FCF747FA0E2101FB00F700F013
S31508013B603BF8896A79184A7942F040024A71FCF7AA
S31508013B706DFAFFF7A6FE806A38185FEA486241794E
S31508013B804CBF41F0800101F07F014171FEB1DFF8C0
S31508013B90A86C9DF810003070FDF7B6F95FEA486128
S31508013BA00FF22C0C48BF0CF1010CBAF1000F18BF2B
S31508013BB00CF1020C02D10CB90CF1040C01469CF86B
S31508013BC000004B462A460AF01BF9FF203070B0E088
S31508013BD00307000401050000DFF888130968704728
S31508013BE0DFF880030068007B70472DE9F04F044633
S31508013BF0884685B091464046F5F7C9FFDA4D297CD6
S31508013C00824601B10121D74E8DF804103068007B38
S31508013C1005280CBF012700273CB15046FDF75DFB7F
S31508013C2083465046FDF74CFB05E04046F6F748F853
S31508013C308346DFF8080C03900423002000904A46C7
S31508013C40414602A8F6F7ADF90DF10900F6F73BFF73
S31508013C509DF80B908046CCB10398DFF8E01B08224B
S31508013C60F2F740FF002862D100F08BF908BFB9F1DD
S31508013C70000F0BD14046FDF74BF904F0B6F999232D
S31508013C80FFF74EFC9920F4F736FA50E0F9F753F8A6
S31508013C9000284CD09DF80400384301D014B946E0F9
S31508013CA0002C44D1B9F1000F03D09420FFF705FC8D
S31508013CB03DE0306840885946FCF795F9FCF7C6F9A6
S31508013CC0306841885A46404600F070FC3068417BAE
S31508013CD0012916BF31291121432141730220F4F725
S31508013CE0AEF9A24F40F6B8313846F6F7D8FB02F0DE
S31508013CF009F90020E8743068C17E19B93846F6F723
S31508013D00C3FB11E034B19AF80110890702D5FFF710
S31508013D108EFB09E0007B001F022805D205213846E3
S31508013D20F6F7BDFB0620E874AD20FFF70EFBF4F7A6
S31508013D3046F905B0BDE8F08F2DE9FE4F8046F5F747
S31508013D4026FF0446F5F768FF05462F194046F5F79D
S31508013D5014FF2844C5B24046F5F7B2FF83463878C2
S31508013D600090F9F70BF800281CBF0098072816D110
S31508013D700098DFF8F4A17B4EEC1C01284FF6FF7979
S31508013D800ED0022814D0042800F0BE80062815D0CB
S31508013D90072863D0082821D07C2800F07F80DEE040
S31508013DA000210095002342460846FFF74EFED6E05D
S31508013DB02A4641460020FFF718FFD0E05846F8F793
S31508013DC000FD484503D001465846FAF7F4FF00F0CE
S31508013DD0D8F802D15846F5F7E1FDC0E0691C00F0B4
S31508013DE0C7F80746E1B200F0C4F80446A91D00F079
S31508013DF0BFF805464D45F0D002F084F83068407B9F
S31508013E00132808D100F04DFC4046F5F759FF014645
S31508013E102046FCF7E8F800F0B4F818BF13281CD1BF
S31508013E202846FDF775F83846FDF77AF8002100208F
S31508013E3000F0D8FB5946204600F0CDFC9AF803005D
S31508013E40DFF85C1A087000F019F93068417B13290C
S31508013E5003D123214173FBF7FCF880E000F091F8C8
S31508013E6002BFDFF8404A2078002878D1F4F7F6FB3C
S31508013E7005469AF9191001208840C0EB001B1FFA64
S31508013E808BF60020F4F7DBF895FBF6F006FB1050ED
S31508013E90411C89B22046F6F702FB60E0787865286E
S31508013EA004BFB8786D285AD16648006818F800002A
S31508013EB0E4B2844253D20822594601A8F2F7C8FD52
S31508013EC000AB002221464046FDF7B4F8002846D14A
S31508013ED09DF80000FF2842D0DFF8CC49DFF8585991
S31508013EE00120207085F80080F4F7AEF801A89DF846
S31508013EF00010F5F748FDF4F7ADF8FF20287000200B
S31508013F0020709DF8000028E04046F5F7F6FE0446C5
S31508013F10DFF898090078FE2809DB4046F5F741FEE7
S31508013F20000B00F001012046F5F732FD17E00FF608
S31508013F30D0100088ADF808000223002001900090F7
S31508013F4000F01AF80546FF2D09D02146F5F751FE6E
S31508013F5000212846F6F79EFB2846F5F783FFBDE8BC
S31508013F60F78F0000D8790020A43B0020F8790020BB
S31508013F70C9B24046F6F7B3B902AA01212046FDF7B0
S31508013F806EB93068407B0228704770B50220F4F795
S31508013F9057F8F4F75EF8DFF81859DFF818690020C2
S31508013FA02870F6F718FE28B13068C07E10B9FFF7F9
S31508013FB03EFA3EE0DFF80049F6F70DFE10B9F8F7CC
S31508013FC0BAFE58B1E07C48B1C8212846F6F767FA27
S31508013FD0E07C401EE074F6F792FB2AE03068407BED
S31508013FE0132809D0F8F7A7FE30B93068407B1128A5
S31508013FF01CBF4328412803D1207DFFF75EFA18E04C
S31508014000022818BF032803D0002818BF212810D179
S315080140100024DFF8A85808E02046F4F71AF800202B
S3150801402000F00EFCF4F716F8641C2878E4B2844212
S31508014030F2D3BDE87040F4F70DB8DFF87C1800201C
S31508014040C87470479C38002080B50020F3F7F8FF44
S31508014050F3F7FFFFDFF84C1800200870DFF8540863
S315080140600068417B022905D1007BC01E032828BFB1
S31508014070FAF70FFFBDE80140F3F7ECBF80B5F3F798
S31508014080F7FFFF2804D00648007810B1012000E0A8
S315080140900020DFF82C18087001BD0000E33B002062
S315080140A0EC7900202DE9F04F0446DFF8180800687E
S315080140B08DB0205C00902046F5F760FE0646B01DDF
S315080140C0F6F701FD074606F10900F6F7FCFC8146FD
S315080140D006F10B00F6F7F7FCADF80A0006F10D003C
S315080140E0F6F7F1FC8346C00B8DF80800F8F746FE93
S315080140F018B12046F8F770FEEAE008A92046FFF74E
S3150801410067F908AEDFF8AC57B078C0F3C30003907F
S31508014110707800F00F0A009820282868407BACBF09
S315080141209DF82E804FF00008022812D1FCF7F4FE04
S3150801413081450ED104A800F038FB00981C2806DB3F
S3150801414008220DF1230104A8F2F7CCFC08B101F00D
S31508014150FAFBB7F5004F02BF2BF4404040F6FF715A
S315080141608842C9D100981C28C6DB002208210DF116
S315080141702300F8F7C8FD002839D1DFF84C07007885
S31508014180012830D19DF808000FF26C710090CDF826
S3150801419004A04B462722FFF791FBDFF8300700788A
S315080141A08DF81200ADF810908DF81CA08DF81D80C1
S315080141B008229DF808008DF813000DF1230105A8C2
S315080141C0F2F746FC2868DFF87076407B01281CBFA9
S315080141D033283C70F3F738FF04A8F9F751F9FF20A3
S315080141E03870F3F737FFDFF8D076B87C00286FD13F
S315080141F0F8F7A1FD00286BD0012078740022082168
S3150801420007F10800F8F77FFD10B1F888814508D055
S3150801421008220DF1230107F10800F2F763FC0028D3
S3150801422056D19DF8080028B92868407B312818BF5F
S3150801423033284DD101215046FFF774F8002847D09D
S315080142409DF82000002802BF7078000902283FD196
S315080142502868017BB278022902D1500709D437E0D0
S31508014260120606D405291EBF4088BDF80A108842E1
S315080142702ED13878DFF85856DFF85866FF2813D05C
S31508014280787980450BD197F9020096F90010884292
S315080142900ADB1DD178782978884205D318E0A8EB7E
S315080142A00000C0B2812813DAFFF785F83C70204672
S315080142B0F5F7CAFD287878703078B87003980F2812
S315080142C0B4BF401C0F20F87087F804A087F8058052
S315080142D00DB0BDE8F08F0000007A00202DE9FF41FE
S315080142E00546DFF8D44501200E461746A07400F0AE
S315080142F00BFC002813D1A846B8F1010F18BF002DF1
S315080143000ED1009733462622B5A1FFF7D7FAF3F760
S315080143109BFE39463046F9F7C8F8F3F79BFEA4E049
S31508014320F8F72CFD28B13A4631462846F8F753FDE9
S315080143309BE0DFF880552868407B23280BD1F8F7E6
S315080143405DFC0446F8F75EFC214606F01AFE0220DB
S31508014350F8F760FC89E0002FFCD121281CBF04284E
S31508014360532802D100F075FE7FE0F8F7E4FC002837
S315080143705BD02678FF2E05D1607C00280CBFAB20C8
S31508014380942066E02868007BC01E032889412079AD
S31508014390C90FFEF7C7FF08B998205AE0F1F76CF97B
S315080143A005213046F5F7E3FB29688873F3F707FE1D
S315080143B0207C68BB2868007B052829D000F000FA14
S315080143C0074609213046F5F7B7FB80460B213046EB
S315080143D0F5F7B2FB3A464146FAF721FDE0B99420D2
S315080143E0FEF7B3FF0220F3F72AFE2968DFF8C004B7
S315080143F04A7B012A07D0312A18BF332A0ED1097BF5
S31508014400091F02290AD2C821F6F749F803200AE04A
S31508014410FFF76FFA0028E2D194201AE04FF41671DB
S31508014420F6F73DF80020E0741FE02868407B132862
S3150801443015D100F017F9BDF80000FCF771FD00F081
S3150801444030F92868017BC91E032905D23321417336
S315080144509620FFF732F808E0FFF710F805E0B8F103
S31508014460020F04BF304609F04AFB4FF40060F8F723
S3150801447091F810B9FBF733FB08B1F7F7EDFDBDE885
S31508014480FF811FB5044600208DF80000FFF719FAD1
S31508014490007840F020008DF80100F8F76FFC18B19C
S315080144A02046F8F7A2FC3AE00DF1030000F07DF989
S315080144B00322FF210DF10B00F2F70DFB01F0F9F8CC
S315080144C08DF80E00DFF81014DFF8E003DFF80C248E
S315080144D00078DFF80C34097812781B78FE28A8BF13
S315080144E00020091A9B1A9042B4BF101A0020DFF85F
S315080144F0B0231278DBB2C0B2D200C018C9B242F0FA
S3150801450004028842B8BF42F080028DF8022000A951
S315080145100F222046F5F7AFFD401E8041C00F04B0BB
S3150801452010BD38B5DFF88C5304462868017BA142D3
S3150801453003D004732046F3F7DBFD24B12868007B1A
S31508014540001F022805D2F3F74CFDFF2808BF0120FA
S3150801455000D00020BDE83240F1F7D8B838B50D468D
S315080145600446E87A0B38102801D38A2032BD95F91A
S315080145700A00F8F7ECFB08B18B2032BDCD48E97A81
S31508014580026891730068A97AC1732046FCF7C0FCDA
S315080145904FF6FE7084420CBF4FF6FF702889FCF770
S315080145A0BFFC2889C449C880002032BD38B50C46ED
S315080145B01546FCF7ADFC00F0BBFA2946204600F08B
S315080145C00AF9BD480178FF2918BFC07805D1FFF758
S315080145D007FB01280CBF00200120B149087031BD35
S315080145E0424242007FB504460D4600F03BF8B14E03
S315080145F094B1BC4A0021284601F071F83068017867
S315080146008DF804100822007B8DF80500214602A8C2
S31508014610F2F71EFA03F0E4F83068817B8DF803108F
S31508014620C07B8DF80200FCF777FCADF80000FCF7BB
S315080146306BFCADF8060000F017F87FBD1FB5044600
S3150801464000F010F81CB100208DF8050007E0FCF712
S315080146505BFCADF80600FCF75FFCADF8000000F066
S3150801466003F81FBD00A833E01023072200A9002084
S3150801467008F097B900B58BB0FFF7F4FFBDF8000055
S31508014680ADF8180004A99DF803008DF81B009DF8E4
S3150801469002008DF81A00BDF80600FFF75FFF0BB0A0
S315080146A000BD1FB5012000F0A2F8044603F0A3F8E7
S315080146B0FFF7D8FF1CB900224FF6FF7103E0FFF799
S315080146C000F94188021DBDF80600FFF76FFF1FBDFF
S315080146D0014610230722012008F063B938B50820DE
S315080146E0F3F7AEFC0446F3F7B4FC724D7E4829682D
S315080146F000788873F3F7ABFCA04208BFF3F735FCE3
S3150801470000210020FFF76EFF9B23FEF709FF9B2080
S31508014710F3F7F1FC28680021A0F84410A0F8461028
S31508014720BDE83140F3F796BC80B5A0F10B0110291D
S3150801473001D38A2002BDFFF74FFA497B022918BF28
S31508014740032901D0702002BD674908700820F3F7D4
S3150801475076FC00216548F6F727F820B1012808BF3D
S31508014760FFF7BCFF01E0A12002BD002002BD1FB575
S315080147700446F8F703FB18B12046F8F725FB12E0C3
S3150801478000A8FFF7A5FF9DF8050040B1062806DA3F
S31508014790FFF722FA9DF804200978914201D0932067
S315080147A001E02070002004B010BD1FB5044600A822
S315080147B0FFF78EFF082202A92046F2F749F91FBD25
S315080147C04B48007800B140203A4A4A491268127BA0
S315080147D0515C08437047374A1368588019B908224B
S315080147E0181DF2F778B90822181DF2F731B910B574
S315080147F004462F48007AC00784B011D50A230A2235
S3150801480000A9012008F0CDF8BDF808004FF6FF71A0
S31508014810884205D00822FF2100A8F8F774FA08B1E2
S31508014820002006E024B1BDF8080000A9FFF7D3FF70
S31508014830012004B010BD0000D43B00200C7A0020F2
S3150801484070B51B4D0446287AC00784B00CD5194E9D
S31508014850306841884FF6FF72914207D1002208213C
S31508014860001DF8F750FA08B1002017E044B10220FC
S31508014870F3F7E5FB4FF4F0412846F5F710FE0CE097
S3150801488030684188ADF808100822011D00A8F2F722
S31508014890DFF80A230A22FFF7E9FE012004B070BDFA
S315080148A0EA7F0020047A0020E0790020AE7F00200C
S315080148B0F8790020D8790020A43B0020E0380020B0
S315080148C0EC7F00209C380020E33B0020D87F0020A5
S315080148D0D67F0020D77F002017390020937F00203C
S315080148E0927F002000F8FF07C87F0020DD460108F7
S315080148F0D5D60308F4CB000842574242000000000F
S315080149000460000010B50446FBF71BFAFF280AD11C
S315080149102046F3F7CDFAFF2805D07349096891F8BF
S315080149202C104018C0B210BD6F480068017B90F882
S315080149302C20006BC91E032932BF00216B49097857
S3150801494089188A0092B20021F2F7C5B810B50C464B
S315080149506549096801F1280282B01379984211D292
S31508014960896A0E2303FB0010811D08222046F2F7EF
S315080149706FF8002208212046F8F7C5F9401E804144
S31508014980C00F16BDC01A00AA2146C0B2F7F737FFF5
S315080149900028EED0002016BD80B5534A1268126B66
S315080149A052F82020914201D3012002BD014615206B
S315080149B0F3F7A3FB002002BD4B4A1268126B491C90
S315080149C042F8201070472DE9F041474D0646286800
S315080149D0876A8846002401E0641C0E37286890F827
S315080149E02D00E4B2844232D20822B91D3046F2F7CC
S315080149F079F8D0B94FF6FF7080451CBF38888045D5
S31508014A0009D031464046FBF7EEFA04462868806A23
S31508014A100E2101FB04073648007820B17879800613
S31508014A2058BFFF202DD520462BE038888045D3D1A5
