S01D000073657269616C2D756172742D626F6F746C6F616465722E73333716
S315080000000004002079000008850000088500000823
S31508000010A70B090100000000010150540040000828
S3150800002004100000970A0008590D00087805000812
S3150800003000000000000000000000000000000000B2
S315080000400000000000000000000000005604000048
S31508000050FFFFFFFF06480068202100EA010028B1DB
S315080000600448016842685FEA010D104770470000BE
S315080000702C00004000400008FFF7ECFF00F00EF8E7
S3150800008000F042F806E000005FEA000D70474548B8
S31508000090008870474FF4017000F09EB838B54FF2EB
S315080000A00F04414D00F0C6F828B140F2052028801B
S315080000B06C80012032BD3D480068C00615D56888A9
S315080000C0A0421ED1288840F2022188421CBF40F275
S315080000D00621884215D040F2011188421EBFB0F5AC
S315080000E08A7F40F2111188420BD0314C208A40F6A3
S315080000F0A721884205D12068FFF7C6FF60688047B8
S3150800010000BF002032BD000038B50400294872B689
S31508000110016849084900016000F0D2F823480068E0
S31508000120000910F001000CBF2349244902E0CD2242
S3150800013001F8012B224A9142F9D32249224A234B3C
S3150800014003E011F8015B02F8015B9A42F9D32049F2
S31508000150204A002301E001F8013B9142FBD3124AF1
S3150800016053884FF20F05AB4240F205210AD1138896
S315080001708B4205D030B1180A012818BF022801D1D0
S31508000180194601E004B90021064801804CF23C30CA
S31508000190508000F0C7F94FF40170BDE8324000F016
S315080001A01BB80000240C0020000000202C00004092
S315080001B000400008FCED00E0000000209800002048
S315080001C0000400200C12000800040020040400208B
S315080001D0040400202D0C00200E4A302111600E4A1E
S315080001E011600E4A116010210D4A1160010A00299A
S315080001F00C4908BF000208804FF20F004880BFF381
S315080002005F8F094800210160416008480849086075
S31508000210704700003020004030C8004030C0004021
S3150800022010E00040000000201C4000400400FA05D1
S315080002300CED00E00020704780B500F0B6F901210A
S31508000240062000F0BFF9062000F0F2F90121072088
S3150800025000F0B8F9072000F0DFF91748016821F027
S315080002601001016001BD0000052800D9704710B5CE
S31508000270DFE800F01721030F1C17104C2088411ED9
S315080002802180C0B9072000F0DFF942F21070208003
S3150800029010BD072000F0CCF9BDE81040062000F09C
S315080002A0D3B9BDE81040062000F0B6B9BDE8104045
S315080002B0062000F0BDB910BD00BC0040260C002089
S315080002C0794951200860704738B5054600F060F94D
S315080002D07649B0FBF1F44FF4F070B0FBF4F02D1A48
S315080002E01E2DBCBF4FF40170FFF776FF7048714AA8
S315080002F0072101600021416081604FF000711160A3
S3150800030005FB04F1C91C8908491E416031BD6A4ACA
S3150800031001215170D8E76A48016841F0010101607E
S3150800032001214160512060490860704700207047EC
S315080003302DE9F047814661485F4E056840F2DC5872
S31508000340012DC2465A485F4F5F4C1BDA0221618075
S3150800035039600068C00348BF00F08DF8B86900F03E
S31508000360030003285FD0002D03D5B86940F00200CA
S31508000370B8614846FFF7DAFF5FEA000A1AD1002D8E
S3150800038051D54EE061884FF6FF75A9421DD14F48F9
S31508000390018802237F22A01C00F06CF96088A8421D
S315080003A004BF02206080B869800703D4B86940F0AA
S315080003B00200B8610120B070608838600FFA8AF0D0
S315080003C0FFF7A5FF5046BDE8F087B9698907EDD55F
S315080003D00068C00348BF00F04EF8B07808B1404640
S315080003E0F1E7B868B968628810F0010003D10F2AEE
S315080003F008D2521C06E0890704D5217811B1032AD0
S31508000400A8BFAA1892B2022A2070B8BF0222628038
S31508000410386861888842CDD1B86900F0030003289E
S3150800042001D0FFF778FF0020CDE710B5044628482D
S31508000430017869B9C078072818BF092813D0032896
S3150800044018BF11280FD013281CBF15280B280AD04F
S315080004502048016841F48071016004E000F03EF92B
S315080004600620FFF763FF2046FFF762FF0028F5D155
S3150800047010BD0220D9E70E480E4A0021416081606E
S31508000480016821F00201016000210B4841704FF01C
S3150800049000711160817801B9704780B500218170BB
S315080004A00620FFF743FF01BD0080004090D00300FF
S315080004B010E000E004ED00E0280C0020041200081B
S315080004C01C400040044000400004002008120008B8
S315080004D096070808384000400078704730B5DBB00A
S315080004E00446214636A800F055F9002000904FF43E
S315080004F002630B4A36A901A800F0CDFA0FF26C0286
S315080005000FF2740001A900F027FC054600F056F822
S315080005101DB12146284600F089F928465BB030BD52
S315080005200404002080B5FFF7A4FFFFF7B0FDB0F57F
S315080005308A7F09D100F030FC00F094FC0028FBD03B
S3150800054040F21110FFF748FEFFF776FE00F024FC94
S3150800055000F0AEFC40F20120FFF73EFE002002BD8F
S31508000560012A08BF00F02DBC704700007B11000867
S31508000570B7110008D9040008E30900081B0A000897
S3150800058019480068C00701D41848704718487047CA
S3150800059080B5FFF7F5FF1749096801B9400802BD9C
S315080005A080B5FFF7EDFF400802BD134801218160C1
S315080005B04EF6BE2141600121016070470F490120B6
S315080005C00860704710B50FF23802830852F82320E6
S315080005D0136800F0030080000F248440A34301FA47
S315080005E000F01843106010BD1C400040001BB70007
S315080005F000366E0120400040006000400860004060
S3150800060000B0004004B0004000B2004004B2004010
S3150800061000B4004004B40040C108032907DA0121E8
S3150800062000F007029140C00840020F4A1150704777
S31508000630C108032907DA012100F007029140C00822
S3150800064040020A4A11507047C10803290ADA084AC3
S3150800065002EB412101230A6800F0070003FA00F0C3
S31508000660504008607047000014B0004010B00040C9
S315080006700CB0004030B5044610467F2808BF00205D
S31508000680B1F5004F83B01AD108237F2240F6120134
S3150800069000A8FFF7EFFF08220FF2380100A800F0C4
S315080006A026FD30B908237F2240F2A27100A8FFF781
S315080006B0E1FF082200A9204600F000FD37BD044DE1
S315080006C0294300FB03111A46204600F0F7FC37BD04
S315080006D000000808FFFFFFFFFFFFFFFF70B5274C6C
S315080006E025680646FFF75CFF2549B0FBF1F0704325
S315080006F02F303021B0FBF1F0032809D3616D41F0AA
S31508000700010161652168491B0903090B8142F9D377
S3150800071070BD38B504000D4605D0022C10D00FD395
S31508000720032C26D027E0174C45B1FFF739FF1649A9
S31508000730B0FBF1F0401EB0F5005F0CD2206018E067
S315080007404DB1FFF72DFF690801EB4000B0FBF5F04E
S31508000750B0F5003F01D3202032BD4108022C00F03D
S31508000760010008BF094A02D0012C02D1084A50608C
S315080007701160002032BD212032BD00003820004023
S3150800078090D00300100004E020A1070068D80040BC
S3150800079068C80040017001224270012982700CBFAE
S315080007A08021402181800021C18001811D4801608E
S315080007B00E218162016821F0100101600021416368
S315080007C041627047F8B50D4604461749154F4FF074
S315080007D0FF3008601646FE6200207862386840F0EE
S315080007E001003860FFF7EAFE012C19D16DB900F057
S315080007F039FB78B9786AB042F4D3002EF2D038685B
S315080008004008400038601620F2BD284600F032FB4A
S315080008100028EFD138684008400038600020F2BD53
S315080008200120F2BD00F0004000A8004038B504469B
S315080008300D4600F009F800F007F82A462146BDE8FB
S3150800084038401820FFF78CBE2A4621461820FFF7A5
S3150800085087BE38B50446002020814AF6B43220788F
S3150800086000A9FFF7AFFF08B11C2032BD9DF80000B4
S31508000870032818BF182801D1182032BD042801D131
S31508000880172032BD012801D0212032BD002500E005
S315080008906D1CA188EDB2091D8D420BDA281900F1ED
S315080008A00A01207840F2DD22FFF78CFF0028EFD0FE
S315080008B0262032BD0025002006E00146EDB22819A3
S315080008C0007B00F027FC6D1CA188EAB28A42F4D3AB
S315080008D0A27AE37A9B18FF2B01D0222032BD0B198E
S315080008E01D7BB5EB102F01D0232032BD5B7BC0B238
S315080008F0834201D0242032BDA078824207D0401E10
S31508000900C0B2824201D1272032BD252032BD881CC3
S3150800091020810220E080002032BD38B50446607888
S31508000920012804D023D3032854D018D31FE02078F5
S31508000930012811D13B25432000F043FA207840F2E4
S31508000940DD220021FFF73EFF30B12846451EC0B222
S315080009500028F0D11B2032BD022060700FE000F0A5
S315080009609BFA00F039F8A078401CA07007E0182020
S3150800097032BDA0782278411EC9B200F02FF8204671
S31508000980FFF767FF050018BF00F086FA272DF0D09D
S31508000990A8060BD52278A1781520FFF7E1FD002DD2
S315080009A0EDD10320FFF760FC002032BD680603D4B2
S315080009B0182D18BF1C2D07D121782846FFF736FFBA
S315080009C004206070284632BD172DE8D100F004F8DF
S315080009D003206070172032BD2278A1780620FFF721
S315080009E0BFBDF8B504460D461646002706E0E08862
S315080009F0411C0019E180807A78557F1CBFB2B74246
S31508000A0009D2E08821898842F1D32046FFF785FF7D
S31508000A100028ECD0F2BD0020F2BD10B504462046F1
S31508000A20FFF77BFF0028FAD010BD0000F8B5044692
S31508000A300D4616461F4607E03046A047294600F0F1
S31508000A407BFB05467F1E761CBFB2002FF4D12846D5
S31508000A50F2BD38B50C46154605E0014614F8010BFB
S31508000A6000F06AFB6D1EADB2002DF6D132BDF8B5A9
S31508000A7004460D461F461646286823683A463146F8
S31508000A809847040005D1E8683A463146FFF7E1FF82
S31508000A90E8602046F2BD10B5029C8472038142606C
S31508000AA001604FF0FF31C1600021017410BD2DE9CE
S31508000AB0F84F8946044699F81BB0D068A249BBF19D
S31508000AC0800FA8BF4FF0800B88421E4651D1002EDA
S31508000AD04DD0B06800904FF0FF38002509EB450A65
S31508000AE09AF848700DE0FFF769FDF80240F00062D9
S31508000AF000984FF400634146FFF798FF8046781C3C
S31508000B00C7B20AF148004078B84204DA681CC5B290
S31508000B10062D02DAE2E7FF2FE5D1D9F844006FEA9D
S31508000B200801884225D1A068736800BA4FEA5B02BB
S31508000B3049469847C8B9E06805BAA06802BAB068D5
S31508000B405B464FF0FF31FFF771FFC04385420CD17A
S31508000B5040F6A720A9F810000122A068736800BA19
S31508000B6009F110011030984708B1422002E0172019
S31508000B7000E04320BDE8F28F2DE9F04F0D4683B023
S31508000B808046D5F804A02889ADF80400914605F1F9
S31508000B90140606F11007042352464046FFF767FF7E
S31508000BA0002870D1BAF8000040BA80B20090BAF8AE
S31508000BB0020040BA84B2E00748BF462063D4B4F5C1
S31508000BC0026FC8BF4E205EDC002C5BD00098DFF8B1
S31508000BD07CB148B14FF60441401A00F09C80FF38BA
S31508000BE053D0FE3851D0ACE0287C08B151204AE0F9
S31508000BF08D2C28BF4F2046D22346321D00F0A9F877
S31508000C00002840D1FA7E802AA8BF802202F10C0073
S31508000C10844201BFB08840BA00F47F40B0F5007F37
S31508000C202CD1F08840BA4EF25031884202BF388A39
S31508000C3040F6A721884221D1788A00F47F40B0F592
S31508000C40807F01BFB06800BADBF81C10884215D156
S31508000C504FF6FF70388206F110014FF0FF30FFF7AC
S31508000C60F8FEF16809BAC943884204BF387E0428E9
S31508000C7004D1787E102818BF062801D0452002E046
S31508000C80012028740020BDE8FE8F287C002844D067
S31508000C90042300F05DF80028F5D1DAF8000006BA5A
S31508000CA0201F84B2DBF81C00864238BF4820EAD3EE
S31508000CB0796DA019884228BF4920E4D200984FF6DA
S31508000CC0035188420DD1B9F1000F0AD0D9F8002096
S31508000CD031460220904720B14A20D4E7E01B84B26F
S31508000CE0BE19002CCED0BDF804008442B4BF2746F6
S31508000CF007463B4600F02CF80028C4D1B9F1000F8E
S31508000D00ECD0D9F804307A0851463046984700287E
S31508000D10E4D04B20B7E7287C08B94120B3E7042C78
S31508000D2018BF4C20AFD16A68042300F012F80028D7
S31508000D30A9D14B462A463946304603B0BDE8F04F9E
S31508000D40B5E644209FE70000E320BBDE000000086C
S31508000D505246294640468AE670B50D460446288915
S31508000D60C107164601D4802803DA4F2070BDA87A39
S31508000D7078B9324629462046FFF7FEFE0028F6D007
S31508000D80172807D1286861688847172802D10020E4
S31508000D9070BD502070BD000080B54FF4E1310120D0
S31508000DA0FFF7B7FC3948022181600121016009205B
S31508000DB00921FFF707FCBDE8044004210A20FFF7D4
S31508000DC001BC3449CA685207FCD50860704710B59B
S31508000DD0044603E014F8010BFFF7F3FF2078002818
S31508000DE0F8D110BD30B583B00FF2BC0218CA00A9FD
S31508000DF0042218C1052100AD0DE080B20A2390FB3C
S31508000E00F3F30A2404FB1304E4B2184604F130038E
S31508000E104B5504B10A46491E49B20029EDD500A82A
S31508000E20D2B21018FFF7D3FF37BD10B50446200914
S31508000E300A28ACBF37303030C0B2FFF7C2FF04F023
S31508000E400F000A28BDE81040ACBF37303030C0B2BA
S31508000E50B7E710B50446200AFFF7E7FFE0B2BDE89A
S31508000E601040E2E70A480068800701D5012070476C
S31508000E700020704710B50446FFF7F4FF20B1054877
S31508000E8000682070002010BD012010BD54C8004025
S31508000E9048C800403CC8004080B500A8FFF7EAFFF4
S31508000EA00028FAD001BD0000303030303000000094
S31508000EB02DE9F84FFFF782FBFFF7EEFF0020FFF75B
S31508000EC0D3F90FF27418474D0FF2401BDFF818914B
S31508000ED00FF2181A41A642A41EE05046FFF777FF04
S31508000EE00C27B9F81A00F84000F00F00FFF77AFF50
S31508000EF0012FA4BF2E20FFF764FF3F1FF1D5204620
S31508000F00FFF765FF09F11A00408EFFF76BFF584699
S31508000F10FFF75DFFFFF7C0FFFFF750FB0220FFF763
S31508000F20A3F900A8FFF7A6FF0028F5D19DF8000051
S31508000F30FFF747FF9DF800000A2818BF0D28CCD0F8
S31508000F40312804D032282ED0332831D0E2E70FF2E8
S31508000F50F800FFF73CFF0120FFF7C0FA07460FF23B
S31508000F60FC00FFF734FF2FB90520FFF77DF90FF2D4
S31508000F700010CDE70420FFF777F90FF20010FFF70E
S31508000F8026FFB80648BF0FF2001005D478064CBFF6
S31508000F900FF20C100FF21810FFF719FF3846FFF77B
S31508000FA058FF3046B4E70120FFF75EF9BDE8F18F38
S31508000FB000273046FFF70BFF288A40F6A72188420C
S31508000FC018BF4046A4D178197F1C90F8240020B198
S31508000FD0FFF7F7FEFFB2202FF5DBE2E70D0A000068
S31508000FE02062000000400008000000080D0A454D78
S31508000FF0333539372053657269616C20426F6F74D7
S315080010006C6F616465722076000000000D0A312E4F
S315080010102075706C6F61642065626C0D0A322E2033
S3150800102072756E0D0A332E2065626C20696E666FC6
S315080010300D0A424C203E20002A2A206E6F2061703D
S3150800104070202A2A0D0A00000D0A626567696E205B
S3150800105075706C6F61640D0A000000000D0A536517
S315080010607269616C2075706C6F6164200000000005
S31508001070636F6D706C6574650D0A000061626F724E
S315080010807465640D0A0000000D0A584D6F64656D9D
S3150800109020626C6F636B206572726F722030780005
S315080010A00D0A66696C65206572726F722030780069
S315080010B00D0A6572726F722030780000814212D272
S315080010C010185118401E491E92B2002A1EBF11F868
S315080010D0013900F80139521EF6D1704711F8013B63
S315080010E000F8013B521E92B2002AF7D1704710B59C
S315080010F000E0521E92B222B100F005F8F9D0181B92
S3150800110010BD002010BD10F8013B11F8014BA34299
S31508001110704700000A0242EA11214840C0F3031151
S31508001120484080EA003041010206C9B2D20E41EABF
S315080011300221484080B270470A0A4840C0B20821D6
S315080011404308C00746BF034858401846491EF7D10A
S31508001150504070472083B8ED2748018A40F6A772A9
S31508001160914202BF408A4FF47F41084203D10228C8
S3150800117001DB0120704700207047F8B504461D4E74
S3150800118001200D463070FFF7E7FF18B94FF40170DC
S31508001190FFF722F829461848876A44F48070B8474A
S315080011A0002131700FF2540618B9294644F400702C
S315080011B0B847805DF2BD2DE9F041044688465600E1
S315080011C0FFF7CAFF18B94FF40170FFF705F80A4888
S315080011D0476A0023324641462046B8470FF21C05A7
S315080011E020B93346002241462046B847405DBDE84F
S315080011F0F08100002C0C0020000008080002020202
S315080012004B4B464700366E01EE0800000100FFFF13
S7050800007979
