S02A000066756C6C2D66656174757265642D636F6E74726F6C6C65722D736F66742D636F6465632E73333715
S31508002000F0140020F9540108294C01082D4C010848
S31508002010A70A080100210008041903AC5054560405
S3150800202000000000000000000000000000000000A2
S315080020300000000000000000000000000000000092
S315080020400000000000000000FFFFFFFFFFFFFFFF8A
S31508002050FFFFFFFF00E0010800000000000000008D
S31508002060FFFFFFFFFFFFFFFFFFFFFFFFFFFFFFFF72
S31508002070FFFFFFFFFFFFFFFFFFFFFFFFFFFFFFFF62
S31508002080F02F002000000000EC2F0020EC2F00208D
S31508002090F014002048660108C8560108900B002075
S311080020A02C0B0020000002080030002075
S31508002100F0140020F9540108294C01082D4C010847
S31508002110354C0108314C0108394C0108B44C01080A
S31508002120B44C0108B44C0108B44C0108B44C01087D
S315080021303D4C0108B44C0108B44C01087D55000813
S3150800214069F80008B44C01083B400008B44C010883
S31508002150F5280008B44C010869200108B44C0108A8
S31508002160CB44000881470008112F0008D1930008C6
S31508002170B44C0108B44C010829220008B44C0108E3
S31508002180A9620008B44C0108B44C0108B54C010812
S31508002190322000F0BCB880B52C482D4A2D4B0021C2
S315080021A041654FF48041116004220260C1600D222E
S315080021B01A6000224265426D42F060024265264876
S315080021C0016000F059F80A2302220FF29C0132201E
S315080021D000F0F5F802220FF29C01FFF7D9FF022260
S315080021E00FF28801FFF7D4FF02220FF28401FFF7EE
S315080021F0CFFFBDE8084002220FF26801322000F046
S3150800220086B810B51548164C0068800606D52046CF
S31508002210BDE810404FF4A05100F015B9042000F0B5
S3150800222005FA0020207010BD08484FF48041C160AF
S315080022300421016009480068800644BF042000F0B4
S31508002240E9B94FF4A051064800F0FDB814A80040BB
S3150800225080E100E014BC004000E100E008B4004062
S31508002260FC1600201158000014B6000016070000DE
S3150800227019040000280400005848017849B958494B
S3150800228000220A600E22CA6003220A610A6001213E
S31508002290017070475348544902680A8002684A80A8
S315080022A04F4A13688B80D368CB8013690B81002152
S315080022B011600E21D160032111611160016821F4BA
S315080022C0706141F450610160016821F0F00141F04C
S315080022D0D00101607047434943480A68038822F4DD
S315080022E0706203F470631A430A600A68837822F0FE
S315080022F0F00203F0F0031A430A60002238490A6024
S31508002300C288CA6002890A618088086070472DE918
S31508002310F04100F071F8354E042000F073F880465D
S31508002320B068000705D400F0D9F900F061F8F7D2D3
S315080023303CE007F0FE0000F063F80746B068800747
S3150800234006D400F0CBF907F635418142F6D22DE0E6
S31508002350B068C00703D5FFF7BEFF02202DE00027AF
S3150800236000E07F1CFFB2AF4213D2385D00F048F898
S315080023708046B068800705D400F0B0F900F038F858
S31508002380F7D213E0B068C007EBD5FFF7A4FF032028
S3150800239013E0082000F036F80446B068000709D4B0
S315080023A000F09CF904F635418142F6D2FFF793FF17
S315080023B0012002E0FFF78FFF0020BDE8F08138B565
S315080023C01C46FFF7A4FF05462CB14FF47A7060430C
S315080023D080B200F0FDF9284632BD0000C12F00206A
S315080023E054C8004000B40040B61700203CC800405E
S315080023F008F635418142704707460C46154649E7B7
S3150800240030600220306100F069B9000038B54478C0
S31508002410456800F047FA784A0C2161438B585B1BE4
S31508002420B3F1004F98BF8D50BDE8324000F040BA76
S3150800243010B5044600F045FA606004202070204676
S31508002440BDE81040E2E738B504460D4600F039FA13
S3150800245028186060012020702046BDE83240D5E784
S3150800246070B5044600F02DFA054600F01BFA06463C
S3150800247060686FF0004100F02CF840192060304683
S31508002480BDE8704000F014BA70B504460D4616460D
S3150800249000F017FA002156B1FF22327007E0121A2F
S315080024A0AA4202D2154606B13170491C0834226880
S315080024B00AB9284670BD1378002BF6D0042B04D031
S315080024C05268831AB3F1004FE9D806B1317000207B
S315080024D070BD0022D8E738B5044600F0F2F9054683
S315080024E00DE0017851B1042904D04168691AB1F1A7
S315080024F0004F03D8042101706168884708342068B2
S315080025000028EED131BD10B53B490C2202FB001460
S3150800251000F0D7F92168401AB0F1004F06D8606874
S31508002520FFF7D9FF2046BDE8104099E710BD70B502
S31508002530324D3349097804466878884204D3E52140
S315080025400FF2C00000F086FA6E78701C68700C21D5
S31508002550294801FB060001214460017200E04E7023
S3150800256054F8081B0029FAD1FFF77AFF304670BDE8
S31508002570F8B505464FF0FF300090204C207840B360
S3150800258000F066FB28B940F219110FF2780000F046
S3150800259061FA00F096F9184A0C2101FB052300257B
S315080025A01D72002305E0009EB54288BF354600959A
S315080025B05B1C6578DBB2AB420FD201FB032635689C
S315080025C0471BB7F1004F04D9367A2D1A0EB9002DDC
S315080025D0E9D100F045FB0020F2BD00A800F094F90F
S315080025E00120F2BD044A0C2303FB002001210172DD
S315080025F07047024908707047C0170020CC2F00208A
S31508002600885A01086576656E742D636F6E74726FED
S315080026106C2E6300C108032907DA012100F00702BE
S315080026209140C0088002124A11507047C108032918
S3150800263007DA012100F007029140C00880020D4A1E
S315080026401150704710B5044600F02CF9E10803292B
S3150800265009DA094A02EB812101230A6804F0070412
S31508002660A3405A400A60BDE8104000F021B90000B6
S3150800267010B0004014B000400CB000407047000095
S3150800268038B5002814BF0401102400F00BF90546DC
S3150800269000F0D8FC20180F490F4C82B24A60000C93
S315080026A0086004202060284600F002F9206C40F0FB
S315080026B00400206431BD80B500F0F4F806490A6CC0
S315080026C022F004020A6404220A60BDE8024000F00F
S315080026D0EFB800004820004008A0004000F0B2BC57
S315080026E010B5664C002000F0B8FD40F68C218842F3
S315080026F02068B4BF40F0080020F00800206010BD34
S3150800270010B504465E48018882B000F05CF89DF872
S3150800271000109DF80100FF2902BFFF2804200021B0
S3150800272004B1801C574A1368C0B20828A8BF0720FE
S3150800273023F4607343EAC010106008291068A8BF24
S315080027400721C00841EAC00010604F48047013BD55
S3150800275000B54E48018883B000F035F8BDF8000092
S315080027604FF6FF7188420EBF4FF4E1600A2190FBD5
S31508002770F1F0ADF800004448007808B340480188F5
S3150800278002237F2201A800F099FD9DF80500BDF8F7
S315080027900030FF2808BF0420811CC9B20829A8BF39
S315080027A00721C1F12F0202EBD272C0F12F0052109D
S315080027B000FB0320C1F12F01B0FBF1F0ADF80000DA
S315080027C0BDF800000EBD02237F2200A800F076BDEA
S315080027D070B52F4C2568064600F0B4FD2D49B0FBB0
S315080027E0F1F070432F303021B0FBF1F0032809D304
S315080027F0616D41F0010161652168491B0903090BF7
S315080028008142F9D370BD10B5040004D110BD4FF450
S315080028107A70FFF7DDFF2046441E80B20028F6D105
S3150800282010BD704738B50C4620B101280FD00328D3
S3150800283020D021E0184D44B100F084FD1749B0FBC3
S31508002840F1F0401EB0F5005F0CD2286012E04CB1E2
S3150800285000F078FD610801EB4000B0FBF4F0B0F53C
S31508002860003F01D3202032BD0D4900F001024A6025
S3150800287040080860002032BD212032BD00BC00405F
S315080028801C64010818000040D12F00201E640108AE
S315080028903820004090D00300100004E020A1070073
S315080028A068C80040EFF31180602181F311887047F2
S315080028B080F311887047000080B500F002F880B2F6
S315080028C002BD10B5FFF7EEFF57490A68496841EAA5
S315080028D00244FFF7EDFF5548017831B154490968BC
S315080028E08C4202D15348406810BD00210170204631
S315080028F010BD704780B5FFF7FCFF4F4907200860F9
S3150800290001204C49087001BD2DE9F843044600250D
S31508002910206810B900F0A4F92AE0FFF7C3FF00F019
S3150800292076F8206810F1010F1CBF401C2060FFF7E5
S31508002930C8FF21683F4E404F814600F063F8216882
S315080029404944090C0160357002203860386400F08B
S3150800295063F8012001F052F83D64307838B98525CE
S31508002960FFF7AFFF2168081A4844206000E0256099
S315080029702846BDE8F2832DE9F84F0D4682462868B9
S315080029809346002710B900F06BF938E0FFF78AFF85
S3150800299000F03DF8286810F1010F1CBF401C2860A4
S315080029A0FFF78FFF234C244E27708146296800F0D5
S315080029B029F829684944090C01600220306030640E
S315080029C000F02AF801E02F6027702868B8B148445B
S315080029D0BAF1000F606003D1022001F00FF803E09E
S315080029E05946022000F0E9FF376420780028EAD12A
S315080029F08527FFF766FF2968081A4844286038467D
S31508002A00BDE8F28F0E48494489B241607047804656
S31508002A100A4910200860704710200A490860404695
S31508002A20FFF746BF00000000106000403C29002068
S31508002A3040290020B02C002014A0004080E100E0CE
S31508002A401860004000E100E001460022002092E7FD
S31508002A5042DE704738B504460D4600F083FCFFF7A2
S31508002A6021FF2946204601F020F82B4622460FF280
S31508002A70CC11002001F080FA29462046BDE83440F2
S31508002A80E6E72DE9F84F6548654D01682E1D4FF4B8
S31508002A90206A7165016AB16562490968F165416A2A
S31508002AA03166816A7166C16AB166016BF166806BCF
S31508002AB0306796F8340040074CBFF76BB76BBB46D8
S31508002AC001F039FB0022584CDFF86081DFF860918D
S31508002AD0F2648742014624BFA4F12003BB42316554
S31508002AE01DD357F8180F306457F8040F7064706DCB
S31508002AF0C005C00D062815D1306C484512D340458F
S31508002B0010D200884DF6426290420BD105F18C0036
S31508002B106A68426040F2017A7268826002E0326452
S31508002B20726483464348814202D2014600E0091D89
S31508002B30A14203D20B68B3F1CD3FF8D0601AB06456
S31508002B40182105F1780001F021FB002003E0C0B24E
S31508002B5005EB80029167A34523D254F8041D494525
S31508002B60F9D34145F7D2CA07F5D5002205EB82030A
S31508002B709B6F8B4203D0521CD2B2062AF6DB062A7A
S31508002B80E9D1002814BF401E0520E0E7716F002236
S31508002B9005EB8203521CDF6F9F67052AF8DBC5F831
S31508002BA08C100146481EC9B20029EFD1706DC005C8
S31508002BB0C00D02280AD0032815D0042816D00528E7
S31508002BC017D0062818D00C281CD01EE01A48016811
S31508002BD0890748BF40F6021A1CD40068C00719D5F1
S31508002BE040F2025A16E040F6012A13E040F6022A9D
S31508002BF010E040F6032A0DE0BAF5206F0AD140F638
S31508002C00042A07E040F6052A04E018B1242838BF4C
S31508002C1040F6072A5046BDE8F28F000004ED00E0B2
S31508002C200000002000E300E0F0140020C856010868
S31508002C3090210008980000201CA000400D0A5B4166
S31508002C4053534552543A25703A25645D0D0A0000DF
S31508002C50EFF3118060288041C043C00F7047000021
S31508002C60002181F31188704710B5DFF8E44410207D
S31508002C702063FFF717FEDFF8DC140A6842F001024A
S31508002C800A60FFF715FEDFF8D00400F1080161605D
S31508002C902160923061688931616001212163E060B9
S31508002CA0A060DFF8B814E0688930E060022020638D
S31508002CB04FF6FF70086010BDDFF8A40445F2640102
S31508002CC0C1601E21416250210162C821C16181652E
S31508002CD0F021C16545F69001416688218166062185
S31508002CE0C16644F2066101604FF6FF714160DFF884
S31508002CF07404007838B1DFF8700448F26071016036
S31508002D004FF4C1514160DFF86404016841F00401E1
S31508002D1001600020DFF85814487070472DE9F84F15
S31508002D20DFF834148A2202FB001202F10806721C2C
S31508002D3004245378127802EB03221FFA82FA0AF463
S31508002D404062B2F5006F05460AF4404808BF0824F9
S31508002D5003D0B2F5406F08BF0E24B8F1000F04D0B7
S31508002D605FEA4A625CBFA21CD4B2DFF80824127874
S31508002D704A70401800900020009988705FEA8A60BF
S31508002D8052D5DFF8F473786E00064DD5A019B8F55C
S31508002D90404F4FF4806B4FF4006902D101F0F9F906
S31508002DA009E0B8F5004F35D14078A15D01EB002068
S31508002DB080B201F0D7FA68B3B8F5004F08BFA01C77
S31508002DC004D0B8F5404F02D104F10800C4B2600837
S31508002DD00AF0070103291DD1002D14BF7968396847
S31508002DE0814217D3002D14BF79683968421C914275
S31508002DF0F8D3A05D04280DD1F86DC00606D400F0FE
S31508002E0015F803D0786C40F0010078640120009929
S31508002E10887009E0F86DC00606D500F007F803D0FB
S31508002E20786C400840007864BDE8F18FB86C05B14D
S31508002E30CB4610EA0B0F70472DE9F04E0446C64EF6
S31508002E40DFF834538A2000FB046000F1080B002CDD
S31508002E500CBF28686868C1B2052903DA7068401C87
S31508002E60706053E040005FFA80F909EB0B00C34F2E
S31508002E7010F8081D427802EB01211FFA81FA7178D1
S31508002E80017000214170F86B20F48050F863686E79
S31508002E9014B93868400504D4012C1FD138680005D8
S31508002EA01CD5B748017889B1002101701AF4E45F8E
S31508002EB0B448016802D00022402005E09BF80100D2
S31508002EC0000900F001028F2001F065FA002C0CBF02
S31508002ED04FF480604FF40060386012E01AF4E45F43
S31508002EE00FD101F0DDFE10B15FEA4A4009D59BF823
S31508002EF00000802805DAA01949468278584601F06C
S31508002F0059FF002C0CBF012002202861BDE8F08E75
S31508002F102DE9F84F914C984E2068216CDFF868A28D
S31508002F20DFF85C82DFF83092984F01EA00051AE074
S31508002F3040B14878C00605D49248016800228F201F
S31508002F4001F029FA280605D501F07EFA802025F039
S31508002F5080052060E80506D501F076FA4FF4807002
S31508002F6025F480752060002D68D0280706D5002036
S31508002F70FFF7D4FE082025F008052060E80606D5E8
S31508002F800120FFF7CBFE102025F01005206005F084
S31508002F906000602803D1B06CC0050AD401E0A80619
S31508002FA005D52020206025F02005002006E06806CB
S31508002FB006D54020206025F040050120FFF73CFF9C
S31508002FC0E80410D54FF48050206025F48055D7F8D2
S31508002FD000B0082038607868000548BF01F0B0FAEC
S31508002FE01FFA8BF03860E807ACD5012020606D0821
S31508002FF099F800006D000028A4D001F0D7FD01283B
S31508003000A0D198F8000000289CD09AF8000004285F
S3150800301098D1F068400800F001008A2101FB009170
S315080030200831002814BF7268326812B92268D204BF
S31508003030F7D5002814BF7068306879E7002020604B
S31508003040BDE8F18F524800687047F0B504460D4652
S3150800305089B00021032000F0A3F804AE1BE0002786
S3150800306000F0B9F826F8170000F0B5F800A921F81D
S3150800307017007F1C082FF3DB04A802F009F80020CC
S315080030802080218836F810205140401C08282180CD
S31508003090F7DB6D1EA41CEDB2002DE0D100F0D7F8C9
S315080030A0012009B0F0BD0321022000F079B84FF6DF
S315080030B0FF71081A292190FBF1F03A3040B27047A7
S315080030C038B500F088F8FFF7F2FF324D0446287845
S315080030D0B0B90321032000F063F82F4801880223C2
S315080030E07F2200A800F0EAF800F075F8BDF8001095
S315080030F0401880B2FFF7DBFF15386870012028708A
S3150800310000F0A5F86878201A40B232BD80B50321D0
S31508003110022000F045F8BDE80140D1E770B51F4828
S315080031200078002490B9FFF7F1FF114E0546707834
S3150800313048B13078401B40B201F0BBFF0B2805DBD5
S315080031403570012402E0012035707070204670BD8C
S315080031500020004084200040CC2C002000A0004025
S315080031604C10004095160020D010004080200040EA
S31508003170DC2F0020941600202020004004A00040E8
S315080031808C2E0020942E0020D7160020B820004050
S3150800319038200040DA2F002020640108D8160020C5
S315080031A070B505460E4601F089FF3D4C206C20F0AF
S315080031B00800206401F084FFFFF774FB310341EA3D
S315080031C0C511384A41F00101116008212160BDE8A6
S315080031D07040FFF76DBB2DE9F041334C334D304E4F
S315080031E025E001F06BFF324904200860306C40F09E
S315080031F0080030642F68286840084000286001F0FD
S3150800320061FFD4F80080206820F04000206001F0BB
S3150800321061FFC4F800802F6001F054FF306C254927
S3150800322020F0080030640420086001F049FF306887
S315080032300007D6D5082030601F48006880B2BDE870
S31508003240F08180B5FFF7ACFFBDE80140C3E715483C
S3150800325001684908490001607047F8B50746FFF755
S3150800326077FA044639460320FFF7EBFF0546394649
S315080032700120FFF7E6FF064639460020FFF7E1FF83
S3150800328008490A68520852000A60401B0004711B6C
S31508003290B0FBF1F060434000000CF2BD00000000F6
S315080032A018A00040047000400080004094ED00E043
S315080032B000E100E080E200E00070004030B504461E
S315080032C010467F2808BF0020B1F5004F83B01AD1F9
S315080032D008237F2240F6120100A8FFF7EFFF082215
S315080032E00FF2380100A801F043FF30B908237F2206
S315080032F040F2A27100A8FFF7E1FF082200A92046C4
S3150800330001F0ECFE37BD044D294300FB03111A46B4
S31508003310204601F0E3FE37BD00000408FFFFFFFF6B
S31508003320FFFFFFFF2D480068C00701D42C487047EF
S315080033302C48704780B5FFF7F5FF2B49096801B996
S31508003340400802BD80B5FFF7EDFF400802BD01F059
S31508003350E2BF2648012181604EF6BE214160012167
S31508003360016070472249012008607047A52805D1E9
S315080033701E484DF6AD6141600221016070471B4849
S315080033800068C00701D5012070470020704780B546
S315080033901849194A1020086018491948007858B180
S315080033A003280CBF00200120106040F65100086079
S315080033B00020FFF728FA06E0022010604FF40060AC
S315080033C0086001F061FF07210E48016000210164D1
S315080033D010200D490860002002BD00001C40004076
S315080033E0001BB70000366E01204000400060004018
S315080033F00860004080E100E0080000400C600040E2
S31508003400C52F002014A0004000E100E02DE9F04F90
S31508003410DFF8F44599B0804660681890B8F1070F50
S3150800342008BF4FF0030804D0B8F1080F08BF4FF0E3
S315080034300208DFF8D8552868696840EA0120A968B3
S3150800344040EA014000906868400703D5E06940F00B
S315080034500200E0612868400703D5E06940F00400EF
S31508003460E06100982969C840C00703D5E06940F0C3
S315080034700800E0610020DFF88C65DFF8949530607D
S31508003480B8F1010F00F06882C0F08E82B8F1030F20
S315080034901ED005D3B8F1040F40F08682606017E0AD
S315080034A0D9F84000C00703D5E06940F04000E06164
S315080034B0D9F84000400703D5E06940F02000E061F4
S315080034C0D9F84000800703D5E06940F01000E061B4
S315080034D0FFF7E8F9FFF753FF8DF85C004FF0000B94
S315080034E0D9F84000DFF82CA5DFF82C75DFF82C1585
S315080034F01690D9F844001590DFF82405C06C14908E
S31508003500DFF81C05006D1390DFF81405406D129066
S31508003510DFF80C05806D1190DAF800001090DAF8E3
S3150800352004000F90DAF814000E90DAF824000D90D3
S3150800353038680C9078680B90B8680A90F868099013
S315080035403869089078690790B8690690F86905900F
S31508003550B86B0490DFF8CC0400680968039102216F
S315080035602160DFF8C41409688DF80410DFF8BC146C
S3150800357009688DF80510DFF8B81409688DF8061083
S315080035804FF0FF316162DFF8AC140968C9040BD546
S315080035906968C90708D5E169C90705D5316841F4DD
S315080035A080714FF0010B3160DFF8881409688904CF
S315080035B00BD56968490608D5E169C90705D5316893
S315080035C041F480414FF0010B31600121DFF864249A
S315080035D0126852040ED5009AEB68DA40D20709D56C
S315080035E0E269D20706D53268EB6801FA03F31A4393
S315080035F08B463260DFF83C241268120410D5009A14
S315080036002B69DA40D2070BD5E269D20702D4E26900
S31508003610120705D532682B698B46994011433160EC
S31508003620DFF810140968C90308D5E169090605D544
S31508003630F17841F008014FF0010BF17000216A683A
S31508003640D2076A6848BF4FF480515206009AEB6861
S3150800365048BF41F40051DA40D207009A2B6948BFA7
S3150800366041F48041DA40D207E26948BF41F400419B
S31508003670D20605D4E269920602D4E269520601D559
S3150800368041F01001E269120648BF41F48031084052
S315080036900290A520FFF76AFE0120E063E069A16BAE
S315080036A011B1616A0142FAD0616A014200F0F18003
S315080036B00020E0634FF0010BF07840F04000F07016
S315080036C001F0FCFC0720C9F800000F20D449086067
S315080036D002F046F81898D24960601698C9F8400072
S315080036E01598C9F844001498C86413980865129880
S315080036F0486511988865CB491098CAF800000F9854
S31508003700CAF804000E98CAF814000D98CAF82400DE
S315080037100C9838600B9878600A98B8600998F86031
S3150800372008983861079878610698B8610598F8612D
S315080037300498B86302980860B849039808604FF07F
S31508003740FF30BD490860B84800683070B74800685F
S315080037507070B7480068B070626AE06910402A69FC
S31508003760336801994B4000990B400106490E01F058
S31508003770010143EA81230106890E01F0010143EAAA
S3150800378081030106C90E01F0010101FA02F21A438A
S3150800379000F47C7042EA00503060FFF783F801F0CD
S315080037A08FFC002020609DF85C0008B1FFF7D1FD72
S315080037B0F0789C490968C90304D5C0F3C00109B16A
S315080037C020212162D9F84010890704D5C10744BFD2
S315080037D00221C9F80C10D9F84010490705D5C0F3DD
S315080037E0400111B10421C9F80C10D9F84010C907D5
S315080037F005D5C0F3800010B10120C9F80C00306867
S315080038008749C96C11F0E00F05D0C10503D5894A6F
S315080038104FF4805111608249096D11F0E00F05D00F
S31508003820410403D5834A4FF4005111607C49496D20
S3150800383011F0E00F08D0E96820FA01F1C90703D5AD
S315080038407C4A4FF4804111607549896D11F0E00F8B
S3150800385007D02969C840C00703D576494FF4004008
S315080038600860BBF1000F6ED17448006800056AD580
S315080038706068800767D5B8F1040F64D069480068A6
S31508003880C0063DD56B480068C00639D501203071A1
S3150800389059E0BBF1000F7FF40FAFDAF818005F4963
S315080038A040084000CAF818005C48806840F00400E8
S315080038B0886040F2072162480088884201BF604854
S315080038C040884FF20F01884205D15D494CF23C30E1
S315080038D048804FF0010B012001F07CFFBBF1000F7F
S315080038E005D057494FF20F0048804FF0000B534858
S315080038F0524940680004B06089680843B060E1E650
S31508003900FFF720FD4F49B0FBF1F04FF47A714843B9
S315080039102F303021B0FBF1F0002131714A494A6D50
S3150800392042F001024A650A68444B444C5B68A46845
S3150800393044EA0343B468A34205D10B689B1A1B03E8
S315080039401B0B8342F0D3F07840F08000F07019B07A
S31508003950BDE8F04FFFF784B9FFF711FD0446A5202F
S31508003960FFF704FD01F0AAFBFFF77AF9374D2E6839
S31508003970286840084000286001F0A4FB344FD7F8B7
S315080039800080386820F04000386001F0A3FBC7F8D3
S3150800399000802E6001F096FB0CB1FFF7DAFC19B037
S315080039A0BDE8F04F01F08CBB19B0BDE8F04F40F20E
S315080039B03C410FF2A800FFF74DB8144ACBB213608A
S315080039C0C1F307235360C1F30741916000232149DE
S315080039D00B601368002B04BF5368002B01D1926853
S315080039E01AB10A6842F001020A600A6842F40072D3
S315080039F00A600A6842F080020A6007E51649DCE7B1
S31508003A0000000000382900200400004008BC0040DF
S31508003A1014A00040044000400050004008ED00E0BB
S31508003A2014A8004000E100E008B0004008B40040D7
S31508003A3008B8004000E200E080E200E00C600040C8
S31508003A400000002090D003003820004094ED00E0EC
S31508003A50008000402000004000B13300736C6565AB
S31508003A60702E630070B5B24C204602F061F9D8B9E1
S31508003A70204602F036F9FF28044615D0AD490968F4
S31508003A80405C851EE9B2204602F0BEF80646E9B259
S31508003A90204602F063F82146304600F0F8F8204642
S31508003AA0BDE8704001F030BF70BD03460A469EA1CE
S31508003AB00420FFE70CB480B502AA00F03DF801BC6B
S31508003AC05DF80CFB21B103460A4698A11120F1E7DF
S31508003AD0704700B587B002F061FA002105910246E9
S31508003AE050210491002354210391012000210291C1
S31508003AF00191914900910FF25021FFF7DBFF8F48A2
S31508003B008179C3788278039101880291417901917C
S31508003B100179009142200FF23C21FFF7CBFF07B055
S31508003B2000BD10B504462146814802F0C5F8204676
S31508003B30BDE8104001F0DABE2DE9F04F85B0054624
S31508003B400C469046002602F0A8FAF8B902F025FBC2
S31508003B50E0B1012001F06FFE8246BAF1FF0F15D0E1
S31508003B60002101F063FE294601A802F01CFB054668
S31508003B709CB900F087F830B9504602F08CFB10B1BA
S31508003B80042002F07BFA504601F0BEFE05B0BDE8FF
S31508003B90F08F8DF804200125641C20780028E8D0D1
S31508003BA0A0F130010A2905D20A2101FB0600A0F17D
S31508003BB03006F1E700F066F80028E4D122780025FF
S31508003BC0422A01A80ED0442A1AD0462A25D0572AB6
S31508003BD00DD0622A3AD0662A2AD06C2A25D0702AB5
S31508003BE026D0D6E758F8040B8DF80400D3E758F822
S31508003BF0041B8DF8041002250904090E4170CBE751
S31508003C0058F8041B8DF804100A0A427004250A0C99
S31508003C108270080E8DF80700BEE758F8041B504658
S31508003C2001F05CFF0028B7D0ADE758F8046BB3E79E
S31508003C30012358F8041B662A08BF0223F2B250462D
S31508003C4001F02EFF002808BF0026ECE7394858F88F
S31508003C50041B00681AF80090CFB2FF2F9CD017F803
S31508003C6000B00BEB0901C9B2504601F077FF0028F6
S31508003C7089D1CDF800B000233A464946504601F0AE
S31508003C80EAFF89E72A4601A9504601F025BF2DE932
S31508003C90F043122885B080460D4609D03A281DD033
S31508003CA04FF6FE71884204BF284602F089FB33E0CE
S31508003CB02048234F00682E5C08E0284601F0B0FD36
S31508003CC0214602F00CFC38682D5C203EFF2D23D0DF
S31508003CD0F6B2212EACBF20243446EEE702F0FBFDF7
S31508003CE0814600F0D5FF064603F06DF8074603F057
S31508003CF067F8044600F0C4FF02460F480FF25C015D
S31508003D000390CDF810900196009723460D48008839
S31508003D1002903B20FFF7CEFE2946404605B0BDE897
S31508003D20F04302F0DBB90000574600006C70000053
S31508003D30A81600201C150020B82C002030640108A5
S31508003D4024150020BC2F00204242387042424242CD
S31508003D5057424200424242425742000057424257A7
S31508003D6057387042000000002DE9F047044688469F
S31508003D7091469A4600F025F9002801BF25460FF21C
S31508003D806020285C012823D1DFF8286256F82570C0
S31508003D90FEF788FD0021B98039807980FEF788FD15
S31508003DA006EB85000669FEF77DFDDFF80C2200218B
S31508003DB0B18031807180A954FEF77AFD02F0D5FBF7
S31508003DC053464A4641462046BDE8F04702F060BBE6
S31508003DD02120BDE8F08710B5044602F0C3FBDFF8E2
S31508003DE0D40100EB84000069808810BD2DE9F843F2
S31508003DF081464C46DFF8BC0100EB8400884606691C
S31508003E00484600F0DEF808B1012037E0DFF8A8518F
S31508003E10605D05EB440760B1B8887188884208D1AF
S31508003E20FEF740FD665D00216155FEF741FD30460F
S31508003E3024E0484602F096FBB088F0B1FEF732FD62
S31508003E4071880FF2A8128919897988F800104FF637
S31508003E50FF78718832F8142000F030F87180B18844
S31508003E604144B180FEF724FD605D20B1B888404525
S31508003E7004BF3088B880002000E02620BDE8F28321
S31508003E800FF25C11415C01290AD10FF24C11494A23
S31508003E9031F8101052F820008088081A80B270474E
S31508003EA00020704780880FF2301333F81110891AF2
S31508003EB0884201DA0120704700207047491C91FBAF
S31508003EC0F2F302FB131170472DE9F84F8046474677
S31508003ED00FF20C10385C01288B46164638D1354847
S31508003EE00FF2101950F827400FF2F80A002514E0CF
S31508003EF0FEF7D8FCA18801B9012522881BF8011B09
S31508003F001219917121883AF81720FFF7D7FF2180F7
S31508003F10A188491CA180FEF7CBFC3046461EC0B2DC
S31508003F2088B1002241462046FFF7BCFF0028DFD1B2
S31508003F301DB1404602F0AFFA002517F8090000281F
S31508003F40EFD1222005E0404602F0A5FA002000E065
S31508003F500120BDE8F28F80B501460FF284028A5C23
S31508003F60012A05D1134A52F821108A88002AFCD161
S31508003F7002F0B3FA002002BD0CB438B504460D466B
S31508003F8002F09FFA04AB2A4621460C4803F019F8BA
S31508003F900FF24C012046415C012907D1054951F829
S31508003FA02000808810B1204602F075FA32BC002045
S31508003FB05DF80CFB74160020B4280020C5640008C0
S31508003FC07047042806DA0FF21801415C481E804142
S31508003FD0C00F7047012070478000000000000000F5
S31508003FE001000000800000000000000080000000C2
S31508003FF0000000000100000010B50446FEF752FC60
S315080040004E49302008604E4908604E490860102025
S315080040104D4908604FF20F01200A00284B4808BF97
S31508004020240204804180BFF35F8F49480021016064
S31508004030416048484849086010BD10B5474C20689B
S31508004040C0060BD5464941480A68C0F89420496815
S31508004050C0F8901040F60620FFF7CEFF2068C0078C
S3150800406008D5404903200870206C400840002064A9
S31508004070012020602068000703D5206C20F0080086
S31508004080206410BD80B5002000F009F830B9BDE8FD
S315080040900440FC210FF2E000FEF7DCBC01BD2DE96F
S315080040A0F044314C21680D1A15F01F0105D000287F
S315080040B052BF6D1A681A00F120052C48A5F1200692
S315080040C0A84224BF2A48864203D3EFF308808542D4
S315080040D001D300202DE0FEF7E5FB8246254800685F
S315080040E010F0010718BF01F053FB206801468D4206
S315080040F006D2A84224BFCD2100F80119F9D206E05C
S315080041002038002201E000F8012B8842FBD3256005
S31508004110304601F042FBE22001E006F8010BAE4210
S31508004120FBD30FB101F01CFB5046FEF7C1FB20681C
S315080041302038BDE8F0840C480068704730200040FD
S3150800414030C8004030C0004010D0004000000020B9
S315080041501C4000400400FA050CED00E018A00040E1
S3150800416030500040D82F0020AC160020900B0020BD
S315080041702C0B002094ED00E06D6963726F2D696E5B
S315080041807465726E616C2E6300000000002203F0F5
S315080041902BB800207047000080B503F0DCF803F068
S315080041A0D5F9BDE8014003F0B3BB624900200871A8
S315080041B061480078022808BF03F07CBF704770B5D5
S315080041C05E4801F08EFD0446FF2C44D003F0F4FF50
S315080041D00646584D0321204603F0CFFF28700421D8
S315080041E0204603F0CAFF68700521204603F0C5FF84
S315080041F0A8700120FEF742FA204603F0DDFF00F022
S315080042000C00082803D1204603F01AFA1BE006F032
S315080042100C000C2817D1204603F0BFFF064603F012
S31508004220E3FF805D072802BF4348007802280AD1C9
S31508004230287940B904F068F800F07F00411C89B27B
S31508004240281DFEF700F9204601F05EFBBDE8704028
S315080042500020FEF713BA70BD2DE9F04180460D46E1
S3150800426000260DB9012602E0312D08BF0025344F7E
S3150800427003F0A2FF0C21084202D13978012013E08D
S315080042800324404603F0CBFFB0F5006F08D1404643
S3150800429003F0E9FF4FF6FF71884208BF012401D0F9
S315080042A005B105243978204604F096F82946404693
S315080042B003F068F828B9324629464046BDE8F04179
S315080042C001E0BDE8F08170B504460D46164603F0D8
S315080042D073FF00F00C00082806D13246294620460E
S315080042E0BDE8704003F073B970BD10B50446A079F7
S315080042F0012804D11348017841F0010101702078A2
S3150800430003F05AFF00F00C00082809D1207803F0C2
S31508004310C0F928B9607800F0F0006070002010BD80
S31508004320012010BD08490870411E8941C80F00F0D8
S3150800433040BC0000C02C0020E82F0020F416002006
S31508004340E92F0020C92E0020E72F002080B504F0B1
S315080043500CFA08B1002002BD702002BD002070478B
S31508004360012070470020704738B504460D460120E5
S31508004370FEF784F95D48002D12BF00210178491C1B
S3150800438001705B4844705B4800F028F9BDE832408C
S315080043900020FEF773B910B5002814463FD0402810
S315080043A023D0882818BF892840D08D282FD08F2859
S315080043B046D15148007804280DD144B14F4902200E
S315080043C0087040F60620BDE81040FEF759B900F01F
S315080043D0DBFB312030E0012001F050FE00F0D4FB79
S315080043E0002C0CBF3120002026E0404844490078C4
S315080043F00978884204D2BDE8104000210120B3E7BD
S31508004400002001F03BFE00F0BFFB402014E0002036
S3150800441001F034FE0021202003F0DEFF0BE001202E
S3150800442001F02CFE00F0B0FB002005E0002001F0B2
S3150800443025FE00F0A9FB8D20BDE8104003F05EBD07
S31508004440BDE81040C9213CE02C480078022800D07D
S31508004450704780B52B480078042807D00C280ED161
S3150800446029480078022818BF7C2808D1FEF723F9C6
S3150800447000F08AFBBDE80240002003F03FBD01BD05
S3150800448038B50024FEF70EFA05461C48007810B920
S31508004490FEF744FE04462846FEF70AFA002C1CBF1F
S315080044A0BDE8314001F0E5BF31BD80B5FFF7E8FF53
S315080044B0BDE804404FF4A0511448FDF7C4BF40F2CC
S315080044C005110FF25000FEF7C5BA38B5104C206832
S315080044D0216C01EA0005ADB2680705D5206C20F00D
S315080044E00400206403F025FC256031BDE92F002077
S315080044F0B0160020D82E0020D7160020C82E00207F
S31508004500E5160020EA2F0020EB2F0020B82E002009
S3150800451008A000406D61632D656D3235302E63004D
S31508004520DFF8EC07007848B1DFF8E80701790129D8
S3150800453004BF4079042801D1012070470020704744
S31508004540DFF8D407016821F480510160DFF8CC0751
S31508004550017881B100210170DFF8C4170A68520892
S3150800456052000A600A6842F001020A600022816865
S315080045704020FFF710BF7047010603D54FF67F713D
S315080045800840C00070478001B0FBF1F080B2FF28F8
S315080045908CBF0020C0F1FF00C0B2704738B5DFF805
S315080045A07C07C178012901D1002032BDDFF87847A0
S315080045B0617871B1E178407945182079ADB28542C4
S315080045C028BF054603F0A0FE0121A940491E084060
S315080045D000E0002061790818C0B232BD2DE9F04725
S315080045E00446C00705D54FF4B8710FF2B870FEF748
S315080045F031FADFF83857286DC00748BF8C2000F11C
S315080046009480DFF81807DFF8207700210171017020
S315080046104178B1B93978A1B12178122918BF0C2986
S315080046200BD1627802F00702032A02BF091911F8B2
S31508004630021C042904BF01210171A96F41F001017F
S3150800464002E0A96F49084900A967DFF8C8867A78A1
S3150800465098F80610DFF8D896DFF8D86692B10022E7
S3150800466042710129286D40F00400286506D14FF6ED
S31508004670FF7030604FF40070C9F80000FFF78EFF36
S3150800468082460CE0286D20F00400012928654FF0C9
S31508004690000A04D100F043FA6420FEF799F8A86FDF
S315080046A020F00800A8671420E864C5F848A07878C0
S315080046B038B198F80600002801BFA86C0028012028
S315080046C0A864B8790028286D14BF40F0080020F0C7
S315080046D008002865FFF724FF18B1306C40F0080081
S315080046E03064202028626C602C604FF4E0646868AF
S315080046F07F30686004202862DFF83C06046006E024
S31508004700FEF7A6FA18B1FEF7ABFAFEF7CBF8DFF814
S315080047102C06006800F003000328F1D0C9F8004011
S31508004720286D40F0010028650020BDE8F087DFF815
S315080047301006002141608160016821F002010160D4
S315080047404FF00070DFF8FC1508600120DFF8F81557
S3150800475008707047A0F13301DFF8F025914200D3C5
S31508004760704710B5DFF8E0450021217000F05DFDC7
S3150800477002E00120FEF74AFE20780028F9D010BD95
S315080047802DE9F84FDFF8C865DFF890557068716C49
S31508004790DFF8987508401FFA80F8C6F8048068782C
S315080047A0002840F0DD805FEAC870DFF8A845DFF82A
S315080047B0789553D5D7F800A0386C796C41EA004152
S315080047C099F80000A960002844D09AF801008006EC
S315080047D040D5012028704FF480503060306C40F48A
S315080047E080503064FFF79CFEC0B31920FDF7F0FF38
S315080047F04FF44040DFF860B5CBF82800DBF800003E
S315080048000090E06E40F40050E066E06E40F48050A0
S31508004810E0669AF80010A8684901B83101EB000A69
S31508004820FEF710FCAAEB00000003000BFFF792FF4F
S31508004830E06E80098001E06600A9E06E09880843F9
S31508004840E0660020CBF8280048F26070E066E88849
S31508004850206003E000220020FFF79DFD5FEA086064
S315080048600CD5287830B1002028700022A96840208D
S31508004870FFF791FD306C20F4805030645FEA4860A1
S3150800488008D5687830B9FEF7DDFB01460022892095
S31508004890FFF781FD5FEAC86054D5DFF878A4DFF832
S315080048A090B49AF80400012804BF9AF80610012962
S315080048B01FD101F01AFB386F40F00100386700205D
S315080048C08AF80600FEF7D0F90A20FDF781FF4FF6B1
S315080048D0FF7070604FF000084FF4E060CBF80000FE
S315080048E00920B8660120B864B86F40F00800B867B8
S315080048F018E0697999F80220491C6971C9B2914290
S3150800490015D2012808BF00F0CDF8B86F20F00800CE
S31508004910B8671420B866FFF741FEB8644FF4007014
S31508004920CBF80000386D40F0010038650AE0012830
S3150800493008BF00F0B7F8FEF785FB014600228D2078
S31508004940FFF729FD5FEA08700AD5FFF7E9FD38B1D8
S315080049502068E88001202060706C20F008007064F0
S315080049605FEA88600AD520203862687830B9FEF791
S3150800497069FB014600228820FFF70DFD687820B103
S3150800498018F4407F04BF0120A870BDE8F18F70B508
S3150800499082B0044602F0DCF9DFF8C803DFF880537A
S315080049A0002101601521E960092101651F21416087
S315080049B001210166DFF8A803008802F052F8FEF725
S315080049C07BF904F097FC00F031F9DFF84863308989
S315080049D000F059F9708900F05EF9FDF763FF696820
S315080049E041F040016960FDF763FF707800F0F3F865
S315080049F0B07800F000F9DFF87003007800F02DF9C0
S31508004A00DFF8680390F9000002F0E1F9307800F069
S31508004A104AF996F9030000F052F9DFF8540300F05A
S31508004A2070F9BDF80000DFF84C13C0054CBF002034
S31508004A30BDF800000870DFF84003007802F08AF934
S31508004A4028B10FF2603040F2B631FEF703F8012CB8
S31508004A5005D12868C00711D500F024F80EE06CB916
S31508004A602868C0070AD401F040FA286840F0010017
S31508004A702860C820FDF7ACFE0020B071F120DFF8F1
S31508004A80B442206440F2F910E063FEF7EDF82868B6
S31508004A90C00704D54FF6FF70206000F06DF800F0EF
S31508004AA0F2FD73BD70B5DFF8D452DFF868422E68A0
S31508004AB0A079012832D0FDF7F5FE48F2D001296029
S31508004AC06A68520509D548F222022A606A68D20540
S31508004AD0F5D529606A685207F1D4B6B2DFF85822CC
S31508004AE02E604FF4E0611160DFF870120A6A52080E
S31508004AF052000A620A68520852000A600A6842F0BE
S31508004B0002020A604A6A42F001024A620121A17160
S31508004B10FDF7CEFEBDE8704001F0E0B970BD70B596
S31508004B207C4CA07938B301F0E0F9FDF7BBFE0546E9
S31508004B30DFF84C127B4E01200860306D40F0010012
S31508004B4030650020A071FEF78FF820203060306BAA
S31508004B5040F002003063F06D40F00800F06528462A
S31508004B60FDF7A6FE0A20FDF733FE72494FF6FF70E1
S31508004B70086000F001F870BD4FF4E0606C49086009
S31508004B80704764488079704710B5624CA07928B19F
S31508004B9040F2A7410FF20C20FDF75CFF20790128AF
S31508004BA004BFBDE81040FFF77DBF10BD5948007926
S31508004BB0704780B5022801DB012002BD55490871FE
S31508004BC08979884205D010B9FFF7A9FF01E0FFF7F8
S31508004BD069FF002002BD10B50446FDF763FE69496A
S31508004BE00A68002C14BF42F0120222F012020A6070
S31508004BF048494C7040E038B50446FDF753FE054673
S31508004C0001F0EDF940B95F480168002C14BF41F086
S31508004C10800121F0800101603E4884702846BDE885
S31508004C203240FDF745BE3B488078704756494A787A
S31508004C300B78564803EB022202608B78CA7803EB9E
S31508004C40022242600B794A7903EB02228260CA7912
S31508004C50897901EB0221C160704710B50446FDF75A
S31508004C6021FE48490A68002C14BF42F0200222F0AF
S31508004C7020020A603C490C70BDE81040FDF718BEDA
S31508004C8024480089704723490881414908607047CC
S31508004C902048408970471F4948813E490860704747
S31508004CA03D48007870471E490A68002814BF42F03C
S31508004CB0020222F002020A6016490870704738B5E7
S31508004CC004467F2C0AD1354800F01BF8BDF80000D1
S31508004CD0C00554BFBDF800406FF04A04FDF7E2FD79
S31508004CE0054601F07CF930B964B204F19A008005F2
S31508004CF02B49000C08600748C4702846FDF7D8FD04
S31508004D0031BD018802237F2200A8FEF7D7BA00002A
S31508004D10E42F0020D216002040A000408C2E002050
S31508004D208020004030200040B016002010200040AF
S31508004D3000E100E004A0004080E100E0A820004077
S31508004D4010E000E004ED00E0E52F0020CDFF0700AD
S31508004D5000A0004064100040E410004060200040BD
S31508004D60A41600205C100040E32F002098160020AF
S31508004D7028640108CE2F0020941600201C1000403D
S31508004D802810004084200040B82C002098200040BD
S31508004D909420004090200040D01600202C64010882
S31508004DA0541000407068792D636F6D6D6F6E2E63B9
S31508004DB00000000070B504460D461646FFF733FF9F
S31508004DC038B16078002E14BF40F0200000F0DF00F4
S31508004DD060702946204600F0F9FDFF2821D0824C54
S31508004DE00146201D00F068FF804D28882188401C58
S31508004DF0288080B281420AD26888401C6880201DBB
S31508004E0000F06FFF00F080FD2888401E288020886B
S31508004E1029888842F3D3BDE8704075480078FDF7C5
S31508004E20E1BB70BD2DE9F04FA5B082460026FDF71F
S31508004E3039FD6E4F3988491E3980FDF739FD5046D0
S31508004E4000F0EEFC082390F800804078DFF8A49183
S31508004E50029000965146D9F800001AF80000A0F111
S31508004E600802D2B203A800F0CDFD6348007803AC6F
S31508004E70E8B17868002819D0E078FFF77DFB41464D
S31508004E80FFF781FB064694F9020000F1660400204C
S31508004E90009008F10103DBB20022514605A800F094
S31508004EA0B1FD7B6862B2314605A898477DE0029855
S31508004EB000F00700022879D0FF208DF8040050463C
S31508004EC000F0AEFC00F1010B584603F08DF90746D9
S31508004ED0A8EB0700801E45B2002D67D401A95846E5
S31508004EE003F059F8002861D1029800F0070001285C
S31508004EF00BD19DF8040007EB0B01FFF731FA20B937
S31508004F009DF8040000F000FD50E09DF80400D9F873
S31508004F100010465C3949096800F801A0D9F8000074
S31508004F201AF8000000F120019DF80400C9B200F04B
S31508004F307DFC9DF8040003F03FF900F00C000428FE
S31508004F401CBF7D19002768B280B200907B1C9DF8B3
S31508004F5004009BB25246314600F07DFEA9199DF821
S31508004F600400C9B200F0FAFDE078FFF705FB4146F8
S31508004F70FFF709FB02469DF80400032103F0F6F843
S31508004F80A07800F166029DF80400D2B2042103F06D
S31508004F90EDF89DF80C209DF80400052103F0E6F8CD
S31508004FA09DF804A0504602F0C0FF0126504600F0C6
S31508004FB0ABFC304625B0BDE8F08F10B50B4C6188C8
S31508004FC029B1C9B21D2003F007FA002060800C48F9
S31508004FD000F087FEFF2803D0FFF724FF0028F6D04D
S31508004FE010BD074800F0A4BEE8160020C02E002019
S31508004FF0D22F00201C1500208D2E002024150020FD
S31508005000EC16002038B504461B4D214600F03DF845
S31508005010E860211D00F039F8A86004F1080100F0E5
S3150800502034F8686004F10C0100F02FF8286031BDEF
S31508005030F8B50446114D124E8020286006203060CF
S315080050400720286030688007FCD5002704EB870115
S3150800505000F01BF87F1C042FA862F7D330684007BE
S31508005060FCD500262A6B04EB860100F00BF8761CAB
S31508005070042EF7D3F1BD0000383000400030004060
S3150800508010A00040002004F04CB9002004F057B9E5
S3150800509070B504460D46FDF705FC06462846FFF79B
S315080050A0B1FF2046FFF7C4FF3046BDE87040FDF764
S315080050B0FFBB002848BF40427047000072B67047E1
S315080050C062B67047BFF35F8FBFF34F8FBFF36F8F23
S315080050D07047000000BF30BF00BF7047814233D21F
S315080050E010185118401E491E10E011F8013900F831
S315080050F00139121F11F8013900F8013911F801397F
S3150800510000F8013911F8013900F8013992B2042A78
S31508005110EBDA92B2002A1EBF11F8013900F80139FC
S31508005120521EF6D1704711F8013B00F8013B121FD9
S3150800513011F8013B00F8013B11F8013B00F8013B6F
S3150800514011F8013B00F8013B92B2042AEBDA92B25D
S31508005150002A1EBF11F8013B00F8013B521EF6D18A
S315080051607047130003D00A46194604F0FDB8704785
S3150800517010B500E0521E92B222B100F005F8F9D03F
S31508005180181B10BD002010BD10F8013B11F8014B8B
S31508005190A3427047DFF860155120086070472DE973
S315080051A0F0410546FEF7C6F8DFF85015B0FBF1F6F4
S315080051B04FF4F070B0FBF6F71E2D3FB201DBE81B8B
S315080051C004D5A8B2BDE8F041FDF702BBFDF76AFBBE
S315080051D08046FFF773FFDFF82815DFF8282501203A
S315080051E048700721DFF8200500F041F8E91B09B2ED
S315080051F07143C91C8908491EDFF81055416000F043
S31508005200BDF8DFF8F4743C68386820F04000386070
S31508005210FFF760FF3C602E60FFF754FFFFF750FF73
S315080052204046BDE8F041FDF743BB38B50546FEF7F5
S3150800523081F8DFF8C814B0FBF1F44FF4F070B0FB56
S31508005240F4F02D1A1E2D04DA95210FF20850FDF7F9
S3150800525001FCDFF8B404DFF8AC24072100F007F8F6
S3150800526005FB04F1C91C8908491E416031BD01606E
S315080052700021416081604FF0007111607047DFF8CE
S31508005280802401215170D0E7DFF88404006800B952
S3150800529070472DE9F041DFF87C54DFF87C64002480
S315080052A02C6034604FF4A040706041F29A08404682
S315080052B0FFF775FF6F68FEF745F8000142F21071B7
S315080052C0B0FBF1F000F5C870C01B00B24FF448718E
S315080052D090FBF1F000B20828A8BF072004DA10F105
S315080052E0080FB8BF6FF0070030604046FFF757FF5A
S315080052F008274046FFF753FF686804197F1EF8D150
S31508005300FEF720F8211D4001C908B0FBF1F080B274
S315080053107060BDE8F081DFF8F803006800B97047EF
S3150800532038B5DFF8F85301206FF00F04A8602C6039
S315080053308020FFF734FFE868FF2802D8641C102C89
S31508005340F5DB31BD70B5DFF8D803016841F001011E
S31508005350016001214160FDF7A5FA0446DFF8AC5368
S3150800536000F00CF85120DFF8901308602E60FFF764
S31508005370A9FE2046BDE87040FDF79ABA2E6828684F
S31508005380400840002860FFF79DBE0020704710B512
S31508005390DFF87C03DFF8684300680128BCBF0320F8
S315080053A000F01DF80120207000202071DFF874033A
S315080053B0816901F00301032907D10020A0700420A8
S315080053C000F07DF80120207110BD0F210160022137
S315080053D081610120E0706420BDE810404FE72DE9A7
S315080053E0F041CB4AC64D146840F2DC51012C884680
S315080053F0CC4ECD4F15DA0221B9803160B16901F082
S315080054000301032959D0002C03D5B16941F00201E3
S31508005410B161FFF7BAFF5FEA00081AD1002C4CD534
S3150800542049E0B8884FF6FF74A0421DD1BF480188ED
S3150800543002237F22381DFDF741FFB888A04204BF2A
S315080054400220B880B069800703D4B06940F0020032
S31508005450B0610120A870B88830600FFA88F0FFF7AD
S315080054600EFF4046BDE8F081B3699B07EDD5AB78E2
S315080054700BB10846F6E7B168B36811F0010103D12C
S315080054800F2809D2401C06E09B0705D53B781BB1BF
S31508005490032801DB2018B880B88839700228BCBFF9
S315080054A00220B8803068B9888842D2D1B06900F045
S315080054B00300032801D0FFF745FF0020D2E72DE9B6
S315080054C0F047804600248C4D904EFDF7EBF9814657
S315080054D0FFF7F4FD4046FFF782FF08B901240AE00A
S315080054E000F0CAF8D5F800A000F02EF9C5F800A01B
S315080054F03760FFF7E7FDFFF7E3FD4846FDF7D8F904
S31508005500002CE2D0BDE8F0870220D8E710B57E4827
S315080055107B4C002141608160016821F00201016035
S31508005520002060704FF0007076490860A07838B1A6
S315080055300020A0700620FFF728FF00F098F81CDB73
S31508005540E078012814D17A4801210160794909686F
S31508005550C90748BF03200FD40221E170016C41F04E
S31508005560010101640420744908607449086010BD8B
S31508005570E078042801D10520E07010BD80B56048A8
S31508005580407800281CBFBDE80140FFF7BFBFFFF702
S31508005590CEF801BD2DE9F84300F069F803DABDE855
S315080055A0F24304208BE7564C207900B35DE0FDF703
S315080055B079F90546FFF782FDE078032812D000F056
S315080055C05AF8DFF83481D8F80090D8F8000020F0AF
S315080055D04000C8F80000FFF77DFDC8F80090376066
S315080055E0FFF770FDFFF76CFD2846FDF761F9E078D7
S315080055F00328DCD14C4E4B4DB08828604FF6FF7718
S315080056007088B8420CD14E48018802237F22B01C0C
S31508005610FDF754FE7088B84202D16420708001E01C
S315080056207088C8B1FDF78EFE7188344AB0FBF2F077
S3150800563048432F303021B0FBF1F042494A6D42F021
S3150800564001024A650A68AB68DB07FBD50B689B1A3B
S315080056501B031B0B8342F6D3FFF774FE0420E0708E
S315080056604FF4C870BDE8F24309E6BDE8F18328485F
S31508005670006801287047254E3768306840084000A2
S315080056803060FFF71FBD2DE9F8431D4C2078002830
S315080056902DD0207900282AD1FFF7E9FF1FDA40F23A
S315080056A0EF310FF2B000FDF7D5F918E0FDF7FAF87B
S315080056B08046FFF703FDE07805280BD0FFF7DBFFF0
S315080056C00D4DD5F8009000F03FF8C5F8009037600A
S315080056D0FFF7F8FCFFF7F4FC4046FDF7E9F8E07839
S315080056E00528E3D10020A0700520FFF7E8FE00207A
S315080056F02070BDE8F18300000080004090D00300D0
S31508005700D52F002004ED00E010E000E094ED00E065
S31508005710C05A0108104000400C00004008400040F4
S315080057201C40004004400040BC16002026640108C6
S3150800573018A000400C40004080E200E000E100E0D4
S315080057402A64010838200040286820F040002860B4
S31508005750FFF7C0BC636C6F636B732E6300000000B9
S31508005760174838B50446FDF79DF805461548002143
S315080057700160082154F8042B8260491E54F8042B52
S31508005780C260F7D101210160FFF79CFC284613E0AF
S315080057900C4900200860FFF795BC38B545096D012E
S315080057A009480A4C854238BF094CFDF77BF804497D
S315080057B045F014024C620A62BDE83240FDF778B83B
S315080057C06015002094ED00E09800002009000B10F9
S315080057D008000B1070B12DE9F05FEFF308800D4952
S315080057E00860EFF309800C490860EFF314800B4951
S315080057F0086030BF0748006880F3088806480068D4
S3150800580080F309880548006880F31488BDE8F05FCE
S3150800581070470000802E0020842E0020882E00204D
S31508005820DFF8EC14096801EB40107047DFF8E42450
S315080058301268815470472DE9F041040035D0FDF710
S3150800584031F8DFF8D414DFF8D4340E78FF22804616
S31508005850FE2EDFF8CC041BD100260E70DFF8C4C478
S31508005860DFF8C46437781F70002708E007F1010ED7
S3150800587007F805E0DCF800507A555FFA8EF796F8D7
S3150800588000E005687745F1DB0EEB050606F8012C06
S315080058901E78A6420BD24046FDF70AF8052000F00E
S315080058A0EDFB00211B2002F097FDFF201CE0361BB4
S315080058B01E70DFF878340E780F78D3F800E00125EB
S315080058C007F80E50641E056817F805E081F800E031
S315080058D0E4B2002CF0D17A5500213046FFF7A6FF36
S315080058E04046FCF7E5FF3046BDE8F08110B50446B2
S315080058F0FCF7D8FFDFF834140968625C521C62545E
S31508005900BDE81040FCF7D4BF2DE9F041054600F08C
S3150800591031F80446FCF7C6FFDFF8FC23DFF8FC3352
S31508005920DFF8FC63DFF80484FF2D1FD0D8F80010D9
S315080059306F5C7F1E6F547F27D8F800E015F80E10AD
S31508005940394213D13168695C002705F80E701F7853
S315080059507F1C1F70FF29376892F800E005F807E0FA
S31508005960157006BF2546FF240D46DDE7BDE8F04164
S31508005970FCF79EBF80B5DFF8B4130968415C0906D9
S3150800598003D5FFF74DFF007802BDFF2002BDB0B575
S3150800599004460D46FFF7EEFFFF2818BFFFF7B4FFD2
S315080059A0FF2DDFF8887304D13868215C01F07F0188
S315080059B006E02846FFF79AFF3868215C41F0800127
S315080059C021542046FFF72CFF0570B0BD70B504467C
S315080059D00D4605F11F000004400D82B0C0B2FFF766
S315080059E02AFF0646FF2E0CD02946FFF71FFF3CB1BB
S315080059F0012000902B4600223146204600F002F88E
S31508005A00304676BD73B500F0BBF8085C15461E46F1
S31508005A107119884203DA4FF4B07100F0DAF866B10A
S31508005A20294601A800F0D9F8024606989DF8041000
S31508005A3000903346204600F001F873BD2DE9F8437F
S31508005A40089CDFF8DC820546894616461F460BE0A9
S31508005A504A5D0A54491CB142FADBD8F80000BF1B5C
S31508005A60751919F800900026FFB2BFB14846FFF72E
S31508005A70D7FE3018F1192029B2BF3E46C6F12006D6
S31508005A80F6B2324624B901462846FFF727FBE4E773
S31508005A90012C08BF2946F8D00021DCE7BDE8F183D0
S31508005AA02DE9F04100F06CF882B01600255C8846B6
S31508005AB01F460ED07119C9B2204600F04FF808B13A
S31508005AC0182007E0009733462A4621464046FFF746
S31508005AD099FF0020BDE8F6810123E1E70A4600E0C8
S31508005AE0521C1378002BFBD1521A0223D2B2D7E7E5
S31508005AF0F8B5044601F11F00C50402F11F00C004F1
S31508005B002D0E000E05B9012500B90120854223D0C6
S31508005B108542DFF80C6210DA401BC0B2FFF78BFE35
S31508005B200746FF2F01D10020F2BD691EC9B22046E3
S31508005B3000F02BF8316847540EE08A420CD2411E19
S31508005B40C9B2204600F021F804463068205CFFF709
S31508005B50DBFE3168FF2060540120F2BD38B500F045
S31508005B600FF80D46215C2A462046FFF7C1FF28B1EB
S31508005B7029462046FFF75AFE002032BD182032BDBE
S31508005B800446DFF890010068704704E0DFF89021CA
S31508005B901268805C491EC9B20029F7D1704711B551
S31508005BA081B0DFF8700100680C469DF80410085CA7
S31508005BB0844203D34FF4F47100F00BF8214601A890
S31508005BC000F00BF804469DF80400FFF729FE20189C
S31508005BD016BD0FF28010FCF73DBF38B504460D46DA
S31508005BE0E9042078090EFFF7D0FF207005F01F00A2
S31508005BF032BD80B5FFF7D3FF007802BD10B5144655
S31508005C00FFF7CDFF047010BD70B500F01FF800F067
S31508005C1004F800EB062080B270BD064629462046E9
S31508005C20E7E7F8B500F012F8FFF7F7FF0746E91CB3
S31508005C30C9B2FFF7F4FF07EB06260702A91CC9B28B
S31508005C40FFF7EDFFC01906EB0040F2BD0D46691CD3
S31508005C500446C9B2CDE72DE9F541089C1F464CB369
S31508005C60254689B200A8FFF7B8FF0646B9B201A8CB
S31508005C70FFF7B3FF07463046B84238BF3846C0F18B
S31508005C802000C0B2A842B8BF05469DF80400FFF739
S31508005C90C7FD80469DF80000FFF7C2FDAAB207EBD4
S31508005CA008013018FFF71AFA641BA919EF19A4B2EC
S31508005CB0002CD5D1BDE8F38170B504460D46FCF736
S31508005CC0F1FD184B21781B68FF2908BFED5403D056
S31508005CD0C9180E78EE540D702570BDE87040FCF7B3
S31508005CE0E7BD38B50446FCF7DDFD2178FF22FF291C
S31508005CF008BFFF2507D00B4B1B68CD5C8D420EBF36
S31508005D002270EA5CCA54FCF7D3FD284632BD00006F
S31508005D10181500201C150020CA160020161500208C
S31508005D202415002028150020151500202015002010
S31508005D300078FF2801D1012070470020704710B570
S31508005D40044602E0FFF7E0FD2046FFF7CAFFFF28FA
S31508005D50F8D110BD7061636B65742D6275666665F2
S31508005D60722E630038B50120FFF739FB0020FCF7D7
S31508005D70C7FC764C206840F008002060FDF7E9FA79
S31508005D80FCF7AEFC724873490278CB6803F030031F
S31508005D901A43CA604378704AD36085786F4BDD60D2
S31508005DA085880D60C5884D600189116041895160FB
S31508005DB081891960C089586000F090F8206820F041
S31508005DC01000206003F037FB00F0CFFB03F062FB06
S31508005DD0FFF79AFBFDF7BBFABDE83140FDF7D7BAE6
S31508005DE040F20160FEF708B910B500F0BCFB5C484C
S31508005DF000F001F810BD57490278CB6803F030036C
S31508005E001A43CA604378544AD3608478534BDC609B
S31508005E1084880C60C4884C6001891160418951608E
S31508005E2081891960C0895860704710B5FFE7FFF788
S31508005E30AEFAFCF755FC4648FFF7DDFF00F04EF8D2
S31508005E404248016821F01001016003F0F4FAFFF7F7
S31508005E50A1FBBDE8104000F087BBF0B50B68424CCB
S31508005E600F252468960005FA06F6344215D0002652
S31508005E7006EB820724FA07F7FF070BD5B70005FAE2
S31508005E8007FC23EA0C0330F812C005FA07F707EAFD
S31508005E900C073B43761C042EEADB0B60F0BDF0B51D
S31508005EA00B68314CFF252468D600B5402C4213D028
S31508005EB00025012605EBC20724FA07F7FF0708D5D0
S31508005EC006FA05F7BB43175C06FA05FC0CEA070752
S31508005ED03B436D1C082DEDDB0B60F0BD10B5224869
S31508005EE0006808B11E4C07E010BD10B51E480068D2
S31508005EF008B1174C00E010BD1C4900222046FFF7E8
S31508005F00CEFF01221A492046FFF7C9FF0222194986
S31508005F102046FFF7C4FF00220E4900F031F801229F
S31508005F20104900F02DF802220B4900F029F8032247
S31508005F30114900F025F80422084900F021F8201D2F
S31508005F40BDE8104005220D4987E7000000BC004067
S31508005F504015002000B0004000B4004000B80040E2
S31508005F605015002004B000403C1A00200CB0004038
S31508005F700CB400400CB8004004B4004004B800401B
S31508005F80201D6AE7032003F000BB80B503F04DFB34
S31508005F900FF25001FFE701EB800002BD10B503F0D8
S31508005FA044FB044603F045FBC0B208B9012C07D1EF
S31508005FB0072C11D8DFE804F004100608080A0C0EAE
S31508005FC0002010BD092010BD022010BD032010BD01
S31508005FD00B2010BD062010BD44F0800010BD002027
S31508005FE070470000554E4B004649420042544C004B
S31508005FF045585400505752005744470020535700FD
S31508006000435253004653480042414400464C54000C
S315080060102F49087070470EB430B504462C480078EE
S3150800602020B300F0BAF808B3FDF7CAFF0120FFF75E
S3150800603002FC0546FF2D19D0FFF7F2FB022100F0FE
S31508006040B2F801462846FFF7F1FB03AB224629467C
S31508006050204800F0B6FF30B1284600F01CF910B110
S31508006060042000F00BF82846FFF74EFC30BC5DF81C
S3150800607010FB0C2200211848FFF773B8164931F8AF
S315080060801020521C21F8102070470CB480B502AAC3
S31508006090FDF752FD01BC5DF80CFB0D490978A1B965
S315080060A0002818BF012810D0042818BF05280CD0CE
S315080060B0312818BF332808D037281EBF3B284FF68B
S315080060C0FF71884201D00120704700207047000008
S315080060D0DF2F0020D95A0008742E0020302818BF58
S315080060E0322806D034281CBF3628382801D000208C
S315080060F0704701207047000080B59F480021416025
S3150800610041708170A52101700120FFF781FFFFF71B
S31508006110B0FF00F01EF8002002BD98480168C907C4
S3150800612000D4704780B596490A6822F440620A602E
S31508006130016849084900016001680902FCD49148D0
S31508006140006810B16420FCF743FB8F490020086003
S3150800615001BD80B58D48016841F08071016001205C
S315080061608B49086000208B49FCF75CFB8A498B4AFF
S315080061700220086000208A4908608A498A48016026
S31508006180012111607D4A8949116040F2014101658A
S315080061904FF480308649086001BD7B48006800B12D
S315080061A00120C0B27047D12202704170090A81707D
S315080061B080490A78C270501C0870042070472DE97F
S315080061C0F14F82B0002500907B4800990068085C72
S315080061D0441DE4B2FCF770FB01904FF6FF79FFF718
S315080061E0DCFFB8B954E0A91E9DF80800C9B2FFF74C
S315080061F000FD0746494603F02FFA81465546F0004A
S31508006200F9B2761C01FA00F0042E40EA080815DBFC
S31508006210CBF80080EDB2A54232DAFCF74DFB0199C6
S31508006220401A80B2B0F5FA7F2ADC4FF0604BDBF8F3
S3150800623000000128EED14FF000080026EDB215B98E
S315080062405B270125DBE7012D05F1010A04D15A4830
S31508006250009900680F5CD1E7E11E8D4208BF4F46E2
S31508006260CCD0A11E8D4208BF4FEA1927C6D0611EA1
S315080062708D4208BF5D27C1D0A542B4D10027BEE72D
S315080062804FF4C870FCF7A4FAA54208BF002000D056
S315080062900120BDE8FE8F48490968415C0429A8BF6A
S315080062A0FFF78DBF012070472DE9F04D324D6E780E
S315080062B0002E5ED0FCF700FB834631460020FFF730
S315080062C085FB0446FF2CA04602D10020687050E0EA
S315080062D0202EB4BF37462027FFF7A2FA6860AF70B2
S315080062E0DFF8D8A004E04046FFF79AFA6860AF7076
S315080062F06878C0B1FCF7E0FAA0EB0B0080B2B0F505
S31508006300FA7F10DCA8780028F2D1F61B6E70F6B278
S31508006310002EEDD0DAF8000018F80080202EB4BF61
S3150800632037462027DFE7002E04BF6878002818D1F3
S31508006330A878B0B920480068205C851EE9B22046D6
S31508006340FFF762FC122808D1E9B22046FFF706FCDF
S3150800635021461220FDF79BFC06E02046FDF7E1FBEF
S3150800636002E000206870A8702046BDE8F04DFFF7EF
S31508006370CBBABDE8F08D0000F02F0020800E00E0BB
S31508006380001000E034000040100004E0FCED00E0DE
S31508006390040004E020A10700F00004E0000E00E07D
S315080063A0040304E055CEACC5B00F00E00D000100B3
S315080063B000E100E0E62F00201C150020241500202F
S315080063C0704701207047704770477047704770479D
S315080063D07047002070470020704770477047704725
S315080063E0704770477020704770B5044643380FF2FF
S315080063F0880508D0401E012809D9801E01280ED913
S31508006400C01F32D02AE0BDE8704003F022BE002645
S3150800641000E0012603F01DFE0028FAD12EBB134E1C
S31508006420307810BB01203070002003F083FE452C25
S3150800643011D00BD3472C01D003D307E040F6010057
S3150800644001E040F60200FDF7D7FD04E040F2FE2128
S315080064502846FCF7FFFA0020307070BD2846BDE8D4
S3150800646070404FF44471FCF7F5BA70BDC62F002092
S31508006470704700F067BC000072663463652D63617F
S315080064806C6C6261636B2D73747562732E630000A6
S3150800649000B12120704700B1704710B52B48046839
S315080064A0608828B140F2AB210FF2C000FCF7D2FA9F
S315080064B0A188C9B2A01DFDF705FB0020A080208099
S315080064C010BD704780B50B46114620B91846FDF732
S315080064D0F9FA002002BD212002BDFCF743BFF0B542
S315080064E01B4B1D4A1C6812881A4D0FE0278810F8A6
S315080064F0016B3F19BE7126882F88761C96FBF7FC20
S3150800650007FB1C662680A688761CA6800E46711E8A
S31508006510F6B2CEB1A688571EBE42E7DB18680F4B07
S315080065200F491C7824B90088088023201870F0BD0C
S315080065300988018023211970038841888B423ABF54
S31508006540511A5918591A8180F0BD00007416002096
S3150800655084160020EC3F0008B45F0108B428002028
S31508006560B828002070477047704770477561727485
S315080065702E63000038B5FFF7BFFDDFF86C432078BF
S31508006580002840F0A780122000F0C2F900060BD5BB
S3150800659000F0CDF8000607D500F0CBF8000603D5C5
S315080065A000F0C3F8000610D4122000F0B1F9000676
S315080065B014D500F0BCF8000610D400F0BAF80006AE
S315080065C00CD500F0B2F8000608D5E0780E2861D19F
S315080065D002F062FF002800F07F8032BD00F0A7F8C5
S315080065E000060FD400F0A5F800060BD500F0A1F8B8
S315080065F0C00707D400F099F8000603D4E0780C2801
S3150800660045D1E5E700F093F8000609D500F091F8C2
S3150800661000F08100812803D100F087F800060DD527
S3150800662000F085F800060ED400F083F800F081002B
S31508006630812808D100F079F8000604D4E0780D28FE
S31508006640C6D00E28DCE700F072F8000610D500F078
S3150800665070F800060CD400F068F8000608D5E07853
S3150800666016281CBF01281A28B2D00F2815D1AFE763
S3150800667000F05DF80006ABD400F05BF80006A7D47E
S3150800668000F053F80006A3D5E0781628A0D0E078E5
S3150800669001289DD0E0781A289AD0E078022818BFF9
S315080066A01B2895D0062818BF072891D0082818BF98
S315080066B009288DD00A2818BF032889D0102818BFA2
S315080066C0112885D0122818BF1328FAD0142818BF05
S315080066D01528F6D0B02032BDFFF754FC03F020FE93
S315080066E0FDF7F7F9814C0FF26020FBF720FF2070C9
S315080066F07F48FBF71CFF6070FCF7D4F80546607806
S31508006700FBF736FF2846FCF7D3F801F00DFE01F03B
S31508006710E0FBFDF741FD0120FEF739F975484FF416
S315080067207041FBF790FE002032BD0020F0E01020FB
S31508006730EEE01120ECE070B5FEF753FC08B9FEF761
S315080067403CFC6D4C2046FFF7F3FA08B9FDF737FD18
S31508006750664D2878FBF7D7FE6878FBF7D4FEFDF779
S3150800676081F9FCF79FF80646FEF73BFC30B1204658
S31508006770FFF7DEFA10B12878FBF7FAFE3046FCF789
S3150800678097F8FCF74EF870BD10B501F092FB40B1D2
S3150800679000F0C6FD28B104F0B3F8441EA441E40F86
S315080067A000E00124FEF7EDF908B944F00404FEF709
S315080067B018FC18B15048FFF7BBFA08B944F00204B0
S315080067C001F048F808B144F0800401F053F808B124
S315080067D044F48074204610BD80B52D2240A10320C4
S315080067E0FFF753FC01F065FB20B9E8210FF24810CA
S315080067F0FCF730F9FEF756F94048FFF7A0FABDE86E
S315080068000140FFF78ABC80B5FFF7A3FC2E2234A10E
S315080068100320FFF73AFCFEF7C9F9FEF7B8F8BDE81A
S31508006820014001F031B8364800887047344908807D
S31508006830704734480088704732490880704710B559
S31508006840FEF7CFFB98B12C48FFF772FA78B14FF0F4
S31508006850FF310FF2F400FBF73CFE04464FF0FF3120
S315080068602348FBF736FE844202D2204610BD00209C
S3150800687010BD10B5002300E05B1CDBB28B4205D2CD
S3150800688010F8014B9442F7D0002010BD012010BD2E
S3150800689010B51D490870022808BF902402D000F0E0
S315080068A0C6FF9124234613220EA10320FFF7EDFB12
S315080068B02046BDE8104004F007B900F053BE00F0CA
S315080068C064BE1148007800F00F00022801D10120AB
S315080068D07047002070470C48007800F00F0070479A
S315080068E0420000004242000096070408D22F00200A
S315080068F0E8780008B02E0020F4160020EC160020D8
S31508006900E0160020E2160020E82F0020012070473C
S3150800691010B5132801DBFF2010BD0FF2640151F8F2
S31508006920201009B9002010BD0C780A2802D104F0FD
S31508006930E3F80443204610BD737461636B2D6D69DB
S315080069406E696D616C2E6300CC2E0020557C0008A4
S31508006950C42C0020AB4100085C2F00202D740008D1
S31508006960982E00209D830008B82E0020AB4400080E
S31508006970B02E0020B15601080000000000000000FB
S3150800698000000000000000000000000000000000F9
S3150800699000000000000000000000000000000000E9
S315080069A00000000000000000396401080000000033
S315080069B000000000000000000000000000000000C9
S315080069C08B5A01081464010838640108DFF8E034BA
S315080069D033F810001040C840704730B50FF2905495
S315080069E0DFF8D03434F810409C601140DFF8C0441A
S315080069F034F8105095432943D96002221A600022C0
S31508006A001A6024F8101058680028FCD130BDDFF849
S31508006A10A824DFF8A8041278DFF8A4140AB1497884
S31508006A200EE0895611F1090FB8BF302108DBC16D98
S31508006A3039B1C26D40F24A31B1FBF2F189B2C91ED1
S31508006A4001607047E0B5DFF87C0401880A2300F08E
S31508006A5064F8BDF806104FF6FF720D20FFF7BDFF6C
S31508006A6007BDF8B50546B5F5004FDFF8544419D10A
S31508006A70DFF854040188022300F04FF8BDF800003F
S31508006A80000AFF2814BF002818206070BDF800000F
S31508006A900006C00E10281CBF001D00F098F9BDF8AE
S31508006AA00000C543DFF81064707808B1002005E0DF
S31508006AB0A089ADB26840C00701D501207070DFF823
S31508006AC00C04A58105F00104016841F40041016048
S31508006AD0C5F340070FF2BC4000EB44004FF44052A8
S31508006AE04078010389B20220FFF777FF204604F0B9
S31508006AF007F84022B90100F005FA2D06A80E00F0A5
S31508006B00010038433070FFF782FF707818B1FFF73D
S31508006B1099FF002070700020F2BD7F2200A8FCF7C4
S31508006B20CDBB2DE9F04FDFF8AC43207887B00423BE
S31508006B3004900B210B38C0B2039000A8039A02F008
S31508006B40EFFC9DF800008DF80A009DF801008DF80D
S31508006B5009009DF802008DF808009DF803008DF8DD
S31508006B600500DFF874030078012804D16078451E13
S31508006B70AD41ED0F00E00125FCF7A2FA83469DF929
S31508006B8002000399D24F0BF10A0AABF10A065045E7
S31508006B90B6BF86424FF001084FF000080120884032
S31508006BA0ADF806009DF80100000604D47888BDF803
S31508006BB00610084201D04FF0010804F017F89DF8B6
S31508006BC0030000060AD4B888BDF80610084205D1A5
S31508006BD09DF900005045B8BF864202DB4FF0010917
S31508006BE001E04FF0000948EA050059EA000000F004
S31508006BF09E80DFF8E8A2BA49DAF8000000F0020041
S31508006C008DF80400B748006800F4E06005904FF47A
S31508006C10E06008600020FEF746F8FEF734FDB24E45
S31508006C20ADB1607858B1DAF80000AB4940084000C9
S31508006C30CAF8000001200870FBF7CAFD07E03068B3
S31508006C4040F400503060306820F480503060A2482C
S31508006C50007801280DD1FFF748F9DAF800009E49B7
S31508006C6040F00100CAF80000002008706420FBF715
S31508006C70AFFD2DB1607818B90498C0B203F0EFFFE4
S31508006C80607838B1306820F480503060306840F45D
S31508006C9000503060BDF80600C543B8F1000F08D0B3
S31508006CA004F0C8F88DF801008DF802B078882840FD
S31508006CB07880B9F1000F08D004F06DF98DF803005B
S31508006CC08DF800B0B8882840B8809DF900009DF975
S31508006CD00A10884202BF9DF801009DF809108842F3
S31508006CE00BD19DF902009DF90810884202BF9DF854
S31508006CF003009DF80510884206D00399042300AACC
S31508006D00C9B20B2002F01DFC059876490860FBF70E
S31508006D10ABFF9DF80400FDF7C6FFFCF798FA60780C
S31508006D2028B148F2607030606420FBF751FD9DF889
S31508006D30010003F0EBFF9DF8030004F027F907B004
S31508006D40BDE8F08F80B5FCF7AEF9BDE80140E8E68E
S31508006D50FCF7A9B970B50646A6F10B04FDF711FFB5
S31508006D600546A6F10B00102801D38A2070BD5F489E
S31508006D708168090702D40068C00701D58C2070BD58
S31508006D80544806705A4801680C290FD00FF278113A
S31508006D90584A92F90020A4B231F824105118C1615A
S31508006DA0FFF7BFFE012D08BFFDF77CFE002070BD72
S31508006DB010B50446FCF777F92046BDE81040C9E748
S31508006DC04448007870473E4890F9000070472DE91E
S31508006DD0F041044614F12B0F86B045DB464801887E
S31508006DE01423FFF79AFEBDF810004FF6FF7188428C
S31508006DF003D0400448BF012606D43F2200211020B4
S31508006E00FFF7E4FD0546002604F12B022F2A2C483D
S31508006E103A491AD213220FF2301300E0521ED2B2A8
S31508006E2013F91270BC42F9DB03EB420403276478BA
S31508006E300C60002413F81210017000208046AEB1D1
S31508006E40BDF810104FF6BF7229E0092C0CDA225C47
S31508006E500A60047014232A480188FFF75EFE01249D
S31508006E600320A0462827EAE78B201DE0C1024FF43D
S31508006E70605200F047F84FF4E062210200F042F851
S31508006E8080224FEAC81100F03DF885F020003D1831
S31508006E90ADB2402DA8BF3F253F2285F0200100F066
S31508006EA031F8FFF7B4FD002006B0BDE8F081000018
S31508006EB044290020E8100040CF2F0020641000402D
S31508006EC0981600201A640108246401081C10004062
S31508006ED06226002094160020D81600208020004044
S31508006EE080E100E000E100E0D010004060200040B2
S31508006EF0AC100040CE2F002016640108C0100040D8
S31508006F00186401080B2068E5AA21290055232900E1
S31508006F1000252800AA26270055282700002A26002B
S31508006F20AA2B2600552D2500002F2400AA30240060
S31508006F305532230000342200AA3522005537210095
S31508006F4000392000AA3A2000D500E601EC02EF033A
S31508006F50F204F405F506F707F808F909FA0AFB0B2F
S31508006F60FC0DFD0FFE11FF1300160119021C031F6D
S31508006F701000110020003000400041005000600061
S31508006F80700080009000A000B000C000D000E000B3
S31508006F90F00000000000010370B51346101802E067
S31508006FA0A4192C705B1EDBB24BB101F00F06090960
S31508006FB0451E0A2E2846B4BF30243724F0E7101899
S31508006FC070BD2DE9F24F88B0804601A8144699464F
S31508006FD001AD4FF0000B00278DF8000010E00127E7
S31508006FE0641E05A885420AD39DF800002E1A00F0F3
S31508006FF0B4F8002839D1B3445FFA8BFB01AD641CA1
S315080070009DF800002E1A207800280BD0252803D0DA
S3150800701017B905F8010BE4E7002F14BF0027641C15
S315080070202078010000F08E80B0F1250113D00B39CD
S31508007030092967D928395CD00B390ED0491E2CD0BE
S3150800704008392AD0091F0BD0C91E09D0891E24D099
S31508007050C91E4ED0C5E72520DBE759F8040BD8E74B
S3150800706059F804AB00F079F8002872D1B3445FFAF6
S315080070708BFB01AD002600E0761CF6B216F80A0076
S315080070800028F9D19DF8200032465146C04700280D
S315080070905FD1B3445FFA8BFBA3E759F8040B0021D1
S315080070A0002803D52D212970404201210023002202
S315080070B04FF0000C02E0801B0CF1010C0FF20416D5
S315080070C056F82260B042F6D243EA0C06F6B2002E13
S315080070D005D0C9B20CF130034B55491C0123521C8B
S315080070E0092AE5DBC9B230304855481CC0B24519F3
S315080070F077E759F8041B0222C9B22846FFF74CFF66
S3150800710005466EE760780127782818BF5828F8D111
S31508007110641C002714F8010C322804D159F8041B02
S31508007120042289B2E9E734287FF459AF59F804AB49
S3150800713004224FEA1A412846FFF72EFF04221FFAB7
S315080071408AF1DBE700F009F818B906EB0B00C0B2C4
S3150800715000E0002009B0BDE8F08F9DF82000F2B2EB
S3150800716001A9404709A117E010B5094BC35C0024E3
S31508007170012B07D113460A4601460648FFF721FFA9
S3150800718000B90124204610BD000000000D0A0000C9
S31508007190E03F0008C93E00080CB480B502AAFFF714
S315080071A0E3FF02BC5DF80CFB0CB438B5044604AA30
S315080071B0FFF7DAFF05462046FFF7D4FF284632BC1C
S315080071C05DF80CFB00CA9A3B00E1F505809698002D
S315080071D040420F00A086010010270000E8030000C7
S315080071E0640000000A00000000B500BF13009646C0
S315080071F09446103928BFA0E80C50FAD85FEA417CBB
S3150800720028BF0CC048BF40F8042BC90728BF20F880
S31508007210022B48BF00F8012B00BD00002DE9F84FEE
S31508007220804D95F8009004468846FBF74AFB83464E
S31508007230287918B1E9680BEB0400441A6878DFF876
S31508007240E8A100260AEBC00703E0001B7880761C3D
S315080072500837F6B24E4520DA7888B8F1000FA4B29E
S315080072600BD08442F3D22878801BC20092B23946EA
S3150800727007F10800FDF732FF12E08442E5D300204B
S3150800728078807878401E78706878401C687028780E
S31508007290401E287000F0C6FCD9E7B8F1000F04D0EC
S315080072A02878401C28707C8001E000202871287806
S315080072B008B9287111E0287908B9C5F80CB06978B9
S315080072C0E8680AEBC101ABEB00004988091AB1F17D
S315080072D0004F9CBF281DFBF7B6F83846BDE8F28F6D
S315080072E0F8B50E4604464F4910464A780978891873
S315080072F008291D4604D11F2001F06EF80020F2BDB2
S315080073000121FFF78BFF0746701C3C707870FBF76E
S31508007310D3FAB880BD712046FEF7E8FA0120F2BD1F
S315080073204048417800784018401E8041C00F704799
S3150800733070B500243C4D3B4E04E015F83000FEF7CE
S31508007340E3FA641C31787278E4B220465118884210
S31508007350F3DBBDE8704033480021017041700171CC
S31508007360704710B5304C01E000F026F82D484078FB
S3150800737030B12046FCF7B9FF0028F5D0207810BDBB
S31508007380FF2010BD10B5274A52789AB1264C2278AC
S3150800739082420FD151B96078103060701046FCF700
S315080073A0DDFF18B9607800F0F000607000F004F8AE
S315080073B0012010BD002010BD30B51A4C1A4D60785A
S315080073C0401E607083B00822294600A8FDF786FE95
S315080073D0607821780818C20092B205F1080128469B
S315080073E0FDF77CFE9DF801000F2108420DD100092A
S315080073F0411E89419DF80000C90F0022FCF763FF72
S315080074009DF80000FEF780FA37BDBDF8020001219D
S31508007410FFF704FF4188ADF80210082200A9FDF71E
S315080074205DFE37BD582F0020682F00200021002060
S31508007430F4E6000038B504460D4600952346472273
S31508007440A1A10320FEF721FEFFF73BFA68B1FFF77B
S315080074505DFA50B1002C18BF002D08D0B4F57A7F1C
S3150800746003D8112D01D3A54201D3702032BDDFF810
S3150800747030040481458100F013F8002032BD10B5B0
S3150800748004463322237891A10320FEF7FEFD1A2233
S315080074902146DFF81004FFE7FDF720FE002010BDA7
S315080074A010B5DFF8FC430020207000F002FD20B97B
S315080074B02046BDE81040FAF7BBBF208920B1DFF8A7
S315080074C0EC030078032801DB002002E0608920B97C
S315080074D00120BDE81040FDF76CBBFDF767FB30B92E
S315080074E00120FDF766FB20896189411A03E0002027
S315080074F0FDF75FFB61892046BDE81040FAF7A3BF98
S31508007500CEE7DFF8AC03DFF8AC1300780870DFF8D5
S315080075109C030078C11E032900D2704710B518BF16
S31508007520092812D0DFF880436088FFF77FF9A08822
S31508007530FFF782F9DFF8800301780F2918BF1429AD
S3150800754003D019291CBF2178017010BD80B500F041
S315080075506EF903F07FFE002002F0E9FFBDE8014066
S3150800756001F0E2B810B50446FFF7ABF908B9932065
S3150800757010BDCD4881882181CE490978A17201784C
S31508007580E1724088E081002010BD10B586B004463F
S31508007590FFF7BCF928B940F225110FF23C30FBF78A
S315080075A059FA1223122200A9012003F0E7FF9DF8D9
S315080075B00000FF2808BF932007D09DF80100C007E8
S315080075C04CBF062007202070002006B010BDF8B575
S315080075D004460D4616460FF2003700F0EDFD00F0A2
S315080075E00C00082804D040F239113846FBF732FA65
S315080075F000F04AF810F0030F04D14FF49D71384695
S31508007600FBF728FAFFF75DF9C8B100F03DF800F07E
S315080076100300012805D000F037F800F0030003281E
S3150800762006D1324629462046BDE8F84003F089B817
S31508007630324629462046BDE8F84004F0F9B8F1BDBF
S3150800764010B504462146062003F058FAD8B100F0D2
S315080076501BF800F00300022804D12046BDE81040BC
S3150800766004F08BB800F010F800F00300012805D0EC
S3150800767000F00AF800F00300032804D12046BDE80C
S31508007680104002F082BF10BD00220621204604F0F9
S31508007690D2B910B500F0A1F8400711D5204604F07C
S315080076A063FDFF280AD085490968302202FB0010CD
S315080076B090F82C0000F00400012801DA002010BD23
S315080076C0012010BD00000000424444004242000070
S315080076D02DE9F04383B000F080F8800800F0010936
S315080076E077480FF2F4180068205C000604D44FF4BB
S315080076F0BE714046FBF7AEF92046FEF73BF9074652
S3150800770001AA0121204604F096F96E4801784A1C20
S315080077100270D2B29DF8041000F056F801AA0721AB
S31508007720204604F088F9FFF7AFFF00F003000228AF
S3150800773002D100F0FAF804E0204603F0CEF802F091
S3150800774013FF9DF804100546481C8DF80400EAB29C
S3150800775000F03AF800F03BF82A0400F034F800F09C
S3150800776036F82A0200F02FF800F031F82A0E00F059
S315080077702BF80020544E554D0090002230683B5C93
S315080077803946681CFEF73EF93068385C4019471CD4
S31508007790B9F1000F08D0204604F0E6FC0146204661
S315080077A004F092FB042000E00020791B4018401CDE
S315080077B02870781B7F2804DB40F2AB114046FBF7A4
S315080077C049F9BDE8F783120E3846FEF717BA9DF851
S315080077D00410481C8DF80400704704460022062150
S315080077E004F029B980B50F2804D0142804D0192824
S315080077F004D005E0142002BD192002BD0F2002BDE9
S3150800780040F2C1110FF2D000FBF724F9FF2002BDA8
S3150800781080B5FFF756F840B1FFF778F828B1234846
S315080078200178481E8041C00F02BD002002BD0FF23C
S31508007830B800002200E00A7050F8081B0029FAD1A7
S315080078407047234890F9000000284CBF4000FF20ED
S31508007850C0B270471548007800B10120704710483B
S31508007860008928B111480078032801DA01207047F9
S31508007870002070470A48018919B1408910B10120D2
S3150800788000E00020C0B2704780B5FFF709FE114836
S31508007890007800281CBFBDE8014003F054BD01BDB7
S315080078A0382E0020502E0020C4160020E82D002077
S315080078B0DE2F0020E4160020DE1600202C150020FE
S315080078C020150020A02E00201C150020D82E0020F0
S315080078D0C12C00206C2E002072663463652D7374EB
S315080078E061636B2E63000000382E0020A174000827
S315080078F0EC2D0020AB880008AC2F0020CFC1000873
S315080079006C2E002047B300080000000000000000AD
S3150800791080B50423042200A9012003F02FFE009855
S31508007920DFF8F4120003086001BD10B5DFF8E8427D
S315080079302068000504BF042001F027FE2068411CCA
S31508007940216010BD80B5DFF8D012002008600090D5
S315080079500423042200A903F011FE01BD70B50C46EC
S3150800796015461E46014610223046FDF7B7FB347011
S31508007970280AB073F5733046BDE87040FDF758BB6A
S315080079802DE9FB4F8CB090469DF86400189D0028A1
S315080079909DF830008DF8040014BF012702279DF8D2
S315080079A03800841A9DF83000029026460D9850B982
S315080079B000F0A3F8DFF86412029A0968555CFF28FC
S315080079C01CBF405C45199DF8640000289DF83800E6
S315080079D014BF09214921EDB22A1A1A9803AB92B2AB
S315080079E0FFF7BCFF0DF10C0A9AF8010060408AF80F
S315080079F001009DF8640030B11022002103A8FDF7AC
S31508007A00B0FB8DF80C4000244FF0000915E017F87C
S31508007A100A3011F8010B434007F80A30521C7F1C44
S31508007A20D2B25A45FFB2F2DBD944102F5FFA89F970
S31508007A3003D103A8FDF7FCFA0027F6B2B1451EDA12
S31508007A40C7F1100BA6EB0900C0B25FFA8BFB5845CD
S31508007A5038BF83460D9858B9009009EB08029DF87F
S31508007A6004105B46D2B207A8FDF7CCFF07A904E0CD
S31508007A705FFA88F8404409EB00010022D0E7012CA0
S31508007A8018BF002FB04403D003A8FDF7D1FA00278A
S31508007A900D9808BB00F031F884B96049029A096864
S31508007AA0515C9DF838208E1AFF289DF8640008BF9F
S31508007AB00124B0B1F6B2A6B9022412E0012C10D105
S31508007AC000F01BF88DF804004FF0000853489DF8A5
S31508007AD0041000680E5C04E01CB99DF83800012407
S31508007AE02E1A601CC4B2032C8EDB1B98042203A931
S31508007AF0FDF7F4FA0FB0BDE8F08F9DF83000FDF7FA
S31508007B0039BF2DE9F04F85B004460F46904600254B
S31508007B10FDF730FF824601224FF0010901AB1146FD
S31508007B2000F078F88DF80040DFF8F4B03B489DF88F
S31508007B30001000680E5C394600A8FEF74EF8F71BE1
S31508007B400446FFB223E0037815F80C205A4000F8E3
S31508007B50012B491C6D1CC9B2B142EDB2F3DB3419D5
S31508007B60BF1BE4B2202CFFB207D1DBF800009DF85A
S31508007B700010085C8DF800000024102D07D109F1CB
S31508007B80010901AB1FFA89F200F043F80025A7B1F5
S31508007B90C4F12006F6B2C5F11000BE42A8BF3E46A3
S31508007BA0C0B2864228BF06469DF80000FDF738FE9B
S31508007BB0201800210DF1040CCDE78DF800A04FF038
S31508007BC0FF0A9DF80000FF28B0D105B0BDE8F08F88
S31508007BD02DE9FF4104460D461646984609E02278E7
S31508007BE0C85C504004F8010B491CC9B2B942F6DB1F
S31508007BF0ED1BEDB25DB1102DB4BF2F46102700ABBB
S31508007C00B2B200F006F8761C002100ABEDE7BDE83D
S31508007C10FF8101214046A1E6AC2E00201C1500205C
S31508007C202415002038B5DFF84C44E06888B9FAF71F
S31508007C3039FE05462078002818BF052804D10320F8
S31508007C402070201DFAF7F4FB2846BDE83240FAF703
S31508007C502FBE31BDF8B5DFF81C44DFF81C54217877
S31508007C602E78002020710FF2CC4041B9E56815B98D
S31508007C706F21FAF7EFFE0020E060A847F1BD03295F
S31508007C801CBF7621FAF7E6FEFF20FF2E287006D0E5
S31508007C90E1783046FCF7E0FA3046FDF735FE00207D
S31508007CA0607000F0CFF898B3287800F085FA00F0F5
S31508007CB00C00082812D12878DFF8C06303F0F6FF15
S31508007CC0DFF8BC733070287804F009F8387030781B
S31508007CD0FFF76EF897F90000FFF779F8287800F0B3
S31508007CE041F86078DFF89C13C0074EBF0020DFF824
S31508007CF0980300780870FAF7D5FD0546012020702C
S31508007D000121FCF731FB2846BDE8F240FAF7D0BD61
S31508007D10FAF7C8FD054600202070E06810B1201D5E
S31508007D20FAF786FB2846FAF7C3FDBDE8F14000F0EE
S31508007D3035BB80B5CF480078012802D0022804D088
S31508007D4009E0BDE80140FCF7BABBFCF71DFFBDE83A
S31508007D5002403120D2E0BDE80440E5210FF2D430DC
S31508007D60FAF778BE2DE9F04782B0054600F00BFA1F
S31508007D70C64C81462068285CA0EB09072846FDF713
S31508007D80F9FDFF280EBF4FF0000A216810F801A080
S31508007D908046BF4CFF202070284600F00DFA00F000
S31508007DA00C00082803D12846FFF792FC41E0002082
S31508007DB00090FBB2B74E4A462946701CFDF722FED4
S31508007DC0FFB2B819451CBAF1000F08D00020009080
S31508007DD05346002241462846FDF714FE5544B0781E
S31508007DE0717801EB002087B207F00700032805D158
S31508007DF0701C00F0F9F98019407820703946701C1B
S31508007E0001F08BFA0720074204D19A488178491C69
S31508007E10817003E0A0480178491C0170A81BF17025
S31508007E20401C3070A81B7F2803DB40F2351100F098
S31508007E3078F80120BDE8F6878E480178481E80410B
S31508007E40C00F704710B595480078002802BF8948CA
S31508007E50C06800280CD1FFF784FA87490870FF2804
S31508007E6003D00124FDF742FD00E00024204610BDA2
S31508007E70002010BD2DE9F04104460D46FAF712FD23
S31508007E807C4F8046F86820B14046FAF711FD00207D
S31508007E900DE000F00EF8060008BFFC604046FAF751
S31508007EA007FD1EB105B1A047012000E00220BDE88C
S31508007EB0F08110B5FAF7F6FC6E490A7822B9097905
S31508007EC04C1EA441E40F00E00024FAF7F1FC20461A
S31508007ED010BD10B5674C684900202070FF20087057
S31508007EE00020E06000F010FAA0704FF4A0510020C6
S31508007EF02071BDE810406A48FAF7A5BA10B50446DD
S31508007F005D480078FF2803D14FF4DB7100F009F8CB
S31508007F105848C470032100F8041BBDE81040FAF75E
S31508007F2087BA0FF21020FAF795BD70B50446FF2CF4
S31508007F3003D140F2D311FFF7F4FF0320FEF79EF8B2
S31508007F40584D204600F038F900F00C002870FF2044
S31508007F506870204600F030F900F00C0008280CD0B4
S31508007F6028780C2809D1204600F017F9064600F0B3
S31508007F703BF9805D687007280CD121464A48FDF711
S31508007F809BFE2046FDF7B2FC48480078BDE87040E5
S31508007F90FAF728BB70BD2DE9F84F04460D4601F0E7
S31508007FA0B5F9064606F007008DF8000006F44068A5
S31508007FB00027E01C01F0AAF98246601D01F0A6F927
S31508007FC04FF6FF79CA45834608BF012704D0FEF756
S31508007FD030FC824508BF0227CB4508BF47F0040797
S31508007FE005D0FEF720FC834508BF47F008074FF683
S31508007FF0F77006409DF8000020B101281ED003281E
S315080080001ED032E0B80730D5B6F5004F18BFB6F522
S31508008010404F2AD10027F00648BF47F08007B00630
S3150800802048BF47F48057FF220021384600F023F95D
S31508008030FF280EBF18202870002017E00827EAE757
S3150800804017F0030003D1FEF7F4FB48450DD10C27C2
S31508008050B8F5006FDFD0B8F5406F06D1082214498D
S31508008060601DFDF785F80028D5D03A20BDE8F28FC7
S3150800807000000000C82E0020F0160020DE160020A2
S31508008080E4160020E5160020E61600201C15002040
S31508008090D7160020D82E0020A02E00208D2E0020D6
S315080080A0B82E0020EA2F0020F4160020D22F002038
S315080080B0B82C002010B584B0FF220021002000F063
S315080080C0DAF80446FF2C34D000208DF80000802012
S315080080D08DF80100FEF7ADFB8DF80300FEF7A9FB4E
S315080080E0000A8DF80400FEF79EFB8DF80500FEF7E2
S315080080F09AFB000A8DF806000B22FF208DF8070070
S3150800810000A90F208DF8080000208DF809008DF8C9
S315080081100A002046FDF7E0FC204600F0B3FB28B134
S315080081200022002311462046FFF7DAF82046FDF71D
S31508008130EBFB1FBD6D61632D6D696E696D616C2EFC
S315080081406300000010B50C46FDF76AFB2018BDE871
S31508008150104001F0DBB838B50C461546FDF760FB54
S3150800816029462018BDE8344001F0D7B838B50C4682
S315080081701546FDF755FB255431BD10B50C46FDF7E0
S315080081804FFB205C10BD80B500F016F800F058F8DB
S3150800819001D1082002BD062002BD38B50446FDF708
S315080081A03FFB05462046FFF7EEFF401932BD012189
S315080081B0C8E70A460121CEE780B5FDF731FB4078CE
S315080081C002BD38B504460D46FFF7F6FF00F038F84D
S315080081D004D064210FF2E800FAF73CFC2A46204650
S315080081E0BDE838400621B6E780B501F08FF80146AC
S315080081F08A0A42EAA2030FF2D80003F00F03185CBA
S315080082004B0700D408B9FF2002BD490605D412F071
S3150800821003011CBF12F03001801CC0B202BD10B5AC
S315080082200446FFF7C9FF00F00BF802D14FF40060CF
S3150800823010BD06212046FFF785FF00F4406010BDFB
S3150800824000F00C000428704738B50446FDF7E8FA34
S3150800825005462046FFF7B0FFFFF7F2FF0CBF0620E2
S315080082600B20401932BD80B5FFF7EEFFFFE7BDE8EA
S31508008270024001F04BB8F8B504460D4616460120F3
S31508008280FDF7D9FA0746FF2F18D0A104890CFFF786
S3150800829090FF3846FFF777FF01463846FDF7C6FADE
S315080082A031463846FDF773FB42F20C00204004289D
S315080082B003D129463846FFF784FF3846F2BD000049
S315080082C07061636B65742D6865616465722E630001
S315080082D00300070D000000000700090F0D000F1529
S315080082E081B209B94BF6EF610E4A1180000C08BF3E
S315080082F04FF6CE20508070470288130448BF4A4084
S31508008300510001801046704738B5064C6221204658
S31508008310FFF7F2FF054641F20B01A01CFFF7ECFF41
S31508008320684032BDA015002010B5264C0822002151
S31508008330201DFCF716FFFFF7E7FF2070FFF7E4FFA5
S315080083406070FFF7E1FFA0701F480078E07010BD6D
S3150800835010B5FEF735FD1D4C2178884203D0084636
S31508008360FEF726FD48B9FEF72EFD94F90610884259
S3150800837005D00846FEF72BFD08B1012010BD608820
S31508008380FCF781FCA088FCF786FC114800780128D8
S3150800839018BF0020FCF761FC002010BD10B50D4C7D
S315080083A000202070FFF748FD20B92046BDE81040A0
S315080083B0FAF73EB8FEF7AAFA08B1FFF7A2F8BDE841
S315080083C01040C5E7A02E002039150020DE16002033
S315080083D0E72F0020982E0020FEF74AB8F0B583B0A4
S315080083E00D46164604460196234628880FF2940140
S315080083F00090392200F084F9DFF8380C007810B9BB
S315080084000DB1E00701D57020FEBDDFF82C1C032056
S3150800841008704FF6FF77DFF8880CDFF8401C067007
S315080084200F2008703846FEF701FA3846FEF704FAB8
S31508008430DFF8700C0470DFF8280C06700720FBF7CD
S3150800844071FF0A222946DFF82C0DFCF747FE03F0D8
S3150800845062F8DFF8B40CDFF8B41C0780DFF8180DF3
S3150800846007800F200870FFF773FF40B9FFF76AFA15
S3150800847000F0D2F90220FEF70BFA0020FEBD01201B
S31508008480FEBD0000424257420000000080B5DFF8FA
S31508008490A40B0078042803D1DFF8E00C007820B993
S315080084A0BC210FF62C30FAF7D5FA00F0DCF90020DB
S315080084B0FBF738FFFBF770FE0020FEF7E9F9BDE889
S315080084C00140FFF76BBF80B53A2296A10320FDF75E
S315080084D0DCFDFFF79DF908B9702002BDFEF728FFFD
S315080084E0012002F024F8DFF84C1B04200870012153
S315080084F0DFF88C0CFFF7BEFC002002BD2DE9FF411A
S315080085000A9C06460F4690461D4603940295CDF8EA
S315080085100480009733463B220FF2780100F0F0F80A
S31508008520FFF776F958B10B9A082A08DA0C99002948
S3150800853018BF002A03D0002D18BF002C01D17020C7
S3150800854024E0DFF8400C0680631E80F8333047804D
S315080085500023058680F8348080F83F3080F83C2078
S315080085603530FCF7BBFD4FF6FF70FEF765F90F20B7
S3150800857000F064FD50B9DFF8101C0F2008700320C6
S3150800858000F054FD294600F009F8002004B0BDE8C3
S31508008590F08100004257574257420000DFF8EC0BC3
S315080085A0F9F751BF2DE9FE4F04460D4691461F4681
S315080085B0A0460297CDF804900095234641220FF66F
S315080085C0005100F09DF8FFF723F908B9702050E034
S315080085D00F2C18BF142C03D0192C18BF8A2048D189
S315080085E000220021484602F049FEDFF8986B86F81B
S315080085F03E00FF2805D102F075FE86F83E000020F1
S3150800860000E0012086F83F0096F83E00FF2808BFE4
S31508008610B4202ED086F83240358086F83D70082280
S315080086204946301DFCF75AFD4FF6FF70FEF704F970
S3150800863000974FF6FE7342462946484603F006F869
S315080086408246BAF1FF0F01D1182012E0002200235A
S315080086501146FEF745FE83465046FDF755F9BBF130
S31508008660000F08D14046FFF7BDF88046A045DFD188
S315080086706620BDE8FE8FDFF8100B80F80080062024
S3150800868000F0D4FC6421FFF789FF96F83F00002824
S31508008690EFD0C120EDE710B504462346442200F08A
S315080086A03DF8DFF8EC0A0078844201D3B12010BD0A
S315080086B0FFF7AEF828B100F017F801F00301022918
S315080086C001D0702010BDDFF8BC1A81F83E4090F842
S315080086D02D0000F0E9FC040004BF0C2000F0A6FC05
S315080086E0204610BD70207047DFF8AC0A00683021BC
S315080086F001FB040090F82C107047DFF8A00A0090E0
S315080087000320FDF7C2BC10B504462346492200F0F3
S3150800871005F8DFF88C0A4470002010BD98A10320E4
S31508008720FDF7B3BC4200000080B5DFF878190420D5
S3150800873008704FF6FF70DFF8D01908800A22DFF8B4
S31508008740381A08800F20DFF8C4190870FF21DFF8EF
S31508008750240AFCF706FDDFF84C0A1A22FF21FCF76B
S3150800876000FD02F077FD002002BDF0B585B01223AA
S31508008770122200A9012002F001FF9DF8000018B995
S315080087809DF80100C00701D5002043E0DFF8A818CE
S31508008790DFF8CC48DFF87059DFF8DC69DFF86C7968
S315080087A003200870DFF8FC189DF801000870C00760
S315080087B09DF8021021704CBF06200720BDF8041052
S315080087C02980BDF8061031809DF803103970FBF733
S315080087D0A9FDDFF8A009BDF8081020F8021B07223A
S315080087E00DF10A01FCF77AFC02F020FE2888FEF754
S315080087F01DF83088FEF720F83878DFF8601808701A
S31508008800DFF89C18207808700220FEF741F8FFF779
S31508008810C5FD012005B0F0BD00B585B000208DF876
S3150800882000001223DFF87C0800788DF80100122278
S31508008830DFF86C0800788DF8020000A9DFF8CC088C
S3150800884000788DF80300DFF8C0080088ADF804004A
S31508008850DFF824090088ADF80600DFF81809008853
S31508008860ADF8080009E000B585B01222FF2100A87E
S31508008870FCF777FC1223122200A9002002F07EFEE4
S3150800888005B000BD80B5CE218DF800100222012169
S315080088908DF8011000A9FDF71FF9401E8041C00F91
S315080088A002BDDFF80419087070472DE9F043DFF8B8
S315080088B0F048DFF8D088DFF8A4670020207185B07B
S315080088C02078C11E022908F1300505D9C91E32D003
S315080088D0091F01293AD94FE03078FEF783FF814610
S315080088E02078032808BF042710D0042808BF0527C6
S315080088F00CD00327052809D1E87828B9E87B002891
S315080089000CBFC320002012E0401EE870484600F065
S3150800891095FB60B986F80090384600F087FBB8F8F2
S315080089203010201D05B0BDE8F043F9F78CBD05B041
S31508008930BDE8F043D1E3DFF8700800783070FFF740
S315080089402DFD05B0BDE8F043C020E1E304BF287C57
S31508008950FCF7DAFF002000F069FB00F039F9C320C4
S3150800896003F00CFEFF2004900390C32300F038F9AF
S315080089700FF65411FFF7C1FE05B0BDE8F0830000FD
S31508008980424200002DE9F04A9FB08346FEF767FF92
S31508008990002860D1FEF755FFDFF804486178884261
S315080089A059D30A22002108A8FCF7DBFB1A2200216A
S315080089B010A8FCF7D6FB0DF115020521584603F061
S315080089C03AF85846FCF72CFF9DF8151009180822A6
S315080089D006A8FCF783FB0DF115020C21584603F097
S315080089E02AF89DF81510481C8DF815005846FDF70D
S315080089F000F905460DF1150208A9584600F0FFFBD7
S31508008A000DF1150210A9584600F016FC9DF8151030
S31508008A105846FDF7EEF827780A2F18BF0B2F06469B
S31508008A2040F0A8809DF84000DFF87837C0F30212BE
S31508008A300DF15301304600F0BBFB00280BD00A2F7E
S31508008A40DFF8409708D15846FCF750FF89F840B040
S31508008A500B2000F0EBFAB4E00A2200210DA8FCF77F
S31508008A6080FB1A22002117A8FCF77BFB00F0ACF864
S31508008A70052102F0E0FF99F84000FCF7D1FE9DF8C9
S31508008A801410091808220BA8FCF728FB00F09CF81C
S31508008A900C2102F0D0FF9DF81410481C8DF8140024
S31508008AA099F84000FDF7A5F8834600F08DF80DA962
S31508008AB000F0A5FB00F088F817A900F0BDFB9DF8AB
S31508008AC0141099F84000FDF794F8074699F8400005
S31508008AD0FCF71AFF002000F0A9FA002020710822EE
S31508008AE00FF2E4740BA906A8FCF742FB98BB0A220E
S31508008AF00DA908A8FCF73CFB68BB1A2217A910A801
S31508008B00FCF736FB002804BF5D45BE4223D102F0C0
S31508008B10E9FBFF280CBFB121002106A800F0A2FA44
S31508008B20074610A80090019608AB2A4606A93846BB
S31508008B3003F024FD9DF840000390049601953B46FA
S31508008B40BDF820000290402206A800902146032086
S31508008B50FDF79BFA35E000F03BF8C42003F00EFD64
S31508008B60FF2004900390C42300F03AF82146FFF74B
S31508008B70C4FD26E0FEF765FE0190009610AB08AA34
S31508008B80294606A803F0E2FC0446FEF75AFE0490BE
S31508008B900396009506AB9DF840000FF238710290D7
S31508008BA03D22BDF8200001900320FDF76EFA44B17E
S31508008BB002F098FBFF280CBFB121002106A800F09F
S31508008BC051FA1FB0BDE8F08A99F8400005AA704727
S31508008BD0FF2001900023002000900146FF227047E5
S31508008BE04FF6FF7002904022FF20019070472DE952
S31508008BF0F0430746DFF8A8050078C01E032895B09D
S31508008C0080F0828008AA0421384602F014FFDFF8B3
S31508008C1074950446B9F800004FF6FF7188421CBFE8
S31508008C20A4B2A04270D108AA0521384602F003FF73
S31508008C303846FCF7F5FD9DF820100918082209A802
S31508008C40FCF74CFA08AA0C21384602F0F4FE9DF807
S31508008C50201000F05CF89DF82010054600F057F843
S31508008C60064608AA0BA9384600F0C9FA08AA0EA9AA
S31508008C70384600F0E1FA9DF820103846FCF7B9FFAF
S31508008C80074699F83C2099F834000EAB09F13501EE
S31508008C9000F08EFA002837D0012089F83F00FEF749
S31508008CA0D0FD01460391B12D0EA902910CBF0120FA
S31508008CB000200BA9DFF8F48401910497009609AB0C
S31508008CC098F80010A2B203F047FC08B989F83300F7
S31508008CD0FEF7B7FD0690B12D9DF838000FF200613A
S31508008CE005900CBF01230023BDF82C000490A4B204
S31508008CF009A802900797039601943E2298F8000067
S31508008D0000900320FDF7C1F915B0BDE8F083481CB3
S31508008D108DF820003846FCF76CBF2DE9F04FDFF8D8
S31508008D206454DFF87C6480468FB095F83E00019065
S31508008D3095F83D008DF802003078062840F0C4808A
S31508008D4000AA0421404602F076FE834600AA0521C1
S31508008D50404602F070FE4046FCF762FD9DF80010A2
S31508008D600918082202A8FCF7B9F900AA0C214046FE
S31508008D7002F061FE9DF80010481C8DF80000404680
S31508008D80FCF737FF04469DF800104046FCF73CFF09
S31508008D9081469DF80000801C8DF8000040469DF82D
S31508008DA00010FCF731FF82469DF80000811C481C24
S31508008DB08DF80000C9B24046FCF71BFF074600AA1B
S31508008DC004A9404600F01BFA00AA07A9404600F08D
S31508008DD033FA0A2204A905F10C00FCF77FF91A22D6
S31508008DE007A905F11600FCF779F9002C59D19DF869
S31508008DF01C00DFF8A443C0F302108DF8010000251B
S31508008E0001983571302101FB00F6206830180022E0
S31508008E10A0F81C900621404602F00DFE0006800FC1
S31508008E2002F033FF21687118082281F82D0002A983
S31508008E30206830181030FCF751F920683018A0F86F
S31508008E401EB01E30A0F802A007742068301885618D
S31508008E50BDF8101041840DF12F019DF80120243032
S31508008E60FCF73CF921689DF80100711881F82B0080
S31508008E7001202168711881F82C008A48007800F0D2
S31508008E800400012814DB780712D5092000F0CEF873
S31508008E90FFF784FA01989DF80210C0B202F0DAFFD3
S31508008EA012E0B12C0CBFB425C2250020307108E0B1
S31508008EB0216871180A2081F82C000198C0B202F0C6
S31508008EC05AFA284600F024F90FB0BDE8F08FF8B535
S31508008ED00F4602F0EBFEFEF785FC3024A94DAE4E98
S31508008EE05FB1316895F83E2004FB021191F82D1008
S31508008EF0884202D000F0D8F8C8B1306895F83E101C
S31508008F0004FB0100002180F82C1095F83E0002F0C1
S31508008F1032FA002000F08AF895F83E0003F052FB7A
S31508008F2095F83E3001B0BDE8F0404622E7E0F1BDD5
S31508008F30F8B5044600F054F80546FF2D23D0302036
S31508008F40954F00FB05F63868301890F82C0000F0AD
S31508008F500400012806DB00220621204602F06BFDEC
S31508008F60400710D5284603F02BFB2B464522FFF772
S31508008F70D5FB39687118002081F82C002846BDE811
S31508008F80F24002F0F8B9F1BD38B5044684480078D5
S31508008F90092805D040F2AD610FF23400F9F75AFD01
S31508008FA078497D4A91F83E301268002C0CBF0E2095
S31508008FB00020302505FB032282F82C001CB991F805
S31508008FC03E0002F0D8F92046BDE83240A0E0000095
S31508008FD072663463652D6E6574776F726B2E6300E7
S31508008FE03EB5044600AA042102F025FD85B24FF6D7
S31508008FF0FF70854205D100AA0221204602F01BFD1A
S31508009000054600AA0521204602F015FD2046FCF774
S3150800901007FC9DF800100918082201A8FCF75EF85D
S315080090200222A9B201A802F029F93EBD5C490870DE
S31508009030FEF766BAE82F0020C02F002038B5024692
S31508009040504890F834300188408802F0ABFA04465C
S31508009050FF2C01D1182032BD32E00000DE160020B8
S31508009060DE2F002038B504460D46FEF7EAFB034618
S315080090704E4801782A46204602F0C5FA0446FF2CD7
S3150800908001D1182032BDFFF73FF94B2190FBF1F1D2
S315080090904B2202FB1102002392B20021204612E065
S315080090A0E4160020C216002038B50146354890F867
S315080090B03E0002F0FBFA0446FF2C01D1182032BD0F
S315080090C0002200231146FEF70BF905462046FCF759
S315080090D01BFC681E8041C00F32BD10B50446002037
S315080090E0FFF7A4FF3048284900780870FFF756F9BB
S315080090F0204603F041FA2346BDE810403C2225A14C
S315080091000320FCF7C2BF0000C6160020C4160020C4
S31508009110FEB504460020FFF789FF0FF2D015ACB95B
S31508009120184E96F83F0000B1C12406F10C0796F8D0
S315080091303E1006F116033A46204603F02AFAB87A94
S315080091400290B089019096F83E000BE000230022B9
S31508009150FF21204603F01DFAFF2002904FF6FF700C
S315080091600190FF200090234642222946FFF7C8FABD
S31508009170F7BD0000442E0020C81600203A1500202E
S315080091808D840008F42D0020DE160020EC2D00202A
S3150800919030150020424200002C150020B82C002073
S315080091A0E82D0020502E0020C4160020C22C0020D6
S315080091B0F0B51C78C4F34105C4F30214002601E097
S315080091C0761CF6B2AE4218DAFF281EBFF7183F7CA7
S315080091D0B842F5D1002601E0761CF6B296420CDAC2
S315080091E0002000E0401CC0B2A042F5D2C718755C4A
S315080091F0FF7CBD42F6D10120F0BD0020F0BDF8B5D8
S3150800920004460D4616460A22FF212846FBF7A9FF03
S3150800921031782046FCF7F8FC288000273078801C37
S31508009220307000F049F879197F1C88703078401C36
S31508009230072F3070F5DBF1BD2DE9F04104460D46E8
S3150800924016461A22FF212846FBF78BFF00F034F852
S3150800925028703078401C30702878C0070AD5002757
S3150800926000F02AF879197F1C48703078401C0F2FB7
S315080092703070F5DB2878C0F34108002707E000F0D6
S315080092801BF879197F1C08743078401C3070FFB2BF
S315080092904745F4D32878C0F30218002707E000F002
S315080092A00BF879197F1CC8743078401C3070FFB2EF
S315080092B04745F4D3BDE8F08131782046FCF799BCE0
S315080092C04242573870420000424238704257424282
S315080092D00000000042387042574242420000000037
S315080092E0424242573870425742424200424242572F
S315080092F04200000003480188034808237F22F9F743
S31508009300DDBF00BF2E640108B82C00204178007824
S31508009310FFE700EB012080B270470170090A41702F
S31508009320704710B50023002814BF1C46C3F1030478
S31508009330E4B25B1C6254120A042BF4DB10BD30B590
S315080093404A788B78CC78097818B120461D460C46A1
S3150800935002E0154608461A4645EA002044EA022174
S3150800936041EA004030BD000062F30F2262F31F425B
S31508009370401810F0030308D0C91A1FD3DB0748BFEB
S3150800938000F8012D28BF20F8022D130030B414462A
S315080093901546103928BF20E93C00FAD8490728BFE6
S315080093A020E90C0048BF40F8042D890028BF20F8A2
S315080093B0022D48BF00F8012D30BC7047C91818BFE8
S315080093C000F8012DCB0728BF00F8012D70470000D3
S315080093D070B52C482C4942780B685B0725D5032ABB
S315080093E023DA838800EB4204A3810123847803FAF5
S315080093F002F222438270254C0278002A12D00025F8
S3150800940022FA05F6F60708D5AB4045705A400270B1
S3150800941010EB4500808A206007E06D1CEDB2032D35
S31508009420EEDB02E02260032242704FF6FF7008600E
S31508009430BFF35F8F70BD134800210170002203211E
S3150800944041700021C1700521018100218170001D34
S315080094500E490A604A604FF400428A601022CA60C8
S315080094604861012088610320C86004210648016418
S315080094704FF6FF7101604FF4006005490860FDF77B
S31508009480E1BA00000417002010A8004004D00040EC
S3150800949000E100E07047000030B50FF20C11DFF86C
S315080094A0F8500A6883B001A80024026001202870D9
S315080094B0002000F03FFE30B1002000F03BFE10B166
S315080094C02C7049203EBDDFF8D400018802237F2294
S315080094D00DF1020000F024F802237F22002100A8E3
S315080094E000F01EF8204601A9BDF8022031F8101038
S315080094F0914208BF0124401C0228F4D3BDF800009D
S3150800950024B1B0F57F7F07D100203EBDB0F57F7F3F
S315080095100CBF0620042000E00720002129703EBD6C
S3150800952010B5FF2908DCDFF87040247844B1BDE89F
S315080095301040C9B200F0DFBABDE81040F9F7BEBE68
S3150800954010BD2DE9F0410546FF2D0E4617469846F3
S315080095500FF24C0012DC104C2178A1B1617811B1E0
S31508009560C221F9F777FA0120607043463246394638
S31508009570E8B200F02AFC0020607004E0BDE8F04183
S31508009580CD21F9F767BABDE8F081034909780029C2
S3150800959018BF00F01DBD7047CA2F002022640108BD
S315080095A0746F6B656E2E6300FE01FD0230B52248AE
S315080095B001680020002201249440CBB2234213D034
S315080095C00FF284001D4C30F8120006284CF23C328B
S315080095D04FF20F031DD16088984216D12188080AD8
S315080095E00B2812DA084612E0521C92B2082AE2D375
S315080095F01349088140F201720889904204D1114842
S31508009600D0E90023C1E9002330BD4FF4C060628071
S31508009610EEE740F20725A84201BF618899422188F2
S31508009620A942E5D162800846E2E705480089000AB2
S3150800963070470348008970472C000040000000204E
S31508009640AC17002090000020010402040103010564
S3150800965006000702030901090A0242EA11214840E5
S31508009660C0F30311484080EA003041010206C9B23E
S31508009670D20E41EA0221484080B2704710B5DFF8A1
S31508009680444ADFF8443A2488001B03EB40000023D1
S3150800969004E030F8134021F813405B1C9342F8DBD2
S315080096A0002010BD2DE9F04182B004460D4616464D
S315080096B00027DFF8148A01E0B81CC7B2B74217DAE8
S315080096C07819795D4078DFF8FC391B8801EB0020B2
S315080096D0ADF80000012207EBD77004EB6000C01A52
S315080096E000F06EFB0028E7D0FCF77EFE002000E0C5
S315080096F00120BDE8F681F8B504460E461546002752
S315080097000DE000F019F8BDF8000004EB4701000A67
S315080097104870761CBDF8000004F817007F1CB7EBEC
S31508009720550FEEDBE80706D500F006F8BDF8000091
S31508009730291901F8010CF1BD012200A9B0B29DE773
S31508009740DFF88029DFF880191288801A01EB4001BA
S31508009750022002F04ABFDFF87419DFF87429415C69
S31508009760825CDFF87039C05C10B102F5997292B26A
S3150800977041EAC21080B2704710B5DFF85C39DFF8ED
S315080097804C4903EB4002005D012801D1104610BD8B
S315080097901088081803EB400010BD38B50C46DFF8F2
S315080097A03C190D782A462146FFF768FF20880028CD
S315080097B01CBF4FF6FF7188420AD0012000E0401C0A
S315080097C0C0B2A84206D234F8101022889142F6D0C8
S315080097D0002032BD012032BD2DE9F24F0446DFF8E4
S315080097E000690020307070809CB0DFF8F8080088A7
S315080097F0ADF8020007A9FFF7D0FF83460120707075
S3150800980009A9DFF8E4080588DFF8E008B0F8008061
S31508009810DFF8B008BDF802A007883846FFF7BDFF95
S31508009820B8B1BBF1000F3CD0BDF81C10BDF8240040
S315080098304FF6FE72914202D1012804D10CE00129AB
S3150800984008BF90422DD00846BDF82410884228D279
S3150800985002E0BBF1000F23D000207070029750463B
S315080098600695CDF810800122DFF8701891F800806F
S315080098704044ADF8060000A9BDF80600FFF7FEFE55
S31508009880DFF86C08008805904FF6FF79BDF80000F0
S31508009890000B404518BF0F2800D10CB3002516E071
S315080098A0012470780128D9D13846CDF808A0CDF81A
S315080098B018800495D7E7059805FB00F4E01900F031
S315080098C025FCBDF80200201800F020FC6D1C45455B
S315080098D0F1DB012030704D20FCF786FD0025FCE009
S315080098E0BDF80650012201A92846FFF7C7FEBDF8B4
S315080098F00400C043C0B2ADF804006F1CDFF8F407DB
S315080099000588BDF80400A84218BF01244FF0000AD4
S3150800991020E0401CC1B2A94218D2C0B2DFF8D8175D
S31508009920BDF80E20834631F81B109142F1D1FFF79E
S3150800993012FF4FF680710840BDF80C104FF6807282
S315080099401140884204BF1C980BF800A00AF10100D8
S315080099501FFA80FABDF80400824507DA022203A935
S31508009960B8B2FFF78BFEBF1C0020D3E7002001E04A
S31508009970401C80B2A84217DA1C99415C8142F7D094
S31508009980012411E02AF81070BDF8060000EB430028
S31508009990401C00F0D2FABDF80200C0F3C710401C04
S315080099A000EBD07007EB60070498DFF82CA7BFB26E
S315080099B0874211DA012200A93846FFF75FFEBDF893
S315080099C00000484508D0030A00F07F01BDF80400EE
S315080099D07F1C834202DB012400252DE0002001E0E4
S315080099E0401C80B2A842CFDA1C9A825C9A42F7D110
S315080099F0C0B2FF28C8D0DFF8D426825C7F290CBF06
S31508009A004FF0000C8C46944509DADFF8C8E6BDF835
S31508009A1000C010F80EE0CCF3C01CF44501D00124B8
S31508009A20B2E7012AAED07F293AF8100008BF002114
S31508009A300818A7E76D1CADB2DFF8C0060088854296
S31508009A4004DA3AF815004845F4D1012477800498D9
S31508009A50BDB285420ADA012200A92846FFF70EFEA2
S31508009A60BDF800006F1C4845F1D034E7002CFCD146
S31508009A70029801220BA980B2FFF700FEBDF82C0060
S31508009A8048450DD105E0401C80B2202813DB203460
S31508009A90A4B20699029A891A8C4205DB0120307015
S31508009AA000201DB0BDE8F08FA51820220BA9A8B28A
S31508009AB0FFF7E4FD00200BA931F810104945E2D064
S31508009AC0A8B2FFF73DFE203CA4B2E0E7029805994C
S31508009AD005FB010000F01AFB6D1C4545F6DB01206D
S31508009AE03070494600F043F818B100F02DF9002807
S31508009AF0D6D10120D5E72DE9F84504460F46164686
S31508009B00984631463846FFF737FEDFF8E815B0F8CD
S31508009B1000A00988DFF8B8558F420AD2DFF8AC05ED
S31508009B20385C7F2E08BF0026864202DA785D8045BB
S31508009B3003D040F2864100F0FCF9DFF89805385C5E
S31508009B4068B15146384600F029FA795D012908BFFF
S31508009B5020700AD0022914BF2060208005E0424602
S31508009B6051462046BDE8F845C5E5BDE8F1852DE92D
S31508009B70F34FDFF85005DFF864150488DFF8600551
S31508009B800978407883B000281ABFDFF8580500889E
S31508009B9020460D18DFF85C050088ADF80800ADB260
S31508009BA0C043C0B200EB013000F55060ADF80200CA
S31508009BB02B1BDFF8140500F0C6F96E1C0028B6B298
S31508009BC038D10025DFF8307514E0E8B2FFF7C3FD99
S31508009BD0ADF80400331B37F81500ADF8060002226D
S31508009BE0DFF8E40400F0ABF8002823D1B61C6D1C9E
S31508009BF0B6B2ADB2BDF808008542E6DB002501E045
S31508009C006D1CADB2BDF80800854280F293804FF016
S31508009C10000A1CE001220DF102011FFA89F0FFF784
S31508009C202DFDBB19DFF8A0041B1B09F1010900F083
S31508009C308AF9002878D17F1CFFB2B7EB1B6FE9DBE6
S31508009C40DFF8BC04285C8619B6B20AF1010ADFF807
S31508009C507C0415F800B05FFA8AFADA45D0D2514684
S31508009C60E8B2FFF789FD8046DFF86804B8F8009087
S31508009C702F5CF80140EA0520ADF80000BBF1010FA2
S31508009C80BDF800000CBF40F07F004AEA0000ADF8BE
S31508009C900000311BDFF8300400EB4100711C89B26B
S31508009CA001914FF6FF7189451EBFBDF80010BDF83A
S31508009CB01020914218D19DF80C100029C5D0012218
S31508009CC000A902F0CBFC019E70BBDFF80404A8F8DB
S31508009CD000602A5CDFF82C0450F82510B0B2FFF7B4
S31508009CE0E1FC0028ACD122E0DFF8E413695C491CEA
S31508009CF001EBD1714FEAC15B012200A902F0AEFC6B
S31508009D00019E88B9002FA8F8006095D04946E8B2A8
S31508009D1000F044F90190331BDFF8AC034FEA1B62ED
S31508009D2000F00DF800288BD0FCF75EFB002005B08C
S31508009D30BDE8F08FDFF8A80346800120F7E701A900
S31508009D4000EB430002F08ABC2DE9F041DFF89403EA
S31508009D50DFF88C530688DFF86C03048868780028D7
S31508009D6082B012BF204630462646012200A9FFF7D8
S31508009D7085FCBDF80000DFF8508301280CBF4FF6BC
S31508009D80FE70401EADF80000DFF85003077838462D
S31508009D90471E58B1BFB2B819001B012200F010F8CF
S31508009DA00028F4D0FCF720FB002007E06978481E5D
S31508009DB08041C00F6870002028700120BDE8F68138
S31508009DC000A908EB400002F049BC2DE9FE4F0D46FC
S31508009DD0174604461E464FF000094FF0010839465B
S31508009DE0FFF7CAFCC349098801908C420AD2B748D2
S31508009DF0205C7F2F08BF0027874203DAB448205C1F
S31508009E00864203D040F2A95100F093F8B44F78780F
S31508009E1020B1B548B0F800A0AA4803E0B348B0F8A6
S31508009E2000A0B0483978008849B97988081AB6492F
S31508009E3009888842B4BF43204420FCF7D5FA019824
S31508009E400188A448205CF8B1204600F0A7F8012E46
S31508009E5008BF297803D0022E0CBF298829688142B9
S31508009E6065D001980088401E00F067F8A448265C73
S31508009E707888AAF10101891B814201DB002835D1C6
S31508009E80387858BB452044E00291CB4620E002983A
S31508009E900BEBDB7300EB630000F03BF90BEB050003
S31508009EA01BF80510407801EB0020711E8B4580B227
S31508009EB005D1BDF80010C9B2C0B2ADF80010BDF8A2
S31508009EC0001088420BF1020018BFC8465FFA80FBF3
S31508009ED0B345DCDBB8F1000FC3D028E0BDF80210AB
S31508009EE00020FFF744FE10B34FF00109788878493F
S31508009EF0401C788080B2625C2946FFF7D3FBB0B17C
S31508009F00704C7B88248870485B1E1B1B00F01BF86E
S31508009F1010B1FCF769FA0AE0B9F1000F02D0FFF7B1
S31508009F2013FF20B101997888088030187880BDE839
S31508009F30F78F0FF2E810F8F78DBD01220DF1020137
S31508009F4080B2FFF79BBB01220DF1020100EB430033
S31508009F5002F084BB70B582B004460025192601229A
S31508009F6000A9A0B2FFF78AFBBDF80000641C48B13F
S31508009F704FF47F41401A02D0FF3806D007E0681C2C
S31508009F8040B276BDAD1C761EE9D168B276BDBDF885
S31508009F900000C0B200B96D1CE843F1E738B50C46BD
S31508009FA0002100914A49455C2A46214600A8FFF748
S31508009FB0A2FB681C00EBD07004EB600080B2FFF7D0
S31508009FC0C9FF002848BFC043009940B2401832BDB7
S31508009FD0F0B54849098804463F4883B0254630F815
S31508009FE015608C4202D23B48285C18B940F2A96138
S31508009FF0FFF79FFF36482D5C681C00EBD07006EB18
S3150800A0006007B8B2FFF7A6FF322814D2C107BFB25D
S3150800A01007EB60002B4F2C4B3F884CBF00214FF4B9
S3150800A0207F41ADF80410C01B012201A903EB4000D3
S3150800A03002F014FB60B131462046FFF7AFFF0090EF
S3150800A0402B46401C00907F2200A92046FFF7BDFE44
S3150800A050F7BDF8B5224C20780027002830D11948DA
S3150800A0600588607800281ABF1E4806882E461B48B1
S3150800A07007783846471E02281BDBFFB2B81900F0DE
S3150800A08048F8BDF800000028F3D01948008807FBF7
S3150800A090006000F03BF80020ADF80000BB190A4844
S3150800A0A05B1B012200A9FFF74BFE48B1FCF79CF9A0
S3150800A0B006E03046FFF744FBFFB20FB901202070D7
S3150800A0C03846F2BDC05F010800E001085860010883
S3150800A0D03C60010820600108C0280020BC5F010818
S3150800A0E0B42F0020C45F0108C25F0108C65F0108DB
S3150800A0F0BE5F0108CA5F0108EC5F0108CC5F010872
S3150800A100D05F010824620108C85F010880B2FFF722
S3150800A11017BB012200A980B2FFF7B0BA73696D2D8B
S3150800A120656570726F6D2D696E7465726E616C2EE1
S3150800A130630000002DE9F94788B01922FF2101A81C
S3150800A140FBF70FF8DFF8D4907622FF214846FBF795
S3150800A15008F832254FF0190A32210FF2E400FBF70E
S3150800A1605AFF0FF2CC0800272D48385C411C01EB3A
S3150800A170D1714C102B497E5CFF2803D170214046D3
S3150800A180F8F768FC7F2E03DB71214046F8F762FC7E
S3150800A1902548385C00B11934601C00FB06F42348D6
S3150800A1A030F817100FF2B4003346A2B2FBF733FFAC
S3150800A1B06519012E1CBF29F817A0B2447F1C192F58
S3150800A1C0D2DB40F21C44A54234BF13A30FF2EC03C2
S3150800A1D0192000902246A9B20FF2A800FBF71BFF30
S3150800A1E040F21D4085420ED3F9F7BCF8F8F75AFB42
S3150800A1F023462A460FF2D0010020F9F7BDFE9D211D
S3150800A2004046F8F727FC9DF8200001A9FFF7E4FA75
S3150800A2100AB0BDE8F08700006F6B0000C028002078
S3150800A2203C6001085860010820600108EC5F0108DD
S3150800A23073696D2D656570726F6D2E630000000081
S3150800A240546F6B656E206F766572686561643A2037
S3150800A250256420776F7264730A0000004372656193
S3150800A260746F723A2030782532582C20576F7264F2
S3150800A270733A2025642C20436F756E743A20256442
S3150800A2800A00000053696D454520646174613A20EF
S3150800A290256420776F726473206F66202564206DAD
S3150800A2A0617820282570292C20746F6B656E436FA2
S3150800A2B0756E743A2025640A00000000544F4F203A
S3150800A2C04C415247450000000D0A4552524F523A3A
S3150800A2D02053696D4545206461746120746F6F2051
S3150800A2E06C617267652E2020436F6D70696C696EAC
S3150800A2F067207769746820256420776F72647320F5
S3150800A300636F6E73756D65642E20204D61782061CC
S3150800A3106C6C6F7765642069732025642E0D0A00BE
S3150800A32080B5022100A8F8F790FE0098FDF7D8FF3F
S3150800A33001BD00002DE9F24F84B0814693469A4646
S3150800A3400026DFF8A44600E0761CDFF8A0060078B1
S3150800A350F6B2864206D2206800EB0610007AFF287D
S3150800A360F2D100E0FF269DF81000DDF838800FF2E4
S3150800A37098610090CDF80C80CDF808A0CDF804B00F
S3150800A3804B4636220320FBF780FE5FEACA7006D4E6
S3150800A390DFF85C060078814528BFB1202DD2FDF78D
S3150800A3A037FA48B3302000FB09F000905FEACA701C
S3150800A3B0DFF8407605D400F083F800F003000228A1
S3150800A3C01AD10AF0010101290AF0080008DB0AF08F
S3150800A3D004010129BEBF0AF00201012901280BDA8E
S3150800A3E0012805DB00F06CF800F00400012803DB07
S3150800A3F00AF02000012801DB70205EE0FF2E5BD00A
S3150800A4000F9D5146484600F061F8A84238BF7420AF
S3150800A41053D35FEACA7011D4386800990818808B3C
S3150800A420FCF704FA386800990818C08BFCF704FA98
S3150800A43038680099081890F82D7002E0DFF8B8051A
S3150800A440077810989DF8103001900295CDF800B065
S3150800A45052464946384601F04FFA8346BBF1FF0F8C
S3150800A46008BF182029D0002200231146FCF738FF20
S3150800A470F8B120683501281880F808B0206828182F
S3150800A48080F809A02068281887722068281880F89C
S3150800A4900B900120216869180873F8F712FA2168E9
S3150800A4A06850681880F80D8000202168691848608F
S3150800A4B003E05846FBF728FA662005B0BDE8F08F9A
S3150800A4C038680099081890F82C00704730B50D4682
S3150800A4D06E24E9078DB024D400A900F093FEF0B9E4
S3150800A4E09DF82E20BDF81E10D207084603D505F0A4
S3150800A4F00202012A00DB682488421CBFA41EE4B2BB
S3150800A50005F040000128A4BFA41EE4B205F0080027
S3150800A5100128A4BF241FE4B220460DB030BD002098
S3150800A520FBE7FCF786F968244FF6FF71E4E7F8B510
S3150800A53004460025DFF8B064DFF8B07410E0002C9C
S3150800A5401FBF306800EB0510007AFF2818BFFBF71D
S3150800A550DBF9316801EB0511FF206D1C0872EDB2BD
S3150800A56038788542EBDBF1BD38B5DFF87C54040159
S3150800A57028682018406820B9FDF7D7F929686118B6
S3150800A580486028682018406832BD2DE9F047A0B019
S3150800A590804600AA002101F04EFA044600AA0421CA
S3150800A5A000F0C2F8064604F44040B0F5404F4FF6B6
S3150800A5B0FF7A00AA14D100F0B6F84046FBF730F946
S3150800A5C09DF800100918082201A8FAF787FDB6B207
S3150800A5D0564507BF002200210222314601A807E09E
S3150800A5E000F0A1F8ADF802000322B1B20DF10200A5
S3150800A5F000F044FE044600F09FF8054600F09CF87B
S3150800A600814600F061F90006870F002600F05CF924
S3150800A610400748BF08260FB146F0200600F087F825
S3150800A6204FF44061084218BF46F0020609D10022DD
S3150800A6300321404601F0FFF980B2504508BF46F0B5
S3150800A640010600F074F8800648BF46F0040600F0DC
S3150800A6503BF900F03EF908BF46F04006A246BAF1BB
S3150800A660FF0F5DD0E9B2204600F051FE002857D012
S3150800A67000F02AF9400705D52146404601F0B5FC09
S3150800A68000284DD0DB480068302101FB0A008069AC
S3150800A690484545D2D948007800F0080001280BDB68
S3150800A6A057B1384601F0F1FAFEF7FBF8FEF7B4F8B1
S3150800A6B00221D348F7F7C7FE03A9404601F086FAF8
S3150800A6C0054600F001F900F004F903D100F0F7F8A7
S3150800A6D0814601E04FF0000900F0ECF8014603A8B6
S3150800A6E00190009533461FFA89F2C9B2204601F057
S3150800A6F061FF00F0E9F800F0ECF803D100F0DFF8AC
S3150800A70084B200E0002400F0D5F8C0B200900296AA
S3150800A7100194534638220FF2F8210320FBF7B5FCC3
S3150800A72020B0BDE8F0870521404601F084B9002233
S3150800A7300021404601F07FB900220721404601F07A
S3150800A7407AB92DE9F04FA1B00F46804605A901F068
S3150800A7503DFA0446404600F0C0F80546FF2D05D1EF
S3150800A76040F275110FF2B020F8F774F99E4E306872
S3150800A7704FEA0519484490F809A0F8F7A2F8316895
S3150800A780DFF870B259F80120801AA0F57A709D4A50
S3150800A79090428041C00F5FEACA6225D45FEACA7256
S3150800A7A0494417D40AF00402012A13DB27B1D8B9A1
S3150800A7B000F075F8B8B16FE0DBF80000CA7A897A5C
S3150800A7C0302303FB020090F82D2091420CD000F0B4
S3150800A7D06AF809E0087B032808BF002704D000F0C0
S3150800A7E05EF8002858D1662730684844417A01F057
S3150800A7F02001012909DBDBF80010C07A302202FBB0
S3150800A80000107D49097800F04EF800F05DF800F078
S3150800A81060F803D100F053F8054600E0002500F083
S3150800A82049F8316805AA49440392029403464A7BCB
S3150800A8300192002FAAB200920CBF002066204A7A25
S3150800A840C97ADBB201F0A7FE00F03EF800F041F845
S3150800A85003D100F034F884B200E0002400F02AF8AE
S3150800A86031684944C0B24A7B049203940290002F8F
S3150800A870487A01900CBF00236623C87A0FF2A81104
S3150800A880009037220320FBF700FC4046FBF73CF814
S3150800A89031684944FF20087221B0BDE8F08F22468E
S3150800A8A005A928463FE080F82D1030684844C07A4C
S3150800A8B000F061BD00220821404601F0BCB8002224
S3150800A8C00921404601F0B7B800220621404601F0AA
S3150800A8D0B2B800F0030003287047002100E0491CC5
S3150800A8E0424A1278C9B2914208D23F4A126802EB2C
S3150800A8F00112127A8242F2D108467047FF20704749
S3150800A900002000E0401C39490978C0B2884208D2C4
S3150800A9103549096801EB0011097AFF29F2D00020B0
S3150800A9207047012070472DE9FE4F2F4F4FEA001B55
S3150800A930386858440C4690F80880807A9246FCF7A6
S3150800A94051FF814638685844417AC90711D4294EBF
S3150800A950C07A3168302505FB0010808BFBF766FF4F
S3150800A960396830685944C97A05FB0100C08BFBF782
S3150800A97063FFFFF7A9FFFFF7ACFF03D1FFF79FFFC0
S3150800A980054600E00025FFF795FF03463868CDF831
S3150800A99008A00194A9B258440091DBB2427AC17A60
S3150800A9A0484600F0A9FF0446FF2C08D001230022E0
S3150800A9B00021FCF795FC20B92046FAF7A5FF0020F0
S3150800A9C00FE04046FAF7A0FF386858440472386822
S3150800A9D0584480F80A9038685844017B491C01732A
S3150800A9E00120BDE8FE8F0000341500203815002030
S3150800A9F0301500202C150020C4160020C216002091
S3150800AA00982E002001000080424242574242000030
S3150800AA10424242574200000072663463652D646103
S3150800AA2074612E63000000004242424242574200CF
S3150800AA3070B5FBF797F9F8F713F9012300220821F7
S3150800AA400020F9F791F9FBF7A0FA0446FEF7EDFDA9
S3150800AA50024623460FF274010020F9F78DFA17A46F
S3150800AA6021460020F9F788FA154D1648F7F75FFDD5
S3150800AA7028700120F7F7BDFDFBF77CFD0646324638
S3150800AA800FF260010020F9F777FA21460020F9F75E
S3150800AA9073FA2EB140F237110FF25400F7F7DAFFC6
S3150800AAA001F022FE01F05EFEF8F75CFCFBF743FEC0
S3150800AAB001F031FE2878F7F726FDF5E70D0A0000C4
S3150800AAC0C42F0020FC5E010801F030BE5265736594
S3150800AAD07420696E666F3A203078257820282570AC
S3150800AAE029000000496E69743A20307825780000FC
S3150800AAF06D61696E2E630000002070470120704763
S3150800AB00F0B5044689B00020F7F7FAFD2648018813
S3150800AB100A237F2200A8F8F7D1FBBDF802004FF6FA
S3150800AB20FF75A84204D1DC210FF29400F7F792FFD3
S3150800AB300FF2A407002601E02A4616B94FF47C4214
S3150800AB4003E0022E08BF4EF23F0200A800F032F8DA
S3150800AB50761C052EF0D3012C03D114237F2213482B
S3150800AB6002E014237F221248018803A8F8F7A6FBFF
S3150800AB7000260FF26C072A4608E02A46012E08BF6F
S3150800AB804FF6C07202D0082E08BF002203A800F0B4
S3150800AB9011F8761C0A2EF0D3012C04BF0120F7F712
S3150800ABA0AFFD09B0F0BD00001A6401081864010879
S3150800ABB01664010830F81610F05DFBF70EBF0000AA
S3150800ABC0616E616C6F6775652D63656C6C2D626966
S3150800ABD061732E630000000000100C0D0E000000CB
S3150800ABE0010203040708090A0B0F000010B50D48F7
S3150800ABF0018884B00A237F2200A8F8F75FFBBDF816
S3150800AC0000004FF6FF74A04204D14E210FF218003F
S3150800AC10F7F720FFBDF8001022460020FBF7DDFEFF
S3150800AC201FBD00001A640108616E616C6F67756567
S3150800AC302D66696C7465722E630000002A490A68DD
S3150800AC40920992010A600A68104308604FF40041AD
S3150800AC5026480160002101606420F7F7B9BD2DE997
S3150800AC60F047234D204FD5F80090224C804628689F
S3150800AC7040F400402860386820F480503860207816
S3150800AC8068B162781C48A17800EB820200EB880064
S3150800AC9012F82A2C10F82A0C891A461802E0012004
S3150800ACA020262070B0B2FFF7C9FF0FF2500A02E063
S3150800ACB0B0B2FFF7C3FF386B042805D0386B4007DE
S3150800ACC054BF761E761CF3E7F86A38B184F801801B
S3150800ACD0A6701FFA89F02860BDE8F08740F22111B6
S3150800ACE05046F7F7B7FEE6E7D010004018100040C8
S3150800ACF01C100040E02F0020086F0008616E616C90
S3150800AD006F6775652D76636F2E63000081014FF4BA
S3150800AD10FE5289B20C20FBF760BE2DE9F84F8F4C26
S3150800AD20A56820680127ADB200264FF00A08B94683
S3150800AD301FFA80FAF8F78BFAB0202063DFF820B202
S3150800AD4008E016F1190FB8BF4FF00A08464436B2A4
S3150800AD507019A060DBF80000000702D559EA070061
S3150800AD6028D00120F7F734FDB9F1000F11D0AAF168
S3150800AD700300874202DAF81C87B213E00AF500409E
S3150800AD802060574606210920F8F70AFA4FF000090D
S3150800AD900BE0DBF80000000707D5042FA6BFF81E56
S3150800ADA087B2002707F5004020601A2EC9DB6FF02E
S3150800ADB00908CBE7A560C4F800A00820CBF8000076
S3150800ADC06848006880B2BDE8F28F80B5624B664974
S3150800ADD01B784FF0FF326BB1002819BF4A606348F1
S3150800ADE0486041F211100860614841880088BDE852
S3150800ADF0044092E7002819BF4A600A604860086064
S3150800AE00F8F725FABDE8044006210920F8F719BA2B
S3150800AE1038B50120FFF7D9FF04460020FFF7D5FF14
S3150800AE2005460120FFF7D1FF4042001B00EB450015
S3150800AE3000B232BD2DE9FE4F4E4CDFF83C81A06AC8
S3150800AE40454EADF802002568D8F800B0307860B1F4
S3150800AE504FF6FF7200210820FBF7B8FDADF8000099
S3150800AE60C022C0210820FBF7B8FD4448DFF810913E
S3150800AE70007818B148F26070C9F80000708840F48C
S3150800AE80404040F04C00C9F83C000220A062012076
S3150800AE90206040F24C40F7F79BFC0120C8F80C00F4
S3150800AEA0C8F800000020324F38804020788030787B
S3150800AEB000B12020FFF72AFFFFF7AAFF82464020AD
S3150800AEC038807F207880FFF721FFFFF7A1FF0290E7
S3150800AED05046FAF7EEF8FE2101FB00F70298AAEBB6
S3150800AEE000000190307860B10298FAF7E2F88246DD
S3150800AEF00198FAF7DEF880B207EB8A11B1FBF0F099
S3150800AF0005E00198FAF7D5F880B2B7FBF0F080B201
S3150800AF10401CC7031FFA8BF0C8F80000ADB200202A
S3150800AF20C8F80C00022020602560BDF80200A06267
S3150800AF300020C9F83C00307830B1BDF800104FF653
S3150800AF40FF720820FBF749FD40F24C40F7F740FC3A
S3150800AF50380CBDE8FE8F0000CC160020C01000405B
S3150800AF6018A000400070004038100040EEEEFFFFC9
S3150800AF70B82F0020602000402810004095160020B9
S3150800AF80D010004041003F2289B201E001463F222D
S3150800AF900220FBF722BD2DE9F04F564C564D95B0D1
S3150800AFA0E06CADF810004FF6FF782068ADF80E009B
S3150800AFB04246E86AADF80C0000210120FBF706FDC1
S3150800AFC0ADF80A00424600210B20FBF7FFFCADF85E
S3150800AFD008004FF40040206000202861686148F2AC
S3150800AFE0020000F08BF84CF68C30E0644FF4805287
S3150800AFF048F2F000E86211460120FBF7EEFC4246F3
S3150800B00000210B20FBF7E9FC06210620F8F719F9C1
S3150800B010019000F085F800904CF69C30E064002022
S3150800B020FFF7B0FF06210846F8F7BAF800260DF133
S3150800B030140BB0B2FFF7A6FF06210620F8F7B0F802
S3150800B040F8F7C9F82BF81600761C202EF1DBF8F76E
S3150800B050C2F81020FFF796FF00F062F80099019AEF
S3150800B060401ABBF82010891A404301FB01094FF02A
S3150800B070100A112700F04EF800F052F800F043F8D5
S3150800B08006DB81461FFA87FA781C07B2202FF1DB08
S3150800B090BAF1100F0ED10F2700F03CF800F040F877
S3150800B0A000F031F806DB81461FFA87FA781E07B2E8
S3150800B0B0002FF1D5BDF81000E0644246BDF80E0039
S3150800B0C02060BDF80C00E8620120BDF80A10FBF705
S3150800B0D084FCBDF8081042460B20FBF77EFC0120D5
S3150800B0E02861002000F00AF84FEA4A00C0B215B0FD
S3150800B0F0BDE8F08FC010004018100040286040F2EC
S3150800B1004C40F7F765BB0099401A404306FB06001A
S3150800B110484570473BF817000199461AB8B231E717
S3150800B12006210720F8F78DB880B5FBF7CAFB58B19A
S3150800B130FBF7ECFB40B1DFF808040078002818BFDD
S3150800B140022801D1012002BD002002BD2DE9F041EF
S3150800B1508CB004460D46FFF7E7FF00283BD0DFF822
S3150800B160E4030078844228BFB12048D22346302021
S3150800B17000FB03F8DFF8D07355B93222AAA10320E1
S3150800B180FAF783FF39684144002081F82C0032E041
S3150800B19005F118063022F07D0FF2B4310B90B07D20
S3150800B1A00A90707D0990307D0890F07C0790708930
S3150800B1B0069030890590F0880490B0880390A869B5
S3150800B1C00290009505F1100001900320FAF75DFF43
S3150800B1D0F07C082801DB702011E038683022294607
S3150800B1E04044F9F77BFF3868404490F82C1001F08A
S3150800B1F0EF0180F82C10204600F0BDF800200CB0B6
S3150800B200BDE8F08138B505460C462B46312286A1A5
S3150800B2100320FAF73AFFFFF787FF002818BF002C2C
S3150800B22001D1702032BDC7480078854201D3B120CC
S3150800B23032BDC5480068302101FB05013022204691
S3150800B240F9F74CFF94F82C0000F00F0084F82C0056
S3150800B250002032BD10B50020BB49BA4A07E00B688A
S3150800B260302404FB0033002483F82C40401C137858
S3150800B270C0B29842F3D3BDE8104064E02DE9F04728
S3150800B2800446884616460027AF4DDFF8B89205E013
S3150800B2902188008C814219D07F1CFFB299F80000E2
S3150800B2A087421CDA302000FB07FA2868504490F8D9
S3150800B2B02C1001F003010229EED1F107E8D4082287
S3150800B2C021461030F9F754FF0028E5D12868504484
S3150800B2D0C08B804501D0B007DED4384600E0FF2099
S3150800B2E0BDE8F087002000E0401C96490978C0B206
S3150800B2F088420AD294490968302202FB00110322C7
S3150800B30091F82C101142EFD17047FF20704730B5E5
S3150800B310302250438C4A1368C31893F82C4004F023
S3150800B3201005012D05DB93F82F508D4201D1002021
S3150800B33030BD44F0100483F82C401268801880F859
S3150800B3402F10012030BD00207E490CE07E4A12688D
S3150800B350302303FB0022401C92F82C3003F0EF0345
S3150800B36082F82C30C0B20A789042EFDB4FF42051B5
S3150800B3707648F7F768B8F0B504463020724E00FBF9
S3150800B38004F5306828188BB090F82B00082804DBE1
S3150800B390BB210FF2D010F7F75DFB2A22FF2100A888
S3150800B3A0F9F7DFFE3068281800F11C010A7C02F064
S3150800B3B00302022A2FD1828BADF8182006AF497CEA
S3150800B3C0F973082200F1100104A8F9F787FE30681E
S3150800B3D02918C88B788001F11E004288BA80827BC2
S3150800B3E0037C02F00802012AACBF802200221A431D
S3150800B3F03A74807B00F00400012803DB102200A8C1
S3150800B400F9F76CFE3068281800F1240190F82B2013
S3150800B41008A8F9F763FE2A2300AA21461320FEF797
S3150800B42090F80BB0F0BD0000424200002DE9F04351
S3150800B4308BB0002406AD444EDFF808913CE0316835
S3150800B440414447F0060081F82C001022306800A914
S3150800B4504044F9F743FE3068BDF818104044082206
S3150800B4608183E97B80F82D1004A9306840441030A8
S3150800B470F9F734FE306869884044C1831E30A988CC
S3150800B4804180297C0174002031684144886100A903
S3150800B490411891F82010FF2908D0326842448218D2
S3150800B4A0401CC0B2072882F82410F0DB31684144FA
S3150800B4B081F82B00641CE4B299F80000844227DA6C
S3150800B4C02A232246132100A8FEF72AF8302000FB7B
S3150800B4D004F8E87BFF2805D131684144002081F84B
S3150800B4E02C00E7E7287C010600F00F0028744CBF03
S3150800B4F008270027FF22102100A8FBF7BAF9002821
S3150800B5009DD03168414447F0020081F82C00A2E73B
S3150800B5100BB0BDE8F08370B500240B4D094E0AE068
S3150800B5202868302101FB0400002180F82C102046F1
S3150800B530FFF721FF641C3078E4B28442F0D370BD73
S3150800B540E82D0020301500202C1500206C2E002038
S3150800B5504242313670387044575757574242424232
S3150800B5604200000072663463652D70616972696E07
S3150800B570672D7461626C652E6300000038B50D4650
S3150800B580144638B12146284601B0BDE830400022AD
S3150800B590FDF7C6BF2A46204601B0BDE83040002167
S3150800B5A0FDF7CFBFF0B591B0044601208DF818001D
S3150800B5B00D469A489A4900788DF8190016460DF1F5
S3150800B5C01A0005901F4605A800F04BF900F03BF855
S3150800B5D00598401C059006A900F8017D01960023F0
S3150800B5E000F00CF82A4606A8039000200290009066
S3150800B5F00146204600F0FBF911B0F0BD0598401A47
S3150800B600C0B20490704770B590B004460D4602204B
S3150800B6108DF818001E468149097806A8427081707F
S3150800B6200DF11B0000F03EF800F00DF80598401CDF
S3150800B630059006A900F8016D01950123FFF7DEFFC5
S3150800B6404FF6FF7224E0774905A821E170B590B05E
S3150800B6500D46190A04468DF81A1003208DF81800AD
S3150800B66016466E49097806A84370C17007A800F007
S3150800B67019F8FFF7E8FF05991498491C0591012365
S3150800B68001F8010D06A905980196FFF7B8FF2A46A5
S3150800B69006A80390214600200290009000F0A7F922
S3150800B6A010B070BD059005A85D49DAE070B50C4686
S3150800B6B030215D4E01FB00F53068281886B090F8F9
S3150800B6C02C0000F00300022804D0B8210FF218203D
S3150800B6D0F7F7C0F905208DF814003068281800F12E
S3150800B6E01E018A7B097C02F00402012AACBF0123F1
S3150800B6F0002301F001010129ACBFC28B4FF6FF728E
S3150800B70001210491009305A9039101940021029156
S3150800B710012300F11001002000F069F906B070BDA0
S3150800B72070B59AB015461F9A1646512E0C46A8BFF4
S3150800B730FF2020DA002814BF072008208DF81400FF
S3150800B7408DF815300DF116001E99F9F7C7FC01950D
S3150800B75005A83018801C05A9FFF751FF012305A885
S3150800B76003904FF6FF7200200290214601200090B8
S3150800B770002000F03CF91AB070BD10B5044600224E
S3150800B780062100F058F9400704D52046BDE81040C8
S3150800B79000F02CBD21460720FFF7B0F9E8B30022D8
S3150800B7A00A21204600F047F920490978CA1E032ACB
S3150800B7B0C0B201D2022830D10A2918BF0B2901D1FB
S3150800B7C001282AD101280AD002280DD0042810D031
S3150800B7D0052813D0062816D0082819D010BD2046EB
S3150800B7E0BDE81040FDF7CEB82046BDE81040FDF78D
S3150800B7F0FEB92046BDE81040FDF78FBA2046BDE8E1
S3150800B8001040FDF795BB2046BDE8104000F030BD5E
S3150800B8102046BDE8104000F0FABD10BDC216002053
S3150800B820442E0020502E00202C150020E82D002044
S3150800B83038B50D46044600220A2100F0FCF8C0B2CD
S3150800B840052802D0072806D031BD29462046BDE87E
S3150800B8503440FDF73CBB29462046BDE8344000F09D
S3150800B860CEBD10B504462268088810702068401CB2
S3150800B8702060226831F8020B000A1070072220683F
S3150800B880401C2060F9F72AFC2068C01D206010BD06
S3150800B89070B504460D462168287808702068401C53
S3150800B8A020602878C00707D520680F22691CF9F799
S3150800B8B015FC20680F30206005F110012878C0F3C8
S3150800B8C0410620683246F9F709FC206830182060DE
S3150800B8D02978C1F30216324605F11301F9F7FEFB82
S3150800B8E020683018206070BD72663463652D636FFA
S3150800B8F06D6D616E642E63002DE9F0410446DFF834
S3150800B900C80400681646302202FB0102F1078AB015
S3150800B910984602F11E0004D4817B01F00301022936
S3150800B92023D106F00107012F13DA017C01F0010586
S3150800B930012D06F0020311DB012B0FDA4FF0000E82
S3150800B9404FF0000C06F004010129ACBF01250025C3
S3150800B9500DE04FF0000E4FF0010CF3E7C90702D4D3
S3150800B9604FF0010EECE7012BFADAFF203CE0012F3D
S3150800B9704FF6FF7102DA037CDB0701D40B4600E0C1
S3150800B980D38BBEF1000F14BF10320022012FB8BFAF
S3150800B9904188CDF804C0009502A800F0B9F902A9BB
S3150800B9A0401806F040010129ACBF0322012206F027
S3150800B9B0080342F02802012BA8BF42F0040200F84F
S3150800B9C0012B061D012906F8018B05DB109806F8E0
S3150800B9D0010B000A06F8010B02A8129B119A0094A3
S3150800B9E0311AC9B200F0FAF90AB0BDE8F08110B50B
S3150800B9F08AB001240093019413460A46014602A818
S3150800BA0000F086F902A941180E98800140F02A0232
S3150800BA100C9808B142F0040201F8012B0D98109B0E
S3150800BA200F9A0090081D02A9411AC9B202A800F08F
S3150800BA30D5F90AB010BDF8B5002A05460F460CBF61
S3150800BA4000AC1446FCF7B8FB00F00C00082803D03D
S3150800BA504FF4827100F015F9DFF870030068285C6E
S3150800BA60000605D52846F9F785FF0546002000E0BB
S3150800BA700620207028462178FAF7C6F8410600F411
S3150800BA8040623E4606D44FF44041084202D00123A4
S3150800BA903FB9F2BD0023042EFAD12078C01C2070CD
S3150800BAA00AE02178891C2170012E08BFC9B271D01D
S3150800BAB0491C022E217001D1002A5AE00AB1891CBC
S3150800BAC02170032E04D100F44060B0F5006F19E030
S3150800BAD000F44061B1F5006F02D12178891C04E0B9
S3150800BAE0B1F5406F02D1217808312170042E41D07A
S3150800BAF013B12178891C2170052E05D100F4404028
S3150800BB00B0F5004F5FD135E000F44041B1F5004F84
S3150800BB1002D12078801C06E000F44040B0F5404F82
S3150800BB2002D120780830207021782846FAF761F883
S3150800BB3000F00302012A08BF012305D0032A02D117
S3150800BB400123012701E000230027062E3DD0207897
S3150800BB50411C072E21702FD0091D082E217002D1F5
S3150800BB607BB3C9B216E00BB1481C2070092E06D16A
S3150800BB70002F26D021782846FAF746F8F2BD17B1E5
S3150800BB802078801C20700B2E1DD00A2E06D1022A82
S3150800BB9017D121782846FAF72CF8F2BD0C2E04D1D5
S3150800BBA0022A0ED12078401C0CE00D2E09D18848B7
S3150800BBB00068285C011F2170C9B22846FAF731F8D7
S3150800BBC0F2BDFF2020704FF0FF30F2BDF0B50546FC
S3150800BBD07E48006883B0285C00060C4604D52846D3
S3150800BBE0F9F7C8FE064600E02E46284600F011F88A
S3150800BBF0074601AA0B212846FFF71DFF00200090E3
S3150800BC003B469DF8042031462046F9F7FBFE3846A8
S3150800BC10FEBD38B504466D480068205C000604D5AC
S3150800BC202046F9F7A7FE054600E0254600AA0B219F
S3150800BC302046FFF700FF664800689DF80010285C5C
S3150800BC40401AC0B232BD80B50F2804D0142806D0D9
S3150800BC5019280AD00FE0080012D0012002BD09B148
S3150800BC60022002BD4FF4006002BD09B1032002BDE7
S3150800BC704FF4805002BD4FF4FD7100F002F8FF202A
S3150800BC8002BD0FF2B810F6F7E5BE80B5012804D05C
S3150800BC9009D3032805D002D305E00F2002BD1420DE
S3150800BCA002BD192002BD40F2092114E080B5FCF757
S3150800BCB07EFA10F4C05006D0B0F5006F05D0B0F586
S3150800BCC0805F04D005E00F2002BD142002BD1920B4
S3150800BCD002BD4FF40671FFF7D4FFFF2002BD10B571
S3150800BCE0044600220621FFF7A6FE00F003000228FC
S3150800BCF00AD100220A212046FFF79DFEC0B2062877
S3150800BD0002D16FF00E0010BD324890F9000010BD48
S3150800BD102DE9F0478146884616469A46FAF789FD80
S3150800BD208245099C14BF01250025002C14BF4CF23E
S3150800BD30010048F20100002E0CBF4FF400624FF4D8
S3150800BD40406202430898494608B142F020020DB9FC
S3150800BD5042F0400201F8012B100A01F8010B4F1CB2
S3150800BD604FEA1A2007F801AB07F8010B36B907F8AE
S3150800BD70018B4FEA182007F8010B05E00822314627
S3150800BD803846F9F7ABF9083745B1FAF752FD07F81F
S3150800BD90010BFAF74EFD000A07F8010B34B1082229
S3150800BDA00D493846F9F79AF9083708E0FAF73BFDDE
S3150800BDB007F8010BFAF737FD000A07F8010BA7EB9E
S3150800BDC00900C0B2BDE8F0872C1500202015002018
S3150800BDD01C150020DE2F0020B82C00202DE9F0418C
S3150800BDE00D461F460446791982B09046C9B200200E
S3150800BDF0F9F7ECFD0646FF2E1ED0012000902B46D3
S3150800BE00002231462046F9F7FDFD012000903B4609
S3150800BE102A4631464046F9F7F5FD08980021FFF70E
S3150800BE2012FF3246002140F00800FCF724FA0446C7
S3150800BE303046F9F769FD2046BDE8F6817266346337
S3150800BE40652D7061636B65742D6865616465722E16
S3150800BE506300000070B50646DFF89006DFF89056D6
S3150800BE6000680C46302101FB060090F82C0000F013
S3150800BE700300012804BFA878002802D04B2100F04F
S3150800BE80A2F9DFF870062C70067000206870502141
S3150800BE900220A8700020F9F799FDFF28E87002D162
S3150800BEA0BDE87040B0E20026E87800223146F9F78E
S3150800BEB0A5FE761C502EF7DB601C3C214143281D4D
S3150800BEC0BDE87040F6F7BFBA2DE9F04F8BB0804653
S3150800BED08A46F9F74FFDDFF82056DFF8106629681D
S3150800BEE0405C06900022302000FB0AF9306809EB16
S3150800BEF0000B07214046FFF79EFD0746DFF8FC05C5
S3150800BF000FF234640078824503D3A0212046F6F761
S3150800BF10A1FD5846F9F776F83A46DFF8E41507A87A
S3150800BF2000F0F8FA04AA0B214046FFF784FD9DF8B5
S3150800BF3010000D2803DAB4212046F6F78BFD9DF88C
S3150800BF401000DFF8C0B50D385FFA80FA0AEB0B046B
S3150800BF50002206214046FFF76EFD6070A770380A7A
S3150800BF60E0700822380C2071380E60713068484439
S3150800BF7000F11001A01DF9F7B1F84046F9F7FAFCEF
S3150800BF8005A9039107A90291002101915246296842
S3150800BF90405C9DF8103000900BF10101FF20FBF783
S3150800BFA0EFFC00F0DBF84046F9F7E4FC0146002018
S3150800BFB000900D235246601CF9F724FD06989DF85B
S3150800BFC01010411A9DF81000584407AB0122C9B257
S3150800BFD0401CFBF7FDFD06985844042205A9401CA1
S3150800BFE0F9F77CF80BB0BDE8F08F2DE9F0478146EC
S3150800BFF00E463020DFF8F48400FB06F7D8F8000078
S3150800C0003D1890B0002207214846FFF714FD044664
S3150800C010DFF8E8040FF2205A0078864203D3FD21A0
S3150800C0205046F6F717FD2846F8F7ECFFD8F8000053
S3150800C030381800F11001224607A800F06BFA04AA86
S3150800C0400B214846FFF7F7FC0DF111020D21484672
S3150800C050FFF7F1FC9DF810000D2804DA40F21F11D5
S3150800C0605046F6F7F7FC9DF81000A0F10D06F6B25B
S3150800C07000279DF811003918C9B24846F9F7B9FDE5
S3150800C08006A978547F1C042FF3DBDFF86C74386834
S3150800C09019F80000011FC9B24846F9F7C7FB9DF811
S3150800C0A0101007AA4846FBF72CFD0025A919C9B2A6
S3150800C0B04846F9F79EFD0BA968546D1C0D2DF5DB56
S3150800C0C0002206214846FFF7B6FCC2B2314600F008
S3150800C0D042F8711CE2B200F03DF82204B11C00F0EF
S3150800C0E038F82202F11C00F034F8311D220E00F057
S3150800C0F031F801200090721D0823D2B24946DFF8B4
S3150800C1000004F9F77FFC9DF8103005A80390324625
S3150800C11007A80290002100200190386819F800004D
S3150800C12000904846FBF72CFC00F018F80120009018
S3150800C1300D23324649460BA8F9F764FC042206A9E2
S3150800C14005A8F9F715F8401E8041C00F10B0BDE8E4
S3150800C150F087120EC9B24846F9F750BD07AB002260
S3150800C160042105A8FBF734BD10B5044600220621B4
S3150800C170FFF761FC400703D44FF4BC7100F023F8C5
S3150800C18000F071F800F0030002280FD100F066F8FD
S3150800C190C0B2072818BF082802D1D648007810BDB3
S3150800C1A005280ED1D84890F83E0010BD2046FEF767
S3150800C1B094FBFF2805D0D549096801EB0010C07A21
S3150800C1C010BDFF2010BD0FF27030F6F743BCC8480B
S3150800C1D0002101718078022804D0032818BF062898
S3150800C1E002D07047C52000E0C02067E138B5044694
S3150800C1F0C0480578FF2D03D12046FCF7F1FE054619
S3150800C200FF2D2AD000F02FF8400703D440F2B311CF
S3150800C210FFF7D9FF29462046FFF7E7FEA0B100F051
S3150800C2201DF8C5B221460720FEF768FCA8B1052D02
S3150800C23004D12046BDE83240FCF77ABE082D0CD161
S3150800C2402046BDE83240E2E0A9488078042804D0B8
S3150800C250062802D1BDE83440D6E031BD00220A21C5
S3150800C2602046FFF7E8BB002206212046FFF7E3BB7E
S3150800C2702DE9F047D6B0804602AA0521FFF7DBFB79
S3150800C2804046F9F7CDFA9DF808100918082204A8BF
S3150800C290F8F724FF02AA0C214046FFF7CCFB9DF8CD
S3150800C2A00810481C8DF808004046F9F7A2FC904D86
S3150800C2B0A978022904BF697888420ED18D4F8B4C24
S3150800C2C0397820684FF0300909FB010000F11001A8
S3150800C2D0082204A8F8F74CFF002840F08D800026B5
S3150800C2E09DF808003118C9B24046F9F782FC824623
S3150800C2F0E878F1B2F9F77DFC80EA0A02E878F1B24B
S3150800C300F9F77CFC761C502EEADB68782978884297
S3150800C31070D120683B781022002109FB0300F8F74A
S3150800C32020FF4FF00008002606EB0811E878C9B28E
S3150800C330F9F75FFC3978226809FB01F18A18B35CC2
S3150800C3405840B054761C102EEEDB08F10108B8F1FF
S3150800C350050FE8DB22688918052081F82C000221E0
S3150800C36006A8F6F772FE00200DF10C0806A903AA26
S3150800C37031F8101008F8101002EB4002090A401CA8
S3150800C38002285170F2DB002616F80820E878F1B288
S3150800C390F9F734FC761C042EF6DB2068397809FB9D
S3150800C3A00100C08BFAF748FA6421281DF6F74BF806
S3150800C3B00320A87000232068397809FB01000421AE
S3150800C3C0019103A9009100F1100190F82D20012098
S3150800C3D0FFF7A6F90446012300220021FAF780FF99
S3150800C3E005462046F9F790FA35B90021C62000F02F
S3150800C3F065F801E0401C687056B0BDE8F08719B9C9
S3150800C4003B490620887070470021C62056E0FEB5D5
S3150800C410374D0446A878062849D100AA05212046A2
S3150800C420FFF709FB2046F9F7FBF99DF800100918F4
S3150800C430082201A8F8F752FE00AA0C212046FFF7A9
S3150800C440FAFA9DF8001000F033F806462046FFF782
S3150800C450E0FB871E2548274900680978302303FB37
S3150800C460010000F11001082201A8F8F781FED0B9F1
S3150800C470FFF7F9FE400716D5002E04BFFFB2042FBA
S3150800C48011D1E8783146F9F7B4FB9DF80010074654
S3150800C49000F00EF8874206D1761CF6B2042EF0DBC1
S3150800C4A00021002001E00021C62000F007F8F7BDB2
S3150800C4B0481C8DF800002046F9F79BBB10B50446CA
S3150800C4C00B480C4A002181700171FF21C078117058
S3150800C4D0FF2818BFF9F718FA0D480088FAF7ACF9DB
S3150800C4E02046BDE81040FCF74FBD00002C15002083
S3150800C4F0A82F0020F81600201C1500203015002053
S3150800C500B82C0020D82E0020F42D00203415002049
S3150800C510C816002038B5044615460822601CF8F7E8
S3150800C520DDFD6572280AA072280CE072280E2073B9
S3150800C5300520607331BD000072663463652D73652E
S3150800C5406375726974792E63000000001CB500F0EB
S3150800C5501BF800F0ABF916BD10B586B00C9C049418
S3150800C5600B9C03940A9C0294099C0194089C0094D1
S3150800C57000F0D0F906B010BD00F021BA1CB500F0E5
S3150800C58003F800F045FA13BD059C0194049C009439
S3150800C590704700F0A8BA1FB5099C039400F003F889
S3150800C5A000F05DFB1FBD089C0294079C0194069C45
S3150800C5B0009470471CB5FFF7E7FF00F092FB13BD28
S3150800C5C000F0D6BB00F0D5BB4148018A40F6A772F9
S3150800C5D0914202BF408A4FF47F41084203D10228A4
S3150800C5E001DB01207047002070472DE9F84F82468D
S3150800C5F08846F6F757F9374D2F68044628684008E5
S3150800C60040002860F8F75EFD0120DFF8C0B08BF81F
S3150800C6100000FFF7D9FF20B9FF210FF2BC00F6F79B
S3150800C62019FA2B48D0F8289041464AF48070C84732
S3150800C63006462F60F8F746FD2046F6F739F900203A
S3150800C6408BF800000FF298040EB1305D04E0414605
S3150800C6504AF40070C847005DBDE8F28F2DE9F84F2F
S3150800C660804689464FEA420AF6F71CF9194E37689A
S3150800C67005463068400840003060F8F723FDFFF7AC
S3150800C680A3FF28B94FF4A1710FF24C00F6F7E2F9AF
S3150800C6900F48D0F824B00023524649464046D847AA
S3150800C6A004463760F8F70EFD2846F6F701F90FF24B
S3150800C6B030050CB1605D05E0534600224946404608
S3150800C6C0D847405DBDE8F28F00000000D42F002057
S3150800C6D00000040894ED00E0666C6173682E630040
S3150800C6E0000202024B4B464780B500F055FBF5F7B2
S3150800C6F052FD00F081FEF5F7BFFD01F07DFA01F06D
S3150800C70092FB01F03AFD00F02FF801F099FEBDE822
S3150800C710014001F04BBF80B5F9F756FE02F018F953
S3150800C72002F084F9BDE80140F7F74ABC10B50446A3
S3150800C73000F070FB2046BDE8104001F036BD000051
S3150800C74008220249F8F7CABC00000000B82C0020ED
S3150800C75010B504460846FAF7B0F82046BDE810407A
S3150800C760FAF7ADB8F7F7F2BDDFF814060021017045
S3150800C77041708170C170FF210171DFF80806FAF770
S3150800C7807EBE10B5DFF8004604F10C00FAF777FE16
S3150800C79038B92146BDE810406FF002020C20FBF7BD
S3150800C7A01DBE10BDFBF78FBEFDF790BEDFF8DC059A
S3150800C7B0416841B100210FF2DC528B5CFF2B1CBF94
S3150800C7C00B5C002B01D001207047491CC9B2032914
S3150800C7D0F3DB0020704738B504460025FFF7E6FF6F
S3150800C7E020B9DFF8A8058168406802E024B900216D
S3150800C7F00846FAF71FFE0546284632BD38B5040036
S3150800C8000D4618BF002D08D0B4F57A7F03D8112D30
S3150800C81001D3A54201D3702032BDFFF7C7FFDFF869
S3150800C8206C154C608D60BDE83240D4E770B504469F
S3150800C8300D46FFF7BBFFFF2CDFF8501508D16A1E1F
S3150800C8409241D20F4A6000228A60BDE87040C2E772
S3150800C85000220FF24053D65CA64205D0521CD2B233
S3150800C860032AF8DB702070BD5554EEE710B582B088
S3150800C870049C0094FBF736FF16BDFEB5DFF800757D
S3150800C8803C78702584B9099C0A9E089D02960194F5
S3150800C8900095FBF733FE050006D13C70224631466B
S3150800C8A007F10800F8F71AFC2846FEBD2DE9F04FF7
S3150800C8B01E4683B0814630780C9C0D9DC0F3021B42
S3150800C8C08A4690460020002704E000F01CF8F9F795
S3150800C8D080FD7F1CFFB25F4513D290B9B919C97C98
S3150800C8E0012904D0032907D0C029EED0F1E700F0CA
S3150800C8F00AF801F0AEFDECE700F005F801F0ABFD33
S3150800C900E7E7BDE8FE8F0195009433464246514657
S3150800C910484670472DE9F74FDFF8648498F8001009
S3150800C9200020002986B0994638D0149F3978129C81
S3150800C930DDF84CB0159D169EC1F30211059182468D
S3150800C94007E000F02EF8F9F746FD0AF101015FFA53
S3150800C95081FA05998A4521DA00BB0AEB070100230B
S3150800C960C97C00E05B1C98F80020DBB29342ECD24D
S3150800C97003EB0802127A8A42F4D1012904D003296A
S3150800C98007D0C029DDD0E0E700F00BF801F06BFD19
S3150800C990DBE700F006F801F068FDD6E709B0BDE868
S3150800C9A0F08F049603950297BDF820209DF81C1079
S3150800C9B09DF81800CDF804B000944B4670477CB536
S3150800C9C0DFF8BC532E7804460EB3324605F108014B
S3150800C9D000A8F8F783FB00202870002500E06D1CEE
S3150800C9E0EDB2B54213DA00A9685C012807D003281E
S3150800C9F009D0C02804BF2046F9F7EFFCEFE7204628
S3150800CA0001F043FDEBE7204601F040FDE7E773BD83
S3150800CA102DE9F04FDFF868436578002D85B082462A
S3150800CA208B469046994641D02A4604F1100102A841
S3150800CA30F8F754FB0E9EBAF1000F17D13078C0F301
S3150800CA40021000210CE0D2B28B191719DB7C3F7C4F
S3150800CA50BB420BD0521C63789942F4DB491CC9B21D
S3150800CA608142B8BF0022F6DB4FF0C30A002060708F
S3150800CA7000270F9C04E000F01AF8F9F7AFFC7F1CBA
S3150800CA80FFB2AF4212DA02A9785C012804D0032863
S3150800CA9007D0C028EFD0F2E700F009F801F0F8FC5B
S3150800CAA0EDE700F004F801F0F5FCE8E718E001947A
S3150800CAB000964B46424659465046704770B5DFF8D1
S3150800CAC0C052AE7870244EB9FBF76CFD040018BF4F
S3150800CAD0C12C03D10120A8700498A861204670BD16
S3150800CAE005B0BDE8F08F2DE9F8430446A4480D4685
S3150800CAF0817891461F4631B3D0F818C00021BCF1A1
S3150800CB00000F817006D081612046294601B0BDE834
S3150800CB10F0436047002C18BFC12C16D00A460023E4
S3150800CB202946204601F0BEFC00231A46294620461F
S3150800CB3001F0BAFC2946204601B0BDE8F0430023BF
S3150800CB401A46F9F74CBCBDE8F1833878C0F30218E9
S3150800CB50002604E000F019F8F9F741FC761CF6B255
S3150800CB604645F0D2F019C07C012804D0032807D026
S3150800CB70C028EFD0F2E700F008F801F093FCEDE7E3
S3150800CB8000F003F801F090FCE8E73B464A462946E0
S3150800CB9020467047FEF7DABAFEF734BBFAF76FBCE1
S3150800CBA0FBF7B1BD70B57A4C257805F07F0684B0E1
S3150800CBB06D1C25700A9C04B12670089C0294009688
S3150800CBC0099C0194FDF7B6FB04B070BDF0B585B0BD
S3150800CBD000F023F850B90A989DF80C300290019796
S3150800CBE00096002229462046FFF7DCFF05B0F0BD77
S3150800CBF0F0B585B000F011F868B90B980290009767
S3150800CC0032460A98019029469DF80C0040F04003E8
S3150800CC102046FFF7C7FF05B0F0BD0D460446164689
S3150800CC201F4603A9FFE710B5024600200C46FF2A57
S3150800CC308CB008BF01210FD000A91046FFF7ACFF42
S3150800CC4058B9042121709DF82E10490705D59DF87D
S3150800CC502C10490701D50C2121700CB010BD2DE907
S3150800CC60FE4FDFF81C91DDF830A0DDF834B00E9EDB
S3150800CC70884689F8048007460F9C02971D4600F0EF
S3150800CC8029F801F02DFFA0B9012D04D0032D07D0F6
S3150800CC90C02D0AD00DE000F016F802F0D5FA08E02B
S3150800CCA000F011F802F0D1FA03E000F00CF8F9F7F9
S3150800CCB08CFB029700F00EF8F9F788FBFF2089F83D
S3150800CCC00400BDE8F78F0197009623465A46514659
S3150800CCD040467047019600945B46524629464046B0
S3150800CCE070472DE9FC47264D0A9C824685F804A024
S3150800CCF00F460B9E019490469946009601F03AFF1E
S3150800CD00A0B9012F04D0032F07D0C02F0AD00DE0F9
S3150800CD1000F018F802F003FB08E000F013F802F040
S3150800CD2095FA03E000F00EF8F9F751FB0194009626
S3150800CD304B46424639465046F9F74AFBFF202871CA
S3150800CD40BDE8F387009433464A4641465046704745
S3150800CD500B480079704710B5094CE27801467020F7
S3150800CD602AB90846FBF797FC08B90121E17010BDFE
S3150800CD7070470348C17809B10021C17070470000A7
S3150800CD80EC1B00205016002044160020081C00202A
S3150800CD90C82F00200001030038B5DFF8684504F104
S3150800CDA00800F5F745FB04F11800F5F741FBDFF835
S3150800CDB058450123002218212046FCF7B1FB012320
S3150800CDC001221821601CFCF7ABFB20780025FF2800
S3150800CDD006D0285D02F0E7FA29190020887031BDCF
S3150800CDE060780125FF28F4D131BD10B50021DFF8A0
S3150800CDF01825885CFF281EBF8C18A378002B04D042
S3150800CE0002F0D1FA0020A07010BD491CC9B202294F
S3150800CE10EFDB10BD10B59028DFF8E84406D10021F5
S3150800CE20FF20FFF703FD0020207210BD912803D1D3
S3150800CE30F9F751FD00B96BE010BD80B5DFF8C40401
S3150800CE40417849B9DFF8C414097829B1807818B946
S3150800CE5001F0E7F8012002BD002002BD80B501F00F
S3150800CE604EF838B101F0EDF8BDE80240DFF8A0044D
S3150800CE70F5F7DEBA01BD70B50E4682B0DFF8844418
S3150800CE80DFF884540FF29C410FF2A442E8B90096E9
S3150800CE9002200FF2A44302F0EEFB20784655401C10
S3150800CEA000EBD0714910A0EB41014A5DFF2A06D17B
S3150800CEB04E554A190123C9B21820FCF742FB012135
S3150800CEC00FF21C5002F09DFC0DE00FF27843009023
S3150800CED0022002F0D0FB01210FF20C5002F091FC67
S3150800CEE02178FF204855012321784A191820FCF794
S3150800CEF028FB0020E0700520BDE87640F5F796BBD4
S3150800CF0010B5DFF80044FFF73CFC08B9207210BDE5
S3150800CF1004F10800BDE81040F5F78ABA10B5DFF845
S3150800CF20E443DFF8E413002020742078405CFF28EF
S3150800CF300FD04B7809788B4218BF002107D1401CC7
S3150800CF4000EBD0725210A0EB42000021C0B2FFF7EE
S3150800CF5021FEFF2002F0A4FCB8B920780FF2D032E7
S3150800CF600FF2E831002814BFACA3ADA3022002F0EB
S3150800CF7082FB01210FF2784002F043FC0120E070A9
S3150800CF800520BDE81040F5F745BBBDE81040012176
S3150800CF900FF2544002F035BC2DE9F041DFF8644346
S3150800CFA0DFF87053DFF87063002020764020286091
S3150800CFB000206070A078B8B1072000F0F6FF0720BF
S3150800CFC001F025F80700F07907D00121617028BB28
S3150800CFD0072000F044F8F77120E0F8B1072000F0C8
S3150800CFE0AEF80020F07119E000F0A0FF0027F8B2B3
S3150800CFF001F00DF85FEA0008B85D06D001216170FE
S3150800D00038B9F8B200F02BF803E010B1F8B200F026
S3150800D01096F807F806807F1C312FE8D3E078617808
S3150800D0200843A178084303D00520F5F7F3FA02E090
S3150800D0300520F5F7FBFA607820B9B448007808B1FE
S3150800D040A07820B1322104F11800F5F7FCF96078D0
S3150800D050A178084304BF40206860BDE8F08110B598
S3150800D060AE4A88B000F0BCF809D101202071A17938
S3150800D0706079084361D0E07800285ED11AE0142967
S3150800D08008D101206071E078002856D120700FF28F
S3150800D090C8210AE00D2912D10120A071E0780028E4
S3150800D0A04BD1012020700FF2BC2100F09FF82079A7
S3150800D0B0002842D004F11000F5F7BAF93DE0072937
S3150800D0C008D10FF2A82100F091F80120A07004F011
S3150800D0D0E7FF32E0FF2A30D004A900F0A3F89DF854
S3150800D0E0100000281FBF88482178085CFF2816D042
S3150800D0F09DF813109DF81220039100230021029138
S3150800D100019100919DF8111005F0B6F89DF81230BE
S3150800D1109DF811200FF26421022002F0ACFA9DF866
S3150800D120140050B10FF2742100F060F89DF8182031
S3150800D1300799BDF8160000F0BBFD08B010BD10B584
S3150800D140764A86B000F04CF802D10020207145E0FE
S3150800D150142902D10020607140E00D2902D1002077
S3150800D160A0713BE0072909D104F0C5FF0020A07093
S3150800D17002200FF2342102F07EFA2FE0FF2A2DD08A
S3150800D18001A900F04FF89DF80400C8B19DF8070002
S3150800D190B0B921785C48085CFF2811D000210091BD
S3150800D1A000239DF806209DF8051005F094F89DF8D3
S3150800D1B006309DF805200FF20021022002F05BFAE6
S3150800D1C09DF8080050B10FF2102100F00FF89DF8F5
S3150800D1D00C200499BDF80A0000F0BBFD06B010BD8E
S3150800D1E0014612F81120474C06297047022002F022
S3150800D1F042BA444B1B7802464348185CFF2800D1C4
S3150800D2007047E0B500230293019100924C234FF634
S3150800D210F172FE21FFF7C6FC07BD00005456000058
S3150800D220535442002DE9F04180463C48354EDFF81C
S3150800D230D8C086B010F8185000EB48000C4647785E
S3150800D240307801A900912B460FF2A811415C10F81D
S3150800D2500C00002201F0E7F980BB9DF804004006A7
S3150800D2602CD49DF8040010F0010020709DF80410DD
S3150800D27001F0020121710DD09DF80700032809D19C
S3150800D2800020607002988078A0709DF8050000F074
S3150800D290400002E000206070A070E07061B19DF867
S3150800D2A00C00C0074CBFBDF80E000020E0809DF8BA
S3150800D2B010002072059820E000201DE00120207053
S3150800D2C000206070A570B80900F00100E0703078A1
S3150800D2D001280ED10C2000FB08F011494218137AD8
S3150800D2E003B101232371405AE080107A20725068F6
S3150800D2F003E000202071E0802072E06006B0BDE8FF
S3150800D300F0810000F01700203C150020F0140020E2
S3150800D3100818002010B0004010180020245A0108F0
S3150800D320D857010825702025703A203078257800CE
S3150800D33042696E64696E6700636F6D706C657465CB
S3150800D340000000006661696C656400002570207441
S3150800D3506F20257000000000535442206D6F6465ED
S3150800D360000000005456206D6F646500564F49430F
S3150800D3704520707265737365640000005246205339
S3150800D380746172742E2042616E6B3A20307825786B
S3150800D39020436F64653A2030782578004952205337
S3150800D3A07461727400000000564F49434520726547
S3150800D3B06C6561736564000052462053746F702E65
S3150800D3C02042616E6B3A203078257820436F646579
S3150800D3D03A2030782578000049522053746F70003F
S3150800D3E01F0100010F0100000F0100011F050000C9
S3150800D3F01F01000009020000DFF8C00600210170C5
S3150800D40080F8781080F8651080F8771080F8791021
S3150800D410FF2180F87A10002180F87B10C1677047D9
S3150800D4206128A8BF572107DA4128A8BF372103DAA0
S3150800D4303A28B4BF30210021401AC0B27047DFF83D
S3150800D4407C16401890F8661090F86500CBE1DFF876
S3150800D4506C16401890F865004018401C70472DE976
S3150800D460F84F80460F460024DFF85496DFF84C66DE
S3150800D47001E089F80000B8F1000F09D100A9F8B257
S3150800D480F6F7B4FC70B1262818BF012073D101E065
S3150800D490FFB217B92046BDE8F28F18F8010B8DF8D0
S3150800D4A000007F1E99F800109DF800000D2908BF9E
S3150800D4B00A28DED00D2889F8000005D101240025A8
S3150800D4C0222807D1012106E00A28F7D000242028BF
S3150800D4D0F5D101250021327832B1022A21D017D39D
S3150800D4E0042A4CD021D3C6E714B100F094F8C2E759
S3150800D4F0002DC0D139B10220307096F87850642DCD
S3150800D50055D1062037E07B2814BF01200320F3E716
S3150800D51055EA0400F1D096F87700112839D103208E
S3150800D52029E00029F7D12CBBE7E796F87AA0BAF1EB
S3150800D530FF0F14BF4FF0010B4FF0000B7D2803D1EE
S3150800D540BBF1000F16D1E6E79DF80000FFF768FF6C
S3150800D55010280DDABBF1000F07D000EB0A108DF882
S3150800D5600000FF2086F87A00C7E786F87A0082E787
S3150800D570002DFCD1052086F8790004203070002C97
S3150800D58006D096F8790008B100F04AFAFFF734FF9A
S3150800D59071E7401C86F87700C0B296F878108019B3
S3150800D5A080F865100020002C3070F1D09DE73078A7
S3150800D5B0012805D19DF8000000F01AF88DF8000042
S3150800D5C09DF80000A919487096F87800401C86F85E
S3150800D5D0780050E782684068030008BF0A6003D0F5
S3150800D5E012786E2A02D10860012070470020704721
S3150800D5F0A0F141011A293CBF2030C0B27047DFF8BC
S3150800D600BC1491F87B201018C0B2401890F8650039
S3150800D6104018407870472DE9F04F83B0DFF8A4042E
S3150800D62001900024DFF8940490F87700002865D06C
S3150800D630DFF894040078C0071DD500259DA610E0E4
S3150800D64068B2FFF704FF07462846FFF7F8FE0246CA
S3150800D65039460020F6F738FC31462046F9F79CFD96
S3150800D6606D1CDFF8580490F87700EDB28542E7D3D1
S3150800D67091A100F0BAF9019D002660B2FFF7E7FE16
S3150800D68080462046FFF7DBFE834600270DE019F8A3
S3150800D690010BFFF7ADFF00901AF8010BFFF7A8FF83
S3150800D6A00099C9B2814206D00C35D5F800A0BAF166
S3150800D6B0000F15D0C146A9EB080058459AF8000096
S3150800D6C00CBF01210021421E924111EAD27F0BD1E3
S3150800D6D051EAD270DBD0002E0CBF2E460127E3E7B5
S3150800D6E0002F14BF0025354601950198DFF8DC5355
S3150800D6F040B90220A870A87800F092F9FFF77CFEDE
S3150800D700BDE8F78FDFF8B413C867641C2879401C96
S3150800D710287101A90198FFF75DFF18B100F05CF8C0
S3150800D720A9D350E00198806800783F284DD000269C
S3150800D730B0460FE00720A870019880683018407836
S3150800D7402A28A8781CBF761CF6B200283DD1641C8E
S3150800D75008F1010800F040F8019880682CD2375C7F
S3150800D7605FFA88F0FFF74BFF27B3B7F162011BD0CA
S3150800D770113902D0891E0229DCD8752F08BFFF2768
S3150800D78009D0762F08BF4FF6FF7704D0732F0CBF4A
S3150800D7907F274FF0FF3701215FFA88F000F026F85F
S3150800D7A08742C9D20420C6E7222818BF7B28C3D0DF
S3150800D7B00520C0E70320BEE7315C00291EBF3018EC
S3150800D7C040782A2801D0032094E7A878002892D127
S3150800D7D001984068804791E7DFF8E00290F8770003
S3150800D7E0E4B284427047081AC0B270472DE9F04780
S3150800D7F0DFF8C892884699F87B100818C0B200EB83
S3150800D800090191F8651049444E1CFFF718FE824637
S3150800D810A94805780024002707E0A4B9012F18BFF6
S3150800D820022F10D11025781CC7B2574517DAB85DF4
S3150800D830B8F1000F03D0002F08BF2D28F3D07828A1
S3150800D84018BF5828E9D0FFF7EBFDA842B8BF05FB7B
S3150800D8500404E8DB052089F87900002000E020466A
S3150800D860BDE8F0870021C1E738B50446FFF7C7FED3
S3150800D8702D280CBF0125002529462046FFF7B6FFAF
S3150800D8800DB100B2404200B232BD70B50C468B49AC
S3150800D89091F87B100D18C6432CB1E8B2FFF7CFFDFF
S3150800D8A0A0EBD670207068B2FFF7D1FD00EBD670FA
S3150800D8B070BD0000200000000D0A0000F8B50C46F7
S3150800D8C016461F4600A9FFF7E0FF05469DF800002B
S3150800D8D0864298BF30468DF80000002F1ABF9DF883
S3150800D8E00000361A0026F6B2324600212046F7F71F
S3150800D8F038FC9DF8002029463019F7F7EFFB9DF80C
S3150800D9000000F2BD38B50C4601230822FFF7D6FF02
S3150800D9100021621A0D5DD379D5710B55491C04296E
S3150800D920F7DB32BDF8B50D460446AE682A685AA13B
S3150800D9300020F9F731FC686858A718B958A1F9F713
S3150800D9402BFC2CE01CB92AE000F04FF8761C307846
S3150800D95010B3752808BF0FF27C11F5D0762808BFDA
S3150800D9600FF27C11F0D0772808BF0FF28011EBD0A8
S3150800D970732808BF0FF28011E6D0622808BF0FF29D
S3150800D9808411E1D06E2808BF0FF28411DCD02A2852
S3150800D9900CBF44A144A1D7E73946F9F705FC002096
S3150800D9A0F6F7D9FA39460020F9F7FEFBBDE8F2404A
S3150800D9B025E010B5044682B021460120FFF7B2FFE4
S3150800D9C000A92046FFF706FE50B913BD37A100F09F
S3150800D9D00CF800990020FFF7A5FF00980C3000907E
S3150800D9E0009800680028F1D113BD0020F9F7D4BBD0
S3150800D9F080B50FF22411FFF7F8FFBDE802400020BA
S3150800DA00F6F7A9BA10B52F4CFFF7F2FF04E0214646
S3150800DA100020FFF787FF0C3420680028F7D110BDD7
S3150800DA202DE9F8432A4951F820200FF22C1100203D
S3150800DA30F9F7B2FB214CE06F002804BFBDE8F143BB
S3150800DA40FFF7E0BFFFF7D4FF002519A60FF2640918
S3150800DA5010E017F8082049460020F9F79DFB7F1CBF
S3150800DA602846FFF7ECFCFFB28742F2D33146FFF7B0
S3150800DA70BCFF6D1C94F87B00EDB2401E854205DAAA
S3150800DA8068B2FFF7E4FC80460027E9E7E06FBDE8E7
S3150800DA90F2438EE700000000257000000000000039
S3150800DAA02E2E2E00202A0000203F000020200000F5
S3150800DAB02000000025630000F11400202C17002028
S3150800DAC0BE2F0020CC5E0108BF2F0020A317002020
S3150800DAD0F4140020203C696E7438753E000000007E
S3150800DAE0203C696E743136753E000000203C696E34
S3150800DAF0743332753E000000203C696E7438733EFC
S3150800DB0000000000203C737472696E673E000000D6
S3150800DB10202E2E2E0000000055736167653A0D0A07
S3150800DB203C696E743E3A20313233206F7220307869
S3150800DB30314142430D0A3C737472696E673E3A205E
S3150800DB4022666F6F22206F72207B3041203142207F
S3150800DB5032437D0D0A0D0A0025700D0A00000000EB
S3150800DB6038B504460D46F4F7ACFE001B4FF47A713F
S3150800DB704843800AA84201D3002032BD281A32BD84
S3150800DB807D4A002804BF02F10800F4F751BC01469B
S3150800DB9002F10800F4F757BCF8B504460D461646D8
S3150800DBA0002704F0FEFD012C02D13146284610E07C
S3150800DBB0022C13D13246512AA8BF032718DA6F4C14
S3150800DBC02946204604F01AFF08B9042710E0314612
S3150800DBD0204604F06EFE01280CDA06E03CB9314610
S3150800DBE0284605F084F8012804DA022700E0012710
S3150800DBF004F0D7FD3846F2BD5F480021C1700171B7
S3150800DC0041704161017004F0CCBD70B55A4C5C4D51
S3150800DC10617800202072207931B1022919D00AD3FF
S3150800DC2004293CD031D370BDE17809B1012031E037
S3150800DC3000283CD02DE0F4F744FE064604F0EAFD41
S3150800DC40E87800B1401EA070022060703046216955
S3150800DC5015E0A17849B1481EA070F4F732FE0646D1
S3150800DC6004F0E6FD3046216909E070B9287848B124
S3150800DC70F4F727FE064604F0DBFD21693046FFF778
S3150800DC806FFF09E00320607070BDF4F71AFE04F018
S3150800DC90DAFD042060700020BDE8704070E704F0EB
S3150800DCA0DAFD0020E070207160706061207070BD40
S3150800DCB0F8B5314D04466869002804BF287800285D
S3150800DCC00F46164601D00620F2BDA8696F612E7070
S3150800DCD0874204BFA879864204D0AF61AE710CB9F9
S3150800DCE004F0B5FDEFB924B98EB926480168027962
S3150800DCF019E0012C07D1032E09DA2348502101FB2C
S3150800DD00060150220FE0022C09D1032E01DB052063
S3150800DD100CE01E48342101FB0601342203E00120F1
S3150800DD2004E0324639462046FFF736FF68716879BF
S3150800DD3040B90120E870687848B905F10800F4F799
S3150800DD4077FB04E0002068612870A861A8716879EB
S3150800DD50F2BD80B50848C178012904D1017108309F
S3150800DD60F4F766FB04E0002101714170416101701E
S3150800DD70002002BD000000009C190020B8190020F0
S3150800DD8044180020B85A0108886201087863010817
S3150800DD90C208430710B54CBFB54BB64B03EB8222FE
S3150800DDA000F00300800013680F2408E010B5C208CD
S3150800DDB0B14B03EB822200F007001368012484406C
S3150800DDC0A34301FA00F01843106010BD00F00701E4
S3150800DDD0C0088002A94A105801228A401040C8404B
S3150800DDE0704710B58B0800EB430001F0030189006A
S3150800DDF003880F248C4002F00F02A34302FA01F1B4
S3150800DE001943018010BD10B500EBE10001F00701D0
S3150800DE10037801248C4002F00102A34302FA01F1BF
S3150800DE201943017010BD2DE9F84F954841688907D7
S3150800DE3002D55721572205E0036843F020037F21C6
S3150800DE407F22036000268F4CDFF83C82DFF83C9285
S3150800DE50DFF83CB20FF2442A62702170012560781F
S3150800DE6005FA06F108421BD05AF8267000213846F2
S3150800DE70FFF79CFF01213846FFF78AFF0022F9B217
S3150800DE805846FFF7C0FF0022F9B24846FFF7BBFF26
S3150800DE902A46F9B24046FFF7A4FF2A4600F02CF8B6
S3150800DEA0761C072EDBDB00260FF20C2A207805FAF3
S3150800DEB006F108421BD05AF8267001213846FFF7AA
S3150800DEC075FF08213846FFF763FF2A46F9B2584618
S3150800DED0FFF799FF2A46F9B24846FFF794FF08224A
S3150800DEE0F9B24046FFF77DFF082200F005F8761CD8
S3150800DEF0072EDBDBBDE8F18FF9B2664871E738B566
S3150800DF0000240FF2B4155F4800780121A1400842A9
S3150800DF1006D055F82400FFF759FF08B9012032BD8D
S3150800DF20641CE4B2072CEEDB002032BD2DE9F04775
S3150800DF3000240FF284180FF2641A524F01257878DC
S3150800DF4005FA04F108422BD05AF8249000214846D5
S3150800DF50FFF72CFF01214846FFF71AFF1420F4F7B4
S3150800DF6037FC0026387805FA06F1084207D058F833
S3150800DF702600FFF72BFF401E8041C00F00E000205F
S3150800DF804549C4EBC40251187054761C072EE9DBC8
S3150800DF9008214846FFF7FCFE01214846FFF706FF21
S3150800DFA0641C072CCBDBBDE8F0872DE9F04107217F
S3150800DFB090FBF1F70FF2E408FCB23946C1EBC10158
S3150800DFC058F82460451AEDB200213046FFF7EEFEF8
S3150800DFD058F827000121FFF7DBFE1420F4F7F8FBB9
S3150800DFE00FF2D40050F82500FFF7F0FE2A49401E2C
S3150800DFF08041C4EBC4025118C00F6854082130464A
S3150800E000FFF7C6FE3046BDE8F0410121CEE60721FE
S3150800E01090FBF1F1C1EBC1011F4A8A18401A805CD6
S3150800E020704738B500240FF2740500F01AF804D0CA
S3150800E03055F824000121FFF7ABFE641C072CF4DB1E
S3150800E04031BD38B500240FF2540500F00AF804D0A3
S3150800E05055F824000421FFF79BFE641C072CF4DB0B
S3150800E06031BD084840780121A140084270470000A8
S3150800E07004B0004000B000400CB0004008B00040BA
S3150800E08000BC0040C22F0020441500205015002077
S3150800E0904015002054150020081A0020160000001C
S3150800E0A01700000003000000120000000200000034
S3150800E0B01300000001000000150000000C0000001D
S3150800E0C01100000014000000080000001000000005
S3150800E0D00F000000DFF82813002008704FF6FC71C7
S3150800E0E0DFF82003008801EA0002131F192B38BF46
S3150800E0F005F065BCA2F120031D2B38BF05F0B2BCA4
S3150800E100A2F14003092B38BF05F0BCBC4C3A052ADE
S3150800E11038BF05F0BEBC0840542808BF05F0A8BEA5
S3150800E120612112E0B849002008704FF6FC71B54825
S3150800E13000880840011F192938BF05F0B6BB2038EA
S3150800E1401D2838BF05F08FBC6E210FF2D820F4F7D2
S3150800E15081BCAE49002008704FF6FC71A9480088BA
S3150800E1600840011F192938BF05F019BC20381D2899
S3150800E17038BF05F079BC7B21E7E710B505F00EFF3F
S3150800E1800024204606F014F910F0030109D04007D0
S3150800E19007D400212046FEF7FDFC0021204606F0A4
S3150800E1A011F9641C022CECDB10BD05F078BC704735
S3150800E1B07047944909884FF6FC721140091F1929BE
S3150800E1C038BF05F010B9DA21BFE70022022808BFD8
S3150800E1D00122032808BF02228A4201D10120704782
S3150800E1E000207047F8B51C460025002306E0FF28E6
S3150800E1F01CBF5E5CB04205D05B1CDBB29342F6DB0B
S3150800E2000020F2BD099E0722FF213046F6F7A9FF36
S3150800E2100699079A089800230EE01F5D1CF802E08D
S3150800E220774502D1EDB2AF556D1C0CF1010C5FFAC2
S3150800E2308CFC8445F1D35B1C8B42B8BF4FF0000CB5
S3150800E240F5DBE8B2F2BD10B5002300E05B1CDBB2DB
S3150800E250934204D25C5CA042F8D1012010BD002094
S3150800E26010BDF8B56A4C05466078FF281EBF401CED
S3150800E270C0B200280E46174614D166480178C1F385
S3150800E280021200F1130100F02BF858B100F026F83D
S3150800E29040B12178284600F009F918B100206070CD
S3150800E2A00120F2BDFF2060700020F2BDF8B50446DB
S3150800E2B058480D4601781646C1F3021200F11301BB
S3150800E2C01F4600F00DF840B100F008F828B12946BD
S3150800E2D02046BDE8F44000F0F4B8F1BD3A463146B0
S3150800E2E00320B0E74A49FF20487070472DE9F843F4
S3150800E2F014460546207888469946C0F30216002734
S3150800E3000BE0785D40B14946FFF75FFF20B1F2B2F6
S3150800E310785D1119561CC8747F1C4745F1DB2078B7
S3150800E32000F08F00207040EA06102070BDE8F183E7
S3150800E33070B504460D46002600E0761CF6B2AE42DD
S3150800E34007D2305D0221FFF740FF0028F5D00220F2
S3150800E35070BD002600E0761CF6B2AE4207D2305DEC
S3150800E3600121FFF732FF0028F5D0012070BD0020FB
S3150800E37070BD10B5234C217801F003010143202814
S3150800E380218005D0010018BF01210020FEF74EFAB2
S3150800E39020884FF6FC710840001FBDE81040192878
S3150800E3A034BF69215F211848F4F74DB810B50C46FB
S3150800E3B014490A7802F00302024320280A8005D08D
S3150800E3C0010018BF01210020FEF730FA2146BDE8FA
S3150800E3D010400B48F4F737B80A4909884FF6FC721B
S3150800E3E002EA01034C3B052B38BF05F05EBB114022
S3150800E3F0542908BF05F041BD04F03FBF00000000E6
S3150800E400901A0020A4150020981A0020A01A0020AF
S3150800E410A6150020501600207047704704F0EFBF7D
S3150800E4207047000072663463652D6764702D6269F3
S3150800E4306E64696E672D636F6D6D6F6E2E63000077
S3150800E44080B503F014FF05F0D5FFBDE8014005F0DF
S3150800E450DBBF1CB500E01CB5059C0194049C009428
S3150800E46005F005FB16BD10B500E010B586B00C9C8E
S3150800E47004940B9C03940A9C0294099C0194089C9E
S3150800E480009404F08FFD06B010BD704704F061BE1D
S3150800E4901CB500E01CB5059C0194049C0094FFF78C
S3150800E4A086FE13BDFFF784BEFFF782BE80B500283F
S3150800E4B0084602D001F00BFA01E006F02FFA012017
S3150800E4C002BD10B50C4638B9204600F06BFF204651
S3150800E4D0BDE8104006F032BA10BD10B500F00DF8D0
S3150800E4E023EA0101115410BDCA0801F00701105CA6
S3150800E4F0012202FA01F108407047CA080124135C98
S3150800E50001F0070104FA01F1704700210A5C0AB11B
S3150800E51001207047491CC9B22029F7DB0020704743
S3150800E5202DE9F04389B08046119E0C4691461D465A
S3150800E530202200213046F6F714FE109F20220021E3
S3150800E5403846F6F70EFE002010F8081010F80920D5
S3150800E550114000AA8154401C2028F5DB00200790B2
S3150800E560200609D5202200A93846F6F7B7FD00206F
S3150800E57038747874B874F874280604D5202200A96B
S3150800E5803046F6F7ABFD09B0BDE8F08306490978D1
S3150800E59019B10829B8BF01F0EDB91039212938BFDA
S3150800E5A000F08ABF70470000C92F002005E024202C
S3150800E5B0704708461146F9E094E010B50020B549C1
S3150800E5C000224FF4347303FB0013142404FB0233B4
S3150800E5D04024521C242A1C70F3DB401C0228EFDB63
S3150800E5E001F5B46440F24C4200212046F6F7B9FD25
S3150800E5F0A948046010BDF8B500240FF2E82500F01C
S3150800E60038F802BF76197778974204BFB6789E42E3
S3150800E61003D12146BDE8F44049E0641CA4B2242C89
S3150800E620EDDB0320F2BDF8B5022801DBB120F2BD0F
S3150800E63000240FF2B02500F01CF802BF761977788F
S3150800E640974204BFB6789E420DD192494FF434736F
S3150800E65003FB0010142101FB040106981422F6F7A7
S3150800E6603DFD0020F2BD641CA4B2242CE3DB03208C
S3150800E670F2BD04EB4406775D8F427047F8B5002477
S3150800E6800FF26025FFF7F5FF02BF761977789742F4
S3150800E69004BFB6789E4204D1069A2146BDE8F840E2
S3150800E6A020E0641CA4B2242CECDB0320F2BD38B5B0
S3150800E6B00446022CBCBF0D46242D01DBB12032BD19
S3150800E6C000F085F873484FF4347101FB04041420F4
S3150800E6D04543142200212819F6F743FD4020285502
S3150800E6E0002032BD2DE9F8430546022DBABF0F4674
S3150800E6F0242FB120144653DA00F069F8204600F0BA
S3150800E700D0F8DFF890914FF4347101FB059114228B
S3150800E710614D7A432F6840F24C43DB1B09F5B46719
S3150800E720FB18834203D240205054B42038E05718CF
S3150800E730142221463846F6F7D1FC20780FF28018C5
S3150800E74000F04100012809F6EC192BD12E68E27871
S3150800E75061683046F6F7C2FC2868E17808188145F2
S3150800E760286004D24FF4B6714046F4F773F97E6018
S3150800E770207800F04200022816D12E68227B2169F3
S3150800E7803046F6F7ABFC2868217B081881452860D7
S3150800E79004D24FF4BE714046F4F75CF93E6100209E
S3150800E7A0BDE8F2830026E2E70026F7E780B52428CD
S3150800E7B00B4601DBB12002BD0FF2281100EB400029
S3150800E7C0411803221846F6F789FC002002BD2DE9F8
S3150800E7D0F04B304F4FF4347202FB00784FF01409B7
S3150800E7E009FB0185284600F05CF8060048D02A4C4B
S3150800E7F0206807F5B46BA0EB0B00B0420FF2C00718
S3150800E80003D240F2211100F049F8287800F04101BE
S3150800E810012937D16D681DB940F2291100F03EF87B
S3150800E8205D4503D24FF4957100F038F8206806EB81
S3150800E830050B584503D240F22B1100F02FF821683A
S3150800E840704241182160002209FB02835F68BD42BD
S3150800E8503CBFC7195F601F69BD423CBFC7191F612E
S3150800E860521C242AF0D34A1B92B259462846F6F778
S3150800E87035FC2068B2B2BDE8F04B0021F6F771BC52
S3150800E880BDE8F08B00F04200022808BF2D69C2D00F
S3150800E8900025C1E7681C00206C1600203846F4F7EE
S3150800E8A0D9B80278002102F04103012B08BFC178CC
S3150800E8B002F04202022A04BF007B4118084670474C
S3150800E8C072663463652D7A726332302D61637469BA
S3150800E8D06F6E2D6D617070696E672D636C69656EFC
S3150800E8E0742E630002000002000102000202000307
S3150800E8F002000402000902000A02000D02001102C9
S3150800E9000020020021020022020023020024020045
S3150800E9102502002602002702002802002902002BF1
S3150800E92002003002003102003202003402003502D1
S3150800E930004002004102004202004302004B02006E
S3150800E9404C02005302007102007202007302007446
S3150800E95080B500210020FEF782FD38B1BDE80840E9
S3150800E9600FF2640202A1012000F07FBE01BD000083
S3150800E97025703E0000B589B001A8FDF7E1FE03A9A0
S3150800E98000A8FDF7E5FE0FF26401022000F06DFE17
S3150800E990022000F047FE10B101A800F099FE9DF98B
S3150800E9A016309DF817200FF24C01022000F063FE86
S3150800E9B0BDF81A30BDF814200FF25001022000F0FD
S3150800E9C05AFE09B000BD000066756C6C2D6665615F
S3150800E9D074757265642D636F6E74726F6C6C657294
S3150800E9E02D736F66742D636F646563006E6F64655F
S3150800E9F0205B00005D206368616E205B25645D20F6
S3150800EA00707772205B25645D0000000070616E49B6
S3150800EA1044205B30782532785D206E6F6465494402
S3150800EA20205B30782532785D0000000038B5F3F7B2
S3150800EA3039FF0024274D2046F5F7C3FA58B9204672
S3150800EA40F5F7C9F9002842D12046F5F719FA35F83D
S3150800EA501410081A3BD1641CE4B2042CEBDBF7F75C
S3150800EA6093FE8721084223D1F7F78EFE00280CBFB4
S3150800EA704FF0FF30F7F7E3FE009000991648F3F7DA
S3150800EA8028FD0090052813D3FEF7D7F980B1009C1E
S3150800EA90F7F7A2FEF7F7A8F900A8F3F7D5FFF7F7F7
S3150800EAA0C4F9F7F7B0FE0098201AFEF7D7F931BD7A
S3150800EAB0F7F787FC58B1094C2078F3F759FD054656
S3150800EAC02078F3F78FFD25B1F7F77DFC31BDF4F714
S3150800EAD0C7F831BDD83F0008FC5E0108C42F0020E6
S3150800EAE07CB50D000446164604D002212846FFF7D9
S3150800EAF06CFB58B10898069B01903246079800901F
S3150800EB002946204600F003F800B1012076BD7CB501
S3150800EB100E460021069C01911D460094314600F0E0
S3150800EB201EF918B1022823D0002076BD06BBDFF8EF
S3150800EB30D406DFF8D41645600470012008702978D9
S3150800EB40079801F00F01022910D0092902D00B29D4
S3150800EB5006D00DE0697801290AD1FFF761FC07E0C4
S3150800EB606978022904D104F08BFF01E004F0A0FFC4
S3150800EB70012076BDF0B50D0083B0044616461F4643
S3150800EB8004D002212846FFF720FB58B109980190C6
S3150800EB903B460898009032462946204600F003F87E
S3150800EBA000B10120FEBD2DE9F04B86B088460E9FC8
S3150800EBB039780F9C009401F00F018DF808109B46D8
S3150800EBC0012101913B46414600F0C9F820B10228CF
S3150800EBD000F0A6800020A4E0DFF82856DFF8289683
S3150800EBE06F602C7001209DF8086089F80000022EDD
S3150800EBF004D0092E06D00B2E14D057E0787804F0EE
S3150800EC0056FF53E0787828B9032C03DBB878FFF76A
S3150800EC1004FC4BE0012849D1032C47DBB878FFF701
S3150800EC20FDFB43E0787878B90C2C0DDB0822391DFA
S3150800EC3000A8F6F753FAF878BA7802EB002000A98C
S3150800EC4080B204F01AFF31E0012816D1102C2DDB12
S3150800EC500822391D03A8F6F741FA042207F10C0128
S3150800EC6000A8F6F73BFAF878BB7803EB002000AA71
S3150800EC7003A980B204F002FF18E002280AD1062C84
S3150800EC8014DB0422B91C00A8F6F728FA00A804F039
S3150800EC90F6FE0BE0032809D1022C07DB0BF008006F
S3150800ECA00128ACBF0120002004F0EBFE0020DFF8AD
S3150800ECB05C1511F83020904501BF01EBC0029DF8A4
S3150800ECC0083092F801B05B4504D0401CC0B2122847
S3150800ECD0EFD316E05368180013D0012E05D9F01E9D
S3150800ECE005280DD9C01F03D00BE07878984708E0AF
S3150800ECF0022C06DBA21E7878D2B2B91C984700E02F
S3150800ED009847002068602870FF2089F80000387846
S3150800ED1000F080000128ACBF0120002004F0C0FEEE
S3150800ED20012006B0BDE8F08B80B5002808BF032A8D
S3150800ED300B4609D19878597801EB0021BDE80440C3
S3150800ED40187889B205F096B8012808BF002A05D1B7
S3150800ED50FDF7FEFFBDE8024004F0ABBE01BD00981A
S3150800ED60A0B11A7819B1530601D40120704702F0F0
S3150800ED700F020C2A0ADA0FF2A443D35C984205D391
S3150800ED8031B1022A1CBF092A0B2A01D10220704779
S3150800ED9000207047F0B5DFF878740446387885B0F7
S3150800EDA00D46164603AB214600F00F0000F07EF82C
S3150800EDB060B9029000973246DFF8580400789DF84B
S3150800EDC00C30019029462046FDF7ECFE05B0F0BD53
S3150800EDD038B500F011F82570637006E038B500F014
S3150800EDE00BF8637045F0010525700223DFF824440B
S3150800EDF02370BDE83840CDE7DFF81C54DFF810442F
S3150800EE002D78704710B5DFF81044DFF804342478FD
S3150800EE105A7044F002041C70022220E01CB500F06F
S3150800EE200AF8032012E01CB500F005F80520FFE7F4
S3150800EE3000F08BF816BD00931346049C01940A460D
S3150800EE40014670471CB5FFF7F6FF072000F05CF88F
S3150800EE5016BD10B500F00BF80024FFE75C70DFF86C
S3150800EE60B4331A700A46BDE81040002192E7DFF86D
S3150800EE70A843DFF89C3324789A7044F009041C7080
S3150800EE800322704738B5FFF7B7FFA27045F00A05A9
S3150800EE902570E3701A0A22710025DFF87833657049
S3150800EEA005221A700A46BDE83840DEE770B5064600
S3150800EEB0084602288CB014461D46A8BF022021DA4F
S3150800EEC000A9FDF769FEE8B90420022E287002D1D0
S3150800EED0142028700CE09DF82E00C0075CBF142093
S3150800EEE028700B2E04D1DFF828034078032803D1B5
S3150800EEF0287840F0080028701CB1287840F04000B7
S3150800EF00287000200CB070BD2DE9F84300F013F806
S3150800EF10089E099C002700E07F1CFFB2A74207D283
S3150800EF2006EB870000F055F80028F5D1742000E0BC
S3150800EF3005E0BDE8F2830D46904699461DE04A462F
S3150800EF4041462846BDE8F84320E02DE9F843FFF797
S3150800EF50F2FF089E099C002700E07F1CFFB2A7422B
S3150800EF6008D20C2000FB076000F0D4F80028F4D182
S3150800EF70742000E0E3E7BDE8F283A749097808436F
S3150800EF80A34908700120A3490870704702E72DE9D4
S3150800EF90FE430E46A0499E4F097805460A9808433F
S3150800EFA000F0BF00387091460C9C0B999846224693
S3150800EFB0781CF6F793F80D9802904346601CC0B289
S3150800EFC0019000974A4631462846FDF7EBFDBDE815
S3150800EFD0FE8330B58F490B785A1C6F2A0FD20578F5
S3150800EFE08B4A9D545B1C05F0A004802C0B7011D134
S3150800EFF0502425420ED0DBB29D1C6F2D01D3002074
S3150800F00030BD408898545B1C0B70000ADBB29854DC
S3150800F010581C0870012030BD70B500F074F809DB83
S3150800F02000F068F810D1502635420DD0E4B2A61C7F
S3150800F030B24201DA002070BDE218E35C527803EBB5
S3150800F04002224280A01C0870012070BD70B500F035
S3150800F05081F81AD200F096F808D15022134205D04A
S3150800F060C9B28B1C6F2B10D200F082F829784B1C82
S3150800F0706F2B0AD223790B54491C29706BB9627914
S3150800F080C9B25618761C6F2E01D3002070BD00F049
S3150800F09067F82878617908182870012070BD70B55E
S3150800F0A000F031F81DDB00F025F808D1502635426E
S3150800F0B005D0E4B2A61CB24213DB00F094F80C7833
S3150800F0C0661CB2420DDBE55C0571641C0C707DB9EB
S3150800F0D0E4B2661CB24204DBE55C457100F07DF8DB
S3150800F0E001DA002070BDE2188260407900190870C4
S3150800F0F0012070BD5B68E55C641C05F0A006057020
S3150800F100802E0C70704740493E4B0C781A78661C66
S3150800F110B242704770B500F01DF811D200F032F80F
S3150800F12008D15022134205D0C9B28B1C6F2B07D2C7
S3150800F13000F01EF8227929785618761C6F2E01D30E
S3150800F140002070BD00F00CF828782179081828707E
S3150800F150012070BD2F4D29780446481C6F2870473A
S3150800F1600A544B1C2B70DBB2A1681818F5F7B6BF0A
S3150800F17063880B54491C29701A0AC9B20A54491CD7
S3150800F18029707047237822480B54491C03F0A002C3
S3150800F190802A2970704770B5FFF7B5FF14DBFFF7B3
S3150800F1A0A9FF08D15026354205D0E4B2A61CB242C2
S3150800F1B00ADB00F018F80C78661CB24204DBE55C42
S3150800F1C0057100F00AF801DA002070BDE2188260C5
S3150800F1D0007900190870012070BD641C0C70E4B237
S3150800F1E02D19AA427047E618E55C767805EB0625E0
S3150800F1F04580A41C0C7070470349012008707047AD
S3150800F20000000000B41B0020A9150020AC15002042
S3150800F210441B0020C72F0020A81500200202020266
S3150800F220030303020302020280B500F009F8384915
S3150800F230002008700021BDE80440C020F7F7D0B8C8
S3150800F24000210320FDF7F2BA7047704770B596B0F3
S3150800F25004461A9800281E4658D0327802F00F0243
S3150800F260042A2BD1022851DB0AA92046FDF794FC73
S3150800F27000284BD105208DF8040000208DF80500E4
S3150800F2809DF8540000074CBFC120C020FF22002172
S3150800F29005F066FA30B1014620220DF10600F5F7B1
S3150800F2A01DFF05E0202200210DF10600F5F759FFA4
S3150800F2B000200090222300F02DF827E0052A21D10E
S3150800F2C0134D287810B309A92046FDF765FCE8B95F
S3150800F2D02022B11C01A8F5F701FF9DF85000000790
S3150800F2E001A800904CBFC021C1210023002220465E
S3150800F2F005F0C1F8FFF7A4FF0020287001A9F7F769
S3150800F3006FF803E00090204605F07CF816B070BD53
S3150800F3107427002001AA01212046FDF757BC10B525
S3150800F32082B0049C0094FFF791FF13BD0B4640285A
S3150800F330114602D0422803D0704751B900F0D7B819
S3150800F34039B118784000401C814204BF581C00F0AF
S3150800F350D0B8704710B58CB0002400A9FDF71CFC86
S3150800F360002802BF9DF82C0000F00300022812D1E5
S3150800F370002004E0012904BF002C0124401C9DF84C
S3150800F3802B10884207DA00A9411891F8241003299E
S3150800F390F0D10224F2E720460CB010BD96490020B1
S3150800F3A0087118E000BF10B50446022C0CDA04F008
S3150800F3B0FFFF0321084207D0204605F0C0FA800661
S3150800F3C002D58D48007908B1702010BD204600F09E
S3150800F3D03BF8002010BD30B5884D874C287885B09D
S3150800F3E040B110281CBF2028302826D1C02000F0A4
S3150800F3F086F827E0824800884FF6FC7108421CD13F
S3150800F400A6208DF80800012304208DF80C0004229C
S3150800F41001A804900090A621FF2005F02CF81020E2
S3150800F420287002AB01200090002220780321FFF704
S3150800F430FAFC00F0C3F8642101E04FF4FA71201DCC
S3150800F440F3F701F805B030BD10B5044600F0B6F87C
S3150800F45069480021818100F8044BBDE81040F2F7A5
S3150800F460E7BF10B565480078302884B021D100A8D8
S3150800F470FFF715FEE8B19DF80000C32804BF9DF804
S3150800F4800400002801BF5C4CA089BDF80210814227
S3150800F4900FD1401CA0812078FFF789F8A189814205
S3150800F4A002D200F08FF802E0002000F028F80120D0
S3150800F4B000E0002004B010BD80B550490978102935
S3150800F4C002D0202905D001BD20B900F028F868B976
S3150800F4D000E018B1BDE80240012010E000F01FF876
S3150800F4E020B945498881BDE801406BE001BD80B57A
S3150800F4F000E080B5FDF72CFCBDE8024053E710B5E7
S3150800F500044600210320FDF791F93B4900200871C4
S3150800F5103A4908702046BDE81040FDF766BCF0B5CC
S3150800F52085B0C2208DF80800002403208DF80C0051
S3150800F53001A804900520FFF720FD2F4D297800AB80
S3150800F54000220520FFF7B2FC9DF800102878FDF789
S3150800F5502BF90FF2B007461EF6B214E001AAFFF720
S3150800F56028F820B14FF483713846F3F773FAA8895F
S3150800F570ADF80A0002A8FFF7CDFDA889401CF61FC2
S3150800F580A881F6B201242878FFF711F8A98902465E
S3150800F5902878914201D2072EE0DA5CB100220321D5
S3150800F5A0FFF7F4FC1549202000F007F86421281D10
S3150800F5B0F2F749FF204605B0F0BD08700121032087
S3150800F5C0FDF734B91CB5C3208DF8040001AB0A4C0D
S3150800F5D0A089ADF8060000220120009003212078BA
S3150800F5E0FFF730FC05493020FFF7E7FF6421201DAF
S3150800F5F0F2F729FF13BD000054260020C92F00206A
S3150800F600A415002072663463652D7A726332302D34
S3150800F610616374696F6E2D6D617070696E672E63B4
S3150800F62000000000494908804FF6FF71884201D161
S3150800F63001207047010A03D14349097808407047F9
S3150800F6400020704770B50C4615461E46FFF7EAFFC0
S3150800F65050B1324629460020F7F786FD24B1BDE8A9
S3150800F66070400020F7F77EBD70BD0CB480B50A4621
S3150800F67002AB002104E00CB480B50A4602AB0121B6
S3150800F680FFF7E0FF01BC5DF80CFB2DE9F041002B0C
S3150800F69004460D46904614BF27A728A7FFF7C2FFC2
S3150800F6A0A0B1002610E0725D39462046FFF7DDFF5F
S3150800F6B0F01006EB10700011A6EB0010062804BF28
S3150800F6C0204600F045F8761C4645ECDBBDE8F0819F
S3150800F6D000B587B0017806913E2241780591817878
S3150800F6E00491C17803910179029141790191817957
S3150800F6F00091C379FFE715480FF268010088FFF704
S3150800F700B4FF07B000BD38B5104D0446288801235C
S3150800F71008222146FFF7B9FF288809A1FFF7A5FFA8
S3150800F72028880123082204F10801FFF7AEFF28887C
S3150800F730BDE8344003A19EE725782000257800001F
S3150800F74020000000000000001415002022170020E9
S3150800F75080B5FFF767FF20B1BDE802400020F4F747
S3150800F760FABB01BD282563292578257825782578CB
S3150800F7702578257825782578000000004148424AF2
S3150800F780016849084900016040480168490849007C
S3150800F790016000213E4801620160012111700021CB
S3150800F7A0C16241627047F8B53A48017846688A19D5
S3150800F7B053781BB38F5D384CC82387B10D256F432B
S3150800F7C0E7600F25002767604FF4805727608C5D38
S3150800F7D0527894FBF5F45A4392FBF4F20AE040F2AD
S3150800F7E09315E56000256560256052785A4302EB5B
S3150800F7F0D2725210891C42800170F1BDBDE8F140F9
S3150800F800BCE7F8B506460C46FFF7B8FF204D0020C2
S3150800F810286500210520A862012068610020E861AA
S3150800F820E86940F44050E8611A4846600170164E8F
S3150800F8303170F3F737F80746124901200860134874
S3150800F840016841F001010160286840F00100286064
S3150800F850FFF7A9FF3846F3F72BF801E0F3F782FD27
S3150800F86030782043FAD0F1BD80B50A4841884A1E4F
S3150800F870428009B9FFF797FF08494FF0FF30086043
S3150800F88001BD000040A80040F014002000E100E09F
S3150800F89000E000402417002020E0004000A80040B7
S3150800F8A080B50FF270410988ADF8001002460221B2
S3150800F8B000A803F00DFB02BD80B50FF25C4212787A
S3150800F8C08DF80020012300AA03F033FB02BD30B5F2
S3150800F8D0DFF8084405468DB0257005F030F800F4C9
S3150800F8E07F41284605F035F8DFF8F4034068202202
S3150800F8F00021F5F736FC0DF10600009001230022E1
S3150800F900A021FF2004F0B7FDA0208DF80C0003AD60
S3150800F9100220287101230DF106000590002202A895
S3150800F9200090A121FF2004F0A6FDA1208DF8180063
S3150800F930012304208DF81C00002202A80890A721A4
S3150800F94001A80090FF2004F096FDA7208DF824005A
S3150800F95003AB02208DF82800002201A828620321A3
S3150800F960032000902078FFF75EFA012000F003F9E3
S3150800F9700DB030BD7FB50646FDF7EAF9DFF85C1332
S3150800F9800C78A04256D1DFF85C23DFF85C53137875
S3150800F990072B0FD100201070FF20087000210020CF
S3150800F9A028700320FCF742FF701E8041C00FFEF747
S3150800F9B000FC7FBD002E3AD1012B11D1A0208DF875
S3150800F9C00400A12101A801AB01710022A72101723F
S3150800F9D00320009003212046FFF720FA02200CE1BD
S3150800F9E0042B17D104F0ABFFC3B2BD484268BF4829
S3150800F9F0806805F10C01019105F12C010091512156
S3150800FA00FEF78EFD05F12C00FEF77FFD20B100F014
S3150800FA10BFF87FBD062B0AD105F10C00FEF775FD70
S3150800FA2010B100F0EDF87FBD00F029F97FBD28463A
S3150800FA30F2F7FEFC7FBD70B58EB0FDF789F9A74CCD
S3150800FA402178814279D1A74D2878022804AE33D18E
S3150800FA5004A8FFF724FB78B39DF81000A02804BF7C
S3150800FA603079002828D107A8FFF719FB20B3307B87
S3150800FA70A12804BF9DF8200000281DD10AA8FFF779
S3150800FA800EFBC8B1307EA72804BF9DF82C000028BD
S3150800FA9012D109990120F9F752FC000646D5A4208F
S3150800FAA08DF8040001AB0120009000222078032184
S3150800FAB0FFF7B4F903201FE0287803281FD104A80C
S3150800FAC0FFF7EDFAD8B19DF81000A42804BF3079E5
S3150800FAD0002814D1A5208DF8040001AB20208DF84C
S3150800FAE008000022814880680390032101200090C5
S3150800FAF02078FFF798F9042000F03DF818E02878F8
S3150800FB00794C052816D100F0C6F898B104F12C00F6
S3150800FB10FEF7FBFC10B100F03BF809E004F10C001D
S3150800FB20FEF7F3FC10B100F06BF801E000F0A7F85F
S3150800FB30012003E02046F2F77BFC00200EB070BDE2
S3150800FB4038B56949654C674D00200870287807283C
S3150800FB5005D02078032300220321FFF73FF9FF2071
S3150800FB60207000210320FCF761FE00202870BDE804
S3150800FB703240FEF71EBB80B55A49087064215A48C0
S3150800FB80F2F761FCBDE8044001210320FCF74EBEF4
S3150800FB9070B5554D84B000240422FF2105F10800F4
S3150800FBA0F5F7DFFA0026F1B205F12C00FEF79CFC0A
S3150800FBB098B1F1B205F12C00FEF78FFC01A9C0201F
S3150800FBC001F8240001A800EB8400468005EB4400F8
S3150800FBD0641CE4B2022C068103D0761CB6B2FF2E52
S3150800FBE0E1DD2CB940F255110FF20410F2F732FF9D
S3150800FBF000F03EF8FFF712F90520FFF7BCFF7FBDBE
S3150800FC0070B588B000240025374EE9B206F10C001D
S3150800FC10FEF76AFCC0B1E9B206F10C00FEF75DFC1E
S3150800FC200C20604301AAC1218154FF2201A946186C
S3150800FC302020758030712946C12004F091FD641C8E
S3150800FC40E4B2022CB06003D06D1CADB2FF2DDBDD33
S3150800FC502CB94FF4BD710FF29800F2F7FBFE00F0D5
S3150800FC6007F8FFF7E0F80620FFF785FF08B070BD34
S3150800FC701A480078009401AB00220321704780B52A
S3150800FC8016480078002300220321FFF7A7F8BDE8ED
S3150800FC90024007206FE73EB50024134800EB4405F1
S3150800FCA04FF6FF712889884212D000A8FFF7F7F9A6
S3150800FCB060B19DF80000C02804BF9DF80400002824
S3150800FCC002BFBDF802002989884201D000203EBD46
S3150800FCD0641CE4B2022CE0DB01203EBD7016002055
S3150800FCE080260020C92F0020202700206826002013
S3150800FCF072663463652D7A726332302D62696E647A
S3150800FD00696E672D6F726967696E61746F722E63AB
S3150800FD100000000001030000030000002DE9F84F71
S3150800FD200549C978042909DB02F09AF940F08000F0
S3150800FD30887102F090B900BF682900200149024A7B
S3150800FD4004E000BF942A0020CC29002014685668D5
S3150800FD5003685B0834BF641E641C26445B0834BF12
S3150800FD60641E641C26445B0834BF641E641C264457
S3150800FD705B0834BF641E641C26445B0834BF641EDB
S3150800FD80641C26445B0834BF641E641C26445B0856
S3150800FD9034BF641E641C26445B0834BF641E641C9E
S3150800FDA026445B0834BF641E641C26445B0834BFC3
S3150800FDB0641E641C26445B0834BF641E641C264407
S3150800FDC05B0834BF641E641C26445B0834BF641E8B
S3150800FDD0641C26445B0834BF641E641C26445B0806
S3150800FDE034BF641E641C26445B0834BF641E641C4E
S3150800FDF026445B0834BF641E641C26445B0834BF73
S3150800FE00641E641C26445B0834BF641E641C2644B6
S3150800FE105B0834BF641E641C26445B0834BF641E3A
S3150800FE20641C26445B0834BF641E641C26445B08B5
S3150800FE3034BF641E641C26445B0834BF641E641CFD
S3150800FE4026445B0834BF641E641C26440E605B08A7
S3150800FE5034BF641E641C26445B0834BF641E641CDD
S3150800FE6026445B0834BF641E641C26445B0834BF02
S3150800FE70641E641C26445B0834BF641E641C264446
S3150800FE805B0834BF641E641C26445B0834BF641ECA
S3150800FE90641C264443685B0834BF641E641C2644FD
S3150800FEA05B0834BF641E641C26445B0834BF641EAA
S3150800FEB0641C26445B0834BF641E641C26445B0825
S3150800FEC034BF641E641C26445B0834BF641E641C6D
S3150800FED026445B0834BF641E641C26445B0834BF92
S3150800FEE0641E641C26445B0834BF641E641C2644D6
S3150800FEF05B0834BF641E641C26445B0834BF641E5A
S3150800FF00641C26445B0834BF641E641C26445B08D4
S3150800FF1034BF641E641C26445B0834BF641E641C1C
S3150800FF2026445B0834BF641E641C26445B0834BF41
S3150800FF30641E641C26445B0834BF641E641C264485
S3150800FF405B0834BF641E641C26444E605B0834BFDD
S3150800FF50641E641C26445B0834BF641E641C264465
S3150800FF605B0834BF641E641C26445B0834BF641EE9
S3150800FF70641C26445B0834BF641E641C26445B0864
S3150800FF8034BF641E641C26445B0834BF641E641CAC
S3150800FF9026445B0834BF641E641C26445B0834BFD1
S3150800FFA0641E641C26445B0834BF641E641C264415
S3150800FFB05B0834BF641E641C26445B0834BF641E99
S3150800FFC0641C26445B0834BF641E641C26445B0814
S3150800FFD034BF641E641C264483685B0834BF641EF1
S3150800FFE0641C26445B0834BF641E641C26445B08F4
S3150800FFF034BF641E641C26445B0834BF641E641C3C
S3150801000026445B0834BF641E641C26445B0834BF5F
S31508010010641E641C26445B0834BF641E641C2644A3
S315080100205B0834BF641E641C26445B0834BF641E27
S31508010030641C26445B0834BF641E641C26445B08A2
S3150801004034BF641E641C26448E605B0834BF641E7C
S31508010050641C26445B0834BF641E641C26445B0882
S3150801006034BF641E641C26445B0834BF641E641CCA
S3150801007026445B0834BF641E641C26445B0834BFEF
S31508010080641E641C26445B0834BF641E641C264433
S315080100905B0834BF641E641C26445B0834BF641EB7
S315080100A0641C26445B0834BF641E641C26445B0832
S315080100B034BF641E641C26445B0834BF641E641C7A
S315080100C026445B0834BF641E641C26445B0834BF9F
S315080100D0641E641C26445B0834BF641E641C2644E3
S315080100E05B0834BF641E641C26445B0834BF641E67
S315080100F0641C26445B0834BF641E641C26445B08E2
S3150801010034BF641E641C26445B0834BF641E641C29
S3150801011026445B0834BF641E641C2644C3685B0816
S3150801012034BF641E641C26445B0834BF641E641C09
S3150801013026445B0834BF641E641C26445B0834BF2E
S31508010140641E641C2644CE605B0834BF641E641CAE
S3150801015026445B0834BF641E641C26445B0834BF0E
S31508010160641E641C26445B0834BF641E641C264452
S315080101705B0834BF641E641C26445B0834BF641ED6
S31508010180641C26445B0834BF641E641C26445B0851
S3150801019034BF641E641C26445B0834BF641E641C99
S315080101A026445B0834BF641E641C26445B0834BFBE
S315080101B0641E641C26445B0834BF641E641C264402
S315080101C05B0834BF641E641C26445B0834BF641E86
S315080101D0641C26445B0834BF641E641C26445B0801
S315080101E034BF641E641C26445B0834BF641E641C49
S315080101F026445B0834BF641E641C26445B0834BF6E
S31508010200641E641C26445B0834BF641E641C2644B1
S315080102105B0834BF641E641C26445B0834BF641E35
S31508010220641C26445B0834BF641E641C26445B08B0
S3150801023034BF641E641C26445B0834BF641E641CF8
S3150801024026440E615B0834BF641E641C26445B08A1
S3150801025034BF641E641C26445B0834BF641E641CD8
S31508010260264403695B0834BF641E641C26445B0884
S3150801027034BF641E641C26445B0834BF641E641CB8
S3150801028026445B0834BF641E641C26445B0834BFDD
S31508010290641E641C26445B0834BF641E641C264421
S315080102A05B0834BF641E641C26445B0834BF641EA5
S315080102B0641C26445B0834BF641E641C26445B0820
S315080102C034BF641E641C26445B0834BF641E641C68
S315080102D026445B0834BF641E641C26445B0834BF8D
S315080102E0641E641C26445B0834BF641E641C2644D1
S315080102F05B0834BF641E641C26445B0834BF641E55
S31508010300641C26445B0834BF641E641C26445B08CF
S3150801031034BF641E641C26445B0834BF641E641C17
S3150801032026445B0834BF641E641C26445B0834BF3C
S31508010330641E641C26445B0834BF641E641C264480
S315080103404E615B0834BF641E641C26445B0834BFD7
S31508010350641E641C26445B0834BF641E641C264460
S315080103605B0834BF641E641C26445B0834BF641EE4
S31508010370641C26445B0834BF641E641C26445B085F
S3150801038034BF641E641C26445B0834BF641E641CA7
S3150801039026445B0834BF641E641C26445B0834BFCC
S315080103A0641E641C264443695B0834BF641E641CCE
S315080103B026445B0834BF641E641C26445B0834BFAC
S315080103C0641E641C26445B0834BF641E641C2644F0
S315080103D05B0834BF641E641C26445B0834BF641E74
S315080103E0641C26445B0834BF641E641C26445B08EF
S315080103F034BF641E641C26445B0834BF641E641C37
S3150801040026445B0834BF641E641C26445B0834BF5B
S31508010410641E641C26445B0834BF641E641C26449F
S315080104205B0834BF641E641C26445B0834BF641E23
S31508010430641C26445B0834BF641E641C26448E6112
S315080104405B0834BF641E641C26445B0834BF641E03
S31508010450641C26445B0834BF641E641C26445B087E
S3150801046034BF641E641C26445B0834BF641E641CC6
S3150801047026445B0834BF641E641C26445B0834BFEB
S31508010480641E641C26445B0834BF641E641C26442F
S315080104905B0834BF641E641C26445B0834BF641EB3
S315080104A0641C26445B0834BF641E641C26445B082E
S315080104B034BF641E641C26445B0834BF641E641C76
S315080104C026445B0834BF641E641C26445B0834BF9B
S315080104D0641E641C26445B0834BF641E641C2644DF
S315080104E05B0834BF641E641C264483695B0834BFF9
S315080104F0641E641C26445B0834BF641E641C2644BF
S315080105005B0834BF641E641C26445B0834BF641E42
S31508010510641C26445B0834BF641E641C26445B08BD
S3150801052034BF641E641C26445B0834BF641E641C05
S3150801053026445B0834BF641E641C2644CE615B08EE
S3150801054034BF641E641C26445B0834BF641E641CE5
S3150801055026445B0834BF641E641C26445B0834BF0A
S31508010560641E641C26445B0834BF641E641C26444E
S315080105705B0834BF641E641C26445B0834BF641ED2
S31508010580641C26445B0834BF641E641C26445B084D
S3150801059034BF641E641C26445B0834BF641E641C95
S315080105A026445B0834BF641E641C26445B0834BFBA
S315080105B0641E641C26445B0834BF641E641C2644FE
S315080105C05B0834BF641E641C26445B0834BF641E82
S315080105D0641C26445B0834BF641E641C26445B08FD
S315080105E034BF641E641C26445B0834BF641E641C45
S315080105F026445B0834BF641E641C26445B0834BF6A
S31508010600641E641C26445B0834BF641E641C2644AD
S315080106105B0834BF641E641C26445B0834BF641E31
S31508010620641C26445B0834BF641E641C2644C369E3
S315080106305B0834BF641E641C26440E625B0834BF23
S31508010640641E641C26445B0834BF641E641C26446D
S315080106505B0834BF641E641C26445B0834BF641EF1
S31508010660641C26445B0834BF641E641C26445B086C
S3150801067034BF641E641C26445B0834BF641E641CB4
S3150801068026445B0834BF641E641C26445B0834BFD9
S31508010690641E641C26445B0834BF641E641C26441D
S315080106A05B0834BF641E641C26445B0834BF641EA1
S315080106B0641C26445B0834BF641E641C26445B081C
S315080106C034BF641E641C26445B0834BF641E641C64
S315080106D026445B0834BF641E641C26445B0834BF89
S315080106E0641E641C26445B0834BF641E641C2644CD
S315080106F05B0834BF641E641C26445B0834BF641E51
S31508010700641C26445B0834BF641E641C26445B08CB
S3150801071034BF641E641C26445B0834BF641E641C13
S3150801072026445B0834BF641E641C26445B0834BF38
S31508010730641E641C26444E625B0834BF641E641C36
S3150801074026445B0834BF641E641C26445B0834BF18
S31508010750641E641C26445B0834BF641E641C26445C
S315080107605B0834BF641E641C26445B0834BF641EE0
S31508010770641C2644036A5B0834BF641E641C264451
S315080107805B0834BF641E641C26445B0834BF641EC0
S31508010790641C26445B0834BF641E641C26445B083B
S315080107A034BF641E641C26445B0834BF641E641C83
S315080107B026445B0834BF641E641C26445B0834BFA8
S315080107C0641E641C26445B0834BF641E641C2644EC
S315080107D05B0834BF641E641C26445B0834BF641E70
S315080107E0641C26445B0834BF641E641C26445B08EB
S315080107F034BF641E641C26445B0834BF641E641C33
S3150801080026445B0834BF641E641C26445B0834BF57
S31508010810641E641C26445B0834BF641E641C26449B
S315080108205B0834BF641E641C26445B0834BF641E1F
S31508010830641C26448E625B0834BF641E641C26440D
S315080108405B0834BF641E641C26445B0834BF641EFF
S31508010850641C26445B0834BF641E641C26445B087A
S3150801086034BF641E641C26445B0834BF641E641CC2
S3150801087026445B0834BF641E641C26445B0834BFE7
S31508010880641E641C26445B0834BF641E641C26442B
S315080108905B0834BF641E641C26445B0834BF641EAF
S315080108A0641C26445B0834BF641E641C26445B082A
S315080108B034BF641E641C2644436A5B0834BF641E45
S315080108C0641C26445B0834BF641E641C26445B080A
S315080108D034BF641E641C26445B0834BF641E641C52
S315080108E026445B0834BF641E641C26445B0834BF77
S315080108F0641E641C26445B0834BF641E641C2644BB
S315080109005B0834BF641E641C26445B0834BF641E3E
S31508010910641C26445B0834BF641E641C26445B08B9
S3150801092034BF641E641C26445B0834BF641E641C01
S315080109302644CE625B0834BF641E641C26445B08E9
S3150801094034BF641E641C26445B0834BF641E641CE1
S3150801095026445B0834BF641E641C26445B0834BF06
S31508010960641E641C26445B0834BF641E641C26444A
S315080109705B0834BF641E641C26445B0834BF641ECE
S31508010980641C26445B0834BF641E641C26445B0849
S3150801099034BF641E641C26445B0834BF641E641C91
S315080109A026445B0834BF641E641C26445B0834BFB6
S315080109B0641E641C26445B0834BF641E641C2644FA
S315080109C05B0834BF641E641C26445B0834BF641E7E
S315080109D0641C26445B0834BF641E641C26445B08F9
S315080109E034BF641E641C26445B0834BF641E641C41
S315080109F026445B0834BF641E641C2644836A5B086C
S31508010A0034BF641E641C26445B0834BF641E641C20
S31508010A1026445B0834BF641E641C26445B0834BF45
S31508010A20641E641C26445B0834BF641E641C264489
S31508010A300E635B0834BF641E641C26445B0834BF1E
S31508010A40641E641C26445B0834BF641E641C264469
S31508010A505B0834BF641E641C26445B0834BF641EED
S31508010A60641C26445B0834BF641E641C26445B0868
S31508010A7034BF641E641C26445B0834BF641E641CB0
S31508010A8026445B0834BF641E641C26445B0834BFD5
S31508010A90641E641C26445B0834BF641E641C264419
S31508010AA05B0834BF641E641C26445B0834BF641E9D
S31508010AB0641C26445B0834BF641E641C26445B0818
S31508010AC034BF641E641C26445B0834BF641E641C60
S31508010AD026445B0834BF641E641C26445B0834BF85
S31508010AE0641E641C26445B0834BF641E641C2644C9
S31508010AF05B0834BF641E641C26445B0834BF641E4D
S31508010B00641C26445B0834BF641E641C26445B08C7
S31508010B1034BF641E641C26445B0834BF641E641C0F
S31508010B2026445B0834BF641E641C26444E635B0876
S31508010B3034BF641E641C26445B0834BF641E641CEF
S31508010B402644C36A5B0834BF641E641C26445B08DA
S31508010B5034BF641E641C26445B0834BF641E641CCF
S31508010B6026445B0834BF641E641C26445B0834BFF4
S31508010B70641E641C26445B0834BF641E641C264438
S31508010B805B0834BF641E641C26445B0834BF641EBC
S31508010B90641C26445B0834BF641E641C26445B0837
S31508010BA034BF641E641C26445B0834BF641E641C7F
S31508010BB026445B0834BF641E641C26445B0834BFA4
S31508010BC0641E641C26445B0834BF641E641C2644E8
S31508010BD05B0834BF641E641C26445B0834BF641E6C
S31508010BE0641C26445B0834BF641E641C26445B08E7
S31508010BF034BF641E641C26445B0834BF641E641C2F
S31508010C0026445B0834BF641E641C26445B0834BF53
S31508010C10641E641C26445B0834BF641E641C264497
S31508010C205B0834BF641E641C26448E635B0834BFAC
S31508010C30641E641C26445B0834BF641E641C264477
S31508010C405B0834BF641E641C26445B0834BF641EFB
S31508010C50641C26445B0834BF641E641C26445B0876
S31508010C6034BF641E641C26445B0834BF641E641CBE
S31508010C7026445B0834BF641E641C26445B0834BFE3
S31508010C80641E641C2644036B5B0834BF641E641C23
S31508010C9026445B0834BF641E641C26445B0834BFC3
S31508010CA0641E641C26445B0834BF641E641C264407
S31508010CB05B0834BF641E641C26445B0834BF641E8B
S31508010CC0641C26445B0834BF641E641C26445B0806
S31508010CD034BF641E641C26445B0834BF641E641C4E
S31508010CE026445B0834BF641E641C26445B0834BF73
S31508010CF0641E641C26445B0834BF641E641C2644B7
S31508010D005B0834BF641E641C26445B0834BF641E3A
S31508010D10641C26445B0834BF641E641C26445B08B5
S31508010D2034BF641E641C2644CE635B0834BF641E4C
S31508010D30641C26445B0834BF641E641C26445B0895
S31508010D4034BF641E641C26445B0834BF641E641CDD
S31508010D5026445B0834BF641E641C26445B0834BF02
S31508010D60641E641C26445B0834BF641E641C264446
S31508010D705B0834BF641E641C26445B0834BF641ECA
S31508010D80641C26445B0834BF641E641C26445B0845
S31508010D9034BF641E641C26445B0834BF641E641C8D
S31508010DA026445B0834BF641E641C26445B0834BFB2
S31508010DB0641E641C26445B0834BF641E641C2644F6
S31508010DC05B0834BF641E641C2644436B5B0834BF4E
S31508010DD0641E641C26445B0834BF641E641C2644D6
S31508010DE05B0834BF641E641C26445B0834BF641E5A
S31508010DF0641C26445B0834BF641E641C26445B08D5
S31508010E0034BF641E641C26445B0834BF641E641C1C
S31508010E1026445B0834BF641E641C26445B0834BF41
S31508010E20641E641C26440E645B0834BF641E641C7D
S31508010E3026445B0834BF641E641C26445B0834BF21
S31508010E40641E641C26445B0834BF641E641C264465
S31508010E505B0834BF641E641C26445B0834BF641EE9
S31508010E60641C26445B0834BF641E641C26445B0864
S31508010E7034BF641E641C26445B0834BF641E641CAC
S31508010E8026445B0834BF641E641C26445B0834BFD1
S31508010E90641E641C26445B0834BF641E641C264415
S31508010EA05B0834BF641E641C26445B0834BF641E99
S31508010EB0641C26445B0834BF641E641C26445B0814
S31508010EC034BF641E641C26445B0834BF641E641C5C
S31508010ED026445B0834BF641E641C26445B0834BF81
S31508010EE0641E641C26445B0834BF641E641C2644C5
S31508010EF05B0834BF641E641C26445B0834BF641E49
S31508010F00641C26445B0834BF641E641C2644836B38
S31508010F105B0834BF641E641C26445B0834BF641E28
S31508010F20641C26444E645B0834BF641E641C264454
S31508010F305B0834BF641E641C26445B0834BF641E08
S31508010F40641C26445B0834BF641E641C26445B0883
S31508010F5034BF641E641C26445B0834BF641E641CCB
S31508010F6026445B0834BF641E641C26445B0834BFF0
S31508010F70641E641C26445B0834BF641E641C264434
S31508010F805B0834BF641E641C26445B0834BF641EB8
S31508010F90641C26445B0834BF641E641C26445B0833
S31508010FA034BF641E641C26445B0834BF641E641C7B
S31508010FB026445B0834BF641E641C26445B0834BFA0
S31508010FC0641E641C26445B0834BF641E641C2644E4
S31508010FD05B0834BF641E641C26445B0834BF641E68
S31508010FE0641C26445B0834BF641E641C26445B08E3
S31508010FF034BF641E641C26445B0834BF641E641C2B
S3150801100026445B0834BF641E641C26445B0834BF4F
S31508011010641E641C26445B0834BF641E641C264493
S315080110208E645B0834BF641E641C26445B0834BFA7
S31508011030641E641C26445B0834BF641E641C264473
S315080110405B0834BF641E641C26445B0834BF641EF7
S31508011050641C2644C36B5B0834BF641E641C2644A7
S315080110605B0834BF641E641C26445B0834BF641ED7
S31508011070641C26445B0834BF641E641C26445B0852
S3150801108034BF641E641C26445B0834BF641E641C9A
S3150801109026445B0834BF641E641C26445B0834BFBF
S315080110A0641E641C26445B0834BF641E641C264403
S315080110B05B0834BF641E641C26445B0834BF641E87
S315080110C0641C26445B0834BF641E641C26445B0802
S315080110D034BF641E641C26445B0834BF641E641C4A
S315080110E026445B0834BF641E641C26445B0834BF6F
S315080110F0641E641C26445B0834BF641E641C2644B3
S315080111005B0834BF641E641C26445B0834BF641E36
S31508011110641C26445B0834BF641E641C2644CE64E2
S315080111205B0834BF641E641C26445B0834BF641E16
S31508011130641C26445B0834BF641E641C26445B0891
S3150801114034BF641E641C26445B0834BF641E641CD9
S3150801115026445B0834BF641E641C26445B0834BFFE
S31508011160641E641C26445B0834BF641E641C264442
S315080111705B0834BF641E641C26445B0834BF641EC6
S31508011180641C26445B0834BF641E641C26445B0841
S3150801119034BF641E641C2644036C5B0834BF641E9A
S315080111A0641C26445B0834BF641E641C26445B0821
S315080111B034BF641E641C26445B0834BF641E641C69
S315080111C026445B0834BF641E641C26445B0834BF8E
S315080111D0641E641C26445B0834BF641E641C2644D2
S315080111E05B0834BF641E641C26445B0834BF641E56
S315080111F0641C26445B0834BF641E641C26445B08D1
S3150801120034BF641E641C26445B0834BF641E641C18
S3150801121026445B0834BF641E641C26440E655B08BD
S3150801122034BF641E641C26445B0834BF641E641CF8
S3150801123026445B0834BF641E641C26445B0834BF1D
S31508011240641E641C26445B0834BF641E641C264461
S315080112505B0834BF641E641C26445B0834BF641EE5
S31508011260641C26445B0834BF641E641C26445B0860
S3150801127034BF641E641C26445B0834BF641E641CA8
S3150801128026445B0834BF641E641C26445B0834BFCD
S31508011290641E641C26445B0834BF641E641C264411
S315080112A05B0834BF641E641C26445B0834BF641E95
S315080112B0641C26445B0834BF641E641C26445B0810
S315080112C034BF641E641C26445B0834BF641E641C58
S315080112D026445B0834BF641E641C2644436C5B08C1
S315080112E034BF641E641C26445B0834BF641E641C38
S315080112F026445B0834BF641E641C26445B0834BF5D
S31508011300641E641C26445B0834BF641E641C2644A0
S315080113105B0834BF641E641C26444E655B0834BFF3
S31508011320641E641C26445B0834BF641E641C264480
S315080113305B0834BF641E641C26445B0834BF641E04
S31508011340641C26445B0834BF641E641C26445B087F
S3150801135034BF641E641C26445B0834BF641E641CC7
S3150801136026445B0834BF641E641C26445B0834BFEC
S31508011370641E641C26445B0834BF641E641C264430
S315080113805B0834BF641E641C26445B0834BF641EB4
S31508011390641C26445B0834BF641E641C26445B082F
S315080113A034BF641E641C26445B0834BF641E641C77
S315080113B026445B0834BF641E641C26445B0834BF9C
S315080113C0641E641C26445B0834BF641E641C2644E0
S315080113D05B0834BF641E641C26445B0834BF641E64
S315080113E0641C26445B0834BF641E641C26445B08DF
S315080113F034BF641E641C26445B0834BF641E641C27
S3150801140026445B0834BF641E641C26445B0834BF4B
S31508011410641E641C26448E655B0834BF641E641C06
S315080114202644836C5B0834BF641E641C26445B082F
S3150801143034BF641E641C26445B0834BF641E641CE6
S3150801144026445B0834BF641E641C26445B0834BF0B
S31508011450641E641C26445B0834BF641E641C26444F
S315080114605B0834BF641E641C26445B0834BF641ED3
S31508011470641C26445B0834BF641E641C26445B084E
S3150801148034BF641E641C26445B0834BF641E641C96
S3150801149026445B0834BF641E641C26445B0834BFBB
S315080114A0641E641C26445B0834BF641E641C2644FF
S315080114B05B0834BF641E641C26445B0834BF641E83
S315080114C0641C26445B0834BF641E641C26445B08FE
S315080114D034BF641E641C26445B0834BF641E641C46
S315080114E026445B0834BF641E641C26445B0834BF6B
S315080114F0641E641C26445B0834BF641E641C2644AF
S315080115005B0834BF641E641C26445B0834BF641E32
S31508011510641C2644CE6514605660DFF8CC0C03685B
S3150801152044688668C7680A68A2EB0405A5EB070B39
S31508011530C1F800B04C68A4EB0307A7EB060BC1F88A
S3150801154004B08B68A3EB0206A6EB050BC1F808B03D
S31508011550CA68A2EB0405A5EB070BC1F80CB00C6928
S31508011560A4EB0307A7EB060BC1F810B04B69A3EB75
S315080115700206A6EB050BC1F814B08A69A2EB0405AD
S31508011580A5EB070BC1F818B0CC69A4EB0307A7EBC9
S31508011590060BC1F81CB00B6AA3EB0206A6EB050BFA
S315080115A0C1F820B04A6AA2EB0405A5EB070BC1F8FE
S315080115B024B08C6AA4EB0307A7EB060BC1F828B085
S315080115C0CB6AA3EB0206A6EB050BC1F82CB00A6B96
S315080115D0A2EB0405A5EB070BC1F830B04C6BA4EBE5
S315080115E00307A7EB060BC1F834B08B6BA3EB020616
S315080115F0A6EB050BC1F838B0CA6BA2EB0405A5EB3F
S31508011600070BC1F83CB00C6CA4EB0307A7EB060B60
S31508011610C1F840B04B6CA3EB0206A6EB050BC1F86B
S3150801162044B08A6CA2EB0405A5EB070BC1F848B0D8
S31508011630CC6CA4EB0307A7EB060BC1F84CB00B6DFA
S31508011640A3EB0206A6EB050BC1F850B04A6DA2EB57
S315080116500405A5EB070BC1F854B08C6DA4EB030781
S31508011660A7EB060BC1F858B0CB6DA3EB0206A6EBA8
S31508011670050BC1F85CB0036044608660C760DFF89B
S315080116806C0BDFF86C2B0FF6C4331768D2F804809D
S31508011690D2F80890D2F80CA01C685D689E68D3F849
S315080116A00CB0D3F810C00CFB0AFA0BFB09AA06FB0F
S315080116B008AA05FB07AAD1F800804FEA081804FB17
S315080116C008AA4FEAAA3A0CFB09F90BFB0A9906FB89
S315080116D0079905FB08994F684FEA071704FB07990D
S315080116E04FEAA9390CFB0AFA0BFB09AA06FB08AA59
S315080116F005FB07AAD1F808804FEA081804FB08AACF
S315080117004FEAAA3AC0F800A00CFB09F90BFB0A99A3
S3150801171006FB079905FB0899CF684FEA071704FBEB
S3150801172007994FEAA9390CFB0AFA0BFB09AA06FB2A
S3150801173008AA05FB07AAD1F810804FEA081804FB86
S3150801174008AA4FEAAA3A0CFB09F90BFB0A9906FB08
S31508011750079905FB08994F694FEA071704FB07998B
S315080117604FEAA939C0F804900CFB0AFA0BFB09AA3F
S3150801177006FB08AA05FB07AAD1F818804FEA08183C
S3150801178004FB08AA4FEAAA3A0CFB09F90BFB0A99CA
S3150801179006FB079905FB0899CF694FEA071704FB6A
S315080117A007994FEAA9390CFB0AFA0BFB09AA06FBAA
S315080117B008AA05FB07AAD1F820804FEA081804FBF6
S315080117C008AA4FEAAA3AC0F808A00CFB09F90BFBCC
S315080117D00A9906FB079905FB08994F6A4FEA071705
S315080117E004FB07994FEAA9390CFB0AFA0BFB09AA6C
S315080117F006FB08AA05FB07AAD1F828804FEA0818AC
S3150801180004FB08AA4FEAAA3A0CFB09F90BFB0A9949
S3150801181006FB079905FB0899CF6A4FEA071704FBE8
S3150801182007994FEAA939C0F80C900CFB0AFA0BFB89
S3150801183009AA06FB08AA05FB07AAD1F830804FEAD0
S31508011840081804FB08AA4FEAAA3A0CFB09F90BFB8C
S315080118500A9906FB079905FB08994F6B4FEA071783
S3150801186004FB07994FEAA9390CFB0AFA0BFB09AAEB
S3150801187006FB08AA05FB07AAD1F838804FEA08181B
S3150801188004FB08AA4FEAAA3AC0F810A00CFB09F90A
S315080118900BFB0A9906FB079905FB0899CF6B4FEADB
S315080118A0071704FB07994FEAA9390CFB0AFA0BFB40
S315080118B009AA06FB08AA05FB07AAD1F840804FEA40
S315080118C0081804FB08AA4FEAAA3A0CFB09F90BFB0C
S315080118D00A9906FB079905FB08994F6C4FEA071702
S315080118E004FB07994FEAA939C0F814900CFB0AFAC8
S315080118F00BFB09AA06FB08AA05FB07AAD1F848802B
S315080119004FEA081804FB08AA4FEAAA3A0CFB09F998
S315080119100BFB0A9906FB079905FB0899CF6C4FEA59
S31508011920071704FB07994FEAA9390CFB0AFA0BFBBF
S3150801193009AA06FB08AA05FB07AAD1F850804FEAAF
S31508011940081804FB08AA4FEAAA3AC0F818A00CFB23
S3150801195009F90BFB0A9906FB079905FB08994F6DCF
S315080119604FEA071704FB07994FEAA9390CFB0AFA4C
S315080119700BFB09AA06FB08AA05FB07AAD1F858809A
S315080119804FEA081804FB08AA4FEAAA3A0CFB09F918
S315080119900BFB0A9906FB079905FB0899CF6D4FEAD8
S315080119A0071704FB07994FEAA939C0F81C90176075
S315080119B0C2F80480C2F80890C2F80CA0DFF834080F
S315080119C00078012800F0DB81C0F07482032800F05A
S315080119D0A080C0F03981042840F06C82DFF80C0839
S315080119E0DFF81418DFF81428D1F80080D1F804902C
S315080119F0D1F808A0D1F80CB0136854689568D66870
S31508011A00176907FB0BFB06FB0ABB05FB09BB04FBB6
S31508011A1008BBD0F8009003FB09BB4FEAAB3BC0F803
S31508011A2000B007FB0AFA06FB0BAA05FB08AA04FB8A
S31508011A3009AAD0F8048003FB08AA4FEAAA3AC0F813
S31508011A4004A007FB0BFB06FB0ABB05FB09BB04FB52
S31508011A5008BBD0F8089003FB09BB4FEAAB3BC0F8BB
S31508011A6008B007FB0AFA06FB0BAA05FB08AA04FB42
S31508011A7009AAD0F80C8003FB08AA4FEAAA3AC0F8CB
S31508011A800CA007FB0BFB06FB0ABB05FB09BB04FB0A
S31508011A9008BBD0F8109003FB09BB4FEAAB3BC0F873
S31508011AA010B007FB0AFA06FB0BAA05FB08AA04FBFA
S31508011AB009AAD0F8148003FB08AA4FEAAA3AC0F883
S31508011AC014A007FB0BFB06FB0ABB05FB09BB04FBC2
S31508011AD008BBD0F8189003FB09BB4FEAAB3BC0F82B
S31508011AE018B007FB0AFA06FB0BAA05FB08AA04FBB2
S31508011AF009AAD0F81C8003FB08AA4FEAAA3AC0F83B
S31508011B001CA0C1F80080C1F80490C1F808A0C1F86A
S31508011B100CB0DFF8D806DFF8E816DFF8E826D1F8C2
S31508011B200080D1F80490D1F808A0D1F80CB0136858
S31508011B3054689568D668176907FB0BFB06FB0ABB51
S31508011B4005FB09BB04FB08BBD0F8009003FB09BBE6
S31508011B504FEAAB3BC0F800B007FB0AFA06FB0BAA33
S31508011B6005FB08AA04FB09AAD0F8048003FB08AA06
S31508011B704FEAAA3AC0F804A007FB0BFB06FB0ABB0F
S31508011B8005FB09BB04FB08BBD0F8089003FB09BB9E
S31508011B904FEAAB3BC0F808B007FB0AFA06FB0BAAEB
S31508011BA005FB08AA04FB09AAD0F80C8003FB08AABE
S31508011BB04FEAAA3AC0F80CA007FB0BFB06FB0ABBC7
S31508011BC005FB09BB04FB08BBD0F8109003FB09BB56
S31508011BD04FEAAB3BC0F810B007FB0AFA06FB0BAAA3
S31508011BE005FB08AA04FB09AAD0F8148003FB08AA76
S31508011BF04FEAAA3AC0F814A007FB0BFB06FB0ABB7F
S31508011C0005FB09BB04FB08BBD0F8189003FB09BB0D
S31508011C104FEAAB3BC0F818B007FB0AFA06FB0BAA5A
S31508011C2005FB08AA04FB09AAD0F81C8003FB08AA2D
S31508011C304FEAAA3AC0F81CA0C1F80080C1F804907E
S31508011C40C1F808A0C1F80CB0DFF8A005DFF8B8158F
S31508011C50DFF8B825D1F80080D1F80490D1F808A0AA
S31508011C60D1F80CB0136854689568D668176907FBEC
S31508011C700BFB06FB0ABB05FB09BB04FB08BBD0F83B
S31508011C80009003FB09BB4FEAAB3BC0F800B007FB6A
S31508011C900AFA06FB0BAA05FB08AA04FB09AAD0F84F
S31508011CA0048003FB08AA4FEAAA3AC0F804A007FB76
S31508011CB00BFB06FB0ABB05FB09BB04FB08BBD0F8FB
S31508011CC0089003FB09BB4FEAAB3BC0F808B007FB1A
S31508011CD00AFA06FB0BAA05FB08AA04FB09AAD0F80F
S31508011CE00C8003FB08AA4FEAAA3AC0F80CA007FB26
S31508011CF00BFB06FB0ABB05FB09BB04FB08BBD0F8BB
S31508011D00109003FB09BB4FEAAB3BC0F810B007FBC9
S31508011D100AFA06FB0BAA05FB08AA04FB09AAD0F8CE
S31508011D20148003FB08AA4FEAAA3AC0F814A007FBD5
S31508011D300BFB06FB0ABB05FB09BB04FB08BBD0F87A
S31508011D40189003FB09BB4FEAAB3BC0F818B007FB79
S31508011D500AFA06FB0BAA05FB08AA04FB09AAD0F88E
S31508011D601C8003FB08AA4FEAAA3AC0F81CA0C1F8CE
S31508011D700080C1F80490C1F808A0C1F80CB0DFF8DA
S31508011D806C04DFF88C14DFF88C24D1F80080D1F8C4
S31508011D900490D1F808A0D1F80CB013685468956876
S31508011DA0D668176907FB0BFB06FB0ABB05FB09BBD4
S31508011DB004FB08BBD0F8009003FB09BB4FEAAB3B19
S31508011DC0C0F800B007FB0AFA06FB0BAA05FB08AA2E
S31508011DD004FB09AAD0F8048003FB08AA4FEAAA3A29
S31508011DE0C0F804A007FB0BFB06FB0ABB05FB09BBF6
S31508011DF004FB08BBD0F8089003FB09BB4FEAAB3BD1
S31508011E00C0F808B007FB0AFA06FB0BAA05FB08AAE5
S31508011E1004FB09AAD0F80C8003FB08AA4FEAAA3AE0
S31508011E20C0F80CA007FB0BFB06FB0ABB05FB09BBAD
S31508011E3004FB08BBD0F8109003FB09BB4FEAAB3B88
S31508011E40C0F810B007FB0AFA06FB0BAA05FB08AA9D
S31508011E5004FB09AAD0F8148003FB08AA4FEAAA3A98
S31508011E60C0F814A007FB0BFB06FB0ABB05FB09BB65
S31508011E7004FB08BBD0F8189003FB09BB4FEAAB3B40
S31508011E80C0F818B007FB0AFA06FB0BAA05FB08AA55
S31508011E9004FB09AAD0F81C8003FB08AA4FEAAA3A50
S31508011EA0C0F81CA0C1F80080C1F80490C1F808A0C8
S31508011EB0C1F80CB0CD48D8490FF2A4320D684E6866
S31508011EC013685468D2F8088008FB06F604FB056611
S31508011ED0056803FB05664FEAA63606EB860707F390
S31508011EE00F07076008FB06F604FB0566456803FB52
S31508011EF005664FEAA63606EB860707F30F0747601E
S31508011F0008FB06F604FB0566856803FB05664FEACA
S31508011F10A63606EB860707F30F07876008FB06F662
S31508011F2004FB0566C56803FB05664FEAA63606EB9C
S31508011F30860707F30F07C76008FB06F604FB056665
S31508011F40056903FB05664FEAA63606EB860707F31E
S31508011F500F07076108FB06F604FB0566456903FBDF
S31508011F6005664FEAA63606EB860707F30F074761AC
S31508011F7008FB06F604FB0566856903FB05664FEA59
S31508011F80A63606EB860707F30F07876108FB06F6F1
S31508011F9004FB0566C56903FB05664FEAA63606EB2B
S31508011FA0860707F30F07C7610D604E600024682591
S31508011FB09A4E9B4F00F051F880784978084312D120
S31508011FC000F04BF8007989796843815580193946BB
S31508011FD0401C02F009FD00F043F8401C00F07F00A8
S31508011FE088710420887000F038F8007800010870BC
S31508011FF039468C4800EB8400406F00B202F0B2FC0F
S315080120008849884A09780843864908704978491CE5
S315080120105170C9B202291BDB0021517011468A7819
S31508012020097905FB0163D054501C7E4A9070C0B2F1
S3150801203068280DDB00209070D078401CD070481CB1
S31508012040C0B20428A8BF002010717748F0F7F0F94C
S31508012050641C082CAED3BDE8F18F724871497047EC
S315080120607048704980797047F8B5704C704D26688C
S315080120706C4FB00508D507F19400FDF74FFE4FF4F4
S315080120800070206001202860700508D507F1E0007E
S31508012090FDF744FE4FF48060206002202860F1BD00
S315080120A038B5644D5F4C2868208200F024F844F660
S315080120B04410286004F194015F48604A016004F104
S315080120C0DE01416004F1E001816004F59571C160AA
S315080120D00021816509210166002141663F2181654B
S315080120E0022141654FF4C06111604021544A1160D3
S315080120F00321016331BD10B54A4C002020723021FD
S315080121004B4801600021416240204E490860002188
S31508012110464801644FF6FF71016040204A4908604C
S3150801212000210020A06660662162E161A16161610A
S315080121302163E162A16261622164E163A163616372
S315080121402165E164A16461642166E165A165616552
S315080121502167E1662448C16081604160016004F538
S31508012160C67002F03DFC00206070A070607120719D
S31508012170E070A0712F49208A086010BD31494020BE
S31508012180086028492E48CA781AB9402101600020FA
S3150801219070474022026068224979204802FB010003
S315080121A0704738B51F4C00202072FFF7E7FF244D12
S315080121B00BE0401EE070491C4020C9B20429286082
S315080121C0A8BF00216171FFF7D9FF60B16821FBF74C
S315080121D010F81C4940200860E07861790028E8D1A8
S315080121E040202860EEE731BDF82A0020DC290020CE
S315080121F07C290020C45A0108BC290020045B010877
S31508012200AC290020F05A01089C290020DC5A010853
S315080122108C290020C85A0108D4290020102B002037
S31508012220F42A002068290020702900200CA8004003
S3150801223030C0004000B0004000C000404CA800403B
S3150801224000E100E080E100E080E200E0070800002C
S315080122500E10000007080000A73300003DECFFFF41
S315080122600D3E0000F3C1FFFF1A3C000051E0DFF804
S315080122708013FF2008707047F0B585B004460E46F6
S3150801228015461F46FDF766F818B30B9B0C9A0D9970
S31508012290022810D10A9803910292019300903B46B5
S315080122A02A463146204600F0A3F890B100F031F8ED
S315080122B0002005B0F0BD66B9039100200292019392
S315080122C00090014600232A46204600F091F800288E
S315080122D0ECD17020EDE770B504460D461646FDF7BC
S315080122E039F8C3490A78A24201BF0A79AA424A794A
S315080122F0B2420CD10228CA880CBF04980020824237
S3150801230005D10020487000F004F8002070BD702047
S3150801231070BDF0B5A1B0F0F7CFFAB54D002129741B
S31508012320FF2429780026FF2901D101260BE06A78C6
S31508012330022A05D1AA89801A80B2B0F5004FF4DCC9
S315080123400C46FF2C04D1B8210FF2A820F0F782FB26
S315080123502046FCF7FFFF022822D1002704A92046C0
S3150801236000F0DBF8B8B92878A04206D1687820B120
S3150801237005A9002000F0ABF807460020039005A840
S31508012380019006200090029700229DF81030032143
S315080123902046FCF7FCFD2878A04207D1002003E07F
S315080123A0304600F0CCF8304600F004F800F0FBF8AF
S315080123B021B0F0BD70B505018D4EAC1960780128C4
S315080123C008BF022007D0032807D1A85DFCF7C2FF82
S315080123D0012802D10020607005E06078002812BF4C
S315080123E00328FF20A855F0F767FA6430A08170BD6D
S315080123F02DE9FE4F82460E4693464FF0FF08FF240D
S31508012400F0F75AFA81465046FCF7A4FF784D2A7828
S315080124100C99FF2A08BF0024524504BF2A79B24203
S3150801242006D16A795A4502BFEA888A42002401D050
S31508012430FF2C2CD02201009202F805A0009A571908
S3150801244002283E7187F805B0F9809DF80810B97021
S315080124500D99B9600E99F9701CD1012601A950464A
S3150801246000F05BF870B92878504504D1002000F0D7
S3150801247022F8461CF6B29DF804105046FAF794F96C
S31508012480B0420CD2009800F8058000F08CF80020C4
S31508012490BDE8FE8F0529A4BF009800F80580FF2C2A
S315080124A0F5D0A7F80C900F98002814BF0320012037
S315080124B078700120ECE74E4901EB0010C188C0781D
S315080124C000290CBF042106214018C0B2704710B577
S315080124D004460846464901EB04114A788B7842EAD4
S315080124E0031200F8012BCA7800F8012B0A7900F8C3
S315080124F0012B4A7900F8012BCA882AB100F8012B69
S31508012500CA88120A00F8012BCA7812B18968F2F74B
S31508012510E5FD2046BDE81040CDE710B58CB00C4668
S3150801252000A9FAF739FB40B90C2020709DF82E0056
S31508012530C0075CBF1C20207000200CB010BDFEB582
S3150801254005012B4EA85D0224FF2805D140F2C511CD
S315080125500FF2A000F0F77EFAAF197878012814BFB8
S315080125600328012002D0022818BF03208DF8040091
S3150801257078798DF80500FA7862B19DF8040001288A
S3150801258018BF022806D1B9680DF10600F2F7A6FDB3
S31508012590F878841C00200090E3B2A85D01AA012105
S315080125A0FAF714FBFEBD80B5F0F786F9104A1378E1
S315080125B09189FF2B0BD0431A9BB2B3F5004F0ADD65
S315080125C0091A4FF6FF7089B2814200D002D1002064
S315080125D0107401BD29B9BDE8024002F11000EFF7F8
S315080125E027BF02F11000BDE80440EFF72CBF000039
S315080125F07C27002072663463652D7A726332302D2A
S31508012600636F6D6D616E64732D6F726967696E6153
S31508012610746F722E6300000010B5044605E04FF68C
S31508012620FF70F0F7D5F891480419B4F5803FF6D252
S31508012630A0B2BDE81040F0F7CBB82DE9F3479DF8F5
S31508012640040000284FF000087CD0DFF824A2009D82
S315080126509AF80100874F884C396941F04001396180
S31508012660002800F071F818BF4FF00408396007D048
S31508012670BAF804000C214843001DC008401E00E0BA
S315080126800120A0610321A069DFF8F091B0FBF1F008
S315080126902062206840F001002060002D14BF2978CF
S315080126A0002139F8210009EB8101800049888E0053
S315080126B0F8B10146404588BF4146401A052105281B
S315080126C098BF0146401A9AF8011049B1216841F0AC
S315080126D001012160396821F4706141F4106105E056
S315080126E0F96841F04001F96000F02EF83960FFF70A
S315080126F093FFA6B108EB06000621062898BF0146F6
S31508012700461A9DF80400012804D1BA20BA2E98BFAA
S315080127103046361A00F01EF83046FFF77DFF05B140
S315080127206D1C9DF80400401E8DF80400C0B20028F7
S31508012730B3D100F00FF800202062A061206840F0B4
S3150801274001002060BDE8F387396821F4706141F41E
S3150801275080717047386940F040003861386820F464
S31508012760706040F4807038607047F0B544498C7EDB
S31508012770D1E90223002C1CBF0C7F002C0ED001EBE3
S31508012780C4040026A569247F06E0CF7E16F805C095
S31508012790F719761C07F802C0A642F6DBC0E9002342
S315080127A0F0BD10B53248354A002101608180002309
S315080127B03348017622F8213002EB8104491C10299D
S315080127C06380F7DB00210A4640F8312000EBC1039C
S315080127D0491C03291A71F7DB427682762948016872
S315080127E0490849000160026280210160826068210E
S315080127F08161012101628262C262426322490A64DD
S315080128000A60416941F001014161016841F0010134
S31508012810016010BD00B51A48017983B0002919BFB6
S31508012820D0E90023CDE9002300A8FFF79EFF04E0C5
S3150801283000B583B000A8FFF798FFDDE9000103B0F2
S315080128405DF804EBF9E60E4AD2E90401F5E60C490E
S315080128500020087770470A48017F827E22B1491C09
S31508012860C9B28A4238BF0021017770470100FFFFCC
S315080128704418002004B4004014E000404C1800201D
S315080128808C18002000E0004000A8004010B5002385
S3150801289002E001F8014B5B1CDBB2934208D2DC076C
S315080128A047BF10F8014B04F00F0404782409F0E738
S315080128B010BD2DE9F84304460025E07960B11128D9
S315080128C00ADA2178A0780A0601D528B900E018B1F4
S315080128D0480603D5207908B900208DE0E14801F0C2
S315080128E0010181F00101017000222178890801F0B6
S315080128F0010141702178490801F00101817061786F
S3150801290001F00F01C170B4F80510818004F10800C7
S31508012910D54906E021F8226001EB8206521C738034
S31508012920D2B2E3799A4211DA00EB820310F82270E7
S315080129305E7807EB0626DF789B7803EB07239BB2C5
S31508012940B6B29E42B4BF9B1B0023E3E700EB8306A6
S315080129500020C64F002147F8301007EBC0030119C4
S31508012960401C8A781A7189784D190328F2DBDFF839
S315080129700083C146EAB241463046FFF787FF207811
S31508012980000648BFC7F8088006D4C7F80080A078B3
S3150801299000EB0809C7F80890E07821784844490609
S315080129A048BF386121790F182178681C00EBD0706F
S315080129B0090706EB60001ED510F8011BAD4AAE4C9F
S315080129C0AE4E11700321217010F8011B317001EB15
S315080129D04102D2B23946FFF759FF3178A84A002099
S315080129E006E002EBC003197142F83070401CCF199A
S315080129F023789842F5DB2846BDE8F283F8B5044604
S31508012A001646A6F134001D280D4601D30020F2BD55
S31508012A10502200212046F2F7A4FB2F7895F808C02A
