S01A00004861436F6C6F72436F6E74726F6C4C696768742E73333759
S31508004000E86A0020C17A02088D550208915502080F
S31508004010A70A080100410008040C03AC50545604D2
S315080040200000000000000000000000000000000082
S315080040300000000000000000000000000000000072
S315080040400000000000000000FFFFFFFFFFFFFFFF6A
S31508004050FFFFFFFF0008040801000000002804080D
S31508004060FFFFFFFFFFFFFFFFFFFFFFFFFFFFFFFF52
S31508004070FFFFFFFFFFFFFFFFFFFFFFFFFFFFFFFF42
S31508004080F07F002000000000EA7F0020EA7F002081
S31508004090E86A002064F20208367D0208886100207A
S311080040A0540D00200028040800800020B1
S31508004100E86A0020C17A02088D550208915502080E
S3150800411099550208955502089D5502085C570208EC
S315080041205C5702085C5702085C5702085C5702088D
S31508004130A15502085C5702085C570208F95D000899
S31508004140655102085C570208379300085C57020855
S315080041502B9C0008299200085C5702085C57020845
S31508004160FF84000849530008514E00089141000891
S315080041705C5702085C5702085C5702085C5702083D
S3150800418045DD00085C5702085C5702085D570208BF
S3150800419070B52C482C4942780B685B0725D5032A4D
S315080041A023DA838800EB4204A3810123847803FA87
S315080041B002F222438270254C0278002A12D000258A
S315080041C022FA05F6F60708D5AB4045705A40027044
S315080041D010EB4500808A206007E06D1CEDB2032DC8
S315080041E0EEDB02E02260032242704FF6FF700860A1
S315080041F0BFF35F8F70BD13480021017000220321B1
S3150800420041700021C1700521018100218170001DC6
S315080042100E490A604A604FF400428A601022CA605A
S315080042204861012088610320C860042106480164AA
S315080042304FF6FF7101604FF400600549086000F011
S3150800424045B800009070002010A8004004E0004027
S3150800425000E100E0DFF8143533F810001040C840DC
S31508004260704730B50FF2C854DFF8043534F81040FB
S315080042709C601140DFF8F44434F810509543294304
S31508004280D96002221A6000221A6024F810105868B1
S315080042900028FCD130BDDFF8DC24DFF8DC04127816
S315080042A0DFF8D8140AB149780EE0895611F1090FDA
S315080042B0B8BF302108DBC16D39B1C26D40F24A3151
S315080042C0B1FBF2F189B2C91E01607047E0B5DFF8AB
S315080042D0B00401880A2300F064F8BDF806104FF60A
S315080042E0FF720D20FFF7BDFF07BDF8B50546B5F50A
S315080042F0004FDFF8884419D1DFF8880401880223C3
S3150800430000F04FF8BDF80000000AFF2814BF002887
S3150800431018206070BDF800000006C00E10281CBFEB
S31508004320001D00F0B3F9BDF80000C543DFF844648A
S31508004330707808B1002005E0A089ADB26840C007D2
S3150800434001D501207070DFF84004A58105F001044D
S31508004350016841F400410160C5F340070FF2F440DB
S3150800436000EB44004FF440524078010389B2022022
S31508004370FFF777FF204600F06FFA4022B90100F0F8
S3150800438021FA2D06A80E00F0010038433070FFF719
S3150800439082FF707818B1FFF799FF0020707000202F
S315080043A0F2BD7F2200A800F0CDBAA0F10B02A0F161
S315080043B00B01102A89B201D38A207047012202FA1A
S315080043C001F1DFF8C82353880B4353800123137088
S315080043D09388194391800021DFF8B423117046E1D0
S315080043E02DE9F04FDFF8AC43207887B0042304901A
S315080043F00B210B38C0B2039000A8039A00F060FBAB
S315080044009DF800008DF80A009DF801008DF8090056
S315080044109DF802008DF808009DF803008DF8050048
S31508004420DFF874030078012804D16078451EAD4191
S31508004430ED0F00E0012500F0D6FD83469DF9020048
S315080044400399D24F0BF10A0AABF10A065045B6BFDB
S3150800445086424FF001084FF0000801208840ADF869
S3150800446006009DF80100000604D47888BDF80610F9
S31508004470084201D04FF0010800F026FE9DF803001F
S3150800448000060AD4B888BDF80610084205D19DF979
S3150800449000005045B8BF864202DB4FF0010901E033
S315080044A04FF0000948EA050059EA000000F09E802E
S315080044B0DFF8E8A2BA49DAF8000000F002008DF841
S315080044C00400B848006800F4E06005904FF4E06026
S315080044D00860002001F00EFA01F013FDB24EADB1EE
S315080044E0607858B1DAF80000AB4940084000CAF8CD
S315080044F000000120087001F0E9FD07E0306840F48B
S3150800450000503060306820F480503060A24800784F
S3150800451001280DD101F026FFDAF800009E4940F087
S315080045200100CAF8000000200870642001F0CEFDE2
S315080045302DB1607818B90498C0B201F0D6FF60783A
S3150800454038B1306820F480503060306840F400504C
S315080045503060BDF80600C543B8F1000F08D002F078
S31508004560AFF88DF801008DF802B078882840788079
S31508004570B9F1000F08D002F054F98DF803008DF850
S3150800458000B0B8882840B8809DF900009DF90A1047
S31508004590884202BF9DF801009DF8091088420BD198
S315080045A09DF902009DF90810884202BF9DF8030094
S315080045B09DF80510884206D00399042300AAC9B2BB
S315080045C00B2000F0A4FA05987649086000F0D8FA9E
S315080045D09DF8040001F08EF902F043FA607828B1DC
S315080045E048F260703060642001F070FD9DF80100AB
S315080045F001F0D2FF9DF8030002F00EF907B0BDE8FE
S31508004600F08F80B500F0E2FCBDE80140E8E600F076
S31508004610DDBC70B50646A6F10B0401F083F8054625
S31508004620A6F10B00102801D38A2070BD5F48816867
S31508004630090702D40068C00701D58C2070BD55480B
S3150800464006705B4801680C290FD00FF27C11594A95
S3150800465092F90020A4B231F824105118C161FFF76D
S31508004660BFFE012D08BF00F0FEFF002070BD10B58B
S31508004670044600F0ABFC2046BDE81040C9E74548B3
S31508004680007870473D4890F9000070472DE9F041E1
S31508004690044614F12B0F86B045DB474801881423DE
S315080046A0FFF77FFEBDF810004FF6FF71884203D072
S315080046B0400448BF012606D43F2200211020FFF7F8
S315080046C0C9FD0546002604F12B022F2A2B483B4933
S315080046D01AD213220FF2301300E0521ED2B213F987
S315080046E01270BC42F9DB03EB4204032764780C60C2
S315080046F0002413F81210017000208046AEB1BDF8F0
S3150800470010104FF6BF7229E0092C0CDA225C0A60F9
S31508004710047014232A480188FFF743FE0124032066
S31508004720A0462827EAE78B201DE0C1024FF4605215
S3150800473000F048F84FF4E062210200F043F88022C6
S315080047404FEAC81100F03EF885F020003D18ADB2DA
S31508004750402DA8BF3F253F2285F0200100F032F802
S31508004760FFF799FD002006B0BDE8F081987B002090
S31508004770E8100040BD7F002064100040E06F002074
S315080047808AEC020898EC02081C100040787F00208A
S31508004790D87F0020DB6F00204E700020802000406C
S315080047A080E100E000E100E0D01000406020004019
S315080047B0AC100040BC7F002086EC0208C010004008
S315080047C088EC02080B204CE5AA212900552329006C
S315080047D000252800AA26270055282700002A260093
S315080047E0AA2B2600552D2500002F2400AA302400C8
S315080047F05532230000342200AA35220055372100FD
S3150800480000392000AA3A2000D500E601EC02EF03A1
S31508004810F204F405F506F707F808F909FA0AFB0B96
S31508004820FC0DFD0FFE11FF1300160119021C031FD4
S3150800483010001100200030004000410050006000C8
S31508004840700080009000A000B000C000D000E0001A
S31508004850F000000000000103F0B5044689B000200E
S3150800486001F0CCFB264801880A237F2200A800F025
S3150800487069F8BDF802004FF6FF75A84204D1DC219D
S315080048800FF2940002F026F90FF2A407002601E0C1
S315080048902A4616B94FF47C4203E0022E08BF4EF2B0
S315080048A03F0200A800F032F8761C052EF0D3012C42
S315080048B003D114237F22134802E014237F221248CF
S315080048C0018803A800F03EF800260FF26C072A4676
S315080048D008E02A46012E08BF4FF6C07202D0082EFD
S315080048E008BF002203A800F011F8761C0A2EF0D3A0
S315080048F0012C04BF012001F081FB09B0F0BD0000C6
S315080049008AEC020888EC020886EC020830F81610D1
S31508004910F05DFFF7A6BC0000616E616C6F67756598
S315080049202D63656C6C2D626961732E63000000004F
S3150800493000100C0D0E000000010203040708090A06
S315080049400B0F000030B5044610467F2808BF00202C
S31508004950B1F5004F83B01AD108237F2240F6120121
S3150800496000A8FFF7EFFF08220FF2C40100A802F023
S31508004970F9F930B908237F2240F2A27100A8FFF79F
S31508004980E1FF082200A9204602F0A2F937BD204D12
S31508004990294300FB03111A46204602F099F937BD50
S315080049A02DE9F0440C461A490FF2780A41EA000646
S315080049B0C007154602D5622100F030F8E80702D58F
S315080049C0632100F02BF81348864204D3A819401E29
S315080049D01149884202D3642100F020F8002706E036
S315080049E0B85DFF2802D06B2100F018F87F1CAF4293
S315080049F0F6D36A082146304602F01EFA28B1504618
S31508004A00BDE8F044712102F065B8BDE8F084000005
S31508004A10000008080008080800100808504602F0B8
S31508004A2059B800006D66672D746F6B656E2E63004E
S31508004A30FFFFFFFFFFFFFFFF30B50FF24011DFF862
S31508004A4028510A6883B001A8002402600120287052
S31508004A50002002F035FA30B1002002F031FA10B128
S31508004A602C7049203EBDDFF80401018802237F220D
S31508004A700DF1020000F024F802237F22002100A88D
S31508004A8000F01EF8204601A9BDF8022031F81010E2
S31508004A90914208BF0124401C0228F4D3BDF8000047
S31508004AA024B1B0F57F7F07D100203EBDB0F57F7FEA
S31508004AB00CBF0620042000E00720002129703EBD17
S31508004AC010B5FF2908DCDFF8A040247844B1BDE81A
S31508004AD01040C9B202F027BDBDE81040FFF732BF4B
S31508004AE010BD10B5FF2908DCDFF87C4024786CB1CE
S31508004AF0BDE81040C9B202F052BD7F2A08BF0022A5
S31508004B00DFF86C40214302FB0311016010BD2DE95B
S31508004B10F0410546FF2D0E46174698460FF25400FB
S31508004B2013DCDFF844402178A1B1617811B1C221C4
S31508004B3001F0D0FF01206070434632463946E8B29C
S31508004B4002F06CFE0020607004E0BDE8F041CD2163
S31508004B5001F0C0BFBDE8F081DFF80C100978002924
S31508004B6018BF02F05EBF7047B77F002092EC0208BC
S31508004B7000000808746F6B656E2E6300FE01FD0267
S31508004B8010B5DFF8F4441020206302F0FDFFDFF8CB
S31508004B90EC140A6842F001020A6002F0FBFFDFF833
S31508004BA0E00400F108016160216092306168893192
S31508004BB0616001212163E060A060DFF8C814E06845
S31508004BC08930E060022020634FF6FF70086010BD50
S31508004BD0DFF8B40445F26401C1601E214162502128
S31508004BE00162C821C1618165F021C16545F6900160
S31508004BF04166882181660621C16644F20661016024
S31508004C004FF6FF714160DFF88404007838B1DFF8A9
S31508004C10800448F2607101604FF4C1514160DFF8C9
S31508004C207404016841F0040101600020DFF868148B
S31508004C30487070472DE9F04FDFF844148A2283B094
S31508004C4002FB0012083200920427521C04465378CD
S31508004C50127802EB0325ADB205F44063B3F5006F95
S31508004C6005F440424FF000094FF0010A08BF082733
S31508004C7003D0B3F5406F08BF0E271AB16B065CBFA9
S31508004C80BB1CDFB2DFF814341B784B704018019058
S31508004C90A806019981F8029064D5DFF80464706E5D
S31508004CA000065FD500983818B2F5404F4FF4806B70
S31508004CB04FF4006807D102F0BEFF5FEA000947D04B
S31508004CC007F1080019E0B2F5004F41D10099407884
S31508004CD0795C01EB002080B203F02AFAFF2808BFAE
S31508004CE0CA4609D0DFF8BC13096831F810004FF43A
S31508004CF0FE6108422CD0D146B81CC0B2410805F066
S31508004D000702032A24D1002C14BF726832688A422B
S31508004D101ED3002C14BF726832684B1C9A42F8D313
S31508004D200099405C042813D1BAF1000F02D0B9F1FA
S31508004D30000F0DD0F06DC00606D400F015F803D0AC
S31508004D40706C40F00100706401200199887009E0D8
S31508004D50F06DC00606D500F007F803D0706C400861
S31508004D6040007064BDE8F78FB06C04B1C34610EA22
S31508004D700B0F70472DE9F04E0446C14EDFF820535D
S31508004D808A2000FB046000F1080B002C0CBF286881
S31508004D906868C1B2052903DA7068401C706055E07E
S31508004DA040005FFA80F909EB0B00A0F10807387894
S31508004DB0797801EB00201FFA80FA7078387003F0D2
S31508004DC086FA7870B84FF86B20F48050F863686EEE
S31508004DD014B93868400504D4012C1FD13868000579
S31508004DE01CD5B248017889B1002101701AF4E45F34
S31508004DF0AF48016802D00022402005E09BF8010078
S31508004E00000900F001028F2003F0DFFA002C0CBF26
S31508004E104FF480604FF40060386012E01AF4E45FE3
S31508004E200FD100F01BFD10B15FEA4A4009D59BF887
S31508004E300000802805DAA01949468278584603F00A
S31508004E4089FB002C0CBF012002202861BDE8F08EEA
S31508004E502DE9F0478B4C964E2068216C904FDFF871
S31508004E605482DFF84892DFF818A201EA000519E033
S31508004E7038B14878C00604D4316800228F2003F080
S31508004E80A4FA280605D503F0F9FA802025F080054E
S31508004E902060E80506D503F0F1FA4FF4807025F492
S31508004EA080752060002D5CD0280706D50020FFF706
S31508004EB0C1FE082025F008052060E80606D5012071
S31508004EC0FFF7B8FE102025F01005206005F06000F9
S31508004ED0602803D1B86CC0050AD401E0A80605D538
S31508004EE02020206025F02005002006E0680606D56B
S31508004EF04020206025F040050120FFF73BFFE8042D
S31508004F0004D54FF4805025F480552060E807B8D5BD
S31508004F10012020606D089AF800006D000028B0D0C6
S31508004F2000F015FC0128ACD199F800000028A8D09B
S31508004F3098F800000428A4D1F868400800F0010099
S31508004F408A2101FB00A10831002814BF7A683A6853
S31508004F5012B92268D204F7D5002814BF78683868D1
S31508004F6086E700202060BDE8F08753480068704750
S31508004F70F0B504460D4689B00021032001F01AFD5C
S31508004F8004AE1BE0002701F030FD26F8170001F0FB
S31508004F902CFD00A921F817007F1C082FF3DB04A8B5
S31508004FA003F072FC00202080218836F8102051403A
S31508004FB0401C08282180F7DB6D1EA41CEDB2002DCD
S31508004FC0E0D101F04EFD012009B0F0BD0321022019
S31508004FD001F0F0BC4FF6FF71081A292190FBF1F099
S31508004FE03A3040B2704738B501F0FFFCFFF7F2FFE0
S31508004FF0324D04462878B0B90321032001F0DAFCC3
S315080050002F48018802237F2200A8FFF79BFC01F0A6
S31508005010ECFCBDF80010401880B2FFF7DBFF15382E
S3150800502068700120287001F01CFD6878201A40B2CB
S3150800503032BD80B50321022001F0BCFCBDE8014069
S31508005040D1E770B51F480078002490B9FFF7F1FF43
S31508005050114E0546707848B13078401B40B203F0CF
S3150800506024FC0B2805DB3570012402E0012035708D
S315080050707070204670BD000000200040842000406B
S315080050806C7C002000A000404C100040DC6F002023
S31508005090D010004080200040D67F0020DB6F002023
S315080050A020200040E86C002004A00040887D0020F5
S315080050B0907D00204D70002038200040D47F0020CD
S315080050C090EC02084E70002010B50D48018884B097
S315080050D00A237F2200A8FFF735FCBDF800004FF62B
S315080050E0FF74A04204D14E210FF2180001F0F2FC21
S315080050F0BDF8001022460020FFF7B3F81FBD0000D8
S315080051008AEC0208616E616C6F6775652D66696C5D
S315080051107465722E63000000DFF84008007848B115
S31508005120DFF83C080179012904BF4079042801D138
S3150800513001207047002070470FF6CC01405C70478D
S31508005140010603D54FF67F710840C00070478001FD
S31508005150B0FBF1F080B2FF288CBF0020C0F1FF0041
S31508005160C0B2704738B5DFF8FC07C178012901D10C
S31508005170002032BDDFF8F847617871B1E1784079EF
S3150800518045182079ADB2854228BF054603F0A6FB2F
S315080051900121A940491E084000E00020617908184D
S315080051A0C0B232BD2DE9F0470446C00705D54FF415
S315080051B0B8710FF6440001F08DFCDFF8B857286D7A
S315080051C0C00748BF8C2000F19480DFF89807DFF805
S315080051D0A0770021017101704178B1B93978A1B180
S315080051E02178122918BF0C290BD1627802F0070220
S315080051F0032A02BF091911F8021C042904BF012158
S315080052000171A96F41F0010102E0A96F490849003F
S31508005210A967DFF84C877A7898F80610DFF8589768
S31508005220DFF8586792B1002242710129286D40F0D3
S315080052300400286506D14FF6FF7030604FF4007001
S31508005240C9F80000FFF78EFF82460CE0286D20F0B3
S315080052500400012928654FF0000A04D100F030FA4D
S31508005260642000F033FFA86F20F00800A867142018
S31508005270E864C5F848A0787838B198F80600002898
S3150800528001BFA86C00280120A864B8790028286DF9
S3150800529014BF40F0080020F008002865FFF73CFF1F
S315080052A018B1306C40F008003064202028626C6029
S315080052B02C604FF4E06468687F30686004202862D8
S315080052C0DFF8BC06046006E003F018FB18B103F02B
S315080052D01DFB02F059FCDFF8AC06006800F003007D
S315080052E00328F1D0C9F80040286D40F00100286570
S315080052F00020BDE8F087DFF8900600214160816054
S31508005300016821F0020101604FF00070DFF87C1699
S3150800531008600120DFF8781608707047A0F133019D
S31508005320DFF87026914200D3704710B5DFF8604663
S315080053300021217000F0B7FB02E0012003F0EAFA31
S3150800534020780028F9D010BD2DE9F84FDFF82C8613
S31508005350DFF81056D8F80000D8F84010DFF81476B1
S3150800536001EA0004A4B2C8F800406878002840F0B2
S31508005370D580E007DFF82066DFF8F4954CD5D7F836
S3150800538000A0386C796C41EA004199F80000A960E0
S3150800539000283DD09AF80100800639D501202870EA
S315080053A0FFF7BAFEC0B3192000F090FE4FF4404054
S315080053B0DFF8E8B5CBF82800DBF800000090F06EBF
S315080053C040F40050F066F06E40F48050F0669AF8AB
S315080053D00010A8684901B83101EB000AFFF7C5FDBE
S315080053E0AAEB00000003000BFFF798FFF06E800998
S315080053F08001F06600A9F06E09880843F06600206F
S31508005400CBF8280048F26070F066E888306003E060
S315080054100022002002F0D9FF20060ED5287830B1E8
S31508005420002028700022A968402002F0CEFFD8F894
S315080054303C0020F48050C8F83C00600608D568781F
S3150800544030B9FFF792FD01460022892002F0BDFF20
S31508005450E00654D5DFF808A5DFF81CB59AF804006D
S31508005460012804BF9AF8061001291FD100F07AFF17
S31508005470386F40F00100386700208AF80600FFF709
S315080054807FFB0A2000F022FE4FF6FF70C8F80000E6
S3150800549000244FF4E060CBF800000920B86601202C
S315080054A0B864B86F40F00800B86718E0697999F8E9
S315080054B00220491C6971C9B2914215D2012808BF58
S315080054C000F0D1F8B86F20F00800B8671420B86665
S315080054D0FFF748FEB8644FF40070CBF80000386D4B
S315080054E040F0010038650AE0012808BF00F0BBF863
S315080054F0FFF73BFD014600228D2002F066FF2007DC
S315080055000CD5FFF709FE48B13068E8800120306005
S31508005510D8F8400020F00800C8F84000A0060AD5D0
S3150800552020203862687830B9FFF71FFD014600224F
S31508005530882002F04AFF687820B114F4407F04BF3F
S315080055400120A870BDE8F18FDFF85804008870477D
S3150800555070B582B00446FFF75AF8DFF84C04DFF856
S315080055600854002101601521E960092101651F2100
S31508005570416001210166DFF82C040088FEF7B5FEBC
S31508005580FFF726FB03F07AFC00F02EF9DFF8D0636C
S31508005590308900F056F9708900F05BF902F0F4FAE8
S315080055A0696841F04001696002F0F4FA707800F029
S315080055B0F0F8B07800F0FDF8DFF8F003007800F0B6
S315080055C02AF9DFF8EC0390F90000FFF75FF8307866
S315080055D000F090F996F9030000F098F9DFF8D40383
S315080055E000F0B6F9BDF80000DFF8CC13C0054CBFD3
S315080055F00020BDF800000870DFF8C0030078FFF748
S3150800560008F828B10FF2F03040F2B63101F062FA2C
S31508005610012C05D12868C00711D500F024F80EE042
S315080056206CB92868C0070AD400F09CFE286840F0C8
S3150800563001002860C82000F049FD0020B071F12063
S31508005640DFF83843206440F2F910E063FFF798FA70
S315080056502868C00704D54FF6FF70206000F05DF893
S3150800566000F04FFC73BD70B5DFF85453DFF8F04215
S315080056702E68A079012822D002F086FAB6B2DFF8A1
S3150800568000232E604FF4E0611160DFF814130A6AF4
S31508005690520852000A620A68520852000A600A68EA
S315080056A042F002020A604A6A42F001024A62012195
S315080056B0A17102F06FFABDE8704000F04CBE70BDF3
S315080056C070B5A74CA07938B300F04CFE02F05CFA2E
S315080056D00546DFF8F012A54E01200860306D40F04F
S315080056E0010030650020A071FFF74AFA20203060DB
S315080056F0306B40F002003063F06D40F00800F06552
S31508005700284602F047FA0A2000F0E0FC9B494FF6CB
S31508005710FF70086000F001F870BD4FF4E06096492C
S31508005720086070478E488079704710B58C4CA07910
S3150800573028B140F2A7410FF2C02001F0CBF9207939
S31508005740012804BFBDE81040FFF78DBF10BD84488F
S315080057500079704780B5022801DB012002BD804927
S3150800576008718979884205D010B9FFF7A9FF01E0C9
S31508005770FFF779FF002002BD9348006880020014F5
S315080057809A3801B211F1800FB8BF6FF07F0040B2AE
S31508005790704710B5044602F0F7F98C490A68002CE0
S315080057A014BF42F0120222F012020A606C494C70D1
S315080057B040E038B5044602F0E7F9054600F055FE24
S315080057C040B982480168002C14BF41F0800121F0DD
S315080057D080010160624884702846BDE8324002F0C4
S315080057E0D9B95F488078704779494A780B787948FB
S315080057F003EB022202608B78CA7803EB022242602E
S315080058000B794A7903EB02228260CA79897901EB1E
S315080058100221C160704710B5044602F0B5F96B491C
S315080058200A68002C14BF42F0200222F020020A6007
S315080058305E490C70BDE8104002F0ACB948480089D2
S315080058407047474908816449086070474448408959
S315080058507047434948816149086070476048007845
S3150800586070474F48816A41F0020181620121016057
S3150800587070474B4800210160816A21F0020181626C
S31508005880502000F023BC38B5564C57482169574D6F
S315080058900180E1694180E96C818000202061FFF781
S315080058A0E0FF0120E0610020606220624CF25D00AA
S315080058B0E864286840F4004028604FF400402060FF
S315080058C048F20200206031BD80B5FFF7D2FF454897
S315080058D04FF4004101600021016044490A6822F43E
S315080058E000420A60404A9388CB6411880161518856
S315080058F0C16101BD1C490A68002814BF42F00202B2
S3150800590022F002020A6016490870704738B5044644
S315080059107F2C0AD1364800F01BF8BDF80000C005F8
S3150800592054BFBDF800406FF04A0402F02DF9054651
S3150800593000F09BFD30B964B204F19A0080052D4948
S31508005940000C08600648C470284602F023F931BDE9
S31508005950018802237F2200A8FEF7F4BFDC7F00201F
S3150800596048700020887D00208020004030200040BC
S31508005970187000201020004000E100E004A000405C
S3150800598080E100E0A820004010E000E004ED00E01F
S31508005990DD7F0020CDFF070064100040E4100040C2
S315080059A060200040EC6F00205C100040DB7F002088
S315080059B0E06F00209CEC0208BC7F0020DB6F002013
S315080059C01C100040281000400C10004084200040A5
S315080059D0007C002098200040942000409020004041
S315080059E04670002018100040947F0020C010004028
S315080059F0A2EC0208541000407068792D636F6D6D33
S31508005A006F6E2E6300000000FEFEF7F7C8C801009F
S31508005A10DFF860155120086070472DE9F04105460A
S31508005A2003F040FADFF85015B0FBF1F64FF4F070CA
S31508005A30B0FBF6F71E2D3FB201DBE81B04D5A8B272
S31508005A40BDE8F04100F042BB02F09EF8804603F044
S31508005A5095FADFF82815DFF8282501204870072170
S31508005A60DFF8200500F041F8E91B09B27143C91CAB
S31508005A708908491EDFF81055416000F0BDF8DFF8C7
S31508005A80F4743C68386820F04000386003F078FA0F
S31508005A903C602E6003F078FA03F07EFA4046BDE8D3
S31508005AA0F04102F077B838B5054603F0FBF9DFF8A0
S31508005AB0C814B0FBF1F44FF4F070B0FBF4F02D1AF3
S31508005AC01E2D04DA95210FF2085001F003F8DFF8CD
S31508005AD0B404DFF8AC24072100F007F805FB04F14D
S31508005AE0C91C8908491E416031BD01600021416019
S31508005AF081604FF0007111607047DFF88024012142
S31508005B005170D0E7DFF88404006800B970472DE9C2
S31508005B10F041DFF87C54DFF87C6400242C603460A4
S31508005B204FF4A040706041F29A084046FFF775FFAF
S31508005B306F6803F0BFF9000142F21071B0FBF1F093
S31508005B4000F5C870C01B00B24FF4487190FBF1F025
S31508005B5000B20828A8BF072004DA10F1080FB8BF5A
S31508005B606FF0070030604046FFF757FF08274046AA
S31508005B70FFF753FF686804197F1EF8D103F09AF9F6
S31508005B80211D4001C908B0FBF1F080B27060BDE884
S31508005B90F081DFF8F803006800B9704738B5DFF818
S31508005BA0F85301206FF00F04A8602C608020FFF7DF
S31508005BB034FFE868FF2802D8641C102CF5DB31BDD9
S31508005BC070B5DFF8D803016841F0010101600121D1
S31508005BD0416001F0D9FF0446DFF8AC5300F00CF839
S31508005BE05120DFF8901308602E6003F0CDF92046A7
S31508005BF0BDE8704001F0CEBF2E6828684008400016
S31508005C00286003F0C1B90020704710B5DFF87C039F
S31508005C10DFF8684300680128BCBF032000F01DF8C0
S31508005C200120207000202071DFF87403816901F0DB
S31508005C300301032907D10020A070042000F07DF895
S31508005C400120207110BD0F21016002218161012010
S31508005C50E0706420BDE810404FE72DE9F041CB4ADB
S31508005C60C64D146840F2DC51012C8846CC4ECD4F07
S31508005C7015DA0221B9803160B16901F003010329FF
S31508005C8059D0002C03D5B16941F00201B161FFF783
S31508005C90BAFF5FEA00081AD1002C4CD549E0B8884B
S31508005CA04FF6FF74A0421DD1BF48018802237F2208
S31508005CB0381DFEF747FEB888A04204BF0220B88008
S31508005CC0B069800703D4B06940F00200B0610120D2
S31508005CD0A870B88830600FFA88F0FFF70EFF4046C4
S31508005CE0BDE8F081B3699B07EDD5AB780BB10846E3
S31508005CF0F6E7B168B36811F0010103D10F2809D29C
S31508005D00401C06E09B0705D53B781BB1032801DB41
S31508005D102018B880B88839700228BCBF0220B8801D
S31508005D203068B9888842D2D1B06900F003000328E8
S31508005D3001D0FFF745FF0020D2E72DE9F04780465E
S31508005D4000248C4D904E01F01FFF814603F016F992
S31508005D504046FFF782FF08B901240AE000F0CAF8B6
S31508005D60D5F800A000F02EF9C5F800A0376003F0BA
S31508005D700BF903F011F9484601F00CFF002CE2D0AC
S31508005D80BDE8F0870220D8E710B57E487B4C002195
S31508005D9041608160016821F00201016000206070A5
S31508005DA04FF0007076490860A07838B10020A070DE
S31508005DB00620FFF728FF00F098F81CDBE07801289A
S31508005DC014D17A480121016079490968C90748BF91
S31508005DD003200FD40221E170016C41F00101016436
S31508005DE00420744908607449086010BDE0780428E6
S31508005DF001D10520E07010BD80B5604840780028C4
S31508005E001CBFBDE80140FFF7BFBFFFF774FA01BD2D
S31508005E102DE9F84300F069F803DABDE8F2430420F7
S31508005E208BE7564C207900B35DE001F0ADFE0546E0
S31508005E3003F0A4F8E078032812D000F05AF8DFF847
S31508005E403481D8F80090D8F8000020F04000C8F84F
S31508005E50000003F095F8C8F80090376003F094F84E
S31508005E6003F09AF8284601F095FEE0780328DCD17D
S31508005E704C4E4B4DB08828604FF6FF777088B84275
S31508005E800CD14E48018802237F22B01CFEF75AFD2A
S31508005E907088B84202D16420708001E07088C8B169
S31508005EA003F008F87188344AB0FBF2F048432F3003
S31508005EB03021B0FBF1F042494A6D42F001024A65D1
S31508005EC00A68AB68DB07FBD50B689B1A1B031B0B21
S31508005ED08342F6D3FFF774FE0420E0704FF4C870CF
S31508005EE0BDE8F24309E6BDE8F183284800680128C1
S31508005EF07047254E3768306840084000306003F028
S31508005F0043B82DE9F8431D4C207800282DD0207978
S31508005F1000282AD1FFF7E9FF1FDA40F2EF310FF226
S31508005F20B00000F0D7FD18E001F02EFE804603F021
S31508005F3025F8E07805280BD0FFF7DBFF0D4DD5F8DF
S31508005F40009000F03FF8C5F80090376003F01CF8A1
S31508005F5003F022F8404601F01DFEE0780528E3D15B
S31508005F600020A0700520FFF7E8FE00202070BDE89D
S31508005F70F18300000080004090D00300CC7F002011
S31508005F8004ED00E010E000E094ED00E0DCE6020835
S31508005F90104000400C000040084000401C400040F3
S31508005FA004400040327000209AEC020818A0004015
S31508005FB00C40004080E200E000E100E09EEC0208B0
S31508005FC038200040286820F04000286002F0D8BF3A
S31508005FD0636C6F636B732E630000000010B5754C1D
S31508005FE0002000F044FD40F68C2188422068B4BFAA
S31508005FF040F0080020F00800206010BD10B50446E7
S315080060006D48018882B000F05CF89DF800109DF894
S315080060100100FF2902BFFF280420002104B1801CCB
S31508006020664A1368C0B20828A8BF072023F460731D
S3150800603043EAC010106008291068A8BF0721C008E5
S3150800604041EAC00010605E48047013BD00B55D48A3
S31508006050018883B000F035F8BDF800004FF6FF71EF
S3150800606088420EBF4FF4E1600A2190FBF1F0ADF8CB
S3150800607000005348007808B34F48018802237F225E
S3150800608001A8FEF75FFC9DF80500BDF80030FF2863
S3150800609008BF0420811CC9B20829A8BF0721C1F17D
S315080060A02F0202EBD272C0F12F00521000FB032020
S315080060B0C1F12F01B0FBF1F0ADF80000BDF800000A
S315080060C00EBD02237F2200A8FEF73CBC70B53E4CED
S315080060D02568064602F0EEFE3C49B0FBF1F0704337
S315080060E02F303021B0FBF1F0032809D3616D41F060
S315080060F0010161652168491B0903090B8142F9D32E
S3150800610070BD10B5040004D110BD4FF47A70FFF7C6
S31508006110DDFF2046441E80B20028F6D110BD2C486B
S31508006120017869B9C078072818BF092814D0032848
S3150800613018BF112810D013281CBF15280B280BD000
S315080061402448016841F480720260C80504D43821E5
S315080061500FF2900000F0BEBC704738B50C4620B16F
S3150800616001280FD0032820D021E01B4D44B102F0AE
S31508006170A1FE1A49B0FBF1F0401EB0F5005F0CD243
S31508006180286012E04CB102F095FE610801EB400070
S31508006190B0FBF4F0B0F5003F01D3202032BD104922
S315080061A000F001024A6040080860002032BD212044
S315080061B032BD000000BC00408CEC0208180000400C
S315080061C0BF7F00208EEC02083820004090D00300E4
S315080061D09607080838400040100004E020A1070090
S315080061E068C800407573625F6572726F722E6300CD
S315080061F038B50120FFF731FD0020FFF7FFFE714C8F
S31508006200206840F00800206002F05BFEFFF7E6FE1B
S315080062106D496E480A78C2604B786D4AD3608D78AE
S315080062206C4BDD608D880560CD88456008891060F7
S315080062304889506088891860C889586000F08BF8CA
S31508006240206820F010002060FDF7D5FF02F0EBFF74
S3150800625003F04EF8FFF796FD02F031FEBDE8314037
S3150800626002F04DBE40F2016003F044B810B502F0EA
S31508006270C5FF594900F001F810BD54480A78C260B4
S315080062804B78534AD3608C78524BDC608C88046018
S31508006290CC884460088910604889506088891860ED
S315080062A0C8895860704710B5FFF7AFFCFFF796FE30
S315080062B04549FFF7E2FF00F04EF84248016821F031
S315080062C010010160FDF797FFFFF7A2FDBDE810403A
S315080062D002F09DBFF0B50B68404C0F252468960068
S315080062E005FA06F6344215D0002606EB820724FA8C
S315080062F007F7FF070BD5B70005FA07FC23EA0C03D7
S3150800630030F812C005FA07F707EA0C073B43761C74
S31508006310042EEADB0B60F0BDF0B50B682F4CFF25A9
S315080063202468D600B5402C4213D00025012605EB7B
S31508006330C20724FA07F7FF0708D506FA05F7BB438D
S31508006340175C06FA05FC0CEA07073B436D1C082D8B
S31508006350EDDB0B60F0BD10B52048006808B11E4C97
S3150800636007E010BD10B51D48006808B1164C00E0DE
S3150800637010BD1B4900222046FFF7CEFF012219490E
S315080063802046FFF7C9FF022217492046FFF7C4FF38
S3150800639000220E4900F030F80122144900F02CF8CA
S315080063A002220B4900F028F80322114900F024F8CC
S315080063B00422084900F020F8201DBDE810400522F7
S315080063C00C4987E700BC0040146F002000B000406D
S315080063D000B2004000B40040246F0020D4760020AC
S315080063E00CB000400CB200400CB4004004B00040B1
S315080063F004B2004004B40040201D6BE70320FEF7FA
S31508006400ABBB80B503F06DF80FF2640109E080B507
S3150800641003F06BF80FF284010204120E51F82210F1
S31508006420C0B201EB800002BD10B503F05AF804466D
S3150800643003F05BF8C0B208B9012C07D1072C11D8B4
S31508006440DFE804F004100608080A0C0E002010BD48
S31508006450092010BD022010BD032010BD0B2010BD61
S31508006460062010BD44F0800010BD002070470000D3
S31508006470554E4B004649420042544C00455854007C
S315080064805057520057444700205357004352530071
S315080064904653480042414400464C5400E0E6020890
S315080064A0E4E602083CE702085CE7020864E702083B
S315080064B070E702087CE7020888E7020890E7020806
S315080064C09CE70208ACE702082A490A689209920181
S315080064D00A600A68104308604FF4004126480160C4
S315080064E0002101606420FFF7F1BD2DE9F047234D37
S315080064F0204FD5F80090224C8046286840F400408A
S315080065002860386820F480503860207868B162784E
S315080065101C48A17800EB820200EB880012F82A2CAE
S3150800652010F82A0C891A461802E001202026207045
S31508006530B0B2FFF7C9FF0FF2500A02E0B0B2FFF798
S31508006540C3FF386B042805D0386B400754BF761E46
S31508006550761CF3E7F86A38B184F80180A6701FFA4A
S3150800656089F02860BDE8F08740F22111504600F016
S31508006570B1FAE6E7D0100040181000401C100040A1
S31508006580D87F0020C8470008616E616C6F67756523
S315080065902D76636F2E63000081014FF4FE5289B297
S315080065A00C20FDF75EBE2DE9F84F8F4CA5682068D4
S315080065B00127ADB200264FF00A08B9461FFA80FA3D
S315080065C000F04FFAB0202063DFF820B208E016F199
S315080065D0190FB8BF4FF00A08464436B27019A060C2
S315080065E0DBF80000000702D559EA070028D0012089
S315080065F0FFF76CFDB9F1000F11D0AAF1030087422D
S3150800660002DAF81C87B213E00AF500402060574604
S315080066100621092000F0CEF94FF000090BE0DBF85F
S315080066200000000707D5042FA6BFF81E87B200276B
S3150800663007F5004020601A2EC9DB6FF00908CBE782
S31508006640A560C4F800A00820CBF8000068480068D8
S3150800665080B2BDE8F28F80B5624B66491B784FF071
S31508006660FF326BB1002819BF4A606348486041F29F
S3150800667011100860614841880088BDE8044092E727
S31508006680002819BF4A600A604860086000F0E9F906
S31508006690BDE804400621092000F0DDB938B501201F
S315080066A0FFF7D9FF04460020FFF7D5FF054601206E
S315080066B0FFF7D1FF4042001B00EB450000B232BD98
S315080066C02DE9FE4F4E4CDFF83C81A06A454EADF8E9
S315080066D002002568D8F800B0307860B14FF6FF722E
S315080066E000210820FDF7B6FDADF80000C022C02144
S315080066F00820FDF7B6FD4448DFF81091007818B178
S3150800670048F26070C9F80000708840F4404040F0D4
S315080067104C00C9F83C000220A0620120206040F22B
S315080067204C40FFF7D3FC0120C8F80C00C8F800005D
S315080067300020324F388040207880307800B1202001
S31508006740FFF72AFFFFF7AAFF8246402038807F20FE
S315080067507880FFF721FFFFF7A1FF0290504602F06D
S31508006760A4F8FE2101FB00F70298AAEB00000190AD
S31508006770307860B1029802F098F88246019802F0E3
S3150800678094F880B207EB8A11B1FBF0F005E00198A6
S3150800679002F08BF880B2B7FBF0F080B2401CC7035A
S315080067A01FFA8BF0C8F80000ADB20020C8F80C003C
S315080067B0022020602560BDF80200A0620020C9F80A
S315080067C03C00307830B1BDF800104FF6FF72082053
S315080067D0FDF747FD40F24C40FFF778FC380CBDE862
S315080067E0FE8F000042700020C010004018A0004034
S315080067F00070004038100040EEEEFFFF907F00204A
S315080068006020004028100040DC6F0020D0100040B7
S3150800681041003F2289B201E001463F220220FDF7EE
S3150800682020BD2DE9F04F564C564D95B0E06CADF8AD
S3150800683010004FF6FF782068ADF80E004246E86A69
S31508006840ADF80C0000210120FDF704FDADF80A00A3
S31508006850424600210B20FDF7FDFCADF808004FF479
S315080068600040206000202861686148F2020000F0BC
S315080068708BF84CF68C30E0644FF4805248F2F00006
S31508006880E86211460120FDF7ECFC424600210B2088
S31508006890FDF7E7FC0621062000F0DDF8019000F080
S315080068A085F800904CF69C30E0640020FFF7B0FFB6
S315080068B00621084600F07EF800260DF1140BB0B24A
S315080068C0FFF7A6FF0621062000F074F800F08DF801
S315080068D02BF81600761C202EF1DB00F086F8102027
S315080068E0FFF796FF00F062F80099019A401ABBF884
S315080068F02010891A404301FB01094FF0100A11279D
S3150800690000F04EF800F052F800F043F806DB814636
S315080069101FFA87FA781C07B2202FF1DBBAF1100F9D
S315080069200ED10F2700F03CF800F040F800F031F8DF
S3150800693006DB81461FFA87FA781E07B2002FF1D5C3
S31508006940BDF81000E0644246BDF80E002060BDF8B0
S315080069500C00E8620120BDF80A10FDF782FCBDF8BC
S31508006960081042460B20FDF77CFC01202861002018
S3150800697000F00AF84FEA4A00C0B215B0BDE8F08F39
S31508006980C010004018100040286040F24C40FFF745
S315080069909DBB0099401A404306FB060048457047D0
S315080069A03BF817000199461AB8B231E706210720C5
S315080069B000F051B870B505460E4602F0DFFA3D4CB8
S315080069C0206C20F00800206402F0E6FA01F0DCF8FA
S315080069D0310341EAC511384A41F001011160082125
S315080069E02160BDE8704001F0D5B82DE9F041334C7F
S315080069F0334D304E25E002F0C1FA324904200860D2
S31508006A00306C40F0080030642F6828684008400061
S31508006A10286002F0B9FAD4F80080206820F0400017
S31508006A20206002F0ADFAC4F800802F6002F0ACFADC
S31508006A30306C254920F0080030640420086002F014
S31508006A40ABFA30680007D6D5082030601F480068C2
S31508006A5080B2BDE8F08180B5FFF7ACFFBDE8014024
S31508006A60C3E7154801684908490001607047F8B549
S31508006A700746FFF7EBFA044639460320FFF7EBFF14
S31508006A80054639460120FFF7E6FF06463946002047
S31508006A90FFF7E1FF08490A68520852000A60401BDE
S31508006AA00004711BB0FBF1F060434000000CF2BD1E
S31508006AB00000000018A0004004700040008000405C
S31508006AC094ED00E000E100E080E200E000700040A4
S31508006AD042DE704738B504460D4602F0FBF901F070
S31508006AE053F82946204602F036FD2B4622460FF279
S31508006AF0CC11002002F098FF29462046BDE8344014
S31508006B00E6E72DE9F84F6548654D01682E1D4FF4F7
S31508006B10206A7165016AB16562490968F165416A69
S31508006B203166816A7166C16AB166016BF166806B0E
S31508006B30306796F8340040074CBFF76BB76BBB4617
S31508006B4002F067FC0022584CDFF86081DFF860919C
S31508006B50F2648742014624BFA4F12003BB42316593
S31508006B601DD357F8180F306457F8040F7064706D0A
S31508006B70C005C00D062815D1306C484512D34045CE
S31508006B8010D200884DF6426290420BD105F18C0076
S31508006B906A68426040F2017A7268826002E0326492
S31508006BA0726483464348814202D2014600E0091DC9
S31508006BB0A14203D20B68B3F1CD3FF8D0601AB06496
S31508006BC0182105F1780002F06FFF002003E0C0B23B
S31508006BD005EB80029167A34523D254F8041D494565
S31508006BE0F9D34145F7D2CA07F5D5002205EB82034A
S31508006BF09B6F8B4203D0521CD2B2062AF6DB062ABA
S31508006C00E9D1002814BF401E0520E0E7716F002275
S31508006C1005EB8203521CDF6F9F67052AF8DBC5F870
S31508006C208C100146481EC9B20029EFD1706DC00507
S31508006C30C00D02280AD0032815D0042816D0052826
S31508006C4017D0062818D00C281CD01EE01A48016850
S31508006C50890748BF40F6021A1CD40068C00719D530
S31508006C6040F2025A16E040F6012A13E040F6022ADC
S31508006C7010E040F6032A0DE0BAF5206F0AD140F677
S31508006C80042A07E040F6052A04E018B1242838BF8C
S31508006C9040F6072A5046BDE8F28F000004ED00E0F2
S31508006CA00000002000E300E0E86A0020367D0208C4
S31508006CB090410008980000201CA000400D0A5B4186
S31508006CC053534552543A25703A25645D0D0A00001F
S31508006CD0814233D210185118401E491E10E011F88F
S31508006CE0013900F80139121F11F8013900F8013984
S31508006CF011F8013900F8013911F8013900F801399C
S31508006D0092B2042AEBDA92B2002A1EBF11F80139B0
S31508006D1000F80139521EF6D1704711F8013B00F808
S31508006D20013B121F11F8013B00F8013B11F8013B2A
S31508006D3000F8013B11F8013B00F8013B92B2042A26
S31508006D40EBDA92B2002A1EBF11F8013B00F8013BAC
S31508006D50521EF6D17047130003D00A46194602F0B0
S31508006D60A7BE704710B500E0521E92B222B100F0DD
S31508006D7012F8F9D0181B10BD002010BD10B500E0A0
S31508006D80521E92B22AB100F006F8F9D0181B40B28A
S31508006D9010BD002010BD10F8013B11F8014BA342AD
S31508006DA0704770474048018A40F6A772914202BF71
S31508006DB0408A4FF47F41084203D1022801DB0120B3
S31508006DC07047002070472DE9F84F8246884600F044
S31508006DD0DBFE364D2F6804462868400840002860C8
S31508006DE002F0D2F80120DFF8BCB08BF80000FFF7FC
S31508006DF0D9FF20B9FF210FF2B800FFF76BFE2A482A
S31508006E00D0F8289041464AF48070C84706462F6055
S31508006E1002F0BAF8204600F0BDFE00208BF800000C
S31508006E200FF294040EB1305D04E041464AF4007056
S31508006E30C847005DBDE8F28F2DE9F84F80468946C0
S31508006E404FEA420A00F0A0FE184E37680546306839
S31508006E5040084000306002F097F8FFF7A3FF28B912
S31508006E604FF4A1710FF24800FFF734FE0E48D0F830
S31508006E7024B00023524649464046D8470446376060
S31508006E8002F082F8284600F085FE0FF22C050CB1B8
S31508006E90605D05E05346002249464046D847405DB6
S31508006EA0BDE8F28FCB7F00200000080894ED00E0D3
S31508006EB0666C6173682E6300000202024B4B4647FC
S31508006EC02DE9F9478CB02822FF2101A8FFF743FFD7
S31508006ED0DFF8D490B222FF214846FFF73CFF502541
S31508006EE04FF0280A50210FF2E40002F015FE0FF2C7
S31508006EF0CC0800272D48385C411C01EBD1714C1099
S31508006F002B497E5CFF2803D170214046FFF7E2FD3E
S31508006F107F2E03DB71214046FFF7DCFD2548385CF0
S31508006F2000B11934601C00FB06F4234830F817102A
S31508006F300FF2B4003346A2B202F0EEFD6519012E37
S31508006F401CBF29F817A0B2447F1C282FD2DB40F2B9
S31508006F501C44A54234BF13A30FF2EC03282000906B
S31508006F602246A9B20FF2A80002F0D6FD40F21D4053
S31508006F7085420ED301F0AEFF00F006FE23462A46F0
S31508006F800FF2D001002002F04FFD9D214046FFF789
S31508006F90A1FD9DF8300001A900F036F90EB0BDE854
S31508006FA0F08700006F6B0000307A0020DCE80208EA
S31508006FB004E90208B4E8020864E8020873696D2D5A
S31508006FC0656570726F6D2E6300000000546F6B6507
S31508006FD06E206F766572686561643A20256420774D
S31508006FE06F7264730A00000043726561746F723AC7
S31508006FF02030782532582C20576F7264733A202532
S31508007000642C20436F756E743A2025640A000000CC
S3150800701053696D454520646174613A20256420777B
S315080070206F726473206F66202564206D617820284E
S315080070302570292C20746F6B656E436F756E743AD4
S315080070402025640A00000000544F4F204C41524747
S31508007050450000000D0A4552524F523A2053696DB9
S315080070604545206461746120746F6F206C61726796
S31508007070652E2020436F6D70696C696E672077698D
S31508007080746820256420776F72647320636F6E734B
S31508007090756D65642E20204D617820616C6C6F7764
S315080070A065642069732025642E0D0A0010B5DFF883
S315080070B0684ADFF8683A2488001B03EB400000237F
S315080070C004E030F8134021F813405B1C9342F8DBC8
S315080070D0002010BD2DE9F04182B004460D46164643
S315080070E00027DFF8388A01E0B81CC7B2B74217DABA
S315080070F07819795D4078DFF8203A1B8801EB002083
S31508007100ADF80000012207EBD77004EB6000C01A47
S3150800711000F07FFB0028E7D002F020FD002000E009
S315080071200120BDE8F681F8B504460E461546002747
S315080071300DE000F019F8BDF8000004EB4701000A5D
S315080071404870761CBDF8000004F817007F1CB7EBE2
S31508007150550FEEDBE80706D500F006F8BDF8000087
S31508007160291901F8010CF1BD012200A9B0B29DE769
S31508007170DFF8A429DFF8A4191288801A01EB400168
S315080071800220FFF720BEDFF89819DFF89829415C3E
S31508007190825CDFF89439C05C10B102F5997292B23C
S315080071A041EAC21080B2704710B5DFF88039DFF8BF
S315080071B0704903EB4002005D012801D1104610BD5D
S315080071C01088081803EB400010BD38B50C46DFF8E8
S315080071D060190D782A462146FFF768FF208800289F
S315080071E01CBF4FF6FF7188420AD0012000E0401C00
S315080071F0C0B2A84206D234F8101022889142F6D0BE
S31508007200002032BD012032BD2DE9F24F0446DFF8D9
S3150800721024690020307070809CB0DFF81C09008853
S31508007220ADF8020007A9FFF7D0FF8346012070706A
S3150800723009A9DFF808090588DFF80409B0F800800D
S31508007240DFF8D408BDF802A007883846FFF7BDFF67
S31508007250B8B1BBF1000F3CD0BDF81C10BDF8240036
S315080072604FF6FE72914202D1012804D10CE00129A1
S3150800727008BF90422DD00846BDF82410884228D26F
S3150800728002E0BBF1000F23D0002070700297504631
S315080072900695CDF810800122DFF8941891F8008041
S315080072A04044ADF8060000A9BDF80600FFF7FEFE4B
S315080072B0DFF89008008805904FF6FF79BDF80000C2
S315080072C0000B404518BF0F2800D10CB3002516E067
S315080072D0012470780128D9D13846CDF808A0CDF810
S315080072E018800495D7E7059805FB00F4E01900F027
S315080072F037FCBDF80200201800F032FC6D1C45452D
S31508007300F1DB012030704D2002F028FC0025FCE05E
S31508007310BDF80650012201A92846FFF7C7FEBDF8A9
S315080073200400C043C0B2ADF804006F1CDFF81808AB
S315080073300588BDF80400A84218BF01244FF0000ACA
S3150800734020E0401CC1B2A94218D2C0B2DFF8FC172F
S31508007350BDF80E20834631F81B109142F1D1FFF794
S3150800736012FF4FF680710840BDF80C104FF6807278
S315080073701140884204BF1C980BF800A00AF10100CE
S315080073801FFA80FABDF80400824507DA022203A92B
S31508007390B8B2FFF78BFEBF1C0020D3E7002001E040
S315080073A0401C80B2A84217DA1C99415C8142F7D08A
S315080073B0012411E02AF81070BDF8060000EB43001E
S315080073C0401C00F0E3FABDF80200C0F3C710401CE9
S315080073D000EBD07007EB60070498DFF850A7BFB240
S315080073E0874211DA012200A93846FFF75FFEBDF889
S315080073F00000484508D0030A00F07F01BDF80400E4
S315080074007F1C834202DB012400252DE0002001E0D9
S31508007410401C80B2A842CFDA1C9A825C9A42F7D105
S31508007420C0B2FF28C8D0DFF8F826825C7F290CBFD7
S315080074304FF0000C8C46944509DADFF8ECE6BDF807
S3150800744000C010F80EE0CCF3C01CF44501D00124AE
S31508007450B2E7012AAED07F293AF8100008BF00210A
S315080074600818A7E76D1CADB2DFF8E4060088854268
S3150800747004DA3AF815004845F4D1012477800498CF
S31508007480BDB285420ADA012200A92846FFF70EFE98
S31508007490BDF800006F1C4845F1D034E7002CFCD13C
S315080074A0029801220BA980B2FFF700FEBDF82C0056
S315080074B048450DD105E0401C80B2202813DB203456
S315080074C0A4B20699029A891A8C4205DB012030700B
S315080074D000201DB0BDE8F08FA51820220BA9A8B280
S315080074E0FFF7E4FD00200BA931F810104945E2D05A
S315080074F0A8B2FFF73DFE203CA4B2E0E70298059942
S3150800750005FB010000F02CFB6D1C4545F6DB012050
S315080075103070494600F054F818B100F03EF90028DA
S31508007520D6D10120D5E72DE9F84504460F4616467B
S31508007530984631463846FFF737FEDFF80C16B0F89E
S3150800754000A00988DFF8DC558F420AD2DFF8D0059B
S31508007550385C7F2E08BF0026864202DA785D8045B1
S3150800756003D040F2864100F00DFADFF8BC05385C1E
S3150800757068B15146384600F03AFA795D012908BFE4
S3150800758020700AD0022914BF2060208005E04246F8
S3150800759051462046BDE8F845C5E5BDE8F18510B574
S315080075A0044608461146FFF7FFFDDFF86C250088FC
S315080075B01288DFF86815801A01EB4000206010BDBC
S315080075C02DE9F34FDFF85005DFF864150488DFF876
S315080075D064050978407883B000281ABFDFF8580593
S315080075E0008820460D18DFF860050088ADF8080009
S315080075F0ADB2C043C0B200EB013000F55060ADF843
S3150800760002002B1BDFF8140500F0C6F96E1C0028D3
S31508007610B6B238D10025DFF8347514E0E8B2FFF7C2
S31508007620B2FDADF80400331B37F81500ADF80600B7
S315080076300222DFF8E80400F0ABF8002823D1B61CD4
S315080076406D1CB6B2ADB2BDF808008542E6DB002572
S3150800765001E06D1CADB2BDF80800854280F293804A
S315080076604FF0000A1CE001220DF102011FFA89F011
S31508007670FFF71CFDBB19DFF8A4041B1B09F1010960
S3150800768000F08AF9002878D17F1CFFB2B7EB1B6F90
S31508007690E9DBDFF8C004285C8619B6B20AF1010AEC
S315080076A0DFF87C0415F800B05FFA8AFADA45D0D21A
S315080076B05146E8B2FFF778FD8046DFF86C04B8F863
S315080076C000902F5CF80140EA0520ADF80000BBF1F8
S315080076D0010FBDF800000CBF40F07F004AEA000029
S315080076E0ADF80000311BDFF8340400EB4100711CD3
S315080076F089B201914FF6FF7189451EBFBDF800108A
S31508007700BDF81020914218D19DF80C100029C5D05B
S31508007710012200A9FFF790FB019E70BBDFF8040465
S31508007720A8F800602A5CDFF8300450F82510B0B2DB
S31508007730FFF7D0FC0028ACD122E0DFF8E813695C3B
S31508007740491C01EBD1714FEAC15B012200A9FFF781
S3150800775073FB019E88B9002FA8F8006095D04946AA
S31508007760E8B200F044F90190331BDFF8B0034FEAA2
S315080077701B6200F00DF800288BD002F0EFF900200C
S3150800778005B0BDE8F08FDFF8AC0346800120F7E7C7
S3150800779001A900EB4300FFF74FBB2DE9F041DFF8E5
S315080077A09803DFF890530688DFF86C030488687836
S315080077B0002882B012BF204630462646012200A97C
S315080077C0FFF774FCBDF80000DFF8508301280CBFF2
S315080077D04FF6FE70401EADF80000DFF85403077838
S315080077E03846471E58B1BFB2B819001B012200F02F
S315080077F010F80028F4D002F0B1F9002007E0697803
S31508007800481E8041C00F6870002028700120BDE81E
S31508007810F68100A908EB4000FFF70EBB2DE9FE4FE5
S315080078200D46174604461E464FF000094FF001085C
S315080078303946FFF7B9FCC449098801908C420AD237
S31508007840B748205C7F2F08BF0027874203DAB54870
S31508007850205C864203D040F2A95100F093F8B54F58
S31508007860787820B1B548B0F800A0AB4803E0B44832
S31508007870B0F800A0B0483978008849B97988081A5C
S31508007880B64909888842B4BF4320442002F066F905
S3150800789001980188A448205CF8B1204600F0A7F8B2
S315080078A0012E08BF297803D0022E0CBF2988296823
S315080078B0814265D001980088401E00F067F8A54807
S315080078C0265C7888AAF10101891B814201DB002820
S315080078D035D1387858BB452044E00291CB4620E0A4
S315080078E002980BEBDB7300EB630000F03CF90BEB43
S315080078F005001BF80510407801EB0020711E8B452A
S3150800790080B205D1BDF80010C9B2C0B2ADF80010FA
S31508007910BDF8001088420BF1020018BFC8465FFA8E
S3150800792080FBB345DCDBB8F1000FC3D028E0BDF817
S3150800793002100020FFF744FE10B34FF001097888C3
S315080079407849401C788080B2625C2946FFF7C2FB02
S31508007950B0B1714C7B88248870485B1E1B1B00F0F5
S315080079601BF810B102F0FAF80AE0B9F1000F02D0DC
S31508007970FFF713FF20B101997888088030187880BE
S31508007980BDE8F78F0FF2E810FFF7A4B801220DF152
S31508007990020180B2FFF78ABB01220DF1020100EB5A
S315080079A04300FFF749BA70B582B004460025192688
S315080079B0012200A9A0B2FFF779FBBDF80000641CFC
S315080079C048B14FF47F41401A02D0FF3806D007E08D
S315080079D0681C40B276BDAD1C761EE9D168B276BD8C
S315080079E0BDF80000C0B200B96D1CE843F1E738B530
S315080079F00C46002100914B49455C2A46214600A8C1
S31508007A00FFF791FB681C00EBD07004EB600080B2B6
S31508007A10FFF7C9FF002848BFC043009940B2401885
S31508007A2032BDF0B5484909880446404883B0254622
S31508007A3030F815608C4202D23B48285C18B940F2EF
S31508007A40A961FFF79FFF37482D5C681C00EBD070D3
S31508007A5006EB6007B8B2FFF7A6FF322814D2C107B3
S31508007A60BFB207EB60002C4F2C4B3F884CBF002160
S31508007A704FF47F41ADF80410C01B012201A903EBA6
S31508007A804000FFF7D9F960B131462046FFF7AFFF4E
S31508007A9000902B46401C00907F2200A92046FFF745
S31508007AA0BDFEF7BDF8B5234C20780027002830D155
S31508007AB019480588607800281ABF1F4806882E4688
S31508007AC01B4807783846471E02281BDBFFB2B81941
S31508007AD000F049F8BDF800000028F3D019480088DE
S31508007AE007FB006000F03CF80020ADF80000BB1969
S31508007AF00A485B1B012200A9FFF74BFE48B102F0BA
S31508007B002DF806E03046FFF733FBFFB20FB9012028
S31508007B1020703846F2BD00002CE802080008040868
S31508007B2004E90208DCE80208B4E80208307A002012
S31508007B3028E80208827F002030E802082EE80208BA
S31508007B4032E802082AE8020836E8020864E8020869
S31508007B5038E802083CE8020870EB020834E8020834
S31508007B6080B2FFF705BB012200A980B2FFF79EBAD3
S31508007B7073696D2D656570726F6D2D696E746572AA
S31508007B806E616C2E63000000EFF31180602181F3B3
S31508007B901188704780F3118870470000DFF86C156C
S31508007BA000200870FF21DFF8680501700171704731
S31508007BB0F8B5044602F022F80546DFF85805DFF85E
S31508007BC050750688204602F062F9B0F5006F16D1A6
S31508007BD0204602F080F900F0ABFAFF280DD000F03D
S31508007BE01EFA2146381D02F0EEFCDFF82005017862
S31508007BF081B10089A9190E1A10E09320F2BDFF2160
S31508007C00384602F00BFD052802DA21463846EAE72F
S31508007C103920F2BD0581314602F06BFDB2B203216F
S31508007C20204602F0B2F8032200F070F8204602F06F
S31508007C302BFA0020F2BDF8B50446DFF8D404007824
S31508007C40FF2813D0DFF8D0542968465C37463846F3
S31508007C5002F032F9014608222046FFF783F808B9F0
S31508007C600120F2BD28683F5CB742F0D10020F2BD82
S31508007C70F8B5044602F0B5F8000B00F001052046F9
S31508007C8002F03EF90646204602F029F9B0F5404FC3
S31508007C9011D1002D36D03146002000F07BF904467C
S31508007CA0FF2C2FD0002102F01FFE58B300F098F9E0
S31508007CB000F02AF826E0304603F022F800F038FAF9
S31508007CC00446FF2C01D10020F2BD012000212246E6
S31508007CD003F044F8DFF84424D2E9006706430F436B
S31508007CE0C2E9006775B1DFF838341B6833F8143019
S31508007CF04FF4FE64234205D0D2E9024520432943C6
S31508007D00C2E902010120F2BD40F0800205212046A9
S31508007D1002F046B838B5044602F0B9F8B0F5006F77
S31508007D200CBF01250025204602F0C6F80446214668
S31508007D30284600F02FF9FF2810D18DB1204602F011
S31508007D40DFFF00F0F5F9FF280AD0DFF8D413096839
S31508007D5031F810004FF4FA61084201D0012032BD13
S31508007D60002032BD2DE9F04107460C46DFF8A05346
S31508007D7002F08DF8B0F5006F0CBF281D2846007874
S31508007D80FF2846D0DFF890130968405C0646B742DC
S31508007D903CD1FFF7F9FE80460521304602F007F888
S31508007DA000F07F00471EFAB20521304601F0F8FFC1
S31508007DB0002C18BF312C01D0F8B200BBFFF7E4FE47
S31508007DC00746F0B202F063F8B0F5006FF1B205D1DC
S31508007DD0281D02F023FC00F007F902E0284602F00D
S31508007DE01DFC3846FFF7D6FE4046FFF7D3FE214670
S31508007DF0304603F0A9FE304602F054F904E000F0DC
S31508007E00F3F84046FFF7C6FE012003E0765C86429B
S31508007E10BDD10020BDE8F08138B501F0EFFEBB4CBE
S31508007E2021892081421A4FF6FF75ADF8005000A946
S31508007E3090B200F0FDF8BDF80000A84202D100207B
S31508007E40207031BD0146204602F053FC31BD0021A9
S31508007E504FF6FF70ECE02DE9F84FDFF8C092D9E94C
S31508007E600001002908BF002800F08D8000264FF089
S31508007E700108B24600270024FFF786FED9E9002349
S31508007E80844608EA02001AEA030108BF002817D048
S31508007E906FEA08006FEA0A0102400B40C9E90023AD
S31508007EA0D9E9025B012708EA05021AEA0B0308BFAB
S31508007EB0002A05D028400BEA0101C9E9020101247C
S31508007EC06046FFF767FE002F4CD09548006830F8EB
S31508007ED01600810746D59349096831F816702CB102
S31508007EE000F49871102908BF012500D000258E4A94
S31508007EF012680021B154F4B180061CD5380A8DF8F1
S31508007F0001008DF8007000A9012000F043F804462E
S31508007F10FF2C07D100F039F84FF6DF72114020F830
S31508007F20161014E0002102F0DFFC80B100F058F8CA
S31508007F30FFF7EAFE0BE085F00100044207D000F0E7
S31508007F4024F841F4006120F8161004F0A3F900950E
S31508007F503B461A226CA1032001F0E3FD2946384668
S31508007F6001F0EFFD761CF6B24FEA4A0040EAD87AED
S31508007F70402E4FEA480806DAD9E90001002908BF69
S31508007F8000287FF477AFBDE8F18F6548006830F8C0
S31508007F90161070472DE9F04188465D4900281ABF3A
S31508007FA0091D022508250878FF2816D05A4E31687B
S31508007FB0475C3C4600F014F800060AD4204601F057
S31508007FC07BFF01462A464046FEF7CCFE08B9204606
S31508007FD004E03068245CBC42ECD1FF20BDE8F081A7
S31508007FE00521204601F0E3BE70B50021202004F0EB
S31508007FF0D4FB47480079FF2810D0474C2168455CD8
S315080080002E46304601F067FF00F092F8FF2801D0AF
S3150800801000F005F82068365CAE42F2D170BD4049E2
S31508008020096831F8102042F0200221F81020704724
S315080080302DE9F84F80460FF2F400354E0068364FAA
S3150800804000908A46344600E0341DFFF79DFD8146C0
S3150800805006E0204602F0CCFA294600A802F0B3FA58
S31508008060204602F00FFB40B9386821780D5C0321E1
S31508008070284601F081FE8045EBD2301D844208BFB8
S31508008080FFF7B2FF4846FFF785FD2078FF281CD08A
S31508008090396810F801904D460321284601F06CFE18
S315080080A0A0EB080B1FFA8BF20321284601F06DFEA0
S315080080B0BAF800001FFA8BFB834588BF8346AAF8E7
S315080080C000B038682D5C4D45E6D1301D8442BBD1E1
S315080080D000A802F0D7FAA8B900A802F089FA04465F
S315080080E001F089FE00F0F5F8FFF77AFF000603D4E1
S315080080F04221204603F028FD204601F0D3FF00F078
S31508008100E9F8E5E7BDE8F18F42574200A87E00206E
S31508008110647000204A6D0020D86C00208070002012
S31508008120E86C0020E06C0020EC6C0020FF000000EA
S31508008130F8B50D4C2768060014D0FFF725FD0B4D42
S3150800814021682A7821F8126037F8021BB142FBD160
S31508008150FFF720FDB81E2168401AC0052978000ED1
S31508008160884200D1FF20F2BDE06C0020E46C0020BC
S3150800817010B57348734C006820606060482200217F
S31508008180FEF7E9FD7048216800780870002021682C
S315080081900873216848730B202168887303202168B7
S315080081A0C8734FF6FE71206801824FF6FF7141824F
S315080081B000F094FB2168087600F090FB2168487669
S315080081C000F08CFB21688876604821680078C876BC
S315080081D05F492068096881625E49097880F82C1031
S315080081E05D4821680068086310BD10B5FCF747FABA
S315080081F0544C6168897B884203D00846FCF737FAF5
S3150800820050B9FCF73FFA0146606890F90F008142C1
S3150800821004D0FCF73BFA08B1012010BD6068008A5B
S31508008220FDF70FFB6068408AFDF713FB6068007B6B
S31508008230012818BF0020FDF7EEFA002010BD10B582
S31508008240464C0020207004F030FA20B92046BDE8DC
S31508008250104002F043BA04F0B1FE08B104F0DFFEA4
S3150800826063E080B5002000F015F828B1002000F082
S3150800827005F808B1002002BDFF2002BD314800689C
S31508008280407B02281CBF1128432801D101207047D2
S31508008290002070472B480068007B012818BF022879
S315080082A004D003281CBF0628072801D101207047DF
S315080082B000207047002070470020704770477047BD
S315080082C00020704701207047704700207047002043
S315080082D07047704770470020704780B50020FFF749
S315080082E0CDFF20B10020FFF7D5FF00B1012002BD68
S315080082F080B50020FFF7C2FF30B112480068007B46
S31508008300032801DA002002BDFF2002BD10B50400D3
S3150800831004D0E5210FF26800FEF7DCFB0848006888
S31508008320482101FB040007494860BDE810405CE7A6
S3150800833004484068008A704702484068408A704787
S315080083400C6D0020CC7B0020456D0020466D00207A
S31508008350146D0020186D00201C6D0020BC7B0020C9
S315080083607047002070470020704702F0F2BA704745
S31508008370704701F0DFBB04F0DEBF05F033B900003B
S31508008380656D6265722D6D756C74692D6E65747791
S315080083906F726B2D737475622E63000038B50446D0
S315080083A00D46012005F0C6F95D48002D12BF0021D3
S315080083B00178491C01705B4844705B48FCF7F2FE83
S315080083C0BDE83240002005F0B5B910B500281446BE
S315080083D03FD0402823D0882818BF892840D08D2828
S315080083E02FD08F2846D15148007804280DD144B1A2
S315080083F04F490220087040F60620BDE8104005F0F7
S315080084009BB9FDF792F9312030E0012001F088FB95
S31508008410FDF78BF9002C0CBF3120002026E04048E0
S31508008420444900780978884204D2BDE81040002102
S315080084300120B3E7002001F073FBFDF776F9402031
S3150800844014E0002001F06CFB00212020FFF795FFC7
S315080084500BE0012001F064FBFDF767F9002005E059
S31508008460002001F05DFBFDF760F98D20BDE81040A6
S3150800847002F01EBBBDE81040C9213CE02C4800783C
S31508008480022800D0704780B52B480078042807D00A
S315080084900C280ED129480078022818BF7C2808D154
S315080084A005F065F9FDF741F9BDE80240002002F044
S315080084B0FFBA01BD38B50024FFF766FB05461C4820
S315080084C0007810B9FCF7BDFD04462846FFF762FBA5
S315080084D0002C1CBFBDE8314001F03EBB31BD80B564
S315080084E0FFF7E8FFBDE804404FF4A051144802F036
S315080084F000B940F205110FF25000FEF7EBBA38B595
S31508008500104C2068216C01EA0005ADB2680705D554
S31508008510206C20F00400206403F0A4FF256031BD20
S31508008520E77F002018700020A07D00204D700020F5
S31508008530947D002078700020DE7F0020DF7F0020F9
S31508008540487F002008A000406D61632D656D3235B7
S31508008550302E630070B504460D461646FDF741F900
S3150800856038B16078002E14BF40F0200000F0DF001C
S3150800857060702946204601F018FEFF2821D0934C4A
S315080085800146201D02F01FF8914D28882188401CBD
S31508008590288080B281420AD26888401C6880201DE3
S315080085A002F026F801F07EFD2888401E28802088E3
S315080085B029888842F3D3BDE870408648007802F0DF
S315080085C07BB970BD2DE9F04FA5B082460027FFF7AD
S315080085D0DBFA7F4C2188491E2180FFF7DBFA5046DB
S315080085E001F0ECFC082390F800804078DFF8E89169
S315080085F0029000975146D9F800001AF80000A0F139
S315080086000802D2B203A801F0ECFD03AE7078FFF7BA
S3150800861060FE7248007808B3606800281DD0F078BC
S31508008620FCF78EFD4146FCF792FD074696F90200D7
S3150800863000F166060020009008F10103DBB2002273
S31508008640514605A801F0CDFDFFF73EFE636872B2FC
S31508008650394605A89847FFF73DFE95E0029800F0D1
S315080086600700022827D0FF208DF80400504601F0A5
S31508008670A5FC00F1010B584601F0EEFB0446A8EBF9
S315080086800400801E45B2002D15D401A9584605F0F0
S3150800869063F9002879D1029800F0070001280BD168
S315080086A09DF8040004EB0B0103F073FD20B99DF857
S315080086B0040001F0F7FC68E09DF80400D9F8001002
S315080086C0475C4749096800F801A0D9F800001AF87C
S315080086D0000000F120019DF80400C9B201F074FC05
S315080086E09DF8040001F082FB00F00C0004281CBF72
S315080086F06519002468B280B20090631C9DF80400D6
S315080087009BB25246394601F02DFFE9199DF804003F
S31508008710C9B201F012FE334970780978884204D349
S31508008720BD210FF2C800FEF7D5F99DF8040001F047
S3150800873058FB71788004800C40EA81319DF804006A
S3150800874089B201F050FBF078FCF7FAFC4146FCF7D9
S31508008750FEFC02469DF80400032101F021FBB078D7
S3150800876000F166029DF80400D2B2042101F018FB5C
S315080087709DF80C209DF80400052101F011FB9DF8D9
S3150800878004A0504602F0F0F90127504601F08AFC91
S31508008790FFF7A0FD384625B0BDE8F08F10B50C4CA4
S315080087A0618829B1C9B21D20FFF7E7FD0020608066
S315080087B00D4801F01DFFFF2803D0FFF703FF00282F
S315080087C0F6D010BD084801F05DBF000070700020AB
S315080087D0CC7E0020C87F0020CC6C0020897D00203C
S315080087E0D46C0020106D0020747000206D61632D1C
S315080087F0726563656976652E6300000038B50446C0
S315080088001B4D214600F03DF8E860211D00F039F8BF
S31508008810A86004F1080100F034F8686004F10C015E
S3150800882000F02FF8286031BD7047F8B50446114DA1
S31508008830114E8020286006203060072028603068A6
S315080088408007FCD5002704EB870100F01AF87F1C87
S31508008850042FA862F7D330684007FCD500262A6B98
S3150800886004EB860100F00AF8761C042EF7D3F1BD56
S31508008870383000400030004010A00040002002F0D0
S315080088804ABA002002F055BA70B504460D46FFF7FD
S315080088907BF906462846FFF7B1FF2046FFF7C5FFD6
S315080088A03046BDE87040FFF775B9002848BF40421A
S315080088B07047000081B209B94BF6EF610E4A118084
S315080088C0000C08BF4FF6CE2050807047028813046C
S315080088D048BF4A40510001801046704738B5064CDB
S315080088E062212046FFF7F2FF054641F20B01A01C64
S315080088F0FFF7ECFF684032BD926F0020EFF311805E
S3150800890060288041C043C00F70470000002181F3F2
S31508008910118870472DE9F04FDFF80C4591B0616872
S315080089200F91072808BF032002D0082808BF022095
S31508008930DFF8F85429686A6841EA0221AA6841EA18
S31508008940024100916968490703D5E16941F00201CE
S31508008950E1612968490703D5E16941F00401E1614C
S315080089600099EA69D140C90703D5E16941F00801D0
S31508008970E1610021DFF8AC64DFF8B47431600128E6
S3150800898000F0FA81C0F0208203281AD004D3042804
S3150800899040F01A82616014E0386CC00703D5E069BC
S315080089A040F04000E061386C400703D5E06940F0CC
S315080089B02000E061386C800703D5E06940F01000BC
S315080089C0E061FFF7E1F800F092FA8DF838004FF011
S315080089D00009DFF86014DFF860A4C1F50041012042
S315080089E0090B00FA01F1491ECAF83810090A07D11D
S315080089F0DFF84814097819B1616C41F02001616407
S31508008A00396CDFF83C84DFF83C240D91796C0C91C5
S31508008A10D8F84C100B91D8F850100A91D8F8541081
S31508008A200991D8F858100891DAF800100791DAF881
S31508008A3004100691DAF814100591DAF82410049156
S31508008A40DFF8041409681268039202222260DFF82C
S31508008A50FC2312688DF80420DFF8F42312688DF8D9
S31508008A600520DFF8F02312688DF806204FF0FF3254
S31508008A70626200F0B2F9D2040AD56A68D20707D54D
S31508008A80E269D20704D5326842F4807281463260C0
S31508008A9000F0A3F992040AD56A68520607D5E26976
S31508008AA0D20704D5326842F480428146326000F02B
S31508008AB094F952040ED5009AAB69DA40D20709D563
S31508008AC0E269D20706D53268AB6900FA03F31A439E
S31508008AD08146326000F081F9120410D5009AEB69DC
S31508008AE0DA40D2070BD5E269D20702D4E269120747
S31508008AF005D53268EB698146984010433060D64800
S31508008B000068C00308D5E069000605D5F07840F08E
S31508008B1008004FF00109F07000206A68D2076A68F9
S31508008B2048BF4FF480505206009AAB6948BF40F4DC
S31508008B300050DA40D207009AEB6948BF40F48040FB
S31508008B40DA40D207E26948BF40F40040D20605D4AD
S31508008B50E269920602D4E269520601D540F0100095
S31508008B60E269120648BF40F4803008400290A5200A
S31508008B7000F0B4F90120E063E069A16B11B1616A04
S31508008B800142FAD0616A014200F0C7800020E06322
S31508008B90F07840F04000F07000F0F0F907203860F7
S31508008BA00F20C8F8000004F095FF0F98A6496060EA
S31508008BB00D9838640C9878640B98C8F84C000A9895
S31508008BC0C8F850000998C8F854000898C8F858001A
S31508008BD00798CAF800000698CAF804000598CAF863
S31508008BE014000498CAF82400029808609549039866
S31508008BF008604FF0FF309949086094480068307063
S31508008C0093480068707093480068B070626AE069BB
S31508008C101040EA69336801994B4000990B400106F8
S31508008C20490E01F0010143EA81230106890E01F08C
S31508008C30010143EA81030106C90E01F0010101FAA7
S31508008C4002F21A4300F47C7042EA00503060FEF7E4
S31508008C509BFF00F0A1F9002020609DF8380008B1BC
S31508008C6000F02FF9F07878490968C90304D5C0F3EC
S31508008C70C00109B120212162396C890703D5C107D2
S31508008C8044BF0221F960396C490704D5C0F3400195
S31508008C9009B10421F960396CC90704D5C0F380010C
S31508008CA009B10121F9603168D8F84C2012F0E00FBB
S31508008CB005D0CA0503D5684B4FF480521A60D8F818
S31508008CC0502012F0E00F05D04A0403D5624B4FF44A
S31508008CD000521A60D8F8542012F0E00F08D0AA699A
S31508008CE021FA02F2D20703D55B4B4FF480421A6091
S31508008CF0D8F8582012F0E00F07D0EA69D140C90722
S31508008D0003D5554A4FF40041116040F08000F070D9
S31508008D1011B0BDE8F04FFFF7F9BDB9F1000F7FF4C8
S31508008D2037AFDAF818004749DFF834B14008400091
S31508008D30CAF818004348806840F00400886040F28A
S31508008D400721BBF80000884202BFBBF802004FF2B9
S31508008D500F01884205D14CF23C30ABF802004FF0C7
S31508008D600109012004F0F0FEB9F1000F03D04FF21B
S31508008D700F00ABF8020011E700F0B9F80446A52089
S31508008D8000F0ACF800F0FAF8FFF7C0FD354D2E6894
S31508008D90286840084000286000F0F6F8324FD7F8F7
S31508008DA00080386820F04000386000F0E9F8C7F81D
S31508008DB000802E6000F0E8F80CB100F082F811B0DF
S31508008DC0BDE8F04F00F0E8B811B0BDE8F04F40F24A
S31508008DD03C410FF2A000FDF77DBE1F4A126870479E
S31508008DE0124ACBB21360C1F307235360C1F307419C
S31508008DF0916000231D490B601368002B04BF53685C
S31508008E00002B01D192681AB10A6842F001020A6081
S31508008E100A6842F400720A600A6842F080020A6030
S31508008E2078E50000E47A00200400004008BC004011
S31508008E3014A00040000000000440004098070808FD
S31508008E4014A8004008ED00E000E100E008B000408A
S31508008E5008B2004008B4004000E200E080E200E00A
S31508008E600000002094ED00E0008000402000004053
S31508008E700021B5E7736C6565702E630003480188A9
S31508008E80034808237F22FBF75DBD00BFA6EC020856
S31508008E90007C00202D480068C00701D42C48704784
S31508008EA02C48704780B5FFF7F5FF2B49096801B9CB
S31508008EB0400802BD80B5FFF7EDFF400802BDFCF78C
S31508008EC068BE2648012181604EF6BE214160012117
S31508008ED0016070472249012008607047A52805D11E
S31508008EE01E484DF6AD6141600221016070471B487E
S31508008EF00068C00701D5012070470020704780B57B
S31508008F001849194A1020086018491948007858B1B4
S31508008F1003280CBF00200120106040F651000860AD
S31508008F200020FDF7EEF806E0022010604FF400601E
S31508008F300860FCF7E7FD07210E480160002101647F
S31508008F4010200D490860002002BD00001C400040AA
S31508008F50001BB70000366E0120400040006000404C
S31508008F600860004080E100E0080000400C60004016
S31508008F70B27F002014A0004000E100E072B67047FE
S31508008F8000BF30BF00BF7047BFF35F8FBFF34F8F7F
S31508008F90BFF36F8F7047000062B67047DFF8F802BC
S31508008FA0016C41F4C04141F0090101644FF6FF71BB
S31508008FB001602020DFF8E4120860704770B50028C9
S31508008FC015461E4638D0012835D113293CBF0FF265
S31508008FD00C30095C08096422504301F00F010B2983
S31508008FE003DA884006E00A2250430A46511ED2B2E6
S31508008FF00B2AF8DA01460120FDF7AFF8E0B9300987
S3150800900007280CBF00200220012D08BF40F01800D9
S3150800901003D0022D08BF40F0080006F00F01022910
S315080090209F49A8BF40F00400886001200860FFF748
S31508009030B5FF002062BD212062BD38B5040012D1FB
S3150800904098480468608828B140F2AB210FF2842062
S31508009050FDF740FDA188C9B2A01D00F089FA0020DD
S31508009060A080208031BD012802BF8D4800680128F4
S315080090700FD1FEF789FD05468B48016841F00601C8
S315080090800160012000F09AF82846BDE83240FEF754
S3150800909081BD31BD012804D18348016821F006014C
S315080090A00160704780B50B46114620B9184600F096
S315080090B05FFA002002BD012802BF7C488269012AA6
S315080090C007D0212002BDC2685207FCD513F8012B30
S315080090D002600A46511ED2B2002AF4D1C168490676
S315080090E0FCD5E6E710B50446FFF7F4FE012C03D1DC
S315080090F0714800684006FBD510BD70B56C4A6D4BCB
S3150800910012680CE0158810F8014BAD18AC7114887C
S315080091101D8800F06DF814809488641C94800C46B1
S31508009120611EE4B254B19488644D2D886D1EAC421C
S31508009130E8DBBDE87040232100208EE070BD2DE9F4
S31508009140F84304465A48DFF86C91DFF87081574FA8
S31508009150254650F8256014E0B18838F81520521EC7
S3150800916091421CDA318889198871308839F81510C6
S31508009170401C90FBF1F201FB12003080B088401CC5
S31508009180B080F868800716D5F86810F03801386896
S31508009190E2D0080705D4C80605D5242107E023210F
S315080091A005E0272103E088064CBF2521012120463A
S315080091B000F053F8E5E7BDE8F183704770B5394923
S315080091C03F4A51F82010394B0CE04C886418A479B2
S315080091D01C604C8832F8105000F00AF84C808C88D5
S315080091E0641E8C808C8814B1DC686407EDD470BD6D
S315080091F0641C94FBF5F605FB164470473148324962
S31508009200C2680A6002694A600068886070472E4929
S3150800921023480A6842614A68826189688160012137
S3150800922001600120BAE6704738B51B4C0FE046F2DC
S3150800923029700542256003D0A9B20120FFF77FFFF8
S3150800924041F6D60005421CBF0120FFF7B7FF20688C
S31508009250216C11EA0005EAD131BD30B5144A1B4C20
S3150800926052F82020055D1A4B25B9128823F81020DC
S31508009270015530BD33F810301380015513885188D5
S315080092808B4205D20D4C34F81000401A181800E02D
S31508009290581A908030BD000008A8004000E100E0A0
S315080092A054C80040B86F002048A800403CC8004099
S315080092B0C86F00209C9A000848C8004020E80208A9
S315080092C0949A00085CC80040E87A0020107A0020CA
S315080092D0147A0020756172742E630000306090C0A5
S315080092E0C1C2C394C495C55C96C6AC9798990D003F
S315080092F07047000010B50446FEF746FC4649302084
S3150800930008604649086046490860102045490860D3
S315080093104FF20F01200A0028434808BF24020480A0
S315080093204180BFF35F8F414800210160416040489A
S315080093304049086010BD40480168C90708D53F4A3A
S3150800934003211170016C490849000164012101607B
S315080093500168090703D5016C21F00801016470470B
S3150800936080B5002000F009F830B9BDE80440FC21BA
S315080093700FF2DC00FDF7AEBB01BD2DE9F044304C21
S3150800938021680D1A15F01F0105D0002852BF6D1A65
S31508009390681A00F120052B48A5F12006A84224BF2B
S315080093A02948864203D3EFF30880854201D300207B
S315080093B02DE0FEF7E9FB82462448006810F0010715
S315080093C018BF04F09FFB206801468D4206D2A842CA
S315080093D024BFCD2100F80119F9D206E02038002271
S315080093E001E000F8012B8842FBD32560304604F0E3
S315080093F08EFBE22001E006F8010BAE42FBD30FB16B
S3150800940004F068FB5046FEF7C5FB20682038BDE827
S31508009410F0840B48006870473020004030C8004090
S3150800942030C0004010E00040000000201C40004012
S315080094300400FA050CED00E018A00040CF7F0020DC
S315080094402870002088610020540D002094ED00E06B
S315080094506D6963726F2D696E7465726E616C2E63C9
S315080094600000000030B522480168002000220124CF
S315080094709440CBB2234213D00FF284001D4C30F82F
S31508009480120006284CF23C324FF20F031DD16088B9
S31508009490984216D12188080A0B2812DA084612E0E3
S315080094A0521C92B2082AE2D31349088140F201728B
S315080094B00889904204D11148D0E90023C1E9002364
S315080094C030BD4FF4C0606280EEE740F20725A8423F
S315080094D001BF618899422188A942E5D16280084680
S315080094E0E2E705480089000A704703480089704783
S315080094F02C00004000000020BC74002090000020D2
S315080095000104020401030105060007020309010913
S3150800951070B5B34C204601F0B5F8D8B9204601F02D
S3150800952067F8FF28044615D0AE490968405C851ED1
S31508009530E9B2204600F0F3FF0646E9B2204600F0FD
S31508009540FCFE2146304600F0F8F82046BDE870409B
S3150800955000F0A8BD70BD03460A469FA10420FFE798
S315080095600CB480B502AA00F03DF801BC5DF80CFB0E
S3150800957021B103460A4699A11120F1E7704700B5C3
S3150800958087B0FCF751FF002105910246502104914E
S31508009590002354210391012000210291019192494F
S315080095A000910FF25421FFF7DBFF90488179C378C9
S315080095B0827803910188029141790191017900919C
S315080095C042200FF24021FFF7CBFF07B000BD10B5D0
S315080095D004462146824800F0F6FF2046BDE81040C2
S315080095E000F052BD2DE9F04F85B005460C46904671
S315080095F0002600F099FAF8B904F01DFBE0B1012045
S3150800960000F0E7FC8246BAF1FF0F15D0002100F002
S31508009610DBFC294601A804F014FB05469CB900F0BA
S3150800962087F830B9504604F084FB10B1042000F0E6
S3150800963077FA504600F036FD05B0BDE8F08F8DF894
S3150800964004200125641C20780028E8D0A0F1300108
S315080096500A2905D20A2101FB0600A0F13006F1E726
S3150800966000F066F80028E4D122780025422A01A8ED
S315080096700ED0442A1AD0462A25D0572A0DD0622A57
S315080096803AD0662A2AD06C2A25D0702A26D0D6E760
S3150800969058F8040B8DF80400D3E758F8041B8DF826
S315080096A0041002250904090E4170CBE758F8041B7B
S315080096B08DF804100A0A427004250A0C8270080EF6
S315080096C08DF80700BEE758F8041B504600F0F5FD74
S315080096D00028B7D0ADE758F8046BB3E7012358F86C
S315080096E0041B662A08BF0223F2B2504600F0C7FDE3
S315080096F0002808BF0026ECE73A4858F8041B00681B
S315080097001AF80090CFB2FF2F9CD017F800B00BEBD9
S315080097100901C9B2504600F010FE002889D1CDF8DB
S3150800972000B000233A464946504600F01BFF89E739
S315080097302A4601A9504600F0BEBD2DE9F04312287D
S3150800974085B080460D4609D03A281DD04FF6FE71E1
S31508009750884204BF284600F0F3F934E02148244F34
S3150800976000682E5C08E0284600F028FC2146FFF732
S31508009770C4FC38682D5C203EFF2D24D0F6B2212E7D
S31508009780ACBF20243446EEE703F09FFB8146FCF786
S315080097905DF80646FAF776FF0746FAF770FF0446BD
S315080097A0FCF74CF8024610480FF260010390CDF81A
S315080097B0109023460F48006840880290019600974B
S315080097C03B20FFF7CDFE2946404605B0BDE8F043ED
S315080097D000F0ACB900000000574600006C700000AD
S315080097E024700020CC6C0020007C0020A8EC020825
S315080097F0D46C0020CC7B0020424238704242424260
S31508009800574242004242424257420000574242579C
S3150800981057387042000000002DE9F0470446884694
S3150800982091469A4600F025F9002801BF25460FF211
S315080098306020285C012823D1DFF8286256F82570B5
S31508009840FEF7A2F90021B98039807980FEF7A2F9DE
S3150800985006EB85000669FEF797F9DFF80C2200216A
S31508009860B18031807180A954FEF794F9FFF7DBFCCB
S3150800987053464A4641462046BDE8F047FFF79EBB99
S315080098802120BDE8F08710B50446FFF796FCDFF8FF
S31508009890D40100EB84000069808810BD2DE9F843E7
S315080098A081464C46DFF8BC0100EB84008846066911
S315080098B0484600F0DEF808B1012037E0DFF8A85185
S315080098C0605D05EB440760B1B8887188884208D1A5
S315080098D0FEF75AF9665D00216155FEF75BF93046D9
S315080098E024E04846FFF769FCB088F0B1FEF74CF96A
S315080098F071880FF2A8128919897988F800104FF62D
S31508009900FF78718832F8142000F030F87180B18839
S315080099104144B180FEF73EF9605D20B1B888404504
S3150800992004BF3088B880002000E02620BDE8F28316
S315080099300FF25C11415C01290AD10FF24C11494A18
S3150800994031F8101052F820008088081A80B2704743
S315080099500020704780880FF2301333F81110891AE7
S31508009960884201DA0120704700207047491C91FBA4
S31508009970F2F302FB131170472DE9F84F804647466C
S315080099800FF20C10385C01288B46164638D135483C
S315080099900FF2101950F827400FF2F80A002514E0C4
S315080099A0FEF7F2F8A18801B9012522881BF8011BE8
S315080099B01219917121883AF81720FFF7D7FF2180ED
S315080099C0A188491CA180FEF7E5F83046461EC0B2BC
S315080099D088B1002241462046FFF7BCFF0028DFD1A8
S315080099E01DB14046FFF729FB002517F80900002896
S315080099F0EFD1222005E04046FFF71FFB002000E0DC
S31508009A000120BDE8F28F80B501460FF284028A5C18
S31508009A10012A05D1134A52F821108A88002AFCD156
S31508009A20FFF760FB002002BD0CB438B504460D46AE
S31508009A30FFF730FB04AB2A4621460C4804F023FA0C
S31508009A400FF24C012046415C012907D1054951F81E
S31508009A502000808810B12046FFF7EFFA32BC0020BC
S31508009A605DF80CFBB86F0020107A0020A59000085E
S31508009A707047042806DA0FF21801415C481E804137
S31508009A80C00F70470120704780008000000000006A
S31508009A9001010000800080000000000080008000B6
S31508009AA00000000001010000002204F0FFBA0000D7
S31508009AB062F30F2262F31F42401810F0030308D026
S31508009AC0C91A1FD3DB0748BF00F8012D28BF20F8A5
S31508009AD0022D130030B414461546103928BF20E964
S31508009AE03C00FAD8490728BF20E90C0048BF40F8CF
S31508009AF0042D890028BF20F8022D48BF00F8012D43
S31508009B0030BC7047C91818BF00F8012DCB0728BF0D
S31508009B1000F8012D704770470EB403B070477047C0
S31508009B2070470CB402B07047002070470020704799
S31508009B30704770477047704770477047704770475F
S31508009B4070477047704700207047704770477047E6
S31508009B507047704700207047FAF753BD70B5044642
S31508009B6043380FF2800508D0401E012809D9801E07
S31508009B7001280ED9C01F32D02AE0BDE87040FDF793
S31508009B8091BF002600E00126FDF78CFF0028FAD1D8
S31508009B902EBB134E307810BB012030700020FDF725
S31508009BA08FF9452C11D00BD3472C01D003D307E0EE
S31508009BB040F6010001E040F60200FFF79BFB04E0D7
S31508009BC040F216312846FCF785FF0020307070BD3C
S31508009BD02846BDE870404FF44A71FCF77BBF70BD5C
S31508009BE0AD7F0020656D6265722D636F6E6669676D
S31508009BF075726174696F6E2E6300000080B500F09F
S31508009C0008F880B202BD80B500F003F80002000C27
S31508009C1002BD38B5FDF7B8FF4F490C684D68FDF72A
S31508009C20B9FF45EA044032BD704780B5FFF7FCFF2F
S31508009C304A490720086001204949087001BD2DE9F5
S31508009C40F84304460025206810B9FEF75FFE2AE0AF
S31508009C50FDF79AFF00F074F8206810F1010F1CBF99
S31508009C60401C2060FFF7D5FF21683D4E3B4F8146DB
S31508009C7000F061F821684944090C0160357002203A
S31508009C803860386400F061F80120FFF7F1F83D64A8
S31508009C90307838B98525FFF7BCFF2168081A48448B
S31508009CA0206000E025602846BDE8F2832DE9F84FDC
S31508009CB00D46824628689346002710B9FEF726FE09
S31508009CC036E0FDF761FF00F03BF8286810F1010F58
S31508009CD01CBF401C2860FFF79CFF214C1F4E2770B5
S31508009CE08146296800F027F829684944090C01606B
S31508009CF002203060306400F028F801E02F602770F9
S31508009D002868A8B1BAF1000F03D10220FFF7B0F80E
S31508009D1003E059460220FFF763F8376420780028E5
S31508009D20ECD18527FFF775FF2968081A484428608B
S31508009D303846BDE8F28F0C48494489B241607047FD
S31508009D4080460849102008607047102007490860B7
S31508009D504046FDF71FBF00001060004014A00040F9
S31508009D60CA7F002080E100E01860004000E100E0C2
S31508009D7001460022002099E710B50C4600F01EF9AE
S31508009D802018BDE8104000F0BBBF38B50C46154694
S31508009D9000F014F929462018BDE8344000F0B7BF92
S31508009DA038B50C46154600F009F9255431BD10B5ED
S31508009DB00C4600F003F9205C10BD80B500F016F8DB
S31508009DC000F076F801D1082002BD062002BD38B59C
S31508009DD0044600F0F3F805462046FFF7EEFF401963
S31508009DE032BD0121C8E70A460121CEE780B500F059
S31508009DF0E5F8407802BD80B5FFF7F3FF800B02BD9A
S31508009E0080B500F0DBF8417841F01001417001BDE2
S31508009E1010B50446FFF7EAFF00F04AF804D05E21C1
S31508009E200FF27810FCF756FE2046BDE810400621D2
S31508009E30A2E738B504460D46FFF7D8FF00F038F814
S31508009E4004D064210FF25410FCF744FE2A4620463B
S31508009E50BDE83840062198E780B500F051FF014675
S31508009E608A0A42EAA2030FF2441003F00F03185CB1
S31508009E704B0700D408B9FF2002BD490605D412F0E5
S31508009E8003011CBF12F03001801CC0B202BD10B520
S31508009E900446FFF7ABFF00F00BF802D14FF4006061
S31508009EA010BD06212046FFF767FF00F4406010BD8D
S31508009EB000F00C000428704738B5044600F07EF818
S31508009EC005462046FFF792FFFFF7F2FF0CBF062074
S31508009ED00B20401932BD80B5FFF7EEFF30E010B514
S31508009EE00446FFF783FFFFF7E3FF02D14FF4004074
S31508009EF010BD06212046FFF73FFF00F4404010BD85
S31508009F0070B5044600F05AF805462046FFF76EFF7E
S31508009F10FFF7CEFF01D1A81D70BDA81DFFF79CFF56
S31508009F2006462046FFF7DBFFB0F5004F0CBF0220C0
S31508009F3008207119081A801D70BD80B5FFF7E0FF6B
S31508009F40BDE8024000F0DCBEF8B504460D461646EC
S31508009F50012000F03EF80746FF2F1ED0FEF7B5F9A0
S31508009F60A104890C41EA803189B23846FFF73BFFE4
S31508009F703846FFF722FF0146384600F025F83146F5
S31508009F80384600F0D2F842F20C002040042803D1EB
S31508009F9029463846FFF74DFF3846F2BD7061636BB8
S31508009FA065742D6865616465722E63000300070D8C
S31508009FB0000000000700090F0D000F15DFF8A416B2
S31508009FC0096801EB40107047DFF89C261268815437
S31508009FD070472DE9F041040035D0FDF7D5FDDFF8CF
S31508009FE08C16DFF88C360E78FF228046FE2EDFF8B8
S31508009FF084061BD100260E70DFF87CC6DFF87C6667
S3150800A00037781F70002708E007F1010E07F805E00A
S3150800A010DCF800507A555FFA8EF796F800E0056886
S3150800A0207745F1DB0EEB050606F8012C1E78A642ED
S3150800A0300BD24046FDF7AEFD0520FFF771FD002166
S3150800A0401B20FEF79AF9FF201CE0361B1E70DFF86E
S3150800A05030360E780F78D3F800E0012507F80E5051
S3150800A060641E056817F805E081F800E0E4B2002CE4
S3150800A070F0D17A5500213046FFF7A6FF4046FDF796
S3150800A08089FD3046BDE8F08110B50446FDF77CFD34
S3150800A090DFF8EC150968625C521C6254BDE8104092
S3150800A0A0FDF778BD2DE9F041054600F031F8044684
S3150800A0B0FDF76AFDDFF8B425DFF8B435DFF8B465D7
S3150800A0C0DFF8BC85FF2D1FD0D8F800106F5C7F1E07
S3150800A0D06F547F27D8F800E015F80E10394213D1CF
S3150800A0E03168695C002705F80E701F787F1C1F70A1
S3150800A0F0FF29376892F800E005F807E0157006BFF3
S3150800A1002546FF240D46DDE7BDE8F041FDF742BDD3
S3150800A11080B5DFF86C150968415C090603D5FFF7B9
S3150800A1204DFF007802BDFF2002BDB0B504460D46BE
S3150800A130FFF7EEFFFF2818BFFFF7B4FFFF2DDFF884
S3150800A140407504D13868215C01F07F0106E0284695
S3150800A150FFF79AFF3868215C41F0800121542046B8
S3150800A160FFF72CFF0570B0BD0EB478B50446012084
S3150800A170FFF72FFF0546FFF721FF0646FF2D08BF0D
S3150800A180FF200FD0E1B22846FFF71EFF05A80021E1
S3150800A19004E050F8042B06F8012B491CC9B2A14269
S3150800A1A0F7D3284672BC5DF810FB70B504460D4619
S3150800A1B005F11F000004400D82B0C0B2FFF709FF89
S3150800A1C00646FF2E0CD02946FFF7FEFE3CB10120BD
S3150800A1D000902B4600223146204600F002F8304611
S3150800A1E076BD73B500F0BBF8085C15461E467119B6
S3150800A1F0884203DA4FF4B07100F0DAF866B12946FE
S3150800A20001A800F0D9F8024606989DF804100090B7
S3150800A2103346204600F001F873BD2DE9F843089C43
S3150800A220DFF850840546894616461F460BE04A5D08
S3150800A2300A54491CB142FADBD8F80000BF1B75194D
S3150800A24019F800900026FFB2BFB14846FFF7B6FEE0
S3150800A2503018F1192029B2BF3E46C6F12006F6B2DB
S3150800A260324624B901462846FCF732FDE4E7012CBC
S3150800A27008BF2946F8D00021DCE7BDE8F1832DE9BF
S3150800A280F04100F06CF882B01600255C88461F463F
S3150800A2900ED07119C9B2204600F04FF808B118203F
S3150800A2A007E0009733462A4621464046FFF799FFBE
S3150800A2B00020BDE8F6810123E1E70A4600E0521CCA
S3150800A2C01378002BFBD1521A0223D2B2D7E7F8B57E
S3150800A2D0044601F11F00C50402F11F00C0042D0E3B
S3150800A2E0000E05B9012500B90120854223D0854213
S3150800A2F0DFF8806310DA401BC0B2FFF76AFE074634
S3150800A300FF2F01D10020F2BD691EC9B2204600F018
S3150800A3102BF8316847540EE08A420CD2411EC9B266
S3150800A320204600F021F804463068205CFFF7BAFEA4
S3150800A3303168FF2060540120F2BD38B500F00FF8EF
S3150800A3400D46215C2A462046FFF7C1FF28B129465B
S3150800A3502046FFF739FE002032BD182032BD0446DC
S3150800A360DFF804030068704704E0DFF80823126882
S3150800A370805C491EC9B20029F7D1704711B581B072
S3150800A380DFF8E40200680C469DF80410085C844275
S3150800A39003D34FF4F47100F00BF8214601A800F03E
S3150800A3A00BF804469DF80400FFF708FE201816BDB2
S3150800A3B00FF2F420FCF78EBB38B504460D46E904C7
S3150800A3C02078090EFFF7D0FF207005F01F0032BD78
S3150800A3D080B5FFF7D3FF007802BD10B51446FFF726
S3150800A3E0CDFF047010BDB0B5FFF7B9FF82B0255C8C
S3150800A3F0FF2C03D14FF40271FFF7DAFF05F11F00B6
S3150800A4000004400DC0B2FFF7E4FD0746FF2F0AD04F
S3150800A4102946FFF7D9FD0095002322460021384634
S3150800A42000F0A0F83846B6BDF8B504460D461646FF
S3150800A4300120FFF7CEFD0746FFF7C0FDFF2F01D12C
S3150800A440FF20F2BD33462A462021201800F00FF8D7
S3150800A4502118C9B23846FFF7B7FD3846F2BD0CB425
S3150800A46080B502AAFFF7E0FF02BC5DF80CFB2DE9F8
S3150800A470F047804616469946C24600250C460AE02D
S3150800A4803A465046FCF724FC7819BA44401EC5B231
S3150800A490681CC5B2761CA5423CDA3078002839D04B
S3150800A4A0312818BF32280ED159F8041B0AF8011BA7
S3150800A4B03228EDD1681CC5B2AC42A4BF08120AF80E
S3150800A4C0010BE5DA26E0342811D1291D59F8040BC9
S3150800A4D08C421FDB0AF8010B010A0AF8011B010C62
S3150800A4E00AF8011B000E0AF8010BE81CCFE7A0F1D9
S3150800A4F0330259F8041B072A38BF303806D3A0F1AF
S3150800A5004102072A34BF373859F8040BC7B27819FD
S3150800A510A042B5DBAAEB0800C0B2BDE8F08770B56B
S3150800A52000F015F800F004F800EB062080B270BDC4
S3150800A5300646294620464BE700B583B002238DF828
S3150800A5400420120A8DF805200122009204E00D4627
S3150800A550691C0446C9B23BE70A46014601A8FFF74B
S3150800A56040FE07BD2DE9F541089C1F464CB325461C
S3150800A57089B200A8FFF720FF0646B9B201A8FFF77F
S3150800A5801BFF07463046B84238BF3846C0F12000A0
S3150800A590C0B2A842B8BF05469DF80400FFF70EFDF5
S3150800A5A080469DF80000FFF709FDAAB207EB0801EF
S3150800A5B03018FCF78DFB641BA919EF19A4B2002CFF
S3150800A5C0D5D1BDE8F38170B504460D46FDF7DCFA32
S3150800A5D0294B21781B68FF2908BFED5403D0C918F9
S3150800A5E00E78EE540D702570BDE87040FDF7D2BAAE
S3150800A5F038B50446FDF7C8FA2178FF22FF2908BFB7
S3150800A600FF2507D01C4B1B68CD5C8D420EBF227000
S3150800A610EA5CCA54FDF7BEFA284632BDF8B50446C8
S3150800A6200D460026FDF7B0FA2178FF2915D0124B02
S3150800A6301B680A46012602E0761C3A46F6B2D75C43
S3150800A640AF4208D1FF5CD754A94206D18A4208BF57
S3150800A650FF22227001E08F42EED1FDF79BFA3046C9
S3150800A660F2BD0000C86C0020CC6C002014700020DD
S3150800A670C66C0020D46C0020D86C0020C56C002065
S3150800A680D06C00200078FF2801D1012070470020F7
S3150800A690704710B5044602E0FFF704FD2046FFF7B1
S3150800A6A0A7FFFF28F8D110BD7061636B65742D6232
S3150800A6B075666665722E630038B544784568FDF799
S3150800A6C063FA824A0C2161438B585B1BB3F1004F36
S3150800A6D098BF8D50BDE83240FDF75CBA10B5044608
S3150800A6E0FFF797FA6060042020702046BDE8104006
S3150800A6F0E2E738B504460D46FFF78BFA281860607E
S3150800A700012020702046BDE83240D5E710B5044642
S3150800A710207860B1042806D0FFF77BFA6168421AF0
S3150800A720B2F1004F01D8002010BD081A10BD4FF035
S3150800A730FF3010BD70B50446FFF76BFA0546FDF706
S3150800A74023FA064660686FF0004100F02CF84019BD
S3150800A75020603046BDE87040FDF71CBA70B5044667
S3150800A7600D461646FFF755FA002156B1FF223270FC
S3150800A77007E0121AAA4202D2154606B13170491CE0
S3150800A780083422680AB9284670BD1378002BF6D01B
S3150800A790042B04D05268831AB3F1004FE9D806B1E6
S3150800A7A03170002070BD0022D8E738B50446FFF79F
S3150800A7B030FA05460DE0017851B1042904D0416804
S3150800A7C0691AB1F1004F03D80421017061688847FE
S3150800A7D0083420680028EED131BD10B53B490C225B
S3150800A7E002FB0014FFF715FA2168401AB0F1004F72
S3150800A7F006D86068FFF7D9FF2046BDE8104099E7FC
S3150800A80010BD70B5324D33490978044668788842D8
S3150800A81004D3E5210FF2C000FCF75CF96E78701CD2
S3150800A82068700C21294801FB060001214460017269
S3150800A83000E04E7054F8081B0029FAD1FFF77AFF9A
S3150800A840304670BDF8B505464FF0FF300090204CF5
S3150800A850207840B3FEF752F828B940F219110FF2E2
S3150800A8607800FCF737F9FFF7D4F9184A0C2101FBF1
S3150800A870052300251D72002305E0009EB54288BF0A
S3150800A880354600955B1C6578DBB2AB420FD201FBFF
S3150800A89003263568471BB7F1004F04D9367A2D1AB7
S3150800A8A00EB9002DE9D1FEF731F80020F2BD00A857
S3150800A8B0FFF7C5F90120F2BD044A0C2303FB00206B
S3150800A8C0012101727047024908707047DC74002044
S3150800A8D0C07F0020B4E502086576656E742D636F47
S3150800A8E06E74726F6C2E6300F8B50446DFF8D003F9
S3150800A8F00078002802BFDFF8CC63F06800280D4610
S3150800A90025D1DFF8C40300780A2818BF022D1ED106
S3150800A910FDF73AF9B278082A074616DA012D02D168
S3150800A9209019047104E0311D701DFCF7D1F93471DA
S3150800A930B078401CB0703846FDF72CF92046FFF772
S3150800A940A3FB01F0A7FC0120F2BDFDF723F90020C7
S3150800A950F2BD80B5FDF704FDDFF86803C17829B9B3
S3150800A9600121C170BDE8014001F094BC01BDDFF8CA
S3150800A97054130020C870704770B5DFF84403007898
S3150800A980002839D1FDF700F9DFF83843DFF83C53E2
S3150800A9900646A07860B121792970421EA270611D11
S3150800A9A0D2B2201DFCF794F93046FDF7F3F821E002
S3150800A9B03046FDF7EFF8E068F0B9E078022802D0F3
S3150800A9C003F0D2FB28702878FF2810D1E07870B100
S3150800A9D0FDF7C7FCFDF77DFC03F0A5FDFF282870F1
S3150800A9E003D0FDF7C0FC00B9E070FDF773FC2878CA
S3150800A9F0FF2801D0012070BD002070BD2DE9F0416F
S3150800AA0004460D46FDF723FAAE4E0020F070FDF71A
S3150800AA10BBF88046F06820B14046FDF7BBF8002039
S3150800AA2013E0AB480078052808BF01F03EFD00F0AA
S3150800AA300EF8070008BFF4604046FDF7ABF81FB1F3
S3150800AA4005B1A047012000E00220BDE8F08110B55D
S3150800AA50FDF79AF89B499E4B8A781B78C9781A4362
S3150800AA60114305D19B4909784C1EA441E40F00E027
S3150800AA700024FDF78FF8204610BD10B59449914C77
S3150800AA8000200870FF20914908700020E060FDF75B
S3150800AA9025FF207000208F4908708F4908704FF4F1
S3150800AAA0A0518E48FFF725FEBDE81040FDF776B8A1
S3150800AAB02DE9F843854E8A4D81463078FF2808D11E
S3150800AAC02878FE2805D04FF4B3710FF22420FCF73E
S3150800AAD001F828787B4FDFF8FC817D4C811F01291E
S3150800AAE00DD805212170494603F0C8FF08B900F0C2
S3150800AAF014F83078FFF7D6FAFF20307003E087F8AD
S3150800AB00019000F00AF82878042804D0F87801287B
S3150800AB1004BF0220F870BDE8F18303202070404688
S3150800AB20FFF7DCBD10B5694C217881420DD1084686
S3150800AB30FFF7B8FAFDF728F8FF212170FE21684AC9
S3150800AB401170BDE81040FDF725B810BD38B55D4D4C
S3150800AB5069780446FDF706F928B969782046BDE8FC
S3150800AB60344000F0F1BF31BD2DE9F8430446FF2C0F
S3150800AB7005D140F2B7110FF27810FBF7ABFF0320AF
S3150800AB80FEF7CEFF574D2046FFF730F900F00C00D0
S3150800AB902870FF2068702046FFF728F900F00C009F
S3150800ABA008285CD028780C2859D12046FFF70FF9D9
S3150800ABB0074600F0A5F8064606F44C483846FFF75F
S3150800ABC04BF9C05D68704FF6FF794FF44060064256
S3150800ABD006D0F81C00F094F8484508BF48F040082D
S3150800ABE006F44060B0F5006F06D1781D00F088F8CD
S3150800ABF0484508BF48F01008697801294CF6500006
S3150800AC0017D0022918D0042908D0062925D00729E3
S3150800AC1025D0082918D07C2911D04FE0B8F5484F1F
S3150800AC2018BFB8F5084F49D12046FDF721F8002886
S3150800AC3011E0B8F5484F0EE0B8F54C4F0BE0B8F503
S3150800AC404C4F0CD0804506E04CF64040804535D147
S3150800AC501D480078052802D030E080452ED12046D0
S3150800AC60FFF7BFF805462046FFF7C0F800F00C00CE
S3150800AC70082816D0A80614D54FF6DF7000EA050195
S3150800AC802046FFF7B0F82046FFF797F80546204616
S3150800AC90FFF79DF8FFF7E0F84119C9B22046FFF71C
S3150800ACA04CFB21461048FFF78EFC2046FFF7ECF9CF
S3150800ACB00E480078BDE8F243FFF7FEBDBDE8F18314
S3150800ACC0897D0020207E00202F70002054700020EF
S3150800ACD0947D0020987D00202C7C0020487F002051
S3150800ACE04D700020DE7F002058700020C87F0020AD
S3150800ACF06D61632D617262697465722E630000006E
S3150800AD0041780078FFE700EB012080B270470170B8
S3150800AD10090A4170704710B50023002814BF1C4665
S3150800AD20C3F10304E4B25B1C6254120A042BF4DB7D
S3150800AD3010BD30B54A788B78CC78097818B120469A
S3150800AD401D460C4602E0154608461A4645EA002006
S3150800AD5044EA022141EA004030BD0000D2B2203A5E
S3150800AD6022BF00FA02F1002070475242D041D2F1C8
S3150800AD70200291404140D040904041407047000039
S3150800AD8038B5DFF8801C0020087003F0E4FE04F0F4
S3150800AD90B9F904F094FA01F0A9FC04F031FB02F0C9
S3150800ADA02FF90024DFF8605C09E02046FDF791FAE8
S3150800ADB004F048FB04F04AFEFDF78CFA641C287878
S3150800ADC0E4B28442F1D320E038B5FDF74AFA0446E6
S3150800ADD00025FF2C08D0FDF77CFA02F0EFF800B941
S3150800ADE00125FDF777FA4DB903F0B5FE04F08AF9A7
S3150800ADF001F07CFC04F004FBFF2C00D00DB102F03E
S3150800AE00FFF804F01FFB04F021FEBDE8314005F011
S3150800AE10D7B8DFF8F80B0068407B11281CBF432819
S3150800AE20412801D1012070470020704710B504461B
S3150800AE30FEF7CDFF801CFFF763FF4FF6F8718842D7
S3150800AE402046A4BFBDE8104000F005B800F05CF845
S3150800AE5000F057F910BD2DE9F041044604F01EF93B
S3150800AE60002837D100F046F94FF6FF7505D241881C
S3150800AE70A9422FD02046FEF7DCFF0023002202213C
S3150800AE80204604F0B3F928B32046FEF7A0FF06468D
S3150800AE90F77905F046FC804605F043FC42463946FC
S3150800AEA004F00AF920B9BE210FF23C20FBF712FE86
S3150800AEB0B01CFFF725FFA84204BF204603F010F98F
S3150800AEC030780321084203D10121204601F0A6F972
S3150800AED0012000E00020BDE8F08138B50446DFF81F
S3150800AEE0640C0068205C851AEDB2681A80B200907E
S3150800AEF053189BB222462046FFF734FB29462046C4
S3150800AF00BDE83440FFF719BA2DE9FE4F0025824601
S3150800AF100195FEF75CFF0646301DFFF7F1FE074672
S3150800AF20B01CFFF7EDFE8046307800F0C0000290B6
S3150800AF303846FDF7FDF88DF80200FF2814BF4FF0DC
S3150800AF400109A94630780321084208D105F0E9FB32
S3150800AF50874202D05FEA090402D0012400E00024F7
S3150800AF60B079002873D005F0DCFB80450BD105F0DD
S3150800AF70D8FB834600225946504600F0C7F80028F9
S3150800AF8065D00020AEE000F0B5F838BFB0F802B0E2
S3150800AF90F0D3404601F088FD20B95046FEF721FF60
S3150800AFA0400514D570784007C346E3D5504605F0EA
S3150800AFB0BEFC00F093FC401C4200D2B22946504623
S3150800AFC0FFF78BFF707800F0FB007070D2E770789F
S3150800AFD040071CD5504605F0AAFC00F07FFC064643
S3150800AFE06F1CF9B200F07CFC002E18BFFF2806D1B2
S3150800AFF00022F9B25046FFF7F0F9C346BAE705EB67
S3150800B0004000811CC9B25046FFF789FAB1E701AA88
S3150800B01000A9404603F050FF8346DCB10298802819
S3150800B02004D0402816D19DF8000098B1307800F079
S3150800B0303F003070384601F037FD10B905F071FB56
S3150800B04007463A460021404605F0D6FE002848D075
S3150800B050012047E00198B8B303F085FE8DF801009A
S3150800B0600198007900F0300002909DF80100FF2851
S3150800B07005D140F223110FF27000FBF72BFD1CB32C
S3150800B0800298102811D020281ED1B9F1000F07D038
S3150800B0909DF802109DF8010003F076FFA0B904E0C0
S3150800B0A0019800790C2108420ED0F3795A46414698
S3150800B0B0384606F0F9F901980079019900F0F3008D
S3150800B0C040F00400087101259DF8000028B101210F
S3150800B0D0404604F0E0FB20B1C346002D8ED0302256
S3150800B0E049E70220BDE8FE8F6E6574776F726B2E96
S3150800B0F063000000DFF814090068017BC91E0329F4
S3150800B1007047401E8041C00F70470022F8B50446BC
S3150800B1100D461646FEF75BFE007800F0DBFB0CBF1B
S3150800B1200127002729462046FEF783FE05F0F9FA8F
S3150800B130854217D0284601F0ACFC50B9DFF8C00AA2
S3150800B14001783246204601B0BDE8F040002304F0FD
S3150800B1504DB86FB905F0E5FA00232246294606F0F0
S3150800B160D8FD28B10121204601F058F80120F2BD8A
S3150800B1702046FEF736FE400505D52046BDE8F440D4
S3150800B1800021FFF7B1BB2046FCF712FDFFF7B9FF18
S3150800B190F2BD2DE9F041044616468846304605F0CC
S3150800B1A093FC07463046FEF708FE3E1AF6B23719F4
S3150800B1B0A8EB060292B2394607F10E00FBF788FDA6
S3150800B1C028203870DFF84458286890F820007873EB
S3150800B1D004F04AFC0246791C0120FFF79CFD082270
S3150800B1E0DFF86C1C781DFBF773FD286890F82000C3
S3150800B1F007F0F0FB08F10E0133460022C9B22046DB
S3150800B20004F053FE1220BDE8F0812DE9F04F85B019
S3150800B21080460D4605F058FC82464046FEF7F8FD86
S3150800B22081464046FEF7C9FD07460AF10E0189B276
S3150800B230404605F094FB002852D0002000900E23CB
S3150800B2405246414601A8FEF7CCFF0DF10501012043
S3150800B250FFF76FFD83469DF804009DF811402828E6
S3150800B2603ED10822DFF8E81B0DF10900FBF77AFD4D
S3150800B270B0B3DFF8E06B204607F0ACFB58B930688E
S3150800B28090F82000201AC0B280280DDA002100208C
S3150800B29007F0C4FE08E00120009000235246394614
S3150800B2A0404604F037FED8B1404605F024FB49462F
S3150800B2B00DF1090008F079FFFE28824610D0FF2814
S3150800B2C03CD1484604F015F98246BAF1FF0FDFF87B
S3150800B2D0887B0BD00DF1090104F001FB387868B3BF
S3150800B2E000211920FDF749F80020F0E200F0FBFAEA
S3150800B2F00AD1404605F0E8FB01464046FFF768F8E4
S3150800B300082801D10120F0E738780028E8D130680C
S3150800B31090F82D1090F82C00814206D3A81CFFF750
S3150800B320EFFC4FF6F8718842DADA0DF10901484662
S3150800B33004F031FA484604F0DCF88246306890F8A2
S3150800B3402000844205D02146012007F052F9002842
S3150800B350C6D0306890F82000844203D1504608F0E1
S3150800B36092FF28B95946504608F008FF0028BCD075
S3150800B3705946504608F012FFC4E738B5DFF8E00A28
S3150800B380FFF736F90446FF2C1DD0DFF8D85A0321FB
S3150800B390FEF70DFD287004212046FEF708FD6870AB
S3150800B3A005212046FEF703FDA870012002F0C2F928
S3150800B3B0204600F009F82046FEF774FEBDE8324044
S3150800B3C0002002F0B7B931BD38B50446FEF70EFDC8
S3150800B3D000F00C052046FEF70EFDFCF77AFF204626
S3150800B3E0FEF704FD00F040FD32D101F0E7FD18B18B
S3150800B3F0204601F00DFE75E0062200212046FFF7E3
S3150800B4006CFD2046FEF7DAFD02F0E7F98DF801003B
S3150800B4108DF802409DF8010048B92046FEF7CEFD9A
S3150800B42001460DF1010002F00CFA8DF800009DF8B6
S3150800B4300100802804D100A808F05BFF002851D13C
S3150800B440FCF742FF00A8FEF779FBFCF743FF49E04B
S3150800B450042D204617D1FEF7C4FC00051ED4022091
S3150800B4600021FCF78AFF01F0A9FD08B1042D39D0A7
S3150800B4700C2D15D12146012009F0B1F890B32046CC
S3150800B48008F04CF82EE0FEF702FDB0F5006FE6D1A5
S3150800B4902046FEF720FD00F0B5FBE0D10020DFE7EF
S3150800B4A01DB9204608F0F0F91CE0042D1AD1DFF882
S3150800B4B0A4090568687B02280CD0FFF7AAFC48B9DE
S3150800B4C0687B332818BF312804D0012804BF287B9D
S3150800B4D0052807D12146022009F081F810B1204637
S3150800B4E000F004F8FCF7F6FE31BD00002DE9F04F38
S3150800B4F085B08246FEF76BFC05465046FEF788FC8B
S3150800B500ADF80600281DFFF7FBFB8346A81CFFF7CE
S3150800B510F7FBADF80400284605F0F5FA03904FF658
S3150800B520F87200F0E0F9687800F00201029100F084
S3150800B5300100BDF8041004900CBF012700279142B2
S3150800B540ACBF4FF001084FF00008504605F0BCFAB2
S3150800B5508146287800F03C01082943D1DFF8E41534
S3150800B56009681AF8011089453CD217B9032108421F
S3150800B57038D10298DFF8DC4848B12068C07E002838
S3150800B58030D029465046FFF740FE00282AD02FB172
S3150800B5905146032009F023F8002823D0494600F035
S3150800B5A09FF90646029878B92068C07E60B1BDF852
S3150800B5B00400009005F0B5F80099814212D197B1C0
S3150800B5C0062E18BF072E0DD12068417B022956D1B9
S3150800B5D0029911B9C07E002851D1BDF8060009F0BC
S3150800B5E0A2F960B173E106F003000128ECD04A46DF
S3150800B5F02946504600F0A6FD0028E5D167E1BDF8CA
S3150800B6000600009005F08DF80099814211D1206856
S3150800B610007BC01E032808D205F083F8014620687F
S3150800B62040880D2209F0BCF951E1012009F090F893
S3150800B6304DE1BDF8060001F037FA70B905F079F862
S3150800B6404FF6FF71884208D0DFF8040C00780A2804
S3150800B65004BFBDF8060003F0DFFE03990122584631
S3150800B66009F09FF80028E3D1284605F03FFA01467D
S3150800B670BDF80400002209F094F80028D8D1BDF8D6
S3150800B68004004FF6FC71884266D12068007BC01E14
S3150800B6900328CDD3A87908B1401EA8716878400759
S3150800B6A02AD50020029002AA00A9584603F004FCF5
S3150800B6B0029808B303F057FB0446BDF80400FCF7EC
S3150800B6C037FD0299097901F03003102B1CBF01F0F0
S3150800B6D00C02082A03D0029A01F0F30111710299AB
S3150800B6E0097901F03301202906D1FF2804D0014643
S3150800B6F00122204603F031FCBDF80600FCF718FDD0
S3150800B700FF2804D0DFF84C2B12680021815409F178
S3150800B7100104049840EA0800C0B2002874D1E97907
S3150800B720584603F059FE08F0EFFD08B1039820B11A
S3150800B730BDF80610584600F0CAF904F0F2FFBDF845
S3150800B7400410884260D0084601F0AEF970B177B1AE
S3150800B750012E1BD1002267E04FF6FD71884299D170
S3150800B7602068007B001F022894D2B0E077B9BDF8A4
S3150800B770040001F08EF948B1BDF8041000235246C2
S3150800B780584606F0C6FA002840F09D80DFF8C80A39
S3150800B790007848B9584601F087F928B9BDF8040079
S3150800B7A001F082F90028E0D0C7B1052E16D104F0C1
S3150800B7B0B8FF8DF8000004F0B4FF000A8DF8010008
S3150800B7C0022200A95046FEF776FD00281BD1E1B2F9
S3150800B7D05046FEF7D3FD0178491C0170687840078A
S3150800B7E00AD5504605F0A3F8411CC9B25046FEF7E3
S3150800B7F0C5FD0178491E01705046FFF785FB0021FB
S3150800B8001C20FCF7BAFD62E0002F4ED0701E0928F6
S3150800B8105DD8DFE800F005050E131930393F4343BC
S3150800B820022E0CBF012200224946504605F0C4FCF0
S3150800B8304DE04946504609F0E7F848E04A46514681
S3150800B840584609F01CFA42E0E1B200F049F805460C
S3150800B850DFF8087A03983860FCF736FD09F102002C
S3150800B860C0B20090534639682A465846FEF76AF928
S3150800B870FCF730FD2BE0CDF800902B465246002110
S3150800B880012007F0D4FC22E04A465146012007F081
S3150800B8909EFD1CE0504609F08EFB18E0504609F064
S3150800B8A0E8FCB8F1000F12D009E0049820B1287A14
S3150800B8B000F010F80BD102E0B8F1000F03D05046A3
S3150800B8C000F016F803E00021504600F0A7FC05B08A
S3150800B8D0BDE8F08F00F003000128704705462946A9
S3150800B8E05046FEF775BD287800F00300012870471A
S3150800B8F02DE9F84F8046FEF76AFA05464046FEF7F8
S3150800B90087FA0446281DFFF7FBF98146A81CFFF7AE
S3150800B910F7F9834695F807A0204601F0C5F80746CB
S3150800B9202946404600F074F80646022E61D02246A3
S3150800B9305146484603F07DFB00285AD104F0F1FE33
S3150800B940814556D0DFF81809007860B9012E06D06F
S3150800B95008F0DAFC18B1284605F0D5F818B12146E2
S3150800B960484600F0B4F822465146484603F0A4FB80
S3150800B97000283ED028780321084203D100214046FA
S3150800B98000F04CFCA879A0B300F035F831D36878FC
S3150800B990C00715D52C7A584609F09BFF40B1E10837
S3150800B9A004F0E00001F01C01084340F0010006E045
S3150800B9B004F01C001C2803D005281ADB201F287257
S3150800B9C04FF6FF7529464046FEF733FA0FB10022B7
S3150800B9D003E0FCF783FF00F03F0200230221404604
S3150800B9E003F004FCAB4504D14046BDE8F24F02F033
S3150800B9F077BBBDE8F18FDFF85C040068007BC01EEA
S3150800BA0003287047EC7B0020106D0020CC7B0020BB
S3150800BA10F0B587B0044608780321084254D1214678
S3150800BA20042008F0DCFD00284FD0204605F04CF82D
S3150800BA30014600F084FB0321084245D1204605F063
S3150800BA4043F80546294600F07AFB0FF6380248CA3D
S3150800BA5005A948C10321084236D1002000906A1C76
S3150800BA600523D2B2214603A8FEF7BBFB052203A98C
S3150800BA7005A8FBF783F938BB204605F0A8F8054664
S3150800BA80A91C00F05BFB0646691C00F057FB00EB9F
S3150800BA90062605F10B0100F051FB07460020009031
S3150800BAA0EA1C0823D2B2214601A8FEF79AFB2046D3
S3150800BAB0FEF7AEF93A46B1B208F021FC012201A917
S3150800BAC0B0B208F06EFE00E0002007B0F0BD38B551
S3150800BAD004460D4600F0E8FF002818BFAC4206D021
S3150800BAE02046FCF725FBBDE8324001F06FB831BDB2
S3150800BAF010B5192241A10320FEF713F8DFF85443C5
S3150800BB002068417B022918BF032901D0932010BD64
S3150800BB10007BC01E032802D208F0EDFB08B1702096
S3150800BB2010BD09F015FF2068407B032805D10021C8
S3150800BB30012007F073FA012010BDFEF70AFF002066
S3150800BB4010BD0000CC6C00202DE9F04180460D4662
S3150800BB5000260DB9012602E0312D08BF0025FEF7A3
S3150800BB6045F900F081F913D101F028FA80B9DFF818
S3150800BB70F46686F80080FCF7A7FB4046FEF7C8FA8D
S3150800BB802946FDF7DCFFFCF7A5FBFF20307032E005
S3150800BB90DFF8D4764046FEF729F90C21084205D18C
S3150800BBA03978BDE8F0410120FCF7E7BB032440469D
S3150800BBB0FEF76DF9B0F5006F07D14046FEF78BF931
S3150800BBC000F020F808BF012401D005B10524397812
S3150800BBD02046FCF7D2FB2946404602F0F3FA50B954
S3150800BBE02946404603F082FB28B932462946404694
S3150800BBF0BDE8F0410AE0BDE8F0810000420000001F
S3150800BC00407000204FF6FF71884270472DE9F04FCB
S3150800BC1083B007460E461446FEF7E8F800F024F906
S3150800BC2008D101F0CBF928B122463146384601F051
S3150800BC30F0F907E1DFF81C823846FEF7D7F800F07E
S3150800BC400C000C2838465AD1FEF7C1F88246FEF792
S3150800BC5003F950444FF0FF090178DFF80856012927
S3150800BC6006D0022912D0042924D07C2939D0E9E04B
S3150800BC704EB99AF804009AF8031001EB002080B236
S3150800BC8004F05BFDDEE007F0CAFDDBE0002E04BF32
S3150800BC90C178002908D18278407800EB022039461D
S3150800BCA080B206F092FB92E00AF10501002000F04E
S3150800BCB0D4FD92E0D8F80000407B0228E5D11EB9F1
S3150800BCC009F0DCFE04B931263346222263A103209B
S3150800BCD0FDF727FF2F70FCF7F7FA304609F039FF12
S3150800BCE008E02F70FCF7F0FA3846FEF711FA3146ED
S3150800BCF0FDF723FFFCF7EEFA85F80090A2E0FEF7C1
S3150800BD0066F80446201DFEF7FBFF8146A01CFEF7D9
S3150800BD10F7FF05464FF6F87B5D450BDAD8F80000C5
S3150800BD20B0F84410491CA0F844101EB144304188AC
S3150800BD30491C4180207800F00301012950D138467A
S3150800BD4004F0C2FE01463846FEF742FB042802D03C
S3150800BD50072804D076E0384609F07CF872E02046D9
S3150800BD6004F0C4FE00286DD00146002000F075FDE1
S3150800BD700446384604F0A8FE00210091421C03231D
S3150800BD80D2B2394601A8FEF72CFA002E02BFD8F81F
S3150800BD900000407B02281FD101A88178E1B94078CC
S3150800BDA09DF8041001EB00252046FF280CD0DFF88B
S3150800BDB0BC14096831F810204FF6FF331A4021F8F1
S3150800BDC01020A9B200F0C9FEA8B202F0E4FF0021D3
S3150800BDD01020FCF7D2FA35E0204600F0F7FE31E0F5
S3150800BDE0032108422ED104F09CFC814504D0384634
S3150800BDF0FDF7F7FFC00606D5002E0CBF0021662109
S3150800BE0038460AF04DF9EEB15D451BDA607810F058
S3150800BE10040606D1284603F075F8070002D0012764
S3150800BE2000E00027284600F034FE10B1062267B964
S3150800BE3004E00EB10B22FAE737B902222946484632
S3150800BE4008F0AEFDBDE8F78F0C2249462846F7E70D
S3150800BE50007C0020CC7B0020E37F002042420000CB
S3150800BE6058700020D17F002000F00C000828704789
S3150800BE702DE9F04F044685B094F800A05046FDF72A
S3150800BE80BAFFFCF726FA01F099F8B0B1A0790128B3
S3150800BE9005D1DFF8DC03017841F001010170207853
S3150800BEA001F0B8F8002840F0D080607800F0F00083
S3150800BEB06070FCF70FFA002009E55046FDF787FF8A
S3150800BEC00646301DFEF71CFFADF80000B01CFEF755
S3150800BED017FF8146504604F0F7FD83465946FFF79B
S3150800BEE0FFFC8DF802003078FFF7F4FC0CBF9DF8D4
S3150800BEF00250FF25FDF782FEA188401A1FFA80F836
S3150800BF0004F00FFCBDF8001088420CBF012700277B
S3150800BF10084608F008FD0028C7D1484608F003FD82
S3150800BF2020B1484600F0C0FD0028BED0FFF763FDEB
S3150800BF3021D2062D18BF042D62D05A4631465046E6
S3150800BF4000F000F9B8B9FEF764FF20B19DF80200C9
S3150800BF50FFF7C0FC0FD000F0BEFF00284DD004F05C
S3150800BF60E0FB0146301DFEF7D2FEC2480068418854
S3150800BF705046FDF75EFF012D42D15046FDF748FFBA
S3150800BF80FFF740FE3CD1002300F0B3F805008CD043
S3150800BF906A799DF80D00824207D20BF10501C9B2F4
S3150800BFA05046FEF71AFA00F09EF8FCF797FC7E2139
S3150800BFB090FBF1F17E2202FB110000F58070608093
S3150800BFC018219DF80E00084212D060780F21084209
S3150800BFD008BF002F0CD1FCF777F9304604F093FD23
S3150800BFE001466A79BDF80000FDF7AFFDFCF772F966
S3150800BFF0FCF770F99DF80F005EE72820608058E787
S3150800C0004FF6F870814502DA7078C00721D5FFF738
S3150800C010F2FC1ED340F6B93080455CDAFCF75EFCCC
S3150800C02000F03F00C0F5FA706080607800090CD017
S3150800C0305FB9F179BDF8000002F0F1FF00281EBFD4
S3150800C04080884FF6FF718842A1D0FCF743F901209A
S3150800C05032E7022D26D1012300F04BF8054604F0FD
S3150800C06060FB0146BDF80A00814202D000F01CFDC3
S3150800C07058B3002D8BD06B8801225946504605F0DF
S3150800C08046F87C480068417E491C4176F171BDF846
S3150800C09006006988884201D000F025F84FF4C87078
S3150800C0A06080D2E7032D10D17FB10BF10101C9B22F
S3150800C0B0FFF716FC0C2808D103F081FCFFF7A2FD58
S3150800C0C003D001465046FDF7B4FE607800097FF4B8
S3150800C0D0ECAEB8F1FB0FBFF6E8AEFCF7FFFB00F0DD
S3150800C0E01F001030DCE7607800F0F000801C6070FC
S3150800C0F0704701AA5946504604F03BBF70B504463E
S3150800C10000F05CFFC0B92046FDF761FE05462046F3
S3150800C11004F0DAFC014600F012F806462046FDF760
S3150800C12077FE4FF6F871884204DAFFF7DCFB08BFA2
S3150800C130022E01D1012070BD002070BDC9B2204673
S3150800C140FEF746B9F8B5044615460846FEF7D8FD83
S3150800C15020F4007041F20801884218D14648006868
S3150800C160205C401B072812DB00260FF220177119E6
S3150800C170FFF7E4FFF15D814203D0022E08BF0028D5
S3150800C18005D1761CF6B2072EF1D30120F2BD0020A8
S3150800C190F2BD2DE9F04180460C46FDF727FEFFF774
S3150800C1A063FE31D0201DFEF7ABFD0546E679404615
S3150800C1B0FDF72EFE07464046FDF713FE00060FD58F
S3150800C1C02C480068017B091F022909D2417B0229F4
S3150800C1D006D140884FF6FF71884218BFFCF7C5F8AC
S3150800C1E0A01CFEF78DFD4FF6F871884202DA6078DA
S3150800C1F0C0070BD520780321084205D13A463146B7
S3150800C200284602F016FF05E0012005E031462846DB
S3150800C21003F0CEF8FEF775FFBDE8F08110B50446C9
S3150800C22041B1FF220321FDF7BBFD00220421204670
S3150800C230FDF7B6FD21461148FEF7C5F92046FDF77C
S3150800C24023FF0F480078BDE81040FEF735BB000015
S3150800C2502F700020EC6C0020DC6C0020DC7B0020BA
S3150800C260DE7E002020700020E77F0020E86C00209A
S3150800C270957D0020CC7B0020CC6C00203C700020F3
S3150800C280C87F0020001300000000000000FF0140E6
S3150800C2900EC0FF0010B5DFF82004006898B9FBF758
S3150800C2A073FC0446DFF814040178002918BF052931
S3150800C2B004D1032100F8041BFEF710FA2046BDE856
S3150800C2C01040FBF767BC10BD2DE9F047DFF8F043D7
S3150800C2D0DFF8E85327782978DFF8DC83002028710F
S3150800C2E00FF2004051B9D8F8004014B99D21FAF769
S3150800C2F0F1FB0020C8F80000A047B1E003291CBFE5
S3150800C300A321FAF7E7FBFF26FF2F26700CD0384645
S3150800C310FDF771FDFBF7DDFF3846FEF717FC3846DB
S3150800C320FDF7C0FEFBF7D6FF00206870FEF724FB7A
S3150800C330002800F0838020780127FDF75CFD804601
S3150800C340FBF7C7FF2078DFF87C93FDF74FFD00F079
S3150800C3500C000C2816D12078FDF739FD8246FDF72A
S3150800C3607BFD99F8001010F80A00052902D1062865
S3150800C37008D106E001291CBF0329082902D107288C
S3150800C38000D100272078FDF731FD00F00C000828C1
S3150800C39004BF99F80000082834D09FB300F00EFEB9
S3150800C3A088B12078FDF722FD00F00C0008280AD194
S3150800C3B0207800F03FFEC44F39688873207800F073
S3150800C3C041FE3968C8734046FBF7A0FFD0B141214A
S3150800C3D02078FBF7C7FC18B920784121FFF7B4FB92
S3150800C3E02078FDF75FFE2670FBF7CEFB0646032096
S3150800C3F02870281DFEF772F93046FBF7CBFBFBF7D2
S3150800C4001EFF17E0207800F08AF804466878AF49DE
S3150800C410C0074EBF0020AE4800780870FBF7B4FB93
S3150800C42006460120287001212046FBF7B7FF304653
S3150800C430FBF7B0FBBDE8F047FBF74CBFFBF7A4FBE7
S3150800C440064600202870D8F8000010B1281DFEF70F
S3150800C45045F93046FBF79EFBBDE8F047FBF7EFBE14
S3150800C460BDE8F08780B595480178012904D00229EE
S3150800C47006D004290BD010E0BDE80140FCF739B816
S3150800C480F9F753F9BDE802403120FEF711BB052143
S3150800C4900170BDE8014002F086BABDE804404FF4D9
S3150800C4A0B4710FF24020FAF715BB38B5FBF76CFBF1
S3150800C4B0824D04462878052803D040F2771100F00B
S3150800C4C02AF8002028707C48006810B1281DFEF75D
S3150800C4D005F92046BDE83240FBF75CBB70B504465B
S3150800C4E0FBF752FB754E05463078002818BF05281D
S3150800C4F003D04FF4C27100F00EF8042030704FF6E6
S3150800C500FF7084421CBF204601F016F92846BDE894
S3150800C5107040FBF73FBB0FF2CC10FAF7DBBA2DE9F8
S3150800C520FE4F8046FDF749FC8DF80500694F3868CF
S3150800C5309DF8051018F80000401A8DF804004046CA
S3150800C540FDF754FC00F00C0004280CBF012500255B
S3150800C5504046FDF7DDFDFF2883460EBF00273968F4
S3150800C560475CDFF874915D4CFF20661C89F8000073
S3150800C57000F024FD58B14046FDF738FC00F00C00E9
S3150800C580082804D1404600F047FD01208BE00DB392
S3150800C5904046FDF73DFC06464FF6FF7048F6410A51
S3150800C5A0864218BF48F6610AFBF7C6FE0146201DFB
S3150800C5B0FEF7ADFB3146A01DFEF7A9FBFBF7B8FE5B
S3150800C5C0014604F10800FEF7A2FB04F10A0004F193
S3150800C5D00A060290002000909DF804309DF8052078
S3150800C5E041463046FDF7FDFD9DF80400861947B122
S3150800C5F0002000903B46002259463046FDF7F1FDE3
S3150800C600BE196DB14046FDF7E2FB4078800726D596
S3150800C6100298311A4246C9B2FEF7BBFD86191EE0DA
S3150800C620A078617801EB002080B2410B01F001018E
S3150800C63081F001054DF6FF7101EA000A0AF00700CC
S3150800C640032805D1601CFDF707FC0019407804E0B3
S3150800C6501C480078082802D1072089F800004046BF
S3150800C660FBF758FB08B14AF0100A1FFA8AF1601C5A
S3150800C670FEF74DFB1AF0070F04D119480178491C3B
S3150800C680017004E010480068017E491C0176301BE1
S3150800C690E170401C2070301B7F2803DB4FF4F671D5
S3150800C6A0FFF739FF2846BDE8FE8F04480178481E83
S3150800C6B08041C00F704700002C7E0020947D00202A
S3150800C6C0547000202F700020CC7B0020787000204A
S3150800C6D079700020CC6C00204D700020A07D0020D1
S3150800C6E0207E00206D61632E63000000FEB5DFF832
S3150800C6F01817DFF81857FF2008700021DFF8100711
S3150800C70041804170002407E02046FBF7E2FD09F06E
S3150800C710B5F9FBF7DFFD641C2878E4B28442F3D34D
S3150800C720DFF8F0462078420000F014FA0021FAF704
S3150800C73012FB0025DFF8E06600AF18E00B232A4657
S3150800C740142100A8F8F7BCF9787A397A01EB0020A9
S3150800C750316821F8150080B200281CBF4FF6FF711A
S3150800C760884203D0B97A284600F006F86D1C20786E
S3150800C770EDB28542E2D3F7BDDFF8A02612680907B5
S3150800C7804CBF41F2020141F2060122F810100021C5
S3150800C790DFF88C2612688154704770B5DFF87C463E
S3150800C7A024680022002302E024F813505B1CDFF8FB
S3150800C7B064562D78AB4209DA34F813506E07F5D56E
S3150800C7C00122002914BF05438543EDE7104670BDD5
S3150800C7D0002100E0491CDFF83C261278C9B29142D4
S3150800C7E009D2DFF83826126832F811200240824250
S3150800C7F0F0D101207047002070472DE9FE43064618
S3150800C8000C461546DFF81086DFF8089601E0E7B112
S3150800C810761C99F80000F6B286421BD2D8F80000BA
S3150800C82030F8167000A9304600F076FA002CEED0E3
S3150800C830002F1CBF4FF6FF708742E9D0082200A9D7
S3150800C8402046FAF78FFA0028E2D19DF80A002870E8
S3150800C850304600E0FF20BDE8FE8380B500AAFFF75A
S3150800C860CCFF02BDFEB50D46044611461E460822FB
S3150800C87000A8FAF72DFA280A8DF809008DF808504D
S3150800C8808DF80A6031462046FFF776FF204609F004
S3150800C89021FE00F05FF9274630F81710320641F4FA
S3150800C8A0804104D441F0080120F8171006E020F86A
S3150800C8B01710DFF870050078FE2805DB00A920466A
S3150800C8C000F0DBF930B9FEBD0B2300AA214614207F
S3150800C8D0F8F71DF9DFF84005006820F81750002220
S3150800C8E0DFF844050068016B90F82C00381841F809
S3150800C8F020200120FEBD2DE9F04784B082468846F7
S3150800C90016461D4600AA51460020FFF776FFFF2867
S3150800C9100746DFF804450CD09DF80010B14202BF67
S3150800C920216831F81000804503D0384600F04EF9EA
S3150800C930FF274FF6FF79C84513D095B901A9404698
S3150800C94003F0BEFE98B90022082101A800F0F9FA02
S3150800C95068B9082201A95046FAF704FA38B1C84658
S3150800C96005E0FF2F03D0384600F030F9FF27B1075E
S3150800C970404604D548452CD107F0C2FE29E0FF2FD2
S3150800C98020D1DFF88C54DFF8A4142A78097891426C
S3150800C99011D0484502D107F0B3FE80460021002099
S3150800C9A0FFF75BFF0746FF2F05D033465246414641
S3150800C9B0FFF758FF08B948460BE02878401C28704E
S3150800C9C006F04EFF38460C9900F09CF8206830F8BF
S3150800C9D0170004B0BDE8F087DFF8401409680020A6
S3150800C9E04EF6FF7305E031F810201A4021F81020A2
S3150800C9F0401CDFF8202412789042F4DB704780B59B
S3150800CA0001460020FFF729FFFF281CBFBDE80240AA
S3150800CA1000F003B84FF6FF7002BDDFF8001409688E
S3150800CA2011F81010890705D5DFF8EC13096831F8F5
S3150800CA30100070474FF6FF70704770B50D46DFF867
S3150800CA40EC130978884284B0144606D2DFF8CC1372
S3150800CA50096811F81010890701D4932017E000A976
S3150800CA6000F05AF99DF80A60082200A92846FAF744
S3150800CA702FF9B00748BF022007D4300748BF032064
S3150800CA8003D430064CBF042005202070002004B0D3
S3150800CA9070BD80B5FBF74CFBFF2803D000F00DF8FE
S3150800CAA0800E11E0002002BD80B5FBF741FBFF2890
S3150800CAB001D0012002BD002002BDDFF8601309681D
S3150800CAC031F810000006704700F0010002BDE0B51D
S3150800CAD000A900F021F99DF80A000EBD10B584B032
S3150800CAE00C46FBF725FBFF2809D000A900F014F92E
S3150800CAF0082200A92046FAF7EBF8012000E00020FA
S3150800CB0004B010BD70B5044611F0010584B0264680
S3150800CB100DD000AA01A9FFF790FF40B900F01AF856
S3150800CB2010F8160000F0040101A808F0BFFE204620
S3150800CB3002F0FBF900953346232289A10320FCF76E
S3150800CB40F0FFFBF7C1FB29462046FCF7F4FFFBF78D
S3150800CB50C1FB7FBDB14800687047FEB5AE4E0446BE
S3150800CB603068254630F815000F46B8420FD000A9A0
S3150800CB70204600F0D1F8380A8DF809008DF80870BB
S3150800CB8000A9204600F0EEF8306820F81570F7BDC9
S3150800CB9038B50546A04800682C4630F81400A0B100
S3150800CBA09B480178491E017006F05AFE0021284666
S3150800CBB0FFF7D3FF99490968002021F814000021DE
S3150800CBC0BDE834401120FBF7D8BB31BD10B504468B
S3150800CBD09648007884420CD28F48006830F81400D2
S3150800CBE038B100212046FFF78DFF2046BDE81040EA
S3150800CBF0CEE710BD70B50024864D04E0002120461E
S3150800CC00FFF7ABFF641C2878E4B28442F6D37E4C67
S3150800CC107F4E2078FF2805D0FDF744FAFF202070C4
S3150800CC200020708000203070002128784200BDE87E
S3150800CC3070407A480068FAF78EB830B5774B794A6B
S3150800CC401B68127833F810400021FE2AACBF022276
S3150800CC500822E4B214420DD0002407E033F8145039
S3150800CC60EDB215421CBF0B3189B2641C8442F5DB58
S3150800CC70084630BD4FF6FF7030BD2DE9F04383B04E
S3150800CC8081460C46FFF7D9FF5F4E644F604D8046DC
S3150800CC903078FF2808D10B210020FDF786FA30707E
S3150800CCA000216980FF2806E0698801F10B0292B22B
S3150800CCB0FDF70DFB002809D1386830F819104FF632
S3150800CCC0F772114020F81910002023E0698808E05F
S3150800CCD00B220092A1F10B07BBB20246FDF742FCFC
S3150800CCE0B9B230788845F3DB8DF80400414601A8CF
S3150800CCF0FDF762FB0246012000900B239DF8041005
S3150800CD002046FDF78AFA68880B3068806878401CE8
S3150800CD1068700120BDE8FE8330B583B004460D4631
S3150800CD20FFF78BFF4FF6FF71884206D10B23224689
S3150800CD3014212846F7F7C4FE37BD334909788DF81C
S3150800CD400410014601A8FDF737FB024600200090B3
S3150800CD500B239DF804102846FDF75FFA37BD00003F
S3150800CD60424242007CB505460E46FFF766FF01467D
S3150800CD704FF6FF70814206D10B233246294614200E
S3150800CD80F7F7C5FE73BD204C707A337A227813EB19
S3150800CD9000202AD1FFF7DEFE30F815304FF6F77679
S3150800CDA0334020F815301A4D6878012806D1104608
S3150800CDB0FDF778F9FF202070002611E06888A0F1B9
S3150800CDC00B06701A80B230B1009001F10B039BB2CA
S3150800CDD01046FDF7C7FB69882078B2B2FDF777FAE7
S3150800CDE068786E80401E687073BD8DF8042001A8AF
S3150800CDF0FDF7E2FA0121009102469DF804100B2383
S3150800CE003046FDF70AFA73BD15700020106D002034
S3150800CE107E7F0020E46C0020E06C0020E86C002097
S3150800CE20EC6C0020AA7F0020CC7B0020476D0020F8
S3150800CE30008F8E8C800000005C4800684088704730
S3150800CE405A480068001D704758480068C07E7047F9
S3150800CE5070B5564C564D2168564E4873022819D15E
S3150800CE6000F0ACF878B92068007B001F022824BFC0
S3150800CE703046FDF733FC2068007BC01E032824BF1C
S3150800CE802846FDF72BFC20684069C00054BF902453
S3150800CE90BC240AE000F092F810B100F0C1F803E0F3
S3150800CEA030702870FDF763FD9124204607F025FAB7
S3150800CEB050B9234613223CA10320FCF732FE204634
S3150800CEC0BDE87040FBF757BA70BD38480068407B2C
S3150800CED000F00F00704735480068407B00F00F00EF
S3150800CEE0022801D1012070470020704738B5044652
S3150800CEF000F064F820B12046BDE8324000F084B85E
S3150800CF002A4DFFF7E8FF28B92868407B032801D097
S3150800CF10932032BD03F00DFC20812868C07BA072E7
S3150800CF202868807BE072204607F031F800202073DD
S3150800CF3004F1140104F1100008F063F9E0810020FF
S3150800CF4032BD10B5002300E05B1CDBB28B4205D274
S3150800CF5010F8014B9442F7D0002010BD012010BDF7
S3150800CF6080B50821F8F704F808B1002002BDA5200D
S3150800CF7002BD0E480068407B01281CBF31283328B3
S3150800CF8001D1012070470020704710B50446F7F715
S3150800CF907DFB10B905490968CC7310BD03480068C4
S3150800CFA0807B70470000000042420000CC7B0020D6
S3150800CFB0D47E0020347E0020F8F7C6BA80B503F088
S3150800CFC0C0FB032801D1012002BD002002BD80B5A7
S3150800CFD0FFF7F4FF38B1BDE804404FF490710FF243
S3150800CFE00800F9F777BD01BD656D6265722D73742A
S3150800CFF061636B2D636F6D6D6F6E2E6300000000AD
S3150800D0000020704700207047B5207047B52070474C
S3150800D01070477047002070477047704770477047E1
S3150800D02070470020704700207047012070477047FE
S3150800D0300020704780B56C210FF21C00F9F74AFDF5
S3150800D040FF2002BD80B572210FF20C00F9F742FDF0
S3150800D050002002BD0020704772663463652D737424
S3150800D06061636B2D73747562732E630038B5FBF7B5
S3150800D0704DFC0022002100A809F056FA08B10098D4
S3150800D08032BD03F025F904460123002208210020B9
S3150800D090FCF7C2FBF9F7B5F90546FCF722FA024692
S3150800D0A02B460FF2A441012009F0BCFAF9F7AFF9B3
S3150800D0B00546FCF71AFA02462B460FF2A441012050
S3150800D0C009F0B0FA40F2A175FCF70BFA25FA00F060
S3150800D0D0C0070AD5DFF8EC53287809F001FB287851
S3150800D0E009F088FB287809F088FC64B10FF2A4429D
S3150800D0F00FF28C412346012009F094FA98210FF289
S3150800D1009C40F9F7E7FC09F081FF09F0B5FF0AF042
S3150800D11037FC09F008FA0BF036FB022102200BF067
S3150800D1202BFF0AF098FA0BF034FFDFF89C1341F254
S3150800D130020008805220DFF894130880DFF8901365
S3150800D14008804FF40040F7F7D0F8CAA40FF25C4500
S3150800D15001E009F072FFFBF7BDFE03F0B0F90BF032
S3150800D16044FBFCF785FC0CF032FB002100200BF099
S3150800D17043FF0028EDD02A4621464FF6FF7009F0F6
S3150800D18057FAE6E7DFF84C13098810237F22F7F7EA
S3150800D190D9BB03F0C6BA03F0CCBAFFF796BE04F0C3
S3150800D1A0A0BD38B50CF041FC04460025284608F019
S3150800D1B054FAA04201D1284632BD6D1CEDB2022DAB
S3150800D1C0F4DBFF2032BD38B5044609F02BFF050015
S3150800D1D008D14FF4A85120460CF0C1FC054609F0C9
S3150800D1E02AFF284632BD30B585B000F0AEF803F008
S3150800D1F098FA38B16088B0F5006F03D1601D09F060
S3150800D20098F913E0204609F0BEF9050015D1002566
S3150800D21000A928460CF027FE002804BF9DF8000048
S3150800D220002805D1214628460CF028FE054604E0CC
S3150800D2306D1CEDB20C2DEBDBB42509F0FCFE28467F
S3150800D24005B030BD38B500F080F8204609F099F9E8
S3150800D250050003D120460CF05DFE054609F0EBFEFD
S3150800D260284632BD38B5FF2504468DF8005000A97A
S3150800D27009F04FF910B19DF8000032BDFBF71CF814
S3150800D280954901EB0411097B814207D120460AF032
S3150800D290B9FB18B120460AF079FE0546284632BD84
S3150800D2A070B504460D4609F036F9F8B920460AF075
S3150800D2B06BFE0646FF2E07D0FAF7FEFF864901EBFE
S3150800D2C006110A7B824201D0002070BD488828805A
S3150800D2D08888688088792871012120460AF05AFED4
S3150800D2E06871002120460AF055FEA871012070BD1C
S3150800D2F02DE9F04105460E4690460AF045FE0746DA
S3150800D300FF2F4FF6FF7413D0FAF7D6FF724901EBD9
S3150800D3100711097B81420BD10EB9012202E0012EC9
S3150800D32006D10022414628460AF058FE00B1048874
S3150800D3302046BDE8F08110B500F007F820460AF04F
S3150800D3400CF9BDE8104009F076BE044609F068BE3F
S3150800D35038B50C4661490968455CAA420AD200926A
S3150800D3602B460FF230220FF25821022009F05AF903
S3150800D370002032BD002100912B460146002220469E
S3150800D380FCF72FFF284632BD70B598B004460D4607
S3150800D390164609F045FE522203A93046FFF7D8FF84
S3150800D3A0060011D00DF109000CF038FB02A80CF0AC
S3150800D3B037FB03A801909DF908309DF809200096CF
S3150800D3C02946204609F0FDFF09F035FE18B070BD64
S3150800D3D0F0B599B004460D4616461F4609F020FEDC
S3150800D3E0522203A93846FFF7B3FF48B103A90191B2
S3150800D3F00090029732461E9B294620460AF022F8DC
S3150800D40009F019FE19B0F0BDF8B504460D460698A0
S3150800D41016461946FCF7C9FE0746FF2F01D1182004
S3150800D420F2BD079807702046022804D9C01E08D006
S3150800D430401E0DD014E03B463246294604F0DAF980
S3150800D4400CE03B460C220C21304604F057FA05E066
S3150800D4503B460C223146284604F02BFA044600E0E7
S3150800D46002243846FCF71EFE2046F2BD08221C4957
S3150800D470F9F72EBC25703E0010B504460846FFF79E
S3150800D48035FD2046BDE8104006F063BD06F061BDD7
S3150800D49005207047002070470C207047042070470D
S3150800D4A01048007870474B20704700B583B000A835
S3150800D4B00D4908220CF078FEDDE900010AF029F989
S3150800D4C007BD0000A17F00200C700020107000200E
S3150800D4D01270002096EC0208F0700020CC6C002038
S3150800D4E0007C0020C66C0020A8EC020810B582B0AB
S3150800D4F0FFF72BFF0DF101000CF090FA00A80CF0D5
S3150800D5008FFA9DF900209DF8011020460CF06DFF5A
S3150800D51009F091FD13BD38B504460D4609F080FDA6
S3150800D520294620460CF02BFF08E038B504460D4680
S3150800D53009F076FD294620460CF0AAFFBDE83140E1
S3150800D54009F079BD70470000526573657420696EED
S3150800D550666F3A2030782578202825702900000043
S3150800D560457874656E6465642052657365742069D0
S3150800D5706E666F3A203078253258202825702900A3
S3150800D5802570656D626572496E69742030782578F4
S3150800D590000000004552524F523A200061662D6D38
S3150800D5A061696E2D736F632E630000004861436FD7
S3150800D5B06C6F72436F6E74726F6C4C696768740037
S3150800D5C025706D736720746F6F2062696720282540
S3150800D5D064203E202564290080B500F04AF8BDE89D
S3150800D5E001404BE02DE9F041454F464A32F81060BC
S3150800D5F00D4637F810108E429B41DB43DB0F4FF682
S3150800D600FF74A6421CBF761C22F81060032818BFB8
S3150800D6100528804607D114893F892E19BE42ACBF1A
S3150800D6201781168118E00928BE8A18BF0B2805D16C
S3150800D630978AEC19B4420EDAEE190CE01D280BD1C4
S3150800D640548F7F8F2C44BC4205DA32F81070EE19DD
S3150800D65022F8106000E0968232F81000884203D360
S3150800D66013B9404608F06BFF29464046BDE8F0412D
S3150800D6700DE0422200212348F9F76DBB4222FF2123
S3150800D6801F48F9F768BB1E4A22F810107047F8B50C
S3150800D69004460D4600260FF28800315CA14204D0EC
S3150800D6A0761CF6B2112EF8DBF1BDFF2E27D0FAF75D
S3150800D6B003FE074614480078874204DB93210FF2DD
S3150800D6C05000F9F707FA1148222101FB07004FF627
S3150800D6D0FF7230F8161091421CBF491C20F816102C
S3150800D6E0032C18BF052C03D1018969180181F1BDE6
S3150800D6F0092C18BF0B2C02D1818A69188182F1BDC9
S3150800D7005474002010740020106D002098740020B6
S3150800D710636F756E746572732D736F632E63000085
S3150800D720000102030405060708090A0B151618194D
S3150800D7301A0000007047000038B5002814BF04011D
S3150800D7401024FAF721FA0546F7F70FFC20180F49B7
S3150800D7500F4C82B24A60000C0860042020602846FC
S3150800D760FAF718FA206C40F00400206431BD80B541
S3150800D770FAF70AFA06490A6C22F004020A64042235
S3150800D7800A60BDE80240FAF705BA000048200040E2
S3150800D79008A00040F8B504460025E01CFDF7B0FADD
S3150800D7A00646601DFDF7ACFA4FF6FF77BE42044603
S3150800D7B008BF012504D002F0BCFF864208BF022537
S3150800D7C0BC4208BF45F0040505D002F0AAFF844212
S3150800D7D008BF45F008052846F2BDF8B50546FDF729
S3150800D7E08FFA06464FF6CF7000EA06072846FFF777
S3150800D7F0D1FF002448F641018E4208BF052809D109
S3150800D800E81DFDF77DFAAC490988884214BF022451
S3150800D810062412E04CF6010087421ABF4CF6014076
S3150800D8208742012409D0FAF74FFD2846FCF792F9FA
S3150800D8300546FAF74FFD05B10824A04800782040B0
S3150800D840F2BD2DE9F04F8346884683B000250026B1
S3150800D8504046FDF755FA9A4C82462068002804BFD0
S3150800D860606800282F464FF003095CD04FF44061EA
S3150800D8701AEA010F0BD008F10300FDF741FA4FF63B
S3150800D880FF7188420CBF022701274FF0050947F0B0
S3150800D890080001905FEA4A6017D44FF440411AEA3B
S3150800D8A0010F16D00AF44060B0F5406F0CBF08208F
S3150800D8B002204844C0B24044FDF722FA009002F024
S3150800D8C038FF009989B2814201D1019F01E047F0F2
S3150800D8D004070AF44040B0F5004F04BF47F0800043
S3150800D8E087B20AF44060B0F5006F0BD109EB080067
S3150800D8F0FDF706FA804602F014FF80450AD147F084
S3150800D900100707E0B0F5406F04D147F0200701E0A3
S3150800D910002615B96068014600E0216839B96D1C12
S3150800D920EDB2022DF4DBFF20BDE8FE8F761CF6B2C1
S3150800D93031F816201304F2D4BBB29342F6D1BBF1E8
S3150800D940000F05D081420CBF802010208BF8000004
S3150800D9503046E9E7000000002DE9F0478146884691
S3150800D960FDF7CEF9054605F0070605F4406A2F4689
S3150800D9704846FFF70FFF04464FF6F7700540514833
S3150800D980007808280DD8DFE800F087058705050A1E
S3150800D9900C0C0700002E00E0012E7DD101E0032EBD
S3150800D9A07AD1390721D5002E76D10A2801D1A007C8
S3150800D9B072D5B5F5004F18BFB5F5404F6CD10026A6
S3150800D9C0E80648BF46F08006A80648BF46F48056D3
S3150800D9D006F00C00042861D109F10700FDF790F95B
S3150800D9E00146FF2246F004005BE0002E364FDCD0ED
S3150800D9F0022E03D004D3032E2FD04DE03B2058E04F
S3150800DA004FF6CF7000EA05064846FFF7E6FE38B936
S3150800DA104946FFF716FFFF2802D1FFF7CFFA08B1EC
S3150800DA200826CDE748F64100864235D10A2C18BFAC
S3150800DA30062C31D160070ED5FFF74DFA20B13868AC
S3150800DA40007B001F022827D320480078022823D00D
S3150800DA5040F60406B4E70426B2E714F0030005D13D
S3150800DA6002F067FE4FF6FF71884215D10C26BAF10F
S3150800DA70000F0DD0BAF5006FA2D0BAF5406F0BD1E2
S3150800DA800822134909F10500F9F76CF920B997E757
S3150800DA903868007B012893D03A200AE0FF2200214B
S3150800DAA03046FCF751FAFF280EBF182088F8000008
S3150800DAB00020BDE8F08700007C700020E97F002088
S3150800DAC0707F00202F700020CC7B0020947D0020E2
S3150800DAD0007C0020174838B50446FAF755F805467D
S3150800DAE0154800210160082154F8042B8260491E5C
S3150800DAF054F8042BC260F7D101210160FBF744FA00
S3150800DB00284613E00C4900200860FBF73DBA38B5F3
S3150800DB1045096D0109480A4C854238BF094CFAF790
S3150800DB2033F8044945F014024C620A62BDE83240F3
S3150800DB30FAF730B8346F002094ED00E09800002022
S3150800DB4009000B1008000B1070B12DE9F05FEFF318
S3150800DB5008800D490860EFF309800C490860EFF367
S3150800DB6014800B49086030BF0748006880F30888AE
S3150800DB700648006880F309880548006880F3148819
S3150800DB80BDE8F05F70470000607C0020647C0020E0
S3150800DB90687C002080B59F480021416041708170F3
S3150800DBA0A52101700120FBF7B6FFFBF7B8FF00F0CF
S3150800DBB01EF8002002BD98480168C90700D47047BE
S3150800DBC080B596490A6822F440620A6001684908E5
S3150800DBD04900016001680902FCD49148006810B147
S3150800DBE06420F8F773FA8F490020086001BD80B5F4
S3150800DBF08D48016841F08071016001208B490860F9
S3150800DC0000208B49F8F7A9FA8A498B4A022008604E
S3150800DC1000208A4908608A498A4801600121116002
S3150800DC207D4A8949116040F2014101654FF480300F
S3150800DC308649086001BD7B48006800B10120C0B272
S3150800DC407047D12202704170090A817080490A78AA
S3150800DC50C270501C0870042070472DE9F14F82B03D
S3150800DC60002500907B4800990068085C441DE4B2D2
S3150800DC70FBF7C4FF01904FF6FF79FFF7DCFFB8B951
S3150800DC8054E0A91E9DF80800C9B2FCF7A1FB074697
S3150800DC9049460CF04BFC81465546F000F9B2761C15
S3150800DCA001FA00F0042E40EA080815DBCBF80080DC
S3150800DCB0EDB2A54232DAFBF7A1FF0199401A80B20C
S3150800DCC0B0F5FA7F2ADC4FF0604BDBF8000001283C
S3150800DCD0EED14FF000080026EDB215B95B270125F5
S3150800DCE0DBE7012D05F1010A04D15A4800990068BD
S3150800DCF00F5CD1E7E11E8D4208BF4F46CCD0A11E6E
S3150800DD008D4208BF4FEA1927C6D0611E8D4208BF4B
S3150800DD105D27C1D0A542B4D10027BEE74FF4C8702D
S3150800DD20F8F7D4F9A54208BF002000D00120BDE8C5
S3150800DD30FE8F48490968415C0429A8BFFFF78DBFD3
S3150800DD40012070472DE9F04D324D6E78002E5ED0D9
S3150800DD50FBF754FF834631460020FCF726FA0446B3
S3150800DD60FF2CA04602D10020687050E0202EB4BFD8
S3150800DD7037462027FCF722F96860AF70DFF8D8A08D
S3150800DD8004E04046FCF71AF96860AF706878C0B1DD
S3150800DD90FBF734FFA0EB0B0080B2B0F5FA7F10DC7E
S3150800DDA0A8780028F2D1F61B6E70F6B2002EEDD0D8
S3150800DDB0DAF8000018F80080202EB4BF374620276E
S3150800DDC0DFE7002E04BF6878002818D1A878B0B914
S3150800DDD020480068205C851EE9B22046FCF79FFBB8
S3150800DDE0122808D1E9B22046FCF7A7FA21461220E4
S3150800DDF0FBF7A3FC06E02046FBF7E9FB02E0002060
S3150800DE006870A8702046BDE8F04DFCF74BB9BDE830
S3150800DE10F08D0000F07F0020800E00E0001000E08A
S3150800DE2034000040100004E0FCED00E0040004E0CB
S3150800DE3020A10700F00004E0000E00E0040304E05F
S3150800DE4055CEACC5B00F00E00D00010000E100E0C2
S3150800DE50E87F0020CC6C0020D46C002070B51346F7
S3150800DE60101802E0A4192C705B1EDBB24BB101F04E
S3150800DE700F060909451E0A2E2846B4BF3024372442
S3150800DE80F0E7101870BD2DE9F24F88B0804601A85A
S3150800DE901446994601AD4FF0000B00278DF8000097
S3150800DEA010E00127641E05A885420AD39DF80000E4
S3150800DEB02E1A00F0B4F8002839D1B3445FFA8BFB68
S3150800DEC001AD641C9DF800002E1A207800280BD09E
S3150800DED0252803D017B905F8010BE4E7002F14BF6E
S3150800DEE00027641C2078010000F08E80B0F125011F
S3150800DEF013D00B39092967D928395CD00B390ED0CC
S3150800DF00491E2CD008392AD0091F0BD0C91E09D0A2
S3150800DF10891E24D0C91E4ED0C5E72520DBE759F84F
S3150800DF20040BD8E759F804AB00F079F8002872D149
S3150800DF30B3445FFA8BFB01AD002600E0761CF6B20F
S3150800DF4016F80A000028F9D19DF8200032465146F5
S3150800DF50C04700285FD1B3445FFA8BFBA3E759F8A3
S3150800DF60040B0021002803D52D21297040420121E8
S3150800DF70002300224FF0000C02E0801B0CF1010C7C
S3150800DF800FF2041656F82260B042F6D243EA0C069F
S3150800DF90F6B2002E05D0C9B20CF130034B55491C18
S3150800DFA00123521C092AE5DBC9B230304855481C02
S3150800DFB0C0B2451977E759F8041B0222C9B22846A8
S3150800DFC0FFF74CFF05466EE760780127782818BFEB
S3150800DFD05828F8D1641C002714F8010C322804D1FB
S3150800DFE059F8041B042289B2E9E734287FF459AFAB
S3150800DFF059F804AB04224FEA1A412846FFF72EFFC8
S3150800E00004221FFA8AF1DBE700F009F818B906EBD3
S3150800E0100B00C0B200E0002009B0BDE8F08F9DF803
S3150800E0202000F2B201A9404709A117E010B5094B33
S3150800E030C35C0024012B07D113460A46014606484D
S3150800E040FFF721FF00B90124204610BD000000009B
S3150800E0500D0A0000909A0008799900080CB480B55A
S3150800E06002AAFFF7E3FF02BC5DF80CFB0CB438B557
S3150800E070044604AAFFF7DAFF05462046FFF7D4FF51
S3150800E080284632BC5DF80CFB00CA9A3B00E1F50550
S3150800E0908096980040420F00A086010010270000D5
S3150800E0A0E8030000640000000A00000000B500BF95
S3150800E0B0130096469446103928BFA0E80C50FAD8A3
S3150800E0C05FEA417C28BF0CC048BF40F8042BC9074B
S3150800E0D028BF20F8022B48BF00F8012B00BD00001E
S3150800E0E070B5044601214FF48070FEF756FBC8B19F
S3150800E0F0984E994D3078FF2807D02878C00748BF32
S3150800E10000F003F93078FBF7CDFF34700020287053
S3150800E1102046FBF7B9FF91480188281DBDE87040E5
S3150800E120FCF7E7BA70BD8C490A7842F0010208B1DB
S3150800E13042F002020A70704738B5864D864C287838
S3150800E140FF280ED000214FF48070FEF726FB2078BA
S3150800E150C00748BF00F0D9F82878FBF7A3FFFF20CF
S3150800E16028700020207131BDF8B50025784E7C4F07
S3150800E17000E06D1C3878EDB2854217D230682C461F
S3150800E18030F814100805F4D5284600F058F8FF288A
S3150800E190EFD0316831F814204FF2FF731A4021F896
S3150800E1A0142000216F4A1268A154F2BD6E4900205E
S3150800E1B0088001F08AF80446FF2C18BFFBF764FFB5
S3150800E1C02046F2BDF8B50446674806880D46002184
S3150800E1D0018096B32046FBF75AFEB0F5006F2CD1A6
S3150800E1E02046FBF778FE0746F9F7A2FFFF2824D05A
S3150800E1F035B15749096831F81020324321F8102003
S3150800E200402E14D0B6F5807F17D152480078844244
S3150800E21011D14FF6FF718F420DD0FBF70AFE4FF46E
S3150800E2208270FEF7D5FA30B9FFF786FF03E015B915
S3150800E230214608F051F90120F2BD0020F2BD2DE972
S3150800E240F04381464948006883B04C4630F814804C
S3150800E2500F46FF25FAF705F845490978884251D24D
S3150800E260FAF737F8B8050FD478051CD506F048FA3A
S3150800E27002460020019000900123414604F094FFD5
S3150800E28005464FF480602FE04FF6FF7241460E2098
S3150800E29006F0A4FB0546FF2D32D04146FBF7C9FD23
S3150800E2A04FF4007020E02B4E3078FF280BD0F9058C
S3150800E2B009D54146FBF7BDFD3078FBF7E5FE357815
S3150800E2C04FF4807010E0780606D50021484608F01D
S3150800E2D005F90546402007E0380611D501214846CC
S3150800E2E008F0FCF805468020FF2D09D01E49088055
S3150800E2F01749096831F8142022EA000021F81400A9
S3150800E300F9F7E8FF2846BDE8FE837FB5114C20786B
S3150800E310FBF7FEFE05462078FBF759FD801CFCF747
S3150800E320EFFC0646207801A902F05DFCF9F7CCFF60
S3150800E3300948007880074CBF0020662000902B46CD
S3150800E34001AA31460420FFF743F8F9F7C3FF7FBD5A
S3150800E350E86C00207A700020507F00204A6D00206B
S3150800E360E46C0020EC6C00209E7F0020E06C00200E
S3150800E370106D002000B587B041F400618DF81420B7
S3150800E380120A8DF815200C9A04920B9A03920A9A8F
S3150800E3900292099A0192089A009205AA00F002F8D8
S3150800E3A007B000BD2DE9F14F82B00C4604F4404099
S3150800E3B0009015469DF808000F9AFF2807BF01260A
S3150800E3C0082000260C20984604F4406A0021FBF732
S3150800E3D0BBFDBAF5006F81460CBF02270827B9F1C5
S3150800E3E0FF0F59D0FBF7EAFD83464846FBF7EFFCDB
S3150800E3F00EB944F0030400F8014B210A00F8011B8A
S3150800E400461CBAF1000F05D006F8018B4FEA182012
S3150800E41006F8010B3A4629463046F8F759FC0098A3
S3150800E420BD19F8B1600605D40C9805F8010B000A69
S3150800E43005F8010B0098B0F5004F03D0B0F5404F32
S3150800E4400AD00FE002F06DF905F8010B02F069F940
S3150800E450000A05F8010B05E00822A0492846F8F746
S3150800E46037FC0835A5EB0B01C9B24846FBF7ACFDEE
S3150800E4709DF80800FF2825D0012202A94846FBF787
S3150800E4801AFF30B90D9971B10E9A4846FBF713FF7A
S3150800E49048B14846FBF706FE9DF8080004280CBF5D
S3150800E4A0FF2018201AE09DF80800042808BF4846EF
S3150800E4B014D0022806D14846F9F77AFB441EA4412F
S3150800E4C0E40F04E010994846FCF70EFA044648465D
S3150800E4D0FBF7E8FD002C0CBF39200020BDE8FE8FB5
S3150800E4E000B585B000F018F800930020029001905E
S3150800E4F01A464FF4404106200AE000B585B000F000
S3150800E5000BF81A460020029001900090002107207F
S3150800E510FFF730FF05B000BD022004904FF6FF73E9
S3150800E520FF200390704710B586B002F002F9044642
S3150800E53002F0F7F84FF6FE718842B4BF48F2600160
S3150800E5404CF26001012004902346FF20039000202E
S3150800E5500290019000906248006842880420FFF704
S3150800E56009FF06B010BD30B587B004460D4602F067
S3150800E570E0F88DF8140002F0DCF8000A8DF81500B2
S3150800E58002F0CFF88DF8160002F0CBF8000A8DF8E5
S3150800E5901700FEF703FD8DF818008DF81950280AA4
S3150800E5A08DF81A0002F0C5F8012104910090FF21A8
S3150800E5B003914FF6FF7307210291224605A901919F
S3150800E5C008204FF44C41FFF7EDFE07B030BD34B5D7
S3150800E5D00D4686B00446002105F0EFFC01200490A4
S3150800E5E02B46FF2003902246012002904CF620017C
S3150800E5F006A801904FF6FF7000900120FFF7BAFEBB
S3150800E60007B030BD10B586B00446080A8DF8141058
S3150800E6108DF815008DF8162002F08BF8002104916C
S3150800E6200346FF210391224603210291022005A9F0
S3150800E6300191002100914CF66041FFF7B3FE06B048
S3150800E64010BD70B584B0FF2200210020FBF77CFCCA
S3150800E6500446FF2C40F6FF753DD021480068007B34
S3150800E66001282048007808BF44F6FF7508B145F42C
S3150800E670004500208DF8000000AE8020707002F082
S3150800E68058F88DF8030002F054F8000A8DF80400D3
S3150800E69002F047F88DF8050002F043F8000A8DF8F5
S3150800E6A006000B22FF208DF8070000A9280A307201
S3150800E6B000208DF809008DF80A002046FBF7FBFDBF
S3150800E6C0204605F0D0FA18B101212046FCF70CF9CE
S3150800E6D02046FBF7E7FC7FBD00000000007C002019
S3150800E6E0CC7B0020E67F00202DE9FC4204460D463F
S3150800E6F09146CDF804900095234624220FF2F03176
S3150800E7000320FBF70EFADFF8D87338780A2818BF03
S3150800E7103D203DD1B9F10F0FA8BF332038DA092CB7
S3150800E720A8BF342034DADFF8BC032840A84218BF53
S3150800E73035202DD135B9DFF8B0130968897B01205A
S3150800E74000FA01F5002C18BF022CDFF8A0630CD1E3
S3150800E75020210020FBF729FD7870FF2808BF182024
S3150800E76016D0FBF72BFCF06130623C7086F80190FE
S3150800E770B561002030700A20F9F7A1FD01210FF2DA
S3150800E7801500FCF73BF938780A280CBF0120002051
S3150800E790BDE8F68238B50A20F9F792FD0446F9F77E
S3150800E7A098FD2046F9F7B2FD0020F9F787FDCF4C12
S3150800E7B0FEF7F4FBE07001F0BCFF2082F6F7C7FF16
S3150800E7C020714FF6FF75C64C2078062808D101201F
S3150800E7D0F6F7C0FF072020702846FDF77FFE0CE0FD
S3150800E7E0082805D0284601F0A8FF2846F7F731F88B
S3150800E7F00020F6F7AFFF00F059F8BDE83140F9F709
S3150800E80069BD38B5F9F7C0F9B54D044628780A2820
S3150800E81018BF092804D12046BDE83240F9F7BAB92D
S3150800E820072808BFFDF71EFE2878B049087009209A
S3150800E83028702046F9F7AEF9BDE8344001210FF2F9
S3150800E8400900FCF7DBB8000070B5A54C207809284C
S3150800E85002D0E82100F0A3F80A20F9F731FDF9F70C
S3150800E86038FDA24D288A01F068FF9F49E8780968B3
S3150800E87088732879F6F76EFF0120F9F71FFDF9F777
S3150800E880DEFC66780020287200220A2020703146B5
S3150800E890FF206070287805F013F9FF2E1CBF30465C
S3150800E8A0FBF700FCBDE87040F9F714BDF8B58F4CCE
S3150800E8B0002020720A20F9F703FDF9F70AFD884DB2
S3150800E8C028780A2803D14FF48A7100F068F8287866
S3150800E8D0E0B917E0401CE061282210F9016DE069F3
S3150800E8E0401CE0617DA110F8017D00963B4603209F
S3150800E8F0FBF717F9F9F7E8FC31463846FEF715FE37
S3150800E900F9F7E8FCE069216A8842E3D320781B28F6
S3150800E9101FDA05F0E9FC50B12078A169C140C907A2
S3150800E92005D4401C2070C0B21B28F5DB11E0F5F7B2
S3150800E930A6FE01462078884202D0F5F798FE40B92F
S3150800E940207805F0CEFC20700020A07000F064F856
S3150800E95008B32878052818BF012803D0032818BF4C
S3150800E96008280DD10B26A069F040C00704D52878E1
S3150800E9703622314605F0A4F8761C1B2EF3DB08E098
S3150800E980022806D1206AE169411A6878C9B2FBF7FC
S3150800E990D4FCFFF736FFBDE8F140F9F79BBC0FF250
S3150800E9A05810F8F797B838B54D480178092904BFC3
S3150800E9B0BDE83140FDF779BD4C4C6369002918BFA5
S3150800E9C002291ED19BB9226A6179521C226202F879
S3150800E9D0011D007828B9256A681C2062F5F74FFEE4
S3150800E9E0287004F10800BDE83240FBF777BE082519
S3150800E9F0F6F7C2FE94F905108142B8BF0146617167
S3150800EA0003E0002BEDD04FF470752846FDF766FD40
S3150800EA106069401E606131BD80B534484278012185
S3150800EA2091402F4A1278491C092A416120D8DFE80B
S3150800EA3002F01109110917051F1F0D1CBDE8014039
S3150800EA40FFF74EBDBDE80140FFF757BDBDE80140E1
S3150800EA5005F045BC6FF07F0242717822514341614F
S3150800EA600020FDF73BFD002002BDFDF71EFD03E07B
S3150800EA7040F2A311FFF793FF012002BD10B5184A13
S3150800EA801A4C1278052A11D1062816D12020606161
S3150800EA90A9B9F5F7F4FD0122A16902FA00F021EA05
S3150800EAA00000A0610020FDF719FD15E0012A14BF3A
S3150800EAB0032A0728ECD0082AEAD0002010BDA0783F
S3150800EAC0401CA070C0B2032802DAFFF7A5FF18B1F0
S3150800EAD004F10800FBF702FE012010BD4242420085
S3150800EAE02F70002000F8FF07CC7B0020247C002034
S3150800EAF042424442000000007363616E2E630000C8
S3150800EB00027902F0FC02114301F03F0101717047DE
S3150800EB1038B5054600F027F90446FF2C02D1342102
S3150800EB2000F075F84FF6FF70288003212846FFF796
S3150800EB30E7FFDFF87804DFF8783400781B68C11D32
S3150800EB40C01DC01000FB0430BDE838400904CA0CDB
S3150800EB500021F8F700B970B5DFF85804DFF85864F3
S3150800EB600468002504E02046FFF7D2FFA41D6D1CAB
S3150800EB703078EDB28542F6D3DFF84004006800210C
S3150800EB8004E04FF6FF7220F8082B491CDFF8302402
S3150800EB901278C9B29142F4D3DFF8281414204870C9
S3150800EBA070BDF8B50446FF2C30D0DFF80C040078A9
S3150800EBB0844202D36A2100F02AF8DFF8F8030068D5
S3150800EBC0062101FB04004FF6FF72018891421DD011
S3150800EBD0037903F00303012B18D1DFF8E0331B6830
S3150800EBE0002501E008336D1CDFF8D4633678EDB2F2
S3150800EBF0B54208D21E889642F4D0DF79A74205D0DE
S3150800EC008E42EFD1F1BDBDE8F24081E7F1BD0FF2CA
S3150800EC10B830F7F75FBF10B5DFF898231268002100
S3150800EC20032401E0491C921DDFF88C331B78C9B216
S3150800EC30994207D25388834204BF13792342F1D1FC
S3150800EC40012010BD002010BD2DE9F843FAF7DBFFBF
S3150800EC50DFF8705306466888341AA4B2F9F748FBF9
S3150800EC60FF2818BF002C68D0F9F733FB2878DFF89F
S3150800EC7048236E80201880B2C10900F07F002870F2
S3150800EC800027DFF8300303684FF6FF7606E00CF03E
S3150800EC903F0C4CEA801018719B1D7F1C1078FFB240
S3150800ECA087420FD21888B042F6D093F804C00320E2
S3150800ECB01CEA000FF0D101EB9C1080B20328E6DBBA
S3150800ECC00220E4E768788442B4BF001B002068701D
S3150800ECD04FF00008B948BA4D076814E0B9F1000FBB
S3150800ECE03E8009D100A9104600F029F820B19DF808
S3150800ECF000000021FFF755FFF8794946FFF751FF55
S3150800ED00083708F1010828785FFA88F8804512D292
S3150800ED103888B042F4D0B879844202DA001BB87158
S3150800ED20EEE701F0FEFC3A8882420CBF4FF001097B
S3150800ED304FF00009D2E7F9F7CDFABDE8F18310B52F
S3150800ED409C4A1268002301E0921D5B1C9A4C2478A9
S3150800ED50DBB2A34205D214888442F5D10B70104663
S3150800ED6010BD002010BD0021062300E0491C924A70
S3150800ED701278C9B2914207D28E4A126803FB012261
S3150800ED809042F3D108467047FF20704780B500A926
S3150800ED90FFF7D5FF02BD80B5FFF7F8FF00281CBFB7
S3150800EDA0BDE80240FFF7B4BE01BDF0B5834B1B6852
S3150800EDB00024062701E00833641C814D2D78E4B24F
S3150800EDC0AC4217D21D888542F5D15AB1012A08BF2F
S3150800EDD01D7905D0774DDE792D6807FB06552D88F8
S3150800EDE0A942E8D14FF6FF71884204BF14209871F2
S3150800EDF01846F0BD0020F0BD002200214FF6FF7036
S3150800EE00D3E7F8B50D46144607462146FFF797FFA0
S3150800EE10060022D100204FF6FF7366490E680021CE
S3150800EE2005E088B932889A4212D0B61D491C624A52
S3150800EE301278C9B29142F4D3401CC0B20228ECDB66
S3150800EE4000263EB90020F2BD32799209022AECD199
S3150800EE502170F6E73780012007E030790321084260
S3150800EE6004D000F0FC0040F0010030718DB145F08F
S3150800EE70080030714E4B4D4800781B682478C11D38
S3150800EE800904C01DCA0CC010002100FB0430F7F7A6
S3150800EE9062FF307900F03F0030713046F2BD10B5A0
S3150800EEA00446FFF773FF28B9002200212046FFF722
S3150800EEB07CFF00B1012010BD70B504460D4616460C
S3150800EEC0FFF764FF306060B1007910F00300287026
S3150800EED004D13068017901F03F010171306840883A
S3150800EEE070BD0021204600F0D6FC012818BF022874
S3150800EEF003D100202870204670BD032028704FF6E5
S3150800EF00FF7070BD00B583B000AA01A9FFF7D4FF52
S3150800EF109DF8040038B9009828B1007910F030003F
S3150800EF2002D001200EBD00200EBD70B504461F4854
S3150800EF300078844203D34FF4F571FFF768FE1E4E3E
S3150800EF40002505E000222146284600F006F86D1C3B
S3150800EF503078EDB28542F5D370BD30B5134C144BFD
S3150800EF6024781B68E41DE41004FB0030CB0801F08C
S3150800EF7007011C5C012505FA01F1002A14BF21438B
S3150800EF8024EA0101195430BD084B094A1B78126856
S3150800EF90DB1DDB1003FB0020CA0801F00701105C2B
S3150800EFA0C84000F00100704700000000E46C002033
S3150800EFB0F86C0020F06C0020F46C0020FC6C00203B
S3150800EFC0006D00209A7F0020726F7574652D74613C
S3150800EFD0626C652E63000000F0B5524C237903F08D
S3150800EFE00F05002600E0761CF6B2AE4215D223784D
S3150800EFF09B1B0F330F2793FBF7F7C7EB0717DB1B93
S3150800F000062707FB034333F8087F8742EBD112B97B
S3150800F0109F788F42E7D11846F0BD0020F0BD002248
S3150800F020DAE780B501220021FFF7D6FF00B10120FB
S3150800F03002BD38B51446FFF7F2FF0546204600F034
S3150800F04058FA0DB9002032BDFF2805D0A98801223B
S3150800F05002FA00F00843A880012032BD10B5FAF77D
S3150800F060D2FD30494A78CB88C8808218D21A92B223
S3150800F070142392FBF3F3142000FB13204870DCB230
S3150800F08088788442B4BF001B00208870042CBDBF5A
S3150800F0908888A200D0400020888010BD214880883A
S3150800F0A000F00F010F2903D0C0F30310092801DB74
S3150800F0B00120704700207047F8B504460D461646ED
S3150800F0C0FFF7ECFF08B10020F2BD16480178491C8D
S3150800F0D00F2291FBF2F2C2EB0212891A0170062284
S3150800F0E0017802FB010101F10807818801F58851C1
S3150800F0F0113181803C80BD70304600F0A3FBB8809A
S3150800F1000120F2BD10B5074CFAF77DFDE0805A22C2
S3150800F1100020A080FF2104F10800F7F71CFE042058
S3150800F120A07010BDDC7E00202DE9F84F9C4D95F8A7
S3150800F130009004468846FAF76CFD8346287918B18C
S3150800F140E9680BEB0400441A6878DFF858A2002631
S3150800F1500AEBC00703E0001B7880761C0837F6B276
S3150800F1604E4520DA7888B8F1000FA4B20BD0844255
S3150800F170F3D22878801BC20092B2394607F10800FC
S3150800F180F7F7A6FD12E08442E5D300207880787868
S3150800F190401E78706878401C68702878401E287071
S3150800F1A0FDF778F8D9E7B8F1000F04D02878401CA5
S3150800F1B028707C8001E000202871287808B9287119
S3150800F1C011E0287908B9C5F80CB06978E8680AEB3F
S3150800F1D0C101ABEB00004988091AB1F1004F9CBF89
S3150800F1E0281DFBF786FA3846BDE8F28FF8B50E46B5
S3150800F1F004466B4910464A780978891808291D4635
S3150800F20004D11F20F9F7B9F80020F2BD0121FFF754
S3150800F2108BFF0746701C3C707870FAF7EFFCB880D5
S3150800F220BD712046FAF730FF0120F2BD70B55C4C7F
S3150800F23061782278064600255A4801E06D1CEDB231
S3150800F2408B189D421ADA10F83530B342F6D15118A8
S3150800F250491B491E00EBC500CA0092B200F108011D
S3150800F260F7F736FD3046FAF71DFF6078854202DA71
S3150800F270401E607070BD2078401E207070BD4848E2
S3150800F280417800784018401E8041C00F70474448B6
S3150800F290407800B10120704770B50024414D404EBA
S3150800F2A004E015F83000FAF7FDFE641C3178727830
S3150800F2B0E4B2204651188842F3DBBDE8704038486E
S3150800F2C00021017041700171704710B5354C01E09D
S3150800F2D000F026F83248407830B12046FCF7C8FDE1
S3150800F2E00028F5D0207810BDFF2010BD10B52C4A97
S3150800F2F052789AB12B4C227882420FD151B9607854
S3150800F300103060701046FCF7F9FE18B9607800F006
S3150800F310F000607000F004F8012010BD002010BD58
S3150800F32030B51F4C1F4D6078401E607083B00822B0
S3150800F330294600A8F7F7CCFC607821780818C2009F
S3150800F34092B205F108012846F7F7C2FC9DF80100BC
S3150800F3500F21084217D19DF80000FAF74CFDF8F77F
S3150800F360B8FF9DF801000009411E89419DF800007B
S3150800F370C90F0022FCF74AFC9DF80000FAF792FE36
S3150800F380F8F7A8FF37BDBDF802000121FFF7CCFE4C
S3150800F3904188ADF80210082200A9F7F799FC37BD95
S3150800F3A0587E0020687E002000210020BCE6000070
S3150800F3B010B50022154B03EB820333F8044F844241
S3150800F3C004BF9B788B4201D1012010BD521CD2B2DA
S3150800F3D0042AEFDB002010BD0D4A1268127B121FAB
S3150800F3E0022A00D2704710B5084A137802EB830444
S3150800F3F024F8040FA170581C00F00300107010BD0B
S3150800F4001022FF210348F7F7A6BC00005C7F002006
S3150800F410CC7B0020607F00204FF6FF71884200D128
S3150800F420704780B500F05DF9FF280AD000F040F873
S3150800F430DFF8F82541881278A1EB111101EB0211CA
S3150800F440418001BD80B5DFF8E8150968002081F81C
S3150800F4502D00F8F74DFFFF2803D1DFF8D815032054
S3150800F460087001BD30B5DFF8C8351B689C6A2833BB
S3150800F47000225B7901E0521C0E34D2B29A4208D2BD
S3150800F48025888542F7D30A702188884202D101204F
S3150800F49030BD0B70002030BD80B500F011F8FF2894
S3150800F4A002D14FF6FF7002BD00F002F8008802BDD7
S3150800F4B0DFF87C150968896A0E2202FB001070477E
S3150800F4C0F8B500F064F9876A002501E06D1C0E376F
S3150800F4D0306890F82D00EDB2854208D20822B91D91
S3150800F4E02046F7F73FFC0028F0D12846F2BDFF205A
S3150800F4F0F2BD80B500A9FFF7B5FF10B19DF8000071
S3150800F50002BDFF2002BD80B500A9FFF7ABFF40B1E1
S3150800F510DFF81C0500689DF80010806A0E2202FBC1
S3150800F520010002BD2DE9F047DFF804550FF2105629
S3150800F5300446286882B090F82D1090F82C00814275
S3150800F54003D3AC213046F7F7C5FA00A92046FFF7E2
S3150800F55089FF18B1AF213046F7F7BCFA28689DF83D
S3150800F560002090F82D108E1AF6B20E27BEB39DF91C
S3150800F5700020DFF8C4C40121914089B24FF6FF721A
S3150800F58053189BB24FF00F0EBCF8008090450CD074
S3150800F590BCF8048003EA08096FEA030A89440AEA00
S3150800F5A0080809EB4808ACF80480BEF1010E0CF116
S3150800F5B0060CE9D1806A9DF8001007FB010107FBDC
S3150800F5C006F201F10E00F7F783FB28689DF8001094
S3150800F5D0006B00EB8101B200081DF7F779FB28687C
S3150800F5E09DF80060806ADFF8441407FB06000822CD
S3150800F5F004800978090241800021017110214171B6
S3150800F600801D0021F7F7A7FB2868026B002142F846
S3150800F610261090F82D10491C80F82D100D20002179
S3150800F620F8F7ABFE0CB903F02CFA9DF80000BDE81C
S3150800F630F687F8B5DFF8F8430646206890F82D00F7
S3150800F640811B4D1E8642EDB204D3D2210FF2F03053
S3150800F650F7F740FA8DB3DFF8E0330120B04080B207
S3150800F6604FF6FF710A1892B20F278018B3F800C038
S3150800F6708C450BD0B3F804C002EA0C0E2CEA000C39
S3150800F6800EEB5C0CACF5004CA3F804C09B1D7F1E6A
S3150800F690ECD12068806A0E2101FB060001FB05F209
S3150800F6A000F10E01F7F714FB2068006B00EB8600EB
S3150800F6B0AA00D2B2011DF7F70BFB206890F82D10AF
S3150800F6C0491E80F82D100021BDE8F4400E20F8F7F9
S3150800F6D054BE10B50C46FFF7ACFF2046BDE81040F7
S3150800F6E020E7F8B50446FFF704FFFF282FD1DFF817
S3150800F6F04053286800F128014A7909798A4222D3B9
S3150800F700876A002601E0761C0E37286890F82D00D7
S3150800F710F6B2864210D23879C0F30211072904DA04
S3150800F72007221042EFD10329EDDB3888FFF773FA79
S3150800F7300028E8D1FF2E01D1FF20F2BD2146304630
S3150800F740BDE8F440C5E72046BDE8F240EAE6F2BD6A
S3150800F7502DE9F04100F01BF8856A884600270EE07F
S3150800F7600822A91D2046F7F7FDFA30B92888404532
S3150800F77003D03846FFF75DFF7F1E7F1C0E353068C5
S3150800F78090F82D00FFB28742EAD3BDE8F081A84E73
S3150800F790044630687047F8B507460C463946204691
S3150800F7A0FFF7D6FF3846FFF79CFF0646FF2EA04D0B
S3150800F7B011D105F0DAFBFF2808D1F9F78FF8296887
S3150800F7C091F82C1090FBF1F201FB12003946C0B2F9
S3150800F7D0FFF77FFF06460E2000FB06F72868806ABB
S3150800F7E0381808222146801DF7F772FA2868806AB9
S3150800F7F00021381800F0C9F83046F2BD10B58C491A
S3150800F8000968896A0E2202FB00140721207908423A
S3150800F81007D1204600F060F801462046BDE81040B2
S3150800F82077E010BD38B504460D462846FFF761FE59
S3150800F830FF281CBF214600F052F829462046BDE89D
S3150800F840344085E72DE9F843DFF8E4818146D8F8A6
S3150800F8500000846A002500260127D8F8000090F8E1
S3150800F8602D0086420CD22088484509D0204600F053
S3150800F87033F80428BEBF2079C0F30210072801DB3D
S3150800F8803D43ADB2761C7F000E34F6B2102EE4DB93
S3150800F8902846BDE8F28338B50C46FFF734FE050066
S3150800F8A001D1002032BD00F017F8014634B9287995
S3150800F8B010F0070002D0884238BF084632BD38B576
S3150800F8C004460020451CF5F737FC8442E8B202D20C
S3150800F8D00628F7DB072032BD4088000AEFE770B537
S3150800F8E0FFF755FF90F82C0084420D4605D340F2E9
S3150800F8F095110FF24C10F7F7EDF83068806A0E2371
S3150800F900294603FB0400BDE870400822801DF7F76E
S3150800F910DFB9027902F0F802114301717047F8B5B0
S3150800F920F8F7E6FCFF2823D0414D2868866A0024AC
S3150800F93018E03079C0F30217072F11DA7F1CF9B2E5
S3150800F940304600F022F8FFB2072F01DA032F07D15D
S3150800F95000213046FFF7DDFF00210F20F8F70DFDE7
S3150800F960641C0E36286890F82D00E4B28442E0D371
S3150800F970FFF746FD04F0F3FF05F005FDBDE8F4408A
S3150800F9804FF47A512D48FAF7B4BE027902F08F0285
S3150800F99042EA011101717047002009E0896A0E22C6
S3150800F9A002FB0011401C4A7902F0EF024A71C0B20C
S3150800F9B01F49096891F82D209042EFDB70472DE921
S3150800F9C0F8431B4C206890F82D6002252068D0F873
S3150800F9D02880002704E0761EF6B27F1C08F10E0880
S3150800F9E0206890F82D00FFB287420BD2B8F8009035
S3150800F9F000214846FFF74FFF0028EED0002EEAD137
S3150800FA00484610E086420CD0F8F768FF216891F85E
S3150800FA102D10891B90FBF1F201FB12066D1EF6B242
S3150800FA20D4D14FF6FF70BDE8F2830000D17F0020E5
S3150800FA30CC7B0020E27F0020E47E0020347E00207C
S3150800FA406E65696768626F722E63000080B504236D
S3150800FA50042200A901200AF08CFDDFF8541500984D
S3150800FA6009680003C86101BD10B5DFF84445206880
S3150800FA70C069000507D1F8F728FC00280CBF042048
S3150800FA801220F5F769F82168C869421CCA6110BDD9
S3150800FA90DFF81C050068C069704780B5DFF81015E7
S3150800FAA0096800200090C8610423042200A90AF00E
S3150800FAB060FD01BD00B585B01123062200A901200D
S3150800FAC00AF057FDDFF8E8049DF81010026882F87E
S3150800FAD020100068C07E00281CBF0528002002D11F
S3150800FAE0F8F7A2FE012005B000BD70B50C46154614
S3150800FAF01E46014610223046F7F7EAF83470280AFF
S3150800FB00B073F5733046BDE87040F8F78EBE2DE940
S3150800FB10FB4F8CB090469DF86400189D00289DF810
S3150800FB2030008DF8040014BF012702279DF838001D
S3150800FB30841A9DF83000029026460D9850B900F0B8
S3150800FB40A3F8DFF87014029A0968555CFF281CBFF1
S3150800FB50405C45199DF8640000289DF8380014BFDC
S3150800FB6009214921EDB22A1A1A9803AB92B2FFF776
S3150800FB70BCFF0DF10C0A9AF8010060408AF80100F2
S3150800FB809DF8640030B11022002103A8F7F7E3F8C6
S3150800FB908DF80C4000244FF0000915E017F80A30DC
S3150800FBA011F8010B434007F80A30521C7F1CD2B2E9
S3150800FBB05A45FFB2F2DBD944102F5FFA89F903D10F
S3150800FBC003A8F8F732FE0027F6B2B1451EDAC7F1E8
S3150800FBD0100BA6EB0900C0B25FFA8BFB584538BF7D
S3150800FBE083460D9858B9009009EB08029DF8041051
S3150800FBF05B46D2B207A8FAF7F4FA07A904E05FFA57
S3150800FC0088F8404409EB00010022D0E7012C18BF10
S3150800FC10002FB04403D003A8F8F707FE00270D9875
S3150800FC2008BB00F031F884B9E249029A0968515CC8
S3150800FC309DF838208E1AFF289DF8640008BF012415
S3150800FC40B0B1F6B2A6B9022412E0012C10D100F028
S3150800FC501BF88DF804004FF00008D6489DF80410EC
S3150800FC6000680E5C04E01CB99DF8380001242E1AC1
S3150800FC70601CC4B2032C8EDB1B98042203A9F7F779
S3150800FC8027F80FB0BDE8F08F9DF83000FAF740BAB4
S3150800FC902DE9F04F85B004460F4690460025FAF741
S3150800FCA037FA824601224FF0010901AB114600F0EE
S3150800FCB078F88DF80040DFF800B3BE489DF80010CC
S3150800FCC000680E5C394600A8FAF776FBF71B04466F
S3150800FCD0FFB223E0037815F80C205A4000F8012BF0
S3150800FCE0491C6D1CC9B2B142EDB2F3DB3419BF1B16
S3150800FCF0E4B2202CFFB207D1DBF800009DF8001013
S3150800FD00085C8DF800000024102D07D109F10109BF
S3150800FD1001AB1FFA89F200F043F80025A7B1C4F138
S3150800FD202006F6B2C5F11000BE42A8BF3E46C0B2D4
S3150800FD30864228BF06469DF80000FAF73FF92018C4
S3150800FD4000210DF1040CCDE78DF800A04FF0FF0A55
S3150800FD509DF80000FF28B0D105B0BDE8F08F2DE969
S3150800FD60FF4104460D461646984609E02278C85CC7
S3150800FD70504004F8010B491CC9B2B942F6DBED1B29
S3150800FD80EDB25DB1102DB4BF2F46102700ABB2B24D
S3150800FD9000F006F8761C002100ABEDE7BDE8FF8110
S3150800FDA001214046A1E670B50D461146804A126803
S3150800FDB0D27E0446287800F020061043287006B143
S3150800FDC0691D0822601CF6F783FF0422691C04F1EA
S3150800FDD00900F6F77DFF28786073002E297814BF8E
S3150800FDE00D20052001F01801082908BF401CC0B2E3
S3150800FDF070BDF0B506466F4800680C4685B0205CB5
S3150800FE0015461F46431BDBB20E2BA8BF0D23002049
S3150800FE10009001A8FAF7E5F93A4601A93046FFF736
S3150800FE20C2FF06469DF8042029462046FAF7D5FA69
S3150800FE30304605B0F0BD2DE9F0418CB00446884641
S3150800FE401546FAF765F906465C4B2A46214608A880
S3150800FE50FFF7CFFF471904A80390FBB208A8029042
S3150800FE60424600200190009000212046FFF74FFEF1
S3150800FE7000F04BF808AAF9B22046FFF709FF294611
S3150800FE802046FAF7A5FA00F0F80229462046FAF7BE
S3150800FE90A4FAFF2E18BF3446042204A92046FAF70E
S3150800FEA00AFA401E8041C00F2CE02DE9F0418CB0C3
S3150800FEB004460D4690461F46404A391908A8FFF7DA
S3150800FEC072FFC61904A80390009508A80290F3B219
S3150800FED00020019042462146FF20FFF718FE00F059
S3150800FEE014F8042204A92819F6F7F2FE385D00F082
S3150800FEF0F8003855A91BF6B208AB0122C9B2301969
S3150800FF00FFF72DFF0CB0BDE8F08108AB00220421F5
S3150800FF1004A824E72DE9F04391B0804689461546A2
S3150800FF201C46FAF7F5F8074623462A46414608A826
S3150800FF30FFF75FFF44191F480068FF2F08BF4746B1
S3150800FF400423385C061F00200090F2B2394604A844
S3150800FF50FAF747F9F1B23846FAF7EFF9FFF7D5FF9E
S3150800FF6008AAE1B24046FFF793FE0CA80390E3B255
S3150800FF7008A802904A4600200190009000214046B9
S3150800FF80FFF7C5FD29464046FAF722FA00F0F802BF
S3150800FF9029464046FAF721FA04220CA904A8F6F7DE
S3150800FFA0E1FE401E8041C00F11B0BDE8F08300009D
S3150800FFB0CC7B0020CC6C0020D46C0020007C002078
S3150800FFC080B50423012200A901200AF0D2FA00987C
S3150800FFD0DFF8EC120003086001BDDFF8E4020068F0
S3150800FFE0704710B5DFF8D8422068000504BF012025
S3150800FFF0F4F7B2FD2068411C216010BD80B5DFF81A
S31508010000C012002000900860042300AA7F21012065
S31508010010F4F77DFD01BD2DE9F84F94B00E461F9CFE
S31508010020002703210C428046924603AD4FF0A60BEA
S3150801003004D08DF80C300DF10D0513E0711D89B250
S31508010040504600F08CFC002845D00097052332461F
S31508010050514603A8FAF7C5F89DF80C0000F01800F8
S315080100608DF85000DDF87890B9F1000F58D1504657
S31508010070F9F7ADFE21074CBF001D801CFAF740FEBB
S3150801008001900DF11C099DF80C0080060FD506F1AB
S315080100900D0189B2504600F062FCC8B1721D009785
S315080100A00823D2B2514607A8FAF79BF805E001984A
S315080100B007A980B200F004FB50B98248006804F031
S315080100C0180118290FD1019969B14088814227D0B1
S315080100D00320044203D100211A20F8F74EF95846A5
S315080100E015B0BDE8F08F417B432904BF019900296A
S315080100F016D1007D400613D509A80AF0E7FB9DF83D
S315080101000C00800648BF07A904D46E480068011D83
S3150801011000F10409082209A8F6F724FE00B101270F
S3150801012041465046FAF754F900F00300431E9B4135
S31508010130DB0F002F14BF09A8484602AA0BA90AF02B
S3150801014019FC5FEA000BC3D15FB10FAA0BA91020F6
S315080101500AF040FD0028BBD110220FA90BA8F6F71B
S31508010160B7FD9DF8500008B90BA80BE0102845D13A
S3150801017000208DF800000FAB012200A90BA80AF098
S31508010180CFFD0FA8F8F73AFB03210C42DFF838B187
S315080101903CD0FFF726FF024629460120FAF7BBFDA8
S315080101A02D1DA00718D54146504600F0F0FC093030
S315080101B080449DF80C0040F020008DF80C000822C0
S315080101C059462846F6F784FD08355FFA88F1504600
S315080101D000F0C5FC00EB080601200090F2B203A866
S315080101E02B1ADBB25146F9F7FCFFF2B25FFA88F136
S315080101F05046FFF720FE38B1002071E7182808BFDE
S315080102000220B6D0A6206BE7182069E70DF10D018B
S315080102100120FAF78EFD054660071AD4029860B9DF
S3150801022000244B4600200090324641465046FFF7CF
S3150801023071FE88B94FF0A60B4DE797F00104F0D08F
S3150801024000688542EDD200211620F8F796F80120BC
S3150801025046E700245B46E5E714B10299681C086085
S31508010260002FC9D04FF0805100200AF0DCFAC3E70D
S315080102702DE9FC410446884616461F4600F024FC33
S3150801028005462946204600F06AFC41190197009661
S3150801029043462246C9B22846FFF7BDFEBDE8F681A8
S315080102A080B5F9F735FFFF2808D0084A1268815C3E
S315080102B0BDE80440091FC9B2FAF73FB801BD0000FD
S315080102C0307E0020CC7B0020007C0020CC6C0020F6
S315080102D038B5F9F72DFCFDF75DFCDFF87444207895
S315080102E0002840F0A78012200AF04CFD00060BD525
S315080102F000F0DFF8000607D500F0DEF8000603D5A2
S3150801030000F0D4F8000610D412200AF03BFD0006CE
S3150801031014D500F0CEF8000610D400F0CDF800068A
S315080103200CD500F0C3F8000608D5E0780E2861D18F
S31508010330F4F782FB002800F07F8032BD00F0B9F89F
S3150801034000060FD400F0B8F800060BD500F0B4F893
S31508010350C00707D400F0AAF8000603D4E0780C28F1
S3150801036045D1E5E700F0A5F8000609D500F0A4F89F
S3150801037000F08100812803D100F098F800060DD518
S3150801038000F097F800060ED400F096F800F0810008
S31508010390812808D100F08AF8000604D4E0780D28EF
S315080103A0C6D00E28DCE700F084F8000610D500F068
S315080103B083F800060CD400F079F8000608D5E07831
S315080103C016281CBF01281A28B2D00F2815D1AFE765
S315080103D000F06FF80006ABD400F06EF80006A7D45B
S315080103E000F064F80006A3D5E0781628A0D0E078D6
S315080103F001289DD0E0781A289AD0E078022818BFFB
S315080104001B2895D0062818BF072891D0082818BF99
S3150801041009288DD00A2818BF032889D0102818BFA3
S31508010420112885D0122818BF1328FAD0142818BF06
S315080104301528F6D0B02032BDF5F7E0FF0AF0E6FC44
S31508010440DFF81003007808B109F062FE05F07EF8BE
S31508010450F9F795F8DFF800430FF24430FAF7D1F9C6
S315080104602070DFF8F802FAF7CCF96070F7F78CFB21
S3150801047005466078FAF7E6F92846F7F78BFBF7F7AA
S3150801048077FEFAF7FAFAFAF77BFC0AF0CAFC0AF0E1
S31508010490CBFC03F03BFF0120F5F75AF8DFF8C00261
S315080104A04FF47041FAF725F9002032BD00200AF011
S315080104B069BC10200AF066BC11200AF063BC2DE95C
S315080104C0F047FEF7CBFDFEF7BFFBF8F77BF908B956
S315080104D0F8F764F9DFF88C824046FAF7D3F808B9D9
S315080104E0FAF74BFFDFF880924846FAF7CBF808B9D6
S315080104F001F02FFA05F0B1FAF7F7ADFCDFF858620B
S315080105003078FAF76AF97078FAF767F90AF08EFC23
S31508010510DFF85852DFF858A2002700240BE02046DE
S31508010520F7F7D7FE2868007B001F022838BF012786
S31508010530F7F7D0FE641C9AF80000E4B28442EED3C1
S31508010540002F1EBF8B480078002805D000F02AF836
S31508010550102808BF05F0FCFBF8F7DAFF0AF02CFEB5
S31508010560F7F712FB0746F8F72DF968B14046FAF78F
S3150801057089F848B14846FAF785F828B10AF01AFE0B
S3150801058010B13078FAF75EF93846F7F703FBF7F753
S3150801059099FE18B94FF4B47100F055F8F5F7BFFD97
S315080105A0BDE8F08710B5FAF752FA40B1FEF767FED3
S315080105B028B1FCF73AFD441EA441E40F00E00124EA
S315080105C0F5F7B0F808B944F00404F8F7FBF838B1C0
S315080105D06448FAF757F818B16348FAF753F808B9AF
S315080105E044F002046448007808B144F020046148E4
S315080105F0007808B144F010046048007808B144F066
S315080106004004FCF70EFD08B144F08004FCF70BFD2D
S3150801061008B144F48074204610BD80B52D224BA143
S315080106200320F9F77EFAFAF712FA18B940F29B1184
S3150801063000F009F8F5F717F85148FAF72AF8BDE86E
S315080106400140FDF7B8BA0FF24810F6F743BA80B57C
S31508010650FDF7CDFA2E223DA10320F9F762FAF5F747
S3150801066076F8F4F775FF4748007808B104F098FD65
S315080106704548007808B1FFF752F94448007808B1AF
S315080106800AF092FABDE80140FCF7D1BC38B5044638
S3150801069036480068007BC01E03280BD32046FCF7AA
S315080106A0AEF94FF6FF75A84204BF2046FEF7F4FEE1
S315080106B0A84204D12046BDE8324005F02FB832BD24
S315080106C070B504464FF6F87084420D4627DA274E70
S315080106D03CB93068007D800703D428460AF0F6F84D
S315080106E0D8B9306841888C4205D1011D08222846AF
S315080106F0F6F7EEFA11E0007BC01E032808D3204660
S3150801070003F0F2FCFF2803D0294603F011FD20B9B6
S315080107102946204605F049F808B1002070BD012098
S3150801072070BD12480068008A704710490968088236
S3150801073070470E480068408A70470C490968488224
S3150801074070470A48006800787047000042000000B8
S315080107509607080838700020C87F0020B4EC020804
S31508010760407F0020587000203C700020CC7B002080
S31508010770106D0020187C0020EC7B0020487C0020AE
S3150801078074700020D47E0020347E0020587C00201E
S315080107907A69676265652D737461636B2E63000000
S315080107A0A87E0020197E0008987D0020C9C200088D
S315080107B02C7C0020ADE800085C7E0020A9F3000827
S315080107C0547F002039E10008EC7B00206F370108CF
S315080107D0F87B00202D380108187C00204D5D0108A2
S315080107E0E47B0020772D01080C7C0020E94A0108EA
S315080107F0507E002093530108C47E00203914020854
S31508010800347E00201FF90008D47E0020A15101087A
S315080108103C7E0020FBB70108447E0020CBBC0108C2
S31508010820587C0020A9AB0108BC7E002045B101080F
S31508010830487C0020DD420108BC7B00203F8200087D
S31508010840487F0020DF840008407F0020DD7C020805
S31508010850C47B00206F830008000000000000000030
S315080108602DE9F8438046894617461C46F9F750FC98
S315080108700546FF2DDFF8586509D0AFB9F9F7B3FD7D
S31508010880FF2820702BD13068285C90BB27E03068A0
S3150801089018F80000A0EB0900B9F1FF0F08BF012005
S315080108A01ED0C6B216B9FF20207018E0D7B145464A
S315080108B02846F9F7E9FB00964B46424600212846A9
S315080108C0F9F750FE57B131462846F9F736FDDFF8F4
S315080108D004050068295C01F07F0129542570002070
S315080108E0BDE8F28331460020F9F75FFC0546FF2D86
S315080108F0E1D11820F4E738B50446DFF8D4040068D6
S31508010900255C204600F0E0F800F10E03DBB2E91A97
S3150801091089B20091224601462046F9F723FEA5F140
S315080109200E012046BDE83440C9B2F9F706BD38B50F
S315080109300446F9F74CFA05462046F9F73EFA6A786D
S315080109400821D30748BF0921130744BF0831C9B293
S31508010950D20644BF0831C9B20818C0B232BDDFF8A1
S3150801096070241268825C8A428041C043C00F704776
S3150801097000F8011B090A00F8011B704710B5044667
S315080109800822F6F7A5F904F1080010BD2DE9F04E85
S3150801099092460C46024684B099464FF6FF710420EA
S315080109A0F9F7D2FA0546FF2D6CD0F9F710FADFF8F8
S315080109B0286407463068C07E10B94FF6FF500440D8
S315080109C020050DD5B9F1000F0AD100A95046FFF748
S315080109D077FE00280EBF0DF100094FF2FF700440A3
S315080109E021463846FFF7C4FF5146FFF7C1FF834644
S315080109F0FFF797FE01465846FFF7BAFFDFF8DC23F3
S31508010A0013780C9A0146481C0AB1934200D21A4639
S31508010A100A703168DFF8B8634A7E521C4A7600F8D4
S31508010A20012BE10548BF401C210544BF4946FFF794
S31508010A30A5FFE10444BFDFF8A813FFF79FFF31685C
S31508010A406A5C8018C01B685440F20110044218D130
S31508010A504FF6F870824514DA30682F5CF7F734FCE4
S31508010A6029465046F9F76FF8F7F734FC3068285CE1
S31508010A70B84206D02846F9F7AAF9417841F00401A7
S31508010A804170284604B0BDE8F08E70B582B01546AF
S31508010A90069A1E4641F209240AB141F60924009133
S31508010AA00246079B2146FF20FFF770FF0446FF2CED
S31508010AB009D032462946F9F7FEFB0028204602D01E
S31508010AC0F9F7F0FAFF2076BD38B50446FFF72FFF90
S31508010AD005462046F9F77BF94078400704D500F02A
S31508010AE072F8401C05EB4005E8B232BD00F1080179
S31508010AF04078020701D400207047C00701D5481C79
S31508010B0070470846704700F108014078C20601D4CB
S31508010B1000207047C20748BF491C000702D501F1EA
S31508010B20080070470846704700F00301012901D102
S31508010B300220704700F00C000C2801D109207047EB
S31508010B40082070470322114207D000F0030002284B
S31508010B5001D1032070470220704700207047F8B57D
S31508010B6004460D46F9F734FC0646FFF7DDFF07464E
S31508010B70300601D43846F2BD7919C9B200F024F815
S31508010B8001463046FFF7DEFFC019C0B2F2BD70B5A7
S31508010B9004460D46FFF7E3FF064600F014F8800603
S31508010BA00FD57119C9B200F00FF8761D00F01801BA
S31508010BB0F6B2082904BF761CF6B2800644BF083689
S31508010BC0F6B2304670BD29462046F9F701BC38B55C
S31508010BD00446FFF779FF054629462046FFF7D7FF62
S31508010BE04019C0B232BD2DE9FF4780460C46F9F7D8
S31508010BF0EEF80646FAF784F805464046FFF764FF1D
S31508010C00074639464046FFF7AAFF002100910346E9
S31508010C103A46414601A8F9F7E4FA9DF8048008F036
S31508010C200C000DF1050A4FF0FF090C281ABF9DF8B3
S31508010C3005000DF1060A484608F00C07607106D151
S31508010C405046FAF75DF820810AF1020A01E0002010
S31508010C5020817078C00704D50C27B01CFAF750F824
S31508010C6020815046FAF74CF860800AF102063046B0
S31508010C70FAF746F8208008F00301B01C012918BFCD
S31508010C8010F8019B84F8049010F8011BA17208F072
S31508010C90600139432A0648BF41F4007103D46A0644
S31508010CA048BF41F48071EA0448BF41F480612A05CE
S31508010CB048BF41F40061E1805FEA086117D510F881
S31508010CC0011B11F0030112D0E38810F8012B43F43C
S31508010CD00043E38008F00303022B04D1007842EABB
S31508010CE00020208103E0012908BF12022281BDE804
S31508010CF0FF872DE9F041154686B080460C46E888FF
S31508010D00082C18BF0C2C064604D080045CBF06F0DC
S31508010D1040000143304F3868C07E10B106F020000C
S31508010D200143300448BF41F080010C2C8DF80010B6
S31508010D3005D129890DF10100FFF71AFE04E068794A
S31508010D408DF801000DF102006988FFF711FE298867
S31508010D50FFF70EFE297900F8011B022C09D0310490
S31508010D6002D52989C9B221B939688A7E531C8B767D
S31508010D70AA72A97A00F8011B310415D529890A0A2C
S31508010D80022C01D0CBB23BB1022300F8013B022C65
S31508010D9000F8011B08D105E010F8011CA972012110
S31508010DA000F8011B00F8012B3968C97E19B1A97928
S31508010DB0890648BF401D00A9421AD2B24046F9F732
S31508010DC07AFA401E8041C00F06B0BDE8F0810000E6
S31508010DD0CC6C0020D06C0020CC7B0020486D002014
S31508010DE0007C002010B50446FFF79BFC024620460E
S31508010DF0BDE810400021FFE72DE9F24F0746DFF86D
S31508010E009406006886B0407B0025022892464FF07A
S31508010E10060913D13846FBF747FE00280ED14FF6CF
S31508010E20F9718F4202AE1AD14FF02008082400F05A
S31508010E302AFBC0F09C80FFF774FC824540F097803E
S31508010E40FFF76FFC0746FC20F070FF203071022285
S31508010E5039465046FDF7A9FFC8B1012088E04FF68B
S31508010E60F8718F4203D14FF010081024DFE7380AD2
S31508010E703071A846F7700DF10E013846FFF720FCD0
S31508010E80002812BF002420244FF00E09DFE7DFF8FF
S31508010E9008B69BF80000401C01218BF800008DF86C
S31508010EA008107470B0707571019500954B469DF8E0
S31508010EB0181002AA4FF6FC70FFF7E7FD0646FF2E4B
S31508010EC055D0FFF72EFC824510D03046F8F77FFF44
S31508010ED004465146201DF9F71AFF2046FFF713FE6F
S31508010EE001465046FBF7FAFD00283DD000F0CBFA43
S31508010EF04FF6FF7905D249463046FAF706F905460F
S31508010F0032E0FDF779FF04002ED0E21D414638464E
S31508010F10FDF777FF070027D000231A46032130463D
S31508010F20FEF764F9050015D0A4F800A09BF80000A7
S31508010F30207100206071FFF7F4FB824505D13879ED
S31508010F4000F0FC0040F00100387100210C20F7F791
S31508010F5014FA09E0387900F00301012904D140F0B7
S31508010F6003003871A7F800903046F9F79BF8284630
S31508010F7086E22DE9F041804615461E464F1CF8F7D4
S31508010F8026FF0446201DF9F7BBFE28804046F8F7E0
S31508010F903FFF6880F9B2A079E8724046F9F718FA76
S31508010FA0A8727F1CF9B24046F9F712FA28727F1C1B
S31508010FB02EB1F9B24046F9F7B2FABF1C00E028880B
S31508010FC0A880F9B24046F9F7AAFAE880B91CC9B26D
S31508010FD04046F9F7FDF968720122297AA888BDE821
S31508010FE0F041FDF7E2BE3EB50C46002100911D46D3
S31508010FF00146082301A8F9F7F4F82A4601A920466B
S3150801100003F0CFFB3EBD10B50C46DFF8881409681E
S3150801101082B0097BC91E032908D300AA1021FDF74E
S31508011020F0FE18B144800021FDF76AFD13BD2DE9D4
S31508011030F04704468AB0A07A8946154600F040086A
S315080110400826FFF76EFBE288824206D0012702A92D
S315080110501046FBF743FD08B943E0002760880021E5
S31508011060FEF719FCB9F1000F824607D00822494656
S3150801107006A8F5F72DFE48F010081026002F14BF14
S3150801108002A9DFF8181404A808223018F5F720FE7B
S31508011090BAF1000F25D002208DF8100048F0200182
S315080110A004A806F108034170DBB2217A817004AA0B
S315080110B0A1888DF81310A188090A0171E1888DF8B4
S315080110C01510E1888DF817A0090A81710020019091
S315080110D00021012000906088FFF7D7FC0646FF2E05
S315080110E001D1002010E06188F8F7A3FE002D14BF96
S315080110F002210021002300223046FEF777F8044634
S315080111003046F8F7CFFF20460AB0BDE8F0872DE94B
S31508011110F04383B080460F4615469946F8F757FEC1
S31508011120044600214846FEF7B6FB0646F91DC9B234
S315080111304046F9F723F98EB10DB90178761806708C
S315080111406078000713D500A94846FFF7B9FA28B908
S315080111500022082100A8FBF7F4FE08B1002029E0C7
S315080111602046FFF7C3FC082200A9F5F7B1FDFFF7F2
S31508011170D8FA0146201DF9F7CAFD6078C00606D5DA
S315080111802046FFF7C0FC0822C449F5F7A1FD4946E8
S31508011190A01CF9F7BCFD49464046F8F74AFEBD488A
S315080111A00068417E491C4176E171A07908B90120A0
S315080111B0A0710120BDE8FE832DE9F04F87B0804676
S315080111C0FF20154600278DF801004FF0000B002D72
S315080111D089468DF800B014BF082406242B4601AAB7
S315080111E04046FFF7C6FE06468DB19DF80E00C006BD
S315080111F00DD504F10800C4B209F10802BDF80810BA
S315080112000023D2B24046FFF7EEFE002837D19DF8FB
S315080112100E0080060CD56B1E9B4104EB0902BDF836
S315080112200A10DB0FD2B24046FFF7DDFE002826D1B1
S31508011230002D14BFBDF808A0BDF80AA0FFF771FA82
S31508011240824504D05046FBF72FFC040000D0012448
S31508011250002D3FD016B94FF6FF7A26E09048F1796E
S315080112600068B6F802A0062202FB010BBDF80A10B7
S31508011270BBF80000884203D04FF6FF703080FFE0CC
S3150801128024B9BDF80800FDF781FD07460021584637
S31508011290FDF736FCBDF80600ABF802002FB10021B8
S315080112A03846FDF72DFC7088788004F099FC7D4856
S315080112B0007800280DD0002C0BD153460022494650
S315080112C04046FFF724FF002803D051464046F9F768
S315080112D01CFFD5E0BDF806000021FEF7DCFA0590F3
S315080112E0BDF80400FBF7E0FB0546FFF71AFABDF85F
S315080112F004108142EDD000F0C6F8EAD39DF80E003D
S315080113004106E6D405992943E3D000F018010829D6
S3150801131008BF4FF0200A06D000F0180010280CBFAD
S315080113204FF0100ADA469DF80D00059908188DF850
S315080113300D0014B95FEA0A0000D0012004903EB9F5
S31508011340FDF75AFD06460120002E8DF80000C0D093
S31508011350049848B9BDF80A000DF101020021FDF70C
S3150801136050FD5FEA000B45D045B9BDF808000DF1FF
S3150801137002025146FDF745FD07003BD04948007872
S3150801138028431EBF9DF8000084F00101084227D0BA
S31508011390F7F7A4FA7E2190FBF1F17E2202FB1100F8
S315080113A0801CC5B29DF80D2009F10501C9B2404658
S315080113B0F9F713F84FF6FF714046F8F73AFD059825
S315080113C00428A8BFA5F1800003DA022802DB05F18B
S315080113D04000C5B200232A4602214046FDF706FF12
S315080113E09DF8000070B970799DF80D10814209D3F6
S315080113F0BAF1000F44D0814242D1F7F76FFA0321BF
S3150801140008423DD1BDF8060070809DF80D00707147
S315080114109DF8000070B1BDF8040030809DF80C00FD
S315080114203071049810B1FF20F07111E09DF80100A8
S31508011430F07119E0BBF1000F1EBFF0799DF801109C
S31508011440884205D040F267210FF2E800F5F742FB22
S31508011450002F1CBF0498002806D0BDF80600788026
S31508011460387900F0FC00387154B14046F8F7AFFC02
S31508011470FFF749FB01469DF8002001A8FFF7D7FDB4
S3150801148007B0BDE8F08F03480068007BC01E03283B
S3150801149070470000CC7B0020E07F0020007C002004
S315080114A0F06C0020DC6C00202DE9FE4304460D4655
S315080114B090469946FFF735F9844214BF012600265E
S315080114C005218DF80810002702A93EB1887001226E
S315080114D0000A4A708DF80B00042301E04F700223BD
S315080114E001970120009002AA00212846FFF7CDFAAC
S315080114F00546FF2D1AD08EB1F8F769FC0646214636
S31508011500301DF9F704FCA9F18000F0713046FFF7A8
S31508011510FAFA01462046FBF7E1FA20B14146284688
S31508011520F9F7F3FD07462846F8F7BCFD3846BDE846
S31508011530FE830000726F7574652D646973636F7637
S315080115406572792E630000002DE9F84F8AB00D46C1
S315080115501646ADF804504FF00008F7880446C2460F
S31508011560C146FBF734FD159860B9F8060AD59DF80A
S3150801157050009DF82830009032462946204609F049
S3150801158020FE04E1780548BF4FF4805A380548BF64
S315080115904AF4006AB80548BF4AF0800A03D4F80538
S315080115A048BF4AF0400A9DF850000290072CAB4606
S315080115B065D8DFE804F0062C183A3A04063A4FF0E3
S315080115C002099DF82800BDF80420009043469DF8BD
S315080115D050004AF40271FFF7D9F98246BAF1FF0FB2
S315080115E04FD11820D3E005A9E8B208F03CFC08223F
S315080115F00DF1190103A8F5F76BFBDFF81808006868
S3150801160030F81B000DF10C08ADF80400D9E703A961
S31508011610E8B204F014F8DFF8000800680C2101FBB1
S315080116200B000DF10C080088EEE74FF6F8708345BC
S3150801163025DBF0884FF40261084220D100F033F926
S3150801164018BF91201CD10298FF280FD000F01DFB6E
S31508011650032C0CBF01210021401ADFF8C017029A9A
S315080116600968515C8842B8BF742009DB032C0CBF9A
S315080116704FF00C094FF008092AF4C07AA1E70120B6
S3150801168085E0DFF89C0700884FF6FF71884214D081
S315080116905046F8F79CFB8346DFF8840701880BF16F
S315080116A00400F9F734FBDFF87C07DFF874170078D4
S315080116B08BF807004FF6FF700880324649465046B8
S315080116C0FFF717FB08B918265DE0DFF85C07006825
S315080116D0C07E48B1B80607D50123424600215046C7
S315080116E0FEF7C6FD06004ED10298FF2816D05046D1
S315080116F0F8F763FBDFF830170968C97E01B11221D3
S31508011700DFF81827029B12689B5C1AF80220D21888
S31508011710743089188842B8BF742634DBB80407D5F3
S315080117205046F8F75EFB40F480615046F8F75BFBDC
S31508011730062C12BF072C5046F8F762FB159848B1DC
S31508011740BDF804105046F8F774FB159880F800A008
S3150801175000201CE0E01E022801D9001F07D15046CF
S31508011760F9F764FB00280CBFA12600260BE0B80494
S3150801177044BF4FF6BF7007403B46EAB22146504682
S3150801178004F03FFA06465046F8F78CFC30460BB093
S31508011790BDE8F08FF0B587B00E4604460C9917469A
S315080117A01846F8F702FD0546FF2D21D0FF208DF8D2
S315080117B010008DF81100ADF80E704CF20E00ADF860
S315080117C00C00ADF812600020ADF81400009502A8CF
S315080117D00190FF2303AA21460020FFF7B5FE044620
S315080117E02846F8F75FFC002C0CBF9DF80800FF207F
S315080117F007B0F0BD2DE9F043164685B00446F088DA
S3150801180004900D4670790FF2586103901F4630799E
S315080118100290A846708801904346308800900822B5
S3150801182000F069F800F03FF818BF912019D1FF2F91
S3150801183009D000F02AFADFF8E4150968795C8842CC
S3150801184038BF74200DD37CB94FF6F870804528DA75
S31508011850002001900097FF23324629462046FFF7CC
S3150801186073FE05B0BDE8F083022C4FF6FE790CD164
S31508011870DFF8B8050078854213D2DFF898050068C5
S3150801188030F818004845E3DB0BE0012C09D1DFF8F5
S31508011890A0050078854204D2E8B203F0DEFE484589
S315080118A0D6DB0120DDE7DFF880050068407B0228EA
S315080118B07047F0B587B00D461646044605961F468D
S315080118C0E8880FF2A4510490234668790390092207
S315080118D028790290688801902888009000F00BF812
S315080118E000200190009733462A4621460420FFF737
S315080118F02BFE07B0F0BD0320F8F713B970B588B011
S3150801190004460D46069205951E46E0880FF2645177
S3150801191004900622607903902079029060880190EC
S315080119202088009003202389F8F7FBF8DFF80405DF
S3150801193000780096002814BF4FF6FF714FF6FD7127
S31508011940002001902B4622460320FFF7FDFD08B033
S3150801195070BD10B5DFF8E004F8F74AFE0446FF2C1F
S315080119600DD02146042002F03AFE18B10121204685
S3150801197000F006F82046BDE81040F8F793BB10BD05
S315080119802DE9FE4F82460D46F8F721FA0646B01CA8
S31508011990F9F7B6F983465046FFF796F801465046D9
S315080119A0F8F716FD804608F003095046F8F723FABA
S315080119B0F6F78FFCDFF88444301DF9F7A1F920808A
S315080119C0DFF87C74FEF7ADFE834512D04FF6F8704A
S315080119D083450EDA7078C0070BD45846FBF759F8D9
S315080119E0002869D0208801235246594600F091F90A
S315080119F062E000A95046FFF7F6F800A838603046BD
S31508011A00FFF781F8DFF83C14086003215046F8F720
S31508011A10CEF9DFF83414087004215046F8F7C7F9EF
S31508011A20DFF8281408704DB39DF80600800625D501
S31508011A30DFF8F453FEF775FE40B12868007D80078C
S31508011A4004D4B9F1010F08BF102000D0002040F0DE
S31508011A500803002200215046FEF70AFC70B108F07F
S31508011A600300012802BF2868407B112839D109F0F3
S31508011A700BF8B0BBAF2001F05AF832E018F00300BA
S31508011A8003D0022805D009D316E0504600F02DF8F8
S31508011A9012E05146404604F0E2F80DE0FEF741FE39
S31508011AA02188814208D05146052002F098FD18B1D7
S31508011AB02188504600F0BFFAFEF733FE218881429D
S31508011AC00DD15046FFF700F801465046F8F780FC5D
S31508011AD00C21084203D10021504604F0E1FA002006
S31508011AE03860F6F7F7FBBDE8F78F2DE9F04F83B0BD
S31508011AF08046F8F76CF90546A81C95F801B0F9F780
S31508011B00FFF84FF6F8718842ACBF01260026FEF7AA
S31508011B1008FEDFF82893DFF82873B9F80010814228
S31508011B203868B0F802A00CBF012400240BF00100AC
S31508011B3030438DF804009DF80400002814BF0620E0
S31508011B4008200021F6F719FC38680188002904BF26
S31508011B504079002808D1B9F80000BAF5004F19DB19
S31508011B605246414609F0BDFC386800884CF20E0120
S31508011B70884241D144F20106B24518BFBAF5804FF1
S31508011B8037D14046FFF723F80146B2450CBF01207D
S31508011B90002025E0DFF8B8B202218BF800103346A1
S31508011BA00022414609F010FB38688079400603D5C2
S31508011BB0FF21504600F070F8BAF1130FD4D03868F7
S31508011BC0C0884004D0D4A3499BF800000978CA0705
S31508011BD001D50228C8D0890749D50128C4D046E0CD
S31508011BE0491EC9B200912B464246012101F01FFB4D
S31508011BF03DE0404604F06FFC3868817901F00C013C
S31508011C000C290DD1008903F064FE80B33868018977
S31508011C10002C14BF03250225002008F0A8F914E0BA
S31508011C200179009100224379B9F80000002108F0F2
S31508011C30CDF93968897901F00C01082904D1002CFC
S31508011C400CBF0425052500E00025834908709DF889
S31508011C50040010B9BAF1380F01D1012200E00022BF
S31508011C602946404603B0BDE8F04F07F07FBEBDE800
S31508011C70F78F10B5044600F008F8610548BF083823
S31508011C80210548BF0838C0B210BD67490968C97E31
S31508011C90642001B15220704770B5694E0C4686B072
S31508011CA0054631680C2202A8F5F712F83068017961
S31508011CB08DF80D10FF2341798DF80C10ADF80A50F7
S31508011CC04FF6BF71C08800940840ADF80E0002AA0D
S31508011CD000200190594801880520FFF735FC06B018
S31508011CE070BD5E48007808B9FF2070475A480078E9
S31508011CF070470A4680B50C21084208D190794006FA
S31508011D0005D55088FF21FFF7C7FF012002BD002036
S31508011D1002BD2DE9F34F904683B01D464046FEF7B6
S31508011D20D3FE01464046F8F753FB824603201AEADA
S31508011D30000F69D1424806684048B0F800B000244F
S31508011D4000A94046FEF74FFF3D4900A808603B49F8
S31508011D50BDF80C0008809DF80500002804BFBDF8F1
S31508011D600000002834D14046F8F731F8801CF8F70E
S31508011D70C7FF4FF6F8718842ACBF4FF00109A1467B
S31508011D80002D14BF022501250127FFB2BD4234D318
S31508011D90BDF80C004B463A46414609F015FA044689
S31508011DA0012C04BF022D012F10D1BDF810001C49CA
S31508011DB008801D480068417E491C4176A1F18000D2
S31508011DC01849087000A95046FFF793FF7F1CDCE706
S31508011DD0BDF800004CF20E01884204BFBDF80200AE
S31508011DE001280AD145B1BDF81000414604F075FB3A
S31508011DF000A95046FFF77DFF0124114806600F48E8
S31508011E00A0F800B0204600E0002005B0BDE8F08F3C
S31508011E1000000000206D0020306D0020CC6C0020F1
S31508011E2016700020C77F0020CC7B0020246D00207F
S31508011E302C6D0020AC7F00203C700020D67B002052
S31508011E40D87B0020DC7B0020D17F0020D27F0020B8
S31508011E50C67F0020A97F0020C27F0020D47B0020F6
S31508011E6042575757424257004257575742425742DD
S31508011E7000000000425757424242574242000000C2
S31508011E8070B5DFF8445C0446286882B02688407B32
S31508011E9008B1702076BDB00504D504F1120000F032
S31508011EA0CDFDF0B906F08600862801D1B72076BDAA
S31508011EB000F0B7FD2868466116F4045F20D0B00427
S31508011EC00BD5A01C09F096FC002851D12868416958
S31508011ED021F4005141F480714161A01C00F0AEFD6E
S31508011EE008B1B22076BD09F068F920B928684169B8
S31508011EF041F4803141612868416941F0200141611D
S31508011F002868416941F40041416148064CBF04F122
S31508011F1023020022A31C47F2FF1008F04FFC00A879
S31508011F2000F040F828684069C004BDF8000004D5EF
S31508011F3040F02000ADF8000008E04FF6DF710840D8
S31508011F40ADF80000FDF7A9FDFEF758F8BDF8000049
S31508011F5000F00FF828684069800506D594F8221024
S31508011F60012204F1120000F07CFB29680020486276
S31508011F7076BD10B5044604F44C7001040023002212
S31508011F804FF07F6008F01AFC23462F22C2A10320D6
S31508011F90F7F7C7FDE00703D50021302008F043FC19
S31508011FA0002010BDDFF8201B09684969090C01F4F6
S31508011FB04C7101800020704738B5DFF80C5B044688
S31508011FC02868407B022801D0932032BD0A220021CD
S31508011FD02046F4F7C0FE2868406900F0FF01820632
S31508011FE048BF41F01001218080075CBFA01C08F0A2
S31508011FF06DFC002032BD38B504460D46FDF75AFD85
S3150801200008B9952032BD00F05FFAC17E89B14069F1
S31508012010010401D4A82032BD5DB110F0420F08BFFA
S31508012020002C04D000F44070B0F5407F01D0B720F1
S3150801203032BD002032BD2DE9F04F8BB081468B466B
S31508012040FEF742FD01464846F8F7C2F9044600255F
S315080120504846F7F7BCFE804698F80100800748BF56
S315080120600125A00648BF45F002054846FEF7AFFD23
S315080120708DF80400DFF8540A00689DF8041019F871
S3150801208000009DF80420431ADBB2242BA8BF2323A2
S3150801209000200090494602A8F8F7A3F89DF80840E1
S315080120A0012000FA04FA00F08BF902AE777878B1CC
S315080120B000F018FD002814BFA0204FF4F070E0408E
S315080120C0C00705D5A80703D4082C0CD1042F09D1BC
S315080120D0F8F79FFE50B1052C01D1022F06D11AF04F
S315080120E01E0003D182E0052CF2D07FE043F61E41A3
S315080120F01AEA010F05D05A464946204609F07CFBE3
S3150801210074E0052C4FF6FF7A0AD0062C18D0072C56
S3150801211037D0082C4CD0092C50D00E2C53D065E062
S31508012120062F63DA08F10200F8F7EAFD0446484685
S31508012130F7F76EFE2B4602AA214600F001FB55E091
S31508012140FEF7EFFA002851D100F0BEF9C17E002949
S315080121504CD0A90702D44069800147D40DF111007A
S31508012160F8F7CEFD0246DFF868599DF8130085F8A1
S3150801217000900DF10903594609F040FBFF2028702C
S3150801218034E00822DFF84C190DF10900F4F7EAFDED
S3150801219020B90222594602F0CAFC27E00DF10900CE
S315080121A0FAF72DFC504521D0002102F0EFFD1DE084
S315080121B02A4602A9584609F0E5FB17E0717801207D
S315080121C000F017FA12E0E80710D50DF10900FAF741
S315080121D016FC504504BF0DF10900FDF75DF95045A0
S315080121E004D09DF80420494600F003F80BB0BDE879
S315080121F0F08F2DE9F0478046DFF8D00800680D46D4
S3150801220088B0285C02F10906871BF9B20020F7F7A6
S31508012210CCFF0446FF2C3CD0012000900023424607
S3150801222008212046FEF7B2FB8146B9F1FF0F2DD0F2
S31508012230F1B22846FEF7ABFC8246002000905346D1
S31508012240F2B2294601A8F7F7CCFF524601A948463A
S31508012250F8F731F8B8B9A7EB0A075644F9B2204698
S31508012260F7F7B2FE4046F5F763FF00F0B5F9FFB29E
S315080122700097F3B22A4600212046F8F773F941463A
S315080122804846F8F742FF4846F7F70CFF2046F7F7A6
S3150801229009FF08B0BDE8F087425700002DE9F24F63
S315080122A08046934686B01D4600215846F8F790F8B1
S315080122B004460227082C1CBF052C062C05F0080627
S315080122C04FF000094FF0080A01D168080AE000F04A
S315080122D077F848B100F006FC002814BFA0204FF497
S315080122E0F070E04000F001000190FAF770FEBBF1D2
S315080122F0FF0F63D0E80748BF4FF4027AC820009061
S315080123000023424651465846FEF740FB8346BBF139
S31508012310FF0F53D026B1069909F09BFC00284AD035
S315080123204FF6F8708045ACBF0820002040F0010048
S315080123308DF8080000F0C8F8817E4A1C82768DF86F
S315080123400910019848B19DF8080040F02000002EB8
S315080123508DF8080014BF0F2707273A4602A95846E1
S31508012360F7F7A9FF38BB0198D0B10021052C0DD18B
S315080123705846F7F7CDFE01240121F8F729F804FAA2
S3150801238000F010F0620014BF10211821002E19BFA9
S315080123900223069A012300225846FDF769FF50B920
S315080123A0680704D541465846F8F7AFFE02E0584695
S315080123B0F8F73CFD81465846F7F774FE484606E3AA
S315080123C0DFF804070068C07E70472DE9F04104462E
S315080123D00E463046F7F770FD80462046F5F7A8FE0B
S315080123E0FF2804D0FAF773FB00F040070DE02046FA
S315080123F0FDF77FF8FF2818D0DFF8CC160968896A37
S315080124000E2202FB00104079C709DFF8C4562E7068
S31508012410FEF787F90146002F14BF05200120434620
S31508012420224609F0EBF9FF202870BDE8F0817CB55A
S315080124301C46DFF894361B681B7D00259B0701D5D2
S31508012440002076BD019200900B4606220FF2B0617C
S315080124500020F8F704F80646FF2E0CD0002C14BF0E
S3150801246003230123002132460846FFF717FF0546D5
S315080124703046F7F717FE284676BD2DE9F0410027C5
S3150801248004460D461646B84608F0FEFA18B1012369
S3150801249000F016F8074608F0F7FA38B100F022FB03
S315080124A040B100F011F84069800103D4002300F01F
S315080124B007F8804658EA070018BF0120BDE8F081F1
S315080124C0324629462046B2E7DFF8FC050068704720
S315080124D02DE9F34F1D46022D924616BF032D0127FE
S315080124E00027BAF1000F8DB018BFD04605D101A853
S315080124F008F0ECF948B10DF1040823210020F7F79B
S3150801250054FE8146B9F1FF0F01D1002061E0F7F7CA
S3150801251055FD83465E46052006F8010B06F8015B64
S31508012520199CE00606D5112200213046F4F713FC62
S31508012530113617E0189910223046F4F7C9FB012025
S315080125401036A84010F062000CD003A908A800F0C4
S3150801255058FA3046461CA1064CBF9DF81C109DF83A
S3150801256030100170002F14BF51460E9908223046CB
S31508012570F4F7AEFB06F1080A2FB1A00900F0010035
S315080125800AF8010B0BE001200090AAEB0B020823C5
S31508012590D2B249464046F7F724FE0AF1080AAAEBE1
S315080125A00B01C9B24846F7F70FFD600705D5BDF817
S315080125B03400F5F7BDFD00F00FF80E99BDF83400AB
S315080125C023464A46FFF76AFE04464846F7F76AFD78
S315080125D020460FB0BDE8F08FFF2809D0DFF8F814C0
S315080125E0096831F810204BF6FF731A4021F81020BC
S315080125F0704730B58BB004460D4600F09EF800A82A
S3150801260000F01CFA60B99DF810009DF824100A1A0A
S31508012610D2B2812A04DB2CB1A94201D0A84201D049
S3150801262000201CE01123022205A900F06EF89DF88E
S315080126301010012200A800F014F801F016FE01217D
S315080126404FF40070FAF7A9F8F5F73EFEFFF73CFFDD
S3150801265090F82000F7F76DFAF5F73CFE01200BB06C
S3150801266030BDF0B591B005460C4616460127112234
S31508012670002101A8F4F76FFB8DF814402DB910223B
S31508012680002101A8F4F767FB04E01022294601A8F6
S31508012690F4F71EFB112200210BA8F4F75CFB1122AB
S315080126A0002106A8F4F757FB06A90BA800F0A9F91B
S315080126B0002E14BF0BA806A8112201A9F4F752FB94
S315080126C000B90027CEB1DFF8005497B111230622CD
S315080126D000F01AF82868407B432808BF01F016FD68
S315080126E000A8FFF75FFCBDF80000800658BFFDF79C
S315080126F0D4F9286880F8204004E01FB1112302228A
S3150801270000F002F811B0F0BD01A9002007F031BFB1
S3150801271070B58AB004460D46164600F00EF8002E2E
S3150801272014BF05AE00AE102231462046F4F7D0FAA2
S31508012730307C28700AB0002070BD00A905A860E1A8
S315080127402DE9FF4F541C83B014F8015B4FF0000BC1
S31508012750DA46022D16BF032D01270027D046FDF7BD
S31508012760E0FF00284BD0F8F754FB9DF818100843F2
S3150801277045D002941034029800F060F9DFF84863F6
S3150801278081460120A8408DF8000062219DF80000CD
S31508012790084218BF14F801BB9FB9084204F1080A98
S315080127A02ED03068007D80072AD5FF2208215046A1
S315080127B0FAF7C7FB20BB002352461946022007F049
S315080127C0FDFFFDF7AEFFBDF81010884206D13FB9EF
S315080127D00822C0492046F4F7C5FA002840F0CB8004
S315080127E09DF81840052D0AD8DFE805F0034D3E3E51
S315080127F0034D08F049F9002818BF032C10D0E6E06C
S31508012800504608F096F80028DBD13068407B43280B
S31508012810F5D1012D18BF052DF1D14FF00108D0E7EB
S31508012820B9F1000FEBD1042D029BAC480CBF202156
S315080128303021524607F0C2FF002DE0D03068002152
S315080128404162417B022909D103215046F5F791FDE1
S3150801285007B0BDE8F04F002008F08AB94129CED16A
S3150801286040694005CBD581E0032CC8D10598029B68
S31508012870827E032D07B0BDE8F04F0CBF0121002170
S31508012880123009F01FBA3068407B022804F00204AE
S3150801289004D108F0F9F808B1002C1BD03068407B48
S315080128A0412817D0B9F1000F06D1F8F7B2FA024656
S315080128B002985946FFF7D5FE8948007838B1012DA7
S315080128C007BF002101200121002007F0ACFFF8F71E
S315080128D0A0FA00287BD008F0D7F868B130684169BA
S315080128E0090502D4407B432806D12CB907B0BDE8B7
S315080128F0F04FAC2000F01BB93068007D800704D486
S31508012900BDF80C100020FEF77EFB3068417B1129CB
S3150801291014D14069400511D5002008F0C1F80028F6
S3150801292055D100F021F9AE2000F001F9002008F098
S315080129301FF907B0BDE8F04F00F0FDB80CB100F083
S315080129408FF8B8F1000F11D04FF08051002007F031
S315080129506AFF08F032FC18B94FF4803107F063FFBB
S31508012960316800204862504607F0E1FF07B0BDE82C
S31508012970F04F00F04EB99DF800006221084212D0CE
S31508012980BDF810004FF6F87188420CDB00220821C9
S315080129902046FAF7D6FA30B10298594607B0BDE88B
S315080129A0F04F00225DE62046FDF770FE4FF6FF71F7
S315080129B088420CD0B9F1000F14BF152104210191E9
S315080129C02B460299009152462146FFF781FD07B031
S315080129D0BDE8F08F10B58AB00446FFF7AEFE9DF844
S315080129E02400844205D105A8F5F708FF01200AB09D
S315080129F010BD9DF81000844208BF00A8F4D000203D
S31508012A00F5E710B50C46014611230622012007F009
S31508012A10B0FD2146BDE8104011230222012007F02E
S31508012A20A8BD80B5002100220846FFF71AFEBDE8B9
S31508012A30044000214FF6FF7007F0F5BE0022102171
S31508012A40FAF77FBA80B5FFF7BBFC40B100F008F88A
S31508012A50204807F06AFFBDE8014009F037B901BD12
S31508012A6019480068406910F0300F09D01C4A1278DD
S31508012A7030210AB1C00700D42021302007F0D3BE87
S31508012A80704711480068C17E01B9704780B5007B5F
S31508012A90C01E032816D30020FCF778F948B101793E
S31508012AA0302211420ED101F0CF0141F0100101711E
S31508012AB001BDFCF728FD28B1BDE80440002100202E
S31508012AC0FEF7A1BA01BD0000CC7B0020CC6C00202A
S31508012AD020700020007C0020E86C002030000100F6
S31508012AE0C3EC020880B5FDF71CFE0028FFF7ECFCD5
S31508012AF040690CBF8008000D00F0010002BD00000E
S31508012B003138323100000000DFF83C2C12681278A7
S31508012B1082420AD019B1012A03D1022805D0002020
S31508012B207047022A08BF0128F9D101207047DFF84A
S31508012B301C1C0875704710B5DFF80C4C2068407BE3
S31508012B40112804D0B6210FF21000F3F7C3FF21684C
S31508012B504120487310BD00006173736F6369617426
S31508012B60696F6E2E6300000080B50220F5F7A8FB99
S31508012B70F5F7AFFB00F026FC001F022805D2DFF8A7
S31508012B80CC0BC17C491DC17405E04FF47A71DFF89D
S31508012B90C00BF7F7AEFD00F05FBE10B5DFF8AC4B22
S31508012BA0002060742078FF2803D0F7F77BFAFF200E
S31508012BB0207010BD38B504460D46F7F7FFF9007CBD
S31508012BC000F00701400800F0380000EB410000F171
S31508012BD01102DFF8540C0068205CD2B282420ADA8C
S31508012BE0831ADBB20F2BA8BF0F23002000902146C2
S31508012BF02846F7F7F6FA31BDDFF84C0B0068407B3B
S31508012C0033281CBF4328532801D1012070470020CF
S31508012C1070471FB5F8F7FDF808B3DFF8304B207891
S31508012C2000A9FFF7C7FFDFF8281B002008700DF180
S31508012C300300617901F0C8F8FFF7AFFF00F010F85B
S31508012C4000F031FA007DC00702D509F040F808B94D
S31508012C5008F0EBFC09F03AF8012001F0E3F91FBD91
S31508012C6010B500F020FA017BC91E032906D2408857
S31508012C704FF6FF71884208BF032008D0FAF7DCF83F
S31508012C800446FAF7DDF8214607F079F80220FAF743
S31508012C90DFF802F0ADFABDE8104000F0E1BD38B545
S31508012CA0DFF8A84A2075FFF778FF00214FF6FF7075
S31508012CB001F083F9DFF8905A2868417B032918BF88
S31508012CC000291DD0332918BF432913D100F019F85B
S31508012CD02868017BC91E032906D203214173207D79
S31508012CE0BDE83240F5F747BB207DF5F744FBBDE863
S31508012CF03140B5E721214173BDE8314001F065BF97
S31508012D0031BD237D132296A10320F6F70ABF10B51C
S31508012D1000F054FB002048734FF6FE70FDF705FDE1
S31508012D204FF6FF70FDF709FDDFF8204AFFF7E9FFC7
S31508012D30207DBDE81040F5F71EBB10B504462346B5
S31508012D40182287A10320F6F7ECFEDFF8380B0021DD
S31508012D50017114B1FF2C02D10121017007E0012193
S31508012D6000F8041BA100491C0902F7F7C2FC00F090
S31508012D7077FD002010BDDFF80C1B00200871DCE789
S31508012D8030B50D4689B0044668690FF27C11079083
S31508012D902346287C06901622E8890590287B04900C
S31508012DA0E87A039095F90A0002902889019000951E
S31508012DB000F076F9287B00280CBF4FF6FE70FDF768
S31508012DC0B0FC2B46224609B0BDE830400146012039
S31508012DD02DE9F041DFF8706980463068407B0028AC
S31508012DE00F4614461D464BD1002C49D0062C47DA0E
S31508012DF0DFF88C0A00780A2842D1F5F76CFA002820
S31508012E003ED1F5F76AFA08B1042C39DB287B032889
S31508012E1016D14FF6FE70874214D1012C08BF002740
S31508012E2010D0022C2CD1FDF77CFC4FF6FC718842A0
S31508012E3002DAFDF776FC01E001F062FC074601E0E3
S31508012E40012C1DD0B8F1000F0CD0287B03280CBF2C
S31508012E5001210021012C0CBF01200020FFF7CBF82E
S31508012E6000284ED12946384600F06AFF002848D185
S31508012E70F5F72BFAF5F70EFA20B1F5F72EFA08B1A0
S31508012E8070203EE03068DFF8C478407B33281EBFE7
S31508012E90532800207875204600F035FF387E20B18A
S31508012EA0F5F71BFA08B9F9F7A5FE287B032803D11C
S31508012EB02846BDE8F0412DE00822294607F1080019
S31508012EC0F3F706FF287B0328A8BF00203874FFF70D
S31508012ED064FE94203875387C316800280CBF0120BF
S31508012EE031204873002031687A7EB8740120897BC5
S31508012EF000FA01F10320FBF7F7FB10B13268002154
S31508012F005173BDE8F081000042423870574242428F
S31508012F105742440010B5044600220821FAF711F871
S31508012F2008B1012010BDFDF7FCFB00224FF6FF7129
S31508012F3000F02EFF217C204600F046FF6269E189F8
S31508012F40207C02F088F9DFF800080068007B012878
S31508012F5008BFFFF777FDFFF783FE002010BD0000CD
S31508012F604242000038B5DFF8E04705462068407B55
S31508012F70002802BFDFF8080900780A2801D0702066
S31508012F8032BDFAF767F8002843D12DB10222294646
S31508012F90DFF8280BF3F79CFE00A800F0DAFF08B16A
S31508012FA0932032BD9DF8003014221BA10320F6F7A9
S31508012FB0B8FD00F051FF68BB9DF8000000F0A3FEC4
S31508012FC02068007B012818BF022806D0C01E0328E6
S31508012FD00FD2002000F0FDFF58B100F054FF206821
S31508012FE0007BC01E032838BF02F048FDFFF738FEF4
S31508012FF00FE02168132048730020DFF85017887402
S3150801300005222168897B012000FA01F10520FBF7D9
S315080130106BFB002032BD000042420000FF222DE971
S31508013020FC41044600F03FF80D46017B0129904614
S3150801303025D0407B022818BF032820D1F9F7C7FFFE
S31508013040DFF808777A7E29460320FBF74DFB060051
S3150801305016D13320F9F7FCFEFFF79FFDFDF769FB53
S31508013060F880002C14BF02200120387407F10800EB
S3150801307000F08DFF0020B87487F8158000E07026EF
S315080130800196009523462C220FF20C0100F008F850
S315080130903046BDE8F6810000424244420000000085
S315080130A00320F6F73EBDDFF8A0060068704738B57D
S315080130B00446F6F783FF05462046F6F77EFE4419D1
S315080130C02046F7F71DFE4FF6FF5101402046BDE8A1
S315080130D03440F7F71CBE70B584B0FDF722FBDFF864
S315080130E06C46064620780B21F6F746FE002100F0CD
S315080130F064FFDFF85456F9F73CFF58B11EB14FF695
S31508013100F870864206DB01F0FBFA06462868408815
S315080131108642F8D03046FDF708FB20780921F6F7F4
S315080131202BFEFDF70AFB2E68307B052813D100F02C
S3150801313039FF8DF8080002AB207C00280CBF4FF43C
S31508013140804244F20102012000904FF480617088A8
S31508013150FEF720FB0FE006208DF8080000F022FF9D
S315080131608DF80900022300200190009002AA7088B8
S315080131700121FDF78AFC0646FF2E08BF002011D063
S31508013180286841883046F6F754FE207C02281CBF81
S315080131903046FFF78CFF00F044F804463046F6F750
S315080131A081FF204604B070BD70B586B00C46164640
S315080131B01D4638B92046F4F7BBFF02AA03A9F9F759
S315080131C03CFC03A807218DF808100190310A8DF8F7
S315080131D00A1001200A998DF80B1000908DF80960E4
S315080131E0042300F0BBFA0646FF2E18D02146F6F74F
S315080131F020FE15B93046FFF75AFF0B9808B9304635
S315080132000DE02046F9F745FC18B13046F4F7D0FC35
S3150801321001E000F006F83046F6F744FFFF2006B055
S3150801322070BD0022002311463046FBF7DFBF2DE9AA
S31508013230F64F83B004461E4600274FF6FF7556B172
S315080132404FF0010B3046FDF75EFC81467078400869
S3150801325000F0010A05E0BB461046F6F751FE814625
S31508013260BA4600F0AFF8C01E0328C0F0A2800E9837
S31508013270411C9DF81000C9B2F7F7AAF8804608F074
S31508013280020002909DF80C0020B95FEA086058BF59
S3150801329048F08008FFF707FF407B022804D1DFF8D2
S315080132A0E4050078204301D102271EE04846FDF7D0
S315080132B0EDF99DF80C1019B1651EAD41ED0F00E051
S315080132C00025BBF1000F1CBF301DF7F719FD0121C1
S315080132D000912B46014642464846F9F70CFB05463E
S315080132E04FF6FF70854208BF0127D6B11CB94FF6C4
S315080132F0FF70854204D1301DF7F702FD014600E053
S31508013300294601200190009753462A464846FFF769
S315080133104BFF029850B94FF6FF714846FCF718FA69
S3150801332004E03A4629464846FBF76CF9002F40D196
S315080133300298E8B149462846FCF72DFA0E2101FB09
S3150801334000F700F03BF8896A79184A7942F0400299
S315080133504A71FCF753FAFFF7A6FE806A38185FEA46
S31508013360486241794CBF41F0800101F07F0141710A
S31508013370FEB1DFF8A86C9DF810003070FDF7D1F9A1
S315080133805FEA48610FF22C0C48BF0CF1010CBAF147
S31508013390000F18BF0CF1020C02D10CB90CF1040C88
S315080133A001469CF800004B462A4608F027FAFF20FA
S315080133B03070B0E00307000401050000DFF8881348
S315080133C009687047DFF880030068007B70472DE9BC
S315080133D0F04F0446884685B091464046F6F7F7FC15
S315080133E0DA4D297C824601B10121D74E8DF80410A8
S315080133F03068007B05280CBF012700273CB15046E1
S31508013400FDF781FB83465046FDF770FB05E0404614
S31508013410F6F776FD8346DFF8080C039004230020AF
S3150801342000904A46414602A8F6F7DBFE0DF109006F
S31508013430F7F766FC9DF80B908046CCB10398DFF848
S31508013440E01B0822F3F78EFC002862D100F08BF905
S3150801345008BFB9F1000F0BD14046FDF766F908F030
S31508013460E4F89923FFF74EFC9920F4F784FF50E01E
S31508013470F9F77FFD00284CD09DF80400384301D0A8
S3150801348014B946E0002C44D1B9F1000F03D09420B9
S31508013490FFF705FC3DE0306840885946FCF77BF9A3
S315080134A0FCF7ACF9306841885A46404600F070FC92
S315080134B03068417B012916BF312911214321417306
S315080134C00220F4F7FCFEA24F40F6B8313846F7F76A
S315080134D010F902F0D3FA0020E8743068C17E19B9F0
S315080134E03846F7F7FBF811E034B19AF80110890765
S315080134F002D5FFF78EFB09E0007B001F022805D2E3
S3150801350005213846F7F7F5F80620E874AD20FFF7E8
S315080135100EFBF4F794FE05B0BDE8F08F2DE9FE4FDA
S315080135208046F6F754FC0446F6F796FC05462F192D
S315080135304046F6F742FC2844C5B24046F6F7E0FC99
S31508013540834638780090F9F739FD00281CBF0098A2
S31508013550072816D10098DFF8F4A17B4EEC1C012848
S315080135604FF6FF790ED0022814D0042800F0BE8049
S31508013570062815D0072863D0082821D07C2800F012
S315080135807F80DEE000210095002342460846FFF7CA
S315080135904EFED6E02A4641460020FFF718FFD0E046
S315080135A05846F9F72CFA484503D001465846FAF722
S315080135B0DAFF00F0D8F802D15846F6F7C8FAC0E0A3
S315080135C0691C00F0C7F80746E1B200F0C4F80446E2
S315080135D0A91D00F0BFF805464D45F0D002F04EFA98
S315080135E03068407B132808D100F04DFC4046F6F7B9
S315080135F087FC01462046FCF7CEF800F0B4F818BF60
S3150801360013281CD12846FDF790F83846FDF795F89A
S315080136100021002000F0D8FB5946204600F0CDFCD9
S315080136209AF80300DFF85C1A087000F019F9306897
S31508013630417B132903D123214173FBF7E2F880E08B
S3150801364000F091F802BFDFF8404A2078002878D1C7
S31508013650F5F744F905469AF9191001208840C0EB97
S31508013660001B1FFA8BF60020F4F729FE95FBF6F0EE
S3150801367006FB1050411C89B22046F7F73AF860E07C
S315080136807878652804BFB8786D285AD166480068E5
S3150801369018F80000E4B2844253D20822594601A818
S315080136A0F3F716FB00AB002221464046FDF7D8F892
S315080136B0002846D19DF80000FF2842D0DFF8CC4902
S315080136C0DFF858590120207085F80080F4F7FCFDD1
S315080136D001A89DF80010F6F72FFAF4F7FBFDFF2075
S315080136E02870002020709DF8000028E04046F6F773
S315080136F024FC0446DFF898090078FE2809DB4046D1
S31508013700F6F76FFB000B00F001012046F6F719FAF0
S3150801371017E00FF6D0100088ADF808000223002044
S315080137200190009000F01AF80546FF2D09D02146B0
S31508013730F6F77FFB00212846F7F7D6F82846F6F76D
S31508013740B1FCBDE8F78F0000CC7B0020F06F0020AC
S31508013750EC7B0020C9B24046F6F7E1BE02AA012178
S315080137602046FDF792B93068407B0228704770B54C
S315080137700220F4F7A5FDF4F7ACFDDFF81859DFF8D8
S31508013780186900202870F7F744FB28B13068C07E15
S3150801379010B9FFF73EFA3EE0DFF80049F7F739FBC3
S315080137A010B9F9F7E6FB58B1E07C48B1C8212846BB
S315080137B0F6F79FFFE07C401EE074F7F7CAF82AE0A7
S315080137C03068407B132809D0F9F7D3FB30B9306844
S315080137D0407B11281CBF4328412803D1207DFFF7D0
S315080137E05EFA18E0022818BF032803D0002818BF7C
S315080137F0212810D10024DFF8A85808E02046F4F75C
S3150801380068FD002000F00EFCF4F764FD641C2878BE
S31508013810E4B28442F2D3BDE87040F4F75BBDDFF849
S315080138207C180020C8747047CC6C002080B5002035
S31508013830F4F746FDF4F74DFDDFF84C180020087043
S31508013840DFF854080068417B022905D1007BC01EB8
S31508013850032828BFFAF7F5FEBDE80140F4F73ABD9B
S3150801386080B5F4F745FDFF2804D00648007810B165
S31508013870012000E00020DFF82C18087001BD0000C7
S315080138802F700020E07B00202DE9F04F0446DFF879
S31508013890180800688DB0205C00902046F6F78EFB6C
S315080138A00646B01DF7F72CFA074606F10900F7F7A1
S315080138B027FA814606F10B00F7F722FAADF80A0056
S315080138C006F10D00F7F71CFA8346C00B8DF80800C0
S315080138D0F9F774FB18B12046F9F7A0FBEAE008A945
S315080138E02046FFF767F908AEDFF8AC57B078C0F3A2
S315080138F0C3000390707800F00F0A00982028286802
S31508013900407BACBF9DF82E804FF00008022812D1EB
S31508013910FCF70FFF81450ED104A800F038FB00988B
S315080139201C2806DB08220DF1230104A8F3F71AFA6D
S3150801393008B101F0C4FDB7F5004F02BF2BF44040B2
S3150801394040F6FF718842C9D100981C28C6DB0022BF
S3150801395008210DF12300F9F7F4FA002839D1DFF827
S315080139604C070078012830D19DF808000FF26C71D8
S315080139700090CDF804A04B462722FFF791FBDFF80C
S31508013980300700788DF81200ADF810908DF81CA05C
S315080139908DF81D8008229DF808008DF813000DF199
S315080139A0230105A8F3F794F92868DFF87076407BB8
S315080139B001281CBF33283C70F4F786FC04A8F9F7E4
S315080139C095FDFF203870F4F785FCDFF8D076B87CD2
S315080139D000286FD1F9F7CDFA00286BD00120787449
S315080139E00022082107F10800F9F7ABFA10B1F888A7
S315080139F0814508D008220DF1230107F10800F3F7E4
S31508013A00B1F9002856D19DF8080028B92868407BE5
S31508013A10312818BF33284DD101215046FFF774F8D4
S31508013A20002847D09DF82000002802BF70780009B9
S31508013A3002283FD12868017BB278022902D15007B2
S31508013A4009D437E0120606D405291EBF4088BDF8F9
S31508013A500A1088422ED13878DFF85856DFF85866AA
S31508013A60FF2813D0787980450BD197F9020096F98A
S31508013A70001088420ADB1DD178782978884205D357
S31508013A8018E0A8EB0000C0B2812813DAFFF785F821
S31508013A903C702046F6F7F8FA287878703078B870CE
S31508013AA003980F28B4BF401C0F20F87087F804A0AC
S31508013AB087F805800DB0BDE8F08F0000F47B002083
S31508013AC02DE9FF410546DFF8D44501200E46174684
S31508013AD0A07400F00BFC002813D1A846B8F1010F19
S31508013AE018BF002D0ED1009733462622B5A1FFF740
S31508013AF0D7FAF4F7E9FB39463046F9F70CFDF4F73E
S31508013B00E9FBA4E0F9F75AFA28B13A4631462846BC
S31508013B10F9F783FA9BE0DFF880552868407B23286C
S31508013B200BD1F9F789F90446F9F78AF9214606F01E
S31508013B3026F90220F9F78CF989E0002FFCD1212812
S31508013B401CBF0428532802D101F03FF87FE0F9F79A
S31508013B5010FA00285BD02678FF2E05D1607C002854
S31508013B600CBFAB20942066E02868007BC01E0328A2
S31508013B7089412079C90FFEF7C7FF08B998205AE08D
S31508013B80F1F79EFD05213046F6F711F92968887384
S31508013B90F4F755FB207C68BB2868007B052829D0EB
S31508013BA000F000FA074609213046F6F7E5F880469F
S31508013BB00B213046F6F7E0F83A464146FAF707FD93
S31508013BC0E0B99420FEF7B3FF0220F4F778FB2968E1
S31508013BD0DFF8C0044A7B012A07D0312A18BF332AE5
S31508013BE00ED1097B091F02290AD2C821F6F781FDE0
S31508013BF003200AE0FFF76FFA0028E2D194201AE0C1
S31508013C004FF41671F6F775FD0020E0741FE0286879
S31508013C10407B132815D100F017F9BDF80000FCF711
S31508013C208CFD00F030F92868017BC91E032905D2ED
S31508013C30332141739620FFF732F808E0FFF710F8B1
S31508013C4005E0B8F1020F04BF304607F0E2F94FF478
S31508013C500060F8F7BDFD10B9FBF719FB08B1F8F7D5
S31508013C6019FBBDE8FF811FB5044600208DF8000049
S31508013C70FFF719FA007840F020008DF80100F9F7EE
S31508013C809DF918B12046F9F7D3F93AE00DF1030089
S31508013C9000F07DF90322FF210DF10B00F3F75BF824
S31508013CA001F0C3FA8DF80E00DFF81014DFF8E0030F
S31508013CB0DFF80C240078DFF80C34097812781B78C1
S31508013CC0FE28A8BF0020091A9B1A9042B4BF101AF1
S31508013CD00020DFF8B0231278DBB2C0B2D200C018D8
S31508013CE0C9B242F004028842B8BF42F080028DF898
S31508013CF0022000A90F222046F6F7DDFA401E804170
S31508013D00C00F04B010BD38B5DFF88C5304462868D7
S31508013D10017BA14203D004732046F4F729FB24B1A1
S31508013D202868007B001F022805D2F4F79AFAFF28B3
S31508013D3008BF012000D00020BDE83240F1F70ABDD6
S31508013D4038B50D460446E87A0B38102801D38A207F
S31508013D5032BD95F90A00F9F718F908B18B2032BD79
S31508013D60CD48E97A026891730068A97AC173204639
S31508013D70FCF7DBFC4FF6FE7084420CBF4FF6FF7072
S31508013D802889FCF7DAFC2889C449C880002032BD95
S31508013D9038B50C461546FCF7C8FC00F085FC2946E3
S31508013DA0204600F00AF9BD480178FF2918BFC078F6
S31508013DB005D1FFF707FB01280CBF00200120B149F7
S31508013DC0087031BD424242007FB504460D4600F0F7
S31508013DD03BF8B14E94B1BC4A0021284601F03BFAA2
S31508013DE0306801788DF804100822007B8DF80500EB
S31508013DF0214602A8F2F76CFF06F018FD3068817BB0
S31508013E008DF80310C07B8DF80200FCF792FCADF823
S31508013E100000FCF786FCADF8060000F017F87FBD38
S31508013E201FB5044600F010F81CB100208DF80500F6
S31508013E3007E0FCF776FCADF80600FCF77AFCADF86E
S31508013E40000000F003F81FBD00A833E01023072285
S31508013E5000A9002006F08DBB00B58BB0FFF7F4FF73
S31508013E60BDF80000ADF8180004A99DF803008DF807
S31508013E701B009DF802008DF81A00BDF80600FFF731
S31508013E805FFF0BB000BD1FB5012000F0A2F8044684
S31508013E9006F0D7FCFFF7D8FF1CB900224FF6FF71D1
S31508013EA003E0FFF700F94188021DBDF80600FFF798
S31508013EB06FFF1FBD014610230722012006F059BBDB
S31508013EC038B50820F4F7FCF90446F4F702FA724DFE
S31508013ED07E48296800788873F4F7F9F9A04208BF83
S31508013EE0F4F783F900210020FFF76EFF9B23FEF705
S31508013EF009FF9B20F4F73FFA28680021A0F844102F
S31508013F00A0F84610BDE83140F4F7E4B980B5A0F150
S31508013F100B01102901D38A2002BDFFF74FFA497B0D
S31508013F20022918BF032901D0702002BD674908700C
S31508013F300820F4F7C4F900216548F6F75FFD20B1BA
S31508013F40012808BFFFF7BCFF01E0A12002BD002040
S31508013F5002BD1FB50446F9F731F818B12046F9F73D
S31508013F6055F812E000A8FFF7A5FF9DF8050040B136
S31508013F70062806DAFFF722FA9DF804200978914205
S31508013F8001D0932001E02070002004B010BD1FB5B8
S31508013F90044600A8FFF78EFF082202A92046F2F779
S31508013FA097FE1FBD4B48007800B140203A4A4A495E
S31508013FB01268127B515C08437047374A1368588068
S31508013FC019B90822181DF2F7C6BE0822181DF2F7FC
S31508013FD07FBE10B504462F48007AC00784B011D5B4
S31508013FE00A230A2200A9012006F0C3FABDF808002F
S31508013FF04FF6FF71884205D00822FF2100A8F8F77D
S31508014000A0FF08B1002006E024B1BDF8080000A908
S31508014010FFF7D3FF012004B010BD00002070002077
S31508014020007C002070B51B4D0446287AC00784B071
S315080140300CD5194E306841884FF6FF72914207D167
S3150801404000220821001DF8F77CFF08B1002017E0BF
S3150801405044B10220F4F733F94FF4F0412846F6F754
S3150801406048FB0CE030684188ADF808100822011DAC
S3150801407000A8F2F72DFE0A230A22FFF7E9FE01201E
S3150801408004B070BDE47F0020F87B0020D47B0020BB
S31508014090AA7F0020EC7B0020CC7B0020F06F00205B
S315080140A0106D0020E67F0020CC6C00202F700020C8
S315080140B0D37F0020D17F0020D27F0020476D0020CA
S315080140C07F7F00207E7F002000F8FF07C37F002046
S315080140D0C13E0108C3EC020830CE000842574242ED
S315080140E0000000000460000010B50446FBF701FA61
S315080140F0FF280AD12046F4F71BF8FF2805D0734993
S31508014100096891F82C104018C0B210BD6F480068B4
S31508014110017B90F82C20006BC91E032932BF0021B0
S315080141206B49097889188A0092B20021F2F713BE01
S3150801413010B50C466549096801F1280282B0137960
S31508014140984211D2896A0E2303FB0010811D0822A9
S315080141502046F2F7BDFD002208212046F8F7F1FEB8
S31508014160401E8041C00F16BDC01A00AA2146C0B222
S31508014170F8F763FC0028EED0002016BD80B5534A37
S315080141801268126B52F82020914201D3012002BD18
S3150801419001461520F4F7F1F8002002BD4B4A1268D2
S315080141A0126B491C42F8201070472DE9F041474D22
S315080141B006462868876A8846002401E0641C0E378B
S315080141C0286890F82D00E4B2844232D20822B91D3B
S315080141D03046F2F7C7FDD0B94FF6FF7080451CBFD0
S315080141E03888804509D031464046FBF7D4FA04465B
S315080141F02868806A0E2101FB04073648007820B139
S315080142007879800658BFFF202DD520462BE03888BF
S315080142108045D3D100220821B81DF8F792FE00285F
S31508014220CCD12046FBF705FA404600F00CFBFE20F0
S3150801423019E031460020F8F710FBFF2804460CD098
S31508014240244A2968127852B10A7DD20707D5224A2B
S31508014250126832F81000800401D4FF2002E091F8B8
S315080142602C002018C0B2BDE8F08180B5FBF794FB9D
S3150801427016480068007B012812BF0228BDE80140E4
S31508014280F8F7AABB01BD1149096801F1280212799B
S3150801429090420CD310490968801AC0B231F810202F
S315080142A0D30410D442F4805221F8102009E0896A17
S315080142B00E2202FB00104179CA0604D441F010010E
S315080142C0417101207047002070470000CC7B002017
S315080142D0E46C0020E37F0020E86C00207047B520DD
S315080142E07047401CC0B270470120704700207047D4
S315080142F070470020704700207047002070477047BC
S315080143000020704701207047012070477047000060
S31508014310C348007800B101207047F8B50546F5F79E
S3150801432056FD0646F5F798FD845D2846F5F745FDE1
S3150801433007463046F5F790FDBA490968695CC91B15
S31508014340091AFF227C2C08BF032204D0092C3CBF82
S315080143500FF2D420225CC9B291428041C043C00FFA
S31508014360F2BD70B50446FCF7E2FA05462046F5F7B4
S315080143702EFD4078400713D5A91C00F0D3F848B1A3
S31508014380294600F0C9F800F0C4F82EB1B04203DBA3
S31508014390FF2801D0002070BD05EB4600851CADB293
S315080143A029462046BDE87040FCF7D9BAF8B5044657
S315080143B0FCF78AFB05462046F5F709FD0746A91CC1
S315080143C000F0B0F800283DD0294600F0A5F800F025
S315080143D0A0F80B2E36D20FF25C21715C4D19ADB2E5
S315080143E005F10801012E89B20AD0022E0CD0052E3C
S315080143F011D0082E15D0092E18BF0A2E16D020E086
S3150801440080061ED50D461CE0C20648BF0D4680062D
S3150801441017D5083514E07978C90613D505EB400593
S315080144200EE000F01F0000EB400008E010F0E0018C
S3150801443008D1092E06BF00F01F00400002204519C9
S31508014440ADB236E00020F2BDF8B50446FCF73CFBF8
S315080144500546691C00F066F848B3294600F05CF881
S31508014460064606F0030706F00C00032F18BF0428BA
S315080144701DD0022F00D1D0B93046FCF755FB45199E
S315080144803006ADB212D5691C00F04CF880B1E9B21C
S3150801449000F042F80146012F1CBF01F00300032872
S315080144A005D03046FCF74EFB4519ADB201E00020B8
S315080144B0F2BD29462046BDE8F440FCF750BAF8B5E6
S315080144C00446FCF784FB0546A91C00F02BF8F0B15D
S315080144D0294600F021F806460F2E18D20FF2601071
S315080144E0305C4719691CFFB200F015F8052E06D194
S315080144F006280CD20FF25811405CC71904E0082EA1
S3150801450008BF022801D10837FFB23946D2E7002091
S31508014510F2BD0646691CC9B22046F5F759BF9DF892
S315080145200000291889B22046FCF719BA10B582B0DD
S31508014530044600AA0621F8F765FD9DF80000411C0E
S31508014540FFF7F0FFD0B19DF80010FFF7E5FF9DF8E2
S315080145500010491DC9B24A1C00F00303012BD2B24F
S3150801456008D0032B02D1C91CC9B204E000F003002C
S31508014570022800D111462046FCF7F1F916BD70B59F
S3150801458082B0044600AA0A21F8F73CFDC6B20A2EF3
S3150801459023D20FF2C400355CFFF7C1FFE8B1052E3F
S315080145A019DA0FF2C0019DF80000711811F8011C03
S315080145B00918FFF7B0FF0646FFF7B1FF0021F2071A
S315080145C048BF0F21C6F341025118C6F3021251180A
S315080145D0C9B2081801D0012076BD002076BD38B5CC
S315080145E00F4A0FF28403127804460020002A02D1EA
S315080145F0012032BD401CC0B2024613F8325045B103
S31508014600AC42F7D1084603EBC2014968884708B1AD
S3150801461032BD002421461E20F3F7AFFE002032BD2D
S315080146206E700020CC6C0020FF0204FF010101011D
S3150801463008000000FF06080402020204020A0B0031
S31508014640FF21212121000C090202232316161C0031
S3150801465022231B1B22230000FF0D0E0F11015206F8
S31508014660060000000B0C0D10010000001B43010899
S31508014670020000006343010803000000AD4301087E
S31508014680040000004944010805000000BF44010870
S31508014690060000002D450108070000007F450108B6
S315080146A0000000000000000010B5B64800210170A6
S315080146B009E0B54A126812F81120920702D5027864
S315080146C0521C0270491CC9B2B04A12789142F0D301
S315080146D000F0B5F8012818BF022804D100214FF6C9
S315080146E0FF70FFF76AFCAA49AA4C002008702078D7
S315080146F0FF2803D0F5F7D6FCFF202070012010BD56
S315080147001CB5F4F7EBF80400FBD04FF6F7708442BA
S31508014710F7DAFCF706F88442F3D02046FAF7F3FEF7
S315080147200028EED100A9204601F03FF80028E8D17B
S315080147302046FAF7B4FB0028E3D12046FAF771FCC4
S315080147400028DED100F079F80028DAD1204616BD16
S3150801475038B5044600F073F8022821D1FBF7E1FFCA
S315080147600546FBF7DEFF00F09EF8FFF7C9FFFBF7EA
S31508014770DCFF0020FFF754FB9923132280A10320B5
S31508014780F5F7CFF99920F3F7F6FD2CB10D22294655
S315080147904FF6FD7000F004F9BDE8314006F045BF5B
S315080147A031BDF0B583B004460D461646FBF7B9FF91
S315080147B084420CBF01270027002D3CD04FF6FC7020
S315080147C0844238DA00F039F8002818BF002F04D0DF
S315080147D000F035F8C01E03282DD300F02EF8F8B9DD
S315080147E04FB108226C492846F2F7BCFAD0B101202C
S315080147F0FFF7AEFF14E0ACB100A92046FBF760FF56
S3150801480080B90022082100A8F8F79BFB50B90822B5
S3150801481000A92846F2F7A6FA20B1204600F013F8B7
S315080148200120FEBD3EB121462846FAF7FBFF214687
S31508014830284600F05BFF0020FEBD204673E057487E
S315080148400068007B704710B5044600F06CF860B943
S31508014850204600F028F80D2221464FF6FD7000F09B
S315080148609FF82046BDE8104000E010BD1CB504467F
S31508014870F3F75EFCFF2815D04349096831F8102083
S31508014880530704D542F4806221F8102013BDFFF7BF
S3150801489037FF02460120019001230020009021469E
S315080148A0FEF782FC13BD70B504464FF6FC708442D0
S315080148B038DA002C36D0FFF7C0FF98BBFFF7BFFFE9
S315080148C0001F02282ED32046FAF713FEFF2818BF29
S315080148D0FAF7AFFE2046FAF759FA08B1FAF718F9C6
S315080148E0204600F0E6FEF3F7EFFC2046F5F731F92E
S315080148F0F3F7F0FC264E274D307820B9F5F734FC4E
S31508014900FF2828700ED02878F5F758FB05461E2291
S315080149102946A81CF2F7DCF92C8030781F28BCBF81
S31508014920801C307070BD70B5044619480078A0B176
S31508014930401C0004460C174800780025F6B2F5F726
S315080149403DFB00E06D1CEDB22946B14205DA30F8AF
S315080149501110A142F6D1012070BD002070BD0C488E
S31508014960017801B9704710B5491E0170C9B229B954
S31508014970084C2078F5F796FBFF20207010BD000043
S31508014980424200007E7F0020E86C0020476D00202F
S31508014990E57F002060700020007C0020CC7B002091
S315080149A070B504460D461646FBF7BBFE844205D193
S315080149B031462846BDE87040FF226AE02A4621466C
S315080149C0304600F00BF80446FF2C06D0F6F72EFA0F
S315080149D02046BDE87040F5F765BB70BDE0B50346F6
S315080149E0084603218DF808108DF80A2002A9120A33
S315080149F04B70CA700021019104230121009102AA7A
S31508014A000021FCF742F80EBDF8B504460D46F5F748
S31508014A10DEF90646691CC9B22046F5F7D9FC0746F0
S31508014A20A91CC9B22046F5F77AFD0D2F05462CD1EA
