S01D0000486143617053656E736544696D6D65725377697463682E7333374C
S3150800400038EE002091360208F1120208F51202086D
S31508004010A70A080100410008040E03AC50545604D0
S315080040200000000000000000000000000000000082
S315080040300000000000000000000000000000000072
S315080040400000000000000000FFFFFFFFFFFFFFFF6A
S31508004050FFFFFFFF00080408050000000028040809
S31508004060FFFFFFFFFFFFFFFFFFFFFFFFFFFFFFFF52
S31508004070FFFFFFFFFFFFFFFFFFFFFFFFFFFFFFFF42
S31508004080F0FF002000000000EFFF0020EFFF0020F7
S3150800409038EE002060B1020898390208D8E40020FA
S311080040A0540D0020002804080000012030
S3150800410038EE002091360208F1120208F51202086C
S31508004110FD120208F91202080113020874140208B3
S315080041207414020874140208741402087414020839
S31508004130051302087414020874140208F55D0008D1
S31508004140810F020874140208FF8B00087414020811
S31508004150CBDC0008741402087414020874140208EC
S31508004160837F0008455300084D4E0008914100081A
S3150800417009C3010874140208758A00085DFC010861
S31508004180E9D40008741402087414020875140208A5
S3150800419070B52C482C4942780B685B0725D5032A4D
S315080041A023DA838800EB4204A3810123847803FA87
S315080041B002F222438270254C0278002A12D000258A
S315080041C022FA05F6F60708D5AB4045705A40027044
S315080041D010EB4500808A206007E06D1CEDB2032DC8
S315080041E0EEDB02E02260032242704FF6FF700860A1
S315080041F0BFF35F8F70BD13480021017000220321B1
S3150800420041700021C1700521018100218170001DC6
S315080042100E490A604A604FF400428A601022CA605A
S315080042204861012088610320C860042106480164AA
S315080042304FF6FF7101604FF400600549086000F011
S3150800424045B80000C8F1002010A8004004E000406E
S3150800425000E100E0DFF8143533F810001040C840DC
S31508004260704730B50FF2C854DFF8043534F81040FB
S315080042709C601140DFF8F44434F810509543294304
S31508004280D96002221A6000221A6024F810105868B1
S315080042900028FCD130BDDFF8DC24DFF8DC04127816
S315080042A0DFF8D8140AB149780EE0895611F1090FDA
S315080042B0B8BF302108DBC16D39B1C26D40F24A3151
S315080042C0B1FBF2F189B2C91E01607047E0B5DFF8AB
S315080042D0B00401880A2300F064F8BDF806104FF60A
S315080042E0FF720D20FFF7BDFF07BDF8B50546B5F50A
S315080042F0004FDFF8884419D1DFF8880401880223C3
S3150800430000F04FF8BDF80000000AFF2814BF002887
S3150800431018206070BDF800000006C00E10281CBFEB
S31508004320001D00F0B3F9BDF80000C543DFF844648A
S31508004330707808B1002005E0A089ADB26840C007D2
S3150800434001D501207070DFF84004A58105F001044D
S31508004350016841F400410160C5F340070FF2F440DB
S3150800436000EB44004FF440524078010389B2022022
S31508004370FFF777FF204600F06FFA4022B90100F0F8
S3150800438021FA2D06A80E00F0010038433070FFF719
S3150800439082FF707818B1FFF799FF0020707000202F
S315080043A0F2BD7F2200A800F0CDBAA0F10B02A0F161
S315080043B00B01102A89B201D38A207047012202FA1A
S315080043C001F1DFF8C82353880B4353800123137088
S315080043D09388194391800021DFF8B423117046E1D0
S315080043E02DE9F04FDFF8AC43207887B0042304901A
S315080043F00B210B38C0B2039000A8039A00F060FBAB
S315080044009DF800008DF80A009DF801008DF8090056
S315080044109DF802008DF808009DF803008DF8050048
S31508004420DFF874030078012804D16078451EAD4191
S31508004430ED0F00E0012500F0D4FD83469DF902004A
S315080044400399D24F0BF10A0AABF10A065045B6BFDB
S3150800445086424FF001084FF0000801208840ADF869
S3150800446006009DF80100000604D47888BDF80610F9
S31508004470084201D04FF0010800F024FE9DF8030021
S3150800448000060AD4B888BDF80610084205D19DF979
S3150800449000005045B8BF864202DB4FF0010901E033
S315080044A04FF0000948EA050059EA000000F09E802E
S315080044B0DFF8E8A2BA49DAF8000000F002008DF841
S315080044C00400B848006800F4E06005904FF4E06026
S315080044D00860002001F00CFA01F011FDB24EADB1F2
S315080044E0607858B1DAF80000AB4940084000CAF8CD
S315080044F000000120087001F0E7FD07E0306840F48D
S3150800450000503060306820F480503060A24800784F
S3150800451001280DD101F024FFDAF800009E4940F089
S315080045200100CAF8000000200870642001F0CCFDE4
S315080045302DB1607818B90498C0B201F0D4FF60783C
S3150800454038B1306820F480503060306840F400504C
S315080045503060BDF80600C543B8F1000F08D002F078
S31508004560ADF88DF801008DF802B07888284078807B
S31508004570B9F1000F08D002F052F98DF803008DF852
S3150800458000B0B8882840B8809DF900009DF90A1047
S31508004590884202BF9DF801009DF8091088420BD198
S315080045A09DF902009DF90810884202BF9DF8030094
S315080045B09DF80510884206D00399042300AAC9B2BB
S315080045C00B2000F0A3FA05987649086000F0D6FAA1
S315080045D09DF8040001F08CF902F041FA607828B1E0
S315080045E048F260703060642001F06EFD9DF80100AD
S315080045F001F0D0FF9DF8030002F00CF907B0BDE802
S31508004600F08F80B500F0E0FCBDE80140E8E600F078
S31508004610DBBC70B50646A6F10B0401F081F8054629
S31508004620A6F10B00102801D38A2070BD5F48816867
S31508004630090702D40068C00701D58C2070BD55480B
S3150800464006705B4801680C290FD00FF27C11594A95
S3150800465092F90020A4B231F824105118C161FFF76D
S31508004660BFFE012D08BF00F0FCFF002070BD10B58D
S31508004670044600F0A9FC2046BDE81040C9E74548B5
S31508004680007870473D4890F9000070472DE9F041E1
S31508004690044614F12B0F86B045DB474801881423DE
S315080046A0FFF77FFEBDF810004FF6FF71884203D072
S315080046B0400448BF012606D43F2200211020FFF7F8
S315080046C0C9FD0546002604F12B022F2A2B483B4933
S315080046D01AD213220FF2301300E0521ED2B213F987
S315080046E01270BC42F9DB03EB4204032764780C60C2
S315080046F0002413F81210017000208046AEB1BDF8F0
S3150800470010104FF6BF7229E0092C0CDA225C0A60F9
S31508004710047014232A480188FFF743FE0124032066
S31508004720A0462827EAE78B201DE0C1024FF4605215
S3150800473000F048F84FF4E062210200F043F88022C6
S315080047404FEAC81100F03EF885F020003D18ADB2DA
S31508004750402DA8BF3F253F2285F0200100F032F802
S31508004760FFF799FD002006B0BDE8F081A4FB002004
S31508004770E8100040C0FF00206410004034F100201B
S3150800478082AD020890AD02081C10004082FF00208E
S31508004790DDFF00202FF10020A2F10020802000403C
S315080047A080E100E000E100E0D01000406020004019
S315080047B0AC100040BFFF00207EAD0208C0100040CC
S315080047C080AD02080B204CE5AA21290055232900B3
S315080047D000252800AA26270055282700002A260093
S315080047E0AA2B2600552D2500002F2400AA302400C8
S315080047F05532230000342200AA35220055372100FD
S3150800480000392000AA3A2000D500E601EC02EF03A1
S31508004810F204F405F506F707F808F909FA0AFB0B96
S31508004820FC0DFD0FFE11FF1300160119021C031FD4
S3150800483010001100200030004000410050006000C8
S31508004840700080009000A000B000C000D000E0001A
S31508004850F000000000000103F0B5044689B000200E
S3150800486001F0CAFB264801880A237F2200A800F027
S3150800487069F8BDF802004FF6FF75A84204D1DC219D
S315080048800FF2940002F024F90FF2A407002601E0C3
S315080048902A4616B94FF47C4203E0022E08BF4EF2B0
S315080048A03F0200A800F032F8761C052EF0D3012C42
S315080048B003D114237F22134802E014237F221248CF
S315080048C0018803A800F03EF800260FF26C072A4676
S315080048D008E02A46012E08BF4FF6C07202D0082EFD
S315080048E008BF002203A800F011F8761C0A2EF0D3A0
S315080048F0012C04BF012001F07FFB09B0F0BD0000C8
S3150800490082AD020880AD02087EAD020830F81610A6
S31508004910F05DFFF7A6BC0000616E616C6F67756598
S315080049202D63656C6C2D626961732E63000000004F
S3150800493000100C0D0E000000010203040708090A06
S315080049400B0F000030B5044610467F2808BF00202C
S31508004950B1F5004F83B01AD108237F2240F6120121
S3150800496000A8FFF7EFFF08220FF2C40100A802F023
S31508004970F7F930B908237F2240F2A27100A8FFF7A1
S31508004980E1FF082200A9204602F0A0F937BD204D14
S31508004990294300FB03111A46204602F097F937BD52
S315080049A02DE9F0440C461A490FF2780A41EA000646
S315080049B0C007154602D5622100F030F8E80702D58F
S315080049C0632100F02BF81348864204D3A819401E29
S315080049D01149884202D3642100F020F8002706E036
S315080049E0B85DFF2802D06B2100F018F87F1CAF4293
S315080049F0F6D36A082146304602F01CFA28B150461A
S31508004A00BDE8F044712102F063B8BDE8F084000007
S31508004A10000008080008080800100808504602F0B8
S31508004A2057B800006D66672D746F6B656E2E630050
S31508004A30FFFFFFFFFFFFFFFF30B50FF23C11DFF866
S31508004A4024510A6883B001A8002402600120287056
S31508004A50002002F033FA30B1002002F02FFA10B12C
S31508004A602C7049203EBDDFF80001018802237F2211
S31508004A700DF1020000F024F802237F22002100A88D
S31508004A8000F01EF8204601A9BDF8022031F81010E2
S31508004A90914208BF0124401C0228F4D3BDF8000047
S31508004AA024B1B0F57F7F07D100203EBDB0F57F7FEA
S31508004AB00CBF0620042000E00720002129703EBD17
S31508004AC010B5FF2908DCDFF89C40247844B1BDE81E
S31508004AD01040C9B202F025BDBDE81040FFF732BF4D
S31508004AE010BD10B5FF2908DCDFF87840247864B1DA
S31508004AF0BDE81040C9B202F050BD7F2A08BF0022A7
S31508004B001A4C214302FB0311016010BD2DE9F04147
S31508004B100546FF2D0E46174698460FF2540012DC3E
S31508004B20104C2178A1B1617811B1C22101F0D0FFF2
S31508004B3001206070434632463946E8B202F06CFE00
S31508004B400020607004E0BDE8F041CD2101F0C0BF4F
S31508004B50BDE8F08103490978002918BF02F05FBF54
S31508004B6070470000BAFF00208AAD02080000080856
S31508004B70746F6B656E2E6300FE01FD0210B5DFF8DB
S31508004B80F4441020206302F0FDFFDFF8EC140A68F5
S31508004B9042F001020A6002F0FBFFDFF8E00400F1D0
S31508004BA00801616021609230616889316160012184
S31508004BB02163E060A060DFF8C814E0688930E0602F
S31508004BC0022020634FF6FF70086010BDDFF8B404BA
S31508004BD045F26401C1601E21416250210162C8216B
S31508004BE0C1618165F021C16545F69001416688215C
S31508004BF081660621C16644F2066101604FF6FF71BF
S31508004C004160DFF88404007838B1DFF8800448F2A0
S31508004C10607101604FF4C1514160DFF874040168A6
S31508004C2041F0040101600020DFF8681448707047FD
S31508004C302DE9F04FDFF844148A2283B002FB0012F4
S31508004C40083200920427521C04465378127802EB65
S31508004C500325ADB205F44063B3F5006F05F4404291
S31508004C604FF000094FF0010A08BF082703D0B3F533
S31508004C70406F08BF0E271AB16B065CBFBB1CDFB2BC
S31508004C80DFF814341B784B7040180190A806019978
S31508004C9081F8029064D5DFF80464706E00065FD56B
S31508004CA000983818B2F5404F4FF4806B4FF40068FF
S31508004CB007D102F073FF5FEA000947D007F1080041
S31508004CC019E0B2F5004F41D100994078795C01EBC3
S31508004CD0002080B202F06EFFFF2808BFCA4609D03E
S31508004CE0DFF8BC13096831F810004FF4FE6108427A
S31508004CF02CD0D146B81CC0B2410805F00702032AD9
S31508004D0024D1002C14BF726832688A421ED3002C44
S31508004D1014BF726832684B1C9A42F8D30099405CFB
S31508004D20042813D1BAF1000F02D0B9F1000F0DD043
S31508004D30F06DC00606D400F015F803D0706C40F08C
S31508004D400100706401200199887009E0F06DC006C1
S31508004D5006D500F007F803D0706C40084000706470
S31508004D60BDE8F78FB06C04B1C34610EA0B0F704765
S31508004D702DE9F04E0446C14EDFF820538A2000FB89
S31508004D80046000F1080B002C0CBF28686868C1B2E3
S31508004D90052903DA7068401C706055E040005FFA28
S31508004DA080F909EB0B00A0F108073878797801EB50
S31508004DB000201FFA80FA7078387002F0CAFF7870FF
S31508004DC0B84FF86B20F48050F863686E14B93868E9
S31508004DD0400504D4012C1FD1386800051CD5B248FB
S31508004DE0017889B1002101701AF4E45FAF480168BF
S31508004DF002D00022402005E09BF80100000900F0DF
S31508004E0001028F2003F023F8002C0CBF4FF48060BA
S31508004E104FF40060386012E01AF4E45F0FD100F036
S31508004E201BFD10B15FEA4A4009D59BF800008028AF
S31508004E3005DAA01949468278584603F0CDF8002CC1
S31508004E400CBF012002202861BDE8F08E2DE9F0474D
S31508004E508B4C964E2068216C904FDFF85482DFF811
S31508004E604892DFF818A201EA000519E038B1487837
S31508004E70C00604D4316800228F2002F0E8FF280615
S31508004E8005D503F03DF8802025F080052060E8056B
S31508004E9006D503F035F84FF4807025F48075206048
S31508004EA0002D5CD0280706D50020FFF7C1FE082094
S31508004EB025F008052060E80606D50120FFF7B8FEAC
S31508004EC0102025F01005206005F06000602803D149
S31508004ED0B86CC0050AD401E0A80605D520202060D4
S31508004EE025F02005002006E0680606D5402020604B
S31508004EF025F040050120FFF73BFFE80404D54FF4F1
S31508004F00805025F480552060E807B8D50120206038
S31508004F106D089AF800006D000028B0D000F015FC66
S31508004F200128ACD199F800000028A8D098F800000C
S31508004F300428A4D1F868400800F001008A2101FB82
S31508004F4000A10831002814BF7A683A6812B92268A5
S31508004F50D204F7D5002814BF7868386886E7002099
S31508004F602060BDE8F087534800687047F0B50446EE
S31508004F700D4689B00021032001F01AFD04AE1BE09E
S31508004F80002701F030FD26F8170001F02CFD00A9D6
S31508004F9021F817007F1C082FF3DB04A803F0B6F9E5
S31508004FA000202080218836F810205140401C08280F
S31508004FB02180F7DB6D1EA41CEDB2002DE0D101F0B7
S31508004FC04EFD012009B0F0BD0321022001F0F0BC1E
S31508004FD04FF6FF71081A292190FBF1F03A3040B2DA
S31508004FE0704738B501F0FFFCFFF7F2FF324D044673
S31508004FF02878B0B90321032001F0DAFC2F4801888C
S3150800500002237F2200A8FFF79DFC01F0ECFCBDF807
S315080050100010401880B2FFF7DBFF153868700120D2
S31508005020287001F01CFD6878201A40B232BD80B5A0
S315080050300321022001F0BCFCBDE80140D1E770B5B0
S315080050401F480078002490B9FFF7F1FF114E054676
S31508005050707848B13078401B40B203F068F90B28E5
S3150800506005DB3570012402E001203570707020469A
S3150800507070BD0000002000408420004070FC002025
S3150800508000A000404C10004030F10020D010004035
S3150800509080200040DBFF00202FF100202020004068
S315080050A068EF002004A000408CFD002094FD00203D
S315080050B0A1F1002038200040D9FF002088AD020861
S315080050C0A2F1002010B50D48018884B00A237F227A
S315080050D000A8FFF737FCBDF800004FF6FF74A042A2
S315080050E004D14E210FF2180001F0F2FCBDF80010B1
S315080050F022460020FFF7B5F81FBD000082AD020862
S31508005100616E616C6F6775652D66696C7465722E64
S3150800511063000000DFF84008007848B1DFF83C0873
S315080051200179012904BF4079042801D1012070477B
S31508005130002070470FF6CC01405C7047010603D586
S315080051404FF67F710840C00070478001B0FBF1F050
S3150800515080B2FF288CBF0020C0F1FF00C0B27047A4
S3150800516038B5DFF8FC07C178012901D1002032BD26
S31508005170DFF8F847617871B1E17840794518207908
S31508005180ADB2854228BF054603F0EAF80121A940D9
S31508005190491E084000E0002061790818C0B232BDF7
S315080051A02DE9F0470446C00705D54FF4B8710FF648
S315080051B0440001F08DFCDFF8B857286DC00748BFDA
S315080051C08C2000F19480DFF89807DFF8A07700219B
S315080051D0017101704178B1B93978A1B121781229E4
S315080051E018BF0C290BD1627802F00702032A02BF06
S315080051F0091911F8021C042904BF01210171A96FBC
S3150800520041F0010102E0A96F49084900A967DFF8E2
S315080052104C877A7898F80610DFF85897DFF85867B9
S3150800522092B1002242710129286D40F004002865D8
S3150800523006D14FF6FF7030604FF40070C9F80000D1
S31508005240FFF78EFF82460CE0286D20F00400012946
S3150800525028654FF0000A04D100F030FA642000F007
S3150800526033FFA86F20F00800A8671420E864C5F883
S3150800527048A0787838B198F80600002801BFA86CCD
S3150800528000280120A864B8790028286D14BF40F0CA
S31508005290080020F008002865FFF73CFF18B1306CBD
S315080052A040F008003064202028626C602C604FF4BF
S315080052B0E06468687F30686004202862DFF8BC060E
S315080052C0046006E003F05CF818B103F061F802F038
S315080052D059FCDFF8AC06006800F003000328F1D09B
S315080052E0C9F80040286D40F0010028650020BDE897
S315080052F0F087DFF89006002141608160016821F09F
S31508005300020101604FF00070DFF87C16086001208A
S31508005310DFF8781608707047A0F13301DFF87026B9
S31508005320914200D3704710B5DFF86046002121701E
S3150800533000F0B7FB02E0012003F02EF820780028E1
S31508005340F9D010BD2DE9F84FDFF82C86DFF8105696
S31508005350D8F80000D8F84010DFF8147601EA0004FF
S31508005360A4B2C8F800406878002840F0D580E00765
S31508005370DFF82066DFF8F4954CD5D7F800A0386C2E
S31508005380796C41EA004199F80000A96000283DD0EF
S315080053909AF80100800639D501202870FFF7BAFE71
S315080053A0C0B3192000F090FE4FF44040DFF8E8B58E
S315080053B0CBF82800DBF800000090F06E40F40050AF
S315080053C0F066F06E40F48050F0669AF80010A8680F
S315080053D04901B83101EB000AFFF7C5FDAAEB000049
S315080053E00003000BFFF798FFF06E80098001F06656
S315080053F000A9F06E09880843F0660020CBF828005B
S3150800540048F26070F066E888306003E00022002009
S3150800541002F01DFD20060ED5287830B10020287030
S315080054200022A968402002F012FDD8F83C0020F4BA
S315080054308050C8F83C00600608D5687830B9FFF790
S3150800544092FD01460022892002F001FDE00654D5AE
S31508005450DFF808A5DFF81CB59AF80400012804BF90
S315080054609AF8061001291FD100F07AFF386F40F02C
S315080054700100386700208AF80600FFF77FFB0A203C
S3150800548000F022FE4FF6FF70C8F8000000244FF423
S31508005490E060CBF800000920B8660120B864B86F50
S315080054A040F00800B86718E0697999F80220491CA5
S315080054B06971C9B2914215D2012808BF00F0D1F826
S315080054C0B86F20F00800B8671420B866FFF748FEE2
S315080054D0B8644FF40070CBF80000386D40F0010056
S315080054E038650AE0012808BF00F0BBF8FFF73BFD66
S315080054F0014600228D2002F0AAFC20070CD5FFF7F2
S3150800550009FE48B13068E88001203060D8F84000CC
S3150800551020F00800C8F84000A0060AD52020386206
S31508005520687830B9FFF71FFD01460022882002F08F
S315080055308EFC687820B114F4407F04BF0120A8705F
S31508005540BDE8F18FDFF858040088704770B582B05F
S315080055500446FFF75CF8DFF84C04DFF8085400212E
S3150800556001601521E960092101651F2141600121BA
S315080055700166DFF82C040088FEF7B7FEFFF726FB66
S3150800558003F0C0F900F02EF9DFF8D063308900F097
S3150800559056F9708900F05BF902F0F4FA696841F08F
S315080055A04001696002F0F4FA707800F0F0F8B0781B
S315080055B000F0FDF8DFF8F003007800F02AF9DFF8CC
S315080055C0EC0390F90000FFF761F8307800F090F9E5
S315080055D096F9030000F098F9DFF8D40300F0B6F95D
S315080055E0BDF80000DFF8CC13C0054CBF0020BDF89D
S315080055F000000870DFF8C0030078FFF70AF828B142
S315080056000FF2F03040F2B63101F062FA012C05D102
S315080056102868C00711D500F024F80EE06CB9286890
S31508005620C0070AD400F09CFE286840F001002860F4
S31508005630C82000F049FD0020B071F120DFF838439A
S31508005640206440F2F910E063FFF798FA2868C0076B
S3150800565004D54FF6FF70206000F05DF800F04FFCAF
S3150800566073BD70B5DFF85453DFF8F0422E68A079A1
S31508005670012822D002F086FAB6B2DFF800232E609F
S315080056804FF4E0611160DFF814130A6A52085200F9
S315080056900A620A68520852000A600A6842F0020260
S315080056A00A604A6A42F001024A620121A17102F0C7
S315080056B06FFABDE8704000F04CBE70BD70B5A74CDF
S315080056C0A07938B300F04CFE02F05CFA0546DFF824
S315080056D0F012A54E01200860306D40F001003065DB
S315080056E00020A071FFF74AFA20203060306B40F0A6
S315080056F002003063F06D40F00800F065284602F0BD
S3150800570047FA0A2000F0E0FC9B494FF6FF70086054
S3150800571000F001F870BD4FF4E060964908607047E4
S315080057208E488079704710B58C4CA07928B140F224
S31508005730A7410FF2C02001F0CBF92079012804BF58
S31508005740BDE81040FFF78DBF10BD8448007970474B
S3150800575080B5022801DB012002BD804908718979DC
S31508005760884205D010B9FFF7A9FF01E0FFF779FFD6
S31508005770002002BD93480068800200149A3801B2DE
S3150800578011F1800FB8BF6FF07F0040B2704710B5B7
S31508005790044602F0F7F98C490A68002C14BF42F057
S315080057A0120222F012020A606C494C7040E038B5C9
S315080057B0044602F0E7F9054600F055FE40B982486E
S315080057C00168002C14BF41F0800121F080010160BE
S315080057D0624884702846BDE8324002F0D9B95F486D
S315080057E08078704779494A780B78794803EB022222
S315080057F002608B78CA7803EB022242600B794A79F9
S3150800580003EB02228260CA79897901EB0221C16021
S31508005810704710B5044602F0B5F96B490A68002CC2
S3150800582014BF42F0200222F020020A605E490C7082
S31508005830BDE8104002F0ACB94848008970474749AE
S31508005840088164490860704744484089704743495D
S3150800585048816149086070476048007870474F483A
S31508005860816A41F0020181620121016070474B485B
S3150800587000210160816A21F002018162502000F056
S3150800588023BC38B5564C57482169574D0180E16904
S315080058904180E96C818000202061FFF7E0FF01204C
S315080058A0E0610020606220624CF25D00E8642868CE
S315080058B040F4004028604FF40040206048F202009F
S315080058C0206031BD80B5FFF7D2FF45484FF400414F
S315080058D001600021016044490A6822F400420A6016
S315080058E0404A9388CB64118801615188C16101BD22
S315080058F01C490A68002814BF42F0020222F002027C
S315080059000A6016490870704738B504467F2C0AD1D4
S31508005910364800F01BF8BDF80000C00554BFBDF8B6
S3150800592000406FF04A0402F02DF9054600F09BFD91
S3150800593030B964B204F19A0080052D49000C08605C
S315080059400648C470284602F023F931BD01880223AF
S315080059507F2200A8FEF7F6BFE1FF00209CF1002099
S315080059608CFD002080200040302000406CF1002093
S315080059701020004000E100E004A0004080E100E0C3
S31508005980A820004010E000E004ED00E0E2FF00205F
S31508005990CDFF070064100040E4100040602000407E
S315080059A040F100205C100040E0FF002034F10020A8
S315080059B094AD0208BFFF00202FF100201C10004004
S315080059C0281000400C100040842000400CFC0020E9
S315080059D09820004094200040902000409AF1002032
S315080059E0181000409AFF0020C01000409AAD020827
S315080059F0541000407068792D636F6D6D6F6E2E635D
S31508005A0000000000FEFEF7F7C8C80100DFF86015C1
S31508005A105120086070472DE9F041054602F086FFDF
S31508005A20DFF85015B0FBF1F64FF4F070B0FBF6F75F
S31508005A301E2D3FB201DBE81B04D5A8B2BDE8F04134
S31508005A4000F042BB02F09EF8804602F0DBFFDFF86A
S31508005A502815DFF82825012048700721DFF82005DA
S31508005A6000F041F8E91B09B27143C91C8908491EAF
S31508005A70DFF81055416000F0BDF8DFF8F4743C68B3
S31508005A80386820F04000386002F0BEFF3C602E60A7
S31508005A9002F0BEFF02F0C4FF4046BDE8F04102F046
S31508005AA077B838B5054602F041FFDFF8C814B0FBF1
S31508005AB0F1F44FF4F070B0FBF4F02D1A1E2D04DA51
S31508005AC095210FF2085001F003F8DFF8B404DFF867
S31508005AD0AC24072100F007F805FB04F1C91C890866
S31508005AE0491E416031BD01600021416081604FF06F
S31508005AF0007111607047DFF8802401215170D0E7EA
S31508005B00DFF88404006800B970472DE9F041DFF832
S31508005B107C54DFF87C6400242C6034604FF4A04089
S31508005B20706041F29A084046FFF775FF6F6802F009
S31508005B3005FF000142F21071B0FBF1F000F5C870E4
S31508005B40C01B00B24FF4487190FBF1F000B2082870
S31508005B50A8BF072004DA10F1080FB8BF6FF00700D6
S31508005B6030604046FFF757FF08274046FFF753FFC8
S31508005B70686804197F1EF8D102F0E0FE211D400175
S31508005B80C908B0FBF1F080B27060BDE8F081DFF8BB
S31508005B90F803006800B9704738B5DFF8F8530120F4
S31508005BA06FF00F04A8602C608020FFF734FFE868C8
S31508005BB0FF2802D8641C102CF5DB31BD70B5DFF860
S31508005BC0D803016841F0010101600121416001F03B
S31508005BD0D9FF0446DFF8AC5300F00CF85120DFF883
S31508005BE0901308602E6002F013FF2046BDE870404F
S31508005BF001F0CEBF2E68286840084000286002F0F1
S31508005C0007BF0020704710B5DFF87C03DFF868434C
S31508005C1000680128BCBF032000F01DF80120207091
S31508005C2000202071DFF87403816901F0030103295C
S31508005C3007D10020A070042000F07DF80120207113
S31508005C4010BD0F210160022181610120E0706420EE
S31508005C50BDE810404FE72DE9F041CB4AC64D146820
S31508005C6040F2DC51012C8846CC4ECD4F15DA022184
S31508005C70B9803160B16901F00301032959D0002CBC
S31508005C8003D5B16941F00201B161FFF7BAFF5FEAD6
S31508005C9000081AD1002C4CD549E0B8884FF6FF7495
S31508005CA0A0421DD1BF48018802237F22381DFEF776
S31508005CB049FEB888A04204BF0220B880B0698007B0
S31508005CC003D4B06940F00200B0610120A870B8881A
S31508005CD030600FFA88F0FFF70EFF4046BDE8F08106
S31508005CE0B3699B07EDD5AB780BB10846F6E7B16803
S31508005CF0B36811F0010103D10F2809D2401C06E050
S31508005D009B0705D53B781BB1032801DB2018B88013
S31508005D10B88839700228BCBF0220B8803068B988B4
S31508005D208842D2D1B06900F00300032801D0FFF7FA
S31508005D3045FF0020D2E72DE9F047804600248C4D28
S31508005D40904E01F01FFF814602F05CFE4046FFF7C9
S31508005D5082FF08B901240AE000F0CAF8D5F800A0C5
S31508005D6000F02EF9C5F800A0376002F051FE02F0E7
S31508005D7057FE484601F00CFF002CE2D0BDE8F0873C
S31508005D800220D8E710B57E487B4C0021416081602F
S31508005D90016821F002010160002060704FF0007078
S31508005DA076490860A07838B10020A0700620FFF771
S31508005DB028FF00F098F81CDBE078012814D17A480F
S31508005DC00121016079490968C90748BF03200FD432
S31508005DD00221E170016C41F001010164042074495B
S31508005DE008607449086010BDE078042801D10520D0
S31508005DF0E07010BD80B56048407800281CBFBDE83B
S31508005E000140FFF7BFBFFFF774FA01BD2DE9F8435C
S31508005E1000F069F803DABDE8F24304208BE7564C34
S31508005E20207900B35DE001F0ADFE054602F0EAFD1B
S31508005E30E078032812D000F05AF8DFF83481D8F851
S31508005E400090D8F8000020F04000C8F8000002F0E2
S31508005E50DBFDC8F80090376002F0DAFD02F0E0FDDD
S31508005E60284601F095FEE0780328DCD14C4E4B4DD0
S31508005E70B08828604FF6FF777088B8420CD14E4834
S31508005E80018802237F22B01CFEF75CFD7088B842A9
S31508005E9002D16420708001E07088C8B102F04EFD1E
S31508005EA07188344AB0FBF2F048432F303021B0FBFA
S31508005EB0F1F042494A6D42F001024A650A68AB6848
S31508005EC0DB07FBD50B689B1A1B031B0B8342F6D318
S31508005ED0FFF774FE0420E0704FF4C870BDE8F24383
S31508005EE009E6BDE8F1832848006801287047254E71
S31508005EF03768306840084000306002F089BD2DE9F7
S31508005F00F8431D4C207800282DD0207900282AD166
S31508005F10FFF7E9FF1FDA40F2EF310FF2B00000F0A9
S31508005F20D7FD18E001F02EFE804602F06BFDE07802
S31508005F3005280BD0FFF7DBFF0D4DD5F8009000F0D4
S31508005F403FF8C5F80090376002F062FD02F068FD80
S31508005F50404601F01DFEE0780528E3D10020A07038
S31508005F600520FFF7E8FE00202070BDE8F183000059
S31508005F700080004090D00300D1FF002004ED00E02F
S31508005F8010E000E094ED00E078A802081040004018
S31508005F900C000040084000401C40004004400040FF
S31508005FA086F1002092AD020818A000400C4000407F
S31508005FB080E200E000E100E096AD020838200040EB
S31508005FC0286820F04000286002F01EBD636C6F63ED
S31508005FD06B732E630000000010B5754C002000F0AE
S31508005FE044FD40F68C2188422068B4BF40F0080082
S31508005FF020F00800206010BD10B504466D480188E1
S3150800600082B000F05CF89DF800109DF80100FF29A9
S3150800601002BFFF280420002104B1801C664A1368C9
S31508006020C0B20828A8BF072023F4607343EAC0104B
S31508006030106008291068A8BF0721C00841EAC000F7
S3150800604010605E48047013BD00B55D48018883B0D2
S3150800605000F035F8BDF800004FF6FF7188420EBF14
S315080060604FF4E1600A2190FBF1F0ADF800005348C7
S31508006070007808B34F48018802237F2201A8FEF75B
S3150800608061FC9DF80500BDF80030FF2808BF042014
S31508006090811CC9B20829A8BF0721C1F12F0202EB4A
S315080060A0D272C0F12F00521000FB0320C1F12F015C
S315080060B0B0FBF1F0ADF80000BDF800000EBD0223FC
S315080060C07F2200A8FEF73EBC70B53E4C2568064602
S315080060D002F034FC3C49B0FBF1F070432F3030211C
S315080060E0B0FBF1F0032809D3616D41F00101616548
S315080060F02168491B0903090B8142F9D370BD10B504
S31508006100040004D110BD4FF47A70FFF7DDFF204676
S31508006110441E80B20028F6D110BD2C48017869B912
S31508006120C078072818BF092814D0032818BF1128D3
S3150800613010D013281CBF15280B280BD0244801683B
S3150800614041F480720260C80504D438210FF2900029
S3150800615000F0BEBC704738B50C4620B101280FD0F8
S31508006160032820D021E01B4D44B102F0E7FB1A4971
S31508006170B0FBF1F0401EB0F5005F0CD2286012E0CB
S315080061804CB102F0DBFB610801EB4000B0FBF4F018
S31508006190B0F5003F01D3202032BD104900F00102BE
S315080061A04A6040080860002032BD212032BD000048
S315080061B000BC004084AD020818000040C2FF002061
S315080061C086AD02083820004090D0030096070808DC
S315080061D038400040100004E020A1070068C80040CD
S315080061E07573625F6572726F722E630038B501202F
S315080061F0FFF731FD0020FFF7FFFE714C206840F0E5
S315080062000800206002F0A1FBFFF7E6FE6D496E4824
S315080062100A78C2604B786D4AD3608D786C4BDD6026
S315080062208D880560CD88456008891060488950606A
S3150800623088891860C889586000F08BF8206820F0B3
S3150800624010002060FDF7D7FF02F0ECFB02F0B1FC6E
S31508006250FFF796FD02F077FBBDE8314002F093BBED
S3150800626040F2016002F0AABC10B502F0A0FC594940
S3150800627000F001F810BD54480A78C2604B78534ABA
S31508006280D3608C78524BDC608C880460CC88446080
S31508006290088910604889506088891860C8895860DC
S315080062A0704710B5FFF7AFFCFFF796FE4549FFF7B5
S315080062B0E2FF00F04EF84248016821F01001016043
S315080062C0FDF799FFFFF7A2FDBDE8104002F070BC8C
S315080062D0F0B50B68404C0F252468960005FA06F6BB
S315080062E0344215D0002606EB820724FA07F7FF0783
S315080062F00BD5B70005FA07FC23EA0C0330F812C0E1
S3150800630005FA07F707EA0C073B43761C042EEADB77
S315080063100B60F0BDF0B50B682F4CFF252468D6003E
S31508006320B5402C4213D00025012605EBC20724FAF6
S3150800633007F7FF0708D506FA05F7BB43175C06FA01
S3150800634005FC0CEA07073B436D1C082DEDDB0B60CB
S31508006350F0BD10B52048006808B11E4C07E010BD16
S3150800636010B51D48006808B1164C00E010BD1B4961
S3150800637000222046FFF7CEFF012219492046FFF7E3
S31508006380C9FF022217492046FFF7C4FF00220E491B
S3150800639000F030F80122144900F02CF802220B49CB
S315080063A000F028F80322114900F024F804220849CD
S315080063B000F020F8201DBDE8104005220C4987E7AB
S315080063C000BC004068F0002000B0004000B2004069
S315080063D000B4004078F00020C0F800200CB000405F
S315080063E00CB200400CB4004004B0004004B20040B7
S315080063F004B40040201D6BE70320FEF7ABBB80B555
S3150800640002F0D3FC0FF2640109E080B502F0D1FC7A
S315080064100FF284010204120E51F82210C0B201EBE9
S31508006420800002BD10B502F0C0FC044602F0C1FCB3
S31508006430C0B208B9012C07D1072C11D8DFE804F03F
S3150800644004100608080A0C0E002010BD092010BD0D
S31508006450022010BD032010BD0B2010BD062010BD64
S3150800646044F0800010BD002070470000554E4B00D8
S315080064704649420042544C00455854005057520071
S315080064805744470020535700435253004653480089
S3150800649042414400464C54007CA8020880A80208E1
S315080064A0D8A80208F8A8020800A902080CA9020838
S315080064B018A9020824A902082CA9020838A9020862
S315080064C048A902082A490A68920992010A600A68D4
S315080064D0104308604FF4004126480160002101601E
S315080064E06420FFF7F1BD2DE9F047234D204FD5F87D
S315080064F00090224C8046286840F40040286038689E
S3150800650020F480503860207868B162781C48A178F9
S3150800651000EB820200EB880012F82A2C10F82A0CED
S31508006520891A461802E0012020262070B0B2FFF72B
S31508006530C9FF0FF2500A02E0B0B2FFF7C3FF386B8B
S31508006540042805D0386B400754BF761E761CF3E73F
S31508006550F86A38B184F80180A6701FFA89F02860B5
S31508006560BDE8F08740F22111504600F0B1FAE6E79F
S31508006570D0100040181000401C100040DDFF00201D
S31508006580C8470008616E616C6F6775652D76636F25
S315080065902E63000081014FF4FE5289B20C20FDF7EC
S315080065A060BE2DE9F84F8F4CA56820680127ADB26B
S315080065B000264FF00A08B9461FFA80FA00F04FFA8B
S315080065C0B0202063DFF820B208E016F1190FB8BF33
S315080065D04FF00A08464436B27019A060DBF800008E
S315080065E0000702D559EA070028D00120FFF76CFDFD
S315080065F0B9F1000F11D0AAF10300874202DAF81C9C
S3150800660087B213E00AF500402060574606210920A4
S3150800661000F0CEF94FF000090BE0DBF800000007A8
S3150800662007D5042FA6BFF81E87B2002707F5004036
S3150800663020601A2EC9DB6FF00908CBE7A560C4F8FD
S3150800664000A00820CBF800006848006880B2BDE8C2
S31508006650F28F80B5624B66491B784FF0FF326BB1FB
S31508006660002819BF4A606348486041F21110086063
S31508006670614841880088BDE8044092E7002819BFB0
S315080066804A600A604860086000F0E9F9BDE804401D
S315080066900621092000F0DDB938B50120FFF7D9FF3A
S315080066A004460020FFF7D5FF05460120FFF7D1FF76
S315080066B04042001B00EB450000B232BD2DE9FE4FFB
S315080066C04E4CDFF83C81A06A454EADF802002568BD
S315080066D0D8F800B0307860B14FF6FF720021082074
S315080066E0FDF7B8FDADF80000C022C0210820FDF76F
S315080066F0B8FD4448DFF81091007818B148F2607088
S31508006700C9F80000708840F4404040F04C00C9F8D1
S315080067103C000220A0620120206040F24C40FFF7B6
S31508006720D3FC0120C8F80C00C8F800000020324F3E
S31508006730388040207880307800B12020FFF72AFF83
S31508006740FFF7AAFF8246402038807F207880FFF72F
S3150800675021FFFFF7A1FF0290504601F0E8FDFE2158
S3150800676001FB00F70298AAEB00000190307860B1AF
S31508006770029801F0DCFD8246019801F0D8FD80B24E
S3150800678007EB8A11B1FBF0F005E0019801F0CFFDA7
S3150800679080B2B7FBF0F080B2401CC7031FFA8BF03B
S315080067A0C8F80000ADB20020C8F80C00022020602E
S315080067B02560BDF80200A0620020C9F83C003078C8
S315080067C030B1BDF800104FF6FF720820FDF749FDFD
S315080067D040F24C40FFF778FC380CBDE8FE8F00000D
S315080067E096F10020C010004018A00040007000403C
S315080067F038100040EEEEFFFF96FF002060200040B4
S315080068002810004030F10020D010004041003F22FF
S3150800681089B201E001463F220220FDF722BD2DE99B
S31508006820F04F564C564D95B0E06CADF810004FF64B
S31508006830FF782068ADF80E004246E86AADF80C000D
S3150800684000210120FDF706FDADF80A0042460021A9
S315080068500B20FDF7FFFCADF808004FF40040206060
S3150800686000202861686148F2020000F08BF84CF6B7
S315080068708C30E0644FF4805248F2F000E86211462A
S315080068800120FDF7EEFC424600210B20FDF7E9FC4E
S315080068900621062000F0DDF8019000F085F800904A
S315080068A04CF69C30E0640020FFF7B0FF062108464E
S315080068B000F07EF800260DF1140BB0B2FFF7A6FF24
S315080068C00621062000F074F800F08DF82BF8160063
S315080068D0761C202EF1DB00F086F81020FFF796FFD5
S315080068E000F062F80099019A401ABBF82010891A3C
S315080068F0404301FB01094FF0100A112700F04EF83A
S3150800690000F052F800F043F806DB81461FFA87FAD2
S31508006910781C07B2202FF1DBBAF1100F0ED10F2722
S3150800692000F03CF800F040F800F031F806DB81464C
S315080069301FFA87FA781E07B2002FF1D5BDF81000A6
S31508006940E0644246BDF80E002060BDF80C00E8621F
S315080069500120BDF80A10FDF784FCBDF80810424670
S315080069600B20FDF77EFC01202861002000F00AF8C4
S315080069704FEA4A00C0B215B0BDE8F08FC01000401B
S3150800698018100040286040F24C40FFF79DBB009964
S31508006990401A404306FB0600484570473BF8170077
S315080069A00199461AB8B231E70621072000F051B816
S315080069B070B505460E4602F025F83D4C206C20F0D1
S315080069C00800206402F02CF801F0DCF8310341EAF3
S315080069D0C511384A41F00101116008212160BDE85E
S315080069E0704001F0D5B82DE9F041334C334D304EA7
S315080069F025E002F007F8324904200860306C40F0C0
S31508006A00080030642F68286840084000286001F0B4
S31508006A10FFFFD4F80080206820F04000206001F0D5
S31508006A20F3FFC4F800802F6001F0F2FF306C2549AF
S31508006A3020F0080030640420086001F0F1FF306897
S31508006A400007D6D5082030601F48006880B2BDE828
S31508006A50F08180B5FFF7ACFFBDE80140C3E71548F4
S31508006A6001684908490001607047F8B50746FFF70D
S31508006A70EBFA044639460320FFF7EBFF054639468D
S31508006A800120FFF7E6FF064639460020FFF7E1FF3B
S31508006A9008490A68520852000A60401B0004711B24
S31508006AA0B0FBF1F060434000000CF2BD00000000AE
S31508006AB018A00040047000400080004094ED00E0FB
S31508006AC000E100E080E200E00070004042DE70472E
S31508006AD038B504460D4601F041FF01F053F8294642
S31508006AE0204602F09CF92B4622460FF2CC110020D4
S31508006AF002F0FEFB29462046BDE83440E6E72DE9CC
S31508006B00F84F6548654D01682E1D4FF4206A71657A
S31508006B10016AB16562490968F165416A3166816A47
S31508006B207166C16AB166016BF166806B306796F86B
S31508006B30340040074CBFF76BB76BBB4602F0CDF885
S31508006B400022584CDFF86081DFF86091F2648742D2
S31508006B50014624BFA4F12003BB4231651DD357F873
S31508006B60180F306457F8040F7064706DC005C00DB7
S31508006B70062815D1306C484512D3404510D20088F6
S31508006B804DF6426290420BD105F18C006A6842606C
S31508006B9040F2017A7268826002E032647264834667
S31508006BA04348814202D2014600E0091DA14203D2B0
S31508006BB00B68B3F1CD3FF8D0601AB064182105F11F
S31508006BC0780002F0D5FB002003E0C0B205EB800296
S31508006BD09167A34523D254F8041D4945F9D3414585
S31508006BE0F7D2CA07F5D5002205EB82039B6F8B42C5
S31508006BF003D0521CD2B2062AF6DB062AE9D10028AF
S31508006C0014BF401E0520E0E7716F002205EB8203E2
S31508006C10521CDF6F9F67052AF8DBC5F88C10014602
S31508006C20481EC9B20029EFD1706DC005C00D0228F3
S31508006C300AD0032815D0042816D0052817D0062808
S31508006C4018D00C281CD01EE01A480168890748BFCE
S31508006C5040F6021A1CD40068C00719D540F2025A39
S31508006C6016E040F6012A13E040F6022A10E040F644
S31508006C70032A0DE0BAF5206F0AD140F6042A07E088
S31508006C8040F6052A04E018B1242838BF40F6072A3A
S31508006C905046BDE8F28F000004ED00E00000002039
S31508006CA000E300E038EE0020983902089041000819
S31508006CB0980000201CA000400D0A5B415353455222
S31508006CC0543A25703A25645D0D0A0000814233D294
S31508006CD010185118401E491E10E011F8013900F825
S31508006CE00139121F11F8013900F8013911F8013973
S31508006CF000F8013911F8013900F8013992B2042A6D
S31508006D00EBDA92B2002A1EBF11F8013900F80139F0
S31508006D10521EF6D1704711F8013B00F8013B121FCD
S31508006D2011F8013B00F8013B11F8013B00F8013B63
S31508006D3011F8013B00F8013B92B2042AEBDA92B251
S31508006D40002A1EBF11F8013B00F8013B521EF6D17E
S31508006D507047130003D00A46194602F00DBB704768
S31508006D6010B500E0521E92B222B100F012F8F9D026
S31508006D70181B10BD002010BD10B500E0521E92B2BF
S31508006D802AB100F006F8F9D0181B40B210BD002051
S31508006D9010BD10F8013B11F8014BA342704770472C
S31508006DA04048018A40F6A772914202BF408A4FF4D2
S31508006DB07F41084203D1022801DB012070470020E9
S31508006DC070472DE9F84F8246884600F0DBFE364DBF
S31508006DD02F680446286840084000286001F018FE1D
S31508006DE00120DFF8BCB08BF80000FFF7D9FF20B907
S31508006DF0FF210FF2B800FFF76BFE2A48D0F828905B
S31508006E0041464AF48070C84706462F6001F000FEE6
S31508006E10204600F0BDFE00208BF800000FF2940417
S31508006E200EB1305D04E041464AF40070C847005D83
S31508006E30BDE8F28F2DE9F84F804689464FEA420AA7
S31508006E4000F0A0FE184E3768054630684008400036
S31508006E50306001F0DDFDFFF7A3FF28B94FF4A171FB
S31508006E600FF24800FFF734FE0E48D0F824B000238E
S31508006E70524649464046D8470446376001F0C8FDA1
S31508006E80284600F085FE0FF22C050CB1605D05E082
S31508006E905346002249464046D847405DBDE8F28F32
S31508006EA0D0FF00200000080894ED00E0666C6173CE
S31508006EB0682E6300000202024B4B46472DE9F9474C
S31508006EC08AB01D22FF2101A8FFF743FFDFF8D490FF
S31508006ED07E22FF214846FFF73CFF3A254FF01D0A60
S31508006EE03A210FF2E40002F07BFA0FF2CC080027F1
S31508006EF02D48385C411C01EBD1714C102B497E5C46
S31508006F00FF2803D170214046FFF7E2FD7F2E03DB01
S31508006F1071214046FFF7DCFD2548385C00B119347D
S31508006F20601C00FB06F4234830F817100FF2B40073
S31508006F303346A2B202F054FA6519012E1CBF29F88D
S31508006F4017A0B2447F1C1D2FD2DB40F21C44A54279
S31508006F5034BF13A30FF2EC031D2000902246A9B2FA
S31508006F600FF2A80002F03CFA40F21D4085420ED30B
S31508006F7001F0F4FC00F006FE23462A460FF2D00183
S31508006F80002002F0B5F99D214046FFF7A1FD9DF8C6
S31508006F90280001A900F036F90CB0BDE8F08700001A
S31508006FA06F6B00007CFA002054AA020874AA020833
S31508006FB034AA0208F8A9020873696D2D656570720E
S31508006FC06F6D2E6300000000546F6B656E206F7640
S31508006FD06572686561643A20256420776F72647308
S31508006FE00A00000043726561746F723A2030782592
S31508006FF032582C20576F7264733A2025642C20432C
S315080070006F756E743A2025640A00000053696D4551
S315080070104520646174613A20256420776F72647331
S31508007020206F66202564206D617820282570292C1C
S3150800703020746F6B656E436F756E743A2025640A0B
S3150800704000000000544F4F204C41524745000000B5
S315080070500D0A4552524F523A2053696D45452064F0
S3150800706061746120746F6F206C617267652E2020D1
S31508007070436F6D70696C696E67207769746820253F
S315080070806420776F72647320636F6E73756D6564C1
S315080070902E20204D617820616C6C6F7765642069BD
S315080070A0732025642E0D0A0010B5DFF8684ADFF84C
S315080070B0683A2488001B03EB4000002304E030F8FC
S315080070C0134021F813405B1C9342F8DB002010BDE7
S315080070D02DE9F04182B004460D4616460027DFF832
S315080070E0388A01E0B81CC7B2B74217DA7819795D51
S315080070F04078DFF8203A1B8801EB0020ADF8000045
S31508007100012207EBD77004EB6000C01A00F07FFB82
S315080071100028E7D002F086F9002000E00120BDE84B
S31508007120F681F8B504460E46154600270DE000F030
S3150800713019F8BDF8000004EB4701000A4870761CF0
S31508007140BDF8000004F817007F1CB7EB550FEEDBFF
S31508007150E80706D500F006F8BDF80000291901F879
S31508007160010CF1BD012200A9B0B29DE7DFF8A42900
S31508007170DFF8A4191288801A01EB40010220FFF7F4
S3150800718020BEDFF89819DFF89829415C825CDFF8A1
S315080071909439C05C10B102F5997292B241EAC210F4
S315080071A080B2704710B5DFF88039DFF8704903EB15
S315080071B04002005D012801D1104610BD108808184C
S315080071C003EB400010BD38B50C46DFF860190D78A2
S315080071D02A462146FFF768FF208800281CBF4FF67D
S315080071E0FF7188420AD0012000E0401CC0B2A842C4
S315080071F006D234F8101022889142F6D0002032BD0B
S31508007200012032BD2DE9F24F0446DFF8246900203B
S31508007210307070809CB0DFF81C090088ADF8020059
S3150800722007A9FFF7D0FF83460120707009A9DFF888
S3150800723008090588DFF80409B0F80080DFF8D408E3
S31508007240BDF802A007883846FFF7BDFFB8B1BBF105
S31508007250000F3CD0BDF81C10BDF824004FF6FE7296
S31508007260914202D1012804D10CE0012908BF9042BD
S315080072702DD00846BDF82410884228D202E0BBF17A
S31508007280000F23D000207070029750460695CDF85F
S3150800729010800122DFF8941891F800804044ADF878
S315080072A0060000A9BDF80600FFF7FEFEDFF8900805
S315080072B0008805904FF6FF79BDF80000000B4045A1
S315080072C018BF0F2800D10CB3002516E001247078EA
S315080072D00128D9D13846CDF808A0CDF818800495EC
S315080072E0D7E7059805FB00F4E01900F037FCBDF870
S315080072F00200201800F032FC6D1C4545F1DB012028
S3150800730030704D2002F08EF80025FCE0BDF80650DE
S31508007310012201A92846FFF7C7FEBDF80400C043AD
S31508007320C0B2ADF804006F1CDFF818080588BDF870
S315080073300400A84218BF01244FF0000A20E0401CB0
S31508007340C1B2A94218D2C0B2DFF8FC17BDF80E20A8
S31508007350834631F81B109142F1D1FFF712FF4FF621
S3150800736080710840BDF80C104FF6807211408842B3
S3150800737004BF1C980BF800A00AF101001FFA80FA56
S31508007380BDF80400824507DA022203A9B8B2FFF75E
S315080073908BFEBF1C0020D3E7002001E0401C80B212
S315080073A0A84217DA1C99415C8142F7D0012411E002
S315080073B02AF81070BDF8060000EB4300401C00F0E8
S315080073C0E3FABDF80200C0F3C710401C00EBD0700A
S315080073D007EB60070498DFF850A7BFB2874211DAB7
S315080073E0012200A93846FFF75FFEBDF800004845B0
S315080073F008D0030A00F07F01BDF804007F1C834211
S3150800740002DB012400252DE0002001E0401C80B2AB
S31508007410A842CFDA1C9A825C9A42F7D1C0B2FF28FA
S31508007420C8D0DFF8F826825C7F290CBF4FF0000C25
S315080074308C46944509DADFF8ECE6BDF800C010F88A
S315080074400EE0CCF3C01CF44501D00124B2E7012AB2
S31508007450AED07F293AF8100008BF00210818A7E720
S315080074606D1CADB2DFF8E4060088854204DA3AF806
S3150800747015004845F4D1012477800498BDB28542A9
S315080074800ADA012200A92846FFF70EFEBDF8000019
S315080074906F1C4845F1D034E7002CFCD10298012234
S315080074A00BA980B2FFF700FEBDF82C0048450DD1A8
S315080074B005E0401C80B2202813DB2034A4B20699CC
S315080074C0029A891A8C4205DB0120307000201DB013
S315080074D0BDE8F08FA51820220BA9A8B2FFF7E4FD96
S315080074E000200BA931F810104945E2D0A8B2FFF7E1
S315080074F03DFE203CA4B2E0E70298059905FB010091
S3150800750000F02CFB6D1C4545F6DB01203070494622
S3150800751000F054F818B100F03EF90028D6D1012041
S31508007520D5E72DE9F84504460F46164698463146EE
S315080075303846FFF737FEDFF80C16B0F800A00988C2
S31508007540DFF8DC558F420AD2DFF8D005385C7F2E8B
S3150800755008BF0026864202DA785D804503D040F2ED
S31508007560864100F00DFADFF8BC05385C68B1514673
S31508007570384600F03AFA795D012908BF20700AD02A
S31508007580022914BF2060208005E042465146204665
S31508007590BDE8F845C5E5BDE8F18510B504460846D9
S315080075A01146FFF7FFFDDFF86C2500881288DFF823
S315080075B06815801A01EB4000206010BD2DE9F34FD5
S315080075C0DFF85005DFF864150488DFF864050978E4
S315080075D0407883B000281ABFDFF85805008820468F
S315080075E00D18DFF860050088ADF80800ADB2C04395
S315080075F0C0B200EB013000F55060ADF802002B1B5D
S31508007600DFF8140500F0C6F96E1C0028B6B238D1AA
S315080076100025DFF8347514E0E8B2FFF7B2FDADF8DF
S315080076200400331B37F81500ADF806000222DFF810
S31508007630E80400F0ABF8002823D1B61C6D1CB6B2DE
S31508007640ADB2BDF808008542E6DB002501E06D1CF9
S31508007650ADB2BDF80800854280F293804FF0000A6B
S315080076601CE001220DF102011FFA89F0FFF71CFD4B
S31508007670BB19DFF8A4041B1B09F1010900F08AF9FC
S31508007680002878D17F1CFFB2B7EB1B6FE9DBDFF868
S31508007690C004285C8619B6B20AF1010ADFF87C0430
S315080076A015F800B05FFA8AFADA45D0D25146E8B240
S315080076B0FFF778FD8046DFF86C04B8F800902F5C79
S315080076C0F80140EA0520ADF80000BBF1010FBDF84E
S315080076D000000CBF40F07F004AEA0000ADF8000049
S315080076E0311BDFF8340400EB4100711C89B20191AB
S315080076F04FF6FF7189451EBFBDF80010BDF8102072
S31508007700914218D19DF80C100029C5D0012200A974
S31508007710FFF790FB019E70BBDFF80404A8F8006031
S315080077202A5CDFF8300450F82510B0B2FFF7D0FC19
S315080077300028ACD122E0DFF8E813695C491C01EBAC
S31508007740D1714FEAC15B012200A9FFF773FB019EC5
S3150800775088B9002FA8F8006095D04946E8B200F02D
S3150800776044F90190331BDFF8B0034FEA1B6200F0BF
S315080077700DF800288BD001F055FE002005B0BDE8B5
S31508007780F08FDFF8AC0346800120F7E701A900EB8C
S315080077904300FFF74FBB2DE9F041DFF89803DFF808
S315080077A090530688DFF86C0304886878002882B04E
S315080077B012BF204630462646012200A9FFF774FC70
S315080077C0BDF80000DFF8508301280CBF4FF6FE70A5
S315080077D0401EADF80000DFF8540307783846471E08
S315080077E058B1BFB2B819001B012200F010F80028E2
S315080077F0F4D001F017FE002007E06978481E8041A2
S31508007800C00F6870002028700120BDE8F68100A925
S3150800781008EB4000FFF70EBB2DE9FE4F0D46174655
S3150800782004461E464FF000094FF001083946FFF797
S31508007830B9FCC449098801908C420AD2B748205C31
S315080078407F2F08BF0027874203DAB548205C8642A7
S3150800785003D040F2A95100F093F8B54F787820B1DB
S31508007860B548B0F800A0AB4803E0B448B0F800A0AB
S31508007870B0483978008849B97988081AB649098814
S315080078808842B4BF4320442001F0CCFD019801880A
S31508007890A448205CF8B1204600F0A7F8012E08BFDE
S315080078A0297803D0022E0CBF29882968814265D021
S315080078B001980088401E00F067F8A548265C78887D
S315080078C0AAF10101891B814201DB002835D13878EC
S315080078D058BB452044E00291CB4620E002980BEBCA
S315080078E0DB7300EB630000F03CF90BEB05001BF8BB
S315080078F00510407801EB0020711E8B4580B205D13A
S31508007900BDF80010C9B2C0B2ADF80010BDF800103D
S3150800791088420BF1020018BFC8465FFA80FBB345E0
S31508007920DCDBB8F1000FC3D028E0BDF80210002058
S31508007930FFF744FE10B34FF0010978887849401CD8
S31508007940788080B2625C2946FFF7C2FBB0B1714C01
S315080079507B88248870485B1E1B1B00F01BF810B13F
S3150800796001F060FD0AE0B9F1000F02D0FFF713FF3E
S3150800797020B101997888088030187880BDE8F78F9B
S315080079800FF2E810FFF7A4B801220DF1020180B248
S31508007990FFF78ABB01220DF1020100EB4300FFF756
S315080079A049BA70B582B0044600251926012200A9F5
S315080079B0A0B2FFF779FBBDF80000641C48B14FF48C
S315080079C07F41401A02D0FF3806D007E0681C40B253
S315080079D076BDAD1C761EE9D168B276BDBDF800004D
S315080079E0C0B200B96D1CE843F1E738B50C46002172
S315080079F000914B49455C2A46214600A8FFF791FBB2
S31508007A00681C00EBD07004EB600080B2FFF7C9FF7A
S31508007A10002848BFC043009940B2401832BDF0B5AF
S31508007A20484909880446404883B0254630F8156019
S31508007A308C4202D23B48285C18B940F2A961FFF78C
S31508007A409FFF37482D5C681C00EBD07006EB60077B
S31508007A50B8B2FFF7A6FF322814D2C107BFB207EBA8
S31508007A6060002C4F2C4B3F884CBF00214FF47F41C0
S31508007A70ADF80410C01B012201A903EB4000FFF773
S31508007A80D9F960B131462046FFF7AFFF00902B4683
S31508007A90401C00907F2200A92046FFF7BDFEF7BDD7
S31508007AA0F8B5234C20780027002830D119480588D6
S31508007AB0607800281ABF1F4806882E461B48077894
S31508007AC03846471E02281BDBFFB2B81900F049F8F2
S31508007AD0BDF800000028F3D01948008807FB0060AD
S31508007AE000F03CF80020ADF80000BB190A485B1B03
S31508007AF0012200A9FFF74BFE48B101F093FC06E00E
S31508007B003046FFF733FBFFB20FB901202070384625
S31508007B10F2BD0000C8A902080008040874AA0208F1
S31508007B2054AA020834AA02087CFA0020C4A902084A
S31508007B3088FF0020CCA90208CAA90208CEA9020813
S31508007B40C6A90208D2A90208F8A90208D4A90208F7
S31508007B50D8A9020890AC0208D0A9020880B2FFF79B
S31508007B6005BB012200A980B2FFF79EBA73696D2D85
S31508007B70656570726F6D2D696E7465726E616C2EB7
S31508007B8063000000EFF31180602181F311887047CC
S31508007B9080F31188704770470120704700207047AE
S31508007BA000207047002070470020704770477047D4
S31508007BB070470000F8B50D4C2768060014D0FFF78B
S31508007BC0E1FF0B4D21682A7821F8126037F8021B6D
S31508007BD0B142FBD1FFF7DCFFB81E2168401AC00589
S31508007BE02978000E884200D1FF20F2BD60EF002000
S31508007BF064EF002010B57348734C0068206060601D
S31508007C0048220021FFF7A5F8704821680078087017
S31508007C10002021680873216848730B20216888733F
S31508007C2003202168C8734FF6FE71206801824FF65B
S31508007C30FF71418200F094FB2168087600F090FB02
S31508007C402168487600F08CFB2168887660482168B0
S31508007C500078C8765F492068096881625E490978B4
S31508007C6080F82C105D4821680068086310BD10B5BF
S31508007C70FCF705FD544C6168897B884203D00846A9
S31508007C80FCF7F5FC50B9FCF7FDFC0146606890F975
S31508007C900F00814204D0FCF7F9FC08B1012010BDA1
S31508007CA06068008AFDF7CBFD6068408AFDF7CFFD66
S31508007CB06068007B012818BF0020FDF7AAFD002098
S31508007CC010BD10B5464C0020207001F008FE20B902
S31508007CD02046BDE8104001F035BE02F025F808B18F
S31508007CE002F053F863E080B5002000F015F828B1DB
S31508007CF0002000F005F808B1002002BDFF2002BDF3
S31508007D0031480068407B02281CBF1128432801D14E
S31508007D1001207047002070472B480068007B012827
S31508007D2018BF022804D003281CBF0628072801D13B
S31508007D3001207047002070470020704700207047D8
S31508007D407047704700207047012070477047002031
S31508007D50704700207047704770470020704780B50D
S31508007D600020FFF7CDFF20B10020FFF7D5FF00B1B7
S31508007D70012002BD80B50020FFF7C2FF30B11248CE
S31508007D800068007B032801DA002002BDFF2002BD3F
S31508007D9010B5040004D0E5210FF26800FEF798FE3E
S31508007DA008480068482101FB040007494860BDE807
S31508007DB010405CE704484068008A704702484068FB
S31508007DC0408A704780EF0020D8FB0020B9EF0020DA
S31508007DD0BAEF002088EF00208CEF002090EF0020FB
S31508007DE0C8FB00207047002070470020704702F04B
S31508007DF028B87047704701F001BB02F05EBB01F07E
S31508007E000ABB0000656D6265722D6D756C74692D0F
S31508007E106E6574776F726B2D737475622E630000CE
S31508007E2038B504460D46012002F09AFC5D48002D3F
S31508007E3012BF00210178491C01705B4844705B48F9
S31508007E40FDF7AEF9BDE83240002002F089BC10B556
S31508007E50002814463FD0402823D0882818BF8928F0
S31508007E6040D08D282FD08F2846D151480078042835
S31508007E700DD144B14F490220087040F60620BDE8EE
S31508007E80104002F06FBCFDF74EFC312030E00120B7
S31508007E9001F0AAFAFDF747FC002C0CBF31200020A0
S31508007EA026E04048444900780978884204D2BDE86B
S31508007EB0104000210120B3E7002001F095FAFDF7F4
S31508007EC032FC402014E0002001F08EFA0021202028
S31508007ED0FFF795FF0BE0012001F086FAFDF723FC7A
S31508007EE0002005E0002001F07FFAFDF71CFC8D203C
S31508007EF0BDE8104002F054B8BDE81040C9213CE086
S31508007F002C480078022800D0704780B52B480078A6
S31508007F10042807D00C280ED129480078022818BF53
S31508007F207C2808D102F039FCFDF7FDFBBDE80240CC
S31508007F30002002F035B801BD38B50024FFF722FE4F
S31508007F4005461C48007810B9FDF779F80446284616
S31508007F50FFF71EFE002C1CBFBDE8314001F060BAD9
S31508007F6031BD80B5FFF7E8FFBDE804404FF4A051E6
S31508007F70144801F0F2BC40F205110FF25000FEF76A
S31508007F80A7BD38B5104C2068216C01EA0005ADB2D2
S31508007F90680705D5206C20F00400206401F07CFBFE
S31508007FA0256031BDECFF00206CF10020A4FD002007
S31508007FB0A1F1002098FD0020C0F10020E3FF002079
S31508007FC0E4FF002050FF002008A000406D61632DEB
S31508007FD0656D3235302E630070B504460D4616467B
S31508007FE0FDF7FDFB38B16078002E14BF40F0200085
S31508007FF000F0DF0060702946204602F0DAFCFF2810
S3150800800021D0934C0146201D02F0E1FE914D2888AF
S315080080102188401C288080B281420AD26888401C88
S315080080206880201D02F0E8FE02F040FC2888401E09
S315080080302880208829888842F3D3BDE8704086487E
S31508008040007801F06DBD70BD2DE9F04FA5B08246F0
S315080080500027FFF797FD7F4C2188491E2180FFF7EF
S3150800806097FD504602F0AEFB082390F80080407852
S31508008070DFF8E891029000975146D9F800001AF8FF
S315080080800000A0F10802D2B203A802F0AEFC03AECB
S315080080907078FFF760FE7248007808B360680028B9
S315080080A01DD0F078FDF74AF84146FDF74EF8074629
S315080080B096F9020000F166060020009008F1010317
S315080080C0DBB20022514605A802F08FFCFFF73EFE00
S315080080D0636872B2394605A89847FFF73DFE95E0F2
S315080080E0029800F00700022827D0FF208DF8040028
S315080080F0504602F067FB00F1010B584602F02CFFD0
S315080081000446A8EB0400801E45B2002D15D401A92B
S31508008110584603F0B5F8002879D1029800F0070010
S3150800812001280BD19DF8040004EB0B0104F06FFB4A
S3150800813020B99DF8040002F0B9FB68E09DF8040038
S31508008140D9F80010475C4749096800F801A0D9F832
S3150800815000001AF8000000F120019DF80400C9B2D9
S3150800816002F036FB9DF8040002F0C0FE00F00C0099
S3150800817004281CBF6519002468B280B20090631CED
S315080081809DF804009BB25246394602F0EFFDE91904
S315080081909DF80400C9B202F0D4FC33497078097816
S315080081A0884204D3BD210FF2C800FEF791FC9DF862
S315080081B0040002F096FE71788004800C40EA813152
S315080081C09DF8040089B202F08EFEF078FCF7B6FF3F
S315080081D04146FCF7BAFF02469DF80400032102F067
S315080081E05FFEB07800F166029DF80400D2B2042161
S315080081F002F056FE9DF80C209DF80400052102F0B9
S315080082004FFE9DF804A0504601F026FF0127504670
S3150800821002F04CFBFFF7A0FD384625B0BDE8F08F0D
S3150800822010B50C4C618829B1C9B21D20FFF7E7FDCE
S31508008230002060800D4802F0DFFDFF2803D0FFF71D
S3150800824003FF0028F6D010BD084802F0FBBD000069
S31508008250B8F10020DCFE0020CDFF00204CEF002006
S315080082608DFD002054EF002084EF0020BCF1002093
S315080082706D61632D726563656976652E630000001E
S3150800828038B504461B4D214600F03DF8E860211D2F
S3150800829000F039F8A86004F1080100F034F86860C5
S315080082A004F10C0100F02FF8286031BD7047F8B5CD
S315080082B00446114D114E80202860062030600720A4
S315080082C0286030688007FCD5002704EB870100F09A
S315080082D01AF87F1C042FA862F7D330684007FCD52C
S315080082E000262A6B04EB860100F00AF8761C042E99
S315080082F0F7D3F1BD383000400030004010A00040F0
S31508008300002004F010BB002004F01BBB70B5044627
S315080083100D46FFF737FC06462846FFF7B1FF20460D
S31508008320FFF7C5FF3046BDE87040FFF731BC0028AF
S3150800833048BF40427047000081B209B94BF6EF6169
S315080083400E4A1180000C08BF4FF6CE2050807047A9
S315080083500288130448BF4A405100018010467047FE
S3150800836038B5064C62212046FFF7F2FF054641F272
S315080083700B01A01CFFF7ECFF684032BDE6F00020B9
S31508008380EFF3118060288041C043C00F704700009A
S31508008390002181F3118870472DE9F04FDFF8104569
S315080083A091B061680F91072808BF032002D00828FA
S315080083B008BF0220DFF8FC5429686A6841EA0221EE
S315080083C0AA6841EA024100916968490703D5E1694B
S315080083D041F00201E1612968490703D5E16941F0E5
S315080083E00401E1610099EA69D140C90703D5E16949
S315080083F041F00801E1610021DFF8B064DFF8B874E4
S315080084003160012800F0FA81C0F0208203281AD0D2
S3150800841004D3042840F01A82616014E0386CC0075F
S3150800842003D5E06940F04000E061386C400703D5A9
S31508008430E06940F02000E061386C800703D5E06908
S3150800844040F01000E061FFF79DFB00F094FA8DF80C
S3150800845038004FF00009DFF86414DFF864A4C1F5AA
S3150800846080310120090B00FA01F1491ECAF83810BB
S31508008470090A07D1DFF84C14097819B1616C41F083
S3150800848020016164396CDFF84084DFF840240D91DF
S31508008490796C0C91D8F84C100B91D8F850100A91B9
S315080084A0D8F854100991D8F858100891DAF800103D
S315080084B00791DAF804100691DAF814100591DAF83B
S315080084C024100491DFF8081409681268039202223E
S315080084D02260DFF8002412688DF80420DFF8F823FC
S315080084E012688DF80520DFF8F42312688DF8062047
S315080084F04FF0FF32626200F0B2F9D2040AD56A6818
S31508008500D20707D5E269D20704D5326842F48072E9
S315080085108146326000F0A3F992040AD56A685206C9
S3150800852007D5E269D20704D5326842F4804281460B
S31508008530326000F094F952040ED5009AAB69DA401D
S31508008540D20709D5E269D20706D53268AB6900FABF
S3150800855003F31A438146326000F081F9120410D5FC
S31508008560009AEB69DA40D2070BD5E269D20702D442
S31508008570E269120705D53268EB69814698401043CF
S315080085803060D7480068C00308D5E069000605D5FD
S31508008590F07840F008004FF00109F07000206A6892
S315080085A0D2076A6848BF4FF480505206009AAB69F2
S315080085B048BF40F40050DA40D207009AEB6948BF3A
S315080085C040F48040DA40D207E26948BF40F40040F0
S315080085D0D20605D4E269920602D4E269520601D5AA
S315080085E040F01000E269120648BF40F480300840A7
S315080085F00290A52000F0B6F90120E063E069A16BBE
S3150800860011B1616A0142FAD0616A014200F0C7807D
S315080086100020E063F07840F04000F07000F0F2F9D6
S31508008620072038600F20C8F8000004F09FF90F985B
S31508008630A74960600D9838640C9878640B98C8F858
S315080086404C000A98C8F850000998C8F854000898C9
S31508008650C8F858000798CAF800000698CAF804002F
S315080086600598CAF814000498CAF824000298086005
S315080086709649039808604FF0FF309A490860954874
S315080086800068307094480068707094480068B0704C
S31508008690626AE0691040EA69336801994B400099BB
S315080086A00B400106490E01F0010143EA8123010648
S315080086B0890E01F0010143EA81030106C90E01F0A2
S315080086C0010101FA02F21A4300F47C7042EA0050F2
S315080086D03060FFF757FA00F0A3F9002020609DF8F4
S315080086E0380008B100F031F9F07879490968C9030A
S315080086F004D5C0F3C00109B120212162396C89076C
S3150800870003D5C10744BF0221F960396C490704D56E
S31508008710C0F3400109B10421F960396CC90704D5D1
S31508008720C0F3800109B10121F9603168D8F84C20FD
S3150800873012F0E00F05D0CA0503D5694B4FF48052F5
S315080087401A60D8F8502012F0E00F05D04A0403D575
S31508008750634B4FF400521A60D8F8542012F0E00F19
S3150800876008D0AA6921FA02F2D20703D55C4B4FF466
S3150800877080421A60D8F8582012F0E00F07D0EA694C
S31508008780D140C90703D5564A4FF40041116040F05D
S315080087908000F07011B0BDE8F04FFFF7F9BDB9F1F0
S315080087A0000F7FF437AFDAF818004849DFF838B118
S315080087B040084000CAF818004448806840F00400A1
S315080087C0886040F20721BBF80000884202BFBBF868
S315080087D002004FF20F01884205D14CF23C30ABF84B
S315080087E002004FF00109012004F0FAF8B9F1000F70
S315080087F003D04FF20F00ABF8020011E700F0BBF808
S315080088000446A52000F0AEF800F0FCF8FFF7C0FD1E
S31508008810364D2E68286840084000286000F0F8F8B1
S31508008820334FD7F80080386820F04000386000F0F1
S31508008830EBF8C7F800802E6000F0EAF80CB100F0FB
S3150800884084F811B0BDE8F04F00F0EAB811B0BDE801
S31508008850F04F40F23C410FF2A400FEF739B9204A26
S3150800886012687047134ACBB21360C1F307235360EB
S31508008870C1F30741916000231E490B601368002B62
S3150800888004BF5368002B01D192681AB10A6842F0F6
S3150800889001020A600A6842F400720A600A6842F035
S315080088A080020A6078E51449DCE70000FCFA00203B
S315080088B00400004008BC004014A00040000000006E
S315080088C0044000409807080814A8004008ED00E096
S315080088D000E100E008B0004008B2004008B40040DB
S315080088E000E200E080E200E00000002094ED00E0F5
S315080088F0008000402000004000016000736C656540
S31508008900702E630003480188034808237F22FCF77A
S3150800891019B800BF9EAD02080CFC00202D4800685F
S31508008920C00701D42C4870472C48704780B5FFF71C
S31508008930F5FF2B49096801B9400802BD80B5FFF764
S31508008940EDFF400802BDFDF722B9264801218160E6
S315080089504EF6BE214160012101607047224901207F
S3150800896008607047A52805D11E484DF6AD614160DF
S315080089700221016070471B480068C00701D5012025
S3150800898070470020704780B51849194A10200860BA
S3150800899018491948007858B103280CBF002001204F
S315080089A0106040F6510008600020FDF7A8FB06E0BD
S315080089B0022010604FF400600860FDF7A1F8072157
S315080089C00E4801600021016410200D49086000204E
S315080089D002BD00001C400040001BB70000366E01B7
S315080089E020400040006000400860004080E100E050
S315080089F0080000400C600040B6FF002014A00040AC
S31508008A0000E100E072B6704700BF30BF00BF704794
S31508008A10BFF35F8FBFF34F8FBFF36F8F70470000B1
S31508008A2062B6704710B52648264A002141654FF4BC
S31508008A30804425490C6004210160C4601621116038
S31508008A4000214165416D41F060014165162000F045
S31508008A5005F81E4908701E48046010BD162807D17F
S31508008A601C480068800900F0010080F0010070478A
S31508008A700020704710B512484FF48041C1600421A8
S31508008A8001601620FFF7EAFF104C227801468A4259
S31508008A9018BF21700DD1501E8041C00F20701620BE
S31508008AA0217804F05DFB2178481E8041C00F2070B4
S31508008AB02178BDE81040162004F052BB00000000E3
S31508008AC014A8004020BC004080E100E0A5FF00207B
S31508008AD000E100E008B4004000B12120704700B171
S31508008AE0704710B52B480468608828B140F2AB215E
S31508008AF00FF2C000FDF7ECFFA188C9B2A01D00F077
S31508008B009BF90020A080208010BD704780B50B46D9
S31508008B10114620B9184600F08FF9002002BD212021
S31508008B2002BDFFF71BBFF0B51B4B1D4A1C68128818
S31508008B301A4D0FE0278810F8016B3F19BE71268879
S31508008B402F88761C96FBF7FC07FB1C662680A688F2
S31508008B50761CA6800E46711EF6B2CEB1A688571EA2
S31508008B60BE42E7DB18680F4B0F491C7824B900880A
S31508008B70088023201870F0BD098801802321197008
S31508008B80038841888B423ABF511A5918591A81806D
S31508008B90F0BD00000CF100201CF1002064930008D1
S31508008BA0BCA902085CFA002060FA002070477047EA
S31508008BB070477047756172742E63000010B50446DD
S31508008BC0FEF7E0FF464930200860464908604649F6
S31508008BD008601020454908604FF20F01200A002856
S31508008BE0434808BF240204804180BFF35F8F414891
S31508008BF000210160416040484049086010BD404876
S31508008C000168C90708D53F4A03211170016C490854
S31508008C1049000164012101600168090703D5016C57
S31508008C2021F008010164704780B5002000F009F8BA
S31508008C3030B9BDE80440FC210FF2DC00FDF748BF5F
S31508008C4001BD2DE9F044304C21680D1A15F01F01BD
S31508008C5005D0002852BF6D1A681A00F120052B4866
S31508008C60A5F12006A84224BF2948864203D3EFF37C
S31508008C700880854201D300202DE0FEF783FF824657
S31508008C802448006810F0010718BF03F087FE206823
S31508008C9001468D4206D2A84224BFCD2100F801190B
S31508008CA0F9D206E02038002201E000F8012B8842BC
S31508008CB0FBD32560304603F076FEE22001E006F895
S31508008CC0010BAE42FBD30FB103F050FE5046FEF740
S31508008CD05FFF20682038BDE8F0840B4800687047BD
S31508008CE03020004030C8004030C0004010E000404E
S31508008CF0000000201C4000400400FA050CED00E0CE
S31508008D0018A00040D4FF00207CF10020D8E4002001
S31508008D10540D002094ED00E06D6963726F2D696E45
S31508008D207465726E616C2E630000000030B52248CF
S31508008D3001680020002201249440CBB2234213D0BC
S31508008D400FF284001D4C30F8120006284CF23C3213
S31508008D504FF20F031DD16088984216D12188080A60
S31508008D600B2812DA084612E0521C92B2082AE2D3FD
S31508008D701349088140F201720889904204D11148CA
S31508008D80D0E90023C1E9002330BD4FF4C0606280FA
S31508008D90EEE740F20725A84201BF6188994221887B
S31508008DA0A942E5D162800846E2E705480089000A3B
S31508008DB070470348008970472C00004000000020D7
S31508008DC0C0F50020900000200104020401030105FB
S31508008DD0060007020309010970B5B34C204602F0E4
S31508008DE031F8D8B9204602F007F8FF28044615D00E
S31508008DF0AE490968405C851EE9B2204601F093FF3A
S31508008E000646E9B2204601F09CFE2146304600F0AF
S31508008E10F8F82046BDE8704001F048BD70BD03462D
S31508008E200A469FA10420FFE70CB480B502AA00F009
S31508008E303DF801BC5DF80CFB21B103460A4699A131
S31508008E401120F1E7704700B587B0FDF7EBFA00216E
S31508008E5005910246502104910023542103910120D3
S31508008E60002102910191924900910FF25421FFF7D6
S31508008E70DBFF90488179C378827803910188029153
S31508008E80417901910179009142200FF24021FFF7C3
S31508008E90CBFF07B000BD10B504462146824801F055
S31508008EA096FF2046BDE8104001F0F2BC2DE9F04FD0
S31508008EB085B005460C469046002600F099FAF8B9A2
S31508008EC004F08BFAE0B1012001F087FC8246BAF182
S31508008ED0FF0F15D0002101F07BFC294601A804F0FC
S31508008EE082FA05469CB900F087F830B9504604F076
S31508008EF0F2FA10B1042000F077FA504601F0D6FCD9
S31508008F0005B0BDE8F08F8DF804200125641C207893
S31508008F100028E8D0A0F130010A2905D20A2101FB70
S31508008F200600A0F13006F1E700F066F80028E4D163
S31508008F3022780025422A01A80ED0442A1AD0462AA9
S31508008F4025D0572A0DD0622A3AD0662A2AD06C2A0A
S31508008F5025D0702A26D0D6E758F8040B8DF80400D9
S31508008F60D3E758F8041B8DF8041002250904090EE6
S31508008F704170CBE758F8041B8DF804100A0A4270B2
S31508008F8004250A0C8270080E8DF80700BEE758F80B
S31508008F90041B504601F095FD0028B7D0ADE758F8F8
S31508008FA0046BB3E7012358F8041B662A08BF02239B
S31508008FB0F2B2504601F067FD002808BF0026ECE72C
S31508008FC03A4858F8041B00681AF80090CFB2FF2FE9
S31508008FD09CD017F800B00BEB0901C9B2504601F056
S31508008FE0B0FD002889D1CDF800B000233A4649469D
S31508008FF0504601F0BBFE89E72A4601A9504601F012
S315080090005EBD2DE9F043122885B080460D4609D08D
S315080090103A281DD04FF6FE71884204BF284600F054
S31508009020F2F934E02148244F00682E5C08E028460F
S3150800903001F0C8FB2146FFF776FD38682D5C203E17
S31508009040FF2D24D0F6B2212EACBF20243446EEE7FD
S3150800905000F0C7FD8146FCF7F7FB0646FBF712FB57
S315080090600746FBF70CFB0446FCF7E6FB02461048EE
S315080090700FF260010390CDF8109023460F48006860
S3150800908040880290019600973B20FFF7CDFE2946BF
S31508009090404605B0BDE8F04300F0ACB9000000005A
S315080090A0574600006C70000078F100204CEF002055
S315080090B00CFC0020A0AD020854EF0020D8FB0020CD
S315080090C0424238704242424257424200424242427B
S315080090D05742000057424257573870420000000076
S315080090E02DE9F0470446884691469A4600F025F948
S315080090F0002801BF25460FF26020285C012823D1ED
S31508009100DFF8286256F82570FEF73CFD0021B98085
S3150800911039807980FEF73CFD06EB85000669FEF787
S3150800912031FDDFF80C220021B18031807180A9540D
S31508009130FEF72EFDFFF73DFD53464A4641462046BB
S31508009140BDE8F047FFF7C8BC2120BDE8F08710B599
S315080091500446FFF72BFDDFF8D40100EB8400006915
S31508009160808810BD2DE9F84381464C46DFF8BC01DE
S3150800917000EB840088460669484600F0DEF808B128
S31508009180012037E0DFF8A851605D05EB440760B1C0
S31508009190B8887188884208D1FEF7F4FC665D00211C
S315080091A06155FEF7F5FC304624E04846FFF7FEFC1D
S315080091B0B088F0B1FEF7E6FC71880FF2A81289199B
S315080091C0897988F800104FF6FF78718832F81420EC
S315080091D000F030F87180B1884144B180FEF7D8FCC0
S315080091E0605D20B1B888404504BF3088B88000204B
S315080091F000E02620BDE8F2830FF25C11415C0129EC
S315080092000AD10FF24C11494A31F8101052F82000D1
S315080092108088081A80B270470020704780880FF24D
S31508009220301333F81110891A884201DA0120704781
S3150800923000207047491C91FBF2F302FB131170479B
S315080092402DE9F84F804647460FF20C10385C012886
S315080092508B46164638D135480FF2101950F8274074
S315080092600FF2F80A002514E0FEF78CFCA18801B974
S31508009270012522881BF8011B1219917121883AF8D9
S315080092801720FFF7D7FF2180A188491CA180FEF788
S315080092907FFC3046461EC0B288B1002241462046B1
S315080092A0FFF7BCFF0028DFD11DB14046FFF717FCCA
S315080092B0002517F809000028EFD1222005E04046CE
S315080092C0FFF70DFC002000E00120BDE8F28F80B515
S315080092D001460FF284028A5C012A05D1134A52F824
S315080092E021108A88002AFCD1FFF71BFC002002BD4A
S315080092F00CB438B504460D46FFF707FC04AB2A46FE
S3150800930021460C4804F091F90FF24C012046415CC5
S31508009310012907D1054951F82000808810B1204657
S31508009320FFF7DDFB32BC00205DF80CFB0CF10020DA
S315080093305CFA00200D8B00087047042806DA0FF245
S315080093401801415C481E8041C00F704701207047D4
S3150800935080000000000000000100000080000000FE
S31508009360000000008000000000000000010000006E
S31508009370002204F06DBA000062F30F2262F31F4266
S31508009380401810F0030308D0C91A1FD3DB0748BFDB
S3150800939000F8012D28BF20F8022D130030B414461A
S315080093A01546103928BF20E93C00FAD8490728BFD6
S315080093B020E90C0048BF40F8042D890028BF20F892
S315080093C0022D48BF00F8012D30BC7047C91818BFD8
S315080093D000F8012DCB0728BF00F8012D704770470C
S315080093E00EB403B07047704770470CB402B07047AC
S315080093F000207047002070477047704770477047D5
S31508009400704770477047704770477047002070472D
S31508009410704770477047704770477047002070471D
S31508009420FBF7EFB870B5044643380FF2840508D049
S31508009430401E012809D9801E01280ED9C01F32D026
S315080094402AE0BDE87040FEF72BBB002600E00126A7
S31508009450FEF726FB0028FAD12EBB144E307810BB37
S31508009460012030700020FDF729FD452C11D00BD3C3
S31508009470472C01D003D307E040F6010001E040F68F
S315080094800200FFF79BFB04E040F216312846FDF781
S315080094901FFB0020307070BD2846BDE870404FF4B1
S315080094A04A71FDF715BB70BD00000000B0FF002033
S315080094B0656D6265722D636F6E6669677572617434
S315080094C0696F6E2E6300000010B5DFF8200400688F
S315080094D098B9FEF757FB0446DFF81404017800290B
S315080094E018BF052904D1032100F8041B00F02AFA45
S315080094F02046BDE81040FEF74BBB10BD2DE9F047EE
S31508009500DFF8F043DFF8E85327782978DFF8DC83BB
S31508009510002028710FF2004051B9D8F8004014B95C
S315080095209D21FDF7D5FA0020C8F80000A047B1E054
S3150800953003291CBFA321FDF7CBFAFF26FF2F2670B0
S315080095400CD0384601F0D7FCFEF705FC384600F08B
S3150800955075FD384601F0AAF9FEF7FEFB0020687093
S3150800956000F082FC002800F083802078012701F0B3
S31508009570C2FC8046FEF7EFFB2078DFF87C9301F00B
S31508009580B5FC00F00C000C2816D1207801F09FFCE1
S31508009590824601F0E1FC99F8001010F80A00052946
S315080095A002D1062808D106E001291CBF032908298B
S315080095B002D1072800D10027207801F097FC00F097
S315080095C00C00082804BF99F80000082834D09FB377
S315080095D000F0AAFB88B1207801F088FC00F00C00A6
S315080095E008280AD1207800F0DBFBC44F3968887355
S315080095F0207800F0DDFB3968C8734046FEF7C8FBE3
S31508009600D0B141212078FEF7CFFA18B92078412148
S3150800961002F0D8FD207801F049F92670FEF7B2FA73
S31508009620064603202870281D00F08CF93046FEF700
S31508009630AFFAFEF746FB17E0207800F08AF80446F2
S315080096406878AF49C0074EBF0020AE48007808705A
S31508009650FEF798FA06460120287001212046FEF7F3
S31508009660DFFB3046FEF794FABDE8F047FEF774BB19
S31508009670FEF788FA064600202870D8F8000010B1D0
S31508009680281D00F05FF93046FEF782FABDE8F0477C
S31508009690FEF717BBBDE8F08780B595480178012924
S315080096A004D0022906D004290BD010E0BDE80140F9
S315080096B0FEF761BCFCF737F8BDE80240312000F040
S315080096C06FBC05210170BDE8014004F03ABABDE857
S315080096D004404FF4B4710FF24020FDF7F9B938B5DC
S315080096E0FEF750FA824D04462878052803D040F242
S315080096F0771100F02AF8002028707C48006810B11D
S31508009700281D00F01FF92046BDE83240FEF740BA92
S3150800971070B50446FEF736FA754E054630780028C9
S3150800972018BF052803D04FF4C27100F00EF80420C4
S3150800973030704FF6FF7084421CBF204601F012F8C5
S315080097402846BDE87040FEF723BA0FF2CC10FDF7A5
S31508009750BFB92DE9FE4F804601F0AFFB8DF8050035
S31508009760694F38689DF8051018F80000401A8DF8FA
S315080097700400404601F0BAFB00F00C0004280CBFB8
S3150800978001250025404601F0C7F8FF2883460EBF8D
S3150800979000273968475CDFF874915D4CFF20661C2A
S315080097A089F8000000F0C0FA58B1404601F09EFB67
S315080097B000F00C00082804D1404600F0E3FA012026
S315080097C08BE00DB3404601F0A3FB06464FF6FF704B
S315080097D048F6410A864218BF48F6610AFEF7EEFACD
S315080097E00146201D03F09BF83146A01D03F097F8AB
S315080097F0FEF7E0FA014604F1080003F090F804F1D8
S315080098000A0004F10A060290002000909DF8043030
S315080098109DF805204146304601F0E7F89DF804001A
S31508009820861947B1002000903B460022594630462B
S3150800983001F0DBF8BE196DB1404601F048FB4078EF
S31508009840800726D50298311A4246C9B201F0DFFFD1
S3150800985086191EE0A078617801EB002080B2410BE2
S3150800986001F0010181F001054DF6FF7101EA000AD8
S315080098700AF00700032805D1601C01F06DFB0019EA
S31508009880407804E01C480078082802D1072089F8A7
S3150800989000004046FEF786F908B14AF0100A1FFA9A
S315080098A08AF1601C03F03BF81AF0070F04D1194837
S315080098B00178491C017004E010480068017E491CC3
S315080098C00176301BE170401C2070301B7F2803DBBB
S315080098D04FF4F671FFF739FF2846BDE8FE8F0448B6
S315080098E00178481E8041C00F7047000030FE0020F6
S315080098F098FD0020A8F1002083F10020D8FB002065
S31508009900C0F10020C1F100204CEF0020A1F1002099
S31508009910A4FD002024FE00206D61632E6300000074
S3150800992038B544784568FEF72DF9824A0C2161431B
S315080099308B585B1BB3F1004F98BF8D50BDE8324082
S31508009940FEF726B910B5044604F0B3F960600420A2
S3150800995020702046BDE81040E2E738B504460D46BB
S3150800996004F0A7F928186060012020702046BDE899
S315080099703240D5E710B50446207860B1042806D0F1
S3150800998004F097F96168421AB2F1004F01D8002035
S3150800999010BD081A10BD4FF0FF3010BD70B5044653
S315080099A004F087F90546FEF7EDF8064660686FF09D
S315080099B0004100F02CF8401920603046BDE87040A0
S315080099C0FEF7E6B870B504460D46164604F071F97A
S315080099D0002156B1FF22327007E0121AAA4202D2BB
S315080099E0154606B13170491C083422680AB928465A
S315080099F070BD1378002BF6D0042B04D05268831A56
S31508009A00B3F1004FE9D806B13170002070BD0022CD
S31508009A10D8E738B5044604F04CF905460DE0017858
S31508009A2051B1042904D04168691AB1F1004F03D82D
S31508009A300421017061688847083420680028EED13F
S31508009A4031BD10B53B490C2202FB001404F031F974
S31508009A502168401AB0F1004F06D86068FFF7D9FFB1
S31508009A602046BDE8104099E710BD70B5324D334920
S31508009A70097804466878884204D3E5210FF2C000C5
S31508009A80FDF726F86E78701C68700C21294801FBD2
S31508009A90060001214460017200E04E7054F8081B6C
S31508009AA00029FAD1FFF77AFF304670BDF8B50546AA
S31508009AB04FF0FF300090204C207840B3FEF760FC52
S31508009AC028B940F219110FF27800FDF701F804F0F1
S31508009AD0F0F8184A0C2101FB052300251D72002306
S31508009AE005E0009EB54288BF354600955B1C657843
S31508009AF0DBB2AB420FD201FB03263568471BB7F131
S31508009B00004F04D9367A2D1A0EB9002DE9D1FEF781
S31508009B103FFC0020F2BD00A804F0E1F80120F2BDE8
S31508009B20044A0C2303FB00200121017270470249F5
S31508009B3008707047E0F50020C3FF002050A7020810
S31508009B406576656E742D636F6E74726F6C2E630026
S31508009B506D480068408870476B480068001D70476C
S31508009B6069480068C07E704770B5674C674D2168C4
S31508009B70674E4873022819D100F0D6F878B92068DC
S31508009B80007B001F022824BF3046FFF7DBFE206853
S31508009B90007BC01E032824BF2846FFF7D3FE206893
S31508009BA04069C00054BF9024BC240AE000F0BCF809
S31508009BB010B100F0EBF803E03070287000F04FF9B0
S31508009BC09124204604F037F950B9234613224DA1B3
S31508009BD00320FFF70AFC2046BDE87040FEF70DB9E2
S31508009BE070BD49480068407B00F00F007047464842
S31508009BF00068407B00F00F00022801D10120704761
S31508009C000020704710B5FEF71FFBE0B1414801F090
S31508009C1019F9C0B1404801F015F9A0B104F015F9D9
S31508009C2088B104F00AF970B94FF0FF313B48FFF7E5
S31508009C30EEFE04464FF0FF313948FFF7E8FE84424E
S31508009C4002D2204610BD002010BD38B5044600F0EB
S31508009C506BF820B12046BDE8324000F08BB82A4D9B
S31508009C60FFF7C5FF28B92868407B032801D0932051
S31508009C7032BD04F022FB20812868C07BA0722868C8
S31508009C80807BE072204605F0F2FD0020207304F187
S31508009C90140104F1100005F0A0FEE081002032BD99
S31508009CA010B5002300E05B1CDBB28B4205D210F82E
S31508009CB0014B9442F7D0002010BD012010BD80B59D
S31508009CC00821FBF753F908B1002002BDA52002BD03
S31508009CD00D480068407B01281CBF3128332801D174
S31508009CE0012070470020704710B50446FAF7CEFCED
S31508009CF010B905490968CC7310BD03480068807B14
S31508009D007047000042420000D8FB002034FE0020C5
S31508009D1040FE0020ACF1002090F1002028E3000866
S31508009D20ACAD0208FBF70EBC80B504F0CEFA0328EA
S31508009D3001D1012002BD002002BD80B5FFF7F4FF66
S31508009D4038B1BDE804404FF490710FF20800FCF7F3
S31508009D50BFBE01BD656D6265722D737461636B2D3F
S31508009D60636F6D6D6F6E2E630000000000207047F4
S31508009D7000207047B5207047B52070477047704778
S31508009D80002070477047704770477047704700203B
S31508009D9070470020704701207047704700207047C1
S31508009DA080B56C210FF21C00FCF792FEFF2002BD65
S31508009DB080B572210FF20C00FCF78AFE002002BD66
S31508009DC00020704772663463652D737461636B2D6A
S31508009DD073747562732E6300F8B50446DFF8D00312
S31508009DE00078002802BFDFF8CC63F06800280D462B
S31508009DF025D1DFF8C40300780A2818BF022D1ED122
S31508009E00FDF7C0FEB278082A074616DA012D02D1F8
S31508009E109019047104E0311D701DFCF757FF347169
S31508009E20B078401CB0703846FDF7B2FE204600F008
S31508009E302FFDFFF749FB0120F2BDFDF7A9FE002023
S31508009E40F2BD80B5FDF7CEFFDFF86803C17829B902
S31508009E500121C170BDE80140FFF736BB01BDDFF83F
S31508009E6054130020C870704770B5DFF844030078B3
S31508009E70002839D1FDF786FEDFF83843DFF83C5372
S31508009E800646A07860B121792970421EA270611D2C
S31508009E90D2B2201DFCF71AFF3046FDF779FE21E005
S31508009EA03046FDF775FEE068F0B9E078022802D082
S31508009EB005F07CFF28702878FF2810D1E07870B16B
S31508009EC0FDF791FFFDF747FF06F04FF9FF282870C9
S31508009ED003D0FDF78AFF00B9E070FDF73DFF28784B
S31508009EE0FF2801D0012070BD002070BD2DE9F0418A
S31508009EF004460D46FDF75BFEAE4E0020F070FDF7FA
S31508009F0041FE8046F06820B14046FDF741FE00203C
S31508009F1013E0AB480078052808BFFFF7E0FB00F020
S31508009F200EF8070008BFF4604046FDF731FE1FB182
S31508009F3005B1A047012000E00220BDE8F08110B578
S31508009F40FDF720FE9B499E4B8A781B78C9781A43F1
S31508009F50114305D19B4909784C1EA441E40F00E042
S31508009F600024FDF715FE204610BD10B59449914C06
S31508009F7000200870FF20914908700020E060FEF775
S31508009F80EFF9207000208F4908708F4908704FF448
S31508009F90A0518E48FFF7E1FCBDE81040FDF7FBBD78
S31508009FA02DE9F843854E8A4D81463078FF2808D139
S31508009FB02878FE2805D04FF4B3710FF22420FCF759
S31508009FC087FD28787B4FDFF8FC817D4C811F0129AE
S31508009FD00DD805212170494603F01EFE08B900F088
S31508009FE014F8307800F062FCFF20307003E087F840
S31508009FF0019000F00AF82878042804D0F878012897
S3150800A00004BF0220F870BDE8F183032020704046A3
S3150800A010FFF798BC10B5694C217881420DD10846E6
S3150800A02000F044FCFDF7AEFDFF212170FE21684AD1
S3150800A0301170BDE81040FDF7ABBD10BD38B55D4DDC
S3150800A04069780446FDF7B0FD28B969782046BDE869
S3150800A050344002F0B7B831BD2DE9F8430446FF2C69
S3150800A06005D140F2B7110FF27810FCF731FD032045
S3150800A070FFF7BAF9574D204600F038FF00F00C00FC
S3150800A0802870FF206870204600F030FF00F00C00B2
S3150800A09008285CD028780C2859D1204600F017FFEC
S3150800A0A0074602F035FC064606F44C48384600F0EA
S3150800A0B053FFC05D68704FF6FF794FF44060064263
S3150800A0C006D0F81C02F024FC484508BF48F04008B2
S3150800A0D006F44060B0F5006F06D1781D02F018FC52
S3150800A0E0484508BF48F01008697801294CF6500021
S3150800A0F017D0022918D0042908D0062925D00729FF
S3150800A10025D0082918D07C2911D04FE0B8F5484F3A
S3150800A11018BFB8F5084F49D12046FDF741FD00287C
S3150800A12011E0B8F5484F0EE0B8F54C4F0BE0B8F51E
S3150800A1304C4F0CD0804506E04CF64040804535D162
S3150800A1401D480078052802D030E080452ED12046EB
S3150800A15000F0C7FE0546204600F0C8FE00F00C00D9
S3150800A160082816D0A80614D54FF6DF7000EA0501B0
S3150800A170204600F0B8FE204600F09FFE0546204621
S3150800A18000F0A5FE00F0E8FE4119C9B2204600F02D
S3150800A190D8FC2146104800F01AFE204600F078FB4D
S3150800A1A00E480078BDE8F243FFF7BABCBDE8F18374
S3150800A1B08DFD002024FE002083F10020A8F1002058
S3150800A1C098FD00209CFD002038FC002050FF002050
S3150800A1D0A1F10020E3FF0020ACF10020CDFF002014
S3150800A1E06D61632D617262697465722E6300000089
S3150800A1F038B5FEF7CDF80022002100A806F0BEF813
S3150800A20008B1009832BD03F027FE04460123002258
S3150800A21008210020FEF764FFFCF7F1F80546FEF773
S3150800A220C4FD02462B460FF2A441012006F024F98C
S3150800A230FCF7EBF80546FEF7BCFD02462B460FF287
S3150800A240A441012006F018F940F2A175FEF7ADFD0C
S3150800A25025FA00F0C0070AD5DFF8EC53287806F08F
S3150800A26069F9287806F0F0F9287806F0F0FA64B16A
S3150800A2700FF2A4420FF28C412346012006F0FCF8A7
S3150800A28098210FF29C40FCF723FC06F0E9FD02F04A
S3150800A290CDFB06F01BFE06F070F807F046FB022120
S3150800A2A0022007F033FF02F0B0FE07F03CFFDFF8AC
S3150800A2B09C1341F2020008805220DFF894130880AC
S3150800A2C0DFF8901308804FF40040FAF70EF8CAA496
S3150800A2D00FF25C4501E006F0DAFDFEF73FFB03F0FE
S3150800A2E0B2FE07F050FBFFF727F808F03CFB002109
S3150800A2F0002007F04BFF0028EDD02A4621464FF6EE
S3150800A300FF7006F0BFF8E6E7DFF84C13098810235C
S3150800A3107F22FAF717BB03F0C8BF03F0CEBFFFF7DB
S3150800A32060BC08F0D8BF38B509F003F90446002523
S3150800A330284609F098F9A04201D1284632BD6D1C7D
S3150800A340EDB2022DF4DBFF2032BD38B5044606F027
S3150800A35093FD050008D14FF4A851204609F085FB66
S3150800A360054606F092FD284632BD30B585B000F0A8
S3150800A370AEF803F09AFF38B16088B0F5006F03D1E4
S3150800A380601D05F0FFFF13E0204606F027F80500DC
S3150800A39015D1002500A9284609F003FD002804BFA9
S3150800A3A09DF80000002805D12146284609F004FD3D
S3150800A3B0054604E06D1CEDB20C2DEBDBB42506F06A
S3150800A3C064FD284605B030BD38B500F080F8204653
S3150800A3D006F002F8050003D1204609F039FD0546C6
S3150800A3E006F053FD284632BD38B5FF2504468DF8DC
S3150800A3F0005000A905F0B7FF10B19DF8000032BD66
S3150800A400FDF79CFC954901EB0411097B814207D1B4
S3150800A410204606F092FD18B1204607F038F80546A2
S3150800A420284632BD70B504460D4605F09EFFF8B9BC
S3150800A430204607F02AF80646FF2E07D0FDF77EFCD1
S3150800A440864901EB06110A7B824201D0002070BDC5
S3150800A450488828808888688088792871012120465C
S3150800A46007F019F868710021204607F014F8A8715A
S3150800A470012070BD2DE9F04105460E46904607F0CD
S3150800A48004F80746FF2F4FF6FF7413D0FDF756FC66
S3150800A490724901EB0711097B81420BD10EB90122E2
S3150800A4A002E0012E06D100224146284607F017F899
S3150800A4B000B104882046BDE8F08110B500F007F821
S3150800A4C0204602F024FDBDE8104006F0DEBC044636
S3150800A4D006F0D0BC38B50C4661490968455CAA4205
S3150800A4E00AD200922B460FF230220FF25C2102208C
S3150800A4F005F0C2FF002032BD002100912B4601461F
S3150800A5000022204600F071FA284632BD70B598B090
S3150800A51004460D46164606F0ADFC522203A93046FF
S3150800A520FFF7D8FF060011D00DF1090008F0FAFF71
S3150800A53002A808F0F9FF03A801909DF908309DF8D4
S3150800A540092000962946204602F015FC06F09DFCD7
S3150800A55018B070BDF0B599B004460D4616461F46AC
S3150800A56006F088FC522203A93846FFF7B3FF48B124
S3150800A57003A901910090029732461E9B2946204660
S3150800A58002F03AFC06F081FC19B0F0BDF8B50446B5
S3150800A5900D4606981646194600F00BFA0746FF2F91
S3150800A5A001D11820F2BD079807702046022804D961
S3150800A5B0C01E08D0401E0DD014E03B463246294640
S3150800A5C008F012FC0CE03B460C220C21304608F041
S3150800A5D08FFC05E03B460C223146284608F063FC12
S3150800A5E0044600E00224384600F060F92046F2BD31
S3150800A5F008221C49FCF76ABB25703E0010B50446C4
S3150800A6000846FFF722FB2046BDE8104005F011B9C1
S3150800A61005F00FB905207047002070470C207047D9
S3150800A620042070471048007870474B20704700B5E3
S3150800A63083B000A80D49082209F054FDDDE90001A0
S3150800A64002F041FD07BD0000A3FF002060F10020D5
S3150800A65064F1002066F100208EAD020828F2002081
S3150800A6604CEF00200CFC002046EF0020A0AD0208AD
S3150800A67010B582B0FFF72BFF0DF1010008F052FF6D
S3150800A68000A808F051FF9DF900209DF8011020460A
S3150800A69009F049FE06F0F9FB13BD38B504460D4628
S3150800A6A006F0E8FB2946204609F007FE08E038B51B
S3150800A6B004460D4606F0DEFB2946204609F086FECE
S3150800A6C0BDE8314006F0E1BB70470000526573658E
S3150800A6D07420696E666F3A203078257820282570B0
S3150800A6E029000000457874656E64656420526573B8
S3150800A6F0657420696E666F3A2030782532582028AE
S3150800A700257029002570656D626572496E69742029
S3150800A71030782578000000004552524F523A200002
S3150800A72061662D6D61696E2D736F632E630000007F
S3150800A730486143617053656E736544696D6D6572F2
S3150800A740537769746368000025706D736720746FAA
S3150800A7506F2062696720282564203E202564290029
S3150800A7607047000038B5002814BF04011024FDF70F
S3150800A77009FA0546FAF7F7FB20180F490F4C82B27B
S3150800A7804A60000C0860042020602846FDF700FA9D
S3150800A790206C40F00400206431BD80B5FDF7F2F965
S3150800A7A006490A6C22F004020A6404220A60BDE81B
S3150800A7B00240FDF7EDB900004820004008A000401F
S3150800A7C0FAF7D1BBDFF85C16096801EB4010704751
S3150800A7D0DFF854261268815470472DE9F0410400C9
S3150800A7E035D0FDF7CFF9DFF84416DFF844360E7892
S3150800A7F0FF228046FE2EDFF83C061BD100260E708F
S3150800A800DFF834C6DFF8346637781F70002708E0AB
S3150800A81007F1010E07F805E0DCF800507A555FFAF3
S3150800A8208EF796F800E005687745F1DB0EEB05062E
S3150800A83006F8012C1E78A6420BD24046FDF7A8F969
S3150800A8400520FEF7D1FD00211B20FDF7D8FAFF20D1
S3150800A8501CE0361B1E70DFF8E8350E780F78D3F843
S3150800A86000E0012507F80E50641E056817F805E094
S3150800A87081F800E0E4B2002CF0D17A550021304688
S3150800A880FFF7A6FF4046FDF783F93046BDE8F0819D
S3150800A89010B50446FDF776F9DFF8A4150968625C79
S3150800A8A0521C6254BDE81040FDF772B92DE9F0411B
S3150800A8B0054600F031F80446FDF764F9DFF86C2523
S3150800A8C0DFF86C35DFF86C65DFF87485FF2D1FD06F
S3150800A8D0D8F800106F5C7F1E6F547F27D8F800E009
S3150800A8E015F80E10394213D13168695C002705F84E
S3150800A8F00E701F787F1C1F70FF29376892F800E0DA
S3150800A90005F807E0157006BF2546FF240D46DDE766
S3150800A910BDE8F041FDF73CB980B5DFF824150968B4
S3150800A920415C090603D5FFF74DFF007802BDFF20FD
S3150800A93002BDB0B504460D46FFF7EEFFFF2818BF67
S3150800A940FFF7B4FFFF2DDFF8F87404D13868215CEF
S3150800A95001F07F0106E02846FFF79AFF3868215C78
S3150800A96041F0800121542046FFF72CFF0570B0BD49
S3150800A9700EB478B504460120FFF72FFF0546FFF70A
S3150800A98021FF0646FF2D08BFFF200FD0E1B228465B
S3150800A990FFF71EFF05A8002104E050F8042B06F86F
S3150800A9A0012B491CC9B2A142F7D3284672BC5DF8EF
S3150800A9B010FB70B504460D4605F11F000004400D56
S3150800A9C082B0C0B2FFF709FF0646FF2E0CD0294613
S3150800A9D0FFF7FEFE3CB1012000902B4600223146CF
S3150800A9E0204600F002F8304676BD73B500F0BBF895
S3150800A9F0085C15461E467119884203DA4FF4B07191
S3150800AA0000F0DAF866B1294601A800F0D9F802463E
S3150800AA1006989DF8041000903346204600F001F889
S3150800AA2073BD2DE9F843089CDFF808840546894676
S3150800AA3016461F460BE04A5D0A54491CB142FADB2A
S3150800AA40D8F80000BF1B751919F800900026FFB248
S3150800AA50BFB14846FFF7B6FE3018F1192029B2BF34
S3150800AA603E46C6F12006F6B2324624B901462846C5
S3150800AA70FCF72CF9E4E7012C08BF2946F8D0002199
S3150800AA80DCE7BDE8F1832DE9F04100F06CF882B00F
S3150800AA901600255C88461F460ED07119C9B2204695
S3150800AAA000F04FF808B1182007E0009733462A4609
S3150800AAB021464046FFF799FF0020BDE8F6810123AD
S3150800AAC0E1E70A4600E0521C1378002BFBD1521A24
S3150800AAD00223D2B2D7E7F8B5044601F11F00C50430
S3150800AAE002F11F00C0042D0E000E05B9012500B99C
S3150800AAF00120854223D08542DFF8386310DA401BEF
S3150800AB00C0B2FFF76AFE0746FF2F01D10020F2BD4B
S3150800AB10691EC9B2204600F02BF8316847540EE08A
S3150800AB208A420CD2411EC9B2204600F021F80446DA
S3150800AB303068205CFFF7BAFE3168FF2060540120B8
S3150800AB40F2BD38B500F00FF80D46215C2A462046BE
S3150800AB50FFF7C1FF28B129462046FFF739FE002036
S3150800AB6032BD182032BD0446DFF8BC0200687047C3
S3150800AB7004E0DFF8C0221268805C491EC9B20029C9
S3150800AB80F7D1704711B581B0DFF89C0200680C4612
S3150800AB909DF80410085C844203D34FF4F47100F066
S3150800ABA00BF8214601A800F00BF804469DF80400AE
S3150800ABB0FFF708FE201816BD0FF2AC20FBF788BF7A
S3150800ABC038B504460D46E9042078090EFFF7D0FF8C
S3150800ABD0207005F01F0032BD80B5FFF7D3FF00785F
S3150800ABE002BD10B51446FFF7CDFF047010BDB0B511
S3150800ABF0FFF7B9FF82B0255CFF2C03D14FF4027131
S3150800AC00FFF7DAFF05F11F000004400DC0B2FFF799
S3150800AC10E4FD0746FF2F0AD02946FFF7D9FD009520
S3150800AC20002322460021384600F0A0F83846B6BD73
S3150800AC30F8B504460D4616460120FFF7CEFD074631
S3150800AC40FFF7C0FDFF2F01D1FF20F2BD33462A468C
S3150800AC502021201800F00FF82118C9B23846FFF74E
S3150800AC60B7FD3846F2BD0CB480B502AAFFF7E0FF7F
S3150800AC7002BC5DF80CFB2DE9F0478046164699465E
S3150800AC80C24600250C460AE03A465046FCF71EF82E
S3150800AC907819BA44401EC5B2681CC5B2761CA542CE
S3150800ACA03CDA3078002839D0312818BF32280ED13E
S3150800ACB059F8041B0AF8011B3228EDD1681CC5B2E5
S3150800ACC0AC42A4BF08120AF8010BE5DA26E03428DC
S3150800ACD011D1291D59F8040B8C421FDB0AF8010B08
S3150800ACE0010A0AF8011B010C0AF8011B000E0AF8F2
S3150800ACF0010BE81CCFE7A0F1330259F8041B072A19
S3150800AD0038BF303806D3A0F14102072A34BF373896
S3150800AD1059F8040BC7B27819A042B5DBAAEB0800AC
S3150800AD20C0B2BDE8F08770B500F015F800F004F879
S3150800AD3000EB062080B270BD0646294620464BE742
S3150800AD4000B583B002238DF80420120A8DF8052079
S3150800AD500122009204E00D46691C0446C9B23BE78D
S3150800AD600A46014601A8FFF740FE07BD2DE9F54151
S3150800AD70089C1F464CB3254689B200A8FFF720FF5A
S3150800AD800646B9B201A8FFF71BFF07463046B84288
S3150800AD9038BF3846C0F12000C0B2A842B8BF054641
S3150800ADA09DF80400FFF70EFD80469DF80000FFF7AA
S3150800ADB009FDAAB207EB08013018FBF787FF641BE9
S3150800ADC0A919EF19A4B2002CD5D1BDE8F38170B545
S3150800ADD004460D46FCF7D6FE174B21781B68FF295B
S3150800ADE008BFED5403D0C9180E78EE540D702570BF
S3150800ADF0BDE87040FCF7CCBE38B50446FCF7C2FE89
S3150800AE002178FF22FF2908BFFF2507D00A4B1B68B8
S3150800AE10CD5C8D420EBF2270EA5CCA54FCF7B8FEC0
S3150800AE20284632BD48EF00204CEF002068F100208C
S3150800AE3046EF002054EF002058EF002045EF002091
S3150800AE4050EF00200078FF2801D10120704700202C
S3150800AE50704710B5044602E0FFF728FD2046FFF7C5
S3150800AE60CBFFFF28F8D110BD7061636B65742D6246
S3150800AE7075666665722E630010B50C46FFF7A2FC70
S3150800AE802018BDE8104001F043BD38B50C461546FC
S3150800AE90FFF798FC29462018BDE8344001F03FBD6D
S3150800AEA038B50C461546FFF78DFC255431BD10B54F
S3150800AEB00C46FFF787FC205C10BD80B500F016F83D
S3150800AEC000F076F801D1082002BD062002BD38B58B
S3150800AED00446FFF777FC05462046FFF7EEFF4019C4
S3150800AEE032BD0121C8E70A460121CEE780B5FFF742
S3150800AEF069FC407802BD80B5FFF7F3FF800B02BD01
S3150800AF0080B5FFF75FFC417841F01001417001BD43
S3150800AF1010B50446FFF7EAFF00F04AF804D05E21B0
S3150800AF200FF27810FBF7D4FD2046BDE81040062145
S3150800AF30A2E738B504460D46FFF7D8FF00F038F803
S3150800AF4004D064210FF25410FBF7C2FD2A462046AE
S3150800AF50BDE83840062198E780B501F0D9FC0146DE
S3150800AF608A0A42EAA2030FF2441003F00F03185CA0
S3150800AF704B0700D408B9FF2002BD490605D412F0D4
S3150800AF8003011CBF12F03001801CC0B202BD10B50F
S3150800AF900446FFF7ABFF00F00BF802D14FF4006050
S3150800AFA010BD06212046FFF767FF00F4406010BD7C
S3150800AFB000F00C000428704738B50446FFF702FC79
S3150800AFC005462046FFF792FFFFF7F2FF0CBF062063
S3150800AFD00B20401932BD80B5FFF7EEFF30E010B503
S3150800AFE00446FFF783FFFFF7E3FF02D14FF4004063
S3150800AFF010BD06212046FFF73FFF00F4404010BD74
S3150800B00070B50446FFF7DEFB05462046FFF76EFFE0
S3150800B010FFF7CEFF01D1A81D70BDA81DFFF79CFF45
S3150800B02006462046FFF7DBFFB0F5004F0CBF0220AF
S3150800B03008207119081A801D70BD80B5FFF7E0FF5A
S3150800B040BDE8024001F064BCF8B504460D46164654
S3150800B0500120FFF7C2FB0746FF2F1ED0FCF777FE3D
S3150800B060A104890C41EA803189B23846FFF73BFFD3
S3150800B0703846FFF722FF01463846FFF7A9FB314657
S3150800B0803846FFF756FC42F20C002040042803D14C
S3150800B09029463846FFF74DFF3846F2BD7061636BA7
S3150800B0A065742D6865616465722E63000300070D7B
S3150800B0B0000000000700090F0D000F15F8B504463B
S3150800B0C00025E01C01F024FC0646601D01F020FC6A
S3150800B0D04FF6FF77BE42044608BF012504D003F0A9
S3150800B0E0ECF8864208BF0225BC4208BF45F00405B5
S3150800B0F005D003F0DAF8844208BF45F0080528466B
S3150800B100F2BDF8B5054601F003FC06464FF6CF70CA
S3150800B11000EA06072846FFF7D1FF002448F6410152
S3150800B1208E4208BF052809D1E81D01F0F1FBAC499C
S3150800B1300988884214BF0224062412E04CF601004E
S3150800B14087421ABF4CF601408742012409D0FCF712
S3150800B150FDFD2846FEF762F90546FCF7FDFD05B13B
S3150800B1600824A04800782040F2BD2DE9F04F834618
S3150800B170884683B000250026404601F0C9FB9A4C54
S3150800B18082462068002804BF606800282F464FF0D2
S3150800B19003095CD04FF440611AEA010F0BD008F19D
S3150800B1A0030001F0B5FB4FF6FF7188420CBF02277A
S3150800B1B001274FF0050947F0080001905FEA4A6049
S3150800B1C017D44FF440411AEA010F16D00AF440602A
S3150800B1D0B0F5406F0CBF082002204844C0B2404476
S3150800B1E001F096FB009003F068F8009989B2814255
S3150800B1F001D1019F01E047F004070AF44040B0F589
S3150800B200004F04BF47F0800087B20AF44060B0F5EB
S3150800B210006F0BD109EB080001F07AFB804603F0BA
S3150800B22044F880450AD147F0100707E0B0F5406FAB
S3150800B23004D147F0200701E0002615B960680146E9
S3150800B24000E0216839B96D1CEDB2022DF4DBFF2050
S3150800B250BDE8FE8F761CF6B231F816201304F2D438
S3150800B260BBB29342F6D1BBF1000F05D081420CBFA9
S3150800B270802010208BF800003046E9E70000000027
S3150800B2802DE9F0478146884601F042FB054605F060
S3150800B290070605F4406A2F464846FFF70FFF04469F
S3150800B2A04FF6F77005405148007808280DD8DFE8B2
S3150800B2B000F087058705050A0C0C0700002E00E03C
S3150800B2C0012E7DD101E0032E7AD1390721D5002E32
S3150800B2D076D10A2801D1A00772D5B5F5004F18BF57
S3150800B2E0B5F5404F6CD10026E80648BF46F0800603
S3150800B2F0A80648BF46F4805606F00C00042861D11B
S3150800B30009F1070001F004FB0146FF2246F004009C
S3150800B3105BE0002E364FDCD0022E03D004D3032E7A
S3150800B3202FD04DE03B2058E04FF6CF7000EA0506D7
S3150800B3304846FFF7E6FE38B94946FFF716FFFF28E5
S3150800B34002D1FEF7F1FC08B10826CDE748F6410020
S3150800B350864235D10A2C18BF062C31D160070ED586
S3150800B360FEF745FC20B13868007B001F022827D36A
S3150800B37020480078022823D040F60406B4E70426BD
S3150800B380B2E714F0030005D102F097FF4FF6FF71FC
S3150800B390884215D10C26BAF1000F0DD0BAF5006F08
S3150800B3A0A2D0BAF5406F0BD10822134909F105005E
S3150800B3B0FBF7D6FC20B997E73868007B012893D0BD
S3150800B3C03A200AE0FF2200213046FFF73DFEFF281B
S3150800B3D00EBF182088F800000020BDE8F08700009E
S3150800B3E0C4F10020EEFF002078FF002083F1002042
S3150800B3F0D8FB002098FD00200CFC002038B5DFF8AB
S3150800B400801C0020087009F030F809F02DF909F0C1
S3150800B41008FA09F07EFA09F0BFFAFEF7A7FC00243D
S3150800B420DFF8605C09E02046FCF795FC09F0D6FADF
S3150800B43009F0D8FDFCF790FC641C2878E4B2844235
S3150800B440F1D320E038B5FCF74EFC04460025FF2C66
S3150800B45008D0FCF780FCFEF767FC00B90125FCF76D
S3150800B4607BFC4DB909F001F809F0FEF809F051FA2C
S3150800B47009F092FAFF2C00D00DB1FEF777FC09F01F
S3150800B480ADFA09F0AFFDBDE831400AF065B8DFF85E
S3150800B490F80B0068407B11281CBF4328412801D1BE
S3150800B4A0012070470020704710B50446FFF70FFDCE
S3150800B4B0801C01F02DFA4FF6F87188422046A4BF89
S3150800B4C0BDE8104000F005B800F05CF800F057F948
S3150800B4D010BD2DE9F041044609F092F8002837D14D
S3150800B4E000F046F94FF6FF7505D24188A9422FD0DC
S3150800B4F02046FFF71EFD002300220221204609F000
S3150800B50027F928B32046FFF7E2FC0646F77902F04A
S3150800B510CCFE804602F0C9FE4246394609F07EF85E
S3150800B52020B9BE210FF23C20FBF7D2FAB01C01F07D
S3150800B530EFF9A84204BF204604F0F4FB3078032153
S3150800B540084203D10121204601F0A6F9012000E0B6
S3150800B5500020BDE8F08138B50446DFF8640C0068C1
S3150800B560205C851AEDB2681A80B2009053189BB217
S3150800B57022462046FFF7FAFB29462046BDE8344016
S3150800B580FFF7DFBA2DE9FE4F002582460195FFF742
S3150800B5909EFC0646301D01F0BBF90746B01C01F0BB
S3150800B5A0B7F98046307800F0C00002903846FCF7BC
S3150800B5B001FB8DF80200FF2814BF4FF00109A946C8
S3150800B5C030780321084208D102F06FFE874202D084
S3150800B5D05FEA090402D0012400E00024B0790028BB
S3150800B5E073D002F062FE80450BD102F05EFE834600
S3150800B5F000225946504600F0C7F8002865D00020BA
S3150800B600AEE000F0B5F838BFB0F802B0F0D3404667
S3150800B61009F091F920B95046FFF763FC400514D5A7
S3150800B62070784007C346E3D550460AF084F900F01F
S3150800B63093FC401C4200D2B229465046FFF78BFFC6
S3150800B640707800F0FB007070D2E7707840071CD560
S3150800B65050460AF070F900F07FFC06466F1CF9B2F6
S3150800B66000F07CFC002E18BFFF2806D10022F9B294
S3150800B6705046FFF7B6FAC346BAE705EB4000811C09
S3150800B680C9B25046FFF74FFBB1E701AA00A94046E9
S3150800B69008F0F5FE8346DCB10298802804D04028DD
S3150800B6A016D19DF8000098B1307800F03F00307050
S3150800B6B0384609F040F910B902F0F7FD07463A4650
S3150800B6C00021404608F032FF002848D0012047E014
S3150800B6D00198B8B308F0CCFE8DF8010001980079FE
S3150800B6E000F0300002909DF80100FF2805D140F2D5
S3150800B6F023110FF27000FBF7EBF91CB30298102820
S3150800B70011D020281ED1B9F1000F07D09DF80210DC
S3150800B7109DF8010008F0BAFEA0B904E00198007986
S3150800B7200C2108420ED0F3795A464146384608F0AD
S3150800B730FFFE01980079019900F0F30040F004003B
S3150800B740087101259DF8000028B10121404609F03D
S3150800B7506EFB20B1C346002D8ED0302249E7022069
S3150800B760BDE8FE8F6E6574776F726B2E63000000FE
S3150800B770DFF814090068017BC91E03297047401EBB
S3150800B7808041C00F70470022F8B504460D4616469C
S3150800B790FFF79DFB007800F0DBFB0CBF01270027B5
S3150800B7A029462046FFF7C5FB02F07FFD854217D0E4
S3150800B7B0284609F0BEF850B9DFF8C00A01783246C3
S3150800B7C0204601B0BDE8F040002308F0C1BF6FB9BC
S3150800B7D002F06BFD00232246294607F094FD28B1A6
S3150800B7E00121204601F058F80120F2BD2046FFF756
S3150800B7F078FB400505D52046BDE8F4400021FEF754
S3150800B800EBBA2046FCF7C8F9FFF7B9FFF2BD2DE9F8
S3150800B810F04104461646884630460AF059F9074666
S3150800B8203046FFF74AFB3E1AF6B23719A8EB06026E
S3150800B83092B2394607F10E00FBF748FA282038700D
S3150800B840DFF84458286890F82000787309F0D8FB88
S3150800B8500246791C012001F066F80822DFF86C1C04
S3150800B860781DFBF733FA286890F820000BF068F883
S3150800B87008F10E0133460022C9B2204609F0E1FD5F
S3150800B8801220BDE8F0812DE9F04F85B080460D46BF
S3150800B8900AF01EF982464046FFF73AFB81464046C3
S3150800B8A0FFF70BFB07460AF10E0189B240460AF07C
S3150800B8B05AF8002852D0002000900E2352464146DE
S3150800B8C001A8FFF792F80DF10501012001F039F8FA
S3150800B8D083469DF804009DF8114028283ED1082289
S3150800B8E0DFF8E81B0DF10900FBF73AFAB0B3DFF809
S3150800B8F0E06B20460BF024F858B9306890F8200021
S3150800B900201AC0B280280DDA0021002002F0F6FFC6
S3150800B91008E001200090002352463946404609F0C7
S3150800B920C5FDD8B1404609F0EAFF49460DF10900C0
S3150800B9300BF001F9FE28824610D0FF283CD1484674
S3150800B94009F0A3F88246BAF1FF0FDFF8887B0BD01F
S3150800B9500DF1090109F08FFA387868B3002119202A
S3150800B960FCF74DFA0020F0E200F0FBFA0AD1404657
S3150800B9700AF0AEF801464046FFF72EF9082801D12D
S3150800B9800120F0E738780028E8D1306890F82D10C3
S3150800B99090F82C00814206D3A81C00F0B9FF4FF698
S3150800B9A0F8718842DADA0DF10901484609F0BFF95B
S3150800B9B0484609F06AF88246306890F820008442C2
S3150800B9C005D0214601200AF0CAFD0028C6D03068F5
S3150800B9D090F82000844203D150460BF01AF928B992
S3150800B9E0594650460BF090F80028BCD059465046A8
S3150800B9F00BF09AF8C4E738B5DFF8E00AFFF7FCF968
S3150800BA000446FF2C1DD0DFF8D85A0321FFF74FFA5A
S3150800BA10287004212046FFF74AFA68700521204657
S3150800BA20FFF745FAA8700120FEF79AFE204600F0B7
S3150800BA3009F82046FEF73AFFBDE832400020FEF737
S3150800BA408FBE31BD38B50446FFF750FA00F00C0535
S3150800BA502046FFF750FAFCF77EF92046FFF746FA2C
S3150800BA6000F040FD32D1FEF75FF918B12046FEF727
S3150800BA7085F975E0062200212046FFF76CFD204671
S3150800BA80FEF7A0FEFFF73DFB8DF801008DF802409A
S3150800BA909DF8010048B92046FEF794FE01460DF1CF
S3150800BAA00100FFF762FB8DF800009DF80100802871
S3150800BAB004D100A802F0BBF9002851D1FCF746F9D9
S3150800BAC000A8FDF79EFCFCF747F949E0042D20463F
S3150800BAD017D1FFF706FA00051ED402200021FCF74D
S3150800BAE08EF9FEF721F908B1042D39D00C2D15D1A0
S3150800BAF0214601200BF01FFA90B3204603F07EF989
S3150800BB002EE0FFF744FAB0F5006FE6D12046FFF7BE
S3150800BB1062FA00F0B5FBE0D10020DFE71DB9204648
S3150800BB2003F022FB1CE0042D1AD1DFF8A4090568EE
S3150800BB30687B02280CD0FFF7AAFC48B9687B332833
S3150800BB4018BF312804D0012804BF287B052807D14F
S3150800BB50214602200BF0EFF910B1204600F004F858
S3150800BB60FCF7FAF831BD00002DE9F04F85B08246A2
S3150800BB70FFF7ADF905465046FFF7CAF9ADF80600D6
S3150800BB80281D00F0C5FE8346A81C00F0C1FEADF8CE
S3150800BB900400284609F0BBFF03904FF6F87200F040
S3150800BBA0E0F9687800F00201029100F00100BDF8A2
S3150800BBB0041004900CBF012700279142ACBF4FF038
S3150800BBC001084FF00008504609F082FF81462878A0
S3150800BBD000F03C01082943D1DFF8E41509681AF892
S3150800BBE0011089453CD217B90321084238D1029879
S3150800BBF0DFF8DC4848B12068C07E002830D02946E6
S3150800BC005046FFF740FE00282AD02FB151460320A0
S3150800BC100BF091F9002823D0494600F09FF9064613
S3150800BC20029878B92068C07E60B1BDF8040000901B
S3150800BC3002F03BFB0099814212D197B1062E18BF3C
S3150800BC40072E0DD12068417B022956D1029911B9D8
S3150800BC50C07E002851D1BDF806000BF010FB60B17C
S3150800BC6073E106F003000128ECD04A4629465046FF
S3150800BC7000F0A6FD0028E5D167E1BDF806000090B2
S3150800BC8002F013FB0099814211D12068007BC01E87
S3150800BC90032808D202F009FB0146206840880D22D5
S3150800BCA00BF02AFB51E101200BF0FEF94DE1BDF83E
S3150800BCB0060008F040FE70B902F0FFFA4FF6FF7171
S3150800BCC0884208D0DFF8040C00780A2804BFBDF8BB
S3150800BCD0060008F06DFE0399012258460BF00DFA8E
S3150800BCE00028E3D1284609F005FF0146BDF80400FF
S3150800BCF000220BF002FA0028D8D1BDF804004FF64E
S3150800BD00FC71884266D12068007BC01E0328CDD30B
S3150800BD10A87908B1401EA871687840072AD500207E
S3150800BD20029002AA00A9584608F0A9FB029808B38F
S3150800BD3008F09EFB0446BDF80400FBF73BFF02999A
S3150800BD40097901F03003102B1CBF01F00C02082AF8
S3150800BD5003D0029A01F0F30111710299097901F0F1
S3150800BD603301202906D1FF2804D0014601222046A6
S3150800BD7008F08BFBBDF80600FBF71CFFFF2804D074
S3150800BD80DFF84C2B12680021815409F1010404984C
S3150800BD9040EA0800C0B2002874D1E979584608F08C
S3150800BDA0E7FD02F04FF808B1039820B1BDF8061078
S3150800BDB0584600F0CAF902F078FABDF8041088422D
S3150800BDC060D0084608F0B7FD70B177B1012E1BD1D7
S3150800BDD0002267E04FF6FD71884299D12068007B02
S3150800BDE0001F022894D2B0E077B9BDF8040008F025
S3150800BDF0A0FD48B1BDF8041000235246584607F086
S3150800BE0082FA002840F09D80DFF8C80A007848B911
S3150800BE10584608F090FD28B9BDF8040008F08BFDD7
S3150800BE200028E0D0C7B1052E16D102F03EFA8DF8EB
S3150800BE30000002F03AFA000A8DF80100022200A971
S3150800BE405046FEF73CFE00281BD1E1B25046FEF7ED
S3150800BE5099FE0178491C0170687840070AD5504652
S3150800BE6009F069FD411CC9B25046FEF78BFE017800
S3150800BE70491E01705046FFF785FB00211C20FBF781
S3150800BE80BEFF62E0002F4ED0701E09285DD8DFE89D
S3150800BE9000F005050E131930393F4343022E0CBF37
S3150800BEA0012200224946504608F03AFB4DE0494631
S3150800BEB050460BF055FA48E04A46514658460BF0AC
S3150800BEC08AFB42E0E1B200F049F80546DFF8087A55
S3150800BED003983860FBF73AFF09F10200C0B20090F8
S3150800BEE0534639682A465846FDF78FFAFBF734FF5A
S3150800BEF02BE0CDF800902B4652460021012002F097
S3150800BF0006FE22E04A465146012002F0D0FE1CE019
S3150800BF10504608F00FFB18E0504603F096FDB8F1BE
S3150800BF20000F12D009E0049820B1287A00F010F822
S3150800BF300BD102E0B8F1000F03D0504600F016F816
S3150800BF4003E00021504600F0A7FC05B0BDE8F08FDD
S3150800BF5000F0030001287047054629465046FEF7BB
S3150800BF603BBE287800F00300012870472DE9F84FFA
S3150800BF708046FEF7ACFF05464046FEF7C9FF044675
S3150800BF80281D00F0C5FC8146A81C00F0C1FC8346AC
S3150800BF9095F807A0204608F0CEFC074629464046F5
S3150800BFA000F074F80646022E61D0224651464846ED
S3150800BFB008F0F1FA00285AD102F077F9814556D0EF
S3150800BFC0DFF81809007860B9012E06D001F03AFFAB
S3150800BFD018B1284609F09BFD18B12146484600F0DD
S3150800BFE0B4F822465146484608F018FB00283ED0C9
S3150800BFF028780321084203D10021404600F04CFC72
S3150800C000A879A0B300F035F831D36878C00715D5FC
S3150800C0102C7A584607F063FC40B1E10804F0E000CA
S3150800C02001F01C01084340F0010006E004F01C0082
S3150800C0301C2803D005281ADB201F28724FF6FF7527
S3150800C04029464046FEF775FF0FB1002203E0FCF7CC
S3150800C05087F900F03F0200230221404608F078FBEA
S3150800C060AB4504D14046BDE8F24F03F05BBEBDE8E0
S3150800C070F18FDFF85C040068007BC01E0328704758
S3150800C080F8FB002084EF0020D8FB0020F0B587B02D
S3150800C090044608780321084254D1214604200AF0B0
S3150800C0A04AFF00284FD0204609F012FD014600F04D
S3150800C0B084FB0321084245D1204609F009FD0546BF
S3150800C0C0294600F07AFB0FF6380248CA05A948C186
S3150800C0D00321084236D1002000906A1C0523D2B2FB
S3150800C0E0214603A8FEF781FC052203A905A8FAF74D
S3150800C0F043FE38BB204609F06EFD0546A91C00F034
S3150800C1005BFB0646691C00F057FB00EB062605F1AB
S3150800C1100B0100F051FB074600200090EA1C08239B
S3150800C120D2B2214601A8FEF760FC2046FEF7F0FED3
S3150800C1303A46B1B201F083FE012201A9B0B20AF073
S3150800C140DCFF00E0002007B0F0BD38B504460D4618
S3150800C15008F0F1FB002818BFAC4206D02046FBF7D2
S3150800C16029FDBDE8324008F0EDBB31BD10B51922F6
S3150800C17041A10320FDF739F9DFF854432068417BD4
S3150800C180022918BF032901D0932010BD007BC01EC9
S3150800C190032802D201F04DFE08B1702010BD0BF045
S3150800C1A027FB2068407B032805D10021012002F0E7
S3150800C1B0A5FB012010BDFDF744FE002010BD0000C0
S3150800C1C04CEF00202DE9F04180460D4600260DB9BA
S3150800C1D0012602E0312D08BF0025FEF787FE00F094
S3150800C1E081F913D1FDF7A0FD80B9DFF8F46686F86A
S3150800C1F00080FBF7ABFD4046FEF78EFB2946FDF7B0
S3150800C20001F9FBF7A9FDFF20307032E0DFF8D4769C
S3150800C2104046FEF76BFE0C21084205D13978BDE889
S3150800C220F0410120FBF7EBBD03244046FEF7AFFEC5
S3150800C230B0F5006F07D14046FEF7CDFE00F020F8B6
S3150800C24008BF012401D005B1052439782046FBF73B
S3150800C250D6FD2946404603F0D7FD50B92946404643
S3150800C26008F0F6FA28B9324629464046BDE8F041B4
S3150800C2700AE0BDE8F08100004200000094F10020C9
S3150800C2804FF6FF71884270472DE9F04F83B0074695
S3150800C2900E461446FEF72AFE00F024F908D1FDF7EB
S3150800C2A043FD28B1224631463846FDF768FD07E1C9
S3150800C2B0DFF81C823846FEF719FE00F00C000C2841
S3150800C2C038465AD1FEF703FE8246FEF745FE50442D
S3150800C2D04FF0FF090178DFF80856012906D0022930
S3150800C2E012D0042924D07C2939D0E9E04EB99AF82D
S3150800C2F004009AF8031001EB002080B201F0E1FF78
S3150800C300DEE002F0FCFEDBE0002E04BFC178002967
S3150800C31008D18278407800EB0220394680B20AF0CC
S3150800C3200AF892E00AF10501002008F0F7FA92E00F
S3150800C330D8F80000407B0228E5D11EB90BF0EEFACA
S3150800C34004B931263346222263A10320FDF74DF8AE
S3150800C3502F70FBF7FBFC30460BF04BFB08E02F7009
S3150800C360FBF7F4FC3846FEF7D7FA3146FDF748F8EE
S3150800C370FBF7F2FC85F80090A2E0FEF7A8FD04465C
S3150800C380201D00F0C5FA8146A01C00F0C1FA05463A
S3150800C3904FF6F87B5D450BDAD8F80000B0F8441084
S3150800C3A0491CA0F844101EB144304188491C4180FC
S3150800C3B0207800F00301012950D1384609F088FB9E
S3150800C3C001463846FEF708FC042802D0072804D0A0
S3150800C3D076E038460BF0EAF972E0204609F08AFB67
S3150800C3E000286DD00146002008F098FA0446384621
S3150800C3F009F06EFB00210091421C0323D2B2394694
S3150800C40001A8FEF7F2FA002E02BFD8F80000407B1A
S3150800C41002281FD101A88178E1B940789DF8041057
S3150800C42001EB00252046FF280CD0DFF8BC1409686C
S3150800C43031F810204FF6FF331A4021F81020A9B220
S3150800C44008F07FFAA8B208F017F800211020FBF7C9
S3150800C450D6FC35E0204608F075FA31E0032108429B
S3150800C4602ED101F022FF814504D03846FEF739FD6A
S3150800C470C00606D5002E0CBF0021662138460BF0F3
S3150800C4805FFDEEB15D451BDA607810F0040606D153
S3150800C490284607F0F7FF070002D0012700E000272B
S3150800C4A0284608F046FA10B1062267B904E00EB12C
S3150800C4B00B22FAE737B90222294648460AF01CFF3A
S3150800C4C0BDE8F78F0C2249462846F7E70CFC002002
S3150800C4D0D8FB0020E8FF002042420000ACF1002013
S3150800C4E0D6FF002000F00C00082870472DE9F04F11
S3150800C4F0044685B094F800A05046FEF7FCFCFBF70E
S3150800C5002AFCFDF711FCB0B1A079012805D1DFF8A6
S3150800C510DC03017841F0010101702078FDF730FC59
S3150800C520002840F0D080607800F0F0006070FBF7DB
S3150800C53013FC002009E55046FEF7C9FC0646301DE7
S3150800C54000F0E6F9ADF80000B01C00F0E1F981460C
S3150800C550504609F0BDFA83465946FFF7FFFC8DF8A9
S3150800C56002003078FFF7F4FC0CBF9DF80250FF2557
S3150800C57001F094FBA188401A1FFA80F801F095FE95
S3150800C580BDF8001088420CBF0127002708460AF0AC
S3150800C59076FE0028C7D148460AF071FE20B1484603
S3150800C5A008F0C9F90028BED0FFF763FD21D2062D91
S3150800C5B018BF042D62D05A463146504600F000F99D
S3150800C5C0B8B9FEF764FF20B19DF80200FFF7C0FC7A
S3150800C5D00FD0FDF70CFB00284DD001F066FE014692
S3150800C5E0301D00F09CF9C248006841885046FEF7A5
S3150800C5F0A0FC012D42D15046FEF78AFCFFF740FE0B
S3150800C6003CD1002300F0B3F805008CD06A799DF878
S3150800C6100D00824207D20BF10501C9B25046FEF75A
S3150800C620E0FA00F09EF8FBF79BFE7E2190FBF1F105
S3150800C6307E2202FB110000F58070608018219DF8AB
S3150800C6400E00084212D060780F21084208BF002F5A
S3150800C6500CD1FBF77BFB304609F059FA01466A799B
S3150800C660BDF80000FCF7D4FEFBF776FBFBF774FB7E
S3150800C6709DF80F005EE72820608058E74FF6F870AF
S3150800C680814502DA7078C00721D5FFF7F2FC1ED380
S3150800C69040F6B93080455CDAFBF762FE00F03F00F1
S3150800C6A0C0F5FA706080607800090CD05FB9F1793E
S3150800C6B0BDF8000007F065FF00281EBF80884FF60A
S3150800C6C0FF718842A1D0FBF747FB012032E7022D14
S3150800C6D026D1012300F04BF8054601F0E6FD014698
S3150800C6E0BDF80A00814202D008F025F958B3002D9A
S3150800C6F08BD06B8801225946504607F012FF7C48BA
S3150800C7000068417E491C4176F171BDF806006988CA
S3150800C710884201D000F025F84FF4C8706080D2E74F
S3150800C720032D10D17FB10BF10101C9B2FFF716FC39
S3150800C7300C2808D108F00FFCFFF7A2FD03D001462C
S3150800C7405046FEF7F6FB607800097FF4ECAEB8F1C8
S3150800C750FB0FBFF6E8AEFBF703FE00F01F00103034
S3150800C760DCE7607800F0F000801C6070704701AA72
S3150800C7705946504607F0D7BE70B50446FDF7D4FAB9
S3150800C780C0B92046FEF7A3FB0546204609F0A0F9E6
S3150800C790014600F012F806462046FEF7B9FB4FF6AA
S3150800C7A0F871884204DAFFF7DCFB08BF022E01D1D4
S3150800C7B0012070BD002070BDC9B22046FEF70CBA34
S3150800C7C0F8B504461546084600F0A2F820F40070AD
S3150800C7D041F20801884218D146480068205C401B8F
S3150800C7E0072812DB00260FF220177119FFF7E4FF5E
S3150800C7F0F15D814203D0022E08BF002805D1761CC0
S3150800C800F6B2072EF1D30120F2BD0020F2BD2DE9C4
S3150800C810F04180460C46FEF769FBFFF763FE31D010
S3150800C820201D00F075F80546E6794046FEF770FBD0
S3150800C83007464046FEF755FB00060FD52C4800680C
S3150800C840017B091F022909D2417B022906D14088AA
S3150800C8504FF6FF71884218BFFBF7C9FAA01C00F013
S3150800C86057F84FF6F871884202DA6078C0070BD598
S3150800C87020780321084205D13A463146284607F072
S3150800C8808AFE05E0012005E03146284608F05CF8F6
S3150800C890FEF775FFBDE8F08110B5044641B1FF22E9
S3150800C8A00321FEF7FDFA002204212046FEF7F8FAD6
S3150800C8B021461148FEF78BFA2046FDF7E9FF0F4897
S3150800C8C00078BDE81040FDF72BB9000083F1002081
S3150800C8D06CEF00205CEF0020E8FB0020E6FE00205D
S3150800C8E074F10020ECFF002068EF002099FD00207D
S3150800C8F0D8FB00204CEF002090F10020CDFF00204F
S3150800C900001300000000000000FF01400EC0FF00F9
S3150800C91041780078FFE700EB012080B2704701708C
S3150800C920090A4170704710B50023002814BF1C4639
S3150800C930C3F10304E4B25B1C6254120A042BF4DB51
S3150800C94010BD30B54A788B78CC78097818B120466E
S3150800C9501D460C4602E0154608461A4645EA0020DA
S3150800C96044EA022141EA004030BD0000174838B5C4
S3150800C9700446FBF707F9054615480021016008211A
S3150800C98054F8042B8260491E54F8042BC260F7D170
S3150800C99001210160FCF73CF8284613E00C49002009
S3150800C9A00860FCF735B838B545096D0109480A4CE1
S3150800C9B0854238BF094CFBF7E5F8044945F01402EF
S3150800C9C04C620A62BDE83240FBF7E2B888F0002004
S3150800C9D094ED00E09800002009000B1008000B10E9
S3150800C9E070B12DE9F05FEFF308800D490860EFF3A9
S3150800C9F009800C490860EFF314800B49086030BFC2
S3150800CA000748006880F308880648006880F30988A4
S3150800CA100548006880F31488BDE8F05F7047000099
S3150800CA2064FC002068FC00206CFC00200020DFF875
S3150800CA30201701EBC003FF221A71002241F83020AB
S3150800CA40401C0328F5DB70472DE9F04F81468FB06F
S3150800CA501C46FF20032C8B4617468DF8090005DB7C
S3150800CA60189D2A78520707D5052C03DA01200FB03E
S3150800CA70BDE8F08F297900E0A9788DF80B10002120
S3150800CA80DFF8CCA60AEBC1021279FF2A0BD0491CA3
S3150800CA90C9B20329F6DB03901A9E36B10398FF281C
S3150800CAA003D1B420E3E70391F6E700208DF80A00E6
S3150800CAB009AA38790DF10A0103F059FC58B1BDF8F5
S3150800CAC0300038809DF80A0004F0D1F98DF8080086
S3150800CAD000283CD114E0387904F0D7FC8046B8F138
S3150800CAE0FF0F08BFA320C2D0387904F0C5F98DF826
S3150800CAF0080060BBDFF85C0600EB08104088388049
S3150800CB00B9F1000F0CBF58464FF6FF70019000218F
S3150800CB107888DDF86480009042463B889DF80B00D3
S3150800CB2005F06AF918B1F88840F02000F8800496F4
S3150800CB3005970695ADF81CB0ADF81E408DF8209007
S3150800CB408DF8218002A904A803F039FC10B19DF8DC
S3150800CB5008008CE73A465946484605F058F9A04277
S3150800CB6019D30DF1090001900095E3B23A465946EA
S3150800CB704846FDF70BFD8DF8080086B178B99DF893
S3150800CB800900FF2819D003990AEBC1010871039817
S3150800CB904AF8306011E074208DF8080010E0BA28D1
S3150800CBA008D1B879C0060BD500208DF808000120F9
S3150800CBB00BF0E3FB9DF8080010B911200BF0F4FB0D
S3150800CBC004F063F9C3E710B584B0088100931346EF
S3150800CBD0069C02940A46012401460194032011E0AA
S3150800CBE010B582B000240094FFF7EDFF16BD10B50E
S3150800CBF084B0069C0093029413460A460124014613
S3150800CC0001940420FFF720FF04B010BD10B582B0D0
S3150800CC1000240094FFF7EBFF16BDF0B50446022C7E
S3150800CC2085B00D4616461F460AD100A9E8B207F098
S3150800CC30B8F888B99DF8010030719DF80400707144
S3150800CC403B460B98029032460020019029460A98E6
S3150800CC5000902046FFF7F8FE05B0F0BD1CB500248D
S3150800CC600194049C0094FFF7D8FF16BD2DE9F04106
S3150800CC7088B00446884616461F46002503A9284656
S3150800CC8007F08FF8F8B99DF80C10012902BF9DF836
S3150800CC900D102279914202BFBDF80E1062889142AA
S3150800CCA00DD19DF810006071029700200190009642
S3150800CCB04346224629460220FFF7C6FE18B9691CD4
S3150800CCC0CDB20C2DDADB08B0BDE8F08180B503469D
S3150800CCD0DFF88404008839B9BDE800500FF28C42A9
S3150800CCE00FF2804103F0CEBB00910FF298420FF28B
S3150800CCF0844103F0C7FB01BD7CB504460D4601F02F
S3150800CD008CFC0646334622460FF28041022003F089
S3150800CD10B3FB7EB975B101A800210160032000901C
S3150800CD208DF8054001AB002236214FF6FC7006F05F
S3150800CD3016FF0646304676BD70B50D460446288869
S3150800CD40164608B1002070BD204603F03AFB0028BD
S3150800CD5002BF688848F22101884203D171782046CB
S3150800CD6003F012FB6888B0F5004FC4BF08200BF02B
S3150800CD7033FB012070BD2DE9F04788B081460E4689
S3150800CD809246984606F0D5FB8DF808900396054618
S3150800CD90119F0497ADF816508DF818A08DF81980D4
S3150800CDA0109CADF81440FDF7BCFA8DF81A00FDF793
S3150800CDB0BAFA8DF81B00FAF7BFFF8DF81C0002A817
S3150800CDC003F0FBFAA8B923463A46314628460BF043
S3150800CDD0D9FC70B923463A4631462846FFF7ACFFD8
S3150800CDE038B90190009523463A464946304604F03C
S3150800CDF0E0FE08B0BDE8F0872DE9FC471D000A9C57
S3150800CE000B9E80468946174631D00FF2F8320FF24C
S3150800CE10E831022003F036FB3B880BB9C5A20AE0CD
S3150800CE2040F209118B4208BFC3A204D0B3F5827F32
S3150800CE300CBFC2A2C2A2019478880FF26831009092
S3150800CE40022003F01FFB388870B1032C0CDB307806
S3150800CE50B3780FF28031C0074CBF0FF28C320FF255
S3150800CE609032022003F00EFBB6A100F046F80C98AB
S3150800CE70B749002201EBC2031B79834211D0521C29
S3150800CE80D2B2032AF6DB4FF0000A002201EBC203F6
S3150800CE9093F804C0844507D0521CD2B2032AF5DBA6
S3150800CEA007E051F832A0F0E7FF201871002041F89A
S3150800CEB03200002D04BF3888002806D17888B0F5DE
S3150800CEC0004FBCBF08200BF06FFA01200BF084FA64
S3150800CED036B13078C00703D500F012F804F067F8C9
S3150800CEE0BAF1000F02D000F00BF8D04700F008F8AE
S3150800CEF003F046FABDE8F3870000022003F0BCBA47
S3150800CF000195009623463A464946404670472DE91C
S3150800CF10FC41044690380FF204360FF208380CD05C
S3150800CF20401E4BD0C01E49D0801E47D0801E45D01B
S3150800CF301338042842D9113851D10020ADF804001D
S3150800CF400BF0D2FC0546FDF7E6F9471EBF41FF0F79
S3150800CF502DB1002F14BFA8882889ADF804000DF15B
S3150800CF60060008F0D5FFBDF80600800605D5BDF811
S3150800CF70040040F02000ADF804003A4601A900205C
S3150800CF8003F032FABDF8040008F0A9FFFDF7C3F96B
S3150800CF900090434632460FF27421022003F06CFAE1
S3150800CFA0BC2C06D10FF28821FFF7A7FF03F011FA70
S3150800CFB001E00BF04DFD03F00DFA10E0912C04D1C1
S3150800CFC0434632460FF2882104E00FF29C230FF203
S3150800CFD08C213246022003F04FFA04F0EBFC20467F
S3150800CFE00BF080FD20460BF0D7FF20460CF0EAF840
S3150800CFF020460CF020FA20460CF0DCFF18B10FF2A0
S3150800D0007021FFF77AFFBDE8F3811CB5534C002069
S3150800D01003F02DFF206890B10078012808BF0DF0B5
S3150800D0202FFB00A8FDF7F4FA80B920689DF80010D8
S3150800D0300078814203D0012808BF022906D10FF2E1
S3150800D040AC200068019001A801F0FCFB03F01DFF6D
S3150800D05013BD10B5044603F00DFF20460CF061F829
S3150800D060BDE8104003F011BF7020704738B53B4942
S3150800D070096804467020A9B10D78012D08BF02255C
S3150800D0800DF02AFB20890FF234220FF214210090AA
S3150800D0900120E37A03F0F0F921462846BDE834403A
S3150800D0A001F0DEBA32BD10B50446FDF72DF90020B1
S3150800D0B0015DFF2904BF00210155401C1028F7DB3C
S3150800D0C00020207410BD33B581B0002000240FF273
S3150800D0D0202108E011F830309DF80A50AB4208BF0D
S3150800D0E05468401CC0B201EBC0025368002BF1D152
S3150800D0F09DF808009DF807309DF806200FF2C41128
S3150800D1000090022003F0BEF99DF809201AB10EA17D
S3150800D110022003F0B7F904B90CA4BDF8043022467E
S3150800D12003B0BDE830400FF2B411022003F0A4B9F1
S3150800D130000000005A444F005345000048410000D3
S3150800D1403F3F0000000000002E2564003F3F3F00DF
S3150800D15010F2002028F20020CAF50020C8F80020A6
S3150800D1600DF0A0BB25703A20257000005375636347
S3150800D1706573730025703A2025703A203078257833
S3150800D180000000004572726F72000000704A6F69F5
S3150800D1906E20666F72202564207365633A203078A6
S3150800D1A02578000050726F66696C653A20257020F4
S3150800D1B0283078253258292C20436C75737465728B
S3150800D1C03A2030782532582C2025642062797465F7
S3150800D1D0732C0000205A434C20257020436D642090
S3150800D1E049443A2025640000436C757374657200DF
S3150800D1F0476C6F62616C0000257074782025782C66
S3150800D200200000004552524F523A200025702570E2
S3150800D210555020307825325800000000454D4245CB
S3150800D220525F00004E4554574F524B5F00000000B6
S3150800D23054727573742043656E746572204555493A
S3150800D24020686173206368616E6765642E0000005C
S3150800D25025702570444F574E0000000025704A4F30
S3150800D260494E2570000000005F4641494C45440080
S3150800D27054686520617070206672616D65776F729B
S3150800D2806B2069732068616E646C696E67207468C8
S3150800D2906520737461636B207374617475732E00F3
S3150800D2A02570696E67206F6E2063682025642C20C0
S3150800D2B070616E4964203078253258004A6F696E6D
S3150800D2C000000000737461636B207665722E205B24
S3150800D2D025642E25642E2564000000002025702074
S3150800D2E06275696C642025645D000000000000001A
S3150800D2F000000000B03C020811000000BC3C020817
S3150800D30012000000C43C020813000000CC3C0208CE
S3150800D31021000000D43C020822000000DC3C020880
S3150800D32023000000E43C0208AA000000EC3C0208C6
S3150800D330FF0000000000000080B59F480021416002
S3150800D34041708170A52101700120FCF748F8FCF7AF
S3150800D3504AF800F01EF8002002BD98480168C9077F
S3150800D36000D4704780B596490A6822F440620A607C
S3150800D370016849084900016001680902FCD491481E
S3150800D380006810B16420F8F79FFE8F4900200860F6
S3150800D39001BD80B58D48016841F0807101600120AA
S3150800D3A08B49086000208B49F8F7D5FE8A498B4AD5
S3150800D3B00220086000208A4908608A498A48016074
S3150800D3C0012111607D4A8949116040F201410165D8
S3150800D3D04FF480308649086001BD7B48006800B17B
S3150800D3E00120C0B27047D12202704170090A8170CB
S3150800D3F080490A78C270501C0870042070472DE9CD
S3150800D400F14F82B0002500907B4800990068085CBF
S3150800D410441DE4B200F042FC01904FF6FF79FFF795
S3150800D420DCFFB8B954E0A91E9DF80800C9B2FDF79B
S3150800D430D3FB074649460DF04DFA81465546F0009E
S3150800D440F9B2761C01FA00F0042E40EA080815DB4A
S3150800D450CBF80080EDB2A54232DA00F01FFC019944
S3150800D460401A80B2B0F5FA7F2ADC4FF0604BDBF841
S3150800D47000000128EED14FF000080026EDB215B9DC
S3150800D4805B270125DBE7012D05F1010A04D15A487E
S3150800D490009900680F5CD1E7E11E8D4208BF4F4630
S3150800D4A0CCD0A11E8D4208BF4FEA1927C6D0611EEF
S3150800D4B08D4208BF5D27C1D0A542B4D10027BEE77B
S3150800D4C04FF4C870F8F700FEA54208BF002000D048
S3150800D4D00120BDE8FE8F48490968415C0429A8BFB8
S3150800D4E0FFF78DBF012070472DE9F04D324D6E785C
S3150800D4F0002E5ED000F0D2FB834631460020FDF7B1
S3150800D50058FA0446FF2CA04602D10020687050E065
S3150800D510202EB4BF37462027FDF754F96860AF7050
S3150800D520DFF8D8A004E04046FDF74CF96860AF7014
S3150800D5306878C0B100F0B2FBA0EB0B0080B2B0F582
S3150800D540FA7F10DCA8780028F2D1F61B6E70F6B2C6
S3150800D550002EEDD0DAF8000018F80080202EB4BFAF
S3150800D56037462027DFE7002E04BF6878002818D141
S3150800D570A878B0B920480068205C851EE9B2204624
S3150800D580FDF7D1FB122808D1E9B22046FDF7D9FAF2
S3150800D59021461220FBF735FD06E02046FBF77BFC0B
S3150800D5A002E000206870A8702046BDE8F04DFDF73F
S3150800D5B07DB9BDE8F08D0000F0FF0020800E00E088
S3150800D5C0001000E034000040100004E0FCED00E02C
S3150800D5D0040004E020A10700F00004E0000E00E0CB
S3150800D5E0040304E055CEACC5B00F00E00D00010001
S3150800D5F000E100E0EDFF00204CEF002054EF002092
S3150800D60070B51346101802E0A4192C705B1EDBB225
S3150800D6104BB101F00F060909451E0A2E2846B4BF6C
S3150800D62030243724F0E7101870BD2DE9F24F88B082
S3150800D630804601A81446994601AD4FF0000B002715
S3150800D6408DF8000010E00127641E05A885420AD35C
S3150800D6509DF800002E1A00F0B4F8002839D1B3441A
S3150800D6605FFA8BFB01AD641C9DF800002E1A20782A
S3150800D67000280BD0252803D017B905F8010BE4E7D5
S3150800D680002F14BF0027641C2078010000F08E804C
S3150800D690B0F1250113D00B39092967D928395CD08F
S3150800D6A00B390ED0491E2CD008392AD0091F0BD0A9
S3150800D6B0C91E09D0891E24D0C91E4ED0C5E725200B
S3150800D6C0DBE759F8040BD8E759F804AB00F079F80A
S3150800D6D0002872D1B3445FFA8BFB01AD002600E047
S3150800D6E0761CF6B216F80A000028F9D19DF8200033
S3150800D6F032465146C04700285FD1B3445FFA8BFBD8
S3150800D700A3E759F8040B0021002803D52D21297019
S3150800D71040420121002300224FF0000C02E0801B4A
S3150800D7200CF1010C0FF2041656F82260B042F6D23C
S3150800D73043EA0C06F6B2002E05D0C9B20CF1300346
S3150800D7404B55491C0123521C092AE5DBC9B2303066
S3150800D7504855481CC0B2451977E759F8041B0222F8
S3150800D760C9B22846FFF74CFF05466EE760780127E1
S3150800D770782818BF5828F8D1641C002714F8010C1B
S3150800D780322804D159F8041B042289B2E9E734285F
S3150800D7907FF459AF59F804AB04224FEA1A412846D8
S3150800D7A0FFF72EFF04221FFA8AF1DBE700F009F8DB
S3150800D7B018B906EB0B00C0B200E0002009B0BDE8BE
S3150800D7C0F08F9DF82000F2B201A9404709A117E0A1
S3150800D7D010B5094BC35C0024012B07D113460A4632
S3150800D7E001460648FFF721FF00B90124204610BD6F
S3150800D7F0000000000D0A0000589300084192000836
S3150800D8000CB480B502AAFFF7E3FF02BC5DF80CFB77
S3150800D8100CB438B5044604AAFFF7DAFF05462046D5
S3150800D820FFF7D4FF284632BC5DF80CFB00CA9A3BCA
S3150800D83000E1F5058096980040420F00A086010099
S3150800D84010270000E8030000640000000A0000003A
S3150800D85000B500BF130096469446103928BFA0E8C5
S3150800D8600C50FAD85FEA417C28BF0CC048BF40F884
S3150800D870042BC90728BF20F8022B48BF00F8012B44
S3150800D88000BD00002DE9FC4204460D469146CDF840
S3150800D89004900095234624220FF2F0310320FBF76B
S3150800D8A0A4FDDFF8D87338780A2818BF3D203DD183
S3150800D8B0B9F10F0FA8BF332038DA092CA8BF3420D6
S3150800D8C034DADFF8BC032840A84218BF35202DD12A
S3150800D8D035B9DFF8B0130968897B012000FA01F52C
S3150800D8E0002C18BF022CDFF8A0630CD120210020E1
S3150800D8F0FDF75FF87870FF2808BF182016D0FCF7E8
S3150800D90061FFF06130623C7086F80190B5610020D5
S3150800D91030700A20FAF715FA01210FF21500FCF704
S3150800D920E5FA38780A280CBF01200020BDE8F682FF
S3150800D93038B50A20FAF706FA0446FAF70CFA20462A
S3150800D940FAF726FA0020FAF7FBF9CF4CFCF7D5F9D7
S3150800D950E07000F0B2FC2082F7F7F7FE20714FF670
S3150800D960FF75C64C2078062808D10120F7F7F0FE87
S3150800D970072020702846FBF7CBFE0CE0082805D0C8
S3150800D980284600F09EFC2846F7F761FF0020F7F7C7
S3150800D990DFFE00F059F8BDE83140FAF7DDB938B5D1
S3150800D9A0FAF7F0F8B54D044628780A2818BF09286A
S3150800D9B004D12046BDE83240FAF7EAB8072808BF7E
S3150800D9C0FBF76AFE2878B0490870092028702046B7
S3150800D9D0FAF7DEF8BDE8344001210FF20900FCF73A
S3150800D9E085BA000070B5A54C2078092802D0E82130
S3150800D9F000F0A3F80A20FAF7A5F9FAF7ACF9A24D50
S3150800DA00288A00F05EFC9F49E878096888732879B7
S3150800DA10F7F79EFE0120FAF793F9FAF752F96678B6
S3150800DA200020287200220A2020703146FF206070EC
S3150800DA30287801F0B5FCFF2E1CBF3046FCF736FFF0
S3150800DA40BDE87040FAF788B9F8B58F4C0020207207
S3150800DA500A20FAF777F9FAF77EF9884D28780A281E
S3150800DA6003D14FF48A7100F068F82878E0B917E016
S3150800DA70401CE061282210F9016DE069401CE06154
S3150800DA807DA110F8017D00963B460320FBF7ADFC0F
S3150800DA90FAF75CF931463846FCF709FEFAF75CF9FD
S3150800DAA0E069216A8842E3D320781B281FDA00F050
S3150800DAB0B9F950B12078A169C140C90705D4401CFD
S3150800DAC02070C0B21B28F5DB11E0F6F7D8FD014639
S3150800DAD02078884202D0F6F7CAFD40B9207800F0CF
S3150800DAE09EF920700020A07000F064F808B328782A
S3150800DAF0052818BF012803D0032818BF08280DD108
S3150800DB000B26A069F040C00704D52878362231468E
S3150800DB1001F046FC761C1B2EF3DB08E0022806D132
S3150800DB20206AE169411A6878C9B2FDF70AF8FFF771
S3150800DB3036FFBDE8F140FAF70FB90FF25810F8F7BB
S3150800DB40C7BF38B54D480178092904BFBDE831403B
S3150800DB50FBF7C5BD4C4C6369002918BF02291ED1C5
S3150800DB609BB9226A6179521C226202F8011D00786B
S3150800DB7028B9256A681C2062F6F781FD287004F129
S3150800DB800800BDE83240FBF7DDBE0825F7F7F2FDD1
S3150800DB9094F905108142B8BF0146617103E0002B74
S3150800DBA0EDD04FF470752846FBF7B2FD6069401E4C
S3150800DBB0606131BD80B534484278012191402F4AD1
S3150800DBC01278491C092A416120D8DFE802F01109B8
S3150800DBD0110917051F1F0D1CBDE8014002F0A2BA66
S3150800DBE0BDE8014002F0ABBABDE8014000F015B946
S3150800DBF06FF07F0242717822514341610020FBF7A2
S3150800DC0087FD002002BDFBF76AFD03E040F2A31181
S3150800DC10FFF793FF012002BD10B5184A1A4C127877
S3150800DC20052A11D1062816D120206061A9B9F6F770
S3150800DC3026FD0122A16902FA00F021EA0000A0618E
S3150800DC400020FBF765FD15E0012A14BF032A072803
S3150800DC50ECD0082AEAD0002010BDA078401CA0709D
S3150800DC60C0B2032802DAFFF7A5FF18B104F10800CD
S3150800DC70FBF768FE012010BD4242420083F10020F6
S3150800DC8000F8FF07D8FB002030FC0020424244423F
S3150800DC90000000007363616E2E63000080B500F01B
S3150800DCA008F880B202BD80B500F003F80002000C47
S3150800DCB002BD38B5F9F766FF4F490C684D68F9F7A4
S3150800DCC067FF45EA044032BD704780B5FFF7FCFFA1
S3150800DCD04A490720086001204949087001BD2DE915
S3150800DCE0F84304460025206810B9FAF751FB2AE0E4
S3150800DCF0F9F748FF00F074F8206810F1010F1CBF0F
S3150800DD00401C2060FFF7D5FF21683D4E3B4F8146FA
S3150800DD1000F061F821684944090C01603570022059
S3150800DD203860386400F061F80120FAF7BCFD3D64FC
S3150800DD30307838B98525FFF7BCFF2168081A4844AA
S3150800DD40206000E025602846BDE8F2832DE9F84FFB
S3150800DD500D46824628689346002710B9FAF718FB3D
S3150800DD6036E0F9F70FFF00F03BF8286810F1010FCD
S3150800DD701CBF401C2860FFF79CFF214C1F4E2770D4
S3150800DD808146296800F027F829684944090C01608A
S3150800DD9002203060306400F028F801E02F60277018
S3150800DDA02868A8B1BAF1000F03D10220FAF77BFD63
S3150800DDB003E059460220FAF755FD37642078002813
S3150800DDC0ECD18527FFF775FF2968081A48442860AB
S3150800DDD03846BDE8F28F0C48494489B2416070471D
S3150800DDE080460849102008607047102007490860D7
S3150800DDF04046F9F7CDBE00001060004014A0004070
S3150800DE00CFFF002080E100E01860004000E100E05C
S3150800DE1001460022002099E77047B5207047401C4C
S3150800DE20C0B2704701207047002070477047002035
S3150800DE3070470020704700207047002070477047E1
S3150800DE4001207047012070477047012070477047CE
S3150800DE50012070470120704738B5FBF7CDFAFFF768
S3150800DE606BFADFF874442078002840F0A780122067
S3150800DE700CF042FD00060BD500F0DFF8000607D5CA
S3150800DE8000F0DEF8000603D500F0D4F8000610D43A
S3150800DE9012200CF031FD000614D500F0CEF800066D
S3150800DEA010D400F0CDF800060CD500F0C3F8000633
S3150800DEB008D5E0780E2861D1F6F7BEFD002800F0F7
S3150800DEC07F8032BD00F0B9F800060FD400F0B8F82C
S3150800DED000060BD500F0B4F8C00707D400F0AAF87E
S3150800DEE0000603D4E0780C2845D1E5E700F0A5F84C
S3150800DEF0000609D500F0A4F800F08100812803D1B6
S3150800DF0000F098F800060DD500F097F800060ED434
S3150800DF1000F096F800F08100812808D100F08AF810
S3150800DF20000604D4E0780D28C6D00E28DCE700F0F9
S3150800DF3084F8000610D500F083F800060CD400F02B
S3150800DF4079F8000608D5E07816281CBF01281A2893
S3150800DF50B2D00F2815D1AFE700F06FF80006ABD4A2
S3150800DF6000F06EF80006A7D400F064F80006A3D502
S3150800DF70E0781628A0D0E07801289DD0E0781A2805
S3150800DF809AD0E078022818BF1B2895D0062818BF13
S3150800DF90072891D0082818BF09288DD00A2818BF45
S3150800DFA0032889D0102818BF112885D0122818BF31
S3150800DFB01328FAD0142818BF1528F6D0B02032BD79
S3150800DFC0F8F71AFA0CF0DCFCDFF81003007808B151
S3150800DFD006F03CF805F0C0FAFAF735FFDFF800431B
S3150800DFE00FF24430FBF741FD2070DFF8F802FBF72B
S3150800DFF03CFD6070F9F7C6FD05466078FBF756FDEF
S3150800E0002846F9F7C5FDF9F7F5FDFBF7AEFFFDF76D
S3150800E010F5F90CF0C0FC0CF0C1FCFFF715FF012068
S3150800E020F7F794FADFF8C0024FF47041FBF795FC56
S3150800E030002032BD00200CF05FBC10200CF05CBC48
S3150800E04011200CF059BC2DE9F04706F0B9FA06F094
S3150800E0501BFAFAF7F9F808B9FAF7E2F8DFF88C824A
S3150800E0604046FCF7EFFE08B9FDF7C5FCDFF88092DD
S3150800E0704846FCF7E7FE08B904F065FF09F03DFCE1
S3150800E080F9F796FDDFF858623078FBF7DAFC707816
S3150800E090FBF7D7FC0CF084FCDFF85852DFF858A2DF
S3150800E0A0002700240BE02046F9F755FE2868007B78
S3150800E0B0001F022838BF0127F9F74EFE641C9AF89C
S3150800E0C00000E4B28442EED3002F1EBF8B480078CE
S3150800E0D0002805D000F02AF8102808BF09F088FDA6
S3150800E0E0FAF77AFEFFF7B3FEF9F74CFD0746FAF79B
S3150800E0F0ABF868B14046FCF7A5FE48B14846FCF7C0
S3150800E100A1FE28B1FFF7A1FE10B13078FBF7CEFCCF
S3150800E1103846F9F73DFDF9F717FE18B94FF4B4710B
S3150800E12000F055F8F7F7F9FFBDE8F08710B5FBF7EB
S3150800E13006FF40B106F055FB28B1FBF72CFE441E3E
S3150800E140A441E40F00E00124F7F7EAFA08B944F01D
S3150800E1500404FAF779F838B16448FCF773FE18B185
S3150800E1606348FCF76FFE08B944F002046448007877
S3150800E17008B144F020046148007808B144F010045E
S3150800E1806048007808B144F04004FBF700FE08B187
S3150800E19044F08004FBF7FDFD08B144F48074204682
S3150800E1A010BD80B52D224BA10320FBF71EF9FBF706
S3150800E1B0C6FE18B940F29B1100F009F8F7F751FAB4
S3150800E1C05148FCF746FEBDE80140FFF7C6B80FF216
S3150800E1D04810F8F77DBC80B5FFF7DBF82E223DA185
S3150800E1E00320FBF702F9F7F7B0FAF7F7AFF9474854
S3150800E1F0007808B106F0A1F94548007808B106F09C
S3150800E2005AFE4448007808B10CF0FEFFBDE801400C
S3150800E210FBF7C3BD38B5044636480068007BC01E08
S3150800E22003280BD3204606F07DFB4FF6FF75A84260
S3150800E23004BF204606F0FCFBA84204D12046BDE8F0
S3150800E240324005F071BA32BD70B504464FF6F87023
S3150800E25084420D4627DA274E3CB93068007D800790
S3150800E26003D428460CF062FED8B9306841888C423F
S3150800E27005D1011D08222846F8F728FD11E0007B84
S3150800E280C01E032808D3204608F0F4FBFF2803D055
S3150800E290294608F013FC20B92946204605F08BFAD2
S3150800E2A008B1002070BD012070BD12480068008AC0
S3150800E2B0704710490968088270470E480068408A06
S3150800E2C070470C490968488270470A480068007810
S3150800E2D07047000042000000960708088CF10020ED
S3150800E2E0CDFF0020ACAD020848FF0020ACF10020AD
S3150800E2F090F10020D8FB002084EF002024FC0020A9
S3150800E300F8FB0020CCFE0020BCF1002034FE0020E3
S3150800E31040FE00205CFC00207A69676265652D7303
S3150800E3207461636B2E630000B4FE0020AD7B0008A9
S3150800E3309CFD0020FD94000838FC002049DA0008FE
S3150800E34068FE00200D4901085CFF00207DFD0008DD
S3150800E350F8FB00204FF0000804FC00200DF100082F
S3150800E36024FC0020ED7B0108F0FB002057E600089E
S3150800E37018FC0020417401085CFE00206BFB0008B5
S3150800E380D4FE002059FC010840FE0020B74E0108C3
S3150800E39034FE00203B45010848FE002051D60108FE
S3150800E3A050FE002035B201085CFC002009B20108C5
S3150800E3B0C4FE0020B9AC0108CCFE002019DE000816
S3150800E3C0C8FB0020C37C000850FF0020637F0008BC
S3150800E3D048FF0020AD380208D0FB0020F37D000876
S3150800E3E00000000000000000DFF83C2C12681278DC
S3150800E3F082420AD019B1012A03D1022805D0002089
S3150800E4007047022A08BF0128F9D101207047DFF8B2
S3150800E4101C1C0875704710B5DFF80C4C2068407B4B
S3150800E420112804D0B6210FF21000F8F751FB216825
S3150800E4304120487310BD00006173736F636961748E
S3150800E440696F6E2E6300000080B50220F9F77AFC2A
S3150800E450F9F781FC00F026FC001F022805D2DFF838
S3150800E460CC0BC17C491DC17405E04FF47A71DFF805
S3150800E470C00BFBF772FA00F05FBE10B5DFF8AC4BC5
S3150800E480002060742078FF2803D0FCF70FFAFF20DD
S3150800E490207010BD38B504460D46FCF793F9007C8C
S3150800E4A000F00701400800F0380000EB410000F1D9
S3150800E4B01102DFF8540C0068205CD2B282420ADAF4
S3150800E4C0831ADBB20F2BA8BF0F230020009021462A
S3150800E4D02846FCF78AFA31BDDFF84C0B0068407B0A
S3150800E4E033281CBF4328532801D101207047002038
S3150800E4F070471FB5FCF7CBFF08B3DFF8304B207821
S3150800E50000A9FFF7C7FFDFF8281B002008700DF1E8
S3150800E5100300617901F0C8F8FFF7AFFF00F010F8C3
S3150800E52000F031FA007DC00702D50CF085FE08B967
S3150800E5300DF0B5F80CF07FFE012001F0E3F91FBDE0
S3150800E54010B500F020FA017BC91E032906D24088BF
S3150800E5504FF6FF71884208BF032008D0FBF7F8FA88
S3150800E5600446FBF7F9FA214605F08FFB0220FBF774
S3150800E570FBFA01F029FABDE8104000F0E1BD38B514
S3150800E580DFF8A84A2075FFF778FF00214FF6FF70DD
S3150800E59001F083F9DFF8905A2868417B032918BFF0
S3150800E5A000291DD0332918BF432913D100F019F8C3
S3150800E5B02868017BC91E032906D203214173207DE1
S3150800E5C0BDE83240F9F719BC207DF9F716FCBDE81D
S3150800E5D03140B5E721214173BDE8314008F0A1BFBC
S3150800E5E031BD237D132296A10320FAF7FEBE10B58E
S3150800E5F000F054FB002048734FF6FE70FFF759FEF3
S3150800E6004FF6FF70FFF75DFEDFF8204AFFF7E9FFD8
S3150800E610207DBDE81040F9F7F0BB10B50446234647
S3150800E620182287A10320FAF7E0FEDFF8380B00214D
S3150800E630017114B1FF2C02D10121017007E00121FB
S3150800E64000F8041BA100491C0902FBF786F900F033
S3150800E65077FD002010BDDFF80C1B00200871DCE7F1
S3150800E66030B50D4689B0044668690FF27C110790EB
S3150800E6702346287C06901622E8890590287B049074
S3150800E680E87A039095F90A00029028890190009586
S3150800E69000F076F9287B00280CBF4FF6FE70FFF7CE
S3150800E6A004FE2B46224609B0BDE83040014601204B
S3150800E6B02DE9F041DFF8706980463068407B002814
S3150800E6C00F4614461D464BD1002C49D0062C47DA76
S3150800E6D0DFF88C0A00780A2842D1F9F73EFB0028B1
S3150800E6E03ED1F9F73CFB08B1042C39DB287B03281B
S3150800E6F016D14FF6FE70874214D1012C08BF0027A9
S3150800E70010D0022C2CD1FFF7D0FD4FF6FC718842B1
S3150800E71002DAFFF7CAFD01E008F09EFC074601E0B1
S3150800E720012C1DD0B8F1000F0CD0287B03280CBF94
S3150800E73001210021012C0CBF0120002007F011FC4B
S3150800E74000284ED12946384600F06AFF002848D1ED
S3150800E750F9F7FDFAF9F7E0FA20B1F9F700FB08B185
S3150800E76070203EE03068DFF8C478407B33281EBF4F
S3150800E770532800207875204600F035FF387E20B1F2
S3150800E780F9F7EDFA08B906F0DEF8287B032803D175
S3150800E7902846BDE8F0412DE00822294607F1080081
S3150800E7A0F8F794FA287B0328A8BF00203874FFF7E7
S3150800E7B064FE94203875387C316800280CBF012027
S3150800E7C031204873002031687A7EB8740120897B2D
S3150800E7D000FA01F10320FFF755F810B1326800215D
S3150800E7E05173BDE8F08100004242387057424242F8
S3150800E7F05742440010B5044600220821FBF750FA98
S3150800E80008B1012010BDFFF750FD00224FF6FF7139
S3150800E81000F02EFF217C204600F046FF6269E18960
S3150800E820207C01F004F9DFF800080068007B012865
S3150800E83008BF08F0BDF8FFF783FE002010BD0000F2
S3150800E8404242000038B5DFF8E04705462068407BBD
S3150800E850002802BFDFF8080900780A2801D07020CE
S3150800E86032BDFBF7ADFA002843D12DB10222294665
S3150800E870DFF8280BF8F72AFA00A800F0DAFF08B143
S3150800E880932032BD9DF8003014221BA10320FAF70D
S3150800E890ACFD00F051FF68BB9DF8000000F0A3FE38
S3150800E8A02068007B012818BF022806D0C01E03284E
S3150800E8B00FD2002000F0FDFF58B100F054FF206889
S3150800E8C0007BC01E032838BF09F028F8FFF738FE7A
S3150800E8D00FE02168132048730020DFF8501788746A
S3150800E8E005222168897B012000FA01F10520FEF73F
S3150800E8F0C9FF002032BD000042420000FF222DE978
S3150800E900FC41044600F03FF80D46017B012990467C
S3150800E91025D0407B022818BF032820D1FBF70DFA23
S3150800E920DFF808777A7E29460320FEF7ABFF060054
S3150800E93016D13320FBF718F9FFF79FFDFFF7BDFC4B
S3150800E940F880002C14BF02200120387407F1080053
S3150800E95000F08DFF0020B87487F8158000E0702657
S3150800E9600196009523462C220FF20C0100F008F8B8
S3150800E9703046BDE8F68100004242444200000000ED
S3150800E9800320FAF732BDDFF8A0060068704738B5ED
S3150800E9900446FBF717FF05462046FCF78EFA44198E
S3150800E9A02046FDF7B5FF4FF6FF5101402046BDE86A
S3150800E9B03440FDF7B4BF70B584B0FFF776FCDFF8D6
S3150800E9C06C46064620780B21FCF756FA002100F023
S3150800E9D064FFDFF85456FBF77BF958B11EB14FF6C2
S3150800E9E0F870864206DB08F037FB0646286840883A
S3150800E9F08642F8D03046FFF75CFC20780921FCF700
S3150800EA003BFAFFF75EFC2E68307B052813D100F031
S3150800EA1039FF8DF8080002AB207C00280CBF4FF4A4
S3150800EA20804244F20102012000904FF48061708810
S3150800EA3004F0AAF90FE006208DF8080000F022FF7E
S3150800EA408DF80900022300200190009002AA708820
S3150800EA50012107F01EF80646FF2E08BF002011D038
S3150800EA60286841883046FCF764FA207C02281CBFD7
S3150800EA703046FFF78CFF00F044F804463046FBF7B3
S3150800EA8015FF204604B070BD70B586B00C46164614
S3150800EA901D4638B92046F9F78DF802AA03A905F0EC
S3150800EAA046FF03A807218DF808100190310A8DF852
S3150800EAB00A1001200A998DF80B1000908DF809604C
S3150800EAC0042300F0BBFA0646FF2E18D02146FCF7B1
S3150800EAD030FA15B93046FFF75AFF0B9808B9304691
S3150800EAE00DE0204605F025FF18B13046F9F754F831
S3150800EAF001E000F006F83046FBF7D8FEFF2006B026
S3150800EB0070BD002200231146304605F021BE2DE9CE
S3150800EB10F64F83B004461E4600274FF6FF7556B1DA
S3150800EB204FF0010B304606F0F2FF81467078400838
S3150800EB3000F0010A05E0BB461046FCF761FA81467B
S3150800EB40BA4600F0AFF8C01E0328C0F0A2800E989F
S3150800EB50411C9DF81000C9B2FCF73EF8804608F043
S3150800EB60020002909DF80C0020B95FEA086058BFC1
S3150800EB7048F08008FFF707FF407B022804D1DFF83A
S3150800EB80E4050078204301D102271EE04846FFF736
S3150800EB9041FB9DF80C1019B1651EAD41ED0F00E063
S3150800EBA00025BBF1000F1CBF301DFDF7B1FE01218A
S3150800EBB000912B4601464246484605F0B1FE0546F9
S3150800EBC04FF6FF70854208BF0127D6B11CB94FF62C
S3150800EBD0FF70854204D1301DFDF79AFE014600E01C
S3150800EBE0294601200190009753462A464846FFF7D2
S3150800EBF04BFF029850B94FF6FF71484606F074F875
S3150800EC0004E03A462946484601F01EFB002F40D14B
S3150800EC100298E8B14946284606F089F80E2101FB14
S3150800EC2000F700F03BF8896A79184A7942F0400201
S3150800EC304A7106F0AFF8FFF7A6FE806A38185FEA51
S3150800EC40486241794CBF41F0800101F07F01417172
S3150800EC50FEB1DFF8A86C9DF810003070FFF725FBB1
S3150800EC605FEA48610FF22C0C48BF0CF1010CBAF1AF
S3150800EC70000F18BF0CF1020C02D10CB90CF1040CF0
S3150800EC8001469CF800004B462A460CF0EDFDFF2095
S3150800EC903070B0E00307000401050000DFF88813B0
S3150800ECA009687047DFF880030068007B70472DE924
S3150800ECB0F04F0446884685B091464046FCF707F96A
S3150800ECC0DA4D297C824601B10121D74E8DF8041010
S3150800ECD03068007B05280CBF012700273CB1504649
S3150800ECE006F015FF8346504606F004FF05E0404649
S3150800ECF0FCF786F98346DFF8080C03900423002006
S3150800ED0000904A46414602A8FBF76FFE0DF109003E
S3150800ED10FDF7FEFD9DF80B908046CCB10398DFF811
S3150800ED20E01B0822F8F71CF8002862D100F08BF9DE
S3150800ED3008BFB9F1000F0BD14046FFF7BAFA0CF03D
S3150800ED40AEFC9923FFF74EFC9920F9F756F850E0E8
S3150800ED50FAF7BEFF00284CD09DF80400384301D0CE
S3150800ED6014B946E0002C44D1B9F1000F03D0942021
S3150800ED70FFF705FC3DE030684088594605F0D7FFA7
S3150800ED8006F008F8306841885A46404600F070FC9C
S3150800ED903068417B012916BF31291121432141736E
S3150800EDA00220F8F7CEFFA24F40F6B8313846FAF7F8
S3150800EDB0D4FD08F0B3FD0020E8743068C17E19B9A7
S3150800EDC03846FAF7BFFD11E034B19AF80110890701
S3150800EDD002D5FFF78EFB09E0007B001F022805D24B
S3150800EDE005213846FAF7B9FD0620E874AD20FFF785
S3150800EDF00EFBF8F766FF05B0BDE8F08F2DE9FE4F6C
S3150800EE008046FCF764F80446FCF7A6F805462F1971
S3150800EE104046FCF752F82844C5B24046FCF7F0F8DD
S3150800EE20834638780090FAF77FFF00281CBF0098C1
S3150800EE30072816D10098DFF8F4A17B4EEC1C0128B0
S3150800EE404FF6FF790ED0022814D0042800F0BE80B1
S3150800EE50062815D0072863D0082821D07C2800F07A
S3150800EE607F80DEE000210095002342460846FFF732
S3150800EE704EFED6E02A4641460020FFF718FFD0E0AE
S3150800EE80584605F04FFD484503D00146584601F05F
S3150800EE908CF900F0D8F802D15846FAF7BBFAC0E068
S3150800EEA0691C00F0C7F80746E1B200F0C4F804464A
S3150800EEB0A91D00F0BFF805464D45F0D008F02EFD17
S3150800EEC03068407B132808D100F04DFC4046FCF71B
S3150800EED097F80146204605F02AFF00F0B4F818BF57
S3150800EEE013281CD12846FFF7E4F93846FFF7E9F955
S3150800EEF00021002000F0D8FB5946204600F0CDFC42
S3150800EF009AF80300DFF85C1A087000F019F93068FF
S3150800EF10417B132903D123214173FEF740FD80E08D
S3150800EF2000F091F802BFDFF8404A2078002878D12F
S3150800EF30F9F716FA05469AF9191001208840C0EB28
S3150800EF40001B1FFA8BF60020F8F7FBFE95FBF6F080
S3150800EF5006FB1050411C89B22046FAF7FEFC60E019
S3150800EF607878652804BFB8786D285AD1664800684D
S3150800EF7018F80000E4B2844253D20822594601A880
S3150800EF80F7F7A4FE00AB00222146404606F06CFCCB
S3150800EF90002846D19DF80000FF2842D0DFF8CC496A
S3150800EFA0DFF858590120207085F80080F8F7CEFE62
S3150800EFB001A89DF80010FAF722FAF8F7CDFEFF200F
S3150800EFC02870002020709DF8000028E04046FCF7D5
S3150800EFD034F80446DFF898090078FE2809DB40462D
S3150800EFE0FBF77FFF000B00F001012046FAF70CFA49
S3150800EFF017E00FF6D0100088ADF8080002230020AD
S3150800F0000190009000F01AF80546FF2D09D0214618
S3150800F010FBF78FFF00212846FAF7DEFE2846FBF7A6
S3150800F02045FCBDE8F78F0000D8FB002044F100201E
S3150800F030F8FB0020C9B24046FBF775BE02AA0121BB
S3150800F040204606F026BD3068407B0228704770B51A
S3150800F0500220F8F777FEF8F77EFEDFF81859DFF892
S3150800F060186900202870FCF712FA28B13068C07EAB
S3150800F07010B9FFF73EFA3EE0DFF80049FCF707FA59
S3150800F08010B9FAF725FE58B1E07C48B1C8212846E0
S3150800F090FAF763FCE07C401EE074FAF7D2FE2AE039
S3150800F0A03068407B132809D0FAF712FE30B9306869
S3150800F0B0407B11281CBF4328412803D1207DFFF738
S3150800F0C05EFA18E0022818BF032803D0002818BFE4
S3150800F0D0212810D10024DFF8A85808E02046F8F7C0
S3150800F0E03AFE002000F00EFCF8F736FE641C28787D
S3150800F0F0E4B28442F2D3BDE87040F8F72DBEDFF8DB
S3150800F1007C180020C87470474CEF002080B500209A
S3150800F110F8F718FEF8F71FFEDFF84C1800200870FD
S3150800F120DFF854080068417B022905D1007BC01E20
S3150800F130032828BF01F0A7F8BDE80140F8F70CBE80
S3150800F14080B5F8F717FEFF2804D00648007810B1F6
S3150800F150012000E00020DFF82C18087001BD00002F
S3150800F16083F10020ECFB00202DE9F04F0446DFF880
S3150800F170180800688DB0205C00902046FBF722FB3B
S3150800F1800646B01DFDF7C4FB074606F10900FDF764
S3150800F190BFFB814606F10B00FDF7BAFBADF80A0086
S3150800F1A006F10D00FDF7B4FB8346C00B8DF8080089
S3150800F1B0FAF7BAFD18B12046FAF7E6FDEAE008A91B
S3150800F1C02046FFF767F908AEDFF8AC57B078C0F30A
S3150800F1D0C3000390707800F00F0A0098202828686A
S3150800F1E0407BACBF9DF82E804FF00008022812D154
S3150800F1F0FFF763F881450ED104A800F038FB0098A4
S3150800F2001C2806DB08220DF1230104A8F7F7A8FD40
S3150800F21008B100F040FDB7F5004F02BF2BF440409F
S3150800F22040F6FF718842C9D100981C28C6DB002227
S3150800F23008210DF12300FAF733FD002839D1DFF84C
S3150800F2404C070078012830D19DF808000FF26C7140
S3150800F2500090CDF804A04B462722FFF791FBDFF874
S3150800F260300700788DF81200ADF810908DF81CA0C4
S3150800F2708DF81D8008229DF808008DF813000DF101
S3150800F280230105A8F7F722FD2868DFF87076407B8A
S3150800F29001281CBF33283C70F8F758FD04A8FBF773
S3150800F2A0E7F9FF203870F8F757FDDFF8D076B87C15
S3150800F2B000286FD1FAF70CFD00286BD0012078746E
S3150800F2C00022082107F10800FAF7EAFC10B1F888CD
S3150800F2D0814508D008220DF1230107F10800F7F748
S3150800F2E03FFD002856D19DF8080028B92868407BBC
S3150800F2F0312818BF33284DD101215046FFF774F83D
S3150800F300002847D09DF82000002802BF7078000921
S3150800F31002283FD12868017BB278022902D150071A
S3150800F32009D437E0120606D405291EBF4088BDF861
S3150800F3300A1088422ED13878DFF85856DFF8586612
S3150800F340FF2813D0787980450BD197F9020096F9F2
S3150800F350001088420ADB1DD178782978884205D3BF
S3150800F36018E0A8EB0000C0B2812813DAFFF785F889
S3150800F3703C702046FBF78CFA287878703078B8709D
S3150800F38003980F28B4BF401C0F20F87087F804A014
S3150800F39087F805800DB0BDE8F08F000000FC00205E
S3150800F3A02DE9FF410546DFF8D44501200E461746EC
S3150800F3B0A074FEF739FD002813D1A846B8F1010F4D
S3150800F3C018BF002D0ED1009733462622B5A1FFF7A8
S3150800F3D0D7FAF8F7BBFC39463046FBF75EF9F8F77B
S3150800F3E0BBFCA4E0FAF7A0FC28B13A463146284609
S3150800F3F0FAF7C9FC9BE0DFF880552868407B23288C
S3150800F4000BD1FAF7A5FB0446FAF7A6FB214604F04A
S3150800F4103CFC0220FAF7A8FB89E0002FFCD1212842
S3150800F4201CBF0428532802D108F07BF87FE0FAF7BE
S3150800F4304FFC00285BD02678FF2E05D1607C00287B
S3150800F4400CBFAB20942066E02868007BC01E03280A
S3150800F45089412079C90FFEF7C7FF08B998205AE0F5
S3150800F460F6F72CF905213046FBF721FD2968887344
S3150800F470F8F727FC207C68BB2868007B052829D07C
S3150800F48000F000FA074609213046FBF7F5FC8046EE
S3150800F4900B213046FBF7F0FC3A46414600F0B9FE30
S3150800F4A0E0B99420FEF7B3FF0220F8F74AFC296872
S3150800F4B0DFF8C0044A7B012A07D0312A18BF332A4D
S3150800F4C00ED1097B091F02290AD2C821FAF745FA83
S3150800F4D003200AE0FFF76FFA0028E2D194201AE029
S3150800F4E04FF41671FAF739FA0020E0741FE028681D
S3150800F4F0407B132815D100F017F9BDF80000FEF778
S3150800F500E0FE00F030F92868017BC91E032905D200
S3150800F510332141739620FFF732F808E0FFF710F819
S3150800F52005E0B8F1020F04BF30460BF02CFB4FF490
S3150800F530006005F0F1F910B905F05BF908B1F9F7C3
S3150800F540C3FFBDE8FF811FB5044600208DF8000003
S3150800F550FFF719FA007840F020008DF80100FAF755
S3150800F560E3FB18B12046FAF719FC3AE00DF103005F
S3150800F57000F07DF90322FF210DF10B00F7F7E9FBF7
S3150800F58000F03FFA8DF80E00DFF81014DFF8E003FC
S3150800F590DFF80C240078DFF80C34097812781B7829
S3150800F5A0FE28A8BF0020091A9B1A9042B4BF101A59
S3150800F5B00020DFF8B0231278DBB2C0B2D200C01840
S3150800F5C0C9B242F004028842B8BF42F080028DF800
S3150800F5D0022000A90F222046FBF771FA401E80413F
S3150800F5E0C00F04B010BD38B5DFF88C530446286840
S3150800F5F0017BA14203D004732046F8F7FBFB24B134
S3150800F6002868007B001F022805D2F8F76CFBFF2844
S3150800F61008BF012000D00020BDE83240F6F798B8B0
S3150800F62038B50D460446E87A0B38102801D38A20E7
S3150800F63032BD95F90A00FAF757FB08B18B2032BD9F
S3150800F640CD48E97A026891730068A97AC1732046A1
S3150800F650FEF72FFE4FF6FE7084420CBF4FF6FF7082
S3150800F6602889FEF72EFE2889C449C880002032BDA5
S3150800F67038B50C461546FEF71CFE07F0C1FC2946B0
S3150800F680204600F00AF9BD480178FF2918BFC0785E
S3150800F69005D1FFF707FB01280CBF00200120B1495F
S3150800F6A0087031BD424242007FB504460D4600F05F
S3150800F6B03BF8B14E94B1BC4A0021284600F0B7F990
S3150800F6C0306801788DF804100822007B8DF8050053
S3150800F6D0214602A8F7F7FAFA0BF0D8FB3068817BC7
S3150800F6E08DF80310C07B8DF80200FEF7E6FDADF835
S3150800F6F00000FEF7DAFDADF8060000F017F87FBD4A
S3150800F7001FB5044600F010F81CB100208DF805005E
S3150800F71007E0FEF7CAFDADF80600FEF7CEFDADF828
S3150800F720000000F003F81FBD00A833E010230722ED
S3150800F73000A9002009F011B900B58BB0FFF7F4FF56
S3150800F740BDF80000ADF8180004A99DF803008DF86F
S3150800F7501B009DF802008DF81A00BDF80600FFF799
S3150800F7605FFF0BB000BD1FB5012000F0A2F80446EC
S3150800F7700BF097FBFFF7D8FF1CB900224FF6FF7175
S3150800F78003E0FFF700F94188021DBDF80600FFF700
S3150800F7906FFF1FBD014610230722012009F0DDB8BF
S3150800F7A038B50820F8F7CEFA0446F8F7D4FA724DB9
S3150800F7B07E48296800788873F8F7CBFAA04208BF14
S3150800F7C0F8F755FA00210020FFF76EFF9B23FEF796
S3150800F7D009FF9B20F8F711FB28680021A0F84410C0
S3150800F7E0A0F84610BDE83140F8F7B6BA80B5A0F1E2
S3150800F7F00B01102901D38A2002BDFFF74FFA497B76
S3150800F800022918BF032901D0702002BD6749087074
S3150800F8100820F8F796FA00216548FAF767FB20B141
S3150800F820012808BFFFF7BCFF01E0A12002BD0020A8
S3150800F83002BD1FB50446FAF777FA18B12046FAF75B
S3150800F8409BFA12E000A8FFF7A5FF9DF8050040B156
S3150800F850062806DAFFF722FA9DF80420097891426D
S3150800F86001D0932001E02070002004B010BD1FB520
S3150800F870044600A8FFF78EFF082202A92046F7F7DC
S3150800F88025FA1FBD4B48007800B140203A4A4A493C
S3150800F8901268127B515C08437047374A13685880D0
S3150800F8A019B90822181DF7F754BA0822181DF7F7D0
S3150800F8B00DBA10B504462F48007AC00784B011D592
S3150800F8C00A230A2200A9012009F047F8BDF8080012
S3150800F8D04FF6FF71884205D00822FF2100A8FAF7E3
S3150800F8E0DFF908B1002006E024B1BDF8080000A938
S3150800F8F0FFF7D3FF012004B010BD000074F100200B
S3150800F9000CFC002070B51B4D0446287AC00784B04D
S3150800F9100CD5194E306841884FF6FF72914207D1CF
S3150800F92000220821001DFAF7BBF908B1002017E0EC
S3150800F93044B10220F8F705FA4FF4F0412846FAF7E1
S3150800F9400CF80CE030684188ADF808100822011D53
S3150800F95000A8F7F7BBF90A230A22FFF7E9FE0120F8
S3150800F96004B070BDE9FF002004FC0020E0FB002085
S3150800F970ADFF0020F8FB0020D8FB002044F1002052
S3150800F98084EF0020EBFF00204CEF002083F10020DD
S3150800F990D8FF0020D6FF0020D7FF0020BBEF0020AD
S3150800F9A0CAFF0020C9FF002000F8FF07C6FF002095
S3150800F9B0A1F70008C5AD0208B8AD02084257424291
S3150800F9C00000000004600000DFF840130020087102
S3150800F9D04FF6FF70CE490880704730B583B00446AD
S3150800F9E00D460823092200A9012008F0B6FF14B124
S3150800F9F09DF8060020700DB100982860BDF8040037
S3150800FA003EBD80B5002100A8FFF7E7FF9DF800007E
S3150800FA1002BD10B582B0044600A90020FFF7DDFF3D
S3150800FA20009A0146204600F002F8204616BD00B5A9
S3150800FA3083B08DF80600ADF8041000920823092259
S3150800FA4000A9002008F089FF07BD2DE9F04786B018
S3150800FA50804606F03DF80546AE48006818F800905E
S3150800FA60002000900A232A46414602A8FAF7BDFF5D
S3150800FA709DF8080005F10A0409280CBF0125002590
S3150800FA809DF80900E021084268D100A8FFF7EFFEBB
S3150800FA9008220DF10A0100A8F7F762F900285DD1DE
S3150800FAA0002D4ED000F01AF9002857D0984D288816
S3150800FAB04FF6FF7A50451CBF4FF6FE7188424DD16E
S3150800FAC0924F954938780978001D3870491E890083
S3150800FAD0C0B2814242DA00203870F8F741FC28802B
S3150800FAE0264607E031464046FBF71DF92988884235
S3150800FAF0F3D0B61CF6B2A9F101008642F2DB2888DB
S3150800FB00002818BF5045E8D0FEF7D7FB2988814260
S3150800FB10E3D0FFF776FF401CC0B2FFF77AFF014635
S3150800FB202A880A2000F050F840B14FF47A71381D3F
S3150800FB30F9F713FF0C20F8F704F90FE0A5F800A071
S3150800FB400CE0E1B24046FBF747F8FFF762FF611C9D
S3150800FB50C9B24046FBF7E7F800F07FF87AE06B4851
S3150800FB60017809B1491E0170704738B56749002008
S3150800FB7008710C20F8F7E6F8F8F7EDF8674800681A
S3150800FB80407B022818BF03281AD1614C20884FF6FB
S3150800FB90FE724FF6FF7590420CBF2580A8420FD023
S3150800FBA0FEF78FFB258000210020FFF77DFD9A23B5
S3150800FBB0132255A10320F9F718FC9A20F8F71DF926
S3150800FBC0BDE83140F8F7C8B82DE9F04705460026E4
S3150800FBD0092D0C460CBF01270027002186B0914647
S3150800FBE00846FFF7FAFE8DF80850804602AD012058
S3150800FBF068700DF10A00FFF73AFE0DF1120A17B9FF
S3150800FC00AC720DF1130A49465046FCF788FE0AF114
S3150800FC1002000FB94FF6FF7802A9431A019600961B
S3150800FC20DBB202AA6421404605F033FF0446FF2CE6
S3150800FC300FD03FB100F052F820B12046FFF705FF7C
S3150800FC40012603E02046FBF72FFC06462046FAF776
S3150800FC502DFE304606B0BDE8F08738B504464FF6A7
S3150800FC60FF75AC4216D0FEF728FB844212D028480E
S3150800FC700188A9421CBF4FF6FE7291420AD1048040
S3150800FC804FF47A712648F9F768FEBDE832400C2031
S3150800FC90F8F757B831BD21480068007B001F0228D5
S3150800FCA000D2704738B51A4C20884FF6FF71884243
S3150800FCB013D1FEF702FB05464FF470411848F9F7D1
S3150800FCC04CFE0C20F8F73DF84FF6FE7020802A46C9
S3150800FCD0BDE838400021092076E731BD10B50F4848
S3150800FCE00068007B001F02280AD3FEF7DEFA0446E6
S3150800FCF000210020FFF771FE844201D1012010BDCA
S3150800FD00002010BD000000004242000058FE0020FE
S3150800FD10B2F100204CEF0020C3EF0020D8FB0020F2
S3150800FD205CFE002070B5044601214FF4807004F093
S3150800FD30F1FDC8B1984E994D3078FF2807D028783C
S3150800FD40C00748BF00F003F93078FAF7AFFD347002
S3150800FD50002028702046FAF79BFD91480188281D47
S3150800FD60BDE87040F9F7F9BD70BD8C490A7842F0D4
S3150800FD70010208B142F002020A70704738B5864D92
S3150800FD80864C2878FF280ED000214FF4807004F0A6
S3150800FD90C1FD2078C00748BF00F0D9F82878FAF7DF
S3150800FDA085FDFF2028700020207131BDF8B500259B
S3150800FDB0784E7C4F00E06D1C3878EDB2854217D23C
S3150800FDC030682C4630F814100805F4D5284600F09B
S3150800FDD058F8FF28EFD0316831F814204FF2FF7336
S3150800FDE01A4021F8142000216F4A1268A154F2BD66
S3150800FDF06E490020088004F01AFD0446FF2C18BF3F
S3150800FE00FAF746FD2046F2BDF8B504466748068867
S3150800FE100D460021018096B32046FBF7B8F8B0F5E9
S3150800FE20006F2CD12046FBF7D6F80746F7F7C2FE37
S3150800FE30FF2824D035B15749096831F810203243D4
S3150800FE4021F81020402E14D0B6F5807F17D15248DD
S3150800FE500078844211D14FF6FF718F420DD0FBF71F
S3150800FE6068F84FF4827004F057FD30B9FFF786FF43
S3150800FE7003E015B921460BF054FF0120F2BD00201E
S3150800FE80F2BD2DE9F04381464948006883B04C46E7
S3150800FE9030F814800F46FF25F7F725FF45490978FE
S3150800FEA0884251D2F7F757FFB8050FD478051CD505
S3150800FEB007F0D2F80246002001900090012341463F
S3150800FEC0FEF7E2FD05464FF480602FE04FF6FF721D
S3150800FED041460E2007F02EFA0546FF2D32D0414640
S3150800FEE0FBF727F84FF4007020E02B4E3078FF28F8
S3150800FEF00BD0F90509D54146FBF71BF83078FAF718
S3150800FF00C7FC35784FF4807010E0780606D50021D6
S3150800FF1048460BF008FF0546402007E0380611D58D
S3150800FF20012148460BF0FFFE05468020FF2D09D02B
S3150800FF301E4908801749096831F8142022EA00008A
S3150800FF4021F81400F7F708FF2846BDE8FE837FB5B9
S3150800FF50114C2078FAF7E0FC05462078FAF7B7FF47
S3150800FF60801CFCF7D5FC0646207801A905F03FFE63
S3150800FF70F7F7ECFE0948007880074CBF002066209A
S3150800FF8000902B4601AA31460420FAF7E3FAF7F760
S3150800FF90E3FE7FBD68EF0020C2F1002058FF002075
S3150800FFA0BEEF002064EF00206CEF0020A0FF0020C9
S3150800FFB060EF002084EF002000B587B041F40061AF
S3150800FFC08DF81420120A8DF815200C9A04920B9AB3
S3150800FFD003920A9A0292099A0192089A009205AA2D
S3150800FFE000F002F807B000BD2DE9F14F82B00C46CB
S3150800FFF004F44040009015469DF808000F9AFF2823
S3150801000007BF0126082000260C20984604F4406AFA
S315080100100021FBF719F8BAF5006F81460CBF0227D4
S315080100200827B9F1FF0F59D0FAF7CCFB83464846A2
S31508010030FAF74DFF0EB944F0030400F8014B210A03
S3150801004000F8011B461CBAF1000F05D006F8018B12
S315080100504FEA182006F8010B3A4629463046F6F7C4
S3150801006035FE0098BD19F8B1600605D40C9805F857
S31508010070010B000A05F8010B0098B0F5004F03D0F3
S31508010080B0F5404F0AD00FE0FEF70FF905F8010B5E
S31508010090FEF70BF9000A05F8010B05E00822A0494D
S315080100A02846F6F713FE0835A5EB0B01C9B24846F3
S315080100B0FAF78EFB9DF80800FF2825D0012202A930
S315080100C04846FAF7FCFC30B90D9971B10E9A4846C3
S315080100D0FAF7F5FC48B14846FAF7E8FB9DF8080037
S315080100E004280CBFFF2018201AE09DF808000428F0
S315080100F008BF484614D0022806D14846F7F74CFDF2
S31508010100441EA441E40F04E010994846F9F764FE39
S3150801011004464846FAF7CAFB002C0CBF39200020D2
S31508010120BDE8FE8F00B585B000F018F800930020F1
S31508010130029001901A464FF4404106200AE000B5A4
S3150801014085B000F00BF81A46002002900190009045
S3150801015000210720FFF730FF05B000BD02200490FB
S315080101604FF6FF73FF200390704710B586B0FEF770
S31508010170A4F80446FEF799F84FF6FE718842B4BF13
S3150801018048F260014CF26001012004902346FF20E9
S31508010190039000200290019000906248006842880E
S315080101A00420FFF709FF06B010BD30B587B0044635
S315080101B00D46FEF782F88DF81400FEF77EF8000A60
S315080101C08DF81500FEF771F88DF81600FEF76DF833
S315080101D0000A8DF81700F9F790FD8DF818008DF8CB
S315080101E01950280A8DF81A00FEF767F801210491BB
S315080101F00090FF2103914FF6FF73072102912246D2
S3150801020005A9019108204FF44C41FFF7EDFE07B00F
S3150801021030BD34B50D4686B004460021FFF73DFBD7
S31508010220012004902B46FF200390224601200290CC
S315080102304CF6200106A801904FF6FF7000900120A8
S31508010240FFF7BAFE07B030BD10B586B00446080AF6
S315080102508DF814108DF815008DF81620FEF72DF877
S31508010260002104910346FF210391224603210291AD
S31508010270022005A90191002100914CF66041FFF782
S31508010280B3FE06B010BD70B584B0FF220021002070
S31508010290FAF7DAFE0446FF2C40F6FF753DD02148F1
S315080102A00068007B01282048007808BF44F6FF75DE
S315080102B008B145F4004500208DF8000000AE802005
S315080102C07070FDF7FAFF8DF80300FDF7F6FF000AD7
S315080102D08DF80400FDF7E9FF8DF80500FDF7E5FF48
S315080102E0000A8DF806000B22FF208DF8070000A9E9
S315080102F0280A307200208DF809008DF80A00204678
S31508010300FAF7DDFB2046FFF71EF918B10121204651
S31508010310F9F762FD2046FAF7C9FA7FBD0000000029
S315080103200CFC0020D8FB0020EBFF002001207047C1
S31508010330002070477047B520704770470020704706
S315080103407047002070470020704700207047002042
S315080103507047002070470020704701207047012030
S315080103607047002070470020704700207047002022
S31508010370704700207047B5207047704700207047C6
S3150801038000207047B52070477047002070477047B6
S315080103907047704770477047704770477047704796
S315080103A070477047704770470120704770470020B3
S315080103B070470020704700207047002070470020D2
S315080103C070470020704700207047002070470020C2
S315080103D070477047B5207047002070470020704766
S315080103E000207047704770477047704770477047DD
S315080103F0002070474FF6FF71884207D0010A01D0E5
S31508010400002070473D490978084000D0012070470F
S31508010410020A07D1394A1378002914BF184323EA77
S31508010420000010707047C108012200F0070002FAA7
S3150801043000F000EB012080B27047F8B504460D467E
S3150801044016461F46FFF7D6FF58B13A4631460020F1
S31508010450FDF7BEF91DB126A10020FDF7D1F92848FF
S315080104600480F1BD80B5FFF7C5FF20B1BDE80240A4
S315080104700020F8F72CBF01BD0CB480B50A4602ABC3
S31508010480012104E00CB480B50A4602AB0021FFF74E
S31508010490D4FF01BC5DF80CFB2DE9F04182B00024C4
S315080104A00FF28005DFF85C8012A713A6E0B2FFF70A
S315080104B0BAFFFFF79FFF002814BF30463846009061
S315080104C0224658F8243029460020FDF7A1F90020D4
S315080104D0F8F7FDFE641C032CE8DBBDE8F381012275
S315080104E0FF2101E0012200210448F6F732BC000091
S315080104F00D0A00006E6F000059455300E4F0002014
S31508010500CAF50020D4F0002080B5FFF78CFFBDE8BE
S31508010510044001217CE780B5FFF785FFBDE804406B
S31508010520002175E75B25645D202570203A2025703A
S31508010530000000002DE9F04FDFF884538046A86BD0
S31508010540410785B007D5296C2F6D0FF284360391C3
S315080105500024A14607E0E96B0FF27C36EF6CDFF861
S31508010560649303916C6D00074CBF0FF274320FF25E
S315080105707832B9EB040A07D064204FEA5A0100FB26
S315080105800710B0FBFAFB01E04FF0000B03980FF2DE
S3150801059060310290CDF80490009433464046FDF749
S315080105A037F91FFA8AF0019000961FFA8BF3BAB24F
S315080105B00FF26C314046FDF72BF995F838004007E4
S315080105C00CD4AAF19800874208D1686DBE498842C1
S315080105D004D20FF288314046FDF71AF9039881458E
S315080105E028BFA04205D232460FF29C314046FDF79C
S315080105F00FF94046F8F76BFE286EE8B10FF2A831FD
S315080106004046FDF7FDF80026A8A70FF25074286E9C
S31508010610F040C00707D554F82620107818B1394696
S315080106204046FDF7EDF8761C112EF0DB404605B085
S31508010630BDE8F04FFDF7CAB8404605B0BDE8F04F32
S315080106400FF29431FDF7E4B82DE9F0479C4F0FF20C
S315080106508C590FF2A4560FF28C680FF2044A04461D
S3150801066007F14405F8F7A5FB40F20151401A16D0E7
S31508010670401E17D040F2FF11401A35D04FF4407191
S31508010680401A39D0401E53D0401E73D0401E00F088
S31508010690B080401E00F0C880401E06D0C2E00FF2AE
S315080106A0503142E00FF28831C0E0E86C012806D0EB
S315080106B0032807D0042807D0052808D00AE00FF236
S315080106C0BC3608E07AA606E00FF2B83603E00FF268
S315080106D0BC3600E077A60FF2BC3100F0B0F82B6DFE
S315080106E00FF2D831324603E02B6DEA6C0FF2E43192
S315080106F02046FDF78DF890E00FF2F43100F09FF8EF
S31508010700686AC0F3400018B10FF2FC3100F097F89F
S31508010710686AC0F3807018B10FF2284100F08FF8AB
S31508010720686AC00F79D00FF2504100F088F874E07A
S315080107300FF2804100F083F895F8200010F0030FBE
S3150801074001D000F07FF8286AC0F3C01018B1EA6A30
S31508010750494600F079F80027286AF840C00705D508
S3150801076000F069F810B1314600F06EF87F1C082FC9
S31508010770F2DB52E00FF2884100F061F800F062F80E
S31508010780286AC0F3802018B10FF28C4100F057F89F
S31508010790286AC0F3C03018B1EA6A494600F054F82D
S315080107A00827286AF840C00705D500F044F810B1B3
S315080107B0314600F049F87F1C102FF2DB95F820002E
S315080107C0000603D10FF2984100F039F801270FF21C
S315080107D0C0460FF27858286BF840C00705D500F0D7
S315080107E02AF810B1314600F02FF87F1C042FF2DBEE
S315080107F013E00FF2A44100F022F800F023F81027C5
S31508010800286AF840C00705D500F015F810B1314639
S3150801081000F01AF87F1C1A2FF2DB2046BDE8F047D4
S31508010820F8F755BDBDE8F0870FF2884100F007F8E3
S3150801083000F008F8F1E758F82720107870472046A5
S31508010840FCF7E6BF7A6C51462046FCF7E1BF2DE975
S31508010850F0478046DFF874A00FF244560FF2784944
S31508010860002515A715A406E04046FCF7C9FF404632
S31508010870F8F72DFD6D1C3078A8B15AF8043B3246BD
S3150801088049464046FCF7BCFF16F8010B0028FBD188
S31508010890307800281EBFEDB205F00300032814BF07
S315080108A021463946E0E7BDE8F087000020257000BB
S315080108B0414443003F3F00000D0A00002C20000080
S315080108C00000002038EE00209800002004000020D7
S315080108D070726F63657373006D61696E0000000065
S315080108E0546872656164000048616E646C657200E3
S315080108F02570206D6F6465207573696E6720257094
S3150801090020737461636B202825347820746F202541
S315080109103478292C205350203D20253478000000B6
S315080109202575206279746573207573656420282599
S315080109307525252920696E20257020737461636BDE
S3150801094020286F7574206F66202575206279746575
S315080109507320746F74616C2900000000537461631D
S315080109606B205F6D61795F206861766520757365B7
S315080109706420757020746F203130302525206F660C
S3150801098020746F74616C2E005350206973206F7543
S31508010990747369646520257020737461636B2072B2
S315080109A0616E676521000000496E74657272757023
S315080109B074732061637469766520286F722070727A
S315080109C0652D656D7074656420616E64207374614C
S315080109D0636B6564293A00004E6F20696E7465720F
S315080109E0727570747320616374697665000000001E
S315080109F052657365742063617573653A205761742E
S31508010A006368646F6720657870697265642C206E07
S31508010A106F2072656C6961626C65206578747261B4
S31508010A2020696E666F726D6174696F6E00000000F1
S31508010A3052657365742063617573653A20576174ED
S31508010A406368646F67206361756768742077697482
S31508010A506820656E68616E63656420696E666F00FD
S31508010A60496E737472756374696F6E20616464721A
S31508010A706573733A2025347800000000534331200A
S31508010A80527800004D4143205278000053433220EA
S31508010A905278000052657365742063617573653A0F
S31508010AA020444D412070726F74656374696F6E20BE
S31508010AB076696F6C6174696F6E000000444D413A46
S31508010AC02025702C20616464726573733A2025347D
S31508010AD07800000052657365742063617573653A21
S31508010AE0204173736572742025703A2564000000ED
S31508010AF052657365742063617573653A204861723E
S31508010B0064204661756C7400484653522E56454317
S31508010B105454424C3A206572726F72207265616450
S31508010B20696E6720766563746F72207461626C659D
S31508010B3020666F7220616E20657863657074696FCF
S31508010B406E000000484653522E464F524345443ADA
S31508010B5020636F6E666967757261626C652066618E
S31508010B60756C7420636F756C64206E6F7420616395
S31508010B707469766174650000484653522E444542AD
S31508010B8055474556543A206661756C742072656CF2
S31508010B906174656420746F206465627567202D2011
S31508010BA0652E672E2C206578656375746564204209
S31508010BB04B50540052657365742063617573653AC9
S31508010BC0204D656D6F7279204D616E6167656D6542
S31508010BD06E74204661756C7400000000496C6C6582
S31508010BE067616C2061636365737320616464726510
S31508010BF073733A2025347800434653522E257000E4
S31508010C0052657365742063617573653A204275731D
S31508010C10204661756C7400004164647265737320C3
S31508010C206973206F6620616E20696E7374727563CD
S31508010C3074696F6E206166746572206275732066C9
S31508010C4061756C74206F636375727265642C206EAE
S31508010C506F74207468652063617573652E000000E2
S31508010C60434653522E286E6F6E6529206C6F616458
S31508010C70206F722073746F726520617420616E2013
S31508010C80696C6C6567616C20616464726573730075
S31508010C90414653522E25700052657365742063616F
S31508010CA07573653A205573616765204661756C747D
S31508010CB00000000052657365742063617573653AB7
S31508010CC0204465627567204D6F6E69746F722046A0
S31508010CD061756C74000000002570203D202534786C
S31508010CE00000000060A20208A0A20208D8A2020819
S31508010CF0DCA2020820A30208D8A20208D8A2020888
S31508010D005CA302088CA30208BCA30208E0A302089C
S31508010D1008A4020848A40208D8A20208D8A2020810
S31508010D2084A40208B4A40208ECA4020828A50208AF
S31508010D3058A50208D8A20208D8A20208D8A2020811
S31508010D40D8A2020890A50208C0A50208D8A20208DE
S31508010D5000A6020844A6020884A60208C0A602083C
S31508010D60C8A60208D0A60208DCA60208E8A6020858
S31508010D70F4A60208F8A60208FCA6020808A70208B3
S31508010D8014A702081CA7020824A7020828A7020814
S31508010D9030A7020838A7020840A7020848A7020890
S31508010DA0523000523100523200523300523400524E
S31508010DB03500523600523700523800523900523146
S31508010DC030005231310052313200523133284C52FF
S31508010DD029004D535000505350005043007850534A
S31508010DE052004D5350207573656400505350207559
S31508010DF07365640043535441434B20626F74746FA7
S31508010E006D004943535200534843535200494E54C7
S31508010E105F41435449564500434653520048465399
S31508010E20520044465352004D4D41522F42464152BB
S31508010E3000414653520052657430005265743100C0
S31508010E405265743200526574330052657434005227
S31508010E5065743500446174300044617431000000E2
S31508010E600D480E4901600E4941600020704700B1E6
S31508010E70702070470020704780B500F015F8FF28EC
S31508010E8001D1A32002BD002002BD00207047704792
S31508010E9000BF044800787047C4F80020203D0208C6
S31508010EA0223D020828F2002080B500F0EEFAFF285C
S31508010EB018BF002002BD002101707047007800B1FB
S31508010EC00120704701F08ABD01F096BD0FF6B810F2
S31508010ED0007882B001218DF803000FF6B010008862
S31508010EE0ADF806000FF6A8100088ADF8040000203A
S31508010EF08DF80200ADF80000DFF84C079DF80120D7
S31508010F0001749DF803100170BDF806104180BDF803
S31508010F10041081809DF8021081710FF65C1101EBB6
S31508010F20C20181609DF80010017302B0012141736D
S31508010F307047DFF81407007C7047DFF80C1701EBE0
S31508010F400010407B00F001007047412818BF422875
S31508010F5003D0432818BF442801D101207047002037
S31508010F607047412818BF422801D101207047002047
S31508010F707047432818BF442801D101207047002033
S31508010F807047F8B51546069A04461E4600F0F3F969
S31508010F9060B1042100F05FFB070007D02046FFF788
S31508010FA06BFF324629462046B8478CE0F1BD2DE94C
S31508010FB0F04383B016001CBF0A9D002D04468846DF
S31508010FC01F461ED0EFB128787188000730794CBFCB
S31508010FD04022802200F0CFF998B1082100F03BFBAE
S31508010FE0814670B13079FFF747FF0B98019000955C
S31508010FF03B46324641462046C847BDE8F743FFF718
S3150801100044BFBDE8F783F8B5164605461A4600F00B
S31508011010B2F9D0B1069C5CB9022100F01CFB0400B0
S3150801102013D02846FFF728FF31462846A0470BE08C
S31508011030102100F010FB070007D02846FFF71CFF18
S31508011040224631462846B8473DE0F1BDF8B5154672
S3150801105004461A4600F08FF908B98620F2BD0699AA
S31508011060002689B9202100F0F6FA07000CD020469F
S31508011070FFF702FF0998089B079A00902946204620
S31508011080B8470646FFF701FF3046F2BDF8B50446F4
S31508011090A5682078FFF7F0FE002610E028681421DD
S315080110A001FB060720783988FFF74AF901213846F6
S315080110B000F0D1FA01001CBF20788847761C2879F0
S315080110C0F6B28642EAD3BDE8F140FFF7DEBE38B58F
S315080110D00024DFF8745508E02046FFF72EFF18B103
S315080110E005EB0410FFF7D2FF641C287CE4B28442A6
S315080110F0F2D331BD10B5002301E05B1C001D9BB284
S315080111008B4204D204889442F7D1408810BD00204E
S3150801111010BD0288B2F57C4FA8BF00F00BB80FF2DC
S315080111206050081A0C2190FBF1F292B200210FF2DD
S315080111305470DFE70FF28C61401A142190FBF1F22B
S3150801114092B200210FF23870D4E710B50C46018827
S31508011150628891420DD1027B23791A4209D0B1F5F1
S315080111607C4F04DBFFF7E6FF2189884201D1012084
S3150801117010BD002010BD10B514460A88E3889A42AE
S315080111800AD10288B2F57C4F04DAFFF7C2FF21893A
S31508011190884201D1012010BD002010BD2DE9FE4F66
S315080111A0002482B08346A246DFF89C6404E0C08826
S315080111B00419A4B20AF1010A307C5FFA8AFA824557
S315080111C080F0B0804FEA0A118819895D9BF80020E2
S315080111D080689142EBD100905046FFF7AEFE002899
S315080111E0E8D0002704E0B8F80A000419A4B27F1C65
S315080111F000980079FFB28742DCD200980068142172
S3150801120001FB070859464046FFF79FFF0028EAD029
S315080112104FF0000908E028793021084202D1E87820
S315080112200419A4B209F10109B8F808001FFA89F9E5
S315080112308145DCD2D8F804000C2101FB09055A4680
S3150801124029464046FFF797FF0028E4D0029800B1E7
S3150801125005602879810610D50FF22441002206E09F
S315080112600B799B0602D5CB789A1892B20C31A94212
S31508011270F6D3911901F1340A02E0A11901F1140A10
S315080112800E9C1CB1039EDFF8C47306E0039900297E
S3150801129046D056468A46DFF8B873C0060DD52946A4
S315080112A04046FFF736FF0346039800902A46BBF8E7
S315080112B002109BF80000B84735E0BDF8100095F814
S315080112C0028000280CBFEF7807464046FFF749FE23
S315080112D030B17A1ED2B23146504600F0C5FD1FE044
S315080112E04046FFF746FE30B1BA1E92B23146504625
S315080112F000F0D2FD14E03CB9BDF8100020B1E97840
S31508011300884238BF89200ED3002E3A4604D10021DF
S315080113105046F5F71EFD03E031465046F5F7D6FC73
S31508011320002000E0862005B0BDE8F08F50B50346E1
S31508011330002403E0067B360615D4641C1879E4B24A
S3150801134084420FD21868142606FB040006888E42CA
S31508011350F3D142B1802AEDD0402AEED1067B76063A
S31508011360EBD550BD002050BD80B5402200F003F8F2
S3150801137000B1012002BD38B50C46154600F085F8C6
S31508011380FF2801D1002032BDDFF8BC322A462146AA
S3150801139003EB0010BDE838408068C7E74022FFE745
S315080113A02DE9F8430446884691460027FFF7E3FFEF
S315080113B008B9FF2015E00025A34E00E06D1C307C1E
S315080113C0EDB285420CD22801805DA04208D04A467A
S315080113D04146FFF7D0FF0028F0D07F1CFFB2EDE7AA
S315080113E03846BDE8F28330B50022974B00E0521C1F
S315080113F01C7CD2B2A2420AD21401E55C8542F6D11E
S3150801140019B1E418647BE407F1D5104630BDFF2015
S3150801141030BD80B50021FFF7E6FFFF281CBFBDE8F8
S315080114200240FFF78ABD002002BD70B50E4604468C
S315080114300021FFF7D8FFFF2801D1002070BD82499E
S3150801144001EB0015002E687B00F0010114BF40F086
S315080114500100002096EA010F687314D076B1284678
S31508011460FFF714FE0FE00068142101FB0600017B5B
S31508011470CA090188204601F0F5FA761CA86801799F
S31508011480F6B28E42EFD3012070BD0121ABE76E495A
S315080114900001405C704738B50C46FFF7F6FF014678
S315080114A00020FF291FBF684A02EB0111896800293C
S315080114B014D0002203E01B0648BF2846521C0B79AC
S315080114C0D2B29A4209D20B68142505FB0233451C90
S315080114D01B7B002CEFD05B06EEE7C0B232BD70B5C0
S315080114E00C461546FFF7D1FF0021FF281AD0564AA8
S315080114F002EB0012002301E0491C5B1C9068067987
S31508011500DBB2B3420ED20068142606FB0300067B43
S3150801151015B1760602D4F0E73606EED5C9B2A14270
S31508011520EAD170BD002070BD002100E001212DE93E
S31508011530F14F86B08846F6F7FFFB059000259DF822
S315080115401800019000E06D1C3F48007CEDB2854211
S3150801155076D20198FF2806D09DF81800FFF795FF67
S315080115600546FF2D6CD0384800EB05160198FF2873
S3150801157003D1307B05998842E5D14FF0000A01E095
S315080115800AF1010AB06801795FFA8AFA8A4554D2E2
S315080115900068142101FB0A044FF000092089B0F5FF
S315080115A0967FC8BFF7F7DAF913E001200090002308
S315080115B05A46002102A8FFF7F1FDB8F1000F06D03F
S315080115C0BDF80A2031783B46584600F043F809F140
S315080115D0010920891FFA89F98145D1D260680C2150
S315080115E001FB09073879C006F1D430788DF808006F
S315080115F039462088ADF80A00387940064CBF802064
S3150801160040208DF80C003888ADF80E002046FFF70B
S3150801161080FDADF810003979F878490706D5D7F86D
S3150801162008B00328C1DBDBF800B0BEE70328B4BF66
S3150801163007F1080BD7F808B0B7E70198FF2882D059
S3150801164007B0BDE8F08F000028F200205F0301080B
S315080116505B030108704710B5047B012200230C4285
S3150801166005D1002010BD144218BF5B1C5200D2B22E
S315080116708A42F8D30069DBB250F8230010BD000096
S3150801168000002001200000000100000001002001E7
S3150801169020000000000000000200200120000000D8
S315080116A000000000030020012000000000000000E7
S315080116B0040042212000000000000000050042212C
S315080116C02000000000000000070030012000000093
S315080116D0000000002000200120000000000000009A
S315080116E02100200120000000000000003100300127
S315080116F021000000FF000000330020012100000046
S315080117000000000036002001210000000000000052
S3150801171037002001210000000000000038002001E8
S31508011720210000000000000039002001210000000E
S31508011730000000003E001B0420000000000000001D
S315080117400000210201000000000000000000F0086E
S3150801175040000000003D020801002304400000008B
S31508011760083D020802002304400000000C3D02085F
S3150801177006003001400000000000000007002102B9
S31508011780400000000210000008002102400000008D
S3150801179005A0000000002102000000000000000072
S315080117A01B01210200000000000000001C012001AD
S315080117B000000000000000001D01280100000000D3
S315080117C00000000000000000801601080700000064
S315080117D0400000000000000001000000D4160108C6
S315080117E0090000004000000000000000030000009E
S315080117F040170108000000008000000000000000FA
S315080118000300000040170108010002004300000020
S31508011810103D0208060000004C17010800000000F0
S315080118208000000000000000080000004C170108B5
S315080118300000000080000000000000001900000000
S315080118404C1701080600150085000000183D02081E
S315080118500003000094170108000000008000000042
S3150801186000000000050B000094170108040006009B
S315080118704000000000000000C417010809001D000F
S315080118800000000000000000010000000401000043
S315080118900501000080B5FEF7A6FDFEF749FDFCF738
S315080118A0FDF9DFF834170A88821A92B2C92AA8BF45
S315080118B0088001BD80B5FFF7E8FDFF2804D018B9F7
S315080118C0DFF81807007802BD002002BD10B50168CF
S315080118D0DFF80C270B88DFF80C4713804B885380F9
S315080118E0497911710168097951714FF48A51D18089
S315080118F001688979890644BF4FF48B51D180617893
S3150801190082693AB9C088DFF8E026108001F0FD0047
S31508011910607010BD41F00201617016228169201DB7
S31508011920F5F7D4F90020207110BD80B50020FFF726
S315080119309EFAFF20FFF7F8FDFFF7A7FAFFF7F9FA76
S3150801194002460121DFF89406F5F703FADFF8903627
S31508011950DFF89826DFF8980652210AF082FA00F095
S31508011960F7FF0AF0BDFA0AF001FB07F0A1F806F045
S3150801197009FD0AF06FFB07F047FB0AF01DFCBDE8FD
S315080119800140FFF7A4BB70B500240FF2747501E09E
S31508011990B047641CE4B255F82460300004D006F060
S315080119A0E9FC0128F4D170BD05F0E2FFBDE87040FD
S315080119B00AF00CBD80B5FCF78FFD20B9F8F711F9CF
S315080119C008B9FEF7B8FCFEF704FDBDE80140FEF7CD
S315080119D00EBD10B500224FF6FF710FF2C86300E085
S315080119E0521C92B233F832408C4203D08442F7D16A
S315080119F0104610BD084610BD38B50446FFF7E9FF85
S31508011A00DFF8F05501464FF6FF722888914203D157
S31508011A1022460FF2F85106E00FF2886202EBC10185
S31508011A204A680FF20061FEF72DFD2888BDE83240AD
S31508011A30FEF718BD10B50446DFF8BC050078002886
S31508011A4082B03BD00AF08EFD02460FF2E051022029
S31508011A50FEF718FD2068418800914379A2890FF2A3
S31508011A60D4510220FEF70EFD0220FEF7C3FC18B181
S31508011A7020684088FFF7C0FFE07B28B1228A0FF271
S31508011A80D4510220FEF7FEFCE07C0FF2D4510090FF
S31508011A90A068A37C02780220FEF7F4FC207DA189C8
S31508011AA00A1AA1684118012392B202200AF094FD8C
S31508011AB0BDE81C40AEA10220FEF7DEBC13BD10B581
S31508011AC0044620684079FFF7E0FCFF281DD0DFF8BF
S31508011AD02C15227F01EB0010017B914215D122685A
S31508011AE040881188884206D04FF6FF7399420CD177
S31508011AF0B0F5004F09DA2079022818BF032806D164
S31508011B0011895079FEF727FC08B9002010BDA07B82
S31508011B10002820461CBFBDE810400AF001BEBDE8FA
S31508011B2010400AF045BE38B514461A4623785B07B5
S31508011B304CBF052303239A420AD2009313460FF298
S31508011B405C520FF23C510220FEF796FC002032BD92
S31508011B50069D286029710498E880AC60AA812078DE
S31508011B6000F00100A873207800F00400E8732078DB
S31508011B70C00800F00100687501202875E87B30B1BE
S31508011B80012120460BF0C7F8297D891C2975288271
S31508011B90287D411C2975005DA874481C2875C9B2A1
S31508011BA0085DE8740598A861F6F7C6F82877012054
S31508011BB032BDF0B58BB00E4603A9029100251099E6
S31508011BC0119FDFF82044009101973146FFF7ABFFDB
S31508011BD000285ED003A8E061DFF824149DF81E00F2
S31508011BE0087003A8FFF726FF03A8FFF76FFE03A8EF
S31508011BF0FEF7E1FB08BB17BB042E18BF052E03D061
S31508011C00022E18BF032E01D1012200E00022BDF8E1
S31508011C1012000190012103984088009003980388D7
S31508011C209DF81F0000F0E8F860B1039880798006F6
S31508011C3008D4012103A800F0DDF8012529E0387D43
S31508011C40800726D503984079FF281ED10026DFF89C
S31508011C509073FFF76EF9F6B286421AD23046FFF74D
S31508011C606CF980B103A8FFF731FE3046FFF70FFC88
S31508011C70039948713046FFF70AFC387103A8FFF744
S31508011C801EFF00B10125761CE3E703A8FFF717FF3E
S31508011C9005460AF0E1FF16220021201DF5F759F83D
S31508011CA00020E0610BB02846F0BDDFF85803017843
S31508011CB0491C017001F07F007047DFF828134A7844
S31508011CC0002814BF42F0010002F0FE004870704778
S31508011CD07CB5DFF810436378D90701D5002076BDB6
S31508011CE02278DFF8FC12012A03D1CA8842F04002A1
S31508011CF005E0022A04D1CA884FF6BF752A40CA8070
S31508011D00DFF8FC221578DFF8E822167876074CBF4B
S31508011D10D5705570DFF8D4522D889B0708D529460A
S31508011D20201DFEF728FB617801F0FD01617076BD83
S31508011D30DFF8B4321C884FF6FC739C4208DA00922D
S31508011D4001900A462B4621460020FAF766FF76BD22
S31508011D50009013462A462046FAF749FF76BD002029
S31508011D60B6E70A460146DFF87C02C06904E00000CE
S31508011D705D0000000021F4E770B504460D462079A0
S31508011D80002818BF012816460AD1A0680078C0069F
S31508011D9000D52DB1A07B002804BFE07C0B2801D11A
S31508011DA0002070BDDFF8441200200880607DE17BC9
S31508011DB000280CBF0820002011B90AF063FF06E0CD
S31508011DC040F004000AF05EFF208A0AF066FFA07C54
S31508011DD00AF058FF0B200AF055FFE07C0AF052FF83
S31508011DE028460AF04FFF2046FFF770FD3046BDE84A
S31508011DF070406DE70022BFE710B51C460A46034648
S31508011E0002992046FEF79DFA00B1012010BD38B5AA
S31508011E10D2885224950648BF4924550544BF083C33
S31508011E20E4B2150544BF083CE4B212044FF6FD734B
S31508011E3044BFA41EE4B238B102280BD006D3032846
S31508011E4004BF641EE4B209E00B4607E0C8B201F01C
S31508011E500AFC02E0C8B201F086FF03461846FEF7FF
S31508011E6088FA201AC0B232BD70B504460D000EBFFD
S31508011E7000202878FF28164601D1207070BD284613
S31508011E800AF056FF864288BF06463246691C601C20
S31508011E90F4F71CFF267070BD70B50D000446164692
S31508011EA003D100206070207070BD2878FF2802BF1A
S31508011EB06878FF2820700CD028460AF03EFF864233
S31508011EC088BF06463246A91CA01CF4F7FFFE2670F9
S31508011ED0300A607070BD2DE97041541E002B38D050
S31508011EE0052A48DA002500262B460EE0A2EB030850
S31508011EF04FEAC8080CFA08FC4CEA06061EF801C0A7
S31508011F000CFA08FC4CEA05055B1CDBB2934208D2C5
S31508011F10A4EB030E00280CBF4FF0000C1EF800C0FE
S31508011F20E4E7042A0FDAD0000121D200401E9140CD
S31508011F30494246FA00F2D20748BF0E4345FA00F075
S31508011F40C00748BF0D43B5420EDBAE4213DA0FE0B8
S31508011F505B1CDBB293420ED2E51A00280CBF0026A1
S31508011F602E5C6D5CB54201DA012005E0AE42EFDA7E
S31508011F704FF0FF3000E00020BDE8708100210FF22C
S31508011F806C1201E0891CC9B28B5C8342FAD38818AA
S31508011F9040787047283808288041C00F7047F8B53F
S31508011FA004466A26022C154613DA174FE05D78B9FE
S31508011FB0204601F0DDFA060007D14FF6FD7085428D
S31508011FC003D02946204601F014FB0120E05500E024
S31508011FD076263046F2BD000080FF0020BCFF0020B7
S31508011FE060F8002000FB00205CF800205EF8002065
S31508011FF06CF80020CAF50020ACEE002028F200207B
S315080120002CF100202DF100202EFC002028556E6BA6
S315080120106E6F776E20636C75732E205B3078253270
S31508012020785D290028257029000000000D0A54252D
S3150801203034783A005258206C656E2025642C206548
S31508012040702025782C20636C7573203078253278BA
S3150801205020000000206D666749642025327800005B
S315080120602046432025782073657120257820636DE5
S3150801207064202578207061796C6F61645B000000CB
S315080120802570525820706B7420746F6F2073686FB7
S3150801209072743A202564203C202564004552524F2B
S315080120A0523A20000000000004AD020801000000B9
S315080120B00CAD02080300000020AD0208060000006E
S315080120C02CAD02080800000034AD02081900000012
S315080120D044AD02080003000060AD0208050B0000CC
S315080120E070AD0208FFFF00000000000007021F0193
S315080120F02F0037013F005701DF02E700FF0200000A
S3150801210009A401089518010800000000024A507048
S315080121101170002090707047DDF50020DFF8100778
S31508012120C06F00687047DFF808070021017080F862
S31508012130781080F8651080F8771080F87910FF21FB
S3150801214080F87A10002180F87B10C16770476128F2
S31508012150A8BF572107DA4128A8BF372103DA3A2849
S31508012160B4BF30210021401AC0B27047DFF8C0164B
S31508012170401890F8661090F86500D2E1DFF8B016BD
S31508012180401890F865004018401C70472DE9F84F33
S3150801219080460F460024DFF89C96DFF8946601E036
S315080121A089F80000B8F1000F09D100A9F8B2F6F7CD
S315080121B0D9FF70B1262818BF012073D101E0FFB2FB
S315080121C017B92046BDE8F28F18F8010B8DF8000003
S315080121D07F1E99F800109DF800000D2908BF0A28EE
S315080121E0DED00D2889F8000005D101240025222812
S315080121F007D1012106E00A28F7D000242028F5D1C5
S3150801220001250021327832B1022A21D017D3042AB6
S315080122104CD021D3C6E714B100F094F8C2E7002DDB
S31508012220C0D139B10220307096F87850642D55D155
S31508012230062037E07B2814BF01200320F3E755EA7F
S315080122400400F1D096F87700112839D1032029E046
S315080122500029F7D12CBBE7E796F87AA0BAF1FF0F68
S3150801226014BF4FF0010B4FF0000B7D2803D1BBF1D2
S31508012270000F16D1E6E79DF80000FFF768FF102862
S315080122800DDABBF1000F07D000EB0A108DF800003C
S31508012290FF2086F87A00C7E786F87A0082E7002DDC
S315080122A0FCD1052086F8790004203070002C06D070
S315080122B096F8790008B100F06FFAFFF734FF71E775
S315080122C0401C86F87700C0B296F87810801980F815
S315080122D065100020002C3070F1D09DE73078012878
S315080122E005D19DF8000000F01AF88DF800009DF858
S315080122F00000A919487096F87800401C86F87800FD
S3150801230050E782684068030008BF0A6003D0127864
S315080123106E2A02D108600120704700207047A0F19B
S3150801232041011A293CBF2030C0B27047DFF80015B9
S3150801233091F87B201018C0B2401890F86500401833
S31508012340407870472DE9F04F83B0DFF8EC0401902F
S315080123500024DFF8DC0490F87700002865D0DFF860
S31508012360DC040078C0071DD50025A1A610E068B2D7
S31508012370FFF704FF07462846FFF7F8FE02463946E7
S315080123800020F6F75DFF31462046FBF739FA6D1C4A
S31508012390DFF89C0490F87700EDB28542E7D395A162
S315080123A000F0E9F9019D002660B2FFF7E7FE8046D5
S315080123B02046FFF7DBFE834600270DE019F8010BDF
S315080123C0FFF7ADFF00901AF8010BFFF7A8FF009978
S315080123D0C9B2814206D01435D5F800A0BAF1000F6A
S315080123E015D0C146A9EB080058459AF800000CBF5C
S315080123F001210021421E924111EAD27F0BD151EAF5
S31508012400D270DBD0002E0CBF2E460127E3E7002F42
S3150801241014BF0025354601950198DFF8245440B9C3
S315080124200220A870A87800F0B7F9FFF77CFEBDE88E
S31508012430F78FDFF8FC13C867641C2879401C2871DC
S3150801244001A90198FFF75DFF18B100F05DF8A9D35E
S3150801245050E00198806800783F284DD00026B046A4
S315080124600FE00720A87001988068301840782A285C
S31508012470A8781CBF761CF6B200283DD1641C08F169
S31508012480010800F041F8019880682CD2375C5FFAA0
S3150801249088F0FFF74BFF27B3B7F162011BD011395B
S315080124A002D0891E0229DCD8752F08BFFF2709D05B
S315080124B0762F08BF4FF6FF7704D0732F0CBF7F27FF
S315080124C04FF0FF3701215FFA88F000F02DF88742B7
S315080124D0C9D20420C6E7222818BF7B28C3D0052005
S315080124E0C0E70320BEE7315C00291EBF30184078DB
S315080124F02A2801D0032094E7A878002892D10198C8
S3150801250040680AF025FC90E7DFF8240390F8770085
S31508012510E4B284427047DFF8180390F8771090F810
S315080125207B00081AC0B270472DE9F047DFF800931F
S31508012530884699F87B100818C0B200EB090191F892
S31508012540651049444E1CFFF711FE8246DFF8DC028E
S3150801255005780024002707E0A4B9012F18BF022F28
S3150801256010D11025781CC7B2574517DAB85DB8F1EE
S31508012570000F03D0002F08BF2D28F3D0782818BFE5
S315080125805828E9D0FFF7E3FDA842B8BF05FB0404C4
S31508012590E8DB052089F87900002000E02046BDE83F
S315080125A0F0870021C0E738B50446FFF7BFFE2D289E
S315080125B00CBF0125002529462046FFF7B5FF0DB1B9
S315080125C000B2404200B232BD70B50C46984991F846
S315080125D07B100D18C6432CB1E8B2FFF7C7FDA0EB77
S315080125E0D670207068B2FFF7C9FD00EBD67070BDD2
S315080125F0200000000D0A0000F8B50C4616461F46D5
S3150801260000A9FFF7E1FF05469DF80000864298BF3D
S3150801261030468DF80000002F1ABF9DF80000361AC3
S315080126200026F6B2324600212046F4F792FB9DF8C1
S31508012630002029463019F4F749FB9DF80000F2BD40
S3150801264038B50C4601230822FFF7D6FF0021621A86
S315080126500D5DD379D5710B55491C0429F7DB32BDBC
S315080126602DE9F0410C460746A668226867A100F0E5
S31508012670EBF860680FF2981818B966A1FBF7C0F86D
S3150801268041E0002F3FD0E068002788B10FF2C01162
S3150801269000F071F80CE000F06EF8206930B1FFB275
S315080126A050F827200FF2F81100F0CEF87F1C761C9F
S315080126B0357835B3206908B100F05CF8752D08BF87
S315080126C00FF29811E7D0762D08BF0FF29C11E2D0D0
S315080126D0772D08BF0FF29C11DDD0732D08BF0FF2BD
S315080126E0A011D8D0622D08BF0FF2A011D3D06E2D3C
S315080126F008BF0FF2A411CED02A2D0CBF46A147A1BF
S31508012700C9E700F00EF80020F6F7E1FDE2681AB114
S315080127100FF2941100F098F800F003F8BDE8F041C3
S3150801272025E041460020FBF773B810B5044682B090
S3150801273021460120FFF794FF00A92046FFF7E1FD96
S3150801274048B913BD00F016F800990020FFF788FF75
S31508012750009814300090009800680028F2D113BD43
S3150801276080B50FF24C1100F006F8BDE802400020D2
S31508012770F6F7ADBD2AA10020FBF742B810B52E4CDD
S31508012780FFF7EEFF04E021460020FFF769FF143446
S3150801279020680028F7D110BD2DE9F843294951F8D9
S315080127A020200FF24C1100F04FF8214CE06F002861
S315080127B004BFBDE8F143FFF7E1BFFFF7D1FF0025ED
S315080127C018A60FF264090FE017F80820494600F029
S315080127D03BF87F1C2846FFF7C9FCFFB28742F3D3B3
S315080127E03146FFF7C8FF6D1C94F87B00EDB2401E19
S315080127F0854205DA68B2FFF7C1FC80460027E9E79A
S31508012800E06FBDE8F24390E7000000002570000084
S31508012810000000002E2E2E00202A0000203F000076
S31508012820202000002000000025630000B7EE0020EC
S3150801283024F50020A6FF0020AC9E0208A7FF002071
S315080128409BF50020B8EE00200020FAF7D9BF00005A
S3150801285020286172677329200A000000203C696EEE
S315080128607438753E00000000203C696E7431367577
S315080128703E000000203C696E743332753E0000004C
S31508012880203C696E7438733E00000000203C737466
S3150801289072696E673E000000202E2E2E0000000091
S315080128A0202025700A000000202D20257000000038
S315080128B055736167653A0D0A3C696E743E3A203173
S315080128C03233206F72203078314142430D0A3C730E
S315080128D07472696E673E3A2022666F6F22206F72A4
S315080128E0207B30412031422032437D0D0A0D0A00FA
S315080128F025700D0A0000000038B504460D4610463D
S31508012900FEF7B5FA00202070A847BDE83140FEF76A
S31508012910BCBA002227492848EEE700222749284859
S31508012920EAE770B5044616460D463046FEF7A4FAA0
S31508012930002020703046A847BDE87040FEF7A5BACA
S31508012940012220492048ECE7012220492048E8E7EE
S3150801295080B50120F7F7EBF80FF22810F7F785F89D
S315080129601C49087001BD80B505F004FD012805D094
S3150801297018480078BDE80240F7F763B801BD70B59D
S315080129800024154D00E0641C2E88E3B2B3420ED232
S31508012990E4B20C2303FB045313F8046F864201BF08
S315080129A05E888E421E799642EDD1184670BD00208A
S315080129B070BD0000C979010800F200204F8F010897
S315080129C008F200209B0C0208F0F10020FB94010894
S315080129D0F8F10020A2FF002038EE002080B519B9D1
S315080129E0F6F7B0FF002002BDB1F1004F02D2F6F7AB
S315080129F0B4FFF7E7022002BDB1F5000F3CBF09029B
S31508012A00FFF7ECBF0220704770B504461D46FFF775
S31508012A10B6FF06000ED02046FEF7FBFC50B1B068A3
S31508012A202946FFF7DBFF28B9049870710598B0713C
S31508012A30002070BD022070BD1CB500931346049C8E
S31508012A400194012205E01CB500931346049C0194E8
S31508012A500022FFF7D9FF16BD80B500230093FFF7C3
S31508012A60F2FF02BD80B5FFF78AFF20B18068002119
S31508012A700170002002BD022002BD0122F2E70022F8
S31508012A80F0E7000068FA002087860108F0F10020C7
S31508012A9041290108F8F1002049290108B4F200206A
S31508012AA091BF0108E0F400205DA70108E8F40020C1
S31508012AB0A9A70108F0F40020FBA7010804F50020E6
S31508012AC04FA80108F8F4002055A70108A4F500202D
S31508012AD08B8B0108B0F50020038C0108B8F500209E
S31508012AE0D78B010828F6002091D4010810F7002099
S31508012AF0E5DD0108D0F80020E19001081CF9002065
S31508012B00BBED010844F90020E5C1010800F20020E7
S31508012B101329010808F200201B290108E8F60020FC
S31508012B20A3A30108F4F60020EBA0010800F7002092
S31508012B30A3A0010800000000000000002DE9F84FDD
S31508012B408AB00D461646ADF804504FF00008F788CE
S31508012B500446C246C146F7F7F0F8159860B9F80673
S31508012B600AD59DF850009DF828300090324629462E
S31508012B7020460AF0D5FB04E1780548BF4FF4805A90
S31508012B80380548BF4AF4006AB80548BF4AF0800AC2
S31508012B9003D4F80548BF4AF0400A9DF85000029050
S31508012BA0072CAB4665D8DFE804F0062C183A3A0438
S31508012BB0063A4FF002099DF82800BDF80420009056
S31508012BC043469DF850004AF4027102F0E3FE82463C
S31508012BD0BAF1FF0F4FD11820D3E005A9E8B201F0E9
S31508012BE0E0F808220DF1190103A8F4F76FF8DFF8E8
S31508012BF01808006830F81B000DF10C08ADF8040040
S31508012C00D9E703A9E8B200F020FDDFF8000800685B
S31508012C100C2101FB0B000DF10C080088EEE74FF6BD
S31508012C20F870834525DBF0884FF40261084220D10C
S31508012C3000F033F918BF91201CD10298FF280FD054
S31508012C4000F01DFB032C0CBF01210021401ADFF8FF
S31508012C50C017029A0968515C8842B8BF742009DB1B
S31508012C60032C0CBF4FF00C094FF008092AF4C07A5F
S31508012C70A1E7012085E0DFF89C0700884FF6FF7180
S31508012C80884214D05046F8F722F98346DFF88407BC
S31508012C9001880BF10400F9F742FEDFF87C07DFF83B
S31508012CA0741700788BF807004FF6FF7008803246D4
S31508012CB04946504603F021F808B918265DE0DFF8C1
S31508012CC05C070068C07E48B1B80607D501234246AD
S31508012CD00021504602F098FD06004ED10298FF28C1
S31508012CE016D05046F8F7E9F8DFF830170968C97EB3
S31508012CF001B11221DFF81827029B12689B5C1AF8AA
S31508012D000220D218743089188842B8BF742634DB79
S31508012D10B80407D55046F8F7E4F840F48061504600
S31508012D20F8F7E1F8062C12BF072C5046F8F7E8F831
S31508012D30159848B1BDF804105046F8F7FAF81598F1
S31508012D4080F800A000201CE0E01E022801D9001F1F
S31508012D5007D15046F8F7A8FB00280CBFA126002684
S31508012D600BE0B80444BF4FF6BF7007403B46EAB2D2
S31508012D702146504604F095FE06465046F7F796FD5D
S31508012D8030460BB0BDE8F08FF0B587B00E46044665
S31508012D900C9917461846F7F70CFE0546FF2D21D064
S31508012DA0FF208DF810008DF81100ADF80E704CF269
S31508012DB00E00ADF80C00ADF812600020ADF8140055
S31508012DC0009502A80190FF2303AA21460020FFF7D8
S31508012DD0B5FE04462846F7F769FD002C0CBF9DF899
S31508012DE00800FF2007B0F0BD2DE9F043164685B06F
S31508012DF00446F08804900D4670790FF258610390E5
S31508012E001F4630790290A84670880190434630885B
S31508012E100090082200F069F800F03FF818BF9120E9
S31508012E2019D1FF2F09D000F02AFADFF8E41509684D
S31508012E30795C884238BF74200DD37CB94FF6F87097
S31508012E40804528DA002001900097FF23324629465B
S31508012E502046FFF773FE05B0BDE8F083022C4FF656
S31508012E60FE790CD1DFF8B8050078854213D2DFF870
S31508012E709805006830F818004845E3DB0BE0012C9B
S31508012E8009D1DFF8A0050078854204D2E8B200F03E
S31508012E90EAFB4845D6DB0120DDE7DFF88005006857
S31508012EA0407B02287047F0B587B00D4616460446A2
S31508012EB005961F46E8880FF2A451049023466879BF
S31508012EC00390092228790290688801902888009041
S31508012ED000F00BF800200190009733462A46214658
S31508012EE00420FFF72BFE07B0F0BD0320F6F77DBAE5
S31508012EF070B588B004460D46069205951E46E088CB
S31508012F000FF26451049006226079039020790290A9
S31508012F10608801902088009003202389F6F765FAD6
S31508012F20DFF8040500780096002814BF4FF6FF71F4
S31508012F304FF6FD71002001902B4622460320FFF72C
S31508012F40FDFD08B070BD10B5DFF8E004F7F754FFD2
S31508012F500446FF2C0DD02146042003F0ECFF18B1DE
S31508012F600121204600F006F82046BDE81040F7F793
S31508012F709DBC10BD2DE9FE4F82460D46F7F7A7FF0A
S31508012F800646B01CF9F7C4FC8346504602F0A0FD7C
S31508012F9001465046F7F720FE804608F003095046D9
S31508012FA0F7F7A9FFF4F7D7FEDFF88444301DF9F7E0
S31508012FB0AFFC2080DFF87C74FBF777F9834512D0E4
S31508012FC04FF6F87083450EDA7078C0070BD4584669
S31508012FD001F0AFFC002869D02088012352465946E2
S31508012FE000F091F962E000A9504602F000FE00A83F
S31508012FF03860304602F08BFDDFF83C140860032187
S315080130005046F7F754FFDFF8341408700421504688
S31508013010F7F74DFFDFF8281408704DB39DF8060041
S31508013020800625D5DFF8F453FBF73FF940B1286848
S31508013030007D800704D4B9F1010F08BF102000D024
S31508013040002040F0080300220021504602F0DCFB74
S3150801305070B108F00300012802BF2868407B1128D7
S3150801306039D108F041F8B0BBAF20FBF7D0F932E00F
S3150801307018F0030003D0022805D009D316E05046FC
S3150801308000F02DF812E05146404604F038FD0DE0F7
S31508013090FBF70BF92188814208D05146052003F038
S315080130A04AFF18B12188504602F07BFFFBF7FDF86D
S315080130B0218881420DD1504602F00AFD014650464B
S315080130C0F7F78AFD0C21084203D10021504604F086
S315080130D037FF00203860F4F73FFEBDE8F78F2DE98A
S315080130E0F04F83B08046F7F7F2FE0546A81C95F81F
S315080130F001B0F9F70DFC4FF6F8718842ACBF01260D
S315080131000026FBF7D2F8DFF82893DFF82873B9F819
S31508013110001081423868B0F802A00CBF01240024CF
S315080131200BF0010030438DF804009DF804000028D7
S3150801313014BF062008200021F4F761FE38680188CB
S31508013140002904BF4079002808D1B9F80000BAF56A
S31508013150004F19DB5246414608F0FDF938680088E8
S315080131604CF20E01884241D144F20106B24518BF1C
S31508013170BAF5804F37D1404602F02DFD0146B245DA
S315080131800CBF0120002025E0DFF8B8B202218BF838
S31508013190001033460022414608F050F83868807915
S315080131A0400603D5FF21504600F070F8BAF1130F17
S315080131B0D4D03868C0884004D0D4A3499BF800000D
S315080131C00978CA0701D50228C8D0890749D501282F
S315080131D0C4D046E0491EC9B200912B464246012198
S315080131E0FBF795FC3DE0404608F09AFD3868817981
S315080131F001F00C010C290DD1008900F070FB80B398
S3150801320038680189002C14BF03250225002000F027
S315080132104CFE14E00179009100224379B9F80000C7
S31508013220002100F071FE3968897901F00C0108293D
S3150801323004D1002C0CBF0425052500E0002583498F
S3150801324008709DF8040010B9BAF1380F01D10122AE
S3150801325000E000222946404603B0BDE8F04F00F0E1
S3150801326009B9BDE8F78F10B5044600F008F86105FD
S3150801327048BF0838210548BF0838C0B210BD67499C
S315080132800968C97E642001B15220704770B5694E3C
S315080132900C4686B0054631680C2202A8F3F716FDDE
S315080132A0306801798DF80D10FF2341798DF80C10DE
S315080132B0ADF80A504FF6BF71C08800940840ADF8C2
S315080132C00E0002AA00200190594801880520FFF73F
S315080132D035FC06B070BD5E48007808B9FF20704716
S315080132E05A48007870470A4680B50C21084208D129
S315080132F09079400605D55088FF21FFF7C7FF0120C1
S3150801330002BD002002BD2DE9F34F904683B01D464C
S31508013310404602F0DDFB01464046F7F75DFC824672
S3150801332003201AEA000F69D1424806684048B0F8F6
S3150801333000B0002400A9404602F059FC3D4900A806
S3150801334008603B49BDF80C0008809DF80500002877
S3150801335004BFBDF80000002834D14046F7F7B7FD91
S31508013360801CF9F7D5FA4FF6F8718842ACBF4FF0D1
S315080133700109A146002D14BF022501250127FFB227
S31508013380BD4234D3BDF80C004B463A46414607F0D8
S3150801339055FF0446012C04BF022D012F10D1BDF89B
S315080133A010001C4908801D480068417E491C417669
S315080133B0A1F180001849087000A95046FFF793FF4C
S315080133C07F1CDCE7BDF800004CF20E01884204BF01
S315080133D0BDF8020001280AD145B1BDF810004146E1
S315080133E008F0A0FC00A95046FFF77DFF012411480B
S315080133F006600F48A0F800B0204600E0002005B09E
S31508013400BDE8F08F0000000094EF0020A4EF002033
S315080134104CEF00206AF10020CCFF0020D8FB0020E9
S3150801342098EF0020A0EF0020AFFF002090F10020C8
S31508013430E2FB0020E4FB0020E8FB0020D6FF002089
S31508013440D7FF0020CBFF0020ACFF0020C5FF0020DE
S31508013450E0FB0020425757574242570042575757F9
S3150801346042425742000000004257574242425742E1
S3150801347042000000F0B5334C0D46A16889B00646F6
S31508013480174629B1082206A8F3F720FC06A8A0606A
S3150801349037B9FAF70AFF6188814218BF012700D1B7
S315080134A00027304602F097FB014605AB3A463046FF
S315080134B002F0DAF9A0BB6068C18804912B4641790C
S315080134C003911122017902914188019100880FF235
S315080134D0800100900320F5F788FF01202070F4F79A
S315080134E035FC9DF8142061682846F7F70FF8F4F7BC
S315080134F033FC9DF81400FF2818BFF7F7D7F96DB903
S315080135006068C18848F240021140402906D12178F5
S31508013510490703D44088FF21FFF7B8FE0020207031
S3150801352009B0F0BD084900E0084909780170002092
S3150801353070470448017811B94FF6FF707047408803
S3150801354070470000E0FB0020D6FF0020D7FF0020CF
S315080135504242575742425700DFF8C80300780C2108
S3150801356001FB00F2DFF8C0030068FF21F3F7F1BBA6
S3150801357070B50546DFF8AC03007885420C4601D3E1
S315080135806A2070BD284604F094FE08B1762070BD05
S315080135902046FAF73FFE4FF6FF71884208BF4FF6FD
S315080135A0FD700C21DFF880634D433168685220466F
S315080135B000F065F900B10120316869188872F4F7DD
S315080135C0C6FB042804DB2B210FF28030F3F780FABF
S315080135D0F4F7BDFB316869188A7A42EA40008872B5
S315080135E00822306828182146801CF3F76FFB002053
S315080135F070BDCC4A1278904200D3704738B50C2278
S31508013600C94D02FB00F42A68A1524FF6FF72914296
S3150801361008BF04F050FEF4F79AFBC44909788842BA
S3150801362004D345210FF22430F3F752FA28682018FB
S31508013630817A01F0F1018172F4F789FB2968611831
S315080136408A7A42EA4000887231BD10B50B46B649FE
S3150801365009680C2404FB0010BDE81040811C0822EF
S315080136601846F3F733BBB04909680C2202FB001070
S3150801367000887047F8B507460C46AA4DAA4E00E0E1
S315080136800C37306829780C2202FB0100874214D2D4
S3150801369038884FF6FF718842F2D008222146B81CB5
S315080136A0F3F75EFB0028EBD1F4F751FBB97AC1F3C6
S315080136B042018142E4D13846F2BD0020F2BDF8B597
S315080136C0044600F0BFFA9848964E076800250EE0B2
S315080136D03888A04209D1F4F73AFBB97AC1F3420115
S315080136E0814204BF4FF6FD7038806D1C0C37307867
S315080136F0EDB28542ECD3F1BD70B504460D462846B8
S31508013700FFF7DDFF2946204600F0BFFA00F04FF823
S3150801371005E0358004F0B4F9214606F10C00FFF7FF
S31508013720A9FF0600F5D170BD7FB504460822804978
S31508013730F3F716FB10B9FAF7B8FD36E07D4D2868A0
S31508013740011D08222046F3F70BFB10B928684088AB
S315080137502BE0002000904FF6FF7500230122214639
S31508013760284600F0D1FBFF284FF6FC7605D07249B2
S31508013770096831F81000B04217DB01A802F0D2FB44
S3150801378050B9BDF80400400606D5082221460DF1B8
S315080137900600F3F7E5FA40B100F009F8FFF76AFF0A
S315080137A010B10088B04200DB284604B070BD5E48FF
S315080137B00068214670472DE9FF4104468846FAF715
S315080137C074FD844202D1082259493EE0594E3068B7
S315080137D041888C4209D100220821001DF6F760FABA
S315080137E018B930680822011D2FE000200090014613
S315080137F000230122204600F087FBFF280AD000A9F2
S3150801380000F0CFFA30B908220DF105014046F3F769
S315080138105DFA1DE04448434F0568002601E0761C21
S315080138200C353878F6B2864214D228884FF6FC71E0
S315080138308842F4DAA042F2D1F4F789FAA97AC1F3F7
S3150801384042018142EBD10822A91C4046F3F73EFA10
S31508013850012000E0002004B0BDE8F08110B504465F
S31508013860002001F05BF8FF2806D03449096811F8F1
S31508013870100000F0040010BD04F0010010BD38B5B9
S3150801388004462948006800252146FFF7F3FE08B1DA
S31508013890857A0CE000900023012221464FF6FF703D
S315080138A000F032FBFF2802D025490968455C21460C
S315080138B02846BDE83440D1E738B50D0018BF0125C3
S315080138C00446294600F027FAFFF771FF02E08572E0
S315080138D021460C30FFF7CEFE0028F8D131BDF8B5E8
S315080138E004462146002000F0E0FAFF2815D11548C4
S315080138F0154F0668002501E06D1C361D3878EDB2B6
S3150801390085420CD23088A042F6D1F4F720FAF17834
S315080139108142F1D1B0780028EED00120F2BD002015
S31508013920F2BD0000A0EF0020A4EF002084EF0020E4
S315080139300CFC0020D8FB002094EF002068EF002043
S315080139409CEF002078EF00207CEF00206164647210
S315080139506573732D7461626C652E63002DE9F04FF2
S3150801396082469F480068154683B00C46FF2D9B4644
S315080139700EBF0027295C4F08BBF1FF0F0EBF4FF0A2
S3150801398000081BF800004FEA500809F0CBFC8DF837
S3150801399000008DF801A04FEA1A208DF802008DF873
S315080139A00340200A8DF804008DF80570062100A849
S315080139B0F6F7FFFF8146B9F1FF0F08D008EB0700BC
S315080139C04000C11DC9B24846F7F7BBF808B118202F
S315080139D045E0002413E06100C9B22846F7F7FCF870
S315080139E066000246B11D00F03CF8711CC9B22846B2
S315080139F0F7F7F2F80246F11D00F033F8641CBC42F1
S31508013A00E9DB7800851DEDB2424629464846F7F7B7
S31508013A10E8F86D1CEDB2002714E07C00E1B25846C7
S31508013A20F7F7DAF87E000246A91900F01AF8711CB0
S31508013A30C9B25846F7F7D0F802466019411C00F09A
S31508013A4010F87F1C4745E8DB0C9A4B460621504681
S31508013A5000F0A2F804464846F6F728FF2046BDE8D6
S31508013A60FE8FC9B24846F7F7BCB82DE9F04188B0D0
S31508013A708846044601A9F6F7D5FC08B9A3205BE0F8
S31508013A8009F050FC8DF80C00FAF70FFC8DF80D00C3
S31508013A90FAF70BFC000A8DF80E00082251490DF1C0
S31508013AA00F00F3F713F9BDF804008DF818008DF827
S31508013AB01740000A8DF819000F219DF809008DF8A5
S31508013AC01A0003A8F6F775FF0646FF2E08BF182049
S31508013AD032D0002709E03A4600212046F6F7CAFC0B
S31508013AE000F035F800F02BF87F1C9DF80900FFB2AD
S31508013AF08742F0D301220DF10A013046F6F7DFFFBE
S31508013B00002709E03A4601212046F6F7B3FC00F002
S31508013B101EF800F014F87F1C9DF80A00FFB28742D0
S31508013B20F0D3334642462021002000F035F80446FA
S31508013B303046F6F7BBFE204608B0BDE8F081280AF4
S31508013B408DF80000012200A93046F6F7B8BF8DF8B6
S31508013B5000000546012200A93046F6F7B0BFF8B5C0
S31508013B6004460D4616461F4609F0DCFB38703846F2
S31508013B700699F6F71EFF0746FF2F01D11820F2BD59
S31508013B803B4632462946204600F006F804463846A2
S31508013B90F6F78CFE2046F2BD10B584B0ADF80210DA
S31508013BA0ADF80620002401464FF6FC7291421FBF6C
S31508013BB04FF6FD7291424FF6FF729142ADF80440FD
S31508013BC0ADF8004005D108490A7800A9FFF76BF955
S31508013BD003E000AA0020FFF707F904B010BD0000B2
S31508013BE04CEF00200CFC00202EF100201FB50C46DE
S31508013BF002460D23132100A8F0F762FF0D2200A942
S31508013C002046F3F763F8207840096073207800F0BE
S31508013C101F0020701FBD30B585B004460D460D2224
S31508013C2000A8F3F753F89DF80000697B40EA4110B4
S31508013C308DF800000D2300AA21461320F0F766FF30
S31508013C4005B030BD2DE9FF4104460025DFF884643F
S31508013C50DFF8847413E03068A84630F81800A042EB
S31508013C600CD100A9284600F09CF89DF8000002280E
S31508013C7004D031684FF6FD7021F818006D1CEDB2BD
S31508013C8038788542E7D3BDE8FF812DE9F0458846B6
S31508013C904FF6FF7AD04585B0044605D100F0D2F932
S31508013CA010B9FAF702FB33E0DFF82864DFF8287465
S31508013CB000250CE0D04508D0306830F8151041458C
S31508013CC004BF4FF6FD7120F81510681CC5B2387887
S31508013CD085421CDA306830F8150000F011F9F4DA7B
S31508013CE000A92846FFF782FF082221460DF10500A3
S31508013CF0F3F736F80028DDD13068D04502D130F81F
S31508013D00150005E020F8158003F0BAFEDDE75046F8
S31508013D1005B0BDE8F0852DE9FF47804689460026AE
S31508013D20DFF8B873DFF8AC43DFF8AC5315E0206869
S31508013D30B24630F81A0000F0E3F80DDA00A9304669
S31508013D40FFF754FF082241460DF10500F3F708F87D
S31508013D5010B938680AF80090761CF6B228788642B7
S31508013D60E5D3BDE8FF87DFF86C13096831F8100061
S31508013D7070471FB50C46DFF86013097888420FD2E1
S31508013D80D449096831F810104FF6FE72914207DAE4
S31508013D9000A900F006F821460DF10500FFF775FFA9
S31508013DA01FBD80B5CC4A1278904201D3692002BD65
S31508013DB0FFF71CFF002002BD70B504460D462346D9
S31508013DC00022B4A10320F5F710FB287818B920467C
S31508013DD0BDE870403CE0C0480078844201D36920C0
S31508013DE070BD204604F063FA08B1752070BDF3F77B
S31508013DF0AEFF6873681DFFF742FD060018BF01266E
S31508013E004FF6FF71681DFFF740FF024629783346D2
S31508013E10204600F006F829462046FFF7FCFE00205A
S31508013E2070BD10B54FF6FF7409B9224608E003299B
S31508013E3008BF4FF6FE7203D0A24208BF4FF6FD72C5
S31508013E40A449096821F81020A4490968435410BDFA
S31508013E5030B505462C4685B0234601228DA103209F
S31508013E60F5F7C3FA9C480078854228BF69201AD21B
S31508013E70284604F01CFA08B1752014E000A9284662
S31508013E80FFF7B4FE9DF8000030B100208DF8000060
S31508013E9000A92846FFF7BFFE8E4909684FF6FF704D
S31508013EA021F81400002005B030BDF0B585B00746ED
S31508013EB00C46884D884E00E07F1C3078FFB2874259
S31508013EC01BD2286830F8170000F01AF8F4D100A9B7
S31508013ED03846FFF78BFE9DF80500E1B2884204BF1C
S31508013EE09DF80600B0EB142FE6D1F3F730FF9DF8E5
S31508013EF00D108142E0D1384600E0FF2005B0F0BD43
S31508013F004FF6FE71884270472DE9F14F84B00D4690
S31508013F100E9C704FDFF8C0A190469946002607E02F
S31508013F203868BDF8101030F81B0088422BD0761C73
S31508013F309AF80000F6B2864227D23868B34630F8B6
S31508013F401B00FFF7DDFFF2DA00A93046FFF74EFE48
S31508013F50B8F1000F07D19DF80100484504BF9DF847
S31508013F600400A042E3D1F3F7F2FE9DF80D10814259
S31508013F70DDD1002DD4D008220DF105012846F2F72E
S31508013F80EFFE0028D3D1304600E0FF2005B0BDE89A
S31508013F90F08F10B51446FFF729FE2046BDE81040FC
S31508013FA008224F49F2F792BE2DE9FF470446084613
S31508013FB015461E4600F046F808B100203FE00027E6
S31508013FC0DFF81081DFF8109100E07F1C99F80000F6
S31508013FD0FFB2874222D2D8F80000BA4630F81A0052
S31508013FE04FF6FF718842F0D000A93846FFF7FEFD6B
S31508013FF00C220DF10101601CF2F7B2FE0028E4D192
S31508014000BAF1FF0F0CD100203070F3F79FFE30781C
S3150801401045B178B92046F6F7A8F907E0FF27F2E790
S315080140200120F1E738B13846F6F7CEF9401E80414E
S31508014030C00F00E001203070F3F78EFE012004B0B6
S31508014040BDE8F08708222649F2F78ABE30B585B061
S315080140500024214D17E000A92046FFF7C7FD9DF86A
S315080140600000042806DB00208DF8000000A9204680
S31508014070FFF7D1FD9DF8001000234FF6FF72204689
S31508014080FFF7CFFE641C2878E4B28442E3D305B077
S3150801409030BD00004242000030B585B002220CA1B5
S315080140A00320F5F7A2F900208DF8000000240A4D37
S315080140B004E000A92046FFF7AEFD641C2878E4B2A7
S315080140C08442F6D3FFF7C2FF002005B030BD0000D9
S315080140D04200000094EF002098EF00209CEF00209A
S315080140E00CFC002062B38B0708D0521E11F8013B65
S315080140F000F8013B00F024808B07F6D1830740F0D6
S31508014100208000BF103A07D330B4B1E83810103A0E
S31508014110A0E83810F9D230BC530724BFB1E808101B
S31508014120A0E8081044BF51F8043B40F8043BD20705
S3150801413024BF31F8022B20F8022B44BF0B780370F9
S315080141407047083A07D3B1E80810083A40F8043B23
S3150801415040F804CBF7D25307E4E7000070B5BC4D2D
S315080141606968FF2400260020425CA4F119039A42DB
S31508014170BCBF02F11904E4B2401C1028F4DB00208C
S31508014180425CA242BCBF761CF6B2401C1028F7DB83
S31508014190300003D1BDE8704001204AE1F4F7E0F8A8
S315080141A090FBF6F106FB1101C9B200206A68825C30
S315080141B0A24206DA0A0002D10B30687005E0491EF0
S315080141C0C9B2401CC0B21028F0DBBDE8704010B57A
S315080141D00024F4F7C5F84FF6FF7290429C4903D0C4
S315080141E04A6822F81400641C102CF2DB03200870BC
S315080141F04978BDE810400120032200FA01F129E1BE
S3150801420038B504460D46012000F0F6F808B97020C5
S3150801421032BD8F480A214170846035B100214A5D5B
S3150801422042B9491CC9B20829F9D301218170BDE8EF
S31508014230314007E000218170082229460C30F2F747
S3150801424045FDF4E710B5824C2078012807D0702087
S31508014250F8F7FFFE702010BDE07809F0FAF8E0786B
S31508014260A0B1401EE070C0B209F0DAF801884FF635
S31508014270FF729142F0D090F90F20817B09F006F97F
S31508014280E07809F0E6F809F0D1F814E06078401C06
S31508014290607060781B280BDA0121A26881401142FF
S315080142A0F5D0042020700322BDE810400120D1E09A
S315080142B0AB2000F0BEF8002010BD00BF10B50C46BB
S315080142C000F092F828B162490878022818BF002C34
S315080142D001D0002010BD022806D022D304281CD004
S315080142E005D3052819D01CE0FFF738FF19E000228D
S315080142F04FF6FF73486830F81200984206D1521CEF
S31508014300D2B2102AF6DBFFF762FF0AE0497809F014
S31508014310BBF8002000F08DF803E001200870FFF7D4
S3150801432091FF012010BD00BF2DE9F041484D04461B
S31508014330287803280E46904602D004280FD042E07A
S3150801434000206968238831F810209A4204BF4FF685
S31508014350FF7221F81020401C1028F2DB33E0E078C8
S3150801436088B309F05BF8217B81422CD1A87830B952
S315080143700822211D05F10C00F2F7F2FC18BB0027F3
S3150801438009E0384609F04CF80822211D001DF2F70C
S31508014390E7FCC0B17F1CE878FFB28742F1D3401C25
S315080143A0C0B209F056F870B9E87809F039F8074645
S315080143B0E878401CE8700E2221463846F2F786FC5A
S315080143C0BE7387F80F80BDE8F0410DE000BF38B530
S315080143D004460D4600F008F828B11D484068201823
S315080143E000F80B5C012032BD19480078022801DB70
S315080143F0012070470020704738B50446FFF7F4FFDF
S3150801440018B13D20F8F725FE0FE009F00FF8002056
S3150801441000F00FF80E4D0020E8702C7009F00BF82B
S31508014420686020B9182000F004F8002032BD012088
S3150801443032BD10B5044606490020087009F013F884
S3150801444024B12046BDE81040F8F703BE10BD0000B0
S3150801445030F6002010B5F9F715FA040018BFFFF772
S31508014460E8FF204610BD00007047704700207047DE
S31508014470FF207047002070477047002070474FF6AD
S31508014480FF707047002070477047704700207047DB
S315080144902DE9F041DFF88080D8F8001086B0497B15
S315080144A0062600250024022931D1010A02AF8DF81A
S315080144B00C10F8700DF10E01F9F7C6FE08B92025A2
S315080144C00E2616480178491C017001208DF808004E
S315080144D07D70B9708DF80D4001940094334602AA97
S315080144E000214FF6FC7001F0D4FA0646FF2E0ED0D5
S315080144F0D8F80000007BC01E032805D24FF6FF71CD
S315080145003046F7F740F904463046F6F7CFF9204624
S3150801451006B0BDE8F0810000D8FB0020E5FF0020C9
S315080145207047002070470020704770470020704789
S31508014530002070477047002070477047F0B5524C0D
S31508014540237903F00F05002600E0761CF6B2AE4289
S3150801455015D223789B1B0F330F2793FBF7F7C7EB6E
S315080145600717DB1B062707FB034333F8087F874238
S31508014570EBD112B99F788F42E7D11846F0BD0020DA
S31508014580F0BD0022DAE780B501220021FFF7D6FF48
S3150801459000B1012002BD38B51446FFF7F2FF054602
S315080145A0204600F072FA0DB9002032BDFF2805D069
S315080145B0A988012202FA00F00843A880012032BD29
S315080145C010B5F9F770FB30494A78CB88C88082184C
S315080145D0D21A92B2142392FBF3F3142000FB132090
S315080145E04870DCB288788442B4BF001B002088700A
S315080145F0042CBDBF8888A200D0400020888010BD49
S315080146002148808800F00F010F2903D0C0F3031059
S31508014610092801DB0120704700207047F8B50446D8
S315080146200D461646FFF7ECFF08B10020F2BD164805
S315080146300178491C0F2291FBF2F2C2EB0212891A88
S3150801464001700622017802FB010101F10807818840
S3150801465001F58851113181803C80BD70304600F0EA
S31508014660BDFBB8800120F2BD10B5074CF9F71BFB5D
S31508014670E0805A220020A080FF2104F10800F2F709
S3150801468068FB0420A07010BDE4FE00202DE9F84F58
S315080146909C4D95F8009004468846F9F70AFB83462F
S315080146A0287918B1E9680BEB0400441A6878DFF831
S315080146B058A200260AEBC00703E0001B7880761C87
S315080146C00837F6B24E4520DA7888B8F1000FA4B259
S315080146D00BD08442F3D22878801BC20092B23946A5
S315080146E007F10800F2F7F2FA12E08442E5D3002056
S315080146F078807878401E78706878401C68702878C9
S31508014700401E2870F4F7E0FED9E7B8F1000F04D08F
S315080147102878401C28707C8001E0002028712878C0
S3150801472008B9287111E0287908B9C5F80CB0697873
S31508014730E8680AEBC101ABEB00004988091AB1F137
S31508014740004F9CBF281DF5F708F93846BDE8F28FDA
S31508014750F8B50E4604466B4910464A780978891811
S3150801476008291D4604D11F20F3F749FB0020F2BD95
S315080147700121FFF78BFF0746701C3C707870F9F72B
S315080147808DFAB880BD712046F6F782F80120F2BD90
S3150801479070B55C4C61782278064600255A4801E0D6
S315080147A06D1CEDB28B189D421ADA10F83530B342FA
S315080147B0F6D15118491B491E00EBC500CA0092B231
S315080147C000F10801F2F782FA3046F6F76FF86078D9
S315080147D0854202DA401E607070BD2078401E207046
S315080147E070BD4848417800784018401E8041C00F86
S315080147F070474448407800B10120704770B50024DD
S31508014800414D404E04E015F83000F6F74FF8641CA8
S3150801481031787278E4B2204651188842F3DBBDE854
S31508014820704038480021017041700171704710B518
S31508014830354C01E000F026F83248407830B1204680
S31508014840F7F754FE0028F5D0207810BDFF2010BDDB
S3150801485010B52C4A52789AB12B4C227882420FD144
S3150801486051B96078103060701046F7F785FF18B9AE
S31508014870607800F0F000607000F004F8012010BDC7
S31508014880002010BD30B51F4C1F4D6078401E60706A
S3150801489083B00822294600A8F2F718FA6078217829
S315080148A00818C20092B205F108012846F2F70EFA75
S315080148B09DF801000F21084217D19DF80000F6F76F
S315080148C01AFBF3F748FA9DF801000009411E8941D0
S315080148D09DF80000C90F0022F7F7D6FC9DF80000E5
S315080148E0F5F7E4FFF3F738FA37BDBDF80200012101
S315080148F0FFF7CCFE4188ADF80210082200A9F2F7AD
S31508014900E5F937BD64FE002074FE00200021002071
S31508014910BCE670470020704700207047FF207047AB
S3150801492001E0704700BF4FF6FF707047FBE7932021
S3150801493070470020704700207047FF20704700200D
S31508014940704770477047704710B50022154B03EB47
S31508014950820333F8044F844204BF9B788B4201D10A
S31508014960012010BD521CD2B2042AEFDB002010BD73
S315080149700D4A1268127B121F022A00D2704710B51F
S31508014980084A137802EB830424F8040FA170581C13
S3150801499000F00300107010BD1022FF210348F2F742
S315080149A0D8B9000064FF0020D8FB002068FF00206A
S315080149B04FF6FF71884200D1704780B500F05DF966
S315080149C0FF280AD000F040F8DFF8F8254188127868
S315080149D0A1EB111101EB0211418001BD80B5DFF890
S315080149E0E8150968002081F82D00F3F7C3F9FF28B7
S315080149F003D1DFF8D8150320087001BD30B5DFF8FB
S31508014A00C8351B689C6A283300225B7901E0521C71
S31508014A100E34D2B29A4208D225888542F7D30A7053
S31508014A202188884202D1012030BD0B70002030BD9B
