:020000040800F2
:100000000004002079000008850000088500000831
:10001000A70B090100000000010150540020000856
:1000200004190000270A0008E90C00081C05000854
:1000300000000000000000000000000000000000C0
:100040000000000000000000000000005604000056
:10005000FFFFFFFF06480068202100EA010028B1E9
:100060000448016842685FEA010D104770470000CC
:100070002C00004000200008FFF7ECFF00F00BF818
:1000800000F03EF803E000005FEA000D70474FF417
:10009000017000F09DB838B54FF20F04404D00F0EC
:1000A000C5F828B140F2052028806C80012032BDBF
:1000B0003C480068C00615D56888A0421ED1288833
:1000C00040F2022188421CBF40F20621884215D02E
:1000D00040F2011188421EBFB0F58A7F40F2111133
:1000E00088420BD0304C208A40F6A721884205D1A7
:1000F0002068FFF7C9FF6068804700BF002032BD5D
:1001000038B50400294872B6016849084900016001
:1001100000F0D2F823480068000910F001000CBF7D
:100120002349244902E0CD2201F8012B224A9142C1
:10013000F9D32249224A234B03E011F8015B02F86C
:10014000015B9A42F9D32049204A002301E001F8DB
:10015000013B9142FBD3124A53884FF20F05AB4249
:1001600040F205210AD113888B4205D030B1180A1C
:10017000012818BF022801D1194601E004B9002165
:10018000064801804CF23C30508000F0ADF94FF44D
:100190000170BDE8324000F01BB80000240C0020C4
:1001A000000000202C00004000200008FCED00E0D2
:1001B0000000002098000020000400209811000892
:1001C0000004002004040020040400202D0C002062
:1001D0000E4A302111600E4A11600E4A1160102142
:1001E0000D4A1160010A00290C4908BF000208806D
:1001F0004FF20F004880BFF35F8F09480021016074
:1002000041600848084908607047000030200040FD
:1002100030C8004030C0004010D000400000002036
:100220001C4000400400FA050CED00E0002070477F
:1002300080B500F08CF90121062000F095F9062028
:1002400000F0C8F90121072000F08EF9072000F026
:10025000B5F91748016821F01001016001BD0000E7
:10026000052800D9704710B5DFE800F01721030F0B
:100270001C17104C2088411E2180C0B9072000F0B7
:10028000B5F942F21070208010BD072000F0A2F9ED
:10029000BDE81040062000F0A9B9BDE810400620D6
:1002A00000F08CB9BDE81040062000F093B910BDF5
:1002B00000BC0040260C00206E49512008607047A9
:1002C00038B5054600F036F96B49B0FBF1F44FF450
:1002D000F070B0FBF4F02D1A1E2DBCBF4FF401706E
:1002E000FFF776FF6548664A0721016000214160FB
:1002F00081604FF00071116005FB04F1C91C890891
:10030000491E416031BD5F4A01215170D8E75F4805
:10031000016841F00101016001214160512055490E
:1003200008607047002070472DE9F0478146564825
:10033000544E056840F2DC58012DC2464F48544FD8
:10034000544C1BDA0221618039600068C00348BF49
:1003500000F077F8B86900F0030003285FD0002DA3
:1003600003D5B86940F00200B8614846FFF7DAFFEC
:100370005FEA000A1AD1002D51D54EE061884FF690
:10038000FF75A9421DD14448018802237F22A01C89
:1003900000F042F96088A84204BF02206080B8697A
:1003A000800703D4B86940F00200B8610120B07042
:1003B000608838600FFA8AF0FFF7A5FF5046BDE865
:1003C000F087B9698907EDD50068C00348BF00F020
:1003D00038F8B07808B14046F1E7B868B968628883
:1003E00010F0010003D10F2A08D2521C06E0890741
:1003F00004D5217811B1032AA8BFAA1892B2022A03
:100400002070B8BF02226280386861888842CDD1EE
:10041000B86900F00300032801D0FFF778FF00203F
:10042000CDE710B5044604E000F02AF90620FFF7F6
:1004300079FF2046FFF778FF0028F5D110BD022094
:10044000EFE70E480E4A002141608160016821F00B
:100450000201016000210B4841704FF000711160F2
:10046000817801B9704780B5002181700620FFF7BF
:1004700059FF01BD0080004090D0030010E000E073
:1004800004ED00E0280C0020901100081C40004002
:1004900004400040000400209411000800787047D8
:1004A00030B5DBB00446214636A800F03BF9002009
:1004B00000904FF402630B4A36A901A800F0B3FA8A
:1004C0000FF24C020FF2540001A900F00DFC05469A
:1004D00000F046F81DB12146284600F06FF9284685
:1004E0005BB030BD0404002080B5FFF7A8FFFFF724
:1004F0009FFE00F019FC00F0A3FC40F20120FFF782
:1005000067FE002002BD012A08BF00F022BC704730
:1005100007110008431100089D0400087309000832
:10052000AB09000819480068C00701D41848704793
:100530001848704780B5FFF7F5FF1749096801B9FA
:10054000400802BD80B5FFF7EDFF400802BD13482B
:10055000012181604EF6BE2141600121016070479A
:100560000F4901200860704710B50FF23802830868
:1005700052F82320136800F0030080000F24844009
:10058000A34301FA00F01843106010BD1C40004066
:10059000001BB70000366E012040004000600040A4
:1005A0000860004000B0004004B0004000B40040CB
:1005B00004B4004000B8004004B80040C10803295A
:1005C00007DA012100F007029140C00880020F4ABB
:1005D00011507047C108032907DA012100F0070212
:1005E0009140C00880020A4A11507047C10803298F
:1005F0000ADA084A02EB812101230A6800F00700A9
:1006000003FA00F0504008607047000014B000404A
:1006100010B000400CB0004030B5044610467F28B2
:1006200008BF0020B1F5004F83B01AD108237F2204
:1006300040F6120100A8FFF7EFFF08220FF2380181
:1006400000A800F01AFD30B908237F2240F2A27101
:1006500000A8FFF7E1FF082200A9204600F0F4FC03
:1006600037BD044D294300FB03111A46204600F014
:10067000EBFC37BD00000408FFFFFFFFFFFFFFFF9B
:1006800070B5234C25680646FFF75CFF2149B0FB97
:10069000F1F070432F303021B0FBF1F0032809D383
:1006A000616D41F0010161652168491B0903090B76
:1006B0008142F9D370BD38B50C4620B101280FD066
:1006C000032820D021E0144D44B1FFF73BFF13492C
:1006D000B0FBF1F0401EB0F5005F0CD2286012E0D4
:1006E0004CB1FFF72FFF610801EB4000B0FBF4F0C5
:1006F000B0F5003F01D3202032BD094900F00102CE
:100700004A6040080860002032BD212032BD000050
:100710003820004090D00300100004E020A1070022
:1007200068C80040017001224270012982700CBF2C
:100730008021402181800021C18001811D4801600C
:100740000E218162016821F01001016000214163E6
:1007500041627047F8B50D4604461749154F4FF0F2
:10076000FF3008601646FE6200207862386840F06C
:1007700001003860FFF7F4FE012C19D16DB900F0CB
:1007800039FB78B9786AB042F4D3002EF2D03868D9
:100790004008400038601620F2BD284600F032FBC9
:1007A0000028EFD138684008400038600020F2BDD2
:1007B0000120F2BD00E0004000A8004038B504462A
:1007C0000D4600F009F800F007F82A462146BDE87A
:1007D00038401820FFF797BE2A4621461820FFF719
:1007E00092BE38B50446002020814AF6B432207803
:1007F00000A9FFF7AFFF08B11C2032BD9DF8000033
:10080000032818BF182801D1182032BD042801D1AF
:10081000172032BD012801D0212032BD002500E083
:100820006D1CA188EDB2091D8D420BDA281900F16B
:100830000A01207840F2DD22FFF78CFF0028EFD07C
:10084000262032BD0025002006E00146EDB2281921
:10085000007B00F025FC6D1CA188EAB28A42F4D32B
:10086000A27AE37A9B18FF2B01D0222032BD0B190C
:100870001D7BB5EB102F01D0232032BD5B7BC0B2B6
:10088000834201D0242032BDA078824207D0401E8E
:10089000C0B2824201D1272032BD252032BD881C42
:1008A00020810220E080002032BD38B50446607807
:1008B000012804D023D3032854D018D31FE0207874
:1008C000012811D13B25432000F043FA207840F263
:1008D000DD220021FFF73EFF30B12846451EC0B2A1
:1008E0000028F0D11B2032BD022060700FE000F024
:1008F0009BFA00F039F8A078401CA07007E018209F
:1009000032BDA0782278411EC9B200F02FF82046EF
:10091000FFF767FF050018BF00F086FA272DF0D01B
:10092000A8060BD52278A1781520FFF7ECFD002D45
:10093000EDD10320FFF794FC002032BD680603D4FC
:10094000182D18BF1C2D07D121782846FFF736FF38
:1009500004206070284632BD172DE8D100F004F85D
:1009600003206070172032BD2278A1780620FFF79F
:10097000CABDF8B504460D461646002706E0E088D5
:10098000411C0019E180807A78557F1CBFB2B742C4
:1009900009D2E08821898842F1D32046FFF785FFFC
:1009A0000028ECD0F2BD0020F2BD10B50446204670
:1009B000FFF77BFF0028FAD010BD0000F8B5044611
:1009C0000D4616461F4607E03046A047294600F070
:1009D00079FB05467F1E761CBFB2002FF4D1284656
:1009E000F2BD38B50C46154605E0014614F8010B7A
:1009F00000F068FB6D1EADB2002DF6D132BDF8B52A
:100A000004460D461F461646286823683A46314676
:100A10009847040005D1E8683A463146FFF7E1FF00
:100A2000E8602046F2BD10B5029C847203814260EA
:100A300001604FF0FF31C1600021017410BD2DE94C
:100A4000F84F8946044699F81BB0D068A249BBF11B
:100A5000800FA8BF4FF0800B88421E4651D1002E58
:100A60004DD0B06800904FF0FF38002509EB450AE3
:100A70009AF848700DE0FFF773FDF80240F000624D
:100A800000984FF400634146FFF798FF8046781CBA
:100A9000C7B20AF148004078B84204DA681CC5B20F
:100AA000062D02DAE2E7FF2FE5D1D9F844006FEA1C
:100AB0000801884225D1A068736800BA4FEA5B023A
:100AC00049469847C8B9E06805BAA06802BAB06854
:100AD0005B464FF0FF31FFF771FFC04385420CD1F9
:100AE00040F6A720A9F810000122A068736800BA98
:100AF00009F110011030984708B1422002E0172098
:100B000000E04320BDE8F28F2DE9F04F0D4683B0A1
:100B10008046D5F804A02889ADF80400914605F177
:100B2000140606F11007042352464046FFF767FFFC
:100B3000002870D1BAF8000040BA80B20090BAF82C
:100B4000020040BA84B2E00748BF462063D4B4F53F
:100B5000026FC8BF4E205EDC002C5BD00098DFF82F
:100B60007CB148B14FF60441401A00F09C80FF3838
:100B700053D0FE3851D0ACE0287C08B151204AE077
:100B80008D2C28BF4F2046D22346321D00F0A9F8F5
:100B9000002840D1FA7E802AA8BF802202F10C00F2
:100BA000844201BFB08840BA00F47F40B0F5007FB6
:100BB0002CD1F08840BA4EF25031884202BF388AB8
:100BC00040F6A721884221D1788A00F47F40B0F511
:100BD000807F01BFB06800BADBF81C10884215D1D5
:100BE0004FF6FF70388206F110014FF0FF30FFF72B
:100BF000F8FEF16809BAC943884204BF387E042868
:100C000004D1787E192818BF062801D0452002E0BB
:100C1000012028740020BDE8FE8F287C002844D0E5
:100C2000042300F05DF80028F5D1DAF8000006BAD8
:100C3000201F84B2DBF81C00864238BF4820EAD36C
:100C4000796DA019884228BF4920E4D200984FF658
:100C5000035188420DD1B9F1000F0AD0D9F8002014
:100C600031460220904720B14A20D4E7E01B84B2ED
:100C7000BE19002CCED0BDF804008442B4BF274674
:100C800007463B4600F02CF80028C4D1B9F1000F0C
:100C9000ECD0D9F804307A085146304698470028FD
:100CA000E4D04B20B7E7287C08B94120B3E7042CF7
:100CB00018BF4C20AFD16A68042300F012F8002856
:100CC000A9D14B462A463946304603B0BDE8F04F1D
:100CD000B5E644209FE70000E320BBDE00000008EB
:100CE0005246294640468AE670B50D460446288994
:100CF000C107164601D4802803DA4F2070BDA87AB8
:100D000078B9324629462046FFF7FEFE0028F6D085
:100D1000172807D1286861688847172802D1002062
:100D200070BD502070BD000080B54FF4E13101204E
:100D3000FFF7C1FC394802218160012101600920CF
:100D40000921FFF711FCBDE8044004210A20FFF748
:100D50000BBC3449CA685207FCD50860704710B50F
:100D6000044603E014F8010BFFF7F3FF2078002896
:100D7000F8D110BD30B583B00FF2BC0218CA00A97B
:100D8000042218C1052100AD0DE080B20A2390FBBA
:100D9000F3F30A2404FB1304E4B2184604F130030D
:100DA0004B5504B10A46491E49B20029EDD500A8A9
:100DB000D2B21018FFF7D3FF37BD10B50446200993
:100DC0000A28ACBF37303030C0B2FFF7C2FF04F0A2
:100DD0000F000A28BDE81040ACBF37303030C0B239
:100DE000B7E710B50446200AFFF7E7FFE0B2BDE819
:100DF0001040E2E70A480068800701D501207047EB
:100E00000020704710B50446FFF7F4FF20B10548F5
:100E100000682070002010BD012010BD54C80040A3
:100E200048C800403CC8004080B500A8FFF7EAFF72
:100E30000028FAD001BD0000303030303000000012
:100E40002DE9F84FFFF78CFBFFF7EEFF0020FFF7CF
:100E500007FA0FF27018474D0FF23C1BDFF818919C
:100E60000FF2181A41A642A41EE05046FFF777FF82
:100E70000C27B9F81A00F84000F00F00FFF77AFFCE
:100E8000012FA4BF2E20FFF764FF3F1FF1D520469E
:100E9000FFF765FF09F11A00408EFFF76BFF584618
:100EA000FFF75DFFFFF7C0FFFFF75AFB0220FFF7D8
:100EB000D7F900A8FFF7A6FF0028F5D19DF800009C
:100EC000FFF747FF9DF800000A2818BF0D28CCD077
:100ED000312804D032282ED0332831D0E2E70FF267
:100EE000F400FFF73CFF0120FFF7DAFA07460FF2A4
:100EF000F800FFF734FF2FB90520FFF7B1F90FF223
:100F0000FC00CDE70420FFF7ABF90FF2FC00FFF780
:100F100026FFB80648BF0FF2FC0005D478064CBF88
:100F20000FF208100FF21410FFF719FF3846FFF701
:100F300058FF3046B4E70120FFF792F9BDE8F18F82
:100F400000273046FFF70BFF288A40F6A72188428A
:100F500018BF4046A4D178197F1C90F8240020B116
:100F6000FFF7F7FEFFB2202FF5DBE2E70D0A0000E6
:100F70002062000000200008000000080D0A454D16
:100F80003334312053657269616C20426F6F746C29
:100F90006F616465722076000D0A312E2075706CC9
:100FA0006F61642065626C0D0A322E2072756E0DC1
:100FB0000A332E2065626C20696E666F0D0A424C02
:100FC000203E20002A2A206E6F20617070202A2A7D
:100FD0000D0A00000D0A626567696E2075706C6FFE
:100FE00061640D0A000000000D0A53657269616CAE
:100FF0002075706C6F61642000000000636F6D707D
:101000006C6574650D0A000061626F727465640D31
:101010000A0000000D0A584D6F64656D20626C6F08
:10102000636B206572726F72203078000D0A6669FA
:101030006C65206572726F72203078000D0A6572DF
:10104000726F722030780000814212D2101851184D
:10105000401E491E92B2002A1EBF11F8013900F845
:101060000139521EF6D1704711F8013B00F8013BDF
:10107000521E92B2002AF7D1704710B500E0521EFE
:1010800092B222B100F005F8F9D0181B10BD002073
:1010900010BD10F8013B11F8014BA342704700004E
:1010A0000A0242EA11214840C0F30311484080EA95
:1010B000003041010206C9B2D20E41EA0221484085
:1010C00080B270470A0A4840C0B208214308C007EE
:1010D00046BF034858401846491EF7D15040704754
:1010E0002083B8ED2748018A40F6A772914202BFDB
:1010F000408A4FF47F41084203D1022801DB0120DE
:10110000704700207047F8B504461D4E01200D467B
:101110003070FFF7E7FF18B94FF40170FFF758F888
:1011200029461848876A44F48070B8470021317016
:101130000FF2540618B9294644F40070B847805D90
:10114000F2BD2DE9F041044688465600FFF7CAFF7C
:1011500018B94FF40170FFF73BF80A48476A0023BB
:10116000324641462046B8470FF21C0520B93346A7
:10117000002241462046B847405DBDE8F0810000AE
:101180002C0C002000000408000202024B4B4647D2
:1011900000366E01EE0800000100FFFFFFFFFFFFB9
:1011A000FFFFFFFFFFFFFFFFFFFFFFFFFFFFFFFF4F
:1011B000FFFFFFFFFFFFFFFFFFFFFFFFFFFFFFFF3F
:1011C000FFFFFFFFFFFFFFFFFFFFFFFFFFFFFFFF2F
:1011D000FFFFFFFFFFFFFFFFFFFFFFFFFFFFFFFF1F
:1020000028240020E1020108390201083D020108EC
:10201000A70A080100210008041903AC5054560413
:10202000964311570000000000000000000000006F
:1020300000000000000000000000000000000000A0
:1020400000000000915932290424FFFFFFFFFFFF29
:10205000FFFFFFFF00E0010800000000000000009B
:1020600062EE42CE1A616056FFFFFFFFFFFFFFFFE7
:10207000FFFFFFFFFFFFFFFFFFFFFFFFFFFFFFFF70
:10208000F02F002000000000EF2F0020EF2F002095
:1020900028240020E02501089E040108C81A002019
:1020A000AC0D00200000020800300020FFFFFFFF01
:1020B000FFFFFFFFFFFFFFFFFFFFFFFFFFFFFFFF30
:1020C000FFFFFFFFFFFFFFFFFFFFFFFFFFFFFFFF20
:1020D000FFFFFFFFFFFFFFFFFFFFFFFFFFFFFFFF10
:1020E000FFFFFFFFFFFFFFFFFFFFFFFFFFFFFFFF00
:1020F000FFFFFFFFFFFFFFFFFFFFFFFFFFFFFFFFF0
:1021000028240020E1020108390201083D020108EB
:10211000450201084102010849020108C402010800
:10212000C4020108C4020108C4020108C402010873
:102130004D020108C4020108C402010855730008D9
:102140001BDD0008C4020108737D0008C4020108F9
:1021500039770008697C0008C4020108C40201083C
:10216000B5C3000803920008A7AB000861B10008DE
:10217000C402010893B40008DBB40008C4020108DB
:1021800099390008C4020108C4020108C502010807
:1021900070472DE9F84FDFF81C580FF29001044604
:1021A0002878002600F088FD0FF2A82A0FF2645B61
:1021B0000FF25058DFF8009804E0514600F07CFD23
:1021C000701C86B2226828783701B9184B689BB119
:1021D000BA584B4503D1414600F06EFDF0E78B68DD
:1021E000594600F069FD20683818C2682878002A2E
:1021F000E3D00FF22851EFE70FF2A40100F05CFDED
:1022000028780FF2C40100F057FD28780FF2E8019A
:1022100000F052FD28780FF20C1100F04DFD2878E7
:102220005146BDE8F44F00F047BD0000434F4D4D0F
:10223000414E44205B504152414D45544552535DFF
:10224000205B2D204445534352495054494F4E5D25
:102250000D0A202077686572653A20623D627566D6
:102260006665722C2073313D696E7438732C20734F
:10227000323D696E743136732C2075313D696E7450
:1022800038752C2075323D696E743136752C207589
:10229000343D696E743332750D0A0D0A000000007A
:1022A00020202120202D20526563616C6C732074E6
:1022B00068652070726576696F757320636F6D6DE8
:1022C000616E640D0A00000020205B7461625D2075
:1022D0002D20417474656D70747320746F20746167
:1022E0006220636F6D706C65746520636F6D6D61E6
:1022F0006E640D0A00000000202020202A2A204EB3
:102300004F54453A20616C6C20696E70757420766C
:10231000616C7565732061726520696E20686578EF
:10232000210D0A00202020202A2A20436F6D6D6194
:102330006E647320617265204E4F54206361736533
:102340002073656E7369746976650D0A000000007C
:10235000A0F141011A293CBF2030C0B270472DE9DD
:10236000F84F0546DFF85416A86800680968DFF8DA
:102370004466C0B2002410F80180B8F1210FA346D2
:1023800007DB30780FF2D001BDE8F84F202200F0D3
:1023900093BC00F0B9FC8246A14607E019F80A0098
:1023A000FFF7D6FF09F80A0009F10109C145F5DB7D
:1023B00042460FF2E801504600F042FF40B94FF0AC
:1023C000010B05E030780FF2DC013A4600F074FCB6
:1023D0002968200142185268130039D0641CDFF8C4
:1023E000D8954A45A4B2F3D14758BBF1000FE9D1C3
:1023F000384600F039FF4045EAD14246514638465A
:1024000000F012FF0028E3D10FF2EC280FF20C3B92
:102410000FF2980A04E0414600F04EFC641CA4B29E
:102420002868270139184A68130018BF4A450FD099
:102430003A588B683078514600F03EFC28683818CE
:10244000C2683078002AE6D0594600F035FCE5E74E
:10245000BDE8F18F0D0A00004572726F723A206C70
:1024600069737420617267756D656E7420746F6F27
:10247000206C6F6E672C207765206F6E6C792073EF
:102480007570706F727420757020746F20257520C0
:1024900062797465732E0D0A000000006D6F64751B
:1024A0006C65730025700D0A000000002570202562
:1024B0007000000070B5044688B0A068DFF80055D1
:1024C0000068DFF800652870A068406830700FF27F
:1024D000580001F0B7F8A168DFF8EC04C9682B7860
:1024E0000170A26800781269DFF8E01405900A70A4
:1024F0000FF25C0009780FF260020490079101204E
:1025000003907EA002900FF258013078019006915E
:1025100004F111010FF2500000900FF2540001F08D
:1025200091F808B070BD00005475726E696E672036
:102530006F66662074616773206E6F7420796574AE
:1025400020737570706F727465640D0A000000006E
:1025500064656C696D000000686561646572000007
:102560007465787400000000636F6D6D616E6400C7
:102570007B264E20566572626F73697479206F7086
:1025800074696F6E732073657420746F3A0D0A2638
:1025900074750D0A2674750D0A2674750D0A267455
:1025A000750D0A2674757D0D0A000000DFF82014F1
:1025B000007C51F82020DFF8FC030FF208010078BE
:1025C00000F07ABB4349204572726F723A20257041
:1025D0000D0A000038B5DFF8DC43207846A500F08E
:1025E00035FA20780FF2340100F066FB00F02DFA86
:1025F00020780FF24C0100F05FFB207840A100F042
:102600005BFB20780FF2440100F056FB20780FF2BC
:102610004801BDE8344000F04FBB0000456D6265E5
:1026200072204E6F64652054657374204170706C25
:1026300069636174696F6E2076312E30000000008E
:1026400041707220313520323031360032303A3329
:10265000393A3534000000000D0A0D0A0000000070
:102660002DE9F24F044682B0256BDFF8489390467F
:10267000002705E020A100F01FFB7F1CBFB2103532
:102680006868B8B32E68DDF808A04FF0000B0EE0C4
:102690001AF8010BFFF75CFE009016F8010BFFF72C
:1026A00057FE0099C9B28142E7D10BF1010B1FFA25
:1026B0008BFBC345ECD32068DFF8FCC23E01311828
:1026C00032584B6899F80000634504D10FF2340189
:1026D00000F0F2FAD1E78B680FF2380100F0ECFA63
:1026E00020683018C26899F80000002AC2D00FF2A2
:1026F0002C01EDE7BDE8F78F0D0A0000746167005B
:102700002C2000002D2D2D2D202570202D2D2D2D40
:102710000D0A00002020257020257000202D202586
:10272000700D0A002DE9F0439BB00EA80FF2A42112
:10273000342200F0B9FF4FF000098DF80190A52078
:1027400001F002F801F050F8002201230F21104699
:1027500001F0AEF9050006D0002201230A2110463F
:1027600001F0A6F90546012300220F21184601F0C9
:102770009FF9060006D0012300220A21184601F025
:1027800097F90646012300220F21022001F090F95B
:102790005FEA000806D0012300220A21022001F08E
:1027A00087F9804601F08AFB824C5DB1002E68D02B
:1027B000B8F1000F6BD040F2BD110FF24C2001F0C8
:1027C00083FB04E0002E18BFB8F1000F62D084F83C
:1027D0000090201D01F0A6FC201DFFF7FBFE0FF26C
:1027E000382500F032F920780FF2802100F064FAE9
:1027F00020786DA600F026F9201D01F029FF00F0D9
:1028000024F920780FF2702100F056FA00F019F93F
:10281000201D01F08EFF00F018F920780FF26421DE
:1028200000F04AFA00F00DF9201D03F0C4FA00F0A0
:102830000CF920780FF2582100F03EFA00F001F96F
:10284000201D03F0DBFA00F000F920780FF24C2194
:1028500000F032FA00F0F5F8201D03F0ECFA00F079
:10286000F4F820780FF2402100F026FA00F0E9F8A1
:10287000201D03F069FE4DA54DA60FF2A41801AF6F
:102880003FE0B8F1000F05D001202070A1E7022041
:10289000FBE725702078FF289BD1002500A928465A
:1028A00001F048F938B99DF800000D2818BF0A2832
:1028B00018BF2A28EDD06D1CEDB2032DEEDBE9E741
:1028C0008DF800009DF80010CA5D481C0A2A18BF48
:1028D0000D2A18BF002AF3D10D22CA558DF8000029
:1028E00001A99DF80020201D01F028FC9DF8002082
:1028F00001A90EA800F04EFC9DF8009000208DF874
:10290000010000F0A6F820780DF10103322201A9A0
:1029100001F05AF90028D3D000F012FF04F0A4F817
:102920009DF8010020B39DF8011001A8081810F8C7
:10293000010C09281CD100F084F89DF80100401E0C
:102940008DF8010001A99DF80120201DFFF788FEE8
:102950009DF801100020C85500F07BF8002004E02D
:1029600000F06AF89DF80000401C00F05DF8F7D315
:102970009DF804002128C6D100F063F84A460EA94C
:1029800001A800F007FCA9F101008DF8010000F09A
:1029900060F8002000F048F8B5D200F04DF89DF83E
:1029A0000000401CF6E700005D0D0A0025630000F2
:1029B0000D0A000028240020912100088C2400200A
:1029C0006024002061240020622400206324002071
:1029D000442500200D000000000000000000000061
:1029E00000000000000000000000000000000000E7
:1029F00000000000000000000000000000000000D7
:102A00000000000000000000706C6174666F726D61
:102A1000746573742E6300005B494E4954200000B6
:102A20000D0A3E20000000008DF800009DF8011006
:102A30009DF8000088427047C25D2078294600F06A
:102A40003BB92078314600F037B92078294600F0AC
:102A500033B94146207800F02FB980B504F0A6F8CC
:102A6000BDE8024000205DE600207047637261739C
:102A700068696E666F000000696E6974546F6B65FB
:102A80006E7300007265736574737472696E6700AB
:102A9000696E6974526164696F00000073656564F2
:102AA000506E726700000000736574506572546563
:102AB000737454780000000070B51346101802E0DB
:102AC000A4192C705B1EDBB24BB101F00F06090993
:102AD000451E0A2E2846B4BF30243724F0E71018CC
:102AE00070BD2DE9F24F88B0804601A81446994682
:102AF00001AD4FF0000B00278DF8000010E001271A
:102B0000641E05A885420AD39DF800002E1A00F025
:102B1000B4F8002839D1B3445FFA8BFB01AD641CD3
:102B20009DF800002E1A207800280BD0252803D00D
:102B300017B905F8010BE4E7002F14BF0027641C48
:102B40002078010000F08E80B0F1250113D00B3900
:102B5000092967D928395CD00B390ED0491E2CD0F1
:102B600008392AD0091F0BD0C91E09D0891E24D0CC
:102B7000C91E4ED0C5E72520DBE759F8040BD8E77E
:102B800059F804AB00F079F8002872D1B3445FFA29
:102B90008BFB01AD002600E0761CF6B216F80A00A9
:102BA0000028F9D19DF8200032465146C047002840
:102BB0005FD1B3445FFA8BFBA3E759F8040B002104
:102BC000002803D52D212970404201210023002235
:102BD0004FF0000C02E0801B0CF1010C0FF2041608
:102BE00056F82260B042F6D243EA0C06F6B2002E46
:102BF00005D0C9B20CF130034B55491C0123521CBE
:102C0000092AE5DBC9B230304855481CC0B2451925
:102C100077E759F8041B0222C9B22846FFF74CFF98
:102C200005466EE760780127782818BF5828F8D144
:102C3000641C002714F8010C322804D159F8041B35
:102C4000042289B2E9E734287FF459AF59F804AB7C
:102C500004224FEA1A412846FFF72EFF04221FFAEA
:102C60008AF1DBE700F009F818B906EB0B00C0B2F7
:102C700000E0002009B0BDE8F08F9DF82000F2B21E
:102C800001A9404709A117E010B5094BC35C002416
:102C9000012B07D113460A4601460648FFF721FFDC
:102CA00000B90124204610BD000000000D0A0000FC
:102CB000A43E0008873D00080CB480B502AAFFF7C7
:102CC000E3FF02BC5DF80CFB0CB438B5044604AA63
:102CD000FFF7DAFF05462046FFF7D4FF284632BC4F
:102CE0005DF80CFB00CA9A3B00E1F5058096980060
:102CF00040420F00A086010010270000E8030000FA
:102D0000640000000A000000DFF85814096801EBB5
:102D100040107047DFF850241268815470472DE945
:102D2000F041040035D004F087F8DFF84014DFF8F4
:102D300040340E78FF228046FE2EDFF838041BD187
:102D400000260E70DFF830C4DFF8306437781F706B
:102D5000002708E007F1010E07F805E0DCF8005055
:102D60007A555FFA8EF796F800E005687745F1DB53
:102D70000EEB050606F8012C1E78A6420BD2404643
:102D800004F060F8052004F065F800211B2004F031
:102D9000B5F8FF201CE0361B1E70DFF8E4330E7818
:102DA0000F78D3F800E0012507F80E50641E05687F
:102DB00017F805E081F800E0E4B2002CF0D17A5574
:102DC00000213046FFF7A6FF404604F03BF83046AE
:102DD000BDE8F08110B5044604F02EF8DFF8A0132A
:102DE0000968625C521C6254BDE8104004F02AB8C5
:102DF0002DE9F041054600F031F8044604F01CF8D6
:102E0000DFF86823DFF86833DFF86863DFF8708382
:102E1000FF2D1FD0D8F800106F5C7F1E6F547F27E6
:102E2000D8F800E015F80E10394213D13168695C0A
:102E3000002705F80E701F787F1C1F70FF29376868
:102E400092F800E005F807E0157006BF2546FF245C
:102E50000D46DDE7BDE8F04103F0F4BF80B5DFF8D3
:102E600020130968415C090603D5FFF74DFF007880
:102E700002BDFF2002BD70B504460D4605F11F00DE
:102E80000004400D82B0C0B2FFF749FF0646FF2E96
:102E90000CD02946FFF73EFF3CB1012000902B46A5
:102EA00000223146204600F002F8304676BD73B568
:102EB00000F0BBF8085C15461E467119884203DA1B
:102EC0004FF4B07100F0DAF866B1294601A800F0BD
:102ED000D9F8024606989DF8041000903346204623
:102EE00000F001F873BD2DE9F843089CDFF88482F7
:102EF0000546894616461F460BE04A5D0A54491CA2
:102F0000B142FADBD8F80000BF1B751919F8009020
:102F10000026FFB2BFB14846FFF7F6FE3018F119A0
:102F20002029B2BF3E46C6F12006F6B2324624B989
:102F30000146284600F02EF9E4E7012C08BF294697
:102F4000F8D00021DCE7BDE8F1832DE9F04100F085
:102F50006CF882B01600255C88461F460ED07119A9
:102F6000C9B2204600F04FF808B1182007E00097DA
:102F700033462A4621464046FFF799FF0020BDE828
:102F8000F6810123E1E70A4600E0521C1378002B8A
:102F9000FBD1521A0223D2B2D7E7F8B5044601F1A9
:102FA0001F00C50402F11F00C0042D0E000E05B95C
:102FB000012500B90120854223D08542DFF8B461A4
:102FC00010DA401BC0B2FFF7AAFE0746FF2F01D15F
:102FD0000020F2BD691EC9B2204600F02BF831680E
:102FE00047540EE08A420CD2411EC9B2204600F07E
:102FF00021F804463068205CFFF7FAFE3168FF20B4
:1030000060540120F2BD38B500F00FF80D46215C88
:103010002A462046FFF7C1FF28B129462046FFF780
:1030200079FE002032BD182032BD0446DFF8380199
:103030000068704704E0DFF83C211268805C491E9C
:10304000C9B20029F7D1704711B581B0DFF8180176
:1030500000680C469DF80410085C844203D34FF4CA
:10306000F47100F00BF8214601A800F00BF80446BB
:103070009DF80400FFF748FE201816BD0FF204105B
:1030800000F022BF38B504460D46E9042078090E49
:10309000FFF7D0FF207005F01F0032BD80B5FFF7AD
:1030A000D3FF007802BD10B51446FFF7CDFF0470C2
:1030B00010BD70B500F00AF800F004F800EB06202F
:1030C00080B270BD064629462046E7E70D46691CDA
:1030D0000446C9B2E2E72DE9F541089C1F464CB30E
:1030E000254689B200A8FFF7CDFF0646B9B201A870
:1030F000FFF7C8FF07463046B84238BF3846C0F130
:103100002000C0B2A842B8BF05469DF80400FFF7F2
:10311000FBFD80469DF80000FFF7F6FDAAB207EB25
:103120000801301800F036F8641BA919EF19A4B291
:10313000002CD5D1BDE8F38170B504460D4603F0EF
:103140007BFE0D4B21781B68FF2908BFED5403D08F
:10315000C9180E78EE540D702570BDE8704003F06C
:1031600071BE0000882400208C240020202500202F
:103170008624002094240020982400208524002008
:10318000902400207061636B65742D6275666665BE
:10319000722E6300814233D210185118401E491E0E
:1031A00010E011F8013900F80139121F11F8013946
:1031B00000F8013911F8013900F8013911F8013925
:1031C00000F8013992B2042AEBDA92B2002A1EBF4B
:1031D00011F8013900F80139521EF6D1704711F883
:1031E000013B00F8013B121F11F8013B00F8013BC5
:1031F00011F8013B00F8013B11F8013B00F8013BDD
:1032000092B2042AEBDA92B2002A1EBF11F8013BF7
:1032100000F8013B521EF6D17047130003D00A4656
:10322000194603F06FBE704710B500E0521E92B20F
:1032300022B100F012F8F9D0181B10BD002010BD0B
:1032400010B500E0521E92B22AB100F006F8F9D093
:10325000181B40B210BD002010BD10F8013B11F842
:10326000014BA3427047000000F10103810704D025
:1032700010F8011B89B18107FAD10268B2F101315E
:10328000914311F0803F04BF50F8042FF6E710F887
:10329000011B11B110F8011BFBE7C01A70470000B9
:1032A00038B50446611D206A2368451A2079EAB2C0
:1032B000984708B1002032BD00F018F8601D206268
:1032C000012032BD38B50446002500E06D1CEDB28A
:1032D000685C0028FAD1207923682A46984718B9F3
:1032E00000F004F8012032BD002032BD94F829001E
:1032F000281884F8290070472DE9F04F044683B060
:10330000601D206204F1200704F1150078600E466C
:10331000002091467872DFF8608312E010B1601DE2
:103320002062164625B17D2000F065F901F8010DF7
:10333000206A7968884203D300F063F9002863D0DB
:10334000761C3078002800F04D81252898F801106F
:1033500018BF26280AD07B281CBF7D28232802D12D
:103360000029E5D0E0E798F80210F9E716F8012FF8
:10337000252A18BF262A04D100F03DF901F8012DB5
:10338000D6E726280BD151B101256E2A18BF4E2A47
:1033900006D000F030F97B2001F8010D00E0002597
:1033A000317800204E2906D0542926D06E2902D02B
:1033B000742922D034E098F8000059F804BB0028A2
:1033C000B6D03DB1206A7B2100F8011B411C21626F
:1033D0002821017000F015F9002815D000F008F937
:1033E000002811D0002DA3D0206A292100F8011B4C
:1033F000411C21627D2101709AE700F000F900284C
:1034000002D000F0F5F800287BD000F0FAF8002890
:1034100077D000F0F0F83A2001F8010D761C012079
:10342000317896F801E0A1F13002D2B2911E05295F
:103430003CD2BEF1640F18BFBEF1750F36D159F8FA
:10344000041B1FFA81FC00230121BEF1640FE24638
:1034500009D15FEA0C4E06D56FEA0C0C0CF1010C99
:1034600001231FFA8CFCBCF1000F0AD04FF00A0EAA
:103470009CFBFEFC5B1C1FFA8CFCBCF1000FF5D121
:103480000BE05B1C09E0D7F800E00EF1010EC7F875
:1034900000E04FF0200C0EF801CD9C460CF101032A
:1034A0005FFA8CFC9445EEDB761C00E0002133785B
:1034B000721E002B00F09280322B18BF342B69D083
:1034C000482B5CD0582B5CD0632B0CD0642B1BD0CA
:1034D000682B54D0702B18BF732B0BD0752B13D0C7
:1034E000782B4ED01AE7206A411C216259F8041B40
:1034F000017017E700F083F818B100F079F80028A0
:10350000F7D10020BDE8FE8F002919BF1FFA8AFA03
:10351000514659F8041B89B229B900F06CF83020E3
:1035200001F8010DFEE60020642B0DD10A040BD535
:103530003B685B1C2D223B60B1F5004F03F8012D69
:1035400002D0494289B259B10A2291FBF2F20A2310
:1035500003FB121100ABC0B2C154401C91B2F2E7A0
:103560000146481EC9B2002913D000A9C0B23A686A
:10357000415C521C3A60303102F8011DF0E700F066
:1035800042F8022259F8041B206AC9B2FFF794FAE4
:103590002062C7E616F8010F682818BF48280BD12B
:1035A00000F031F816F8011C206A32290AD159F8C6
:1035B000041B042289B2E9E7782818BF5828F1D003
:1035C000761EAFE659F804BB04224FEA1B41FFF711
:1035D00073FA206204221FFA8BF1D7E700287FF4E8
:1035E0009DAE9EE600F00DF800288AD0787A89E733
:1035F0005946204666E63968491C3960704759F8D3
:1036000004BB20464CE6206A302100F8011B411C17
:1036100021627821017070470EB410B517490978FE
:103620008BB0002409B900200BE0154900910DAAC8
:1036300000F01CF8014600A8FFF75EFE00B9012467
:1036400020460FE00EB410B58BB00D490091002458
:1036500000F00CF80DAA014600A8FFF74DFE00B9D6
:10366000012420460BB010BC5DF810FB0549097819
:103670008DF80410704700006124002060240020B1
:10368000873D00082824002062B38B0708D0521E13
:1036900011F8013B00F8013B00F024808B07F6D1C4
:1036A000830740F0208000BF103A07D330B4B1E860
:1036B0003810103AA0E83810F9D230BC530724BFB4
:1036C000B1E80810A0E8081044BF51F8043B40F8E6
:1036D000043BD20724BF31F8022B20F8022B44BF51
:1036E0000B7803707047083A07D3B1E80810083A1E
:1036F00040F8043B40F804CBF7D25307E4E700005E
:103700002D480068C00701D42C4870472C487047EA
:1037100080B5FFF7F5FF2B49096801B9400802BDE4
:1037200080B5FFF7EDFF400802BD03F0E0BC26487E
:10373000012181604EF6BE21416001210160704788
:103740002249012008607047A52805D11E484DF682
:10375000AD6141600221016070471B480068C007ED
:1037600001D5012070470020704780B51849194ADB
:103770001020086018491948007858B103280CBF78
:1037800000200120106040F651000860002003F086
:1037900066FF06E0022010604FF40060086003F04E
:1037A0005FFC07210E4801600021016410200D49D3
:1037B0000860002002BD00001C400040001BB70054
:1037C00000366E012040004000600040086000406C
:1037D00080E100E0080000400C600040D62F00208F
:1037E00014A0004000E100E080B59F480021416046
:1037F00041708170A5210170012003F026FB03F0C8
:1038000028FB00F01EF8002002BD98480168C90797
:1038100000D4704780B596490A6822F440620A6075
:10382000016849084900016001680902FCD4914817
:10383000006810B1642003F0F7FE8F490020086093
:1038400001BD80B58D48016841F0807101600120A3
:103850008B49086000208B4903F00FFF8A498B4A8F
:103860000220086000208A4908608A498A4801606D
:10387000012111607D4A8949116040F201410165D1
:103880004FF480308649086001BD7B48006800B174
:103890000120C0B27047D12202704170090A8170C4
:1038A00080490A78C270501C0870042070472DE9C6
:1038B000F14F82B0002500907B4800990068085CB9
:1038C000441DE4B203F01AFF01904FF6FF79FFF7B1
:1038D000DCFFB8B954E0A91E9DF80800C9B2FFF793
:1038E000DDFB0746494603F03BFF81465546F000A5
:1038F000F9B2761C01FA00F0042E40EA080815DB44
:10390000CBF80080EDB2A54232DA03F0F7FE019960
:10391000401A80B2B0F5FA7F2ADC4FF0604BDBF83A
:1039200000000128EED14FF000080026EDB215B9D5
:103930005B270125DBE7012D05F1010A04D15A4877
:10394000009900680F5CD1E7E11E8D4208BF4F4629
:10395000CCD0A11E8D4208BF4FEA1927C6D0611EE8
:103960008D4208BF5D27C1D0A542B4D10027BEE774
:103970004FF4C87003F058FEA54208BF002000D0E5
:103980000120BDE8FE8F48490968415C0429A8BFB1
:10399000FFF78DBF012070472DE9F04D324D6E7855
:1039A000002E5ED003F0AAFE834631460020FFF7CA
:1039B00062FA0446FF2CA04602D10020687050E055
:1039C000202EB4BF37462027FFF79EF96860AF70FE
:1039D000DFF8D8A004E04046FFF796F96860AF70C2
:1039E0006878C0B103F08AFEA0EB0B0080B2B0F59E
:1039F000FA7F10DCA8780028F2D1F61B6E70F6B2C0
:103A0000002EEDD0DAF8000018F80080202EB4BFA8
:103A100037462027DFE7002E04BF6878002818D13A
:103A2000A878B0B920480068205C851EE9B220461D
:103A3000FFF73FFB122808D1E9B22046FFF7E3FA6F
:103A40002146122003F068FF06E0204603F0AEFE98
:103A500002E000206870A8702046BDE8F04DFFF736
:103A6000C7B9BDE8F08D0000F02F0020800E00E007
:103A7000001000E034000040100004E0FCED00E025
:103A8000040004E020A10700F00004E0000E00E0C4
:103A9000040304E055CEACC5B00F00E00D000100FA
:103AA00000E100E0D92F00208C2400209424002085
:103AB0002DE9F0470446884691469A4600F0E2F91F
:103AC000002801BF25460FF2DC30285C012823D1F5
:103AD000DFF8A46356F8257003F0AEF90021B98031
:103AE0003980798003F0AEF906EB8500066903F0B2
:103AF000A3F9DFF888230021B18031807180A954B7
:103B000003F0A0F904F0AFF853464A464146204678
:103B1000BDE8F04703F072BF2120BDE8F08710B583
:103B2000044604F06AF8DFF8500300EB84000069F3
:103B3000808810BD2DE9F84381464C46DFF83803F4
:103B400000EB840088460669484600F09BF908B1FE
:103B5000012037E0DFF82453605D05EB440760B1D6
:103B6000B8887188884208D103F066F9665D002143
:103B7000615503F067F9304624E0484604F03DF80B
:103B8000B088F0B103F058F971880FF22432891926
:103B9000897988F800104FF6FF78718832F8142080
:103BA00000F0EBF87180B1884144B18003F04AF92C
:103BB000605D20B1B888404504BF3088B8800020DF
:103BC00000E02620BDE8F283F8B51F4604463878A9
:103BD0000D46164608B1B04208D30020287005E013
:103BE0003878411C39709DF80010415500A92046D5
:103BF000FFF7A0FF002855D19DF800008028F5DAD6
:103C0000397819B90A2818BF0028EFD0B14207D374
:103C1000002038709DF800000D2818BF0028E5D05E
:103C20009DF80000082818BF7F280CD1387800289C
:103C3000DCD0401E38700021C0B2415520468DA115
:103C400000F057F8D2E73878801C8642BCBF0D20C0
:103C50008DF800009DF80010204600F038F89DF81F
:103C6000000061381A2804D29DF8000020388DF831
:103C700000009DF800000D2818BF0A28B0D139783F
:103C8000002048559DF800000D2805D10A21204646
:103C900000F01DF8002603E00D21204600F017F883
:103CA0003E700020F2BD70B582B0044600200D4683
:103CB00016468DF8000001E0FFF742FD00AB3246EA
:103CC00029462046FFF780FF0028F5D176BD02B5D2
:103CD000012200A900F057F802BD80880FF2BC1342
:103CE00033F81110891A884201DA01207047002048
:103CF00070472DE9F047824656460FF2A810305C17
:103D000001280D4636D15C480FF2AC1850F82670E9
:103D10000FF29419002414E003F08EF8B98801B969
:103D200001243A8815F8011BD2199171398839F8A4
:103D3000162000F022F83980B988491CB98003F0B8
:103D400081F8287888B1002251463846FFF7C5FF30
:103D50000028E1D11CB1504603F08FFE002416F874
:103D600008000028EFD1222005E0504603F085FE30
:103D7000002000E00120BDE8F087491C91FBF2F330
:103D800002FB131170472DE9F84F804647460FF2AA
:103D90001410385C01288B46164638D136480FF28D
:103DA000181950F827400FF2001A002514E003F00C
:103DB00043F8A18801B9012522881BF8011B1219BB
:103DC000917121883AF81720FFF7D7FF2180A18849
:103DD000491CA18003F036F83046461EC0B288B1B7
:103DE000002241462046FFF778FF0028DFD11DB1B1
:103DF000404603F042FE002517F809000028EFD1E5
:103E0000222005E0404603F038FE002000E00120BB
:103E1000BDE8F28F80B501460FF288028A5C012A64
:103E200005D1154A52F821108A88002AFCD103F0E6
:103E300079FE002002BD0CB438B504460D4603F0EF
:103E400049FE04AB2A4621460D48FEF74AFE0FF212
:103E500054012046415C012907D1074951F820004F
:103E6000808810B1204603F008FE32BC00205DF8C7
:103E70000CFB000008200800242500202C2E002028
:103E8000E57A0008042806DA0FF21801415C481EA2
:103E90008041C00F70470120704700008000800003
:103EA000800080000101010180008000800080000E
:103EB000400040004000400001010101002181F369
:103EC0001188704742DE704738B504460D46FFF74B
:103ED00037FC02F0B1FF2946204603F053FC2B4685
:103EE00022460FF2CC110120FFF7A5FF29462046FC
:103EF000BDE83440E6E72DE9F84F6548654D0168B7
:103F00002E1D4FF4206A7165016AB1656249096826
:103F1000F165416A3166816A7166C16AB166016B99
:103F2000F166806B306796F8340040074CBFF76B42
:103F3000B76BBB4603F09BFF0022584CDFF8608153
:103F4000DFF86091F2648742014624BFA4F12003A8
:103F5000BB4231651DD357F8180F306457F8040F72
:103F60007064706DC005C00D062815D1306C4845D1
:103F700012D3404510D200884DF6426290420BD1D8
:103F800005F18C006A68426040F2017A72688260D2
:103F900002E03264726483464348814202D20146A1
:103FA00000E0091DA14203D20B68B3F1CD3FF8D068
:103FB000601AB064182105F1780003F083FF002037
:103FC00003E0C0B205EB80029167A34523D254F809
:103FD000041D4945F9D34145F7D2CA07F5D500225A
:103FE00005EB82039B6F8B4203D0521CD2B2062A90
:103FF000F6DB062AE9D1002814BF401E0520E0E7C1
:10400000716F002205EB8203521CDF6F9F67052A48
:10401000F8DBC5F88C100146481EC9B20029EFD163
:10402000706DC005C00D02280AD0032815D00428E1
:1040300016D0052817D0062818D00C281CD01EE052
:104040001A480168890748BF40F6021A1CD4006864
:10405000C00719D540F2025A16E040F6012A13E0D3
:1040600040F6022A10E040F6032A0DE0BAF5206F70
:104070000AD140F6042A07E040F6052A04E018B108
:10408000242838BF40F6072A5046BDE8F28F0000CA
:1040900004ED00E00000002000E300E02824002000
:1040A0009E04010890210008980000201CA00040F8
:1040B0000D0A5B4153534552543A25703A25645DCD
:1040C0000D0A00002DE9F8430446DFF8F803006804
:1040D000255C0026E807B14648BF002020D4002711
:1040E0000FF2045802E04FEA00197F1CFFB2AF4202
:1040F00011DA39462046FEF7D1FF10F80800F9071B
:1041000000F00F00EFD549EA0002F1B22046FEF7B9
:10411000CAFF761CE9E7F1B22046FEF7FBFD01205D
:10412000BDE8F283FF2180F826100021C173C1830E
:1041300080F8241081730168016370472DE9F64F00
:1041400083B0814600208DF8010009F104050AE0E2
:10415000687A09F1240148720120E87249469DF805
:10416000000000F0C1F903980026002760BB9DF80D
:10417000100000A9FFF7DEFC002839D0262826D041
:104180000121484600F0A2F97820B0468DF80000E1
:10419000102600208DF80100E87A0828E3D8DFE82F
:1041A00010F00A004D009700FD00FD00550161016F
:1041B000BA00AA00D7E7102ECAD09DF80000232825
:1041C00038D10820E872CEE79DF8100020B99DF89C
:1041D000010005B0BDE8F08F0398401C0390401E1D
:1041E00000788DF800009DF81000401E8DF810003A
:1041F000B0469DF80000672811D29DF800100FF21C
:10420000E830085C00F0300600F00F08400609D5E1
:1042100009F12401497A884504D2012702E07B286C
:1042200038BF10269DF800000A2818BF0D28B0D10D
:104230000120AFE7202E96D003203DE1102E1CBFB9
:104240009DF800005F2800D027B199F824000C28C1
:10425000F2DA83E7202E18BF302E48D199F82410C7
:10426000494400204874002409F11100029009F12A
:104270002400D0F80CA00DE01BF8010B00F02DF984
:104280000199491C0191491E0978814209D0641C99
:104290000AF1100ADAF8040048B3DAF800B002981C
:1042A0000190019800780028E6D19BF800000028D2
:1042B000EDD109F124006C83C068698B00EB01101B
:1042C0008068E8610020A87289F824000220E87262
:1042D00009F12401687A487287B32B20087209F12A
:1042E0002400C0F80480687A487204206AE7032139
:1042F000484600F0EBF89DF8010000280AD0287B22
:1043000028B1D9F804104846884700202873484649
:10431000FFF708FF27E79DF8010018B1484600F0B5
:10432000EFF8F4E79DF80000232803D1484600F099
:10433000E7F846E7202EEDD00420BDE09DF8000010
:104340002D2818BF2B2806D1087200204860687AF3
:104350004872032036E722280CD10120FEF7DFFC4B
:1043600009F12401FF2888700DD00021FEF7D2FC4E
:10437000052027E77B28CED10120FEF7D0FC09F1EC
:104380002401FF28887000F096800021FEF7C2FC0F
:1043900009F1240110204872062013E76FB109F1DA
:1043A000240009F124014068497A01FB00800421BE
:1043B000E97209F124014860D5E69DF800107829DA
:1043C00018BF582908D109F12401496821B909F118
:1043D000240110204872C6E603285AD0202E18BFA8
:1043E000302E56D109F12403E8691B7A027840780F
:1043F00009F124012D2B496808BF4942752A08D1CB
:1044000034281AD00022312814BF4FF6FF70FF2045
:104410000FE0732A08D1312807BF6FF07F027F2099
:10442000294A47F6FF7004E00421484600F04EF8A0
:1044300061E79142A8BF884206DB0222484600F0AD
:104440007EF80028F4D041E70621EEE79DF8000051
:10445000222820D10021484600F086F80028BAD052
:104460000220AFE69DF800007D280FD109F124005D
:104470008078FFF727FE06460121484600F074F8D1
:1044800008B10220E872002EA5D102E0202EA2D0B1
:104490000FB9072010E009F124000A498078096863
:1044A000415CFF2908BF082006D0012200A9FEF7C1
:1044B00068FD00288FD002208DF800009DF80010C4
:1044C00016E700008C2400200080FFFF027C1AB950
:1044D0000822C27301745DE07047A0F141011A29FE
:1044E0003CBF2030C0B2704738B50C4694F8245019
:1044F000FFF7F3FF29194874681C84F8240031BDC4
:1045000010B50446206A017831B162290CBF01213F
:104510000221085C2A2807D1216BE28B01EB0211F2
:1045200020464968884706E00420207420466168D8
:104530008847002020742046BDE810402AE010B5CE
:10454000837B047BA34201D105211FE0846844F8EA
:104550002310817B491C8173016A535C2A2B1CBF89
:1045600051180162012010BD10B5026A1278622A4A
:1045700001D004210AE000F12002FF249379947114
:104580000122BDE8104003EB0121D8E7FFF79EFFB1
:10459000002010BDF8B5044604F10805A86AE98AB0
:1045A00000EB01100027866805E00220815D2A29C2
:1045B00018BF86197F1CA879FFB287420AD23078CB
:1045C0006228F2D1A06850F82700C0B2FEF710FCB4
:1045D0000120EBE70020A871A87FFF2803D0FEF799
:1045E00007FCFF20A877F1BD0000000000000000DC
:1045F000002020202020000000000000000000001B
:10460000000000000000000020003030000000002A
:10461000000000300030000040414243444546471E
:104620004849000000000000005A5B5C5D5E5F10BE
:10463000101010101010101010101010101010107A
:104640001010103000000000005A5B5C5D5E5F00DF
:1046500010B540F2A17403F078FC24FA00F0C00712
:104660000BD5064C207803F087FC207803F00EFD74
:104670002078BDE8104003F00CBE10BD28240020B7
:1046800010B5DFF834440FF218012078FEF714FB60
:1046900020780FF21C01BDE81040FEF70DBB0000B2
:1046A000286C6974746C6520656E6469616E0000C5
:1046B0002C20616C6C20646174612072657072657D
:1046C00073656E746564206173206279746520611E
:1046D00072726179290D0A000178A1F130030A2B69
:1046E0000AD3A1F14103062B38BF373904D3A1F116
:1046F0006102062A03D257390907090E00E000219A
:104700004078A0F130030A2B02D2401830380CE078
:10471000A0F14103062B02D24018373805E0A0F182
:104720006102062A03D240185738C0B27047080900
:10473000704710B504F0B6F802001AD0DE4C2078AD
:10474000042A08BF0FF22C0108D0062A08BF0FF276
:10475000700103D0072A04D10FF2A801FEF7ACFACA
:1047600003E00FF2E801FEF7A7FA20780FF210112C
:1047700091E710BD68616C537461636B496E697435
:10478000546F6B656E73204641494C4544207769F0
:10479000746820454D4245525F454550524F4D5F2C
:1047A0004D46475F535441434B5F56455253494F23
:1047B0004E5F4D49534D415443480D0A00000000DF
:1047C00068616C537461636B496E6974546F6B6597
:1047D0006E73204641494C454420776974682045F2
:1047E0004D4245525F454550524F4D5F4D46475FE4
:1047F00056455253494F4E5F4D49534D41544348DE
:104800000D0A000068616C537461636B496E6974D2
:10481000546F6B656E73204641494C45442077695F
:10482000746820454D4245525F454550524F4D5F9B
:10483000535441434B5F56455253494F4E5F4D4988
:10484000534D415443480D0A0000000068616C5309
:104850007461636B496E6974546F6B656E73204647
:1048600041494C4544207769746820456D62657202
:104870005374617475733A2025580D0A00000000C6
:10488000546F6B656E7320617265207374696C6C14
:1048900020616374697665207768656E2075736939
:1048A0006E672074686973206170706C69636174ED
:1048B000696F6E2E0D0A00002DE9F04F89B08068F7
:1048C0000568FFF7DDFEA8B204F0FEF90446A8B2C1
:1048D00004F061F88046A8B204F0C1FA764F83462E
:1048E000002C38781ABF4FF6FF7188450FF27C21F3
:1048F0002CD02346AAB20FF21411FEF7DDF90025E1
:104900000FF2AC190FF2AC1A0AE000A9725C387809
:104910004946FEF7D1F9761CF6B2A642F5DB6D1CCE
:10492000EDB25D4510DABBF1010F234603D17F22C2
:1049300000F011F806E02A4600F00DF838785146EC
:10494000FEF7BAF90026E7E738785146FEF7B4F9E2
:1049500009B0BDE8F08F414600A803F0E7BF2DE99C
:10496000F04788B0806804684768FFF789FEA0B206
:1049700004F0AAF98146A0B204F00DF88046A0B276
:1049800004F06DFA4C4E0546B9F1000F30781ABFAD
:104990004FF6FF7188450FF2D41132D0A5F1010A0C
:1049A00015B1FFB2BA450BDA0FF2CC11FEF784F95C
:1049B00030780FF2FC1153460022FEF77DF922E019
:1049C0004B46A2B20FF24401FEF776F9012D08BF63
:1049D0007F274B463A46FFF7BEFF36A43078214684
:1049E000FEF76AF900270FF2C80805E000AA414661
:1049F000BA5CFEF761F97F1C3078FFB24F45F5DBFA
:104A00002146FEF759F908B0BDE8F0875B253278FA
:104A10005D28256429203D002DE9F047C2B080685B
:104A20000668FFF72DFEB0B204F04EF98146B0B231
:104A300003F0B1FF8246B0B204F011FA0646B9F1B4
:104A4000000F1CBF4FF6FF708245DFF8247D05D1B3
:104A500038780FF21811FEF72FF928E00FF27418CA
:104A6000002403E0504603F072FF641CB4421EDAD7
:104A7000002513E006FB09F0431E387809FB0452B9
:104A80004146FEF719F93878032200A9FFF70BF920
:104A900000A8FFF721FE01A968546D1C4D45E9DB14
:104AA000012E4B4601AA0CBF7F21E1B2DAE759E0A3
:104AB000202558000D0A0000282400202DE9F04789
:104AC000C2B0806807684468FFF7DAFDB8B204F046
:104AD000FBF88046B8B203F05EFF8146B8B204F03E
:104AE000BEF9DFF88C5C0746B8F1000F28781CBFD0
:104AF0004FF6FF71894504D10FF27001FEF7DCF823
:104B000030E07E1E17B1E4B2A6420BDA0FF2680164
:104B1000FEF7D2F828780FF2980133460022FEF70C
:104B2000CBF81FE000260FF2AC0A10E02878A8F1BD
:104B30000103324600F0C8FE2878032200A9FFF7DF
:104B4000B2F800A8FFF7C8FD01A97054761C4645CD
:104B5000ECDB012F08BF7F24434601AA21464846CB
:104B600003F0F5FE42B0BDE8F08700006E6F7420E0
:104B7000666F756E640D0A004552524F523A2044DA
:104B800065736972656420696E6465782069732055
:104B90006F7574206F662072616E676520666F7234
:104BA000207468697320746F6B656E0D0A000000D5
:104BB0002020202020202056616C69642072616EC4
:104BC0006765206973202558207468727520255800
:104BD0000D0A00006461746120627974655B25646C
:104BE000206F662025645D3A000000002DE9F04347
:104BF000EFB0FFF745FDDFF8784B0FF678382078F7
:104C00004CF2443200F063FE20780FF67031FFF76B
:104C100070F8DFF8240C01880FF2883918237F22FE
:104C20001CA803F083FE00271CA849463A5C00F04C
:104C3000F5FD7F1C182FF7D3DBA700F0F8FD2078D7
:104C40004FF2640200F043FE20780FF64031FFF788
:104C500050F8DFF8E80B0188062300F0CBFD0025B3
:104C600000F0D9FD6D1C062DFAD300F0E0FD207890
:104C70004FF2644200F02BFE20780FF62031FFF750
:104C800038F8DFF8BC0B018806237F2211A803F057
:104C90004DFE002511A800F0BFFD6D1C062DF9D3B7
:104CA00000F0C5FD20784EF2455200F010FE20784D
:104CB0000FF6F821FFF71DF8DFF8880B00F098FDDC
:104CC000002500F0A8FD6D1C082DFAD300F0AFFD03
:104CD00020784FF26E4200F0FAFD20780FF6E021C6
:104CE000FFF707F8DFF8600B018814237F2217A86D
:104CF00003F01CFE002517A800F08EFD6D1C142D7E
:104D0000F9D300F094FD20784FF2424200F0DFFD2D
:104D100020780FF6C031FEF7ECFFDFF8300B00F023
:104D20005BFD002509A800F077FD6D1C142DF9D35B
:104D300000F07DFD20784FF2624200F0C8FD20783F
:104D40000FF6A831FEF7D5FFDFF8040B01880A2320
:104D50007F220EA803F0EAFD00250EA800F05CFDFE
:104D60006D1C0A2DF9D300F062FD20784FF27422F9
:104D700000F0ADFD20780FF68C31FEF7BAFF01256B
:104D8000DFF8D00A00F041FD00F04BFD9DF8012056
:104D900000F049FD6D1EF3D100F049FD20784FF27F
:104DA000762200F094FD20780FF66831FEF7A1FF1F
:104DB0000125DFF8A40A00F021FD9DF8022000F093
:104DC00032FD9DF8032000F02EFD6D1EF1D100F0A4
:104DD0002EFD20784FF2766200F079FD20780FF6F4
:104DE0004831FEF786FF0125DFF8700A00F00DFD5F
:104DF00000F017FD9DF8012000F015FD6D1EF3D1A8
:104E000000F015FD20784FF2634200F060FD20783D
:104E10000FF62831FEF76DFF0125DFF8440A00F098
:104E2000EDFC9DF8022000F0FEFC9DF8032000F050
:104E3000FAFC6D1EF1D100F0FAFC20784FF27442BA
:104E400000F045FD20780FF60431FEF752FF0125F2
:104E5000DFF8100A00F0D9FC00F0E3FC9DF8012017
:104E600000F0E1FC6D1EF3D100F0E1FC20784FF67C
:104E7000097200F02CFD20780FF6E021FEF739FFD3
:104E80000125DFF8E40900F0B9FC9DF8022000F0EC
:104E9000CAFC9DF8032000F0C6FC6D1EF1D100F0A5
:104EA000C6FC20784EF2636200F011FD20780FF608
:104EB000BC21FEF71EFF0125DFF8B00900F0A5FCBC
:104EC00000F0AFFC9DF8012000F0ADFC6D1EF3D1A9
:104ED00000F0ADFC20784EF26F6200F0F8FC207814
:104EE0000FF69C21FEF705FFDFF8840900F080FC37
:104EF00000F091FC6D1C082DFAD300F098FC20788E
:104F00004EF26F3200F0E3FC20780FF68021FEF7BE
:104F1000F0FEDFF8600900F065FC002505A800F050
:104F20007BFC6D1C102DF9D300F081FC20784CF235
:104F3000563200F0CCFC20780FF65C21FEF7D9FE4B
:104F40000125DFF8340900F060FC00F06AFC9DF8F0
:104F5000012000F068FC6D1EF3D100F068FC2078A1
:104F60004EF2453200F0B3FC20780FF64021FEF7F8
:104F7000C0FEDFF8080900F03BFC00F04CFC6D1CA3
:104F8000082DFAD300F053FC20784EF6735200F04F
:104F90009EFC20780FF62821FEF7ABFEDFF8E00834
:104FA00004E000BF202558000D0A000000F01AFCA4
:104FB000002505A800F030FC6D1C102DF9D300F081
:104FC00036FC20784CF24E2200F081FC20780FF65F
:104FD000FC11FEF78EFEDFF8AC08018810237F225B
:104FE00013A803F0A3FC002513A800F015FC6D1C0A
:104FF000102DF9D300F01BFC20784CF6441200F081
:1050000066FC20780FF6D411FEF773FE0125DFF859
:10501000780800F0FAFB00F004FC9DF8012000F095
:1050200002FC6D1EF3D100F002FC20784DF2430229
:1050300000F04DFC20780FF6B411FEF75AFE012562
:10504000DFF8480800F0DAFB9DF8022000F0EBFBE7
:105050009DF8032000F0E7FB6D1EF1D100F0E7FBA7
:1050600020784CF24B2200F032FC20780FF68C11A5
:10507000FEF73FFEDFF8180800F0B4FB05A800F0CB
:10508000CBFB6D1C102DF9D300F0D1FB20784CF632
:10509000535200F01CFC20780FF67811FEF729FE21
:1050A000DFF8F00700F0A4FB002500F0B4FB6D1C56
:1050B000082DFAD300F0BBFB20784CF2431200F02D
:1050C00006FC20780FF66011FEF713FE0025DFF8CE
:1050D000C80701880223EAB2FFF73EFC00F0A1FBFB
:1050E0009DF8012000F09FFB6D1C142DEFDB00F0FC
:1050F0009EFB20784CF2423200F0E9FB20780FF65C
:105100003811FEF7F6FDDFF8940701885C237F2253
:1051100058A803F00BFC002558A800F07DFB6D1C7F
:105120005C2DF9D300F083FB20784CF6431200F09D
:10513000CEFB20780FF61011FEF7DBFDDFF86007DD
:1051400000F04AFB002509A800F066FB6D1C142D39
:10515000F9D300F06CFB20784BF2542200F0B7FB3F
:1051600020780FF6FC01FEF7C4FD0125DFF83407B7
:1051700000F04BFB00F055FB9DF8012000F053FBC5
:105180006D1EF3D100F053FB20784DF2463200F053
:105190009EFB20780FF6E001FEF7ABFD0125DFF85E
:1051A000080700F02BFB9DF8022000F03CFB9DF867
:1051B000032000F038FB6D1EF1D100F038FB2078A1
:1051C0004BF2532200F083FB20780FF6C401FEF768
:1051D00090FD0125DFF8D40600F017FB00F021FB5D
:1051E0009DF8012000F01FFB6D1EF3D100F01FFBA6
:1051F00020784DF2433200F06AFB20780FF6A801C8
:10520000FEF777FD0125DFF8A80600F0F7FA9DF814
:10521000022000F008FB9DF8032000F004FB6D1E47
:10522000F1D100F004FB20784CF2433200F04FFB48
:1052300020780FF68801FEF75CFD0125DFF8740683
:1052400000F0E3FA00F0EDFA9DF8012000F0EBFA2F
:105250006D1EF3D100F0EBFA20784DF2423200F0EF
:1052600036FB20780FF66801FEF743FDDFF84806AD
:1052700000F0B8FA05A800F0CFFA6D1C102DF9D394
:1052800000F0D5FA20784CF2545200F020FB207840
:105290000FF65801FEF72DFDDFF8200601880623E2
:1052A00000F0A8FA002500F0B6FA6D1C062DFAD31E
:1052B00000F0BDFA20784CF2453200F008FB20786F
:1052C0000FF64001FEF715FDDFF8F4050188942381
:1052D0007F2233A803F02AFB002533A800F09CFAB4
:1052E0006D1C942DF9D300F0A2FA20784BF23462B1
:1052F00000F0EDFA20780FF62001FEF7FAFCDFF857
:10530000C40500F075FA002500F085FA6D1C082D23
:10531000FAD300F08CFA20784FF6017200F0D7FA39
:1053200020780FF60001FEF7E4FC012502237F221E
:105330000021FFF711FB00F074FA9DF8012000F046
:1053400072FA6D1EF2D100F072FA20784EF223123A
:1053500000F0BDFA20780FF2E471FEF7CAFC0423D6
:105360007F22012103A803F0E1FA03A800F054FA18
:105370006D1C042DF9D300F05AFA20784EF27542D4
:1053800000F0A5FA20780FF2CC71FEF7B2FC1123E1
:105390007F22022100F023FA002509A800F03CFA40
:1053A0006D1C112DF9D300F042FA20784EF26322E1
:1053B00000F08DFA20780FF2B071FEF79AFC04230A
:1053C0007F22032103A803F0B1FA002503A800F00F
:1053D00023FA6D1C042DF9D300F029FA20784EF23F
:1053E000635200F074FA20780FF29071FEF781FC9E
:1053F00004237F22042104A803F098FA002504A8BE
:1054000000F00AFA6D1C042DF9D300F010FA207890
:105410004EF2621200F05BFA20780FF27471FEF720
:1054200068FC012502237F220521FFF795FA00F091
:10543000F8F99DF8012000F0F6F96D1EF2D100F0A8
:10544000F6F920784EF6793200F041FA20780FF222
:105450005871FEF74EFC11237F22062100F0BFF9A0
:1054600009A800F0D9F96D1C112DF9D300F0DFF96E
:1054700020784EF6646200F02AFA20780FF2347138
:10548000FEF737FC10237F22072105A803F04EFA10
:10549000002505A800F0C0F96D1C102DF9D300F00F
:1054A000C6F920784EF2241200F011FA20780FF29B
:1054B0001471FEF71EFC1A237F2208212CA803F08A
:1054C00035FA00252CA800F0A7F96D1C1A2DF9D388
:1054D00000F0ADF920784EF2251200F0F8F92078AE
:1054E0000FF2F461FEF705FC08237F22092101A8D1
:1054F00003F01CFA002500F08EF96D1C082DFAD37C
:1055000000F095F920784EF2261200F0E0F92078AC
:105510000FF2E061FEF7EDFB0A237F220A210EA8BD
:1055200003F004FA00250EA800F076F96D1C0A2D90
:10553000F9D300F07CF920784DF2452200F0C7F94C
:1055400020780FF2C461FEF7D4FB00250423EAB2F1
:105550000B2103A803F0EAF9002603A84946325CB0
:1055600000F05CF9761C042EF7D36D1C102DEDDBDA
:1055700000F05DF920784EF2102200F0A8F92078B2
:105580000FF29461FEF7B5FB00F051F920784EF26E
:10559000112200F09CF920780FF29861FEF7A9FB28
:1055A00000F045F920784EF2122200F090F92078B0
:1055B0000FF2A061FEF79DFB00F039F920784EF262
:1055C000132200F084F920780FF2AC61FEF791FB12
:1055D00000F02DF920784EF2142200F078F92078AE
:1055E0000FF2B861FEF785FB00F021F920784EF24A
:1055F000152200F06CF920780FF2C861FEF779FBF4
:1056000000F015F920784EF2202200F060F92078A1
:105610000FF2D061FEF76DFB04237F22122104A854
:1056200003F084F9002504A800F0F6F86D1C042DA1
:10563000F9D300F0FCF820784EF2742200F047F91C
:1056400020780FF2C461FEF754FB00F0F0F82078E8
:105650004FF60D7200F03BF920780FF2C061FEF7B3
:1056600048FB00250B23EAB214210EA803F05EF9D3
:1056700000260EA84946325C00F0D0F8761C0B2EAE
:10568000F7D36D1C062DEDDB00F0D1F820784EF23B
:10569000564200F01CF920780FF29461FEF729FBC6
:1056A00000F0C5F820784FF4654200F010F920783A
:1056B0000FF28C61FEF71DFB00F0B9F820784EF276
:1056C000015200F004F920780FF28C61FEF711FB13
:1056D00010237F22172105A803F028F9002505A82B
:1056E00000F09AF86D1C102DF9D300F0A0F8207886
:1056F0004EF2025200F0EBF820780FF26C61FEF7E8
:10570000F8FA28237F22182122A803F00FF9002598
:1057100022A800F081F86D1C282DF9D300F087F83D
:1057200020784EF2502200F0D2F820780FF24C612F
:10573000FEF7DFFA12237F22192100F050F800252E
:1057400009A800F069F86D1C122DF9D300F06FF86C
:1057500020784EF2512200F0BAF820780FF2306132
:10576000FEF7C7FA00F063F86FB0BDE8F083000001
:10577000282400205B2532585D2000004D46475FFD
:10578000434849505F444154410000004D46475F43
:10579000504152545F444154410000004D46475F20
:1057A0005445535445525F44415441004D46475F70
:1057B000454D4245525F4555495F36340000000073
:1057C0004D46475F414E414C4F475F5452494D5FF4
:1057D0004E4F524D414C0000018814237F2209A8EE
:1057E00003F0A4B8018810237F2205A803F09EB817
:1057F000018808237F2201A803F098B801880223BA
:105800007F220DF1020003F091B8018802237F226C
:1058100000A803F08BB801A849462A5C2078FDF760
:105820004BBA9DF8002020784946FDF745BA20780C
:105830003946FDF741BA000020240108222401085E
:105840002424010826240108282401082A24010808
:105850002C2401082E2401083024010832240108D8
:105860003424010836240108382401083A240108A8
:105870003C2401083E240108402401084224010878
:105880004424010846240108482401084A24010848
:105890004C2401084E240108502401085224010818
:1058A0005424010856240108582401085A240108E8
:1058B0005C2401085E2401086024010862240108B8
:1058C00064240108662401085146FDF7F5B94146F4
:1058D000FDF7F2B94D46475F414E414C4F475F548B
:1058E00052494D5F424F4F53540000004D46475FB1
:1058F000414E414C4F475F5452494D5F424F5448CF
:10590000000000004D46475F5245475F5452494DE5
:10591000000000004D46475F3156385F5245475FF3
:10592000564F4C54414745004D46475F56524546F9
:105930005F564F4C54414745000000004D46475FBD
:1059400054454D505F43414C000000004D46475FB9
:10595000544553545F54454D500000004D46475F39
:105960004649425F56455253494F4E004D46475FA8
:105970004649425F434845434B53554D00000000A4
:105980004D46475F4649425F4F4253004D46475F91
:105990004349425F4F4253004D46475F435553547E
:1059A0004F4D5F56455253494F4E00004D46475F9D
:1059B000435553544F4D5F4555495F363400000001
:1059C0004D46475F535452494E4700004D46475F8E
:1059D000424F4152445F4E414D4500004D46475FA6
:1059E0004D414E55465F4944000000004D46475F1B
:1059F0005048595F434F4E46494700004D46475F68
:105A0000424F4F544C4F41445F4145535F4B4559C2
:105A1000000000004D46475F455A53505F53544FB6
:105A200052414745000000004D46475F4153485FE3
:105A3000434F4E46494700004D46475F43424B4562
:105A40005F444154410000004D46475F494E535466
:105A5000414C4C4154494F4E5F434F444500000078
:105A60004D46475F4F534332344D5F424941535F88
:105A70005452494D000000004D46475F53594E5463
:105A8000485F465245515F4F46465345540000001B
:105A90004D46475F4F534332344D5F534554544C4A
:105AA000455F44454C4159004D46475F534543557A
:105AB000524954595F434F4E464947004D46475F50
:105AC0004343415F5448524553484F4C4400000003
:105AD0004D46475F5345435552455F424F4F544CE7
:105AE0004F414445525F4B45590000004D46475FCA
:105AF00045544845524E45545F41444452455353E2
:105B0000000000004D46475F43424B455F3238334B
:105B10004B315F44415441004D46475F4555495F15
:105B200036340000535441434B5F4E564441544178
:105B30005F56455253494F4E0000000053544143B5
:105B40004B5F4150535F4652414D455F434F554E69
:105B500054455200535441434B5F414C5445524EBF
:105B60004154455F4B455900535441434B5F424FAD
:105B70004F545F434F554E544552000053544143D8
:105B80004B5F4E4F4E43455F434F554E5445520079
:105B9000535441434B5F414E414C595349535F521B
:105BA00045424F4F54000000535441434B5F4B4517
:105BB00059530000535441434B5F4E4F44455F449B
:105BC00041544100535441434B5F54525553545F29
:105BD00043454E5445520000535441434B5F4E459C
:105BE00054574F524B5F4D414E4147454D454E54E2
:105BF00000000000535441434B5F504152454E5406
:105C00005F494E464F000000535441434B5F4341B0
:105C10004C5F4441544100004D554C54495F4E4542
:105C200054574F524B5F535441434B5F4B4559536D
:105C3000000000004D554C54495F4E4554574F529B
:105C40004B5F535441434B5F4E4F44455F44415477
:105C5000410000004D554C54495F4E4554574F523A
:105C60004B5F535441434B5F414C5445524E41545A
:105C7000455F4B45590000004D554C54495F4E451A
:105C800054574F524B5F535441434B5F54525553FB
:105C9000545F43454E544552000000004D554C544E
:105CA000495F4E4554574F524B5F535441434B5FEE
:105CB0004E4554574F524B5F4D414E4147454D4520
:105CC0004E5400004D554C54495F4E4554574F5269
:105CD0004B5F535441434B5F504152454E545F49D3
:105CE0004E464F004D554C54495F4E4554574F5208
:105CF0004B5F535441434B5F4E4F4E43455F434FC1
:105D0000554E544552000000535441434B5F4249A5
:105D10004E44494E475F5441424C45005354414321
:105D20004B5F4348494C445F5441424C450000009E
:105D3000535441434B5F4B45595F5441424C4500DE
:105D4000535441434B5F43455254494649434154A0
:105D5000455F5441424C4500535441434B5F5A4CBC
:105D60004C5F444154410000535441434B5F5A4CF3
:105D70004C5F5345435552495459000053544143D5
:105D80004B5F52463443455F44415441000000009C
:105D9000535441434B5F52463443455F504149524F
:105DA000494E475F5441424C4500000021210FF20B
:105DB0002C00FEF789B810B501F002F8044600F097
:105DC000F9FF0246234604480FF220010078BDE89F
:105DD0001040FCF771BF0000282400207265736535
:105DE000742D746573742E63000000005245534592
:105DF000543A25702D25700D0A00000010B5044698
:105E0000002003F028FC002003F035FC01F028F806
:105E1000012003F001FB03F0FBFA10F0060018BFAD
:105E2000012003F08CFD204604F046F92046BDE831
:105E3000104000F094BB80B5022100F089F8009872
:105E400004F008FA01BD8068006800B10120DFF8A5
:105E5000B4110FF2C412087008780028DFF8A80106
:105E6000D0F860130FF2A41014BF0FF2BC130FF29E
:105E7000C013FDF7E7BB80B503F0C8FB012808BFDE
:105E80000FF2B81305D000280CBF0FF2B8130FF2B1
:105E9000BC135D480FF2E412D0F890130FF2BC105F
:105EA0002FE038B50446A06805685748D0F8A0131D
:105EB0000FF2D410FDF7C6FBEDB215B1012D07D0DE
:105EC0000CE00FF2CC10FDF7BDFB03F030FB05E05A
:105ED0000FF2D010FDF7B6FB03F066FB0FF2D41003
:105EE000FDF7B0FB2046BDE83240C4E780B504F0C2
:105EF000EAFB034644480FF2E012D0F870130FF2A9
:105F0000BC10BDE80050FDF79DBB38B5044603F05A
:105F10007DFB05463C48D0F880130FF2C410FDF716
:105F200091FB03F041FBA0680068C0B204F0C3FB22
:105F300002460FF220110FF2DC10FDF783FB012D5A
:105F400008BF03F0F4FA2046BDE83240CEE7012155
:105F500000A804F0C5BE38B5044603F057FB05465B
:105F600003F022FB502001F05FFB03F022FC03460C
:105F700022A204F111010FF2A410FDF763FB012D21
:105F800004BFBDE8314003F0D2BA31BD70B503F0B3
:105F900040FB044603F03AFB0546002003F03CFBBF
:105FA000D02001F041FB03F049FB0646204603F0F8
:105FB00033FB012D08BF03F0BAFA304670BD10B5AF
:105FC0000446FFF7E3FF04F11101BDE8104003466A
:105FD0000FF268120FF25010FDF734BB10B50446F3
:105FE000FFF7D4FF03F00EF804F11101BDE81040F3
:105FF000034603A20FF24C10FDF724BB43434100BC
:106000004544000065240020881401087B264E20AA
:106010002674737D0D0A0000504552205465737438
:10602000204D6F6465000000656E61626C65640000
:1060300064697361626C65640000000061736C6583
:10604000657000006177616B65000000656E6572C8
:106050006779000073746174757300007B264E20AD
:10606000526164696F20706F776572207374617418
:1060700065202674737D0D0A00000000706F77653F
:1060800072207374617465007B264E20000000004E
:10609000536C656570696E6720726164696F2E2E3E
:1060A0002E00000057616B696E6720726164696F32
:1060B0002E2E2E00646F6E657D0D0A007B264E200D
:1060C000526164696F206368616E6E656C2026742E
:1060D000687D0D0A000000006368616E6E656C00EB
:1060E0007B264E2053657474696E67206368616E09
:1060F0006E656C20616E642063616C6962726174AC
:10610000696E6720286173206E6565646564292E59
:106110002E2E00002674687D0D0A00007B264E207E
:106120002674647D0D0A00007B264E2026746420B0
:106130005B64426D5D7D0D0A0000000052535349BF
:10614000000000007B264E20267464205B3830322D
:106150002E31352E3420756E6974735D7D0D0A0005
:10616000DFF81414DFF814240978517002F077BFB7
:106170002DE9F8430E4617468046DFF80444DFF861
:10618000FC530FF22C4940B1402814D0892820D06C
:106190008D2817D08F2807D01DE06868401C6860E4
:1061A000207B10B394211DE0E868401CE860207B50
:1061B000D8B1982116E02869401C2861207BA0B145
:1061C0009C210FE0A868401CA860207B68B1A0213A
:1061D00008E0AA2106E042460FF2EC310120FDF76B
:1061E0002AFEB0214846FDF76FFEB8F1400F2F7030
:1061F000AE610BD16878401E6870C0B230B168885B
:10620000401C6880BDE8F14304F090BE012020737B
:10621000BDE8F18380B504F059FA0346DFF8640362
:106220000FF2E432D0F830140FF2D030BDE8005055
:10623000FDF708BA30B5044683B0A068056868B2B7
:1062400004F048FA01906BB20FF2E8300FF2D4324A
:106250000090DFF83003D0F840140FF2B830FDF7AB
:10626000F1F96EA0FDF7EEF92046BDE83E40D1E71A
:1062700000B5DFF80C130FF2D832CB890FF2E831FA
:1062800083B00091019300F111010FF2B030FDF7DE
:10629000D9F907BD8168DFF8E8220968D181E7E70D
:1062A0002DE9FE4F00218DF8081001248068008838
:1062B0000090401E8041C00F019003F0A7F9814675
:1062C0000098DFF8BC72DFF8C06201284FF00008C8
:1062D0001BD030780FF2A831FCF7EEFC3078019932
:1062E00021B10FF2A431FCF7E7FC03E0009A4CA1C6
:1062F000FCF7E2FCFA8930780FF29831FCF7DCFC0D
:1063000030780FF2A021FCF7D7FCDFF880A200253F
:10631000019818B90098ADB2854241DA30786D1C09
:1063200002A9FDF707FC9DF80800652838D0DFF8C2
:106330006002007820B104F03CFD08B104F078FE62
:10634000F8894FF47A71484380B201F06DF9DFF8B3
:106350004402007860B19AF80000504400F8034C01
:10636000A4B29AF800105144200A01F8020C641CEF
:10637000002038735046FFF7F3FE5FEA00080FD1A4
:1063800001F0BCF98346387B0028C1D101F0B6F991
:10639000A0EB0B0080B2B0F57A7FF4D94FF0010882
:1063A00030780FF20831AAB2FCF786FC30780FF291
:1063B00018314246FCF780FCDFF8DC010FF2243193
:1063C00002883078FCF778FC30780FF23831FCF72F
:1063D00073FCDFF8A84130782178002914BF0FF250
:1063E00040310FF24431FCF767FC03F0FCF928B1AF
:1063F000626930780FF23831FCF75EFCA2693078C0
:106400000FF25831FCF758FC642001F00DF9B9F196
:10641000010F08BF03F08BF8BDE8F78F0D0A0000ED
:106420002575000038B500F02FF800F032F803F0C1
:10643000BBF803F075F901E000F00BF89DF80000DF
:106440006528F9D103F074F9012C08BF03F06FF847
:1064500031BD287800A9FDF76DBB38B500F014F800
:1064600000F017F803F0A0F803F06CF901E0FFF773
:10647000F0FF9DF800006528F9D103F084F9012CA4
:1064800008BF03F054F831BD00208DF8000003F080
:10649000BDB80446DFF8F0500FF208112878FCF779
:1064A0000BBC2DE9F041DFF8E0400FF2E02120784D
:1064B000FCF702FC0FF2E4260FF2D828DFF8CC70CC
:1064C000002515E0EA5D20784146FCF7F5FB6810F1
:1064D00005EB90708010B5EB800007D138788542CD
:1064E00004DA20782A463146FCF7E6FB6D1CEDB253
:1064F0003878401C8542E5DBBDE8F081806823499F
:106500000068087070472DE9F84304460025A0682C
:106510001D4E07680FF29029DFF87080781CC7B213
:10652000802F06DAA06800EB8500406807F80800B5
:1065300005E030786B1C7A1E4946FCF7BDFB6D1CEC
:10654000042DEBDBBDE8F1831048142100F8011B9A
:10655000002100F8011B491C1429FADB70470F4A7F
:1065600006480021116041608160C1600161418085
:106570000B4A11607047000084240020DC270020B3
:106580006C24002088140108282400205C270020A7
:1065900066240020652400206C2E0020702E002030
:1065A000782E00202765276E642E2E2E0000000016
:1065B0007068792D636F6D6D6F6E2D74782D7465B5
:1065C00073742E6300000000656D62657252616431
:1065D000696F5472616E736D6974436F6D706C6531
:1065E000746549737243616C6C6261636B20737490
:1065F000617475733A203078257800007B264E2030
:1066000026746464426D7D0061637475616C506FC3
:10661000776572007B264E2026746464426D2026C6
:1066200074647D00726571756573746564506F770D
:106630006572000073746174757300007B264E20D0
:106640002674647573202674327875737D0000009B
:106650007472616E736D69742064656C6179202851
:1066600064656329000000007472616E736D697463
:106670002064656C61792028686578290000000035
:106680005478696E67200000696E66696E6974658A
:1066900000000000207061636B6574732025752015
:1066A00075732061706172742E2000000D0A2575CB
:1066B000207061636B657473207472616E736D69B1
:1066C000747465642E0D0A004C61737420706163EC
:1066D0006B6574207374617475733A203078253259
:1066E000780D0A004C617374207061636B657420CF
:1066F0006261636B6F66663A2030782532780D0AE6
:10670000000000004672616D652070656E64696E00
:106710006720696E206C6173742041434B3A2000FE
:106720005965732E0D0A00004E6F2E0D0A000000F1
:106730005346442074696D6520287669612053466C
:10674000442073656E742063616C6C6261636B29B5
:106750003A2030782532780D0A0000005346442054
:1067600074696D65202876696120545820636F6DC7
:10677000706C6574652063616C6C6261636B293A4F
:106780002030782532780D0A00000000206C656EFC
:106790003A20000030782578200000000D0A30787B
:1067A00025783A20000000007061796C6F616420E8
:1067B0006279746520696E6465783A202564206981
:1067C00073206F7574206F662072616E67652E206E
:1067D000617267756D656E742025642069676E6FE0
:1067E0007265642E0D0A00002DE9F04184B000F0BE
:1067F00023FB00210FF22C2400AD54F821209268D5
:1068000000F04AF8F9DB00F01DFB0027DFF86462B6
:106810000FF2642800F045F87F1C032FFADB00F02C
:106820000BFB002154F82120D26800F035F8F9DB89
:1068300000F008FB0FF25828002700F032F87F1C08
:10684000032FFADB00F0F8FA002154F821205368F6
:10685000126842EA034200F01FF8F6DB00F0F2FA99
:1068600000240FF2442755F82430307804F1410217
:106870003946FCF721FA641C032CF4DB3078DFF88E
:10688000F011096889064CBF0FF238210FF244213C
:10689000FCF712FABDE8FF8145F82120491C0329C5
:1068A000704755F82730307807F141024146FCF730
:1068B00003BA806801784368A02905DB01F007006E
:1068C0000122090902FA00F30A29DFF8A801007879
:1068D000A4BF0A39C9B203290BDA0FF2481252F8E1
:1068E0002120DBB2136101F141020FF2F811FCF734
:1068F000E3B91FE0806801784368A02905DB01F057
:1069000007000122090902FA00F30A29DFF86401ED
:106910000078A4BF0A39C9B203290BDA0FF20412B6
:1069200052F82120DBB2536101F141020FF2EC1168
:10693000FCF7C2B943220FF2C411FCF7BDB970B520
:106940008068017803790124A0294FF0FF3206DB2B
:1069500001F00702090913B104FA02F3DBB20A29B4
:10696000DFF810010078A4BF0A39C9B2032916DA8A
:106970000FF2B00555F821500C35160006D42E68DC
:1069800004FA02F2D24332401343DBB22B6001F12E
:106990004102BDE870400FF29C11FCF78DB9BDE8D3
:1069A0007040C7E7F8B5806801784368DFF8C40035
:1069B0000078A0294FF0FF350CDB01F0070509092D
:1069C000102B05D3BDE8F4400FF28011FCF774B929
:1069D000AA0093400A29A4BF0A39C9B203291EDAC2
:1069E0000FF2400252F82140221D2E000AD42668E0
:1069F000176846EA07460F27AD0007FA05F526EAAD
:106A000005052B439DB225601C0C146001B0BDE848
:106A1000F04001F141020FF29001FCF74DB9BDE8E1
:106A2000F84087E700B0004000B4004000B80040E4
:106A30000146104889680E4A09680078C9B20029E1
:106A400011680AD041F0200111601168890654BF15
:106A50000FF220110FF20C1104E021F0200111605F
:106A60000FF22811FCF728B90FF2301004F051BBD7
:106A700000BC0040282400204750494F5F50256348
:106A8000494E20202020203D20307825580D0A0036
:106A90004750494F5F5025634F5554202020203DDB
:106AA00020307825580D0A004750494F5F50256324
:106AB000434647482F4C203D2030782534580D0A56
:106AC0000000000053574A2044697361626C65649A
:106AD0000D0A000053574A20456E61626C65640DD3
:106AE0000A0000004750494F5F502563534554202A
:106AF0003D20307825580D0A0000000054686520BC
:106B00006F6E6C79206C6567616C20706F72747346
:106B10002061726520412D25630D0A004750494FC1
:106B20005F502563434C52203D20307825580D0A94
:106B3000000000004750494F5F5025634F555420D7
:106B40003D20307825580D0A00000000436F6E6626
:106B500069672073686F756C6420626520302D440E
:106B60000D0A000044697361626C696E67205357B7
:106B70004A0D0A0043616E6E6F742064697361622E
:106B80006C652053574A0D0A00000000456E616293
:106B90006C696E672053574A0D0A0000DC2A0020FA
:106BA000C9020108000000000000000038B5012003
:106BB00000F001FB002000F0CFFC704C206840F09A
:106BC00008002060FCF7B3FD00F0B6FC6C496D488E
:106BD0000A78C2604B786C4AD3608D786B4BDD606D
:106BE0008D880560CD8845600889106048895060AF
:106BF00088891860C889586000F088F8206820F0FB
:106C00001000206004F00AFB01F02DF804F0FCFBFA
:106C100000F066FBFCF789FDBDE83140FCF7A5BD3F
:106C200010B501F00BF85A4900F001F810BD5548B5
:106C30000A78C2604B78544AD3608C78534BDC603E
:106C40008C880460CC884460088910604889506052
:106C500088891860C8895860704710B5FFE700F050
:106C600082FA00F069FC4649FFF7E1FF00F04EF8B8
:106C70004248016821F01001016004F0CFFA00F0F1
:106C800075FBBDE8104000F0E2BFF0B50B68424C68
:106C90000F252468960005FA06F6344215D0002622
:106CA00006EB820724FA07F7FF070BD5B70005FAB2
:106CB00007FC23EA0C0330F812C005FA07F707EACD
:106CC0000C073B43761C042EEADB0B60F0BDF0B5ED
:106CD0000B68314CFF252468D600B5402C4213D0F8
:106CE0000025012605EBC20724FA07F7FF0708D5A0
:106CF00006FA05F7BB43175C06FA05FC0CEA070722
:106D00003B436D1C082DEDDB0B60F0BD10B5224838
:106D1000006808B11E4C07E010BD10B51E480068A1
:106D200008B1174C00E010BD1C4900222046FFF7B7
:106D3000CEFF01221A492046FFF7C9FF0222194956
:106D40002046FFF7C4FF00220E4900F031F801226F
:106D5000104900F02DF802220B4900F029F8032217
:106D6000114900F025F80422084900F021F8201DFF
:106D7000BDE8104005220D4987E7000000BC004037
:106D80000025002000B0004000B4004000B80040E2
:106D90001025002004B00040C02A00200CB00040A4
:106DA0000CB400400CB8004004B4004004B80040EB
:106DB000201D6AE780B501F0C8F80FF2240109E050
:106DC00080B501F0C6F80FF244010204120E51F82A
:106DD0002210C0B201EB800002BD0020704700000D
:106DE000554E4B004649420042544C004558540011
:106DF0005057520057444700205357004352530006
:106E00004653480042414400464C54003822010891
:106E10003C22010894220108B4220108BC22010886
:106E2000C8220108D4220108E0220108E822010852
:106E3000F422010804230108EFF31180602181F39B
:106E40001188704780F31188704770470EB403B003
:106E5000704770477047002070470020704700005F
:106E600010B51F481F4C0068206060604822002158
:106E7000FCF7D3F91C4821680078087000202168CD
:106E80000873216848730B202168887303202168E8
:106E9000C8734FF6FE71206801824FF6FF71418280
:106EA00003F0ECF92168087603F0E8F921684876E8
:106EB00003F0E4F9216888760C4821680078C876E8
:106EC0000B492068096881620A49097880F82C100A
:106ED000094821680068086310BD00207047000061
:106EE000A8240020E42A0020D22F0020B82400206B
:106EF000AC240020B0240020B424002004F097B873
:106F00000000000062F30F2262F31F42401810F0ED
:106F1000030308D0C91A1FD3DB0748BF00F8012DAF
:106F200028BF20F8022D130030B41446154610393E
:106F300028BF20E93C00FAD8490728BF20E90C0007
:106F400048BF40F8042D890028BF20F8022D48BF13
:106F500000F8012D30BC7047C91818BF00F8012D8A
:106F6000CB0728BF00F8012D70470000DFF860153F
:106F70005120086070472DE9F0410546FCF7C8FB39
:106F8000DFF85015B0FBF1F64FF4F070B0FBF6F7F8
:106F90001E2D3FB201DBE81B04D5A8B2BDE8F041CD
:106FA00000F042BBFFF748FF804604F0C9FADFF863
:106FB0002815DFF82825012048700721DFF8200573
:106FC00000F041F8E91B09B27143C91C8908491E48
:106FD000DFF81055416000F0BDF8DFF8F4743C684C
:106FE000386820F04000386004F0ACFA3C602E6055
:106FF00004F0ACFA04F0B2FA4046BDE8F041FFF705
:1070000021BF38B50546FCF783FBDFF8C814B0FB99
:10701000F1F44FF4F070B0FBF4F02D1A1E2D04DAE9
:1070200095210FF20850FCF74FFFDFF8B404DFF8AA
:10703000AC24072100F007F805FB04F1C91C8908FE
:10704000491E416031BD01600021416081604FF007
:10705000007111607047DFF8802401215170D0E782
:10706000DFF88404006800B970472DE9F041DFF8CB
:107070007C54DFF87C6400242C6034604FF4A04022
:10708000706041F29A084046FFF775FF6F68FCF7A1
:1070900047FB000142F21071B0FBF1F000F5C8703F
:1070A000C01B00B24FF4487190FBF1F000B2082809
:1070B000A8BF072004DA10F1080FB8BF6FF007006F
:1070C00030604046FFF757FF08274046FFF753FF61
:1070D000686804197F1EF8D1FCF722FB211D4001CE
:1070E000C908B0FBF1F080B27060BDE8F081DFF854
:1070F000F803006800B9704738B5DFF8F85301208D
:107100006FF00F04A8602C608020FFF734FFE86860
:10711000FF2802D8641C102CF5DB31BD70B5DFF8F8
:10712000D803016841F00101016001214160FFF7CE
:1071300083FE0446DFF8AC5300F00CF85120DFF872
:10714000901308602E6004F001FA2046BDE87040FC
:10715000FFF778BE2E68286840084000286004F0D9
:10716000F5B90020704710B5DFF87C03DFF86843FD
:1071700000680128BCBF032000F01DF8012020702A
:1071800000202071DFF87403816901F003010329F5
:1071900007D10020A070042000F07DF801202071AC
:1071A00010BD0F210160022181610120E070642087
:1071B000BDE810404FE72DE9F041CB4AC64D1468B9
:1071C00040F2DC51012C8846CC4ECD4F15DA02211D
:1071D000B9803160B16901F00301032959D0002C55
:1071E00003D5B16941F00201B161FFF7BAFF5FEA6F
:1071F00000081AD1002C4CD549E0B8884FF6FF742E
:10720000A0421DD1BF48018802237F22381D04F00F
:10721000A7F9B888A04204BF0220B880B0698007EF
:1072200003D4B06940F00200B0610120A870B888B2
:1072300030600FFA88F0FFF70EFF4046BDE8F0819E
:10724000B3699B07EDD5AB780BB10846F6E7B1689B
:10725000B36811F0010103D10F2809D2401C06E0E8
:107260009B0705D53B781BB1032801DB2018B880AC
:10727000B88839700228BCBF0220B8803068B9884D
:107280008842D2D1B06900F00300032801D0FFF793
:1072900045FF0020D2E72DE9F047804600248C4DC1
:1072A000904EFFF7C9FD814604F04AF94046FFF7CA
:1072B00082FF08B901240AE000F0CAF8D5F800A05E
:1072C00000F02EF9C5F800A0376004F03FF904F093
:1072D00045F94846FFF7B6FD002CE2D0BDE8F0873F
:1072E0000220D8E710B57E487B4C002141608160C8
:1072F000016821F002010160002060704FF0007011
:1073000076490860A07838B10020A0700620FFF709
:1073100028FF00F098F81CDBE078012814D17A48A7
:107320000121016079490968C90748BF03200FD4CA
:107330000221E170016C41F00101016404207449F3
:1073400008607449086010BDE078042801D1052068
:10735000E07010BD80B56048407800281CBFBDE8D3
:107360000140FFF7BFBF01F023FF01BD2DE9F84346
:1073700000F069F803DABDE8F24304208BE7564CCD
:10738000207900B35DE0FFF757FD054604F0D8F81B
:10739000E078032812D000F05AF8DFF83481D8F8EA
:1073A0000090D8F8000020F04000C8F8000004F079
:1073B000C9F8C8F80090376004F0C8F804F0CEF8B7
:1073C0002846FFF73FFDE0780328DCD14C4E4B4DBB
:1073D000B08828604FF6FF777088B8420CD14E48CD
:1073E000018802237F22B01C04F0BAF87088B842EA
:1073F00002D16420708001E07088C8B1FCF790F978
:107400007188344AB0FBF2F048432F303021B0FB92
:10741000F1F042494A6D42F001024A650A68AB68E0
:10742000DB07FBD50B689B1A1B031B0B8342F6D3B0
:10743000FFF774FE0420E0704FF4C870BDE8F2431B
:1074400009E6BDE8F1832848006801287047254E09
:107450003768306840084000306004F077B82DE9A4
:10746000F8431D4C207800282DD0207900282AD1FF
:10747000FFF7E9FF1FDA40F2EF310FF2B000FCF73F
:1074800023FD18E0FFF7D8FC804604F059F8E078B7
:1074900005280BD0FFF7DBFF0D4DD5F8009000F06D
:1074A0003FF8C5F80090376004F050F804F056F843
:1074B0004046FFF7C7FCE0780528E3D10020A07024
:1074C0000520FFF7E8FE00202070BDE8F1830000F2
:1074D0000080004090D00300E62F002004ED00E083
:1074E00010E000E094ED00E024230108104000408B
:1074F0000C000040084000401C4000400440004098
:10750000982500205624010818A000400C40004097
:1075100080E200E000E100E05A2401083820004049
:10752000286820F04000286004F00CB8636C6F639A
:107530006B732E630000000010B5664C002004F051
:10754000A0F840F68C2188422068B4BF40F00800C3
:1075500020F00800206010BD10B504465E48018888
:1075600082B000F05CF89DF800109DF80100FF2942
:1075700002BFFF280420002104B1801C574A136871
:10758000C0B20828A8BF072023F4607343EAC010E4
:10759000106008291068A8BF0721C00841EAC00090
:1075A00010604F48047013BD00B54E48018883B089
:1075B00000F035F8BDF800004FF6FF7188420EBFAD
:1075C0004FF4E1600A2190FBF1F0ADF8000044486F
:1075D000007808B34048018802237F2201A803F005
:1075E000BFFF9DF80500BDF80030FF2808BF04204C
:1075F000811CC9B20829A8BF0721C1F12F0202EBE3
:10760000D272C0F12F00521000FB0320C1F12F01F4
:10761000B0FBF1F0ADF80000BDF800000EBD022394
:107620007F2200A803F09CBF70B52F4C256806464A
:10763000FCF776F82D49B0FBF1F070432F30302184
:10764000B0FBF1F0032809D3616D41F001016165E0
:107650002168491B0903090B8142F9D370BD10B59C
:10766000040004D110BD4FF47A70FFF7DDFF20460F
:10767000441E80B20028F6D110BD38B50C4620B1AA
:1076800001280FD0032820D021E0194D44B1FCF788
:1076900047F81849B0FBF1F0401EB0F5005F0CD27E
:1076A000286012E04CB1FCF73BF8610801EB4000A8
:1076B000B0FBF4F0B0F5003F01D3202032BD0E49FD
:1076C00000F001024A6040080860002032BD21201D
:1076D00032BD000000BC00402E240108180000400C
:1076E000DA2F0020302401083820004090D0030019
:1076F000100004E020A1070068C8004080B500F039
:1077000002F880B202BD10B5FFF796FB0F490A6878
:10771000496841EA0244FFF795FB0D48017831B111
:107720000C4909688C4202D10B48406810BD002109
:107730000170204610BD704780B5FFF7FCFF074978
:107740000720086001200449087001BD1060004056
:10775000C82A0020CC2A00205C2E002014A0004063
:107760000A0242EA11214840C0F30311484080EA6E
:10777000003041010206C9B2D20E41EA022148405E
:1077800080B2704703460A468AA10420FFE70CB482
:1077900080B502AA00F015F801BC5DF80CFB21B120
:1077A00003460A4684A11120F1E7704710B504464C
:1077B00021468248FBF7C0FC2046BDE81040FBF79D
:1077C00009BB2DE9F04F85B005460C4690460026D2
:1077D000FFF741FBF8B9FCF758F8E0B10120FBF7DF
:1077E0009EFA8246BAF1FF0F15D00021FBF792FAFC
:1077F000294601A8FCF74FF805469CB900F087F828
:1078000030B95046FCF7BFF810B10420FFF722FB57
:107810005046FBF7EDFA05B0BDE8F08F8DF8042077
:107820000125641C20780028E8D0A0F130010A2945
:1078300005D20A2101FB0600A0F13006F1E700F0B5
:1078400066F80028E4D122780025422A01A80ED04B
:10785000442A1AD0462A25D0572A0DD0622A3AD077
:10786000662A2AD06C2A25D0702A26D0D6E758F866
:10787000040B8DF80400D3E758F8041B8DF80410AE
:1078800002250904090E4170CBE758F8041B8DF856
:1078900004100A0A427004250A0C8270080E8DF842
:1078A0000700BEE758F8041B5046FBF76CFB0028A6
:1078B000B7D0ADE758F8046BB3E7012358F8041BC1
:1078C000662A08BF0223F2B25046FBF73EFB0028AF
:1078D00008BF0026ECE73A4858F8041B00681AF87D
:1078E0000090CFB2FF2F9CD017F800B00BEB09012E
:1078F000C9B25046FBF787FB002889D1CDF800B00C
:1079000000233A4649465046FBF7E5FB89E72A46FD
:1079100001A95046FBF735BB2DE9F043122885B08D
:1079200080460D4609D03A281DD04FF6FE71884298
:1079300004BF284603F07AFB34E02148224F006858
:107940002E5C08E02846FBF7DFF9214600F0F5F849
:1079500038682D5C203EFF2D24D0F6B2212EACBF1E
:1079600020243446EEE7FBF77FF8814601F0CDFE98
:10797000064602F0ABFE074602F0A5FE044601F003
:10798000BCFE02460F480FF248010390CDF810905C
:1079900023460E48006840880290019600973B20DD
:1079A000FFF7F5FE2946404605B0BDE8F043FFF776
:1079B00054BA0000574600006C7000006C2500208F
:1079C0008C2400208C2E002094240020E42A002007
:1079D000574242575738704200000000DFF8F80263
:1079E000016C41F4C04141F0090101644FF6FF719F
:1079F00001602020DFF8E4120860704770B50028AD
:107A000015461E4638D0012835D113293CBF0FF248
:107A10000C30095C08096422504301F00F010B2966
:107A200003DA884006E00A2250430A46511ED2B2C9
:107A30000B2AF8DA01460120FFF71FFEE0B93009F2
:107A400007280CBF00200220012D08BF40F01800BD
:107A500003D0022D08BF40F0080006F00F010229F4
:107A60009F49A8BF40F00400886001200860FFF72C
:107A7000B5FF002062BD212062BD38B5040012D1DF
:107A800098480468608828B140F2AB210FF2842046
:107A9000FCF71AFAA188C9B2A01DFFF780FE0020EA
:107AA000A080208031BD012802BF8D4800680128D8
:107AB0000FD1FFF7C1F905468B48016841F0060177
:107AC0000160012000F09AF82846BDE83240FFF737
:107AD000B9B931BD012804D18348016821F00601FC
:107AE0000160704780B50B46114620B91846FFF774
:107AF00056FE002002BD012802BF7C488269012A8F
:107B000007D0212002BDC2685207FCD513F8012B13
:107B100002600A46511ED2B2002AF4D1C168490659
:107B2000FCD5E6E710B50446FBF70AFE012C03D1AD
:107B3000714800684006FBD510BD70B56C4A6D4BAE
:107B400012680CE0158810F8014BAD18AC71148860
:107B50001D8800F06DF814809488641C94800C4695
:107B6000611EE4B254B19488644D2D886D1EAC4200
:107B7000E8DBBDE87040232100208EE070BD2DE9D8
:107B8000F84304465A48DFF86C91DFF87081574F8C
:107B9000254650F8256014E0B18838F81520521EAB
:107BA00091421CDA318889198871308839F81510AA
:107BB000401C90FBF1F201FB12003080B088401CA9
:107BC000B080F868800716D5F86810F0380138687A
:107BD000E2D0080705D4C80605D5242107E02321F3
:107BE00005E0272103E088064CBF2521012120461E
:107BF00000F053F8E5E7BDE8F183704770B5394907
:107C00003F4A51F82010394B0CE04C886418A47995
:107C10001C604C8832F8105000F00AF84C808C88B8
:107C2000641E8C808C8814B1DC686407EDD470BD50
:107C3000641C94FBF5F605FB164470473148324945
:107C4000C2680A6002694A600068886070472E490D
:107C500023480A6842614A6882618968816001211B
:107C600001600120BAE6704738B51B4C0FE046F2C0
:107C700029700542256003D0A9B20120FFF77FFFDC
:107C800041F6D60005421CBF0120FFF7B7FF206870
:107C9000216C11EA0005EAD131BD30B5144A1B4C04
:107CA00052F82020055D1A4B25B9128823F81020C0
:107CB000015530BD33F810301380015513885188B9
:107CC0008B4205D20D4C34F81000401A181800E011
:107CD000581A908030BD000008A8004000E100E084
:107CE00054C800402425002048A800403CC800405B
:107CF00034250020B03E000848C800402823010871
:107D0000A83E00085CC80040D02A00202C2E00208D
:107D1000302E0020756172742E630000306090C0B8
:107D2000C1C2C394C495C55C96C6AC9798990D0022
:107D300010B50446FFF780F84E49302008604E49E0
:107D400008604E49086010204D4908604FF20F014D
:107D5000200A00284B4808BF240204804180BFF35A
:107D60005F8F4948002101604160484848490860E8
:107D700010BD10B5474C2068C0060BD54649414898
:107D80000A68C0F894204968C0F8901040F60620B0
:107D9000FFF7CEFF2068C00708D5404903200870D0
:107DA000206C40084000206401202060206800070B
:107DB00003D5206C20F00800206410BD80B50020A1
:107DC00000F009F830B9BDE80440FC210FF2E000F2
:107DD000FCF77AB801BD2DE9F044314C21680D1A49
:107DE00015F01F0105D0002852BF6D1A681A00F166
:107DF00020052C48A5F12006A84224BF2A48864227
:107E000003D3EFF30880854201D300202DE0FFF774
:107E100013F882462548006810F0010718BF03F0E8
:107E200079FC206801468D4206D2A84224BFCD21AC
:107E300000F80119F9D206E02038002201E000F82C
:107E4000012B8842FBD32560304603F068FCE2201A
:107E500001E006F8010BAE42FBD30FB103F042FC88
:107E60005046FEF7EFFF20682038BDE8F0840C484C
:107E7000006870473020004030C8004030C00040EB
:107E800010D00040000000201C4000400400FA0513
:107E90000CED00E018A0004030500040E92F002019
:107EA00090250020C81A0020AC0D002094ED00E0C1
:107EB0006D6963726F2D696E7465726E616C2E638D
:107EC00000000000002203F047BC000030B522484B
:107ED00001680020002201249440CBB2234213D039
:107EE0000FF284001D4C30F8120006284CF23C3290
:107EF0004FF20F031DD16088984216D12188080ADD
:107F00000B2812DA084612E0521C92B2082AE2D379
:107F10001349088140F201720889904204D1114846
:107F2000D0E90023C1E9002330BD4FF4C060628076
:107F3000EEE740F20725A84201BF618899422188F7
:107F4000A942E5D162800846E2E705480089000AB7
:107F500070470348008970472C0000400000002053
:107F60004C2A0020900000200104020401030105B6
:107F700006000702030901092DE9F04FDFF88453D9
:107F80008046A86B410785B007D5296C2F6D0FF28D
:107F9000843603910024A14607E0E96B0FF27C369A
:107FA000EF6CDFF8649303916C6D00074CBF0FF228
:107FB00074320FF27832B9EB040A07D064204FEA2A
:107FC0005A0100FB0710B0FBFAFB01E04FF0000B79
:107FD00003980FF260310290CDF80490009433467C
:107FE0004046FAF771FE1FFA8AF0019000961FFAD8
:107FF0008BF3BAB20FF26C314046FAF765FE95F892
:10800000380040070CD4AAF19800874208D1686D67
:10801000BE49884204D20FF288314046FAF754FE36
:108020000398814528BFA04205D232460FF29C3109
:108030004046FAF749FE4046FBF7ECFE286EE8B1F1
:108040000FF2A8314046FAF737FE0026A8A70FF234
:108050005074286EF040C00707D554F826201078D9
:1080600018B139464046FAF727FE761C112EF0DB90
:10807000404605B0BDE8F04FFAF704BE404605B0F3
:10808000BDE8F04F0FF29431FAF71EBE2DE9F0472C
:108090009C4F0FF28C590FF2A4560FF28C680FF21E
:1080A000044A044607F14405FFF753FF40F201512B
:1080B000401A16D0401E17D040F2FF11401A35D09A
:1080C0004FF44071401A39D0401E53D0401E73D037
:1080D000401E00F0B080401E00F0C880401E06D058
:1080E000C2E00FF2503142E00FF28831C0E0E86C9C
:1080F000012806D0032807D0042807D0052808D077
:108100000AE00FF2BC3608E07AA606E00FF2B836B5
:1081100003E00FF2BC3600E077A60FF2BC3100F0AE
:10812000B0F82B6D0FF2D831324603E02B6DEA6CBC
:108130000FF2E4312046FAF7C7FD90E00FF2F43178
:1081400000F09FF8686AC0F3400018B10FF2FC31EC
:1081500000F097F8686AC0F3807018B10FF22841F8
:1081600000F08FF8686AC00F79D00FF2504100F02C
:1081700088F874E00FF2804100F083F895F8200051
:1081800010F0030F01D000F07FF8286AC0F3C01090
:1081900018B1EA6A494600F079F80027286AF840E1
:1081A000C00705D500F069F810B1314600F06EF84F
:1081B0007F1C082FF2DB52E00FF2884100F061F8DB
:1081C00000F062F8286AC0F3802018B10FF28C41E9
:1081D00000F057F8286AC0F3C03018B1EA6A49467F
:1081E00000F054F80827286AF840C00705D500F0C9
:1081F00044F810B1314600F049F87F1C102FF2DB33
:1082000095F82000000603D10FF2984100F039F8EC
:1082100001270FF2C0460FF27858286BF840C007CC
:1082200005D500F02AF810B1314600F02FF87F1C78
:10823000042FF2DB13E00FF2A44100F022F800F06B
:1082400023F81027286AF840C00705D500F015F874
:1082500010B1314600F01AF87F1C1A2FF2DB2046CD
:10826000BDE8F047FBF7D6BDBDE8F0870FF28841C7
:1082700000F007F800F008F8F1E758F82720107828
:1082800070472046FAF720BD7A6C51462046FAF72F
:108290001BBD2DE9F0478046DFF874A00FF244566D
:1082A0000FF27849002515A715A406E04046FAF715
:1082B00003FD4046FBF7AEFD6D1C3078A8B15AF8BF
:1082C000043B324649464046FAF7F6FC16F8010BE5
:1082D0000028FBD1307800281EBFEDB205F0030066
:1082E000032814BF21463946E0E7BDE8F0870000C7
:1082F00020257000414443003F3F00000D0A00006C
:108300002C200000000000202824002098000020DD
:108310000400002070726F63657373006D61696E95
:1083200000000000546872656164000048616E647A
:108330006C6572002570206D6F6465207573696EC1
:108340006720257020737461636B202825347820A2
:10835000746F20253478292C205350203D2025345B
:108360007800000025752062797465732075736547
:10837000642028257525252920696E202570207305
:108380007461636B20286F7574206F6620257520DB
:10839000627974657320746F74616C290000000049
:1083A000537461636B205F6D61795F2068617665EE
:1083B000207573656420757020746F20313030250E
:1083C00025206F6620746F74616C2E0053502069F5
:1083D00073206F75747369646520257020737461F0
:1083E000636B2072616E676521000000496E7465E1
:1083F0007272757074732061637469766520286F7A
:1084000072207072652D656D7074656420616E6494
:1084100020737461636B6564293A00004E6F2069B4
:108420006E746572727570747320616374697665B9
:108430000000000052657365742063617573653ACE
:10844000205761746368646F67206578706972652E
:10845000642C206E6F2072656C6961626C652065AA
:108460007874726120696E666F726D6174696F6E87
:108470000000000052657365742063617573653A8E
:10848000205761746368646F6720636175676874FF
:10849000207769746820656E68616E636564206921
:1084A0006E666F00496E737472756374696F6E20C7
:1084B000616464726573733A2025347800000000AB
:1084C00053433120527800004D4143205278000040
:1084D0005343322052780000526573657420636103
:1084E0007573653A20444D412070726F74656374F2
:1084F000696F6E2076696F6C6174696F6E00000041
:10850000444D413A2025702C206164647265737378
:108510003A20253478000000526573657420636149
:108520007573653A204173736572742025703A251E
:108530006400000052657365742063617573653A69
:108540002048617264204661756C7400484653523D
:108550002E5645435454424C3A206572726F722035
:1085600072656164696E6720766563746F722074EA
:1085700061626C6520666F7220616E20657863654C
:108580007074696F6E000000484653522E464F5279
:108590004345443A20636F6E666967757261626C29
:1085A00065206661756C7420636F756C64206E6FF6
:1085B00074206163746976617465000048465352A3
:1085C0002E44454255474556543A206661756C74B1
:1085D0002072656C6174656420746F2064656275D7
:1085E00067202D20652E672E2C20657865637574B5
:1085F000656420424B50540052657365742063617A
:108600007573653A204D656D6F7279204D616E61AD
:1086100067656D656E74204661756C7400000000BE
:10862000496C6C6567616C2061636365737320617D
:108630006464726573733A2025347800434653525C
:108640002E25700052657365742063617573653AF9
:1086500020427573204661756C7400004164647239
:10866000657373206973206F6620616E20696E7375
:108670007472756374696F6E2061667465722062CE
:108680007573206661756C74206F636375727265B3
:10869000642C206E6F742074686520636175736547
:1086A0002E000000434653522E286E6F6E6529201F
:1086B0006C6F6164206F722073746F7265206174D7
:1086C00020616E20696C6C6567616C206164647206
:1086D00065737300414653522E25700052657365D1
:1086E000742063617573653A205573616765204630
:1086F00061756C74000000005265736574206361DD
:108700007573653A204465627567204D6F6E6974B4
:108710006F72204661756C74000000002570203D6A
:108720002025347800000000281A0108681A010882
:10873000A01A0108A41A0108E81A0108A01A0108E1
:10874000A01A0108241B0108541B0108841B0108FE
:10875000A81B0108D01B0108101C0108A01A010861
:10876000A01A01084C1C01087C1C0108B41C01085B
:10877000F01C0108201D0108A01A0108A01A010818
:10878000A01A0108A01A0108581D0108881D010837
:10879000A01A0108C81D01080C1E01084C1E010882
:1087A000881E0108901E0108981E0108A41E0108D9
:1087B000B01E0108BC1E0108C01E0108C41E01082D
:1087C000D01E0108DC1E0108E41E0108EC1E010891
:1087D000F01E0108F81E0108001F0108081F01080B
:1087E000101F010852300052310052320052330043
:1087F000523400523500523600523700523800527F
:108800003900523130005231310052313200523190
:1088100033284C5229004D535000505350005043C0
:108820000078505352004D535020757365640050CA
:10883000535020757365640043535441434B206289
:108840006F74746F6D004943535200534843535241
:1088500000494E545F4143544956450043465352E4
:1088600000484653520044465352004D4D41522F4A
:108870004246415200414653520052657430005204
:10888000657431005265743200526574330052656C
:10889000743400526574350044617430004461746E
:1088A0003100000030B50FF2D461DFF888530A6858
:1088B00083B001A80024026001202870002002F08B
:1088C00065FF30B1002002F061FF10B12C7049202B
:1088D0003EBDDFF86403018802237F220DF1020010
:1088E00000F024F802237F22002100A800F01EF8E7
:1088F000204601A9BDF8022031F81010914208BFAE
:108900000124401C0228F4D3BDF8000024B1B0F5C6
:108910007F7F07D100203EBDB0F57F7F0CBF0620D2
:10892000042000E00720012129703EBD10B5FF2979
:1089300008DCDFF80043247844B1BDE81040C9B238
:1089400003F057BABDE8104002F00ABE10BD2DE991
:10895000F0410546FF2D0E46174698460FF214606B
:1089600012DCB44C2178A1B1617811B1C221FBF7BE
:10897000ABFA01206070434632463946E8B203F054
:10898000A2FB0020607004E0BDE8F041CD21FBF7C0
:108990009BBABDE8F0814BF25321401A00F00381ED
:1089A000401E00F0FC804FF47871401A00F00781FF
:1089B00040F60F31401A00F0EC804FF48471401AF9
:1089C00000F0E380C01E00F0DA80F43800F0E380AD
:1089D000401E00F0EC80401E00F0AB80401E00F016
:1089E000EC80113800F0C5804FF4FF71401A00F0A0
:1089F000E28040F2EF31401A00F0CF80401E00F0DC
:108A0000C08040F20F41401A00F0C1804FF43C7129
:108A1000401A00F0B88040F20221401A00F0E680CF
:108A2000FD3800F0C680401E00F0BF80C01E00F080
:108A3000B88040F6DD51401A00F0C480401E00F0BE
:108A4000CF80401E00F0CE80401E00F0CD803C382C
:108A500000F0C080AE3800F0CB80401E00F0CA802D
:108A6000401E00F0C980401E00F0C880401E00F08B
:108A7000C780401E00F0C6800B3800F0C58030383B
:108A800000F0D080401E00F0CF80123800F09E80B1
:108A9000113800F0BB80D1386DD02A3867D0E73864
:108AA00000F0B8801F3800F08F808B3800F0B48061
:108AB000401E00F0B380401E00F0B28043383ED02C
:108AC0001E3800F085804FF48071401A4BD00C386E
:108AD0004BD040F20A51401A00F07E804FF4FD71F5
:108AE000401A4AD0F13879D04FF40071401A22D0A0
:108AF0004FF40471401A2AD0801E2AD04FF4E67138
:108B0000401A20D0203820D0401E26D0401E14D03D
:108B10000A3816D0801F22D040F20221401A1AD003
:108B200040F68B01401A4CD008381AD0001F6FD085
:108B30007CE0424844E0424842E0424840E042484B
:108B40003EE042483CE042483AE0424838E0424891
:108B500036E0424834E0424832E0424830E04248A1
:108B60002EE035482CE041482AE0414828E04148C1
:108B700026E0414824E0414822E0414820E04148C5
:108B80001EE041481CE041481AE0414818E04148D5
:108B900016E0414814E0414812E0414810E04148E5
:108BA0000EE041480CE041480AE0414808E04148F5
:108BB00006E0414804E0414802E0414800E0414805
:108BC00000887047012070470220704703207047DB
:108BD0000420704705207047062070470720704723
:108BE00008207047092070470A2070470B20704703
:108BF0000C2070470D2070470E2070470F207047E3
:108C000010207047112070471220704713207047C2
:108C100014207047152070471620704717207047A2
:108C200018207047192070471A2070474FF6FF70C0
:108C300070470000D72F00203824010820240108A5
:108C400022240108242401082624010828240108DC
:108C50002A2401082C2401082E24010830240108AC
:108C60003224010834240108362401083A2401087A
:108C70003C2401083E240108402401084224010844
:108C80004424010846240108482401084A24010814
:108C90004C2401084E2401085024010852240108E4
:108CA0005424010856240108582401085A240108B4
:108CB0005C2401085E240108602401086224010884
:108CC00064240108662401084BF25321401A01284C
:108CD00040F2A78040F2E131401A38D040F60F311F
:108CE000401A22D04FF48471401A38D0C01E36D0BA
:108CF000F43850D0401E18D0401E00F08A80401E2C
:108D000000F08D80113810D04FF4FF71401A5ED002
:108D100040F2EF31401A64D0401E06D040F20F41BD
:108D2000401A14D04FF43C71401A7AD040F202211C
:108D3000401A08D0FD3812D0401E72D0C01E70D02C
:108D400040F6DD51401A76D0401E6ED0401E6ED0E7
:108D5000401E6ED03C3864D0AE3864D0401E74D013
:108D6000401E60D0401E60D0401E60D0401E60D0CB
:108D70000B3860D030386CD0401E6CD012385AD0CE
:108D800011385AD0D13852D02A385ED0E73858D06E
:108D90001F3848D08B3856D0401E56D0401E56D073
:108DA000433844D01E3846D04FF48071401A38D032
:108DB0000C383CD040F20A51401A34D04FF4FD71C7
:108DC000401A42D0F13840D04FF40071401A24D0FC
:108DD0004FF40471401A24D0801E22D04FF4E67163
:108DE000401A18D0203824D0401E1AD0401E14D06B
:108DF0000A3810D0801F14D040F20221401A10D03F
:108E000040F68B01401A0CD008380AD0001F16D04B
:108E100023E01820704714207047062070479420E4
:108E2000704702207047112070471A2070470820B1
:108E300070470A207047042070470D2070470B20B0
:108E40007047192070475C20704710207047282019
:108E50007047122070472A207047002070474BF25D
:108E60005321401A01280FD940F2E131401A7CD039
:108E700040F60F31401A72D04FF48471401A74D00A
:108E8000C01E72D0F43803286FD914386DD04FF457
:108E9000FF71401A69D040F2EF31401A012864D9BD
:108EA0004FF48261401A60D04FF43C71401A5CD09C
:108EB00040F20221401A54D0FD38012855D9001F34
:108EC00053D040F6DD51401A03284ED93F384CD0DC
:108ED000BE384AD0303848D0133846D0E23844D073
:108EE0002A3842D04FF48371401A3ED08C38012882
:108EF0003BD9443839D01E3837D04FF48071401AEE
:108F000033D00C3831D040F20A51401A2DD04FF4F2
:108F1000FD71401A29D0F13827D04FF40071401A62
:108F200023D04FF40471401A1FD0801E1DD04FF47F
:108F3000E671401A19D02038022816D90C3814D0FE
:108F4000801F12D040F20221401A0ED040F68B0151
:108F5000401A0AD0083808D0001F04D007E01420B7
:108F6000704710207047062070470120704700208E
:108F700070470000746F6B656E2E6300FE01FD028A
:108F8000DFF8D008007848B1DFF8CC080179012972
:108F900004BF4079042801D10120704700207047A8
:108FA00010B5DFF8B808DFF8B848016821F480513F
:108FB0000160207898B1002020700022DFF8A4081A
:108FC0000168490849000160016841F00101016040
:108FD0004020216903F0ECF9E068401CE06010BD1E
:108FE000010603D54FF67F710840C000704780012D
:108FF000B0FBF1F080B2FF288CBF0020C0F1FF0071
:10900000C0B2704710F1640FB8BF6FF063006430F6
:1090100040B28004000CFF28C8BFFF20C0B27047D8
:1090200070B5DFF83C48E078012801D1002070BD20
:10903000DFF83858687868B1E87861790E182879CF
:10904000B6B2864228BF064601F018F90121B140A8
:10905000491E0840697908182081C0B270BD2DE909
:10906000F0470446C00705D54FF4B8710FF68C00E1
:10907000FAF72AFFDFF8F857286DC00748BF8C20A1
:1090800000F19480DFF8D807DFF8E0770021017164
:1090900001704178B1B93978A1B12178122918BF8E
:1090A0000C290BD1627802F00702032A02BF0919CA
:1090B00011F8021C042904BF01210171A96F41F0BC
:1090C000010102E0A96F49084900A967DFF8888714
:1090D0007A7898F80610DFF89C97DFF89C6792B1D1
:1090E000002242710129286D40F00400286506D154
:1090F0004FF6FF7030604FF40070C9F80000FFF7C2
:109100008FFF82460CE0286D20F0040001292865BD
:109110004FF0000A04D100F047FA6420FEF784FA09
:10912000A86F20F00800A8671420E864C5F848A0DC
:10913000787838B198F80600002801BFA86C00289C
:109140000120A864B8790028286D14BF40F00800F9
:1091500020F008002865FFF713FF18B1306C40F0CD
:1091600008003064202028626C602C604FF4E064BA
:1091700068687F30686004202862DFF800070460B8
:1091800006E003F051F918B1FAF798FEFDF754FE26
:10919000DFF8EC06006800F003000328F1D0C9F8FE
:1091A0000040286D40F0010028650020BDE8F087F0
:1091B000DFF8D006002141608160016821F00201E2
:1091C00001604FF00070DFF8C01608600120DFF882
:1091D000BC1608707047A0F13301DFF8B426914245
:1091E00000D3704710B5DFF8A44600212170FDF7C9
:1091F00008FF02E0012003F01FF920780028F9D0D1
:1092000010BD2DE9F84FDFF88C66DFF85456706812
:10921000716CDFF85C7608401FFA80F8C6F80480AD
:109220006878002840F0DD805FEAC870DFF86846A3
:10923000DFF8389653D5D7F800A0386C796C41EA3E
:10924000004199F800002961002844D09AF80100F3
:10925000800640D5012028704FF480503060306C7B
:1092600040F480503064FFF78BFEC0B31920FEF746
:10927000DBF94FF44040DFF824B6CBF82800DBF8E8
:1092800000000090E06E40F40050E066E06E40F4B4
:109290008050E0669AF8001028694901B83101EB66
:1092A000000A01F01AFDAAEB00000003000BFFF713
:1092B00092FFE06E80098001E06600A9E06E0988F7
:1092C0000843E0660020CBF8280048F26070E066B2
:1092D000E888206003E00022002003F069F85FEADC
:1092E00008600CD5287830B1002028700022296948
:1092F000402003F05DF8306C20F4805030645FEA69
:10930000486008D5687830B901F0E7FC01460022D2
:10931000892003F04DF85FEAC86054D5DFF838A51E
:10932000DFF850B59AF80400012804BF9AF8061037
:1093300001291FD1FDF7F1FC386F40F001003867BB
:1093400000208AF8060001F0ABFA0A20FEF76CF95B
:109350004FF6FF7070604FF000084FF4E060CBF8FC
:1093600000000920B8660120B864B86F40F008001A
:10937000B86718E0697999F80220491C6971C9B287
:10938000914215D2012808BF00F0D1F8B86F20F043
:109390000800B8671420B866FFF742FEB8644FF4BF
:1093A0000070CBF80000386D40F0010038650AE02D
:1093B000012808BF00F0BBF801F08FFC0146002235
:1093C0008D2002F0F5FF5FEA08700AD5FFF7D8FD9F
:1093D00038B12068E88001202060706C20F008001F
:1093E00070645FEA88600AD520203862687830B9F6
:1093F00001F073FC01460022882002F0D9FF687852
:1094000020B118F4407F04BF0120A870BDE8F18F9F
:10941000DFF890040088704770B582B0044601F010
:109420001AF9DFF88404DFF83C54002101601521AB
:10943000E960092101651F21416001210166DFF812
:109440006404008800F075FF01F052FA03F01EFB7F
:1094500000F029F9DFF80064308900F051F97089D3
:1094600000F056F9FDF7E8FC696841F040016960D9
:10947000FDF7E8FC707800F0EEF8B07800F0FBF84B
:10948000DFF82804007800F025F9DFF8240490F9CB
:10949000000001F01FF9307800F0A8F996F90300F8
:1094A00000F0B0F9DFF80C0400F0CEF9BDF80000D0
:1094B000DFF80414C0054CBF0020BDF800000870A0
:1094C000DFF8F803007801F0C8F828B10FF22C405B
:1094D00040F2B631FAF7F8FC012C05D12868C00734
:1094E00011D500F024F80EE06CB92868C0070AD442
:1094F000FDF713FC286840F001002860C820FEF743
:1095000093F80020B071F120DFF86C43206440F242
:10951000F910E06301F0C4F92868C00704D54FF6DC
:10952000FF70206000F06DF8FDF799FF73BD70B516
:10953000DFF88C53DFF820432E68A079012832D061
:10954000FDF77AFC48F2D00129606A68520509D516
:1095500048F222022A606A68D205F5D529606A6855
:109560005207F1D4B6B2DFF814232E604FF4E06155
:109570001160DFF82C130A6A520852000A620A6866
:10958000520852000A600A6842F002020A604A6AFF
:1095900042F001024A620121A171FDF753FCBDE8CE
:1095A0007040FDF7B3BB70BD70B5AB4CA07938B35C
:1095B000FDF7B3FBFDF740FC0546DFF80813AA4EA4
:1095C00001200860306D40F0010030650020A0717E
:1095D00001F066F920203060306B40F0020030630B
:1095E000F06D40F00800F0652846FDF72BFC0A20DE
:1095F000FEF71AF8A0494FF6FF70086000F001F876
:1096000070BD4FF4E0609B490860704792488079D4
:10961000704791480079704780B5022801DB01202E
:1096200002BD8D4908718979884205D010B9FFF7CC
:10963000BBFF01E0FFF77BFF002002BDA2480068EE
:10964000800200149A3801B211F1800FB8BF6FF098
:109650007F0040B2704710B50446FDF7EDFB9B4913
:109660000A68002C14BF42F0120222F012020A60B3
:1096700079494C703DE038B50446FDF7DDFB054601
:10968000FDF7ABFB40B991480168002C14BF41F0D5
:10969000800121F0800101606F4884702846BDE898
:1096A0003240FDF7CFBB8A494A780B78894803EBF3
:1096B000022202608B78CA7803EB022242600B79A7
:1096C0004A7903EB02228260CA79897901EB02218F
:1096D000C160704710B50446FDF7AEFB7B490A68D0
:1096E000002C14BF42F0200222F020020A606F49D1
:1096F0000C70BDE81040FDF7A5BB574800897047C6
:10970000554908817449086070475348408970473B
:109710005149488171490860704771480078704725
:109720005F48816A41F00201816201210160704756
:109730005B4800210160816A21F0020181625020B2
:10974000FDF772BF38B5674C67482169674D0180E6
:10975000E1694180E96C818000202061FFF7E0FF32
:109760000120E0610020606220624CF25D00E8644C
:10977000286840F4004028604FF40040206048F220
:109780000200206031BD80B5FFF7D2FF55484FF48D
:10979000004101600021016054490A6822F400423E
:1097A0000A60514A9388CB64118801615188C16174
:1097B00001BD70B54B4C82B06568266848F2010067
:1097C000206048F2320060602068ADF80000802020
:1097D000FDF72AFFA068ADB26560B6B22660800BC7
:1097E00000F0010076BD4248007870471D490A68C4
:1097F000002814BF42F0020222F002020A60164959
:109800000870704738B504467F2C0AD1394800F0FB
:109810001BF8BDF80000C00554BFBDF800406FF054
:109820004A04FDF709FB0546FDF7D7FA30B964B2E3
:1098300004F19A0080053049000C08600648C470A5
:109840002846FDF7FFFA31BD018802237F2200A8D8
:1098500001F086BEE02F00208425002040A00040BB
:10986000642E002080200040302000407C24002016
:109870001020004000E100E004A0004080E100E092
:10988000A820004010E000E004ED00E0E12F0020FF
:10989000CDFF070000A0004064100040E41000402D
:1098A00060200040802500205C100040DE2F00205A
:1098B0007425002058240108DB2F0020702500208B
:1098C0001C100040281000400C1000408420004074
:1098D0008C2E0020982000409420004090200040D2
:1098E0008225002018100040562A0020C010004099
:1098F000DF2F00205E240108541000407068792D8D
:10990000636F6D6D6F6E2E630000000010B501F087
:109910000301890003880F2400F00BF8018010BDBB
:1099200010B501F007010378012400F002F801707E
:1099300010BD8C40A34302FA01F1194370472DE991
:10994000F0477C4C7C4D20702178287859B10FF27B
:109950000821F9F7B1F928780FF24821F9F7ACF9A5
:109960000FF288210AE00FF2BC21F9F7A5F9287857
:109970000FF2F421F9F7A0F90FF230312878F9F756
:109980009BF920786D4E6E4FDFF8B881DFF8B89103
:10999000DFF8B8A100284FF4C00529D0092200F053
:1099A0005AF800F053F80022152100F04CF800227C
:1099B0001521B81CFFF7B4FF0922162100F04CF85E
:1099C0000122162100F044F800F03BF800F035F8D1
:1099D00034683560FDF7A1F9346000215C485D4AC8
:1099E00041654FF48041116004220260C16022E0B1
:1099F000012200F030F800F029F80122152100F0D2
:109A000022F801221521B81CFFF78AFF082216212F
:109A100000F022F80822162100F01AF800F011F8E0
:109A200000F00BF834683560FDF777F93460BDE875
:109A3000F04701F0E9BCBDE8F08701221621B81C0F
:109A40006EE70122162108F1020069E701221521C3
:109A500009F10A005AE715210AF10A0056E710B584
:109A600000F040F822B1022908BF0FF2782115D08A
:109A700019B102290ED00BD30EE0062422460FF2B4
:109A8000B021F9F719F92046BDE8104003F00AB8F3
:109A90000724F3E71524F1E70FF284211EE010B547
:109AA00000F020F822B1022908BF0FF2382115D0AA
:109AB00019B102290ED00BD30EE0062422460FF274
:109AC0008021F9F7F9F82046BDE8104002F0F6BF12
:109AD0000724F3E71524F1E70FF24421BDE8104015
:109AE000F9F7EAB88068134A0168134812780078D9
:109AF000704710B5FFF7F6FF22B1022908BF0FF239
:109B0000E41115D019B102290ED00BD30EE00624B2
:109B100022460FF23C21F9F7CFF82046BDE810406D
:109B200002F0D8BF0724F3E71524F1E70FF2F01194
:109B3000D4E70000D12F002028240020C02A0020D4
:109B400010250020002500201425002004250020D9
:109B500014A8004080E100E05043352F50433620E8
:109B6000617265206265696E6720636F6E66696702
:109B70007572656420666F722054585F4143544982
:109B800056452F6E54585F4143544956453B20611A
:109B900020706F77657220616D706C69666965729F
:109BA0002E0D0A004966207573696E672061206278
:109BB0007265616B6F757420626F6172642C2042F4
:109BC0005554544F4E312773206A756D7065722C51
:109BD00020425554544F4E315F454E2F4A392C2068
:109BE00073686F756C642062650D0A0072656D6F35
:109BF00076656420666F72206E54585F4143544905
:109C000056452064756520746F2061206465626F1D
:109C1000756E636520636170616369746F722E0D88
:109C20000A0000005043352F5043362061726520F2
:109C30006E6F74206265696E672075736564206657
:109C40006F72206120706F77657220616D706C6932
:109C50006669657220616E64206172652062656963
:109C60006E670D0A00000000636F6E6669677572AB
:109C7000656420666F7220424F4152444C45443225
:109C800020616E6420425554544F4E312E2020499D
:109C900066207573696E67206120627265616B6F03
:109CA000757420626F6172642C0D0A004255545421
:109CB0004F4E312773206A756D7065722C204255A6
:109CC00054544F4E315F454E2F4A392C2073686FE4
:109CD000756C6420626520696E7374616C6C656478
:109CE0002E0D0A00424F4152444C454432206973C4
:109CF00020756E617661696C61626C652064756562
:109D000020746F20706F77657220616D706C69666A
:109D100069657220656E61626C65640D0A00000001
:109D2000496E76616C6964204C45440D0A00000060
:109D30006C65646F6E203D2025640D0A00000000F4
:109D40006C65646F6666203D2025640D0A00000086
:109D50006C6564746F67676C65203D2025640D0A2F
:109D600000000000002070472DE9F04F83B08846C6
:109D70000178DFF89043009191462288DFF88863EC
:109D8000DFF88853ADF8042001277278002A1CBF41
:109D9000B278002A9A4606D06868401C6860286835
:109DA000401C286065E0009ADFF864B3802A05DA79
:109DB0004A1C014692B25846F9F7ECF9009895F81A
:109DC0003010884220D100270021DFF8480301E04D
:109DD0000127491C009A914216DA01EB0B024B193C
:109DE00090F801C0527893F8313051EA0C0C04BF5E
:109DF00002F0DF0203F0DF039A42EAD00229E7D142
:109E00000278002AE5D0E3E7BDF8040001F08BF802
:109E100010B9E868401CE860DFF8FC020088707147
:109E20002188318186F80680C6F814900C9830712C
:109E300086F803A02869F2781018286196F90420A2
:109E40006869101868617279286A10182862286891
:109E5000401C2860686A0818686217B1A868401C2E
:109E6000A8603069010018BF8047B07808B10120B0
:109E70007070BDE8F78FDFF89402C16A491CC162B7
:109E800070472DE9F04FDFF880B20FF2E8239BF81E
:109E900000B00FF2E8290FF2EC2C0FF2F02E0FF2C7
:109EA000F4280FF2F82ABBF1000F8DB07DA27EA03E
:109EB0007EA17FA47FA58AA78AA611D00FF2E42BEA
:109EC000CDF82CB0CDF828A0099600900191CDF8DE
:109ED0002080CDF81CE000F015F80FF254200CE0C3
:109EE000CDF828A0099600900191CDF82080CDF8FA
:109EF0001CE000F007F80FF2B420F9F78DFB0DB06D
:109F0000BDE8F08FCDF818C00597CDF810900395F7
:109F10000294DFF80802D0F800147047DFF8E81167
:109F20000022CA718A81DFF8F82110800020488160
:109F30007047F0B5DFF8D851DFF8CC6196F904002E
:109F40008BB02C78FFF75EF80746F0782146FFF7D4
:109F50004EF8099404970290B179F078B389728928
:109F6000089101907169F0790791009031890FF2A1
:109F70007C2006917179059196F904100391F1897D
:109F8000F9F760FB307880B157A0F9F75BFB012649
:109F900056A704E0715D3846F9F754FB761CF6B21B
:109FA000B442F7DA52A0F9F74DFB0BB0BDE8F04030
:109FB0000FF26C20F9F746BB2DE9F04782B0064658
:109FC00000208DF80000FFF721FB8046DFF84C01F0
:109FD000D0F800940FF250204946F9F733FB304691
:109FE000FFF74FFFDFF82061002070700120B07094
:109FF000FFF7DAFA0020FFF791FFDFF828A1DFF87A
:10A000001041DFF824510DE00020F071FFF791FFBF
:10A01000002070709AF8000020B100F0CAFE08B16C
:10A0200001F006F89DF8000065282CD02878F9F793
:10A0300076FD18B1287800A9F9F77CFD7078002822
:10A04000E8D02078015D001910F8010C40EA0127E2
:10A05000B089381A80B2B0F5805FA4BF0120FFF745
:10A060005DFFDFF8BC000088F081B781381A80B24C
:10A07000002818BF002FC7D0C82101FB007079004D
:10A08000B0FBF1F0C1E7B8F1010F08BFFFF74FFADD
:10A090000020B07049460FF2AC10F9F7D3FABDE8D2
:10A0A000F38700006E756D00736571007065720056
:10A0B000657272006C716900DFF850000021016068
:10A0C00041608160C1600161416101624162816200
:10A0D0008161C161C1620020DFF8501008607047E3
:10A0E00065640000667000007B00000020256800A9
:10A0F0007D0000008068006800B1012002490870FE
:10A10000704700009A2E0020C8250020E02500207E
:10A1100094260020672400209C2E0020881401082B
:10A120009E2E002066240020282400207C2E002063
:10A13000237B264E0D0A2020267420202026742002
:10A1400020267420202026742020267420267420A7
:10A15000202674267420202026742026742026743D
:10A16000202020202020202674267426747D0D0AAD
:10A17000000000006F666C6F00000000727373696E
:10A18000000000006761696E000000007374617474
:10A190007573000074696D65000000006C656E6782
:10A1A000746800007061796C6F616400237B264ED7
:10A1B0000D0A2020267420202026742020267420BA
:10A1C0002020267420202674202674202026742621
:10A1D000742020202674202674202674202020201D
:10A1E000202020267426747D0D0A00007B20263551
:10A1F00075202635752026357520263375202634A2
:10A2000075202668202664202668202668202632AD
:10A21000682026346820266420266820000000007C
:10A22000207D0D0A000000007B264E2074657374AB
:10A2300020737461727420282765276E64297D0D50
:10A240000A0000007B264E207465737420656E64DE
:10A250007D0D0A0081B209B94BF6EF610E4A1180FB
:10A26000000C08BF4FF6CE205080704702881304C0
:10A2700048BF4A40510001801046704738B5064C2F
:10A2800062212046FFF7F2FF054641F20B01A01CB8
:10A29000FFF7ECFF684032BDBA240020DFF8143528
:10A2A00033F810001040C840704730B50FF2C85462
:10A2B000DFF8043534F810409C601140DFF8F444B6
:10A2C00034F8105095432943D96002221A600022C5
:10A2D0001A6024F8101058680028FCD130BDDFF84F
:10A2E000DC24DFF8DC041278DFF8D8140AB14978EE
:10A2F0000EE0895611F1090FB8BF302108DBC16D9E
:10A3000039B1C26D40F24A31B1FBF2F189B2C91ED6
:10A3100001607047E0B5DFF8B00401880A2300F05F
:10A3200064F8BDF806104FF6FF720D20FFF7BDFF71
:10A3300007BDF8B50546B5F5004FDFF8884419D1DB
:10A34000DFF888040188022300F04FF8BDF8000010
:10A35000000AFF2814BF002818206070BDF8000014
:10A360000006C00E10281CBF001D00F0B3F9BDF898
:10A370000000C543DFF84464707808B1002005E0B0
:10A38000A089ADB26840C00701D501207070DFF828
:10A390004004A58105F00104016841F40041016019
:10A3A000C5F340070FF2F44000EB44004FF4405275
:10A3B0004078010389B20220FFF777FF204602F0C0
:10A3C000A5FB4022B90100F021FA2D06A80E00F0ED
:10A3D000010038433070FFF782FF707818B1FFF743
:10A3E00099FF002070700020F2BD7F2200A801F0CC
:10A3F000B7B8A0F10B02A0F10B01102A89B201D36A
:10A400008A207047012202FA01F1DFF8C82353883D
:10A410000B435380012313709388194391800021CB
:10A42000DFF8B423117046E12DE9F04FDFF8AC43BB
:10A43000207887B0042304900B210B38C0B203901E
:10A4400000A8039AFEF772FA9DF800008DF80A0042
:10A450009DF801008DF809009DF802008DF80800B4
:10A460009DF803008DF80500DFF8740300780128DB
:10A4700004D16078451EAD41ED0F00E0012500F0EC
:10A480006AFC83469DF902000399D24F0BF10A0A38
:10A49000ABF10A065045B6BF86424FF001084FF0B7
:10A4A000000801208840ADF806009DF80100000674
:10A4B00004D47888BDF80610084201D04FF0010896
:10A4C00002F09AFB9DF8030000060AD4B888BDF894
:10A4D0000610084205D19DF900005045B8BF8642DC
:10A4E00002DB4FF0010901E04FF0000948EA0500E6
:10A4F00059EA000000F09E80DFF8E8A2BA49DAF8D5
:10A50000000000F002008DF80400B848006800F474
:10A51000E06005904FF4E06008600020FFF766F906
:10A52000FCF79DFFB24EADB1607858B1DAF800008B
:10A53000AB4940084000CAF8000001200870FDF750
:10A5400073F807E0306840F400503060306820F461
:10A5500080503060A248007801280DD1FCF7DDFB67
:10A56000DAF800009E4940F00100CAF8000000201F
:10A5700008706420FDF758F82DB1607818B9049878
:10A58000C0B202F072FB607838B1306820F48050BD
:10A590003060306840F400503060BDF80600C543BC
:10A5A000B8F1000F08D002F04BFC8DF801008DF8D7
:10A5B00002B0788828407880B9F1000F08D002F006
:10A5C000F0FC8DF803008DF800B0B8882840B88002
:10A5D0009DF900009DF90A10884202BF9DF8010014
:10A5E0009DF8091088420BD19DF902009DF90810D1
:10A5F000884202BF9DF803009DF80510884206D0EE
:10A600000399042300AAC9B20B20FEF7A0F905980C
:10A610007649086000F044F99DF80400FFF7E6F879
:10A6200001F029F8607828B148F260703060642049
:10A63000FCF7FAFF9DF8010002F06EFB9DF80300A5
:10A6400002F0AAFC07B0BDE8F08F80B500F076FB01
:10A65000BDE80140E8E600F071BB70B50646A6F122
:10A660000B04FEF7D3FF0546A6F10B00102801D31B
:10A670008A2070BD5F488168090702D40068C0075E
:10A6800001D58C2070BD554806705B4801680C29C7
:10A690000FD00FF27C11594A92F90020A4B231F880
:10A6A00024105118C161FFF7BFFE012D08BFFEF74E
:10A6B0003EFF002070BD10B5044600F03FFB204671
:10A6C000BDE81040C9E74548007870473D4890F91B
:10A6D000000070472DE9F041044614F12B0F86B0BD
:10A6E00045DB474801881423FFF77FFEBDF81000C3
:10A6F0004FF6FF71884203D0400448BF012606D4BC
:10A700003F2200211020FFF7C9FD0546002604F175
:10A710002B022F2A2B483B491AD213220FF2301357
:10A7200000E0521ED2B213F91270BC42F9DB03EB07
:10A730004204032764780C60002413F8121001709F
:10A7400000208046AEB1BDF810104FF6BF7229E070
:10A75000092C0CDA225C0A60047014232A48018850
:10A76000FFF743FE01240320A0462827EAE78B20B9
:10A770001DE0C1024FF4605200F048F84FF4E0626F
:10A78000210200F043F880224FEAC81100F03EF8A1
:10A7900085F020003D18ADB2402DA8BF3F253F22D7
:10A7A00085F0200100F032F8FFF799FD002006B097
:10A7B000BDE8F081382E0020E8100040DC2F00209A
:10A7C00064100040742500202C2401084A2401084C
:10A7D0001C10004046280020EC2F0020702500208F
:10A7E0008A2500208020004080E100E000E100E0B8
:10A7F000D010004060200040AC100040DB2F002053
:10A8000028240108C01000402A2401080B204CE530
:10A81000AA2129005523290000252800AA2627005F
:10A8200055282700002A2600AA2B2600552D250092
:10A83000002F2400AA3024005532230000342200C7
:10A84000AA3522005537210000392000AA3A2000FD
:10A85000D500E601EC02EF03F204F405F506F70774
:10A86000F808F909FA0AFB0BFC0DFD0FFE11FF13A6
:10A8700000160119021C031F1000110020003000F7
:10A880004000410050006000700080009000A00077
:10A89000B000C000D000E000F000000000000103A4
:10A8A00010B5DFF8444510202063FCF7C5FADFF847
:10A8B0003C150A6842F001020A60FCF7C3FADFF8AF
:10A8C000300500F1180161602160A23061688931B2
:10A8D000616001212163E060A060DFF81815E06885
:10A8E0008930E060022020634FF6FF70086010BDE1
:10A8F000DFF8040545F26401C1601E214162502168
:10A900000162C821C1618165F021C16545F69001F0
:10A910004166882181660621C16644F206610160B4
:10A920004FF6FF714160DFF8D404007838B1DFF8EA
:10A93000D00448F2607101604FF4C1514160DFF80A
:10A94000C404016841F0040101600020DFF8B8147C
:10A95000487070472DE9F04FDFF894148A2283B0D5
:10A9600002FB0011183100910427491C04464A7863
:10A97000097801EB0225ADB205F44062B2F5006F33
:10A9800005F440414FF000094FF0010A08BF0827C5
:10A9900003D0B2F5406F08BF0E2719B16A065CBF3D
:10A9A000BA1CD7B2DFF86424DFF8443412785A7046
:10A9B000C0180190A806019A82F8029068D5DFF8C5
:10A9C0005064706E000663D500983818B1F5404F9A
:10A9D0004FF4806B4FF4006807D1FFF7C3F95FEACB
:10A9E00000094BD007F1080019E0B1F5004F45D13F
:10A9F00000994078795C01EB002080B202F09AFB6C
:10AA0000FF2808BFCA4609D0DFF80814096831F8E2
:10AA100010004FF4FE61084230D0D146B81CC0B2DD
:10AA2000410805F00702032A28D1002C14BF7268E0
:10AA300032688A4222D3002C14BF726832684B1CE1
:10AA40009A42F8D30099405C042817D1BAF1000F5C
:10AA500002D0B9F1000F11D0F06DC00606D400F09D
:10AA600019F803D0706C40F0010070640120019966
:10AA70008870DFF87C13B069C86009E0F06DC0062B
:10AA800006D500F007F803D0706C400840007064F1
:10AA9000BDE8F78FB06C04B1C34610EA0B0F7047E6
:10AAA0002DE9F04E0446DFF84863DFF864538A204E
:10AAB00000FB046082B000F1180B002C0CBF28686A
:10AAC0006868C1B2052903DA7069401C706168E0EA
:10AAD00040005FFA80F909EB0B00A0F10807387815
:10AAE000797801EB00201FFA80FAA6F806A03879E1
:10AAF000308170783870FCF7F0F97870C64FF86BD9
:10AB000020F48050F863686E14B93868400504D4A6
:10AB1000012C1FD1386800051CD5C048017889B1C7
:10AB2000002101701AF4E45FBD48016802D00022E0
:10AB3000402005E09BF80100000900F001028F2091
:10AB400001F036FC002C0CBF4FF480604FF4006025
:10AB5000386021E01AF4E45F1BD1FEF7DEFD10B18E
:10AB60005FEA4A4015D59BF80000802811DA686B2F
:10AB7000ADF800004946286BADF80200009830613E
:10AB80007089401C7081A0198278584601F022FC1F
:10AB900002E0B088401CB080002C0CBF01200220D5
:10ABA0002861BDE8F38E2DE9F84F924C984E20684D
:10ABB000216CDFF870A2DFF86482DFF834929A4FDC
:10ABC00001EA00051AE040B14878C00605D494486F
:10ABD000016800228F2001F0EBFB280605D501F06B
:10ABE00020FC802025F080052060E80506D501F0D6
:10ABF00018FC4FF4807025F480752060002D68D01B
:10AC0000280706D50020FFF7A5FE082025F0080537
:10AC10002060E80606D50120FFF79CFE102025F0F5
:10AC20001005206005F06000602803D1B06CC005FD
:10AC30000AD401E0A80605D52020206025F02005D3
:10AC4000002006E0680606D54020206025F040057B
:10AC50000120FFF725FFE80410D54FF48050206055
:10AC600025F48055D7F800B00820386078680005D2
:10AC700048BFFEF795F91FFA8BF03860E807ACD5AE
:10AC8000012020606D0899F800006D000028A4D014
:10AC9000FEF7BFFC0128A0D198F8000000289CD046
:10ACA0009AF80000042898D1F068400800F00100EC
:10ACB0008A2101FB00911831002814BF72683268A4
:10ACC00012B92268D204F7D5002814BF7068306822
:10ACD00079E700202060BDE8F18F54480068704794
:10ACE000F0B504460D4689B00021032000F06CFC4D
:10ACF00004AE1BE0002700F082FC26F8170000F0ED
:10AD00007EFC00A921F817007F1C082FF3DB04A8A4
:10AD100002F076FA00202080218836F81020514079
:10AD2000401C08282180F7DB6D1EA41CEDB2002D0D
:10AD3000E0D100F0A0FC012009B0F0BD0321022009
:10AD400000F042BC4FF6FF71081A292190FBF1F088
:10AD50003A3040B2704738B500F051FCFFF7F2FFCF
:10AD6000334D04462878B0B90321032000F02CFCB1
:10AD70003048018802237F2200A800F0F1FB00F098
:10AD80003EFCBDF80010401880B2FFF7DBFF15381D
:10AD900068700120287000F06EFC6878201A40B2BC
:10ADA00032BD80B50321022000F00EFCBDE8014059
:10ADB000D1E770B520480078002490B9FFF7F1FF83
:10ADC000114E0546707848B13078401B40B202F011
:10ADD00028FA0B2805DB3570012402E001203570CC
:10ADE0007070204670BD00000020004084200040AC
:10ADF000942E002000A000404C100040712500203F
:10AE0000D010004080200040E42F0020702500205A
:10AE100020200040A424002004A00040642E002034
:10AE2000742E002089250020B820004038200040E2
:10AE3000E22F0020342401088A25002010B50446A2
:10AE4000DFF8FC00D0F8E0140FF20010F8F7FAFB7E
:10AE5000A0680068C0B2FFF7CCFA02460FF22C11CE
:10AE60000FF22010F8F7EEFB2046BDE81040FBF78C
:10AE70003DB810B5FEF7CCFA0446FEF7C9FAC0F3A8
:10AE80004000002814BF0FF248130FF25013E007E0
:10AE9000DFF8A8000FF2FC010078BDE810404CBFBD
:10AEA0000FF21C120FF22012F7F706BF70B504461E
:10AEB000A06805784668022DBCBFF6B2022E07DBFB
:10AEC000DFF878000FF220110078F7F7F5FE06E0C2
:10AED0003046FEF734FD45EA4600FFF72AFA2046E1
:10AEE000BDE87040C5E770B50446FEF78FFB054628
:10AEF000A068144E00683070FEF756FBFFF7E3FBC6
:10AF0000FFF7D9FB04F1110196F900300FF214128A
:10AF10000FF2F000F8F796FB012D04BFBDE870407A
:10AF2000FEF705BB70BD00F4804070470648042161
:10AF30000160016B41F0010101637047282400208A
:10AF400088140108DB2F0020302000407B264E2093
:10AF500053657474696E67206368616E6E656C20FA
:10AF6000616E6420706572666F726D696E672066CF
:10AF7000756C6C2063616C6962726174696F6E2EAE
:10AF80002E2E00002674687D0D0A00007374617413
:10AF900075730000547820706F776572206D6F6450
:10AFA000652073657420746F202573206C65766549
:10AFB0006C20776974682025732050412E0D0A009B
:10AFC000424F4F53540000004E4F524D414C000031
:10AFD00045585445524E414C00000000494E5445DE
:10AFE000524E414C00000000496E76616C6964204D
:10AFF000547820706F776572206D6F64652E0D0A2E
:10B00000000000007B264E20267464205B31316BEB
:10B01000487A20696E6372656D656E74735D7D0D2F
:10B020000A0000006F666673657400007047704721
:10B03000FFF70BBB70B5044643380FF2800508D00C
:10B04000401E012809D9801E01280ED9C01F32D008
:10B050002AE0BDE8704001F039B9002600E0012681
:10B0600001F034F90028FAD12EBB134E307810BB12
:10B0700001203070002000F089FB452C11D00BD34B
:10B08000472C01D003D307E040F6010001E040F671
:10B090000200FCF74DFE04E040F216312846F8F7B6
:10B0A00013FF0020307070BD2846BDE870404FF49B
:10B0B0004A71F8F709BF70BDD32F0020656D626536
:10B0C000722D636F6E66696775726174696F6E2E3B
:10B0D0006300000038B544784568FBF7ADFE194AB7
:10B0E0000C2161438B585B1BB3F1004F98BF8D500F
:10B0F000BDE83240FBF7A6BE38B504460D46FCF766
:10B1000002FB28186060012020702046BDE8324014
:10B11000E0E738B50446FCF7F6FA05460DE001789D
:10B1200051B1042904D04168691AB1F1004F03D824
:10B130000421017061688847083420680028EED136
:10B1400031BD0000F8270020A7490A89002812BF56
:10B1500042F004004FF6FB70104008817047000079
:10B1600070B5A148A14942780B685B0725D5032A31
:10B1700023DA838800EB4204A3810123847803FA55
:10B1800002F2224382709A4C0278002A12D00025E3
:10B1900022FA05F6F60708D5AB4045705A40027012
:10B1A00010EB4500808A206007E06D1CEDB2032D96
:10B1B000EEDB02E02260032242704FF6FF7008606F
:10B1C000BFF35F8F70BD38B5FBF736FE86490A784E
:10B1D000FAB1874B1C68E4071BD4002422FA04F55B
:10B1E000ED0711D50125A5404C706A400A7001EBAE
:10B1F00044017E4A898A19604FF6FF7111604FF44D
:10B2000000617C4A116005E0641CE4B2032CE5DBBC
:10B2100000E00324FBF716FE204632BD72480021F1
:10B2200001700022032141700021C17005210181BC
:10B2300000218170001D6E490A604A604FF400428F
:10B240008A601022CA604861012088610320C860BA
:10B250000421664801644FF6FF7101604FF40060FD
:10B2600064490860FFF756B870B52A29044601D032
:10B27000012070BD5C4D2989D00040EA433008436D
:10B2800005EB44018882012000FA04F62878304258
:10B290000FD1FBF7D1FD297831432970A978B1434B
:10B2A000A970FBF7CFFDFFF78EFFA04201D18120EF
:10B2B00070BD822070BD2DE9F843044688464E4F8C
:10B2C0004C4D01F0B1F848B92868000506D538683A
:10B2D000800800F0010080F0010600E00126FBF785
:10B2E000ABFD81463EB12868000504D538684007AB
:10B2F00048BFFFF735FF3C498A780120A04022FA79
:10B3000004F3DB0708D501EB440350409B89A8F800
:10B3100000308870802409E00A78024218BF822435
:10B3200004D14878A0420CBF812484244846FBF70E
:10B3300089FD2046BDE8F28338B504460D4629460E
:10B340002046FFF7B8FF842818BF8028F7D132BD08
:10B3500038B50446072389222A21FFF785FF224DAD
:10B3600005F11C012046FFF7E7FF802809D10723DC
:10B37000B9222A212046FFF777FFA91D2046FFF7B3
:10B38000DBFF802805D1E988AA8B891AE980012191
:10B3900001E000210120E97032BD38B5124D0446AC
:10B3A000E87808B9FFF7D4FFE878D0B1B5F906001E
:10B3B00020B9FE210FF24800F8F786FDB5F9060026
:10B3C000B5F91C1000EBD072611A521002EB01416A
:10B3D00091FBF0F4FCF7E8F8604300EB8000001408
:10B3E00032BD064832BD00002828002010A80040C9
:10B3F00004D0004000E100E050A800400080FFFFC2
:10B400006164632E630000002DE9F041454C464E17
:10B41000DFF81881002020654FF4005535600220C8
:10B420002060E56000202065206D40F06000206510
:10B430000E2000F01DF888F800004FF4804700202F
:10B440006065376004202060E76016203849086096
:10B4500000206065606D40F060006065162000F0BF
:10B4600007F888F80100334805600760BDE8F081FF
:10B470000E2802D0162802D009E02F4800E02F48FD
:10B480000068800900F0010080F001007047002092
:10B49000704710B523484FF40051C160022101608C
:10B4A0000E20FFF7E5FF214C227801468A4218BFA3
:10B4B00021700DD1501E8041C00F20700E202178C8
:10B4C00001F0B4FE2178481E8041C00F2070217821
:10B4D000BDE810400E2001F0A9BE10B511484FF490
:10B4E0008041C160042101601620FFF7C1FF0F4CAD
:10B4F000627801468A4218BF61700DD1501E8041AA
:10B50000C00F60701620617801F090FE6178481ECF
:10B510008041C00F60706178BDE81040162001F0D6
:10B5200085BE000014A8004080E100E0D42F002078
:10B5300014BC004000E100E008B4004008B800403E
:10B5400072B6704700BF30BF00BF7047BFF35F8F58
:10B55000BFF34F8FBFF36F8F7047000062B6704725
:10B5600030B5044610467F2808BF0020B1F5004FD3
:10B5700083B01AD108237F2240F6120100A8FFF7FA
:10B58000EFFF08220FF2380100A8F7F74DFE30B99F
:10B5900008237F2240F2A27100A8FFF7E1FF0822F2
:10B5A00000A92046F7F7F6FD37BD044D294300FBFF
:10B5B00003111A462046F7F7EDFD37BD00000408D9
:10B5C000FFFFFFFFFFFFFFFF70B505460E46FFF7C9
:10B5D000B7FF3D4C206C20F008002064FFF7BEFF51
:10B5E000FBF72AFC310341EAC511384A41F0010159
:10B5F000116008212160BDE87040FBF723BC2DE9F4
:10B60000F041334C334D304E25E0FFF799FF32497E
:10B6100004200860306C40F0080030642F6828680F
:10B62000400840002860FFF791FFD4F800802068B0
:10B6300020F040002060FFF785FFC4F800802F60F5
:10B64000FFF784FF306C254920F0080030640420A7
:10B650000860FFF783FF30680007D6D50820306008
:10B660001F48006880B2BDE8F08180B5FFF7ACFFED
:10B67000BDE80140C3E71548016849084900016079
:10B680007047F8B50746FBF78FFF0446394603209D
:10B69000FFF7EBFF054639460120FFF7E6FF0646B8
:10B6A00039460020FFF7E1FF08490A6852085200B6
:10B6B0000A60401B0004711BB0FBF1F060434000C6
:10B6C000000CF2BD0000000018A000400470004013
:10B6D0000080004094ED00E000E100E080E200E046
:10B6E00000700040174838B50446FBF7A5FB054637
:10B6F000154800210160082154F8042B8260491E7E
:10B7000054F8042BC260F7D101210160FFF71EFF3E
:10B71000284613E00C4900200860FFF717BF38B532
:10B7200045096D0109480A4C854238BF094CFBF7B1
:10B7300083FB044945F014024C620A62BDE83240C2
:10B74000FBF780BBC024002094ED00E098000020AF
:10B7500009000B1008000B1000B500BF130096463F
:10B760009446103928BFA0E80C50FAD85FEA417C13
:10B7700028BF0CC048BF40F8042BC90728BF20F8D9
:10B78000022B48BF00F8012B00BD00002DE9F9474E
:10B7900088B01B22FF2101A8F7F73FFDDFF8D49006
:10B7A0006222FF214846F7F738FD36254FF01B0A85
:10B7B00036210FF2E400FBF749FB0FF2CC0800271B
:10B7C0002D48385C411C01EBD1714C102B497E5C3B
:10B7D000FF2803D170214046F8F776FB7F2E03DB6C
:10B7E00071214046F8F770FB2548385C00B11934E8
:10B7F000601C00FB06F4234830F817100FF2B40069
:10B800003346A2B2FBF722FB6519012E1CBF29F8B3
:10B8100017A0B2447F1C1B2FD2DB40F21C44A54270
:10B8200034BF13A30FF2EC031B2000902246A9B2F1
:10B830000FF2A800FBF70AFB40F21D4085420ED331
:10B84000F7F77EFFFBF7F8FA23462A460FF2D001FE
:10B850000120F8F7F0FA9D214046F8F735FB9DF8F6
:10B86000200001A900F036F90AB0BDE8F087000019
:10B870006F6B00005C2A00206C1F0108881F010804
:10B88000501F0108181F010873696D2D65657072DE
:10B890006F6D2E6300000000546F6B656E206F7635
:10B8A0006572686561643A20256420776F726473FD
:10B8B0000A00000043726561746F723A2030782587
:10B8C00032582C20576F7264733A2025642C204321
:10B8D0006F756E743A2025640A00000053696D4547
:10B8E0004520646174613A20256420776F72647327
:10B8F000206F66202564206D617820282570292C12
:10B9000020746F6B656E436F756E743A2025640A00
:10B9100000000000544F4F204C41524745000000AA
:10B920000D0A4552524F523A2053696D45452064E5
:10B9300061746120746F6F206C617267652E2020C6
:10B94000436F6D70696C696E672077697468202534
:10B950006420776F72647320636F6E73756D6564B6
:10B960002E20204D617820616C6C6F7765642069B2
:10B97000732025642E0D0A0010B5DFF8C449DFF8E6
:10B98000C4392488001B03EB4000002304E030F896
:10B99000134021F813405B1C9342F8DB002010BDDC
:10B9A0002DE9F04182B004460D4616460027DFF827
:10B9B000948901E0B81CC7B2B74217DA7819795DEB
:10B9C0004078DFF87C391B8801EB0020ADF80000DF
:10B9D000012207EBD77004EB6000C01A00F06EFB89
:10B9E0000028E7D0FFF726FB002000E00120BDE89B
:10B9F000F681F8B504460E46154600270DE000F026
:10BA000019F8BDF8000004EB4701000A4870761CE5
:10BA1000BDF8000004F817007F1CB7EB550FEEDBF4
:10BA2000E80706D500F006F8BDF80000291901F86E
:10BA3000010CF1BD012200A9B0B29DE7DFF8002999
:10BA4000DFF800191288801A01EB4001022001F092
:10BA5000FCBCDFF8F418DFF8F428415C825CDFF806
:10BA6000F038C05C10B102F5997292B241EAC2108E
:10BA700080B2704710B5DFF8DC38DFF8CC4803EB54
:10BA80004002005D012801D1104610BD1088081841
:10BA900003EB400010BD38B50C46DFF8BC180D783C
:10BAA0002A462146FFF768FF208800281CBF4FF672
:10BAB000FF7188420AD0012000E0401CC0B2A842B9
:10BAC00006D234F8101022889142F6D0002032BD00
:10BAD000012032BD2DE9F24F0446DFF880680020D6
:10BAE000307070809CB0DFF878080088ADF80200F4
:10BAF00007A9FFF7D0FF83460120707009A9DFF87E
:10BB000064080588DFF86008B0F80080DFF83008C6
:10BB1000BDF802A007883846FFF7BDFFB8B1BBF1FA
:10BB2000000F3CD0BDF81C10BDF824004FF6FE728B
:10BB3000914202D1012804D10CE0012908BF9042B2
:10BB40002DD00846BDF82410884228D202E0BBF16F
:10BB5000000F23D000207070029750460695CDF854
:10BB600010800122DFF8F01791F800804044ADF812
:10BB7000060000A9BDF80600FFF7FEFEDFF8EC079F
:10BB8000008805904FF6FF79BDF80000000B404596
:10BB900018BF0F2800D10CB3002516E001247078DF
:10BBA0000128D9D13846CDF808A0CDF818800495E1
:10BBB000D7E7059805FB00F4E01900F0E5FBBDF8B8
:10BBC0000200201800F0E0FB6D1C4545F1DB012070
:10BBD00030704D20FFF72EFA0025FCE0BDF806502E
:10BBE000012201A92846FFF7C7FEBDF80400C043A3
:10BBF000C0B2ADF804006F1CDFF874070588BDF80B
:10BC00000400A84218BF01244FF0000A20E0401CA5
:10BC1000C1B2A94218D2C0B2DFF85817BDF80E2041
:10BC2000834631F81B109142F1D1FFF712FF4FF616
:10BC300080710840BDF80C104FF6807211408842A8
:10BC400004BF1C980BF800A00AF101001FFA80FA4B
:10BC5000BDF80400824507DA022203A9B8B2FFF753
:10BC60008BFEBF1C0020D3E7002001E0401C80B207
:10BC7000A84217DA1C99415C8142F7D0012411E0F7
:10BC80002AF81070BDF8060000EB4300401C00F0DD
:10BC9000D2FABDF80200C0F3C710401C00EBD07010
:10BCA00007EB60070498DFF8ACA6BFB2874211DA51
:10BCB000012200A93846FFF75FFEBDF800004845A5
:10BCC00008D0030A00F07F01BDF804007F1C834206
:10BCD00002DB012400252DE0002001E0401C80B2A1
:10BCE000A842CFDA1C9A825C9A42F7D1C0B2FF28F0
:10BCF000C8D0DFF85426825C7F290CBF4FF0000CBF
:10BD00008C46944509DADFF848E6BDF800C010F823
:10BD10000EE0CCF3C01CF44501D00124B2E7012AA7
:10BD2000AED07F293AF8100008BF00210818A7E715
:10BD30006D1CADB2DFF840060088854204DA3AF89F
:10BD400015004845F4D1012477800498BDB285429E
:10BD50000ADA012200A92846FFF70EFEBDF800000E
:10BD60006F1C4845F1D034E7002CFCD10298012229
:10BD70000BA980B2FFF700FEBDF82C0048450DD19D
:10BD800005E0401C80B2202813DB2034A4B20699C1
:10BD9000029A891A8C4205DB0120307000201DB008
:10BDA000BDE8F08FA51820220BA9A8B2FFF7E4FD8B
:10BDB00000200BA931F810104945E2D0A8B2FFF7D6
:10BDC0003DFE203CA4B2E0E70298059905FB010086
:10BDD00000F0DAFA6D1C4545F6DB0120307049466B
:10BDE00000F043F818B100F02DF90028D6D1012059
:10BDF000D5E72DE9F84504460F46164698463146E4
:10BE00003846FFF737FEDFF86815B0F800A009885C
:10BE1000DFF838558F420AD2DFF82C05385C7F2EC8
:10BE200008BF0026864202DA785D804503D040F2E2
:10BE3000864100F0FCF9DFF81805385C68B151461E
:10BE4000384600F029FA795D012908BF20700AD030
:10BE5000022914BF2060208005E04246514620465A
:10BE6000BDE8F845C5E5BDE8F1852DE9F34FDFF8FC
:10BE7000D004DFF8E4140488DFF8E004097840789F
:10BE800083B000281ABFDFF8D804008820460D18B8
:10BE9000DFF8DC040088ADF80800ADB2C043C0B2E2
:10BEA00000EB013000F55060ADF802002B1BDFF80D
:10BEB000940400F0C6F96E1C0028B6B238D10025F3
:10BEC000DFF8B07414E0E8B2FFF7C3FDADF804008A
:10BED000331B37F81500ADF806000222DFF86404C2
:10BEE00000F0ABF8002823D1B61C6D1CB6B2ADB281
:10BEF000BDF808008542E6DB002501E06D1CADB20F
:10BF0000BDF80800854280F293804FF0000A1CE0E3
:10BF100001220DF102011FFA89F0FFF72DFDBB1977
:10BF2000DFF820041B1B09F1010900F08AF9002841
:10BF300078D17F1CFFB2B7EB1B6FE9DBDFF83C0465
:10BF4000285C8619B6B20AF1010ADFF8FC0315F87D
:10BF500000B05FFA8AFADA45D0D25146E8B2FFF76C
:10BF600089FD8046DFF8E803B8F800902F5CF801FF
:10BF700040EA0520ADF80000BBF1010FBDF800005C
:10BF80000CBF40F07F004AEA0000ADF80000311B12
:10BF9000DFF8B00300EB4100711C89B201914FF64C
:10BFA000FF7189451EBFBDF80010BDF810209142F9
:10BFB00018D19DF80C100029C5D0012200A901F06C
:10BFC0007DFA019E70BBDFF88403A8F800602A5C4C
:10BFD000DFF8AC0350F82510B0B2FFF7E1FC002801
:10BFE000ACD122E0DFF86413695C491C01EBD1712C
:10BFF0004FEAC15B012200A901F060FA019E88B9F5
:10C00000002FA8F8006095D04946E8B200F044F946
:10C010000190331BDFF82C034FEA1B6200F00DF890
:10C0200000288BD0FFF706F8002005B0BDE8F08FA0
:10C03000DFF8280346800120F7E701A900EB430061
:10C0400001F03CBA2DE9F041DFF81403DFF80C539E
:10C050000688DFF8EC0204886878002882B012BFF6
:10C06000204630462646012200A9FFF785FCBDF890
:10C070000000DFF8D08201280CBF4FF6FE70401E92
:10C08000ADF80000DFF8D00207783846471E58B1F7
:10C09000BFB2B819001B012200F010F80028F4D03C
:10C0A000FEF7C8FF002007E06978481E8041C00FF6
:10C0B0006870002028700120BDE8F68100A908EB17
:10C0C000400001F0FBB92DE9FE4F0D46174604462E
:10C0D0001E464FF000094FF001083946FFF7CAFC31
:10C0E000A349098801908C420AD29748205C7F2F8F
:10C0F00008BF0027874203DA9448205C864203D0B9
:10C1000040F2A95100F093F8944F787820B1954807
:10C11000B0F800A08A4803E09348B0F800A0904827
:10C120003978008849B97988081A96490988884277
:10C13000B4BF43204420FEF77DFF01980188844866
:10C14000205CF8B1204600F0A7F8012E08BF29783E
:10C1500003D0022E0CBF29882968814265D001983E
:10C160000088401E00F067F88448265C7888AAF1B1
:10C170000101891B814201DB002835D1387858BB89
:10C18000452044E00291CB4620E002980BEBDB73A4
:10C1900000EB630000F0FBF80BEB05001BF805104B
:10C1A000407801EB0020711E8B4580B205D1BDF8AF
:10C1B0000010C9B2C0B2ADF80010BDF8001088423E
:10C1C0000BF1020018BFC8465FFA80FBB345DCDB09
:10C1D000B8F1000FC3D028E0BDF802100020FFF72F
:10C1E00044FE10B34FF0010978885849401C78800C
:10C1F00080B2625C2946FFF7D3FBB0B1504C7B881C
:10C20000248850485B1E1B1B00F01BF810B1FEF782
:10C2100011FF0AE0B9F1000F02D0FFF713FF20B1C0
:10C2200001997888088030187880BDE8F78F0FF280
:10C230006810F7F749BE01220DF1020180B2FFF745
:10C240009BBB01220DF1020100EB430001F036B966
:10C2500070B582B0044600251926012200A9A0B2BB
:10C26000FFF78AFBBDF80000641C48B14FF47F4122
:10C27000401A02D0FF3806D007E0681C40B276BDF5
:10C28000AD1C761EE9D168B276BDBDF80000C0B223
:10C2900000B96D1CE843F1E738B50C460021009168
:10C2A0002A49455C2A46214600A8FFF7A2FB681CE4
:10C2B00000EBD07004EB600080B2FFF7C9FF0028EC
:10C2C00048BFC043009940B2401832BDF8B5234C76
:10C2D00020780027002830D1194805886078002888
:10C2E0001ABF1F4806882E461B4807783846471E47
:10C2F00002281BDBFFB2B81900F049F8BDF80000B6
:10C300000028F3D01948008807FB006000F03CF8D3
:10C310000020ADF80000BB190A485B1B012200A9F0
:10C32000FFF78CFE48B1FEF785FE06E03046FFF7CA
:10C3300085FBFFB20FB9012020703846F2BD000026
:10C340000C22010800E00108881F01086C1F010889
:10C35000501F01085C2A002008220108C82F002075
:10C36000102201080E220108122201080A220108E7
:10C3700016220108181F0108182201081C220108B2
:10C380009C2101081422010880B2FFF757BB01224B
:10C3900000A980B2FFF7F0BA73696D2D6565707200
:10C3A0006F6D2D696E7465726E616C2E6300000096
:10C3B000F9F7DEBE38B5064C2068216C01EA0005AD
:10C3C000ADB2680748BF01F0BFF8256031BD00007D
:10C3D00008A0004070B50446081982B01546A0F1C7
:10C3E0000806FDF79AF920B120780328A4BF801E23
:10C3F0002070F078FCF7F4FD96F90210663149B22E
:10C40000009103467079B17900F00F00090241EA0A
:10C410000040F17941EA000229462046FDF7A4FCDC
:10C4200073BDFDF728BD0000EFF311806028804147
:10C43000C043C00F704700002DE9F04FDFF8F04512
:10C4400099B0804660681890B8F1070F08BF4FF0A8
:10C45000030804D0B8F1080F08BF4FF00208DFF856
:10C46000D4552868696840EA0120A96840EA01407B
:10C4700000906868400703D5E06940F00200E06181
:10C480002868400703D5E06940F00400E0610098A7
:10C490002969C840C00703D5E06940F00800E061A1
:10C4A0000020DFF88865DFF890953060B8F1010F63
:10C4B00000F06882C0F08E82B8F1030F1ED005D361
:10C4C000B8F1040F40F08682606017E0D9F84000B0
:10C4D000C00703D5E06940F04000E061D9F84000B2
:10C4E000400703D5E06940F02000E061D9F8400042
:10C4F000800703D5E06940F01000E061FAF79CFC8A
:10C50000F7F72BF98DF85C004FF0000BD9F84000DD
:10C51000DFF828A5DFF82875DFF828151690D9F878
:10C5200044001590DFF82005C06C1490DFF8180562
:10C53000006D1390DFF81005406D1290DFF80805CC
:10C54000806D1190DAF800001090DAF804000F9076
:10C55000DAF814000E90DAF824000D9038680C9088
:10C5600078680B90B8680A90F86809903869089064
:10C5700078690790B8690690F8690590B86B0490DF
:10C58000DFF8C80400680968039102212160DFF820
:10C59000C01409688DF80410DFF8B81409688DF824
:10C5A0000510DFF8B41409688DF806104FF0FF315C
:10C5B0006162DFF8A8140968C9040BD56968C90766
:10C5C00008D5E169C90705D5316841F480714FF09C
:10C5D000010B3160DFF88414096889040BD56968A0
:10C5E000490608D5E169C90705D5316841F480419C
:10C5F0004FF0010B31600121DFF860241268520412
:10C600000ED5009AEB68DA40D20709D5E269D20765
:10C6100006D53268EB6801FA03F31A438B463260A1
:10C62000DFF838241268120410D5009A2B69DA401A
:10C63000D2070BD5E269D20702D4E269120705D509
:10C6400032682B698B46994011433160DFF80C1436
:10C650000968C90308D5E169090605D5F17841F0F3
:10C6600008014FF0010BF17000216A68D2076A6877
:10C6700048BF4FF480515206009AEB6848BF41F41E
:10C680000051DA40D207009A2B6948BF41F480413B
:10C69000DA40D207E26948BF41F40041D20605D42E
:10C6A000E269920602D4E269520601D541F0100116
:10C6B000E269120648BF41F4803108400290A5208B
:10C6C000F7F742F80120E063E069A16B11B1616AFC
:10C6D0000142FAD0616A014200F0F1800020E0637B
:10C6E0004FF0010BF07840F04000F070FEF728FFAB
:10C6F0000720C9F800000F20D3490860FEF7F2FFB9
:10C700001898D14960601698C9F840001598C9F882
:10C7100044001498C86413980865129848651198E5
:10C720008865CA491098CAF800000F98CAF8040032
:10C730000E98CAF814000D98CAF824000C983860B6
:10C740000B9878600A98B8600998F8600898386182
:10C75000079878610698B8610598F8610498B863FD
:10C7600002980860B749039808604FF0FF30BC4951
:10C770000860B74800683070B64800687070B64806
:10C780000068B070626AE06910402A6933680199F4
:10C790004B4000990B400106490E01F0010143EAAC
:10C7A00081230106890E01F0010143EA810301069C
:10C7B000C90E01F0010101FA02F21A4300F47C7083
:10C7C00042EA00503060FAF737FBFEF7C7FE002060
:10C7D00020609DF85C0008B1F6F7A9FFF0789B494E
:10C7E0000968C90304D5C0F3C00109B12021216241
:10C7F000D9F84010890704D5C10744BF0221C9F800
:10C800000C10D9F84010490705D5C0F3400111B10B
:10C810000421C9F80C10D9F84010C90705D5C0F398
:10C82000800010B10120C9F80C0030688649C96C3D
:10C8300011F0E00F05D0C10503D5884A4FF48051AF
:10C8400011608149096D11F0E00F05D0410403D555
:10C85000824A4FF4005111607B49496D11F0E00F9D
:10C8600008D0E96820FA01F1C90703D57B4A4FF4E3
:10C87000804111607449896D11F0E00F07D029697A
:10C88000C840C00703D575494FF400400860BBF1AC
:10C89000000F6ED17348006800056AD56068800794
:10C8A00067D5B8F1040F64D068480068C0063DD56C
:10C8B0006A480068C00639D50120307159E0BBF1E3
:10C8C000000F7FF40FAFDAF818005E49400840000F
:10C8D000CAF818005B48806840F00400886040F2A5
:10C8E000072161480088884201BF5F4840884FF2B5
:10C8F0000F01884205D15C494CF23C3048804FF032
:10C90000010B012000F022FEBBF1000F05D05649BB
:10C910004FF20F0048804FF0000B524851494068D9
:10C920000004B06089680843B060E1E6F6F7F8FEFD
:10C930004E49B0FBF1F04FF47A7148432F3030216B
:10C94000B0FBF1F00021317149494A6D42F001021A
:10C950004A650A68434B434C5B68A46844EA034356
:10C96000B468A34205D10B689B1A1B031B0B8342BF
:10C97000F0D3F07840F08000F07019B0BDE8F04FCF
:10C98000F7F79CBAF6F7E9FE0446A520F6F7DCFEB9
:10C99000FEF7D6FDF7F792FA364D2E682868400864
:10C9A00040002860FEF7D2FD334FD7F8008038688A
:10C9B00020F040003860FEF7C5FDC7F800802E600B
:10C9C000FEF7C4FD0CB1F6F7B2FE19B0BDE8F04FAA
:10C9D000FEF7C4BD19B0BDE8F04F40F23C410FF284
:10C9E000A400F7F771BA134ACBB21360C1F307235F
:10C9F0005360C1F307419160002320490B60136825
:10CA0000002B04BF5368002B01D192681AB10A6849
:10CA100042F001020A600A6842F400720A600A6881
:10CA200042F080020A6007E51549DCE7C42A0020CD
:10CA30000400004008BC004014A000400440004036
:10CA40000050004008ED00E014A8004000E100E0C4
:10CA500008B0004008B4004008B8004000E200E020
:10CA600080E200E00C6000400000002090D0030055
:10CA70003820004094ED00E000800040200000409D
:10CA800000404000736C6565702E630003480188A8
:10CA9000034808237F22FEF763BD00BF6624010818
:10CAA0008C2E0020C108032907DA012100F00702BB
:10CAB0009140C0088002124A11507047C1080329F2
:10CAC00007DA012100F007029140C00880020D4AF8
:10CAD0001150704710B50446FAF7AEF9E108032982
:10CAE00009DA094A02EB812101230A6804F00704EC
:10CAF000A3405A400A60BDE81040FAF7A3B900000D
:10CB000014B0004010B000400CB00040F0B5044636
:10CB100089B00020FAF720FD264801880A237F22E9
:10CB200000A8FEF71DFDBDF802004FF6FF75A842F4
:10CB300004D1DC210FF29400F7F7C6F90FF2A40735
:10CB4000002601E02A4616B94FF47C4203E0022E8B
:10CB500008BF4EF23F0200A800F032F8761C052E06
:10CB6000F0D3012C03D114237F22134802E01423B5
:10CB70007F221248018803A8FEF7F2FC00260FF27C
:10CB80006C072A4608E02A46012E08BF4FF6C072FD
:10CB900002D0082E08BF002203A800F011F8761C6E
:10CBA0000A2EF0D3012C04BF0120FAF7D5FC09B0FE
:10CBB000F0BD00002C2401082A24010828240108C3
:10CBC00030F81610F05DFDF770BB0000616E616C0F
:10CBD0006F6775652D63656C6C2D626961732E637B
:10CBE0000000000000100C0D0E0000000102030404
:10CBF0000708090A0B0F000010B50D48018884B022
:10CC00000A237F2200A8FEF7ABFCBDF800004FF618
:10CC1000FF74A04204D14E210FF21800F7F754F927
:10CC2000BDF8001022460020FDF73FFB1FBD0000AD
:10CC30002C240108616E616C6F6775652D66696CE7
:10CC40007465722E630000002A490A6892099201F5
:10CC50000A600A68104308604FF4004126480160EA
:10CC6000002101606420FAF7DFBC2DE9F047234D75
:10CC7000204FD5F80090224C8046286840F40040B0
:10CC80002860386820F480503860207868B1627875
:10CC90001C48A17800EB820200EB880012F82A2CD5
:10CCA00010F82A0C891A461802E00120202620706C
:10CCB000B0B2FFF7C9FF0FF2500A02E0B0B2FFF7BF
:10CCC000C3FF386B042805D0386B400754BF761E6D
:10CCD000761CF3E7F86A38B184F80180A6701FFA71
:10CCE00089F02860BDE8F08740F221115046F7F73F
:10CCF000EBF8E6E7D0100040181000401C10004090
:10CD0000EC2F002010A80008616E616C6F677565DC
:10CD10002D76636F2E63000081014FF4FE5289B2BD
:10CD20000C20FDF7C2BA2DE9F84F8F4CA56820689A
:10CD30000127ADB200264FF00A08B9461FFA80FA63
:10CD4000FEF799FCB0202063DFF820B208E016F16E
:10CD5000190FB8BF4FF00A08464436B27019A060E8
:10CD6000DBF80000000702D559EA070028D00120AF
:10CD7000FAF75AFCB9F1000F11D0AAF1030087426B
:10CD800002DAF81C87B213E00AF50040206057462B
:10CD900006210920FEF718FC4FF000090BE0DBF834
:10CDA0000000000707D5042FA6BFF81E87B2002792
:10CDB00007F5004020601A2EC9DB6FF00908CBE7A9
:10CDC000A560C4F800A00820CBF8000068480068FF
:10CDD00080B2BDE8F28F80B5624B66491B784FF098
:10CDE000FF326BB1002819BF4A606348486041F2C6
:10CDF00011100860614841880088BDE8044092E74E
:10CE0000002819BF4A600A6048600860FEF733FCDA
:10CE1000BDE8044006210920FEF727BC38B50120F3
:10CE2000FFF7D9FF04460020FFF7D5FF0546012094
:10CE3000FFF7D1FF4042001B00EB450000B232BDBE
:10CE40002DE9FE4F4E4CDFF83C81A06A454EADF80F
:10CE500002002568D8F800B0307860B14FF6FF7254
:10CE600000210820FDF71AFAADF80000C022C02109
:10CE70000820FDF71AFA4448DFF81091007818B13D
:10CE800048F26070C9F80000708840F4404040F0FB
:10CE90004C00C9F83C000220A0620120206040F252
:10CEA0004C40FAF7C1FB0120C8F80C00C8F800009C
:10CEB0000020324F388040207880307800B1202028
:10CEC000FFF72AFFFFF7AAFF8246402038807F2025
:10CED0007880FFF721FFFFF7A1FF0290504600F096
:10CEE000A0F9FE2101FB00F70298AAEB00000190D7
:10CEF000307860B1029800F094F98246019800F011
:10CF000090F980B207EB8A11B1FBF0F005E00198CF
:10CF100000F087F980B2B7FBF0F080B2401CC70385
:10CF20001FFA8BF0C8F80000ADB20020C8F80C0062
:10CF3000022020602560BDF80200A0620020C9F830
:10CF40003C00307830B1BDF800104FF6FF72082079
:10CF5000FDF7ABF940F24C40FAF766FB380CBDE840
:10CF6000FE8F000094250020C010004018A0004053
:10CF70000070004038100040EEEEFFFFC42F00208C
:10CF8000602000402810004071250020D010004093
:10CF900041003F2289B201E001463F220220FDF715
:10CFA00084B92DE9F04F564C564D95B0E06CADF874
:10CFB00010004FF6FF782068ADF80E004246E86A90
:10CFC000ADF80C0000210120FDF768F9ADF80A006A
:10CFD000424600210B20FDF761F9ADF808004FF43F
:10CFE0000040206000202861686148F2020000F0E3
:10CFF0008BF84CF68C30E0644FF4805248F2F0002D
:10D00000E86211460120FDF750F9424600210B204D
:10D01000FDF74BF906210620FEF727FB019000F0F3
:10D0200085F800904CF69C30E0640020FFF7B0FFDC
:10D0300006210846FEF7C8FA00260DF1140BB0B21F
:10D04000FFF7A6FF06210620FEF7BEFAFEF7D7FA85
:10D050002BF81600761C202EF1DBFEF7D0FA1020FC
:10D06000FFF796FF00F062F80099019A401ABBF8AA
:10D070002010891A404301FB01094FF0100A1127C3
:10D0800000F04EF800F052F800F043F806DB81465D
:10D090001FFA87FA781C07B2202FF1DBBAF1100FC4
:10D0A0000ED10F2700F03CF800F040F800F031F806
:10D0B00006DB81461FFA87FA781E07B2002FF1D5EA
:10D0C000BDF81000E0644246BDF80E002060BDF8D7
:10D0D0000C00E8620120BDF80A10FDF7E6F8BDF883
:10D0E000081042460B20FDF7E0F8012028610020DF
:10D0F00000F00AF84FEA4A00C0B215B0BDE8F08F60
:10D10000C010004018100040286040F24C40FAF770
:10D110008BBA0099401A404306FB06004845704709
:10D120003BF817000199461AB8B231E706210720EB
:10D13000FEF79BBAF8B50D4C2768060014D0F9F736
:10D140007BFE0B4D21682A7821F8126037F8021B0C
:10D15000B142FBD1F9F776FEB81E2168401AC0052E
:10D160002978000E884200D1FF20F2BD9C240020C7
:10D17000A024002038B504461B4D214600F03DF8A0
:10D18000E860211D00F039F8A86004F1080100F002
:10D1900034F8686004F10C0100F02FF8286031BD0C
:10D1A000F8B50446114D124E8020286006203060EC
:10D1B0000720286030688007FCD5002704EB870132
:10D1C00000F01BF87F1C042FA862F7D330684007DB
:10D1D000FCD500262A6B04EB860100F00BF8761CC8
:10D1E000042EF7D3F1BD000038300040003000407D
:10D1F00010A00040002000F0CFB9002000F0DAB904
:10D2000070B504460D46F9F717FE06462846FFF7A7
:10D21000B1FF2046FFF7C4FF3046BDE87040F9F784
:10D2200011BE002848BF4042704700000E28424A05
:10D2300009D1012903D11078401C10700EE09078BC
:10D24000401C90700AE0162808D1012903D15078BB
:10D25000401C507002E0D078401CD070012010714A
:10D2600070472DE9F04F85B000218DF80810FF249C
:10D270008068314E0078314F314D0390717001203C
:10D2800030713170F170B170A046287820B13878D3
:10D290000FF2B001F5F710FD38780FF2E401F5F761
:10D2A0000BFD0FF2F40907E05B4652460FF24C11FA
:10D2B000F5F702FD5446D8469DF8081038786529E0
:10D2C00031D002A9F6F736FC0398B0B930790028BE
:10D2D000F2D000203071B37832783878297819B1DB
:10D2E0004946F5F7E9FCE7E7F1780191717800919B
:10D2F0000FF2C401F5F7E0FCDEE70E20FEF7B8F808
:10D3000082461620FEF7B4F88346544508BFD84538
:10D31000D0D0297838780029C6D052460FF2C401FF
:10D32000F5F7CAFCC6E703A1F5F7C6FC05B0BDE8F2
:10D33000F08F00000D0A0000CC2F002028240020D0
:10D34000D12F0020427574746F6E203120697320D4
:10D35000756E617661696C61626C652064756520CB
:10D36000746F20706F77657220616D706C6966698B
:10D37000657220656E61626C65640D0A00000000D4
:10D3800050726573732027652720746F20656E6463
:10D390002E2E2E0D0A000000427574746F6E205000
:10D3A0007265737365733A203050202575203052B2
:10D3B0002025750D00000000427574746F6E2050BA
:10D3C0007265737365733A20305020257520305292
:10D3D0002025752031502025752031522025750DCE
:10D3E00000000000425554544F4E305F5052455398
:10D3F000534544203D2025640D00000042555454FF
:10D400004F4E305F50524553534544203D202564D4
:10D410002C20425554544F4E315F50524553534582
:10D4200044203D2025640D004148018A40F6A77242
:10D43000914202BF408A4FF47F41084203D1022843
:10D4400001DB01207047002070472DE9F84F82462C
:10D450008846F9F7F1FC374D2F68044628684008E4
:10D4600040002860FEF772F80120DFF8C0B08BF8AA
:10D470000000FFF7D9FF20B9FF210FF2BC00F6F73B
:10D4800023FD2B48D0F8289041464AF48070C847C5
:10D4900006462F60FEF75AF82046F9F7D3FC002025
:10D4A0008BF800000FF298040EB1305D04E04146A5
:10D4B0004AF40070C847005DBDE8F28F2DE9F84FCF
:10D4C000804689464FEA420AF9F7B6FC194E37689A
:10D4D00005463068400840003060FEF737F8FFF737
:10D4E000A3FF28B94FF4A1710FF24C00F6F7ECFC42
:10D4F0000F48D0F824B00023524649464046D8474A
:10D5000004463760FEF722F82846F9F79BFC0FF235
:10D5100030050CB1605D05E05346002249464046A7
:10D52000D847405DBDE8F28F00000000EB2F0020DF
:10D530000000040894ED00E0666C6173682E6300DF
:10D54000000202024B4B46477047000070B12DE9C4
:10D55000F05FEFF308800D490860EFF309800C4994
:10D560000860EFF314800B49086030BF074800687B
:10D5700080F308880648006880F309880548006839
:10D5800080F31488BDE8F05F70470000802E002013
:10D59000842E0020882E002010B50023002814BF00
:10D5A0001C46C3F10304E4B25B1C6254120A042B50
:10D5B000F4DB10BD30B54A788B78CC78097818B197
:10D5C00020461D460C4602E0154608461A4645EA26
:10D5D000002044EA022141EA004030BD10B501F0CC
:10D5E0000301890003880F2400F00BF8018010BDAF
:10D5F00010B501F007010378012400F002F8017072
:10D6000010BD8C40A34302FA01F1194370472DE984
:10D61000F8438068614D017A047801F00108017BCC
:10D6200001F00F06017C182C01F0010907DB2878B6
:10D630000FF2A4112246BDE8F843F5F73DBB00798F
:10D64000610804EB917100F00F028F08544800EB61
:10D650004700FFF7C3FF53483246214600EB47001F
:10D66000FFF7BCFFA00804EB5070C6084E484246C6
:10D6700021463018FFF7BCFF4C484A462146301877
:10D68000FFF7B6FF28780FF26C11F5F715FB287835
:10D690000FF2B0112246F5F70FFB28780FF2C811F0
:10D6A000F5F70AFB28780FF20821BDE8F443F5F7F7
:10D6B00003BB10B501F007010368012405E010B5B4
:10D6C00001F00301890003680F24FFF79AFF01604E
:10D6D00010BD0000B0B5806804680179007A2F4F52
:10D6E000E4B2182C01F00F0500F0010203DB224622
:10D6F0000FF2E40133E0E00803D0022807D003D39F
:10D7000009E021462A4804E021462A4801E0214652
:10D710002948FFF7CEFFA00805281DD8DFE800F054
:10D7200003070B0F13172A462146244812E02A4606
:10D73000214623480EE02A46214622480AE02A468E
:10D740002146214806E02A462146204802E02A4692
:10D7500021461F48FFF7B3FF0FF2801122463878A9
:10D76000BDE8B040F5F7A8BA10B58068194900685F
:10D770000A4C0002000A08600FF2A4112078F5F7A5
:10D780009BFA20780FF2E011F5F796FA20780FF265
:10D790001421BDE81040F5F78FBA000028240020BE
:10D7A000042500201425002000250020102500203D
:10D7B0000CB000400CB400400CB8004000B0004079
:10D7C00004B0004000B4004004B4004000B8004081
:10D7D00004B80040C02A0020706F727450696E2037
:10D7E0006F6620256420697320696E76616C6964B8
:10D7F0000D0A000053657474696E6720626F617270
:10D80000642066696C65204750494F2076617269D3
:10D8100061626C65732C20706F7765727570206320
:10D8200066672C20706F7765727570206F75742C29
:10D8300020706F776572646F776E206366672C0D5A
:10D840000A000000706F776572646F776E206F75E5
:10D85000742C20666F7220706F727450696E202570
:10D86000642E0D0A0000000052656D656D626572E0
:10D870002C20746865204750494F2773206E6577C8
:10D8800020706F776572757020616E6420706F779D
:10D890006572646F776E20636F6E6669677572611B
:10D8A00074696F6E20776F6E742062650D0A0000D8
:10D8B0006170706C69656420756E74696C20746841
:10D8C00065206E657874206465657020736C65658D
:10D8D00070206379636C652E0D0A000053657474C3
:10D8E000696E67204750494F20636F6E66696720F5
:10D8F000726567697374657220616E64206F7574F8
:10D9000070757420726567697374657220666F72D2
:10D9100020706F727450696E2025640D0A0000003B
:10D9200053657474696E67206770696F52616469CA
:10D930006F506F776572426F6172644D61736B20D7
:10D940007661726961626C652E2020546865206E74
:10D950006577206D61736B2077696C6C20616666FA
:10D960006563740D0A00000068616C537461636B39
:10D97000526164696F506F7765725570426F617262
:10D980006420616E642068616C537461636B5261E2
:10D9900064696F506F776572446F776E426F617222
:10D9A000640D0A007768656E20746865792061727D
:10D9B000652063616C6C65642064756520746F20FC
:10D9C000726164696F206265686176696F722E0D9D
:10D9D0000A0000005D4801680909090141F00101E0
:10D9E000016000205A490860704718B5002100AA5C
:10D9F0000A2480B20A2390FBF3F304FB130088543B
:10DA0000491C03291846F4DB9DF8021001EB0010B5
:10DA1000517801EB00109DF8001080B201EB00106E
:10DA200080B212BDF0B50025002985B002D549426B
:10DA30002D2402E00A9C64B12B2400F8014B08E07D
:10DA40000A24B1FBF4F40A2707FB1411A9556D1C35
:10DA50002146EDB2954200AEF2D30029F0D129461D
:10DA60004D1E51B1EDB2A95D30319D4200F8011B50
:10DA7000F5D12E2100F8011BF1E7017005B0F0BDD2
:10DA800030B587B0FFF7A6FF0020FDF761FC8028C6
:10DA900009D1072309222A210120FDF7E5FB01A96D
:10DAA0000120FDF749FC8028274C36D1BDF8040041
:10DAB000FDF773FC054600F038F820780FF2980166
:10DAC00002AAF5F7F9F82348ADB2AB2101FB150521
:10DAD00000F02BF820780FF2980102AAF5F7ECF885
:10DAE00005EBC500052190FBF1F000F58025012034
:10DAF000009005F5624500F01AF8642095FBF0F0FF
:10DB000080B2FFF772FFADF80400034620780FF2F1
:10DB1000780102AAF5F7D0F805E0024620780FF266
:10DB20007401F5F7C9F807B030BD01200090042357
:10DB30000522294602A875E780B50120FDF704FB00
:10DB4000BDE8024000209BE72824002000B40040EC
:10DB500004D000404F4A180041444320566F6C7473
:10DB60006167652056203D2025730D0A00000000E6
:10DB70004144432074656D70203D2025732063650A
:10DB80006C736975732C2000257346202532784606
:10DB9000290D0A0041444320726561642065727258
:10DBA0006F723A20307825780D0A000010B5816830
:10DBB0000FF26C040978012900F1110105D10FF26F
:10DBC0002000F5F73FFD012104E00FF23400F5F7E6
:10DBD00039FD00212046BDE8104000F06BB8000080
:10DBE0007B264E20706C61792074756E65206173A0
:10DBF000206261636B67726F756E647D0D0A000051
:10DC00007B264E20706C61792074756E652061737F
:10DC100020666F726567726F756E647D0D0A000015
:10DC20001F0100011F0100011F0100010F0500007D
:10DC30004048414A01684908490001603F4801687D
:10DC400049084900016000213D480162016001214D
:10DC500011700021C16241627047F8B539480178FE
:10DC600046688A19537813B38F5D374CC8237FB148
:10DC70000D256F43E7600F25002767601027276099
:10DC80008C5D527894FBF5F45A4392FBF4F20AE06F
:10DC900040F29315E56000256560256052785A438F
:10DCA00002EBD2725210891C42800170F1BDBDE8B6
:10DCB000F140BDE7F8B506460C46FFF7B9FF204D29
:10DCC0000020286500210520A8620120686100204D
:10DCD000A861A86940F44050A8611A4846600170E4
:10DCE000154E3170F9F7A8F807461249012008606F
:10DCF0001248016841F001010160286840F001000C
:10DD00002860FFF7AAFF3846F9F79CF801E0F5F71D
:10DD100017FD30782043FAD0F1BD80B5094841881D
:10DD20004A1E428009B9FFF798FF08494FF0FF30BB
:10DD3000086001BD40A80040BE24002000E100E0D2
:10DD400000E00040442A002020E0004000A80040FD
:10DD5000F0B583B00FF28001DFF8E4400CC900A8F1
:10DD60000FF2E0010CC000F049F80FF21416002584
:10DD7000002700A80121285CB940084206D020787D
:10DD80003B4605F141023146F4F796FF7F1C082F10
:10DD9000EFDB6D1C062DEBDB20780FF2F801F4F7BA
:10DDA0008BFF00F025F8FBF7C2FBF5F72EFDF9F726
:10DDB00043F800F01AF80320FEF736FEF8F74DFF9F
:10DDC00000F019F8F5F73DFD0120FBF725FB207861
:10DDD00000F007F8F7BD0000004040000000000020
:10DDE00028780FF2E401F4F767BF0546F8F718BF8B
:10DDF0002078F6F70FB82846F9F724B82078F4F71A
:10DE00005BBF000030BF70477047000030BF7047F5
:10DE10007047000030BF70477047000030BF704748
:10DE20007047000030BF70477047000030BF704738
:10DE30007047000030BF70477047000030BF704728
:10DE40002824002057696C6C2077616B652066720E
:10DE50006F6D204750494F2061637469766974790A
:10DE6000206F6E2074686520666F6C6C6F77696ECA
:10DE70006720706F72742070696E733A0D0A00002B
:10DE8000506F72742025632C2070696E2025642EDB
:10DE90000D0A0000456E746572696E6720534C452B
:10DEA00045504D4F44455F4D41494E5441494E54B4
:10DEB000494D4552207669612068616C536C6565F7
:10DEC000702E2E2E0D0A00004177616B650D0A0041
:10DED000F8B5DFF854480FF6C40101F059F820787E
:10DEE0000FF6D001F4F7E8FE0FF6F8052078DFF81A
:10DEF0003C38DFF83C2800F005FE0FF6FC062078E1
:10DF00004CF2443200F056FE20780FF6F401F5F79B
:10DF1000F0FE2078F2A73946F4F7CEFE2078DFF83D
:10DF20001438DFF8142800F0EDFD20784FF2640279
:10DF300000F040FE20780FF6D801F5F7DAFE01F088
:10DF40002AF82078DFF8F437DFF8F42700F0DAFD5C
:10DF500020784FF2644200F02DFE20780FF6C001C9
:10DF6000F5F7C7FE01F017F82078DFF8D837DFF8AB
:10DF7000D82700F0C7FD20784EF2455200F01AFE77
:10DF800020780FF6AC01F5F7B4FE01F004F8207824
:10DF9000DFF8B837DFF8B82700F0B4FD20784FF28B
:10DFA0006E4200F007FE20780FF69801F5F7A1FE0B
:10DFB00000F0F1FF2078DFF89C37DFF89C2700F0B5
:10DFC000A1FD20784FF2424200F0F4FD20780FF6D8
:10DFD0008C01F5F78EFE00F0DEFF2078DFF87C374D
:10DFE000DFF87C2700F08EFD20784FF2624200F0CF
:10DFF000E1FD20780FF67C01F5F77BFE00F0CBFF0A
:10E000002078DFF86037DFF8602700F07BFD2078AC
:10E010004FF2742200F0CEFD20780FF67001F5F774
:10E0200068FE00F0B8FF2078DFF84037DFF84027BF
:10E0300000F068FD20784FF2762200F0BBFD2078DA
:10E040000FF65801F5F755FE00F0A5FF2078DFF830
:10E050002437DFF8242700F055FD20784FF2766250
:10E0600000F0A8FD20780FF64801F5F742FE00F019
:10E0700092FF2078DFF80437DFF8042700F042FD34
:10E0800020784FF2634200F095FD20780FF63401BE
:10E09000F5F72FFE00F07FFF2078DFF8E836DFF895
:10E0A000E82600F02FFD20784FF2744200F082FD48
:10E0B00020780FF62001F5F71CFE00F06CFF2078A9
:10E0C000DFF8C836DFF8C82600F01CFD20784FF6D0
:10E0D000097200F06FFD20780FF60801F5F709FED0
:10E0E00000F059FF2078DFF8AC36DFF8AC2600F0FE
:10E0F00009FD20784EF2636200F05CFD20780FF29B
:10E10000F471F5F7F6FD00F046FF2078DFF8FC39F2
:10E11000DFF8FC2900F0F6FC20784EF26F6200F088
:10E1200049FD20780FF2E071F5F7E3FD00F033FFD1
:10E130002078DFF8E039DFF8E02900F0E3FC207810
:10E140004EF26F3200F036FD20780FF2C871F5F70D
:10E15000D0FD00F020FF2078DFF8C039DFF8C029BB
:10E1600000F0D0FC20784CF2563200F023FD2078ED
:10E170000FF2AC71F5F7BDFD00F00DFF2078DFF870
:10E18000A439DFF8A42900F0BDFC20784EF2453216
:10E1900000F010FD20780FF29C71F5F7AAFD00F059
:10E1A000FAFE2078DFF88439DFF8842900F0AAFC31
:10E1B00020784EF6735200F0FDFC20780FF2887143
:10E1C000F5F797FD00F0E7FE2078DFF86839DFF813
:10E1D000682900F097FC20784CF24E2200F0EAFC0F
:10E1E00020780FF27071F5F784FD00F0D4FE2078EE
:10E1F000DFF84839DFF8482900F084FC20784CF635
:10E20000441200F0D7FC20780FF25871F5F771FD39
:10E2100000F0C1FE2078DFF82C39DFF82C2900F05F
:10E2200071FC20784DF2430200F0C4FC20780FF21C
:10E230004471F5F75EFD00F0AEFE2078DFF80C3992
:10E24000DFF80C2900F05EFC20784CF24B2200F045
:10E25000B1FC20780FF22C71F5F74BFD00F09BFE1E
:10E260002078DFF8F038DFF8F02800F04BFC207859
:10E270004CF6535200F09EFC20780FF22071F5F717
:10E2800038FD00F088FE2078DFF8D038DFF8D0289D
:10E2900000F038FC20784CF2431200F08BFC207820
:10E2A0000FF20C71F5F725FD00F075FE2078DFF810
:10E2B000B438DFF8B42800F025FC20784CF2423264
:10E2C00000F078FC20780FF2F861F5F712FD00F00D
:10E2D00062FE2078DFF89438DFF8942802E000BF6F
:10E2E0000D0A000000F00EFC20784CF6431200F0FE
:10E2F00061FC20780FF2D861F5F7FBFC00F04BFED3
:10E300002078DFF87038DFF8702800F0FBFB207809
:10E310004BF2542200F04EFC20780FF2CC61F5F75E
:10E32000E8FC00F038FE2078DFF85038DFF850289D
:10E3300000F0E8FB20784DF2463200F03BFC2078FC
:10E340000FF2BC61F5F7D5FC00F025FE2078DFF870
:10E350003438DFF8342800F0D5FB20784BF2532214
:10E3600000F028FC20780FF2B061F5F7C2FC00F055
:10E3700012FE2078DFF81438DFF8142800F0C2FB12
:10E3800020784DF2433200F015FC20780FF2A061A6
:10E39000F5F7AFFC00F0FFFD2078DFF8F837DFF885
:10E3A000F82700F0AFFB20784CF2433200F002FC7B
:10E3B00020780FF29061F5F79CFC00F0ECFD2078DE
:10E3C000DFF8D837DFF8D82700F09CFB20784DF233
:10E3D000423200F0EFFB20780FF27C61F5F789FC08
:10E3E00000F0D9FD2078DFF8BC37DFF8BC2700F05B
:10E3F00089FB20784CF2545200F0DCFB20780FF2BD
:10E400007461F5F776FC00F0C6FD2078DFF89C37E4
:10E41000DFF89C2700F076FB20784CF2453200F0C4
:10E42000C9FB20780FF26461F5F763FC00F0B3FDDF
:10E4300020780FF26C61F4F73FFC20784BF23462E5
:10E4400000F0B8FB20780FF27861F5F752FC00F08D
:10E45000A2FD20780FF27461F4F72EFC0FF29C6598
:10E460002078002200F0A9FB20784FF6017200F01E
:10E47000A1FB00F079FD00F08EFD2078012200F074
:10E480009CFB20784EF2231200F094FB00F05AFD22
:10E4900000F081FD2078022200F08FFB20784EF200
:10E4A000754200F087FB00F03DFD00F074FD207820
:10E4B000032200F082FB20784EF2632200F07AFB08
:10E4C00000F020FD00F067FD2078042200F075FBCD
:10E4D00020784EF2635200F06DFB00F003FD00F077
:10E4E0005AFD2078052200F068FB20784EF2621277
:10E4F00000F060FB00F0E4FC00F04DFD2078062207
:10E5000000F05BFB20784EF6793200F053FB00F010
:10E51000CBFC00F040FD2078072200F04EFB207875
:10E520004EF6646200F046FB00F0B0FC00F033FDF4
:10E530002078082200F041FB20784EF2241200F0EF
:10E5400039FB00F093FC00F026FD2078092200F052
:10E5500034FB20784EF2251200F02CFB00F072FC08
:10E5600000F019FD20780A2200F027FB20784EF2F7
:10E57000261200F01FFB00F055FC00F00CFD207887
:10E580000B2200F01AFB20784DF2452200F012FB1E
:10E5900000F03AFC00F0FFFC20780C2200F00DFBAC
:10E5A00020784EF2102200F005FB00F019FC00F07C
:10E5B000F2FC20780D2200F000FB20784EF21122B0
:10E5C00000F0F8FA00F0F6FB00F0E5FC20780E22EF
:10E5D00000F0F3FA20784EF2122200F0EBFA00F08D
:10E5E000D1FB00F0D8FC20780F2200F0E6FA20786A
:10E5F0004EF2132200F0DEFA00F0ACFB00F0CBFC90
:10E600002078102200F0D9FA20784EF2142200F07F
:10E61000D1FA00F085FB00F0BEFC2078112200F05A
:10E62000CCFA20784EF2152200F0C4FA00F062FB1A
:10E6300000F0B1FC2078122200F0BFFA20784EF2F0
:10E64000202200F0B7FA00F03DFB00F0A4FC207897
:10E65000132200F0B2FA20784EF2742200F0AAFAE7
:10E6600000F020FB00F097FC2078142200F0A5FABF
:10E6700020784FF60D7200F09DFA00F003FB00F0D9
:10E680008AFC2078152200F098FA20784EF2564243
:10E6900000F090FA00F0E8FA00F07DFC20781622F5
:10E6A00000F08BFA20784FF4654200F083FA00F016
:10E6B000C9FA00F070FC2078172200F07EFA20786A
:10E6C0004EF2015200F076FA00F0AEFA00F063FC70
:10E6D0002078182200F071FA20784EF2025200F0F1
:10E6E00069FA00F091FA00F056FC2078192200F047
:10E6F00064FA20784EF2502200F05CFA00F074FACE
:10E7000000F049FC20781A2200F057FA20784EF2E7
:10E71000512200F04FFA00F053FA20783946BDE854
:10E72000F440F4F7C9BA0000282400209507040833
:10E730007E0704089B07040896070408A10704083D
:10E740009C070408A9070408A2070408BD070408D9
:10E75000AA070408D1070408BE070408DB07040859
:10E76000D2070408DD070408DC070408DF070408F3
:10E77000DE070408E1070408E0070408E3070408CB
:10E78000E2070408E5070408E4070408F50704089D
:10E79000F4070408F7070408F6070408546F6B65CC
:10E7A0006E204D656D6F7279204D61703A0D0A0DC6
:10E7B0000A000000537461727420416464726573CE
:10E7C00073202D20456E642041646472657373204C
:10E7D0002D2D205B63726561746F725D206E616DBB
:10E7E000650D0A003078253458202D2030782534E6
:10E7F0005820202D2D2000005B2532585D20000080
:10E800004D46475F434849505F4441544100000032
:10E810004D46475F504152545F444154410000000F
:10E820004D46475F5445535445525F44415441005F
:10E830004D46475F454D4245525F4555495F363429
:10E84000000000004D46475F414E414C4F475F542A
:10E8500052494D5F4E4F524D414C00004D46475F6F
:10E86000414E414C4F475F5452494D5F424F4F53C9
:10E87000540000004D46475F414E414C4F475F54A6
:10E8800052494D5F424F5448000000004D46475FDB
:10E890005245475F5452494D000000004D46475FC6
:10E8A0003156385F5245475F564F4C5441474500FB
:10E8B0004D46475F565245465F564F4C544147457B
:10E8C000000000004D46475F54454D505F43414CAA
:10E8D000000000004D46475F544553545F54454D7A
:10E8E000500000004D46475F4649425F564552532F
:10E8F000494F4E004D46475F4649425F43484543B6
:10E900004B53554D000000004D46475F4649425F5E
:10E910004F4253004D46475F4349425F4F425300C9
:10E920004D46475F435553544F4D5F5645525349EB
:10E930004F4E00004D46475F435553544F4D5F4582
:10E9400055495F36340000004D46475F53545249E5
:10E950004E4700004D46475F424F4152445F4E4193
:10E960004D4500004D46475F4D414E55465F494479
:10E97000000000004D46475F5048595F434F4E46E8
:10E98000494700004D46475F424F4F544C4F41446A
:10E990005F4145535F4B4559000000004D46475FBE
:10E9A000455A53505F53544F5241474500000000B1
:10E9B0004D46475F4153485F434F4E46494700002D
:10E9C0004D46475F43424B455F4441544100000080
:10E9D0004D46475F494E5354414C4C4154494F4E6C
:10E9E0005F434F44450000004D46475F4F5343325D
:10E9F000344D5F424941535F5452494D000000007D
:10EA00004D46475F53594E54485F465245515F4FFC
:10EA100046465345540000004D46475F4F5343322E
:10EA2000344D5F534554544C455F44454C41590067
:10EA30004D46475F53454355524954595F434F4EE6
:10EA4000464947004D46475F4343415F544852455E
:10EA500053484F4C440000004D46475F53454355D3
:10EA600052455F424F4F544C4F414445525F4B45D6
:10EA7000590000004D46475F45544845524E4554A5
:10EA80005F41444452455353000000004D46475FE8
:10EA900043424B455F3238334B315F444154410070
:10EAA000285669727475616C20546F6B656E2920ED
:10EAB0002020202020202020202D2D2000000000BC
:10EAC0004D46475F4555495F363400000D0A53698E
:10EAD0006D756C6174656420454550524F4D204CF6
:10EAE0006F636174696F6E202D2D205B63726561A9
:10EAF000746F725D206E616D650D0A0025642020C3
:10EB00002D2D20002946F4F7D7B80000FF07040890
:10EB1000F80704080F08040800080408110804088E
:10EB20001008040819080408120804082908040831
:10EB30001A080408390804082A0804083B080408CD
:10EB40003A0804083D0804083C0804084D08040875
:10EB50003E080408550804084E0804087D08040807
:10EB600056080408D90804087E080408ED080408BB
:10EB7000DA080408EF080408EE080408F10804089D
:10EB8000F0080408F3080408F2080408F50804086B
:10EB9000F4080408F7080408F6080408070904083C
:10EBA000F80804080D09040808090408A109040864
:10EBB0000E0904083146F4F77FB82946F4F77CB80B
:10EBC00020780FF20801F5F794B800005354414340
:10EBD0004B5F52463443455F50414952494E475F6F
:10EBE0005441424C4500000020780FF20801F5F72F
:10EBF00080B80000535441434B5F52463443455F55
:10EC0000444154410000000020780FF20801F5F75C
:10EC100070B80000535441434B5F5A4C4C5F53450E
:10EC2000435552495459000020780FF20801F5F776
:10EC300060B80000535441434B5F5A4C4C5F444111
:10EC40005441000020780FF20801F5F752B8000097
:10EC5000535441434B5F4345525449464943415401
:10EC6000455F5441424C450020780FF20801F5F70A
:10EC700040B80000535441434B5F4B45595F5441EA
:10EC8000424C450020780FF20801F5F732B8000039
:10EC9000535441434B5F4348494C445F5441424CB9
:10ECA0004500000020780FF20801F5F722B80000B7
:10ECB000535441434B5F42494E44494E475F544190
:10ECC000424C450020780FF20801F5F712B8000019
:10ECD0004D554C54495F4E4554574F524B5F53541A
:10ECE00041434B5F4E4F4E43455F434F554E544556
:10ECF0005200000020780FF20801F4F7FABF00007C
:10ED00004D554C54495F4E4554574F524B5F5354E9
:10ED100041434B5F504152454E545F494E464F0070
:10ED200020780FF20801F4F7E4BF00004D554C5471
:10ED3000495F4E4554574F524B5F535441434B5FCD
:10ED40004E4554574F524B5F4D414E4147454D45FF
:10ED50004E54000020780FF20801F4F7CABF0000FB
:10ED60004D554C54495F4E4554574F524B5F535489
:10ED700041434B5F54525553545F43454E544552A3
:10ED80000000000020780FF20801F4F7B2BF000085
:10ED90004D554C54495F4E4554574F524B5F535459
:10EDA00041434B5F414C5445524E4154455F4B45A6
:10EDB0005900000020780FF20801F4F79ABF000014
:10EDC0004D554C54495F4E4554574F524B5F535429
:10EDD00041434B5F4E4F44455F4441544100000066
:10EDE00020780FF20801F4F784BF00004D554C5411
:10EDF000495F4E4554574F524B5F535441434B5F0D
:10EE00004B4559530000000020780FF20801F4F739
:10EE100070BF0000535441434B5F43414C5F44413A
:10EE20005441000020780FF20801F4F762BF00009F
:10EE3000535441434B5F504152454E545F494E46F7
:10EE40004F00000020780FF20801F4F752BF0000D5
:10EE5000535441434B5F4E4554574F524B5F4D41C6
:10EE60004E4147454D454E540000000020780FF2BA
:10EE70000801F4F73EBF0000535441434B5F545226
:10EE80005553545F43454E544552000020780FF2CD
:10EE90000801F4F72EBF0000535441434B5F4E4F1F
:10EEA00044455F444154410020780FF20801F4F7D3
:10EEB00020BF0000535441434B5F4B455953000062
:10EEC00020780FF20801F4F714BF000053544143B7
:10EED0004B5F414E414C595349535F5245424F4F4E
:10EEE0005400000020780FF20801F4F702BF000080
:10EEF000535441434B5F4E4F4E43455F434F554E36
:10EF00005445520020780FF20801F4F7F2BE0000D9
:10EF1000535441434B5F424F4F545F434F554E5400
:10EF20004552000020780FF20801F4F7E2BE00001D
:10EF3000535441434B5F414C5445524E4154455FFD
:10EF40004B45590020780FF20801F4F7D2BE0000BB
:10EF5000535441434B5F4150535F4652414D455FCF
:10EF6000434F554E5445520020780FF20801F4F7F4
:10EF7000C0BE0000535441434B5F4E564441544180
:10EF80005F56455253494F4E0000000000882F182D
:10EF90002078F3F791BE20783946F3F78DBE38B567
:10EFA000DFF8A4400FF23C0520782946F3F784FEF1
:10EFB0002078022200A9F4F776FE9DF80000592877
:10EFC00002D04E28F0D131BD20780FF24401F3F782
:10EFD00073FE0120FCF7DAFB20780FF26401F3F7EF
:10EFE0006BFE31BD57726974652064656661756C2E
:10EFF0007420737461636B20616E64206170702093
:10F00000746F6B656E733F28792F6E2900000000C6
:10F0100057726974696E672044656661756C742007
:10F02000537461636B20616E642041707020546F73
:10F030006B656E732E2E2E20776169742E00000092
:10F04000646F6E652E000000282400201CB5044665
:10F0500000F0CBFDDFF858150FF27452498A019188
:10F0600003460FF274510FF25450009104F1110154
:10F07000F4F7E8FA13BD3EB5044600F001FD05467D
:10F080002B46CAA204F111010FF25850F4F7DAFA34
:10F0900075BB00F006FD040024D060880FF26C53AD
:10F0A0000FF2605102900FF27050019020690090B1
:10F0B00022880FF23C50F4F7C5FADFF8F804A36891
:10F0C000E26800780FF26051F3F7F6FDA0880FF2C6
:10F0D00090530FF280510090E2880FF26C50F4F7D9
:10F0E000B1FA37BD0FF28450BDE83E40F4F7AABA3A
:10F0F00037BD10B5044600F0F9FC04F11101BDE87C
:10F1000010400FF28450F4F79DBA10B5044600F099
:10F11000C8FC38B904F11101BDE810400FF270507D
:10F12000F4F790BAC168002000F036FD03469FA2B4
:10F1300004F111010FF28C50F4F784FACBA404E02F
:10F140002046F4F77FFA00F0A7F800F037FD00281A
:10F15000F6D1BDE81040F1E0F8B500208DF80000D0
:10F160000027044600F08CFCB8B90FF28850F4F781
:10F1700069FA00F096FC050013D029690FF2A85037
:10F18000F4F760FAE968002000F006FD60B90FF2BC
:10F19000C450F4F757FAB5A611E001460FF26850D3
:10F1A00005E00FF298506FE001460FF2C050F4F7FF
:10F1B00049FAF1BD3046F4F745FA00F06DF800F079
:10F1C000FDFC0028F6D10FF2C450F4F73BFA0FF221
:10F1D000D450F4F737FADFF8DC6302E08DF8000072
:10F1E0000027E868844251D23078F4F798FCB0B137
:10F1F00030780DF10101F4F79DFC9DF8000000014D
:10F200008DF800007F1C9DF80100A0F130010A2953
:10F2100019D200F03CF8303908438DF80000FFB2F5
:10F22000022FDEDB012200A9204600F09FFC641CB7
:10F230000028D3D09DF800200146631E0FF2B45081
:10F24000F4F700FAF1BDA0F14101062903D200F064
:10F250001EF83739E0E76138062803D200F017F8C6
:10F260005739D9E79DF80100202818BF092804D094
:10F270000D2818BF0A2800D020B99DF800007F1E75
:10F280000009CAE70FF26450F4F7DCF9F1BD9DF80C
:10F2900001109DF80000704746F2A810F8F7C4B9B5
:10F2A00038B500F02BFC0FF27450F4F7CBF9BCA486
:10F2B00000F039FC05462046F4F7C4F94FF6FF701C
:10F2C0008542F5D02DB9BDE832400FF26C50F4F70D
:10F2D000B9B90FF28450F4F7B5F900F03BFCBDE882
:10F2E000344001460FF2A850F4F7ACB930B583B002
:10F2F00081680C684D680FF208610091019400F17B
:10F3000011012B46A7A20FF2CC50F4F79BF9294626
:10F31000204600F041FC024624A10FF2EC50F4F725
:10F3200091F952A404E02046F4F78CF9FFF7B4FFFA
:10F3300000F044FC0028F6D1BDE83E400FF2A430B6
:10F34000F4F780B92DE9F04786B081680C6800F0C9
:10F350006DF80FF2BC50F4F75FF90FF2DC590FF2C1
:10F36000CC580FF2442A0EE001A95046715CF4F724
:10F3700069F9761CF6B2BE42F6DB4846F4F762F94C
:10F38000ED1BADB23C197DB1112DACBF10272F463E
:10F390003A4601A9204600F0F4FB024621464046C9
:10F3A000F4F750F90026E5E73DE0000065727200D1
:10F3B0002DE9F04786B08168D1F8008000F036F87A
:10F3C0000FF27C50F4F728F90FF2605A0FF2D819B7
:10F3D00001AC0EE0395D4846F4F734F97F1CFFB20A
:10F3E000B742F7DB0FF25050F4F72CF9AD1BADB27A
:10F3F000B044C5B1112DACBF10262E46002703E046
:10F40000FAF73CFF38557F1CFFB2B742F8DB3246B3
:10F4100001A9404600F0AAFB024641465046F4F7D7
:10F4200011F90027DBE706B0BDE8F0878D880FF201
:10F43000F4410FF2CC4200915CA300F1110170473E
:10F440000288130448BF4A405100018010467047AB
:10F4500038B5594C62212046FFF7F2FF054641F2CC
:10F460000B01A01CFFF7ECFF684032BD2E0000002E
:10F470002DE9F041C4B081680D684C6800F085F852
:10F480000FF2E440F4F7DEF80FF2141804E04046FF
:10F49000F4F7D8F8E41B7D191CB3FAF7EFFEC7B2F6
:10F4A000A74228BFA7B2002604E0FFF7D1FF03A9B7
:10F4B0007054761CF6B2BE42F7DB3A4603A92846E2
:10F4C00000F054FB0028E2D036A1019102460297D9
:10F4D000009536A10FF228430FF2B840F4F7B2F8C6
:10F4E00003E00FF2D440F4F7ADF84BE02DE9F04122
:10F4F000C4B081680C684D6800F047F80FF2D44042
:10F50000F4F7A0F80FF2980804E04046F4F79AF8F0
:10F51000ED1B3C1995B3FAF7B1FEC7B2AF4228BF55
:10F52000AFB23A4603A9204600F02BFB020009D0F7
:10F5300002971CA0019000941CA10FF2C4330FF29B
:10F54000BC4018E0002600E0761CF6B2BE42DCDAD1
:10F55000FFF77EFF03A9C0B2715C8142F4D0029133
:10F56000009032190FF2F0410FF2E0430FF2AC407D
:10F5700001910FF28C31F4F765F803E00FF2384097
:10F58000F4F760F844B0BDE8F0818B680A490B805D
:10F590001A0C4A8000F111010FF2F032704700009E
:10F5A0002E0000006C656E002025780065727200E8
:10F5B0000000000828240020C02F00207B264E20B9
:10F5C0002674326820267432687D0D0A000000001F
:10F5D00076657273696F6E00424154766572736925
:10F5E0006F6E00007B264E202674680D0A00000016
:10F5F000267432680D0A2674700D0A267432680D5E
:10F600000A000000696E666F566572007061727460
:10F6100044657363000000006361706162696C6936
:10F6200074696573000000007B7061727453697ABD
:10F63000653A256C7D207B7061676553697A653A10
:10F64000256C7D0D0A000000267475202674757DDA
:10F650000D0A00007061727445726173654D73002C
:10F660007061676545726173654D73004E6F207000
:10F6700061727420696E666F20617661696C616287
:10F680006C657D0D0A0000007B264E7D0D0A000092
:10F690007B264E204E6F207061727420696E666FFB
:10F6A0002C2063616E277420657261736520636826
:10F6B000697021207B6572723A307830317D7D0D22
:10F6C0000A0000007B264E20436869702045726165
:10F6D0007365205374617274696E672026746820A4
:10F6E0000000000020436F6D706C657465217D0D16
:10F6F0000A000000466C61736820696E6974696174
:10F700006C697A65640D0A00466C617368206E6FDF
:10F710007420696E697469616C697A65643A203035
:10F720007825780D0A000000466C617368207479B2
:10F7300070653A2025700D0A00000000466C617368
:10F7400068207479706520756E6B6E6F776E0D0A28
:10F7500000000000466C617368206572617365206B
:10F76000737461727465640D0A000000466C617305
:10F7700068206572617365206E6F742073746172A6
:10F780007465643A20307825780D0A00466C617300
:10F790006820657261736520636F6D706C65746558
:10F7A0000D0A0000526561647920746F2061636303
:10F7B0006570742068657820646174612C20616EC6
:10F7C0007920696E76616C69642068657820636869
:10F7D00061726163746572732077696C6C20656E09
:10F7E0006420636F6D6D616E640D0A00446F6E6519
:10F7F0000D0A0000466C6173682077726974652099
:10F800006661696C65643A20307825782030782507
:10F81000782030782534780D0A000000496D616742
:10F820006520766572696669636174696F6E2073BD
:10F8300074617274656400000D0A496D616765202A
:10F84000766572696669636174696F6E2066616965
:10F850006C65640D0A0000000D0A496D6167652042
:10F86000766572696669636174696F6E20636F6D36
:10F87000706C6574650D0A496E766F6B696E6720F2
:10F88000626F6F746C6F616465720D0A0000000036
:10F890004572726F723A2068616C417070426F6F8E
:10F8A000746C6F61646572496E7374616C6C4E65E3
:10F8B00077496D6167652072657475726E65642045
:10F8C0007769746820737461747573202532780DBC
:10F8D0000A0000007B264E2045726173696E672026
:10F8E000267434682062797465732073746172744D
:10F8F000696E672066726F6D202674346820000080
:10F90000616464720000000026746820000000003A
:10F91000237B264E2026742026742026747D0D0A13
:10F920000000000064617461000000007B5B26340D
:10F93000685D202668207B00207D0D0A0000000005
:10F94000237B264E2026742026742026747D0D0AE3
:10F9500057726974696E672072616E646F6D20649E
:10F960006174610D0A0000007B264E205772697495
:10F97000696E672072616E646F6D206461746120CE
:10F9800066726F6D2026743478200000736565649C
:10F99000000000000D0A5772697465204572726F8D
:10F9A00072212026746820267434682026743268F8
:10F9B000207D0D0A0000000020436F6D706C65749F
:10F9C0006521207B6572723A307830307D7D0D0A7A
:10F9D000000000007B264E20566572696679696ECC
:10F9E000672072616E646F6D20646174612066725D
:10F9F0006F6D202674347820000000000D0A5265D7
:10FA00006164204572726F7221202674682026740A
:10FA100034682026743268207D0D0A000D0A4D6975
:10FA2000736D61746368204572726F7221207B650B
:10FA300072723A307830317D202674346820267412
:10FA40006820267468207D0D0A00000065787065C6
:10FA50006374656400000000656E636F756E7465A5
:10FA60007265640066490A8B120A022A02D1498A29
:10FA7000814204D218210FF2A010F4F725BA704782
:10FA800080B540F20510FFF7EDFF5D48016B408A3D
:10FA9000B0F5847FA4BFBDE8014008478847002037
:10FAA00002BD38B540F20510FFF7DCFF00F092F818
:10FAB0001ADB018B40F20322914211D15149CC6DE6
:10FAC000B4F1006F0CD9006C80474F4D01461822ED
:10FAD0002846F3F75FFB4D48001BE860284632BD1F
:10FAE000BDE83240006C0047002032BD80B500F018
:10FAF00079F84348C06BBDE80240004710B582B0BA
:10FB00004FF48270FFF7AEFF4149424A3C4C646AB1
:10FB1000002008604860088180230120009001F1E6
:10FB20008C00A04713BD10B54FF48270FFF79AFF09
:10FB3000334B374CD86A9B6A002204F18C019847FA
:10FB4000502802D14FF6FF7010BD08B9A08810BD33
:10FB5000002010BD80B52A48008B000A022804BF8F
:10FB600040F20220F8F7E4F8012002BD70B500F081
:10FB700036F8324629462046BDE87040204B9B6B44
:10FB8000184770B500F02BF8324629462046BDE8EC
:10FB900070401B4B5B6B184738B504460D4600F0B0
:10FBA00021F8174A508AB0F5847F05DB29462046A4
:10FBB000BDE83840526C1047882032BD80B500F057
:10FBC00011F800F007F803DBBDE80240806C004745
:10FBD000002002BD0A48418AB1F5847F704704467F
:10FBE0000D46164640F207103CE70548018B090A0E
:10FBF000022901D1408B70474FF6FF70704700001B
:10FC000000000008002000084C2800200000020826
:10FC100064280020C4290020626F6F746C6F6164D7
:10FC200065722D696E746572666163652D617070B1
:10FC30002E6300002DE9F84F5848594D0478A86804
:10FC4000DFF854815549574F8DF801000026286888
:10FC50008DF8000098F80000087053490978A9B1A0
:10FC6000012813D138780FF24411F3F725F83878CA
:10FC70000FF29811F3F720F838780FF2EC11F3F740
:10FC80001BF838780FF20821F3F716F898F80010EF
:10FC900038780A0027D0022909D003291AD0AA6887
:10FCA00022F04002AA602A6822F470622A600129C8
:10FCB000AA680FF2602122F08002AA602A6822F46A
:10FCC00070422A600CBF0FF260220FF26422F2F73A
:10FCD000F3FF0CE0296821F4704141F48041296070
:10FCE0000FF2542101E00FF26821F2F7E5FFF3F77C
:10FCF0003CFD80464FF0020AF7F700FD83464FF4C3
:10FD00007A70F7F791FC761CB6B2B14641F28830B2
:10FD1000814503D138780FF24C212EE0F7F7EEFC45
:10FD20005845ECD0BAF1010AE6D1F7F7E7FC0646F0
:10FD300042F60410F7F778FCF7F7E0FC861B0A2080
:10FD400098FBF0F238780FF27421B6B2F2F7B4FFF4
:10FD500038780FF28C214A46F2F7AEFF38780FF26E
:10FD60009C213246F2F7A8FFA6F109013878032951
:10FD70002CBF0FF2B8210FF2BC21F2F79DFF07480C
:10FD800004709DF80100A8609DF800002860BDE89F
:10FD9000F14FF3F7EABC000064240020D62F0020C6
:10FDA00004B8004028240020D12F00205761726E33
:10FDB000696E673A20596F752772652072756E6E8D
:10FDC000696E67207468652072746320746573744B
:10FDD00020776869636820617373756D657320614E
:10FDE0006E2065787465726E616C2033324B487A90
:10FDF000207874616C206973206F6E205043362028
:10FE0000616E64205043372E0D0A00005761726EF8
:10FE1000696E673A20497420616C736F206170705D
:10FE200065617273207468617420796F75277265DB
:10FE3000207573696E67207468652054582041638B
:10FE4000746976652066756E6374696F6E616C693E
:10FE50007479206F6E2050433520616E64205043CA
:10FE6000362E0D0A000000005761726E696E673A07
:10FE7000205043362063616E2774206265207573BD
:10FE8000656420666F7220626F7468210D0A00003D
:10FE90005761726E696E673A2054686973207465A1
:10FEA00073742077696C6C20666F726365205043B1
:10FEB0003620616E642050433720746F2061737365
:10FEC000756D6520616E2065787465726E616C2059
:10FED0007874616C2069732070726573656E742C20
:10FEE00020627574206265207375726520746F20BE
:10FEF000636865636B20796F757220696E74656ED7
:10FF000064656420504336207573616765210D0A6E
:10FF1000000000005573696E672033326B487A2009
:10FF200025700D0A000000005854414C00000000EC
:10FF300053696E65000000005573696E67203332A7
:10FF40006B487A204469676974616C0D0A0000008F
:10FF50005573696E6720496E7465726E616C2052CC
:10FF6000430D0A004552524F523A20537461727445
:10FF700075702074696D6564206F757420283E3536
:10FF8000207365636F6E6473292C2074686520622A
:10FF90006F6172642069732070726F6261626C7944
:10FFA000206D697373696E6720612033324B487A24
:10FFB000206372797374616C210D0A006669727333
:10FFC00074206173796E6320757064617465207448
:10FFD000696D653A202575206D730D0A00000000DB
:10FFE0006669727374207469636B2074696D653A15
:10FFF000202575206D730D0A0000000031306D73EF
:020000040801F1
:10000000206F66207469636B732C2073686F756C46
:1000100064206265203130202B2F2D20312074691F
:10002000636B733A202575203D2000004641494C02
:100030000D0A0000504153530D0A0000207800A91A
:10004000F3F778BD2DE9F04F85B0044600208DF818
:10005000000080465A4E306880B202904FF00A0984
:10006000A0680568C246FAF72EFB8DF8010000F083
:100070009BF8E8B2FAF7BDF90FF2941102460FF2BD
:100080008810F3F7DFFA2046F5F730FF4A480FF201
:1000900088110078F2F710FEB0684A4C4A4F80B2DF
:1000A00001904FF6FF72A06AADF80C0000212568A0
:1000B000D7F800B00820FAF7F1F8ADF80200C02236
:1000C00011460820FAF7F1F83C48007810B148F2E0
:1000D000607030614CF25C00F0640220A06201208C
:1000E000206040F24C40F7F79FFA0120F86038603A
:1000F0007F20FCF711FE029800F5004030600AE016
:1001000018F1190FB8BF4FF00A09C84401980FFA47
:1001100088F84044B0609DF80000652820D026484B
:100120000078F3F7FCFC18B123480078FFF787FF4D
:10013000BAF1000F04D04FF0FF307861234803E09C
:100140000020786141F2111038618AF0010A012023
:10015000F7F76AFAB8F11A0FD2DB6FF00909D4E7A2
:100160000198B0604FF6FF72029830601FFA8BF072
:1001700038600020F86002202060A8B22060BDF83E
:100180000C00A0620020F0640820BDF80210FAF70D
:100190008CF840F24C40F7F747FA9DF80100FAF767
:1001A00028F905B0BDE8F08F0948D0F8E0140FF247
:1001B0002400F3F747BA000028240020712500200E
:1001C000C01000406020004028100040EEEEFFFF0D
:1001D000881401087B264E2053657474696E67206D
:1001E0006368616E6E656C20616E64207065726616
:1001F0006F726D696E672063616C696272617469A8
:100200006F6E2E2E2E0000002674687D0D0A0000F1
:100210007374617475730000436F6E74696E756FEB
:100220007573204D6F64204441432043616C202747
:1002300065276E642E0D0A000CE000000AE0000045
:1002400008E0000006E0000004E0000002E000001A
:1002500000E0000072B61EF0080F08D01EF0040F78
:100260000BD0DFF848E0AEE8FF1F11480AE0DFF8E6
:100270003CE0AEE8FF1F0F4804E0DFF830E0AEE8F6
:10028000FF1F0D486946EFF309828EE80700864696
:100290000A480B4C854501D3A54501D384F3088852
:1002A000F3F729FE84F30888F7F742FD04000020E5
:1002B000FDFFFFFFF1FFFFFFF9FFFFFF081B00201D
:1002C00028240020FFF7C4BF80B5F7F735F9BDE853
:1002D00004404FF470410148FAF70EBFDC2A0020B9
:1002E0004948D0F800D000F001F800BF474C40F278
:1002F0000730206001204649086072B6F6F79CFD81
:1003000044480168490849000160F6F72FFE40F2B1
:1003100007256069404F80064FF20F0605D57888A3
:10032000B04204BF3888A84237D1DFF8F0803C499A
:1003300040464FF0CD3201E040F8042B8842FBD319
:10034000384A39493948F3F79FF93949394800F0B3
:10035000A3F83949394800F09FF8394A39493A48F1
:10036000F3F792F96069C00605D47888B04204BFFB
:100370003888A84201D1354800E03548A8EB000193
:10038000F7F7A0FD334A34493448F3F77DF934498F
:10039000344800F081F8F7F711FD33483349344A07
:1003A000344B01604FF07F4101616FF020414161AA
:1003B0003149816131490A604FF080324A608B6077
:1003C000CA602F4A0A612F4941604FF40471C1602D
:1003D0004FF4E021C1616069800607D57888B0429A
:1003E00007BF3888A8420020FDF7B0F8FBF77AF97C
:1003F000F7F76CFD62B6F2F730FB4FF49B710FF22A
:100400008800F3F761FD70470020000818000040E5
:1004100020400040FCED00E000000020C81A002051
:1004200028240020780100006824010828240020E6
:100430004F0A0000A025002000000000000000007E
:1004400000000000000000000000000098000020F4
:10045000000000200000000000000000A025002097
:1004600000000000A025002008ED00E000210008A9
:10047000808040806080808080FFFF4000E400E05A
:10048000E08080800004FA05637374617274757093
:100490002D6961722E6300000022F6F737BD00005F
:1004A000626F6172642D74657374000073657462A9
:1004B000726463666700000075317531753175319E
:1004C0007531000053657420626F61726466696CF7
:1004D00065204750494F207661726961626C65738F
:1004E0002028706F727450696E232C2070754366DB
:1004F000672C2070754F75742C2070644366672CD0
:100500002070644F757429007365746770696F6338
:1005100066670000753175317531000053657420D0
:100520004750494F20726567732028706F7274506E
:10053000696E232C20726567206366672C207265C4
:1005400067206F7574290000736574677270626D3F
:100550000000000075340000536574206770696FF7
:10056000526164696F506F776572426F6172644D5A
:1005700061736B207661726961626C6500000000D6
:10058000627574746F6E2D74657374006275747423
:100590006F6E0000753100005465737420427574ED
:1005A000746F6E732E20557365207531213D302098
:1005B000666F7220706F6C6C696E67006C65642D7D
:1005C00074657374000000006C65644F6E00000079
:1005D0005475726E73206F6E204C45442075310047
:1005E0006C65644F666600005475726E73206F66AA
:1005F00066204C4544207531000000006C65645451
:100600006F67676C65000000546F67676C657320E7
:100610004C4544207531000061646363616C2D7446
:100620006573740061646374657374000000000096
:100630004D6561737572652074656D706572617466
:10064000757265006770696F2D74657374000000C2
:100650006770696F52656164000000005072696ED6
:100660007420616C6C204750494F2073746174652D
:10067000000000006770696F536574007531753153
:10068000000000005772697465206120706F7274F9
:100690002773204750494F5F507853455420726567
:1006A000670000006770696F436C6561720000004D
:1006B0005772697465206120706F727427732047C8
:1006C00050494F5F5078434C5220726567000000DC
:1006D0006770696F4F757400577269746520612087
:1006E000706F72742773204750494F5F50784F5591
:1006F00054207265670000006770696F4366670089
:1007000075317534000000005772697465206120EE
:10071000706F72742773204750494F5F507843467B
:1007200047482F4C207265677300000073776A4456
:10073000697361626C65000053574A2044697361B4
:10074000626C6520283129206F7220456E61626CD1
:1007500065202830290000006770742D746573745B
:100760002D74320062757A7A65720000706C61795E
:100770002062757A7A65722028303D666F726567EF
:10078000726F756E642C20313D6261636B67726FAE
:10079000756E6400736C6565702D7465737400000C
:1007A00073687574646F776E000000005075742074
:1007B000746865206368697020696E2074686520BC
:1007C0004465657020536C65657020737461746551
:1007D00000000000746F6B656E2D636F7274657836
:1007E0006D332D7465737400746F6B4D6170000010
:1007F0005072696E742074686520546F6B656E204A
:100800004D656D6F7279204D617000006C6F616491
:10081000546F6B73000000004C6F6164207374614F
:10082000636B20616E64206170706C6963617469D0
:100830006F6E20746F6B656E2064656661756C7495
:10084000730000005072696E7420637261736820D7
:10085000696E666F726D6174696F6E00657874663B
:100860006C6173682D746573740000006170706250
:100870006C766572000000005265706F72742074AF
:1008800068652076657273696F6E206F6620746884
:100890006520696E7374616C6C6564206170702092
:1008A000626F6F746C6F6164657200006566496E9B
:1008B00069740000496E697469616C697A652074B5
:1008C00068652065787465726E616C20666C617312
:1008D000682064726976657200000000656673685E
:1008E0007574646F776E000053687574646F776E0B
:1008F000207468652065787465726E616C20666C22
:100900006173682064726976657200006566436889
:100910006970457261736500457261736520746822
:10092000652065787465726E616C20666C617368B1
:1009300020636869700000006566506167654572F4
:1009400061736500753475340000000028616464CB
:1009500072657373206C656E292045726173652022
:100960007061676573206F6E2074686520657874A8
:1009700065726E616C20666C617368206368697073
:1009800000000000656652656164000075347532D0
:10099000000000002861646472657373206C656EEA
:1009A00029205265616420646174612066726F6DF4
:1009B000207468652065787465726E616C20666C61
:1009C0006173682063686970000000006566577293
:1009D000697465002861646472657373206C656E68
:1009E000292057726974652072616E646F6D20648E
:1009F00061746120746F2074686520657874657215
:100A00006E616C20666C61736820636869700000B9
:100A1000656657726974655465737400753475340E
:100A2000753400002861646472657373206C656EB0
:100A30002073656564292057726974652072616E40
:100A4000646F6D20646174612C206C656E677468DE
:100A50007320746F207468652065787465726E61A8
:100A60006C20666C61736820636869700000000028
:100A7000656652656164546573740000286164643E
:100A800072657373206C656E2073656564292056EA
:100A900065726966792072616E646F6D206461743D
:100AA000612C206C656E67746873207265616420C8
:100AB00066726F6D207468652065787465726E610A
:100AC0006C20666C617368206368697000000000C8
:100AD000656653747265616D00000000496E69744B
:100AE00020616E642065726173652065787420668C
:100AF0006C61736820616E64207468656E20616348
:100B00006365707420686578206461746120746F17
:100B1000206265207772697474656E2073657175E3
:100B2000656E7469616C6C79000000006566426FE7
:100B30006F746C6F61640000566572696679206934
:100B40006D61676520696E2065787465726E616C91
:100B500020666C61736820616E64207468656E2025
:100B6000696E766F6B6520626F6F746C6F61646520
:100B70007220746F20696E7374616C6C20697400EC
:100B8000746F6B656E2D746573740000496E766FBB
:100B90006B6520746F70206C6576656C20746F6B6C
:100BA000656E20696E697469616C697A6174696FD8
:100BB0006E000000746F6B52656164007532000056
:100BC0005265616420616C6C2064617461206F66A1
:100BD000206120746F6B656E202875323D637265ED
:100BE00061746F7220636F6465290000746F6B52CB
:100BF0006561644964780000753275310000000059
:100C00005265616420616E20696E646578206F664C
:100C1000206120746F6B656E202875323D637265AC
:100C200061746F7220636F64652C2075313D696457
:100C300078290000746F6B577269746500000000BA
:100C4000577269746520616C6C2064617461206FF7
:100C500066206120746F6B656E202875323D63726B
:100C60006561746F7220636F64652900746F6B57E0
:100C70007269746549647800577269746520616EA1
:100C800020696E646578206F66206120746F6B65E3
:100C90006E202875323D63726561746F7220636FD8
:100CA00064652C2075313D6964782900746F6B444C
:100CB000756D700044756D702074686520656E7484
:100CC00069726520746F6B656E2064617461207356
:100CD0006574000072657365742D7465737400002B
:100CE0005072696E74207468652052657365745320
:100CF0007472696E670000006173736572746D656C
:100D00000000000052657365747320746865206389
:100D1000686970207573696E67206173736572749A
:100D2000282900006D6973632D74657374000000D9
:100D300072746300546573742065787465726E61B3
:100D40006C2033322E373638204B487A2063727944
:100D50007374616C206F7363696C6C61746F722063
:100D60002875736564206173205254432F7379731F
:100D700074656D2074696D6572292E007068792D17
:100D8000636F6D6D6F6E000063616C6C20656D52FA
:100D90006164696F496E697428292E005365656422
:100DA0002074686520504E5247207769746820721D
:100DB000616E646F6D20646174612066726F6D2076
:100DC00074686520726164696F0000007365745017
:100DD0006572546573740000286D29205365742072
:100DE0005061636B6574204572726F72205261743A
:100DF000652074657374206D6F646520746F206D59
:100E00002028302D64697361626C652C20312D655A
:100E10006E61626C652900006765744368616E6E7F
:100E2000656C000047657420746865206375727294
:100E3000656E74206368616E6E656C0073657443E3
:100E400068616E6E656C000028632920536574200C
:100E500074686520726164696F206368616E6E6595
:100E60006C20746F2063000067526164506F775389
:100E70007461746500000000476574207468652023
:100E8000726164696F2063757272656E7420706F31
:100E90007765722073746174650000007352616439
:100EA000506F775374617465000000002873292027
:100EB0005365742074686520726164696F2063757E
:100EC0007272656E7420706F7765722073746174CE
:100ED0006520746F20732028302D61736C656570F8
:100EE0002C20312D6177616B6529000067657443A3
:100EF0006361000047657420436C6561722043683C
:100F0000616E6E656C204173736573736D656E748D
:100F10002E202031203D20436C6561723B20302023
:100F20003D20427573792E006765745273736900B2
:100F3000476574205253534920696E2064426D20E6
:100F40006F76657220382073796D626F6C207065E2
:100F500072696F64732E0000676574456400000059
:100F6000476574203830322E31352E3420454420E8
:100F7000282D31303064426D20746F202D3336645B
:100F8000426D203A203078303020746F20307866FF
:100F90006629206F76657220382073796D626F6CD8
:100FA00020706572696F64732E0000007068792D7F
:100FB000636F6D6D6F6E2D727800000073686F77D0
:100FC0005061796C6F616400456E61626C652831B7
:100FD000292F64697361626C6528302C64656661D1
:100FE000756C742920504859207061796C6F616468
:100FF00020646973706C617920696E205258206F8B
:101000007574707574000000727800005265636535
:10101000697665206D6F6465000000007068792D49
:10102000636F6D6D6F6E2D7478000000536574757D
:101030007020545820666F7220494545452038304D
:10104000322E31352E342050455220746573740091
:101050006765745478506F77657200004765742037
:1010600063757272656E7420726164696F20545882
:1010700020706F77657220696E2064426D000000F9
:101080007365745478506F77657200007331000097
:101090002870292053657420726164696F20545848
:1010A00020706F77657220746F20702064426D002D
:1010B000676574547844656C6179000047657420F5
:1010C000545820696E746572706B742064656C612D
:1010D0007920696E20757300736574547844656C6B
:1010E0006179000028642920536574207261646965
:1010F0006F20747820696E746572706B74206465FB
:101100006C617920746F206420757300747800001E
:10111000286E29205458206E20706B74732028305C
:101120003D696E66696E6974652900007478537450
:101130007265616D00000000545820636F6E746921
:101140006E756F75732073747265616D206F6620A4
:1011500072616E646F6D2073796D626F6C730000E5
:101160007478546F6E65000054582073696E676C14
:10117000652063617272696572206672657175655A
:101180006E63790067657454785061636B657400B1
:10119000446973706C617920545820706B74206CB2
:1011A000656E6774682026207061796C6F616400D9
:1011B00073657454784C656E677468005365742069
:1011C0005458207061796C6F6164206C656E67742F
:1011D0006800000073657454785061796C6F6164C5
:1011E00000000000286F2064302064312064322029
:1011F0006433292053657420545820706B74207018
:1012000061796C6F616420646174612064302D3396
:10121000206174206F6666736574206F00000000A3
:101220007068792D656D323530636C6173730000C1
:1012300063616C4368616E6E656C00005365742079
:10124000746865206368616E6E656C3B20706572C2
:10125000666F726D2066756C6C2063616C6962727A
:101260006174696F6E0000006765745478506F7721
:101270004D6F646500000000446973706C617973A0
:1012800020547820706F776572206C6576656C20CD
:10129000616E642050412073657474696E677300D9
:1012A0007365745478506F774D6F6465000000006B
:1012B000286C2070292053657420547820706F7733
:1012C0006572206C6576656C206C2028303D6E6FF1
:1012D000726D616C2C20313D626F6F7374292061D7
:1012E0006E6420504120702028303D696E742C209F
:1012F000313D65787429000073657453796E4F66CB
:101300006673657400000000286F29204F666673BD
:101310006574207468652073796E746820667265E0
:101320007175656E6379206279206F2031316B4869
:101330007A20696E6372656D656E74732E000000AD
:101340007068792D656D337878000000746573746A
:101350004D6F6443616C00005365742074686520B0
:101360006368616E6E656C3B20706572666F726D4E
:101370002063616C6962726174696F6E3B2074688E
:10138000656E20636F6E74696E756F75736C79200E
:101390007265706561742074686520616374697634
:1013A00065207472616E736D69742070617274204F
:1013B0006F66204D6F64204441432063616C696215
:1013C000726174696F6E0000706C6174666F726D2B
:1013D000746573740000000076657273696F6E0047
:1013E0005072696E74732076657273696F6E2069CE
:1013F0006E666F726D6174696F6E2E0076657262D3
:101400006F7365005365747320766572626F7369DC
:101410007479206F662068656164657220636F6D02
:101420006D616E64207461672064656C696D207401
:101430006578740068656C70000000005072696E19
:10144000747320746869732068656C70206D656EB4
:10145000750000006C6973740000000062000000F9
:101460006C69737420636F6D6D616E6473206F6659
:1014700020737065636966696564206D6F64756C5F
:1014800065206E616D650000A004010891210008CF
:101490000000000000000000AC0401080FD60008A6
:1014A000B8040108C404010808050108D5D60008DD
:1014B000140501081C0501084805010869D7000842
:1014C000540501085805010880050108912100080C
:1014D00000000000000000008C05010863D2000835
:1014E0009405010898050108BC0501089121000830
:1014F0000000000000000000C80501085F9A000815
:1015000094050108D0050108E00501089F9A00082C
:1015100094050108E8050108FC050108F39A000894
:101520009405010808060108180601089121000821
:1015300000000000000000002406010839DB00085C
:101540002C06010830060108440601089121000814
:10155000000000000000000050060108E9670008D4
:101560002C0601085C06010874060108B36800082F
:101570007C06010884060108A4060108F568000835
:101580007C060108B0060108D00601083F69000882
:101590007C060108D8060108F8060108A5690008BC
:1015A00000070108080701082C070108316A000834
:1015B000940501083807010858070108912100081F
:1015C000000000000000000064070108ADDB000817
:1015D000940501086C07010894070108912100088F
:1015E0000000000000000000A007010851DD000815
:1015F0002C060108AC070108D40701089121000856
:101600000000000000000000E8070108D1DE00082B
:101610002C060108F00701080C0801089FEF0008DC
:101620002C060108180801086C2A00085146000819
:101630002C060108440801085C08010891210008F3
:1016400000000000000000006C0801084DF00008D8
:101650002C06010878080108AC08010877F000089A
:101660002C060108B4080108DC080108F3F00008A2
:101670002C060108E80801080C0901080BF1000814
:101680002C0601081809010838090108EDF20008C4
:10169000440901084C0901088409010845F30008C0
:1016A0008C09010894090108CC090108B1F300086C
:1016B0008C090108D4090108100A010871F4000816
:1016C0001C0A0108240A0108700A0108EDF4000848
:1016D0001C0A01087C0A0108D00A010859F1000817
:1016E0002C060108DC0A01082C0B0108A1F20008F5
:1016F0002C060108380B0108800B01089121000815
:101700000000000000000000782A000833470008AD
:101710002C0601088C0B0108B40B0108B94800081D
:10172000BC0B0108C00B0108EC0B01085F49000865
:10173000F80B0108000C0108340C0108194A0008D4
:10174000BC0B0108400C01086C0C0108BD4A0008E4
:10175000F80B0108780C0108AC0C0108ED4B0008EF
:101760002C060108B40C0108D40C010891210008D2
:101770000000000000000000842A0008B75D000897
:101780002C060108E00C0108F80C0108AD5D00080A
:101790002C060108040D0108240D01089121000800
:1017A0000000000000000000300D010835FC0008BA
:1017B0002C060108340D01087C0D01089121000858
:1017C0000000000000000000902A0008FD5D0008F5
:1017D0002C060108880D01089C2A0008375E0008C5
:1017E0002C0601089C0D0108CC0D0108475E00087D
:1017F00094050108D80D0108180E0108ED5E0008D7
:101800002C060108240E01083C0E01080B5F00089D
:1018100094050108480E0108680E0108775E00086B
:101820002C060108780E01089C0E0108A35E000832
:1018300094050108AC0E0108EC0E0108575F000882
:101840002C060108F40E0108280F0108BF5F0008EC
:101850002C060108300F0108580F0108DD5F000851
:101860002C060108600F0108AC0F01089121000847
:101870000000000000000000BC0F0108F5A00008F7
:1018800094050108C80F010808100108B99F000855
:101890002C0601080C1001081C10010891210008F9
:1018A0000000000000000000A82A000849650008A8
:1018B0002C0601082C1001085010010815620008C0
:1018C0002C0601085C100108801001083562000830
:1018D0008C10010890100108B01001087162000816
:1018E0002C060108BC100108D810010895620008F8
:1018F000BC0B0108E41001080C110108A1620008EA
:10190000BC0B0108101101082C1101082564000806
:101910002C06010838110108601101085B640008F9
:101920002C0601086811010884110108A36400084D
:101930002C06010890110108B0110108FD6400088F
:1019400094050108BC110108D411010807650008BD
:10195000B8040108E41101082012010891210008CF
:101960000000000000000000301201083DAE000839
:10197000940501083C1201086812010873AE0008C2
:101980002C06010878120108A0120108ADAE00086B
:101990007C060108B0120108F8120108E7AE000841
:1019A0008C10010808130108401301089121000858
:1019B00000000000000000004C1301084500010871
:1019C0009405010858130108C81301089121000863
:1019D0000000000000000000D8130108D525000811
:1019E0002C060108E0130108FC130108B5240008C7
:1019F000B8040108041401083414010893210008F4
:101A00002C0601083C140108541401085F23000847
:101A10005C140108601401080000000000000000D0
:101A200000000000000000004941434356494F4C6C
:101A30003A20617474656D7074656420696E7374A6
:101A400072756374696F6E20666574636820667270
:101A50006F6D2061206E6F2D6578656375746520EC
:101A600061646472657373004441434356494F4C4B
:101A70003A20617474656D70746564206C6F616484
:101A8000206F722073746F726520617420616E2004
:101A9000696C6C6567616C20616464726573730066
:101AA000000000004D554E53544B4552523A20759C
:101AB0006E737461636B2066726F6D206578636509
:101AC0007074696F6E2072657475726E20636175D3
:101AD000736564206163636573732076696F6C61FD
:101AE00074696F6E000000004D53544B4552523ADA
:101AF00020737461636B696E672066726F6D206519
:101B00007863657074696F6E2063617573656420B6
:101B10006163636573732076696F6C6174696F6E5E
:101B2000000000004D4D415256414C49443A204D71
:101B30004D415220636F6E7461696E732076616CE3
:101B40006964206661756C74206164647265737386
:101B500000000000494255534552523A20696E73C5
:101B60007472756374696F6E2070726566657463F4
:101B700068206361757365642062757320666175A2
:101B80006C7400005052454349534552523A2070FC
:101B90007265636973652064617461206275732086
:101BA0006661756C74000000494D505245434953BD
:101BB0004552523A20696D7072656369736520649D
:101BC00061746120627573206661756C7400000039
:101BD000554E53544B4552523A20756E737461639F
:101BE0006B696E67206F6E20657863657074696FCE
:101BF0006E2072657475726E206361757365642002
:101C00006461746120627573206661756C74000094
:101C100053544B4552523A20737461636B696E673B
:101C2000206F6E20657863657074696F6E20656ED5
:101C300074727920636175736564206461746120D6
:101C4000627573206661756C7400000042464152F3
:101C500056414C49443A204246415220636F6E74CB
:101C600061696E732076616C6964206661756C745D
:101C7000206164647265737300000000554E444532
:101C800046494E5354523A20747269656420746F09
:101C9000206578656375746520616E20756E646576
:101CA00066696E656420696E737472756374696FBA
:101CB0006E000000494E5653544154453A20696E17
:101CC00076616C69642045505352202D20652E6743
:101CD0002E2C20747269656420746F207377697488
:101CE000636820746F2041524D206D6F6465000061
:101CF000494E5650433A20657863657074696F6E3B
:101D00002072657475726E20696E7465677269748D
:101D10007920636865636B73206661696C65640034
:101D20004E4F43503A20617474656D707465642041
:101D3000746F2065786563757465206120636F70CA
:101D4000726F636573736F7220696E7374727563FB
:101D500074696F6E00000000554E414C49474E4576
:101D6000443A20617474656D7074656420616E20FE
:101D7000756E616C69676E6564206D656D6F7279F3
:101D8000206163636573730044495642595A455252
:101D90004F3A20617474656D7074656420746F20AF
:101DA000657865637574652053444956206F7220C9
:101DB0005544495620776974682064697669736F61
:101DC00072206F66203000005245534552564544FC
:101DD0003A20617474656D70746564206163636535
:101DE00073732070617374206C61737420706572FA
:101DF0006970686572616C20726567697374657279
:101E000020616464726573730000000050524F5487
:101E100045435445443A20617474656D707465643B
:101E20002075736572206D6F6465207772697465C3
:101E300020746F2070726976696C656765642070C4
:101E400065726970686572616C00000057524F4E90
:101E50004753495A453A20617474656D70746564DE
:101E600020382F31362D6269742061636365737386
:101E700020746F207065726970686572616C207281
:101E8000656769737465720054696D65723100002D
:101E900054696D65723200004D616E6167656D65F4
:101EA0006E7400004261736562616E640000000040
:101EB000536C6565705F54696D6572005343310002
:101EC00053433200536563757269747900000000F2
:101ED0004D41435F54696D65720000004D41435FA1
:101EE000545800004D41435F5258000041444300A4
:101EF0004952515F410000004952515F42000000C9
:101F00004952515F430000004952515F44000000B4
:101F1000446562756700000001FF23E175E463E238
:101F200063E562E179EB64EE24E125E126E145D247
:101F300010E211E212E213E214E215E220E274E28E
:101F40000DFF56E400E501E502E550E251E2000034
:101F5000000100010100000000000000000000007E
:101F60000000010000000000000000000204110455
:101F7000040211101A080A041110111A080A040D9B
:101F80000B195C1028122A00010101010101010155
:101F90000101011000000000000001000600000126
:101FA00001010000FC030000000000000000000030
:101FB0000000000000000000000000000000000021
:101FC0000000000000000000000000000000000011
:101FD0000000000000000000000000000000000001
:101FE000FFFFFF00000000000000000000000000F4
:101FF00000000000000000000000000000000000E1
:1020000000000000000000000000000000000000D0
:10201000FFFF0000FFFFFFFFFFFFFFFFFFFF0000CC
:102020007F807F80000000000000000000000000B2
:1020300000000000000000000000000000000000A0
:102040000000000000000000000000000000000090
:102050000000000000000000000000000000000080
:102060000000000000000000000000000000000070
:102070000000000000000000000000000000000060
:10208000FFFFFFFFFFFFFFFFFFFF0000000000005A
:102090000000000000000000000000000000000040
:1020A0000000000000000000000000000000000030
:1020B0000000000000000000000000000000000020
:1020C0000000000000000000000000000000000010
:1020D0000000000000000000000000000000000000
:1020E00000000000000000000000000000000000F0
:1020F00000000000000000000000000000000000E0
:1021000000000000000000000000000000000000CF
:1021100000000000000000000000000000000000BF
:1021200000000000010000000000000000000000AE
:10213000000000000000000000000000000000009F
:10214000000000000000000000000000000000008F
:10215000000000000000000000000000FFFFFFFF83
:10216000FFFFFFFFFFFFFFFFFFFFFFFFFF0000007C
:10217000FFFFFFFFFFFFFFFFFFFFFFFFFFFFFFFF6F
:10218000FFFFFFFFFFFFFFFFFFFFFFFFFFFFFFFF5F
:10219000FFFFFFFFFFFFFFFFFF000000A41F01087C
:1021A000A81F0108AC1F0108C01F0108C41F0108B7
:1021B000C81F0108CC1F0108E01F0108F01F01081B
:1021C0000C20010814200108202001082420010807
:1021D00038200108482001085C2001087820010807
:1021E000802001088C20010890200108A02001080F
:1021F000AC200108C820010824210108342101086D
:102200005C21010870210108020000040000FF07A2
:102210000008FF0F00041B0031000000011B091B18
:102220001B0109080D0405020908090D04051B0717
:10223000060D2E0814091500554E4B00474F20007F
:1022400042544C00474F3200474F3300474F340051
:10225000474F3500474F3600474F3700474F38004C
:10226000474F3900474F4100474F4200474F430017
:10227000474F4400474F4500474F46004A4D5000E6
:10228000424452005550520042544D004D534D00AF
:1022900046544C00554E4B00474F200042544C00D2
:1022A0004241440046544C00465243004F544100C2
:1022B00044534C00554E4B0050494E00554E4B0078
:1022C000485620004C562000554E4B0045585000B3
:1022D0004C574D00554E4B005242540044534C0055
:1022E000554E4B0041535400554E4B005646590035
:1022F000494E4800554E4B004C434B0058544C003F
:102300004F424600554E4B00485244004D454D004B
:10231000425553005553470044424700444D410045
:102320005643540000366E0140004000400040001B
:102330006E6F206572726F720000000073657269C3
:10234000616C20706F7274206572726F7200000091
:10235000636F6D6D616E642070726F636573736F10
:1023600072206275737900006E6F20737563682048
:10237000636F6D6D616E6400696E636F7272656329
:102380007420636F6D6D616E6420617267756D6539
:102390006E747300746F6F206D616E7920636F6D62
:1023A0006D616E6420617267756D656E7473000097
:1023B000696E746567657220617267756D656E74AC
:1023C000206F7574206F662072616E676500000073
:1023D000617267756D656E742073796E74617820B3
:1023E0006572726F720000006D65737361676520BE
:1023F000746F6F206C6F6E67000000006D697373FF
:10240000696E672062696E617279206D65737361B0
:102410006765207465726D696E61746F720000008B
:102420007E0796079C07A207AA07BE07D207DC070C
:10243000DE07E007E207E407F407F607F8070008FD
:10244000100812081A082A083A083C083E084E08E4
:1024500056087E08DA08EE08F008F208F408F608D4
:10246000F80808090E090080FF0000008814010820
:10247000AD250008A02500200A1000000000000083
:10248000000000000000000000000000000000004C
:10249000000000000000000000000000000000003C
:1024A0000101010101010101010000000C6388012B
:1024B000221144336655040001009C6301000403AB
:1024C00005000100014B4B000000002060090020C6
:1024D000AB090020F6090020410A00208C0A0020E8
:1024E000060000009A0A00207C0B0020C40B00208C
:1024F00010000000B20C00200500EFBECEFA010073
:102500001000000825E80B06110000401F101012F3
:10251000128000401D031013130000201BC00B137A
:102520001400002008000B101500002012000B13EF
:102530001600002012000B131700002012000B13CE
:10254000E84FE40049199911918809981449141821
:10255000EF5E650088188811118881881881181825
:10256000FE000000EC2A0020742B0020FC2B002031
:10257000842C00200C2D0020542D00209C2D0020A8
:10258000E42D0020302301083C23010850230108DA
:10259000682301087823010894230108B023010867
:1025A000D0230108E8230108FC230108FF000000F4
:1025B0000B010000031800001316191C1F00000077
:1025C000008001000101017F01FF0100FEFFFFFF0C
:1025D000C81A0020010010000100FFFFFFFF0000EB
:1025E000FFFFFFFFFFFFFFFFFFFFFFFFFFFFFFFFFB
:1025F000FFFFFFFFFFFFFFFFFFFFFFFFFFFFFFFFEB
:10260000FFFFFFFFFFFFFFFFFFFFFFFFFFFFFFFFDA
:10261000FFFFFFFFFFFFFFFFFFFFFFFFFFFFFFFFCA
:020000040804EE
:020000040804EE
:00000001FF
