:020000040800F2
:100000000004002079000008850000088500000831
:10001000A70B090100000000010150540040000836
:10002000040B0000830A0008450D0008780500084D
:1000300000000000000000000000000000000000C0
:100040000000000000000000000000005604000056
:10005000FFFFFFFF06480068202100EA010028B1E9
:100060000448016842685FEA010D104770470000CC
:100070002C00004000400008FFF7ECFF00F00EF8F5
:1000800000F042F806E000005FEA000D70474548C6
:10009000008870474FF4017000F09EB838B54FF2F9
:1000A0000F04414D00F0C6F828B140F20520288029
:1000B0006C80012032BD3D480068C00615D56888B7
:1000C000A0421ED1288840F2022188421CBF40F283
:1000D0000621884215D040F2011188421EBFB0F5BA
:1000E0008A7F40F2111188420BD0314C208A40F6B1
:1000F000A721884205D12068FFF7C6FF60688047C6
:1001000000BF002032BD000038B50400294872B697
:10011000016849084900016000F0D2F823480068EE
:10012000000910F001000CBF2349244902E0CD2250
:1001300001F8012B224A9142F9D32249224A234B4A
:1001400003E011F8015B02F8015B9A42F9D3204900
:10015000204A002301E001F8013B9142FBD3124AFF
:1001600053884FF20F05AB4240F205210AD11388A4
:100170008B4205D030B1180A012818BF022801D1DE
:10018000194601E004B90021064801804CF23C30D8
:10019000508000F0C7F94FF40170BDE8324000F024
:1001A0001BB80000240C0020000000202C000040A0
:1001B00000400008FCED00E0000000209800002056
:1001C00000040020F81100080004002004040020AE
:1001D000040400202D0C00200E4A302111600E4A2C
:1001E00011600E4A116010210D4A1160010A0029A8
:1001F0000C4908BF000208804FF20F004880BFF38F
:100200005F8F094800210160416008480849086083
:10021000704700003020004030C8004030C000402F
:1002200010E00040000000201C4000400400FA05DF
:100230000CED00E00020704780B500F0B6F9012118
:10024000062000F0BFF9062000F0F2F90121072096
:1002500000F0B8F9072000F0DFF91748016821F035
:100260001001016001BD0000052800D9704710B5DC
:10027000DFE800F01721030F1C17104C2088411EE7
:100280002180C0B9072000F0DFF942F21070208011
:1002900010BD072000F0CCF9BDE81040062000F0AA
:1002A000D3B9BDE81040062000F0B6B9BDE8104053
:1002B000062000F0BDB910BD00BC0040260C002097
:1002C000794951200860704738B5054600F060F95B
:1002D0007649B0FBF1F44FF4F070B0FBF4F02D1A56
:1002E0001E2DBCBF4FF40170FFF776FF7048714AB6
:1002F000072101600021416081604FF000711160B1
:1003000005FB04F1C91C8908491E416031BD6A4AD8
:1003100001215170D8E76A48016841F0010101608C
:1003200001214160512060490860704700207047FA
:100330002DE9F047814661485F4E056840F2DC5880
:10034000012DC2465A485F4F5F4C1BDA0221618083
:1003500039600068C00348BF00F08DF8B86900F04C
:10036000030003285FD0002D03D5B86940F00200D8
:10037000B8614846FFF7DAFF5FEA000A1AD1002D9C
:1003800051D54EE061884FF6FF75A9421DD14F4807
:10039000018802237F22A01C00F06CF96088A8422B
:1003A00004BF02206080B869800703D4B86940F0B8
:1003B0000200B8610120B070608838600FFA8AF0DE
:1003C000FFF7A5FF5046BDE8F087B9698907EDD56D
:1003D0000068C00348BF00F04EF8B07808B140464E
:1003E000F1E7B868B968628810F0010003D10F2AFC
:1003F00008D2521C06E0890704D5217811B1032ADE
:10040000A8BFAA1892B2022A2070B8BF0222628046
:10041000386861888842CDD1B86900F003000328AC
:1004200001D0FFF778FF0020CDE710B5044628483B
:10043000017869B9C078072818BF092813D00328A4
:1004400018BF11280FD013281CBF15280B280AD05D
:100450002048016841F48071016004E000F03EF939
:100460000620FFF763FF2046FFF762FF0028F5D163
:1004700010BD0220D9E70E480E4A0021416081607C
:10048000016821F00201016000210B4841704FF02A
:1004900000711160817801B9704780B500218170C9
:1004A0000620FFF743FF01BD0080004090D003000D
:1004B00010E000E004ED00E0280C0020F01100083E
:1004C0001C4000400440004000040020F4110008DB
:1004D00096070808384000400078704730B5DBB018
:1004E0000446214636A800F04BF9002000904FF456
:1004F00002630B4A36A901A800F0C3FA0FF26C029E
:100500000FF2740001A900F01DFC054600F056F83A
:100510001DB12146284600F07FF928465BB030BD6A
:100520000404002080B5FFF7A4FFFFF7B0FDB0F58D
:100530008A7F09D100F026FC00F08AFC0028FBD05D
:1005400040F21110FFF748FEFFF776FE00F01AFCAC
:1005500000F0A4FC40F20120FFF73EFE002002BDA7
:10056000012A08BF00F023BC704700006711000893
:10057000A3110008D9040008CF090008070A0008E1
:1005800019480068C00701D41848704718487047D8
:1005900080B5FFF7F5FF1749096801B9400802BDAA
:1005A00080B5FFF7EDFF400802BD134801218160CF
:1005B0004EF6BE2141600121016070470F490120C4
:1005C0000860704710B50FF23802830852F82320F4
:1005D000136800F0030080000F248440A34301FA55
:1005E00000F01843106010BD1C400040001BB70015
:1005F00000366E012040004000600040086000406E
:1006000000B0004004B0004000B2004004B200401E
:1006100000B4004004B40040C108032907DA0121F6
:1006200000F007029140C00840020F4A1150704785
:10063000C108032907DA012100F007029140C00830
:1006400040020A4A11507047C10803290ADA084AD1
:1006500002EB412101230A6800F0070003FA00F0D1
:10066000504008607047000014B0004010B00040D7
:100670000CB0004030B5044610467F2808BF00206B
:10068000B1F5004F83B01AD108237F2240F6120142
:1006900000A8FFF7EFFF08220FF2380100A800F0D2
:1006A0001CFD30B908237F2240F2A27100A8FFF799
:1006B000E1FF082200A9204600F0F6FC37BD044DFA
:1006C000294300FB03111A46204600F0EDFC37BD1C
:1006D00000000808FFFFFFFFFFFFFFFF70B5234C7E
:1006E00025680646FFF75CFF2149B0FBF1F0704337
:1006F0002F303021B0FBF1F0032809D3616D41F0B8
:10070000010161652168491B0903090B8142F9D385
:1007100070BD38B50C4620B101280FD0032820D079
:1007200021E0144D44B1FFF73BFF1349B0FBF1F05A
:10073000401EB0F5005F0CD2286012E04CB1FFF70C
:100740002FFF610801EB4000B0FBF4F0B0F5003F73
:1007500001D3202032BD094900F001024A6040085F
:100760000860002032BD212032BD0000382000404A
:1007700090D00300100004E020A1070068C80040EA
:10078000017001224270012982700CBF802140213A
:1007900081800021C18001811D4801600E2181629C
:1007A000016821F01001016000214163416270473E
:1007B000F8B50D4604461749154F4FF0FF30086055
:1007C0001646FE6200207862386840F0010038600A
:1007D000FFF7F4FE012C19D16DB900F039FB78B99F
:1007E000786AB042F4D3002EF2D038684008400056
:1007F00038601620F2BD284600F032FB0028EFD109
:1008000038684008400038600020F2BD0120F2BD89
:1008100000F0004000A8004038B504460D4600F046
:1008200009F800F007F82A462146BDE838401820AC
:10083000FFF796BE2A4621461820FFF791BE38B52D
:100840000446002020814AF6B432207800A9FFF740
:10085000AFFF08B11C2032BD9DF80000032818BF6F
:10086000182801D1182032BD042801D1172032BD2B
:10087000012801D0212032BD002500E06D1CA18897
:10088000EDB2091D8D420BDA281900F10A0120781A
:1008900040F2DD22FFF78CFF0028EFD0262032BD8A
:1008A0000025002006E00146EDB22819007B00F08B
:1008B00027FC6D1CA188EAB28A42F4D3A27AE37ABB
:1008C0009B18FF2B01D0222032BD0B191D7BB5EBED
:1008D000102F01D0232032BD5B7BC0B2834201D0F8
:1008E000242032BDA078824207D0401EC0B282428E
:1008F00001D1272032BD252032BD881C2081022055
:10090000E080002032BD38B504466078012804D06C
:1009100023D3032854D018D31FE02078012811D105
:100920003B25432000F043FA207840F2DD220021ED
:10093000FFF73EFF30B12846451EC0B20028F0D177
:100940001B2032BD022060700FE000F09BFA00F027
:1009500039F8A078401CA07007E0182032BDA078BC
:100960002278411EC9B200F02FF82046FFF767FF3A
:10097000050018BF00F086FA272DF0D0A8060BD589
:100980002278A1781520FFF7EBFD002DEDD1032093
:10099000FFF76AFC002032BD680603D4182D18BF8B
:1009A0001C2D07D121782846FFF736FF0420607000
:1009B000284632BD172DE8D100F004F803206070FE
:1009C000172032BD2278A1780620FFF7C9BDF8B5FF
:1009D00004460D461646002706E0E088411C001933
:1009E000E180807A78557F1CBFB2B74209D2E08897
:1009F00021898842F1D32046FFF785FF0028ECD0FB
:100A0000F2BD0020F2BD10B504462046FFF77BFF83
:100A10000028FAD010BD0000F8B504460D46164671
:100A20001F4607E03046A047294600F07BFB0546FD
:100A30007F1E761CBFB2002FF4D12846F2BD38B518
:100A40000C46154605E0014614F8010B00F06AFB60
:100A50006D1EADB2002DF6D132BDF8B504460D467F
:100A60001F461646286823683A46314698470400D0
:100A700005D1E8683A463146FFF7E1FFE8602046D5
:100A8000F2BD10B5029C84720381426001604FF098
:100A9000FF31C1600021017410BD2DE9F84F894676
:100AA000044699F81BB0D068A249BBF1800FA8BFDB
:100AB0004FF0800B88421E4651D1002E4DD0B068B9
:100AC00000904FF0FF38002509EB450A9AF848706E
:100AD0000DE0FFF773FDF80240F0006200984FF45C
:100AE00000634146FFF798FF8046781CC7B20AF1C1
:100AF00048004078B84204DA681CC5B2062D02DA14
:100B0000E2E7FF2FE5D1D9F844006FEA08018842F7
:100B100025D1A068736800BA4FEA5B02494698473E
:100B2000C8B9E06805BAA06802BAB0685B464FF081
:100B3000FF31FFF771FFC04385420CD140F6A7207B
:100B4000A9F810000122A068736800BA09F1100129
:100B50001030984708B1422002E0172000E04320FF
:100B6000BDE8F28F2DE9F04F0D4683B08046D5F8F1
:100B700004A02889ADF80400914605F1140606F199
:100B80001007042352464046FFF767FF002870D144
:100B9000BAF8000040BA80B20090BAF8020040BA39
:100BA00084B2E00748BF462063D4B4F5026FC8BFE3
:100BB0004E205EDC002C5BD00098DFF87CB148B1A1
:100BC0004FF60441401A00F09C80FF3853D0FE38A5
:100BD00051D0ACE0287C08B151204AE08D2C28BFD0
:100BE0004F2046D22346321D00F0A9F8002840D1FC
:100BF000FA7E802AA8BF802202F10C00844201BF45
:100C0000B08840BA00F47F40B0F5007F2CD1F08866
:100C100040BA4EF25031884202BF388A40F6A721CE
:100C2000884221D1788A00F47F40B0F5807F01BFEF
:100C3000B06800BADBF81C10884215D14FF6FF707F
:100C4000388206F110014FF0FF30FFF7F8FEF1682F
:100C500009BAC943884204BF387E042804D1787E8B
:100C60000B2818BF062801D0452002E00120287477
:100C70000020BDE8FE8F287C002844D0042300F02B
:100C80005DF80028F5D1DAF8000006BA201F84B21A
:100C9000DBF81C00864238BF4820EAD3796DA019E2
:100CA000884228BF4920E4D200984FF60351884279
:100CB0000DD1B9F1000F0AD0D9F800203146022039
:100CC000904720B14A20D4E7E01B84B2BE19002C23
:100CD000CED0BDF804008442B4BF274607463B4649
:100CE00000F02CF80028C4D1B9F1000FECD0D9F8ED
:100CF00004307A085146304698470028E4D04B200B
:100D0000B7E7287C08B94120B3E7042C18BF4C2072
:100D1000AFD16A68042300F012F80028A9D14B462D
:100D20002A463946304603B0BDE8F04FB5E64420C8
:100D30009FE70000E320BBDE000000085246294682
:100D400040468AE670B50D4604462889C107164616
:100D500001D4802803DA4F2070BDA87A78B93246D2
:100D600029462046FFF7FEFE0028F6D0172807D1B7
:100D7000286861688847172802D1002070BD50207C
:100D800070BD000080B54FF4E1310120FFF7C1FCD8
:100D90003948022181600121016009200921FFF702
:100DA00011FCBDE8044004210A20FFF70BBC3449C4
:100DB000CA685207FCD50860704710B5044603E0C6
:100DC00014F8010BFFF7F3FF20780028F8D110BDCD
:100DD00030B583B00FF2BC0218CA00A9042218C1B2
:100DE000052100AD0DE080B20A2390FBF3F30A2445
:100DF00004FB1304E4B2184604F130034B5504B16C
:100E00000A46491E49B20029EDD500A8D2B21018F1
:100E1000FFF7D3FF37BD10B5044620090A28ACBF41
:100E200037303030C0B2FFF7C2FF04F00F000A289D
:100E3000BDE81040ACBF37303030C0B2B7E710B5B6
:100E40000446200AFFF7E7FFE0B2BDE81040E2E702
:100E50000A480068800701D50120704700207047CC
:100E600010B50446FFF7F4FF20B105480068207074
:100E7000002010BD012010BD54C8004048C80040EB
:100E80003CC8004080B500A8FFF7EAFF0028FAD070
:100E900001BD000030303030300000002DE9F84F47
:100EA000FFF78CFBFFF7EEFF0020FFF7DDF90FF2F5
:100EB0007418474D0FF2401BDFF818910FF2181A03
:100EC00041A642A41EE05046FFF777FF0C27B9F871
:100ED0001A00F84000F00F00FFF77AFF012FA4BFBF
:100EE0002E20FFF764FF3F1FF1D52046FFF765FF77
:100EF00009F11A00408EFFF76BFF5846FFF75DFFC0
:100F0000FFF7C0FFFFF75AFB0220FFF7ADF900A87B
:100F1000FFF7A6FF0028F5D19DF80000FFF747FF77
:100F20009DF800000A2818BF0D28CCD0312804D025
:100F300032282ED0332831D0E2E70FF2F800FFF745
:100F40003CFF0120FFF7CAFA07460FF2FC00FFF74B
:100F500034FF2FB90520FFF787F90FF20010CDE716
:100F60000420FFF781F90FF20010FFF726FFB80603
:100F700048BF0FF2001005D478064CBF0FF20C10DA
:100F80000FF21810FFF719FF3846FFF758FF3046E9
:100F9000B4E70120FFF768F9BDE8F18F002730467C
:100FA000FFF70BFF288A40F6A721884218BF40466A
:100FB000A4D178197F1C90F8240020B1FFF7F7FE28
:100FC000FFB2202FF5DBE2E70D0A000020620000EF
:100FD00000400008000000080D0A454D3335383246
:100FE0002053657269616C20426F6F746C6F61642D
:100FF00065722076000000000D0A312E2075706C9D
:101000006F61642065626C0D0A322E2072756E0D60
:101010000A332E2065626C20696E666F0D0A424CA1
:10102000203E20002A2A206E6F20617070202A2A1C
:101030000D0A00000D0A626567696E2075706C6F9D
:1010400061640D0A000000000D0A53657269616C4D
:101050002075706C6F61642000000000636F6D701C
:101060006C6574650D0A000061626F727465640DD1
:101070000A0000000D0A584D6F64656D20626C6FA8
:10108000636B206572726F72203078000D0A66699A
:101090006C65206572726F72203078000D0A65727F
:1010A000726F722030780000814212D210185118ED
:1010B000401E491E92B2002A1EBF11F8013900F8E5
:1010C0000139521EF6D1704711F8013B00F8013B7F
:1010D000521E92B2002AF7D1704710B500E0521E9E
:1010E00092B222B100F005F8F9D0181B10BD002013
:1010F00010BD10F8013B11F8014BA34270470000EE
:101100000A0242EA11214840C0F30311484080EA34
:10111000003041010206C9B2D20E41EA0221484024
:1011200080B270470A0A4840C0B208214308C0078D
:1011300046BF034858401846491EF7D150407047F3
:101140002083B8ED2748018A40F6A772914202BF7A
:10115000408A4FF47F41084203D1022801DB01207D
:10116000704700207047F8B504461D4E01200D461B
:101170003070FFF7E7FF18B94FF40170FFF72CF854
:1011800029461848876A44F48070B84700213170B6
:101190000FF2540618B9294644F40070B847805D30
:1011A000F2BD2DE9F041044688465600FFF7CAFF1C
:1011B00018B94FF40170FFF70FF80A48476A002387
:1011C000324641462046B8470FF21C0520B9334647
:1011D000002241462046B847405DBDE8F08100004E
:1011E0002C0C002000000808000202024B4B46476E
:1011F00000366E01EE0800000100FFFFFFFFFFFF59
:10120000FFFFFFFFFFFFFFFFFFFFFFFFFFFFFFFFEE
:10121000FFFFFFFFFFFFFFFFFFFFFFFFFFFFFFFFDE
:10122000FFFFFFFFFFFFFFFFFFFFFFFFFFFFFFFFCE
:10123000FFFFFFFFFFFFFFFFFFFFFFFFFFFFFFFFBE
:10400000286D0020C5300108F12A0108F52A0108B1
:10401000A70A080100410008040B03AC50545604E1
:10402000974511570000000000000000000000004C
:104030000000000000000000000000000000000080
:1040400000000000AFD85F4D082AFFFFFFFFFFFF11
:10405000FFFFFFFF00E00308000000000000000079
:10406000BF0C899C242702CEFFFFFFFFFFFFFFFF4D
:10407000FFFFFFFFFFFFFFFFFFFFFFFFFFFFFFFF50
:10408000F07F002000000000EF7F0020EF7F002085
:10409000286D0020CC56010858330108C863002061
:1040A000AC0D00200000040800800020FFFFFFFF8F
:1040B000FFFFFFFFFFFFFFFFFFFFFFFFFFFFFFFF10
:1040C000FFFFFFFFFFFFFFFFFFFFFFFFFFFFFFFF00
:1040D000FFFFFFFFFFFFFFFFFFFFFFFFFFFFFFFFF0
:1040E000FFFFFFFFFFFFFFFFFFFFFFFFFFFFFFFFE0
:1040F000FFFFFFFFFFFFFFFFFFFFFFFFFFFFFFFFD0
:10410000286D0020C5300108F12A0108F52A0108B0
:10411000FD2A0108F92A0108012B0108782B010862
:10412000782B0108782B0108782B0108782B0108DF
:10413000052B0108782B0108782B010865960008EB
:10414000C3050108782B010873A10008782B01082A
:104150002F9A000845A00008782B0108782B010849
:1041600035F200089FB500081BCF0008E5D4000811
:10417000782B010817D800085FD80008A98F00081D
:1041800099590008782B0108782B0108DD2B0108CC
:1041900070472DE9F84FDFF81C580FF290010446E4
:1041A0002878002600F088FD0FF2A82A0FF2645B41
:1041B0000FF25058DFF8009804E0514600F07CFD03
:1041C000701C86B2226828783701B9184B689BB1F9
:1041D000BA584B4503D1414600F06EFDF0E78B68BD
:1041E000594600F069FD20683818C2682878002A0E
:1041F000E3D00FF22851EFE70FF2A40100F05CFDCD
:1042000028780FF2C40100F057FD28780FF2E8017A
:1042100000F052FD28780FF20C1100F04DFD2878C7
:104220005146BDE8F44F00F047BD0000434F4D4DEF
:10423000414E44205B504152414D45544552535DDF
:10424000205B2D204445534352495054494F4E5D05
:104250000D0A202077686572653A20623D627566B6
:104260006665722C2073313D696E7438732C20732F
:10427000323D696E743136732C2075313D696E7430
:1042800038752C2075323D696E743136752C207569
:10429000343D696E743332750D0A0D0A000000005A
:1042A00020202120202D20526563616C6C732074C6
:1042B00068652070726576696F757320636F6D6DC8
:1042C000616E640D0A00000020205B7461625D2055
:1042D0002D20417474656D70747320746F20746147
:1042E0006220636F6D706C65746520636F6D6D61C6
:1042F0006E640D0A00000000202020202A2A204E93
:104300004F54453A20616C6C20696E70757420764C
:10431000616C7565732061726520696E20686578CF
:10432000210D0A00202020202A2A20436F6D6D6174
:104330006E647320617265204E4F54206361736513
:104340002073656E7369746976650D0A000000005C
:10435000A0F141011A293CBF2030C0B270472DE9BD
:10436000F84F0546DFF85416A86800680968DFF8BA
:104370004466C0B2002410F80180B8F1210FA346B2
:1043800007DB30780FF2D001BDE8F84F202200F0B3
:1043900093BC00F0B9FC8246A14607E019F80A0078
:1043A000FFF7D6FF09F80A0009F10109C145F5DB5D
:1043B00042460FF2E801504600F042FF40B94FF08C
:1043C000010B05E030780FF2DC013A4600F074FC96
:1043D0002968200142185268130039D0641CDFF8A4
:1043E000D8954A45A4B2F3D14758BBF1000FE9D1A3
:1043F000384600F039FF4045EAD14246514638463A
:1044000000F012FF0028E3D10FF2EC280FF20C3B72
:104410000FF2980A04E0414600F04EFC641CA4B27E
:104420002868270139184A68130018BF4A450FD079
:104430003A588B683078514600F03EFC28683818AE
:10444000C2683078002AE6D0594600F035FCE5E72E
:10445000BDE8F18F0D0A00004572726F723A206C50
:1044600069737420617267756D656E7420746F6F07
:10447000206C6F6E672C207765206F6E6C792073CF
:104480007570706F727420757020746F20257520A0
:1044900062797465732E0D0A000000006D6F6475FB
:1044A0006C65730025700D0A000000002570202542
:1044B0007000000070B5044688B0A068DFF80055B1
:1044C0000068DFF800652870A068406830700FF25F
:1044D000580001F0B7F8A168DFF8EC04C9682B7840
:1044E0000170A26800781269DFF8E01405900A7084
:1044F0000FF25C0009780FF260020490079101202E
:1045000003907EA002900FF258013078019006913E
:1045100004F111010FF2500000900FF2540001F06D
:1045200091F808B070BD00005475726E696E672016
:104530006F66662074616773206E6F74207965748E
:1045400020737570706F727465640D0A000000004E
:1045500064656C696D0000006865616465720000E7
:104560007465787400000000636F6D6D616E6400A7
:104570007B264E20566572626F73697479206F7066
:1045800074696F6E732073657420746F3A0D0A2618
:1045900074750D0A2674750D0A2674750D0A267435
:1045A000750D0A2674757D0D0A000000DFF82014D1
:1045B000007C51F82020DFF8FC030FF2080100789E
:1045C00000F07ABB4349204572726F723A20257021
:1045D0000D0A000038B5DFF8DC43207846A500F06E
:1045E00035FA20780FF2340100F066FB00F02DFA66
:1045F00020780FF24C0100F05FFB207840A100F022
:104600005BFB20780FF2440100F056FB20780FF29C
:104610004801BDE8344000F04FBB0000456D6265C5
:1046200072204E6F64652054657374204170706C05
:1046300069636174696F6E2076312E30000000006E
:1046400041707220313520323031360032303A3408
:10465000383A3237000000000D0A0D0A0000000051
:104660002DE9F24F044682B0256BDFF8489390465F
:10467000002705E020A100F01FFB7F1CBFB2103512
:104680006868B8B32E68DDF808A04FF0000B0EE0A4
:104690001AF8010BFFF75CFE009016F8010BFFF70C
:1046A00057FE0099C9B28142E7D10BF1010B1FFA05
:1046B0008BFBC345ECD32068DFF8FCC23E01311808
:1046C00032584B6899F80000634504D10FF2340169
:1046D00000F0F2FAD1E78B680FF2380100F0ECFA43
:1046E00020683018C26899F80000002AC2D00FF282
:1046F0002C01EDE7BDE8F78F0D0A0000746167003B
:104700002C2000002D2D2D2D202570202D2D2D2D20
:104710000D0A00002020257020257000202D202566
:10472000700D0A002DE9F0439BB00EA80FF2A421F2
:10473000342200F0B9FF4FF000098DF80190A52058
:1047400001F002F801F050F8002201230F21104679
:1047500001F0AEF9050006D0002201230A2110461F
:1047600001F0A6F90546012300220F21184601F0A9
:104770009FF9060006D0012300220A21184601F005
:1047800097F90646012300220F21022001F090F93B
:104790005FEA000806D0012300220A21022001F06E
:1047A00087F9804601F08AFB824C5DB1002E68D00B
:1047B000B8F1000F6BD040F2BD110FF24C2001F0A8
:1047C00083FB04E0002E18BFB8F1000F62D084F81C
:1047D0000090201D01F0A6FC201DFFF7FBFE0FF24C
:1047E000382500F032F920780FF2802100F064FAC9
:1047F00020786DA600F026F9201D01F029FF00F0B9
:1048000024F920780FF2702100F056FA00F019F91F
:10481000201D01F08EFF00F018F920780FF26421BE
:1048200000F04AFA00F00DF9201D03F0C4FA00F080
:104830000CF920780FF2582100F03EFA00F001F94F
:10484000201D03F0DBFA00F000F920780FF24C2174
:1048500000F032FA00F0F5F8201D03F0ECFA00F059
:10486000F4F820780FF2402100F026FA00F0E9F881
:10487000201D03F0A5FE4DA54DA60FF2A41801AF13
:104880003FE0B8F1000F05D001202070A1E7022021
:10489000FBE725702078FF289BD1002500A928463A
:1048A00001F048F938B99DF800000D2818BF0A2812
:1048B00018BF2A28EDD06D1CEDB2032DEEDBE9E721
:1048C0008DF800009DF80010CA5D481C0A2A18BF28
:1048D0000D2A18BF002AF3D10D22CA558DF8000009
:1048E00001A99DF80020201D01F028FC9DF8002062
:1048F00001A90EA800F04EFC9DF8009000208DF854
:10490000010000F0A6F820780DF10103322201A980
:1049100001F05AF90028D3D000F012FF04F064F936
:104920009DF8010020B39DF8011001A8081810F8A7
:10493000010C09281CD100F084F89DF80100401EEC
:104940008DF8010001A99DF80120201DFFF788FEC8
:104950009DF801100020C85500F07BF8002004E00D
:1049600000F06AF89DF80000401C00F05DF8F7D3F5
:104970009DF804002128C6D100F063F84A460EA92C
:1049800001A800F007FCA9F101008DF8010000F07A
:1049900060F8002000F048F8B5D200F04DF89DF81E
:1049A0000000401CF6E700005D0D0A0025630000D2
:1049B0000D0A0000286D0020914100088C6D002038
:1049C000606D0020616D0020626D0020636D00202D
:1049D000DC6E00200D000000000000000000000060
:1049E00000000000000000000000000000000000C7
:1049F00000000000000000000000000000000000B7
:104A00000000000000000000706C6174666F726D41
:104A1000746573742E6300005B494E495420000096
:104A20000D0A3E20000000008DF800009DF80110E6
:104A30009DF8000088427047C25D2078294600F04A
:104A40003BB92078314600F037B92078294600F08C
:104A500033B94146207800F02FB980B504F068F9E9
:104A6000BDE8024000205DE600207047637261737C
:104A700068696E666F000000696E6974546F6B65DB
:104A80006E7300007265736574737472696E67008B
:104A9000696E6974526164696F00000073656564D2
:104AA000506E726700000000736574506572546543
:104AB000737454780000000070B51346101802E0BB
:104AC000A4192C705B1EDBB24BB101F00F06090973
:104AD000451E0A2E2846B4BF30243724F0E71018AC
:104AE00070BD2DE9F24F88B0804601A81446994662
:104AF00001AD4FF0000B00278DF8000010E00127FA
:104B0000641E05A885420AD39DF800002E1A00F005
:104B1000B4F8002839D1B3445FFA8BFB01AD641CB3
:104B20009DF800002E1A207800280BD0252803D0ED
:104B300017B905F8010BE4E7002F14BF0027641C28
:104B40002078010000F08E80B0F1250113D00B39E0
:104B5000092967D928395CD00B390ED0491E2CD0D1
:104B600008392AD0091F0BD0C91E09D0891E24D0AC
:104B7000C91E4ED0C5E72520DBE759F8040BD8E75E
:104B800059F804AB00F079F8002872D1B3445FFA09
:104B90008BFB01AD002600E0761CF6B216F80A0089
:104BA0000028F9D19DF8200032465146C047002820
:104BB0005FD1B3445FFA8BFBA3E759F8040B0021E4
:104BC000002803D52D212970404201210023002215
:104BD0004FF0000C02E0801B0CF1010C0FF20416E8
:104BE00056F82260B042F6D243EA0C06F6B2002E26
:104BF00005D0C9B20CF130034B55491C0123521C9E
:104C0000092AE5DBC9B230304855481CC0B2451905
:104C100077E759F8041B0222C9B22846FFF74CFF78
:104C200005466EE760780127782818BF5828F8D124
:104C3000641C002714F8010C322804D159F8041B15
:104C4000042289B2E9E734287FF459AF59F804AB5C
:104C500004224FEA1A412846FFF72EFF04221FFACA
:104C60008AF1DBE700F009F818B906EB0B00C0B2D7
:104C700000E0002009B0BDE8F08F9DF82000F2B2FE
:104C800001A9404709A117E010B5094BC35C0024F6
:104C9000012B07D113460A4601460648FFF721FFBC
:104CA00000B90124204610BD000000000D0A0000DC
:104CB000A45E0008875D00080CB480B502AAFFF767
:104CC000E3FF02BC5DF80CFB0CB438B5044604AA43
:104CD000FFF7DAFF05462046FFF7D4FF284632BC2F
:104CE0005DF80CFB00CA9A3B00E1F5058096980040
:104CF00040420F00A086010010270000E8030000DA
:104D0000640000000A000000DFF85814096801EB95
:104D100040107047DFF850241268815470472DE925
:104D2000F041040035D004F00FFADFF84014DFF84A
:104D300040340E78FF228046FE2EDFF838041BD167
:104D400000260E70DFF830C4DFF8306437781F704B
:104D5000002708E007F1010E07F805E0DCF8005035
:104D60007A555FFA8EF796F800E005687745F1DB33
:104D70000EEB050606F8012C1E78A6420BD2404623
:104D800004F0E8F9052004F0EDF900211B2004F0FF
:104D90003DFAFF201CE0361B1E70DFF8E4330E786E
:104DA0000F78D3F800E0012507F80E50641E05685F
:104DB00017F805E081F800E0E4B2002CF0D17A5554
:104DC00000213046FFF7A6FF404604F0C3F9304605
:104DD000BDE8F08110B5044604F0B6F9DFF8A01381
:104DE0000968625C521C6254BDE8104004F0B2B91C
:104DF0002DE9F041054600F031F8044604F0A4F92D
:104E0000DFF86823DFF86833DFF86863DFF8708362
:104E1000FF2D1FD0D8F800106F5C7F1E6F547F27C6
:104E2000D8F800E015F80E10394213D13168695CEA
:104E3000002705F80E701F787F1C1F70FF29376848
:104E400092F800E005F807E0157006BF2546FF243C
:104E50000D46DDE7BDE8F04104F07CB980B5DFF830
:104E600020130968415C090603D5FFF74DFF007860
:104E700002BDFF2002BD70B504460D4605F11F00BE
:104E80000004400D82B0C0B2FFF749FF0646FF2E76
:104E90000CD02946FFF73EFF3CB1012000902B4685
:104EA00000223146204600F002F8304676BD73B548
:104EB00000F0BBF8085C15461E467119884203DAFB
:104EC0004FF4B07100F0DAF866B1294601A800F09D
:104ED000D9F8024606989DF8041000903346204603
:104EE00000F001F873BD2DE9F843089CDFF88482D7
:104EF0000546894616461F460BE04A5D0A54491C82
:104F0000B142FADBD8F80000BF1B751919F8009000
:104F10000026FFB2BFB14846FFF7F6FE3018F11980
:104F20002029B2BF3E46C6F12006F6B2324624B969
:104F30000146284600F02EF9E4E7012C08BF294677
:104F4000F8D00021DCE7BDE8F1832DE9F04100F065
:104F50006CF882B01600255C88461F460ED0711989
:104F6000C9B2204600F04FF808B1182007E00097BA
:104F700033462A4621464046FFF799FF0020BDE808
:104F8000F6810123E1E70A4600E0521C1378002B6A
:104F9000FBD1521A0223D2B2D7E7F8B5044601F189
:104FA0001F00C50402F11F00C0042D0E000E05B93C
:104FB000012500B90120854223D08542DFF8B46184
:104FC00010DA401BC0B2FFF7AAFE0746FF2F01D13F
:104FD0000020F2BD691EC9B2204600F02BF83168EE
:104FE00047540EE08A420CD2411EC9B2204600F05E
:104FF00021F804463068205CFFF7FAFE3168FF2094
:1050000060540120F2BD38B500F00FF80D46215C68
:105010002A462046FFF7C1FF28B129462046FFF760
:1050200079FE002032BD182032BD0446DFF8380179
:105030000068704704E0DFF83C211268805C491E7C
:10504000C9B20029F7D1704711B581B0DFF8180156
:1050500000680C469DF80410085C844203D34FF4AA
:10506000F47100F00BF8214601A800F00BF804469B
:105070009DF80400FFF748FE201816BD0FF204103B
:1050800000F022BF38B504460D46E9042078090E29
:10509000FFF7D0FF207005F01F0032BD80B5FFF78D
:1050A000D3FF007802BD10B51446FFF7CDFF0470A2
:1050B00010BD70B500F00AF800F004F800EB06200F
:1050C00080B270BD064629462046E7E70D46691CBA
:1050D0000446C9B2E2E72DE9F541089C1F464CB3EE
:1050E000254689B200A8FFF7CDFF0646B9B201A850
:1050F000FFF7C8FF07463046B84238BF3846C0F110
:105100002000C0B2A842B8BF05469DF80400FFF7D2
:10511000FBFD80469DF80000FFF7F6FDAAB207EB05
:105120000801301800F036F8641BA919EF19A4B271
:10513000002CD5D1BDE8F38170B504460D4604F0CE
:1051400003F80D4B21781B68FF2908BFED5403D0ED
:10515000C9180E78EE540D702570BDE8704003F04C
:10516000F9BF0000886D00208C6D0020B86E002013
:10517000866D0020946D0020986D0020856D0020C4
:10518000906D00207061636B65742D627566666555
:10519000722E6300814233D210185118401E491EEE
:1051A00010E011F8013900F80139121F11F8013926
:1051B00000F8013911F8013900F8013911F8013905
:1051C00000F8013992B2042AEBDA92B2002A1EBF2B
:1051D00011F8013900F80139521EF6D1704711F863
:1051E000013B00F8013B121F11F8013B00F8013BA5
:1051F00011F8013B00F8013B11F8013B00F8013BBD
:1052000092B2042AEBDA92B2002A1EBF11F8013BD7
:1052100000F8013B521EF6D17047130003D00A4636
:10522000194603F0F7BF704710B500E0521E92B266
:1052300022B100F012F8F9D0181B10BD002010BDEB
:1052400010B500E0521E92B22AB100F006F8F9D073
:10525000181B40B210BD002010BD10F8013B11F822
:10526000014BA3427047000000F10103810704D005
:1052700010F8011B89B18107FAD10268B2F101313E
:10528000914311F0803F04BF50F8042FF6E710F867
:10529000011B11B110F8011BFBE7C01A7047000099
:1052A00038B50446611D206A2368451A2079EAB2A0
:1052B000984708B1002032BD00F018F8601D206248
:1052C000012032BD38B50446002500E06D1CEDB26A
:1052D000685C0028FAD1207923682A46984718B9D3
:1052E00000F004F8012032BD002032BD94F82900FE
:1052F000281884F8290070472DE9F04F044683B040
:10530000601D206204F1200704F1150078600E464C
:10531000002091467872DFF8608312E010B1601DC2
:105320002062164625B17D2000F065F901F8010DD7
:10533000206A7968884203D300F063F9002863D0BB
:10534000761C3078002800F04D81252898F801104F
:1053500018BF26280AD07B281CBF7D28232802D10D
:105360000029E5D0E0E798F80210F9E716F8012FD8
:10537000252A18BF262A04D100F03DF901F8012D95
:10538000D6E726280BD151B101256E2A18BF4E2A27
:1053900006D000F030F97B2001F8010D00E0002577
:1053A000317800204E2906D0542926D06E2902D00B
:1053B000742922D034E098F8000059F804BB002882
:1053C000B6D03DB1206A7B2100F8011B411C21624F
:1053D0002821017000F015F9002815D000F008F917
:1053E000002811D0002DA3D0206A292100F8011B2C
:1053F000411C21627D2101709AE700F000F900282C
:1054000002D000F0F5F800287BD000F0FAF8002870
:1054100077D000F0F0F83A2001F8010D761C012059
:10542000317896F801E0A1F13002D2B2911E05293F
:105430003CD2BEF1640F18BFBEF1750F36D159F8DA
:10544000041B1FFA81FC00230121BEF1640FE24618
:1054500009D15FEA0C4E06D56FEA0C0C0CF1010C79
:1054600001231FFA8CFCBCF1000F0AD04FF00A0E8A
:105470009CFBFEFC5B1C1FFA8CFCBCF1000FF5D101
:105480000BE05B1C09E0D7F800E00EF1010EC7F855
:1054900000E04FF0200C0EF801CD9C460CF101030A
:1054A0005FFA8CFC9445EEDB761C00E0002133783B
:1054B000721E002B00F09280322B18BF342B69D063
:1054C000482B5CD0582B5CD0632B0CD0642B1BD0AA
:1054D000682B54D0702B18BF732B0BD0752B13D0A7
:1054E000782B4ED01AE7206A411C216259F8041B20
:1054F000017017E700F083F818B100F079F8002880
:10550000F7D10020BDE8FE8F002919BF1FFA8AFAE3
:10551000514659F8041B89B229B900F06CF83020C3
:1055200001F8010DFEE60020642B0DD10A040BD515
:105530003B685B1C2D223B60B1F5004F03F8012D49
:1055400002D0494289B259B10A2291FBF2F20A23F0
:1055500003FB121100ABC0B2C154401C91B2F2E780
:105560000146481EC9B2002913D000A9C0B23A684A
:10557000415C521C3A60303102F8011DF0E700F046
:1055800042F8022259F8041B206AC9B2FFF794FAC4
:105590002062C7E616F8010F682818BF48280BD10B
:1055A00000F031F816F8011C206A32290AD159F8A6
:1055B000041B042289B2E9E7782818BF5828F1D0E3
:1055C000761EAFE659F804BB04224FEA1B41FFF7F1
:1055D00073FA206204221FFA8BF1D7E700287FF4C8
:1055E0009DAE9EE600F00DF800288AD0787A89E713
:1055F0005946204666E63968491C3960704759F8B3
:1056000004BB20464CE6206A302100F8011B411CF7
:1056100021627821017070470EB410B517490978DE
:105620008BB0002409B900200BE0154900910DAAA8
:1056300000F01CF8014600A8FFF75EFE00B9012447
:1056400020460FE00EB410B58BB00D490091002438
:1056500000F00CF80DAA014600A8FFF74DFE00B9B6
:10566000012420460BB010BC5DF810FB05490978F9
:105670008DF8041070470000616D0020606D0020FF
:10568000875D0008286D002062B38B0708D0521E8A
:1056900011F8013B00F8013B00F024808B07F6D1A4
:1056A000830740F0208000BF103A07D330B4B1E840
:1056B0003810103AA0E83810F9D230BC530724BF94
:1056C000B1E80810A0E8081044BF51F8043B40F8C6
:1056D000043BD20724BF31F8022B20F8022B44BF31
:1056E0000B7803707047083A07D3B1E80810083AFE
:1056F00040F8043B40F804CBF7D25307E4E700003E
:105700002D480068C00701D42C4870472C487047CA
:1057100080B5FFF7F5FF2B49096801B9400802BDC4
:1057200080B5FFF7EDFF400802BD03F068BE2648D4
:10573000012181604EF6BE21416001210160704768
:105740002249012008607047A52805D11E484DF662
:10575000AD6141600221016070471B480068C007CD
:1057600001D5012070470020704780B51849194ABB
:105770001020086018491948007858B103280CBF58
:1057800000200120106040F651000860002004F065
:10579000EEF806E0022010604FF40060086003F0AD
:1057A000E7FD07210E4801600021016410200D492A
:1057B0000860002002BD00001C400040001BB70034
:1057C00000366E012040004000600040086000404C
:1057D00080E100E0080000400C600040D57F002020
:1057E00014A0004000E100E080B59F480021416026
:1057F00041708170A5210170012003F0AEFC03F01F
:10580000B0FC00F01EF8002002BD98480168C907EE
:1058100000D4704780B596490A6822F440620A6055
:10582000016849084900016001680902FCD49148F7
:10583000006810B1642004F07FF88F4900200860F0
:1058400001BD80B58D48016841F080710160012083
:105850008B49086000208B4904F097F88A498B4AED
:105860000220086000208A4908608A498A4801604D
:10587000012111607D4A8949116040F201410165B1
:105880004FF480308649086001BD7B48006800B154
:105890000120C0B27047D12202704170090A8170A4
:1058A00080490A78C270501C0870042070472DE9A6
:1058B000F14F82B0002500907B4800990068085C99
:1058C000441DE4B204F0A2F801904FF6FF79FFF70F
:1058D000DCFFB8B954E0A91E9DF80800C9B2FFF773
:1058E000DDFB0746494604F0B3F881465546F00013
:1058F000F9B2761C01FA00F0042E40EA080815DB24
:10590000CBF80080EDB2A54232DA04F07FF80199BD
:10591000401A80B2B0F5FA7F2ADC4FF0604BDBF81A
:1059200000000128EED14FF000080026EDB215B9B5
:105930005B270125DBE7012D05F1010A04D15A4857
:10594000009900680F5CD1E7E11E8D4208BF4F4609
:10595000CCD0A11E8D4208BF4FEA1927C6D0611EC8
:105960008D4208BF5D27C1D0A542B4D10027BEE754
:105970004FF4C87003F0E0FFA54208BF002000D03C
:105980000120BDE8FE8F48490968415C0429A8BF91
:10599000FFF78DBF012070472DE9F04D324D6E7835
:1059A000002E5ED004F032F8834631460020FFF727
:1059B00062FA0446FF2CA04602D10020687050E035
:1059C000202EB4BF37462027FFF79EF96860AF70DE
:1059D000DFF8D8A004E04046FFF796F96860AF70A2
:1059E0006878C0B104F012F8A0EB0B0080B2B0F5FB
:1059F000FA7F10DCA8780028F2D1F61B6E70F6B2A0
:105A0000002EEDD0DAF8000018F80080202EB4BF88
:105A100037462027DFE7002E04BF6878002818D11A
:105A2000A878B0B920480068205C851EE9B22046FD
:105A3000FFF73FFB122808D1E9B22046FFF7E3FA4F
:105A40002146122004F0E0F806E0204604F026F893
:105A500002E000206870A8702046BDE8F04DFFF716
:105A6000C7B9BDE8F08D0000F07F0020800E00E097
:105A7000001000E034000040100004E0FCED00E005
:105A8000040004E020A10700F00004E0000E00E0A4
:105A9000040304E055CEACC5B00F00E00D000100DA
:105AA00000E100E0D87F00208C6D0020946D002084
:105AB0002DE9F0470446884691469A4600F0E2F9FF
:105AC000002801BF25460FF2DC30285C012823D1D5
:105AD000DFF8A46356F8257003F036FB0021B98087
:105AE0003980798003F036FB06EB8500066903F008
:105AF0002BFBDFF888230021B18031807180A9540D
:105B000003F028FB04F09DFA53464A4641462046DE
:105B1000BDE8F04704F0EAB82120BDE8F08710B5F1
:105B2000044604F053FADFF8500300EB84000069E8
:105B3000808810BD2DE9F84381464C46DFF83803D4
:105B400000EB840088460669484600F09BF908B1DE
:105B5000012037E0DFF82453605D05EB440760B1B6
:105B6000B8887188884208D103F0EEFA665D00219A
:105B7000615503F0EFFA304624E0484604F026FA77
:105B8000B088F0B103F0E0FA71880FF2243289197D
:105B9000897988F800104FF6FF78718832F8142060
:105BA00000F0EBF87180B1884144B18003F0D2FA83
:105BB000605D20B1B888404504BF3088B8800020BF
:105BC00000E02620BDE8F283F8B51F460446387889
:105BD0000D46164608B1B04208D30020287005E0F3
:105BE0003878411C39709DF80010415500A92046B5
:105BF000FFF7A0FF002855D19DF800008028F5DAB6
:105C0000397819B90A2818BF0028EFD0B14207D354
:105C1000002038709DF800000D2818BF0028E5D03E
:105C20009DF80000082818BF7F280CD1387800287C
:105C3000DCD0401E38700021C0B2415520468DA1F5
:105C400000F057F8D2E73878801C8642BCBF0D20A0
:105C50008DF800009DF80010204600F038F89DF8FF
:105C6000000061381A2804D29DF8000020388DF811
:105C700000009DF800000D2818BF0A28B0D139781F
:105C8000002048559DF800000D2805D10A21204626
:105C900000F01DF8002603E00D21204600F017F863
:105CA0003E700020F2BD70B582B0044600200D4663
:105CB00016468DF8000001E0FFF742FD00AB3246CA
:105CC00029462046FFF780FF0028F5D176BD02B5B2
:105CD000012200A900F057F802BD80880FF2BC1322
:105CE00033F81110891A884201DA01207047002028
:105CF00070472DE9F047824656460FF2A810305CF7
:105D000001280D4636D15C480FF2AC1850F82670C9
:105D10000FF29419002414E003F016FAB98801B9BF
:105D200001243A8815F8011BD2199171398839F884
:105D3000162000F022F83980B988491CB98003F098
:105D400009FA287888B1002251463846FFF7C5FF86
:105D50000028E1D11CB1504604F04BF8002416F89D
:105D600008000028EFD1222005E0504604F041F859
:105D7000002000E00120BDE8F087491C91FBF2F310
:105D800002FB131170472DE9F84F804647460FF28A
:105D90001410385C01288B46164638D136480FF26D
:105DA000181950F827400FF2001A002514E003F0EC
:105DB000CBF9A18801B9012522881BF8011B121912
:105DC000917121883AF81720FFF7D7FF2180A18829
:105DD000491CA18003F0BEF93046461EC0B288B10E
:105DE000002241462046FFF778FF0028DFD11DB191
:105DF000404603F0FEFF002517F809000028EFD108
:105E0000222005E0404603F0F4FF002000E00120DE
:105E1000BDE8F28F80B501460FF288028A5C012A44
:105E200005D1154A52F821108A88002AFCD104F0C5
:105E300042F8002002BD0CB438B504460D4604F00B
:105E40000CF804AB2A4621460D48FEF74AFE0FF235
:105E500054012046415C012907D1074951F820002F
:105E6000808810B1204603F0C4FF32BC00205DF8EA
:105E70000CFB000008200800BC6E0020307E0020D3
:105E80006B9E0008042806DA0FF21801415C481ED8
:105E90008041C00F704701207047000080008000E3
:105EA00080008000010101018000800080008000EE
:105EB000400040004000400001010101002181F349
:105EC0001188704742DE704738B504460D46FFF72B
:105ED00037FC03F039F92946204603F0CBFD2B4669
:105EE00022460FF2CC110120FFF7A5FF29462046DC
:105EF000BDE83440E6E72DE9F84F6548654D016897
:105F00002E1D4FF4206A7165016AB1656249096806
:105F1000F165416A3166816A7166C16AB166016B79
:105F2000F166806B306796F8340040074CBFF76B22
:105F3000B76BBB4604F08BF90022584CDFF8608148
:105F4000DFF86091F2648742014624BFA4F1200388
:105F5000BB4231651DD357F8180F306457F8040F52
:105F60007064706DC005C00D062815D1306C4845B1
:105F700012D3404510D200884DF6426290420BD1B8
:105F800005F18C006A68426040F2017A72688260B2
:105F900002E03264726483464348814202D2014681
:105FA00000E0091DA14203D20B68B3F1CD3FF8D048
:105FB000601AB064182105F1780004F071F900202E
:105FC00003E0C0B205EB80029167A34523D254F8E9
:105FD000041D4945F9D34145F7D2CA07F5D500223A
:105FE00005EB82039B6F8B4203D0521CD2B2062A70
:105FF000F6DB062AE9D1002814BF401E0520E0E7A1
:10600000716F002205EB8203521CDF6F9F67052A28
:10601000F8DBC5F88C100146481EC9B20029EFD143
:10602000706DC005C00D02280AD0032815D00428C1
:1060300016D0052817D0062818D00C281CD01EE032
:106040001A480168890748BF40F6021A1CD4006844
:10605000C00719D540F2025A16E040F6012A13E0B3
:1060600040F6022A10E040F6032A0DE0BAF5206F50
:106070000AD140F6042A07E040F6052A04E018B1E8
:10608000242838BF40F6072A5046BDE8F28F0000AA
:1060900004ED00E00000002000E300E0286D002097
:1060A0005833010890410008980000201CA00040CF
:1060B0000D0A5B4153534552543A25703A25645DAD
:1060C0000D0A00002DE9F8430446DFF8F8030068E4
:1060D000255C0026E807B14648BF002020D40027F1
:1060E0000FF2045802E04FEA00197F1CFFB2AF42E2
:1060F00011DA39462046FEF7D1FF10F80800F907FB
:1061000000F00F00EFD549EA0002F1B22046FEF799
:10611000CAFF761CE9E7F1B22046FEF7FBFD01203D
:10612000BDE8F283FF2180F826100021C173C183EE
:1061300080F8241081730168016370472DE9F64FE0
:1061400083B0814600208DF8010009F104050AE0C2
:10615000687A09F1240148720120E87249469DF8E5
:10616000000000F0C1F903980026002760BB9DF8ED
:10617000100000A9FFF7DEFC002839D0262826D021
:106180000121484600F0A2F97820B0468DF80000C1
:10619000102600208DF80100E87A0828E3D8DFE80F
:1061A00010F00A004D009700FD00FD00550161014F
:1061B000BA00AA00D7E7102ECAD09DF80000232805
:1061C00038D10820E872CEE79DF8100020B99DF87C
:1061D000010005B0BDE8F08F0398401C0390401EFD
:1061E00000788DF800009DF81000401E8DF810001A
:1061F000B0469DF80000672811D29DF800100FF2FC
:10620000E830085C00F0300600F00F08400609D5C1
:1062100009F12401497A884504D2012702E07B284C
:1062200038BF10269DF800000A2818BF0D28B0D1ED
:106230000120AFE7202E96D003203DE1102E1CBF99
:106240009DF800005F2800D027B199F824000C28A1
:10625000F2DA83E7202E18BF302E48D199F82410A7
:10626000494400204874002409F11100029009F10A
:106270002400D0F80CA00DE01BF8010B00F02DF964
:106280000199491C0191491E0978814209D0641C79
:106290000AF1100ADAF8040048B3DAF800B00298FC
:1062A0000190019800780028E6D19BF800000028B2
:1062B000EDD109F124006C83C068698B00EB0110FB
:1062C0008068E8610020A87289F824000220E87242
:1062D00009F12401687A487287B32B20087209F10A
:1062E0002400C0F80480687A487204206AE7032119
:1062F000484600F0EBF89DF8010000280AD0287B02
:1063000028B1D9F804104846884700202873484629
:10631000FFF708FF27E79DF8010018B1484600F095
:10632000EFF8F4E79DF80000232803D1484600F079
:10633000E7F846E7202EEDD00420BDE09DF80000F0
:106340002D2818BF2B2806D1087200204860687AD3
:106350004872032036E722280CD10120FEF7DFFC2B
:1063600009F12401FF2888700DD00021FEF7D2FC2E
:10637000052027E77B28CED10120FEF7D0FC09F1CC
:106380002401FF28887000F096800021FEF7C2FCEF
:1063900009F1240110204872062013E76FB109F1BA
:1063A000240009F124014068497A01FB008004219E
:1063B000E97209F124014860D5E69DF800107829BA
:1063C00018BF582908D109F12401496821B909F1F8
:1063D000240110204872C6E603285AD0202E18BF88
:1063E000302E56D109F12403E8691B7A02784078EF
:1063F00009F124012D2B496808BF4942752A08D1AB
:1064000034281AD00022312814BF4FF6FF70FF2025
:106410000FE0732A08D1312807BF6FF07F027F2079
:10642000294A47F6FF7004E00421484600F04EF880
:1064300061E79142A8BF884206DB0222484600F08D
:106440007EF80028F4D041E70621EEE79DF8000031
:10645000222820D10021484600F086F80028BAD032
:106460000220AFE69DF800007D280FD109F124003D
:106470008078FFF727FE06460121484600F074F8B1
:1064800008B10220E872002EA5D102E0202EA2D091
:106490000FB9072010E009F124000A498078096843
:1064A000415CFF2908BF082006D0012200A9FEF7A1
:1064B00068FD00288FD002208DF800009DF80010A4
:1064C00016E700008C6D00200080FFFF027C1AB9E7
:1064D0000822C27301745DE07047A0F141011A29DE
:1064E0003CBF2030C0B2704738B50C4694F82450F9
:1064F000FFF7F3FF29194874681C84F8240031BDA4
:1065000010B50446206A017831B162290CBF01211F
:106510000221085C2A2807D1216BE28B01EB0211D2
:1065200020464968884706E00420207420466168B8
:106530008847002020742046BDE810402AE010B5AE
:10654000837B047BA34201D105211FE0846844F8CA
:106550002310817B491C8173016A535C2A2B1CBF69
:1065600051180162012010BD10B5026A1278622A2A
:1065700001D004210AE000F12002FF2493799471F4
:106580000122BDE8104003EB0121D8E7FFF79EFF91
:10659000002010BDF8B5044604F10805A86AE98A90
:1065A00000EB01100027866805E00220815D2A29A2
:1065B00018BF86197F1CA879FFB287420AD23078AB
:1065C0006228F2D1A06850F82700C0B2FEF710FC94
:1065D0000120EBE70020A871A87FFF2803D0FEF779
:1065E00007FCFF20A877F1BD0000000000000000BC
:1065F00000202020202000000000000000000000FB
:10660000000000000000000020003030000000000A
:1066100000000030003000004041424344454647FE
:106620004849000000000000005A5B5C5D5E5F109E
:10663000101010101010101010101010101010105A
:106640001010103000000000005A5B5C5D5E5F00BF
:1066500010B540F2A17403F066FE24FA00F0C00702
:106660000BD5064C207803F075FE207803F0FCFE75
:106670002078BDE8104003F0FABF10BD286D00205F
:1066800010B5DFF834440FF218012078FEF714FB40
:1066900020780FF21C01BDE81040FEF70DBB000092
:1066A000286C6974746C6520656E6469616E0000A5
:1066B0002C20616C6C20646174612072657072655D
:1066C00073656E74656420617320627974652061FE
:1066D00072726179290D0A000178A1F130030A2B49
:1066E0000AD3A1F14103062B38BF373904D3A1F1F6
:1066F0006102062A03D257390907090E00E000217A
:106700004078A0F130030A2B02D2401830380CE058
:10671000A0F14103062B02D24018373805E0A0F162
:106720006102062A03D240185738C0B270470809E0
:10673000704710B504F0A4FA02001AD0DE4C20789D
:10674000042A08BF0FF22C0108D0062A08BF0FF256
:10675000700103D0072A04D10FF2A801FEF7ACFAAA
:1067600003E00FF2E801FEF7A7FA20780FF210110C
:1067700091E710BD68616C537461636B496E697415
:10678000546F6B656E73204641494C4544207769D0
:10679000746820454D4245525F454550524F4D5F0C
:1067A0004D46475F535441434B5F56455253494F03
:1067B0004E5F4D49534D415443480D0A00000000BF
:1067C00068616C537461636B496E6974546F6B6577
:1067D0006E73204641494C454420776974682045D2
:1067E0004D4245525F454550524F4D5F4D46475FC4
:1067F00056455253494F4E5F4D49534D41544348BE
:106800000D0A000068616C537461636B496E6974B2
:10681000546F6B656E73204641494C45442077693F
:10682000746820454D4245525F454550524F4D5F7B
:10683000535441434B5F56455253494F4E5F4D4968
:10684000534D415443480D0A0000000068616C53E9
:106850007461636B496E6974546F6B656E73204627
:1068600041494C4544207769746820456D626572E2
:106870005374617475733A2025580D0A00000000A6
:10688000546F6B656E7320617265207374696C6CF4
:1068900020616374697665207768656E2075736919
:1068A0006E672074686973206170706C69636174CD
:1068B000696F6E2E0D0A00002DE9F04F89B08068D7
:1068C0000568FFF7DDFEA8B204F0ECFB0446A8B2B1
:1068D00004F04FFA8046A8B204F0AFFC764F83462E
:1068E000002C38781ABF4FF6FF7188450FF27C21D3
:1068F0002CD02346AAB20FF21411FEF7DDF90025C1
:106900000FF2AC190FF2AC1A0AE000A9725C3878E9
:106910004946FEF7D1F9761CF6B2A642F5DB6D1CAE
:10692000EDB25D4510DABBF1010F234603D17F22A2
:1069300000F011F806E02A4600F00DF838785146CC
:10694000FEF7BAF90026E7E738785146FEF7B4F9C2
:1069500009B0BDE8F08F414600A804F0D5B92DE993
:10696000F04788B0806804684768FFF789FEA0B2E6
:1069700004F098FB8146A0B204F0FBF98046A0B277
:1069800004F05BFC4C4E0546B9F1000F30781ABF9D
:106990004FF6FF7188450FF2D41132D0A5F1010AEC
:1069A00015B1FFB2BA450BDA0FF2CC11FEF784F93C
:1069B00030780FF2FC1153460022FEF77DF922E0F9
:1069C0004B46A2B20FF24401FEF776F9012D08BF43
:1069D0007F274B463A46FFF7BEFF36A43078214664
:1069E000FEF76AF900270FF2C80805E000AA414641
:1069F000BA5CFEF761F97F1C3078FFB24F45F5DBDA
:106A00002146FEF759F908B0BDE8F0875B253278DA
:106A10005D28256429203D002DE9F047C2B080683B
:106A20000668FFF72DFEB0B204F03CFB8146B0B221
:106A300004F09FF98246B0B204F0FFFB0646B9F1BC
:106A4000000F1CBF4FF6FF708245DFF8247D05D193
:106A500038780FF21811FEF72FF928E00FF27418AA
:106A6000002403E0504604F060F9641CB4421EDACE
:106A7000002513E006FB09F0431E387809FB045299
:106A80004146FEF719F93878032200A9FFF70BF900
:106A900000A8FFF721FE01A968546D1C4D45E9DBF4
:106AA000012E4B4601AA0CBF7F21E1B2DAE759E083
:106AB000202558000D0A0000286D00202DE9F04720
:106AC000C2B0806807684468FFF7DAFDB8B204F026
:106AD000E9FA8046B8B204F04CF98146B8B204F045
:106AE000ACFBDFF88C5C0746B8F1000F28781CBFC0
:106AF0004FF6FF71894504D10FF27001FEF7DCF803
:106B000030E07E1E17B1E4B2A6420BDA0FF2680144
:106B1000FEF7D2F828780FF2980133460022FEF7EC
:106B2000CBF81FE000260FF2AC0A10E02878A8F19D
:106B30000103324600F0C8FE2878032200A9FFF7BF
:106B4000B2F800A8FFF7C8FD01A97054761C4645AD
:106B5000ECDB012F08BF7F24434601AA21464846AB
:106B600004F0E3F842B0BDE8F08700006E6F7420D7
:106B7000666F756E640D0A004552524F523A2044BA
:106B800065736972656420696E6465782069732035
:106B90006F7574206F662072616E676520666F7214
:106BA000207468697320746F6B656E0D0A000000B5
:106BB0002020202020202056616C69642072616EA4
:106BC00067652069732025582074687275202558E0
:106BD0000D0A00006461746120627974655B25644C
:106BE000206F662025645D3A000000002DE9F04327
:106BF000EFB0FFF745FDDFF8784B0FF678382078D7
:106C00004CF2443200F063FE20780FF67031FFF74B
:106C100070F8DFF8240C01880FF2883918237F22DE
:106C20001CA804F071F800271CA849463A5C00F043
:106C3000F5FD7F1C182FF7D3DBA700F0F8FD2078B7
:106C40004FF2640200F043FE20780FF64031FFF768
:106C500050F8DFF8E80B0188062300F0CBFD002593
:106C600000F0D9FD6D1C062DFAD300F0E0FD207870
:106C70004FF2644200F02BFE20780FF62031FFF730
:106C800038F8DFF8BC0B018806237F2211A804F036
:106C90003BF8002511A800F0BFFD6D1C062DF9D3AF
:106CA00000F0C5FD20784EF2455200F010FE20782D
:106CB0000FF6F821FFF71DF8DFF8880B00F098FDBC
:106CC000002500F0A8FD6D1C082DFAD300F0AFFDE3
:106CD00020784FF26E4200F0FAFD20780FF6E021A6
:106CE000FFF707F8DFF8600B018814237F2217A84D
:106CF00004F00AF8002517A800F08EFD6D1C142D75
:106D0000F9D300F094FD20784FF2424200F0DFFD0D
:106D100020780FF6C031FEF7ECFFDFF8300B00F003
:106D20005BFD002509A800F077FD6D1C142DF9D33B
:106D300000F07DFD20784FF2624200F0C8FD20781F
:106D40000FF6A831FEF7D5FFDFF8040B01880A2300
:106D50007F220EA803F0D8FF00250EA800F05CFDEE
:106D60006D1C0A2DF9D300F062FD20784FF27422D9
:106D700000F0ADFD20780FF68C31FEF7BAFF01254B
:106D8000DFF8D00A00F041FD00F04BFD9DF8012036
:106D900000F049FD6D1EF3D100F049FD20784FF25F
:106DA000762200F094FD20780FF66831FEF7A1FFFF
:106DB0000125DFF8A40A00F021FD9DF8022000F073
:106DC00032FD9DF8032000F02EFD6D1EF1D100F084
:106DD0002EFD20784FF2766200F079FD20780FF6D4
:106DE0004831FEF786FF0125DFF8700A00F00DFD3F
:106DF00000F017FD9DF8012000F015FD6D1EF3D188
:106E000000F015FD20784FF2634200F060FD20781D
:106E10000FF62831FEF76DFF0125DFF8440A00F078
:106E2000EDFC9DF8022000F0FEFC9DF8032000F030
:106E3000FAFC6D1EF1D100F0FAFC20784FF274429A
:106E400000F045FD20780FF60431FEF752FF0125D2
:106E5000DFF8100A00F0D9FC00F0E3FC9DF80120F7
:106E600000F0E1FC6D1EF3D100F0E1FC20784FF65C
:106E7000097200F02CFD20780FF6E021FEF739FFB3
:106E80000125DFF8E40900F0B9FC9DF8022000F0CC
:106E9000CAFC9DF8032000F0C6FC6D1EF1D100F085
:106EA000C6FC20784EF2636200F011FD20780FF6E8
:106EB000BC21FEF71EFF0125DFF8B00900F0A5FC9C
:106EC00000F0AFFC9DF8012000F0ADFC6D1EF3D189
:106ED00000F0ADFC20784EF26F6200F0F8FC2078F4
:106EE0000FF69C21FEF705FFDFF8840900F080FC17
:106EF00000F091FC6D1C082DFAD300F098FC20786E
:106F00004EF26F3200F0E3FC20780FF68021FEF79E
:106F1000F0FEDFF8600900F065FC002505A800F030
:106F20007BFC6D1C102DF9D300F081FC20784CF215
:106F3000563200F0CCFC20780FF65C21FEF7D9FE2B
:106F40000125DFF8340900F060FC00F06AFC9DF8D0
:106F5000012000F068FC6D1EF3D100F068FC207881
:106F60004EF2453200F0B3FC20780FF64021FEF7D8
:106F7000C0FEDFF8080900F03BFC00F04CFC6D1C83
:106F8000082DFAD300F053FC20784EF6735200F02F
:106F90009EFC20780FF62821FEF7ABFEDFF8E00814
:106FA00004E000BF202558000D0A000000F01AFC84
:106FB000002505A800F030FC6D1C102DF9D300F061
:106FC00036FC20784CF24E2200F081FC20780FF63F
:106FD000FC11FEF78EFEDFF8AC08018810237F223B
:106FE00013A803F091FE002513A800F015FC6D1CFA
:106FF000102DF9D300F01BFC20784CF6441200F061
:1070000066FC20780FF6D411FEF773FE0125DFF839
:10701000780800F0FAFB00F004FC9DF8012000F075
:1070200002FC6D1EF3D100F002FC20784DF2430209
:1070300000F04DFC20780FF6B411FEF75AFE012542
:10704000DFF8480800F0DAFB9DF8022000F0EBFBC7
:107050009DF8032000F0E7FB6D1EF1D100F0E7FB87
:1070600020784CF24B2200F032FC20780FF68C1185
:10707000FEF73FFEDFF8180800F0B4FB05A800F0AB
:10708000CBFB6D1C102DF9D300F0D1FB20784CF612
:10709000535200F01CFC20780FF67811FEF729FE01
:1070A000DFF8F00700F0A4FB002500F0B4FB6D1C36
:1070B000082DFAD300F0BBFB20784CF2431200F00D
:1070C00006FC20780FF66011FEF713FE0025DFF8AE
:1070D000C80701880223EAB2FFF73EFC00F0A1FBDB
:1070E0009DF8012000F09FFB6D1C142DEFDB00F0DC
:1070F0009EFB20784CF2423200F0E9FB20780FF63C
:107100003811FEF7F6FDDFF8940701885C237F2233
:1071100058A803F0F9FD002558A800F07DFB6D1C70
:107120005C2DF9D300F083FB20784CF6431200F07D
:10713000CEFB20780FF61011FEF7DBFDDFF86007BD
:1071400000F04AFB002509A800F066FB6D1C142D19
:10715000F9D300F06CFB20784BF2542200F0B7FB1F
:1071600020780FF6FC01FEF7C4FD0125DFF8340797
:1071700000F04BFB00F055FB9DF8012000F053FBA5
:107180006D1EF3D100F053FB20784DF2463200F033
:107190009EFB20780FF6E001FEF7ABFD0125DFF83E
:1071A000080700F02BFB9DF8022000F03CFB9DF847
:1071B000032000F038FB6D1EF1D100F038FB207881
:1071C0004BF2532200F083FB20780FF6C401FEF748
:1071D00090FD0125DFF8D40600F017FB00F021FB3D
:1071E0009DF8012000F01FFB6D1EF3D100F01FFB86
:1071F00020784DF2433200F06AFB20780FF6A801A8
:10720000FEF777FD0125DFF8A80600F0F7FA9DF8F4
:10721000022000F008FB9DF8032000F004FB6D1E27
:10722000F1D100F004FB20784CF2433200F04FFB28
:1072300020780FF68801FEF75CFD0125DFF8740663
:1072400000F0E3FA00F0EDFA9DF8012000F0EBFA0F
:107250006D1EF3D100F0EBFA20784DF2423200F0CF
:1072600036FB20780FF66801FEF743FDDFF848068D
:1072700000F0B8FA05A800F0CFFA6D1C102DF9D374
:1072800000F0D5FA20784CF2545200F020FB207820
:107290000FF65801FEF72DFDDFF8200601880623C2
:1072A00000F0A8FA002500F0B6FA6D1C062DFAD3FE
:1072B00000F0BDFA20784CF2453200F008FB20784F
:1072C0000FF64001FEF715FDDFF8F4050188942361
:1072D0007F2233A803F018FD002533A800F09CFAA4
:1072E0006D1C942DF9D300F0A2FA20784BF2346291
:1072F00000F0EDFA20780FF62001FEF7FAFCDFF837
:10730000C40500F075FA002500F085FA6D1C082D03
:10731000FAD300F08CFA20784FF6017200F0D7FA19
:1073200020780FF60001FEF7E4FC012502237F22FE
:107330000021FFF711FB00F074FA9DF8012000F026
:1073400072FA6D1EF2D100F072FA20784EF223121A
:1073500000F0BDFA20780FF2E471FEF7CAFC0423B6
:107360007F22012103A803F0CFFC03A800F054FA08
:107370006D1C042DF9D300F05AFA20784EF27542B4
:1073800000F0A5FA20780FF2CC71FEF7B2FC1123C1
:107390007F22022100F023FA002509A800F03CFA20
:1073A0006D1C112DF9D300F042FA20784EF26322C1
:1073B00000F08DFA20780FF2B071FEF79AFC0423EA
:1073C0007F22032103A803F09FFC002503A800F0FF
:1073D00023FA6D1C042DF9D300F029FA20784EF21F
:1073E000635200F074FA20780FF29071FEF781FC7E
:1073F00004237F22042104A803F086FC002504A8AE
:1074000000F00AFA6D1C042DF9D300F010FA207870
:107410004EF2621200F05BFA20780FF27471FEF700
:1074200068FC012502237F220521FFF795FA00F071
:10743000F8F99DF8012000F0F6F96D1EF2D100F088
:10744000F6F920784EF6793200F041FA20780FF202
:107450005871FEF74EFC11237F22062100F0BFF980
:1074600009A800F0D9F96D1C112DF9D300F0DFF94E
:1074700020784EF6646200F02AFA20780FF2347118
:10748000FEF737FC10237F22072105A803F03CFC00
:10749000002505A800F0C0F96D1C102DF9D300F0EF
:1074A000C6F920784EF2241200F011FA20780FF27B
:1074B0001471FEF71EFC1A237F2208212CA803F06A
:1074C00023FC00252CA800F0A7F96D1C1A2DF9D378
:1074D00000F0ADF920784EF2251200F0F8F920788E
:1074E0000FF2F461FEF705FC08237F22092101A8B1
:1074F00003F00AFC002500F08EF96D1C082DFAD36C
:1075000000F095F920784EF2261200F0E0F920788C
:107510000FF2E061FEF7EDFB0A237F220A210EA89D
:1075200003F0F2FB00250EA800F076F96D1C0A2D81
:10753000F9D300F07CF920784DF2452200F0C7F92C
:1075400020780FF2C461FEF7D4FB00250423EAB2D1
:107550000B2103A803F0D8FB002603A84946325CA0
:1075600000F05CF9761C042EF7D36D1C102DEDDBBA
:1075700000F05DF920784EF2102200F0A8F9207892
:107580000FF29461FEF7B5FB00F051F920784EF24E
:10759000112200F09CF920780FF29861FEF7A9FB08
:1075A00000F045F920784EF2122200F090F9207890
:1075B0000FF2A061FEF79DFB00F039F920784EF242
:1075C000132200F084F920780FF2AC61FEF791FBF2
:1075D00000F02DF920784EF2142200F078F920788E
:1075E0000FF2B861FEF785FB00F021F920784EF22A
:1075F000152200F06CF920780FF2C861FEF779FBD4
:1076000000F015F920784EF2202200F060F9207881
:107610000FF2D061FEF76DFB04237F22122104A834
:1076200003F072FB002504A800F0F6F86D1C042D91
:10763000F9D300F0FCF820784EF2742200F047F9FC
:1076400020780FF2C461FEF754FB00F0F0F82078C8
:107650004FF60D7200F03BF920780FF2C061FEF793
:1076600048FB00250B23EAB214210EA803F04CFBC3
:1076700000260EA84946325C00F0D0F8761C0B2E8E
:10768000F7D36D1C062DEDDB00F0D1F820784EF21B
:10769000564200F01CF920780FF29461FEF729FBA6
:1076A00000F0C5F820784FF4654200F010F920781A
:1076B0000FF28C61FEF71DFB00F0B9F820784EF256
:1076C000015200F004F920780FF28C61FEF711FBF3
:1076D00010237F22172105A803F016FB002505A81B
:1076E00000F09AF86D1C102DF9D300F0A0F8207866
:1076F0004EF2025200F0EBF820780FF26C61FEF7C8
:10770000F8FA28237F22182122A803F0FDFA002589
:1077100022A800F081F86D1C282DF9D300F087F81D
:1077200020784EF2502200F0D2F820780FF24C610F
:10773000FEF7DFFA12237F22192100F050F800250E
:1077400009A800F069F86D1C122DF9D300F06FF84C
:1077500020784EF2512200F0BAF820780FF2306112
:10776000FEF7C7FA00F063F86FB0BDE8F0830000E1
:10777000286D00205B2532585D2000004D46475F94
:10778000434849505F444154410000004D46475F23
:10779000504152545F444154410000004D46475F00
:1077A0005445535445525F44415441004D46475F50
:1077B000454D4245525F4555495F36340000000053
:1077C0004D46475F414E414C4F475F5452494D5FD4
:1077D0004E4F524D414C0000018814237F2209A8CE
:1077E00003F092BA018810237F2205A803F08CBA17
:1077F000018808237F2201A803F086BA01880223AA
:107800007F220DF1020003F07FBA018802237F225C
:1078100000A803F079BA01A849462A5C2078FDF750
:107820004BBA9DF8002020784946FDF745BA2078EC
:107830003946FDF741BA0000745401087654010836
:10784000785401087A5401087C5401087E540108D8
:1078500080540108825401088454010886540108A8
:10786000885401088A5401088C5401088E54010878
:107870009054010892540108945401089654010848
:10788000985401089A5401089C5401089E54010818
:10789000A0540108A2540108A4540108A6540108E8
:1078A000A8540108AA540108AC540108AE540108B8
:1078B000B0540108B2540108B4540108B654010888
:1078C000B8540108BA5401085146FDF7F5B94146CC
:1078D000FDF7F2B94D46475F414E414C4F475F546B
:1078E00052494D5F424F4F53540000004D46475F91
:1078F000414E414C4F475F5452494D5F424F5448AF
:10790000000000004D46475F5245475F5452494DC5
:10791000000000004D46475F3156385F5245475FD3
:10792000564F4C54414745004D46475F56524546D9
:107930005F564F4C54414745000000004D46475F9D
:1079400054454D505F43414C000000004D46475F99
:10795000544553545F54454D500000004D46475F19
:107960004649425F56455253494F4E004D46475F88
:107970004649425F434845434B53554D0000000084
:107980004D46475F4649425F4F4253004D46475F71
:107990004349425F4F4253004D46475F435553545E
:1079A0004F4D5F56455253494F4E00004D46475F7D
:1079B000435553544F4D5F4555495F3634000000E1
:1079C0004D46475F535452494E4700004D46475F6E
:1079D000424F4152445F4E414D4500004D46475F86
:1079E0004D414E55465F4944000000004D46475FFB
:1079F0005048595F434F4E46494700004D46475F48
:107A0000424F4F544C4F41445F4145535F4B4559A2
:107A1000000000004D46475F455A53505F53544F96
:107A200052414745000000004D46475F4153485FC3
:107A3000434F4E46494700004D46475F43424B4542
:107A40005F444154410000004D46475F494E535446
:107A5000414C4C4154494F4E5F434F444500000058
:107A60004D46475F4F534332344D5F424941535F68
:107A70005452494D000000004D46475F53594E5443
:107A8000485F465245515F4F4646534554000000FB
:107A90004D46475F4F534332344D5F534554544C2A
:107AA000455F44454C4159004D46475F534543555A
:107AB000524954595F434F4E464947004D46475F30
:107AC0004343415F5448524553484F4C44000000E3
:107AD0004D46475F5345435552455F424F4F544CC7
:107AE0004F414445525F4B45590000004D46475FAA
:107AF00045544845524E45545F41444452455353C2
:107B0000000000004D46475F43424B455F3238332B
:107B10004B315F44415441004D46475F4555495FF5
:107B200036340000535441434B5F4E564441544158
:107B30005F56455253494F4E000000005354414395
:107B40004B5F4150535F4652414D455F434F554E49
:107B500054455200535441434B5F414C5445524E9F
:107B60004154455F4B455900535441434B5F424F8D
:107B70004F545F434F554E544552000053544143B8
:107B80004B5F4E4F4E43455F434F554E5445520059
:107B9000535441434B5F414E414C595349535F52FB
:107BA00045424F4F54000000535441434B5F4B45F7
:107BB00059530000535441434B5F4E4F44455F447B
:107BC00041544100535441434B5F54525553545F09
:107BD00043454E5445520000535441434B5F4E457C
:107BE00054574F524B5F4D414E4147454D454E54C2
:107BF00000000000535441434B5F504152454E54E6
:107C00005F494E464F000000535441434B5F434190
:107C10004C5F4441544100004D554C54495F4E4522
:107C200054574F524B5F535441434B5F4B4559534D
:107C3000000000004D554C54495F4E4554574F527B
:107C40004B5F535441434B5F4E4F44455F44415457
:107C5000410000004D554C54495F4E4554574F521A
:107C60004B5F535441434B5F414C5445524E41543A
:107C7000455F4B45590000004D554C54495F4E45FA
:107C800054574F524B5F535441434B5F54525553DB
:107C9000545F43454E544552000000004D554C542E
:107CA000495F4E4554574F524B5F535441434B5FCE
:107CB0004E4554574F524B5F4D414E4147454D4500
:107CC0004E5400004D554C54495F4E4554574F5249
:107CD0004B5F535441434B5F504152454E545F49B3
:107CE0004E464F004D554C54495F4E4554574F52E8
:107CF0004B5F535441434B5F4E4F4E43455F434FA1
:107D0000554E544552000000535441434B5F424985
:107D10004E44494E475F5441424C45005354414301
:107D20004B5F4348494C445F5441424C450000007E
:107D3000535441434B5F4B45595F5441424C4500BE
:107D4000535441434B5F4345525449464943415480
:107D5000455F5441424C4500535441434B5F5A4C9C
:107D60004C5F444154410000535441434B5F5A4CD3
:107D70004C5F5345435552495459000053544143B5
:107D80004B5F52463443455F44415441000000007C
:107D9000535441434B5F52463443455F504149522F
:107DA000494E475F5441424C4500000021210FF2EB
:107DB0002C00FEF789B810B501F0E3F8044601F095
:107DC000DAF80246234604480FF220010078BDE8A5
:107DD0001040FCF771BF0000286D002072657365CC
:107DE000742D746573742E63000000005245534572
:107DF000543A25702D25700D0A00000010B5044678
:107E0000002003F0DFFD002003F0ECFD01F0B0F9ED
:107E1000012003F0C8FC03F0C2FC10F0060018BFFC
:107E2000012003F046FF204604F000FB2046BDE899
:107E3000104000F0D0BB80B5022100F089F8009816
:107E400004F0C2FB01BD8068006800B10120DFF8CA
:107E5000B4110FF2C412087008780028DFF8A801E6
:107E6000D0F860130FF2A41014BF0FF2BC130FF27E
:107E7000C013FDF7E7BB80B503F07FFD012808BF05
:107E80000FF2B81305D000280CBF0FF2B8130FF291
:107E9000BC135D480FF2E412D0F890130FF2BC103F
:107EA0002FE038B50446A06805685748D0F8A013FD
:107EB0000FF2D410FDF7C6FBEDB215B1012D07D0BE
:107EC0000CE00FF2CC10FDF7BDFB03F0F7FC05E072
:107ED0000FF2D010FDF7B6FB03F01DFD0FF2D4102A
:107EE000FDF7B0FB2046BDE83240C4E780B504F0A2
:107EF000A4FD034644480FF2E012D0F870130FF2CD
:107F0000BC10BDE80050FDF79DBB38B5044603F03A
:107F100034FD05463C48D0F880130FF2C410FDF73D
:107F200091FB03F0F8FCA0680068C0B204F07DFD8E
:107F300002460FF220110FF2DC10FDF783FB012D3A
:107F400008BF03F0BBFC2046BDE83240CEE701216C
:107F500000A805F072B838B5044603F00EFD0546DA
:107F600003F0D9FC502001F0E7FC03F0DCFD0346F0
:107F700022A204F111010FF2A410FDF763FB012D01
:107F800004BFBDE8314003F099BC31BD70B503F0CA
:107F9000F7FC044603F0F1FC0546002003F0F3FC77
:107FA000D02001F0C9FC03F000FD0646204603F096
:107FB000EAFC012D08BF03F081FC304670BD10B50E
:107FC0000446FFF7E3FF04F11101BDE8104003464A
:107FD0000FF268120FF25010FDF734BB10B50446D3
:107FE000FFF7D4FF03F0DCF904F11101BDE8104004
:107FF000034603A20FF24C10FDF724BB434341009C
:1080000045440000656D0020C04301087B264E20DA
:108010002674737D0D0A0000504552205465737418
:10802000204D6F6465000000656E61626C656400E0
:1080300064697361626C65640000000061736C6563
:10804000657000006177616B65000000656E6572A8
:108050006779000073746174757300007B264E208D
:10806000526164696F20706F7765722073746174F8
:1080700065202674737D0D0A00000000706F77651F
:1080800072207374617465007B264E20000000002E
:10809000536C656570696E6720726164696F2E2E1E
:1080A0002E00000057616B696E6720726164696F12
:1080B0002E2E2E00646F6E657D0D0A007B264E20ED
:1080C000526164696F206368616E6E656C2026740E
:1080D000687D0D0A000000006368616E6E656C00CB
:1080E0007B264E2053657474696E67206368616EE9
:1080F0006E656C20616E642063616C69627261748C
:10810000696E6720286173206E6565646564292E39
:108110002E2E00002674687D0D0A00007B264E205E
:108120002674647D0D0A00007B264E202674642090
:108130005B64426D5D7D0D0A00000000525353499F
:10814000000000007B264E20267464205B3830320D
:108150002E31352E3420756E6974735D7D0D0A00E5
:10816000DFF88C14DFF88C240978517003F045B9DE
:108170002DE9F8430E4617468046DFF87C44DFF8C9
:1081800074540FF2A84940B1402814D0892820D057
:108190008D2817D08F2807D01DE06868401C6860C4
:1081A000207B10B394211DE0E868401CE860207B30
:1081B000D8B1982116E02869401C2861207BA0B125
:1081C0009C210FE0A868401CA860207B68B1A0211A
:1081D00008E0AA2106E042460FF268410120FDF7BF
:1081E0002AFEB0214846FDF76FFEB8F1400F2F7010
:1081F000AE610BD16878401E6870C0B230B168883B
:10820000401C6880BDE8F14305F052B8012020739E
:10821000BDE8F18380B504F013FC0346DFF8DC030E
:108220000FF26042D0F830140FF24C40BDE800501D
:10823000FDF708BA30B5044683B0A068056868B297
:1082400004F002FC01906BB20FF264400FF2504256
:108250000090DFF8A803D0F840140FF23440FDF787
:10826000F1F98CA0FDF7EEF92046BDE83E40D1E7DC
:1082700000B5DFF884130FF25442CB890FF264414A
:1082800083B00091019300F111010FF22C40FDF732
:10829000D9F907BD8168DFF860230968D181E7E774
:1082A0002DE9FE4F00218DF8081001248068008818
:1082B0000090401E8041C00F019003F05EFB81469C
:1082C0000098DFF83473DFF8386301284FF00008B6
:1082D0001BD030780FF22441FCF7EEFC3078019986
:1082E00021B10FF22041FCF7E7FC03E0009A6AA1FC
:1082F000FCF7E2FCFA8930780FF21441FCF7DCFC61
:1083000030780FF21C31FCF7D7FCDFF8F8A200251B
:10831000019818B90098ADB2854241DA30786D1CE9
:1083200002A9FDF707FC9DF80800652838D0DFF8A2
:10833000D802007820B104F0E9FE08B105F03AF85F
:10834000F8894FF47A71484380B201F0F5FADFF80A
:10835000BC02007860B19AF80000504400F8034C69
:10836000A4B29AF800105144200A01F8020C641CCF
:10837000002038735046FFF7F3FE5FEA00080FD184
:1083800001F044FB8346387B0028C1D101F03EFB5D
:10839000A0EB0B0080B2B0F57A7FF4D94FF0010862
:1083A00030780FF28431AAB2FCF786FC30780FF2F5
:1083B00094314246FCF780FCDFF854020FF2A03102
:1083C00002883078FCF778FC30780FF2B431FCF793
:1083D00073FCDFF8204230782178002914BF0FF2B7
:1083E000BC310FF2C031FCF767FC03F0B6FB28B1DB
:1083F000626930780FF2B431FCF75EFCA269307824
:108400000FF2D431FCF758FC642001F095FAB9F171
:10841000010F08BF03F052FABDE8F78F10B580686E
:10842000006800B10120C0B200F0D3FDDFF8D041F8
:1084300000F0B7FD70B100F0B1FD002820780FF218
:10844000C831BDE8104014BF0FF2E4320FF2E83239
:10845000FCF732BC20780FF2E831BDE81040FCF7A1
:108460002BBC70B5044600F09CFD48B1DFF8A45168
:108470006E78012068702046FFF712FF6E7070BDA5
:10848000BDE87040DFF878010FF2D0310078FCF7DA
:1084900013BC00000D0A00002575000038B500F07F
:1084A0002FF800F032F803F036FA03F0F3FA01E0A7
:1084B00000F00BF89DF800006528F9D103F0F2FAFE
:1084C000012C08BF03F0FAF931BD287800A9FDF7A7
:1084D00031BB38B500F014F800F017F803F01BFAC0
:1084E00003F0EAFA01E0FFF7F0FF9DF800006528CD
:1084F000F9D103F002FB012C08BF03F0DFF931BD15
:1085000000208DF8000003F038BA0446DFF8F05080
:108510000FF20C112878FCF7CFBB2DE9F041DFF802
:10852000E0400FF26C312078FCF7C6FB0FF270369A
:108530000FF26438DFF8CC70002515E0EA5D207892
:108540004146FCF7B9FB681005EB90708010B5EB65
:10855000800007D13878854204DA20782A463146EF
:10856000FCF7AAFB6D1CEDB23878401C8542E5DBB8
:10857000BDE8F081806823490068087070472DE9E4
:10858000F84304460025A0681D4E07680FF21C3909
:10859000DFF87080781CC7B2802F06DAA06800EB85
:1085A0008500406807F8080005E030786B1C7A1EEB
:1085B0004946FCF781FB6D1C042DEBDBBDE8F18324
:1085C0001048142100F8011B002100F8011B491C70
:1085D0001429FADB7047104A0648002111604160F7
:1085E0008160C160016141800C4A116070470000E8
:1085F000846D0020E47600206C6D0020C0430108EB
:10860000286D002064760020666D0020656D0020D6
:10861000687E00207C6D00206C7E0020747E00202F
:108620002765276E642E2E2E000000007068792DBD
:10863000636F6D6D6F6E2D74782D746573742E631A
:1086400000000000656D626572526164696F54726A
:10865000616E736D6974436F6D706C657465497399
:108660007243616C6C6261636B20737461747573C7
:108670003A203078257800007B264E2026746464EA
:10868000426D7D0061637475616C506F7765720037
:108690007B264E2026746464426D202674647D001F
:1086A000726571756573746564506F7765720000EB
:1086B00073746174757300007B264E202674647594
:1086C00073202674327875737D0000007472616EB9
:1086D000736D69742064656C617920286465632911
:1086E000000000007472616E736D69742064656CC3
:1086F0006179202868657829000000005478696E47
:1087000067200000696E66696E697465000000008C
:10871000207061636B65747320257520757320610B
:10872000706172742E2000000D0A2575207061633F
:108730006B657473207472616E736D6974746564B3
:108740002E0D0A004C617374207061636B65742098
:108750007374617475733A2030782532780D0A008D
:108760004C617374207061636B6574206261636B2C
:108770006F66663A2030782532780D0A00000000D6
:108780004672616D652070656E64696E6720696E02
:10879000206C6173742041434B3A20005965732E5D
:1087A0000D0A00004E6F2E0D0A00000053464420B3
:1087B00074696D652028766961205346442073658D
:1087C0006E742063616C6C6261636B293A2030784F
:1087D0002532780D0A0000005346442074696D6507
:1087E000202876696120545820636F6D706C657421
:1087F000652063616C6C6261636B293A2030782577
:1088000032780D0A00000000526164696F20486FE1
:108810006C644F666620656E61626C65642C2072C4
:108820006164696F2069732025700D0A00000000E3
:1088300068656C64000000006672656500000000F9
:10884000526164696F20486F6C644F66662064698A
:108850007361626C65640D0A000000005261646916
:108860006F20486F6C644F6666206973206E6F746A
:1088700020656E61626C65643B20757365202273B0
:108880006574486F6C644F66662031222E0D0A00B5
:10889000206C656E3A2000003078257820000000BA
:1088A0000D0A307825783A20000000007061796C5C
:1088B0006F6164206279746520696E6465783A201E
:1088C0002564206973206F7574206F662072616E55
:1088D00067652E20617267756D656E742025642052
:1088E00069676E6F7265642E0D0A0000DFF8000381
:1088F0000078042801D0162801DB062070470B28D9
:1089000002D01038062801D2052070470320704796
:108910002DE9F04387B0FFF7E9FF044600F014FCAF
:1089200000210FF274250DF1000805E055F8212013
:10893000926848F82120491CA142F7DB00F00AFCAC
:108940000026DFF8B4720FF2B42902E000F048F814
:10895000761CA642FADB00F0F7FB002105E055F893
:108960002120D26848F82120491CA142F7DB00F001
:10897000F1FB00260FF29C2902E000F031F8761C92
:10898000A642FADB00F0E0FB002108E055F82120C8
:108990005368126842EA034248F82120491CA14268
:1089A000F4DB00F0D7FB00250FF2802607E058F833
:1089B000253005F141023146FCF77EF96D1C38780F
:1089C000A542F4DBDFF82C12096889064CBF0FF2D0
:1089D00078210FF28421FCF76FF907B0BDE8F0832E
:1089E00058F82630387806F141024946FCF764B958
:1089F00038B500F025F8A4BF0A3CE4B2FFF776FFD3
:108A0000844208DA0FF290100FF25C2150F8240033
:108A1000EDB2056121E02BE038B500F011F8A4BFFC
:108A20000A3CE4B2FFF762FF844208DA0FF26810F2
:108A30000FF26C2150F82400EDB245610DE017E013
:108A4000806804784568A02C05DB04F0070001214C
:108A5000240901FA00F50A2C70472B4604F1410263
:108A600001B0DFF894010078BDE83040FCF724B98C
:108A7000FFF73CFF00F14002BDE83840DFF8780125
:108A80000FF2FC110078FCF717B9F8B5806804788C
:108A900007790125A02C4FF0FF3606DB04F007060E
:108AA000240917B105FA06F7FFB20A2CA4BF0A3C45
:108AB000E4B2FFF71BFF84421BDA0FF2DC0050F830
:108AC00024000C30310006D4016805FA06F2D243C6
:108AD00011400F43FFB207603B4604F1410201B071
:108AE000BDE8F040DFF810010FF2CC110078FCF780
:108AF000E3B8FFF7FBFEBDE8F84000F14002BDE738
:108B0000F8B5806805784668DFF8EC000478A02D99
:108B10004FF0FF370DDB05F007072D09102E06D3A8
:108B20002046BDE8F4400FF2A811FCF7C5B8B80024
:108B300086400A2DA4BF0A3DEDB2FFF7D7FE85425D
:108B40001EDA0FF2540050F82510081D3A0008D420
:108B50000A68036842EA03420F23BF00BB409A43FE
:108B60001643B2B20A60310C0160334605F141028E
:108B7000204601B0BDE8F0400FF2B001FCF79CB810
:108B8000FFF7B4FE00F140022046BDE8F8400FF2C6
:108B9000F001FCF791B8000000B0004000B20040C6
:108BA00000B4004000B6004000B8004000BA0040E9
:108BB0000146114889680F4A09680078C9B200293E
:108BC00011680AD041F0200111601168890654BF74
:108BD0000FF224110FF2101104E021F020011160B6
:108BE0000FF22C11FCF768B80FF2341004F053BCEC
:108BF0009907080800BC0040286D00204750494FE5
:108C00005F502563494E20202020203D20307825CC
:108C1000580D0A004750494F5F5025634F55542067
:108C20002020203D20307825580D0A004750494F1C
:108C30005F502563434647482F4C203D2030782520
:108C400034580D0A0000000053574A2044697361EC
:108C5000626C65640D0A000053574A20456E6162DC
:108C60006C65640D0A0000004750494F5F50256352
:108C7000534554203D20307825580D0A000000004F
:108C8000546865206F6E6C79206C6567616C20702C
:108C90006F7274732061726520412D25630D0A0087
:108CA0004750494F5F502563434C52203D20307858
:108CB00025580D0A000000004750494F5F502563BA
:108CC0004F5554203D20307825580D0A00000000F3
:108CD000436F6E6669672073686F756C64206265A8
:108CE00020302D440D0A000044697361626C696E86
:108CF000672053574A0D0A0043616E6E6F742064FB
:108D0000697361626C652053574A0D0A00000000C8
:108D1000456E61626C696E672053574A0D0A000008
:108D2000E07A0020AD3001080000000000000000E3
:108D300038B5012000F0C7FB002000F095FDDFF8FA
:108D40005043206840F008002060FCF7F0FC00F081
:108D50007BFD00F057F88D78DFF83833DD600D8942
:108D600005604D89456000F055F8206820F010003E
:108D7000206004F015FC04F009FD00F039FCFCF75C
:108D8000D4FCBDE83140FCF7F0BC10B501F03CF973
:108D9000DFF80413DFF804030A79C2604B79DFF8C7
:108DA0000023D3608C79DFF8EC32DC608C8A0460BD
:108DB000CC8A4460088B1060488B5060888B1860A8
:108DC000C88B586010BD10B500E010B500F053FB23
:108DD00000F03AFD00F016F88C78AE4BDC600C89A0
:108DE00004604C89446000F015F8A948016821F03E
:108DF0001001016004F0D4FB00F040FCBDE810401D
:108E000001F00BB9A449A5480A78C2604B78A44A7E
:108E1000D360704788891060C8895060088A1860DC
:108E2000488A586040E0F0B50B689F4C0F252468D5
:108E3000960005FA06F6344215D0002606EB8207A6
:108E400024FA07F7FF070BD5B70005FA07FC23EA5A
:108E50000C0330F812C005FA07F707EA0C073B438A
:108E6000761C042EEADB0B60F0BDF0B50B688E4C6F
:108E7000FF252468D600B5402C4213D000250126DA
:108E800005EBC20724FA07F7FF0708D506FA05F72E
:108E9000BB43175C06FA05FC0CEA07073B436D1C55
:108EA000082DEDDB0B60F0BD10B57F480068002891
:108EB00025D000F054F8201DFFF7D7FF01227B4991
:108EC000201DFFF7D2FF02227949201DFFF7CDFFB9
:108ED0000022724900F014F80122724900F010F8E3
:108EE00002226F4900F00CF80322724900F008F8E2
:108EF0000422684900F004F804F1140036E010BDC3
:108F000004F114008FE710B567480068002825D0E9
:108F100000F025F82046FFF7A8FF0122634920460C
:108F2000FFF7A3FF022262492046FFF79EFF0022BF
:108F30005A4900F018F801225A4900F014F80222A8
:108F4000574900F010F803225A4900F00CF80422A7
:108F5000504900F008F804F1080007E010BD4E4C3D
:108F600055490022704704F108005CE7BDE8104055
:108F70000522524957E780B501F0D5F90FF270117B
:108F800009E080B501F0D3F90FF290110204120E3E
:108F900051F82210C0B201EB800002BD48480078B1
:108FA000704747488078704747484FF40041C16098
:108FB000082101604249887850B1424800680B7826
:108FC000800900F0010083421CBF087004F0B8B8AB
:108FD00070472DE9F0413A4D3B4F0446AC700020FC
:108FE000B8654FF400483948C0F800800820386060
:108FF000C7F80C8000F0A8F8002C2A4E26493268E9
:1090000022F4706214D042F400623260B26822F03E
:109010004002B260082200F065F802F0BF020A7058
:10902000082200F059F802F0BF020A71012113E092
:1090300042F480723260B26842F04002B2600122B3
:1090400000F050F842F040020A70012200F044F8AB
:1090500042F040020A710021697000F07BF84CB1C7
:109060001B49062008606020B8657068800900F020
:10907000010001E00020B8652870287804F060F84D
:1090800014B11448C0F80080BDE8F0810000000071
:1090900000BC004000B40040006E002000B0004062
:1090A00000B2004004B00040C87900200CB200407B
:1090B0000CB4004004B200400CB0004004B40040C6
:1090C000D27F002008B0004014A8004080E100E0FA
:1090D00024BC004000E100E0CB8A62F30B230A7954
:1090E000CB8270474B8962F30B230A784B81704720
:1090F000554E4B004649420042544C0045585400DE
:1091000050575200574447002053570043525300D2
:109110004653480042414400464C540090510108D7
:1091200094510108EC5101080C5201081452010835
:10913000205201082C5201083852010840520108FF
:109140004C5201085C520108EFF31180602181F359
:109150001188704780F31188704770470EB403B0D0
:10916000704770477047002070470020704700002C
:1091700010B51F481F4C0068206060604822002125
:10918000FCF74BF81C482168007808700020216823
:109190000873216848730B202168887303202168B5
:1091A000C8734FF6FE71206801824FF6FF7141824D
:1091B00003F01EFA2168087603F01AFA216848764F
:1091C00003F016FA216888760C4821680078C87682
:1091D0000B492068096881620A49097880F82C10D7
:1091E000094821680068086310BD0020704700002E
:1091F000A86D0020E87A0020CE7F0020B86D002006
:10920000AC6D0020B06D0020B46D002004F0D1B82A
:109210000000000062F30F2262F31F42401810F0BA
:10922000030308D0C91A1FD3DB0748BF00F8012D7C
:1092300028BF20F8022D130030B41446154610390B
:1092400028BF20E93C00FAD8490728BF20E90C00D4
:1092500048BF40F8042D890028BF20F8022D48BFE0
:1092600000F8012D30BC7047C91818BF00F8012D57
:10927000CB0728BF00F8012D70470000DFF860150C
:109280005120086070472DE9F0410546FCF740FA8F
:10929000DFF85015B0FBF1F64FF4F070B0FBF6F7C5
:1092A0001E2D3FB201DBE81B04D5A8B2BDE8F0419A
:1092B00000F042BBFFF748FF804604F003FBDFF8F5
:1092C0002815DFF82825012048700721DFF8200540
:1092D00000F041F8E91B09B27143C91C8908491E15
:1092E000DFF81055416000F0BDF8DFF8F4743C6819
:1092F000386820F04000386004F0E6FA3C602E60E8
:1093000004F0E6FA04F0ECFA4046BDE8F041FFF75D
:1093100021BF38B50546FCF7FBF9DFF8C814B0FBF0
:10932000F1F44FF4F070B0FBF4F02D1A1E2D04DAB6
:1093300095210FF20850FCF7C7FDDFF8B404DFF801
:10934000AC24072100F007F805FB04F1C91C8908CB
:10935000491E416031BD01600021416081604FF0D4
:10936000007111607047DFF8802401215170D0E74F
:10937000DFF88404006800B970472DE9F041DFF898
:109380007C54DFF87C6400242C6034604FF4A040EF
:10939000706041F29A084046FFF775FF6F68FCF76E
:1093A000BFF9000142F21071B0FBF1F000F5C87096
:1093B000C01B00B24FF4487190FBF1F000B20828D6
:1093C000A8BF072004DA10F1080FB8BF6FF007003C
:1093D00030604046FFF757FF08274046FFF753FF2E
:1093E000686804197F1EF8D1FCF79AF9211D400125
:1093F000C908B0FBF1F080B27060BDE8F081DFF821
:10940000F803006800B9704738B5DFF8F853012059
:109410006FF00F04A8602C608020FFF734FFE8682D
:10942000FF2802D8641C102CF5DB31BD70B5DFF8C5
:10943000D803016841F00101016001214160FFF79B
:1094400083FE0446DFF8AC5300F00CF85120DFF83F
:10945000901308602E6004F03BFA2046BDE870408F
:10946000FFF778BE2E68286840084000286004F0A6
:109470002FBA0020704710B5DFF87C03DFF868438F
:1094800000680128BCBF032000F01DF801202070F7
:1094900000202071DFF87403816901F003010329C2
:1094A00007D10020A070042000F07DF80120207179
:1094B00010BD0F210160022181610120E070642054
:1094C000BDE810404FE72DE9F041CB4AC64D146886
:1094D00040F2DC51012C8846CC4ECD4F15DA0221EA
:1094E000B9803160B16901F00301032959D0002C22
:1094F00003D5B16941F00201B161FFF7BAFF5FEA3C
:1095000000081AD1002C4CD549E0B8884FF6FF74FA
:10951000A0421DD1BF48018802237F22381D04F0DC
:10952000E1F9B888A04204BF0220B880B069800782
:1095300003D4B06940F00200B0610120A870B8887F
:1095400030600FFA88F0FFF70EFF4046BDE8F0816B
:10955000B3699B07EDD5AB780BB10846F6E7B16868
:10956000B36811F0010103D10F2809D2401C06E0B5
:109570009B0705D53B781BB1032801DB2018B88079
:10958000B88839700228BCBF0220B8803068B9881A
:109590008842D2D1B06900F00300032801D0FFF760
:1095A00045FF0020D2E72DE9F047804600248C4D8E
:1095B000904EFFF7C9FD814604F084F94046FFF75D
:1095C00082FF08B901240AE000F0CAF8D5F800A02B
:1095D00000F02EF9C5F800A0376004F079F904F026
:1095E0007FF94846FFF7B6FD002CE2D0BDE8F087D2
:1095F0000220D8E710B57E487B4C00214160816095
:10960000016821F002010160002060704FF00070DD
:1096100076490860A07838B10020A0700620FFF7D6
:1096200028FF00F098F81CDBE078012814D17A4874
:109630000121016079490968C90748BF03200FD497
:109640000221E170016C41F00101016404207449C0
:1096500008607449086010BDE078042801D1052035
:10966000E07010BD80B56048407800281CBFBDE8A0
:109670000140FFF7BFBF01F069FF01BD2DE9F843CD
:1096800000F069F803DABDE8F24304208BE7564C9A
:10969000207900B35DE0FFF757FD054604F012F9AD
:1096A000E078032812D000F05AF8DFF83481D8F8B7
:1096B0000090D8F8000020F04000C8F8000004F046
:1096C00003F9C8F80090376004F002F904F008F9D3
:1096D0002846FFF73FFDE0780328DCD14C4E4B4D88
:1096E000B08828604FF6FF777088B8420CD14E489A
:1096F000018802237F22B01C04F0F4F87088B8427D
:1097000002D16420708001E07088C8B1FCF708F8CD
:109710007188344AB0FBF2F048432F303021B0FB5F
:10972000F1F042494A6D42F001024A650A68AB68AD
:10973000DB07FBD50B689B1A1B031B0B8342F6D37D
:10974000FFF774FE0420E0704FF4C870BDE8F243E8
:1097500009E6BDE8F1832848006801287047254ED6
:109760003768306840084000306004F0B1B82DE937
:10977000F8431D4C207800282DD0207900282AD1CC
:10978000FFF7E9FF1FDA40F2EF310FF2B000FCF70C
:109790009BFB18E0FFF7D8FC804604F093F8E078D4
:1097A00005280BD0FFF7DBFF0D4DD5F8009000F03A
:1097B0003FF8C5F80090376004F08AF804F090F89C
:1097C0004046FFF7C7FCE0780528E3D10020A070F1
:1097D0000520FFF7E8FE00202070BDE8F1830000BF
:1097E0000080004090D00300E67F002004ED00E000
:1097F00010E000E094ED00E07C52010810400040D1
:109800000C000040084000401C4000400440004064
:10981000306F0020AA54010818A000400C400040FE
:1098200080E200E000E100E0AE5401083820004092
:10983000286820F04000286004F046B8636C6F632D
:109840006B732E630000000010B5664C002004F01E
:10985000DAF840F68C2188422068B4BF40F0080056
:1098600020F00800206010BD10B504465E48018855
:1098700082B000F05CF89DF800109DF80100FF290F
:1098800002BFFF280420002104B1801C574A13683E
:10989000C0B20828A8BF072023F4607343EAC010B1
:1098A000106008291068A8BF0721C00841EAC0005D
:1098B00010604F48047013BD00B54E48018883B056
:1098C00000F035F8BDF800004FF6FF7188420EBF7A
:1098D0004FF4E1600A2190FBF1F0ADF8000044483C
:1098E000007808B34048018802237F2201A803F0D2
:1098F000F9FF9DF80500BDF80030FF2808BF0420DF
:10990000811CC9B20829A8BF0721C1F12F0202EBAF
:10991000D272C0F12F00521000FB0320C1F12F01C1
:10992000B0FBF1F0ADF80000BDF800000EBD022361
:109930007F2200A803F0D6BF70B52F4C25680646DD
:10994000FBF7EEFE2D49B0FBF1F070432F303021D4
:10995000B0FBF1F0032809D3616D41F001016165AD
:109960002168491B0903090B8142F9D370BD10B569
:10997000040004D110BD4FF47A70FFF7DDFF2046DC
:10998000441E80B20028F6D110BD38B50C4620B177
:1099900001280FD0032820D021E0194D44B1FBF756
:1099A000BFFE1849B0FBF1F0401EB0F5005F0CD2CD
:1099B000286012E04CB1FBF7B3FE610801EB4000F8
:1099C000B0FBF4F0B0F5003F01D3202032BD0E49CA
:1099D00000F001024A6040080860002032BD2120EA
:1099E00032BD000000BC0040825401081800004055
:1099F000D97F0020845401083820004090D0030013
:109A0000100004E020A1070068C8004080B500F005
:109A100002F880B202BD38B5FFF796FB09490C6821
:109A20004D68FFF797FB45EA044032BD704780B5AB
:109A3000FFF7FCFF04490720086001200349087074
:109A400001BD00001060004014A00040DD7F002038
:109A50000A0242EA11214840C0F30311484080EA5B
:109A6000003041010206C9B2D20E41EA022148404B
:109A700080B2704703460A468AA10420FFE70CB46F
:109A800080B502AA00F015F801BC5DF80CFB21B10D
:109A900003460A4684A11120F1E7704710B5044639
:109AA00021468248FBF748FB2046BDE81040FBF703
:109AB00091B92DE9F04F85B005460C469046002639
:109AC000FFF751FBF8B9FBF7E0FEE0B10120FBF72F
:109AD00026F98246BAF1FF0F15D00021FBF71AF9DB
:109AE000294601A8FBF7D7FE05469CB900F087F888
:109AF00030B95046FBF747FF10B10420FFF732FBA7
:109B00005046FBF775F905B0BDE8F08F8DF80420DD
:109B10000125641C20780028E8D0A0F130010A2932
:109B200005D20A2101FB0600A0F13006F1E700F0A2
:109B300066F80028E4D122780025422A01A80ED038
:109B4000442A1AD0462A25D0572A0DD0622A3AD064
:109B5000662A2AD06C2A25D0702A26D0D6E758F853
:109B6000040B8DF80400D3E758F8041B8DF804109B
:109B700002250904090E4170CBE758F8041B8DF843
:109B800004100A0A427004250A0C8270080E8DF82F
:109B90000700BEE758F8041B5046FBF7F4F900280D
:109BA000B7D0ADE758F8046BB3E7012358F8041BAE
:109BB000662A08BF0223F2B25046FBF7C6F9002816
:109BC00008BF0026ECE73A4858F8041B00681AF86A
:109BD0000090CFB2FF2F9CD017F800B00BEB09011B
:109BE000C9B25046FBF70FFA002889D1CDF800B072
:109BF00000233A4649465046FBF76DFA89E72A4664
:109C000001A95046FBF7BDB92DE9F043122885B0F4
:109C100080460D4609D03A281DD04FF6FE71884285
:109C200004BF284603F0C4FB34E02148224F0068FB
:109C30002E5C08E02846FBF767F8214600F046F95D
:109C400038682D5C203EFF2D24D0F6B2212EACBF0B
:109C500020243446EEE7FAF707FF814601F00FFFB4
:109C6000064602F0EDFE074602F0E7FE044601F06C
:109C7000FEFE02460F480FF248010390CDF8109007
:109C800023460E48006840880290019600973B20CA
:109C9000FFF7F5FE2946404605B0BDE8F043FFF763
:109CA00064BA0000574600006C700000046F00208A
:109CB0008C6D0020887E0020946D0020E87A0020C2
:109CC000574242575738704200000000DFF8E40363
:109CD000016C41F4C04141F0090101644FF6FF718C
:109CE00001602020DFF8D013086070477CB50028A1
:109CF00015461E467CD0012836D113293CBF0FF2F1
:109D00001C40095C08096422504301F00F010B2933
:109D100003DA884006E00A2250430A46511ED2B2B6
:109D20000B2AF8DA01460120FFF72FFE00285FD149
:109D3000300907280CBF00200220012D08BF40F089
:109D4000180003D0022D08BF40F0080006F00F01F4
:109D50000229DFF86813A8BF40F0040088600120E2
:109D60000860FFF7B3FF40E0032840D1FBF7E8FCB1
:109D7000DFF84C03018808237F2200A803F0B2FD1E
:109D800000220020DFF83C1300AC531C045D2509C1
:109D90000A2DD2B2B4BF3026372601EB4202751924
:109DA00055805A1C04F00F050A2DB4BF3025372505
:109DB00004F00F04DBB22C1901EB4303401C08280C
:109DC0005C80E1DB0FF2383003F0EFFEFFF71EFEA0
:109DD000044603F0CFFE042807D0FFF717FE001B50
:109DE00080B2B0F57A7FF4DD01E0002076BD21205D
:109DF00076BD38B5040013D1DFF8CC020468608862
:109E000028B140F2AB210FF2F020FCF75DF8A188F9
:109E1000C9B2A01DFFF73BFE0020A080208031BD0D
:109E2000012813D1A5480068012815D1FFF78CF946
:109E30000546A648016841F006010160012000F0D6
:109E4000C6F82846BDE83240FFF784B9032804BFAE
:109E5000BDE8314004F096B831BD012804D19B48DB
:109E6000016821F006010160704780B50B4611467C
:109E700020B91846FFF70BFE002002BD012814D1BF
:109E800093488269012A07D0212002BDC268520787
:109E9000FCD513F8012B02600A46511ED2B2002AEB
:109EA000F4D1C1684906FCD5E6E70328ECD1184691
:109EB00004F07AF8E0E710B50446FBF741FC012C0A
:109EC00003D1864800684006FBD510BD70B5814AB5
:109ED000814B126804E000F068F81D8800F06CF80F
:109EE0000C46611EE4B254B194887D4D2D886D1EE0
:109EF000AC42F0DBBDE8704023210020BBE070BD28
:109F00002DE9F84304467348DFF8CC91DFF8D0819F
:109F10006F4F254650F8256014E0B18838F81520B9
:109F2000521E91421CDA318889198871308839F8BB
:109F30001510401C90FBF1F201FB12003080B0883C
:109F4000401CB080F868800716D5F86810F038011A
:109F50003868E2D0080705D4C80605D5242107E0F3
:109F6000232105E0272103E088064CBF252101219C
:109F7000204600F080F8E5E7BDE8F18370B5554A6A
:109F8000554BD26804E000F010F8DD8800F014F8BA
:109F90000C46611EE4B23CB194883F2CF3DBBDE873
:109FA00070402321032066E070BD158810F8014B36
:109FB000AD18AC7114887047641C94FBF5F605FB72
:109FC000164414809488641C94807047704770B560
:109FD0003D49444A51F820103D4B0FE04C8864182D
:109FE000A4791C604C8832F81050641C94FBF5F680
:109FF00005FB16444C808C88641E8C808C8814B1C0
:10A00000DC686407EAD470BD37483849C2680A6022
:10A0100002694A6000688860704780B53349274804
:10A020000A6842614A688261896881600121016031
:10A030000120FFF74BFEBDE802400FF2C40003F021
:10A04000B4BD704738B51B4C0FE046F2297005428D
:10A05000256003D0A9B20120FFF752FF41F6D600D8
:10A0600005421CBF0120FFF7B2FF2068216C11EAF6
:10A070000005EAD131BD30B5164A1D4C52F82020FA
:10A08000055D1C4B25B9128823F81020015530BD01
:10A0900033F8103013800155138851888B4205D254
:10A0A0000F4C34F81000401A181800E0581A90802D
:10A0B00030BD000008A8004000E100E054C80040A6
:10A0C000BA540108206E0020BC6E002048A8004051
:10A0D0003CC80040CC6E0020B05E000848C800407C
:10A0E0007C530108A85E00085CC80040D0790020BD
:10A0F000307E0020347E0020756172742E63000073
:10A1000080520108945201085453010804000000D1
:10A11000645301086853010800000000306090C0DB
:10A12000C1C2C394C495C55C96C6AC9798990D00FE
:10A1300010B50446FFF708F8464930200860464944
:10A140000860464908601020454908604FF20F0139
:10A15000200A0028434808BF240204804180BFF33E
:10A160005F8F4148002101604160404840490860DC
:10A1700010BD40480168C90708D53F4A0321117046
:10A18000016C490849000164012101600168090767
:10A1900003D5016C21F008010164704780B50020EF
:10A1A00000F009F830B9BDE80440FC210FF2DC00F2
:10A1B000FBF78ABE01BD2DE9F044304C21680D1A31
:10A1C00015F01F0105D0002852BF6D1A681A00F162
:10A1D00020052B48A5F12006A84224BF2948864225
:10A1E00003D3EFF30880854201D300202DE0FEF772
:10A1F000ABFF82462448006810F0010718BF03F047
:10A2000005FF206801468D4206D2A84224BFCD2119
:10A2100000F80119F9D206E02038002201E000F828
:10A22000012B8842FBD32560304603F0F4FEE22088
:10A2300001E006F8010BAE42FBD30FB103F0CEFEF6
:10A240005046FEF787FF20682038BDE8F0840B48B1
:10A25000006870473020004030C8004030C00040E7
:10A2600010E00040000000201C4000400400FA05FF
:10A270000CED00E018A00040E97F0020286F0020CE
:10A28000C8630020AC0D002094ED00E06D6963729E
:10A290006F2D696E7465726E616C2E630000000034
:10A2A000002203F0D5BE000030B52248016800202E
:10A2B000002201249440CBB2234213D00FF2840039
:10A2C0001D4C30F8120006284CF23C324FF20F03BE
:10A2D0001DD16088984216D12188080A0B2812DA0D
:10A2E000084612E0521C92B2082AE2D313490881B0
:10A2F00040F201720889904204D11148D0E900234C
:10A30000C1E9002330BD4FF4C0606280EEE740F247
:10A310000725A84201BF618899422188A942E5D159
:10A3200062800846E2E705480089000A7047034852
:10A33000008970472C000040000000205479002064
:10A340009000002001040204010301050600070239
:10A35000030901092DE9F04FDFF884538046A86B0B
:10A36000410785B007D5296C2F6D0FF28436039114
:10A370000024A14607E0E96B0FF27C36EF6CDFF8B2
:10A38000649303916C6D00074CBF0FF274320FF2AF
:10A390007832B9EB040A07D064204FEA5A0100FB77
:10A3A0000710B0FBFAFB01E04FF0000B03980FF22F
:10A3B00060310290CDF80490009433464046FAF79D
:10A3C00083FC1FFA8AF0019000961FFA8BF3BAB251
:10A3D0000FF26C314046FAF777FC95F838004007E9
:10A3E0000CD4AAF19800874208D1686DBE49884212
:10A3F00004D20FF288314046FAF766FC0398814593
:10A4000028BFA04205D232460FF29C314046FAF7EF
:10A410005BFC4046FBF7FEFC286EE8B10FF2A8316A
:10A420004046FAF749FC0026A8A70FF25074286EA0
:10A43000F040C00707D554F82620107818B13946E7
:10A440004046FAF739FC761C112EF0DB404605B089
:10A45000BDE8F04FFAF716BC404605B0BDE8F04F36
:10A460000FF29431FAF730BC2DE9F0479C4F0FF210
:10A470008C590FF2A4560FF28C680FF2044A04466E
:10A4800007F14405FFF753FF40F20151401A16D07F
:10A49000401E17D040F2FF11401A35D04FF44071E2
:10A4A000401A39D0401E53D0401E73D0401E00F0D9
:10A4B000B080401E00F0C880401E06D0C2E00FF2FF
:10A4C000503142E00FF28831C0E0E86C012806D03C
:10A4D000032807D0042807D0052808D00AE00FF287
:10A4E000BC3608E07AA606E00FF2B83603E00FF2B9
:10A4F000BC3600E077A60FF2BC3100F0B0F82B6D4F
:10A500000FF2D831324603E02B6DEA6C0FF2E431E2
:10A510002046FAF7D9FB90E00FF2F43100F09FF8F3
:10A52000686AC0F3400018B10FF2FC3100F097F8F0
:10A53000686AC0F3807018B10FF2284100F08FF8FC
:10A54000686AC00F79D00FF2504100F088F874E0CB
:10A550000FF2804100F083F895F8200010F0030F0F
:10A5600001D000F07FF8286AC0F3C01018B1EA6A81
:10A57000494600F079F80027286AF840C00705D559
:10A5800000F069F810B1314600F06EF87F1C082F1A
:10A59000F2DB52E00FF2884100F061F800F062F85F
:10A5A000286AC0F3802018B10FF28C4100F057F8F0
:10A5B000286AC0F3C03018B1EA6A494600F054F87E
:10A5C0000827286AF840C00705D500F044F810B104
:10A5D000314600F049F87F1C102FF2DB95F820007F
:10A5E000000603D10FF2984100F039F801270FF26D
:10A5F000C0460FF27858286BF840C00705D500F028
:10A600002AF810B1314600F02FF87F1C042FF2DB3E
:10A6100013E00FF2A44100F022F800F023F8102715
:10A62000286AF840C00705D500F015F810B131468A
:10A6300000F01AF87F1C1A2FF2DB2046BDE8F04725
:10A64000FBF7E8BBBDE8F0870FF2884100F007F8A0
:10A6500000F008F8F1E758F82720107870472046F6
:10A66000FAF732BB7A6C51462046FAF72DBB2DE93A
:10A67000F0478046DFF874A00FF244560FF2784995
:10A68000002515A715A406E04046FAF715FB40463D
:10A69000FBF7C0FB6D1C3078A8B15AF8043B32467A
:10A6A00049464046FAF708FB16F8010B0028FBD193
:10A6B000307800281EBFEDB205F00300032814BF58
:10A6C00021463946E0E7BDE8F0870000202570000C
:10A6D000414443003F3F00000D0A00002C200000D1
:10A6E00000000020286D00209800002004000020B9
:10A6F00070726F63657373006D61696E00000000B6
:10A70000546872656164000048616E646C65720033
:10A710002570206D6F6465207573696E67202570E4
:10A7200020737461636B202825347820746F202592
:10A730003478292C205350203D2025347800000007
:10A7400025752062797465732075736564202825EA
:10A750007525252920696E20257020737461636B2F
:10A7600020286F7574206F662025752062797465C6
:10A770007320746F74616C2900000000537461636E
:10A780006B205F6D61795F20686176652075736508
:10A790006420757020746F203130302525206F665D
:10A7A00020746F74616C2E005350206973206F7594
:10A7B000747369646520257020737461636B207203
:10A7C000616E676521000000496E74657272757074
:10A7D00074732061637469766520286F72207072CB
:10A7E000652D656D7074656420616E64207374619D
:10A7F000636B6564293A00004E6F20696E74657260
:10A80000727570747320616374697665000000006E
:10A8100052657365742063617573653A205761747E
:10A820006368646F6720657870697265642C206E58
:10A830006F2072656C6961626C6520657874726105
:10A8400020696E666F726D6174696F6E0000000042
:10A8500052657365742063617573653A205761743E
:10A860006368646F672063617567687420776974D3
:10A870006820656E68616E63656420696E666F004E
:10A88000496E737472756374696F6E20616464726B
:10A890006573733A2025347800000000534331205B
:10A8A000527800004D41432052780000534332203B
:10A8B0005278000052657365742063617573653A60
:10A8C00020444D412070726F74656374696F6E200F
:10A8D00076696F6C6174696F6E000000444D413A97
:10A8E0002025702C20616464726573733A202534CE
:10A8F0007800000052657365742063617573653A72
:10A90000204173736572742025703A25640000003D
:10A9100052657365742063617573653A204861728E
:10A9200064204661756C7400484653522E56454368
:10A930005454424C3A206572726F722072656164A1
:10A94000696E6720766563746F72207461626C65EE
:10A9500020666F7220616E20657863657074696F20
:10A960006E000000484653522E464F524345443A2B
:10A9700020636F6E666967757261626C65206661DF
:10A98000756C7420636F756C64206E6F74206163E6
:10A990007469766174650000484653522E444542FE
:10A9A00055474556543A206661756C742072656C43
:10A9B0006174656420746F206465627567202D2062
:10A9C000652E672E2C20657865637574656420425A
:10A9D0004B50540052657365742063617573653A1A
:10A9E000204D656D6F7279204D616E6167656D6593
:10A9F0006E74204661756C7400000000496C6C65D3
:10AA000067616C2061636365737320616464726560
:10AA100073733A2025347800434653522E25700034
:10AA200052657365742063617573653A204275736E
:10AA3000204661756C740000416464726573732014
:10AA40006973206F6620616E20696E73747275631E
:10AA500074696F6E2061667465722062757320661A
:10AA600061756C74206F636375727265642C206EFF
:10AA70006F74207468652063617573652E00000033
:10AA8000434653522E286E6F6E6529206C6F6164A9
:10AA9000206F722073746F726520617420616E2064
:10AAA000696C6C6567616C206164647265737300C6
:10AAB000414653522E2570005265736574206361C0
:10AAC0007573653A205573616765204661756C74CE
:10AAD0000000000052657365742063617573653A08
:10AAE000204465627567204D6F6E69746F722046F1
:10AAF00061756C74000000002570203D20253478BD
:10AB00000000000080490108C0490108F849010817
:10AB1000FC490108404A0108F8490108F8490108C0
:10AB20007C4A0108AC4A0108DC4A0108004B0108D4
:10AB3000284B0108684B0108F8490108F849010849
:10AB4000A44B0108D44B01080C4C0108484C0108E7
:10AB5000784C0108F8490108F8490108F84901084A
:10AB6000F8490108B04C0108E04C0108F849010817
:10AB7000204D0108644D0108A44D0108E04D010875
:10AB8000E84D0108F04D0108FC4D0108084E010890
:10AB9000144E0108184E01081C4E0108284E0108E9
:10ABA000344E01083C4E0108444E0108484E01084D
:10ABB000504E0108584E0108604E0108684E0108C9
:10ABC000523000523100523200523300523400529F
:10ABD0003500523600523700523800523900523197
:10ABE00030005231310052313200523133284C5250
:10ABF00029004D535000505350005043007850539B
:10AC000052004D53502075736564005053502075A9
:10AC10007365640043535441434B20626F74746FF7
:10AC20006D004943535200534843535200494E5418
:10AC30005F414354495645004346535200484653EA
:10AC4000520044465352004D4D41522F424641520C
:10AC50000041465352005265743000526574310011
:10AC60005265743200526574330052657434005278
:10AC70006574350044617430004461743100000033
:10AC800030B50FF2D461DFF888530A6883B001A8A9
:10AC90000024026001202870002003F0F3F930B195
:10ACA000002003F0EFF910B12C7049203EBDDFF811
:10ACB0006403018802237F220DF1020000F024F8D2
:10ACC00002237F22002100A800F01EF8204601A9DF
:10ACD000BDF8022031F81010914208BF0124401C39
:10ACE0000228F4D3BDF8000024B1B0F57F7F07D16E
:10ACF00000203EBDB0F57F7F0CBF0620042000E0A1
:10AD00000720012129703EBD10B5FF2908DCDFF8BE
:10AD10000043247844B1BDE81040C9B203F0E5BC5B
:10AD2000BDE8104002F0DEBD10BD2DE9F041054642
:10AD3000FF2D0E46174698460FF2146012DCB44CF5
:10AD40002178A1B1617811B1C221FBF7BDF80120D2
:10AD50006070434632463946E8B203F030FE0020C8
:10AD6000607004E0BDE8F041CD21FBF7ADB8BDE86F
:10AD7000F0814BF25321401A00F00381401E00F095
:10AD8000FC804FF47871401A00F0078140F60F31D3
:10AD9000401A00F0EC804FF48471401A00F0E38018
:10ADA000C01E00F0DA80F43800F0E380401E00F0AE
:10ADB000EC80401E00F0AB80401E00F0EC801138AB
:10ADC00000F0C5804FF4FF71401A00F0E28040F2BD
:10ADD000EF31401A00F0CF80401E00F0C08040F2FA
:10ADE0000F41401A00F0C1804FF43C71401A00F04E
:10ADF000B88040F20221401A00F0E680FD3800F0F1
:10AE0000C680401E00F0BF80C01E00F0B88040F633
:10AE1000DD51401A00F0C480401E00F0CF80401E7B
:10AE200000F0CE80401E00F0CD803C3800F0C080A5
:10AE3000AE3800F0CB80401E00F0CA80401E00F00B
:10AE4000C980401E00F0C880401E00F0C780401E30
:10AE500000F0C6800B3800F0C580303800F0D0809C
:10AE6000401E00F0CF80123800F09E80113800F0B4
:10AE7000BB80D1386DD02A3867D0E73800F0B88071
:10AE80001F3800F08F808B3800F0B480401E00F037
:10AE9000B380401E00F0B28043383ED01E3800F030
:10AEA00085804FF48071401A4BD00C384BD040F263
:10AEB0000A51401A00F07E804FF4FD71401A4AD0CA
:10AEC000F13879D04FF40071401A22D04FF4047158
:10AED000401A2AD0801E2AD04FF4E671401A20D0A2
:10AEE000203820D0401E26D0401E14D00A3816D05C
:10AEF000801F22D040F20221401A1AD040F68B0166
:10AF0000401A4CD008381AD0001F6FD07CE042485D
:10AF100044E0424842E0424840E042483EE0424885
:10AF20003CE042483AE0424838E0424836E0424895
:10AF300034E0424832E0424830E042482EE03548B2
:10AF40002CE041482AE0414828E0414826E04148B9
:10AF500024E0414822E0414820E041481EE04148C9
:10AF60001CE041481AE0414818E0414816E04148D9
:10AF700014E0414812E0414810E041480EE04148E9
:10AF80000CE041480AE0414808E0414806E04148F9
:10AF900004E0414802E0414800E041480088704731
:10AFA000012070470220704703207047042070473B
:10AFB000052070470620704707207047082070471B
:10AFC000092070470A2070470B2070470C207047FB
:10AFD0000D2070470E2070470F20704710207047DB
:10AFE00011207047122070471320704714207047BB
:10AFF000152070471620704717207047182070479B
:10B00000192070471A2070474FF6FF7070470000F4
:10B01000D67F00208C54010874540108765401082E
:10B02000785401087A5401087C5401087E540108C0
:10B030008054010882540108845401088654010890
:10B04000885401088A5401088E540108905401085C
:10B050009254010894540108965401089854010828
:10B060009A5401089C5401089E540108A0540108F8
:10B07000A2540108A4540108A6540108A8540108C8
:10B08000AA540108AC540108AE540108B054010898
:10B09000B2540108B4540108B6540108B854010868
:10B0A000BA5401084BF25321401A012840F2A780FC
:10B0B00040F2E131401A38D040F60F31401A22D028
:10B0C0004FF48471401A38D0C01E36D0F43850D0B6
:10B0D000401E18D0401E00F08A80401E00F08D8077
:10B0E000113810D04FF4FF71401A5ED040F2EF31AA
:10B0F000401A64D0401E06D040F20F41401A14D0CE
:10B100004FF43C71401A7AD040F20221401A08D024
:10B11000FD3812D0401E72D0C01E70D040F6DD51F6
:10B12000401A76D0401E6ED0401E6ED0401E6ED0AB
:10B130003C3864D0AE3864D0401E74D0401E60D01D
:10B14000401E60D0401E60D0401E60D00B3860D0E2
:10B1500030386CD0401E6CD012385AD011385AD0CA
:10B16000D13852D02A385ED0E73858D01F3848D06E
:10B170008B3856D0401E56D0401E56D0433844D04F
:10B180001E3846D04FF48071401A38D00C383CD06D
:10B1900040F20A51401A34D04FF4FD71401A42D0A7
:10B1A000F13840D04FF40071401A24D04FF40471AC
:10B1B000401A24D0801E22D04FF4E671401A18D0D5
:10B1C000203824D0401E1AD0401E14D00A3810D087
:10B1D000801F14D040F20221401A10D040F68B019B
:10B1E000401A0CD008380AD0001F16D023E01820CF
:10B1F0007047142070470620704794207047022043
:10B200007047112070471A207047082070470A20A5
:10B210007047042070470D2070470B20704719209D
:10B2200070475C207047102070472820704712201C
:10B2300070472A207047002070474BF25321401A74
:10B2400001280FD940F2E131401A7CD040F60F318D
:10B25000401A72D04FF48471401A74D0C01E72D05C
:10B26000F43803286FD914386DD04FF4FF71401AA9
:10B2700069D040F2EF31401A012864D94FF482615D
:10B28000401A60D04FF43C71401A5CD040F2022169
:10B29000401A54D0FD38012855D9001F53D040F62C
:10B2A000DD51401A03284ED93F384CD0BE384AD021
:10B2B000303848D0133846D0E23844D02A3842D00B
:10B2C0004FF48371401A3ED08C3801283BD9443862
:10B2D00039D01E3837D04FF48071401A33D00C3833
:10B2E00031D040F20A51401A2DD04FF4FD71401A6E
:10B2F00029D0F13827D04FF40071401A23D04FF4F1
:10B300000471401A1FD0801E1DD04FF4E671401A00
:10B3100019D02038022816D90C3814D0801F12D02A
:10B3200040F20221401A0ED040F68B01401A0AD09A
:10B33000083808D0001F04D007E014207047102000
:10B3400070470620704701207047002070470000BA
:10B35000746F6B656E2E6300FE01FD02DFF87008EE
:10B36000007848B1DFF86C080179012904BF407901
:10B37000042801D10120704700207047010603D541
:10B380004FF67F710840C00070478001B0FBF1F0BC
:10B3900080B2FF288CBF0020C0F1FF00C0B2704710
:10B3A00010F1640FB8BF6FF06300643040B28004E6
:10B3B000000CFF28C8BFFF20C0B2704770B5DFF88F
:10B3C0001848E078012801D1002070BDDFF814583A
:10B3D000687868B1E87861790E182879B6B2864243
:10B3E00028BF064601F004F90121B140491E08407A
:10B3F000697908182081C0B270BD2DE9F047044674
:10B40000C00705D54FF4B8710FF66400FAF75CFD7C
:10B41000DFF8D457286DC00748BF8C2000F1948016
:10B42000DFF8B407DFF8BC770021017101704178C3
:10B43000B1B93978A1B12178122918BF0C290BD1E3
:10B44000627802F00702032A02BF091911F8021CF0
:10B45000042904BF01210171A96F41F0010102E03B
:10B46000A96F49084900A967DFF868877A7898F8D2
:10B470000610DFF87897DFF8786792B10022427102
:10B480000129286D40F00400286506D14FF6FF70B1
:10B4900030604FF40070C9F80000FFF78FFF82465C
:10B4A0000CE0286D20F00400012928654FF0000A07
:10B4B00004D100F030FA6420FEF73EFAA86F20F0C5
:10B4C0000800A8671420E864C5F848A0787838B167
:10B4D00098F80600002801BFA86C00280120A86485
:10B4E000B8790028286D14BF40F0080020F008004B
:10B4F0002865FFF733FF18B1306C40F00800306466
:10B50000202028626C602C604FF4E06468687F3013
:10B51000686004202862DFF8DC06046006E003F0BF
:10B52000C3FB18B1FAF7CAFCFDF70EFEDFF8C80638
:10B53000006800F003000328F1D0C9F80040286D2E
:10B5400040F0010028650020BDE8F087DFF8AC0678
:10B55000002141608160016821F0020101604FF02B
:10B560000070DFF89C1608600120DFF8981608705C
:10B570007047A0F13301DFF89026914200D3704765
:10B5800010B5DFF8804600212170FDF7C2FE02E011
:10B59000012003F091FB20780028F9D010BD2DE99F
:10B5A000F84FDFF84C86DFF83056D8F80000D8F8AE
:10B5B0004010DFF8347601EA0004A4B2C8F8004075
:10B5C0006878002840F0D580E007DFF84066DFF8B3
:10B5D00014964CD5D7F800A0386C796C41EA00413C
:10B5E00099F80000296100283DD09AF801008006F2
:10B5F00039D501202870FFF7B1FEC0B31920FEF73E
:10B600009BF94FF44040DFF808B6CBF82800DBF890
:10B6100000000090F06E40F40050F066F06E40F4D0
:10B620008050F0669AF8001028694901B83101EBA2
:10B63000000A01F0FFFCAAEB00000003000BFFF77B
:10B6400098FFF06E80098001F06600A9F06E09880D
:10B650000843F0660020CBF8280048F26070F066DE
:10B66000E888306003E00022002003F0E1FD2006BE
:10B670000ED5287830B1002028700022296940209A
:10B6800003F0D6FDD8F83C0020F48050C8F83C0008
:10B69000600608D5687830B901F0CCFC014600227C
:10B6A000892003F0C5FDE00654D5DFF828A5DFF8B2
:10B6B0003CB59AF80400012804BF9AF80610012945
:10B6C0001FD1FDF720FC386F40F0010038670020E3
:10B6D0008AF8060001F09EFA0A20FEF72DF94FF6CF
:10B6E000FF70C8F8000000244FF4E060CBF80000C1
:10B6F0000920B8660120B864B86F40F00800B86748
:10B7000018E0697999F80220491C6971C9B291421F
:10B7100015D2012808BF00F0D1F8B86F20F008005A
:10B72000B8671420B866FFF749FEB8644FF400709C
:10B73000CBF80000386D40F0010038650AE00128C0
:10B7400008BF00F0BBF801F075FC014600228D2017
:10B7500003F06EFD20070CD5FFF700FE48B13068FE
:10B76000E88001203060D8F8400020F00800C8F8D8
:10B770004000A0060AD520203862687830B901F070
:10B7800059FC01460022882003F052FD687820B160
:10B7900014F4407F04BF0120A870BDE8F18FDFF8EA
:10B7A00078040088704770B582B0044601F00DF946
:10B7B000DFF86804DFF82454002101601521E960F6
:10B7C000092101651F21416001210166DFF848045C
:10B7D000008800F068FF01F045FA03F065FD00F015
:10B7E0001CF9DFF8F063308900F044F9708900F04B
:10B7F00049F9FDF7A9FC696841F040016960FDF76E
:10B80000A9FC707800F0DEF8B07800F0EBF8DFF813
:10B810001004007800F018F9DFF8080490F900002F
:10B8200001F012F9307800F09BF996F9030000F06E
:10B83000A3F9DFF8F40300F0C1F9BDF80000DFF868
:10B84000EC13C0054CBF0020BDF800000870DFF805
:10B85000E003007801F0BBF828B10FF2144040F289
:10B86000B631FAF731FB012C05D12868C00711D594
:10B8700000F024F80EE06CB92868C0070AD4FDF780
:10B8800042FB286840F001002860C820FEF754F809
:10B890000020B071F120DFF85843206440F2F91025
:10B8A000E06301F0B7F92868C00704D54FF6FF70D0
:10B8B000206000F05DF8FDF75AFF73BD70B5DFF84A
:10B8C0007453DFF810432E68A079012822D0FDF7C9
:10B8D0003BFCB6B2DFF81C232E604FF4E061116030
:10B8E000DFF830130A6A520852000A620A685208E6
:10B8F00052000A600A6842F002020A604A6A42F094
:10B9000001024A620121A171FDF724FCBDE87040EB
:10B91000FDF7CABA70BD70B5AE4CA07938B3FDF76B
:10B92000F2FAFDF711FC0546DFF80C13AC4E0120CE
:10B930000860306D40F0010030650020A07101F01A
:10B9400069F920203060306B40F002003063F06D08
:10B9500040F00800F0652846FDF7FCFB0A20FDF7E3
:10B96000EBFFA3494FF6FF70086000F001F870BDCF
:10B970004FF4E0609D4908607047964880797047B1
:10B9800094480079704780B5022801DB012002BD90
:10B99000904908718979884205D010B9FFF7BBFF3B
:10B9A00001E0FFF78BFF002002BDA4480068800281
:10B9B00000149A3801B211F1800FB8BF6FF07F0008
:10B9C00040B2704710B50446FDF7BEFB9C490A68BB
:10B9D000002C14BF42F0120222F012020A607D49CC
:10B9E0004C7040E038B50446FDF7AEFB0546FDF768
:10B9F000D5FA40B992480168002C14BF41F080018B
:10BA000021F080010160734884702846BDE832400F
:10BA1000FDF7A0BB6F48807870478A494A780B7859
:10BA2000894803EB022202608B78CA7803EB02227A
:10BA300042600B794A7903EB02228260CA798979E4
:10BA400001EB0221C160704710B50446FDF77CFB95
:10BA50007B490A68002C14BF42F0200222F0200229
:10BA60000A606F490C70BDE81040FDF773BB594880
:10BA700000897047574908817449086070475548E4
:10BA8000408970475349488171490860704771483F
:10BA9000007870475F48816A41F0020181620121AC
:10BAA000016070475B4800210160816A21F002015A
:10BAB00081625020FDF740BF38B5674C6748216967
:10BAC000674D0180E1694180E96C8180002020613F
:10BAD000FFF7E0FF0120E0610020606220624CF28D
:10BAE0005D00E864286840F4004028604FF400409E
:10BAF000206048F20200206031BD80B5FFF7D2FF20
:10BB000055484FF4004101600021016054490A6822
:10BB100022F400420A60514A9388CB641188016183
:10BB20005188C16101BD70B54B4C82B06568266813
:10BB300048F20100206048F2320060602068ADF8F1
:10BB400000008020FDF7F8FEA068ADB26560B6B2D7
:10BB50002660800B00F0010076BD424800787047F7
:10BB60001E490A68002814BF42F0020222F00202B5
:10BB70000A6018490870704738B504467F2C0AD10E
:10BB8000394800F01BF8BDF80000C00554BFBDF8EF
:10BB900000406FF04A04FDF7D7FA0546FDF7FEF9BD
:10BBA00030B964B204F19A0080053049000C086095
:10BBB0000848C4702846FDF7CDFA31BD018802233C
:10BBC0007F2200A801F08EBE024890F90300704762
:10BBD000E07F00201C6F0020607E0020802000405D
:10BBE000302000407C6D00201020004000E100E08B
:10BBF00004A0004080E100E0A820004010E000E048
:10BC000004ED00E0E17F0020CDFF0700641000405C
:10BC1000E410004060200040186F00205C100040DD
:10BC2000DE7F00200C6F0020AC540108DA7F00207A
:10BC3000086F00201C100040281000400C1000402D
:10BC400084200040887E00209820004094200040FE
:10BC5000902000401A6F0020181000405E790020EC
:10BC6000C0100040DF7F0020B25401085410004093
:10BC70007068792D636F6D6D6F6E2E63000000002C
:10BC800010B501F00301890003880F2400F00BF8C0
:10BC9000018010BD10B501F007010378012400F008
:10BCA00002F8017010BD8C40A34302FA01F1194360
:10BCB00070472DE9F0477C4C7C4D20702178287826
:10BCC00059B10FF20821F8F7F7FF28780FF2482151
:10BCD000F8F7F2FF0FF288210AE00FF2BC21F8F723
:10BCE000EBFF28780FF2F421F8F7E6FF0FF230317E
:10BCF0002878F8F7E1FF20786D4E6E4FDFF8B881B5
:10BD0000DFF8B891DFF8B8A100284FF4C00529D0BA
:10BD1000092200F05AF800F053F80022152100F033
:10BD20004CF800221521B81CFFF7B4FF0922162198
:10BD300000F04CF80122162100F044F800F03BF826
:10BD400000F035F834683560FDF7DDF83460002127
:10BD50005C485D4A41654FF48041116004220260F5
:10BD6000C16022E0012200F030F800F029F8012241
:10BD7000152100F022F801221521B81CFFF78AFFD7
:10BD80000822162100F022F80822162100F01AF8E5
:10BD900000F011F800F00BF834683560FDF7B3F8E7
:10BDA0003460BDE8F04701F0F1BCBDE8F087012246
:10BDB0001621B81C6EE70122162108F1020069E77E
:10BDC0000122152109F10A005AE715210AF10A009A
:10BDD00056E710B500F040F822B1022908BF0FF273
:10BDE000782115D019B102290ED00BD30EE006240C
:10BDF00022460FF2B021F8F75FFF2046BDE8104061
:10BE000003F05EBA0724F3E71524F1E70FF284216B
:10BE10001EE010B500F020F822B1022908BF0FF291
:10BE2000382115D019B102290ED00BD30EE006240B
:10BE300022460FF28021F8F73FFF2046BDE8104070
:10BE400003F04DBA0724F3E71524F1E70FF244217C
:10BE5000BDE81040F8F730BF8068134A0168134806
:10BE600012780078704710B5FFF7F6FF22B102296B
:10BE700008BF0FF2E41115D019B102290ED00BD36F
:10BE80000EE0062422460FF23C21F8F715FF20466B
:10BE9000BDE8104003F039BA0724F3E71524F1E7B1
:10BEA0000FF2F011D4E70000CD7F0020286D0020B4
:10BEB000C8790020046E0020006E0020146E00205F
:10BEC000086E002014A8004080E100E05043352FA8
:10BED00050433620617265206265696E6720636F2A
:10BEE0006E6669677572656420666F722054585F6C
:10BEF0004143544956452F6E54585F414354495667
:10BF0000453B206120706F77657220616D706C69B0
:10BF1000666965722E0D0A004966207573696E6741
:10BF2000206120627265616B6F757420626F61724F
:10BF3000642C20425554544F4E312773206A756D3E
:10BF40007065722C20425554544F4E315F454E2F30
:10BF50004A392C2073686F756C642062650D0A0085
:10BF600072656D6F76656420666F72206E54585FDF
:10BF70004143544956452064756520746F20612003
:10BF80006465626F756E6365206361706163697477
:10BF90006F722E0D0A0000005043352F504336209B
:10BFA000617265206E6F74206265696E67207573BB
:10BFB000656420666F72206120706F776572206102
:10BFC0006D706C696669657220616E64206172656E
:10BFD000206265696E670D0A00000000636F6E667F
:10BFE00069677572656420666F7220424F415244E2
:10BFF0004C45443220616E6420425554544F4E31BA
:10C000002E20204966207573696E67206120627258
:10C0100065616B6F757420626F6172642C0D0A002C
:10C02000425554544F4E312773206A756D706572B6
:10C030002C20425554544F4E315F454E2F4A392CD7
:10C040002073686F756C6420626520696E7374611B
:10C050006C6C65642E0D0A00424F4152444C4544BD
:10C060003220697320756E617661696C61626C65FE
:10C070002064756520746F20706F77657220616D24
:10C08000706C696669657220656E61626C65640DCD
:10C090000A000000496E76616C6964204C45440DCD
:10C0A0000A0000006C65646F6E203D2025640D0A57
:10C0B000000000006C65646F6666203D2025640DFD
:10C0C0000A0000006C6564746F67676C65203D2032
:10C0D00025640D0A00000000002070472DE9F04F94
:10C0E00083B088460178DFF890430091914622881A
:10C0F000DFF88863DFF88853ADF8042001277278F1
:10C10000002A1CBFB278002A9A4606D06868401CF4
:10C1100068602868401C286065E0009ADFF864B316
:10C12000802A05DA4A1C014692B25846F9F732F8DD
:10C13000009895F83010884220D100270021DFF8C0
:10C14000480301E00127491C009A914216DA01EBED
:10C150000B024B1990F801C0527893F8313051EA34
:10C160000C0C04BF02F0DF0203F0DF039A42EAD0B6
:10C170000229E7D10278002AE5D0E3E7BDF8040000
:10C1800001F093F810B9E868401CE860DFF8FC02A1
:10C19000008870712188318186F80680C6F8149075
:10C1A0000C98307186F803A02869F278101828617D
:10C1B00096F904206869101868617279286A101865
:10C1C00028622868401C2860686A0818686217B1ED
:10C1D000A868401CA8603069010018BF8047B0788B
:10C1E00008B101207070BDE8F78FDFF89402C16AD2
:10C1F000491CC16270472DE9F04FDFF880B20FF2A1
:10C20000E8239BF800B00FF2E8290FF2EC2C0FF2B4
:10C21000F02E0FF2F4280FF2F82ABBF1000F8DB0C8
:10C220007DA27EA07EA17FA47FA58AA78AA611D029
:10C230000FF2E42BCDF82CB0CDF828A00996009091
:10C240000191CDF82080CDF81CE000F015F80FF238
:10C2500054200CE0CDF828A0099600900191CDF86B
:10C260002080CDF81CE000F007F80FF2B420F9F7B9
:10C27000D3F90DB0BDE8F08FCDF818C00597CDF813
:10C28000109003950294DFF80802D0F8001470476C
:10C29000DFF8E8110022CA718A81DFF8F8211080E6
:10C2A000002048817047F0B5DFF8D851DFF8CC6145
:10C2B00096F904008BB02C78FFF772F80746F078F7
:10C2C0002146FFF762F8099404970290B179F0785B
:10C2D000B3897289089101907169F0790791009092
:10C2E00031890FF27C2006917179059196F904103D
:10C2F0000391F189F9F7A6F9307880B157A0F9F7E1
:10C30000A1F9012656A704E0715D3846F9F79AF9BC
:10C31000761CF6B2B442F7DA52A0F9F793F90BB0F3
:10C32000BDE8F0400FF26C20F9F78CB92DE9F04729
:10C3300082B0064600208DF80000FFF71EFB804605
:10C34000DFF84C01D0F800940FF250204946F9F77D
:10C3500079F93046FFF74FFFDFF820610020707059
:10C360000120B070FFF7D7FA0020FFF791FFDFF848
:10C3700028A1DFF81041DFF824510DE00020F07112
:10C38000FFF791FF002070709AF8000020B100F0D4
:10C39000BDFE08B101F00EF89DF8000065282CD014
:10C3A0002878F9F7BCFB18B1287800A9F9F7C2FB87
:10C3B00070780028E8D02078015D001910F8010C91
:10C3C00040EA0127B089381A80B2B0F5805FA4BF77
:10C3D0000120FFF75DFFDFF8BC000088F081B78126
:10C3E000381A80B2002818BF002FC7D0C82101FB1F
:10C3F00000707900B0FBF1F0C1E7B8F1010F08BFA0
:10C40000FFF75CFA0020B07049460FF2AC10F9F764
:10C4100019F9BDE8F38700006E756D007365710052
:10C4200070657200657272006C716900DFF850000F
:10C430000021016041608160C16001614161016270
:10C44000416281628161C161C1620020DFF85010E8
:10C450000860704765640000667000007B000000A3
:10C46000202568007D0000008068006800B1012080
:10C470000249087070470000967E0020D0740020AA
:10C48000E87400209C750020676D0020987E0020D5
:10C49000C04301089A7E0020666D0020286D0020B0
:10C4A000787E0020237B264E0D0A20202674202033
:10C4B0002026742020267420202026742020267414
:10C4C00020267420202674267420202026742026FE
:10C4D00074202674202020202020202674267426F4
:10C4E000747D0D0A000000006F666C6F0000000094
:10C4F00072737369000000006761696E00000000DC
:10C50000737461747573000074696D6500000000D8
:10C510006C656E67746800007061796C6F616400AF
:10C52000237B264E0D0A20202674202020267420EE
:10C530002026742020202674202026742026742093
:10C540002026742674202020267420267420267429
:10C5500020202020202020267426747D0D0A000033
:10C560007B20263575202635752026357520263307
:10C57000752026347520266820266420266820260B
:10C580006820263268202634682026642026682009
:10C5900000000000207D0D0A000000007B264E20D8
:10C5A0007465737420737461727420282765276E14
:10C5B00064297D0D0A0000007B264E20746573748B
:10C5C00020656E647D0D0A0081B209B94BF6EF61FA
:10C5D0000E4A1180000C08BF4FF6CE2050807047E5
:10C5E0000288130448BF4A4051000180104670473A
:10C5F00038B5064C62212046FFF7F2FF054641F2AE
:10C600000B01A01CFFF7ECFF684032BDBA6D0020A3
:10C61000DFF8143533F810001040C840704730B5CB
:10C620000FF2C854DFF8043534F810409C60114014
:10C63000DFF8F44434F8105095432943D9600222BE
:10C640001A6000221A6024F8101058680028FCD1E3
:10C6500030BDDFF8DC24DFF8DC041278DFF8D81412
:10C660000AB149780EE0895611F1090FB8BF30219F
:10C6700008DBC16D39B1C26D40F24A31B1FBF2F154
:10C6800089B2C91E01607047E0B5DFF8B0040188C7
:10C690000A2300F064F8BDF806104FF6FF720D2073
:10C6A000FFF7BDFF07BDF8B50546B5F5004FDFF84C
:10C6B000884419D1DFF888040188022300F04FF87C
:10C6C000BDF80000000AFF2814BF00281820607081
:10C6D000BDF800000006C00E10281CBF001D00F0B1
:10C6E000B3F9BDF80000C543DFF84464707808B1C1
:10C6F000002005E0A089ADB26840C00701D5012047
:10C700007070DFF84004A58105F00104016841F470
:10C7100000410160C5F340070FF2F44000EB440014
:10C720004FF440524078010389B20220FFF777FFAF
:10C73000204602F00BFE4022B90100F021FA2D063E
:10C74000A80E00F0010038433070FFF782FF7078C8
:10C7500018B1FFF799FF002070700020F2BD7F2212
:10C7600000A801F0BFB8A0F10B02A0F10B01102A44
:10C7700089B201D38A207047012202FA01F1DFF861
:10C78000C82353880B4353800123137093881943A4
:10C7900091800021DFF8B423117046E12DE9F04FBC
:10C7A000DFF8AC43207887B0042304900B210B38CA
:10C7B000C0B2039000A8039AFEF7A6FA9DF8000005
:10C7C0008DF80A009DF801008DF809009DF802001F
:10C7D0008DF808009DF803008DF80500DFF874035C
:10C7E0000078012804D16078451EAD41ED0F00E0CE
:10C7F000012500F05DFC83469DF902000399D24FAC
:10C800000BF10A0AABF10A065045B6BF86424FF05B
:10C8100001084FF0000801208840ADF806009DF89F
:10C820000100000604D47888BDF80610084201D043
:10C830004FF0010802F000FE9DF8030000060AD444
:10C84000B888BDF80610084205D19DF90000504592
:10C85000B8BF864202DB4FF0010901E04FF000094A
:10C8600048EA050059EA000000F09E80DFF8E8A2DF
:10C87000BA49DAF8000000F002008DF80400B84868
:10C88000006800F4E06005904FF4E060086000206C
:10C89000FFF766F9FCF76BFFB24EADB1607858B1A7
:10C8A000DAF80000AB4940084000CAF80000012057
:10C8B0000870FDF741F807E0306840F40050306040
:10C8C000306820F480503060A248007801280DD1F3
:10C8D000FCF719FBDAF800009E4940F00100CAF8A5
:10C8E0000000002008706420FDF726F82DB1607864
:10C8F00018B90498C0B202F0D8FD607838B1306839
:10C9000020F480503060306840F400503060BDF852
:10C910000600C543B8F1000F08D002F0B1FE8DF853
:10C9200001008DF802B0788828407880B9F1000FB6
:10C9300008D002F056FF8DF803008DF800B0B888DB
:10C940002840B8809DF900009DF90A10884202BF76
:10C950009DF801009DF8091088420BD19DF9020055
:10C960009DF90810884202BF9DF803009DF805104C
:10C97000884206D00399042300AAC9B20B20FEF70F
:10C98000D4F905987649086000F044F99DF8040050
:10C99000FFF7E6F801F031F8607828B148F26070EE
:10C9A00030606420FCF7C8FF9DF8010002F0D4FD60
:10C9B0009DF8030002F010FF07B0BDE8F08F80B5CE
:10C9C00000F069FBBDE80140E8E600F064BB70B52B
:10C9D0000646A6F10B04FEF7D0FF0546A6F10B00B4
:10C9E000102801D38A2070BD5F488168090702D4EE
:10C9F0000068C00701D58C2070BD554806705B48A3
:10CA000001680C290FD00FF27C11594A92F90020CD
:10CA1000A4B231F824105118C161FFF7BFFE012DF7
:10CA200008BFFEF74BFF002070BD10B5044600F0B4
:10CA300032FB2046BDE81040C9E745480078704702
:10CA40003D4890F9000070472DE9F041044614F18B
:10CA50002B0F86B045DB474801881423FFF77FFE84
:10CA6000BDF810004FF6FF71884203D0400448BF64
:10CA7000012606D43F2200211020FFF7C9FD0546FC
:10CA8000002604F12B022F2A2B483B491AD21322ED
:10CA90000FF2301300E0521ED2B213F91270BC42F2
:10CAA000F9DB03EB4204032764780C60002413F8DD
:10CAB0001210017000208046AEB1BDF810104FF684
:10CAC000BF7229E0092C0CDA225C0A60047014237E
:10CAD0002A480188FFF743FE01240320A0462827A7
:10CAE000EAE78B201DE0C1024FF4605200F048F8E5
:10CAF0004FF4E062210200F043F880224FEAC811AF
:10CB000000F03EF885F020003D18ADB2402DA8BFE2
:10CB10003F253F2285F0200100F032F8FFF799FD14
:10CB2000002006B0BDE8F0813C7E0020E810004007
:10CB3000DB7F0020641000400C6F0020805401084F
:10CB40009E5401081C1000404E770020EC7F00200E
:10CB5000086F0020226F00208020004080E100E06C
:10CB600000E100E0D010004060200040AC10004028
:10CB7000DA7F00207C540108C01000407E54010878
:10CB80000B204CE5AA212900552329000025280067
:10CB9000AA26270055282700002A2600AA2B2600AF
:10CBA000552D2500002F2400AA30240055322300E3
:10CBB00000342200AA352200553721000039200018
:10CBC000AA3A2000D500E601EC02EF03F204F405D6
:10CBD000F506F707F808F909FA0AFB0BFC0DFD0F3B
:10CBE000FE11FF1300160119021C031F1000110093
:10CBF00020003000400041005000600070008000C4
:10CC00009000A000B000C000D000E000F0000000E4
:10CC10000000010310B5DFF8544510202063FCF735
:10CC200093FADFF84C150A6842F001020A60FCF73B
:10CC300091FADFF8400500F1180161602160A2302F
:10CC400061688931616001212163E060A060DFF8E3
:10CC50002815E0688930E060022020634FF6FF70FD
:10CC6000086010BDDFF8140545F26401C1601E21A3
:10CC7000416250210162C821C1618165F021C16515
:10CC800045F690014166882181660621C16644F21D
:10CC9000066101604FF6FF714160DFF8E40400783F
:10CCA00038B1DFF8E00448F2607101604FF4C1511F
:10CCB0004160DFF8D404016841F004010160002004
:10CCC000DFF8C814487070472DE9F04FDFF8A4145E
:10CCD0008A2283B002FB0011183100910427491CFD
:10CCE00004464A78097801EB0225ADB205F44062AA
:10CCF000B2F5006F05F440414FF000094FF0010A12
:10CD000008BF082703D0B2F5406F08BF0E2719B13E
:10CD10006A065CBFBA1CD7B2DFF87424DFF854345B
:10CD200012785A70C0180190A806019A82F80290F1
:10CD300068D5DFF86064706E000663D50098381817
:10CD4000B1F5404F4FF4806B4FF4006807D1FFF707
:10CD5000C3F95FEA00094BD007F1080019E0B1F50B
:10CD6000004F45D100994078795C01EB002080B2FA
:10CD700002F000FEFF2808BFCA4609D0DFF81814E9
:10CD8000096831F810004FF4FE61084230D0D146F6
:10CD9000B81CC0B2410805F00702032A28D1002CB4
:10CDA00014BF726832688A4222D3002C14BF7268A2
:10CDB00032684B1C9A42F8D30099405C042817D182
:10CDC000BAF1000F02D0B9F1000F11D0F06DC0061A
:10CDD00006D400F019F803D0706C40F001007064C4
:10CDE000012001998870DFF88C13B069C86009E0F0
:10CDF000F06DC00606D500F007F803D0706C40084F
:10CE000040007064BDE8F78FB06C04B1C34610EA0F
:10CE10000B0F70472DE9F04E0446DFF85863DFF83A
:10CE200074538A2000FB046082B000F1180B002CC0
:10CE30000CBF28686868C1B2052903DA7069401C14
:10CE4000706168E040005FFA80F909EB0B00A0F127
:10CE500008073878797801EB00201FFA80FAA6F8E5
:10CE600006A03879308170783870FCF7BEF9787098
:10CE7000CA4FF86B20F48050F863686E14B93868B4
:10CE8000400504D4012C1FD1386800051CD5C448C6
:10CE9000017889B1002101701AF4E45FC14801688A
:10CEA00002D00022402005E09BF80100000900F0BC
:10CEB00001028F2002F0BCF9002C0CBF4FF48060FF
:10CEC0004FF40060386021E01AF4E45F1BD1FEF7F4
:10CED000DEFD10B15FEA4A4015D59BF800008028BE
:10CEE00011DA686BADF800004946286BADF8020016
:10CEF000009830617089401C7081A0198278584672
:10CF000002F0A8F902E0B088401CB080002C0CBFF1
:10CF1000012002202861BDE8F38E2DE9F047964CF0
:10CF2000A04E2068216C9B4FDFF87C82DFF8709266
:10CF3000DFF840A201EA000519E038B14878C006E0
:10CF400004D4316800228F2002F072F9280605D53A
:10CF500002F0A7F9802025F080052060E80506D5BD
:10CF600002F09FF94FF4807025F480752060002D49
:10CF70005CD0280706D50020FFF7A6FE082025F084
:10CF800008052060E80606D50120FFF79DFE102069
:10CF900025F01005206005F06000602803D1B86C12
:10CFA000C0050AD401E0A80605D52020206025F0A0
:10CFB0002005002006E0680606D54020206025F008
:10CFC00040050120FFF726FFE80404D54FF4805008
:10CFD00025F480552060E807B8D5012020606D0851
:10CFE0009AF800006D000028B0D0FEF7C9FC0128B7
:10CFF000ACD199F800000028A8D098F800000428C7
:10D00000A4D1F868400800F001008A2101FB00A1CA
:10D010001831002814BF7A683A6812B92268D2041D
:10D02000F7D5002814BF7868386886E700202060AC
:10D03000BDE8F0875D4800687047F0B504460D46CE
:10D0400089B00021032000F081FC04AE1BE0002722
:10D0500000F097FC26F8170000F093FC00A921F8D7
:10D0600017007F1C082FF3DB04A802F0E9FC002066
:10D070002080218836F810205140401C082821804B
:10D08000F7DB6D1EA41CEDB2002DE0D100F0B5FC65
:10D09000012009B0F0BD0321022000F057BC4FF67B
:10D0A000FF71081A292190FBF1F03A3040B2704725
:10D0B00038B500F066FCFFF7F2FF3D4D04462878D6
:10D0C000B0B90321032000F041FC3A480188022353
:10D0D0007F2200A800F006FC00F053FCBDF8001011
:10D0E000401880B2FFF7DBFF153868700120287008
:10D0F00000F083FC6878201A40B232BD80B503216D
:10D10000022000F023FCBDE80140D1E770B52A48B9
:10D110000078002490B9FFF7F1FF1C4E05467078A7
:10D1200048B13078401B40B202F09BFC0B2805DB75
:10D130003570012402E0012035707070204670BD0A
:10D1400080B540B11D49002008600948016821F000
:10D150008001016001BDFEF737FDFEF70DFDFEF712
:10D1600059FCBDE80240FEF73DBC00000020004035
:10D1700084200040907E002000A000404C10004021
:10D18000096F0020D010004080200040E47F002084
:10D19000086F002020200040A46D002004A0004063
:10D1A000607E0020707E0020216F0020382000402B
:10D1B000E27F002088540108226F002054100040B4
:10D1C00010B50446DFF8FC00D0F800150FF200108F
:10D1D000F8F738FAA0680068C0B2FFF7C4FA024650
:10D1E0000FF22C110FF22010F8F72CFA2046BDE8B0
:10D1F0001040FAF77BBE10B5FEF7D1FA0446FEF7F1
:10D20000CEFAC0F34000002814BF0FF248130FF20B
:10D210005013E007DFF8A8000FF2FC010078BDE82A
:10D2200010404CBF0FF21C120FF22012F7F744BD52
:10D2300070B50446A06805784668022DBCBFF6B2FA
:10D24000022E07DBDFF878000FF220110078F7F7E5
:10D2500033FD06E03046FEF72CFD45EA4600FFF7B9
:10D2600022FA2046BDE87040C5E770B50446FEF7D7
:10D2700084FB0546A068144E00683070FEF74BFB37
:10D28000FFF7DBFBFFF7D1FB04F1110196F900304A
:10D290000FF214120FF2F000F8F7D4F9012D04BFC9
:10D2A000BDE87040FEF70ABB70BD00F480407047D7
:10D2B000064804210160016B41F0010101637047E0
:10D2C000286D0020C0430108DA7F00203020004094
:10D2D0007B264E2053657474696E67206368616EA7
:10D2E0006E656C20616E6420706572666F726D6928
:10D2F0006E672066756C6C2063616C696272617424
:10D30000696F6E2E2E2E00002674687D0D0A0000B7
:10D310007374617475730000547820706F77657250
:10D32000206D6F64652073657420746F20257320F1
:10D330006C6576656C207769746820257320504190
:10D340002E0D0A00424F4F53540000004E4F524DD5
:10D35000414C000045585445524E414C00000000DD
:10D36000494E5445524E414C00000000496E7661D2
:10D370006C696420547820706F776572206D6F64DB
:10D38000652E0D0A000000007B264E2026746420C6
:10D390005B31316B487A20696E6372656D656E74BE
:10D3A000735D7D0D0A0000006F6666736574000092
:10D3B00070477047FFF703BB70B5044643380FF260
:10D3C000800508D0401E012809D9801E01280ED9E9
:10D3D000C01F32D02AE0BDE8704001F0F3BB002648
:10D3E00000E0012601F0EEFB0028FAD12EBB134E1F
:10D3F000307810BB01203070002000F043FE452C37
:10D4000011D00BD3472C01D003D307E040F6010025
:10D4100001E040F60200FCF78BFE04E040F216311A
:10D420002846F8F751FD0020307070BD2846BDE851
:10D4300070404FF44A71F8F747BD70BDCF7F0020B0
:10D44000656D6265722D636F6E6669677572617472
:10D45000696F6E2E6300000038B544784568FBF7AD
:10D4600073FE194A0C2161438B585B1BB3F1004FCB
:10D4700098BF8D50BDE83240FBF76CBE38B504460E
:10D480000D46FCF7C8FA281860600120207020467D
:10D49000BDE83240E0E738B50446FCF7BCFA054683
:10D4A0000DE0017851B1042904D04168691AB1F145
:10D4B000004F03D804210170616888470834206850
:10D4C0000028EED131BD000000770020A7490A896D
:10D4D000002812BF42F004004FF6FB701040088194
:10D4E0007047000070B5A148A14942780B685B07FE
:10D4F00025D5032A23DA838800EB4204A381012384
:10D50000847803FA02F2224382709A4C0278002A4D
:10D5100012D0002522FA05F6F60708D5AB40457073
:10D520005A40027010EB4500808A206007E06D1CB5
:10D53000EDB2032DEEDB02E02260032242704FF6D3
:10D54000FF700860BFF35F8F70BD38B5FBF7FCFD5F
:10D5500086490A78FAB1874B1C68E4071BD400247B
:10D5600022FA04F5ED0711D50125A5404C706A405B
:10D570000A7001EB44017E4A898A19604FF6FF71F7
:10D5800011604FF400617C4A116005E0641CE4B254
:10D59000032CE5DB00E00324FBF7DCFD204632BD75
:10D5A0007248002101700022032141700021C170E6
:10D5B0000521018100218170001D6E490A604A60C9
:10D5C0004FF400428A601022CA60486101208861DD
:10D5D0000320C8600421664801644FF6FF710160B2
:10D5E0004FF4006064490860FFF74EB870B52A290F
:10D5F000044601D0012070BD5C4D2989D00040EA6D
:10D600004330084305EB44018882012000FA04F608
:10D61000287830420FD1FBF797FD297831432970E4
:10D62000A978B143A970FBF795FDFFF78EFFA042E3
:10D6300001D1812070BD822070BD2DE9F8430446E0
:10D6400088464E4F4C4D01F02FFB48B92868000525
:10D6500006D53868800800F0010080F0010600E07F
:10D660000126FBF771FD81463EB12868000504D50F
:10D670003868400748BFFFF735FF3C498A780120EA
:10D68000A04022FA04F3DB0708D501EB4403504025
:10D690009B89A8F800308870802409E00A7802424B
:10D6A00018BF822404D14878A0420CBF812484246E
:10D6B0004846FBF74FFD2046BDE8F28338B50446E7
:10D6C0000D4629462046FFF7B8FF842818BF80285A
:10D6D000F7D132BD38B50446072389222A21FFF746
:10D6E00085FF224D05F11C012046FFF7E7FF80284A
:10D6F00009D10723B9222A212046FFF777FFA91D68
:10D700002046FFF7DBFF802805D1E988AA8B891A1C
:10D71000E980012101E000210120E97032BD38B526
:10D72000124D0446E87808B9FFF7D4FFE878D0B185
:10D73000B5F9060020B9FE210FF24800F8F7C4FB46
:10D74000B5F90600B5F91C1000EBD072611A521041
:10D7500002EB014191FBF0F4FCF7AEF8604300EB03
:10D760008000001432BD064832BD00003077002032
:10D7700010A8004004E0004000E100E050A8004094
:10D780000080FFFF6164632E630000002DE9F0411B
:10D79000454C464EDFF81881002020654FF40055B7
:10D7A000356002202060E56000202065206D40F09B
:10D7B000600020650E2000F01DF888F800004FF48E
:10D7C000804700206065376004202060E7601620F5
:10D7D0003849086000206065606D40F06000606559
:10D7E000162000F007F888F801003348056007604C
:10D7F000BDE8F0810E2802D0162802D009E02F489B
:10D8000000E02F480068800900F0010080F001006E
:10D8100070470020704710B523484FF40051C16095
:10D82000022101600E20FFF7E5FF214C227801461E
:10D830008A4218BF21700DD1501E8041C00F207048
:10D840000E20217802F012F92178481E8041C00F85
:10D8500020702178BDE810400E2002F007B910B505
:10D8600011484FF48041C160042101601620FFF788
:10D87000C1FF0F4C627801468A4218BF61700DD11A
:10D88000501E8041C00F60701620617802F0EEF8E3
:10D890006178481E8041C00F60706178BDE810401B
:10D8A000162002F0E3B8000014A8004080E100E078
:10D8B000D07F002020BC004000E100E008B2004022
:10D8C00008B4004072B6704700BF30BF00BF704759
:10D8D000BFF35F8FBFF34F8FBFF36F8F70470000B1
:10D8E00062B6704730B5044610467F2808BF002056
:10D8F000B1F5004F83B01AD108237F2240F6120100
:10D9000000A8FFF7EFFF08220FF2380100A8F7F791
:10D910008BFC30B908237F2240F2A27100A8FFF7E8
:10D92000E1FF082200A92046F7F734FC37BD044D7B
:10D93000294300FB03111A462046F7F72BFC37BD9D
:10D9400000000808FFFFFFFFFFFFFFFF70B505465F
:10D950000E46FFF7B7FF3D4C206C20F00800206416
:10D96000FFF7BEFFFBF7F0FB310341EAC511384A70
:10D9700041F00101116008212160BDE87040FBF712
:10D98000E9BB2DE9F041334C334D304E25E0FFF734
:10D9900099FF324904200860306C40F00800306480
:10D9A0002F682868400840002860FFF791FFD4F8EE
:10D9B0000080206820F040002060FFF785FFC4F859
:10D9C00000802F60FFF784FF306C254920F00800AD
:10D9D000306404200860FFF783FF30680007D6D565
:10D9E000082030601F48006880B2BDE8F08180B533
:10D9F000FFF7ACFFBDE80140C3E7154801684908DF
:10DA0000490001607047F8B50746FBF755FF04462B
:10DA100039460320FFF7EBFF054639460120FFF7A3
:10DA2000E6FF064639460020FFF7E1FF08490A688D
:10DA3000520852000A60401B0004711BB0FBF1F059
:10DA400060434000000CF2BD0000000018A0004040
:10DA5000047000400080004094ED00E000E100E030
:10DA600080E200E000700040DFF8E8144FF400208E
:10DA700008600021DFF8E00441604FF0FF310160F1
:10DA800070478178DFF8D4241068C84000F00100A6
:10DA9000704770B50446A0782178DFF8C454DFF8E9
:10DAA000C43498B9A1B32169A6898E4288BF0E46B5
:10DAB000881B206126B1A1681868F2B2F7F76AFBEB
:10DAC000A0683018A060AE60012020E001B3216999
:10DAD000A6898E4288BF0E46891B21616169711833
:10DAE0006161002E1CBFA168002904D053F82000FA
:10DAF000F2B2F7F74FFBA0683018A060A178DFF80A
:10DB0000680450F8210006600120A1788840286050
:10DB100070BD10B5DFF85424126800F00F03002127
:10DB20009B1804064CBF93F8D43093F8E1302BB126
:10DB3000282000FB032000F1340104E00F231842E9
:10DB400008BF02F13401084610BDDFF8201409684F
:10DB5000CA7F01F11F03062808BF5A709A70C87760
:10DB6000096B4B68190018BF824202D0014610466B
:10DB700018477047DFF8F4030068C07F704710B59E
:10DB800000F011F8040002D1D42100F005F894F857
:10DB9000200000B1012010BD0FF23440F8F794B915
:10DBA0000C4615461E46C0B2B3E72DE9F14FDFF82B
:10DBB000BC53286882B0F0220021F7F72EFB2868BA
:10DBC0000FF20C4A011D01600722029909684162A7
:10DBD0004FF001090299496881620026029989681B
:10DBE000C162CB460299097B8177286800F11D014B
:10DBF0008A700022CA700A71174602994969016346
:10DC000042770121286800F8342F82608270C18138
:10DC1000C27002714271082181810261426180F803
:10DC2000202042620221C16190462868846A60888F
:10DC30000019009015E09A08029B1B69F35C521CC6
:10DC40005A43C26108F101082A68891881F8E16025
:10DC50008078062803DB40F2BD1100F0AFF8207891
:10DC600004190098844242D2207818B940F29311E6
:10DC700000F0A4F860780528F1D12868761C2821E6
:10DC800001FB0600A178CA0900F8342F0021816049
:10DC90004FF0000CA178C170002A01F00F018170D3
:10DCA0000BFA01F3C381E37803F003030371A38844
:10DCB0008381C0F810C0C0F814C080F820C0C0F83C
:10DCC00024C0B8D080F805909A08029B1B69F35CC9
:10DCD0005A43C2617F1C2A68891809F1010981F839
:10DCE000D46080780628BADB4FF4D971B5E7032EEB
:10DCF00003D040F2CB1100F061F8062F03D34FF4AC
:10DD0000E77100F05BF8B8F1060F03D340F2D111D0
:10DD100000F054F8FBF718FA0446FFF7A5FE0121BE
:10DD2000084601F0ABFF68B98B49924A904B4860B6
:10DD30004FF0FF300860904848604FF400201060BA
:10DD4000012216E02046FBF705FA40F2E51100F04B
:10DD500035F86FF0030028E05F6800F028F85F6096
:10DD60004FF0800C4F6880780CFA00F03843486020
:10DD7000521CD2B21046864211DB2F684FF0280C9D
:10DD80000CFB007010F8347F002FE5D01F6800F006
:10DD90000EF81F604F6880780BFA00F0E6E701F09C
:10DDA00063FF2046FBF7D6F90020BDE8FE8F90F810
:10DDB00002C00BFA0CFC4CEA070770475046F8F714
:10DDC00083B82DE9F843FFF7EBFE07000FF20028B8
:10DDD00006D14FF40A7100F097F86FF003003CE0B1
:10DDE000002C18BF14F0030003D040F2312100F0E2
:10DDF0008BF8FBF7A9F981463846FFF742FE20B1C0
:10DE000000F085F86FF0040027E097F8200020B1BB
:10DE100000F07DF86FF001001FE0B87800281FBF08
:10DE200052480068C07F042804D000F070F86FF0FA
:10DE3000080012E000F05DF810B90120387006E02B
:10DE40003878012803D040F2692100F05DF8012004
:10DE500000F055F800F05BF80020BDE8F2832DE9F2
:10DE6000F843FFF79DFE07000FF2641803D140F25C
:10DE70009A2100F049F8002C18BF14F0030003D0D9
:10DE800040F2A12100F040F8FBF75EF981463846E8
:10DE9000FFF7F7FD20B100F03AF86FF0040026E03C
:10DEA00097F82000012804D100F031F86FF001004C
:10DEB0001DE0B87800281FBF2C480068C07F0428E8
:10DEC00004D000F024F86FF0080010E000F011F822
:10DED00008B9387005E0387818B140F2CD2100F06B
:10DEE00013F8022000F00BF800F011F80020BDE854
:10DEF000F283BC603D6100207861B878704787F894
:10DF000020007E623846C4E54046F7F7DDBF48464C
:10DF1000FBF720B970B51949194BCA68002110E008
:10DF20005488A418491CA47900F8014B5488DD8852
:10DF3000641C94FBF5F605FB164454809488641E1B
:10DF40009480948814B1C9B24029E9DBC8B270BD8D
:10DF50000000000080E100E088A80040541001406B
:10DF600008100140606E0020986E0020B46E002002
:10DF70004C10014000E100E08100F000BC6E002088
:10DF8000A85E000800B591B08520FFF7F8FD48B9FC
:10DF900000A8FFF7BFFF28B10246002300A9852093
:10DFA000FFF70FFF11B000BD38B504460D468520C0
:10DFB000FFF7E5FD0028FAD100232A4621468520F7
:10DFC000FFF7FFFE8520FFF7DAFD0028FAD131BD0B
:10DFD000656D5F757362642E63000000174838B585
:10DFE0000446FBF7B1F805461548002101600821F9
:10DFF00054F8042B8260491E54F8042BC260F7D1F8
:10E0000001210160FFF764FC284613E00C49002061
:10E010000860FFF75DBC38B545096D0109480A4C39
:10E02000854238BF094CFBF78FF8044945F01402CC
:10E030004C620A62BDE83240FBF78CB8C06D00202C
:10E0400094ED00E09800002009000B1008000B1070
:10E0500000B500BF130096469446103928BFA0E8CB
:10E060000C50FAD85FEA417C28BF0CC048BF40F88A
:10E07000042BC90728BF20F8022B48BF00F8012B4A
:10E0800000BD00002DE9F94788B01B22FF2101A83F
:10E09000F7F7C3F8DFF8D4906222FF214846F7F77C
:10E0A000BCF836254FF01B0A36210FF2E400FBF7CF
:10E0B00055F80FF2CC0800272D48385C411C01EBC5
:10E0C000D1714C102B497E5CFF2803D17021404652
:10E0D000F7F7FAFE7F2E03DB71214046F7F7F4FED7
:10E0E0002548385C00B11934601C00FB06F4234855
:10E0F00030F817100FF2B4003346A2B2FBF72EF837
:10E100006519012E1CBF29F817A0B2447F1C1B2FD4
:10E11000D2DB40F21C44A54234BF13A30FF2EC0340
:10E120001B2000902246A9B20FF2A800FBF716F8B8
:10E1300040F21D4085420ED3F7F702FBFBF704F8CF
:10E1400023462A460FF2D0010120F7F774FE9D21E5
:10E150004046F7F7B9FE9DF8200001A900F036F916
:10E160000AB0BDE8F08700006F6B00006479002002
:10E17000C44E0108E04E0108A84E0108704E010887
:10E1800073696D2D656570726F6D2E630000000000
:10E19000546F6B656E206F766572686561643A20B6
:10E1A000256420776F7264730A0000004372656112
:10E1B000746F723A2030782532582C20576F726471
:10E1C000733A2025642C20436F756E743A202564C1
:10E1D0000A00000053696D454520646174613A206E
:10E1E000256420776F726473206F66202564206D2C
:10E1F000617820282570292C20746F6B656E436F21
:10E20000756E743A2025640A00000000544F4F20B8
:10E210004C415247450000000D0A4552524F523AB8
:10E220002053696D4545206461746120746F6F20CF
:10E230006C617267652E2020436F6D70696C696E2A
:10E2400067207769746820256420776F7264732073
:10E25000636F6E73756D65642E20204D617820614B
:10E260006C6C6F7765642069732025642E0D0A003D
:10E2700010B5DFF8C449DFF8C4392488001B03EB6C
:10E280004000002304E030F8134021F813405B1CE9
:10E290009342F8DB002010BD2DE9F04182B0044626
:10E2A0000D4616460027DFF8948901E0B81CC7B276
:10E2B000B74217DA7819795D4078DFF87C391B8826
:10E2C00001EB0020ADF80000012207EBD77004EB52
:10E2D0006000C01A00F06EFB0028E7D0FFF76CF872
:10E2E000002000E00120BDE8F681F8B504460E46A6
:10E2F000154600270DE000F019F8BDF8000004EB0A
:10E300004701000A4870761CBDF8000004F81700A9
:10E310007F1CB7EB550FEEDBE80706D500F006F8DB
:10E32000BDF80000291901F8010CF1BD012200A976
:10E33000B0B29DE7DFF80029DFF800191288801AD3
:10E3400001EB4001022001F0D6BCDFF8F418DFF841
:10E35000F428415C825CDFF8F038C05C10B102F553
:10E36000997292B241EAC21080B2704710B5DFF8DC
:10E37000DC38DFF8CC4803EB4002005D012801D116
:10E38000104610BD1088081803EB400010BD38B5CA
:10E390000C46DFF8BC180D782A462146FFF768FFC7
:10E3A000208800281CBF4FF6FF7188420AD0012048
:10E3B00000E0401CC0B2A84206D234F810102288F7
:10E3C0009142F6D0002032BD012032BD2DE9F24F3E
:10E3D0000446DFF880680020307070809CB0DFF861
:10E3E00078080088ADF8020007A9FFF7D0FF834640
:10E3F0000120707009A9DFF864080588DFF860085B
:10E40000B0F80080DFF83008BDF802A00788384671
:10E41000FFF7BDFFB8B1BBF1000F3CD0BDF81C1039
:10E42000BDF824004FF6FE72914202D1012804D1BA
:10E430000CE0012908BF90422DD00846BDF82410F9
:10E44000884228D202E0BBF1000F23D00020707078
:10E45000029750460695CDF810800122DFF8F0179C
:10E4600091F800804044ADF8060000A9BDF8060010
:10E47000FFF7FEFEDFF8EC07008805904FF6FF7906
:10E48000BDF80000000B404518BF0F2800D10CB3A9
:10E49000002516E0012470780128D9D13846CDF83E
:10E4A00008A0CDF818800495D7E7059805FB00F47F
:10E4B000E01900F0E5FBBDF80200201800F0E0FBD9
:10E4C0006D1C4545F1DB012030704D20FEF774FFD7
:10E4D0000025FCE0BDF80650012201A92846FFF7FF
:10E4E000C7FEBDF80400C043C0B2ADF804006F1C05
:10E4F000DFF874070588BDF80400A84218BF01249E
:10E500004FF0000A20E0401CC1B2A94218D2C0B2AC
:10E51000DFF85817BDF80E20834631F81B109142E2
:10E52000F1D1FFF712FF4FF680710840BDF80C10D3
:10E530004FF680721140884204BF1C980BF800A06F
:10E540000AF101001FFA80FABDF80400824507DADB
:10E55000022203A9B8B2FFF78BFEBF1C0020D3E74D
:10E56000002001E0401C80B2A84217DA1C99415CEF
:10E570008142F7D0012411E02AF81070BDF806009E
:10E5800000EB4300401C00F0D2FABDF80200C0F3DB
:10E59000C710401C00EBD07007EB60070498DFF851
:10E5A000ACA6BFB2874211DA012200A93846FFF7B4
:10E5B0005FFEBDF80000484508D0030A00F07F0167
:10E5C000BDF804007F1C834202DB012400252DE0FE
:10E5D000002001E0401C80B2A842CFDA1C9A825C85
:10E5E0009A42F7D1C0B2FF28C8D0DFF85426825C27
:10E5F0007F290CBF4FF0000C8C46944509DADFF8F8
:10E6000048E6BDF800C010F80EE0CCF3C01CF4459D
:10E6100001D00124B2E7012AAED07F293AF81000D8
:10E6200008BF00210818A7E76D1CADB2DFF840064F
:10E630000088854204DA3AF815004845F4D10124EF
:10E6400077800498BDB285420ADA012200A92846E3
:10E65000FFF70EFEBDF800006F1C4845F1D034E70F
:10E66000002CFCD1029801220BA980B2FFF700FE1A
:10E67000BDF82C0048450DD105E0401C80B2202893
:10E6800013DB2034A4B20699029A891A8C4205DB66
:10E690000120307000201DB0BDE8F08FA5182022A9
:10E6A0000BA9A8B2FFF7E4FD00200BA931F8101068
:10E6B0004945E2D0A8B2FFF73DFE203CA4B2E0E716
:10E6C0000298059905FB010000F0DAFA6D1C45453A
:10E6D000F6DB01203070494600F043F818B100F035
:10E6E0002DF90028D6D10120D5E72DE9F8450446BB
:10E6F0000F461646984631463846FFF737FEDFF894
:10E700006815B0F800A00988DFF838558F420AD2A2
:10E71000DFF82C05385C7F2E08BF0026864202DA1F
:10E72000785D804503D040F2864100F0FCF9DFF8C7
:10E730001805385C68B15146384600F029FA795D11
:10E74000012908BF20700AD0022914BF2060208050
:10E7500005E0424651462046BDE8F845C5E5BDE81E
:10E76000F1852DE9F34FDFF8D004DFF8E4140488D5
:10E77000DFF8E0040978407883B000281ABFDFF89A
:10E78000D804008820460D18DFF8DC040088ADF8B6
:10E790000800ADB2C043C0B200EB013000F55060DC
:10E7A000ADF802002B1BDFF8940400F0C6F96E1CD4
:10E7B0000028B6B238D10025DFF8B07414E0E8B212
:10E7C000FFF7C3FDADF80400331B37F81500ADF8B3
:10E7D00006000222DFF8640400F0ABF8002823D121
:10E7E000B61C6D1CB6B2ADB2BDF808008542E6DBC2
:10E7F000002501E06D1CADB2BDF80800854280F235
:10E8000093804FF0000A1CE001220DF102011FFA73
:10E8100089F0FFF72DFDBB19DFF820041B1B09F160
:10E82000010900F08AF9002878D17F1CFFB2B7EB0C
:10E830001B6FE9DBDFF83C04285C8619B6B20AF1ED
:10E84000010ADFF8FC0315F800B05FFA8AFADA452E
:10E85000D0D25146E8B2FFF789FD8046DFF8E803E1
:10E86000B8F800902F5CF80140EA0520ADF80000F0
:10E87000BBF1010FBDF800000CBF40F07F004AEA79
:10E880000000ADF80000311BDFF8B00300EB4100E1
:10E89000711C89B201914FF6FF7189451EBFBDF809
:10E8A0000010BDF81020914218D19DF80C100029DD
:10E8B000C5D0012200A901F057FA019E70BBDFF814
:10E8C0008403A8F800602A5CDFF8AC0350F8251038
:10E8D000B0B2FFF7E1FC0028ACD122E0DFF864130E
:10E8E000695C491C01EBD1714FEAC15B012200A9AF
:10E8F00001F03AFA019E88B9002FA8F8006095D07F
:10E900004946E8B200F044F90190331BDFF82C03CC
:10E910004FEA1B6200F00DF800288BD0FEF74CFD8B
:10E92000002005B0BDE8F08FDFF828034680012005
:10E93000F7E701A900EB430001F016BA2DE9F04119
:10E94000DFF81403DFF80C530688DFF8EC020488C4
:10E950006878002882B012BF204630462646012241
:10E9600000A9FFF785FCBDF80000DFF8D082012880
:10E970000CBF4FF6FE70401EADF80000DFF8D0026D
:10E9800007783846471E58B1BFB2B819001B01229C
:10E9900000F010F80028F4D0FEF70EFD002007E08C
:10E9A0006978481E8041C00F6870002028700120DF
:10E9B000BDE8F68100A908EB400001F0D5B92DE9CA
:10E9C000FE4F0D46174604461E464FF000094FF015
:10E9D00001083946FFF7CAFCA349098801908C4217
:10E9E0000AD29748205C7F2F08BF0027874203DAAE
:10E9F0009448205C864203D040F2A95100F093F87D
:10EA0000944F787820B19548B0F800A08A4803E088
:10EA10009348B0F800A090483978008849B97988BF
:10EA2000081A964909888842B4BF43204420FEF75B
:10EA3000C3FC019801888448205CF8B1204600F0AE
:10EA4000A7F8012E08BF297803D0022E0CBF298811
:10EA50002968814265D001980088401E00F067F85F
:10EA60008448265C7888AAF10101891B814201DB78
:10EA7000002835D1387858BB452044E00291CB4678
:10EA800020E002980BEBDB7300EB630000F0FBF877
:10EA90000BEB05001BF80510407801EB0020711E00
:10EAA0008B4580B205D1BDF80010C9B2C0B2ADF837
:10EAB0000010BDF8001088420BF1020018BFC846D4
:10EAC0005FFA80FBB345DCDBB8F1000FC3D028E070
:10EAD000BDF802100020FFF744FE10B34FF001090B
:10EAE00078885849401C788080B2625C2946FFF7DC
:10EAF000D3FBB0B1504C7B88248850485B1E1B1B55
:10EB000000F01BF810B1FEF757FC0AE0B9F1000F56
:10EB100002D0FFF713FF20B10199788808803018E0
:10EB20007880BDE8F78F0FF26810F7F7CDB90122B2
:10EB30000DF1020180B2FFF79BBB01220DF1020132
:10EB400000EB430001F010B970B582B00446002517
:10EB50001926012200A9A0B2FFF78AFBBDF8000028
:10EB6000641C48B14FF47F41401A02D0FF3806D0F0
:10EB700007E0681C40B276BDAD1C761EE9D168B2D4
:10EB800076BDBDF80000C0B200B96D1CE843F1E7E6
:10EB900038B50C46002100912A49455C2A46214699
:10EBA00000A8FFF7A2FB681C00EBD07004EB60002C
:10EBB00080B2FFF7C9FF002848BFC043009940B2A8
:10EBC000401832BDF8B5234C20780027002830D1FA
:10EBD00019480588607800281ABF1F4806882E4605
:10EBE0001B4807783846471E02281BDBFFB2B819BE
:10EBF00000F049F8BDF800000028F3D0194800885B
:10EC000007FB006000F03CF80020ADF80000BB19E5
:10EC10000A485B1B012200A9FFF78CFE48B1FEF7F2
:10EC2000CBFB06E03046FFF785FBFFB20FB90120B2
:10EC300020703846F2BD00006451010800E003086E
:10EC4000E04E0108C44E0108A84E01086479002076
:10EC500060510108C47F0020685101086651010815
:10EC60006A510108625101086E510108704E010895
:10EC70007051010874510108F45001086C510108E9
:10EC800080B2FFF757BB012200A980B2FFF7F0BAAC
:10EC900073696D2D656570726F6D2D696E74657227
:10ECA0006E616C2E63000000EFF3118060288041DC
:10ECB000C043C00F704700002DE9F04FDFF81C453E
:10ECC00091B061680F91072808BF032002D008287F
:10ECD00008BF0220DFF8085529686A6841EA022166
:10ECE000AA6841EA024100916968490703D5E169D0
:10ECF00041F00201E1612968490703D5E16941F06A
:10ED00000401E1610099EA69D140C90703D5E169CD
:10ED100041F00801E1610021DFF8BC64DFF8C47450
:10ED20003160012800F0FA81C0F0208203281AD057
:10ED300004D3042840F01A82616014E0386CC007E4
:10ED400003D5E06940F04000E061386C400703D52E
:10ED5000E06940F02000E061386C800703D5E0698D
:10ED600040F01000E061FAF7EFF9F6F7F6FC8DF8E5
:10ED700038004FF00009DFF87014DFF870A4C1F517
:10ED800000410120090B00FA01F1491ECAF83810B0
:10ED9000090A07D1DFF85814097819B1616C41F0FC
:10EDA00020016164396CDFF84C84DFF84C240D914C
:10EDB000796C0C91D8F84C100B91D8F850100A913E
:10EDC000D8F854100991D8F858100891DAF80010C2
:10EDD0000791DAF804100691DAF814100591DAF8C0
:10EDE00024100491DFF814140968126803920222B7
:10EDF0002260DFF80C2412688DF80420DFF8042468
:10EE000012688DF80520DFF8002412688DF80620BE
:10EE10004FF0FF32626200F0B2F9D2040AD56A689C
:10EE2000D20707D5E269D20704D5326842F480726E
:10EE30008146326000F0A3F992040AD56A6852064E
:10EE400007D5E269D20704D5326842F48042814690
:10EE5000326000F094F952040ED5009AAB69DA40A2
:10EE6000D20709D5E269D20706D53268AB6900FA44
:10EE700003F31A438146326000F081F9120410D581
:10EE8000009AEB69DA40D2070BD5E269D20702D4C7
:10EE9000E269120705D53268EB6981469840104354
:10EEA0003060DA480068C00308D5E069000605D57F
:10EEB000F07840F008004FF00109F07000206A6817
:10EEC000D2076A6848BF4FF480505206009AAB6977
:10EED00048BF40F40050DA40D207009AEB6948BFBF
:10EEE00040F48040DA40D207E26948BF40F4004075
:10EEF000D20605D4E269920602D4E269520601D52F
:10EF000040F01000E269120648BF40F4803008402B
:10EF10000290A520F6F718FC0120E063E069A16BE0
:10EF200011B1616A0142FAD0616A014200F0C78002
:10EF30000020E063F07840F04000F070FEF7C2FC83
:10EF4000072038600F20C8F80000FFF747F80F9837
:10EF5000AA4960600D9838640C9878640B98C8F8DA
:10EF60004C000A98C8F850000998C8F8540008984E
:10EF7000C8F858000798CAF800000698CAF80400B4
:10EF80000598CAF814000498CAF82400029808608A
:10EF90009949039808604FF0FF309D4908609848F0
:10EFA0000068307097480068707097480068B070CB
:10EFB000626AE0691040EA69336801994B40009940
:10EFC0000B400106490E01F0010143EA81230106CD
:10EFD000890E01F0010143EA81030106C90E01F027
:10EFE000010101FA02F21A4300F47C7042EA005077
:10EFF0003060FAF7A9F8FEF773FC002020609DF856
:10F00000380008B1F6F793FBF0787C490968C9032A
:10F0100004D5C0F3C00109B120212162396C8907F0
:10F0200003D5C10744BF0221F960396C490704D5F3
:10F03000C0F3400109B10421F960396CC90704D556
:10F04000C0F3800109B10121F9603168D8F84C2082
:10F0500012F0E00F05D0CA0503D56C4B4FF4805277
:10F060001A60D8F8502012F0E00F05D04A0403D5FA
:10F07000664B4FF400521A60D8F8542012F0E00F9B
:10F0800008D0AA6921FA02F2D20703D55F4B4FF4E8
:10F0900080421A60D8F8582012F0E00F07D0EA69D1
:10F0A000D140C90703D5594A4FF40041116040F0DF
:10F0B0008000F07011B0BDE8F04FF6F7FFBEB9F177
:10F0C000000F7FF437AFDAF818004B49DFF844B18E
:10F0D00040084000CAF818004748806840F0040023
:10F0E000886040F20721BBF80000884202BFBBF8ED
:10F0F00002004FF20F01884205D14CF23C30ABF8D0
:10F1000002004FF00109012000F072FEB9F1000F7A
:10F1100003D04FF20F00ABF8020011E7F6F71DFB2A
:10F120000446A520F6F710FBFEF7CCFBF6F7C6FE6B
:10F13000394D2E682868400840002860FEF7C8FB5B
:10F14000364FD7F80080386820F040003860FEF76E
:10F15000BBFBC7F800802E60FEF7BAFB0CB1F6F7D8
:10F16000E6FA11B0BDE8F04FFEF7BABB11B0BDE84A
:10F17000F04F40F23C410FF2B000F6F7A5BE234A33
:10F1800012687047164ACBB21360C1F3072353606D
:10F19000C1F307419160002321490B601368002BE4
:10F1A00004BF5368002B01D192681AB10A6842F07B
:10F1B00001020A600A6842F400720A600A6842F0BA
:10F1C00080020A6078E517490978890141F48001D5
:10F1D00041F48041D6E70000CC79002004000040D3
:10F1E00008BC004014A000400000000004400040A3
:10F1F0009807080814A8004008ED00E000E100E0CE
:10F2000008B0004008B2004008B4004000E200E04E
:10F2100080E200E00000002094ED00E0008000406B
:10F2200020000040D37F0020736C6565702E630062
:10F23000F8F79EBF38B5064C2068216C01EA00053E
:10F24000ADB2680748BF00F0F9FD256031BD000090
:10F2500008A0004070B50446081982B01546A0F118
:10F260000806FCF714FC20B120780328A4BF801EF8
:10F270002070F078FCF782F896F90210663149B2F6
:10F28000009103467079B17900F00F00090241EA5C
:10F290000040F17941EA000229462046FCF71EFFB2
:10F2A00073BDFCF7A2BF0000034801880348082390
:10F2B0007F22FEF717BB00BFBA540108887E0020EA
:10F2C00010B50446062C02D1F9F76BFE30B9E00800
:10F2D000032803DA00F012F8194A505010BD10B597
:10F2E0000446062C02D1F9F75CFE30B9E008032889
:10F2F00003DA00F003F8134A505010BD012004F067
:10F3000007018840E1084902704710B50446062C01
:10F3100002D1F9F746FE90B9F9F716FFE108032983
:10F3200009DA094A02EB412101230A6804F00704C3
:10F33000A3405A400A60BDE81040F9F70BBF10BD6A
:10F3400014B0004010B000400CB00040F0B50446CE
:10F3500089B00020FAF788FA264801880A237F221C
:10F3600000A8FEF7BFFABDF802004FF6FF75A842ED
:10F3700004D1DC210FF29400F6F7A6FD0FF2A407EA
:10F38000002601E02A4616B94FF47C4203E0022E23
:10F3900008BF4EF23F0200A800F032F8761C052E9E
:10F3A000F0D3012C03D114237F22134802E014234D
:10F3B0007F221248018803A8FEF794FA00260FF274
:10F3C0006C072A4608E02A46012E08BF4FF6C07295
:10F3D00002D0082E08BF002203A800F011F8761C06
:10F3E0000A2EF0D3012C04BF0120FAF73DFA09B030
:10F3F000F0BD0000805401087E5401087C540108CF
:10F4000030F81610F05DFDF70AB90000616E616C0E
:10F410006F6775652D63656C6C2D626961732E6312
:10F420000000000000100C0D0E000000010203049B
:10F430000708090A0B0F000010B50D48018884B0B9
:10F440000A237F2200A8FEF74DFABDF800004FF610
:10F45000FF74A04204D14E210FF21800F6F734FDDC
:10F46000BDF8001022460020FDF7D9F81FBD0000AE
:10F4700080540108616E616C6F6775652D66696CFB
:10F480007465722E630000002A490A68920992018D
:10F490000A600A68104308604FF400412648016082
:10F4A000002101606420FAF747BA2DE9F047234DA7
:10F4B000204FD5F80090224C8046286840F4004048
:10F4C0002860386820F480503860207868B162780D
:10F4D0001C48A17800EB820200EB880012F82A2C6D
:10F4E00010F82A0C891A461802E001202026207004
:10F4F000B0B2FFF7C9FF0FF2500A02E0B0B2FFF757
:10F50000C3FF386B042805D0386B400754BF761E04
:10F51000761CF3E7F86A38B184F80180A6701FFA08
:10F5200089F02860BDE8F08740F221115046F6F7D7
:10F53000CBFCE6E7D0100040181000401C10004043
:10F54000EC7F002084CB0008616E616C6F6775658D
:10F550002D76636F2E63000081014FF4FE5289B255
:10F560000C20FDF75CB82DE9F84F8F4CA56820689A
:10F570000127ADB200264FF00A08B9461FFA80FAFB
:10F58000FEF73BFAB0202063DFF820B208E016F166
:10F59000190FB8BF4FF00A08464436B27019A06080
:10F5A000DBF80000000702D559EA070028D0012047
:10F5B000FAF7C2F9B9F1000F11D0AAF1030087429E
:10F5C00002DAF81C87B213E00AF5004020605746C3
:10F5D00006210920FEF7BAF94FF000090BE0DBF82D
:10F5E0000000000707D5042FA6BFF81E87B200272A
:10F5F00007F5004020601A2EC9DB6FF00908CBE741
:10F60000A560C4F800A00820CBF800006848006896
:10F6100080B2BDE8F28F80B5624B66491B784FF02F
:10F62000FF326BB1002819BF4A606348486041F25D
:10F6300011100860614841880088BDE8044092E7E5
:10F64000002819BF4A600A6048600860FEF7D5F9D3
:10F65000BDE8044006210920FEF7C9B938B50120EC
:10F66000FFF7D9FF04460020FFF7D5FF054601202C
:10F67000FFF7D1FF4042001B00EB450000B232BD56
:10F680002DE9FE4F4E4CDFF83C81A06A454EADF8A7
:10F6900002002568D8F800B0307860B14FF6FF72EC
:10F6A00000210820FCF7B4FFADF80000C022C02103
:10F6B0000820FCF7B4FF4448DFF81091007818B137
:10F6C00048F26070C9F80000708840F4404040F093
:10F6D0004C00C9F83C000220A0620120206040F2EA
:10F6E0004C40FAF729F90120C8F80C00C8F80000CE
:10F6F0000020324F388040207880307800B12020C0
:10F70000FFF72AFFFFF7AAFF8246402038807F20BC
:10F710007880FFF721FFFFF7A1FF0290504600F02D
:10F72000A0F9FE2101FB00F70298AAEB000001906E
:10F73000307860B1029800F094F98246019800F0A8
:10F7400090F980B207EB8A11B1FBF0F005E0019867
:10F7500000F087F980B2B7FBF0F080B2401CC7031D
:10F760001FFA8BF0C8F80000ADB20020C8F80C00FA
:10F77000022020602560BDF80200A0620020C9F8C8
:10F780003C00307830B1BDF800104FF6FF72082011
:10F79000FCF745FF40F24C40FAF7CEF8380CBDE8D4
:10F7A000FE8F00002C6F0020C010004018A0004009
:10F7B0000070004038100040EEEEFFFFC07F0020D8
:10F7C0006020004028100040096F0020D010004049
:10F7D00041003F2289B201E001463F220220FCF7AE
:10F7E0001EBF2DE9F04F564C564D95B0E06CADF86C
:10F7F00010004FF6FF782068ADF80E004246E86A28
:10F80000ADF80C0000210120FCF702FFADF80A0062
:10F81000424600210B20FCF7FBFEADF808004FF438
:10F820000040206000202861686148F2020000F07A
:10F830008BF84CF68C30E0644FF4805248F2F000C4
:10F84000E86211460120FCF7EAFE424600210B2047
:10F85000FCF7E5FE06210620FEF7C9F8019000F04E
:10F8600085F800904CF69C30E0640020FFF7B0FF74
:10F8700006210846FEF76AF800260DF1140BB0B217
:10F88000FFF7A6FF06210620FEF760F8FEF779F8DD
:10F890002BF81600761C202EF1DBFEF772F81020F4
:10F8A000FFF796FF00F062F80099019A401ABBF842
:10F8B0002010891A404301FB01094FF0100A11275B
:10F8C00000F04EF800F052F800F043F806DB8146F5
:10F8D0001FFA87FA781C07B2202FF1DBBAF1100F5C
:10F8E0000ED10F2700F03CF800F040F800F031F89E
:10F8F00006DB81461FFA87FA781E07B2002FF1D582
:10F90000BDF81000E0644246BDF80E002060BDF86E
:10F910000C00E8620120BDF80A10FCF780FEBDF87B
:10F92000081042460B20FCF77AFE012028610020D7
:10F9300000F00AF84FEA4A00C0B215B0BDE8F08FF7
:10F94000C010004018100040286040F24C40F9F709
:10F95000F3BF0099401A404306FB06004845704734
:10F960003BF817000199461AB8B231E70621072083
:10F97000FEF73DB8F8B50D4C2768060014D0F9F72E
:10F98000E3FB0B4D21682A7821F8126037F8021B3F
:10F99000B142FBD1F9F7DEFBB81E2168401AC00561
:10F9A0002978000E884200D1FF20F2BD9C6D002016
:10F9B000A06D002038B504461B4D214600F03DF8EF
:10F9C000E860211D00F039F8A86004F1080100F09A
:10F9D00034F8686004F10C0100F02FF8286031BDA4
:10F9E000F8B50446114D124E802028600620306084
:10F9F0000720286030688007FCD5002704EB8701CA
:10FA000000F01BF87F1C042FA862F7D33068400772
:10FA1000FCD500262A6B04EB860100F00BF8761C5F
:10FA2000042EF7D3F1BD0000383000400030004014
:10FA300010A00040002000F002BA002000F00DBA33
:10FA400070B504460D46F9F77FFB06462846FFF7DA
:10FA5000B1FF2046FFF7C4FF3046BDE87040F9F71C
:10FA600079BB002848BF4042704700000E28424A38
:10FA700009D1012903D11078401C10700EE0907854
:10FA8000401C90700AE0162808D1012903D1507853
:10FA9000401C507002E0D078401CD07001201071E2
:10FAA00070472DE9F04F85B000218DF80810FF2434
:10FAB0008068314E0078314F314D039071700120D4
:10FAC00030713170F170B170A046287820B138786B
:10FAD0000FF2B001F5F7F0F838780FF2E401F5F71E
:10FAE000EBF80FF2F40907E05B4652460FF24C11B7
:10FAF000F5F7E2F85446D8469DF80810387865299D
:10FB000031D002A9F6F716F80398B0B93079002879
:10FB1000F2D000203071B37832783878297819B172
:10FB20004946F5F7C9F8E7E7F17801917178009156
:10FB30000FF2C401F5F7C0F8DEE70E20FDF75AFE1C
:10FB400082461620FDF756FE8346544508BFD84529
:10FB5000D0D0297838780029C6D052460FF2C40197
:10FB6000F5F7AAF8C6E703A1F5F7A6F805B0BDE8D2
:10FB7000F08F00000D0A0000C87F0020286D0020D3
:10FB8000CD7F0020427574746F6E20312069732020
:10FB9000756E617661696C61626C65206475652063
:10FBA000746F20706F77657220616D706C69666923
:10FBB000657220656E61626C65640D0A000000006C
:10FBC00050726573732027652720746F20656E64FB
:10FBD0002E2E2E0D0A000000427574746F6E205098
:10FBE0007265737365733A2030502025752030524A
:10FBF0002025750D00000000427574746F6E205052
:10FC00007265737365733A20305020257520305229
:10FC10002025752031502025752031522025750D65
:10FC200000000000425554544F4E305F505245532F
:10FC3000534544203D2025640D0000004255545496
:10FC40004F4E305F50524553534544203D2025646C
:10FC50002C20425554544F4E315F5052455353451A
:10FC600044203D2025640D001548016821F4706191
:10FC700041F48071016004210161704710B51048A2
:10FC8000104C01680909090101604FF4AE62016876
:10FC900021F0F001016000210B482060F5F7BDFA6A
:10FCA000E06D20F0050040F00100E065002010BD8F
:10FCB0000748064900680860F9F787B800000000A7
:10FCC00000B0004000100140386F00203840004074
:10FCD000DC7900204048018A40F6A772914202BFB9
:10FCE000408A4FF47F41084203D1022801DB012002
:10FCF0007047002070472DE9F84F82468846F9F793
:10FD000023FA364D2F6804462868400840002860D2
:10FD1000FDF7DEFD0120DFF8BCB08BF80000FFF737
:10FD2000D9FF20B9FF210FF2B800F6F7CDF82A4825
:10FD3000D0F8289041464AF48070C84706462F60A4
:10FD4000FDF7C6FD2046F9F705FA00208BF8000004
:10FD50000FF294040EB1305D04E041464AF40070A5
:10FD6000C847005DBDE8F28F2DE9F84F804689460F
:10FD70004FEA420AF9F7E8F9184E37680546306845
:10FD8000400840003060FDF7A3FDFFF7A3FF28B94E
:10FD90004FF4A1710FF24800F6F796F80E48D0F82C
:10FDA00024B00023524649464046D84704463760AF
:10FDB000FDF78EFD2846F9F7CDF90FF22C050CB1B1
:10FDC000605D05E05346002249464046D847405D05
:10FDD000BDE8F28FEB7F00200000080894ED00E002
:10FDE000666C6173682E6300000202024B4B46474B
:10FDF00070B12DE9F05FEFF308800D490860EFF373
:10FE000009800C490860EFF314800B49086030BF8B
:10FE10000748006880F308880648006880F309886E
:10FE20000548006880F31488BDE8F05F7047000063
:10FE30007C7E0020807E0020847E0020704710B5EC
:10FE40000023002814BF1C46C3F10304E4B25B1C6A
:10FE50006254120A042BF4DB10BD30B54A788B785B
:10FE6000CC78097818B120461D460C4602E01546AC
:10FE700008461A4645EA002044EA022141EA0040C9
:10FE800030BD000010B501F00301890003880F2484
:10FE900000F00BF8018010BD10B501F007010378E8
:10FEA000012400F002F8017010BD8C40A34302FA57
:10FEB00001F1194370472DE9F8438068614D017ADB
:10FEC000047801F00108017B01F00F06017C182C79
:10FED00001F0010907DB28780FF2A4112246BDE8E2
:10FEE000F843F4F7E9BE0079610804EB917100F082
:10FEF0000F028F08544800EB4700FFF7C3FF534839
:10FF00003246214600EB4700FFF7BCFFA00804EB98
:10FF10005070C6084E48424621463018FFF7BCFFD5
:10FF20004C484A4621463018FFF7B6FF28780FF2B2
:10FF30006C11F4F7C1FE28780FF2B0112246F4F7E5
:10FF4000BBFE28780FF2C811F4F7B6FE28780FF23E
:10FF50000821BDE8F443F4F7AFBE10B501F0070186
:10FF60000368012405E010B501F00301890003686E
:10FF70000F24FFF79AFF016010BD0000B0B5806844
:10FF800004680179007A2F4FE4B2182C01F00F05B4
:10FF900000F0010203DB22460FF2E40133E0E00847
:10FFA00003D0022807D003D309E021462A4804E001
:10FFB00021462A4801E021462948FFF7CEFFA00844
:10FFC00005281DD8DFE800F003070B0F13172A469A
:10FFD0002146244812E02A46214623480EE02A46BC
:10FFE000214622480AE02A462146214806E02A46C0
:10FFF0002146204802E02A4621461F48FFF7B3FF6A
:020000040801F1
:100000000FF2801122463878BDE8B040F4F754BEB4
:1000100010B58068194900680A4C0002000A08609F
:100020000FF2A4112078F4F747FE20780FF2E011C8
:10003000F4F742FE20780FF21421BDE81040F4F7E7
:100040003BBE0000286D0020086E0020146E0020CA
:10005000006E0020046E00200CB000400CB2004086
:100060000CB4004000B0004004B0004000B20040BA
:1000700004B2004000B4004004B40040C87900203D
:10008000706F727450696E206F66202564206973EA
:1000900020696E76616C69640D0A000053657474A2
:1000A000696E6720626F6172642066696C652047C3
:1000B00050494F207661726961626C65732C2070C3
:1000C0006F7765727570206366672C20706F776537
:1000D000727570206F75742C20706F776572646F05
:1000E000776E206366672C0D0A000000706F7765DD
:1000F00072646F776E206F75742C20666F7220703B
:100100006F727450696E2025642E0D0A0000000085
:1001100052656D656D6265722C207468652047506C
:10012000494F2773206E657720706F776572757001
:1001300020616E6420706F776572646F776E2063E4
:100140006F6E66696775726174696F6E20776F6E26
:10015000742062650D0A00006170706C696564202E
:10016000756E74696C20746865206E65787420649F
:1001700065657020736C656570206379636C652EAE
:100180000D0A000053657474696E67204750494F2B
:1001900020636F6E66696720726567697374657244
:1001A00020616E64206F7574707574207265676964
:1001B0007374657220666F7220706F727450696E0E
:1001C0002025640D0A00000053657474696E672071
:1001D0006770696F526164696F506F776572426FC3
:1001E0006172644D61736B207661726961626C65E6
:1001F0002E2020546865206E6577206D61736B201A
:1002000077696C6C206166666563740D0A00000096
:1002100068616C537461636B526164696F506F778E
:1002200065725570426F61726420616E642068610E
:100230006C537461636B526164696F506F77657260
:10024000446F776E426F6172640D0A007768656E65
:100250002074686579206172652063616C6C6564E7
:100260002064756520746F20726164696F20626517
:10027000686176696F722E0D0A0000005D480168A2
:100280000909090141F00101016000205A49086093
:10029000704718B5002100AA0A2480B20A2390FBF7
:1002A000F3F304FB13008854491C03291846F4DBBC
:1002B0009DF8021001EB0010517801EB00109DF841
:1002C000001080B201EB001080B212BDF0B5002525
:1002D000002985B002D549422D2402E00A9C64B170
:1002E0002B2400F8014B08E00A24B1FBF4F40A27A0
:1002F00007FB1411A9556D1C2146EDB2954200AEC5
:10030000F2D30029F0D129464D1E51B1EDB2A95DBD
:1003100030319D4200F8011BF5D12E2100F8011B60
:10032000F1E7017005B0F0BD30B587B0FFF7A6FF6B
:100330000020FDF7CFF9802809D1072309222A21BF
:100340000120FDF753F901A90120FDF7B7F9802835
:10035000274C36D1BDF80400FDF7E1F9054600F061
:1003600038F820780FF2980102AAF4F7A5FC234888
:10037000ADB2AB2101FB150500F02BF820780FF290
:10038000980102AAF4F798FC05EBC500052190FB43
:10039000F1F000F580250120009005F5624500F0A0
:1003A0001AF8642095FBF0F080B2FFF772FFADF809
:1003B0000400034620780FF2780102AAF4F77CFCCF
:1003C00005E0024620780FF27401F4F775FC07B0DF
:1003D00030BD0120009004230522294602A875E7BC
:1003E00080B50120FDF772F8BDE8024000209BE7D0
:1003F000286D002000B2004004E000404F4A180081
:1004000041444320566F6C746167652056203D203F
:1004100025730D0A000000004144432074656D708F
:10042000203D2025732063656C736975732C200053
:100430002573462025327846290D0A004144432081
:1004400072656164206572726F723A203078257827
:100450000D0A000010B581680FF26C0409780129BB
:1004600000F1110105D10FF22000F5F7EBF80121A1
:1004700004E00FF23400F5F7E5F800212046BDE86E
:10048000104000F06BB800007B264E20706C617944
:100490002074756E65206173206261636B67726F93
:1004A000756E647D0D0A00007B264E20706C6179AC
:1004B0002074756E6520617320666F726567726F58
:1004C000756E647D0D0A00001F0100011F0100010F
:1004D0001F0100010F0500004048414A016849081A
:1004E000490001603F480168490849000160002156
:1004F0003D4801620160012111700021C162416229
:100500007047F8B53948017846688A19537813B3AB
:100510008F5D374CC8237FB10D256F43E7600F25F2
:1005200000276760102727608C5D527894FBF5F4F4
:100530005A4392FBF4F20AE040F29315E56000257D
:100540006560256052785A4302EBD2725210891CC2
:1005500042800170F1BDBDE8F140BDE7F8B5064647
:100560000C46FFF7B9FF204D00202865002105202B
:10057000A862012068610020A861A86940F4405089
:10058000A8611A4846600170154E3170F8F7DCFD1D
:1005900007461249012008601248016841F0010134
:1005A0000160286840F001002860FFF7AAFF384684
:1005B000F8F7D0FD01E0F5F7C3F830782043FAD022
:1005C000F1BD80B5094841884A1E428009B9FFF74C
:1005D00098FF08494FF0FF30086001BD40A8004077
:1005E000BE6D002000E100E000F000404C790020EA
:1005F00020F0004000A80040F0B583B00FF28C015D
:10060000DFF8F0400CC900A80FF2F0010CC0DFF8D1
:10061000E800007880018DF8000000F049F80FF242
:1006200018160025002700A80121285CB9400842BF
:1006300006D020783B4605F141023146F4F73CFBF9
:100640007F1C082FEFDB6D1C062DEBDB20780FF2F3
:10065000FC01F4F731FB00F025F8FBF72FF9F5F773
:10066000D4F8F8F771FD00F01AF80320FEF7ABFD9F
:10067000F8F7A9FB00F019F8F5F7E3F80120FBF70C
:1006800092F8207800F007F8F7BD00000040400025
:100690000000000028780FF2E801F4F70DBB0546D2
:1006A000F8F773BB2078F5F7B5BB2846F8F752BDCD
:1006B0002078F4F701BB000030BF7047704700009E
:1006C00030BF70477047000030BF70477047000070
:1006D00030BF70477047000030BF70477047000060
:1006E00030BF70477047000030BF70477047000050
:1006F00030BF7047286D0020D37F002057696C6C95
:100700002077616B652066726F6D204750494F20DE
:100710006163746976697479206F6E2074686520EE
:10072000666F6C6C6F77696E6720706F7274207083
:10073000696E733A0D0A0000506F72742025632CA5
:100740002070696E2025642E0D0A0000456E7465C8
:1007500072696E6720534C4545504D4F44455F4D7F
:1007600041494E5441494E54494D455220766961A4
:100770002068616C536C6565702E2E2E0D0A00008A
:100780004177616B650D0A00F8B5DFF854480FF644
:10079000C40101F059F820780FF6D001F4F78CFA73
:1007A0000FF6F8052078DFF83C38DFF83C2800F039
:1007B00005FE0FF6FC0620784CF2443200F056FE9F
:1007C00020780FF6F401F5F794FA2078F2A739466D
:1007D000F4F772FA2078DFF81438DFF8142800F004
:1007E000EDFD20784FF2640200F040FE20780FF615
:1007F000D801F5F77EFA01F02AF82078DFF8F4370F
:10080000DFF8F42700F0DAFD20784FF2644200F0C0
:100810002DFE20780FF6C001F5F76BFA01F017F8FE
:100820002078DFF8D837DFF8D82700F0C7FD207828
:100830004EF2455200F01AFE20780FF6AC01F5F7A3
:1008400058FA01F004F82078DFF8B837DFF8B82755
:1008500000F0B4FD20784FF26E4200F007FE2078E1
:100860000FF69801F5F745FA00F0F1FF2078DFF870
:100870009C37DFF89C2700F0A1FD20784FF2424220
:1008800000F0F4FD20780FF68C01F5F732FA00F055
:10089000DEFF2078DFF87C37DFF87C2700F08EFD64
:1008A00020784FF2624200F0E1FD20780FF67C01E3
:1008B000F5F71FFA00F0CBFF2078DFF86037DFF89C
:1008C000602700F07BFD20784FF2742200F0CEFD0F
:1008D00020780FF67001F5F70CFA00F0B8FF2078D9
:1008E000DFF84037DFF8402700F068FD20784FF24E
:1008F000762200F0BBFD20780FF65801F5F7F9F9E4
:1009000000F0A5FF2078DFF82437DFF8242700F077
:1009100055FD20784FF2766200F0A8FD20780FF6A2
:100920004801F5F7E6F900F092FF2078DFF8043788
:10093000DFF8042700F042FD20784FF2634200F018
:1009400095FD20780FF63401F5F7D3F900F07FFF1D
:100950002078DFF8E836DFF8E82600F02FFD207871
:100960004FF2744200F082FD20780FF62001F5F777
:10097000C0F900F06CFF2078DFF8C836DFF8C82631
:1009800000F01CFD20784FF6097200F06FFD207812
:100990000FF60801F5F7ADF900F059FF2078DFF800
:1009A000AC36DFF8AC2600F009FD20784EF2636229
:1009B00000F05CFD20780FF2F471F5F79AF900F081
:1009C00046FF2078DFF8FC39DFF8FC2900F0F6FC60
:1009D00020784EF26F6200F049FD20780FF2E0714E
:1009E000F5F787F900F033FF2078DFF8E039DFF81A
:1009F000E02900F0E3FC20784EF26F3200F036FD83
:100A000020780FF2C871F5F774F900F020FF207814
:100A1000DFF8C039DFF8C02900F0D0FC20784CF2B4
:100A2000563200F023FD20780FF2AC71F5F761F932
:100A300000F00DFF2078DFF8A439DFF8A42900F0DA
:100A4000BDFC20784EF2453200F010FD20780FF208
:100A50009C71F5F74EF900F0FAFE2078DFF8843942
:100A6000DFF8842900F0AAFC20784EF6735200F0DB
:100A7000FDFC20780FF28871F5F73BF900F0E7FEF6
:100A80002078DFF86839DFF8682900F097FC2078D3
:100A90004CF24E2200F0EAFC20780FF27071F5F76C
:100AA00028F900F0D4FE2078DFF84839DFF848292B
:100AB00000F084FC20784CF6441200F0D7FC20783B
:100AC0000FF25871F5F715F900F0C1FE2078DFF844
:100AD0002C39DFF82C2900F071FC20784DF243020C
:100AE00000F0C4FC20780FF24471F5F702F900F031
:100AF000AEFE2078DFF80C39DFF80C2900F05EFC40
:100B000020784CF24B2200F0B1FC20780FF22C71CF
:100B1000F5F7EFF800F09BFE2078DFF8F038DFF80B
:100B2000F02800F04BFC20784CF6535200F09EFC6D
:100B300020780FF22071F5F7DCF800F088FE2078BD
:100B4000DFF8D038DFF8D02800F038FC20784CF2FD
:100B5000431200F08BFC20780FF20C71F5F7C9F806
:100B600000F075FE2078DFF8B438DFF8B42800F024
:100B700025FC20784CF2423200F078FC20780FF20D
:100B8000F861F5F7B6F800F062FE2078DFF89438E7
:100B9000DFF8942802E000BF0D0A000000F00EFC10
:100BA00020784CF6431200F061FC20780FF2D861F7
:100BB000F5F79FF800F04BFE2078DFF87038DFF88B
:100BC000702800F0FBFB20784BF2542200F04EFC22
:100BD00020780FF2CC61F5F78CF800F038FE207821
:100BE000DFF85038DFF8502800F0E8FB20784DF2AD
:100BF000463200F03BFC20780FF2BC61F5F779F843
:100C000000F025FE2078DFF83438DFF8342800F0D3
:100C1000D5FB20784BF2532200F028FC20780FF20D
:100C2000B061F5F766F800F012FE2078DFF81438AE
:100C3000DFF8142800F0C2FB20784DF2433200F0B8
:100C400015FC20780FF2A061F5F753F800F0FFFDD6
:100C50002078DFF8F837DFF8F82700F0AFFB2078CE
:100C60004CF2433200F002FC20780FF29061F5F76D
:100C700040F800F0ECFD2078DFF8D837DFF8D8270F
:100C800000F09CFB20784DF2423200F0EFFB207820
:100C90000FF27C61F5F72DF800F0D9FD2078DFF830
:100CA000BC37DFF8BC2700F089FB20784CF25452A7
:100CB00000F0DCFB20780FF27461F5F71AF800F011
:100CC000C6FD2078DFF89C37DFF89C2700F076FB24
:100CD00020784CF2453200F0C9FB20780FF26461B5
:100CE000F5F707F800F0B3FD20780FF26C61F3F729
:100CF000E3FF20784BF2346200F0B8FB20780FF26B
:100D00007861F4F7F6FF00F0A2FD20780FF274612D
:100D1000F3F7D2FF0FF29C652078002200F0A9FBC8
:100D200020784FF6017200F0A1FB00F079FD00F091
:100D30008EFD2078012200F09CFB20784EF22312D9
:100D400000F094FB00F05AFD00F081FD20780222B3
:100D500000F08FFB20784EF2754200F087FB00F028
:100D60003DFD00F074FD2078032200F082FB207826
:100D70004EF2632200F07AFB00F020FD00F067FDE8
:100D80002078042200F075FB20784EF2635200F0C8
:100D90006DFB00F003FD00F05AFD2078052200F005
:100DA00068FB20784EF2621200F060FB00F0E4FC79
:100DB00000F04DFD2078062200F05BFB20784EF617
:100DC000793200F053FB00F0CBFC00F040FD2078BE
:100DD000072200F04EFB20784EF6646200F046FBDE
:100DE00000F0B0FC00F033FD2078082200F041FB59
:100DF00020784EF2241200F039FB00F093FC00F052
:100E000026FD2078092200F034FB20784EF22512CE
:100E100000F02CFB00F072FC00F019FD20780A2293
:100E200000F027FB20784EF2261200F01FFB00F0A6
:100E300055FC00F00CFD20780B2200F01AFB207806
:100E40004DF2452200F012FB00F03AFC00F0FFFCEE
:100E500020780C2200F00DFB20784EF2102200F0DA
:100E600005FB00F019FC00F0F2FC20780D2200F0E8
:100E700000FB20784EF2112200F0F8FA00F0F6FBA9
:100E800000F0E5FC20780E2200F0F3FA20784EF214
:100E9000122200F0EBFA00F0D1FB00F0D8FC207831
:100EA0000F2200F0E6FA20784EF2132200F0DEFA6C
:100EB00000F0ACFB00F0CBFC2078102200F0D9FA57
:100EC00020784EF2142200F0D1FA00F085FB00F0F9
:100ED000BEFC2078112200F0CCFA20784EF21522C8
:100EE00000F0C4FA00F062FB00F0B1FC207812229E
:100EF00000F0BFFA20784EF2202200F0B7FA00F09E
:100F00003DFB00F0A4FC2078132200F0B2FA207818
:100F10004EF2742200F0AAFA00F020FB00F097FCD9
:100F20002078142200F0A5FA20784FF60D7200F018
:100F30009DFA00F003FB00F08AFC2078152200F0F7
:100F400098FA20784EF2564200F090FA00F0E8FA53
:100F500000F07DFC2078162200F08BFA20784FF408
:100F6000654200F083FA00F0C9FA00F070FC2078C6
:100F7000172200F07EFA20784EF2015200F076FA45
:100F800000F0AEFA00F063FC2078182200F071FA4D
:100F900020784EF2025200F069FA00F091FA00F067
:100FA00056FC2078192200F064FA20784EF2502284
:100FB00000F05CFA00F074FA00F049FC20781A2284
:100FC00000F057FA20784EF2512200F04FFA00F06C
:100FD00053FA20783946BDE8F440F3F76DBE0000BF
:100FE000286D0020950708087E0708089B07080859
:100FF00096070808A10708089C070808A907080819
:10100000A2070808BD070808AA070808D1070808AA
:10101000BE070808DB070808D2070808DD0708082C
:10102000DC070808DF070808DE070808E1070808EA
:10103000E0070808E3070808E2070808E5070808CA
:10104000E4070808F5070808F4070808F707080880
:10105000F6070808546F6B656E204D656D6F7279E9
:10106000204D61703A0D0A0D0A0000005374617240
:10107000742041646472657373202D20456E642072
:1010800041646472657373202D2D205B637265610A
:10109000746F725D206E616D650D0A0030782534C5
:1010A00058202D20307825345820202D2D20000068
:1010B0005B2532585D2000004D46475F434849504C
:1010C0005F444154410000004D46475F5041525437
:1010D0005F444154410000004D46475F544553541E
:1010E00045525F44415441004D46475F454D42459E
:1010F000525F4555495F3634000000004D46475F5A
:10110000414E414C4F475F5452494D5F4E4F524DF7
:10111000414C00004D46475F414E414C4F475F54A4
:1011200052494D5F424F4F53540000004D46475FB8
:10113000414E414C4F475F5452494D5F424F5448D6
:10114000000000004D46475F5245475F5452494DED
:10115000000000004D46475F3156385F5245475FFB
:10116000564F4C54414745004D46475F5652454601
:101170005F564F4C54414745000000004D46475FC5
:1011800054454D505F43414C000000004D46475FC1
:10119000544553545F54454D500000004D46475F41
:1011A0004649425F56455253494F4E004D46475FB0
:1011B0004649425F434845434B53554D00000000AC
:1011C0004D46475F4649425F4F4253004D46475F99
:1011D0004349425F4F4253004D46475F4355535486
:1011E0004F4D5F56455253494F4E00004D46475FA5
:1011F000435553544F4D5F4555495F363400000009
:101200004D46475F535452494E4700004D46475F95
:10121000424F4152445F4E414D4500004D46475FAD
:101220004D414E55465F4944000000004D46475F22
:101230005048595F434F4E46494700004D46475F6F
:10124000424F4F544C4F41445F4145535F4B4559CA
:10125000000000004D46475F455A53505F53544FBE
:1012600052414745000000004D46475F4153485FEB
:10127000434F4E46494700004D46475F43424B456A
:101280005F444154410000004D46475F494E53546E
:10129000414C4C4154494F4E5F434F444500000080
:1012A0004D46475F4F534332344D5F424941535F90
:1012B0005452494D000000004D46475F53594E546B
:1012C000485F465245515F4F464653455400000023
:1012D0004D46475F4F534332344D5F534554544C52
:1012E000455F44454C4159004D46475F5345435582
:1012F000524954595F434F4E464947004D46475F58
:101300004343415F5448524553484F4C440000000A
:101310004D46475F5345435552455F424F4F544CEE
:101320004F414445525F4B45590000004D46475FD1
:1013300045544845524E45545F41444452455353E9
:10134000000000004D46475F43424B455F32383353
:101350004B315F4441544100285669727475616C89
:1013600020546F6B656E2920202020202020202013
:10137000202D2D20000000004D46475F4555495F58
:10138000363400000D0A53696D756C617465642014
:10139000454550524F4D204C6F636174696F6E200C
:1013A0002D2D205B63726561746F725D206E616DBF
:1013B000650D0A00256420202D2D20002946F3F715
:1013C0007BBC0000FF070808F80708080F0808089A
:1013D0000008080811080808100808081908080873
:1013E00012080808290808081A080808390808080F
:1013F0002A0808083B0808083A0808083D080808B1
:101400003C0808084D0808083E0808085508080860
:101410004E0808087D08080856080808D908080872
:101420007E080808ED080808DA080808EF08080828
:10143000EE080808F1080808F0080808F30808088A
:10144000F2080808F5080808F4080808F70808086A
:10145000F608080807090808F80808080D09080828
:1014600008090808A10908080E0908083146F3F719
:1014700023BC2946F3F720BC20780FF20801F4F7CB
:1014800038BC0000535441434B5F52463443455FE0
:1014900050414952494E475F5441424C450000007B
:1014A00020780FF20801F4F724BC000053544143A4
:1014B0004B5F52463443455F4441544100000000B5
:1014C00020780FF20801F4F714BC00005354414394
:1014D0004B5F5A4C4C5F5345435552495459000099
:1014E00020780FF20801F4F704BC00005354414384
:1014F0004B5F5A4C4C5F44415441000020780FF23E
:101500000801F4F7F6BB0000535441434B5F4345D9
:101510005254494649434154455F5441424C450069
:1015200020780FF20801F4F7E4BB00005354414364
:101530004B5F4B45595F5441424C450020780FF2B8
:101540000801F4F7D6BB0000535441434B5F4348B6
:10155000494C445F5441424C4500000020780FF252
:101560000801F4F7C6BB0000535441434B5F4249A6
:101570004E44494E475F5441424C450020780FF29B
:101580000801F4F7B6BB00004D554C54495F4E4579
:1015900054574F524B5F535441434B5F4E4F4E4352
:1015A000455F434F554E54455200000020780FF2DE
:1015B0000801F4F79EBB00004D554C54495F4E4561
:1015C00054574F524B5F535441434B5F5041524528
:1015D0004E545F494E464F0020780FF20801F4F751
:1015E00088BB00004D554C54495F4E4554574F52EF
:1015F0004B5F535441434B5F4E4554574F524B5FE3
:101600004D414E4147454D454E54000020780FF264
:101610000801F4F76EBB00004D554C54495F4E4530
:1016200054574F524B5F535441434B5F54525553A1
:10163000545F43454E5445520000000020780FF29D
:101640000801F4F756BB00004D554C54495F4E4518
:1016500054574F524B5F535441434B5F414C544599
:10166000524E4154455F4B455900000020780FF21F
:101670000801F4F73EBB00004D554C54495F4E4500
:1016800054574F524B5F535441434B5F4E4F444569
:101690005F4441544100000020780FF20801F4F744
:1016A00028BB00004D554C54495F4E4554574F528E
:1016B0004B5F535441434B5F4B455953000000006F
:1016C00020780FF20801F4F714BB00005354414393
:1016D0004B5F43414C5F44415441000020780FF27E
:1016E0000801F4F706BB0000535441434B5F5041DF
:1016F00052454E545F494E464F00000020780FF28D
:101700000801F4F7F6BA0000535441434B5F4E45CD
:1017100054574F524B5F4D414E4147454D454E54F6
:101720000000000020780FF20801F4F7E2BA000090
:10173000535441434B5F54525553545F43454E54A9
:101740004552000020780FF20801F4F7D2BA0000E9
:10175000535441434B5F4E4F44455F444154410015
:1017600020780FF20801F4F7C4BA00005354414343
:101770004B5F4B455953000020780FF20801F4F7F6
:10178000B8BA0000535441434B5F414E414C59534A
:1017900049535F5245424F4F5400000020780FF2EA
:1017A0000801F4F7A6BA0000535441434B5F4E4F73
:1017B0004E43455F434F554E5445520020780FF23B
:1017C0000801F4F796BA0000535441434B5F424F6F
:1017D0004F545F434F554E544552000020780FF24E
:1017E0000801F4F786BA0000535441434B5F414C63
:1017F0005445524E4154455F4B45590020780FF2F5
:101800000801F4F776BA0000535441434B5F41504E
:10181000535F4652414D455F434F554E544552002C
:1018200020780FF20801F4F764BA000053544143E2
:101830004B5F4E56444154415F56455253494F4EBB
:101840000000000000882F182078F3F735BA2078C0
:101850003946F3F731BA38B5DFF8A4400FF23C054A
:1018600020782946F3F728FA2078022200A9F4F715
:101870001AFA9DF80000592802D04E28F0D131BD47
:1018800020780FF24401F3F717FA0120FCF7FAFB76
:1018900020780FF26401F3F70FFA31BD57726974C3
:1018A000652064656661756C7420737461636B2078
:1018B000616E642061707020746F6B656E733F2879
:1018C000792F6E290000000057726974696E6720D5
:1018D00044656661756C7420537461636B20616E3E
:1018E000642041707020546F6B656E732E2E2E2015
:1018F000776169742E000000646F6E652E00000031
:10190000286D00201CB5044600F0CBFDDFF858150B
:101910000FF27452498A019103460FF274510FF28B
:101920005450009104F11101F3F78CFE13BD3EB544
:10193000044600F001FD05462B46CAA204F1110140
:101940000FF25850F3F77EFE75BB00F006FD040061
:1019500024D060880FF26C530FF2605102900FF2A6
:10196000705001902069009022880FF23C50F3F7EC
:1019700069FEDFF8F804A368E26800780FF26051AE
:10198000F3F79AF9A0880FF290530FF2805100906C
:10199000E2880FF26C50F3F755FE37BD0FF284501A
:1019A000BDE83E40F3F74EBE37BD10B5044600F02B
:1019B000F9FC04F11101BDE810400FF28450F3F777
:1019C00041BE10B5044600F0C8FC38B904F111015D
:1019D000BDE810400FF27050F3F734BEC16800202C
:1019E00000F036FD03469FA204F111010FF28C5066
:1019F000F3F728FECBA404E02046F3F723FE00F023
:101A0000A7F800F037FD0028F6D1BDE81040F1E05E
:101A1000F8B500208DF800000027044600F08CFC8B
:101A2000B8B90FF28850F3F70DFE00F096FC0500F0
:101A300013D029690FF2A850F3F704FEE9680020DB
:101A400000F006FD60B90FF2C450F3F7FBFDB5A638
:101A500011E001460FF2685005E00FF298506FE078
:101A600001460FF2C050F3F7EDFDF1BD3046F3F73C
:101A7000E9FD00F06DF800F0FDFC0028F6D10FF252
:101A8000C450F3F7DFFD0FF2D450F3F7DBFDDFF8BE
:101A9000DC6302E08DF800000027E868844251D240
:101AA0003078F4F73CF8B0B130780DF10101F4F77B
:101AB00041F89DF8000000018DF800007F1C9DF8A2
:101AC0000100A0F130010A2919D200F03CF83039A8
:101AD00008438DF80000FFB2022FDEDB012200A9CF
:101AE000204600F09FFC641C0028D3D09DF8002005
:101AF0000146631E0FF2B450F3F7A4FDF1BDA0F14F
:101B00004101062903D200F01EF83739E0E76138B9
:101B1000062803D200F017F85739D9E79DF80100DD
:101B2000202818BF092804D00D2818BF0A2800D083
:101B300020B99DF800007F1E0009CAE70FF264502B
:101B4000F3F780FDF1BD9DF801109DF8000070478E
:101B500046F2A810F7F7F0BE38B500F02BFC0FF2F4
:101B60007450F3F76FFDBCA400F039FC0546204625
:101B7000F3F768FD4FF6FF708542F5D02DB9BDE84B
:101B800032400FF26C50F3F75DBD0FF28450F3F763
:101B900059FD00F03BFCBDE8344001460FF2A8506F
:101BA000F3F750BD30B583B081680C684D680FF213
:101BB00008610091019400F111012B46A7A20FF2D8
:101BC000CC50F3F73FFD2946204600F041FC024689
:101BD00024A10FF2EC50F3F735FD52A404E02046A7
:101BE000F3F730FDFFF7B4FF00F044FC0028F6D116
:101BF000BDE83E400FF2A430F3F724BD2DE9F047D5
:101C000086B081680C6800F06DF80FF2BC50F3F7F5
:101C100003FD0FF2DC590FF2CC580FF2442A0EE00C
:101C200001A95046715CF3F70DFD761CF6B2BE4279
:101C3000F6DB4846F3F706FDED1BADB23C197DB16E
:101C4000112DACBF10272F463A4601A9204600F0BF
:101C5000F4FB024621464046F3F7F4FC0026E5E794
:101C60003DE00000657272002DE9F04786B08168A2
:101C7000D1F8008000F036F80FF27C50F3F7CCFC7E
:101C80000FF2605A0FF2D81901AC0EE0395D4846E8
:101C9000F3F7D8FC7F1CFFB2B742F7DB0FF25050CE
:101CA000F3F7D0FCAD1BADB2B044C5B1112DACBF44
:101CB00010262E46002703E0FAF79AFC38557F1CC1
:101CC000FFB2B742F8DB324601A9404600F0AAFB5A
:101CD000024641465046F3F7B5FC0027DBE706B065
:101CE000BDE8F0878D880FF2F4410FF2CC420091ED
:101CF0005CA300F1110170470288130448BF4A40F9
:101D0000510001801046704738B5594C6221204679
:101D1000FFF7F2FF054641F20B01A01CFFF7ECFFB5
:101D2000684032BD2E0000002DE9F041C4B081684A
:101D30000D684C6800F085F80FF2E440F3F782FC80
:101D40000FF2141804E04046F3F77CFCE41B7D1905
:101D50001CB3FAF74DFCC7B2A74228BFA7B20026B2
:101D600004E0FFF7D1FF03A97054761CF6B2BE421F
:101D7000F7DB3A4603A9284600F054FB0028E2D0DE
:101D800036A1019102460297009536A10FF2284331
:101D90000FF2B840F3F756FC03E00FF2D440F3F72C
:101DA00051FC4BE02DE9F041C4B081680C684D68EE
:101DB00000F047F80FF2D440F3F744FC0FF2980814
:101DC00004E04046F3F73EFCED1B3C1995B3FAF7EF
:101DD0000FFCC7B2AF4228BFAFB23A4603A92046B4
:101DE00000F02BFB020009D002971CA00190009488
:101DF0001CA10FF2C4330FF2BC4018E0002600E033
:101E0000761CF6B2BE42DCDAFFF77EFF03A9C0B251
:101E1000715C8142F4D00291009032190FF2F041CE
:101E20000FF2E0430FF2AC4001910FF28C31F3F767
:101E300009FC03E00FF23840F3F704FC44B0BDE8BE
:101E4000F0818B680A490B801A0C4A8000F111015D
:101E50000FF2F032704700002E0000006C656E003B
:101E6000202578006572720000000008286D0020AF
:101E7000BC7F00207B264E202674326820267432D8
:101E8000687D0D0A0000000076657273696F6E0050
:101E900042415476657273696F6E00007B264E2056
:101EA0002674680D0A000000267432680D0A267434
:101EB000700D0A267432680D0A000000696E666FA4
:101EC00056657200706172744465736300000000AF
:101ED0006361706162696C69746965730000000018
:101EE0007B7061727453697A653A256C7D207B70D2
:101EF00061676553697A653A256C7D0D0A000000BB
:101F0000267475202674757D0D0A00007061727448
:101F100045726173654D73007061676545726173E9
:101F2000654D73004E6F207061727420696E666F2C
:101F300020617661696C61626C657D0D0A0000004C
:101F40007B264E7D0D0A00007B264E204E6F2070B2
:101F500061727420696E666F2C2063616E27742035
:101F60006572617365206368697021207B65727298
:101F70003A307830317D7D0D0A0000007B264E20FE
:101F8000436869702045726173652053746172748F
:101F9000696E6720267468200000000020436F6D82
:101FA000706C657465217D0D0A000000466C6173DC
:101FB0006820696E697469616C697A65640D0A00EC
:101FC000466C617368206E6F7420696E6974696114
:101FD0006C697A65643A20307825780D0A00000033
:101FE000466C61736820747970653A2025700D0A1B
:101FF00000000000466C617368207479706520757C
:102000006E6B6E6F776E0D0A00000000466C617398
:102010006820657261736520737461727465640D04
:102020000A000000466C6173682065726173652068
:102030006E6F7420737461727465643A2030782511
:10204000780D0A00466C61736820657261736520C3
:10205000636F6D706C6574650D0A00005265616494
:102060007920746F206163636570742068657820DF
:10207000646174612C20616E7920696E76616C698F
:102080006420686578206368617261637465727347
:102090002077696C6C20656E6420636F6D6D616E76
:1020A000640D0A00446F6E650D0A0000466C617392
:1020B00068207772697465206661696C65643A208E
:1020C0003078257820307825782030782534780DC0
:1020D0000A000000496D616765207665726966696E
:1020E000636174696F6E207374617274656400005B
:1020F0000D0A496D6167652076657269666963617D
:1021000074696F6E206661696C65640D0A00000079
:102110000D0A496D6167652076657269666963615C
:1021200074696F6E20636F6D706C6574650D0A491C
:102130006E766F6B696E6720626F6F746C6F61642F
:1021400065720D0A000000004572726F723A2068D5
:10215000616C417070426F6F746C6F61646572493D
:102160006E7374616C6C4E6577496D616765207242
:10217000657475726E656420776974682073746124
:10218000747573202532780D0A0000007B264E20DE
:1021900045726173696E67202674346820627974B1
:1021A0006573207374617274696E672066726F6DF7
:1021B000202674346820000061646472000000000E
:1021C0002674682000000000237B264E2026742001
:1021D00026742026747D0D0A00000000646174617D
:1021E000000000007B5B2634685D202668207B00B1
:1021F000207D0D0A00000000237B264E202674203F
:1022000026742026747D0D0A57726974696E6720E2
:1022100072616E646F6D20646174610D0A0000006C
:102220007B264E2057726974696E672072616E64F6
:102230006F6D20646174612066726F6D2026743446
:102240007820000073656564000000000D0A577275
:10225000697465204572726F722120267468202689
:102260007434682026743268207D0D0A0000000056
:1022700020436F6D706C65746521207B6572723AC6
:10228000307830307D7D0D0A000000007B264E2026
:10229000566572696679696E672072616E646F6DEA
:1022A00020646174612066726F6D2026743478201A
:1022B000000000000D0A52656164204572726F7261
:1022C0002120267468202674346820267432682001
:1022D0007D0D0A000D0A4D69736D617463682045B8
:1022E00072726F7221207B6572723A307830317D64
:1022F00020267434682026746820267468207D0D9A
:102300000A00000065787065637465640000000071
:10231000656E636F756E74657265640066490A8BDD
:10232000120A022A02D1498A814204D218210FF2EC
:10233000A010F3F7C9BD704780B540F20510FFF754
:10234000EDFF5D48016B408AB0F5847FA4BFBDE816
:10235000014008478847002002BD38B540F205100B
:10236000FFF7DCFF00F092F81ADB018B40F203224A
:10237000914211D15149CC6DB4F1006F0CD9006C70
:1023800080474F4D014618222846F2F703FF4D487B
:10239000001BE860284632BDBDE83240006C0047B3
:1023A000002032BD80B500F079F84348C06BBDE82D
:1023B0000240004710B582B04FF48270FFF7AEFFC5
:1023C0004149424A3C4C646A0020086048600881E8
:1023D00080230120009001F18C00A04713BD10B5AF
:1023E0004FF48270FFF79AFF334B374CD86A9B6AE1
:1023F000002204F18C019847502802D14FF6FF705B
:1024000010BD08B9A08810BD002010BD80B52A48B5
:10241000008B000A022804BF40F20220F7F788FE72
:10242000012002BD70B500F036F83246294620463C
:10243000BDE87040204B9B6B184770B500F02BF83F
:10244000324629462046BDE870401B4B5B6B18475F
:1024500038B504460D4600F021F8174A508AB0F509
:10246000847F05DB29462046BDE83840526C104782
:10247000882032BD80B500F011F800F007F803DBCA
:10248000BDE80240806C0047002002BD0A48418A36
:10249000B1F5847F704704460D46164640F207109A
:1024A0003CE70548018B090A022901D1408B70479E
:1024B0004FF6FF7070470000000000080040000861
:1024C00054770020000004086C770020CC780020AE
:1024D000626F6F746C6F616465722D696E74657282
:1024E000666163652D6170702E6300002DE9F84F01
:1024F0005848594D0478A868DFF854815549574F1A
:102500008DF80100002628688DF8000098F800007A
:10251000087053490978A9B1012813D138780FF20E
:102520004411F2F7C9FB38780FF29811F2F7C4FBA7
:1025300038780FF2EC11F2F7BFFB38780FF2082170
:10254000F2F7BAFB98F8001038780A0027D0022971
:1025500009D003291AD0AA6822F04002AA602A688A
:1025600022F470622A600129AA680FF2602122F029
:102570008002AA602A6822F470422A600CBF0FF21F
:1025800060220FF26422F2F797FB0CE0296821F435
:10259000704141F4804129600FF2542101E00FF2B3
:1025A0006821F2F789FBF3F7E0F880464FF0020A62
:1025B000F7F72CFA83464FF47A70F7F7BDF9761CDB
:1025C000B6B2B14641F28830814503D138780FF276
:1025D0004C212EE0F7F71AFA5845ECD0BAF1010A6F
:1025E000E6D1F7F713FA064642F60410F7F7A4F916
:1025F000F7F70CFA861B0A2098FBF0F238780FF2F6
:102600007421B6B2F2F758FB38780FF28C214A46A3
:10261000F2F752FB38780FF29C213246F2F74CFB6E
:10262000A6F10901387803292CBF0FF2B8210FF267
:10263000BC21F2F741FB074804709DF80100A86037
:102640009DF800002860BDE8F14FF3F78EB8000058
:10265000646D0020D57F002004B40040286D002068
:10266000CD7F00205761726E696E673A20596F7591
:102670002772652072756E6E696E672074686520BA
:10268000727463207465737420776869636820616D
:102690007373756D657320616E2065787465726EF5
:1026A000616C2033324B487A207874616C206973F6
:1026B000206F6E2050433620616E64205043372EC9
:1026C0000D0A00005761726E696E673A20497420E6
:1026D000616C736F206170706561727320746861E2
:1026E0007420796F75277265207573696E67207421
:1026F0006865205458204163746976652066756E5C
:102700006374696F6E616C697479206F6E205043D9
:102710003520616E64205043362E0D0A0000000003
:102720005761726E696E673A205043362063616E5E
:102730002774206265207573656420666F7220625D
:102740006F7468210D0A00005761726E696E673AF6
:10275000205468697320746573742077696C6C20E9
:10276000666F7263652050433620616E642050436B
:102770003720746F20617373756D6520616E2065FD
:10278000787465726E616C207874616C2069732056
:1027900070726573656E742C20627574206265209A
:1027A0007375726520746F20636865636B20796F41
:1027B000757220696E74656E6465642050433620BE
:1027C0007573616765210D0A000000005573696E1D
:1027D000672033326B487A2025700D0A0000000014
:1027E0005854414C0000000053696E650000000021
:1027F0005573696E672033326B487A204469676984
:1028000074616C0D0A0000005573696E6720496E93
:102810007465726E616C2052430D0A004552524F2E
:10282000523A20537461727475702074696D6564D6
:10283000206F757420283E35207365636F6E647356
:10284000292C2074686520626F617264206973208E
:1028500070726F6261626C79206D697373696E6703
:1028600020612033324B487A206372797374616C33
:10287000210D0A006669727374206173796E63209A
:102880007570646174652074696D653A20257520E2
:102890006D730D0A0000000066697273742074691C
:1028A000636B2074696D653A202575206D730D0A80
:1028B0000000000031306D73206F66207469636B17
:1028C000732C2073686F756C642062652031302032
:1028D0002B2F2D2031207469636B733A20257520CE
:1028E0003D2000004641494C0D0A00005041535321
:1028F0000D0A0000207800A9F3F71CB92DE9F04F6C
:1029000085B0044600208DF8000080465A4E30689D
:1029100080B202904FF00A09A0680568C246FAF733
:102920008CF88DF8010000F09BF8E8B2F9F71BFF76
:102930000FF2941102460FF28810F2F783FE204640
:10294000F5F7D4FA4A480FF288110078F2F7B4F993
:10295000B0684A4C4A4F80B201904FF6FF72A06AAD
:10296000ADF80C0000212568D7F800B00820F9F771
:102970004FFEADF80200C02211460820F9F74FFEC5
:102980003C48007810B148F2607030614CF25C0055
:10299000F0640220A0620120206040F24C40F6F773
:1029A000CBFF0120F86038607F20FCF7D5FD02984E
:1029B00000F5004030600AE018F1190FB8BF4FF081
:1029C0000A09C84401980FFA88F84044B0609DF89D
:1029D0000000652820D026480078F3F7A0F818B149
:1029E00023480078FFF787FFBAF1000F04D04FF0BB
:1029F000FF307861234803E00020786141F2111034
:102A000038618AF0010A0120F6F796FFB8F11A0F33
:102A1000D2DB6FF00909D4E70198B0604FF6FF727E
:102A2000029830601FFA8BF038600020F8600220B6
:102A30002060A8B22060BDF80C00A0620020F06405
:102A40000820BDF80210F9F7EAFD40F24C40F6F715
:102A500073FF9DF80100F9F786FE05B0BDE8F08F21
:102A60000948D0F800150FF22400F2F7EBBD000082
:102A7000286D0020096F0020C01000406020004039
:102A800028100040EEEEFFFFC04301087B264E20D9
:102A900053657474696E67206368616E6E656C203F
:102AA000616E6420706572666F726D696E67206317
:102AB000616C6962726174696F6E2E2E2E00000067
:102AC0002674687D0D0A00007374617475730000CC
:102AD000436F6E74696E756F7573204D6F6420441B
:102AE00041432043616C202765276E642E0D0A0048
:102AF0000AE0000008E0000006E0000004E000003A
:102B000002E0000000E0000072B61EF0080F08D0DE
:102B10001EF0040F0BD0DFF848E0AEE8FF1F1148AD
:102B20000AE0DFF83CE0AEE8FF1F0F4804E0DFF802
:102B300030E0AEE8FF1F0D486946EFF309828EE8EA
:102B4000070086460A480B4C854501D3A54501D3AD
:102B500084F30888F3F7CFF984F30888F7F7E8FAE5
:102B600004000020FDFFFFFFF1FFFFFFF9FFFFFF63
:102B700008640020286D0020002180F83410011D19
:102B8000016070478278007801219140C943012893
:102B9000744A03D110680840106002E05068084091
:102BA00050600020704710B56F4A126800F00F03A4
:102BB00000219B1804064CBF93F8D43093F8E13001
:102BC0002BB1282000FB032000F1340104E00F2387
:102BD000184208BF02F13401084610BD2DE9F84F34
:102BE000624804680460002C00F0B980604DE96818
:102BF00049084900E96040682040000204D50220ED
:102C0000FAF7A3FFFDF754F8600204D50220FAF7A3
:102C10009CFFFDF74DF8A00244BF0620FAF795FF90
:102C2000E002514E1BD57F20E8613068FFF7A4FF1A
:102C3000306800F13407002087F820003861012057
:102C400038703846FFF79EFF002038703846FFF78F
:102C500099FF3068006B0068010018BF8047286B3F
:102C600050B90120E8613068FFF786FF30683430E2
:102C7000002180F82010016114F47E5FDFF8F480F9
:102C800052D000274FF08009DFF8ECA01FFA89F935
:102C900014EA090F43D0394850F827B0F8B2FFF7CB
:102CA00082FFC8F800000169DBF80020914234BFC0
:102CB0000A46DBF80020891A01614169DBF800202F
:102CC000511841611FB9306800F0A4F81BE090F87A
:102CD0002010022908D1DBF8002081785AF8211051
:102CE000806892B2F2F756FADBF80010D8F80000CC
:102CF00080785AF82000C9B2F7F740F9D8F80000F8
:102D0000C07800F009F9DBF800205AF8270092B2E9
:102D10000021F2F782FA40F20110B84028607F1CCF
:102D2000072F4FEA4909B1DB14F07F0F17D00025B8
:102D30000127BFB23C420ED01DB9306800F06AF8DE
:102D400009E045F08000C0B2FFF72DFFC8F8000091
:102D5000C07800F0E1F86D1C7F00072DE9DBBDE8CD
:102D6000F18F000054100140B46E002088A800408C
:102D700048100140D07A0020446E00207C6E002074
:102D8000011D0160704738B50446A07818B9204687
:102D9000BDE8324024E0217809B32169A5898D423C
:102DA00088BF0D46491B2161616969186161002D69
:102DB0001CBFA168002905D0894B53F82000EAB256
:102DC000F2F7E8F9A0682818A060A178854850F8C3
:102DD000210005600120A17888408349086031BD49
:102DE00038B504462078A0B12069A589854288BFFE
:102DF0000546401B20612DB17948A1680068EAB200
:102E0000F2F7C8F9A0682818A0600121764885600B
:102E1000016031BD70B5054605F13404734E94F878
:102E2000200020B1012845D0032864D070BD206166
:102E30006070B06030706E480068006800286AD02A
:102E4000284600F0DBF810F1010F0ED101202070B0
:102E5000012268480168A3789A401143016000206C
:102E600020702846BDE870408AE794F820000228C8
:102E700012BF0128606AB06094F8200002284AD08E
:102E8000206960B12968C988884244D2A189B0FB11
:102E9000F1F201FB120000283DD101201EE028467E
:102EA000FFF76EFF6078002831D184F820000220FF
:102EB00060701CE0206918B12046BDE870408FE7C3
:102EC000607801280CD1606970600023002084F8CC
:102ED000200002460146FAF774FF0220607070BDC0
:102EE00018B96069706001206070012030700320A3
:102EF00084F8200070BD307810B12846FFF740FFFD
:102F0000B368180003D071680022002098470020A1
:102F100084F82000207070BD38B5002401063649C1
:102F2000096800F00F0247BF511891F8D4105118EA
:102F300091F8E11029B130480068282202FB010015
:102F400004E00F21084203D12B48006800F134044B
:102F500094F82000012814D1206918B12046BDE85A
:102F6000324010E784F82000636A180004D0002083
:102F70006062002261699847BDE832400320F6F79D
:102F800038BF02282AD12269DAB1194DA07855F844
:102F900020000068A1898018884207D2636A18005F
:102FA0001CD0002060626FF00B0012E02046FFF79B
:102FB000EAFEA17855F82110A06809680818A060F9
:102FC00031BD002084F82000636A180006D000207C
:102FD0006062616901B0BDE83040184731BD000052
:102FE000606E0020986E002008100140D47A002006
:102FF0007C6E002054100140B46E002038B50446A9
:103000000E4D05F108002060206B8168080005D096
:1030100005F10800884710F1030F0DD1297AC1F39B
:103020004111002904BF697A06294FF0FF3003D10E
:103030002046BDE8324003E032BD0000386F00207A
:10304000F8B506683178002400251F2211424FF0A0
:10305000FF3728D1C90926D07188CAB2090A0129C7
:1030600004D014D303290BD003D310E0DAB9456A96
:103070000CE0C2B9856A6C880420FAF766FD06E0A8
:10308000817F8A420FDAC06A50F822502C7854B1FE
:10309000F088844228BF04460023224629460020A7
:1030A000FAF78FFE00273846F2BD000080B5F6F72C
:1030B000CBFBBDE804404FF470410148FAF7DEB99C
:1030C000E07A00205948D0F800D000F001F800BFA5
:1030D000574C584D40F2073020600120286072B6EE
:1030E000F6F732F854480168490849000160F6F7DC
:1030F000C5F841F21111514801604160504801602A
:1031000041605048016041604F48017869B9C0781A
:10311000072818BF09280CD0032818BF112808D089
:1031200013281CBF15280B2803D0A86940F4807011
:10313000A86140F207256069444F80064FF20F06F0
:1031400005D57888B04204BF3888A84237D1DFF867
:103150000081404940464FF0CD3201E040F8042B59
:103160008842FBD33C4A3D493D48F2F78DFA3D4940
:103170003D4800F0ABF83D493D4800F0A7F83D4A16
:103180003D493E48F2F780FA6069C00605D4788868
:10319000B04204BF3888A84201D1394800E039481C
:1031A000A8EB0001F7F77CF8374A38493848F2F7BE
:1031B0006BFA3849384800F089F8F6F7EFFF3748DE
:1031C0003749384A384B01604FF07F4101616FF059
:1031D000204141613549816135490A604FF08032B3
:1031E0004A608B60CA60334A0A61334941604FF4D8
:1031F0000471C1604FF4E021C1616069800607D5A8
:103200007888B04207BF3888A8420020FCF7F0FD5C
:10321000FAF7E4FEF7F748F862B6F1F71EFC4FF450
:103220009B710FF29800F2F74FFE704700400008C4
:103230001800004020400040FCED00E000B60040D7
:1032400000B8004000BA00409607080800000020BF
:10325000C8630020286D002010020000BC54010843
:10326000286D0020B7100000386F0020000000001B
:10327000000000000000000000000000000000004E
:103280009800002000000020000000000000000066
:10329000386F002000000000386F002008ED00E0CB
:1032A00000410008808040806080808080FFFF4077
:1032B00000E400E0E08080800004FA05637374613C
:1032C000727475702D6961722E6300000022F5F72B
:1032D000A5BF01466FF002000A7802F07F03212BA0
:1032E00000D0704780B54B78202B0ED025D3222BF1
:1032F00016D022D24B88002B01BF8B88002BC988A7
:1033000007291AD1D10911D102BD4B88002B01BF69
:103310008B88002BC98807290FD1D1090DD105E071
:103320008A88002A04BFC988002906D100221146D4
:1033300000230846FAF745FD002002BD042900D00D
:10334000704780B50D208DF800000023012200A9F0
:103350000520FAF784FD01BD626F6172642D74650A
:1033600073740000736574627264636667000000C2
:1033700075317531753175317531000053657420C3
:10338000626F61726466696C65204750494F2076B0
:1033900061726961626C65732028706F7274506924
:1033A0006E232C2070754366672C2070754F7574E2
:1033B0002C2070644366672C2070644F757429005C
:1033C0007365746770696F63666700007531753186
:1033D00075310000536574204750494F207265676E
:1033E000732028706F727450696E232C2072656789
:1033F000206366672C20726567206F757429000052
:10340000736574677270626D0000000075340000AF
:10341000536574206770696F526164696F506F778C
:103420006572426F6172644D61736B20766172697F
:1034300061626C6500000000627574746F6E2D74BB
:1034400065737400627574746F6E000075310000EE
:103450005465737420427574746F6E732E205573A7
:1034600065207531213D3020666F7220706F6C6C65
:10347000696E67006C65642D7465737400000000EC
:103480006C65644F6E0000005475726E73206F6E31
:10349000204C4544207531006C65644F6666000021
:1034A0005475726E73206F6666204C4544207531EA
:1034B000000000006C6564546F67676C6500000075
:1034C000546F67676C6573204C454420753100006C
:1034D00061646363616C2D7465737400616463740B
:1034E00065737400000000004D656173757265209E
:1034F00074656D7065726174757265006770696F6F
:103500002D746573740000006770696F52656164A3
:10351000000000005072696E7420616C6C2047508E
:10352000494F207374617465000000006770696F13
:10353000536574007531753100000000577269746D
:1035400065206120706F72742773204750494F5F68
:103550005078534554207265670000006770696FAA
:10356000436C6561720000005772697465206120C8
:10357000706F72742773204750494F5F5078434CE7
:1035800052207265670000006770696F4F757400A4
:103590005772697465206120706F727427732047B9
:1035A00050494F5F50784F555420726567000000B6
:1035B0006770696F436667007531753400000000FD
:1035C0005772697465206120706F72742773204789
:1035D00050494F5F5078434647482F4C20726567EB
:1035E0007300000073776A44697361626C65000060
:1035F00053574A2044697361626C65202831292041
:103600006F7220456E61626C6520283029000000D1
:103610006770742D746573742D74320062757A7AD4
:1036200065720000706C61792062757A7A6572202B
:1036300028303D666F726567726F756E642C20313D
:103640003D6261636B67726F756E6400736C656574
:10365000702D74657374000073687574646F776E91
:1036600000000000507574207468652063686970FC
:1036700020696E20746865204465657020536C6510
:10368000657020737461746500000000746F6B6571
:103690006E2D636F727465786D332D74657374006D
:1036A000746F6B4D617000005072696E74207468A5
:1036B0006520546F6B656E204D656D6F7279204D7E
:1036C000617000006C6F6164546F6B7300000000E8
:1036D0004C6F616420737461636B20616E64206160
:1036E00070706C69636174696F6E20746F6B656E66
:1036F0002064656661756C74730000005072696EB9
:103700007420637261736820696E666F726D617494
:10371000696F6E00657874666C6173682D7465738B
:1037200074000000617070626C76657200000000C9
:103730005265706F72742074686520766572736963
:103740006F6E206F662074686520696E7374616C9B
:103750006C65642061707020626F6F746C6F61645F
:10376000657200006566496E69740000496E69748F
:1037700069616C697A652074686520657874657222
:103780006E616C20666C6173682064726976657224
:1037900000000000656673687574646F776E0000E2
:1037A00053687574646F776E2074686520657874EB
:1037B00065726E616C20666C6173682064726976F4
:1037C00065720000656643686970457261736500E3
:1037D0004572617365207468652065787465726EE2
:1037E000616C20666C61736820636869700000001A
:1037F000656650616765457261736500753475343F
:10380000000000002861646472657373206C656E4B
:1038100029204572617365207061676573206F6E42
:10382000207468652065787465726E616C20666CC2
:103830006173682063686970000000006566526506
:103840006164000075347532000000002861646412
:1038500072657373206C656E292052656164206403
:103860006174612066726F6D20746865206578747C
:1038700065726E616C20666C617368206368697044
:103880000000000065665772697465002861646411
:1038900072657373206C656E292057726974652098
:1038A00072616E646F6D206461746120746F207446
:1038B00068652065787465726E616C20666C6173F2
:1038C00068206368697000006566577269746554A2
:1038D0006573740075347534753400002861646450
:1038E00072657373206C656E20736565642920575B
:1038F000726974652072616E646F6D2064617461B9
:103900002C206C656E6774687320746F2074686512
:103910002065787465726E616C20666C61736820D6
:1039200063686970000000006566526561645465F3
:10393000737400002861646472657373206C656E33
:103940002073656564292056657269667920726105
:103950006E646F6D20646174612C206C656E677499
:10396000687320726561642066726F6D207468658B
:103970002065787465726E616C20666C6173682076
:103980006368697000000000656653747265616D5C
:1039900000000000496E697420616E6420657261E8
:1039A00073652065787420666C61736820616E644D
:1039B000207468656E206163636570742068657843
:1039C000206461746120746F20626520777269746D
:1039D00074656E2073657175656E7469616C6C7960
:1039E000000000006566426F6F746C6F61640000D8
:1039F00056657269667920696D61676520696E2018
:103A000065787465726E616C20666C6173682061A4
:103A10006E64207468656E20696E766F6B652062D7
:103A20006F6F746C6F6164657220746F20696E7360
:103A300074616C6C20697400746F6B656E2D7465B5
:103A400073740000496E766F6B6520746F70206C24
:103A50006576656C20746F6B656E20696E6974693C
:103A6000616C697A6174696F6E000000746F6B52EB
:103A700065616400753200005265616420616C6CA0
:103A80002064617461206F66206120746F6B656EC5
:103A9000202875323D63726561746F7220636F64B4
:103AA00065290000746F6B52656164496478000099
:103AB00075327531000000005265616420616E202E
:103AC000696E646578206F66206120746F6B656E27
:103AD000202875323D63726561746F7220636F6474
:103AE000652C2075313D696478290000746F6B572F
:103AF0007269746500000000577269746520616C1A
:103B00006C2064617461206F66206120746F6B6546
:103B10006E202875323D63726561746F7220636F29
:103B200064652900746F6B57726974654964780025
:103B3000577269746520616E20696E646578206FC4
:103B400066206120746F6B656E202875323D63724C
:103B50006561746F7220636F64652C2075313D69F7
:103B600064782900746F6B44756D700044756D70D6
:103B70002074686520656E7469726520746F6B656A
:103B80006E206461746120736574000072657365F2
:103B9000742D7465737400005072696E74207468BB
:103BA00065205265736574537472696E6700000016
:103BB0006173736572746D65000000005265736512
:103BC0007473207468652063686970207573696E0A
:103BD0006720617373657274282900006D697363CF
:103BE0002D746573740000007274630054657374FF
:103BF0002065787465726E616C2033322E373638EA
:103C0000204B487A206372797374616C206F736300
:103C1000696C6C61746F72202875736564206173C0
:103C2000205254432F73797374656D2074696D65E8
:103C300072292E007068792D636F6D6D6F6E0000B4
:103C400063616C6C20656D526164696F496E697463
:103C500028292E00536565642074686520504E52F3
:103C60004720776974682072616E646F6D206461AB
:103C700074612066726F6D2074686520726164697A
:103C80006F000000736574506572546573740000B2
:103C9000286D2920536574205061636B657420453D
:103CA00072726F7220526174652074657374206D36
:103CB0006F646520746F206D2028302D64697361F6
:103CC000626C652C20312D656E61626C6529000087
:103CD0006765744368616E6E656C000047657420AB
:103CE0007468652063757272656E74206368616EB6
:103CF0006E656C007365744368616E6E656C000080
:103D00002863292053657420746865207261646992
:103D10006F206368616E6E656C20746F20630000B5
:103D200067526164506F77537461746500000000DE
:103D30004765742074686520726164696F206375DB
:103D40007272656E7420706F77657220737461741F
:103D50006500000073526164506F7753746174653D
:103D600000000000287329205365742074686520C2
:103D7000726164696F2063757272656E7420706F12
:103D800077657220737461746520746F20732028C6
:103D9000302D61736C6565702C20312D6177616BFE
:103DA00065290000676574436361000047657420FE
:103DB000436C656172204368616E6E656C2041736F
:103DC000736573736D656E742E202031203D204322
:103DD0006C6561723B2030203D20427573792E0066
:103DE0006765745273736900476574205253534971
:103DF00020696E2064426D206F76657220382073D2
:103E0000796D626F6C20706572696F64732E00004B
:103E10006765744564000000476574203830322EB1
:103E200031352E3420454420282D31303064426D08
:103E300020746F202D333664426D203A2030783064
:103E40003020746F203078666629206F7665722086
:103E5000382073796D626F6C20706572696F64735E
:103E60002E0000007068792D636F6D6D6F6E2D727E
:103E70007800000073686F775061796C6F6164003F
:103E8000456E61626C652831292F64697361626CCB
:103E90006528302C64656661756C7429205048591A
:103EA000207061796C6F616420646973706C6179F2
:103EB00020696E205258206F757470757400000070
:103EC0007278000052656365697665206D6F646580
:103ED000000000007068792D636F6D6D6F6E2D743A
:103EE00078000000536574757020545820666F7216
:103EF0002049454545203830322E31352E3420506A
:103F000045522074657374006765745478506F77F8
:103F1000657200004765742063757272656E742067
:103F2000726164696F20545820706F7765722069E0
:103F30006E2064426D0000007365745478506F7792
:103F400065720000733100002870292053657420C9
:103F5000726164696F20545820706F7765722074A5
:103F60006F20702064426D00676574547844656CFE
:103F70006179000047657420545820696E74657239
:103F8000706B742064656C617920696E20757300B4
:103F9000736574547844656C617900002864292045
:103FA00053657420726164696F20747820696E743F
:103FB0006572706B742064656C617920746F206425
:103FC0002075730074780000286E29205458206EE4
:103FD00020706B74732028303D696E66696E697459
:103FE00065290000747853747265616D00000000EB
:103FF000545820636F6E74696E756F757320737497
:104000007265616D206F662072616E646F6D2073E2
:10401000796D626F6C7300007478546F6E65000088
:1040200054582073696E676C6520636172726965AC
:1040300072206672657175656E6379007365744888
:104040006F6C644F66660000456E61626C65283176
:10405000292F64697361626C65283029205261647C
:10406000696F20486F6C644F6666204750494F2047
:10407000636F6E66696700007478486F6C644F66A2
:1040800066000000286E29205458206E20706B7442
:10409000732028303D696E66696E697465292077E2
:1040A00069746820526164696F20486F6C644F6660
:1040B0006620636865636B696E67000067657454AA
:1040C000785061636B657400446973706C6179202A
:1040D000545820706B74206C656E677468202620BD
:1040E0007061796C6F61640073657454784C656EAF
:1040F00067746800536574205458207061796C6F40
:104100006164206C656E67746800000073657454A8
:10411000785061796C6F616400000000286F206442
:1041200030206431206432206433292053657420A8
:10413000545820706B74207061796C6F61642064D6
:104140006174612064302D33206174206F66667362
:104150006574206F000000007068792D656D323540
:1041600030636C617373000063616C4368616E6EF1
:10417000656C000053657420746865206368616E27
:104180006E656C3B20706572666F726D2066756C33
:104190006C2063616C6962726174696F6E0000000B
:1041A0006765745478506F774D6F64650000000048
:1041B000446973706C61797320547820706F7765EF
:1041C00072206C6576656C20616E642050412073AE
:1041D000657474696E6773007365745478506F7793
:1041E0004D6F646500000000286C20702920536525
:1041F0007420547820706F776572206C6576656CDA
:10420000206C2028303D6E6F726D616C2C20313D2A
:10421000626F6F73742920616E642050412070209A
:1042200028303D696E742C20313D6578742900007A
:1042300073657453796E4F66667365740000000091
:10424000286F29204F666673657420746865207333
:10425000796E7468206672657175656E6379206227
:1042600079206F2031316B487A20696E6372656DF9
:10427000656E74732E0000007068792D656D33785B
:1042800078000000746573744D6F6443616C0000C6
:1042900053657420746865206368616E6E656C3B5D
:1042A00020706572666F726D2063616C6962726105
:1042B00074696F6E3B207468656E20636F6E7469FD
:1042C0006E756F75736C792072657065617420749A
:1042D000686520616374697665207472616E736DC0
:1042E00069742070617274206F66204D6F64204481
:1042F00041432063616C6962726174696F6E000092
:10430000706C6174666F726D746573740000000088
:1043100076657273696F6E005072696E7473207681
:10432000657273696F6E20696E666F726D61746914
:104330006F6E2E00766572626F73650053657473DD
:1043400020766572626F73697479206F6620686584
:104350006164657220636F6D6D616E642074616766
:104360002064656C696D20746578740068656C7094
:10437000000000005072696E7473207468697320C5
:1043800068656C70206D656E750000006C697374F3
:1043900000000000620000006C69737420636F6DA0
:1043A0006D616E6473206F66207370656369666902
:1043B0006564206D6F64756C65206E616D650000CD
:1043C000583301089141000800000000000000007F
:1043D00064330108B7FE0008703301087C3301081C
:1043E000C03301087DFF0008CC330108D433010835
:1043F00000340108110001080C34010810340108D0
:10440000383401089141000800000000000000005D
:1044100044340108A3FA00084C3401085034010860
:104420007434010891410008000000000000000001
:1044300080340108D3BD00084C34010888340108D9
:104440009834010813BE00084C340108A034010858
:10445000B434010867BE00084C340108C0340108B8
:10446000D034010891410008000000000000000065
:10447000DC340108E1030108E4340108E8340108F0
:10448000FC34010891410008000000000000000019
:104490000835010811890008E434010814350108C1
:1044A0002C350108F1890008343501083C35010834
:1044B0005C350108198A000834350108683501089F
:1044C000883501088B8A00083435010890350108C9
:1044D000B0350108018B0008B8350108C035010866
:1044E000E4350108B18B00084C340108F0350108AF
:1044F0001036010891410008000000000000000093
:104500001C360108550401084C3401082436010802
:104510004C36010891410008000000000000000036
:1045200058360108F9050108E43401086436010829
:104530008C360108914100080000000000000000D6
:10454000A036010889070108E4340108A8360108EB
:10455000C436010857180108E4340108D0360108B0
:104560006C4A000851660008E4340108FC36010872
:10457000143701089141000800000000000000000D
:104580002437010805190108E4340108303701080F
:10459000643701082F190108E43401086C37010859
:1045A00094370108AB190108E4340108A037010869
:1045B000C4370108C3190108E4340108D0370108E1
:1045C000F0370108A51B0108FC3701080438010871
:1045D0003C380108FD1B0108443801084C3801082B
:1045E00084380108691C0108443801088C38010826
:1045F000C8380108291D0108D4380108DC38010831
:1046000028390108A51D0108D438010834390108EA
:1046100088390108111A0108E434010894390108A5
:10462000E4390108591B0108E4340108F039010894
:10463000383A010891410008000000000000000025
:10464000784A000833670008E4340108443A010856
:104650006C3A0108B9680008743A0108783A010810
:10466000A43A01085F690008B03A0108B83A0108A5
:10467000EC3A0108196A0008743A0108F83A01088E
:10468000243B0108BD6A0008B03A0108303B01082C
:10469000643B0108ED6B0008E43401086C3B010841
:1046A0008C3B010891410008000000000000000060
:1046B000844A0008B77D0008E4340108983B0108EB
:1046C000B03B0108AD7D0008E4340108BC3B0108A3
:1046D000DC3B0108914100080000000000000000E0
:1046E000E83B0108ED240108E4340108EC3B010833
:1046F000343C010891410008000000000000000067
:10470000904A0008FD7D0008E4340108403C01089F
:104710009C4A0008377E0008E4340108543C010834
:10472000843C0108477E00084C340108903C010895
:10473000D03C0108ED7E0008E4340108DC3C0108AF
:10474000F43C01080B7F00084C340108003D0108CF
:10475000203D0108777E0008E4340108303D01085F
:10476000543D0108A37E00084C340108643D010853
:10477000A43D0108577F0008E4340108AC3D01085E
:10478000E03D0108BF7F0008E4340108E83D01086E
:10479000103E0108DD7F0008E4340108183E0108DE
:1047A000643E010891410008000000000000000084
:1047B000743E010869C400084C340108803E0108B9
:1047C000C03E01082DC30008E4340108C43E0108BE
:1047D000D43E0108914100080000000000000000E4
:1047E000A84A0008C1850008E4340108E43E010835
:1047F000083F010815820008E4340108143F01084D
:10480000383F010835820008443F0108483F01084D
:10481000683F010871820008E4340108743F010810
:10482000903F010895820008743A01089C3F0108F6
:10483000C43F0108A1820008743A0108C83F01087A
:10484000E43F01089D840008E4340108F03F0108BA
:1048500018400108D3840008E4340108204001080E
:104860003C4001081D8400084C3401084840010800
:104870007840010863840008743A01088440010804
:10488000BC4001081B850008E4340108C840010849
:10489000E8400108758500084C340108F44001081F
:1048A0000C4101087F850008703301081C41010894
:1048B000584101089141000800000000000000007C
:1048C00068410108C1D100084C3401087441010855
:1048D000A0410108F7D10008E4340108B041010803
:1048E000D841010831D2000834350108E8410108F7
:1048F000304201086BD20008443F010840420108E1
:10490000784201089141000800000000000000000A
:1049100084420108FD2801084C3401089042010836
:104920000043010891410008000000000000000061
:1049300010430108D5450008E43401081843010874
:1049400034430108B5440008703301083C430108B2
:104950006C43010893410008E434010874430108E2
:104960008C4301085F430008944301089843010801
:104970000000000000000000000000000000000037
:104980004941434356494F4C3A20617474656D70F8
:1049900074656420696E737472756374696F6E20D8
:1049A00066657463682066726F6D2061206E6F2D7E
:1049B00065786563757465206164647265737300FE
