S01A00005A6C6C53616D706C65436F6E74726F6C6C65722E73333722
S315080020000027002051AE0108C1AD0108C5AD010881
S31508002010A70A080100210008040303AC505456041B
S3150800202000000000000000000000000000000000A2
S315080020300000000000000000000000000000000092
S315080020400000000000000000FFFFFFFFFFFFFFFF8A
S31508002050FFFFFFFF00E0020800000000000000008C
S31508002060FFFFFFFFFFFFFFFFFFFFFFFFFFFFFFFF72
S31508002070FFFFFFFFFFFFFFFFFFFFFFFFFFFFFFFF62
S315080020800000000000000000EF2F0020EF2F0020C6
S315080020900027002070BA010834B00108A01D0020EE
S311080020A0380D00200000030800000000B6
S315080021000027002051AE0108C1AD0108C5AD010880
S31508002110CDAD0108C9AD0108D1AD01084CAE010825
S315080021204CAE01084CAE01084CAE01084CAE010895
S31508002130D5AD01084CAE01084CAE0108113D0008AA
S31508002140078D01084CAE01083B6A00084CAE010831
S31508002150BDAE00084CAE01084CAE01084CAE0108F5
S31508002160935C0008D53200085B2D00089121000811
S315080021704CAE0108CB68000813690008AD42000898
S315080021804CAE01084CAE01084CAE01084DAE010834
S3150800219070B52C482C4942780B685B0725D5032A6D
S315080021A023DA838800EB4204A3810123847803FAA7
S315080021B002F222438270254C0278002A12D00025AA
S315080021C022FA05F6F60708D5AB4045705A40027064
S315080021D010EB4500808A206007E06D1CEDB2032DE8
S315080021E0EEDB02E02260032242704FF6FF700860C1
S315080021F0BFF35F8F70BD13480021017000220321D1
S3150800220041700021C1700521018100218170001DE6
S315080022100E490A604A604FF400428A601022CA607A
S315080022204861012088610320C860042106480164CA
S315080022304FF6FF7101604FF400600549086000F031
S3150800224045B800008828002010A8004004D00040A7
S3150800225000E100E0DFF8E03433F810001040C84031
S31508002260704730B50FF29054DFF8D03434F8104088
S315080022709C601140DFF8C04434F810509543294358
S31508002280D96002221A6000221A6024F810105868D1
S315080022900028FCD130BDDFF8A824DFF8A80412789E
S315080022A0DFF8A4140AB149780EE0895611F1090F2E
S315080022B0B8BF302108DBC16D39B1C26D40F24A3171
S315080022C0B1FBF2F189B2C91E01607047E0B5DFF8CB
S315080022D07C0401880A2300F064F8BDF806104FF65E
S315080022E0FF720D20FFF7BDFF07BDF8B50546B5F52A
S315080022F0004FDFF8544419D1DFF85404018802234B
S3150800230000F04FF8BDF80000000AFF2814BF0028A7
S3150800231018206070BDF800000006C00E10281CBF0B
S31508002320001D00F098F9BDF80000C543DFF81064F9
S31508002330707808B1002005E0A089ADB26840C007F2
S3150800234001D501207070DFF80C04A58105F00104A1
S31508002350016841F400410160C5F340070FF2BC4033
S3150800236000EB44004FF440524078010389B2022042
S31508002370FFF777FF204600F053FA4022B90100F034
S3150800238005FA2D06A80E00F0010038433070FFF755
S3150800239082FF707818B1FFF799FF0020707000204F
S315080023A0F2BD7F2200A800F0B1BA2DE9F04FDFF8A0
S315080023B0AC43207887B0042304900B210B38C0B2B5
S315080023C0039000A8039A00F019FB9DF800008DF809
S315080023D00A009DF801008DF809009DF802008DF8A5
S315080023E008009DF803008DF80500DFF874030078EF
S315080023F0012804D16078451EAD41ED0F00E00125A6
S3150800240000F083FD83469DF902000399D24F0BF134
S315080024100A0AABF10A065045B6BF86424FF00108D4
S315080024204FF0000801208840ADF806009DF801002D
S31508002430000604D47888BDF80610084201D04FF08B
S31508002440010800F0EBFD9DF8030000060AD4B888E1
S31508002450BDF80610084205D19DF900005045B8BFE1
S31508002460864202DB4FF0010901E04FF0000948EA15
S31508002470050059EA000000F09E80DFF8E8A2BA4994
S31508002480DAF8000000F002008DF80400B74800688A
S3150800249000F4E06005904FF4E0600860002001F069
S315080024A0B3F901F0BAFCB24EADB1607858B1DAF8BA
S315080024B00000AB4940084000CAF800000120087037
S315080024C001F090FD07E0306840F400503060306855
S315080024D020F480503060A248007801280DD101F020
S315080024E0A4FEDAF800009E4940F00100CAF8000090
S315080024F000200870642001F075FD2DB1607818B9C8
S315080025000498C0B201F017FF607838B1306820F43B
S3150800251080503060306840F400503060BDF80600E6
S31508002520C543B8F1000F08D001F0F0FF8DF801009F
S315080025308DF802B0788828407880B9F1000F08D065
S3150800254002F095F88DF803008DF800B0B888284099
S31508002550B8809DF900009DF90A10884202BF9DF8CF
S3150800256001009DF8091088420BD19DF902009DF9DA
S315080025700810884202BF9DF803009DF8051088429E
S3150800258006D00399042300AAC9B20B2000F047FA23
S3150800259005987649086000F077FA9DF8040001F07E
S315080025A033F902F084F9607828B148F26070306037
S315080025B0642001F017FD9DF8010001F013FF9DF856
S315080025C0030002F04FF807B0BDE8F08F80B500F0C1
S315080025D08FFCBDE80140E8E600F08ABC70B5064607
S315080025E0A6F10B0401F077F80546A6F10B001028B2
S315080025F001D38A2070BD5F488168090702D4006844
S31508002600C00701D58C2070BD544806705A48016829
S315080026100C290FD00FF27811584A92F90020A4B26B
S3150800262031F824105118C161FFF7BFFE012D08BF0C
S3150800263000F0E2FF002070BD10B5044600F058FC1B
S315080026402046BDE81040C9E74448007870473E4830
S3150800265090F9000070472DE9F041044614F12B0F5C
S3150800266086B045DB464801881423FFF79AFEBDF875
S3150800267010004FF6FF71884203D0400448BF012678
S3150800268006D43F2200211020FFF7E4FD0546002668
S3150800269004F12B022F2A2C483A491AD213220FF298
S315080026A0301300E0521ED2B213F91270BC42F9DBA5
S315080026B003EB4204032764780C60002413F8121015
S315080026C0017000208046AEB1BDF810104FF6BF72FB
S315080026D029E0092C0CDA225C0A60047014232A48C3
S315080026E00188FFF75EFE01240320A0462827EAE7B3
S315080026F08B201DE0C1024FF4605200F047F84FF4FA
S31508002700E062210200F042F880224FEAC81100F088
S315080027103DF885F020003D18ADB2402DA8BF3F25F5
S315080027203F2285F0200100F031F8FFF7B4FD0020C4
S3150800273006B0BDE8F0810000902B0020E8100040AC
S31508002740BF2F002064100040F82700209AB801081F
S31508002750A4B801081C10004072290020F6270020A2
S315080027606C2800208020004080E100E000E100E0C5
S31508002770D010004060200040AC100040BE2F002062
S3150800278096B80108C010004098B801080B2068E503
S31508002790AA2129005523290000252800AA26270052
S315080027A055282700002A2600AA2B2600552D250085
S315080027B0002F2400AA3024005532230000342200BA
S315080027C0AA3522005537210000392000AA3A2000F0
S315080027D0D500E601EC02EF03F204F405F506F70767
S315080027E0F808F909FA0AFB0BFC0DFD0FFE11FF1399
S315080027F000160119021C031F1000110020003000EA
S315080028004000410050006000700080009000A00069
S31508002810B000C000D000E000F00000000000010396
S31508002820F0B5044689B0002001F074FB26480188FB
S315080028300A237F2200A800F069F8BDF802004FF6C7
S31508002840FF75A84204D1DC210FF2940002F068F863
S315080028500FF2A407002601E02A4616B94FF47C4277
S3150800286003E0022E08BF4EF23F0200A800F032F83D
S31508002870761C052EF0D3012C03D114237F2213488E
S3150800288002E014237F221248018803A800F03EF8CC
S3150800289000260FF26C072A4608E02A46012E08BFD2
S315080028A04FF6C07202D0082E08BF002203A800F017
S315080028B011F8761C0A2EF0D3012C04BF012001F072
S315080028C029FB09B0F0BD00009AB8010898B80108BC
S315080028D096B8010830F81610F05DFFF7C2BC000084
S315080028E0616E616C6F6775652D63656C6C2D6269C9
S315080028F061732E630000000000100C0D0E0000002E
S31508002900010203040708090A0B0F000030B5044644
S3150800291010467F2808BF0020B1F5004F83B01AD1B2
S3150800292008237F2240F6120100A8FFF7EFFF0822CE
S315080029300FF2380100A802F03BF930B908237F22CC
S3150800294040F2A27100A8FFF7E1FF082200A920467D
S3150800295002F0E4F837BD044D294300FB03111A467B
S31508002960204602F0DBF837BD00000408FFFFFFFF32
S31508002970FFFFFFFF30B50FF20C11DFF8F8500A68B9
S3150800298083B001A80024026001202870002002F00C
S315080029902FF930B1002002F02BF910B12C70492024
S315080029A03EBDDFF8D400018802237F220DF1020024
S315080029B000F024F802237F22002100A800F01EF868
S315080029C0204601A9BDF8022031F81010914208BF2F
S315080029D00124401C0228F4D3BDF8000024B1B0F548
S315080029E07F7F07D100203EBDB0F57F7F0CBF062054
S315080029F0042000E00720002129703EBD10B5FF29FC
S31508002A0008DCDFF87040247844B1BDE81040C9B24C
S31508002A1002F021BCBDE81040FFF778BF10BD2DE9D4
S31508002A20F0410546FF2D0E46174698460FF24C0014
S31508002A3012DC104C2178A1B1617811B1C22101F0E4
S31508002A406FFF01206070434632463946E8B202F00D
S31508002A506CFD0020607004E0BDE8F041CD2101F076
S31508002A605FBFBDE8F08103490978002918BF02F065
S31508002A705FBE7047BB2F0020A2B80108746F6B6554
S31508002A806E2E6300FE01FD0210B5DFF838451020F2
S31508002A90206302F0FFFEDFF830150A6842F00102F3
S31508002AA00A6002F0FDFEDFF8240500F10801616006
S31508002AB02160923061688931616001212163E0609B
S31508002AC0A060DFF80C15E0688930E060022020631A
S31508002AD04FF6FF70086010BDDFF8F80445F2640190
S31508002AE0C1601E21416250210162C821C161816510
S31508002AF0F021C16545F69001416688218166062167
S31508002B00C16644F2066101604FF6FF714160DFF865
S31508002B10C804007838B1DFF8C40448F2607101606F
S31508002B204FF4C1514160DFF8B804016841F004016F
S31508002B3001600020DFF8AC14487070472DE9F04FAB
S31508002B40DFF888148A2283B002FB0012083200924A
S31508002B500427521C04465378127802EB0325ADB2BB
S31508002B6005F44063B3F5006F05F440424FF00009E1
S31508002B704FF0010A08BF082703D0B3F5406F08BF16
S31508002B800E271AB16B065CBFBB1CDFB2DFF85834E0
S31508002B901B784B7040180190A806019981F802909D
S31508002BA064D5DFF84864706E00065FD5009838185B
S31508002BB0B2F5404F4FF4806B4FF4006807D102F02E
S31508002BC075FE5FEA000947D007F1080019E0B2F57B
S31508002BD0004F41D100994078795C01EB002080B222
S31508002BE002F070FEFF2808BFCA4609D0DFF80014B5
S31508002BF0096831F810004FF4FE6108422CD0D1461E
S31508002C00B81CC0B2410805F00702032A24D1002CDB
S31508002C1014BF726832688A421ED3002C14BF7268C9
S31508002C2032684B1C9A42F8D30099405C042813D1A9
S31508002C30BAF1000F02D0B9F1000F0DD0F06DC00641
S31508002C4006D400F015F803D0706C40F001007064EB
S31508002C5001200199887009E0F06DC00606D500F0DC
S31508002C6007F803D0706C400840007064BDE8F78F21
S31508002C70B06C04B1C34610EA0B0F70472DE9F04E4D
S31508002C800446DFF84863DFF864538A2000FB0460D3
S31508002C9000F1080B002C0CBF28686868C1B205292A
S31508002CA003DA7068401C706055E040005FFA80F9EE
S31508002CB009EB0B00A0F108073878797801EB0020BA
S31508002CC01FFA80FA7078387002F0CBFE7870C94F18
S31508002CD0F86B20F48050F863686E14B938684005BC
S31508002CE004D4012C1FD1386800051CD5C2480178C8
S31508002CF089B1002101701AF4E45FC048016802D066
S31508002D000022402005E09BF80100000900F00102BE
S31508002D108F2002F024FF002C0CBF4FF480604FF484
S31508002D200060386012E01AF4E45F0FD100F069FD24
S31508002D3010B15FEA4A4009D59BF80000802805DAF9
S31508002D40A01949468278584602F0CEFF002C0CBFDF
S31508002D50012002202861BDE8F08E2DE9F84F9C4C31
S31508002D60A24E2068216CDFF898A2DFF88C82DFF883
S31508002D705C92A44F01EA00051AE040B14878C00603
S31508002D8005D49E48016800228F2002F0E8FE280636
S31508002D9005D502F03DFF802025F080052060E80576
S31508002DA006D502F035FF4FF4807025F48075206053
S31508002DB0002D68D0280706D50020FFF7BFFE08209B
S31508002DC025F008052060E80606D50120FFF7B6FEBF
S31508002DD0102025F01005206005F06000602803D15A
S31508002DE0B06CC0050AD401E0A80605D520202060ED
S31508002DF025F02005002006E0680606D5402020605C
S31508002E0025F040050120FFF739FFE80410D54FF4F7
S31508002E108050206025F48055D7F800B00820386027
S31508002E207868000548BF00F031F91FFA8BF0386062
S31508002E30E807ACD5012020606D0899F800006D0000
S31508002E400028A4D000F05CFC0128A0D198F8000066
S31508002E5000289CD09AF80000042898D1F068400809
S31508002E6000F001008A2101FB00910831002814BFF7
S31508002E707268326812B92268D204F7D5002814BFDE
S31508002E807068306879E700202060BDE8F18F5E48F9
S31508002E9000687047F0B504460D4689B00021032046
S31508002EA001F0AEFC04AE1BE0002701F0C4FC26F8D6
S31508002EB0170001F0C0FC00A921F817007F1C082F95
S31508002EC0F3DB04A803F0AAF800202080218836F84E
S31508002ED010205140401C08282180F7DB6D1EA41CD9
S31508002EE0EDB2002DE0D101F0E2FC012009B0F0BD01
S31508002EF00321022001F084BC4FF6FF71081A29212C
S31508002F0090FBF1F03A3040B2704738B501F093FCC7
S31508002F10FFF7F2FF3D4D04462878B0B90321032098
S31508002F2001F06EFC3A48018802237F2200A8FFF7C9
S31508002F30EDFC01F080FCBDF80010401880B2FFF7E8
S31508002F40DBFF153868700120287001F0B0FC68783E
S31508002F50201A40B232BD80B50321022001F050FC90
S31508002F60BDE80140D1E770B52A480078002490B939
S31508002F70FFF7F1FF1B4E0546707848B13078401BC5
S31508002F8040B203F05CF80B2805DB3570012402E03B
S31508002F90012035707070204670BD80B540B11E495D
S31508002FA0002008600848016821F08001016001BD21
S31508002FB000F05EFC00F034FC00F0ECFBBDE80240DB
S31508002FC000F0D0BB0020004084200040542C002094
S31508002FD000A000404C100040F7270020D010004009
S31508002FE080200040D92F0020F6270020202000400E
S31508002FF02427002004A00040BC2D0020C42D00205A
S315080030006B280020B820004038200040D72F002029
S31508003010A0B801086C2800205410004010B50D48CF
S31508003020018884B00A237F2200A8FFF76FFCBDF849
S3150800303000004FF6FF74A04204D14E210FF218008B
S3150800304001F06EFCBDF8001022460020FFF709F9D2
S315080030501FBD00009AB80108616E616C6F677565DF
S315080030602D66696C7465722E63000000DFF8080827
S31508003070007848B1DFF804080179012904BF4079CE
S31508003080042801D10120704700207047DFF8F007B7
S31508003090016821F480510160DFF8E807017881B101
S315080030A000210170DFF8E0170A68520852000A602A
S315080030B00A6842F001020A6000228168402002F094
S315080030C04EBD70470FF65801405C7047010603D5A0
S315080030D04FF67F710840C00070478001B0FBF1F0E1
S315080030E080B2FF288CBF0020C0F1FF00C0B2704735
S315080030F038B5DFF89007C178012901D1002032BD23
S31508003100DFF88C47617871B1E17840794518207904
S31508003110ADB2854228BF054602F0AAFF0121A940A3
S31508003120491E084000E0002061790818C0B232BD87
S315080031302DE9F0470446C00705D54FF4B8710FF2DC
S31508003140D07001F0EDFBDFF84C57286DC00748BF7B
S315080031508C2000F19480DFF82C07DFF83477002103
S31508003160017101704178B1B93978A1B12178122974
S3150800317018BF0C290BD1627802F00702032A02BF96
S31508003180091911F8021C042904BF01210171A96F4C
S3150800319041F0010102E0A96F49084900A967DFF873
S315080031A0DC867A7898F80610DFF8EC96DFF8EC6695
S315080031B092B1002242710129286D40F00400286569
S315080031C006D14FF6FF7030604FF40070C9F8000062
S315080031D0FFF78EFF82460CE0286D20F004000129D7
S315080031E028654FF0000A04D100F043FA642000F085
S315080031F0F9FEA86F20F00800A8671420E864C5F84F
S3150800320048A0787838B198F80600002801BFA86C5D
S3150800321000280120A864B8790028286D14BF40F05A
S31508003220080020F008002865FFF720FF18B1306C69
S3150800323040F008003064202028626C602C604FF44F
S31508003240E06468687F30686004202862DFF850060A
S31508003250046006E002F01CFF18B102F021FF02F03C
S3150800326019FBDFF84006006800F003000328F1D0D8
S31508003270C9F80040286D40F0010028650020BDE827
S31508003280F087DFF82406002141608160016821F09B
S31508003290020101604FF00070DFF810160860012087
S315080032A0DFF80C1608707047A0F13301DFF8042622
S315080032B0914200D3704710B5DFF8F445002121701C
S315080032C000F07DFB02E0012002F0EEFE20780028E7
S315080032D0F9D010BD2DE9F84FDFF8DC65DFF8A45505
S315080032E07068716CDFF8AC7508401FFA80F8C6F88C
S315080032F004806878002840F0DD805FEAC870DFF84F
S31508003300BC45DFF88C9553D5D7F800A0386C796C96
S3150800331041EA004199F80000A960002844D09AF8CB
S315080033200100800640D5012028704FF48050306097
S31508003330306C40F480503064FFF798FEC0B3192013
S3150800334000F050FE4FF44040DFF874B5CBF8280083
S31508003350DBF800000090E06E40F40050E066E06E96
S3150800336040F48050E0669AF80010A8684901B83120
S3150800337001EB000AFFF78BFDAAEB00000003000B28
S31508003380FFF792FFE06E80098001E06600A9E06E13
S3150800339009880843E0660020CBF8280048F26070E8
S315080033A0E066E888206003E00022002002F0D7FBF0
S315080033B05FEA08600CD5287830B100202870002212
S315080033C0A968402002F0CBFB306C20F480503064B2
S315080033D05FEA486008D5687830B9FFF758FD0146B6
S315080033E00022892002F0BBFB5FEAC86054D5DFF8EB
S315080033F08CA4DFF8A4B49AF80400012804BF9AF84C
S31508003400061001291FD100F010FF386F40F00100A7
S31508003410386700208AF80600FFF736FB0A2000F016
S31508003420E1FD4FF6FF7070604FF000084FF4E06062
S31508003430CBF800000920B8660120B864B86F40F0E0
S315080034400800B86718E0697999F80220491C69717B
S31508003450C9B2914215D2012808BF00F0CDF8B86F5D
S3150800346020F00800B8671420B866FFF741FEB86474
S315080034704FF40070CBF80000386D40F00100386555
S315080034800AE0012808BF00F0B7F8FFF700FD01467B
S3150800349000228D2002F063FB5FEA08700AD5FFF769
S315080034A0E5FD38B12068E88001202060706C20F0C6
S315080034B0080070645FEA88600AD520203862687858
S315080034C030B9FFF7E4FC01460022882002F047FBEA
S315080034D0687820B118F4407F04BF0120A870BDE8C1
S315080034E0F18F70B582B00446FFF776F8DFF8DC0393
S315080034F0DFF89453002101601521E960092101656F
S315080035001F21416001210166DFF8BC030088FEF730
S31508003510ECFEFFF7E1FA03F0F9F800F03EF9DFF800
S315080035205C63308900F063F9708900F065F902F090
S31508003530B1F9696841F04001696002F0B1F9707843
S3150800354000F000F9B07800F00DF9DFF88403007890
S3150800355000F03AF9DFF87C0390F90000FFF77BF8F2
S31508003560307800F051F996F9030000F059F9DFF8C0
S31508003570680300F077F9BDF80000DFF86013C005AE
S315080035804CBF0020BDF800000870DFF8540300782F
S31508003590FFF724F828B10FF2783040F2B63101F07F
S315080035A0BFF9012C05D12868C00711D500F024F809
S315080035B00EE06CB92868C0070AD400F036FE286801
S315080035C040F001002860C82000F00CFD0020B07112
S315080035D0F120DFF8C842206440F2F910E063FFF7F3
S315080035E053FA2868C00704D54FF6FF70206000F02C
S315080035F06DF800F012FC73BD70B5DFF8E852DFF81D
S315080036007C422E68A079012832D002F043F948F2AC
S31508003610D00129606A68520509D548F222022A6053
S315080036206A68D205F5D529606A685207F1D4B6B238
S31508003630DFF86C222E604FF4E0611160DFF8841227
S315080036400A6A520852000A620A68520852000A6058
S315080036500A6842F002020A604A6A42F001024A62B5
S315080036600121A17102F01CF9BDE8704000F0AEBD61
S3150800367070BD70B5814CA07938B300F0D6FD02F064
S3150800368009F90546DFF86012804E01200860306DA2
S3150800369040F0010030650020A071FFF7F5F9202001
S315080036A03060306B40F002003063F06D40F0080087
S315080036B0F065284602F0F4F80A2000F093FC7749F2
S315080036C04FF6FF70086000F001F870BD4FF4E06037
S315080036D071490860704769488079704710B5674C2A
S315080036E0A07928B140F2A7410FF2242001F018F979
S315080036F02079012804BFBDE81040FFF77DBF10BD43
S315080037005E480079704780B5022801DB012002BDBA
S315080037105A4908718979884205D010B9FFF7A9FF77
S3150800372001E0FFF769FF002002BD704800688002CB
S3150800373000149A3801B211F1800FB8BF6FF07F00FC
S3150800374040B2704710B5044602F0A4F868490A6802
S31508003750002C14BF42F0120222F012020A604749F6
S315080037604C7040E038B5044602F094F8054600F07F
S3150800377097FD40B95E480168002C14BF41F08001EE
S3150800378021F0800101603D4884702846BDE832403A
S3150800379002F086B839488078704756494A780B78D7
S315080037A0554803EB022202608B78CA7803EB0222A3
S315080037B042600B794A7903EB02228260CA798979D9
S315080037C001EB0221C160704710B5044602F062F8A9
S315080037D047490A68002C14BF42F0200222F0200252
S315080037E00A603B490C70BDE8104002F059B82349FD
S315080037F00881424908607047204948814049086065
S3150800380070474048007870471F490A68002814BF67
S3150800381042F0020222F002020A6018490870704754
S3150800382038B504467F2C0AD1374800F01BF8BDF896
S315080038300000C00554BFBDF800406FF04A0402F00E
S3150800384029F8054600F02CFD30B964B204F19A0057
S3150800385080052E49000C08600848C470284602F006
S315080038601FF831BD018802237F2200A8FFF74EB852
S31508003870024890F903007047E22F002066280020CE
S3150800388040A00040BC2D0020802000403020004091
S31508003890302800201020004000E100E004A000408D
S315080038A080E100E0A820004010E000E004ED00E020
S315080038B0E32F0020CDFF070000A000406410004061
S315080038C0E410004060200040042800205C100040FE
S315080038D0E12F0020F8270020A8B80108BE2F0020F5
S315080038E0F62700201C100040281000400C1000404D
S315080038F084200040F82B00209820004094200040A7
S315080039009020004064280020ACB8010854100040FC
S315080039107068792D636F6D6D6F6E2E630000000001
S31508003920FEFEF7F7C8C80100DFF8601551200860E9
S3150800393070472DE9F041054602F0FCFEDFF8501508
S31508003940B0FBF1F64FF4F070B0FBF6F71E2D3FB260
S3150800395001DBE81B04D5A8B2BDE8F04100F042BB84
S3150800396001F098FF804602F051FFDFF82815DFF8CE
S315080039702825012048700721DFF8200500F041F8C6
S31508003980E91B09B27143C91C8908491EDFF810559D
S31508003990416000F0BDF8DFF8F4743C68386820F040
S315080039A04000386002F034FF3C602E6002F034FFBD
S315080039B002F03AFF4046BDE8F04101F071BF38B564
S315080039C0054602F0B7FEDFF8C814B0FBF1F44FF471
S315080039D0F070B0FBF4F02D1A1E2D04DA95210FF2C3
S315080039E0085000F09DFFDFF8B404DFF8AC24072187
S315080039F000F007F805FB04F1C91C8908491E416057
S31508003A0031BD01600021416081604FF00071116095
S31508003A107047DFF8802401215170D0E7DFF884046D
S31508003A20006800B970472DE9F041DFF87C54DFF8EB
S31508003A307C6400242C6034604FF4A040706041F22E
S31508003A409A084046FFF775FF6F6802F07BFE000193
S31508003A5042F21071B0FBF1F000F5C870C01B00B25D
S31508003A604FF4487190FBF1F000B20828A8BF072070
S31508003A7004DA10F1080FB8BF6FF00700306040464F
S31508003A80FFF757FF08274046FFF753FF68680419F2
S31508003A907F1EF8D102F056FE211D4001C908B0FB71
S31508003AA0F1F080B27060BDE8F081DFF8F8030068D5
S31508003AB000B9704738B5DFF8F85301206FF00F04E6
S31508003AC0A8602C608020FFF734FFE868FF2802D83A
S31508003AD0641C102CF5DB31BD70B5DFF8D80301681E
S31508003AE041F0010101600121416001F0D3FE044665
S31508003AF0DFF8AC5300F00CF85120DFF8901308609B
S31508003B002E6002F089FE2046BDE8704001F0C8BE6E
S31508003B102E68286840084000286002F07DBE002014
S31508003B20704710B5DFF87C03DFF8684300680128A2
S31508003B30BCBF032000F01DF8012020700020207172
S31508003B40DFF87403816901F00301032907D1002016
S31508003B50A070042000F07DF80120207110BD0F210F
S31508003B600160022181610120E0706420BDE81040F7
S31508003B704FE72DE9F041CB4AC64D146840F2DC51B7
S31508003B80012C8846CC4ECD4F15DA0221B98031601A
S31508003B90B16901F00301032959D0002C03D5B16995
S31508003BA041F00201B161FFF7BAFF5FEA00081AD1D6
S31508003BB0002C4CD549E0B8884FF6FF74A0421DD1B9
S31508003BC0BF48018802237F22381DFEF79FFEB8886A
S31508003BD0A04204BF0220B880B069800703D4B06948
S31508003BE040F00200B0610120A870B88830600FFA72
S31508003BF088F0FFF70EFF4046BDE8F081B3699B07E2
S31508003C00EDD5AB780BB10846F6E7B168B36811F0A5
S31508003C10010103D10F2809D2401C06E09B0705D5F0
S31508003C203B781BB1032801DB2018B880B8883970A7
S31508003C300228BCBF0220B8803068B9888842D2D131
S31508003C40B06900F00300032801D0FFF745FF002004
S31508003C50D2E72DE9F047804600248C4D904E01F0BE
S31508003C6019FE814602F0D2FD4046FFF782FF08B9E9
S31508003C7001240AE000F0CAF8D5F800A000F02EF9F1
S31508003C80C5F800A0376002F0C7FD02F0CDFD484632
S31508003C9001F006FE002CE2D0BDE8F0870220D8E746
S31508003CA010B57E487B4C002141608160016821F097
S31508003CB002010160002060704FF0007076490860CC
S31508003CC0A07838B10020A0700620FFF728FF00F082
S31508003CD098F81CDBE078012814D17A4801210160A4
S31508003CE079490968C90748BF03200FD40221E17042
S31508003CF0016C41F0010101640420744908607449AB
S31508003D00086010BDE078042801D10520E07010BDD8
S31508003D1080B56048407800281CBFBDE80140FFF721
S31508003D20BFBFFFF7AEFA01BD2DE9F84300F069F809
S31508003D3003DABDE8F24304208BE7564C207900B33A
S31508003D405DE001F0A7FD054602F060FDE078032876
S31508003D5012D000F05AF8DFF83481D8F80090D8F875
S31508003D60000020F04000C8F8000002F051FDC8F835
S31508003D700090376002F050FD02F056FD284601F02B
S31508003D808FFDE0780328DCD14C4E4B4DB088286077
S31508003D904FF6FF777088B8420CD14E480188022347
S31508003DA07F22B01CFEF7B2FD7088B84202D16420AB
S31508003DB0708001E07088C8B102F0C4FC7188344A8A
S31508003DC0B0FBF2F048432F303021B0FBF1F0424906
S31508003DD04A6D42F001024A650A68AB68DB07FBD503
S31508003DE00B689B1A1B031B0B8342F6D3FFF774FE63
S31508003DF00420E0704FF4C870BDE8F24309E6BDE858
S31508003E00F1832848006801287047254E37683068CE
S31508003E1040084000306002F0FFBC2DE9F8431D4C15
S31508003E20207800282DD0207900282AD1FFF7E9FF2D
S31508003E301FDA40F2EF310FF2B00000F071FD18E022
S31508003E4001F028FD804602F0E1FCE07805280BD059
S31508003E50FFF7DBFF0D4DD5F8009000F03FF8C5F8E9
S31508003E600090376002F0D8FC02F0DEFC404601F014
S31508003E7017FDE0780528E3D10020A0700520FFF79C
S31508003E80E8FE00202070BDE8F183000000800040B5
S31508003E9090D00300D22F002004ED00E010E000E0EF
S31508003EA094ED00E068B50108104000400C000040A1
S31508003EB0084000401C400040044000404A280020BA
S31508003EC0A6B8010818A000400C40004080E200E0B7
S31508003ED000E100E0AAB8010838200040286820F070
S31508003EE04000286002F094BC636C6F636B732E63AA
S31508003EF00000000010B5504C002000F0DEFC40F633
S31508003F008C2188422068B4BF40F0080020F00800E1
S31508003F10206010BD10B504464848018882B000F0FC
S31508003F205CF89DF800109DF80100FF2902BFFF28E4
S31508003F300420002104B1801C414A1368C0B2082835
S31508003F40A8BF072023F4607343EAC010106008294D
S31508003F501068A8BF0721C00841EAC00010603948A8
S31508003F60047013BD00B53848018883B000F035F8F1
S31508003F70BDF800004FF6FF7188420EBF4FF4E160AE
S31508003F800A2190FBF1F0ADF800002E48007808B33E
S31508003F902A48018802237F2201A8FEF7B7FC9DF86C
S31508003FA00500BDF80030FF2808BF0420811CC9B2EF
S31508003FB00829A8BF0721C1F12F0202EBD272C0F16E
S31508003FC02F00521000FB0320C1F12F01B0FBF1F0C6
S31508003FD0ADF80000BDF800000EBD02237F2200A840
S31508003FE0FEF794BC70B5194C2568064602F0AAFB84
S31508003FF01749B0FBF1F070432F303021B0FBF1F0D8
S31508004000032809D3616D41F0010161652168491BE7
S315080040100903090B8142F9D370BD10B5040004D118
S3150800402010BD4FF47A70FFF7DDFF2046441E80B2BC
S315080040300028F6D110BD704700BC00409CB80108A6
S3150800404018000040C12F00209EB801083820004003
S3150800405090D0030038B50120FFF78BFD0020FFF74D
S3150800406059FFDFF87442206840F00800206002F02B
S3150800407070FBFFF73FFF00F057F88D78DFF85C32EA
S31508004080DD600D8905604D89456000F055F82068AA
S3150800409020F010002060FEF7AEF802F0CFFB02F029
S315080040A0CFFBFFF7FBFD02F052FBBDE8314002F003
S315080040B06EBB10B502F0C0FBDFF82412DFF824024D
S315080040C00A79C2604B79DFF82022D3608C79DFF851
S315080040D00C32DC608C8A0460CC8A4460088B1060E1
S315080040E0488B5060888B1860C88B586010BD10B517
S315080040F0FFF717FDFFF7FEFE00F016F88C78774BF2
S31508004100DC600C8904604C89446000F015F872483C
S31508004110016821F010010160FEF76DF8FFF704FE53
S31508004120BDE8104002F089BB6D496E480A78C26046
S315080041304B786D4AD360704788891060C88950608B
S31508004140088A1860488A586040E0F0B50B68674CE2
S315080041500F252468960005FA06F6344215D000267F
S3150800416006EB820724FA07F7FF070BD5B70005FA0F
S3150800417007FC23EA0C0330F812C005FA07F707EA2A
S315080041800C073B43761C042EEADB0B60F0BDF0B54A
S315080041900B68564CFF252468D600B5402C4213D030
S315080041A00025012605EBC20724FA07F7FF0708D5FD
S315080041B006FA05F7BB43175C06FA05FC0CEA07077F
S315080041C03B436D1C082DEDDB0B60F0BD10B5474871
S315080041D00068002825D000F054F8201DFFF7D7FF07
S315080041E001224349201DFFF7D2FF02224149201D23
S315080041F0FFF7CDFF00223B4900F014F801223E49A3
S3150800420000F010F80222384900F00CF803223B4966
S3150800421000F008F80422314900F004F804F114000B
S3150800422036E010BD04F114008FE710B52F4800687A
S31508004230002825D000F025F82046FFF7A8FF012220
S315080042402B492046FFF7A3FF02222A492046FFF7FB
S315080042509EFF0022234900F018F80122264900F0A3
S3150800426014F80222204900F010F80322234900F02E
S315080042700CF80422194900F008F804F1080007E0D0
S3150800428010BD174C1E490022704704F108005CE770
S31508004290BDE8104005221B4957E70320FEF7E3BB9C
S315080042A019480078704718488078704718484FF4BE
S315080042B00041C160082101601349887850B113484C
S315080042C000680B78800900F0010083421CBF087063
S315080042D0FEF763BE7047000000BC004000B800400F
S315080042E08427002000B0004000B40040402A002087
S315080042F00CB400400CB8004004B0004004B40040C0
S315080043000CB0004004B80040B42F002008B00040AC
S3150800431014A800402A490A68920992010A600A68A4
S31508004320104308604FF400412648016000210160EF
S315080043306420FFF757BE2DE9F047234D204FD5F8E7
S315080043400090224C8046286840F40040286038686F
S3150800435020F480503860207868B162781C48A178CB
S3150800436000EB820200EB880012F82A2C10F82A0CBF
S31508004370891A461802E0012020262070B0B2FFF7FD
S31508004380C9FF0FF2500A02E0B0B2FFF7C3FF386B5D
S31508004390042805D0386B400754BF761E761CF3E711
S315080043A0F86A38B184F80180A6701FFA89F0286087
S315080043B0BDE8F08740F22111504600F0B1FAE6E771
S315080043C0D0100040181000401C100040DE2F0020BE
S315080043D090270008616E616C6F6775652D76636F4F
S315080043E02E63000081014FF4FE5289B20C20FDF7BE
S315080043F038BF2DE9F84F8F4CA56820680127ADB264
S3150800440000264FF00A08B9461FFA80FA00F04FFA5C
S31508004410B0202063DFF820B208E016F1190FB8BF04
S315080044204FF00A08464436B27019A060DBF800005F
S31508004430000702D559EA070028D00120FFF7D2FD68
S31508004440B9F1000F11D0AAF10300874202DAF81C6D
S3150800445087B213E00AF50040206057460621092076
S3150800446000F0CEF94FF000090BE0DBF8000000077A
S3150800447007D5042FA6BFF81E87B2002707F5004008
S3150800448020601A2EC9DB6FF00908CBE7A560C4F8CF
S3150800449000A00820CBF800006848006880B2BDE894
S315080044A0F28F80B5624B66491B784FF0FF326BB1CD
S315080044B0002819BF4A606348486041F21110086035
S315080044C0614841880088BDE8044092E7002819BF82
S315080044D04A600A604860086000F0E9F9BDE80440EF
S315080044E00621092000F0DDB938B50120FFF7D9FF0C
S315080044F004460020FFF7D5FF05460120FFF7D1FF48
S315080045004042001B00EB450000B232BD2DE9FE4FCC
S315080045104E4CDFF83C81A06A454EADF8020025688E
S31508004520D8F800B0307860B14FF6FF720021082045
S31508004530FDF790FEADF80000C022C0210820FDF767
S3150800454090FE4448DFF81091007818B148F2607080
S31508004550C9F80000708840F4404040F04C00C9F8A3
S315080045603C000220A0620120206040F24C40FFF788
S3150800457039FD0120C8F80C00C8F800000020324FA9
S31508004580388040207880307800B12020FFF72AFF55
S31508004590FFF7AAFF8246402038807F207880FFF701
S315080045A021FFFFF7A1FF0290504601F048FDFE21CA
S315080045B001FB00F70298AAEB00000190307860B181
S315080045C0029801F03CFD8246019801F038FD80B260
S315080045D007EB8A11B1FBF0F005E0019801F02FFD19
S315080045E080B2B7FBF0F080B2401CC7031FFA8BF00D
S315080045F0C8F80000ADB20020C8F80C000220206000
S315080046002560BDF80200A0620020C9F83C00307899
S3150800461030B1BDF800104FF6FF720820FDF721FEF5
S3150800462040F24C40FFF7DEFC380CBDE8FE8F000078
S3150800463060280020C010004018A00040007000400C
S3150800464038100040EEEEFFFFA02F0020602000404B
S3150800465028100040F7270020D010004041003F22D4
S3150800466089B201E001463F220220FDF7FABD2DE995
S31508004670F04F564C564D95B0E06CADF810004FF61D
S31508004680FF782068ADF80E004246E86AADF80C00DF
S3150800469000210120FDF7DEFDADF80A0042460021A3
S315080046A00B20FDF7D7FDADF808004FF40040206059
S315080046B000202861686148F2020000F08BF84CF689
S315080046C08C30E0644FF4805248F2F000E8621146FC
S315080046D00120FDF7C6FD424600210B20FDF7C1FD6E
S315080046E00621062000F0DDF8019000F085F800901C
S315080046F04CF69C30E0640020FFF7B0FF0621084620
S3150800470000F07EF800260DF1140BB0B2FFF7A6FFF5
S315080047100621062000F074F800F08DF82BF8160034
S31508004720761C202EF1DB00F086F81020FFF796FFA6
S3150800473000F062F80099019A401ABBF82010891A0D
S31508004740404301FB01094FF0100A112700F04EF80B
S3150800475000F052F800F043F806DB81461FFA87FAA4
S31508004760781C07B2202FF1DBBAF1100F0ED10F27F4
S3150800477000F03CF800F040F800F031F806DB81461E
S315080047801FFA87FA781E07B2002FF1D5BDF8100078
S31508004790E0644246BDF80E002060BDF80C00E862F1
S315080047A00120BDF80A10FDF75CFDBDF80810424669
S315080047B00B20FDF756FD01202861002000F00AF8BD
S315080047C04FEA4A00C0B215B0BDE8F08FC0100040ED
S315080047D018100040286040F24C40FFF703BC0099CF
S315080047E0401A404306FB0600484570473BF8170049
S315080047F00199461AB8B231E70621072000F051B8E8
S3150800480070B505460E4602F001F83D4C206C20F0C6
S315080048100800206402F008F801F03CF8310341EA88
S31508004820C511384A41F00101116008212160BDE82F
S31508004830704001F035B82DE9F041334C334D304E18
S3150800484025E001F0E3FF324904200860306C40F0AF
S31508004850080030642F68286840084000286001F086
S31508004860DBFFD4F80080206820F04000206001F0CB
S31508004870CFFFC4F800802F6001F0CEFF306C2549C9
S3150800488020F0080030640420086001F0CDFF30688D
S315080048900007D6D5082030601F48006880B2BDE8FA
S315080048A0F08180B5FFF7ACFFBDE80140C3E71548C6
S315080048B001684908490001607047F8B50746FFF7DF
S315080048C051FB044639460320FFF7EBFF05463946F8
S315080048D00120FFF7E6FF064639460020FFF7E1FF0D
S315080048E008490A68520852000A60401B0004711BF6
S315080048F0B0FBF1F060434000000CF2BD0000000080
S3150800490018A00040047000400080004094ED00E0CC
S3150800491000E100E080E200E00070004042DE7047FF
S3150800492038B504460D4601F01DFF00F0B3FF2946D1
S31508004930204602F022F82B4622460FF2CC1101201F
S3150800494002F038F829462046BDE83440E6E72DE966
S31508004950F84F6548654D01682E1D4FF4206A71654C
S31508004960016AB16562490968F165416A3166816A19
S315080049707166C16AB166016BF166806B306796F83D
S31508004980340040074CBFF76BB76BBB4602F0D3F851
S315080049900022584CDFF86081DFF86091F2648742A4
S315080049A0014624BFA4F12003BB4231651DD357F845
S315080049B0180F306457F8040F7064706DC005C00D89
S315080049C0062815D1306C484512D3404510D20088C8
S315080049D04DF6426290420BD105F18C006A6842603E
S315080049E040F2017A7268826002E032647264834639
S315080049F04348814202D2014600E0091DA14203D282
S31508004A000B68B3F1CD3FF8D0601AB064182105F1F0
S31508004A10780002F0BBF8002003E0C0B205EB800284
S31508004A209167A34523D254F8041D4945F9D3414556
S31508004A30F7D2CA07F5D5002205EB82039B6F8B4296
S31508004A4003D0521CD2B2062AF6DB062AE9D1002880
S31508004A5014BF401E0520E0E7716F002205EB8203B4
S31508004A60521CDF6F9F67052AF8DBC5F88C100146D4
S31508004A70481EC9B20029EFD1706DC005C00D0228C5
S31508004A800AD0032815D0042816D0052817D00628DA
S31508004A9018D00C281CD01EE01A480168890748BFA0
S31508004AA040F6021A1CD40068C00719D540F2025A0B
S31508004AB016E040F6012A13E040F6022A10E040F616
S31508004AC0032A0DE0BAF5206F0AD140F6042A07E05A
S31508004AD040F6052A04E018B1242838BF40F6072A0C
S31508004AE05046BDE8F28F000004ED00E0000000200B
S31508004AF000E300E00027002034B0010890210008F8
S31508004B00980000201CA000400D0A5B4153534552F3
S31508004B10543A25703A25645D0D0A0000814233D265
S31508004B2010185118401E491E10E011F8013900F8F6
S31508004B300139121F11F8013900F8013911F8013944
S31508004B4000F8013911F8013900F8013992B2042A3E
S31508004B50EBDA92B2002A1EBF11F8013900F80139C2
S31508004B60521EF6D1704711F8013B00F8013B121F9F
S31508004B7011F8013B00F8013B11F8013B00F8013B35
S31508004B8011F8013B00F8013B92B2042AEBDA92B223
S31508004B90002A1EBF11F8013B00F8013B521EF6D150
S31508004BA07047130003D00A46194601F0F3BF704751
S31508004BB010B500E0521E92B222B100F012F8F9D0F8
S31508004BC0181B10BD002010BD10B500E0521E92B291
S31508004BD02AB100F006F8F9D0181B40B210BD002023
S31508004BE010BD10F8013B11F8014BA34270470000B5
S31508004BF02DE9F94788B01B22FF2101A8FFF7D1FF4D
S31508004C00DFF8D4906622FF214846FFF7CAFF36250B
S31508004C104FF01B0A36210FF2E40001F0EEFF0FF207
S31508004C20CC0800272D48385C411C01EBD1714C108B
S31508004C302B497E5CFF2803D170214046FFF770FEA2
S31508004C407F2E03DB71214046FFF76AFE2548385C54
S31508004C5000B11934601C00FB06F4234830F817101D
S31508004C600FF2B4003346A2B201F0C7FF6519012E50
S31508004C701CBF29F817A0B2447F1C1B2FD2DB40F2B9
S31508004C801C44A54234BF13A30FF2EC031B2000906B
S31508004C902246A9B20FF2A80001F0AFFF40F21D406C
S31508004CA085420ED301F05EFD00F0F4FD23462A4648
S31508004CB00FF2D001012001F07DFE9D214046FFF74D
S31508004CC02FFE9DF8200001A900F036F90AB0BDE8CC
S31508004CD0F08700006F6B0000842A0020F8B50108F1
S31508004CE014B60108DCB50108A4B5010873696D2D71
S31508004CF0656570726F6D2E6300000000546F6B65FA
S31508004D006E206F766572686561643A20256420773F
S31508004D106F7264730A00000043726561746F723AB9
S31508004D202030782532582C20576F7264733A202524
S31508004D30642C20436F756E743A2025640A000000BF
S31508004D4053696D454520646174613A20256420776E
S31508004D506F726473206F66202564206D6178202841
S31508004D602570292C20746F6B656E436F756E743AC7
S31508004D702025640A00000000544F4F204C4152473A
S31508004D80450000000D0A4552524F523A2053696DAC
S31508004D904545206461746120746F6F206C61726789
S31508004DA0652E2020436F6D70696C696E6720776980
S31508004DB0746820256420776F72647320636F6E733E
S31508004DC0756D65642E20204D617820616C6C6F7757
S31508004DD065642069732025642E0D0A0010B5DFF876
S31508004DE0444ADFF8443A2488001B03EB40000023BA
S31508004DF004E030F8134021F813405B1C9342F8DBBB
S31508004E00002010BD2DE9F04182B004460D46164635
S31508004E100027DFF8148A01E0B81CC7B2B74217DAD0
S31508004E207819795D4078DFF8FC391B8801EB00209A
S31508004E30ADF80000012207EBD77004EB6000C01A3A
S31508004E4000F06EFB0028E7D001F0F2FE002000E03B
S31508004E500120BDE8F681F8B504460E46154600273A
S31508004E600DE000F019F8BDF8000004EB4701000A50
S31508004E704870761CBDF8000004F817007F1CB7EBD5
S31508004E80550FEEDBE80706D500F006F8BDF800007A
S31508004E90291901F8010CF1BD012200A9B0B29DE75C
S31508004EA0DFF88029DFF880191288801A01EB4001A3
S31508004EB0022001F01EBFDFF87419DFF87429415C7F
S31508004EC0825CDFF87039C05C10B102F5997292B253
S31508004ED041EAC21080B2704710B5DFF85C39DFF8D6
S31508004EE04C4903EB4002005D012801D1104610BD74
S31508004EF01088081803EB400010BD38B50C46DFF8DB
S31508004F003C190D782A462146FFF768FF20880028B5
S31508004F101CBF4FF6FF7188420AD0012000E0401CF2
S31508004F20C0B2A84206D234F8101022889142F6D0B0
S31508004F30002032BD012032BD2DE9F24F0446DFF8CC
S31508004F4000690020307070809CB0DFF8F80800888F
S31508004F50ADF8020007A9FFF7D0FF8346012070705D
S31508004F6009A9DFF8E4080588DFF8E008B0F800804A
S31508004F70DFF8B008BDF802A007883846FFF7BDFF7E
S31508004F80B8B1BBF1000F3CD0BDF81C10BDF8240029
S31508004F904FF6FE72914202D1012804D10CE0012994
S31508004FA008BF90422DD00846BDF82410884228D262
S31508004FB002E0BBF1000F23D0002070700297504624
S31508004FC00695CDF810800122DFF8701891F8008058
S31508004FD04044ADF8060000A9BDF80600FFF7FEFE3E
S31508004FE0DFF86C08008805904FF6FF79BDF80000D9
S31508004FF0000B404518BF0F2800D10CB3002516E05A
S31508005000012470780128D9D13846CDF808A0CDF802
S3150800501018800495D7E7059805FB00F4E01900F019
S3150800502025FCBDF80200201800F020FC6D1C454543
S31508005030F1DB012030704D2001F0FAFD0025FCE07F
S31508005040BDF80650012201A92846FFF7C7FEBDF89C
S315080050500400C043C0B2ADF804006F1CDFF8F407C3
S315080050600588BDF80400A84218BF01244FF0000ABD
S3150800507020E0401CC1B2A94218D2C0B2DFF8D81746
S31508005080BDF80E20834631F81B109142F1D1FFF787
S3150800509012FF4FF680710840BDF80C104FF680726B
S315080050A01140884204BF1C980BF800A00AF10100C1
S315080050B01FFA80FABDF80400824507DA022203A91E
S315080050C0B8B2FFF78BFEBF1C0020D3E7002001E033
S315080050D0401C80B2A84217DA1C99415C8142F7D07D
S315080050E0012411E02AF81070BDF8060000EB430011
S315080050F0401C00F0D2FABDF80200C0F3C710401CED
S3150800510000EBD07007EB60070498DFF82CA7BFB256
S31508005110874211DA012200A93846FFF75FFEBDF87B
S315080051200000484508D0030A00F07F01BDF80400D6
S315080051307F1C834202DB012400252DE0002001E0CC
S31508005140401C80B2A842CFDA1C9A825C9A42F7D1F8
S31508005150C0B2FF28C8D0DFF8D426825C7F290CBFEE
S315080051604FF0000C8C46944509DADFF8C8E6BDF81E
S3150800517000C010F80EE0CCF3C01CF44501D00124A1
S31508005180B2E7012AAED07F293AF8100008BF0021FD
S315080051900818A7E76D1CADB2DFF8C006008885427F
S315080051A004DA3AF815004845F4D1012477800498C2
S315080051B0BDB285420ADA012200A92846FFF70EFE8B
S315080051C0BDF800006F1C4845F1D034E7002CFCD12F
S315080051D0029801220BA980B2FFF700FEBDF82C0049
S315080051E048450DD105E0401C80B2202813DB203449
S315080051F0A4B20699029A891A8C4205DB01203070FE
S3150800520000201DB0BDE8F08FA51820220BA9A8B272
S31508005210FFF7E4FD00200BA931F810104945E2D04C
S31508005220A8B2FFF73DFE203CA4B2E0E70298059934
S3150800523005FB010000F01AFB6D1C4545F6DB012055
S315080052403070494600F043F818B100F02DF90028EF
S31508005250D6D10120D5E72DE9F84504460F4616466E
S31508005260984631463846FFF737FEDFF8E815B0F8B6
S3150800527000A00988DFF8B8558F420AD2DFF8AC05D6
S31508005280385C7F2E08BF0026864202DA785D8045A4
S3150800529003D040F2864100F0FCF9DFF89805385C47
S315080052A068B15146384600F029FA795D012908BFE8
S315080052B020700AD0022914BF2060208005E04246EB
S315080052C051462046BDE8F845C5E5BDE8F1852DE916
S315080052D0F34FDFF85005DFF864150488DFF860053A
S315080052E00978407883B000281ABFDFF85805008887
S315080052F020460D18DFF85C050088ADF80800ADB249
S31508005300C043C0B200EB013000F55060ADF80200B2
S315080053102B1BDFF8140500F0C6F96E1C0028B6B280
S3150800532038D10025DFF8307514E0E8B2FFF7C3FD81
S31508005330ADF80400331B37F81500ADF80600022255
S31508005340DFF8E40400F0ABF8002823D1B61C6D1C86
S31508005350B6B2ADB2BDF808008542E6DB002501E02D
S315080053606D1CADB2BDF80800854280F293804FF0FF
S31508005370000A1CE001220DF102011FFA89F0FFF76D
S315080053802DFDBB19DFF8A0041B1B09F1010900F06C
S315080053908AF9002878D17F1CFFB2B7EB1B6FE9DBCF
S315080053A0DFF8BC04285C8619B6B20AF1010ADFF8F0
S315080053B07C0415F800B05FFA8AFADA45D0D251466D
S315080053C0E8B2FFF789FD8046DFF86804B8F8009070
S315080053D02F5CF80140EA0520ADF80000BBF1010F8B
S315080053E0BDF800000CBF40F07F004AEA0000ADF8A7
S315080053F00000311BDFF8300400EB4100711C89B254
S3150800540001914FF6FF7189451EBFBDF80010BDF822
S315080054101020914218D19DF80C100029C5D0012200
S3150800542000A901F09FFC019E70BBDFF80404A8F8F0
S3150800543000602A5CDFF82C0450F82510B0B2FFF79C
S31508005440E1FC0028ACD122E0DFF8E413695C491CD2
S3150800545001EBD1714FEAC15B012200A901F082FC80
S31508005460019E88B9002FA8F8006095D04946E8B291
S3150800547000F044F90190331BDFF8AC034FEA1B62D6
S3150800548000F00DF800288BD001F0D2FB002005B003
S31508005490BDE8F08FDFF8A80346800120F7E701A9E9
S315080054A000EB430001F05EBC2DE9F041DFF8940300
S315080054B0DFF88C530688DFF86C03048868780028C0
S315080054C082B012BF204630462646012200A9FFF7C1
S315080054D085FCBDF80000DFF8508301280CBF4FF6A5
S315080054E0FE70401EADF80000DFF850030778384616
S315080054F0471E58B1BFB2B819001B012200F010F8B8
S315080055000028F4D001F094FB002007E06978481ED3
S315080055108041C00F6870002028700120BDE8F68120
S3150800552000A908EB400001F01DBC2DE9FE4F0D4611
S31508005530174604461E464FF000094FF00108394643
S31508005540FFF7CAFCC349098801908C420AD2B748BA
S31508005550205C7F2F08BF0027874203DAB448205C07
S31508005560864203D040F2A95100F093F8B44F7878F8
S3150800557020B1B548B0F800A0AA4803E0B348B0F88F
S3150800558000A0B0483978008849B97988081AB64918
S3150800559009888842B4BF4320442001F049FB01989A
S315080055A00188A448205CF8B1204600F0A7F8012E2F
S315080055B008BF297803D0022E0CBF298829688142A2
S315080055C065D001980088401E00F067F8A448265C5C
S315080055D07888AAF10101891B814201DB002835D1AF
S315080055E0387858BB452044E00291CB4620E0029823
S315080055F00BEBDB7300EB630000F03BF90BEB0500EC
S315080056001BF80510407801EB0020711E8B4580B20F
S3150800561005D1BDF80010C9B2C0B2ADF80010BDF88A
S31508005620001088420BF1020018BFC8465FFA80FBDB
S31508005630B345DCDBB8F1000FC3D028E0BDF8021093
S315080056400020FFF744FE10B34FF001097888784927
S31508005650401C788080B2625C2946FFF7D3FBB0B164
S31508005660704C7B88248870485B1E1B1B00F01BF857
S3150800567010B101F0DDFA0AE0B9F1000F02D0FFF728
S3150800568013FF20B101997888088030187880BDE822
S31508005690F78F0FF2E810FFF743B901220DF1020167
S315080056A080B2FFF79BBB01220DF1020100EB43001C
S315080056B001F058BB70B582B00446002519260122B0
S315080056C000A9A0B2FFF78AFBBDF80000641C48B128
S315080056D04FF47F41401A02D0FF3806D007E0681C15
S315080056E040B276BDAD1C761EE9D168B276BDBDF86E
S315080056F00000C0B200B96D1CE843F1E738B50C46A6
S31508005700002100914A49455C2A46214600A8FFF730
S31508005710A2FB681C00EBD07004EB600080B2FFF7B8
S31508005720C9FF002848BFC043009940B2401832BD9F
S31508005730F0B54849098804463F4883B0254630F8FD
S3150800574015608C4202D23B48285C18B940F2A96120
S31508005750FFF79FFF36482D5C681C00EBD07006EB00
S315080057606007B8B2FFF7A6FF322814D2C107BFB246
S3150800577007EB60002B4F2C4B3F884CBF00214FF4A2
S315080057807F41ADF80410C01B012201A903EB4000BC
S3150800579001F0E8FA60B131462046FFF7AFFF009006
S315080057A02B46401C00907F2200A92046FFF7BDFE2D
S315080057B0F7BDF8B5224C20780027002830D11948C3
S315080057C00588607800281ABF1E4806882E461B489A
S315080057D007783846471E02281BDBFFB2B81900F0C7
S315080057E048F8BDF800000028F3D01948008807FBE0
S315080057F0006000F03BF80020ADF80000BB190A482D
S315080058005B1B012200A9FFF74BFE48B101F010FA15
S3150800581006E03046FFF744FBFFB20FB901202070BF
S315080058203846F2BD78B5010800E0020814B601084A
S31508005830F8B50108DCB50108842A002074B501080A
S315080058409C2F00207CB501087AB501087EB50108B1
S3150800585076B5010882B50108A4B5010884B5010822
S3150800586088B5010828B8010880B5010880B2FFF795
S3150800587017BB012200A980B2FFF7B0BA73696D2D74
S31508005880656570726F6D2D696E7465726E616C2ECA
S3150800589063000000EFF31180602181F311887047DF
S315080058A080F31188704770470120704700207047C1
S315080058B000207047002070470020704770477047E7
S315080058C070470000F8B50D4C2768060014D0FFF79E
S315080058D0E1FF0B4D21682A7821F8126037F8021B80
S315080058E0B142FBD1FFF7DCFFB81E2168401AC0059C
S315080058F02978000E884200D1FF20F2BD1C2700201F
S315080059002027002010B57348734C0068206060603B
S3150800591048220021FFF745F9704821680078087089
S31508005920002021680873216848730B202168887352
S3150800593003202168C8734FF6FE71206801824FF66E
S31508005940FF71418200F094FB2168087600F090FB15
S315080059502168487600F08CFB2168887660482168C3
S315080059600078C8765F492068096881625E490978C7
S3150800597080F82C105D4821680068086310BD10B5D2
S31508005980FCF762FE544C6168897B884203D008465E
S31508005990FCF752FE50B9FCF75AFE0146606890F9CA
S315080059A00F00814204D0FCF756FE08B1012010BD55
S315080059B06068008AFDF71BFF6068408AFDF71CFFD8
S315080059C06068007B012818BF0020FDF7FDFE002057
S315080059D010BD10B5464C0020207001F014FC20B90B
S315080059E02046BDE8104001F041BC01F035FE08B183
S315080059F001F063FE63E080B5002000F015F828B1D9
S31508005A00002000F005F808B1002002BDFF2002BD05
S31508005A1031480068407B02281CBF1128432801D161
S31508005A2001207047002070472B480068007B01283A
S31508005A3018BF022804D003281CBF0628072801D14E
S31508005A4001207047002070470020704700207047EB
S31508005A507047704700207047012070477047002044
S31508005A60704700207047704770470020704780B520
S31508005A700020FFF7CDFF20B10020FFF7D5FF00B1CA
S31508005A80012002BD80B50020FFF7C2FF30B11248E1
S31508005A900068007B032801DA002002BDFF2002BD52
S31508005AA010B5040004D0E5210FF26800FEF738FFB0
S31508005AB008480068482101FB040007494860BDE81A
S31508005AC010405CE704484068008A7047024840680E
S31508005AD0408A70473C270020C42B002075270020E9
S31508005AE07627002044270020482700204C2700203E
S31508005AF0B42B00207047002070470020704701F043
S31508005B0038BE7047704701F081B802F03BB901F022
S31508005B1088B80000656D6265722D6D756C74692DA7
S31508005B206E6574776F726B2D737475622E630000E1
S31508005B3038B504460D46012002F04EFA5D48002DA0
S31508005B4012BF00210178491C01705B4844705B480C
S31508005B50FDF7EEFABDE83240002002F03DBA10B576
S31508005B60002814463FD0402823D0882818BF892803
S31508005B7040D08D282FD08F2846D151480078042848
S31508005B800DD144B14F490220087040F60620BDE801
S31508005B90104002F029BAFDF7A1FD312030E00120BE
S31508005BA001F02EF8FDF79AFD002C0CBF31200020DD
S31508005BB026E04048444900780978884204D2BDE87E
S31508005BC0104000210120B3E7002001F019F8FDF785
S31508005BD085FD402014E0002001F012F80021202065
S31508005BE0FFF795FF0BE0012001F00AF8FDF776FDB7
S31508005BF0002005E0002001F003F8FDF76FFD8D2079
S31508005C00BDE8104001F07ABEBDE81040C9213CE06D
S31508005C102C480078022800D0704780B52B480078B9
S31508005C20042807D00C280ED129480078022818BF66
S31508005C307C2808D102F0F3F9FDF750FDBDE80240D3
S31508005C40002001F05BBE01BD38B50024FFF722FE37
S31508005C5005461C48007810B9FDF785F9044628461C
S31508005C60FFF71EFE002C1CBFBDE8314000F0DEBF6A
S31508005C7031BD80B5FFF7E8FFBDE804404FF4A051F9
S31508005C80144801F0FEBA40F205110FF25000FEF773
S31508005C9047BE38B5104C2068216C01EA0005ADB244
S31508005CA0680705D5206C20F00400206401F088F907
S31508005CB0256031BDEB2F002030280020D42D002090
S31508005CC06B280020C82D002084280020CE2F002015
S31508005CD0CF2F0020682F002008A000406D61632D9B
S31508005CE0656D3235302E630070B504460D4616468E
S31508005CF0FDF750FD38B16078002E14BF40F0200043
S31508005D0000F0DF0060702946204602F092FAFF286C
S31508005D1021D0934C0146201D02F0A4FC914D288801
S31508005D202188401C288080B281420AD26888401C9B
S31508005D306880201D02F0ABFC02F0F8F92888401EA6
S31508005D402880208829888842F3D3BDE87040864891
S31508005D50007801F079BB70BD2DE9F04FA5B08246F9
S31508005D600027FFF797FD7F4C2188491E2180FFF702
S31508005D7097FD504602F066F9082390F800804078AF
S31508005D80DFF8E891029000975146D9F800001AF812
S31508005D900000A0F10802D2B203A802F066FA03AE28
S31508005DA07078FFF760FE7248007808B360680028CC
S31508005DB01DD0F078FDF78AF94146FDF78EF90746BA
S31508005DC096F9020000F166060020009008F101032A
S31508005DD0DBB20022514605A802F047FAFFF73EFE5D
S31508005DE0636872B2394605A89847FFF73DFE95E005
S31508005DF0029800F00700022827D0FF208DF804003B
S31508005E00504602F01FF900F1010B584602F0F0FC6B
S31508005E100446A8EB0400801E45B2002D15D401A93E
S31508005E20584602F097FE002879D1029800F007003C
S31508005E3001280BD19DF8040004EB0B0104F055F979
S31508005E4020B99DF8040002F071F968E09DF8040095
S31508005E50D9F80010475C4749096800F801A0D9F845
S31508005E6000001AF8000000F120019DF80400C9B2EC
S31508005E7002F0EEF89DF8040002F084FC00F00C0035
S31508005E8004281CBF6519002468B280B20090631C00
S31508005E909DF804009BB25246394602F0B2FBE91956
S31508005EA09DF80400C9B202F082FA3349707809787D
S31508005EB0884204D3BD210FF2C800FEF731FD9DF8D4
S31508005EC0040002F05AFC71788004800C40EA8131A3
S31508005ED09DF8040089B202F052FCF078FDF7F6F856
S31508005EE04146FDF7FAF802469DF80400032102F040
S31508005EF023FCB07800F166029DF80400D2B20421B2
S31508005F0002F01AFC9DF80C209DF80400052102F009
S31508005F1013FC9DF804A0504601F04CFD012750469D
S31508005F2002F004F9FFF7A0FD384625B0BDE8F08F6A
S31508005F3010B50C4C618829B1C9B21D20FFF7E7FDE1
S31508005F40002060800D4802F0A2FBFF2803D0FFF76F
S31508005F5003FF0028F6D010BD084802F0BFBB0000BA
S31508005F607C280020F42E0020CC2F002008270020B3
S31508005F70BD2D002010270020402700208028002063
S31508005F806D61632D726563656976652E6300000031
S31508005F9038B504461B4D214600F03DF8E860211D42
S31508005FA000F039F8A86004F1080100F034F86860D8
S31508005FB004F10C0100F02FF8286031BD7047F8B5E0
S31508005FC00446114D114E80202860062030600720B7
S31508005FD0286030688007FCD5002704EB870100F0AD
S31508005FE01AF87F1C042FA862F7D330684007FCD53F
S31508005FF000262A6B04EB860100F00AF8761C042EAC
S31508006000F7D3F1BD383000400030004010A0004002
S31508006010002004F0F6B8002004F001B970B5044673
S315080060200D46FFF737FC06462846FFF7B1FF204620
S31508006030FFF7C5FF3046BDE87040FFF731BC0028C2
S3150800604048BF40427047000081B209B94BF6EF617C
S315080060500E4A1180000C08BF4FF6CE2050807047BC
S315080060600288130448BF4A40510001801046704711
S3150800607038B5064C62212046FFF7F2FF054641F285
S315080060800B01A01CFFF7ECFF684032BDE427002097
S31508006090EFF3118060288041C043C00F70470000AD
S315080060A0002181F3118870472DE9F04FDFF800468B
S315080060B099B0804660681890B8F1070F08BF4FF08E
S315080060C0030804D0B8F1080F08BF4FF00208DFF83C
S315080060D0E4552868696840EA0120A96840EA014051
S315080060E000906868400703D5E06940F00200E06167
S315080060F02868400703D5E06940F00400E06100988D
S315080061002969C840C00703D5E06940F00800E06186
S315080061100020DFF89865DFF8A0953060B8F1010F28
S3150800612000F06982C0F08F82B8F1030F1ED005D344
S31508006130B8F1040F40F08782606017E0D9F8400094
S31508006140C00703D5E06940F04000E061D9F8400097
S31508006150400703D5E06940F02000E061D9F8400027
S31508006160800703D5E06940F01000E061FFF792FB75
S3150800617000F005FB8DF85C004FF0000BD9F84000E5
S31508006180DFF838A5DFF83875DFF838151690D9F82E
S3150800619044001590DFF83005C06C1490DFF8280528
S315080061A0006D1390DFF82005406D1290DFF8180592
S315080061B0806D1190DAF800001090DAF804000F905C
S315080061C0DAF814000E90DAF824000D9038680C906E
S315080061D078680B90B8680A90F8680990386908904A
S315080061E078690790B8690690F8690590B86B0490C5
S315080061F0DFF8D80400680968039102212160DFF8F6
S31508006200D01409688DF80410DFF8C81409688DF8E9
S315080062100510DFF8C41409688DF806104FF0FF3131
S315080062206162DFF8B8140968C9040BD56968C9073B
S3150800623008D5E169C90705D5316841F480714FF081
S31508006240010B3160DFF89414096889040BD5696875
S31508006250490608D5E169C90705D5316841F4804181
S315080062604FF0010B31600121DFF8702412685204E7
S315080062700ED5009AEB68DA40D20709D5E269D2074B
S3150800628006D53268EB6801FA03F31A438B46326087
S31508006290DFF848241268120410D5009A2B69DA40F0
S315080062A0D2070BD5E269D20702D4E269120705D5EF
S315080062B032682B698B46994011433160DFF81C140C
S315080062C00968C90308D5E169090605D5F17841F0D9
S315080062D008014FF0010BF17000216A68D2076A685D
S315080062E048BF4FF480515206009AEB6848BF41F404
S315080062F00051DA40D207009A2B6948BF41F4804121
S31508006300DA40D207E26948BF41F40041D20605D413
S31508006310E269920602D4E269520601D541F01001FB
S31508006320E269120648BF41F4803108400290A52070
S3150800633000F01CFA0120E063E069A16B11B1616A03
S315080063400142FAD0616A014200F0F2800020E0635F
S315080063504FF0010BF07840F04000F07000F056FA6C
S315080063600720C9F800000F20DFF85C13086003F067
S315080063706BFF1898D44960601698C9F840001598BC
S31508006380C9F844001498C8641398086512984865B3
S3150800639011988865CD491098CAF800000F98CAF870
S315080063A004000E98CAF814000D98CAF824000C9830
S315080063B038600B9878600A98B8600998F860089869
S315080063C03861079878610698B8610598F861049865
S315080063D0B86302980860BB49039808604FF0FF301D
S315080063E0BF490860BA4800683070BA4800687070DB
S315080063F0B9480068B070626AE06910402A69336873
S3150800640001994B4000990B400106490E01F0010124
S3150800641043EA81230106890E01F0010143EA81035B
S315080064200106C90E01F0010101FA02F21A4300F44D
S315080064307C7042EA00503060FFF72CFA00F0F4F95D
S31508006440002020609DF85C0008B100F082F9F07821
S315080064509E490968C90304D5C0F3C00109B12021C2
S315080064602162D9F84010890704D5C10744BF022123
S31508006470C9F80C10D9F84010490705D5C0F34001F2
S3150800648011B10421C9F80C10D9F84010C90705D56F
S31508006490C0F3800010B10120C9F80C0030688A49A1
S315080064A0C96C11F0E00F05D0C10503D58B4A4FF42E
S315080064B0805111608449096D11F0E00F05D041043F
S315080064C003D5864A4FF4005111607F49496D11F092
S315080064D0E00F08D0E96820FA01F1C90703D57F4A19
S315080064E04FF4804111607849896D11F0E00F07D0AB
S315080064F02969C840C00703D578494FF400400860A9
S31508006500BBF1000F6ED17748006800056AD5606850
S31508006510800767D5B8F1040F64D06C480068C006D8
S315080065203DD56E480068C00639D50120307159E05E
S31508006530BBF1000F7FF40EAFDAF818006149400886
S315080065404000CAF818005F48806840F00400886078
S3150800655040F2072164480088884201BF62484088A3
S315080065604FF20F01884205D15F494CF23C30488012
S315080065704FF0010B012003F0A1FEBBF1000F05D07F
S3150800658059494FF20F0048804FF0000B55485549BE
S3150800659040680004B06089680843B060E0E600F02F
S315080065A0D1F85249B0FBF1F04FF47A7148432F30D5
S315080065B03021B0FBF1F0002131714D494A6D42F0AE
S315080065C001024A650A68474B464C5B68A46844EA78
S315080065D00343B468A34205D10B689B1A1B031B0B24
S315080065E08342F0D3F07840F08000F07019B0BDE82F
S315080065F0F04FFFF755BD00F0C2F80446A52000F09D
S31508006600B5F800F003F9FFF74BFD3A4D2E682868F8
S3150800661040084000286000F0FFF8374FD7F80080A0
S31508006620386820F04000386000F0F2F8C7F80080BB
S315080066302E6000F0F1F80CB100F08BF819B0BDE847
S31508006640F04F00F0F1B819B0BDE8F04F40F23C4108
S315080066500FF2B000FEF764B9164ACBB21360C1F365
S3150800666007235360C1F307419160002323490B6058
S315080066701368002B04BF5368002B01D192681AB126
S315080066800A6842F001020A600A6842F400720A6067
S315080066900A6842F080020A6006E519490978890104
S315080066A041F4800141F48041D6E70000EC2A00203D
S315080066B00400004008BC004014A00040044000400C
S315080066C00050004008ED00E014A8004000E100E09A
S315080066D008B0004008B4004008B8004000E200E0F6
S315080066E080E200E00C6000400000002090D003002B
S315080066F03820004094ED00E0008000402000004073
S31508006700B52F0020736C6565702E630003480188F9
S31508006710034808237F22FCF7F9B800BFAEB8010882
S31508006720F82B00202D480068C00701D42C48704774
S315080067302C48704780B5FFF7F5FF2B49096801B962
S31508006740400802BD80B5FFF7EDFF400802BDFDF722
S31508006750ACB92648012181604EF6BE21416001216F
S31508006760016070472249012008607047A52805D1B5
S315080067701E484DF6AD6141600221016070471B4815
S315080067800068C00701D5012070470020704780B512
S315080067901849194A1020086018491948007858B14C
S315080067A003280CBF00200120106040F65100086045
S315080067B00020FDF732FC06E0022010604FF400606E
S315080067C00860FDF72BF907210E48016000210164D6
S315080067D010200D490860002002BD00001C40004042
S315080067E0001BB70000366E012040004000600040E4
S315080067F00860004080E100E0080000400C600040AE
S31508006800B32F002014A0004000E100E072B67047E4
S3150800681000BF30BF00BF7047BFF35F8FBFF34F8F16
S31508006820BFF36F8F7047000062B67047704721202C
S315080068307047FFF797BF704770477047704700006B
S315080068402DE9F041454C464EDFF8188100202065B9
S315080068504FF40055356002202060E5600020206571
S31508006860206D40F0600020650E2000F01DF888F8C5
S3150800687000004FF4804700206065376004202060E0
S31508006880E76016203849086000206065606D40F0B2
S3150800689060006065162000F007F888F801003348A4
S315080068A005600760BDE8F0810E2802D0162802D0E0
S315080068B009E02F4800E02F480068800900F0010031
S315080068C080F0010070470020704710B523484FF448
S315080068D00051C160022101600E20FFF7E5FF214C3F
S315080068E0227801468A4218BF21700DD1501E804178
S315080068F0C00F20700E20217803F088FF2178481EEB
S315080069008041C00F20702178BDE810400E2003F0AA
S315080069107DBF10B511484FF48041C1600421016064
S315080069201620FFF7C1FF0F4C627801468A4218BF4E
S3150800693061700DD1501E8041C00F607016206178BD
S3150800694003F064FF6178481E8041C00F607061786B
S31508006950BDE81040162003F059BF000014A80040F7
S3150800696080E100E00E2C002014BC004000E100E0AD
S3150800697008B4004008B800407047704770470120C7
S31508006980704770477047000080B500F028F821204E
S3150800699002BD10B50446FFF74EFF0E4800EB840013
S315080069A0C068808810BD0020704780B5FFF741FF9A
S315080069B0002002BD0CB438B504460D46FFF736FF75
S315080069C004AB2A462146044803F039FF32BC0020AE
S315080069D05DF80CFB542A00202F680008704704282D
S315080069E006DA0FF21001415C481E8041C00F70475D
S315080069F0012070470000000010B50446FEF74AFF64
S31508006A004E49302008604E4908604E4908601020FB
S31508006A104D4908604FF20F01200A00284B4808BF6D
S31508006A20240204804180BFF35F8F4948002101603A
S31508006A30416048484849086010BD10B5474C206871
S31508006A40C0060BD5464941480A68C0F894204968EB
S31508006A50C0F8901040F60620FFF7CEFF2068C00762
S31508006A6008D5404903200870206C4008400020647F
S31508006A70012020602068000703D5206C20F008005C
S31508006A80206410BD80B5002000F009F830B9BDE8D3
S31508006A900440FC210FF2E000FDF742BF01BD2DE9DD
S31508006AA0F044314C21680D1A15F01F0105D0002855
S31508006AB052BF6D1A681A00F120052C48A5F1200668
S31508006AC0A84224BF2A48864203D3EFF308808542AA
S31508006AD001D300202DE0FEF7DDFE8246254800683A
S31508006AE010F0010718BF03F0C7FB206801468D4266
S31508006AF006D2A84224BFCD2100F80119F9D206E032
S31508006B002038002201E000F8012B8842FBD32560DB
S31508006B10304603F0B6FBE22001E006F8010BAE4270
S31508006B20FBD30FB103F090FB5046FEF7B9FE206881
S31508006B302038BDE8F0840C480068704730200040D3
S31508006B4030C8004030C0004010D00040000000208F
S31508006B501C4000400400FA050CED00E018A00040B7
S31508006B6030500040D52F00203C280020A01D0020D2
S31508006B70380D002094ED00E06D6963726F2D696E23
S31508006B807465726E616C2E6300000000002203F0CB
S31508006B904BBF000062F30F2262F31F42401810F049
S31508006BA0030308D0C91A1FD3DB0748BF00F8012D15
S31508006BB028BF20F8022D130030B4144615461039A4
S31508006BC028BF20E93C00FAD8490728BF20E90C006D
S31508006BD048BF40F8042D890028BF20F8022D48BF79
S31508006BE000F8012D30BC7047C91818BF00F8012DF0
S31508006BF0CB0728BF00F8012D70470EB403B07047C5
S31508006C0070470CB402B070477047704770477047BA
S31508006C107047704770477047002070477047704745
S31508006C20704770477047704700207047FBF7CEBC27
S31508006C3070B5044643380FF2800508D0401E012877
S31508006C4009D9801E01280ED9C01F32D02AE0BDE816
S31508006C507040FEF7AEBD002600E00126FEF7A9FD4E
S31508006C600028FAD12EBB134E307810BB01203070A5
S31508006C700020FDF7BDFF452C11D00BD3472C01D0C2
S31508006C8003D307E040F6010001E040F60200FFF7F3
S31508006C90B3FE04E040F216312846FDF741FE002017
S31508006CA0307070BD2846BDE870404FF44A71FDF754
S31508006CB037BE70BDAE2F0020656D6265722D636F9D
S31508006CC06E66696775726174696F6E2E630000007F
S31508006CD04148018A40F6A772914202BF408A4FF4A2
S31508006CE07F41084203D1022801DB012070470020BA
S31508006CF070472DE9F84F82468846FEF7CBFD374D9B
S31508006D002F6804462868400840002860FFF784FD7D
S31508006D100120DFF8C0B08BF80000FFF7D9FF20B9D3
S31508006D20FF210FF2BC00FDF7FBFD2B48D0F8289099
S31508006D3041464AF48070C84706462F60FFF76CFD47
S31508006D402046FEF7ADFD00208BF800000FF29804F0
S31508006D500EB1305D04E041464AF40070C847005D54
S31508006D60BDE8F28F2DE9F84F804689464FEA420A78
S31508006D70FEF790FD194E3768054630684008400012
S31508006D803060FFF749FDFFF7A3FF28B94FF4A1715B
S31508006D900FF24C00FDF7C4FD0F48D0F824B00023CD
S31508006DA0524649464046D84704463760FFF734FD01
S31508006DB02846FEF775FD0FF230050CB1605D05E05B
S31508006DC05346002249464046D847405DBDE8F28F03
S31508006DD000000000D12F00200000040894ED00E018
S31508006DE0666C6173682E6300000202024B4B4647CD
S31508006DF010B5DFF82004006898B9FEF74BFD044685
S31508006E00DFF814040178002918BF052904D10321E5
S31508006E1000F8041B00F02AFA2046BDE81040FEF7E9
S31508006E203FBD10BD2DE9F047DFF8F043DFF8E85322
S31508006E3027782978DFF8DC83002028710FF20040D4
S31508006E4051B9D8F8004014B99D21FDF769FD002015
S31508006E50C8F80000A047B1E003291CBFA321FDF72D
S31508006E605FFDFF26FF2F26700CD0384601F08FFCF9
S31508006E70FEF7F9FD384600F08FFD384601F056F961
S31508006E80FEF7F2FD0020687000F086FC002800F08E
S31508006E9083802078012701F07AFC8046FEF7E3FD1F
S31508006EA02078DFF87C9301F06DFC00F00C000C28CC
S31508006EB016D1207801F057FC824601F099FC99F822
S31508006EC0001010F80A00052902D1062808D106E0A4
S31508006ED001291CBF0329082902D1072800D1002748
S31508006EE0207801F04FFC00F00C00082804BF99F840
S31508006EF00000082834D09FB300F0AEFB88B1207894
S31508006F0001F040FC00F00C0008280AD1207800F0B7
S31508006F10DFFBC44F39688873207800F0E1FB3968D5
S31508006F20C8734046FEF7BCFDD0B141212078FEF774
S31508006F30C3FC18B92078412102F0B2FD207801F08F
S31508006F40F5F82670FEF7A6FC064603202870281DCD
S31508006F5000F08CF93046FEF7A3FCFEF73AFD17E081
S31508006F60207800F08AF804466878AF49C0074EBF13
S31508006F700020AE4800780870FEF78CFC0646012013
S31508006F80287001212046FEF7D3FD3046FEF788FC1F
S31508006F90BDE8F047FEF768BDFEF77CFC0646002014
S31508006FA02870D8F8000010B1281D00F05FF93046A7
S31508006FB0FEF776FCBDE8F047FEF70BBDBDE8F087A7
S31508006FC080B595480178012904D0022906D00429FC
S31508006FD00BD010E0BDE80140FEF755BEFCF77EFB7E
S31508006FE0BDE80240312000F089BC05210170BDE8EA
S31508006FF0014003F092BEBDE804404FF4B4710FF2AD
S315080070004020FDF78DBC38B5FEF744FC824D04469A
S315080070102878052803D040F2771100F02AF80020D6
S3150800702028707C48006810B1281D00F01FF920461A
S31508007030BDE83240FEF734BC70B50446FEF72AFCBC
S31508007040754E05463078002818BF052803D04FF43A
S31508007050C27100F00EF8042030704FF6FF708442BB
S315080070601CBF204600F0C0FF2846BDE87040FEF76A
S3150800707017BC0FF2CC10FDF753BC2DE9FE4F804626
S3150800708001F067FB8DF80500694F38689DF8051013
S3150800709018F80000401A8DF80400404601F072FB0B
S315080070A000F00C0004280CBF01250025404601F01D
S315080070B073F8FF2883460EBF00273968475CDFF858
S315080070C074915D4CFF20661C89F8000000F0C4FA34
S315080070D058B1404601F056FB00F00C00082804D1D0
S315080070E0404600F0E7FA01208BE00DB3404601F078
S315080070F05BFB06464FF6FF7048F6410A864218BF04
S3150800710048F6610AFEF7E2FC0146201D03F075F811
S315080071103146A01D03F071F8FEF7D4FC014604F1D0
S31508007120080003F06AF804F10A0004F10A0602905E
S31508007130002000909DF804309DF805204146304611
S3150800714001F093F89DF80400861947B100200090D5
S315080071503B4600225946304601F087F8BE196DB104
S31508007160404601F000FB4078800726D50298311A80
S315080071704246C9B201F0B9FF86191EE0A0786178C7
S3150800718001EB002080B2410B01F0010181F00105FD
S315080071904DF6FF7101EA000A0AF00700032805D137
S315080071A0601C01F025FB0019407804E01C480078B3
S315080071B0082802D1072089F800004046FEF77AFB26
S315080071C008B14AF0100A1FFA8AF1601C03F015F894
S315080071D01AF0070F04D119480178491C017004E018
S315080071E010480068017E491C0176301BE170401C7E
S315080071F02070301B7F2803DB4FF4F671FFF739FF49
S315080072002846BDE8FE8F04480178481E8041C00F15
S3150800721070470000482C0020C82D00204328002075
S3150800722041280020C42B002084280020852800201F
S31508007230082700206B280020D42D00203C2C002095
S315080072406D61632E6300000038B544784568FEF723
S3150800725021FB824A0C2161438B585B1BB3F1004F1B
S3150800726098BF8D50BDE83240FEF71ABB10B50446EC
S3150800727003F00BFE6060042020702046BDE8104035
S31508007280E2E738B504460D4603F0FFFD28186060AE
S31508007290012020702046BDE83240D5E710B50446E7
S315080072A0207860B1042806D003F0EFFD6168421A21
S315080072B0B2F1004F01D8002010BD081A10BD4FF0DA
S315080072C0FF3010BD70B5044603F0DFFD0546FEF736
S315080072D0E1FA064660686FF0004100F02CF84019A4
S315080072E020603046BDE87040FEF7DABA70B504464D
S315080072F00D46164603F0C9FD002156B1FF2232702D
S3150800730007E0121AAA4202D2154606B13170491C84
S31508007310083422680AB9284670BD1378002BF6D0BF
S31508007320042B04D05268831AB3F1004FE9D806B18A
S315080073303170002070BD0022D8E738B5044603F046
S31508007340A4FD05460DE0017851B1042904D0416831
S31508007350691AB1F1004F03D80421017061688847A2
S31508007360083420680028EED131BD10B53B490C22FF
S3150800737002FB001403F089FD2168401AB0F1004FA2
S3150800738006D86068FFF7D9FF2046BDE8104099E7A0
S3150800739010BD70B5324D334909780446687888427D
S315080073A004D3E5210FF2C000FDF7BAFA6E78701C17
S315080073B068700C21294801FB06000121446001720E
S315080073C000E04E7054F8081B0029FAD1FFF77AFF3F
S315080073D0304670BDF8B505464FF0FF300090204C9A
S315080073E0207840B3FEF754FE28B940F219110FF27F
S315080073F07800FDF795FA03F048FD184A0C2101FBC1
S31508007400052300251D72002305E0009EB54288BFAE
S31508007410354600955B1C6578DBB2AB420FD201FBA3
S3150800742003263568471BB7F1004F04D9367A2D1A5B
S315080074300EB9002DE9D1FEF733FE0020F2BD00A8F3
S3150800744003F046FD0120F2BD044A0C2303FB00208D
S315080074500121017270470249087070477829002097
S31508007460C22F002064B501086576656E742D636FBA
S315080074706E74726F6C2E630070480068408870479F
S315080074806E480068001D70476C480068C07E7047EB
S3150800749070B56A4C6A4D21686A4E4873022819D13C
S315080074A000F0DAF878B92068007B001F022824BFAC
S315080074B03046FFF7DBFE2068007BC01E032824BF8A
S315080074C02846FFF7D3FE20684069C00054BF9024C1
S315080074D0BC240AE000F0C0F810B100F0EFF803E0B1
S315080074E03070287000F053F99124204603F09AFD75
S315080074F050B92346132250A10320FFF782FB2046EA
S31508007500BDE87040FEF701BB70BD4C480068407B83
S3150800751000F00F00704749480068407B00F00F00F4
S31508007520022801D1012070470020704710B5FEF7E8
S3150800753013FDE0B1444801F0D1F8C0B1434801F069
S31508007540CDF8A0B104F008FA88B103F07CFD70B953
S315080075504FF0FF313E48FFF7EEFE04464FF0FF318D
S315080075603C48FFF7E8FE844202D2204610BD0020C0
S3150800757010BD38B5044600F06FF820B12046BDE8C6
S31508007580324000F08FB82D4DFFF7C5FF28B928689F
S31508007590407B032801D0932032BD04F016FC2081DD
S315080075A02868C07BA0722868807BE072204605F0B8
S315080075B0E6FE0020207304F1140104F1100005F022
S315080075C094FFE081002032BD10B5002300E05B1C6B
S315080075D0DBB28B4205D210F8014B9442F7D000205B
S315080075E010BD012010BD80B50821FBF753FC08B17A
S315080075F0002002BDA52002BD10480068407B012876
S315080076001CBF3128332801D101207047002070475C
S3150800761010B50446FBF71FF810B908490968CC737A
S3150800762010BD0648006890F90F00704703480068C7
S31508007630807B70470000000042420000C42B0020F7
S31508007640542E0020602E00204428002054280020B4
S3150800765038BE0008B8B8010880B504F0BEFB032898
S3150800766001D1012002BD002002BD80B5FFF7F4FF5D
S3150800767038B1BDE804404FF490710FF20800FDF7E9
S315080076804FB901BD656D6265722D737461636B2DAB
S31508007690636F6D6D6F6E2E630000000000207047EB
S315080076A000207047B5207047B5207047704770476F
S315080076B00020704770477047704770477047002032
S315080076C070470020704701207047704700207047B8
S315080076D080B56C210FF21C00FDF722F9FF2002BDD0
S315080076E080B572210FF20C00FDF71AF9002002BDD1
S315080076F00020704772663463652D737461636B2D61
S3150800770073747562732E6300F8B50446DFF8FC03DC
S315080077100078002802BFDFF8F863F06800280D46F5
S3150800772025D1DFF8F00300780A2818BF022D1ED1EC
S31508007730FEF7B0F8B278082A074616DA012D02D104
S315080077409019047104E0311D701DFDF7E7F93471D5
S31508007750B078401CB0703846FEF7A2F8204600F014
S31508007760D7FCFFF745FB0120F2BDFEF799F800208C
S31508007770F2BD80B5FEF7BEF9DFF89403C17829B9E2
S315080077800121C170BDE80140FFF732BB01BDDFF83A
S3150800779080130020C870704770B5DFF87003007852
S315080077A0002839D1FEF776F8DFF86443DFF8685326
S315080077B00646A07860B121792970421EA270611D23
S315080077C0D2B2201DFDF7AAF93046FEF769F821E086
S315080077D03046FEF765F8E068F0B9E078022802D08E
S315080077E006F06CF828702878FF2810D1E07870B178
S315080077F0FEF781F9FEF737F906F03FFAFF282870F9
S3150800780003D0FEF77AF900B9E070FEF72DF928786B
S31508007810FF2801D0012070BD002070BD2DE9F04180
S3150800782004460D46FEF74BF8B94E0020F070FEF7F9
S3150800783031F88046F06820B14046FEF731F800205E
S3150800784013E0B6480078052808BFFFF7DCFB00F010
S315080078500EF8070008BFF4604046FEF721F81FB18E
S3150800786005B1A047012000E00220BDE8F08110B56F
S31508007870FEF710F8A649A94B8A781B78C9781A43E7
S31508007880114305D1A64909784C1EA441E40F00E02E
S315080078900024FEF705F8204610BD10B59F499C4CFC
S315080078A000200870FF209C4908700020E060FEF761
S315080078B0DFFB207000209A4908709A4908704FF437
S315080078C0A0519948FFF7DDFCBDE81040FDF7EBBF76
S315080078D038B502460021082001F002F80446FF2CBC
S315080078E001D1012032BD0121FFF70EFF05462046D2
S315080078F000F01CFC681E8041C00F32BD2DE9F8431C
S31508007900854E8A4D81463078FF2808D12878FE288A
S3150800791005D04FF4B3710FF22420FDF701F828784B
S315080079207B4FDFF8FC817D4C811F01290DD805218D
S315080079302170494603F05CFA08B900F014F830786B
S3150800794000F0F4FBFF20307003E087F8019000F0A8
S315080079500AF82878042804D0F878012804BF0220F9
S31508007960F870BDE8F183032020704046FFF77EBC1F
S3150800797010B5694C217881420DD1084600F0D6FB36
S31508007980FDF788FFFF212170FE21684A1170BDE8C6
S315080079901040FDF785BF10BD38B55D4D69780446C2
S315080079A0FDF78AFF28B969782046BDE8344002F019
S315080079B077B831BD2DE9F8430446FF2C05D140F2CE
S315080079C0B7110FF27810FCF7ABFF0320FFF718F991
S315080079D0574D204600F0D6FE00F00C002870FF2018
S315080079E06870204600F0CEFE00F00C0008285CD037
S315080079F028780C2859D1204600F0B5FE074602F033
S31508007A00F5FB064606F44C48384600F0F1FEC05D24
S31508007A1068704FF6FF794FF44060064206D0F81CAE
S31508007A2002F0E4FB484508BF48F0400806F4406009
S31508007A30B0F5006F06D1781D02F0D8FB484508BF9F
S31508007A4048F01008697801294CF6500017D0022929
S31508007A5018D0042908D0062925D0072925D00829B1
S31508007A6018D07C2911D04FE0B8F5484F18BFB8F5A3
S31508007A70084F49D12046FDF71BFF002811E0B8F54D
S31508007A80484F0EE0B8F54C4F0BE0B8F54C4F0CD00C
S31508007A90804506E04CF64040804535D11D480078C3
S31508007AA0052802D030E080452ED1204600F065FE3C
S31508007AB00546204600F066FE00F00C00082816D0A1
S31508007AC0A80614D54FF6DF7000EA0501204600F037
S31508007AD056FE204600F03DFE0546204600F043FED1
S31508007AE000F086FE4119C9B2204600F060FC214626
S31508007AF0104800F0B7FD204600F00AFB0E48007853
S31508007B00BDE8F243FFF7A0BCBDE8F183BD2D002018
S31508007B103C2C00204128002043280020C82D0020A6
S31508007B20CC2D0020202C0020682F00206B28002058
S31508007B30CE2F002044280020CC2F00206D61632D15
S31508007B40617262697465722E6300000038B5FEF7CB
S31508007B50A7FA0022002100A806F098F908B10098B3
S31508007B6032BD03F001FF0446012300220F21012044
S31508007B70FEF70AFF40F2A17506F0F5F925FA00F0BE
S31508007B80C0070AD5DFF84053287806F003FA2878A4
S31508007B9006F08AFA287806F08AFB24B10FF29C30A0
S31508007BA09821FCF7BDFE06F08BFE02F0ADFB06F051
S31508007BB0B7FE06F06AF907F0A2FB0221022007F0D9
S31508007BC04FFE02F0DAFDDFF8041341F202000880E6
S31508007BD05220DFF8FC120880DFF8F81208804FF40C
S31508007BE00040FAF782FBFEF7BDFD03F0B4FF07F08D
S31508007BF0ACFBFEF7F3FE07F05BFE06F078FEF2E755
S31508007C0004F0DBB804F0E1B8FFF77FBC08F06DBA02
S31508007C1038B508F098FB04460025284608F0C0FB4E
S31508007C20A04201D1284632BD6D1CEDB2022DF4DB0F
S31508007C30FF2032BD30B585B000F0AEF804F0BDF8CF
S31508007C4038B16088B0F5006F03D1601D06F023F9DE
S31508007C5013E0204606F03AF9050015D1002500A9DB
S31508007C60284608F0D2FD002804BF9DF80000002829
S31508007C7005D12146284608F0D3FD054604E06D1CCB
S31508007C80EDB2022DEBDBB42506F02FFE284605B033
S31508007C9030BD38B500F080F8204606F015F9050025
S31508007CA003D1204608F008FE054606F01EFE2846C3
S31508007CB032BD38B5FF2504468DF8005000A906F0F8
S31508007CC0DCF810B19DF8000032BDFDF7BFFE824911
S31508007CD001EB0411097B814207D1204606F05AFEC2
S31508007CE018B1204607F0A2F80546284632BD70B5F9
S31508007CF004460D4606F0C3F8F8B9204607F094F88E
S31508007D000646FF2E07D0FDF7A1FE734901EB0611C3
S31508007D100A7B824201D0002070BD48882880888866
S31508007D206880887928710121204607F083F86871F0
S31508007D300021204607F07EF8A871012070BD2DE9C4
S31508007D40F04105460E46904607F06EF80746FF2FA7
S31508007D504FF6FF7413D0FDF779FE5F4901EB071163
S31508007D60097B81420BD10EB9012202E0012E06D110
S31508007D7000224146284607F081F800B104882046CB
S31508007D80BDE8F08110B500F007F8204602F0A4FC23
S31508007D90BDE8104006F0A9BD044606F09BBD38B5FF
S31508007DA00C464E490968455CAA4201D2002032BDFC
S31508007DB0002100912B4601460022204600F055FA84
S31508007DC0284632BD70B598B004460D46164606F0EC
S31508007DD081FD522203A93046FFF7E1FF060011D0C4
S31508007DE00DF1090008F0A8FA02A808F0A7FA03A8F6
S31508007DF001909DF908309DF80920009629462046ED
S31508007E0002F0D6FB06F071FD18B070BDF0B599B05A
S31508007E1004460D4616461F4606F05CFD522203A987
S31508007E203846FFF7BCFF48B103A9019100900297B5
S31508007E3032461E9B2946204602F0FBFB06F055FDFE
S31508007E4019B0F0BDF8B504460D460698164619460B
S31508007E5000F0EFF90746FF2F01D11820F2BD079869
S31508007E6007702046022804D9C01E08D0401E0DD02F
S31508007E7014E03B463246294607F0C0FE0CE03B4676
S31508007E800C220C21304607F03DFF05E03B460C224C
S31508007E903146284607F011FF044600E0022438461A
S31508007EA000F044F92046F2BD08220D49FCF736BE1B
S31508007EB010B504460846FFF75CFB2046BDE81040AF
S31508007EC005F03FBA05F03DBA002700202428002017
S31508007ED0282800202A280020D0280020082700204B
S31508007EE0F82B002010B582B0FFF756FF0DF1010000
S31508007EF008F022FA00A808F021FA9DF900209DF85A
S31508007F000110204608F0E9FE06F0EFFC13BD38B56F
S31508007F1004460D4606F0DEFC2946204608F0A7FE74
S31508007F2008E038B504460D4606F0D4FC2946204636
S31508007F3008F026FFBDE8314006F0D7BC61662D6D16
S31508007F4061696E2D736F632E6300000010B50446D9
S31508007F50062C02D1FCF7A7F930B9E008032803DAA2
S31508007F6000F012F8194A505010BD10B50446062CF8
S31508007F7002D1FCF798F930B9E008032803DA00F0D3
S31508007F8003F8134A505010BD012004F00701884039
S31508007F90E1088902704710B50446062C02D1FCF7A1
S31508007FA082F990B9FDF776FCE108032909DA094A4E
S31508007FB002EB812101230A6804F00704A3405A4012
S31508007FC00A60BDE81040FDF76BBC10BD14B0004058
S31508007FD010B000400CB0004000281CBF0620FFF778
S31508007FE0B5BF0620C1E7000038B5002814BF040154
S31508007FF01024FDF74FFC0546FAF749FF20180F49EC
S315080080000F4C82B24A60000C0860042020602846A3
S31508008010FDF746FC206C40F00400206431BD80B5B5
S31508008020FDF738FC06490A6C22F004020A640422A9
S315080080300A60BDE80240FDF733BC00004820004056
S3150800804008A00040DFF87416096801EB4010704775
S31508008050DFF86C261268815470472DE9F041040058
S3150800806035D0FDF717FCDFF85C16DFF85C360E78BE
S31508008070FF228046FE2EDFF854061BD100260E701E
S31508008080DFF84CC6DFF84C6637781F70002708E023
S3150800809007F1010E07F805E0DCF800507A555FFA9B
S315080080A08EF796F800E005687745F1DB0EEB0506D6
S315080080B006F8012C1E78A6420BD24046FDF7F0FBC7
S315080080C00520FEF79DFD00211B20FDF720FDFF2062
S315080080D01CE0361B1E70DFF800360E780F78D3F8D2
S315080080E000E0012507F80E50641E056817F805E03C
S315080080F081F800E0E4B2002CF0D17A550021304630
S31508008100FFF7A6FF4046FDF7CBFB3046BDE8F081FA
S3150800811010B50446FDF7BEFBDFF8BC150968625CBE
S31508008120521C6254BDE81040FDF7BABB2DE9F04178
S31508008130054600F031F80446FDF7ACFBDFF8842568
S31508008140DFF88435DFF88465DFF88C85FF2D1FD0CE
S31508008150D8F800106F5C7F1E6F547F27D8F800E0B0
S3150800816015F80E10394213D13168695C002705F8F5
S315080081700E701F787F1C1F70FF29376892F800E081
S3150800818005F807E0157006BF2546FF240D46DDE70E
S31508008190BDE8F041FDF784BB80B5DFF83C150968FA
S315080081A0415C090603D5FFF74DFF007802BDFF20A5
S315080081B002BDB0B504460D46FFF7EEFFFF2818BF0F
S315080081C0FFF7B4FFFF2DDFF8107504D13868215C7E
S315080081D001F07F0106E02846FFF79AFF3868215C20
S315080081E041F0800121542046FFF72CFF0570B0BDF1
S315080081F00EB478B504460120FFF72FFF0546FFF7B2
S3150800820021FF0646FF2D08BFFF200FD0E1B2284602
S31508008210FFF71EFF05A8002104E050F8042B06F816
S31508008220012B491CC9B2A142F7D3284672BC5DF896
S3150800823010FB70B504460D4605F11F000004400DFD
S3150800824082B0C0B2FFF709FF0646FF2E0CD02946BA
S31508008250FFF7FEFE3CB1012000902B460022314676
S31508008260204600F002F8304676BD73B500F0B1F846
S31508008270085C15461E467119884203DA4FF4B07138
S3150800828000F0D0F866B1294601A800F0CFF80246FA
S3150800829006989DF8041000903346204600F001F831
S315080082A073BD2DE9F843089CDFF820840546894606
S315080082B016461F460BE04A5D0A54491CB142FADBD2
S315080082C0D8F80000BF1B751919F800900026FFB2F0
S315080082D0BFB14846FFF7B6FE3018F1192029B2BFDC
S315080082E03E46C6F12006F6B2324624B9014628466D
S315080082F0FCF714FCE4E7012C08BF2946F8D0002156
S31508008300DCE7BDE8F1832DE9F04100F062F882B0C0
S315080083101600255C88461F460ED07119C9B220463C
S3150800832000F045F808B1182007E0009733462A46BA
S3150800833021464046FFF799FF0020BDE8F681012354
S31508008340E1E7F8B5044601F11F00C50402F11F0074
S31508008350C0042D0E000E05B9012500B9012085427D
S3150800836023D08542DFF8646310DA401BC0B2FFF7FA
S3150800837074FE0746FF2F01D10020F2BD691EC9B25F
S31508008380204600F02BF8316847540EE08A420CD29A
S31508008390411EC9B2204600F021F804463068205C28
S315080083A0FFF7C4FE3168FF2060540120F2BD38B5DE
S315080083B000F00FF80D46215C2A462046FFF7C1FF5C
S315080083C028B129462046FFF743FE002032BD182073
S315080083D032BD0446DFF8E8020068704704E0DFF8BB
S315080083E0EC221268805C491EC9B20029F7D1704791
S315080083F011B581B0DFF8C80200680C469DF8041074
S31508008400085C844203D34FF4F47100F00BF821465C
S3150800841001A800F00BF804469DF80400FFF712FEC9
S31508008420201816BD0FF2D820FCF77ABA38B50446DC
S315080084300D46E9042078090EFFF7D0FF207005F0F5
S315080084401F0032BD80B5FFF7D3FF007802BD10B517
S315080084501446FFF7CDFF047010BDB0B5FFF7B9FF9E
S3150800846082B0255CFF2C03D14FF40271FFF7DAFFC7
S3150800847005F11F000004400DC0B2FFF7EEFD0746E8
S31508008480FF2F0AD02946FFF7E3FD00950023224671
S315080084900021384600F0B5F83846B6BDF8B50446AA
S315080084A00D4616460120FFF7D8FD0746FFF7CAFD19
S315080084B0FF2F01D1FF20F2BD33462A46202120187E
S315080084C000F020F82118C9B23846FFF7C1FD384632
S315080084D0F2BD10B582B004AC009400F001F816BDE8
S315080084E010B514461A46029B091B2018BDE8104011
S315080084F0C9B207E00CB480B502AAFFF7CFFF02BCE9
S315080085005DF80CFB2DE9F047804616469946C246AB
S3150800851000250C460AE03A465046FCF7FFFA781959
S31508008520BA44401EC5B2681CC5B2761CA5423CDAE0
S315080085303078002839D0312818BF32280ED159F89A
S31508008540041B0AF8011B3228EDD1681CC5B2AC42DF
S31508008550A4BF08120AF8010BE5DA26E0342811D17F
S31508008560291D59F8040B8C421FDB0AF8010B010A76
S315080085700AF8011B010C0AF8011B000E0AF8010B88
S31508008580E81CCFE7A0F1330259F8041B072A38BFC5
S31508008590303806D3A0F14102072A34BF373859F8D4
S315080085A0040BC7B27819A042B5DBAAEB0800C0B223
S315080085B0BDE8F08770B500F01FF800F004F800EB8E
S315080085C0062080B270BD0646294620463AE7F8B529
S315080085D000F012F8FFF7F7FF0746E91CC9B2FFF7E4
S315080085E0F4FF07EB06260702A91CC9B2FFF7EDFF41
S315080085F0C01906EB0040F2BD0D46691C0446C9B217
S3150800860020E72DE9F541089C1F464CB3254689B25B
S3150800861000A8FFF70BFF0646B9B201A8FFF706FF49
S3150800862007463046B84238BF3846C0F12000C0B2C7
S31508008630A842B8BF05469DF80400FFF703FD80462B
S315080086409DF80000FFF7FEFCAAB207EB08013018F8
S31508008650FCF764FA641BA919EF19A4B2002CD5D14A
S31508008660BDE8F38170B504460D46FDF713F9184BBE
S3150800867021781B68FF2908BFED5403D0C9180E7866
S31508008680EE540D702570BDE87040FDF709B938B590
S315080086900446FDF7FFF82178FF22FF2908BFFF25CA
S315080086A007D00B4B1B68CD5C8D420EBF2270EA5C6F
S315080086B0CA54FDF7F5F8284632BD00000427002005
S315080086C0082700202C280020032700201027002038
S315080086D014270020022700200C2700200078FF28F6
S315080086E001D1012070470020704710B5044602E00A
S315080086F0FFF71CFD2046FFF7CAFFFF28F8D110BD7B
S315080087007061636B65742D6275666665722E6300AB
S3150800871010B50C46FFF796FC2018BDE8104001F08E
S3150800872065BD38B50C461546FFF78CFC294620185A
S31508008730BDE8344001F061BD38B50C461546FFF773
S3150800874081FC255431BD10B50C46FFF77BFC205C37
S3150800875010BD80B500F016F800F076F801D10820B3
S3150800876002BD062002BD38B50446FFF76BFC054678
S315080087702046FFF7EEFF401932BD0121C8E70A4639
S315080087800121CEE780B5FFF75DFC407802BD80B5D4
S31508008790FFF7F3FF800B02BD80B5FFF753FC417866
S315080087A041F01001417001BD10B50446FFF7EAFF1C
S315080087B000F04AF804D05E210FF27810FCF7B0F802
S315080087C02046BDE810400621A2E738B504460D4606
S315080087D0FFF7D8FF00F038F804D064210FF25410E0
S315080087E0FCF79EF82A462046BDE83840062198E759
S315080087F080B501F0FBFC01468A0A42EAA2030FF2A1
S31508008800441003F00F03185C4B0700D408B9FF2087
S3150800881002BD490605D412F003011CBF12F030014F
S31508008820801CC0B202BD10B50446FFF7ABFF00F0CE
S315080088300BF802D14FF4006010BD06212046FFF761
S3150800884067FF00F4406010BD00F00C000428704774
S3150800885038B50446FFF7F6FB05462046FFF792FFB4
S31508008860FFF7F2FF0CBF06200B20401932BD80B57A
S31508008870FFF7EEFF30E010B50446FFF783FFFFF77A
S31508008880E3FF02D14FF4004010BD06212046FFF752
S315080088903FFF00F4404010BD70B50446FFF7D2FB19
S315080088A005462046FFF76EFFFFF7CEFF01D1A81D4C
S315080088B070BDA81DFFF79CFF06462046FFF7DBFFA5
S315080088C0B0F5004F0CBF022008207119081A801D48
S315080088D070BD80B5FFF7E0FFBDE8024001F086BC39
S315080088E0F8B504460D4616460120FFF7B6FB0746BF
S315080088F0FF2F1ED0FDF7B3F8A104890C41EA803199
S3150800890089B23846FFF73BFF3846FFF722FF014694
S315080089103846FFF79DFB31463846FFF74AFC42F2D8
S315080089200C002040042803D129463846FFF74DFF9E
S315080089303846F2BD7061636B65742D686561646560
S31508008940722E63000300070D000000000700090FE0
S315080089500D000F15F8B504460025E01C01F046FC8D
S315080089600646601D01F042FC4FF6FF77BE420446FC
S3150800897008BF012504D003F028FA864208BF02255D
S31508008980BC4208BF45F0040505D003F016FA844238
S3150800899008BF45F008052846F2BDF8B5054601F0BA
S315080089A025FC06464FF6CF7000EA06072846FFF76D
S315080089B0D1FF002448F641018E4208BF052809D197
S315080089C0E81D01F013FCBB490988884214BF02243C
S315080089D0062412E04CF6010087421ABF4CF6014005
S315080089E08742012409D0FDF739F82846FEF71CF915
S315080089F00546FDF739F805B10824AF480078204048
S31508008A00F2BD3CB50FF2C82330CB00AA002130C214
S31508008A1028B9AA490860002036BD491CC9B230F8F1
S31508008A2011201304F5D4002300E05B1C00ACDBB274
S31508008A3034F813402504F0D49442F6D1022036BD0A
S31508008A402DE9F04F8346884683B000250026404628
S31508008A5001F0CCFB994C82462068002804BF606868
S31508008A6000282F464FF003095CD04FF440611AEAFC
S31508008A70010F0BD008F1030001F0B8FB4FF6FF71A8
S31508008A8088420CBF022701274FF0050947F0080066
S31508008A9001905FEA4A6017D44FF440411AEA010F81
S31508008AA016D00AF44060B0F5406F0CBF08200220CB
S31508008AB04844C0B2404401F099FB009003F085F9A0
S31508008AC0009989B2814201D1019F01E047F004076C
S31508008AD00AF44040B0F5004F04BF47F0800087B263
S31508008AE00AF44060B0F5006F0BD109EB080001F0FD
S31508008AF07DFB804603F061F980450AD147F01007EF
S31508008B0007E0B0F5406F04D147F0200701E00026E2
S31508008B1015B96068014600E0216839B96D1CEDB2E7
S31508008B20022DF4DBFF20BDE8FE8F761CF6B231F885
S31508008B3016201304F2D4BBB29342F6D1BBF1000F50
S31508008B4005D081420CBF802010208BF800003046EB
S31508008B50E9E700002DE9F0478146884601F046FB23
S31508008B60054605F0070605F4406A2F464846FFF70E
S31508008B70F1FE04464FF6F77005405148007808287C
S31508008B800DD8DFE800F087058705050A0C0C0700F5
S31508008B90002E00E0012E7DD101E0032E7AD139079F
S31508008BA021D5002E76D10A2801D1A00772D5B5F5B0
S31508008BB0004F18BFB5F5404F6CD10026E80648BFF0
S31508008BC046F08006A80648BF46F4805606F00C0014
S31508008BD0042861D109F1070001F008FB0146FF22CC
S31508008BE046F004005BE0002E364FDCD0022E03D0A0
S31508008BF004D3032E2FD04DE03B2058E04FF6CF701C
S31508008C0000EA05064846FFF7C8FE38B94946FFF7A1
S31508008C1017FFFF2802D1FEF71FFD08B10826CDE78A
S31508008C2048F64100864235D10A2C18BF062C31D1A8
S31508008C3060070ED5FEF76FFC20B13868007B001F71
S31508008C40022827D320480078022823D040F60406B5
S31508008C50B4E70426B2E714F0030005D103F0B5F82B
S31508008C604FF6FF71884215D10C26BAF1000F0DD0C8
S31508008C70BAF5006FA2D0BAF5406F0BD10822134996
S31508008C8009F10500FBF794FF20B997E73868007BE0
S31508008C90012893D03A200AE0FF2200213046FFF748
S31508008CA01FFEFF280EBF182088F800000020BDE828
S31508008CB0F087000048280020D02F00204C2C0020E8
S31508008CC041280020C42B0020C82D0020F82B0020A6
S31508008CD0990089000080000038B5DFF8801C002064
S31508008CE0087008F0A2F808F09FF908F07AFA08F078
S31508008CF0F0FA08F031FBFEF7D1FC0024DFF8605CDF
S31508008D0009E02046FCF7AFFE08F048FB08F04AFEEB
S31508008D10FCF7AAFE641C2878E4B28442F1D320E06A
S31508008D2038B5FCF768FE04460025FF2C08D0FCF78A
S31508008D309AFEFEF791FC00B90125FCF795FE4DB9A0
S31508008D4008F073F808F070F908F0C3FA08F004FBA5
S31508008D50FF2C00D00DB1FEF7A1FC08F01FFB08F0B0
S31508008D6021FEBDE8314009F0D3B8DFF8F80B0068FA
S31508008D70407B11281CBF4328412801D10120704798
S31508008D800020704710B50446FFF7EDFC801C01F083
S31508008D902DFA4FF6F87188422046A4BFBDE8104068
S31508008DA000F005B800F05CF800F057F910BD2DE9A1
S31508008DB0F041044608F004F9002837D100F046F9D6
S31508008DC04FF6FF7505D24188A9422FD02046FFF7F6
S31508008DD0FCFC002300220221204608F099F928B35A
S31508008DE02046FFF7C0FC0646F77902F0E6FF804604
S31508008DF002F0E3FF4246394608F0F0F820B9BE21F2
S31508008E000FF23C20FBF78CFDB01C01F0EFF9A842ED
S31508008E1004BF204604F00EFD30780321084203D132
S31508008E200121204601F0A6F9012000E00020BDE856
S31508008E30F08138B50446DFF8640C0068205C851AB2
S31508008E40EDB2681A80B2009053189BB222462046AB
S31508008E50FFF7D7FB29462046BDE83440FFF7A7BAF7
S31508008E602DE9FE4F002582460195FFF77CFC064654
S31508008E70301D01F0BBF90746B01C01F0B7F9804672
S31508008E80307800F0C00002903846FCF71BFD8DF8DC
S31508008E900200FF2814BF4FF00109A94630780321C4
S31508008EA0084208D102F089FF874202D05FEA090426
S31508008EB002D0012400E00024B079002873D002F023
S31508008EC07CFF80450BD102F078FF83460022594685
S31508008ED0504600F0C7F8002865D00020AEE000F044
S31508008EE0B5F838BFB0F802B0F0D3404608F003FA38
S31508008EF020B95046FFF741FC400514D57078400765
S31508008F00C346E3D5504609F0EEF900F093FC401C41
S31508008F104200D2B229465046FFF78BFF707800F020
S31508008F20FB007070D2E7707840071CD5504609F0F0
S31508008F30DAF900F07FFC06466F1CF9B200F07CFCFB
S31508008F40002E18BFFF2806D10022F9B25046FFF7B7
S31508008F507EFAC346BAE705EB4000811CC9B2504603
S31508008F60FFF728FBB1E701AA00A9404607F067FF0B
S31508008F708346DCB10298802804D0402816D19DF893
S31508008F80000098B1307800F03F003070384608F09D
S31508008F90B2F910B902F011FF07463A4600214046D9
S31508008FA007F0A4FF002848D0012047E00198B8B38D
S31508008FB007F03EFF8DF801000198007900F03000B7
S31508008FC002909DF80100FF2805D140F223110FF207
S31508008FD07000FBF7A5FC1CB30298102811D02028B6
S31508008FE01ED1B9F1000F07D09DF802109DF80100B7
S31508008FF007F02CFFA0B904E0019800790C2108427B
S315080090000ED0F3795A464146384607F071FF019863
S315080090100079019900F0F30040F004000871012579
S315080090209DF8000028B10121404608F0E0FB20B178
S31508009030C346002D8ED0302249E70220BDE8FE8FB8
S315080090406E6574776F726B2E63000000DFF8140983
S315080090500068017BC91E03297047401E8041C00F66
S3150800906070470022F8B504460D461646FFF77BFB07
S31508009070007800F0DBFB0CBF0127002729462046B5
S31508009080FFF7A3FB02F099FE854217D0284608F0A1
S3150800909030F950B9DFF8C00A01783246204601B0E7
S315080090A0BDE8F040002308F033B86FB902F085FE3A
S315080090B000232246294607F030F828B10121204628
S315080090C001F058F80120F2BD2046FFF756FB40058F
S315080090D005D52046BDE8F4400021FEF715BB20461D
S315080090E0FCF7E2FBFFF7B9FFF2BD2DE9F0410446B4
S315080090F016468846304609F0C3F907463046FFF754
S3150800910028FB3E1AF6B23719A8EB060292B2394680
S3150800911007F10E00FBF702FD28203870DFF84458E7
S31508009120286890F82000787308F04AFC0246791CF3
S31508009130012001F066F80822DFF86C1C781DFBF7A1
S31508009140EDFC286890F820000AF0D2F808F10E0124
S3150800915033460022C9B2204608F04EFE1220BDE86A
S31508009160F0812DE9F04F85B080460D4609F088F963
S3150800917082464046FFF718FB81464046FFF7E9FA64
S3150800918007460AF10E0189B2404609F0C4F80028DC
S3150800919052D0002000900E235246414601A8FFF700
S315080091A064F80DF10501012001F039F883469DF8B0
S315080091B004009DF8114028283ED10822DFF8E81B54
S315080091C00DF10900FBF7F4FCB0B3DFF8E06B2046BD
S315080091D00AF08EF858B9306890F82000201AC0B204
S315080091E080280DDA0021002003F010F908E001209C
S315080091F00090002352463946404608F032FED8B160
S31508009200404609F054F849460DF109000AF06BF991
S31508009210FE28824610D0FF283CD1484608F015F9AA
S315080092208246BAF1FF0FDFF8887B0BD00DF10901F2
S3150800923008F001FB387868B300211920FCF767FCB1
S315080092400020F0E200F0FBFA0AD1404609F018F9CE
S3150800925001464046FFF7F6F8082801D10120F0E755
S3150800926038780028E8D1306890F82D1090F82C004E
S31508009270814206D3A81C00F0B9FF4FF6F871884260
S31508009280DADA0DF10901484608F031FA484608F0DD
S31508009290DCF88246306890F82000844205D02146E2
S315080092A0012009F034FE0028C6D0306890F8200066
S315080092B0844203D150460AF084F928B959465046E3
S315080092C00AF0FAF80028BCD0594650460AF004F9C4
S315080092D0C4E738B5DFF8E00AFFF7D9F90446FF2CEA
S315080092E01DD0DFF8D85A0321FFF72DFA287004217C
S315080092F02046FFF728FA687005212046FFF723FA6B
S31508009300A8700120FEF768FE204600F009F82046FE
S31508009310FEF70CFFBDE832400020FEF75DBE31BD0A
S3150800932038B50446FFF72EFA00F00C052046FFF77D
S315080093302EFAFCF798FB2046FFF724FA00F040FDCA
S3150800934032D1FEF789F918B12046FEF7AFF975E074
S31508009350062200212046FFF76CFD2046FEF772FE26
S31508009360FFF71BFB8DF801008DF802409DF8010000
S3150800937048B92046FEF766FE01460DF10100FFF7E3
S315080093805FFB8DF800009DF80100802804D100A835
S315080093900AF03BFB002851D1FCF760FB00A80AF055
S315080093A011FEFCF761FB49E0042D204617D1FFF7B3
S315080093B0E4F900051ED402200021FCF7A8FBFEF7FD
S315080093C04BF908B1042D39D00C2D15D121460120B1
S315080093D00AF091FF90B3204603F098FA2EE0FFF7C3
S315080093E022FAB0F5006FE6D12046FFF740FA00F002
S315080093F0B5FBE0D10020DFE71DB9204603F03CFCB1
S315080094001CE0042D1AD1DFF8A4090568687B022838
S315080094100CD0FFF7AAFC48B9687B332818BF312857
S3150800942004D0012804BF287B052807D1214602203D
S315080094300AF061FF10B1204600F004F8FCF714FBAF
S3150800944031BD00002DE9F04F85B08246FFF78BF954
S3150800945005465046FFF7A8F9ADF80600281D00F0A6
S31508009460C5FE8346A81C00F0C1FEADF804002846D8
S3150800947009F025F803904FF6F87200F0E0F96878DD
S3150800948000F00201029100F00100BDF804100490FA
S315080094900CBF012700279142ACBF4FF001084FF0DF
S315080094A00008504608F0ECFF8146287800F03C0199
S315080094B0082943D1DFF8E41509681AF80110894527
S315080094C03CD217B90321084238D10298DFF8DC48A4
S315080094D048B12068C07E002830D029465046FFF79C
S315080094E040FE00282AD02FB1514603200AF003FF78
S315080094F0002823D0494600F09FF90646029878B915
S315080095002068C07E60B1BDF80400009002F055FCEA
S315080095100099814212D197B1062E18BF072E0DD198
S315080095202068417B022956D1029911B9C07E0028CC
S3150800953051D1BDF806000BF082F860B173E106F070
S3150800954003000128ECD04A462946504600F0A6FDFD
S315080095500028E5D167E1BDF80600009002F02DFC71
S315080095600099814211D12068007BC01E032808D2C9
S3150800957002F023FC0146206840880D220BF09CF877
S3150800958051E101200AF070FF4DE1BDF8060007F031
S31508009590B2FE70B902F019FC4FF6FF71884208D086
S315080095A0DFF8040C00780A2804BFBDF8060007F0A7
S315080095B0DFFE0399012258460AF07FFF0028E3D10F
S315080095C0284608F06FFF0146BDF8040000220AF09D
S315080095D074FF0028D8D1BDF804004FF6FC71884204
S315080095E066D12068007BC01E0328CDD3A87908B1B0
S315080095F0401EA871687840072AD50020029002AA62
S3150800960000A9584607F01BFC029808B307F010FC9F
S315080096100446BDF80400FCF755F90299097901F0EA
S315080096203003102B1CBF01F00C02082A03D0029A43
S3150800963001F0F30111710299097901F0330120292A
S3150800964006D1FF2804D001460122204607F0FDFB7B
S31508009650BDF80600FCF736F9FF2804D0DFF84C2BD6
S3150800966012680021815409F10104049840EA0800AF
S31508009670C0B2002874D1E979584607F059FE02F0BD
S315080096802CF908B1039820B1BDF80610584600F029
S31508009690CAF902F092FBBDF80410884260D0084669
S315080096A007F029FE70B177B1012E1BD1002267E0C1
S315080096B04FF6FD71884299D12068007B001F022869
S315080096C094D2B0E077B9BDF8040007F012FE48B1AD
S315080096D0BDF8041000235246584606F01EFD002821
S315080096E040F09D80DFF8C80A007848B9584607F068
S315080096F002FE28B9BDF8040007F0FDFD0028E0D0F9
S31508009700C7B1052E16D102F058FB8DF8000002F0FD
S3150800971054FB000A8DF80100022200A95046FEF704
S315080097200EFE00281BD1E1B25046FEF761FE017815
S31508009730491C0170687840070AD5504608F0D3FDE1
S31508009740411CC9B25046FEF753FE0178491E017006
S315080097505046FFF785FB00211C20FCF7D8F962E08C
S31508009760002F4ED0701E09285DD8DFE800F00505E9
S315080097700E131930393F4343022E0CBF0122002233
S315080097804946504607F0ACFB4DE0494650460AF0BC
S31508009790C7FF48E04A46514658460BF0FCF842E0F7
S315080097A0E1B200F049F80546DFF8087A0398386010
S315080097B0FCF754F909F10200C0B200905346396823
S315080097C02A465846FDF727FAFCF74EF92BE0CDF85E
S315080097D000902B4652460021012002F020FF22E08D
S315080097E04A465146012002F0EAFF1CE0504607F0BF
S315080097F081FB18E0504603F0B0FEB8F1000F12D016
S3150800980009E0049820B1287A00F010F80BD102E09C
S31508009810B8F1000F03D0504600F016F803E0002117
S31508009820504600F0A7FC05B0BDE8F08F00F0030035
S3150800983001287047054629465046FEF703BE287894
S3150800984000F00300012870472DE9F84F8046FEF71F
S315080098508AFF05464046FEF7A7FF0446281D00F086
S31508009860C5FC8146A81C00F0C1FC834695F807A0F4
S31508009870204607F040FD07462946404600F074F8A2
S315080098800646022E61D022465146484607F063FB3B
S3150800989000285AD102F091FA814556D0DFF8180906
S315080098A0007860B9012E06D002F017F818B12846DC
S315080098B008F005FE18B12146484600F0B4F82246DD
S315080098C05146484607F08AFB00283ED028780321EF
S315080098D0084203D10021404600F04CFCA879A0B309
S315080098E000F035F831D36878C00715D52C7A584674
S315080098F006F092FE40B1E10804F0E00001F01C0118
S31508009900084340F0010006E004F01C001C2803D0C0
S3150800991005281ADB201F28724FF6FF752946404690
S31508009920FEF753FF0FB1002203E0FCF7A1FB00F09E
S315080099303F0200230221404607F0EAFBAB4504D16B
S315080099404046BDE8F24F03F075BFBDE8F18FDFF87A
S315080099505C040068007BC01E03287047E42B0020C7
S3150800996040270020C42B0020F0B587B004460878AD
S315080099700321084254D1214604200AF0BCFC0028E1
S315080099804FD0204608F07CFD014600F084FB0321F9
S31508009990084245D1204608F073FD0546294600F0E1
S315080099A07AFB0FF6380248CA05A948C103210842BE
S315080099B036D1002000906A1C0523D2B2214603A89E
S315080099C0FEF753FC052203A905A8FBF7FDF838BBEB
S315080099D0204608F0D8FD0546A91C00F05BFB0646A4
S315080099E0691C00F057FB00EB062605F10B0100F099
S315080099F051FB074600200090EA1C0823D2B22146F4
S31508009A0001A8FEF732FC2046FEF7CEFE3A46B1B272
S31508009A1001F02CFF012201A9B0B20AF04EFD00E0C8
S31508009A20002007B0F0BD38B504460D4607F063FCC4
S31508009A30002818BFAC4206D02046FBF743FFBDE816
S31508009A40324007F05FBC31BD10B5192241A1032091
S31508009A50FDF7D7F8DFF854432068417B022918BF81
S31508009A60032901D0932010BD007BC01E032802D213
S31508009A7001F0D2FA08B1702010BD0BF099F82068F1
S31508009A80407B032805D10021012002F0BFFC0120FC
S31508009A9010BDFDF76EFE002010BD0000082700204F
S31508009AA02DE9F04180460D4600260DB9012602E053
S31508009AB0312D08BF0025FEF765FE00F081F913D1A8
S31508009AC0FDF7CAFD80B9DFF8F46686F80080FBF773
S31508009AD0C5FF4046FEF760FB2946FDF79AF8FBF7F7
S31508009AE0C3FFFF20307032E0DFF8D4764046FEF739
S31508009AF049FE0C21084205D13978BDE8F04101201C
S31508009B00FCF705B803244046FEF78DFEB0F5006F56
S31508009B1007D14046FEF7ABFE00F020F808BF012447
S31508009B2001D005B1052439782046FBF7F0FF294610
S31508009B30404603F0F1FE50B92946404607F068FB57
S31508009B4028B9324629464046BDE8F0410AE0BDE854
S31508009B50F081000042000000582800204FF6FF71EF
S31508009B60884270472DE9F04F83B007460E461446E3
S31508009B70FEF708FE00F024F908D1FDF76DFD28B1BF
S31508009B80224631463846FDF792FD07E1DFF81C828A
S31508009B903846FEF7F7FD00F00C000C2838465AD177
S31508009BA0FEF7E1FD8246FEF723FE50444FF0FF091B
S31508009BB00178DFF80856012906D0022912D00429AF
S31508009BC024D07C2939D0E9E04EB99AF804009AF8ED
S31508009BD0031001EB002080B202F0FBF8DEE003F090
S31508009BE016F8DBE0002E04BFC178002908D1827878
S31508009BF0407800EB0220394680B209F074F892E00A
S31508009C000AF10501002007F069FB92E0D8F8000088
S31508009C10407B0228E5D11EB90BF060F804B931265D
S31508009C203346222263A10320FCF7EBFF2F70FBF7D4
S31508009C3015FF30460BF0B2F808E02F70FBF70EFF61
S31508009C403846FEF7A9FA3146FCF7E2FFFBF70CFFA8
S31508009C5085F80090A2E0FEF786FD0446201D00F078
S31508009C60C5FA8146A01C00F0C1FA05464FF6F87BF6
S31508009C705D450BDAD8F80000B0F84410491CA0F886
S31508009C8044101EB144304188491C4180207800F0B8
S31508009C900301012950D1384608F0F2FB014638463F
S31508009CA0FEF7D0FB042802D0072804D076E0384611
S31508009CB00AF05CFF72E0204608F0F4FB00286DD03D
S31508009CC00146002007F00AFB0446384608F0D8FB90
S31508009CD000210091421C0323D2B2394601A8FEF79F
S31508009CE0C4FA002E02BFD8F80000407B02281FD114
S31508009CF001A88178E1B940789DF8041001EB0025A8
S31508009D002046FF280CD0DFF8BC14096831F810206B
S31508009D104FF6FF331A4021F81020A9B207F0F1FADE
S31508009D20A8B207F089F800211020FBF7F0FE35E00D
S31508009D30204607F0E7FA31E0032108422ED102F067
S31508009D403CF8814504D03846FEF717FDC00606D50F
S31508009D50002E0CBF0021662138460BF0BDFAEEB185
S31508009D605D451BDA607810F0040606D1284607F030
S31508009D7069F8070002D0012700E00027284607F007
S31508009D80B8FA10B1062267B904E00EB10B22FAE759
S31508009D9037B90222294648460AF08EFCBDE8F78FF5
S31508009DA00C2249462846F7E7F82B0020C42B00204A
S31508009DB0E72F00204242000044280020DB2F002025
S31508009DC000F00C00082870472DE9F04F044685B0CE
S31508009DD094F800A05046FEF7DAFCFBF744FEFDF7C0
S31508009DE03BFCB0B1A079012805D1DFF8DC03017886
S31508009DF041F0010101702078FDF75AFC002840F077
S31508009E00D080607800F0F0006070FBF72DFE00202F
S31508009E1009E55046FEF7A7FC0646301D00F0E6F9B0
S31508009E20ADF80000B01C00F0E1F98146504608F094
S31508009E3027FB83465946FFF7FFFC8DF8020030786A
S31508009E40FFF7F4FC0CBF9DF80250FF2501F012F84D
S31508009E50A188401A1FFA80F801F0AFFFBDF800107C
S31508009E6088420CBF0127002708460AF0E8FB0028AD
S31508009E70C7D148460AF0E3FB20B1484607F03BFA4B
S31508009E800028BED0FFF763FD21D2062D18BF042D8A
S31508009E9062D05A463146504600F000F9B8B9FEF786
S31508009EA064FF20B19DF80200FFF7C0FC0FD0FDF754
S31508009EB032FB00284DD001F080FF0146301D00F02E
S31508009EC09CF9C248006841885046FEF77EFC012D81
S31508009ED042D15046FEF768FCFFF740FE3CD100230E
S31508009EE000F0B3F805008CD06A799DF80D0082421F
S31508009EF007D20BF10501C9B25046FEF7A8FA00F0E1
S31508009F009EF8FCF7B5F87E2190FBF1F17E2202FB64
S31508009F10110000F58070608018219DF80E00084237
S31508009F2012D060780F21084208BF002F0CD1FBF72A
S31508009F3095FD304608F0C3FA01466A79BDF8000077
S31508009F40FCF76CFEFBF790FDFBF78EFD9DF80F0006
S31508009F505EE72820608058E74FF6F870814502DAF8
S31508009F607078C00721D5FFF7F2FC1ED340F6B9304A
S31508009F7080455CDAFCF77CF800F03F00C0F5FA7023
S31508009F806080607800090CD05FB9F179BDF80000EF
S31508009F9006F0D7FF00281EBF80884FF6FF7188425B
S31508009FA0A1D0FBF761FD012032E7022D26D101235E
S31508009FB000F04BF8054601F000FF0146BDF80A001F
S31508009FC0814202D007F097F958B3002D8BD06B88E1
S31508009FD001225946504606F084FF7C480068417EB7
S31508009FE0491C4176F171BDF806006988884201D09E
S31508009FF000F025F84FF4C8706080D2E7032D10D121
S3150800A0007FB10BF10101C9B2FFF716FC0C2808D184
S3150800A01007F081FCFFF7A2FD03D001465046FEF784
S3150800A020D4FB607800097FF4ECAEB8F1FB0FBFF6FD
S3150800A030E8AEFCF71DF800F01F001030DCE760788A
S3150800A04000F0F000801C6070704701AA594650461F
S3150800A05006F049BF70B50446FDF7FEFAC0B92046BA
S3150800A060FEF781FB0546204608F00AFA014600F08D
S3150800A07012F806462046FEF797FB4FF6F871884217
S3150800A08004DAFFF7DCFB08BF022E01D1012070BD00
S3150800A090002070BDC9B22046FEF7D4B9F8B504460B
S3150800A0A01546084600F0A2F820F4007041F20801AF
S3150800A0B0884218D146480068205C401B072812DBF6
S3150800A0C000260FF220177119FFF7E4FFF15D8142B0
S3150800A0D003D0022E08BF002805D1761CF6B2072E3B
S3150800A0E0F1D30120F2BD0020F2BD2DE9F0418046F2
S3150800A0F00C46FEF747FBFFF763FE31D0201D00F044
S3150800A10075F80546E6794046FEF74EFB0746404693
S3150800A110FEF733FB00060FD52C480068017B091FA4
S3150800A120022909D2417B022906D140884FF6FF71E0
S3150800A130884218BFFBF7E3FCA01C00F057F84FF65F
S3150800A140F871884202DA6078C0070BD520780321B7
S3150800A150084205D13A463146284606F0FCFE05E097
S3150800A160012005E03146284607F0CEF8FEF775FFD0
S3150800A170BDE8F08110B5044641B1FF220321FEF780
S3150800A180DBFA002204212046FEF7D6FA21461148BA
S3150800A190FEF768FA2046FDF7BBFF0F480078BDE8D2
S3150800A1A01040FDF751B9000041280020282700205B
S3150800A1B018270020D42B0020FE2E00203828002047
S3150800A1C0EB2F002024270020C92D0020C42B0020B7
S3150800A1D00827002054280020CC2F00200013000058
S3150800A1E00000000000FF01400EC0FF004178007823
S3150800A1F0FFE700EB012080B270470170090A417041
S3150800A200704710B50023002814BF1C46C3F1030489
S3150800A210E4B25B1C6254120A042BF4DB10BD30B5A1
S3150800A2204A788B78CC78097818B120461D460C46B2
S3150800A23002E0154608461A4645EA002044EA022185
S3150800A24041EA004030BD0000174838B50446FBF720
S3150800A25021FB0546154800210160082154F8042B06
S3150800A2608260491E54F8042BC260F7D101210160AF
S3150800A270FCF7D2FA284613E00C4900200860FCF7E0
S3150800A280CBBA38B545096D0109480A4C854238BF2D
S3150800A290094CFBF7FFFA044945F014024C620A62BE
S3150800A2A0BDE83240FBF7FCBAA427002094ED00E095
S3150800A2B09800002009000B1008000B1070B12DE95A
S3150800A2C0F05FEFF308800D490860EFF309800C4949
S3150800A2D00860EFF314800B49086030BF0748006830
S3150800A2E080F308880648006880F3098805480068EE
S3150800A2F080F31488BDE8F05F704700008C2D0020BD
S3150800A300902D0020942D00200020DFF8F41401EB96
S3150800A310C003FF221A71002241F83020401C03288E
S3150800A320F5DB70472DE9F04F81468FB01C46FF20BC
S3150800A330032C8B4617468DF8090005DB189D2A78ED
S3150800A340520707D5052C03DA01200FB0BDE8F08FB8
S3150800A350297900E0A9788DF80B100021DFF8A0A470
S3150800A3600AEBC1021279FF2A0BD0491CC9B203298C
S3150800A370F6DB03901A9E36B10398FF2803D1B42062
S3150800A380E3E70391F6E700208DF80A0009AA387971
S3150800A3900DF10A0103F075FD58B1BDF8300038809B
S3150800A3A09DF80A0004F093FA8DF8080000283CD1BD
S3150800A3B014E0387904F038FD8046B8F1FF0F08BF7D
S3150800A3C0A320C2D0387904F087FA8DF8080060BB5C
S3150800A3D0DFF8300400EB081040883880B9F1000F28
S3150800A3E00CBF58464FF6FF70019000217888DDF8BB
S3150800A3F06480009042463B889DF80B0005F04EF9B4
S3150800A40018B1F88840F02000F8800496059706955C
S3150800A410ADF81CB0ADF81E408DF820908DF821805F
S3150800A42002A904A803F043FD10B19DF808008CE7C3
S3150800A4303A465946484605F03CF9A04219D30DF16B
S3150800A440090001900095E3B23A4659464846FDF799
S3150800A450F9FC8DF8080086B178B99DF80900FF283F
S3150800A46019D003990AEBC101087103984AF83060BC
S3150800A47011E074208DF8080010E0BA2808D1B879E0
S3150800A480C0060BD500208DF8080001200BF025F931
S3150800A4909DF8080010B911200BF035F904F025FADB
S3150800A4A0C3E710B584B0069C0093029413460A4687
S3150800A4B00124014601940420FFF734FF04B010BDBF
S3150800A4C0F0B50446022C85B00D4616461F460AD13D
S3150800A4D000A9E8B206F099F988B99DF8010030712B
S3150800A4E09DF8040070713B460B9802903246002096
S3150800A4F0019029460A9800902046FFF713FF05B0F9
S3150800A500F0BDF0B587B004460D4616461F4616221E
S3150800A510002100A8FAF745FBADF80C40ADF80A6033
S3150800A5206DB1082229460DF10100FAF7F7FABDF8D0
S3150800A530140040F00200ADF8140000200AE01FB134
S3150800A540ADF812700C2005E04FF6FC708642B4BFD9
S3150800A550002008208DF800000D980F9A0E99ADF886
S3150800A5600E000C98ADF8100000A80BF0DFFA07B043
S3150800A570F0BD70B50D4604462888164608B1002079
S3150800A58070BD204603F095FC002802BF688848F293
S3150800A5902101884203D17178204603F07EFC688841
S3150800A5A0B0F5004FC4BF08200BF0C5F8012070BDF8
S3150800A5B02DE9F04788B081460E469246984605F042
S3150800A5C0C2FE8DF8089003960546119F0497ADF8CC
S3150800A5D016508DF818A08DF81980109CADF8144007
S3150800A5E0FDF714FB8DF81A00FDF712FB8DF81B001A
S3150800A5F0FBF72AFA8DF81C0002A803F056FCA8B946
S3150800A60023463A46314628460BF051FB70B9234695
S3150800A6103A4631462846FFF7ACFF38B9019000950F
S3150800A62023463A464946304604F026FF08B0BDE8B8
S3150800A630F0872DE9FC4780468A4617460C987049EC
S3150800A6401D46002201EBC2031B79834210D0521C1F
S3150800A650D2B2032AF6DB4FF00009002201EBC2034F
S3150800A6601C79844207D0521CD2B2032AF6DB07E0D3
S3150800A67051F83290F1E7FF201871002041F83200B6
S3150800A680002D04BF3888002806D17888B0F5004F19
S3150800A690BCBF08200BF037F801200BF04CF80A9CD9
S3150800A6A00B9E36B13078C00703D500F00EF804F0DB
S3150800A6B0ABF9B9F1000F02D000F007F8C84700F06F
S3150800A6C004F803F0E6FBBDE8F387019500962346F8
S3150800A6D03A4651464046704770B50446903882B0AF
S3150800A6E00CD0401E3DD0C01E3BD0801E39D0801EE7
S3150800A6F037D01338042834D9113834D10020ADF8AE
S3150800A70000000BF070FB0646FDF77AFA451EAD41D0
S3150800A710ED0F2EB1002D14BFB0883089ADF80000BA
S3150800A7200DF1020008F0CCF8BDF80200800605D548
S3150800A730BDF8000040F02000ADF800002A4600A948
S3150800A740002003F0C9FBBDF8000008F0A0F8BC2CF7
S3150800A75002D103F0B6FB01E00BF0EEFB03F0B2FB0F
S3150800A76001E004F009FE20460BF066FC20460BF0DB
S3150800A7702BFD204603F0B2FB73BD1CB5224C00200E
S3150800A78004F0A5F8206890B10078012808BF0BF0FE
S3150800A790F3FF00A8FDF796FB80B920689DF8001026
S3150800A7A00078814203D0012808BF022906D10FF29A
S3150800A7B060000068019001A801F0CCFD04F095F84E
S3150800A7C013BD10B5044604F085F820460CF034F89D
S3150800A7D0BDE8104004F089B838B50B490968044645
S3150800A7E0702059B10D78012D08BF02250CF092F89A
S3150800A7F021462846BDE8344001F0BABC32BD000007
S3150800A800B8280020D0280020482A00200CF031B9AA
S3150800A8100000000070B51346101802E0A4192C7049
S3150800A8205B1EDBB24BB101F00F060909451E0A2E65
S3150800A8302846B4BF30243724F0E7101870BD2DE938
S3150800A840F24F88B0804601A81446994601AD4FF0EC
S3150800A850000B00278DF8000010E00127641E05A8EC
S3150800A86085420AD39DF800002E1A00F0B4F8002895
S3150800A87039D1B3445FFA8BFB01AD641C9DF8000027
S3150800A8802E1A207800280BD0252803D017B905F8EA
S3150800A890010BE4E7002F14BF0027641C2078010091
S3150800A8A000F08E80B0F1250113D00B39092967D93C
S3150800A8B028395CD00B390ED0491E2CD008392AD03D
S3150800A8C0091F0BD0C91E09D0891E24D0C91E4ED017
S3150800A8D0C5E72520DBE759F8040BD8E759F804AB98
S3150800A8E000F079F8002872D1B3445FFA8BFB01AD0A
S3150800A8F0002600E0761CF6B216F80A000028F9D100
S3150800A9009DF8200032465146C04700285FD1B3441F
S3150800A9105FFA8BFBA3E759F8040B0021002803D53F
S3150800A9202D21297040420121002300224FF0000CFE
S3150800A93002E0801B0CF1010C0FF2C80656F82260E3
S3150800A940B042F6D243EA0C06F6B2002E05D0C9B2DA
S3150800A9500CF130034B55491C0123521C092AE5DB2F
S3150800A960C9B230304855481CC0B2451977E759F87E
S3150800A970041B0222C9B22846FFF74CFF05466EE7BC
S3150800A98060780127782818BF5828F8D1641C002752
S3150800A99014F8010C322804D159F8041B042289B290
S3150800A9A0E9E734287FF459AF59F804AB04224FEA93
S3150800A9B01A412846FFF72EFF04221FFA8AF1DBE721
S3150800A9C000F009F818B906EB0B00C0B200E0002049
S3150800A9D009B0BDE8F08F9DF82000F2B201A9404702
S3150800A9E001A103E0000000000D0A00000CB40020DD
S3150800A9F002B070470CB480B5FFF7F2FF02BC002026
S3150800AA005DF80CFB00CA9A3B00E1F50580969800B4
S3150800AA1040420F00A086010010270000E80300004E
S3150800AA20640000000A00000000B500BF1300964647
S3150800AA309446103928BFA0E80C50FAD85FEA417C42
S3150800AA4028BF0CC048BF40F8042BC90728BF20F808
S3150800AA50022B48BF00F8012B00BD00002DE9FC427F
S3150800AA6004460D469146CDF80490009523462422C7
S3150800AA700FF2F0310320FCF7C4F8DFF8D873387802
S3150800AA800A2818BF3D203DD1B9F10F0FA8BF3320C2
S3150800AA9038DA092CA8BF342034DADFF8BC0328409A
S3150800AAA0A84218BF35202DD135B9DFF8B01309688B
S3150800AAB0897B012000FA01F5002C18BF022CDFF86B
S3150800AAC0A0630CD120210020FDF7B3FB7870FF2886
S3150800AAD008BF182016D0FDF7B5FAF06130623C7051
S3150800AAE086F80190B561002030700A20FAF7B1FFA8
S3150800AAF001210FF21500FCF791FE38780A280CBFE1
S3150800AB0001200020BDE8F68238B50A20FAF7A2FF30
S3150800AB100446FAF7A8FF2046FAF7C2FF0020FAF71C
S3150800AB2097FFCF4CFCF782FDE07001F04EF92082CA
S3150800AB30F8F7E6FD20714FF6FF75C64C2078062813
S3150800AB4008D10120F8F7DFFD072020702846FCF71A
S3150800AB5073FA0CE0082805D0284601F03AF9284689
S3150800AB60F8F74AFE0020F8F7CEFD00F059F8BDE8E0
S3150800AB703140FAF779BF38B5FAF78CFEB54D044679
S3150800AB8028780A2818BF092804D12046BDE832408B
S3150800AB90FAF786BE072808BFFCF712FA2878B049E4
S3150800ABA00870092028702046FAF77AFEBDE8344076
S3150800ABB001210FF20900FCF731BE000070B5A54C63
S3150800ABC02078092802D0E82100F0A3F80A20FAF72D
S3150800ABD041FFFAF748FFA24D288A01F0FAF89F4983
S3150800ABE0E878096888732879F8F78DFD0120FAF75F
S3150800ABF02FFFFAF7EEFE66780020287200220A2058
S3150800AC0020703146FF206070287802F051F9FF2E37
S3150800AC101CBF3046FDF78AFABDE87040FAF724BF34
S3150800AC20F8B58F4C002020720A20FAF713FFFAF7BE
S3150800AC301AFF884D28780A2803D14FF48A7100F044
S3150800AC4068F82878E0B917E0401CE061282210F976
S3150800AC50016DE069401CE0617DA110F8017D009658
S3150800AC603B460320FBF7CDFFFAF7F8FE3146384698
S3150800AC70FDF757F9FAF7F8FEE069216A8842E3D347
S3150800AC8020781B281FDA08F0D9FC50B12078A16972
S3150800AC90C140C90705D4401C2070C0B21B28F5DB8B
S3150800ACA011E0F7F7D1FC01462078884202D0F7F781
S3150800ACB0C3FC40B9207808F0AFFC20700020A070D3
S3150800ACC000F064F808B32878052818BF012803D0CF
S3150800ACD0032818BF08280DD10B26A069F040C00725
S3150800ACE004D528783622314602F0E2F8761C1B2E67
S3150800ACF0F3DB08E0022806D1206AE169411A687880
S3150800AD00C9B2FDF754FBFFF736FFBDE8F140FAF785
S3150800AD10ABBE0FF25810F9F703BE38B54D480178A7
S3150800AD20092904BFBDE83140FCF76DB94C4C63698D
S3150800AD30002918BF02291ED19BB9226A6179521CC3
S3150800AD40226202F8011D007828B9256A681C20626B
S3150800AD50F7F77AFC287004F10800BDE83240FCF7E2
S3150800AD6085BA0825F8F7E1FC94F905108142B8BFC1
S3150800AD700146617103E0002BEDD04FF4707528464B
S3150800AD80FCF75AF96069401E606131BD80B53448E8
S3150800AD904278012191402F4A1278491C092A4161BB
S3150800ADA020D8DFE802F01109110917051F1F0D1C2D
S3150800ADB0BDE8014002F03EBFBDE8014002F047BFD2
S3150800ADC0BDE8014008F01CBF6FF07F02427178228F
S3150800ADD0514341610020FCF72FF9002002BDFCF722
S3150800ADE012F903E040F2A311FFF793FF012002BD19
S3150800ADF010B5184A1A4C1278052A11D1062816D108
S3150800AE0020206061A9B9F7F71FFC0122A16902FA9F
S3150800AE1000F021EA0000A0610020FCF70DF915E01A
S3150800AE20012A14BF032A0728ECD0082AEAD00020F2
S3150800AE3010BDA078401CA070C0B2032802DAFFF744
S3150800AE40A5FF18B104F10800FCF710FA012010BD9F
S3150800AE50424242004128002000F8FF07C42B002088
S3150800AE60182C002042424442000000007363616EC1
S3150800AE702E63000080B500F008F880B202BD80B5E8
S3150800AE8000F003F80002000C02BD10B5FAF702FD47
S3150800AE9057490A68496841EA0244FAF701FD5548E4
S3150800AEA0017831B1544909688C4202D15348406847
S3150800AEB010BD00210170204610BD704780B5FFF710
S3150800AEC0FCFF4F490720086001204C49087001BD66
S3150800AED02DE9F84304460025206810B9FBF7E0F889
S3150800AEE02AE0FAF7D7FC00F076F8206810F1010F8F
S3150800AEF01CBF401C2060FFF7C8FF21683F4E404F2B
S3150800AF00814600F063F821684944090C01603570F0
S3150800AF1002203860386400F063F80120FBF7BDFBB7
S3150800AF203D64307838B98525FFF7AFFF2168081AE0
S3150800AF304844206000E025602846BDE8F2832DE9F4
S3150800AF40F84F0D46824628689346002710B9FBF746
S3150800AF50A7F838E0FAF79EFC00F03DF8286810F1EB
S3150800AF60010F1CBF401C2860FFF78FFF234C244E9F
S3150800AF7027708146296800F029F829684944090C90
S3150800AF80016002203060306400F02AF801E02F608A
S3150800AF9027702868B8B14844BAF1000F606003D139
S3150800AFA00220FBF77AFB03E059460220FBF754FB25
S3150800AFB0376420780028EAD18527FFF766FF2968D5
S3150800AFC0081A484428603846BDE8F28F0E484944B6
S3150800AFD089B24160704780460A4910200860704768
S3150800AFE010200A4908604046FAF75ABC00000000DB
S3150800AFF010600040F02A0020F42A0020102C0020BF
S3150800B00014A0004080E100E01860004000E100E084
S3150800B01001460022002092E7DFF80409007800B113
S3150800B02001207047DFF8F8180A78072A18BFFFF7D3
S3150800B030F3BF80B5902803D1002008700BF05CFFA1
S3150800B040BDE80140E8E7DFF8D8080078042801D110
S3150800B050012070470020704770B5164604460D4615
S3150800B060FF22FCF7B1FA28B9002229462046FCF748
S3150800B070ABFA50B146B169082046F7F70BFF08B995
S3150800B080A52070BD002070BD702070BD70B5044647
S3150800B090084615461E4632460821FFF7DDFFA8B9C1
S3150800B0A0324602212046FFF7D7FF78B928780028CC
S3150800B0B018BFFF2807D0DFF86C1821FA00F0C00780
S3150800B0C003D5702070BD0B202870002070BD10B508
S3150800B0D0441A48BF6442C92C0A4602DB884203D296
S3150800B0E001E0884200D30246904201D1012010BDFA
S3150800B0F0002010BD70B50446DFF82C08006886B03D
S3150800B1000D46407B0F21084206BF94F82800022806
S3150800B110702038D10123A21C211D2046FFF7B6FF57
S3150800B120060030D194F8260000F0020040F0010035
S3150800B1300CF01CF894F82800DFF8E4174870182279
S3150800B140002100A8F9F72DFD0822211D00A8F9F70E
S3150800B150E5FC2088ADF808008DF80A5000ABA07809
S3150800B1608DF80B004FF4417103208DF80C00DFF8C1
S3150800B170BC070590012094F8282001F021F806461E
S3150800B180FAF727FC304606B070BD2DE9F041DFF826
S3150800B1909847064620688EB0407B00F00F052C22A3
S3150800B1A0314602A8F9F7BAFC012D18BF042D31D093
S3150800B1B0DFF86C572878002818BF06282AD196F891
S3150800B1C02800801E022825D80BF0C1FFC00723D40B
S3150800B1D000F0FBFD074602F09CF9804600A802F045
S3150800B1E0CEF80822311D00A8F9F7E2FC002840D164
S3150800B1F0707B4146FFF76BFF00283AD000F0DDFD73
S3150800B20001460122304600F0FAF8DFF8241700203C
S3150800B210087059E0702057E00121002007F079FBFB
S3150800B220070050D10BF0F2FF0FF224724FF6FF71B0
S3150800B230012001F0A5FF96F826000027C0070ED5C5
S3150800B24000220821301DFCF7BFF940B90822311D3C
S3150800B25003A8F9F763FC3088ADF8080006E0082271
S3150800B260002103A8F9F79DFCADF808708DF8157054
S3150800B2700EE0082200A903A8F9F750FCADF80870FB
S3150800B2808DF8158096F8280002280CBF012702279A
S3150800B290B0788DF80A00032001F02DFF02A9384680
S3150800B2A008F073FD07000AD12168012048734FF49E
S3150800B2B0A05104202870281DFBF7E3FF03E000F0E7
S3150800B2C02FF801F018FF38460EB0BDE8F08130B50A
S3150800B2D08BB004460D462C22002100A8F9F761FC24
S3150800B2E041F60630ADF80000102205F115010DF102
S3150800B2F00200F9F713FC102221460DF11200F9F7A6
S3150800B3000DFC28460BF057FF00A807F047FA0BB0CC
S3150800B31030BDDFF80C060078012818BF00207047FA
S3150800B320DFF8FC05407818B9DFF8FC050068007BF3
S3150800B33070472DE9F0410446DFF8EC05DFF8E065D3
S3150800B34000687778407B88463178002918BF072936
S3150800B350154600F00F0037D1012818BF042833D04E
S3150800B3600BF0F5FEC00744BF48F6990000F031FD22
S3150800B3700BF0EDFE40F002000BF0F8FE08F08EF937
S3150800B380204608F069F9FCF74CF9F0704046FCF7DE
S3150800B3903FF95FEA000814D1A81E022814D8012034
S3150800B3A030707570042221460820FFF757FB5FEAC4
S3150800B3B0000806D00020307096F90300FCF728F93B
S3150800B3C077704046BDE8F0817020FBE738B5DFF8B6
S3150800B3D050550446287810B1062808D00DE00620F6
S3150800B3E02870F8F78DF9A8700020F8F78CF921462F
S3150800B3F0281DFBF746FF002032BD702032BD70B510
S3150800B4000546DFF82C05DFF82C65418014462888A8
S3150800B4103081A878F072FCF704F9B0720822291D69
S3150800B4203046F9F77BFB687B3074DFF800057061FE
S3150800B430032030734CB90BF08AFEC00705D40422EA
S3150800B4404FF6FD71002009F0FEF99120FCF720F86F
S3150800B450DFF8CC0403210170002CBDE8704014BF4E
S3150800B4604FF400614FF40071001DFBF70ABF38B5B1
S3150800B470DFF8AC44002020712078032838D10BF07F
S3150800B48066FEDFF8AC542978002914BF6FF4807182
S3150800B4904FF6FF7108404FF6FE7108400BF066FE46
S3150800B4A0DFF8841409680120287000204873FFF724
S3150800B4B037FF0328BCBF07202070FDF731FC41F693
S3150800B4C0063100200BF07DFFFFF72AFF0246698848
S3150800B4D0DFF86034002000F073FEFFF721FF032831
S3150800B4E01ADB002020700021012000F08FFF13E0F6
S3150800B4F0042818BF052808D1FFF712FF01F0FBFD45
S3150800B5000020207000F0A0F806E0062804D10020EC
S3150800B5102070A078F8F7F7F8BDE83140FAF759BA7D
S3150800B52070B5DFF8FC6304463078012882B00D4612
S3150800B53013D1F7F789F800902B462246CAA10020B6
S3150800B540FCF7D8FFDFF8F0130870FF2805D00220B3
S3150800B5503070BDE87340FFF70EBB73BD70B5DFF8FA
S3150800B560C04394F90300217801298AB00BD1002140
S3150800B5702170FCF74DF8FAF771FA00200AF05BFF24
S3150800B580FAF772FA5BE002295BD1FCF741F8FAF7A1
S3150800B59065FA01200AF04FFFFAF766FA1822002129
S3150800B5A003A8F9F7FEFAE078DFF88C538DF8160051
S3150800B5B00C212878FCF746FF8DF817000123032095
S3150800B5C08DF818000DF1170200208DF81C0003A94C
S3150800B5D0DFF85803089005A8FFF758FD064600202F
S3150800B5E0FBF756FF3EB903AB02224FF44171002028
S3150800B5F000F0E6FD0646F6B928780821FCF7E7FFCD
S3150800B60006460020009008232978002201A8FCF7A6
S3150800B6102CFE2878FCF78AFDFF20287001220520D9
S3150800B620207001A9304608F028FB4FF40051201D70
S3150800B630FBF727FE03E00020207000F005F8012044
S3150800B64000E000200AB070BD00B585B000F0DFF854
S3150800B6509DF8030000F049F994231322AFA10320B3
S3150800B660FBF7CFFA9420FAF750FAFFF759FE0328AA
S3150800B67008DBAD48006840884FF6FF71884208BF6E
S3150800B680032000D00220FBF703FF05B000BD2DE91B
S3150800B690F04196B004460D461646984601270822FC
S3150800B6A005F11C0105A8F9F739FA022C08D1FFF7AC
S3150800B6B037FE032869DB0BF04AFDC00704D464E0B3
S3150800B6C0FFF72EFE032860DA288B0CF03BF8FF28DC
S3150800B6D05BD007AB424605F1100100200CF045F897
S3150800B6E0002852D10E22314601A8F9F717FABDF8FB
S3150800B6F00C00BDF80A10884204D20020ADF80A00F2
S3150800B700ADF80C00BDF80800BDF80610884204D252
S3150800B7100020ADF80600ADF80800BDF81000BDF829
S3150800B7200E10884204D20020ADF80E00ADF81000C5
S3150800B730BDF81000BDF80E30BDF80A20BDF8081097
S3150800B7400090BDF806000BF0D9FCF0B9002C34D1F6
S3150800B750A87810B9FBF76AFFA8700123AA1C291D4F
S3150800B7602846FFF793FC80B900270122002107A885
S3150800B77007F005FC0BA80BF001FD0DF141033A4655
S3150800B78041F6063140200BF0E7FD2A4621463846A9
S3150800B79008F09AFB77B9318800222846FFF72FFE72
S3150800B7A00120FBF775FEFAF759F928460AF09AFEC2
S3150800B7B0FAF75AF916B0BDE8F0810023CEE77FB54F
S3150800B7C0574915460A78042A1C461FD100220A71D1
S3150800B7D00A7010B1FFF738FF7FBD00F0EEFA064693
S3150800B7E07DB100F014F8082202A9201DF9F796F990
S3150800B7F09DF80300A070BDF80000208001F089FEC6
S3150800B8006073012231462046FFF7F9FD7FBD1023FC
S3150800B810072200A901200AF014BB30B583B00446FC
S3150800B8200D4600A801F0ABFD082200A9201DF9F776
S3150800B830BFF980B900F0C9FA218881420BD101F01D
S3150800B84068FE0146607BFFF742FC20B100222946CC
S3150800B8502046FFF7D4FD37BD80B501200BF086FCE6
S3150800B8602F490020087001BD3834310070B50446F0
S3150800B8700D461646FFF754FD032811DA2F480078BF
S3150800B88070B1AC420CD1B0070AD5284605F0E7FDE1
S3150800B89030B1007920B9BDE870402948FBF7E6BC0D
S3150800B8A070BD10237F221721F7F7A8B80246102388
S3150800B8B07F211720F7F7B3B880B50BF048FC000ACC
S3150800B8C000F0010080F0010002BD80B5FFF7F4FF2B
S3150800B8D008B1002002BD012002BD80B5FFF7ECFFCC
S3150800B8E008B1002002BD012002BD0F49096888730E
S3150800B8F0FAF745B80C480068807B704780B511494F
S3150800B900114808600BF023FCC00702D4044907203D
S3150800B910087001BD0D4908700020704742420000BA
S3150800B920982D0020FF0700F8C42B002000F8FF0719
S3150800B9305A280020A42D00205E280020C82F0020A9
S3150800B940542E0020502C0020D0B801088027002053
S3150800B9500000000000000000012070477047012029
S3150800B960704701207047000038B5FBF74DF9FBF723
S3150800B97006F8DFF874442078002840F0A7801220E3
S3150800B9800BF068FF00060BD500F0DFF8000607D5B8
S3150800B99000F0DEF8000603D500F0D4F8000610D44F
S3150800B9A012200BF057FF000614D500F0CEF800065B
S3150800B9B010D400F0CDF800060CD500F0C3F8000648
S3150800B9C008D5E0780E2861D1F6F7D4FF002800F0F4
S3150800B9D07F8032BD00F0B9F800060FD400F0B8F841
S3150800B9E000060BD500F0B4F8C00707D400F0AAF893
S3150800B9F0000603D4E0780C2845D1E5E700F0A5F861
S3150800BA00000609D500F0A4F800F08100812803D1CA
S3150800BA1000F098F800060DD500F097F800060ED449
S3150800BA2000F096F800F08100812808D100F08AF825
S3150800BA30000604D4E0780D28C6D00E28DCE700F00E
S3150800BA4084F8000610D500F083F800060CD400F040
S3150800BA5079F8000608D5E07816281CBF01281A28A8
S3150800BA60B2D00F2815D1AFE700F06FF80006ABD4B7
S3150800BA7000F06EF80006A7D400F064F80006A3D517
S3150800BA80E0781628A0D0E07801289DD0E0781A281A
S3150800BA909AD0E078022818BF1B2895D0062818BF28
S3150800BAA0072891D0082818BF09288DD00A2818BF5A
S3150800BAB0032889D0102818BF112885D0122818BF46
S3150800BAC01328FAD0142818BF1528F6D0B02032BD8E
S3150800BAD0F8F7E3FB0BF002FFDFF81003007808B174
S3150800BAE004F0E8FF04F042FCFAF748FFDFF80043E9
S3150800BAF00FF24430FBF74DFC2070DFF8F802FBF735
S3150800BB0048FC6070F9F7C6FE05466078FBF762FCEC
S3150800BB102846F9F7C5FEF9F7F5FEFBF7BEFEFDF771
S3150800BB20DBF80BF0E6FE0BF0E7FEFFF7E7FE012079
S3150800BB30F7F7D7FCDFF8C0024FF47041FBF7A1FB1B
S3150800BB40002032BD00200BF085BE10200BF082BE0F
S3150800BB5011200BF07FBE2DE9F04705F011FA05F02C
S3150800BB6073F9FAF7F9F908B9FAF7E2F9DFF88C8206
S3150800BB704046FCF7B3FD08B9FDF7ABFBDFF880924A
S3150800BB804846FCF7ABFD08B904F0E7F809F095F864
S3150800BB90F9F796FEDFF858623078FBF7E6FB70781F
S3150800BBA0FBF7E3FB0BF0AAFEDFF85852DFF858A2C2
S3150800BBB0002700240BE02046F9F755FF2868007B8C
S3150800BBC0001F022838BF0127F9F74EFF641C9AF8B0
S3150800BBD00000E4B28442EED3002F1EBF8B480078E3
S3150800BBE0002805D000F02AF8102808BF09F0CCF97B
S3150800BBF0FAF7C2FEFFF7B2FEF9F74CFE0746FAF768
S3150800BC00ABF968B14046FCF769FD48B14846FCF710
S3150800BC1065FD28B1FFF7A0FE10B13078FBF7DAFB17
S3150800BC203846F9F73DFEF9F717FF18B94FF4B4711E
S3150800BC3000F055F8F8F7FFF9BDE8F08710B5FBF7FF
S3150800BC4016FE40B105F0ADFA28B1FBF73CFD441EDF
S3150800BC50A441E40F00E00124F7F73DFD08B944F0DC
S3150800BC600404FAF779F938B16448FCF737FD18B1D6
S3150800BC706348FCF733FD08B944F0020464480078C9
S3150800BC8008B144F020046148007808B144F0100473
S3150800BC906048007808B144F04004FBF710FD08B18D
S3150800BCA044F08004FBF70DFD08B144F48074204687
S3150800BCB010BD80B52D224BA10320FAF7A2FFFBF792
S3150800BCC0D6FD18B940F29B1100F009F8F7F794FC75
S3150800BCD05148FCF70AFDBDE80140FAF752BE0FF2DB
S3150800BCE04810F8F71DBE80B5FAF74CFE2E223DA186
S3150800BCF00320FAF786FFF7F703FDF7F7F2FB474845
S3150800BD00007808B105F0F9F84548007808B105F05B
S3150800BD10B2FD4448007808B10BF0F2FCBDE80140DA
S3150800BD20FBF7D3BC38B5044636480068007BC01E0E
S3150800BD3003280BD3204605F0D5FA4FF6FF75A8421F
S3150800BD4004BF204605F054FBA84204D12046BDE8AE
S3150800BD50324004F086BB32BD70B504464FF6F87023
S3150800BD6084420D4627DA274E3CB93068007D8007A5
S3150800BD7003D428460BF058FBD8B9306841888C4262
S3150800BD8005D1011D08222846F8F7C8FE11E0007BF8
S3150800BD90C01E032808D3204607F044FBFF2803D01B
S3150800BDA0294607F063FB20B92946204604F0A0FB84
S3150800BDB008B1002070BD012070BD12480068008AD5
S3150800BDC0704710490968088270470E480068408A1B
S3150800BDD070470C490968488270470A480068007825
S3150800BDE0704700004200000096070408502800200B
S3150800BDF0CC2F0020B8B80108602F00204428002066
S3150800BE0054280020C42B002040270020042C0020A2
S3150800BE10E42B00209C2D002080280020542E002092
S3150800BE20602E0020842D00207A69676265652D736F
S3150800BE307461636B2E630000D42E0020BD58000881
S3150800BE40CC2D0020256E0008202C002021AC0008EF
S3150800BE50882E0020CD120108742F00208DD80008E6
S3150800BE60E42B00205FCB0008F02B00201DCC000837
S3150800BE70042C0020854F0108DC2B002067C1000830
S3150800BE807C2D0020014801087C2E00207BD6000866
S3150800BE90EC2E0020E5950108602E00207718010891
S3150800BEA0542E0020FB0E0108682E0020258B010861
S3150800BEB0702E0020857C0108842D0020017701085A
S3150800BEC0E42E0020157C01089C2D00206FB4000884
S3150800BED0B42B0020D3590008682F0020735C000893
S3150800BEE0602F00201DB00108BC2B0020035B000852
S3150800BEF00000000000000000DFF83C2C12681278F1
S3150800BF0082420AD019B1012A03D1022805D000209D
S3150800BF107047022A08BF0128F9D101207047DFF8C7
S3150800BF201C1C0875704710B5DFF80C4C2068407B60
S3150800BF30112804D0B6210FF21000F8F7F1FC216899
S3150800BF404120487310BD00006173736F63696174A3
S3150800BF50696F6E2E6300000080B50220F9F77AFD3E
S3150800BF60F9F781FD00F026FC001F022805D2DFF84C
S3150800BF70CC0BC17C491DC17405E04FF47A71DFF81A
S3150800BF80C00BFBF77EF900F05FBE10B5DFF8AC4BCF
S3150800BF90002060742078FF2803D0FCF7C7F8FF203C
S3150800BFA0207010BD38B504460D46FCF74BF8007CEA
S3150800BFB000F00701400800F0380000EB410000F1EE
S3150800BFC01102DFF8540C0068205CD2B282420ADA09
S3150800BFD0831ADBB20F2BA8BF0F230020009021463F
S3150800BFE02846FCF742F931BDDFF84C0B0068407B68
S3150800BFF033281CBF4328532801D10120704700204D
S3150800C00070471FB5FCF7B1FE08B3DFF8304B207850
S3150800C01000A9FFF7C7FFDFF8281B002008700DF1FD
S3150800C0200300617901F0C8F8FFF7AFFF00F010F8D8
S3150800C03000F031FA007DC00702D50BF025FE08B9DD
S3150800C0400AF05AFF0BF01FFE012001F0E3F91FBDAD
S3150800C05010B500F020FA017BC91E032906D24088D4
S3150800C0604FF6FF71884208BF032008D0FBF704FA91
S3150800C0700446FBF705FA214604F053FB0220FBF7BA
S3150800C08007FA01F029FABDE8104000F0E1BD38B51D
S3150800C090DFF8A84A2075FFF778FF00214FF6FF70F2
S3150800C0A001F083F9DFF8905A2868417B032918BF05
S3150800C0B000291DD0332918BF432913D100F019F8D8
S3150800C0C02868017BC91E032906D203214173207DF6
S3150800C0D0BDE83240F9F719BD207DF9F716FDBDE830
S3150800C0E03140B5E721214173BDE8314008F0F9BB7D
S3150800C0F031BD237D132296A10320FAF782BD10B520
S3150800C10000F054FB002048734FF6FE70FFF759FE07
S3150800C1104FF6FF70FFF75DFEDFF8204AFFF7E9FFED
S3150800C120207DBDE81040F9F7F0BC10B5044623465B
S3150800C130182287A10320FAF764FDDFF8380B0021DF
S3150800C140017114B1FF2C02D10121017007E0012110
S3150800C15000F8041BA100491C0902FBF792F800F03D
S3150800C16077FD002010BDDFF80C1B00200871DCE706
S3150800C17030B50D4689B0044668690FF27C11079000
S3150800C1802346287C06901622E8890590287B049089
S3150800C190E87A039095F90A0002902889019000959B
S3150800C1A000F076F9287B00280CBF4FF6FE70FFF7E3
S3150800C1B004FE2B46224609B0BDE830400146012060
S3150800C1C02DE9F041DFF8706980463068407B002829
S3150800C1D00F4614461D464BD1002C49D0062C47DA8B
S3150800C1E0DFF88C0A00780A2842D1F9F73EFC0028C5
S3150800C1F03ED1F9F73CFC08B1042C39DB287B03282F
S3150800C20016D14FF6FE70874214D1012C08BF0027BD
S3150800C21010D0022C2CD1FFF7D0FD4FF6FC718842C6
S3150800C22002DAFFF7CAFD01E008F0F6F8074601E072
S3150800C230012C1DD0B8F1000F0CD0287B03280CBFA9
S3150800C24001210021012C0CBF0120002006F061FB12
S3150800C25000284ED12946384600F06AFF002848D102
S3150800C260F9F7FDFBF9F7E0FB20B1F9F700FC08B197
S3150800C27070203EE03068DFF8C478407B33281EBF64
S3150800C280532800207875204600F035FF387E20B107
S3150800C290F9F7EDFB08B905F036F8287B032803D132
S3150800C2A02846BDE8F0412DE00822294607F1080096
S3150800C2B0F8F734FC287B0328A8BF00203874FFF75A
S3150800C2C064FE94203875387C316800280CBF01203C
S3150800C2D031204873002031687A7EB8740120897B42
S3150800C2E000FA01F10320FEF7B9FB10B1326800210C
S3150800C2F05173BDE8F081000042423870574242420D
S3150800C3005742440010B5044600220821FBF75CF9A1
S3150800C31008B1012010BDFFF750FD00224FF6FF714E
S3150800C32000F02EFF217C204600F046FF6269E18975
S3150800C330207C01F004F9DFF800080068007B01287A
S3150800C34008BF07F00DF8FFF783FE002010BD0000B8
S3150800C3504242000038B5DFF8E04705462068407BD2
S3150800C360002802BFDFF8080900780A2801D07020E3
S3150800C37032BDFBF7BDF9002843D12DB1022229466B
S3150800C380DFF8280BF8F7CAFB00A800F0DAFF08B1B7
S3150800C390932032BD9DF8003014221BA10320FAF722
S3150800C3A030FC00F051FF68BB9DF8000000F0A3FECA
S3150800C3B02068007B012818BF022806D0C01E032863
S3150800C3C00FD2002000F0FDFF58B100F054FF20689E
S3150800C3D0007BC01E032838BF08F080FCFFF738FE34
S3150800C3E00FE02168132048730020DFF8501788747F
S3150800C3F005222168897B012000FA01F10520FEF754
S3150800C4002DFB002032BD000042420000FF222DE92C
S3150800C410FC41044600F03FF80D46017B0129904691
S3150800C42025D0407B022818BF032820D1FBF71DF929
S3150800C430DFF808777A7E29460320FEF70FFB060009
S3150800C44016D13320FBF724F8FFF79FFDFFF7BDFC55
S3150800C450F880002C14BF02200120387407F1080068
S3150800C46000F08DFF0020B87487F8158000E070266C
S3150800C4700196009523462C220FF20C0100F008F8CD
S3150800C4803046BDE8F6810000424244420000000002
S3150800C4900320FAF7B6BBDFF8A0060068704738B580
S3150800C4A00446FBF7CFFD05462046FCF752F944192A
S3150800C4B02046FDF79BFE4FF6FF5101402046BDE89A
S3150800C4C03440FDF79ABE70B584B0FFF776FCDFF806
S3150800C4D06C46064620780B21FCF71AF9002100F075
S3150800C4E064FFDFF85456FBF787F858B11EB14FF6CC
S3150800C4F0F870864206DB07F08FFF064628684088F4
S3150800C5008642F8D03046FFF75CFC20780921FCF714
S3150800C510FFF8FFF75EFC2E68307B052813D100F084
S3150800C52039FF8DF8080002AB207C00280CBF4FF4B9
S3150800C530804244F20102012000904FF48061708825
S3150800C54003F02CFB0FE006208DF8080000F022FF10
S3150800C5508DF80900022300200190009002AA708835
S3150800C560012105F06EFF0646FF2E08BF002011D0F8
S3150800C570286841883046FCF728F9207C02281CBF29
S3150800C5803046FFF78CFF00F044F804463046FBF7C8
S3150800C590CDFD204604B070BD70B586B00C46164673
S3150800C5A01D4638B92046F9F78DF902AA03A904F001
S3150800C5B09EFE03A807218DF808100190310A8DF810
S3150800C5C00A1001200A998DF80B1000908DF8096061
S3150800C5D0042300F0BBFA0646FF2E18D02146FCF7C6
S3150800C5E0F4F815B93046FFF75AFF0B9808B93046E4
S3150800C5F00DE0204604F07DFE18B13046F9F754F9EF
S3150800C60001E000F006F83046FBF790FDFF2006B083
S3150800C61070BD002200231146304604F079BD2DE98D
S3150800C620F64F83B004461E4600274FF6FF7556B1EF
S3150800C6304FF0010B304605F042FF814670784008FE
S3150800C64000F0010A05E0BB461046FCF725F98146CD
S3150800C650BA4600F0AFF8C01E0328C0F0A2800E98B4
S3150800C660411C9DF81000C9B2FBF7ECFE804608F0A5
S3150800C670020002909DF80C0020B95FEA086058BFD6
S3150800C68048F08008FFF707FF407B022804D1DFF84F
S3150800C690E4050078204301D102271EE04846FFF74B
S3150800C6A041FB9DF80C1019B1651EAD41ED0F00E078
S3150800C6B00025BBF1000F1CBF301DFDF797FD0121BA
S3150800C6C000912B4601464246484604F009FE0546B7
S3150800C6D04FF6FF70854208BF0127D6B11CB94FF641
S3150800C6E0FF70854204D1301DFDF780FD014600E04C
S3150800C6F0294601200190009753462A464846FFF7E7
S3150800C7004BFF029850B94FF6FF71484604F0CCFF2C
S3150800C71004E03A462946484601F01EFB002F40D160
S3150800C7200298E8B14946284604F0E1FF0E2101FBCC
S3150800C73000F700F03BF8896A79184A7942F0400216
S3150800C7404A7105F007F8FFF7A6FE806A38185FEA0F
S3150800C750486241794CBF41F0800101F07F01417187
S3150800C760FEB1DFF8A86C9DF810003070FFF725FBC6
S3150800C7705FEA48610FF22C0C48BF0CF1010CBAF1C4
S3150800C780000F18BF0CF1020C02D10CB90CF1040C05
S3150800C79001469CF800004B462A460BF077FAFF2024
S3150800C7A03070B0E00307000401050000DFF88813C5
S3150800C7B009687047DFF880030068007B70472DE939
S3150800C7C0F04F0446884685B091464046FBF7CBFFB6
S3150800C7D0DA4D297C824601B10121D74E8DF8041025
S3150800C7E03068007B05280CBF012700273CB150465E
S3150800C7F005F065FE8346504605F054FE05E04046C2
S3150800C800FCF74AF88346DFF8080C03900423002057
S3150800C81000904A46414602A8FBF727FD0DF109009C
S3150800C820FDF7E4FC9DF80B908046CCB10398DFF841
S3150800C830E01B0822F8F7BCF9002862D100F08BF952
S3150800C84008BFB9F1000F0BD14046FFF7BAFA0AF054
S3150800C85053FB9923FFF74EFC9920F9F756F950E058
S3150800C860FAF7CAFE00284CD09DF80400384301D0D8
S3150800C87014B946E0002C44D1B9F1000F03D0942036
S3150800C880FFF705FC3DE030684088594604F02FFF65
S3150800C89004F060FF306841885A46404600F070FC54
S3150800C8A03068417B012916BF312911214321417383
S3150800C8B00220F9F7CEF8A24F40F6B8313846FAF713
S3150800C8C0E0FC08F00BFA0020E8743068C17E19B95C
S3150800C8D03846FAF7CBFC11E034B19AF8011089070B
S3150800C8E002D5FFF78EFB09E0007B001F022805D260
S3150800C8F005213846FAF7C5FC0620E874AD20FFF78F
S3150800C9000EFBF9F766F805B0BDE8F08F2DE9FE4F86
S3150800C9108046FBF728FF0446FBF76AFF05462F19F2
S3150800C9204046FBF716FF2844C5B24046FBF7B4FF5E
S3150800C930834638780090FAF78FFE00281CBF0098C7
S3150800C940072816D10098DFF8F4A17B4EEC1C0128C5
S3150800C9504FF6FF790ED0022814D0042800F0BE80C6
S3150800C960062815D0072863D0082821D07C2800F08F
S3150800C9707F80DEE000210095002342460846FFF747
S3150800C9804EFED6E02A4641460020FFF718FFD0E0C3
S3150800C990584604F0A7FC484503D00146584601F01E
S3150800C9A08CF900F0D8F802D15846FAF739F9C0E000
S3150800C9B0691C00F0C7F80746E1B200F0C4F804465F
S3150800C9C0A91D00F0BFF805464D45F0D008F086F9D8
S3150800C9D03068407B132808D100F04DFC4046FBF731
S3150800C9E05BFF0146204604F082FE00F0B4F818BF4B
S3150800C9F013281CD12846FFF7E4F93846FFF7E9F96A
S3150800CA000021002000F0D8FB5946204600F0CDFC56
S3150800CA109AF80300DFF85C1A087000F019F9306814
S3150800CA20417B132903D123214173FEF7A4F880E043
S3150800CA3000F091F802BFDFF8404A2078002878D144
S3150800CA40F9F716FB05469AF9191001208840C0EB3C
S3150800CA50001B1FFA8BF60020F8F7FBFF95FBF6F094
S3150800CA6006FB1050411C89B22046FAF70AFC60E022
S3150800CA707878652804BFB8786D285AD16648006862
S3150800CA8018F80000E4B2844253D20822594601A895
S3150800CA90F8F744F800AB00222146404605F0BCFBF7
S3150800CAA0002846D19DF80000FF2842D0DFF8CC497F
S3150800CAB0DFF858590120207085F80080F8F7CEFF76
S3150800CAC001A89DF80010FAF7A2F8F8F7CDFFFF20A5
S3150800CAD02870002020709DF8000028E04046FBF7EB
S3150800CAE0F8FE0446DFF898090078FE2809DB404678
S3150800CAF0FBF743FE000B00F001012046FAF78AF81F
S3150800CB0017E00FF6D0100088ADF8080002230020C1
S3150800CB100190009000F01AF80546FF2D09D021462D
S3150800CB20FBF753FE00212846FAF7EEFD2846FBF7E9
S3150800CB30FDFABDE8F78F0000C42B00200828002066
S3150800CB40E42B0020C9B24046FBF734BD02AA0121F6
S3150800CB50204605F076BC3068407B0228704770B5E1
S3150800CB600220F8F777FFF8F77EFFDFF81859DFF8A5
S3150800CB70186900202870FCF7F8F828B13068C07EDC
S3150800CB8010B9FFF73EFA3EE0DFF80049FCF7EDF88A
S3150800CB9010B9FAF731FD58B1E07C48B1C8212846EA
S3150800CBA0FAF76FFBE07C401EE074FAF7E2FD2AE034
S3150800CBB03068407B132809D0FAF71EFD30B9306873
S3150800CBC0407B11281CBF4328412803D1207DFFF74D
S3150800CBD05EFA18E0022818BF032803D0002818BFF9
S3150800CBE0212810D10024DFF8A85808E02046F8F7D5
S3150800CBF03AFF002000F00EFCF8F736FF641C287890
S3150800CC00E4B28442F2D3BDE87040F8F72DBFDFF8EE
S3150800CC107C180020C87470470827002080B50020BB
S3150800CC20F8F718FFF8F71FFFDFF84C180020087010
S3150800CC30DFF854080068417B022905D1007BC01E35
S3150800CC40032828BF01F0A7F8BDE80140F8F70CBF94
S3150800CC5080B5F8F717FFFF2804D00648007810B10A
S3150800CC60012000E00020DFF82C18087001BD000044
S3150800CC7041280020D82B00202DE9F04F0446DFF884
S3150800CC80180800688DB0205C00902046FBF7DAF99A
S3150800CC900646B01DFDF7AAFA074606F10900FDF794
S3150800CCA0A5FA814606F10B00FDF7A0FAADF80A00D1
S3150800CCB006F10D00FDF79AFA8346C00B8DF80800B9
S3150800CCC0FAF7CAFC18B12046FAF7F6FCEAE008A912
S3150800CCD02046FFF767F908AEDFF8AC57B078C0F31F
S3150800CCE0C3000390707800F00F0A0098202828687F
S3150800CCF0407BACBF9DF82E804FF00008022812D169
S3150800CD00FFF763F881450ED104A800F038FB0098B8
S3150800CD101C2806DB08220DF1230104A8F7F748FFB3
S3150800CD2008B100F040FDB7F5004F02BF2BF44040B4
S3150800CD3040F6FF718842C9D100981C28C6DB00223C
S3150800CD4008210DF12300FAF73FFC002839D1DFF856
S3150800CD504C070078012830D19DF808000FF26C7155
S3150800CD600090CDF804A04B462722FFF791FBDFF889
S3150800CD70300700788DF81200ADF810908DF81CA0D9
S3150800CD808DF81D8008229DF808008DF813000DF116
S3150800CD90230105A8F7F7C2FE2868DFF87076407BFE
S3150800CDA001281CBF33283C70F8F758FE04A8FBF787
S3150800CDB099F8FF203870F8F757FEDFF8D076B87C78
S3150800CDC000286FD1FAF718FC00286BD00120787478
S3150800CDD00022082107F10800FAF7F6FB10B1F888D7
S3150800CDE0814508D008220DF1230107F10800F7F75D
S3150800CDF0DFFE002856D19DF8080028B92868407B30
S3150800CE00312818BF33284DD101215046FFF774F851
S3150800CE10002847D09DF82000002802BF7078000936
S3150800CE2002283FD12868017BB278022902D150072F
S3150800CE3009D437E0120606D405291EBF4088BDF876
S3150800CE400A1088422ED13878DFF85856DFF8586627
S3150800CE50FF2813D0787980450BD197F9020096F907
S3150800CE60001088420ADB1DD178782978884205D3D4
S3150800CE7018E0A8EB0000C0B2812813DAFFF785F89E
S3150800CE803C702046FBF744F9287878703078B870FB
S3150800CE9003980F28B4BF401C0F20F87087F804A029
S3150800CEA087F805800DB0BDE8F08F0000EC2B002058
S3150800CEB02DE9FF410546DFF8D44501200E46174601
S3150800CEC0A074FEF74BFB002813D1A846B8F1010F52
S3150800CED018BF002D0ED1009733462622B5A1FFF7BD
S3150800CEE0D7FAF8F7BBFD39463046FBF710F8F8F7DE
S3150800CEF0BBFDA4E0FAF7B0FB28B13A46314628460E
S3150800CF00FAF7D9FB9BE0DFF880552868407B232891
S3150800CF100BD1FAF7B1FA0446FAF7B2FA214603F04A
S3150800CF2000FC0220FAF7B4FA89E0002FFCD1212888
S3150800CF301CBF0428532802D107F0D3FC7FE0FAF778
S3150800CF405BFB00285BD02678FF2E05D1607C002885
S3150800CF500CBFAB20942066E02868007BC01E03281F
S3150800CF6089412079C90FFEF7C7FF08B998205AE00A
S3150800CF70F6F77FFB05213046FBF7E5FB2968887342
S3150800CF80F8F727FD207C68BB2868007B052829D090
S3150800CF9000F000FA074609213046FBF7B9FB804640
S3150800CFA00B213046FBF7B4FB3A46414600F0B9FE82
S3150800CFB0E0B99420FEF7B3FF0220F8F74AFD296886
S3150800CFC0DFF8C0044A7B012A07D0312A18BF332A62
S3150800CFD00ED1097B091F02290AD2C821FAF751F98D
S3150800CFE003200AE0FFF76FFA0028E2D194201AE03E
S3150800CFF04FF41671FAF745F90020E0741FE0286827
S3150800D000407B132815D100F017F9BDF80000FEF78C
S3150800D010E0FE00F030F92868017BC91E032905D215
S3150800D020332141739620FFF732F808E0FFF710F82E
S3150800D03005E0B8F1020F04BF30460AF052FD4FF47E
S3150800D040006004F049F910B904F0B3F808B1F9F72B
S3150800D050CFFEBDE8FF811FB5044600208DF800000D
S3150800D060FFF719FA007840F020008DF80100FAF76A
S3150800D070F3FA18B12046FAF729FB3AE00DF1030056
S3150800D08000F07DF90322FF210DF10B00F7F789FD6A
S3150800D09000F03FFA8DF80E00DFF81014DFF8E00311
S3150800D0A0DFF80C240078DFF80C34097812781B783E
S3150800D0B0FE28A8BF0020091A9B1A9042B4BF101A6E
S3150800D0C00020DFF8B0231278DBB2C0B2D200C01855
S3150800D0D0C9B242F004028842B8BF42F080028DF815
S3150800D0E0022000A90F222046FBF729F9401E80419D
S3150800D0F0C00F04B010BD38B5DFF88C530446286855
S3150800D100017BA14203D004732046F8F7FBFC24B147
S3150800D1102868007B001F022805D2F8F76CFCFF2858
S3150800D12008BF012000D00020BDE83240F6F7EBBA70
S3150800D13038B50D460446E87A0B38102801D38A20FC
S3150800D14032BD95F90A00FAF763FA08B18B2032BDA9
S3150800D150CD48E97A026891730068A97AC1732046B6
S3150800D160FEF72FFE4FF6FE7084420CBF4FF6FF7097
S3150800D1702889FEF72EFE2889C449C880002032BDBA
S3150800D18038B50C461546FEF71CFE07F019F9294670
S3150800D190204600F00AF9BD480178FF2918BFC07873
S3150800D1A005D1FFF707FB01280CBF00200120B14974
S3150800D1B0087031BD424242007FB504460D4600F074
S3150800D1C03BF8B14E94B1BC4A0021284600F0B7F9A5
S3150800D1D0306801788DF804100822007B8DF8050068
S3150800D1E0214602A8F7F79AFC0AF0EEF83068817B28
S3150800D1F08DF80310C07B8DF80200FEF7E6FDADF84A
S3150800D2000000FEF7DAFDADF8060000F017F87FBD5E
S3150800D2101FB5044600F010F81CB100208DF8050073
S3150800D22007E0FEF7CAFDADF80600FEF7CEFDADF83D
S3150800D230000000F003F81FBD00A833E01023072202
S3150800D24000A9002008F0FDBD00B58BB0FFF7F4FF7C
S3150800D250BDF80000ADF8180004A99DF803008DF884
S3150800D2601B009DF802008DF81A00BDF80600FFF7AE
S3150800D2705FFF0BB000BD1FB5012000F0A2F8044601
S3150800D2800AF0ADF8FFF7D8FF1CB900224FF6FF7178
S3150800D29003E0FFF700F94188021DBDF80600FFF715
S3150800D2A06FFF1FBD014610230722012008F0C9BDE4
S3150800D2B038B50820F8F7CEFB0446F8F7D4FB724DCC
S3150800D2C07E48296800788873F8F7CBFBA04208BF28
S3150800D2D0F8F755FB00210020FFF76EFF9B23FEF7AA
S3150800D2E009FF9B20F8F711FC28680021A0F84410D4
S3150800D2F0A0F84610BDE83140F8F7B6BB80B5A0F1F6
S3150800D3000B01102901D38A2002BDFFF74FFA497B8A
S3150800D310022918BF032901D0702002BD6749087089
S3150800D3200820F8F796FB00216548FAF777FA20B146
S3150800D330012808BFFFF7BCFF01E0A12002BD0020BD
S3150800D34002BD1FB50446FAF787F918B12046FAF761
S3150800D350ABF912E000A8FFF7A5FF9DF8050040B15C
S3150800D360062806DAFFF722FA9DF804200978914282
S3150800D37001D0932001E02070002004B010BD1FB535
S3150800D380044600A8FFF78EFF082202A92046F7F7F1
S3150800D390C5FB1FBD4B48007800B140203A4A4A49B0
S3150800D3A01268127B515C08437047374A13685880E5
S3150800D3B019B90822181DF7F7F4BB0822181DF7F744
S3150800D3C0ADBB10B504462F48007AC00784B011D506
S3150800D3D00A230A2200A9012008F033FDBDF8080037
S3150800D3E04FF6FF71884205D00822FF2100A8FAF7F8
S3150800D3F0EBF808B1002006E024B1BDF8080000A942
S3150800D400FFF7D3FF012004B010BD00003828002024
S3150800D410F82B002070B51B4D0446287AC00784B047
S3150800D4200CD5194E306841884FF6FF72914207D1E4
S3150800D43000220821001DFAF7C7F808B1002017E0F6
S3150800D44044B10220F8F705FB4FF4F0412846F9F7F6
S3150800D45018FF0CE030684188ADF808100822011D55
S3150800D46000A8F7F75BFB0A230A22FFF7E9FE01206B
S3150800D47004B070BDE82F0020F02B0020CC2B002034
S3150800D480AA2F0020E42B0020C42B00200828002007
S3150800D49040270020EA2F00200827002041280020E6
S3150800D4A0DD2F0020DB2F0020DC2F0020772700202F
S3150800D4B0C92F0020C82F002000F8FF07C52F00201D
S3150800D4C0B1D20008CEB80108C4B801084257424292
S3150800D4D00000000004600000DFF840130020087117
S3150800D4E04FF6FF70CE490880704730B583B00446C2
S3150800D4F00D460823092200A9012008F0A2FC14B150
S3150800D5009DF8060020700DB100982860BDF804004B
S3150800D5103EBD80B5002100A8FFF7E7FF9DF8000093
S3150800D52002BD10B582B0044600A90020FFF7DDFF52
S3150800D530009A0146204600F002F8204616BD00B5BE
S3150800D54083B08DF80600ADF804100092082309226E
S3150800D55000A9002008F075FC07BD2DE9F04786B044
S3150800D560804604F08DFF0546AE48006818F800901E
S3150800D570002000900A232A46414602A8FAF775FEBB
S3150800D5809DF8080005F10A0409280CBF01250025A5
S3150800D5909DF80900E021084268D100A8FFF7EFFED0
S3150800D5A008220DF10A0100A8F7F702FB00285DD151
S3150800D5B0002D4ED000F01AF9002857D0984D28882B
S3150800D5C04FF6FF7A50451CBF4FF6FE7188424DD183
S3150800D5D0924F954938780978001D3870491E890098
S3150800D5E0C0B2814242DA00203870F8F741FD28803F
S3150800D5F0264607E031464046FAF7DCFF2988884286
S3150800D600F3D0B61CF6B2A9F101008642F2DB2888EF
S3150800D610002818BF5045E8D0FEF7D7FB2988814275
S3150800D620E3D0FFF776FF401CC0B2FFF77AFF01464A
S3150800D6302A880A2000F050F840B14FF47A71381D54
S3150800D640F9F71FFE0C20F8F704FA0FE0A5F800A07A
S3150800D6500CE0E1B24046FAF7F5FEFFF762FF611CFF
S3150800D660C9B24046FAF7A6FF00F07FF87AE06B48A1
S3150800D670017809B1491E0170704738B5674900201D
S3150800D68008710C20F8F7E6F9F8F7EDF9674800682D
S3150800D690407B022818BF03281AD1614C20884FF610
S3150800D6A0FE724FF6FF7590420CBF2580A8420FD038
S3150800D6B0FEF78FFB258000210020FFF77DFD9A23CA
S3150800D6C0132255A10320F9F79CFA9A20F8F71DFAB8
S3150800D6D0BDE83140F8F7C8B92DE9F04705460026F8
S3150800D6E0092D0C460CBF01270027002186B091465C
S3150800D6F00846FFF7FAFE8DF80850804602AD01206D
S3150800D70068700DF10A00FFF73AFE0DF1120A17B913
S3150800D710AC720DF1130A49465046FCF76EFD0AF144
S3150800D72002000FB94FF6FF7802A9431A0196009630
S3150800D730DBB202AA6421404604F083FE0446FF2CAD
S3150800D7400FD03FB100F052F820B12046FFF705FF91
S3150800D750012603E02046FBF715FB06462046FAF7A6
S3150800D760E5FC304606B0BDE8F08738B504464FF606
S3150800D770FF75AC4216D0FEF728FB844212D0284823
S3150800D7800188A9421CBF4FF6FE7291420AD1048055
S3150800D7904FF47A712648F9F774FDBDE832400C203B
S3150800D7A0F8F757B931BD21480068007B001F0228E9
S3150800D7B000D2704738B51A4C20884FF6FF71884258
S3150800D7C013D1FEF702FB05464FF470411848F9F7E6
S3150800D7D058FD0C20F8F73DF94FF6FE7020802A46D2
S3150800D7E0BDE838400021092076E731BD10B50F485D
S3150800D7F00068007B001F02280AD3FEF7DEFA0446FB
S3150800D80000210020FFF771FE844201D1012010BDDE
S3150800D810002010BD0000000042420000782E0020C3
S3150800D82074280020082700207F270020C42B00200A
S3150800D8307C2E002070B5044601214FF4807003F059
S3150800D84049FDC8B1984E994D3078FF2807D02878F9
S3150800D850C00748BF00F003F93078FAF767FC347060
S3150800D860002028702046FAF753FC91480188281DA5
S3150800D870BDE87040F9F705BD70BD8C490A7842F0DD
S3150800D880010208B142F002020A70704738B5864DA7
S3150800D890864C2878FF280ED000214FF4807003F0BC
S3150800D8A019FD2078C00748BF00F0D9F82878FAF79C
S3150800D8B03DFCFF2028700020207131BDF8B50025F9
S3150800D8C0784E7C4F00E06D1C3878EDB2854217D251
S3150800D8D030682C4630F814100805F4D5284600F0B0
S3150800D8E058F8FF28EFD0316831F814204FF2FF734B
S3150800D8F01A4021F8142000216F4A1268A154F2BD7B
S3150800D9006E490020088003F072FC0446FF2C18BFFD
S3150800D910FAF7FEFB2046F2BDF8B5044667480688C6
S3150800D9200D460021018096B32046FAF77CFFB0F534
S3150800D930006F2CD12046FAF79AFF0746F7F7C2FF81
S3150800D940FF2824D035B15749096831F810203243E9
S3150800D95021F81020402E14D0B6F5807F17D15248F2
S3150800D9600078844211D14FF6FF718F420DD0FAF735
S3150800D9702CFF4FF4827003F0AFFC30B9FFF786FF37
S3150800D98003E015B921460AF0DEFB0120F2BD0020AE
S3150800D990F2BD2DE9F04381464948006883B04C46FC
S3150800D9A030F814800F46FF25F8F725F84549097819
S3150800D9B0884251D2F8F757F8B8050FD478051CD520
S3150800D9C006F02AFD024600200190009001234146F8
S3150800D9D0FEF7E2FD05464FF480602FE04FF6FF7232
S3150800D9E041460E2006F086FE0546FF2D32D04146FA
S3150800D9F0FAF7EBFE4FF4007020E02B4E3078FF2844
S3150800DA000BD0F90509D54146FAF7DFFE3078FAF763
S3150800DA107FFB35784FF4807010E0780606D5002134
S3150800DA2048460AF092FB0546402007E0380611D51D
S3150800DA30012148460AF089FB05468020FF2D09D0BA
S3150800DA401E4908801749096831F8142022EA00009F
S3150800DA5021F81400F8F708F82846BDE8FE837FB5D4
S3150800DA60114C2078FAF798FB05462078FAF77BFEE2
S3150800DA70801CFCF7BBFB0646207801A904F08FFD45
S3150800DA80F7F7ECFF0948007880074CBF00206620AE
S3150800DA9000902B4601AA31460420FAF7B7F9F7F7A2
S3150800DAA0E3FF7FBD2427002086280020702F002052
S3150800DAB07A2700202027002028270020822B0020F4
S3150800DAC01C2700204027002000B587B041F40061DC
S3150800DAD08DF81420120A8DF815200C9A04920B9AC8
S3150800DAE003920A9A0292099A0192089A009205AA42
S3150800DAF000F002F807B000BD2DE9F14F82B00C46E0
S3150800DB0004F44040009015469DF808000F9AFF2837
S3150800DB1007BF0126082000260C20984604F4406A10
S3150800DB200021FAF7DDFEBAF5006F81460CBF022721
S3150800DB300827B9F1FF0F59D0FAF784FA8346484601
S3150800DB40FAF711FE0EB944F0030400F8014B210A56
S3150800DB5000F8011B461CBAF1000F05D006F8018B28
S3150800DB604FEA182006F8010B3A4629463046F6F7DA
S3150800DB70D5FF0098BD19F8B1600605D40C9805F8CC
S3150800DB80010B000A05F8010B0098B0F5004F03D009
S3150800DB90B0F5404F0AD00FE0FEF70FF905F8010B74
S3150800DBA0FEF70BF9000A05F8010B05E00822A04963
S3150800DBB02846F6F7B3FF0835A5EB0B01C9B2484668
S3150800DBC0FAF746FA9DF80800FF2825D0012202A98F
S3150800DBD04846FAF7B4FB30B90D9971B10E9A484622
S3150800DBE0FAF7ADFB48B14846FAF7A0FA9DF80800DF
S3150800DBF004280CBFFF2018201AE09DF80800042806
S3150800DC0008BF484614D0022806D14846F7F74CFE06
S3150800DC10441EA441E40F04E010994846F9F774FD40
S3150800DC2004464846FAF782FA002C0CBF3920002031
S3150800DC30BDE8FE8F00B585B000F018F80093002007
S3150800DC40029001901A464FF4404106200AE000B5BA
S3150800DC5085B000F00BF81A4600200290019000905B
S3150800DC6000210720FFF730FF05B000BD0220049011
S3150800DC704FF6FF73FF200390704710B586B0FEF786
S3150800DC80A4F80446FEF799F84FF6FE718842B4BF29
S3150800DC9048F260014CF26001012004902346FF20FF
S3150800DCA00390002002900190009062480068428824
S3150800DCB00420FFF709FF06B010BD30B587B004464B
S3150800DCC00D46FEF782F88DF81400FEF77EF8000A76
S3150800DCD08DF81500FEF771F88DF81600FEF76DF849
S3150800DCE0000A8DF81700F9F7A1FC8DF818008DF8D1
S3150800DCF01950280A8DF81A00FEF767F801210491D1
S3150800DD000090FF2103914FF6FF73072102912246E7
S3150800DD1005A9019108204FF44C41FFF7EDFE07B025
S3150800DD2030BD34B50D4686B004460021FFF73DFBED
S3150800DD30012004902B46FF200390224601200290E2
S3150800DD404CF6200106A801904FF6FF7000900120BE
S3150800DD50FFF7BAFE07B030BD10B586B00446080A0C
S3150800DD608DF814108DF815008DF81620FEF72DF88D
S3150800DD70002104910346FF210391224603210291C3
S3150800DD80022005A90191002100914CF66041FFF798
S3150800DD90B3FE06B010BD70B584B0FF220021002086
S3150800DDA0FAF79EFD0446FF2C40F6FF753DD0214844
S3150800DDB00068007B01282048007808BF44F6FF75F4
S3150800DDC008B145F4004500208DF8000000AE80201B
S3150800DDD07070FDF7FAFF8DF80300FDF7F6FF000AED
S3150800DDE08DF80400FDF7E9FF8DF80500FDF7E5FF5E
S3150800DDF0000A8DF806000B22FF208DF8070000A9FF
S3150800DE00280A307200208DF809008DF80A0020468D
S3150800DE10FAF795FA2046FFF71EF918B101212046B0
S3150800DE20F9F772FC2046FAF781F97FBD0000000079
S3150800DE30F82B0020C42B0020EA2F00200120704771
S3150800DE40002070477047B52070477047704700201C
S3150800DE507047002070470020704700207047002058
S3150800DE6070470020704700207047704770470020B1
S3150800DE707047012070470120704700207047002036
S3150800DE807047002070470020704770470020704791
S3150800DE90704700207047B5207047704700207047CC
S3150800DEA07047002070470020704700207047002008
S3150800DEB070470020704700207047002070470020F8
S3150800DEC070477047B520704700207047002070479C
S3150800DED000207047704770477047704700207047AA
S3150800DEE0704770470020704730B522480168002007
S3150800DEF0002201249440CBB2234213D00FF28400AF
S3150800DF001D4C30F8120006284CF23C324FF20F0333
S3150800DF101DD16088984216D12188080A0B2812DA82
S3150800DF20084612E0521C92B2082AE2D31349088125
S3150800DF3040F201720889904204D11148D0E90023C1
S3150800DF40C1E9002330BD4FF4C0606280EEE740F2BD
S3150800DF500725A84201BF618899422188A942E5D1CF
S3150800DF6062800846E2E705480089000A70470348C8
S3150800DF70008970472C000040000000206829002016
S3150800DF8090000020010402040103010506000702AF
S3150800DF90030901092DE9F04FDFF884538046A86B81
S3150800DFA0410785B007D5296C2F6D0FF2843603918A
S3150800DFB00024A14607E0E96B0FF27C36EF6CDFF828
S3150800DFC0649303916C6D00074CBF0FF274320FF225
S3150800DFD07832B9EB040A07D064204FEA5A0100FBED
S3150800DFE00710B0FBFAFB01E04FF0000B03980FF2A5
S3150800DFF060310290CDF80490009433464046FCF711
S3150800E000F9FC1FFA8AF0019000961FFA8BF3BAB250
S3150800E0100FF26C314046FCF7EDFC95F838004007E6
S3150800E0200CD4AAF19800874208D1686DBE49884287
S3150800E03004D20FF288314046FCF7DCFC0398814590
S3150800E04028BFA04205D232460FF29C314046FCF763
S3150800E050D1FC4046F8F7A9FC286EE8B10FF2A831C2
S3150800E0604046FCF7C3FC0026A8A70FF25074286E9A
S3150800E070F040C00707D554F82620107818B139465D
S3150800E0804046FCF7B3FC761C112EF0DB404605B083
S3150800E090BDE8F04FFCF7A4BC404605B0BDE8F04F1C
S3150800E0A00FF29431FCF7A6BC2DE9F0479C4F0FF20E
S3150800E0B08C590FF2A4560FF28C680FF2044A0446E4
S3150800E0C007F14405FFF753FF40F20151401A16D0F5
S3150800E0D0401E17D040F2FF11401A35D04FF4407158
S3150800E0E0401A39D0401E53D0401E73D0401E00F04F
S3150800E0F0B080401E00F0C880401E06D0C2E00FF275
S3150800E100503142E00FF28831C0E0E86C012806D0B1
S3150800E110032807D0042807D0052808D00AE00FF2FC
S3150800E120BC3608E07AA606E00FF2B83603E00FF22E
S3150800E130BC3600E077A60FF2BC3100F0B0F82B6DC4
S3150800E1400FF2D831324603E02B6DEA6C0FF2E43158
S3150800E1502046FCF74FFC90E00FF2F43100F09FF8F0
S3150800E160686AC0F3400018B10FF2FC3100F097F866
S3150800E170686AC0F3807018B10FF2284100F08FF872
S3150800E180686AC00F79D00FF2504100F088F874E041
S3150800E1900FF2804100F083F895F8200010F0030F85
S3150800E1A001D000F07FF8286AC0F3C01018B1EA6AF7
S3150800E1B0494600F079F80027286AF840C00705D5CF
S3150800E1C000F069F810B1314600F06EF87F1C082F90
S3150800E1D0F2DB52E00FF2884100F061F800F062F8D5
S3150800E1E0286AC0F3802018B10FF28C4100F057F866
S3150800E1F0286AC0F3C03018B1EA6A494600F054F8F4
S3150800E2000827286AF840C00705D500F044F810B179
S3150800E210314600F049F87F1C102FF2DB95F82000F4
S3150800E220000603D10FF2984100F039F801270FF2E2
S3150800E230C0460FF27858286BF840C00705D500F09D
S3150800E2402AF810B1314600F02FF87F1C042FF2DBB4
S3150800E25013E00FF2A44100F022F800F023F810278B
S3150800E260286AF840C00705D500F015F810B1314600
S3150800E27000F01AF87F1C1A2FF2DB2046BDE8F0479B
S3150800E280F8F793BBBDE8F0870FF2884100F007F86E
S3150800E29000F008F8F1E758F827201078704720466C
S3150800E2A0FCF7A8BB7A6C51462046FCF7A3BB2DE9C0
S3150800E2B0F0478046DFF874A00FF244560FF278490B
S3150800E2C0002515A715A406E04046FCF78FFB404637
S3150800E2D0F8F76BFB6D1C3078A8B15AF8043B324648
S3150800E2E049464046FCF782FB16F8010B0028FBD18D
S3150800E2F0307800281EBFEDB205F00300032814BFCE
S3150800E30021463946E0E7BDE8F08700002025700081
S3150800E310414443003F3F00000D0A00002C20000046
S3150800E320000000200027002098000020040000209C
S3150800E33070726F63657373006D61696E000000002B
S3150800E340546872656164000048616E646C657200A9
S3150800E3502570206D6F6465207573696E672025705A
S3150800E36020737461636B202825347820746F202508
S3150800E3703478292C205350203D202534780000007D
S3150800E3802575206279746573207573656420282560
S3150800E3907525252920696E20257020737461636BA5
S3150800E3A020286F7574206F6620257520627974653C
S3150800E3B07320746F74616C290000000053746163E4
S3150800E3C06B205F6D61795F2068617665207573657E
S3150800E3D06420757020746F203130302525206F66D3
S3150800E3E020746F74616C2E005350206973206F750A
S3150800E3F0747369646520257020737461636B207279
S3150800E400616E676521000000496E746572727570E9
S3150800E41074732061637469766520286F7220707240
S3150800E420652D656D7074656420616E642073746112
S3150800E430636B6564293A00004E6F20696E746572D5
S3150800E44072757074732061637469766500000000E4
S3150800E45052657365742063617573653A20576174F4
S3150800E4606368646F6720657870697265642C206ECE
S3150800E4706F2072656C6961626C652065787472617B
S3150800E48020696E666F726D6174696F6E00000000B8
S3150800E49052657365742063617573653A20576174B4
S3150800E4A06368646F67206361756768742077697449
S3150800E4B06820656E68616E63656420696E666F00C4
S3150800E4C0496E737472756374696F6E2061646472E1
S3150800E4D06573733A202534780000000053433120D1
S3150800E4E0527800004D4143205278000053433220B1
S3150800E4F05278000052657365742063617573653AD6
S3150800E50020444D412070726F74656374696F6E2084
S3150800E51076696F6C6174696F6E000000444D413A0C
S3150800E5202025702C20616464726573733A20253443
S3150800E5307800000052657365742063617573653AE7
S3150800E540204173736572742025703A2564000000B3
S3150800E55052657365742063617573653A2048617204
S3150800E56064204661756C7400484653522E564543DE
S3150800E5705454424C3A206572726F72207265616417
S3150800E580696E6720766563746F72207461626C6564
S3150800E59020666F7220616E20657863657074696F96
S3150800E5A06E000000484653522E464F524345443AA1
S3150800E5B020636F6E666967757261626C6520666155
S3150800E5C0756C7420636F756C64206E6F742061635C
S3150800E5D07469766174650000484653522E44454274
S3150800E5E055474556543A206661756C742072656CB9
S3150800E5F06174656420746F206465627567202D20D8
S3150800E600652E672E2C2065786563757465642042CF
S3150800E6104B50540052657365742063617573653A8F
S3150800E620204D656D6F7279204D616E6167656D6508
S3150800E6306E74204661756C7400000000496C6C6548
S3150800E64067616C20616363657373206164647265D6
S3150800E65073733A2025347800434653522E257000AA
S3150800E66052657365742063617573653A20427573E4
S3150800E670204661756C74000041646472657373208A
S3150800E6806973206F6620616E20696E737472756394
S3150800E69074696F6E20616674657220627573206690
S3150800E6A061756C74206F636375727265642C206E75
S3150800E6B06F74207468652063617573652E000000A9
S3150800E6C0434653522E286E6F6E6529206C6F61641F
S3150800E6D0206F722073746F726520617420616E20DA
S3150800E6E0696C6C6567616C2061646472657373003C
S3150800E6F0414653522E257000526573657420636136
S3150800E7007573653A205573616765204661756C7443
S3150800E7100000000052657365742063617573653A7D
S3150800E720204465627567204D6F6E69746F72204666
S3150800E73061756C74000000002570203D2025347832
S3150800E7400000000074B00108B4B00108ECB001087C
S3150800E750F0B0010834B10108ECB00108ECB00108CA
S3150800E76070B10108A0B10108D0B10108F4B10108DF
S3150800E7701CB201085CB20108ECB00108ECB0010853
S3150800E78098B20108C8B2010800B301083CB30108F1
S3150800E7906CB30108ECB00108ECB00108ECB0010854
S3150800E7A0ECB00108A4B30108D4B30108ECB0010821
S3150800E7B014B4010858B4010898B40108D4B401087F
S3150800E7C0DCB40108E4B40108F0B40108FCB401089B
S3150800E7D008B501080CB5010810B501081CB50108F3
S3150800E7E028B5010830B5010838B501083CB5010857
S3150800E7F044B501084CB5010854B501085CB50108D3
S3150800E8005230005231005232005233005234005214
S3150800E810350052360052370052380052390052310C
S3150800E82030005231310052313200523133284C52C5
S3150800E83029004D5350005053500050430078505310
S3150800E84052004D535020757365640050535020751F
S3150800E8507365640043535441434B20626F74746F6D
S3150800E8606D004943535200534843535200494E548E
S3150800E8705F41435449564500434653520048465360
S3150800E880520044465352004D4D41522F4246415282
S3150800E8900041465352005265743000526574310087
S3150800E8A052657432005265743300526574340052EE
S3150800E8B065743500446174300044617431000000A9
S3150800E8C00B480C4901600C4941600020704700B1B3
S3150800E8D0702070470020704780B500F00FF8FF28B9
S3150800E8E001D1A32002BD002002BD00207047704759
S3150800E8F0442A002070B0010872B0010880B500F003
S3150800E90093FAFF2818BF002002BD00210170704746
S3150800E910007800B10120704700F0E0BF00F0ECBFBE
S3150800E9200FF63410007882B001218DF803000FF637
S3150800E9302C100088ADF806000FF624100088ADF8F4
S3150800E94004000FF6201000788DF802000020ADF8BC
S3150800E9500000DFF894069DF8012001749DF8031065
S3150800E9600170BDF806104180BDF8041081809DF83D
S3150800E970021081710FF6D00101EBC20181609DF88A
S3150800E9800010017302B0012141737047DFF8580681
S3150800E990007C7047DFF8501601EB0010407B00F052
S3150800E9A001007047412818BF422803D0432818BFE2
S3150800E9B0442801D10120704700207047412818BF1C
S3150800E9C0422801D10120704700207047432818BF0C
S3150800E9D0442801D10120704700207047F8B5154634
S3150800E9E0069A04461E4600F0F6F960B1042100F0C6
S3150800E9F002FB070007D02046FFF76EFF324629467E
S3150800EA002046B8478CE0F1BD2DE9F04383B01600E7
S3150800EA101CBF0A9D002D044688461F461ED0EFB12E
S3150800EA2028787188000730794CBF4022802200F090
S3150800EA30D2F998B1082100F0DEFA814670B1307932
S3150800EA40FFF74AFF0B98019000953B463246414630
S3150800EA502046C847BDE8F743FFF747BFBDE8F78339
S3150800EA60F8B5164605461A4600F0B5F9D0B1069C23
S3150800EA705CB9022100F0BFFA040013D02846FFF75C
S3150800EA802BFF31462846A0470BE0102100F0B3FAC9
S3150800EA90070007D02846FFF71FFF224631462846BB
S3150800EAA0B8473DE0F1BDF8B5154604461A4600F0EC
S3150800EAB092F908B98620F2BD0699002689B920215F
S3150800EAC000F099FA07000CD02046FFF705FF0998D1
S3150800EAD0089B079A009029462046B8470646FFF73E
S3150800EAE004FF3046F2BDF8B50446A5682078FFF75E
S3150800EAF0F3FE002610E02868142101FB060720789B
S3150800EB003988FFF7A3F90121384600F074FA0100A5
S3150800EB101CBF20788847761C2879F6B28642EAD345
S3150800EB20BDE8F140FFF7E1BE38B50024DFF8B85478
S3150800EB3008E02046FFF72EFF18B105EB0410FFF793
S3150800EB40D2FF641C287CE4B28442F2D331BD10B5EE
S3150800EB50002301E05B1C001D9BB28B4204D2048893
S3150800EB609442F7D1408810BD002010BD0288B2F546
S3150800EB707C4FA8BF00F00BB80FF2D450081A0C212E
S3150800EB8090FBF1F292B200210FF2C860DFE70FF2B4
S3150800EB902C61401A142190FBF1F292B200210FF277
S3150800EBA0B060D4E710B50C460188628891420DD151
S3150800EBB0027B23791A4209D0B1F57C4F04DBFFF7B3
S3150800EBC0E6FF2189884201D1012010BD002010BD31
S3150800EBD010B514460A88E3889A420AD10288B2F523
S3150800EBE07C4F04DAFFF7C2FF2189884201D1012050
S3150800EBF010BD002010BD2DE9FE4F002482B08346CB
S3150800EC00A246DFF8E46304E0C0880419A4B20AF156
S3150800EC10010A307C5FFA8AFA824580F0B0804FEAB2
S3150800EC200A118819895D9BF8002080689142EBD10A
S3150800EC3000905046FFF7AEFE0028E8D0002704E013
S3150800EC40B8F80A000419A4B27F1C00980079FFB22C
S3150800EC508742DCD200980068142101FB0708594650
S3150800EC604046FFF79FFF0028EAD04FF0000908E06A
S3150800EC7028793021084202D1E8780419A4B209F1AA
S3150800EC800109B8F808001FFA89F98145DCD2D8F8D5
S3150800EC9004000C2101FB09055A4629464046FFF7A0
S3150800ECA097FF0028E4D0029800B10560287981060C
S3150800ECB010D50FF29C41002206E00B799B0602D57F
S3150800ECC0CB789A1892B20C31A942F6D3911901F170
S3150800ECD0140A02E0A11901F1110A0E9C1CB1039E47
S3150800ECE0DFF8087306E00399002946D056468A4697
S3150800ECF0DFF8FC72C0060DD529464046FFF736FFF9
S3150800ED000346039800902A46BBF802109BF80000B9
S3150800ED10B84735E0BDF8100095F8028000280CBF0A
S3150800ED20EF7807464046FFF749FE30B17A1ED2B261
S3150800ED303146504600F0EAFC1FE04046FFF746FE23
S3150800ED4030B1BA1E92B23146504600F0F7FC14E0D4
S3150800ED503CB9BDF8100020B1E978884238BF89204F
S3150800ED600ED3002E3A4604D100215046F5F719FF76
S3150800ED7003E031465046F5F7D1FE002000E0862034
S3150800ED8005B0BDE8F08F50B50346002403E0067BC6
S3150800ED90360615D4641C1879E4B284420FD2186872
S3150800EDA0142606FB040006888E42F3D142B1802A57
S3150800EDB0EDD0402AEED1067B7606EBD550BD002075
S3150800EDC050BD80B5402200F006F800B1012002BD12
S3150800EDD080B58022F7E738B50C46154600F024F8CA
S3150800EDE0FF2801D1002032BDDFF8FC312A46214632
S3150800EDF003EB0010BDE838408068C4E730B5002250
S3150800EE00794B00E0521C1C7CD2B2A2420AD21401F1
S3150800EE10E55C8542F6D119B1E418647BE407F1D5BF
S3150800EE20104630BDFF2030BD0121E7E76E490001DD
S3150800EE30405C704738B50C46FFF7F6FF01460020E0
S3150800EE40FF291FBF684A02EB01118968002914D0FF
S3150800EE50002203E01B0648BF2846521C0B79D2B293
S3150800EE609A4209D20B68142505FB0233451C1B7B05
S3150800EE70002CEFD05B06EEE7C0B232BD70B50C468B
S3150800EE801546FFF7D1FF0021FF281AD0564A02EB94
S3150800EE900012002301E0491C5B1C90680679DBB26E
S3150800EEA0B3420ED20068142606FB0300067B15B192
S3150800EEB0760602D4F0E73606EED5C9B2A142EAD103
S3150800EEC070BD002070BD002100E001212DE9F14F41
S3150800EED086B08846F6F7B8FD059000259DF8180017
S3150800EEE0019000E06D1C4048007CEDB2854276D268
S3150800EEF00198FF2806D09DF81800FFF795FF0546EC
S3150800EF00FF2D6CD0384800EB05160198FF2803D171
S3150800EF10307B05998842E5D14FF0000A01E00AF1F5
S3150800EF20010AB06801795FFA8AFA8A4554D20068FC
S3150800EF30142101FB0A044FF000092089B0F5967FD9
S3150800EF40C8BFF7F70FFC13E00120009000235A46CC
S3150800EF50002102A8FFF74FFEB8F1000F06D0BDF852
S3150800EF600A2031783B46584600F044F809F1010971
S3150800EF7020891FFA89F98145D1D260680C2101FBE5
S3150800EF8009073879C006F1D430788DF80800394673
S3150800EF902088ADF80A00387940064CBF802040200A
S3150800EFA08DF80C003888ADF80E002046FFF7DEFD18
S3150800EFB0ADF810003979F878490706D5D7F808B0BA
S3150800EFC00328C1DBDBF800B0BEE70328B4BF07F1AE
S3150800EFD0080BD7F808B0B7E70198FF2882D007B022
S3150800EFE0BDE8F08F00000000D028002077DE00087A
S3150800EFF073DE0008704710B5047B012200230C421B
S3150800F00005D1002010BD144218BF5B1C5200D2B2B5
S3150800F0108A42F8D30069DBB250F8230010BD2DE907
S3150800F020F04F88460121002898F815004FF0000C8B
S3150800F03007D010B94FF0020E09E0012805D18E4617
S3150800F04005E010B94FF0080E01E04FF0040E0998DC
S3150800F0500A9DDDF82CA0DDF830B00FF26009002417
S3150800F06039F82470974220D109EB8406F77817EA15
S3150800F0700E0F1AD0B778574517D3F778FF0698F8C2
S3150800F0800F7001D50FB910E07FB9E34501D084456B
S3150800F09001DB00210DE0B7780CF803702F887F1C80
S3150800F0A02F800CF101071FFA87FC671CBCB2252CC0
S3150800F0B0D6DB0846BDE8F08F00000000030000011B
S3150800F0C0030001010400000104000101040002011B
S3150800F0D00400030104000401040005010600000100
S3150800F0E006000101060002010800000108000101EE
S3150800F0F008000201080003010800040108000501D0
S3150800F10008000601080007010010000100100102AE
S3150800F110001002010010030200100601001007018A
S3150800F1200010100100101102001012010010130245
S3150800F13000101401001015020010160100104006F8
S3150800F140001041090010410600104209001042064D
S3150800F150000020012400000034B00108010020014D
S3150800F1602400000040B0010802002001240000002D
S3150800F1704CB00108030020012400000058B0010823
S3150800F1800400422120000000000000000500422182
S3150800F19020000000000000000600421120000000C8
S3150800F1A000000000070030012400000064B00108D8
S3150800F1B0004042112000000000000000000000008E
S3150800F1C050F100080900000040000000000000009F
S3150800F1D003000000BCF100080000000080000000E9
S3150800F1E00000000004000000BCF100080000000058
S3150800F1F0800000000000000006000000BCF10008C6
S3150800F2000000000080000000000000000800000068
S3150800F210BCF10008000000008000000000000000AB
S3150800F22000100000BCF1000800000000800000008B
S3150800F2300000000000100000BCF1000800000000FB
S3150800F2404000000000000000BCF1000807000000B4
S3150800F250000000000000000001000000040100009A
S3150800F260200800000200000080B5FEF734FEFEF715
S3150800F270E7FDFBF7FFFDDFF8B4150A88821A92B29C
S3150800F280C92AA8BF088001BD80B5FFF7CDFDFF28B4
S3150800F29004D018B9DFF89805007802BD002002BD31
S3150800F2A010B50168DFF88C250B88DFF88C451380CC
S3150800F2B04B885380497911710168097951714FF466
S3150800F2C08A51D18001688979890644BF4FF48B51E8
S3150800F2D0D180617882693AB9C088DFF860251080E4
S3150800F2E001F0FD00607010BD41F002016170162248
S3150800F2F08169201DF5F712FC0020207110BD80B52C
S3150800F3000020FFF7E4FAFF20FFF7DDFDFFF7EDFA2F
S3150800F310FFF73CFB02460121DFF81405F5F741FC2F
S3150800F320DFF81035DFF81825DFF81805522108F040
S3150800F330AAFF00F0B2FA06F0D5F904F063FE06F06B
S3150800F34093FEBDE80140FFF7EFBB70B500240FF24E
S3150800F350045501E0B047641CE4B255F82460300057
S3150800F36004D006F0B7F90128F4D170BD05F0E0FC29
S3150800F370BDE8704008F0CABF80B5FCF735FE20B975
S3150800F380F8F7C3F808B9FEF75EFDFEF79AFDBDE883
S3150800F3900140FEF7A6BD10B5044620684079FFF780
S3150800F3A043FDFF281DD0DFF8A014227F01EB0010D3
S3150800F3B0017B914215D1226840881188884206D07F
S3150800F3C04FF6FF7399420CD1B0F5004F09DA207950
S3150800F3D0022818BF032806D111895079FEF747FD80
S3150800F3E008B9002010BDA07B002820461CBFBDE838
S3150800F3F0104008F0D7BFBDE8104008F0F3BF38B595
S3150800F40014461A4623785B074CBF052303239A4202
S3150800F41001D2002032BD069D286029710498E88033
S3150800F420AC60AA81207800F00100A873207800F06B
S3150800F4300400E8732078C00800F001006875012010
S3150800F4402875E87B30B10121204609F032FA297D7A
S3150800F450891C29752882287D411C2975005DA87498
S3150800F460481C2875C9B2085DE8740598A861F6F7BE
S3150800F470EBFA2877012032BDF0B58BB00E4603A90A
S3150800F480029100251099119FDFF8AC43009101976E
S3150800F4903146FFF7B4FF00285BD003A8E061DFF828
S3150800F4A0AC139DF81E00087003A8FFF7F9FE03A821
S3150800F4B0FEF7F9FC08BB17BB042E18BF052E03D0B0
S3150800F4C0022E18BF032E01D1012200E00022BDF84A
S3150800F4D01200019001210398408800900398038840
S3150800F4E09DF81F0000F0DAF860B10398807980066D
S3150800F4F008D4012103A800F0CFF8012529E0387DBA
S3150800F500800726D503984079FF281ED10026DFF804
S3150800F5102473FFF73BFAF6B286421AD23046FFF753
S3150800F52039FA80B103A8FFF7BBFE3046FFF77EFC29
S3150800F530039948713046FFF779FC387103A8FFF73D
S3150800F5402AFF00B10125761CE3E703A8FFF723FF8E
S3150800F550054609F05BF916220021201DF5F721FB67
S3150800F5600020E0610BB02846F0BDDFF8E402017820
S3150800F570491C017001F07F0070477CB5DFF8B8427E
S3150800F5806378D90701D5002076BD2278DFF8A41262
S3150800F590012A03D1CA8842F0400205E0022A04D1B2
S3150800F5A0CA884FF6BF752A40CA80DFF8A0221578A8
S3150800F5B0DFF89022167876074CBFD5705570DFF8BD
S3150800F5C080522D889B0708D52946201D06F0AEFADD
S3150800F5D0617801F0FD01617076BDDFF860321C8844
S3150800F5E04FF6FC739C4208DA009201900A462B46B5
S3150800F5F021460020FAF764FF76BD009013462A4696
S3150800F6002046FAF74EFF76BD0020B6E70A460146C1
S3150800F610DFF82402C06901E00021F7E770B5044667
S3150800F6200D462079002818BF012816460AD1A06879
S3150800F6300078C00600D52DB1A07B002804BFE07C69
S3150800F6400B2801D1002070BDDFF8F41100200880D6
S3150800F650607DE17B00280CBF0820002011B909F065
S3150800F660EBF806E040F0040009F0E6F8208A09F015
S3150800F670EEF8A07C09F0E0F80B2009F0DDF8E07C54
S3150800F68009F0DAF8284609F0D7F82046FFF708FE09
S3150800F6903046BDE8704070E70022BFE710B51C464B
S3150800F6A00A46034602992046FEF7D1FB00B101201F
S3150800F6B010BD38B5D2885224950648BF4924550549
S3150800F6C044BF083CE4B2150544BF083CE4B2120442
S3150800F6D04FF6FD7344BFA41EE4B238B102280BD01E
S3150800F6E006D3032804BF641EE4B209E00B4607E00C
S3150800F6F0C8B200F055FE02E0C8B201F080F8034631
S3150800F7001846FEF7C0FB201AC0B232BD70B50446D3
S3150800F7100D000EBF00202878FF28164601D120705C
S3150800F72070BD284609F0D2F8864288BF064632469A
S3150800F730691C601CF5F7F2F9267070BD70B50D00EE
S3150800F7400446164603D100206070207070BD2878E4
S3150800F750FF2802BF6878FF2820700CD0284609F0D9
S3150800F760BAF8864288BF06463246A91CA01CF5F799
S3150800F770D5F92670300A607070BD2DE97041541EA7
S3150800F780002B38D0052A48DA002500262B460EE03D
S3150800F790A2EB03084FEAC8080CFA08FC4CEA06066E
S3150800F7A01EF801C00CFA08FC4CEA05055B1CDBB226
S3150800F7B0934208D2A4EB030E00280CBF4FF0000CAE
S3150800F7C01EF800C0E4E7042A0FDAD0000121D200AF
S3150800F7D0401E9140494246FA00F2D20748BF0E43FE
S3150800F7E045FA00F0C00748BF0D43B5420EDBAE42EE
S3150800F7F013DA0FE05B1CDBB293420ED2E51A00283F
S3150800F8000CBF00262E5C6D5CB54201DA012005E0CE
S3150800F810AE42EFDA4FF0FF3000E00020BDE870811D
S3150800F820283808288041C00F70470000A628002005
S3150800F830BD2F0020E0290020F82A0020DC2900201E
S3150800F840DE290020EC290020D0280020E827002007
S3150800F850E927002091DE000869F200080000000090
S3150800F860024A50701170002090707047B82F00201F
S3150800F87038B504460D461046FFF729F800202070D3
S3150800F880A847BDE83140FFF730B800220E490F48B7
S3150800F890EEE700220E490F48EAE780B50120F7F7A0
S3150800F8A0DAFD0FF26400F7F774FD0B49087001BD25
S3150800F8B080B505F00FFF012805D007480078BDE898
S3150800F8C00240F7F752BD01BD894D0108A82800205E
S3150800F8D0F15F0108B0280020A42F002080B519B9CF
S3150800F8E0F7F7C4FC002002BDB1F1004F02D2F7F7CA
S3150800F8F0C8FCF7E7022002BDB1F5000F3CBF0902BC
S3150800F900FFF7ECBF02207047702A0020B15B0108A0
S3150800F910C029002065890108382B0020FD640108EC
S3150800F9201C2B002063680108A82800208BF8000813
S3150800F930B028002093F80008782B00208969010870
S3150800F940842B00203D6A010800000000000000002A
S3150800F9502DE9F84F8AB00D461646ADF804504FF01B
S3150800F9600008F7880446C246C146F7F77EFE159892
S3150800F97060B9F8060AD59DF850009DF82830009021
S3150800F98032462946204608F0B1FF04E1780548BF0B
S3150800F9904FF4805A380548BF4AF4006AB80548BF8C
S3150800F9A04AF0800A03D4F80548BF4AF0400A9DF891
S3150800F9B050000290072CAB4665D8DFE804F0062C09
S3150800F9C0183A3A04063A4FF002099DF82800BDF89D
S3150800F9D00420009043469DF850004AF4027102F054
S3150800F9E0B1FC8246BAF1FF0F4FD11820D3E005A922
S3150800F9F0E8B200F00AFF08220DF1190103A8F5F78D
S3150800FA008DF8DFF81808006830F81B000DF10C08AF
S3150800FA10ADF80400D9E703A9E8B200F0B3FCDFF8B3
S3150800FA20000800680C2101FB0B000DF10C0800888A
S3150800FA30EEE74FF6F870834525DBF0884FF4026150
S3150800FA40084220D100F033F918BF91201CD1029842
S3150800FA50FF280FD000F01DFB032C0CBF012100214D
S3150800FA60401ADFF8C017029A0968515C8842B8BF85
S3150800FA70742009DB032C0CBF4FF00C094FF0080962
S3150800FA802AF4C07AA1E7012085E0DFF89C07008800
S3150800FA904FF6FF71884214D05046F8F764FE834645
S3150800FAA0DFF8840701880BF10400FAF7A6FBDFF8F4
S3150800FAB07C07DFF8741700788BF807004FF6FF709D
S3150800FAC0088032464946504602F0EFFD08B9182626
S3150800FAD05DE0DFF85C070068C07E48B1B80607D568
S3150800FAE0012342460021504602F066FB06004ED12D
S3150800FAF00298FF2816D05046F8F72BFEDFF8301785
S3150800FB000968C97E01B11221DFF81827029B12681D
S3150800FB109B5C1AF80220D218743089188842B8BF3C
S3150800FB20742634DBB80407D55046F8F726FE40F4A9
S3150800FB3080615046F8F723FE062C12BF072C504664
S3150800FB40F8F72AFE159848B1BDF804105046F8F79C
S3150800FB503CFE159880F800A000201CE0E01E022854
S3150800FB6001D9001F07D15046F9F70CF900280CBF38
S3150800FB70A12600260BE0B80444BF4FF6BF70074025
S3150800FB803B46EAB22146504605F057F90646504626
S3150800FB90F8F7CCFA30460BB0BDE8F08FF0B587B071
S3150800FBA00E4604460C9917461846F8F742FB0546D2
S3150800FBB0FF2D21D0FF208DF810008DF81100ADF82B
S3150800FBC00E704CF20E00ADF80C00ADF81260002075
S3150800FBD0ADF81400009502A80190FF2303AA214658
S3150800FBE00020FFF7B5FE04462846F8F79FFA002CD2
S3150800FBF00CBF9DF80800FF2007B0F0BD2DE9F043C3
S3150800FC00164685B00446F08804900D4670790FF2C2
S3150800FC10586103901F4630790290A8467088019073
S3150800FC20434630880090082200F069F800F03FF853
S3150800FC3018BF912019D1FF2F09D000F02AFADFF852
S3150800FC40E4150968795C884238BF74200DD37CB9FD
S3150800FC504FF6F870804528DA002001900097FF23B8
S3150800FC60324629462046FFF773FE05B0BDE8F08305
S3150800FC70022C4FF6FE790CD1DFF8B80500788542DC
S3150800FC8013D2DFF89805006830F818004845E3DB1A
S3150800FC900BE0012C09D1DFF8A0050078854204D2D3
S3150800FCA0E8B200F07DFB4845D6DB0120DDE7DFF84A
S3150800FCB080050068407B02287047F0B587B00D467E
S3150800FCC01646044605961F46E8880FF2A451049086
S3150800FCD0234668790390092228790290688801905A
S3150800FCE02888009000F00BF8002001900097334612
S3150800FCF02A4621460420FFF72BFE07B0F0BD032055
S3150800FD00F6F77FBF70B588B004460D46069205958E
S3150800FD101E46E0880FF2645104900622607903902B
S3150800FD20207902906088019020880090032023891A
S3150800FD30F6F767FFDFF8040500780096002814BF79
S3150800FD404FF6FF714FF6FD71002001902B462246B3
S3150800FD500320FFF7FDFD08B070BD10B5DFF8E0041D
S3150800FD60F8F795FC0446FF2C0DD02146042004F034
S3150800FD70C2FA18B10121204600F006F82046BDE86F
S3150800FD801040F8F7D3B910BD2DE9FE4F82460D464F
S3150800FD90F8F7E9FC0646B01CFAF728FA83465046F7
S3150800FDA002F06EFB01465046F8F74CFB804608F019
S3150800FDB003095046F8F7EBFCF5F755FEDFF88444DF
S3150800FDC0301DFAF713FA2080DFF87C74FBF7F5FF8D
S3150800FDD0834512D04FF6F87083450EDA7078C0075F
S3150800FDE00BD4584601F085FA002869D020880123EB
S3150800FDF05246594600F091F962E000A9504602F0D1
S3150800FE00CEFB00A83860304602F059FBDFF83C14F8
S3150800FE10086003215046F8F796FCDFF8341408709A
S3150800FE2004215046F8F78FFCDFF8281408704DB304
S3150800FE309DF80600800625D5DFF8F453FBF7BDFFCD
S3150800FE4040B12868007D800704D4B9F1010F08BFC6
S3150800FE50102000D0002040F0080300220021504660
S3150800FE6002F0AAF970B108F00300012802BF286859
S3150800FE70407B112839D107F0B5FBB0BBAF20FCF7A2
S3150800FE804EF832E018F0030003D0022805D009D353
S3150800FE9016E0504600F02DF812E05146404604F0B0
S3150800FEA0FAFF0DE0FBF789FF2188814208D0514609
S3150800FEB0052004F020FA18B12188504602F049FDC1
S3150800FEC0FBF77BFF218881420DD1504602F0D8FA14
S3150800FED001465046F8F7B6FA0C21084203D100212C
S3150800FEE0504605F0F9F900203860F5F7BDFDBDE884
S3150800FEF0F78F2DE9F04F83B08046F8F734FC0546B6
S3150800FF00A81C95F801B0FAF771F94FF6F87188420E
S3150800FF10ACBF01260026FBF750FFDFF82893DFF871
S3150800FF202873B9F8001081423868B0F802A00CBFEF
S3150800FF30012400240BF0010030438DF804009DF8DD
S3150800FF400400002814BF062008200021F5F7DFFD6D
S3150800FF5038680188002904BF4079002808D1B9F813
S3150800FF600000BAF5004F19DB5246414606F075FF08
S3150800FF70386800884CF20E01884241D144F20106E5
S3150800FF80B24518BFBAF5804F37D1404602F0FBFAA2
S3150800FF900146B2450CBF0120002025E0DFF8B8B2C3
S3150800FFA002218BF8001033460022414606F0C8FDB0
S3150800FFB038688079400603D5FF21504600F070F86E
S3150800FFC0BAF1130FD4D03868C0884004D0D4A349F6
S3150800FFD09BF800000978CA0701D50228C8D0890706
S3150800FFE049D50128C4D046E0491EC9B200912B461E
S3150800FFF042460121FCF713FB3DE0404608F0A2F813
S315080100003868817901F00C010C290DD1008900F0BD
S3150801001003FB80B338680189002C14BF0325022528
S31508010020002000F076FC14E0017900910022437962
S31508010030B9F80000002100F09BFC3968897901F0C4
S315080100400C01082904D1002C0CBF0425052500E064
S315080100500025834908709DF8040010B9BAF1380FD4
S3150801006001D1012200E000222946404603B0BDE83D
S31508010070F04F00F009B9BDE8F78F10B5044600F056
S3150801008008F8610548BF0838210548BF0838C0B2D5
S3150801009010BD67490968C97E642001B152207047BD
S315080100A070B5694E0C4686B0054631680C2202A821
S315080100B0F4F734FD306801798DF80D10FF23417985
S315080100C08DF80C10ADF80A504FF6BF71C088009430
S315080100D00840ADF80E0002AA00200190594801888F
S315080100E00520FFF735FC06B070BD5E48007808B9F3
S315080100F0FF2070475A48007870470A4680B50C2198
S31508010100084208D19079400605D55088FF21FFF7A6
S31508010110C7FF012002BD002002BD2DE9F34F90461D
S3150801012083B01D46404602F0ABF901464046F8F752
S3150801013089F9824603201AEA000F69D142480668FE
S315080101404048B0F800B0002400A9404602F027FA5A
S315080101503D4900A808603B49BDF80C0008809DF898
S315080101600500002804BFBDF80000002834D1404628
S31508010170F8F7F9FA801CFAF739F84FF6F871884258
S31508010180ACBF4FF00109A146002D14BF0225012578
S315080101900127FFB2BD4234D3BDF80C004B463A469F
S315080101A0414606F0CDFC0446012C04BF022D012F61
S315080101B010D1BDF810001C4908801D480068417E11
S315080101C0491C4176A1F180001849087000A95046DA
S315080101D0FFF793FF7F1CDCE7BDF800004CF20E0128
S315080101E0884204BFBDF8020001280AD145B1BDF80D
S315080101F01000414607F0A8FF00A95046FFF77DFF0A
S315080102000124114806600F48A0F800B0204600E016
S31508010210002005B0BDE8F08F00000000502700203F
S3150801022060270020082700202E280020CB2F002039
S31508010230C42B0020542700205C270020AC2F002067
S3150801024054280020CE2B0020D02B0020D42B0020B0
S31508010250DB2F0020DC2F0020CA2F0020A92F002029
S31508010260C42F0020CC2B0020425757574242570033
S3150801027042575757424257420000000042575742D9
S315080102804242574242000000F0B5334C0D46A16880
S3150801029089B00646174629B1082206A8F4F73EFC96
S315080102A006A8A06037B9FBF788FD6188814218BFA7
S315080102B0012700D10027304602F065F9014605AB52
S315080102C03A46304601F0A8FFA0BB6068C188049190
S315080102D02B464179039111220179029141880191B5
S315080102E000880FF2800100900320F6F78AFC0120AE
S315080102F02070F5F7B3FB9DF8142061682846F7F7D7
S3150801030061FDF5F7B1FB9DF81400FF2818BFF7F753
S315080103100DFF6DB96068C18848F240021140402955
S3150801032006D12178490703D44088FF21FFF7B8FE93
S315080103300020207009B0F0BD084900E00849097895
S315080103400170002070470448017811B94FF6FF7013
S315080103507047408870470000CC2B0020DB2F002017
S31508010360DC2F00204242575742425700DFF8F0027D
S3150801037000780C2101FB00F2DFF8E8020068FF2192
S31508010380F4F70FBC10B50B46B64909680C2404FBF3
S315080103900010BDE81040811C08221846F4F7BEBBC0
S315080103A0B04909680C2202FB001000887047F8B5AD
S315080103B007460C46AA4DAB4E00E00C373068297843
S315080103C00C2202FB0100874214D238884FF6FF71CE
S315080103D08842F2D008222146B81CF4F7E9FB002826
S315080103E0EBD1F5F73CFBB97AC1F342018142E4D17D
S315080103F03846F2BD0020F2BDF8B5044600F06EF9A4
S315080104009848974E076800250EE03888A04209D11A
S31508010410F5F725FBB97AC1F34201814204BF4FF6CC
S31508010420FD7038806D1C0C373078EDB28542ECD3FF
S31508010430F1BD70B504460D462846FFF7DDFF29468E
S31508010440204600F06EF900F04FF805E0358004F01B
S31508010450E3FC214606F10C00FFF7A9FF0600F5D1DA
S3150801046070BD7FB5044608227F49F4F7A1FB10B990
S31508010470FBF7A3FC36E07D4D2868011D08222046BE
S31508010480F4F796FB10B9286840882BE00020009005
S315080104904FF6FF75002301222146284600F068FA27
S315080104A0FF284FF6FC7605D07149096831F8100026
S315080104B0B04217DB01A802F00DFA50B9BDF80400E5
S315080104C0400606D5082221460DF10600F4F770FB11
S315080104D040B100F009F8FFF76AFF10B10088B04291
S315080104E000DB284604B070BD5E48006821467047A7
S315080104F02DE9FF4104468846FBF75FFC844202D199
S31508010500082259493EE0594E306841888C4209D142
S3150801051000220821001DF7F757F818B93068082294
S31508010520011D2FE0002000900146002301222046EC
S3150801053000F01EFAFF280AD000A900F066F930B9C2
S3150801054008220DF105014046F4F7E8FA1DE0454891
S31508010550434F0568002601E0761C0C353878F6B25B
S31508010560864214D228884FF6FC718842F4DAA042F2
S31508010570F2D1F5F774FAA97AC1F342018142EBD1B6
S315080105800822A91C4046F4F7C9FA012000E0002018
S3150801059004B0BDE8F08110B50446002000F09EFEC7
S315080105A0FF2806D03349096811F8100000F0040045
S315080105B010BD04F0010010BD38B50446294800688D
S315080105C000252146FFF7F3FE08B1857A0CE0009075
S315080105D00023012221464FF6FF7000F0C9F9FF28D2
S315080105E002D025490968455C21462846BDE83440BC
S315080105F0D1E738B50D0018BF01250446294600F094
S31508010600D6F8FFF771FF02E0857221460C30FFF735
S31508010610CEFE0028F8D131BDF8B5044621460020A2
S3150801062000F077F9FF2815D11448154F06680025FB
S3150801063001E06D1C361D3878EDB285420CD2308842
S31508010640A042F6D1F5F70BFAF1788142F1D1B078EB
S315080106500028EED00120F2BD0020F2BD0000000006
S315080106605C27002060270020F82B0020C42B0020DF
S31508010670502700202427002058270020342700204F
S31508010680382700201FB50C4602460D23132100A862
S31508010690F2F7B4F90D2200A92046F4F73FFA2078BB
S315080106A040096073207800F01F0020701FBD30B527
S315080106B085B004460D460D2200A8F4F72FFA9DF8D9
S315080106C00000697B40EA41108DF800000D2300AA5D
S315080106D021461320F2F7A3F905B030BD2DE9FF41F4
S315080106E004460025DFF81864DFF8187413E030684B
S315080106F0A84630F81800A0420CD100A9284600F0F7
S3150801070084F89DF80000022804D031684FF6FD7080
S3150801071021F818006D1CEDB238788542E7D3BDE89B
S31508010720FF812DE9F04588464FF6FF7AD04585B019
S31508010730044605D100F0BAF910B9FBF73EFB33E0E0
S31508010740DFF8BC63DFF8BC7300250CE0D04508D0A0
S31508010750306830F81510414504BF4FF6FD7120F891
S315080107601510681CC5B2387885421CDA306830F82D
S31508010770150000F0F9F8F4DA00A92846FFF782FF18
S31508010780082221460DF10500F4F712FA0028DDD1F9
S315080107903068D04502D130F8150005E020F81580FB
S315080107A004F03AFBDDE7504605B0BDE8F0852DE9D2
S315080107B0FF47804689460026DFF84C73DFF8404339
S315080107C0DFF8405315E02068B24630F81A0000F009
S315080107D0CBF80DDA00A93046FFF754FF0822414647
S315080107E00DF10500F4F7E4F910B938680AF8009034
S315080107F0761CF6B228788642E5D3BDE8FF87DFF88E
S315080108000013096831F81000704780B5BD4A12789F
S31508010810904201D3692002BDFFF734FF002002BDD3
S3150801082070B504460D4623460022B4A10320F6F707
S31508010830E8F9287818B92046BDE870403CE0B14887
S315080108400078844201D3692070BD204604F0FBFE7E
S3150801085008B1752070BDF5F702F96873681DFFF7D1
S31508010860ABFE060018BF01264FF6FF71681DFFF79C
S3150801087058FF024629783346204600F006F82946ED
S315080108802046FFF714FF002070BD10B54FF6FF7420
S3150801089009B9224608E0032908BF4FF6FE7203D0BC
S315080108A0A24208BF4FF6FD729549096821F8102042
S315080108B095490968435410BD30B505462C4685B09F
S315080108C0234601228DA10320F6F79BF98D4800786E
S315080108D0854228BF69201AD2284604F0B4FE08B119
S315080108E0752014E000A92846FFF7CCFE9DF8000004
S315080108F030B100208DF8000000A92846FFF7D7FE81
S315080109007F4909684FF6FF7021F81400002005B0E9
S3150801091030BDF0B585B007460C46794D794E00E0F5
S315080109207F1C3078FFB287421BD2286830F817003F
S3150801093000F01AF8F4D100A93846FFF7A3FE9DF88E
S315080109400500E1B2884204BF9DF80600B0EB142FFA
S31508010950E6D1F5F784F89DF80D108142E0D13846C5
S3150801096000E0FF2005B0F0BD4FF6FE7188427047E2
S315080109702DE9F14F84B00D460E9C614FDFF884A135
S3150801098090469946002607E03868BDF8101030F8F9
S315080109901B0088422BD0761C9AF80000F6B28642D4
S315080109A027D23868B34630F81B00FFF7DDFFF2DAC5
S315080109B000A93046FFF766FEB8F1000F07D19DF88A
S315080109C00100484504BF9DF80400A042E3D1F5F7AC
S315080109D046F89DF80D108142DDD1002DD4D00822AC
S315080109E00DF105012846F4F7E3F80028D3D130467E
S315080109F000E0FF2005B0BDE8F08F10B51446FFF7FB
S31508010A0041FE2046BDE8104008224049F4F786B861
S31508010A102DE9FF470446084615461E4600F046F8E6
S31508010A2008B100203FE00027DFF8D480DFF8D49032
S31508010A3000E07F1C99F80000FFB2874222D2D8F85D
S31508010A400000BA4630F81A004FF6FF718842F0D016
S31508010A5000A93846FFF716FE0C220DF10101601CAC
S31508010A60F4F7A6F80028E4D1BAF1FF0F0CD100205B
S31508010A703070F4F7F3FF307845B178B92046F7F7C7
S31508010A80D9F807E0FF27F2E70120F1E738B1384640
S31508010A90F7F7FFF8401E8041C00F00E001203070D3
S31508010AA0F4F7E2FF012004B0BDE8F08708221749F0
S31508010AB0F4F77EB830B585B00024124D17E000A9C9
S31508010AC02046FFF7DFFD9DF80000042806DB00201D
S31508010AD08DF8000000A92046FFF7E9FD9DF80010F2
S31508010AE000234FF6FF722046FFF7CFFE641C2878D5
S31508010AF0E4B28442E3D305B030BD000042420000AF
S31508010B00502700205427002058270020F82B0020C2
S31508010B1070B5BF4D6968FF2400260020425CA4F128
S31508010B2019039A42BCBF02F11904E4B2401C102809
S31508010B30F4DB0020425CA242BCBF761CF6B2401C24
S31508010B401028F7DB300003D1BDE87040012050E1E1
S31508010B50F5F78EFA90FBF6F106FB1101C9B20020F2
S31508010B606A68825CA24206DA0A0002D10B30687012
S31508010B7005E0491EC9B2401CC0B21028F0DBBDE829
S31508010B80704010B50024F5F773FA4FF6FF729042DC
S31508010B909F4903D04A6822F81400641C102CF2DB22
S31508010BA0032008704978BDE810400120032200FAA5
S31508010BB001F12FE138B504460D46012000F0FCF895
S31508010BC008B9702032BD92480A214170846035B156
S31508010BD000214A5D42B9491CC9B20829F9D3012144
S31508010BE08170BDE8314007E000218170082229465D
S31508010BF00C30F3F793FFF4E710B5854C20780128FC
S31508010C0007D07020F9F7DDFD702010BDE07807F0F8
S31508010C108AFEE078A0B1401EE070C0B207F06AFE15
S31508010C2001884FF6FF729142F0D090F90F20817B2F
S31508010C3007F096FEE07807F076FE07F061FE14E00D
S31508010C406078401C607060781B280BDA0121A26865
S31508010C5081401142F5D0042020700322BDE81040DE
S31508010C600120D7E0AB2000F0C4F8002010BD00BF7A
S31508010C7010B50C4600F092F828B1654908780228A3
S31508010C8018BF002C01D0002010BD022806D022D39F
S31508010C9004281CD005D3052819D01CE0FFF738FF16
S31508010CA019E000224FF6FF73486830F8120098429F
S31508010CB006D1521CD2B2102AF6DBFFF762FF0AE010
S31508010CC0497807F04BFE002000F093F803E0012075
S31508010CD00870FFF791FF012010BD00BF2DE9F04113
S31508010CE04B4D0446287803280E46904602D0042820
S31508010CF00FD042E000206968238831F810209A4213
S31508010D0004BF4FF6FF7221F81020401C1028F2DBB1
S31508010D1033E0E07888B307F0EBFD217B81422CD1E3
S31508010D20A87830B90822211D05F10C00F3F740FF18
S31508010D3018BB002709E0384607F0DCFD0822211D0B
S31508010D40001DF3F735FFC0B17F1CE878FFB2874273
S31508010D50F1D3401CC0B207F0E6FD70B9E87807F098
S31508010D60C9FD0746E878401CE8700E222146384638
S31508010D70F3F7D4FEBE7387F80F80BDE8F0410DE0A6
S31508010D8000BF38B504460D4600F008F828B12048DA
S31508010D904068201800F80B5C012032BD1C48007819
S31508010DA0022801DB012070470020704718480078A7
S31508010DB0012818BF0020704738B50446FFF7EEFF33
S31508010DC018B13D20F9F7FDFC0FE007F099FD002069
S31508010DD000F00FF80E4D0020E8702C7007F095FD15
S31508010DE0686020B9182000F004F8002032BD0120FF
S31508010DF032BD10B5044606490020087007F09DFD6E
S31508010E0024B12046BDE81040F9F7DBBC10BD00004F
S31508010E10C829002010B5F9F721FE040018BFFFF70D
S31508010E20E8FF204610BD0000704770470020704754
S31508010E30FF207047002070477047002070474FF623
S31508010E40FF70704700207047704770470020704751
S31508010E502DE9F041DFF88080D8F8001086B0497B8B
S31508010E60062600250024022931D1010A02AF8DF890
S31508010E700C10F8700DF10E01FAF76EFF08B920256E
S31508010E800E2616480178491C017001208DF80800C4
S31508010E907D70B9708DF80D4001940094334602AA0D
S31508010EA000214FF6FC7001F0CCFA0646FF2E0ED053
S31508010EB0D8F80000007BC01E032805D24FF6FF7143
S31508010EC03046F8F7CEF804463046F7F72FF92046AC
S31508010ED006B0BDE8F0810000C42B0020E42F0020F5
S31508010EE07047002070470020704770470020704700
S31508010EF0002070477047002070477047F0B5524C84
S31508010F00237903F00F05002600E0761CF6B2AE42FF
S31508010F1015D223789B1B0F330F2793FBF7F7C7EBE4
S31508010F200717DB1B062707FB034333F8087F8742AE
S31508010F30EBD112B99F788F42E7D11846F0BD002050
S31508010F40F0BD0022DAE780B501220021FFF7D6FFBE
S31508010F5000B1012002BD38B51446FFF7F2FF054678
S31508010F60204600F072FA0DB9002032BDFF2805D0DF
S31508010F70A988012202FA00F00843A880012032BD9F
S31508010F8010B5F9F77CFF30494A78CB88C8808218B2
S31508010F90D21A92B2142392FBF3F3142000FB132006
S31508010FA04870DCB288788442B4BF001B0020887080
S31508010FB0042CBDBF8888A200D0400020888010BDBF
S31508010FC02148808800F00F010F2903D0C0F30310D0
S31508010FD0092801DB0120704700207047F8B504464F
S31508010FE00D461646FFF7ECFF08B10020F2BD16487C
S31508010FF00178491C0F2291FBF2F2C2EB0212891AFF
S3150801100001700622017802FB010101F108078188B6
S3150801101001F58851113181803C80BD70304600F060
S31508011020BDFBB8800120F2BD10B5074CF9F727FFC3
S31508011030E0805A220020A080FF2104F10800F3F77E
S31508011040B0FD0420A07010BDFC2E00202DE9F84F3C
S315080110509C4D95F8009004468846F9F716FF834695
S31508011060287918B1E9680BEB0400441A6878DFF8A7
S3150801107058A200260AEBC00703E0001B7880761CFD
S315080110800837F6B24E4520DA7888B8F1000FA4B2CF
S315080110900BD08442F3D22878801BC20092B239461B
S315080110A007F10800F3F73AFD12E08442E5D3002080
S315080110B078807878401E78706878401C687028783F
S315080110C0401E2870F5F794FED9E7B8F1000F04D051
S315080110D02878401C28707C8001E000202871287837
S315080110E008B9287111E0287908B9C5F80CB06978EA
S315080110F0E8680AEBC101ABEB00004988091AB1F1AE
S31508011100004F9CBF281DF6F7BCF83846BDE8F28F9C
S31508011110F8B50E4604466B4910464A780978891887
S3150801112008291D4604D11F20F4F7F1FC0020F2BD61
S315080111300121FFF78BFF0746701C3C707870F9F7A1
S3150801114099FEB880BD712046F6F7E2FF0120F2BD8F
S3150801115070B55C4C61782278064600255A4801E04C
S315080111606D1CEDB28B189D421ADA10F83530B34270
S31508011170F6D15118491B491E00EBC500CA0092B2A7
S3150801118000F10801F3F7CAFC3046F6F7CFFF60789D
S31508011190854202DA401E607070BD2078401E2070BC
S315080111A070BD4848417800784018401E8041C00FFC
S315080111B070474448407800B10120704770B5002453
S315080111C0414D404E04E015F83000F6F7AFFF641CB8
S315080111D031787278E4B2204651188842F3DBBDE8CB
S315080111E0704038480021017041700171704710B58F
S315080111F0354C01E000F026F83248407830B12046F7
S31508011200F8F7E2FD0028F5D0207810BDFF2010BDC3
S3150801121010B52C4A52789AB12B4C227882420FD1BA
S3150801122051B96078103060701046F8F713FF18B995
S31508011230607800F0F000607000F004F8012010BD3D
S31508011240002010BD30B51F4C1F4D6078401E6070E0
S3150801125083B00822294600A8F3F760FC6078217854
S315080112600818C20092B205F108012846F3F756FCA0
S315080112709DF801000F21084217D19DF80000F7F7E4
S3150801128086FAF4F7F0FB9DF801000009411E894131
S315080112909DF80000C90F0022F8F764FC9DF80000CC
S315080112A0F6F744FFF4F7E0FB37BDBDF8020001216C
S315080112B0FFF7CCFE4188ADF80210082200A9F3F722
S315080112C02DFC37BD842E0020942E002000210020FD
S315080112D0BCE670470020704700207047FF20704722
S315080112E001E0704700BF4FF6FF707047FBE7932098
S315080112F070470020704700207047FF207047002084
S31508011300704770477047704710B50022154B03EBBD
S31508011310820333F8044F844204BF9B788B4201D180
S31508011320012010BD521CD2B2042AEFDB002010BDE9
S315080113300D4A1268127B121F022A00D2704710B595
S31508011340084A137802EB830424F8040FA170581C89
S3150801135000F00300107010BD1022FF210348F3F7B7
S3150801136020BC0000882F0020C42B00208C2F0020D1
S315080113704FF6FF71884200D1704780B500F05DF9DC
S31508011380FF280AD000F040F8DFF8F82541881278DE
S31508011390A1EB111101EB0211418001BD80B5DFF806
S315080113A0E8150968002081F82D00F4F76BFBFF2882
S315080113B003D1DFF8D8150320087001BD30B5DFF871
S315080113C0C8351B689C6A283300225B7901E0521CE8
S315080113D00E34D2B29A4208D225888542F7D30A70CA
S315080113E02188884202D1012030BD0B70002030BD12
S315080113F080B500F011F8FF2802D14FF6FF7002BD43
S3150801140000F002F8008802BDDFF87C150968896AD0
S315080114100E2202FB00107047F8B500F064F9876ADE
S31508011420002501E06D1C0E37306890F82D00EDB2ED
S31508011430854208D20822B91D2046F3F7B9FB0028D0
S31508011440F0D12846F2BDFF20F2BD80B500A9FFF70D
S31508011450B5FF10B19DF8000002BDFF2002BD80B5A1
S3150801146000A9FFF7ABFF40B1DFF81C0500689DF83E
S315080114700010806A0E2202FB010002BD2DE9F04729
S31508011480DFF804550FF210560446286882B090F822
S315080114902D1090F82C00814203D3AC213046F3F786
S315080114A03FFA00A92046FFF789FF18B1AF21304658
S315080114B0F3F736FA28689DF8002090F82D108E1A51
S315080114C0F6B20E27BEB39DF90020DFF8C4C4012188
S315080114D0914089B24FF6FF7253189BB24FF00F0E27
S315080114E0BCF8008090450CD0BCF8048003EA0809D2
S315080114F06FEA030A89440AEA080809EB4808ACF8BE
S315080115000480BEF1010E0CF1060CE9D1806A9DF842
S31508011510001007FB010107FB06F201F10E00F3F7C4
S31508011520FDFA28689DF80010006B00EB8101B200F6
S31508011530081DF3F7F3FA28689DF80060806ADFF85A
S31508011540441407FB06000822048009780902418031
S315080115500021017110214171801D0021F3F721FB42
S315080115602868026B002142F8261090F82D10491CB4
S3150801157080F82D100D200021F4F7C9FA0CB901F0F5
S315080115800EFF9DF80000BDE8F687F8B5DFF8F843C9
S315080115900646206890F82D00811B4D1E8642EDB245
S315080115A004D3D2210FF2F030F3F7BAF98DB3DFF88D
S315080115B0E0330120B04080B24FF6FF710A1892B2AB
S315080115C00F278018B3F800C08C450BD0B3F804C0B8
S315080115D002EA0C0E2CEA000C0EEB5C0CACF5004C86
S315080115E0A3F804C09B1D7F1EECD12068806A0E21DA
S315080115F001FB060001FB05F200F10E01F3F78EFA75
S315080116002068006B00EB8600AA00D2B2011DF3F731
S3150801161085FA206890F82D10491E80F82D100021B2
S31508011620BDE8F4400E20F4F772BA10B50C46FFF780
S31508011630ACFF2046BDE8104020E7F8B50446FFF7A1
S3150801164004FFFF282FD1DFF84053286800F128014D
S315080116504A7909798A4222D3876A002601E0761CEB
S315080116600E37286890F82D00F6B2864210D23879DE
S31508011670C0F30211072904DA07221042EFD1032920
S31508011680EDDB3888FFF7D2FB0028E8D1FF2E01D120
S31508011690FF20F2BD21463046BDE8F440C5E72046A5
S315080116A0BDE8F240EAE6F2BD2DE9F04100F01BF88B
S315080116B0856A884600270EE00822A91D2046F3F709
S315080116C077FA30B92888404503D03846FFF75DFFD9
S315080116D07F1E7F1C0E35306890F82D00FFB28742B9
S315080116E0EAD3BDE8F081A84E044630687047F8B5DC
S315080116F007460C4639462046FFF7D6FF3846FFF718
S315080117009CFF0646FF2EA04D11D1FFF7F4FBFF28DB
S3150801171008D1F4F7ADFC296891F82C1090FBF1F289
S3150801172001FB12003946C0B2FFF77FFF06460E20BD
S3150801173000FB06F72868806A381808222146801DAA
S31508011740F3F7ECF92868806A0021381800F0C9F81F
S315080117503046F2BD10B58C490968896A0E2202FB2A
S31508011760001407212079084207D1204600F060F8C5
S3150801177001462046BDE8104077E010BD38B504465D
S315080117800D462846FFF761FEFF281CBF214600F0DB
S3150801179052F829462046BDE8344085E72DE9F84345
S315080117A0DFF8E4818146D8F80000846A002500261E
S315080117B00127D8F8000090F82D0086420CD220881F
S315080117C0484509D0204600F033F80428BEBF2079E1
S315080117D0C0F30210072801DB3D43ADB2761C7F003A
S315080117E00E34F6B2102EE4DB2846BDE8F28338B58E
S315080117F00C46FFF734FE050001D1002032BD00F08A
S3150801180017F8014634B9287910F0070002D0884242
S3150801181038BF084632BD38B504460020451CF1F7E5
S3150801182051FC8442E8B202D20628F7DB072032BD12
S315080118304088000AEFE770B5FFF755FF90F82C00CE
S3150801184084420D4605D340F295110FF24C10F3F779
S3150801185067F83068806A0E23294603FB0400BDE851
S3150801186070400822801DF3F759B9027902F0F8028F
S31508011870114301717047F8B5F4F704F9FF2823D02D
S31508011880414D2868866A002418E03079C0F30217AA
S31508011890072F11DA7F1CF9B2304600F022F8FFB2A1
S315080118A0072F01DA032F07D100213046FFF7DDFFA5
S315080118B000210F20F4F72BF9641C0E36286890F8DE
S315080118C02D00E4B28442E0D3FFF746FD02F0D3FED1
S315080118D0FBF7CDFEBDE8F4404FF47A512D48F5F7F4
S315080118E0D0BC027902F08F0242EA011101717047F8
S315080118F0002009E0896A0E2202FB0011401C4A7980
S3150801190002F0EF024A71C0B21F49096891F82D2009
S315080119109042EFDB70472DE9F8431B4C206890F89D
S315080119202D6002252068D0F82880002704E0761E5D
S31508011930F6B27F1C08F10E08206890F82D00FFB258
S3150801194087420BD2B8F8009000214846FFF74FFFAF
S315080119500028EED0002EEAD1484610E086420CD087
S31508011960F4F786FB216891F82D10891B90FBF1F29B
S3150801197001FB12066D1EF6B2D4D14FF6FF70BDE813
S31508011980F2830000DB2F0020C42B0020E62F002065
S31508011990042F0020602E00206E65696768626F72E9
S315080119A02E63000080B50423042200A9012004F057
S315080119B048FADFF84C15009809680003C86101BDAB
S315080119C010B5DFF83C452068C069000507D1F4F772
S315080119D046F800280CBF04201220F1F744F82168C4
S315080119E0C869421CCA6110BD80B5DFF814150968BB
S315080119F000200090C8610423042200A904F021FAFA
S31508011A0001BD00B585B01123062200A9012004F005
S31508011A1018FADFF8EC049DF81010026882F8201015
S31508011A200068C07E00281CBF0528002002D1F4F7F3
S31508011A30C5FA012005B000BD70B50C4615461E460F
S31508011A40014610223046F3F769F83470280AB07354
S31508011A50F5733046BDE87040F4F7B1BA2DE9FB4F8E
S31508011A608CB090469DF86400189D00289DF83000BA
S31508011A708DF8040014BF012702279DF83800841A3F
S31508011A809DF83000029026460D9850B900F0A3F84B
S31508011A90DFF87014029A0968555CFF281CBF405C80
S31508011AA045199DF8640000289DF8380014BF0921DE
S31508011AB04921EDB22A1A1A9803AB92B2FFF7BCFF75
S31508011AC00DF10C0A9AF8010060408AF801009DF8A8
S31508011AD0640030B11022002103A8F3F762F88DF8EB
S31508011AE00C4000244FF0000915E017F80A3011F8E8
S31508011AF0010B434007F80A30521C7F1CD2B25A45E3
S31508011B00FFB2F2DBD944102F5FFA89F903D103A892
S31508011B10F4F755FA0027F6B2B1451EDAC7F1100BEC
S31508011B20A6EB0900C0B25FFA8BFB584538BF83465E
S31508011B300D9858B9009009EB08029DF804105B4608
S31508011B40D2B207A8F6F791FB07A904E05FFA88F86D
S31508011B50404409EB00010022D0E7012C18BF002FF1
S31508011B60B04403D003A8F4F72AFA00270D9808BB56
S31508011B7000F031F884B9E349029A0968515C9DF885
S31508011B8038208E1AFF289DF8640008BF0124B0B1D9
S31508011B90F6B2A6B9022412E0012C10D100F01BF806
S31508011BA08DF804004FF00008D6489DF80410006827
S31508011BB00E5C04E01CB99DF8380001242E1A601C3D
S31508011BC0C4B2032C8EDB1B98042203A9F2F7A6FFE5
S31508011BD00FB0BDE8F08F9DF83000F6F7DDBA2DE9B4
S31508011BE0F04F85B004460F4690460025F6F7D4FA1D
S31508011BF0824601224FF0010901AB114600F078F83F
S31508011C008DF80040DFF800B3BE489DF80010006863
S31508011C100E5C394600A8F6F709FCF71B0446FFB225
S31508011C2023E0037815F80C205A4000F8012B491CCB
S31508011C306D1CC9B2B142EDB2F3DB3419BF1BE4B274
S31508011C40202CFFB207D1DBF800009DF80010085CD4
S31508011C508DF800000024102D07D109F1010901AB07
S31508011C601FFA89F200F043F80025A7B1C4F120064E
S31508011C70F6B2C5F11000BE42A8BF3E46C0B28642C2
S31508011C8028BF06469DF80000F6F7DCF92018002162
S31508011C900DF1040CCDE78DF800A04FF0FF0A9DF871
S31508011CA00000FF28B0D105B0BDE8F08F2DE9FF414E
S31508011CB004460D461646984609E02278C85C504007
S31508011CC004F8010B491CC9B2B942F6DBED1BEDB2AA
S31508011CD05DB1102DB4BF2F46102700ABB2B200F08C
S31508011CE006F8761C002100ABEDE7BDE8FF8101216E
S31508011CF04046A1E670B50D461146814A1268D27E64
S31508011D000446287800F020061043287006B1691D9C
S31508011D100822601CF2F702FF0422691C04F109007B
S31508011D20F2F7FCFE28786073002E297814BF0D207F
S31508011D30052001F01801082908BF401CC0B270BD72
S31508011D40F0B506466F4800680C4685B0205C154616
S31508011D501F46431BDBB20E2BA8BF0D2300200090A4
S31508011D6001A8F6F782FA3A4601A93046FFF7C2FFFB
S31508011D7006469DF8042029462046F6F768FB3046B4
S31508011D8005B0F0BD2DE9F0418CB0044688461546EC
S31508011D90F6F702FA06465D4B2A46214608A8FFF7DA
S31508011DA0CFFF471904A80390FBB208A80290424640
S31508011DB000200190009000212046FFF74FFE00F019
S31508011DC04BF808AAF9B22046FFF709FF294620462B
S31508011DD0F6F738FB00F0F80229462046F6F737FBF6
S31508011DE0FF2E18BF3446042204A92046F6F7A7FA9F
S31508011DF0401E8041C00F2CE02DE9F0418CB004460D
S31508011E000D4690461F46414A391908A8FFF772FF41
S31508011E10C61904A80390009508A80290F3B20020F9
S31508011E20019042462146FF20FFF718FE00F014F8FC
S31508011E30042204A92819F2F771FE385D00F0F800AA
S31508011E403855A91BF6B208AB0122C9B23019FFF7FA
S31508011E502DFF0CB0BDE8F08108AB0022042104A8CF
S31508011E6024E72DE9F04391B08046894615461C467C
S31508011E70F6F792F9074623462A46414608A8FFF788
S31508011E805FFF44191F480068FF2F08BF4746042310
S31508011E90385C061F00200090F2B2394604A8F6F70E
S31508011EA0E4F9F1B23846F6F782FAFFF7D5FF08AA40
S31508011EB0E1B24046FFF793FE0CA80390E3B208A8E7
S31508011EC002904A4600200190009000214046FFF703
S31508011ED0C5FD29464046F6F7B5FA00F0F802294647
S31508011EE04046F6F7B4FA04220CA904A8F2F760FEF4
S31508011EF0401E8041C00F11B0BDE8F083000000000C
S31508011F00C42B00200827002010270020F82B0020CA
S31508011F1080B50423012200A9012003F092FF00984D
S31508011F20DFF8E4120003086001BD10B5DFF8D842F6
S31508011F302068000504BF0120F0F795FD2068411CC3
S31508011F40216010BD80B5DFF8C0120020009008603E
S31508011F50042300AA7F210120F0F761FD01BD2DE9C7
S31508011F60F84F94B00E461F9C002703210C42804669
S31508011F70924603AD4FF0A60B04D08DF80C300DF147
S31508011F800D0513E0711D89B2504600F0C4F9002809
S31508011F9045D0009705233246514603A8F6F765F959
S31508011FA09DF80C0000F018008DF85000DDF87890C7
S31508011FB0B9F1000F58D15046F6F7D5FB21074CBFAA
S31508011FC0001D801CF8F712F901900DF11C099DF806
S31508011FD00C0080060FD506F10D0189B2504600F0B6
S31508011FE09AF9C8B1721D00970823D2B2514607A8BB
S31508011FF0F6F73BF905E0019807A980B2F9F7ACFEB7
S3150801200050B98248006804F0180118290FD10199BE
S3150801201069B14088814227D00320044203D10021B7
S315080120201A20F3F774FD584615B0BDE8F08F417BC9
S31508012030432904BF0199002916D1007D400613D50D
S3150801204009A805F0F1F99DF80C00800648BF07A913
S3150801205004D46E480068011D00F10409082209A884
S31508012060F2F7A6FD00B1012741465046F6F7EAF90F
S3150801207000F00300431E9B41DB0F002F14BF09A884
S31508012080484602AA0BA905F023FA5FEA000BC3D159
S315080120905FB10FAA0BA9102006F06AFC0028BBD174
S315080120A010220FA90BA8F2F739FD9DF8500008B9BF
S315080120B00BA80BE0102845D100208DF800000FABC6
S315080120C0012200A90BA806F0F9FC0FA8F3F760FF97
S315080120D003210C42DFF838B13CD0FFF726FF024650
S315080120E029460120F8F78DF82D1DA00718D5414678
S315080120F0504600F028FA093080449DF80C0040F05B
S3150801210020008DF80C00082259462846F2F706FDEC
S3150801211008355FFA88F1504600F0FDF900EB08062C
S3150801212001200090F2B203A82B1ADBB25146F6F74A
S315080121309CF8F2B25FFA88F15046FFF723FE38B1F0
S31508012140002071E7182808BF0220B6D0A6206BE741
S31508012150182069E70DF10D010120F8F760F8054629
S3150801216060071AD4029860B900244B4600200090F3
S31508012170324641465046FFF774FE88B94FF0A60B22
S315080121804DE797F00104F0D000688542EDD20021B1
S315080121901620F3F7BCFC012046E700245B46E5E779
S315080121A014B10299681C0860002FC9D04FF08051FC
S315080121B0002005F006F9C3E72DE9FC4104468846E7
S315080121C016461F4600F05CF905462946204600F0EA
S315080121D0A2F941190197009643462246C9B22846F3
S315080121E0FFF7BDFEBDE8F68180B5F5F7D5FFFF28F7
S315080121F008D0084A1268815CBDE80440091FC9B2C3
S31508012200F6F7D5B801BD00005C2E0020C42B0020CE
S31508012210F82B0020082700202DE9F8438046894637
S3150801222017461C46F5F7B8FF0546FF2DDFF8586532
S3150801223009D0AFB9F6F711F9FF2820702BD130680C
S31508012240285C90BB27E0306818F80000A0EB09006D
S31508012250B9F1FF0F08BF01201ED0C6B216B9FF207B
S31508012260207018E0D7B145462846F5F751FF009684
S315080122704B46424600212846F6F7C3F957B131467F
S315080122802846F6F794F8DFF804050068295C01F09A
S315080122907F01295425700020BDE8F28331460020CC
S315080122A0F5F7C7FF0546FF2DE1D11820F4E738B544
S315080122B00446DFF8D4040068255C204600F0E0F8FF
S315080122C000F10E03DBB2E91A89B2009122460146F2
S315080122D02046F6F796F9A5F10E012046BDE83440E9
S315080122E0C9B2F6F764B838B50446F6F73CFA0546B6
S315080122F02046F6F72EFA6A780821D30748BF09213E
S31508012300130744BF0831C9B2D20644BF0831C9B25E
S315080123100818C0B232BDDFF870241268825C8A429E
S315080123208041C043C00F704700F8011B090A00F835
S31508012330011B704710B504460822F2F7EFFB04F1BA
S31508012340080010BD2DE9F04E92460C46024684B0AF
S3150801235099464FF6FF710420F6F7C2FA0546FF2D96
S315080123606CD0F6F700FADFF8286407463068C07EB5
S3150801237010B94FF6FF50044020050DD5B9F1000FED
S315080123800AD100A95046F9F7E7FC00280EBF0DF15E
S3150801239000094FF2FF70044021463846FFF7C4FF93
S315080123A05146FFF7C1FF8346F9F707FD014658462F
S315080123B0FFF7BAFFDFF8DC2313780C9A0146481CAD
S315080123C00AB1934200D21A460A703168DFF8B86337
S315080123D04A7E521C4A7600F8012BE10548BF401C8B
S315080123E0210544BF4946FFF7A5FFE10444BFDFF8CD
S315080123F0A813FFF79FFF31686A5C8018C01B6854F1
S3150801240040F20110044218D14FF6F870824514DAE9
S3150801241030682F5CF3F722FB29465046F4F7FCFB9C
S31508012420F3F722FB3068285CB84206D02846F6F74F
S315080124309AF9417841F004014170284604B0BDE893
S31508012440F08E70B582B01546069A1E4641F20924E9
S315080124500AB141F6092400910246079B2146FF204D
S31508012460FFF770FF0446FF2C09D032462946F5F7D7
S3150801247066FF0028204602D0F5F758FEFF2076BDF4
S3150801248038B50446FFF72FFF05462046F6F76BF9E0
S315080124904078400704D500F072F8401C05EB40056A
S315080124A0E8B232BD00F108014078020701D40020E4
S315080124B07047C00701D5481C70470846704700F1A8
S315080124C008014078C20601D400207047C20748BFF8
S315080124D0491C000702D501F10800704708467047F4
S315080124E000F00301012901D10220704700F00C0018
S315080124F00C2801D109207047082070470322114290
S3150801250007D000F00300022801D1032070470220FA
S31508012510704700207047F8B504460D46F5F792FF57
S315080125200646FFF7DDFF0746300601D43846F2BDF9
S315080125307919C9B200F024F801463046FFF7DEFFE3
S31508012540C019C0B2F2BD70B504460D46FFF7E3FFE8
S31508012550064600F014F880060FD57119C9B200F0C5
S315080125600FF8761D00F01801F6B2082904BF761C8B
S31508012570F6B2800644BF0836F6B2304670BD294623
S315080125802046F5F75FBF38B50446FFF779FF0546DC
S3150801259029462046FFF7D7FF4019C0B232BD2DE9BB
S315080125A0FF4780460C46F6F7DEF80646F7F71EFEA5
S315080125B005464046FFF764FF074639464046FFF79A
S315080125C0AAFF0021009103463A46414601A8F5F7BC
S315080125D04CFE9DF8048008F00C000DF1050A4FF039
S315080125E0FF090C281ABF9DF805000DF1060A484691
S315080125F008F00C07607106D15046F7F7F7FD208100
S315080126000AF1020A01E0002020817078C00704D58A
S315080126100C27B01CF7F7EAFD20815046F7F7E6FDCF
S3150801262060800AF102063046F7F7E0FD208008F0DF
S315080126300301B01C012918BF10F8019B84F8049006
S3150801264010F8011BA17208F0600139432A0648BF38
S3150801265041F4007103D46A0648BF41F48071EA0463
S3150801266048BF41F480612A0548BF41F40061E18011
S315080126705FEA086117D510F8011B11F0030112D0A2
S31508012680E38810F8012B43F40043E38008F00303C1
S31508012690022B04D1007842EA0020208103E00129B7
S315080126A008BF12022281BDE8FF872DE9F0411546D0
S315080126B086B080460C46E888082C18BF0C2C0646BE
S315080126C004D080045CBF06F040000143304F3868EF
S315080126D0C07E10B106F020000143300448BF41F026
S315080126E080010C2C8DF8001005D129890DF1010006
S315080126F0FFF71AFE04E068798DF801000DF1020072
S315080127006988FFF711FE2988FFF70EFE297900F877
S31508012710011B022C09D0310402D52989C9B221B974
S3150801272039688A7E531C8B76AA72A97A00F8011B2E
S31508012730310415D529890A0A022C01D0CBB23BB13D
S31508012740022300F8013B022C00F8011B08D105E021
S3150801275010F8011CA972012100F8011B00F8012BD0
S315080127603968C97E19B1A979890648BF401D00A9EA
S31508012770421AD2B24046F5F7E2FD401E8041C00F2B
S3150801278006B0BDE8F0810000082700200C270020CC
S31508012790C42B002078270020F82B002070B5DFF81D
S315080127A0445C0446286882B02688407B08B17020BC
S315080127B076BDB00504D504F1120000F0CDFDF0B9DF
S315080127C006F08600862801D1B72076BD00F0B7FD50
S315080127D02868466116F4045F20D0B0040BD5A01C06
S315080127E006F09DF9002851D12868416921F4005164
S315080127F041F480714161A01C00F0AEFD08B1B22020
S3150801280076BDF9F7ACF820B92868416941F48031F9
S3150801281041612868416941F020014161286841699F
S3150801282041F40041416148064CBF04F123020022EC
S31508012830A31C47F2FF1004F08FFD00A800F040F832
S3150801284028684069C004BDF8000004D540F020009E
S31508012850ADF8000008E04FF6DF710840ADF800005A
S31508012860FFF7C2F8FFF76EFBBDF8000000F00FF89E
S3150801287028684069800506D594F82210012204F1DA
S31508012880120000F07CFB29680020486276BD10B56D
S31508012890044604F44C700104002300224FF07F60C3
S315080128A004F05AFD23462F22C2A10320F4F7A9F901
S315080128B0E00703D50021302004F083FD002010BD78
S315080128C0DFF8201B09684969090C01F44C7101807C
S315080128D00020704738B5DFF80C5B04462868407B52
S315080128E0022801D0932032BD0A2200212046F2F7A0
S315080128F058F92868406900F0FF01820648BF41F08F
S315080129001001218080075CBFA01C04F08DFD00200A
S3150801291032BD38B504460D46FFF773F808B9952058
S3150801292032BD00F05FFAC17E89B14069010401D464
S31508012930A82032BD5DB110F0420F08BF002C04D0AB
S3150801294000F44070B0F5407F01D0B72032BD0020B9
S3150801295032BD2DE9F04F8BB081468B46FFF790FDCE
S3150801296001464846F5F76EFD044600254846F5F743
S31508012970FAFE804698F80100800748BF0125A0069F
S3150801298048BF45F002054846FFF7FDFD8DF80400EE
S31508012990DFF8540A00689DF8041019F800009DF83C
S315080129A00420431ADBB2242BA8BF2323002000905E
S315080129B0494602A8F5F759FC9DF80840012000FA96
S315080129C004FA00F08BF902AE777878B100F018FDB9
S315080129D0002814BFA0204FF4F070E040C00705D5C9
S315080129E0A80703D4082C0CD1042F09D1F6F7BDF991
S315080129F050B1052C01D1022F06D11AF01E0003D1C0
S31508012A0082E0052CF2D07FE043F61E411AEA010F57
S31508012A1005D05A464946204606F083F874E0052C47
S31508012A204FF6FF7A0AD0062C18D0072C37D0082C77
